{
	"Contracts/Liquidator.sol": {
		"Liquidator": {
			"abi": [
				{
					"inputs": [
						{
							"internalType": "address",
							"name": "initialOwner",
							"type": "address"
						},
						{
							"internalType": "uint256",
							"name": "_minCollateralValue",
							"type": "uint256"
						},
						{
							"internalType": "uint256",
							"name": "_liquidationFeeBps",
							"type": "uint256"
						},
						{
							"internalType": "uint256",
							"name": "_maxLiquidationBps",
							"type": "uint256"
						}
					],
					"stateMutability": "nonpayable",
					"type": "constructor"
				},
				{
					"inputs": [
						{
							"internalType": "address",
							"name": "owner",
							"type": "address"
						}
					],
					"name": "OwnableInvalidOwner",
					"type": "error"
				},
				{
					"inputs": [
						{
							"internalType": "address",
							"name": "account",
							"type": "address"
						}
					],
					"name": "OwnableUnauthorizedAccount",
					"type": "error"
				},
				{
					"anonymous": false,
					"inputs": [
						{
							"indexed": true,
							"internalType": "address",
							"name": "vault",
							"type": "address"
						},
						{
							"indexed": true,
							"internalType": "address",
							"name": "liquidator",
							"type": "address"
						},
						{
							"indexed": true,
							"internalType": "address",
							"name": "userLiquidated",
							"type": "address"
						},
						{
							"indexed": false,
							"internalType": "uint256",
							"name": "seizedShares",
							"type": "uint256"
						},
						{
							"indexed": false,
							"internalType": "uint256",
							"name": "feeShares",
							"type": "uint256"
						},
						{
							"indexed": false,
							"internalType": "address",
							"name": "recipient",
							"type": "address"
						}
					],
					"name": "LiquidationExecuted",
					"type": "event"
				},
				{
					"anonymous": false,
					"inputs": [
						{
							"indexed": false,
							"internalType": "uint256",
							"name": "oldFee",
							"type": "uint256"
						},
						{
							"indexed": false,
							"internalType": "uint256",
							"name": "newFee",
							"type": "uint256"
						}
					],
					"name": "LiquidationFeeBpsUpdated",
					"type": "event"
				},
				{
					"anonymous": false,
					"inputs": [
						{
							"indexed": false,
							"internalType": "uint256",
							"name": "oldMaxBps",
							"type": "uint256"
						},
						{
							"indexed": false,
							"internalType": "uint256",
							"name": "newMaxBps",
							"type": "uint256"
						}
					],
					"name": "MaxLiquidationBpsUpdated",
					"type": "event"
				},
				{
					"anonymous": false,
					"inputs": [
						{
							"indexed": false,
							"internalType": "uint256",
							"name": "oldValue",
							"type": "uint256"
						},
						{
							"indexed": false,
							"internalType": "uint256",
							"name": "newValue",
							"type": "uint256"
						}
					],
					"name": "MinCollateralValueUpdated",
					"type": "event"
				},
				{
					"anonymous": false,
					"inputs": [
						{
							"indexed": true,
							"internalType": "address",
							"name": "previousOwner",
							"type": "address"
						},
						{
							"indexed": true,
							"internalType": "address",
							"name": "newOwner",
							"type": "address"
						}
					],
					"name": "OwnershipTransferred",
					"type": "event"
				},
				{
					"inputs": [
						{
							"internalType": "address",
							"name": "vault",
							"type": "address"
						},
						{
							"internalType": "address",
							"name": "user",
							"type": "address"
						}
					],
					"name": "checkUnderCollateral",
					"outputs": [
						{
							"internalType": "bool",
							"name": "isUnderCollateral",
							"type": "bool"
						},
						{
							"internalType": "uint256",
							"name": "userValue",
							"type": "uint256"
						}
					],
					"stateMutability": "view",
					"type": "function"
				},
				{
					"inputs": [
						{
							"internalType": "address",
							"name": "vault",
							"type": "address"
						},
						{
							"internalType": "address",
							"name": "user",
							"type": "address"
						},
						{
							"internalType": "uint256",
							"name": "seizeAmount",
							"type": "uint256"
						}
					],
					"name": "liquidate",
					"outputs": [],
					"stateMutability": "nonpayable",
					"type": "function"
				},
				{
					"inputs": [],
					"name": "liquidationFeeBps",
					"outputs": [
						{
							"internalType": "uint256",
							"name": "",
							"type": "uint256"
						}
					],
					"stateMutability": "view",
					"type": "function"
				},
				{
					"inputs": [],
					"name": "maxLiquidationBps",
					"outputs": [
						{
							"internalType": "uint256",
							"name": "",
							"type": "uint256"
						}
					],
					"stateMutability": "view",
					"type": "function"
				},
				{
					"inputs": [],
					"name": "minCollateralValue",
					"outputs": [
						{
							"internalType": "uint256",
							"name": "",
							"type": "uint256"
						}
					],
					"stateMutability": "view",
					"type": "function"
				},
				{
					"inputs": [],
					"name": "owner",
					"outputs": [
						{
							"internalType": "address",
							"name": "",
							"type": "address"
						}
					],
					"stateMutability": "view",
					"type": "function"
				},
				{
					"inputs": [],
					"name": "renounceOwnership",
					"outputs": [],
					"stateMutability": "nonpayable",
					"type": "function"
				},
				{
					"inputs": [
						{
							"internalType": "uint256",
							"name": "newFeeBps",
							"type": "uint256"
						}
					],
					"name": "setLiquidationFeeBps",
					"outputs": [],
					"stateMutability": "nonpayable",
					"type": "function"
				},
				{
					"inputs": [
						{
							"internalType": "uint256",
							"name": "newMaxBps",
							"type": "uint256"
						}
					],
					"name": "setMaxLiquidationBps",
					"outputs": [],
					"stateMutability": "nonpayable",
					"type": "function"
				},
				{
					"inputs": [
						{
							"internalType": "uint256",
							"name": "newValue",
							"type": "uint256"
						}
					],
					"name": "setMinCollateralValue",
					"outputs": [],
					"stateMutability": "nonpayable",
					"type": "function"
				},
				{
					"inputs": [
						{
							"internalType": "address",
							"name": "newOwner",
							"type": "address"
						}
					],
					"name": "transferOwnership",
					"outputs": [],
					"stateMutability": "nonpayable",
					"type": "function"
				}
			],
			"devdoc": {
				"errors": {
					"OwnableInvalidOwner(address)": [
						{
							"details": "The owner is not a valid owner account. (eg. `address(0)`)"
						}
					],
					"OwnableUnauthorizedAccount(address)": [
						{
							"details": "The caller account is not authorized to perform an operation."
						}
					]
				},
				"events": {
					"LiquidationExecuted(address,address,address,uint256,uint256,address)": {
						"details": "Emitted after a successful liquidation.",
						"params": {
							"feeShares": "The fee portion of shares, also seized and given to owner.",
							"liquidator": "The caller who triggered the liquidation action.",
							"recipient": "The address that receives the seized shares (the contract owner).",
							"seizedShares": "The base amount of shares seized from the user.",
							"userLiquidated": "The user whose shares were seized.",
							"vault": "The vault being liquidated."
						}
					},
					"LiquidationFeeBpsUpdated(uint256,uint256)": {
						"details": "Emitted when the liquidation fee is updated."
					},
					"MaxLiquidationBpsUpdated(uint256,uint256)": {
						"details": "Emitted when the maximum liquidation ratio is updated."
					},
					"MinCollateralValueUpdated(uint256,uint256)": {
						"details": "Emitted when the minCollateralValue is updated."
					}
				},
				"kind": "dev",
				"methods": {
					"checkUnderCollateral(address,address)": {
						"details": "Checks if a user is undercollateralized by computing their share value       from the vault's price feed and comparing it to `minCollateralValue`.",
						"params": {
							"user": "The user to check.",
							"vault": "The vault implementing IVaultLiquidation."
						},
						"returns": {
							"isUnderCollateral": "True if user's share value < minCollateralValue.",
							"userValue": "        The user's computed share value (in the feed's unit)."
						}
					},
					"constructor": {
						"params": {
							"_liquidationFeeBps": "A fee in basis points added on top of `seizeAmount`.",
							"_maxLiquidationBps": "The maximum fraction of user shares seizable in one call.",
							"_minCollateralValue": "The minimum user share value required to avoid liquidation.",
							"initialOwner": "The address that will own this Liquidator contract."
						}
					},
					"liquidate(address,address,uint256)": {
						"params": {
							"seizeAmount": "The base number of shares to seize (excluding fee).",
							"user": "The undercollateralized user to liquidate.",
							"vault": "The vault address implementing IVaultLiquidation."
						}
					},
					"owner()": {
						"details": "Returns the address of the current owner."
					},
					"renounceOwnership()": {
						"details": "Leaves the contract without owner. It will not be possible to call `onlyOwner` functions. Can only be called by the current owner. NOTE: Renouncing ownership will leave the contract without an owner, thereby disabling any functionality that is only available to the owner."
					},
					"setLiquidationFeeBps(uint256)": {
						"params": {
							"newFeeBps": "The new liquidation fee."
						}
					},
					"setMaxLiquidationBps(uint256)": {
						"params": {
							"newMaxBps": "The new ratio in basis points."
						}
					},
					"setMinCollateralValue(uint256)": {
						"params": {
							"newValue": "The new minCollateralValue."
						}
					},
					"transferOwnership(address)": {
						"details": "Transfers ownership of the contract to a new account (`newOwner`). Can only be called by the current owner."
					}
				},
				"stateVariables": {
					"liquidationFeeBps": {
						"details": "A liquidation fee in basis points (e.g., 500 => 5%).       This is added on top of `seizeAmount` and also transferred       to the contract owner upon liquidation."
					},
					"maxLiquidationBps": {
						"details": "The maximum proportion of a user's total shares that can be seized       in one liquidation call, in basis points (e.g., 5000 => 50%)."
					},
					"minCollateralValue": {
						"details": "The minimum value (in the same unit as the vault's price feed)       a user must maintain. If their share value < minCollateralValue,       they can be liquidated."
					}
				},
				"title": "Liquidator",
				"version": 1
			},
			"evm": {
				"assembly": "    /* \"Contracts/Liquidator.sol\":2032:9397  contract Liquidator is Ownable {... */\n  mstore(0x40, 0x80)\n    /* \"Contracts/Liquidator.sol\":4496:4992  constructor(... */\n  callvalue\n  dup1\n  iszero\n  tag_1\n  jumpi\n  revert(0x00, 0x00)\ntag_1:\n  pop\n  mload(0x40)\n  sub(codesize, bytecodeSize)\n  dup1\n  bytecodeSize\n  dup4\n  codecopy\n  dup2\n  add\n  0x40\n  dup2\n  swap1\n  mstore\n  tag_2\n  swap2\n  tag_3\n  jump\t// in\ntag_2:\n    /* \"Contracts/Liquidator.sol\":4661:4673  initialOwner */\n  dup4\n  sub(shl(0xa0, 0x01), 0x01)\n    /* \"@openzeppelin/contracts/access/Ownable.sol\":1273:1299  initialOwner == address(0) */\n  dup2\n  and\n    /* \"@openzeppelin/contracts/access/Ownable.sol\":1269:1364  if (initialOwner == address(0)) {... */\n  tag_7\n  jumpi\n    /* \"@openzeppelin/contracts/access/Ownable.sol\":1322:1353  OwnableInvalidOwner(address(0)) */\n  mload(0x40)\n  shl(0xe0, 0x1e4fbdf7)\n  dup2\n  mstore\n    /* \"@openzeppelin/contracts/access/Ownable.sol\":1350:1351  0 */\n  0x00\n    /* \"@openzeppelin/contracts/access/Ownable.sol\":1322:1353  OwnableInvalidOwner(address(0)) */\n  0x04\n  dup3\n  add\n    /* \"#utility.yul\":795:846   */\n  mstore\n    /* \"#utility.yul\":768:786   */\n  0x24\n  add\n    /* \"@openzeppelin/contracts/access/Ownable.sol\":1322:1353  OwnableInvalidOwner(address(0)) */\ntag_8:\n  mload(0x40)\n  dup1\n  swap2\n  sub\n  swap1\n  revert\n    /* \"@openzeppelin/contracts/access/Ownable.sol\":1269:1364  if (initialOwner == address(0)) {... */\ntag_7:\n    /* \"@openzeppelin/contracts/access/Ownable.sol\":1373:1405  _transferOwnership(initialOwner) */\n  tag_10\n    /* \"@openzeppelin/contracts/access/Ownable.sol\":1392:1404  initialOwner */\n  dup2\n    /* \"@openzeppelin/contracts/access/Ownable.sol\":1373:1391  _transferOwnership */\n  tag_11\n    /* \"@openzeppelin/contracts/access/Ownable.sol\":1373:1405  _transferOwnership(initialOwner) */\n  jump\t// in\ntag_10:\n    /* \"@openzeppelin/contracts/access/Ownable.sol\":1225:1412  constructor(address initialOwner) {... */\n  pop\n    /* \"Contracts/Liquidator.sol\":4715:4720  10000 */\n  0x2710\n    /* \"Contracts/Liquidator.sol\":4693:4711  _maxLiquidationBps */\n  dup2\n    /* \"Contracts/Liquidator.sol\":4693:4720  _maxLiquidationBps <= 10000 */\n  gt\n  iszero\n    /* \"Contracts/Liquidator.sol\":4685:4761  require(_maxLiquidationBps <= 10000, \"Liquidator: maxLiquidationBps > 100%\") */\n  tag_13\n  jumpi\n  mload(0x40)\n  shl(0xe5, 0x461bcd)\n  dup2\n  mstore\n    /* \"#utility.yul\":1059:1061   */\n  0x20\n    /* \"Contracts/Liquidator.sol\":4685:4761  require(_maxLiquidationBps <= 10000, \"Liquidator: maxLiquidationBps > 100%\") */\n  0x04\n  dup3\n  add\n    /* \"#utility.yul\":1041:1062   */\n  mstore\n    /* \"#utility.yul\":1098:1100   */\n  0x24\n    /* \"#utility.yul\":1078:1096   */\n  dup1\n  dup3\n  add\n    /* \"#utility.yul\":1071:1101   */\n  mstore\n    /* \"#utility.yul\":1137:1171   */\n  0x4c697175696461746f723a206d61784c69717569646174696f6e427073203e20\n    /* \"#utility.yul\":1117:1135   */\n  0x44\n  dup3\n  add\n    /* \"#utility.yul\":1110:1172   */\n  mstore\n  shl(0xe0, 0x31303025)\n    /* \"#utility.yul\":1188:1206   */\n  0x64\n  dup3\n  add\n    /* \"#utility.yul\":1181:1215   */\n  mstore\n    /* \"#utility.yul\":1232:1251   */\n  0x84\n  add\n    /* \"Contracts/Liquidator.sol\":4685:4761  require(_maxLiquidationBps <= 10000, \"Liquidator: maxLiquidationBps > 100%\") */\n  tag_8\n    /* \"#utility.yul\":857:1257   */\n  jump\n    /* \"Contracts/Liquidator.sol\":4685:4761  require(_maxLiquidationBps <= 10000, \"Liquidator: maxLiquidationBps > 100%\") */\ntag_13:\n    /* \"Contracts/Liquidator.sol\":4801:4805  5000 */\n  0x1388\n    /* \"Contracts/Liquidator.sol\":4779:4797  _liquidationFeeBps */\n  dup3\n    /* \"Contracts/Liquidator.sol\":4779:4805  _liquidationFeeBps <= 5000 */\n  gt\n  iszero\n    /* \"Contracts/Liquidator.sol\":4771:4838  require(_liquidationFeeBps <= 5000, \"Liquidator: feeBps too large\") */\n  tag_16\n  jumpi\n  mload(0x40)\n  shl(0xe5, 0x461bcd)\n  dup2\n  mstore\n    /* \"#utility.yul\":1464:1466   */\n  0x20\n    /* \"Contracts/Liquidator.sol\":4771:4838  require(_liquidationFeeBps <= 5000, \"Liquidator: feeBps too large\") */\n  0x04\n  dup3\n  add\n    /* \"#utility.yul\":1446:1467   */\n  mstore\n    /* \"#utility.yul\":1503:1505   */\n  0x1c\n    /* \"#utility.yul\":1483:1501   */\n  0x24\n  dup3\n  add\n    /* \"#utility.yul\":1476:1506   */\n  mstore\n    /* \"#utility.yul\":1542:1572   */\n  0x4c697175696461746f723a2066656542707320746f6f206c6172676500000000\n    /* \"#utility.yul\":1522:1540   */\n  0x44\n  dup3\n  add\n    /* \"#utility.yul\":1515:1573   */\n  mstore\n    /* \"#utility.yul\":1590:1608   */\n  0x64\n  add\n    /* \"Contracts/Liquidator.sol\":4771:4838  require(_liquidationFeeBps <= 5000, \"Liquidator: feeBps too large\") */\n  tag_8\n    /* \"#utility.yul\":1262:1614   */\n  jump\n    /* \"Contracts/Liquidator.sol\":4771:4838  require(_liquidationFeeBps <= 5000, \"Liquidator: feeBps too large\") */\ntag_16:\n    /* \"Contracts/Liquidator.sol\":4849:4867  minCollateralValue */\n  0x01\n    /* \"Contracts/Liquidator.sol\":4849:4889  minCollateralValue = _minCollateralValue */\n  swap3\n  swap1\n  swap3\n  sstore\n    /* \"Contracts/Liquidator.sol\":4899:4916  liquidationFeeBps */\n  0x02\n    /* \"Contracts/Liquidator.sol\":4899:4937  liquidationFeeBps = _liquidationFeeBps */\n  sstore\n    /* \"Contracts/Liquidator.sol\":4947:4964  maxLiquidationBps */\n  0x03\n    /* \"Contracts/Liquidator.sol\":4947:4985  maxLiquidationBps = _maxLiquidationBps */\n  sstore\n  pop\n    /* \"Contracts/Liquidator.sol\":2032:9397  contract Liquidator is Ownable {... */\n  jump(tag_21)\n    /* \"@openzeppelin/contracts/access/Ownable.sol\":2912:3099  function _transferOwnership(address newOwner) internal virtual {... */\ntag_11:\n    /* \"@openzeppelin/contracts/access/Ownable.sol\":2985:3001  address oldOwner */\n  0x00\n    /* \"@openzeppelin/contracts/access/Ownable.sol\":3004:3010  _owner */\n  dup1\n  sload\n  sub(shl(0xa0, 0x01), 0x01)\n    /* \"@openzeppelin/contracts/access/Ownable.sol\":3020:3037  _owner = newOwner */\n  dup4\n  dup2\n  and\n  not(sub(shl(0xa0, 0x01), 0x01))\n  dup4\n  and\n  dup2\n  or\n  dup5\n  sstore\n    /* \"@openzeppelin/contracts/access/Ownable.sol\":3052:3092  OwnershipTransferred(oldOwner, newOwner) */\n  mload(0x40)\n    /* \"@openzeppelin/contracts/access/Ownable.sol\":3004:3010  _owner */\n  swap2\n  swap1\n  swap3\n  and\n  swap3\n  dup4\n  swap2\n    /* \"@openzeppelin/contracts/access/Ownable.sol\":3052:3092  OwnershipTransferred(oldOwner, newOwner) */\n  0x8be0079c531659141344cd1fd0a4f28419497f9722a3daafe3b4186f6b6457e0\n  swap2\n    /* \"@openzeppelin/contracts/access/Ownable.sol\":2985:3001  address oldOwner */\n  swap1\n    /* \"@openzeppelin/contracts/access/Ownable.sol\":3052:3092  OwnershipTransferred(oldOwner, newOwner) */\n  log3\n    /* \"@openzeppelin/contracts/access/Ownable.sol\":2975:3099  {... */\n  pop\n    /* \"@openzeppelin/contracts/access/Ownable.sol\":2912:3099  function _transferOwnership(address newOwner) internal virtual {... */\n  pop\n  jump\t// out\n    /* \"#utility.yul\":14:644   */\ntag_3:\n    /* \"#utility.yul\":111:117   */\n  0x00\n    /* \"#utility.yul\":119:125   */\n  0x00\n    /* \"#utility.yul\":127:133   */\n  0x00\n    /* \"#utility.yul\":135:141   */\n  0x00\n    /* \"#utility.yul\":188:191   */\n  0x80\n    /* \"#utility.yul\":176:185   */\n  dup6\n    /* \"#utility.yul\":167:174   */\n  dup8\n    /* \"#utility.yul\":163:186   */\n  sub\n    /* \"#utility.yul\":159:192   */\n  slt\n    /* \"#utility.yul\":156:209   */\n  iszero\n  tag_23\n  jumpi\n    /* \"#utility.yul\":205:206   */\n  0x00\n    /* \"#utility.yul\":202:203   */\n  0x00\n    /* \"#utility.yul\":195:207   */\n  revert\n    /* \"#utility.yul\":156:209   */\ntag_23:\n    /* \"#utility.yul\":231:247   */\n  dup5\n  mload\n  sub(shl(0xa0, 0x01), 0x01)\n    /* \"#utility.yul\":276:307   */\n  dup2\n  and\n    /* \"#utility.yul\":266:308   */\n  dup2\n  eq\n    /* \"#utility.yul\":256:326   */\n  tag_24\n  jumpi\n    /* \"#utility.yul\":322:323   */\n  0x00\n    /* \"#utility.yul\":319:320   */\n  0x00\n    /* \"#utility.yul\":312:324   */\n  revert\n    /* \"#utility.yul\":256:326   */\ntag_24:\n    /* \"#utility.yul\":416:418   */\n  0x20\n    /* \"#utility.yul\":401:419   */\n  dup7\n  add\n    /* \"#utility.yul\":395:420   */\n  mload\n    /* \"#utility.yul\":512:514   */\n  0x40\n    /* \"#utility.yul\":497:515   */\n  dup8\n  add\n    /* \"#utility.yul\":491:516   */\n  mload\n    /* \"#utility.yul\":608:610   */\n  0x60\n    /* \"#utility.yul\":593:611   */\n  swap1\n  swap8\n  add\n    /* \"#utility.yul\":587:612   */\n  mload\n    /* \"#utility.yul\":345:350   */\n  swap2\n  swap9\n    /* \"#utility.yul\":395:420   */\n  swap1\n  swap8\n  pop\n    /* \"#utility.yul\":587:612   */\n  swap1\n  swap5\n  pop\n    /* \"#utility.yul\":14:644   */\n  swap3\n  pop\n  pop\n  pop\n  jump\t// out\n    /* \"#utility.yul\":1262:1614   */\ntag_21:\n    /* \"Contracts/Liquidator.sol\":2032:9397  contract Liquidator is Ownable {... */\n  dataSize(sub_0)\n  dup1\n  dataOffset(sub_0)\n  0x00\n  codecopy\n  0x00\n  return\nstop\n\nsub_0: assembly {\n        /* \"Contracts/Liquidator.sol\":2032:9397  contract Liquidator is Ownable {... */\n      mstore(0x40, 0x80)\n      callvalue\n      dup1\n      iszero\n      tag_1\n      jumpi\n      revert(0x00, 0x00)\n    tag_1:\n      pop\n      jumpi(tag_2, lt(calldatasize, 0x04))\n      shr(0xe0, calldataload(0x00))\n      dup1\n      0x8951b054\n      gt\n      tag_14\n      jumpi\n      dup1\n      0x8951b054\n      eq\n      tag_8\n      jumpi\n      dup1\n      0x8da5cb5b\n      eq\n      tag_9\n      jumpi\n      dup1\n      0xc4a34f37\n      eq\n      tag_10\n      jumpi\n      dup1\n      0xe031a824\n      eq\n      tag_11\n      jumpi\n      dup1\n      0xe81b5a8c\n      eq\n      tag_12\n      jumpi\n      dup1\n      0xf2fde38b\n      eq\n      tag_13\n      jumpi\n      revert(0x00, 0x00)\n    tag_14:\n      dup1\n      0x11299f11\n      eq\n      tag_3\n      jumpi\n      dup1\n      0x26c01303\n      eq\n      tag_4\n      jumpi\n      dup1\n      0x29880339\n      eq\n      tag_5\n      jumpi\n      dup1\n      0x5fee4865\n      eq\n      tag_6\n      jumpi\n      dup1\n      0x715018a6\n      eq\n      tag_7\n      jumpi\n    tag_2:\n      revert(0x00, 0x00)\n        /* \"Contracts/Liquidator.sol\":2730:2762  uint256 public maxLiquidationBps */\n    tag_3:\n      tag_15\n      sload(0x03)\n      dup2\n      jump\n    tag_15:\n      mload(0x40)\n        /* \"#utility.yul\":160:185   */\n      swap1\n      dup2\n      mstore\n        /* \"#utility.yul\":148:150   */\n      0x20\n        /* \"#utility.yul\":133:151   */\n      add\n        /* \"Contracts/Liquidator.sol\":2730:2762  uint256 public maxLiquidationBps */\n    tag_17:\n      mload(0x40)\n      dup1\n      swap2\n      sub\n      swap1\n      return\n        /* \"Contracts/Liquidator.sol\":7937:9395  function liquidate(... */\n    tag_4:\n      tag_19\n      tag_20\n      calldatasize\n      0x04\n      tag_21\n      jump\t// in\n    tag_20:\n      tag_22\n      jump\t// in\n    tag_19:\n      stop\n        /* \"Contracts/Liquidator.sol\":2275:2308  uint256 public minCollateralValue */\n    tag_5:\n      tag_15\n      sload(0x01)\n      dup2\n      jump\n        /* \"Contracts/Liquidator.sol\":6698:7510  function checkUnderCollateral(address vault, address user)... */\n    tag_6:\n      tag_26\n      tag_27\n      calldatasize\n      0x04\n      tag_28\n      jump\t// in\n    tag_27:\n      tag_29\n      jump\t// in\n    tag_26:\n      0x40\n      dup1\n      mload\n        /* \"#utility.yul\":1211:1225   */\n      swap3\n      iszero\n        /* \"#utility.yul\":1204:1226   */\n      iszero\n        /* \"#utility.yul\":1186:1227   */\n      dup4\n      mstore\n        /* \"#utility.yul\":1258:1260   */\n      0x20\n        /* \"#utility.yul\":1243:1261   */\n      dup4\n      add\n        /* \"#utility.yul\":1236:1270   */\n      swap2\n      swap1\n      swap2\n      mstore\n        /* \"#utility.yul\":1159:1177   */\n      add\n        /* \"Contracts/Liquidator.sol\":6698:7510  function checkUnderCollateral(address vault, address user)... */\n      tag_17\n        /* \"#utility.yul\":1018:1276   */\n      jump\n        /* \"@openzeppelin/contracts/access/Ownable.sol\":2293:2394  function renounceOwnership() public virtual onlyOwner {... */\n    tag_7:\n      tag_19\n      tag_33\n      jump\t// in\n        /* \"Contracts/Liquidator.sol\":5490:5771  function setLiquidationFeeBps(uint256 newFeeBps) external onlyOwner {... */\n    tag_8:\n      tag_19\n      tag_35\n      calldatasize\n      0x04\n      tag_36\n      jump\t// in\n    tag_35:\n      tag_37\n      jump\t// in\n        /* \"@openzeppelin/contracts/access/Ownable.sol\":1638:1723  function owner() public view virtual returns (address) {... */\n    tag_9:\n        /* \"@openzeppelin/contracts/access/Ownable.sol\":1684:1691  address */\n      0x00\n        /* \"@openzeppelin/contracts/access/Ownable.sol\":1710:1716  _owner */\n      sload\n        /* \"@openzeppelin/contracts/access/Ownable.sol\":1638:1723  function owner() public view virtual returns (address) {... */\n      mload(0x40)\n      sub(shl(0xa0, 0x01), 0x01)\n        /* \"@openzeppelin/contracts/access/Ownable.sol\":1710:1716  _owner */\n      swap1\n      swap2\n      and\n        /* \"#utility.yul\":1658:1709   */\n      dup2\n      mstore\n        /* \"#utility.yul\":1646:1648   */\n      0x20\n        /* \"#utility.yul\":1631:1649   */\n      add\n        /* \"@openzeppelin/contracts/access/Ownable.sol\":1638:1723  function owner() public view virtual returns (address) {... */\n      tag_17\n        /* \"#utility.yul\":1512:1715   */\n      jump\n        /* \"Contracts/Liquidator.sol\":5130:5347  function setMinCollateralValue(uint256 newValue) external onlyOwner {... */\n    tag_10:\n      tag_19\n      tag_43\n      calldatasize\n      0x04\n      tag_36\n      jump\t// in\n    tag_43:\n      tag_44\n      jump\t// in\n        /* \"Contracts/Liquidator.sol\":2521:2553  uint256 public liquidationFeeBps */\n    tag_11:\n      tag_15\n      sload(0x02)\n      dup2\n      jump\n        /* \"Contracts/Liquidator.sol\":5947:6240  function setMaxLiquidationBps(uint256 newMaxBps) external onlyOwner {... */\n    tag_12:\n      tag_19\n      tag_49\n      calldatasize\n      0x04\n      tag_36\n      jump\t// in\n    tag_49:\n      tag_50\n      jump\t// in\n        /* \"@openzeppelin/contracts/access/Ownable.sol\":2543:2758  function transferOwnership(address newOwner) public virtual onlyOwner {... */\n    tag_13:\n      tag_19\n      tag_52\n      calldatasize\n      0x04\n      tag_53\n      jump\t// in\n    tag_52:\n      tag_54\n      jump\t// in\n        /* \"Contracts/Liquidator.sol\":7937:9395  function liquidate(... */\n    tag_22:\n      sub(shl(0xa0, 0x01), 0x01)\n        /* \"Contracts/Liquidator.sol\":8063:8082  vault != address(0) */\n      dup4\n      and\n        /* \"Contracts/Liquidator.sol\":8055:8112  require(vault != address(0), \"Liquidator: invalid vault\") */\n      tag_56\n      jumpi\n      mload(0x40)\n      shl(0xe5, 0x461bcd)\n      dup2\n      mstore\n        /* \"#utility.yul\":2113:2115   */\n      0x20\n        /* \"Contracts/Liquidator.sol\":8055:8112  require(vault != address(0), \"Liquidator: invalid vault\") */\n      0x04\n      dup3\n      add\n        /* \"#utility.yul\":2095:2116   */\n      mstore\n        /* \"#utility.yul\":2152:2154   */\n      0x19\n        /* \"#utility.yul\":2132:2150   */\n      0x24\n      dup3\n      add\n        /* \"#utility.yul\":2125:2155   */\n      mstore\n        /* \"#utility.yul\":2191:2218   */\n      0x4c697175696461746f723a20696e76616c6964207661756c7400000000000000\n        /* \"#utility.yul\":2171:2189   */\n      0x44\n      dup3\n      add\n        /* \"#utility.yul\":2164:2219   */\n      mstore\n        /* \"#utility.yul\":2236:2254   */\n      0x64\n      add\n        /* \"Contracts/Liquidator.sol\":8055:8112  require(vault != address(0), \"Liquidator: invalid vault\") */\n    tag_57:\n      mload(0x40)\n      dup1\n      swap2\n      sub\n      swap1\n      revert\n    tag_56:\n      sub(shl(0xa0, 0x01), 0x01)\n        /* \"Contracts/Liquidator.sol\":8130:8148  user != address(0) */\n      dup3\n      and\n        /* \"Contracts/Liquidator.sol\":8122:8177  require(user != address(0), \"Liquidator: invalid user\") */\n      tag_59\n      jumpi\n      mload(0x40)\n      shl(0xe5, 0x461bcd)\n      dup2\n      mstore\n        /* \"#utility.yul\":2467:2469   */\n      0x20\n        /* \"Contracts/Liquidator.sol\":8122:8177  require(user != address(0), \"Liquidator: invalid user\") */\n      0x04\n      dup3\n      add\n        /* \"#utility.yul\":2449:2470   */\n      mstore\n        /* \"#utility.yul\":2506:2508   */\n      0x18\n        /* \"#utility.yul\":2486:2504   */\n      0x24\n      dup3\n      add\n        /* \"#utility.yul\":2479:2509   */\n      mstore\n        /* \"#utility.yul\":2545:2571   */\n      0x4c697175696461746f723a20696e76616c696420757365720000000000000000\n        /* \"#utility.yul\":2525:2543   */\n      0x44\n      dup3\n      add\n        /* \"#utility.yul\":2518:2572   */\n      mstore\n        /* \"#utility.yul\":2589:2607   */\n      0x64\n      add\n        /* \"Contracts/Liquidator.sol\":8122:8177  require(user != address(0), \"Liquidator: invalid user\") */\n      tag_57\n        /* \"#utility.yul\":2265:2613   */\n      jump\n        /* \"Contracts/Liquidator.sol\":8122:8177  require(user != address(0), \"Liquidator: invalid user\") */\n    tag_59:\n        /* \"Contracts/Liquidator.sol\":8209:8210  0 */\n      0x00\n        /* \"Contracts/Liquidator.sol\":8195:8206  seizeAmount */\n      dup2\n        /* \"Contracts/Liquidator.sol\":8195:8210  seizeAmount > 0 */\n      gt\n        /* \"Contracts/Liquidator.sol\":8187:8243  require(seizeAmount > 0, \"Liquidator: zero seizeAmount\") */\n      tag_62\n      jumpi\n      mload(0x40)\n      shl(0xe5, 0x461bcd)\n      dup2\n      mstore\n        /* \"#utility.yul\":2820:2822   */\n      0x20\n        /* \"Contracts/Liquidator.sol\":8187:8243  require(seizeAmount > 0, \"Liquidator: zero seizeAmount\") */\n      0x04\n      dup3\n      add\n        /* \"#utility.yul\":2802:2823   */\n      mstore\n        /* \"#utility.yul\":2859:2861   */\n      0x1c\n        /* \"#utility.yul\":2839:2857   */\n      0x24\n      dup3\n      add\n        /* \"#utility.yul\":2832:2862   */\n      mstore\n        /* \"#utility.yul\":2898:2928   */\n      0x4c697175696461746f723a207a65726f207365697a65416d6f756e7400000000\n        /* \"#utility.yul\":2878:2896   */\n      0x44\n      dup3\n      add\n        /* \"#utility.yul\":2871:2929   */\n      mstore\n        /* \"#utility.yul\":2946:2964   */\n      0x64\n      add\n        /* \"Contracts/Liquidator.sol\":8187:8243  require(seizeAmount > 0, \"Liquidator: zero seizeAmount\") */\n      tag_57\n        /* \"#utility.yul\":2618:2970   */\n      jump\n        /* \"Contracts/Liquidator.sol\":8187:8243  require(seizeAmount > 0, \"Liquidator: zero seizeAmount\") */\n    tag_62:\n        /* \"Contracts/Liquidator.sol\":8255:8275  bool underCollateral */\n      0x00\n        /* \"Contracts/Liquidator.sol\":8281:8314  checkUnderCollateral(vault, user) */\n      tag_65\n        /* \"Contracts/Liquidator.sol\":8302:8307  vault */\n      dup5\n        /* \"Contracts/Liquidator.sol\":8309:8313  user */\n      dup5\n        /* \"Contracts/Liquidator.sol\":8281:8301  checkUnderCollateral */\n      tag_29\n        /* \"Contracts/Liquidator.sol\":8281:8314  checkUnderCollateral(vault, user) */\n      jump\t// in\n    tag_65:\n        /* \"Contracts/Liquidator.sol\":8254:8314  (bool underCollateral, ) = checkUnderCollateral(vault, user) */\n      pop\n      swap1\n      pop\n        /* \"Contracts/Liquidator.sol\":8332:8347  underCollateral */\n      dup1\n        /* \"Contracts/Liquidator.sol\":8324:8392  require(underCollateral, \"Liquidator: user not undercollateralized\") */\n      tag_66\n      jumpi\n      mload(0x40)\n      shl(0xe5, 0x461bcd)\n      dup2\n      mstore\n        /* \"#utility.yul\":3177:3179   */\n      0x20\n        /* \"Contracts/Liquidator.sol\":8324:8392  require(underCollateral, \"Liquidator: user not undercollateralized\") */\n      0x04\n      dup3\n      add\n        /* \"#utility.yul\":3159:3180   */\n      mstore\n        /* \"#utility.yul\":3216:3218   */\n      0x28\n        /* \"#utility.yul\":3196:3214   */\n      0x24\n      dup3\n      add\n        /* \"#utility.yul\":3189:3219   */\n      mstore\n        /* \"#utility.yul\":3255:3289   */\n      0x4c697175696461746f723a2075736572206e6f7420756e646572636f6c6c6174\n        /* \"#utility.yul\":3235:3253   */\n      0x44\n      dup3\n      add\n        /* \"#utility.yul\":3228:3290   */\n      mstore\n      shl(0xc2, 0x195c985b1a5e9959)\n        /* \"#utility.yul\":3306:3324   */\n      0x64\n      dup3\n      add\n        /* \"#utility.yul\":3299:3337   */\n      mstore\n        /* \"#utility.yul\":3354:3373   */\n      0x84\n      add\n        /* \"Contracts/Liquidator.sol\":8324:8392  require(underCollateral, \"Liquidator: user not undercollateralized\") */\n      tag_57\n        /* \"#utility.yul\":2975:3379   */\n      jump\n        /* \"Contracts/Liquidator.sol\":8324:8392  require(underCollateral, \"Liquidator: user not undercollateralized\") */\n    tag_66:\n        /* \"Contracts/Liquidator.sol\":8480:8497  v.balanceOf(user) */\n      mload(0x40)\n      shl(0xe0, 0x70a08231)\n      dup2\n      mstore\n      sub(shl(0xa0, 0x01), 0x01)\n        /* \"#utility.yul\":1676:1708   */\n      dup5\n      dup2\n      and\n        /* \"Contracts/Liquidator.sol\":8480:8497  v.balanceOf(user) */\n      0x04\n      dup4\n      add\n        /* \"#utility.yul\":1658:1709   */\n      mstore\n        /* \"Contracts/Liquidator.sol\":8443:8448  vault */\n      dup6\n      swap2\n        /* \"Contracts/Liquidator.sol\":8403:8422  IVaultLiquidation v */\n      0x00\n      swap2\n        /* \"Contracts/Liquidator.sol\":8480:8491  v.balanceOf */\n      dup4\n      and\n      swap1\n      0x70a08231\n      swap1\n        /* \"#utility.yul\":1631:1649   */\n      0x24\n      add\n        /* \"Contracts/Liquidator.sol\":8480:8497  v.balanceOf(user) */\n      0x20\n      mload(0x40)\n      dup1\n      dup4\n      sub\n      dup2\n      dup7\n      gas\n      staticcall\n      iszero\n      dup1\n      iszero\n      tag_71\n      jumpi\n      returndatacopy(0x00, 0x00, returndatasize)\n      revert(0x00, returndatasize)\n    tag_71:\n      pop\n      pop\n      pop\n      pop\n      mload(0x40)\n      returndatasize\n      not(0x1f)\n      0x1f\n      dup3\n      add\n      and\n      dup3\n      add\n      dup1\n      0x40\n      mstore\n      pop\n      dup2\n      add\n      swap1\n      tag_72\n      swap2\n      swap1\n      tag_73\n      jump\t// in\n    tag_72:\n        /* \"Contracts/Liquidator.sol\":8459:8497  uint256 userShares = v.balanceOf(user) */\n      swap1\n      pop\n        /* \"Contracts/Liquidator.sol\":8529:8540  seizeAmount */\n      dup4\n        /* \"Contracts/Liquidator.sol\":8515:8525  userShares */\n      dup2\n        /* \"Contracts/Liquidator.sol\":8515:8540  userShares >= seizeAmount */\n      lt\n      iszero\n        /* \"Contracts/Liquidator.sol\":8507:8595  require(userShares >= seizeAmount, \"Liquidator: user has fewer shares than seizeAmount\") */\n      tag_74\n      jumpi\n      mload(0x40)\n      shl(0xe5, 0x461bcd)\n      dup2\n      mstore\n        /* \"#utility.yul\":3821:3823   */\n      0x20\n        /* \"Contracts/Liquidator.sol\":8507:8595  require(userShares >= seizeAmount, \"Liquidator: user has fewer shares than seizeAmount\") */\n      0x04\n      dup3\n      add\n        /* \"#utility.yul\":3803:3824   */\n      mstore\n        /* \"#utility.yul\":3860:3862   */\n      0x32\n        /* \"#utility.yul\":3840:3858   */\n      0x24\n      dup3\n      add\n        /* \"#utility.yul\":3833:3863   */\n      mstore\n        /* \"#utility.yul\":3899:3933   */\n      0x4c697175696461746f723a207573657220686173206665776572207368617265\n        /* \"#utility.yul\":3879:3897   */\n      0x44\n      dup3\n      add\n        /* \"#utility.yul\":3872:3934   */\n      mstore\n      shl(0x72, 0x1cc81d1a185b881cd95a5e99505b5bdd5b9d)\n        /* \"#utility.yul\":3950:3968   */\n      0x64\n      dup3\n      add\n        /* \"#utility.yul\":3943:3991   */\n      mstore\n        /* \"#utility.yul\":4008:4027   */\n      0x84\n      add\n        /* \"Contracts/Liquidator.sol\":8507:8595  require(userShares >= seizeAmount, \"Liquidator: user has fewer shares than seizeAmount\") */\n      tag_57\n        /* \"#utility.yul\":3619:4033   */\n      jump\n        /* \"Contracts/Liquidator.sol\":8507:8595  require(userShares >= seizeAmount, \"Liquidator: user has fewer shares than seizeAmount\") */\n    tag_74:\n        /* \"Contracts/Liquidator.sol\":8647:8666  uint256 maxSeizable */\n      0x00\n        /* \"Contracts/Liquidator.sol\":8704:8709  10000 */\n      0x2710\n        /* \"Contracts/Liquidator.sol\":8683:8700  maxLiquidationBps */\n      sload(0x03)\n        /* \"Contracts/Liquidator.sol\":8670:8680  userShares */\n      dup4\n        /* \"Contracts/Liquidator.sol\":8670:8700  userShares * maxLiquidationBps */\n      tag_77\n      swap2\n      swap1\n      tag_78\n      jump\t// in\n    tag_77:\n        /* \"Contracts/Liquidator.sol\":8669:8709  (userShares * maxLiquidationBps) / 10000 */\n      tag_79\n      swap2\n      swap1\n      tag_80\n      jump\t// in\n    tag_79:\n        /* \"Contracts/Liquidator.sol\":8647:8709  uint256 maxSeizable = (userShares * maxLiquidationBps) / 10000 */\n      swap1\n      pop\n        /* \"Contracts/Liquidator.sol\":8742:8753  maxSeizable */\n      dup1\n        /* \"Contracts/Liquidator.sol\":8727:8738  seizeAmount */\n      dup6\n        /* \"Contracts/Liquidator.sol\":8727:8753  seizeAmount <= maxSeizable */\n      gt\n      iszero\n        /* \"Contracts/Liquidator.sol\":8719:8798  require(seizeAmount <= maxSeizable, \"Liquidator: exceed max liquidation ratio\") */\n      tag_81\n      jumpi\n      mload(0x40)\n      shl(0xe5, 0x461bcd)\n      dup2\n      mstore\n        /* \"#utility.yul\":4767:4769   */\n      0x20\n        /* \"Contracts/Liquidator.sol\":8719:8798  require(seizeAmount <= maxSeizable, \"Liquidator: exceed max liquidation ratio\") */\n      0x04\n      dup3\n      add\n        /* \"#utility.yul\":4749:4770   */\n      mstore\n        /* \"#utility.yul\":4806:4808   */\n      0x28\n        /* \"#utility.yul\":4786:4804   */\n      0x24\n      dup3\n      add\n        /* \"#utility.yul\":4779:4809   */\n      mstore\n        /* \"#utility.yul\":4845:4879   */\n      0x4c697175696461746f723a20657863656564206d6178206c6971756964617469\n        /* \"#utility.yul\":4825:4843   */\n      0x44\n      dup3\n      add\n        /* \"#utility.yul\":4818:4880   */\n      mstore\n      shl(0xc0, 0x6f6e20726174696f)\n        /* \"#utility.yul\":4896:4914   */\n      0x64\n      dup3\n      add\n        /* \"#utility.yul\":4889:4927   */\n      mstore\n        /* \"#utility.yul\":4944:4963   */\n      0x84\n      add\n        /* \"Contracts/Liquidator.sol\":8719:8798  require(seizeAmount <= maxSeizable, \"Liquidator: exceed max liquidation ratio\") */\n      tag_57\n        /* \"#utility.yul\":4565:4969   */\n      jump\n        /* \"Contracts/Liquidator.sol\":8719:8798  require(seizeAmount <= maxSeizable, \"Liquidator: exceed max liquidation ratio\") */\n    tag_81:\n        /* \"Contracts/Liquidator.sol\":8842:8859  uint256 feeShares */\n      0x00\n        /* \"Contracts/Liquidator.sol\":8898:8903  10000 */\n      0x2710\n        /* \"Contracts/Liquidator.sol\":8877:8894  liquidationFeeBps */\n      sload(0x02)\n        /* \"Contracts/Liquidator.sol\":8863:8874  seizeAmount */\n      dup8\n        /* \"Contracts/Liquidator.sol\":8863:8894  seizeAmount * liquidationFeeBps */\n      tag_84\n      swap2\n      swap1\n      tag_78\n      jump\t// in\n    tag_84:\n        /* \"Contracts/Liquidator.sol\":8862:8903  (seizeAmount * liquidationFeeBps) / 10000 */\n      tag_85\n      swap2\n      swap1\n      tag_80\n      jump\t// in\n    tag_85:\n        /* \"Contracts/Liquidator.sol\":8842:8903  uint256 feeShares = (seizeAmount * liquidationFeeBps) / 10000 */\n      swap1\n      pop\n        /* \"Contracts/Liquidator.sol\":8913:8931  uint256 totalSeize */\n      0x00\n        /* \"Contracts/Liquidator.sol\":8934:8957  seizeAmount + feeShares */\n      tag_86\n        /* \"Contracts/Liquidator.sol\":8842:8903  uint256 feeShares = (seizeAmount * liquidationFeeBps) / 10000 */\n      dup3\n        /* \"Contracts/Liquidator.sol\":8934:8945  seizeAmount */\n      dup9\n        /* \"Contracts/Liquidator.sol\":8934:8957  seizeAmount + feeShares */\n      tag_87\n      jump\t// in\n    tag_86:\n        /* \"Contracts/Liquidator.sol\":8913:8957  uint256 totalSeize = seizeAmount + feeShares */\n      swap1\n      pop\n        /* \"Contracts/Liquidator.sol\":8989:8999  totalSeize */\n      dup1\n        /* \"Contracts/Liquidator.sol\":8975:8985  userShares */\n      dup5\n        /* \"Contracts/Liquidator.sol\":8975:8999  userShares >= totalSeize */\n      lt\n      iszero\n        /* \"Contracts/Liquidator.sol\":8967:9039  require(userShares >= totalSeize, \"Liquidator: totalSeize > userShares\") */\n      tag_88\n      jumpi\n      mload(0x40)\n      shl(0xe5, 0x461bcd)\n      dup2\n      mstore\n        /* \"#utility.yul\":5306:5308   */\n      0x20\n        /* \"Contracts/Liquidator.sol\":8967:9039  require(userShares >= totalSeize, \"Liquidator: totalSeize > userShares\") */\n      0x04\n      dup3\n      add\n        /* \"#utility.yul\":5288:5309   */\n      mstore\n        /* \"#utility.yul\":5345:5347   */\n      0x23\n        /* \"#utility.yul\":5325:5343   */\n      0x24\n      dup3\n      add\n        /* \"#utility.yul\":5318:5348   */\n      mstore\n        /* \"#utility.yul\":5384:5418   */\n      0x4c697175696461746f723a20746f74616c5365697a65203e2075736572536861\n        /* \"#utility.yul\":5364:5382   */\n      0x44\n      dup3\n      add\n        /* \"#utility.yul\":5357:5419   */\n      mstore\n      shl(0xe8, 0x726573)\n        /* \"#utility.yul\":5435:5453   */\n      0x64\n      dup3\n      add\n        /* \"#utility.yul\":5428:5461   */\n      mstore\n        /* \"#utility.yul\":5478:5497   */\n      0x84\n      add\n        /* \"Contracts/Liquidator.sol\":8967:9039  require(userShares >= totalSeize, \"Liquidator: totalSeize > userShares\") */\n      tag_57\n        /* \"#utility.yul\":5104:5503   */\n      jump\n        /* \"Contracts/Liquidator.sol\":8967:9039  require(userShares >= totalSeize, \"Liquidator: totalSeize > userShares\") */\n    tag_88:\n        /* \"Contracts/Liquidator.sol\":9255:9256  v */\n      dup5\n      sub(shl(0xa0, 0x01), 0x01)\n        /* \"Contracts/Liquidator.sol\":9255:9268  v.seizeShares */\n      and\n      0x1d14cd0f\n        /* \"Contracts/Liquidator.sol\":9269:9273  user */\n      dup10\n        /* \"Contracts/Liquidator.sol\":9275:9285  totalSeize */\n      dup4\n        /* \"Contracts/Liquidator.sol\":9287:9294  owner() */\n      tag_91\n        /* \"@openzeppelin/contracts/access/Ownable.sol\":1684:1691  address */\n      0x00\n        /* \"@openzeppelin/contracts/access/Ownable.sol\":1710:1716  _owner */\n      sload\n      sub(shl(0xa0, 0x01), 0x01)\n      and\n      swap1\n        /* \"@openzeppelin/contracts/access/Ownable.sol\":1638:1723  function owner() public view virtual returns (address) {... */\n      jump\n        /* \"Contracts/Liquidator.sol\":9287:9294  owner() */\n    tag_91:\n        /* \"Contracts/Liquidator.sol\":9255:9295  v.seizeShares(user, totalSeize, owner()) */\n      mload(0x40)\n      0xe0\n      dup6\n      swap1\n      shl\n      not(sub(shl(0xe0, 0x01), 0x01))\n      and\n      dup2\n      mstore\n      sub(shl(0xa0, 0x01), 0x01)\n        /* \"#utility.yul\":5728:5760   */\n      swap4\n      dup5\n      and\n        /* \"Contracts/Liquidator.sol\":9255:9295  v.seizeShares(user, totalSeize, owner()) */\n      0x04\n      dup3\n      add\n        /* \"#utility.yul\":5710:5761   */\n      mstore\n        /* \"#utility.yul\":5777:5795   */\n      0x24\n      dup2\n      add\n        /* \"#utility.yul\":5770:5804   */\n      swap3\n      swap1\n      swap3\n      mstore\n        /* \"#utility.yul\":5840:5872   */\n      swap1\n      swap2\n      and\n        /* \"#utility.yul\":5820:5838   */\n      0x44\n      dup3\n      add\n        /* \"#utility.yul\":5813:5873   */\n      mstore\n        /* \"#utility.yul\":5683:5701   */\n      0x64\n      add\n        /* \"Contracts/Liquidator.sol\":9255:9295  v.seizeShares(user, totalSeize, owner()) */\n      0x00\n      mload(0x40)\n      dup1\n      dup4\n      sub\n      dup2\n      0x00\n      dup8\n      dup1\n      extcodesize\n      iszero\n      dup1\n      iszero\n      tag_94\n      jumpi\n      revert(0x00, 0x00)\n    tag_94:\n      pop\n      gas\n      call\n      iszero\n      dup1\n      iszero\n      tag_96\n      jumpi\n      returndatacopy(0x00, 0x00, returndatasize)\n      revert(0x00, returndatasize)\n    tag_96:\n      pop\n      pop\n      pop\n      pop\n        /* \"Contracts/Liquidator.sol\":9350:9354  user */\n      dup8\n      sub(shl(0xa0, 0x01), 0x01)\n        /* \"Contracts/Liquidator.sol\":9311:9388  LiquidationExecuted(vault, msg.sender, user, seizeAmount, feeShares, owner()) */\n      and\n        /* \"Contracts/Liquidator.sol\":9338:9348  msg.sender */\n      caller\n      sub(shl(0xa0, 0x01), 0x01)\n        /* \"Contracts/Liquidator.sol\":9311:9388  LiquidationExecuted(vault, msg.sender, user, seizeAmount, feeShares, owner()) */\n      and\n        /* \"Contracts/Liquidator.sol\":9331:9336  vault */\n      dup11\n      sub(shl(0xa0, 0x01), 0x01)\n        /* \"Contracts/Liquidator.sol\":9311:9388  LiquidationExecuted(vault, msg.sender, user, seizeAmount, feeShares, owner()) */\n      and\n      0x900e49b75dd80ec3bea4347fabcc52ca262a91cdca47776af2875399e4b26dbe\n        /* \"Contracts/Liquidator.sol\":9356:9367  seizeAmount */\n      dup11\n        /* \"Contracts/Liquidator.sol\":9369:9378  feeShares */\n      dup7\n        /* \"Contracts/Liquidator.sol\":9380:9387  owner() */\n      tag_97\n        /* \"@openzeppelin/contracts/access/Ownable.sol\":1684:1691  address */\n      0x00\n        /* \"@openzeppelin/contracts/access/Ownable.sol\":1710:1716  _owner */\n      sload\n      sub(shl(0xa0, 0x01), 0x01)\n      and\n      swap1\n        /* \"@openzeppelin/contracts/access/Ownable.sol\":1638:1723  function owner() public view virtual returns (address) {... */\n      jump\n        /* \"Contracts/Liquidator.sol\":9380:9387  owner() */\n    tag_97:\n        /* \"Contracts/Liquidator.sol\":9311:9388  LiquidationExecuted(vault, msg.sender, user, seizeAmount, feeShares, owner()) */\n      0x40\n      dup1\n      mload\n        /* \"#utility.yul\":6086:6111   */\n      swap4\n      dup5\n      mstore\n        /* \"#utility.yul\":6142:6144   */\n      0x20\n        /* \"#utility.yul\":6127:6145   */\n      dup5\n      add\n        /* \"#utility.yul\":6120:6154   */\n      swap3\n      swap1\n      swap3\n      mstore\n      sub(shl(0xa0, 0x01), 0x01)\n        /* \"#utility.yul\":6190:6222   */\n      and\n        /* \"#utility.yul\":6170:6188   */\n      swap1\n      dup3\n      add\n        /* \"#utility.yul\":6163:6223   */\n      mstore\n        /* \"#utility.yul\":6074:6076   */\n      0x60\n        /* \"#utility.yul\":6059:6077   */\n      add\n        /* \"Contracts/Liquidator.sol\":9311:9388  LiquidationExecuted(vault, msg.sender, user, seizeAmount, feeShares, owner()) */\n      mload(0x40)\n      dup1\n      swap2\n      sub\n      swap1\n      log4\n        /* \"Contracts/Liquidator.sol\":8045:9395  {... */\n      pop\n      pop\n      pop\n      pop\n      pop\n      pop\n        /* \"Contracts/Liquidator.sol\":7937:9395  function liquidate(... */\n      pop\n      pop\n      pop\n      jump\t// out\n        /* \"Contracts/Liquidator.sol\":6698:7510  function checkUnderCollateral(address vault, address user)... */\n    tag_29:\n        /* \"Contracts/Liquidator.sol\":6936:6953  v.balanceOf(user) */\n      mload(0x40)\n      shl(0xe0, 0x70a08231)\n      dup2\n      mstore\n      sub(shl(0xa0, 0x01), 0x01)\n        /* \"#utility.yul\":1676:1708   */\n      dup3\n      dup2\n      and\n        /* \"Contracts/Liquidator.sol\":6936:6953  v.balanceOf(user) */\n      0x04\n      dup4\n      add\n        /* \"#utility.yul\":1658:1709   */\n      mstore\n        /* \"Contracts/Liquidator.sol\":6802:6824  bool isUnderCollateral */\n      0x00\n      swap2\n      dup3\n      swap2\n        /* \"Contracts/Liquidator.sol\":6899:6904  vault */\n      dup6\n      swap2\n        /* \"Contracts/Liquidator.sol\":6802:6824  bool isUnderCollateral */\n      dup4\n      swap2\n        /* \"Contracts/Liquidator.sol\":6936:6947  v.balanceOf */\n      dup4\n      and\n      swap1\n      0x70a08231\n      swap1\n        /* \"#utility.yul\":1631:1649   */\n      0x24\n      add\n        /* \"Contracts/Liquidator.sol\":6936:6953  v.balanceOf(user) */\n      0x20\n      mload(0x40)\n      dup1\n      dup4\n      sub\n      dup2\n      dup7\n      gas\n      staticcall\n      iszero\n      dup1\n      iszero\n      tag_103\n      jumpi\n      returndatacopy(0x00, 0x00, returndatasize)\n      revert(0x00, returndatasize)\n    tag_103:\n      pop\n      pop\n      pop\n      pop\n      mload(0x40)\n      returndatasize\n      not(0x1f)\n      0x1f\n      dup3\n      add\n      and\n      dup3\n      add\n      dup1\n      0x40\n      mstore\n      pop\n      dup2\n      add\n      swap1\n      tag_104\n      swap2\n      swap1\n      tag_73\n      jump\t// in\n    tag_104:\n        /* \"Contracts/Liquidator.sol\":6915:6953  uint256 userShares = v.balanceOf(user) */\n      swap1\n      pop\n        /* \"Contracts/Liquidator.sol\":6967:6977  userShares */\n      dup1\n        /* \"Contracts/Liquidator.sol\":6981:6982  0 */\n      0x00\n        /* \"Contracts/Liquidator.sol\":6967:6982  userShares == 0 */\n      sub\n        /* \"Contracts/Liquidator.sol\":6963:7199  if (userShares == 0) {... */\n      tag_105\n      jumpi\n        /* \"Contracts/Liquidator.sol\":7179:7184  false */\n      0x00\n        /* \"Contracts/Liquidator.sol\":7186:7187  0 */\n      0x00\n        /* \"Contracts/Liquidator.sol\":7171:7188  return (false, 0) */\n      swap4\n      pop\n      swap4\n      pop\n      pop\n      pop\n      jump(tag_100)\n        /* \"Contracts/Liquidator.sol\":6963:7199  if (userShares == 0) {... */\n    tag_105:\n        /* \"Contracts/Liquidator.sol\":7209:7229  uint256 _totalSupply */\n      0x00\n        /* \"Contracts/Liquidator.sol\":7232:7233  v */\n      dup3\n      sub(shl(0xa0, 0x01), 0x01)\n        /* \"Contracts/Liquidator.sol\":7232:7245  v.totalSupply */\n      and\n      0x18160ddd\n        /* \"Contracts/Liquidator.sol\":7232:7247  v.totalSupply() */\n      mload(0x40)\n      dup2\n      0xffffffff\n      and\n      0xe0\n      shl\n      dup2\n      mstore\n      0x04\n      add\n      0x20\n      mload(0x40)\n      dup1\n      dup4\n      sub\n      dup2\n      dup7\n      gas\n      staticcall\n      iszero\n      dup1\n      iszero\n      tag_107\n      jumpi\n      returndatacopy(0x00, 0x00, returndatasize)\n      revert(0x00, returndatasize)\n    tag_107:\n      pop\n      pop\n      pop\n      pop\n      mload(0x40)\n      returndatasize\n      not(0x1f)\n      0x1f\n      dup3\n      add\n      and\n      dup3\n      add\n      dup1\n      0x40\n      mstore\n      pop\n      dup2\n      add\n      swap1\n      tag_108\n      swap2\n      swap1\n      tag_73\n      jump\t// in\n    tag_108:\n        /* \"Contracts/Liquidator.sol\":7209:7247  uint256 _totalSupply = v.totalSupply() */\n      swap1\n      pop\n        /* \"Contracts/Liquidator.sol\":7258:7271  uint256 price */\n      0x00\n        /* \"Contracts/Liquidator.sol\":7277:7278  v */\n      dup4\n      sub(shl(0xa0, 0x01), 0x01)\n        /* \"Contracts/Liquidator.sol\":7277:7297  v.getUnderlyingPrice */\n      and\n      0x468f02d2\n        /* \"Contracts/Liquidator.sol\":7277:7299  v.getUnderlyingPrice() */\n      mload(0x40)\n      dup2\n      0xffffffff\n      and\n      0xe0\n      shl\n      dup2\n      mstore\n      0x04\n      add\n      0x40\n      dup1\n      mload\n      dup1\n      dup4\n      sub\n      dup2\n      dup7\n      gas\n      staticcall\n      iszero\n      dup1\n      iszero\n      tag_110\n      jumpi\n      returndatacopy(0x00, 0x00, returndatasize)\n      revert(0x00, returndatasize)\n    tag_110:\n      pop\n      pop\n      pop\n      pop\n      mload(0x40)\n      returndatasize\n      not(0x1f)\n      0x1f\n      dup3\n      add\n      and\n      dup3\n      add\n      dup1\n      0x40\n      mstore\n      pop\n      dup2\n      add\n      swap1\n      tag_111\n      swap2\n      swap1\n      tag_112\n      jump\t// in\n    tag_111:\n      pop\n        /* \"Contracts/Liquidator.sol\":7257:7299  (uint256 price, ) = v.getUnderlyingPrice() */\n      swap1\n      pop\n        /* \"Contracts/Liquidator.sol\":7403:7420  _totalSupply == 0 */\n      dup2\n      iszero\n        /* \"Contracts/Liquidator.sol\":7403:7439  _totalSupply == 0 ? 1 : _totalSupply */\n      tag_113\n      jumpi\n        /* \"Contracts/Liquidator.sol\":7427:7439  _totalSupply */\n      dup2\n        /* \"Contracts/Liquidator.sol\":7403:7439  _totalSupply == 0 ? 1 : _totalSupply */\n      jump(tag_114)\n    tag_113:\n        /* \"Contracts/Liquidator.sol\":7423:7424  1 */\n      0x01\n        /* \"Contracts/Liquidator.sol\":7403:7439  _totalSupply == 0 ? 1 : _totalSupply */\n    tag_114:\n        /* \"Contracts/Liquidator.sol\":7380:7398  price * userShares */\n      tag_115\n        /* \"Contracts/Liquidator.sol\":7388:7398  userShares */\n      dup5\n        /* \"Contracts/Liquidator.sol\":7380:7385  price */\n      dup4\n        /* \"Contracts/Liquidator.sol\":7380:7398  price * userShares */\n      tag_78\n      jump\t// in\n    tag_115:\n        /* \"Contracts/Liquidator.sol\":7379:7440  (price * userShares) / (_totalSupply == 0 ? 1 : _totalSupply) */\n      tag_116\n      swap2\n      swap1\n      tag_80\n      jump\t// in\n    tag_116:\n        /* \"Contracts/Liquidator.sol\":7367:7440  userValue = (price * userShares) / (_totalSupply == 0 ? 1 : _totalSupply) */\n      swap5\n      pop\n        /* \"Contracts/Liquidator.sol\":7484:7502  minCollateralValue */\n      sload(0x01)\n        /* \"Contracts/Liquidator.sol\":7472:7481  userValue */\n      dup6\n        /* \"Contracts/Liquidator.sol\":7472:7502  userValue < minCollateralValue */\n      lt\n        /* \"Contracts/Liquidator.sol\":7451:7503  isUnderCollateral = (userValue < minCollateralValue) */\n      swap6\n      pop\n        /* \"Contracts/Liquidator.sol\":6849:7510  {... */\n      pop\n      pop\n      pop\n      pop\n        /* \"Contracts/Liquidator.sol\":6698:7510  function checkUnderCollateral(address vault, address user)... */\n    tag_100:\n      swap3\n      pop\n      swap3\n      swap1\n      pop\n      jump\t// out\n        /* \"@openzeppelin/contracts/access/Ownable.sol\":2293:2394  function renounceOwnership() public virtual onlyOwner {... */\n    tag_33:\n        /* \"@openzeppelin/contracts/access/Ownable.sol\":1531:1544  _checkOwner() */\n      tag_118\n        /* \"@openzeppelin/contracts/access/Ownable.sol\":1531:1542  _checkOwner */\n      tag_119\n        /* \"@openzeppelin/contracts/access/Ownable.sol\":1531:1544  _checkOwner() */\n      jump\t// in\n    tag_118:\n        /* \"@openzeppelin/contracts/access/Ownable.sol\":2357:2387  _transferOwnership(address(0)) */\n      tag_121\n        /* \"@openzeppelin/contracts/access/Ownable.sol\":2384:2385  0 */\n      0x00\n        /* \"@openzeppelin/contracts/access/Ownable.sol\":2357:2375  _transferOwnership */\n      tag_122\n        /* \"@openzeppelin/contracts/access/Ownable.sol\":2357:2387  _transferOwnership(address(0)) */\n      jump\t// in\n    tag_121:\n        /* \"@openzeppelin/contracts/access/Ownable.sol\":2293:2394  function renounceOwnership() public virtual onlyOwner {... */\n      jump\t// out\n        /* \"Contracts/Liquidator.sol\":5490:5771  function setLiquidationFeeBps(uint256 newFeeBps) external onlyOwner {... */\n    tag_37:\n        /* \"@openzeppelin/contracts/access/Ownable.sol\":1531:1544  _checkOwner() */\n      tag_124\n        /* \"@openzeppelin/contracts/access/Ownable.sol\":1531:1542  _checkOwner */\n      tag_119\n        /* \"@openzeppelin/contracts/access/Ownable.sol\":1531:1544  _checkOwner() */\n      jump\t// in\n    tag_124:\n        /* \"Contracts/Liquidator.sol\":5589:5593  5000 */\n      0x1388\n        /* \"Contracts/Liquidator.sol\":5576:5585  newFeeBps */\n      dup2\n        /* \"Contracts/Liquidator.sol\":5576:5593  newFeeBps <= 5000 */\n      gt\n      iszero\n        /* \"Contracts/Liquidator.sol\":5568:5623  require(newFeeBps <= 5000, \"Liquidator: fee too large\") */\n      tag_126\n      jumpi\n      mload(0x40)\n      shl(0xe5, 0x461bcd)\n      dup2\n      mstore\n        /* \"#utility.yul\":6829:6831   */\n      0x20\n        /* \"Contracts/Liquidator.sol\":5568:5623  require(newFeeBps <= 5000, \"Liquidator: fee too large\") */\n      0x04\n      dup3\n      add\n        /* \"#utility.yul\":6811:6832   */\n      mstore\n        /* \"#utility.yul\":6868:6870   */\n      0x19\n        /* \"#utility.yul\":6848:6866   */\n      0x24\n      dup3\n      add\n        /* \"#utility.yul\":6841:6871   */\n      mstore\n        /* \"#utility.yul\":6907:6934   */\n      0x4c697175696461746f723a2066656520746f6f206c6172676500000000000000\n        /* \"#utility.yul\":6887:6905   */\n      0x44\n      dup3\n      add\n        /* \"#utility.yul\":6880:6935   */\n      mstore\n        /* \"#utility.yul\":6952:6970   */\n      0x64\n      add\n        /* \"Contracts/Liquidator.sol\":5568:5623  require(newFeeBps <= 5000, \"Liquidator: fee too large\") */\n      tag_57\n        /* \"#utility.yul\":6627:6976   */\n      jump\n        /* \"Contracts/Liquidator.sol\":5568:5623  require(newFeeBps <= 5000, \"Liquidator: fee too large\") */\n    tag_126:\n        /* \"Contracts/Liquidator.sol\":5650:5667  liquidationFeeBps */\n      0x02\n      dup1\n      sload\n        /* \"Contracts/Liquidator.sol\":5677:5706  liquidationFeeBps = newFeeBps */\n      swap1\n      dup3\n      swap1\n      sstore\n        /* \"Contracts/Liquidator.sol\":5721:5764  LiquidationFeeBpsUpdated(oldFee, newFeeBps) */\n      0x40\n      dup1\n      mload\n        /* \"#utility.yul\":7155:7180   */\n      dup3\n      dup2\n      mstore\n        /* \"#utility.yul\":7211:7213   */\n      0x20\n        /* \"#utility.yul\":7196:7214   */\n      dup2\n      add\n        /* \"#utility.yul\":7189:7223   */\n      dup5\n      swap1\n      mstore\n        /* \"Contracts/Liquidator.sol\":5721:5764  LiquidationFeeBpsUpdated(oldFee, newFeeBps) */\n      0x557b0d960e10511641485a3dc861fdc0e7940df3f9fef08d56df8f709625d108\n      swap2\n        /* \"#utility.yul\":7128:7146   */\n      add\n        /* \"Contracts/Liquidator.sol\":5721:5764  LiquidationFeeBpsUpdated(oldFee, newFeeBps) */\n    tag_129:\n      mload(0x40)\n      dup1\n      swap2\n      sub\n      swap1\n      log1\n        /* \"Contracts/Liquidator.sol\":5558:5771  {... */\n      pop\n        /* \"Contracts/Liquidator.sol\":5490:5771  function setLiquidationFeeBps(uint256 newFeeBps) external onlyOwner {... */\n      pop\n      jump\t// out\n        /* \"Contracts/Liquidator.sol\":5130:5347  function setMinCollateralValue(uint256 newValue) external onlyOwner {... */\n    tag_44:\n        /* \"@openzeppelin/contracts/access/Ownable.sol\":1531:1544  _checkOwner() */\n      tag_133\n        /* \"@openzeppelin/contracts/access/Ownable.sol\":1531:1542  _checkOwner */\n      tag_119\n        /* \"@openzeppelin/contracts/access/Ownable.sol\":1531:1544  _checkOwner() */\n      jump\t// in\n    tag_133:\n        /* \"Contracts/Liquidator.sol\":5225:5243  minCollateralValue */\n      0x01\n      dup1\n      sload\n        /* \"Contracts/Liquidator.sol\":5253:5282  minCollateralValue = newValue */\n      swap1\n      dup3\n      swap1\n      sstore\n        /* \"Contracts/Liquidator.sol\":5297:5340  MinCollateralValueUpdated(oldVal, newValue) */\n      0x40\n      dup1\n      mload\n        /* \"#utility.yul\":7155:7180   */\n      dup3\n      dup2\n      mstore\n        /* \"#utility.yul\":7211:7213   */\n      0x20\n        /* \"#utility.yul\":7196:7214   */\n      dup2\n      add\n        /* \"#utility.yul\":7189:7223   */\n      dup5\n      swap1\n      mstore\n        /* \"Contracts/Liquidator.sol\":5297:5340  MinCollateralValueUpdated(oldVal, newValue) */\n      0x5d513dd15e422e7bcf5473fd0705fb8ca9c338ecc0edda3a3e29003202dc921e\n      swap2\n        /* \"#utility.yul\":7128:7146   */\n      add\n        /* \"Contracts/Liquidator.sol\":5297:5340  MinCollateralValueUpdated(oldVal, newValue) */\n      tag_129\n        /* \"#utility.yul\":6981:7229   */\n      jump\n        /* \"Contracts/Liquidator.sol\":5947:6240  function setMaxLiquidationBps(uint256 newMaxBps) external onlyOwner {... */\n    tag_50:\n        /* \"@openzeppelin/contracts/access/Ownable.sol\":1531:1544  _checkOwner() */\n      tag_137\n        /* \"@openzeppelin/contracts/access/Ownable.sol\":1531:1542  _checkOwner */\n      tag_119\n        /* \"@openzeppelin/contracts/access/Ownable.sol\":1531:1544  _checkOwner() */\n      jump\t// in\n    tag_137:\n        /* \"Contracts/Liquidator.sol\":6046:6051  10000 */\n      0x2710\n        /* \"Contracts/Liquidator.sol\":6033:6042  newMaxBps */\n      dup2\n        /* \"Contracts/Liquidator.sol\":6033:6051  newMaxBps <= 10000 */\n      gt\n      iszero\n        /* \"Contracts/Liquidator.sol\":6025:6092  require(newMaxBps <= 10000, \"Liquidator: maxLiquidationBps > 100%\") */\n      tag_139\n      jumpi\n      mload(0x40)\n      shl(0xe5, 0x461bcd)\n      dup2\n      mstore\n        /* \"#utility.yul\":7436:7438   */\n      0x20\n        /* \"Contracts/Liquidator.sol\":6025:6092  require(newMaxBps <= 10000, \"Liquidator: maxLiquidationBps > 100%\") */\n      0x04\n      dup3\n      add\n        /* \"#utility.yul\":7418:7439   */\n      mstore\n        /* \"#utility.yul\":7475:7477   */\n      0x24\n        /* \"#utility.yul\":7455:7473   */\n      dup1\n      dup3\n      add\n        /* \"#utility.yul\":7448:7478   */\n      mstore\n        /* \"#utility.yul\":7514:7548   */\n      0x4c697175696461746f723a206d61784c69717569646174696f6e427073203e20\n        /* \"#utility.yul\":7494:7512   */\n      0x44\n      dup3\n      add\n        /* \"#utility.yul\":7487:7549   */\n      mstore\n      shl(0xe0, 0x31303025)\n        /* \"#utility.yul\":7565:7583   */\n      0x64\n      dup3\n      add\n        /* \"#utility.yul\":7558:7592   */\n      mstore\n        /* \"#utility.yul\":7609:7628   */\n      0x84\n      add\n        /* \"Contracts/Liquidator.sol\":6025:6092  require(newMaxBps <= 10000, \"Liquidator: maxLiquidationBps > 100%\") */\n      tag_57\n        /* \"#utility.yul\":7234:7634   */\n      jump\n        /* \"Contracts/Liquidator.sol\":6025:6092  require(newMaxBps <= 10000, \"Liquidator: maxLiquidationBps > 100%\") */\n    tag_139:\n        /* \"Contracts/Liquidator.sol\":6119:6136  maxLiquidationBps */\n      0x03\n      dup1\n      sload\n        /* \"Contracts/Liquidator.sol\":6146:6175  maxLiquidationBps = newMaxBps */\n      swap1\n      dup3\n      swap1\n      sstore\n        /* \"Contracts/Liquidator.sol\":6190:6233  MaxLiquidationBpsUpdated(oldMax, newMaxBps) */\n      0x40\n      dup1\n      mload\n        /* \"#utility.yul\":7155:7180   */\n      dup3\n      dup2\n      mstore\n        /* \"#utility.yul\":7211:7213   */\n      0x20\n        /* \"#utility.yul\":7196:7214   */\n      dup2\n      add\n        /* \"#utility.yul\":7189:7223   */\n      dup5\n      swap1\n      mstore\n        /* \"Contracts/Liquidator.sol\":6190:6233  MaxLiquidationBpsUpdated(oldMax, newMaxBps) */\n      0x0c97e48d448ea4d00e9a3d604eea0e39315d280ccdeb06185e2c53efe38debcd\n      swap2\n        /* \"#utility.yul\":7128:7146   */\n      add\n        /* \"Contracts/Liquidator.sol\":6190:6233  MaxLiquidationBpsUpdated(oldMax, newMaxBps) */\n      tag_129\n        /* \"#utility.yul\":6981:7229   */\n      jump\n        /* \"@openzeppelin/contracts/access/Ownable.sol\":2543:2758  function transferOwnership(address newOwner) public virtual onlyOwner {... */\n    tag_54:\n        /* \"@openzeppelin/contracts/access/Ownable.sol\":1531:1544  _checkOwner() */\n      tag_144\n        /* \"@openzeppelin/contracts/access/Ownable.sol\":1531:1542  _checkOwner */\n      tag_119\n        /* \"@openzeppelin/contracts/access/Ownable.sol\":1531:1544  _checkOwner() */\n      jump\t// in\n    tag_144:\n      sub(shl(0xa0, 0x01), 0x01)\n        /* \"@openzeppelin/contracts/access/Ownable.sol\":2627:2649  newOwner == address(0) */\n      dup2\n      and\n        /* \"@openzeppelin/contracts/access/Ownable.sol\":2623:2714  if (newOwner == address(0)) {... */\n      tag_146\n      jumpi\n        /* \"@openzeppelin/contracts/access/Ownable.sol\":2672:2703  OwnableInvalidOwner(address(0)) */\n      mload(0x40)\n      shl(0xe0, 0x1e4fbdf7)\n      dup2\n      mstore\n        /* \"@openzeppelin/contracts/access/Ownable.sol\":2700:2701  0 */\n      0x00\n        /* \"@openzeppelin/contracts/access/Ownable.sol\":2672:2703  OwnableInvalidOwner(address(0)) */\n      0x04\n      dup3\n      add\n        /* \"#utility.yul\":1658:1709   */\n      mstore\n        /* \"#utility.yul\":1631:1649   */\n      0x24\n      add\n        /* \"@openzeppelin/contracts/access/Ownable.sol\":2672:2703  OwnableInvalidOwner(address(0)) */\n      tag_57\n        /* \"#utility.yul\":1512:1715   */\n      jump\n        /* \"@openzeppelin/contracts/access/Ownable.sol\":2623:2714  if (newOwner == address(0)) {... */\n    tag_146:\n        /* \"@openzeppelin/contracts/access/Ownable.sol\":2723:2751  _transferOwnership(newOwner) */\n      tag_148\n        /* \"@openzeppelin/contracts/access/Ownable.sol\":2742:2750  newOwner */\n      dup2\n        /* \"@openzeppelin/contracts/access/Ownable.sol\":2723:2741  _transferOwnership */\n      tag_122\n        /* \"@openzeppelin/contracts/access/Ownable.sol\":2723:2751  _transferOwnership(newOwner) */\n      jump\t// in\n    tag_148:\n        /* \"@openzeppelin/contracts/access/Ownable.sol\":2543:2758  function transferOwnership(address newOwner) public virtual onlyOwner {... */\n      pop\n      jump\t// out\n        /* \"@openzeppelin/contracts/access/Ownable.sol\":1796:1958  function _checkOwner() internal view virtual {... */\n    tag_119:\n        /* \"@openzeppelin/contracts/access/Ownable.sol\":1684:1691  address */\n      0x00\n        /* \"@openzeppelin/contracts/access/Ownable.sol\":1710:1716  _owner */\n      sload\n      sub(shl(0xa0, 0x01), 0x01)\n      and\n        /* \"@openzeppelin/contracts/utils/Context.sol\":735:745  msg.sender */\n      caller\n        /* \"@openzeppelin/contracts/access/Ownable.sol\":1855:1878  owner() != _msgSender() */\n      eq\n        /* \"@openzeppelin/contracts/access/Ownable.sol\":1851:1952  if (owner() != _msgSender()) {... */\n      tag_121\n      jumpi\n        /* \"@openzeppelin/contracts/access/Ownable.sol\":1901:1941  OwnableUnauthorizedAccount(_msgSender()) */\n      mload(0x40)\n      shl(0xe0, 0x118cdaa7)\n      dup2\n      mstore\n        /* \"@openzeppelin/contracts/utils/Context.sol\":735:745  msg.sender */\n      caller\n        /* \"@openzeppelin/contracts/access/Ownable.sol\":1901:1941  OwnableUnauthorizedAccount(_msgSender()) */\n      0x04\n      dup3\n      add\n        /* \"#utility.yul\":1658:1709   */\n      mstore\n        /* \"#utility.yul\":1631:1649   */\n      0x24\n      add\n        /* \"@openzeppelin/contracts/access/Ownable.sol\":1901:1941  OwnableUnauthorizedAccount(_msgSender()) */\n      tag_57\n        /* \"#utility.yul\":1512:1715   */\n      jump\n        /* \"@openzeppelin/contracts/access/Ownable.sol\":2912:3099  function _transferOwnership(address newOwner) internal virtual {... */\n    tag_122:\n        /* \"@openzeppelin/contracts/access/Ownable.sol\":2985:3001  address oldOwner */\n      0x00\n        /* \"@openzeppelin/contracts/access/Ownable.sol\":3004:3010  _owner */\n      dup1\n      sload\n      sub(shl(0xa0, 0x01), 0x01)\n        /* \"@openzeppelin/contracts/access/Ownable.sol\":3020:3037  _owner = newOwner */\n      dup4\n      dup2\n      and\n      not(sub(shl(0xa0, 0x01), 0x01))\n      dup4\n      and\n      dup2\n      or\n      dup5\n      sstore\n        /* \"@openzeppelin/contracts/access/Ownable.sol\":3052:3092  OwnershipTransferred(oldOwner, newOwner) */\n      mload(0x40)\n        /* \"@openzeppelin/contracts/access/Ownable.sol\":3004:3010  _owner */\n      swap2\n      swap1\n      swap3\n      and\n      swap3\n      dup4\n      swap2\n        /* \"@openzeppelin/contracts/access/Ownable.sol\":3052:3092  OwnershipTransferred(oldOwner, newOwner) */\n      0x8be0079c531659141344cd1fd0a4f28419497f9722a3daafe3b4186f6b6457e0\n      swap2\n        /* \"@openzeppelin/contracts/access/Ownable.sol\":2985:3001  address oldOwner */\n      swap1\n        /* \"@openzeppelin/contracts/access/Ownable.sol\":3052:3092  OwnershipTransferred(oldOwner, newOwner) */\n      log3\n        /* \"@openzeppelin/contracts/access/Ownable.sol\":2975:3099  {... */\n      pop\n        /* \"@openzeppelin/contracts/access/Ownable.sol\":2912:3099  function _transferOwnership(address newOwner) internal virtual {... */\n      pop\n      jump\t// out\n        /* \"#utility.yul\":196:369   */\n    tag_158:\n        /* \"#utility.yul\":264:284   */\n      dup1\n      calldataload\n      sub(shl(0xa0, 0x01), 0x01)\n        /* \"#utility.yul\":313:344   */\n      dup2\n      and\n        /* \"#utility.yul\":303:345   */\n      dup2\n      eq\n        /* \"#utility.yul\":293:363   */\n      tag_163\n      jumpi\n        /* \"#utility.yul\":359:360   */\n      0x00\n        /* \"#utility.yul\":356:357   */\n      0x00\n        /* \"#utility.yul\":349:361   */\n      revert\n        /* \"#utility.yul\":293:363   */\n    tag_163:\n        /* \"#utility.yul\":196:369   */\n      swap2\n      swap1\n      pop\n      jump\t// out\n        /* \"#utility.yul\":374:748   */\n    tag_21:\n        /* \"#utility.yul\":451:457   */\n      0x00\n        /* \"#utility.yul\":459:465   */\n      0x00\n        /* \"#utility.yul\":467:473   */\n      0x00\n        /* \"#utility.yul\":520:522   */\n      0x60\n        /* \"#utility.yul\":508:517   */\n      dup5\n        /* \"#utility.yul\":499:506   */\n      dup7\n        /* \"#utility.yul\":495:518   */\n      sub\n        /* \"#utility.yul\":491:523   */\n      slt\n        /* \"#utility.yul\":488:540   */\n      iszero\n      tag_165\n      jumpi\n        /* \"#utility.yul\":536:537   */\n      0x00\n        /* \"#utility.yul\":533:534   */\n      0x00\n        /* \"#utility.yul\":526:538   */\n      revert\n        /* \"#utility.yul\":488:540   */\n    tag_165:\n        /* \"#utility.yul\":559:588   */\n      tag_166\n        /* \"#utility.yul\":578:587   */\n      dup5\n        /* \"#utility.yul\":559:588   */\n      tag_158\n      jump\t// in\n    tag_166:\n        /* \"#utility.yul\":549:588   */\n      swap3\n      pop\n        /* \"#utility.yul\":607:645   */\n      tag_167\n        /* \"#utility.yul\":641:643   */\n      0x20\n        /* \"#utility.yul\":630:639   */\n      dup6\n        /* \"#utility.yul\":626:644   */\n      add\n        /* \"#utility.yul\":607:645   */\n      tag_158\n      jump\t// in\n    tag_167:\n        /* \"#utility.yul\":374:748   */\n      swap3\n      swap6\n        /* \"#utility.yul\":597:645   */\n      swap3\n      swap5\n      pop\n      pop\n      pop\n        /* \"#utility.yul\":714:716   */\n      0x40\n        /* \"#utility.yul\":699:717   */\n      swap2\n      swap1\n      swap2\n      add\n        /* \"#utility.yul\":686:718   */\n      calldataload\n      swap1\n        /* \"#utility.yul\":374:748   */\n      jump\t// out\n        /* \"#utility.yul\":753:1013   */\n    tag_28:\n        /* \"#utility.yul\":821:827   */\n      0x00\n        /* \"#utility.yul\":829:835   */\n      0x00\n        /* \"#utility.yul\":882:884   */\n      0x40\n        /* \"#utility.yul\":870:879   */\n      dup4\n        /* \"#utility.yul\":861:868   */\n      dup6\n        /* \"#utility.yul\":857:880   */\n      sub\n        /* \"#utility.yul\":853:885   */\n      slt\n        /* \"#utility.yul\":850:902   */\n      iszero\n      tag_169\n      jumpi\n        /* \"#utility.yul\":898:899   */\n      0x00\n        /* \"#utility.yul\":895:896   */\n      0x00\n        /* \"#utility.yul\":888:900   */\n      revert\n        /* \"#utility.yul\":850:902   */\n    tag_169:\n        /* \"#utility.yul\":921:950   */\n      tag_170\n        /* \"#utility.yul\":940:949   */\n      dup4\n        /* \"#utility.yul\":921:950   */\n      tag_158\n      jump\t// in\n    tag_170:\n        /* \"#utility.yul\":911:950   */\n      swap2\n      pop\n        /* \"#utility.yul\":969:1007   */\n      tag_171\n        /* \"#utility.yul\":1003:1005   */\n      0x20\n        /* \"#utility.yul\":992:1001   */\n      dup5\n        /* \"#utility.yul\":988:1006   */\n      add\n        /* \"#utility.yul\":969:1007   */\n      tag_158\n      jump\t// in\n    tag_171:\n        /* \"#utility.yul\":959:1007   */\n      swap1\n      pop\n        /* \"#utility.yul\":753:1013   */\n      swap3\n      pop\n      swap3\n      swap1\n      pop\n      jump\t// out\n        /* \"#utility.yul\":1281:1507   */\n    tag_36:\n        /* \"#utility.yul\":1340:1346   */\n      0x00\n        /* \"#utility.yul\":1393:1395   */\n      0x20\n        /* \"#utility.yul\":1381:1390   */\n      dup3\n        /* \"#utility.yul\":1372:1379   */\n      dup5\n        /* \"#utility.yul\":1368:1391   */\n      sub\n        /* \"#utility.yul\":1364:1396   */\n      slt\n        /* \"#utility.yul\":1361:1413   */\n      iszero\n      tag_174\n      jumpi\n        /* \"#utility.yul\":1409:1410   */\n      0x00\n        /* \"#utility.yul\":1406:1407   */\n      0x00\n        /* \"#utility.yul\":1399:1411   */\n      revert\n        /* \"#utility.yul\":1361:1413   */\n    tag_174:\n      pop\n        /* \"#utility.yul\":1454:1477   */\n      calldataload\n      swap2\n        /* \"#utility.yul\":1281:1507   */\n      swap1\n      pop\n      jump\t// out\n        /* \"#utility.yul\":1720:1906   */\n    tag_53:\n        /* \"#utility.yul\":1779:1785   */\n      0x00\n        /* \"#utility.yul\":1832:1834   */\n      0x20\n        /* \"#utility.yul\":1820:1829   */\n      dup3\n        /* \"#utility.yul\":1811:1818   */\n      dup5\n        /* \"#utility.yul\":1807:1830   */\n      sub\n        /* \"#utility.yul\":1803:1835   */\n      slt\n        /* \"#utility.yul\":1800:1852   */\n      iszero\n      tag_177\n      jumpi\n        /* \"#utility.yul\":1848:1849   */\n      0x00\n        /* \"#utility.yul\":1845:1846   */\n      0x00\n        /* \"#utility.yul\":1838:1850   */\n      revert\n        /* \"#utility.yul\":1800:1852   */\n    tag_177:\n        /* \"#utility.yul\":1871:1900   */\n      tag_178\n        /* \"#utility.yul\":1890:1899   */\n      dup3\n        /* \"#utility.yul\":1871:1900   */\n      tag_158\n      jump\t// in\n    tag_178:\n        /* \"#utility.yul\":1861:1900   */\n      swap4\n        /* \"#utility.yul\":1720:1906   */\n      swap3\n      pop\n      pop\n      pop\n      jump\t// out\n        /* \"#utility.yul\":3384:3614   */\n    tag_73:\n        /* \"#utility.yul\":3454:3460   */\n      0x00\n        /* \"#utility.yul\":3507:3509   */\n      0x20\n        /* \"#utility.yul\":3495:3504   */\n      dup3\n        /* \"#utility.yul\":3486:3493   */\n      dup5\n        /* \"#utility.yul\":3482:3505   */\n      sub\n        /* \"#utility.yul\":3478:3510   */\n      slt\n        /* \"#utility.yul\":3475:3527   */\n      iszero\n      tag_184\n      jumpi\n        /* \"#utility.yul\":3523:3524   */\n      0x00\n        /* \"#utility.yul\":3520:3521   */\n      0x00\n        /* \"#utility.yul\":3513:3525   */\n      revert\n        /* \"#utility.yul\":3475:3527   */\n    tag_184:\n      pop\n        /* \"#utility.yul\":3568:3584   */\n      mload\n      swap2\n        /* \"#utility.yul\":3384:3614   */\n      swap1\n      pop\n      jump\t// out\n        /* \"#utility.yul\":4038:4165   */\n    tag_159:\n        /* \"#utility.yul\":4099:4109   */\n      0x4e487b71\n        /* \"#utility.yul\":4094:4097   */\n      0xe0\n        /* \"#utility.yul\":4090:4110   */\n      shl\n        /* \"#utility.yul\":4087:4088   */\n      0x00\n        /* \"#utility.yul\":4080:4111   */\n      mstore\n        /* \"#utility.yul\":4130:4134   */\n      0x11\n        /* \"#utility.yul\":4127:4128   */\n      0x04\n        /* \"#utility.yul\":4120:4135   */\n      mstore\n        /* \"#utility.yul\":4154:4158   */\n      0x24\n        /* \"#utility.yul\":4151:4152   */\n      0x00\n        /* \"#utility.yul\":4144:4159   */\n      revert\n        /* \"#utility.yul\":4170:4338   */\n    tag_78:\n        /* \"#utility.yul\":4243:4252   */\n      dup1\n      dup3\n      mul\n        /* \"#utility.yul\":4274:4283   */\n      dup2\n      iszero\n        /* \"#utility.yul\":4291:4306   */\n      dup3\n      dup3\n      div\n        /* \"#utility.yul\":4285:4307   */\n      dup5\n      eq\n        /* \"#utility.yul\":4271:4308   */\n      or\n        /* \"#utility.yul\":4261:4332   */\n      tag_189\n      jumpi\n        /* \"#utility.yul\":4312:4330   */\n      tag_189\n      tag_159\n      jump\t// in\n    tag_189:\n        /* \"#utility.yul\":4170:4338   */\n      swap3\n      swap2\n      pop\n      pop\n      jump\t// out\n        /* \"#utility.yul\":4343:4560   */\n    tag_80:\n        /* \"#utility.yul\":4383:4384   */\n      0x00\n        /* \"#utility.yul\":4409:4410   */\n      dup3\n        /* \"#utility.yul\":4399:4531   */\n      tag_191\n      jumpi\n        /* \"#utility.yul\":4453:4463   */\n      0x4e487b71\n        /* \"#utility.yul\":4448:4451   */\n      0xe0\n        /* \"#utility.yul\":4444:4464   */\n      shl\n        /* \"#utility.yul\":4441:4442   */\n      0x00\n        /* \"#utility.yul\":4434:4465   */\n      mstore\n        /* \"#utility.yul\":4488:4492   */\n      0x12\n        /* \"#utility.yul\":4485:4486   */\n      0x04\n        /* \"#utility.yul\":4478:4493   */\n      mstore\n        /* \"#utility.yul\":4516:4520   */\n      0x24\n        /* \"#utility.yul\":4513:4514   */\n      0x00\n        /* \"#utility.yul\":4506:4521   */\n      revert\n        /* \"#utility.yul\":4399:4531   */\n    tag_191:\n      pop\n        /* \"#utility.yul\":4545:4554   */\n      div\n      swap1\n        /* \"#utility.yul\":4343:4560   */\n      jump\t// out\n        /* \"#utility.yul\":4974:5099   */\n    tag_87:\n        /* \"#utility.yul\":5039:5048   */\n      dup1\n      dup3\n      add\n        /* \"#utility.yul\":5060:5070   */\n      dup1\n      dup3\n      gt\n        /* \"#utility.yul\":5057:5093   */\n      iszero\n      tag_189\n      jumpi\n        /* \"#utility.yul\":5073:5091   */\n      tag_189\n      tag_159\n      jump\t// in\n        /* \"#utility.yul\":6234:6622   */\n    tag_112:\n        /* \"#utility.yul\":6311:6317   */\n      0x00\n        /* \"#utility.yul\":6319:6325   */\n      0x00\n        /* \"#utility.yul\":6372:6374   */\n      0x40\n        /* \"#utility.yul\":6360:6369   */\n      dup4\n        /* \"#utility.yul\":6351:6358   */\n      dup6\n        /* \"#utility.yul\":6347:6370   */\n      sub\n        /* \"#utility.yul\":6343:6375   */\n      slt\n        /* \"#utility.yul\":6340:6392   */\n      iszero\n      tag_200\n      jumpi\n        /* \"#utility.yul\":6388:6389   */\n      0x00\n        /* \"#utility.yul\":6385:6386   */\n      0x00\n        /* \"#utility.yul\":6378:6390   */\n      revert\n        /* \"#utility.yul\":6340:6392   */\n    tag_200:\n        /* \"#utility.yul\":6433:6449   */\n      dup3\n      mload\n        /* \"#utility.yul\":6518:6520   */\n      0x20\n        /* \"#utility.yul\":6503:6521   */\n      dup5\n      add\n        /* \"#utility.yul\":6497:6522   */\n      mload\n        /* \"#utility.yul\":6433:6449   */\n      swap1\n      swap3\n      pop\n        /* \"#utility.yul\":6566:6570   */\n      0xff\n        /* \"#utility.yul\":6553:6571   */\n      dup2\n      and\n        /* \"#utility.yul\":6541:6572   */\n      dup2\n      eq\n        /* \"#utility.yul\":6531:6590   */\n      tag_201\n      jumpi\n        /* \"#utility.yul\":6586:6587   */\n      0x00\n        /* \"#utility.yul\":6583:6584   */\n      0x00\n        /* \"#utility.yul\":6576:6588   */\n      revert\n        /* \"#utility.yul\":6531:6590   */\n    tag_201:\n        /* \"#utility.yul\":6609:6616   */\n      dup1\n        /* \"#utility.yul\":6599:6616   */\n      swap2\n      pop\n      pop\n        /* \"#utility.yul\":6234:6622   */\n      swap3\n      pop\n      swap3\n      swap1\n      pop\n      jump\t// out\n\n    auxdata: 0xa2646970667358221220e554d5fea22ab8935e3c4b00a56e6ac237f34c7a960e39623dd5c04414ef3b0c64736f6c634300081c0033\n}\n",
				"bytecode": {
					"linkReferences": {},
					"object": "608060405234801561000f575f5ffd5b50604051610d20380380610d2083398101604081905261002e91610178565b836001600160a01b03811661005d57604051631e4fbdf760e01b81525f60048201526024015b60405180910390fd5b61006681610129565b506127108111156100c55760405162461bcd60e51b8152602060048201526024808201527f4c697175696461746f723a206d61784c69717569646174696f6e427073203e206044820152633130302560e01b6064820152608401610054565b6113888211156101175760405162461bcd60e51b815260206004820152601c60248201527f4c697175696461746f723a2066656542707320746f6f206c61726765000000006044820152606401610054565b600192909255600255600355506101bf565b5f80546001600160a01b038381166001600160a01b0319831681178455604051919092169283917f8be0079c531659141344cd1fd0a4f28419497f9722a3daafe3b4186f6b6457e09190a35050565b5f5f5f5f6080858703121561018b575f5ffd5b84516001600160a01b03811681146101a1575f5ffd5b60208601516040870151606090970151919890975090945092505050565b610b54806101cc5f395ff3fe608060405234801561000f575f5ffd5b50600436106100a6575f3560e01c80638951b0541161006e5780638951b054146101165780638da5cb5b14610129578063c4a34f3714610143578063e031a82414610156578063e81b5a8c1461015f578063f2fde38b14610172575f5ffd5b806311299f11146100aa57806326c01303146100c657806329880339146100db5780635fee4865146100e4578063715018a61461010e575b5f5ffd5b6100b360035481565b6040519081526020015b60405180910390f35b6100d96100d43660046109ce565b610185565b005b6100b360015481565b6100f76100f2366004610a08565b6105da565b6040805192151583526020830191909152016100bd565b6100d961075e565b6100d9610124366004610a39565b610771565b5f546040516001600160a01b0390911681526020016100bd565b6100d9610151366004610a39565b610811565b6100b360025481565b6100d961016d366004610a39565b610857565b6100d9610180366004610a50565b6108fb565b6001600160a01b0383166101e05760405162461bcd60e51b815260206004820152601960248201527f4c697175696461746f723a20696e76616c6964207661756c740000000000000060448201526064015b60405180910390fd5b6001600160a01b0382166102365760405162461bcd60e51b815260206004820152601860248201527f4c697175696461746f723a20696e76616c69642075736572000000000000000060448201526064016101d7565b5f81116102855760405162461bcd60e51b815260206004820152601c60248201527f4c697175696461746f723a207a65726f207365697a65416d6f756e740000000060448201526064016101d7565b5f61029084846105da565b509050806102f15760405162461bcd60e51b815260206004820152602860248201527f4c697175696461746f723a2075736572206e6f7420756e646572636f6c6c6174604482015267195c985b1a5e995960c21b60648201526084016101d7565b6040516370a0823160e01b81526001600160a01b03848116600483015285915f918316906370a0823190602401602060405180830381865afa158015610339573d5f5f3e3d5ffd5b505050506040513d601f19601f8201168201806040525081019061035d9190610a70565b9050838110156103ca5760405162461bcd60e51b815260206004820152603260248201527f4c697175696461746f723a2075736572206861732066657765722073686172656044820152711cc81d1a185b881cd95a5e99505b5bdd5b9d60721b60648201526084016101d7565b5f612710600354836103dc9190610a9b565b6103e69190610ab8565b9050808511156104495760405162461bcd60e51b815260206004820152602860248201527f4c697175696461746f723a20657863656564206d6178206c69717569646174696044820152676f6e20726174696f60c01b60648201526084016101d7565b5f6127106002548761045b9190610a9b565b6104659190610ab8565b90505f6104728288610ad7565b9050808410156104d05760405162461bcd60e51b815260206004820152602360248201527f4c697175696461746f723a20746f74616c5365697a65203e207573657253686160448201526272657360e81b60648201526084016101d7565b846001600160a01b0316631d14cd0f89836104f25f546001600160a01b031690565b60405160e085901b6001600160e01b03191681526001600160a01b039384166004820152602481019290925290911660448201526064015f604051808303815f87803b158015610540575f5ffd5b505af1158015610552573d5f5f3e3d5ffd5b50505050876001600160a01b0316336001600160a01b03168a6001600160a01b03167f900e49b75dd80ec3bea4347fabcc52ca262a91cdca47776af2875399e4b26dbe8a866105a85f546001600160a01b031690565b6040805193845260208401929092526001600160a01b03169082015260600160405180910390a4505050505050505050565b6040516370a0823160e01b81526001600160a01b0382811660048301525f918291859183918316906370a0823190602401602060405180830381865afa158015610626573d5f5f3e3d5ffd5b505050506040513d601f19601f8201168201806040525081019061064a9190610a70565b9050805f03610660575f5f935093505050610757565b5f826001600160a01b03166318160ddd6040518163ffffffff1660e01b8152600401602060405180830381865afa15801561069d573d5f5f3e3d5ffd5b505050506040513d601f19601f820116820180604052508101906106c19190610a70565b90505f836001600160a01b031663468f02d26040518163ffffffff1660e01b81526004016040805180830381865afa1580156106ff573d5f5f3e3d5ffd5b505050506040513d601f19601f820116820180604052508101906107239190610aea565b50905081156107325781610735565b60015b61073f8483610a9b565b6107499190610ab8565b945060015485109550505050505b9250929050565b610766610938565b61076f5f610964565b565b610779610938565b6113888111156107cb5760405162461bcd60e51b815260206004820152601960248201527f4c697175696461746f723a2066656520746f6f206c617267650000000000000060448201526064016101d7565b600280549082905560408051828152602081018490527f557b0d960e10511641485a3dc861fdc0e7940df3f9fef08d56df8f709625d10891015b60405180910390a15050565b610819610938565b600180549082905560408051828152602081018490527f5d513dd15e422e7bcf5473fd0705fb8ca9c338ecc0edda3a3e29003202dc921e9101610805565b61085f610938565b6127108111156108bd5760405162461bcd60e51b8152602060048201526024808201527f4c697175696461746f723a206d61784c69717569646174696f6e427073203e206044820152633130302560e01b60648201526084016101d7565b600380549082905560408051828152602081018490527f0c97e48d448ea4d00e9a3d604eea0e39315d280ccdeb06185e2c53efe38debcd9101610805565b610903610938565b6001600160a01b03811661092c57604051631e4fbdf760e01b81525f60048201526024016101d7565b61093581610964565b50565b5f546001600160a01b0316331461076f5760405163118cdaa760e01b81523360048201526024016101d7565b5f80546001600160a01b038381166001600160a01b0319831681178455604051919092169283917f8be0079c531659141344cd1fd0a4f28419497f9722a3daafe3b4186f6b6457e09190a35050565b80356001600160a01b03811681146109c9575f5ffd5b919050565b5f5f5f606084860312156109e0575f5ffd5b6109e9846109b3565b92506109f7602085016109b3565b929592945050506040919091013590565b5f5f60408385031215610a19575f5ffd5b610a22836109b3565b9150610a30602084016109b3565b90509250929050565b5f60208284031215610a49575f5ffd5b5035919050565b5f60208284031215610a60575f5ffd5b610a69826109b3565b9392505050565b5f60208284031215610a80575f5ffd5b5051919050565b634e487b7160e01b5f52601160045260245ffd5b8082028115828204841417610ab257610ab2610a87565b92915050565b5f82610ad257634e487b7160e01b5f52601260045260245ffd5b500490565b80820180821115610ab257610ab2610a87565b5f5f60408385031215610afb575f5ffd5b8251602084015190925060ff81168114610b13575f5ffd5b80915050925092905056fea2646970667358221220e554d5fea22ab8935e3c4b00a56e6ac237f34c7a960e39623dd5c04414ef3b0c64736f6c634300081c0033",
					"opcodes": "PUSH1 0x80 PUSH1 0x40 MSTORE CALLVALUE DUP1 ISZERO PUSH2 0xF JUMPI PUSH0 PUSH0 REVERT JUMPDEST POP PUSH1 0x40 MLOAD PUSH2 0xD20 CODESIZE SUB DUP1 PUSH2 0xD20 DUP4 CODECOPY DUP2 ADD PUSH1 0x40 DUP2 SWAP1 MSTORE PUSH2 0x2E SWAP2 PUSH2 0x178 JUMP JUMPDEST DUP4 PUSH1 0x1 PUSH1 0x1 PUSH1 0xA0 SHL SUB DUP2 AND PUSH2 0x5D JUMPI PUSH1 0x40 MLOAD PUSH4 0x1E4FBDF7 PUSH1 0xE0 SHL DUP2 MSTORE PUSH0 PUSH1 0x4 DUP3 ADD MSTORE PUSH1 0x24 ADD JUMPDEST PUSH1 0x40 MLOAD DUP1 SWAP2 SUB SWAP1 REVERT JUMPDEST PUSH2 0x66 DUP2 PUSH2 0x129 JUMP JUMPDEST POP PUSH2 0x2710 DUP2 GT ISZERO PUSH2 0xC5 JUMPI PUSH1 0x40 MLOAD PUSH3 0x461BCD PUSH1 0xE5 SHL DUP2 MSTORE PUSH1 0x20 PUSH1 0x4 DUP3 ADD MSTORE PUSH1 0x24 DUP1 DUP3 ADD MSTORE PUSH32 0x4C697175696461746F723A206D61784C69717569646174696F6E427073203E20 PUSH1 0x44 DUP3 ADD MSTORE PUSH4 0x31303025 PUSH1 0xE0 SHL PUSH1 0x64 DUP3 ADD MSTORE PUSH1 0x84 ADD PUSH2 0x54 JUMP JUMPDEST PUSH2 0x1388 DUP3 GT ISZERO PUSH2 0x117 JUMPI PUSH1 0x40 MLOAD PUSH3 0x461BCD PUSH1 0xE5 SHL DUP2 MSTORE PUSH1 0x20 PUSH1 0x4 DUP3 ADD MSTORE PUSH1 0x1C PUSH1 0x24 DUP3 ADD MSTORE PUSH32 0x4C697175696461746F723A2066656542707320746F6F206C6172676500000000 PUSH1 0x44 DUP3 ADD MSTORE PUSH1 0x64 ADD PUSH2 0x54 JUMP JUMPDEST PUSH1 0x1 SWAP3 SWAP1 SWAP3 SSTORE PUSH1 0x2 SSTORE PUSH1 0x3 SSTORE POP PUSH2 0x1BF JUMP JUMPDEST PUSH0 DUP1 SLOAD PUSH1 0x1 PUSH1 0x1 PUSH1 0xA0 SHL SUB DUP4 DUP2 AND PUSH1 0x1 PUSH1 0x1 PUSH1 0xA0 SHL SUB NOT DUP4 AND DUP2 OR DUP5 SSTORE PUSH1 0x40 MLOAD SWAP2 SWAP1 SWAP3 AND SWAP3 DUP4 SWAP2 PUSH32 0x8BE0079C531659141344CD1FD0A4F28419497F9722A3DAAFE3B4186F6B6457E0 SWAP2 SWAP1 LOG3 POP POP JUMP JUMPDEST PUSH0 PUSH0 PUSH0 PUSH0 PUSH1 0x80 DUP6 DUP8 SUB SLT ISZERO PUSH2 0x18B JUMPI PUSH0 PUSH0 REVERT JUMPDEST DUP5 MLOAD PUSH1 0x1 PUSH1 0x1 PUSH1 0xA0 SHL SUB DUP2 AND DUP2 EQ PUSH2 0x1A1 JUMPI PUSH0 PUSH0 REVERT JUMPDEST PUSH1 0x20 DUP7 ADD MLOAD PUSH1 0x40 DUP8 ADD MLOAD PUSH1 0x60 SWAP1 SWAP8 ADD MLOAD SWAP2 SWAP9 SWAP1 SWAP8 POP SWAP1 SWAP5 POP SWAP3 POP POP POP JUMP JUMPDEST PUSH2 0xB54 DUP1 PUSH2 0x1CC PUSH0 CODECOPY PUSH0 RETURN INVALID PUSH1 0x80 PUSH1 0x40 MSTORE CALLVALUE DUP1 ISZERO PUSH2 0xF JUMPI PUSH0 PUSH0 REVERT JUMPDEST POP PUSH1 0x4 CALLDATASIZE LT PUSH2 0xA6 JUMPI PUSH0 CALLDATALOAD PUSH1 0xE0 SHR DUP1 PUSH4 0x8951B054 GT PUSH2 0x6E JUMPI DUP1 PUSH4 0x8951B054 EQ PUSH2 0x116 JUMPI DUP1 PUSH4 0x8DA5CB5B EQ PUSH2 0x129 JUMPI DUP1 PUSH4 0xC4A34F37 EQ PUSH2 0x143 JUMPI DUP1 PUSH4 0xE031A824 EQ PUSH2 0x156 JUMPI DUP1 PUSH4 0xE81B5A8C EQ PUSH2 0x15F JUMPI DUP1 PUSH4 0xF2FDE38B EQ PUSH2 0x172 JUMPI PUSH0 PUSH0 REVERT JUMPDEST DUP1 PUSH4 0x11299F11 EQ PUSH2 0xAA JUMPI DUP1 PUSH4 0x26C01303 EQ PUSH2 0xC6 JUMPI DUP1 PUSH4 0x29880339 EQ PUSH2 0xDB JUMPI DUP1 PUSH4 0x5FEE4865 EQ PUSH2 0xE4 JUMPI DUP1 PUSH4 0x715018A6 EQ PUSH2 0x10E JUMPI JUMPDEST PUSH0 PUSH0 REVERT JUMPDEST PUSH2 0xB3 PUSH1 0x3 SLOAD DUP2 JUMP JUMPDEST PUSH1 0x40 MLOAD SWAP1 DUP2 MSTORE PUSH1 0x20 ADD JUMPDEST PUSH1 0x40 MLOAD DUP1 SWAP2 SUB SWAP1 RETURN JUMPDEST PUSH2 0xD9 PUSH2 0xD4 CALLDATASIZE PUSH1 0x4 PUSH2 0x9CE JUMP JUMPDEST PUSH2 0x185 JUMP JUMPDEST STOP JUMPDEST PUSH2 0xB3 PUSH1 0x1 SLOAD DUP2 JUMP JUMPDEST PUSH2 0xF7 PUSH2 0xF2 CALLDATASIZE PUSH1 0x4 PUSH2 0xA08 JUMP JUMPDEST PUSH2 0x5DA JUMP JUMPDEST PUSH1 0x40 DUP1 MLOAD SWAP3 ISZERO ISZERO DUP4 MSTORE PUSH1 0x20 DUP4 ADD SWAP2 SWAP1 SWAP2 MSTORE ADD PUSH2 0xBD JUMP JUMPDEST PUSH2 0xD9 PUSH2 0x75E JUMP JUMPDEST PUSH2 0xD9 PUSH2 0x124 CALLDATASIZE PUSH1 0x4 PUSH2 0xA39 JUMP JUMPDEST PUSH2 0x771 JUMP JUMPDEST PUSH0 SLOAD PUSH1 0x40 MLOAD PUSH1 0x1 PUSH1 0x1 PUSH1 0xA0 SHL SUB SWAP1 SWAP2 AND DUP2 MSTORE PUSH1 0x20 ADD PUSH2 0xBD JUMP JUMPDEST PUSH2 0xD9 PUSH2 0x151 CALLDATASIZE PUSH1 0x4 PUSH2 0xA39 JUMP JUMPDEST PUSH2 0x811 JUMP JUMPDEST PUSH2 0xB3 PUSH1 0x2 SLOAD DUP2 JUMP JUMPDEST PUSH2 0xD9 PUSH2 0x16D CALLDATASIZE PUSH1 0x4 PUSH2 0xA39 JUMP JUMPDEST PUSH2 0x857 JUMP JUMPDEST PUSH2 0xD9 PUSH2 0x180 CALLDATASIZE PUSH1 0x4 PUSH2 0xA50 JUMP JUMPDEST PUSH2 0x8FB JUMP JUMPDEST PUSH1 0x1 PUSH1 0x1 PUSH1 0xA0 SHL SUB DUP4 AND PUSH2 0x1E0 JUMPI PUSH1 0x40 MLOAD PUSH3 0x461BCD PUSH1 0xE5 SHL DUP2 MSTORE PUSH1 0x20 PUSH1 0x4 DUP3 ADD MSTORE PUSH1 0x19 PUSH1 0x24 DUP3 ADD MSTORE PUSH32 0x4C697175696461746F723A20696E76616C6964207661756C7400000000000000 PUSH1 0x44 DUP3 ADD MSTORE PUSH1 0x64 ADD JUMPDEST PUSH1 0x40 MLOAD DUP1 SWAP2 SUB SWAP1 REVERT JUMPDEST PUSH1 0x1 PUSH1 0x1 PUSH1 0xA0 SHL SUB DUP3 AND PUSH2 0x236 JUMPI PUSH1 0x40 MLOAD PUSH3 0x461BCD PUSH1 0xE5 SHL DUP2 MSTORE PUSH1 0x20 PUSH1 0x4 DUP3 ADD MSTORE PUSH1 0x18 PUSH1 0x24 DUP3 ADD MSTORE PUSH32 0x4C697175696461746F723A20696E76616C696420757365720000000000000000 PUSH1 0x44 DUP3 ADD MSTORE PUSH1 0x64 ADD PUSH2 0x1D7 JUMP JUMPDEST PUSH0 DUP2 GT PUSH2 0x285 JUMPI PUSH1 0x40 MLOAD PUSH3 0x461BCD PUSH1 0xE5 SHL DUP2 MSTORE PUSH1 0x20 PUSH1 0x4 DUP3 ADD MSTORE PUSH1 0x1C PUSH1 0x24 DUP3 ADD MSTORE PUSH32 0x4C697175696461746F723A207A65726F207365697A65416D6F756E7400000000 PUSH1 0x44 DUP3 ADD MSTORE PUSH1 0x64 ADD PUSH2 0x1D7 JUMP JUMPDEST PUSH0 PUSH2 0x290 DUP5 DUP5 PUSH2 0x5DA JUMP JUMPDEST POP SWAP1 POP DUP1 PUSH2 0x2F1 JUMPI PUSH1 0x40 MLOAD PUSH3 0x461BCD PUSH1 0xE5 SHL DUP2 MSTORE PUSH1 0x20 PUSH1 0x4 DUP3 ADD MSTORE PUSH1 0x28 PUSH1 0x24 DUP3 ADD MSTORE PUSH32 0x4C697175696461746F723A2075736572206E6F7420756E646572636F6C6C6174 PUSH1 0x44 DUP3 ADD MSTORE PUSH8 0x195C985B1A5E9959 PUSH1 0xC2 SHL PUSH1 0x64 DUP3 ADD MSTORE PUSH1 0x84 ADD PUSH2 0x1D7 JUMP JUMPDEST PUSH1 0x40 MLOAD PUSH4 0x70A08231 PUSH1 0xE0 SHL DUP2 MSTORE PUSH1 0x1 PUSH1 0x1 PUSH1 0xA0 SHL SUB DUP5 DUP2 AND PUSH1 0x4 DUP4 ADD MSTORE DUP6 SWAP2 PUSH0 SWAP2 DUP4 AND SWAP1 PUSH4 0x70A08231 SWAP1 PUSH1 0x24 ADD PUSH1 0x20 PUSH1 0x40 MLOAD DUP1 DUP4 SUB DUP2 DUP7 GAS STATICCALL ISZERO DUP1 ISZERO PUSH2 0x339 JUMPI RETURNDATASIZE PUSH0 PUSH0 RETURNDATACOPY RETURNDATASIZE PUSH0 REVERT JUMPDEST POP POP POP POP PUSH1 0x40 MLOAD RETURNDATASIZE PUSH1 0x1F NOT PUSH1 0x1F DUP3 ADD AND DUP3 ADD DUP1 PUSH1 0x40 MSTORE POP DUP2 ADD SWAP1 PUSH2 0x35D SWAP2 SWAP1 PUSH2 0xA70 JUMP JUMPDEST SWAP1 POP DUP4 DUP2 LT ISZERO PUSH2 0x3CA JUMPI PUSH1 0x40 MLOAD PUSH3 0x461BCD PUSH1 0xE5 SHL DUP2 MSTORE PUSH1 0x20 PUSH1 0x4 DUP3 ADD MSTORE PUSH1 0x32 PUSH1 0x24 DUP3 ADD MSTORE PUSH32 0x4C697175696461746F723A207573657220686173206665776572207368617265 PUSH1 0x44 DUP3 ADD MSTORE PUSH18 0x1CC81D1A185B881CD95A5E99505B5BDD5B9D PUSH1 0x72 SHL PUSH1 0x64 DUP3 ADD MSTORE PUSH1 0x84 ADD PUSH2 0x1D7 JUMP JUMPDEST PUSH0 PUSH2 0x2710 PUSH1 0x3 SLOAD DUP4 PUSH2 0x3DC SWAP2 SWAP1 PUSH2 0xA9B JUMP JUMPDEST PUSH2 0x3E6 SWAP2 SWAP1 PUSH2 0xAB8 JUMP JUMPDEST SWAP1 POP DUP1 DUP6 GT ISZERO PUSH2 0x449 JUMPI PUSH1 0x40 MLOAD PUSH3 0x461BCD PUSH1 0xE5 SHL DUP2 MSTORE PUSH1 0x20 PUSH1 0x4 DUP3 ADD MSTORE PUSH1 0x28 PUSH1 0x24 DUP3 ADD MSTORE PUSH32 0x4C697175696461746F723A20657863656564206D6178206C6971756964617469 PUSH1 0x44 DUP3 ADD MSTORE PUSH8 0x6F6E20726174696F PUSH1 0xC0 SHL PUSH1 0x64 DUP3 ADD MSTORE PUSH1 0x84 ADD PUSH2 0x1D7 JUMP JUMPDEST PUSH0 PUSH2 0x2710 PUSH1 0x2 SLOAD DUP8 PUSH2 0x45B SWAP2 SWAP1 PUSH2 0xA9B JUMP JUMPDEST PUSH2 0x465 SWAP2 SWAP1 PUSH2 0xAB8 JUMP JUMPDEST SWAP1 POP PUSH0 PUSH2 0x472 DUP3 DUP9 PUSH2 0xAD7 JUMP JUMPDEST SWAP1 POP DUP1 DUP5 LT ISZERO PUSH2 0x4D0 JUMPI PUSH1 0x40 MLOAD PUSH3 0x461BCD PUSH1 0xE5 SHL DUP2 MSTORE PUSH1 0x20 PUSH1 0x4 DUP3 ADD MSTORE PUSH1 0x23 PUSH1 0x24 DUP3 ADD MSTORE PUSH32 0x4C697175696461746F723A20746F74616C5365697A65203E2075736572536861 PUSH1 0x44 DUP3 ADD MSTORE PUSH3 0x726573 PUSH1 0xE8 SHL PUSH1 0x64 DUP3 ADD MSTORE PUSH1 0x84 ADD PUSH2 0x1D7 JUMP JUMPDEST DUP5 PUSH1 0x1 PUSH1 0x1 PUSH1 0xA0 SHL SUB AND PUSH4 0x1D14CD0F DUP10 DUP4 PUSH2 0x4F2 PUSH0 SLOAD PUSH1 0x1 PUSH1 0x1 PUSH1 0xA0 SHL SUB AND SWAP1 JUMP JUMPDEST PUSH1 0x40 MLOAD PUSH1 0xE0 DUP6 SWAP1 SHL PUSH1 0x1 PUSH1 0x1 PUSH1 0xE0 SHL SUB NOT AND DUP2 MSTORE PUSH1 0x1 PUSH1 0x1 PUSH1 0xA0 SHL SUB SWAP4 DUP5 AND PUSH1 0x4 DUP3 ADD MSTORE PUSH1 0x24 DUP2 ADD SWAP3 SWAP1 SWAP3 MSTORE SWAP1 SWAP2 AND PUSH1 0x44 DUP3 ADD MSTORE PUSH1 0x64 ADD PUSH0 PUSH1 0x40 MLOAD DUP1 DUP4 SUB DUP2 PUSH0 DUP8 DUP1 EXTCODESIZE ISZERO DUP1 ISZERO PUSH2 0x540 JUMPI PUSH0 PUSH0 REVERT JUMPDEST POP GAS CALL ISZERO DUP1 ISZERO PUSH2 0x552 JUMPI RETURNDATASIZE PUSH0 PUSH0 RETURNDATACOPY RETURNDATASIZE PUSH0 REVERT JUMPDEST POP POP POP POP DUP8 PUSH1 0x1 PUSH1 0x1 PUSH1 0xA0 SHL SUB AND CALLER PUSH1 0x1 PUSH1 0x1 PUSH1 0xA0 SHL SUB AND DUP11 PUSH1 0x1 PUSH1 0x1 PUSH1 0xA0 SHL SUB AND PUSH32 0x900E49B75DD80EC3BEA4347FABCC52CA262A91CDCA47776AF2875399E4B26DBE DUP11 DUP7 PUSH2 0x5A8 PUSH0 SLOAD PUSH1 0x1 PUSH1 0x1 PUSH1 0xA0 SHL SUB AND SWAP1 JUMP JUMPDEST PUSH1 0x40 DUP1 MLOAD SWAP4 DUP5 MSTORE PUSH1 0x20 DUP5 ADD SWAP3 SWAP1 SWAP3 MSTORE PUSH1 0x1 PUSH1 0x1 PUSH1 0xA0 SHL SUB AND SWAP1 DUP3 ADD MSTORE PUSH1 0x60 ADD PUSH1 0x40 MLOAD DUP1 SWAP2 SUB SWAP1 LOG4 POP POP POP POP POP POP POP POP POP JUMP JUMPDEST PUSH1 0x40 MLOAD PUSH4 0x70A08231 PUSH1 0xE0 SHL DUP2 MSTORE PUSH1 0x1 PUSH1 0x1 PUSH1 0xA0 SHL SUB DUP3 DUP2 AND PUSH1 0x4 DUP4 ADD MSTORE PUSH0 SWAP2 DUP3 SWAP2 DUP6 SWAP2 DUP4 SWAP2 DUP4 AND SWAP1 PUSH4 0x70A08231 SWAP1 PUSH1 0x24 ADD PUSH1 0x20 PUSH1 0x40 MLOAD DUP1 DUP4 SUB DUP2 DUP7 GAS STATICCALL ISZERO DUP1 ISZERO PUSH2 0x626 JUMPI RETURNDATASIZE PUSH0 PUSH0 RETURNDATACOPY RETURNDATASIZE PUSH0 REVERT JUMPDEST POP POP POP POP PUSH1 0x40 MLOAD RETURNDATASIZE PUSH1 0x1F NOT PUSH1 0x1F DUP3 ADD AND DUP3 ADD DUP1 PUSH1 0x40 MSTORE POP DUP2 ADD SWAP1 PUSH2 0x64A SWAP2 SWAP1 PUSH2 0xA70 JUMP JUMPDEST SWAP1 POP DUP1 PUSH0 SUB PUSH2 0x660 JUMPI PUSH0 PUSH0 SWAP4 POP SWAP4 POP POP POP PUSH2 0x757 JUMP JUMPDEST PUSH0 DUP3 PUSH1 0x1 PUSH1 0x1 PUSH1 0xA0 SHL SUB AND PUSH4 0x18160DDD PUSH1 0x40 MLOAD DUP2 PUSH4 0xFFFFFFFF AND PUSH1 0xE0 SHL DUP2 MSTORE PUSH1 0x4 ADD PUSH1 0x20 PUSH1 0x40 MLOAD DUP1 DUP4 SUB DUP2 DUP7 GAS STATICCALL ISZERO DUP1 ISZERO PUSH2 0x69D JUMPI RETURNDATASIZE PUSH0 PUSH0 RETURNDATACOPY RETURNDATASIZE PUSH0 REVERT JUMPDEST POP POP POP POP PUSH1 0x40 MLOAD RETURNDATASIZE PUSH1 0x1F NOT PUSH1 0x1F DUP3 ADD AND DUP3 ADD DUP1 PUSH1 0x40 MSTORE POP DUP2 ADD SWAP1 PUSH2 0x6C1 SWAP2 SWAP1 PUSH2 0xA70 JUMP JUMPDEST SWAP1 POP PUSH0 DUP4 PUSH1 0x1 PUSH1 0x1 PUSH1 0xA0 SHL SUB AND PUSH4 0x468F02D2 PUSH1 0x40 MLOAD DUP2 PUSH4 0xFFFFFFFF AND PUSH1 0xE0 SHL DUP2 MSTORE PUSH1 0x4 ADD PUSH1 0x40 DUP1 MLOAD DUP1 DUP4 SUB DUP2 DUP7 GAS STATICCALL ISZERO DUP1 ISZERO PUSH2 0x6FF JUMPI RETURNDATASIZE PUSH0 PUSH0 RETURNDATACOPY RETURNDATASIZE PUSH0 REVERT JUMPDEST POP POP POP POP PUSH1 0x40 MLOAD RETURNDATASIZE PUSH1 0x1F NOT PUSH1 0x1F DUP3 ADD AND DUP3 ADD DUP1 PUSH1 0x40 MSTORE POP DUP2 ADD SWAP1 PUSH2 0x723 SWAP2 SWAP1 PUSH2 0xAEA JUMP JUMPDEST POP SWAP1 POP DUP2 ISZERO PUSH2 0x732 JUMPI DUP2 PUSH2 0x735 JUMP JUMPDEST PUSH1 0x1 JUMPDEST PUSH2 0x73F DUP5 DUP4 PUSH2 0xA9B JUMP JUMPDEST PUSH2 0x749 SWAP2 SWAP1 PUSH2 0xAB8 JUMP JUMPDEST SWAP5 POP PUSH1 0x1 SLOAD DUP6 LT SWAP6 POP POP POP POP POP JUMPDEST SWAP3 POP SWAP3 SWAP1 POP JUMP JUMPDEST PUSH2 0x766 PUSH2 0x938 JUMP JUMPDEST PUSH2 0x76F PUSH0 PUSH2 0x964 JUMP JUMPDEST JUMP JUMPDEST PUSH2 0x779 PUSH2 0x938 JUMP JUMPDEST PUSH2 0x1388 DUP2 GT ISZERO PUSH2 0x7CB JUMPI PUSH1 0x40 MLOAD PUSH3 0x461BCD PUSH1 0xE5 SHL DUP2 MSTORE PUSH1 0x20 PUSH1 0x4 DUP3 ADD MSTORE PUSH1 0x19 PUSH1 0x24 DUP3 ADD MSTORE PUSH32 0x4C697175696461746F723A2066656520746F6F206C6172676500000000000000 PUSH1 0x44 DUP3 ADD MSTORE PUSH1 0x64 ADD PUSH2 0x1D7 JUMP JUMPDEST PUSH1 0x2 DUP1 SLOAD SWAP1 DUP3 SWAP1 SSTORE PUSH1 0x40 DUP1 MLOAD DUP3 DUP2 MSTORE PUSH1 0x20 DUP2 ADD DUP5 SWAP1 MSTORE PUSH32 0x557B0D960E10511641485A3DC861FDC0E7940DF3F9FEF08D56DF8F709625D108 SWAP2 ADD JUMPDEST PUSH1 0x40 MLOAD DUP1 SWAP2 SUB SWAP1 LOG1 POP POP JUMP JUMPDEST PUSH2 0x819 PUSH2 0x938 JUMP JUMPDEST PUSH1 0x1 DUP1 SLOAD SWAP1 DUP3 SWAP1 SSTORE PUSH1 0x40 DUP1 MLOAD DUP3 DUP2 MSTORE PUSH1 0x20 DUP2 ADD DUP5 SWAP1 MSTORE PUSH32 0x5D513DD15E422E7BCF5473FD0705FB8CA9C338ECC0EDDA3A3E29003202DC921E SWAP2 ADD PUSH2 0x805 JUMP JUMPDEST PUSH2 0x85F PUSH2 0x938 JUMP JUMPDEST PUSH2 0x2710 DUP2 GT ISZERO PUSH2 0x8BD JUMPI PUSH1 0x40 MLOAD PUSH3 0x461BCD PUSH1 0xE5 SHL DUP2 MSTORE PUSH1 0x20 PUSH1 0x4 DUP3 ADD MSTORE PUSH1 0x24 DUP1 DUP3 ADD MSTORE PUSH32 0x4C697175696461746F723A206D61784C69717569646174696F6E427073203E20 PUSH1 0x44 DUP3 ADD MSTORE PUSH4 0x31303025 PUSH1 0xE0 SHL PUSH1 0x64 DUP3 ADD MSTORE PUSH1 0x84 ADD PUSH2 0x1D7 JUMP JUMPDEST PUSH1 0x3 DUP1 SLOAD SWAP1 DUP3 SWAP1 SSTORE PUSH1 0x40 DUP1 MLOAD DUP3 DUP2 MSTORE PUSH1 0x20 DUP2 ADD DUP5 SWAP1 MSTORE PUSH32 0xC97E48D448EA4D00E9A3D604EEA0E39315D280CCDEB06185E2C53EFE38DEBCD SWAP2 ADD PUSH2 0x805 JUMP JUMPDEST PUSH2 0x903 PUSH2 0x938 JUMP JUMPDEST PUSH1 0x1 PUSH1 0x1 PUSH1 0xA0 SHL SUB DUP2 AND PUSH2 0x92C JUMPI PUSH1 0x40 MLOAD PUSH4 0x1E4FBDF7 PUSH1 0xE0 SHL DUP2 MSTORE PUSH0 PUSH1 0x4 DUP3 ADD MSTORE PUSH1 0x24 ADD PUSH2 0x1D7 JUMP JUMPDEST PUSH2 0x935 DUP2 PUSH2 0x964 JUMP JUMPDEST POP JUMP JUMPDEST PUSH0 SLOAD PUSH1 0x1 PUSH1 0x1 PUSH1 0xA0 SHL SUB AND CALLER EQ PUSH2 0x76F JUMPI PUSH1 0x40 MLOAD PUSH4 0x118CDAA7 PUSH1 0xE0 SHL DUP2 MSTORE CALLER PUSH1 0x4 DUP3 ADD MSTORE PUSH1 0x24 ADD PUSH2 0x1D7 JUMP JUMPDEST PUSH0 DUP1 SLOAD PUSH1 0x1 PUSH1 0x1 PUSH1 0xA0 SHL SUB DUP4 DUP2 AND PUSH1 0x1 PUSH1 0x1 PUSH1 0xA0 SHL SUB NOT DUP4 AND DUP2 OR DUP5 SSTORE PUSH1 0x40 MLOAD SWAP2 SWAP1 SWAP3 AND SWAP3 DUP4 SWAP2 PUSH32 0x8BE0079C531659141344CD1FD0A4F28419497F9722A3DAAFE3B4186F6B6457E0 SWAP2 SWAP1 LOG3 POP POP JUMP JUMPDEST DUP1 CALLDATALOAD PUSH1 0x1 PUSH1 0x1 PUSH1 0xA0 SHL SUB DUP2 AND DUP2 EQ PUSH2 0x9C9 JUMPI PUSH0 PUSH0 REVERT JUMPDEST SWAP2 SWAP1 POP JUMP JUMPDEST PUSH0 PUSH0 PUSH0 PUSH1 0x60 DUP5 DUP7 SUB SLT ISZERO PUSH2 0x9E0 JUMPI PUSH0 PUSH0 REVERT JUMPDEST PUSH2 0x9E9 DUP5 PUSH2 0x9B3 JUMP JUMPDEST SWAP3 POP PUSH2 0x9F7 PUSH1 0x20 DUP6 ADD PUSH2 0x9B3 JUMP JUMPDEST SWAP3 SWAP6 SWAP3 SWAP5 POP POP POP PUSH1 0x40 SWAP2 SWAP1 SWAP2 ADD CALLDATALOAD SWAP1 JUMP JUMPDEST PUSH0 PUSH0 PUSH1 0x40 DUP4 DUP6 SUB SLT ISZERO PUSH2 0xA19 JUMPI PUSH0 PUSH0 REVERT JUMPDEST PUSH2 0xA22 DUP4 PUSH2 0x9B3 JUMP JUMPDEST SWAP2 POP PUSH2 0xA30 PUSH1 0x20 DUP5 ADD PUSH2 0x9B3 JUMP JUMPDEST SWAP1 POP SWAP3 POP SWAP3 SWAP1 POP JUMP JUMPDEST PUSH0 PUSH1 0x20 DUP3 DUP5 SUB SLT ISZERO PUSH2 0xA49 JUMPI PUSH0 PUSH0 REVERT JUMPDEST POP CALLDATALOAD SWAP2 SWAP1 POP JUMP JUMPDEST PUSH0 PUSH1 0x20 DUP3 DUP5 SUB SLT ISZERO PUSH2 0xA60 JUMPI PUSH0 PUSH0 REVERT JUMPDEST PUSH2 0xA69 DUP3 PUSH2 0x9B3 JUMP JUMPDEST SWAP4 SWAP3 POP POP POP JUMP JUMPDEST PUSH0 PUSH1 0x20 DUP3 DUP5 SUB SLT ISZERO PUSH2 0xA80 JUMPI PUSH0 PUSH0 REVERT JUMPDEST POP MLOAD SWAP2 SWAP1 POP JUMP JUMPDEST PUSH4 0x4E487B71 PUSH1 0xE0 SHL PUSH0 MSTORE PUSH1 0x11 PUSH1 0x4 MSTORE PUSH1 0x24 PUSH0 REVERT JUMPDEST DUP1 DUP3 MUL DUP2 ISZERO DUP3 DUP3 DIV DUP5 EQ OR PUSH2 0xAB2 JUMPI PUSH2 0xAB2 PUSH2 0xA87 JUMP JUMPDEST SWAP3 SWAP2 POP POP JUMP JUMPDEST PUSH0 DUP3 PUSH2 0xAD2 JUMPI PUSH4 0x4E487B71 PUSH1 0xE0 SHL PUSH0 MSTORE PUSH1 0x12 PUSH1 0x4 MSTORE PUSH1 0x24 PUSH0 REVERT JUMPDEST POP DIV SWAP1 JUMP JUMPDEST DUP1 DUP3 ADD DUP1 DUP3 GT ISZERO PUSH2 0xAB2 JUMPI PUSH2 0xAB2 PUSH2 0xA87 JUMP JUMPDEST PUSH0 PUSH0 PUSH1 0x40 DUP4 DUP6 SUB SLT ISZERO PUSH2 0xAFB JUMPI PUSH0 PUSH0 REVERT JUMPDEST DUP3 MLOAD PUSH1 0x20 DUP5 ADD MLOAD SWAP1 SWAP3 POP PUSH1 0xFF DUP2 AND DUP2 EQ PUSH2 0xB13 JUMPI PUSH0 PUSH0 REVERT JUMPDEST DUP1 SWAP2 POP POP SWAP3 POP SWAP3 SWAP1 POP JUMP INVALID LOG2 PUSH5 0x6970667358 0x22 SLT KECCAK256 0xE5 SLOAD 0xD5 INVALID LOG2 0x2A 0xB8 SWAP4 MCOPY EXTCODECOPY 0x4B STOP 0xA5 PUSH15 0x6AC237F34C7A960E39623DD5C04414 0xEF EXTCODESIZE 0xC PUSH5 0x736F6C6343 STOP ADDMOD SHR STOP CALLER "
				},
				"gasEstimates": {
					"creation": {
						"codeDepositCost": "580000",
						"executionCost": "infinite",
						"totalCost": "infinite"
					},
					"external": {
						"checkUnderCollateral(address,address)": "infinite",
						"liquidate(address,address,uint256)": "infinite",
						"liquidationFeeBps()": "2349",
						"maxLiquidationBps()": "2284",
						"minCollateralValue()": "2328",
						"owner()": "2321",
						"renounceOwnership()": "infinite",
						"setLiquidationFeeBps(uint256)": "27962",
						"setMaxLiquidationBps(uint256)": "28061",
						"setMinCollateralValue(uint256)": "27991",
						"transferOwnership(address)": "28439"
					}
				},
				"methodIdentifiers": {
					"checkUnderCollateral(address,address)": "5fee4865",
					"liquidate(address,address,uint256)": "26c01303",
					"liquidationFeeBps()": "e031a824",
					"maxLiquidationBps()": "11299f11",
					"minCollateralValue()": "29880339",
					"owner()": "8da5cb5b",
					"renounceOwnership()": "715018a6",
					"setLiquidationFeeBps(uint256)": "8951b054",
					"setMaxLiquidationBps(uint256)": "e81b5a8c",
					"setMinCollateralValue(uint256)": "c4a34f37",
					"transferOwnership(address)": "f2fde38b"
				}
			},
			"storageLayout": {
				"storage": [
					{
						"astId": 8,
						"contract": "Contracts/Liquidator.sol:Liquidator",
						"label": "_owner",
						"offset": 0,
						"slot": "0",
						"type": "t_address"
					},
					{
						"astId": 217,
						"contract": "Contracts/Liquidator.sol:Liquidator",
						"label": "minCollateralValue",
						"offset": 0,
						"slot": "1",
						"type": "t_uint256"
					},
					{
						"astId": 220,
						"contract": "Contracts/Liquidator.sol:Liquidator",
						"label": "liquidationFeeBps",
						"offset": 0,
						"slot": "2",
						"type": "t_uint256"
					},
					{
						"astId": 223,
						"contract": "Contracts/Liquidator.sol:Liquidator",
						"label": "maxLiquidationBps",
						"offset": 0,
						"slot": "3",
						"type": "t_uint256"
					}
				],
				"types": {
					"t_address": {
						"encoding": "inplace",
						"label": "address",
						"numberOfBytes": "20"
					},
					"t_uint256": {
						"encoding": "inplace",
						"label": "uint256",
						"numberOfBytes": "32"
					}
				}
			},
			"userdoc": {
				"kind": "user",
				"methods": {
					"constructor": {
						"notice": "Constructor calls the Ownable base constructor with `initialOwner`          and initializes the liquidation parameters."
					},
					"liquidate(address,address,uint256)": {
						"notice": "Liquidates a user if they are undercollateralized by seizing a specified          number of shares (plus a fee) and transferring them to this contract's owner."
					},
					"setLiquidationFeeBps(uint256)": {
						"notice": "Updates the liquidation fee in basis points (onlyOwner)."
					},
					"setMaxLiquidationBps(uint256)": {
						"notice": "Updates the max fraction of user shares that can be seized in one call (onlyOwner)."
					},
					"setMinCollateralValue(uint256)": {
						"notice": "Updates the minimum collateral value (onlyOwner)."
					}
				},
				"notice": "A contract that can forcibly seize user shares from an undercollateralized position         in a vault. The seized shares are transferred to this contract's owner (the deployer),         who can then decide how to handle them (e.g., distribute to a hired liquidator,         return partially to a pool, penalize the user, etc.).         Key parameters:         - minCollateralValue: The required value below which a user is undercollateralized.         - liquidationFeeBps: A fee in basis points added on top of the seizeAmount,            also sent to the owner (deployer).         - maxLiquidationBps: The maximum fraction (in BPS) of a user's shares            that can be seized in one call.         This contract calls `seizeShares(user, totalSeize, owner())` on the vault,          transferring forcibly removed shares to the contract's owner.",
				"version": 1
			}
		}
	}
}