{
	"Contracts/OracleManager.sol": {
		"OracleManager": {
			"abi": [
				{
					"inputs": [
						{
							"internalType": "address",
							"name": "initialOwner",
							"type": "address"
						}
					],
					"stateMutability": "nonpayable",
					"type": "constructor"
				},
				{
					"inputs": [],
					"name": "T",
					"type": "error"
				},
				{
					"anonymous": false,
					"inputs": [
						{
							"indexed": true,
							"internalType": "address",
							"name": "token",
							"type": "address"
						},
						{
							"indexed": false,
							"internalType": "address",
							"name": "primaryAggregator",
							"type": "address"
						},
						{
							"indexed": false,
							"internalType": "address",
							"name": "fallbackAggregator",
							"type": "address"
						},
						{
							"indexed": false,
							"internalType": "bool",
							"name": "useFallbackIfError",
							"type": "bool"
						},
						{
							"indexed": false,
							"internalType": "uint8",
							"name": "decimalsOverride",
							"type": "uint8"
						},
						{
							"indexed": false,
							"internalType": "bool",
							"name": "isVaultToken",
							"type": "bool"
						}
					],
					"name": "OracleConfigUpdated",
					"type": "event"
				},
				{
					"anonymous": false,
					"inputs": [
						{
							"indexed": true,
							"internalType": "address",
							"name": "previousOwner",
							"type": "address"
						},
						{
							"indexed": true,
							"internalType": "address",
							"name": "newOwner",
							"type": "address"
						}
					],
					"name": "OwnershipTransferred",
					"type": "event"
				},
				{
					"anonymous": false,
					"inputs": [
						{
							"indexed": true,
							"internalType": "address",
							"name": "vaultToken",
							"type": "address"
						},
						{
							"indexed": false,
							"internalType": "address",
							"name": "token0Aggregator",
							"type": "address"
						},
						{
							"indexed": false,
							"internalType": "address",
							"name": "token1Aggregator",
							"type": "address"
						},
						{
							"indexed": false,
							"internalType": "uint8",
							"name": "token0Decimals",
							"type": "uint8"
						},
						{
							"indexed": false,
							"internalType": "uint8",
							"name": "token1Decimals",
							"type": "uint8"
						}
					],
					"name": "VaultUnderlyingFeedsUpdated",
					"type": "event"
				},
				{
					"inputs": [
						{
							"internalType": "address",
							"name": "token",
							"type": "address"
						}
					],
					"name": "getPrice",
					"outputs": [
						{
							"internalType": "uint256",
							"name": "price",
							"type": "uint256"
						},
						{
							"internalType": "uint8",
							"name": "decimals",
							"type": "uint8"
						}
					],
					"stateMutability": "view",
					"type": "function"
				},
				{
					"inputs": [
						{
							"internalType": "address",
							"name": "",
							"type": "address"
						}
					],
					"name": "oracleConfigs",
					"outputs": [
						{
							"internalType": "address",
							"name": "primaryAggregator",
							"type": "address"
						},
						{
							"internalType": "address",
							"name": "fallbackAggregator",
							"type": "address"
						},
						{
							"internalType": "bool",
							"name": "useFallbackIfError",
							"type": "bool"
						},
						{
							"internalType": "uint8",
							"name": "decimalsOverride",
							"type": "uint8"
						},
						{
							"internalType": "bool",
							"name": "isVaultToken",
							"type": "bool"
						}
					],
					"stateMutability": "view",
					"type": "function"
				},
				{
					"inputs": [],
					"name": "owner",
					"outputs": [
						{
							"internalType": "address",
							"name": "",
							"type": "address"
						}
					],
					"stateMutability": "view",
					"type": "function"
				},
				{
					"inputs": [],
					"name": "renounceOwnership",
					"outputs": [],
					"stateMutability": "nonpayable",
					"type": "function"
				},
				{
					"inputs": [
						{
							"internalType": "address",
							"name": "token",
							"type": "address"
						},
						{
							"internalType": "address",
							"name": "primaryAggregator",
							"type": "address"
						},
						{
							"internalType": "address",
							"name": "fallbackAggregator",
							"type": "address"
						},
						{
							"internalType": "bool",
							"name": "useFallbackIfErr",
							"type": "bool"
						},
						{
							"internalType": "uint8",
							"name": "decimalsOvr",
							"type": "uint8"
						},
						{
							"internalType": "bool",
							"name": "isVaultToken",
							"type": "bool"
						}
					],
					"name": "setOracleConfig",
					"outputs": [],
					"stateMutability": "nonpayable",
					"type": "function"
				},
				{
					"inputs": [
						{
							"internalType": "address",
							"name": "vaultToken",
							"type": "address"
						},
						{
							"internalType": "address",
							"name": "token0Agg",
							"type": "address"
						},
						{
							"internalType": "address",
							"name": "token1Agg",
							"type": "address"
						},
						{
							"internalType": "uint8",
							"name": "token0Dec",
							"type": "uint8"
						},
						{
							"internalType": "uint8",
							"name": "token1Dec",
							"type": "uint8"
						}
					],
					"name": "setVaultUnderlyingFeeds",
					"outputs": [],
					"stateMutability": "nonpayable",
					"type": "function"
				},
				{
					"inputs": [
						{
							"internalType": "address",
							"name": "newOwner",
							"type": "address"
						}
					],
					"name": "transferOwnership",
					"outputs": [],
					"stateMutability": "nonpayable",
					"type": "function"
				},
				{
					"inputs": [
						{
							"internalType": "address",
							"name": "",
							"type": "address"
						}
					],
					"name": "vaultFeeds",
					"outputs": [
						{
							"internalType": "address",
							"name": "token0Aggregator",
							"type": "address"
						},
						{
							"internalType": "address",
							"name": "token1Aggregator",
							"type": "address"
						},
						{
							"internalType": "uint8",
							"name": "token0Decimals",
							"type": "uint8"
						},
						{
							"internalType": "uint8",
							"name": "token1Decimals",
							"type": "uint8"
						},
						{
							"internalType": "bool",
							"name": "exists",
							"type": "bool"
						}
					],
					"stateMutability": "view",
					"type": "function"
				}
			],
			"devdoc": {
				"kind": "dev",
				"methods": {
					"owner()": {
						"details": "Returns the address of the current owner."
					},
					"renounceOwnership()": {
						"details": "Leaves the contract without owner. It will not be possible to call `onlyOwner` functions anymore. Can only be called by the current owner. NOTE: Renouncing ownership will leave the contract without an owner, thereby removing any functionality that is only available to the owner."
					},
					"transferOwnership(address)": {
						"details": "Transfers ownership of the contract to a new account (`newOwner`). Can only be called by the current owner."
					}
				},
				"version": 1
			},
			"evm": {
				"assembly": "    /* \"Contracts/OracleManager.sol\":2736:14147  contract OracleManager is Ownable {... */\n  mstore(0x40, 0x80)\n    /* \"Contracts/OracleManager.sol\":3957:4117  constructor(address initialOwner) {... */\n  callvalue\n  dup1\n  iszero\n  tag_1\n  jumpi\n  0x00\n  dup1\n  revert\ntag_1:\n  pop\n  mload(0x40)\n  sub(codesize, bytecodeSize)\n  dup1\n  bytecodeSize\n  dup4\n  codecopy\n  dup2\n  add\n  0x40\n  dup2\n  swap1\n  mstore\n  tag_2\n  swap2\n  tag_3\n  jump\t// in\ntag_2:\n    /* \"https://github.com/OpenZeppelin/openzeppelin-contracts/blob/v4.8.3/contracts/access/Ownable.sol\":936:968  _transferOwnership(_msgSender()) */\n  tag_7\n    /* \"https://github.com/OpenZeppelin/openzeppelin-contracts/blob/v4.8.3/contracts/utils/Context.sol\":719:729  msg.sender */\n  caller\n    /* \"https://github.com/OpenZeppelin/openzeppelin-contracts/blob/v4.8.3/contracts/access/Ownable.sol\":936:954  _transferOwnership */\n  tag_10\n    /* \"https://github.com/OpenZeppelin/openzeppelin-contracts/blob/v4.8.3/contracts/access/Ownable.sol\":936:968  _transferOwnership(_msgSender()) */\n  jump\t// in\ntag_7:\n  sub(shl(0xa0, 0x01), 0x01)\n    /* \"Contracts/OracleManager.sol\":4009:4035  initialOwner != address(0) */\n  dup2\n  and\n    /* \"Contracts/OracleManager.sol\":4001:4068  require(initialOwner != address(0), \"OracleManager: invalid owner\") */\n  tag_12\n  jumpi\n  mload(0x40)\n  0x08c379a000000000000000000000000000000000000000000000000000000000\n  dup2\n  mstore\n    /* \"#utility.yul\":511:513   */\n  0x20\n    /* \"Contracts/OracleManager.sol\":4001:4068  require(initialOwner != address(0), \"OracleManager: invalid owner\") */\n  0x04\n  dup3\n  add\n    /* \"#utility.yul\":493:514   */\n  mstore\n    /* \"#utility.yul\":550:552   */\n  0x1c\n    /* \"#utility.yul\":530:548   */\n  0x24\n  dup3\n  add\n    /* \"#utility.yul\":523:553   */\n  mstore\n    /* \"#utility.yul\":589:619   */\n  0x4f7261636c654d616e616765723a20696e76616c6964206f776e657200000000\n    /* \"#utility.yul\":569:587   */\n  0x44\n  dup3\n  add\n    /* \"#utility.yul\":562:620   */\n  mstore\n    /* \"#utility.yul\":637:655   */\n  0x64\n  add\n    /* \"Contracts/OracleManager.sol\":4001:4068  require(initialOwner != address(0), \"OracleManager: invalid owner\") */\n  mload(0x40)\n  dup1\n  swap2\n  sub\n  swap1\n  revert\ntag_12:\n    /* \"Contracts/OracleManager.sol\":4078:4110  _transferOwnership(initialOwner) */\n  tag_15\n    /* \"Contracts/OracleManager.sol\":4097:4109  initialOwner */\n  dup2\n    /* \"Contracts/OracleManager.sol\":4078:4096  _transferOwnership */\n  tag_10\n    /* \"Contracts/OracleManager.sol\":4078:4110  _transferOwnership(initialOwner) */\n  jump\t// in\ntag_15:\n    /* \"Contracts/OracleManager.sol\":3957:4117  constructor(address initialOwner) {... */\n  pop\n    /* \"Contracts/OracleManager.sol\":2736:14147  contract OracleManager is Ownable {... */\n  jump(tag_19)\n    /* \"https://github.com/OpenZeppelin/openzeppelin-contracts/blob/v4.8.3/contracts/access/Ownable.sol\":2433:2620  function _transferOwnership(address newOwner) internal virtual {... */\ntag_10:\n    /* \"https://github.com/OpenZeppelin/openzeppelin-contracts/blob/v4.8.3/contracts/access/Ownable.sol\":2506:2522  address oldOwner */\n  0x00\n    /* \"https://github.com/OpenZeppelin/openzeppelin-contracts/blob/v4.8.3/contracts/access/Ownable.sol\":2525:2531  _owner */\n  dup1\n  sload\n  sub(shl(0xa0, 0x01), 0x01)\n    /* \"https://github.com/OpenZeppelin/openzeppelin-contracts/blob/v4.8.3/contracts/access/Ownable.sol\":2541:2558  _owner = newOwner */\n  dup4\n  dup2\n  and\n  not(sub(shl(0xa0, 0x01), 0x01))\n  dup4\n  and\n  dup2\n  or\n  dup5\n  sstore\n    /* \"https://github.com/OpenZeppelin/openzeppelin-contracts/blob/v4.8.3/contracts/access/Ownable.sol\":2573:2613  OwnershipTransferred(oldOwner, newOwner) */\n  mload(0x40)\n    /* \"https://github.com/OpenZeppelin/openzeppelin-contracts/blob/v4.8.3/contracts/access/Ownable.sol\":2525:2531  _owner */\n  swap2\n  swap1\n  swap3\n  and\n  swap3\n  dup4\n  swap2\n    /* \"https://github.com/OpenZeppelin/openzeppelin-contracts/blob/v4.8.3/contracts/access/Ownable.sol\":2573:2613  OwnershipTransferred(oldOwner, newOwner) */\n  0x8be0079c531659141344cd1fd0a4f28419497f9722a3daafe3b4186f6b6457e0\n  swap2\n    /* \"https://github.com/OpenZeppelin/openzeppelin-contracts/blob/v4.8.3/contracts/access/Ownable.sol\":2506:2522  address oldOwner */\n  swap1\n    /* \"https://github.com/OpenZeppelin/openzeppelin-contracts/blob/v4.8.3/contracts/access/Ownable.sol\":2573:2613  OwnershipTransferred(oldOwner, newOwner) */\n  log3\n    /* \"https://github.com/OpenZeppelin/openzeppelin-contracts/blob/v4.8.3/contracts/access/Ownable.sol\":2496:2620  {... */\n  pop\n    /* \"https://github.com/OpenZeppelin/openzeppelin-contracts/blob/v4.8.3/contracts/access/Ownable.sol\":2433:2620  function _transferOwnership(address newOwner) internal virtual {... */\n  pop\n  jump\t// out\n    /* \"#utility.yul\":14:304   */\ntag_3:\n    /* \"#utility.yul\":84:90   */\n  0x00\n    /* \"#utility.yul\":137:139   */\n  0x20\n    /* \"#utility.yul\":125:134   */\n  dup3\n    /* \"#utility.yul\":116:123   */\n  dup5\n    /* \"#utility.yul\":112:135   */\n  sub\n    /* \"#utility.yul\":108:140   */\n  slt\n    /* \"#utility.yul\":105:157   */\n  iszero\n  tag_21\n  jumpi\n    /* \"#utility.yul\":153:154   */\n  0x00\n    /* \"#utility.yul\":150:151   */\n  dup1\n    /* \"#utility.yul\":143:155   */\n  revert\n    /* \"#utility.yul\":105:157   */\ntag_21:\n    /* \"#utility.yul\":179:195   */\n  dup2\n  mload\n  sub(shl(0xa0, 0x01), 0x01)\n    /* \"#utility.yul\":224:255   */\n  dup2\n  and\n    /* \"#utility.yul\":214:256   */\n  dup2\n  eq\n    /* \"#utility.yul\":204:274   */\n  tag_22\n  jumpi\n    /* \"#utility.yul\":270:271   */\n  0x00\n    /* \"#utility.yul\":267:268   */\n  dup1\n    /* \"#utility.yul\":260:272   */\n  revert\n    /* \"#utility.yul\":204:274   */\ntag_22:\n    /* \"#utility.yul\":293:298   */\n  swap4\n    /* \"#utility.yul\":14:304   */\n  swap3\n  pop\n  pop\n  pop\n  jump\t// out\n    /* \"#utility.yul\":309:661   */\ntag_19:\n    /* \"Contracts/OracleManager.sol\":2736:14147  contract OracleManager is Ownable {... */\n  dataSize(sub_0)\n  dup1\n  dataOffset(sub_0)\n  0x00\n  codecopy\n  0x00\n  return\nstop\n\nsub_0: assembly {\n        /* \"Contracts/OracleManager.sol\":2736:14147  contract OracleManager is Ownable {... */\n      mstore(0x40, 0x80)\n      callvalue\n      dup1\n      iszero\n      tag_1\n      jumpi\n      0x00\n      dup1\n      revert\n    tag_1:\n      pop\n      jumpi(tag_2, lt(calldatasize, 0x04))\n      shr(0xe0, calldataload(0x00))\n      dup1\n      0x8da5cb5b\n      gt\n      tag_11\n      jumpi\n      dup1\n      0x8da5cb5b\n      eq\n      tag_7\n      jumpi\n      dup1\n      0x9b05fc75\n      eq\n      tag_8\n      jumpi\n      dup1\n      0xf2ac1ec5\n      eq\n      tag_9\n      jumpi\n      dup1\n      0xf2fde38b\n      eq\n      tag_10\n      jumpi\n      0x00\n      dup1\n      revert\n    tag_11:\n      dup1\n      0x067a4b06\n      eq\n      tag_3\n      jumpi\n      dup1\n      0x41976e09\n      eq\n      tag_4\n      jumpi\n      dup1\n      0x715018a6\n      eq\n      tag_5\n      jumpi\n      dup1\n      0x7f4a3102\n      eq\n      tag_6\n      jumpi\n    tag_2:\n      0x00\n      dup1\n      revert\n        /* \"Contracts/OracleManager.sol\":3349:3400  mapping(address => OracleData) public oracleConfigs */\n    tag_3:\n      tag_12\n      tag_13\n      calldatasize\n      0x04\n      tag_14\n      jump\t// in\n    tag_13:\n      0x01\n      0x20\n      dup2\n      swap1\n      mstore\n      0x00\n      swap2\n      dup3\n      mstore\n      0x40\n      swap1\n      swap2\n      keccak256\n      dup1\n      sload\n      swap2\n      add\n      sload\n      sub(shl(0xa0, 0x01), 0x01)\n      swap2\n      dup3\n      and\n      swap2\n      dup2\n      and\n      swap1\n      0xff\n      shl(0xa0, 0x01)\n      dup3\n      div\n      dup2\n      and\n      swap2\n      shl(0xa8, 0x01)\n      dup2\n      div\n      dup3\n      and\n      swap2\n      shl(0xb0, 0x01)\n      swap1\n      swap2\n      div\n      and\n      dup6\n      jump\n    tag_12:\n      0x40\n      dup1\n      mload\n      sub(shl(0xa0, 0x01), 0x01)\n        /* \"#utility.yul\":663:695   */\n      swap7\n      dup8\n      and\n        /* \"#utility.yul\":645:696   */\n      dup2\n      mstore\n        /* \"#utility.yul\":732:764   */\n      swap6\n      swap1\n      swap5\n      and\n        /* \"#utility.yul\":727:729   */\n      0x20\n        /* \"#utility.yul\":712:730   */\n      dup7\n      add\n        /* \"#utility.yul\":705:765   */\n      mstore\n        /* \"#utility.yul\":808:822   */\n      swap2\n      iszero\n        /* \"#utility.yul\":801:823   */\n      iszero\n        /* \"#utility.yul\":781:799   */\n      swap3\n      dup5\n      add\n        /* \"#utility.yul\":774:824   */\n      swap3\n      swap1\n      swap3\n      mstore\n        /* \"#utility.yul\":872:876   */\n      0xff\n        /* \"#utility.yul\":860:877   */\n      swap1\n      swap2\n      and\n        /* \"#utility.yul\":855:857   */\n      0x60\n        /* \"#utility.yul\":840:858   */\n      dup4\n      add\n        /* \"#utility.yul\":833:878   */\n      mstore\n        /* \"#utility.yul\":922:936   */\n      iszero\n        /* \"#utility.yul\":915:937   */\n      iszero\n        /* \"#utility.yul\":909:912   */\n      0x80\n        /* \"#utility.yul\":894:913   */\n      dup3\n      add\n        /* \"#utility.yul\":887:938   */\n      mstore\n        /* \"#utility.yul\":632:635   */\n      0xa0\n        /* \"#utility.yul\":617:636   */\n      add\n        /* \"Contracts/OracleManager.sol\":3349:3400  mapping(address => OracleData) public oracleConfigs */\n    tag_16:\n      mload(0x40)\n      dup1\n      swap2\n      sub\n      swap1\n      return\n        /* \"Contracts/OracleManager.sol\":6102:6692  function getPrice(address token) external view returns (uint256 price, uint8 decimals) {... */\n    tag_4:\n      tag_18\n      tag_19\n      calldatasize\n      0x04\n      tag_14\n      jump\t// in\n    tag_19:\n      tag_20\n      jump\t// in\n    tag_18:\n      0x40\n      dup1\n      mload\n        /* \"#utility.yul\":1119:1144   */\n      swap3\n      dup4\n      mstore\n        /* \"#utility.yul\":1192:1196   */\n      0xff\n        /* \"#utility.yul\":1180:1197   */\n      swap1\n      swap2\n      and\n        /* \"#utility.yul\":1175:1177   */\n      0x20\n        /* \"#utility.yul\":1160:1178   */\n      dup4\n      add\n        /* \"#utility.yul\":1153:1198   */\n      mstore\n        /* \"#utility.yul\":1092:1110   */\n      add\n        /* \"Contracts/OracleManager.sol\":6102:6692  function getPrice(address token) external view returns (uint256 price, uint8 decimals) {... */\n      tag_16\n        /* \"#utility.yul\":949:1204   */\n      jump\n        /* \"https://github.com/OpenZeppelin/openzeppelin-contracts/blob/v4.8.3/contracts/access/Ownable.sol\":1831:1932  function renounceOwnership() public virtual onlyOwner {... */\n    tag_5:\n      tag_23\n      tag_24\n      jump\t// in\n    tag_23:\n      stop\n        /* \"Contracts/OracleManager.sol\":3450:3508  mapping(address => VaultUnderlyingFeeds) public vaultFeeds */\n    tag_6:\n      tag_25\n      tag_26\n      calldatasize\n      0x04\n      tag_14\n      jump\t// in\n    tag_26:\n      mstore(0x20, 0x02)\n      0x00\n      swap1\n      dup2\n      mstore\n      0x40\n      swap1\n      keccak256\n      dup1\n      sload\n      0x01\n      swap1\n      swap2\n      add\n      sload\n      sub(shl(0xa0, 0x01), 0x01)\n      swap2\n      dup3\n      and\n      swap2\n      dup2\n      and\n      swap1\n      0xff\n      shl(0xa0, 0x01)\n      dup3\n      div\n      dup2\n      and\n      swap2\n      shl(0xa8, 0x01)\n      dup2\n      div\n      dup3\n      and\n      swap2\n      shl(0xb0, 0x01)\n      swap1\n      swap2\n      div\n      and\n      dup6\n      jump\n    tag_25:\n      0x40\n      dup1\n      mload\n      sub(shl(0xa0, 0x01), 0x01)\n        /* \"#utility.yul\":1472:1504   */\n      swap7\n      dup8\n      and\n        /* \"#utility.yul\":1454:1505   */\n      dup2\n      mstore\n        /* \"#utility.yul\":1541:1573   */\n      swap6\n      swap1\n      swap5\n      and\n        /* \"#utility.yul\":1536:1538   */\n      0x20\n        /* \"#utility.yul\":1521:1539   */\n      dup7\n      add\n        /* \"#utility.yul\":1514:1574   */\n      mstore\n        /* \"#utility.yul\":1622:1626   */\n      0xff\n        /* \"#utility.yul\":1610:1627   */\n      swap3\n      dup4\n      and\n        /* \"#utility.yul\":1590:1608   */\n      swap4\n      dup6\n      add\n        /* \"#utility.yul\":1583:1628   */\n      swap4\n      swap1\n      swap4\n      mstore\n        /* \"#utility.yul\":1664:1681   */\n      and\n        /* \"#utility.yul\":1659:1661   */\n      0x60\n        /* \"#utility.yul\":1644:1662   */\n      dup4\n      add\n        /* \"#utility.yul\":1637:1682   */\n      mstore\n        /* \"#utility.yul\":1726:1740   */\n      iszero\n        /* \"#utility.yul\":1719:1741   */\n      iszero\n        /* \"#utility.yul\":1713:1716   */\n      0x80\n        /* \"#utility.yul\":1698:1717   */\n      dup3\n      add\n        /* \"#utility.yul\":1691:1742   */\n      mstore\n        /* \"#utility.yul\":1441:1444   */\n      0xa0\n        /* \"#utility.yul\":1426:1445   */\n      add\n        /* \"Contracts/OracleManager.sol\":3450:3508  mapping(address => VaultUnderlyingFeeds) public vaultFeeds */\n      tag_16\n        /* \"#utility.yul\":1209:1748   */\n      jump\n        /* \"https://github.com/OpenZeppelin/openzeppelin-contracts/blob/v4.8.3/contracts/access/Ownable.sol\":1201:1286  function owner() public view virtual returns (address) {... */\n    tag_7:\n        /* \"https://github.com/OpenZeppelin/openzeppelin-contracts/blob/v4.8.3/contracts/access/Ownable.sol\":1247:1254  address */\n      0x00\n        /* \"https://github.com/OpenZeppelin/openzeppelin-contracts/blob/v4.8.3/contracts/access/Ownable.sol\":1273:1279  _owner */\n      sload\n        /* \"https://github.com/OpenZeppelin/openzeppelin-contracts/blob/v4.8.3/contracts/access/Ownable.sol\":1201:1286  function owner() public view virtual returns (address) {... */\n      mload(0x40)\n      sub(shl(0xa0, 0x01), 0x01)\n        /* \"https://github.com/OpenZeppelin/openzeppelin-contracts/blob/v4.8.3/contracts/access/Ownable.sol\":1273:1279  _owner */\n      swap1\n      swap2\n      and\n        /* \"#utility.yul\":1899:1950   */\n      dup2\n      mstore\n        /* \"#utility.yul\":1887:1889   */\n      0x20\n        /* \"#utility.yul\":1872:1890   */\n      add\n        /* \"https://github.com/OpenZeppelin/openzeppelin-contracts/blob/v4.8.3/contracts/access/Ownable.sol\":1201:1286  function owner() public view virtual returns (address) {... */\n      tag_16\n        /* \"#utility.yul\":1753:1956   */\n      jump\n        /* \"Contracts/OracleManager.sol\":5277:5977  function setVaultUnderlyingFeeds(... */\n    tag_8:\n      tag_23\n      tag_35\n      calldatasize\n      0x04\n      tag_36\n      jump\t// in\n    tag_35:\n      tag_37\n      jump\t// in\n        /* \"Contracts/OracleManager.sol\":4215:5165  function setOracleConfig(... */\n    tag_9:\n      tag_23\n      tag_39\n      calldatasize\n      0x04\n      tag_40\n      jump\t// in\n    tag_39:\n      tag_41\n      jump\t// in\n        /* \"https://github.com/OpenZeppelin/openzeppelin-contracts/blob/v4.8.3/contracts/access/Ownable.sol\":2081:2279  function transferOwnership(address newOwner) public virtual onlyOwner {... */\n    tag_10:\n      tag_23\n      tag_43\n      calldatasize\n      0x04\n      tag_14\n      jump\t// in\n    tag_43:\n      tag_44\n      jump\t// in\n        /* \"Contracts/OracleManager.sol\":6102:6692  function getPrice(address token) external view returns (uint256 price, uint8 decimals) {... */\n    tag_20:\n      sub(shl(0xa0, 0x01), 0x01)\n        /* \"Contracts/OracleManager.sol\":6223:6243  oracleConfigs[token] */\n      dup1\n      dup3\n      and\n        /* \"Contracts/OracleManager.sol\":6158:6171  uint256 price */\n      0x00\n        /* \"Contracts/OracleManager.sol\":6223:6243  oracleConfigs[token] */\n      swap1\n      dup2\n      mstore\n        /* \"Contracts/OracleManager.sol\":6223:6236  oracleConfigs */\n      0x01\n        /* \"Contracts/OracleManager.sol\":6223:6243  oracleConfigs[token] */\n      0x20\n      dup2\n      dup2\n      mstore\n      0x40\n      dup1\n      dup5\n      keccak256\n        /* \"Contracts/OracleManager.sol\":6199:6243  OracleData memory cfg = oracleConfigs[token] */\n      dup2\n      mload\n      0xa0\n      dup2\n      add\n      dup4\n      mstore\n      dup2\n      sload\n      dup8\n      and\n      dup1\n      dup3\n      mstore\n      swap2\n      swap1\n      swap5\n      add\n      sload\n      swap6\n      dup7\n      and\n      swap3\n      dup5\n      add\n      swap3\n      swap1\n      swap3\n      mstore\n      0xff\n      shl(0xa0, 0x01)\n      dup7\n      div\n      dup2\n      and\n      iszero\n      iszero\n      swap2\n      dup5\n      add\n      swap2\n      swap1\n      swap2\n      mstore\n      shl(0xa8, 0x01)\n      dup6\n      div\n      dup2\n      and\n      0x60\n      dup5\n      add\n      mstore\n      shl(0xb0, 0x01)\n      swap1\n      swap5\n      div\n      swap1\n      swap4\n      and\n      iszero\n      iszero\n      0x80\n      dup3\n      add\n      mstore\n        /* \"Contracts/OracleManager.sol\":6158:6171  uint256 price */\n      swap1\n      swap2\n      dup3\n      swap2\n        /* \"Contracts/OracleManager.sol\":6199:6243  OracleData memory cfg = oracleConfigs[token] */\n      swap1\n        /* \"Contracts/OracleManager.sol\":6261:6296  cfg.primaryAggregator != address(0) */\n      iszero\n      iszero\n      dup1\n        /* \"Contracts/OracleManager.sol\":6261:6316  cfg.primaryAggregator != address(0) || cfg.isVaultToken */\n      tag_46\n      jumpi\n      pop\n        /* \"Contracts/OracleManager.sol\":6300:6303  cfg */\n      dup1\n        /* \"Contracts/OracleManager.sol\":6300:6316  cfg.isVaultToken */\n      0x80\n      add\n      mload\n        /* \"Contracts/OracleManager.sol\":6261:6316  cfg.primaryAggregator != address(0) || cfg.isVaultToken */\n    tag_46:\n        /* \"Contracts/OracleManager.sol\":6253:6364  require(cfg.primaryAggregator != address(0) || cfg.isVaultToken, \"OracleManager: no aggregator or vault logic\") */\n      tag_47\n      jumpi\n      mload(0x40)\n      shl(0xe5, 0x461bcd)\n      dup2\n      mstore\n        /* \"#utility.yul\":4159:4161   */\n      0x20\n        /* \"Contracts/OracleManager.sol\":6253:6364  require(cfg.primaryAggregator != address(0) || cfg.isVaultToken, \"OracleManager: no aggregator or vault logic\") */\n      0x04\n      dup3\n      add\n        /* \"#utility.yul\":4141:4162   */\n      mstore\n        /* \"#utility.yul\":4198:4200   */\n      0x2b\n        /* \"#utility.yul\":4178:4196   */\n      0x24\n      dup3\n      add\n        /* \"#utility.yul\":4171:4201   */\n      mstore\n        /* \"#utility.yul\":4237:4271   */\n      0x4f7261636c654d616e616765723a206e6f2061676772656761746f72206f7220\n        /* \"#utility.yul\":4217:4235   */\n      0x44\n      dup3\n      add\n        /* \"#utility.yul\":4210:4272   */\n      mstore\n      shl(0xa8, 0x7661756c74206c6f676963)\n        /* \"#utility.yul\":4288:4306   */\n      0x64\n      dup3\n      add\n        /* \"#utility.yul\":4281:4322   */\n      mstore\n        /* \"#utility.yul\":4339:4358   */\n      0x84\n      add\n        /* \"Contracts/OracleManager.sol\":6253:6364  require(cfg.primaryAggregator != address(0) || cfg.isVaultToken, \"OracleManager: no aggregator or vault logic\") */\n    tag_48:\n      mload(0x40)\n      dup1\n      swap2\n      sub\n      swap1\n      revert\n    tag_47:\n        /* \"Contracts/OracleManager.sol\":6380:6383  cfg */\n      dup1\n        /* \"Contracts/OracleManager.sol\":6380:6396  cfg.isVaultToken */\n      0x80\n      add\n      mload\n        /* \"Contracts/OracleManager.sol\":6375:6686  if (!cfg.isVaultToken) {... */\n      tag_50\n      jumpi\n        /* \"Contracts/OracleManager.sol\":6432:6456  _getPriceFromConfig(cfg) */\n      tag_51\n        /* \"Contracts/OracleManager.sol\":6452:6455  cfg */\n      dup2\n        /* \"Contracts/OracleManager.sol\":6432:6451  _getPriceFromConfig */\n      tag_52\n        /* \"Contracts/OracleManager.sol\":6432:6456  _getPriceFromConfig(cfg) */\n      jump\t// in\n    tag_51:\n        /* \"Contracts/OracleManager.sol\":6412:6456  (price, decimals) = _getPriceFromConfig(cfg) */\n      swap1\n      swap4\n      pop\n      swap2\n      pop\n        /* \"Contracts/OracleManager.sol\":6375:6686  if (!cfg.isVaultToken) {... */\n      jump(tag_53)\n    tag_50:\n      sub(shl(0xa0, 0x01), 0x01)\n        /* \"Contracts/OracleManager.sol\":6520:6537  vaultFeeds[token] */\n      dup1\n      dup6\n      and\n        /* \"Contracts/OracleManager.sol\":6487:6517  VaultUnderlyingFeeds memory vf */\n      0x00\n        /* \"Contracts/OracleManager.sol\":6520:6537  vaultFeeds[token] */\n      swap1\n      dup2\n      mstore\n        /* \"Contracts/OracleManager.sol\":6520:6530  vaultFeeds */\n      0x02\n        /* \"Contracts/OracleManager.sol\":6520:6537  vaultFeeds[token] */\n      0x20\n      swap1\n      dup2\n      mstore\n      0x40\n      swap2\n      dup3\n      swap1\n      keccak256\n        /* \"Contracts/OracleManager.sol\":6487:6537  VaultUnderlyingFeeds memory vf = vaultFeeds[token] */\n      dup3\n      mload\n      0xa0\n      dup2\n      add\n      dup5\n      mstore\n      dup2\n      sload\n      dup6\n      and\n      dup2\n      mstore\n      0x01\n      swap1\n      swap2\n      add\n      sload\n      swap4\n      dup5\n      and\n      swap2\n      dup2\n      add\n      swap2\n      swap1\n      swap2\n      mstore\n      0xff\n      shl(0xa0, 0x01)\n      dup5\n      div\n      dup2\n      and\n      swap3\n      dup3\n      add\n      swap3\n      swap1\n      swap3\n      mstore\n      shl(0xa8, 0x01)\n      dup4\n      div\n      dup3\n      and\n      0x60\n      dup3\n      add\n      mstore\n      shl(0xb0, 0x01)\n      swap1\n      swap3\n      div\n      and\n      iszero\n      iszero\n      0x80\n      dup3\n      add\n      dup2\n      swap1\n      mstore\n        /* \"Contracts/OracleManager.sol\":6551:6607  require(vf.exists, \"OracleManager: vault feeds not set\") */\n      tag_54\n      jumpi\n      mload(0x40)\n      shl(0xe5, 0x461bcd)\n      dup2\n      mstore\n        /* \"#utility.yul\":4571:4573   */\n      0x20\n        /* \"Contracts/OracleManager.sol\":6551:6607  require(vf.exists, \"OracleManager: vault feeds not set\") */\n      0x04\n      dup3\n      add\n        /* \"#utility.yul\":4553:4574   */\n      mstore\n        /* \"#utility.yul\":4610:4612   */\n      0x22\n        /* \"#utility.yul\":4590:4608   */\n      0x24\n      dup3\n      add\n        /* \"#utility.yul\":4583:4613   */\n      mstore\n        /* \"#utility.yul\":4649:4683   */\n      0x4f7261636c654d616e616765723a207661756c74206665656473206e6f742073\n        /* \"#utility.yul\":4629:4647   */\n      0x44\n      dup3\n      add\n        /* \"#utility.yul\":4622:4684   */\n      mstore\n      shl(0xf2, 0x195d)\n        /* \"#utility.yul\":4700:4718   */\n      0x64\n      dup3\n      add\n        /* \"#utility.yul\":4693:4725   */\n      mstore\n        /* \"#utility.yul\":4742:4761   */\n      0x84\n      add\n        /* \"Contracts/OracleManager.sol\":6551:6607  require(vf.exists, \"OracleManager: vault feeds not set\") */\n      tag_48\n        /* \"#utility.yul\":4369:4767   */\n      jump\n        /* \"Contracts/OracleManager.sol\":6551:6607  require(vf.exists, \"OracleManager: vault feeds not set\") */\n    tag_54:\n        /* \"Contracts/OracleManager.sol\":6641:6675  _computeVaultTokenPrice(token, vf) */\n      tag_57\n        /* \"Contracts/OracleManager.sol\":6665:6670  token */\n      dup6\n        /* \"Contracts/OracleManager.sol\":6672:6674  vf */\n      dup3\n        /* \"Contracts/OracleManager.sol\":6641:6664  _computeVaultTokenPrice */\n      tag_58\n        /* \"Contracts/OracleManager.sol\":6641:6675  _computeVaultTokenPrice(token, vf) */\n      jump\t// in\n    tag_57:\n        /* \"Contracts/OracleManager.sol\":6621:6675  (price, decimals) = _computeVaultTokenPrice(token, vf) */\n      swap1\n      swap5\n      pop\n      swap3\n      pop\n      pop\n        /* \"Contracts/OracleManager.sol\":6375:6686  if (!cfg.isVaultToken) {... */\n    tag_53:\n        /* \"Contracts/OracleManager.sol\":6189:6692  {... */\n      pop\n        /* \"Contracts/OracleManager.sol\":6102:6692  function getPrice(address token) external view returns (uint256 price, uint8 decimals) {... */\n      swap2\n      pop\n      swap2\n      jump\t// out\n        /* \"https://github.com/OpenZeppelin/openzeppelin-contracts/blob/v4.8.3/contracts/access/Ownable.sol\":1831:1932  function renounceOwnership() public virtual onlyOwner {... */\n    tag_24:\n        /* \"https://github.com/OpenZeppelin/openzeppelin-contracts/blob/v4.8.3/contracts/access/Ownable.sol\":1094:1107  _checkOwner() */\n      tag_60\n        /* \"https://github.com/OpenZeppelin/openzeppelin-contracts/blob/v4.8.3/contracts/access/Ownable.sol\":1094:1105  _checkOwner */\n      tag_61\n        /* \"https://github.com/OpenZeppelin/openzeppelin-contracts/blob/v4.8.3/contracts/access/Ownable.sol\":1094:1107  _checkOwner() */\n      jump\t// in\n    tag_60:\n        /* \"https://github.com/OpenZeppelin/openzeppelin-contracts/blob/v4.8.3/contracts/access/Ownable.sol\":1895:1925  _transferOwnership(address(0)) */\n      tag_63\n        /* \"https://github.com/OpenZeppelin/openzeppelin-contracts/blob/v4.8.3/contracts/access/Ownable.sol\":1922:1923  0 */\n      0x00\n        /* \"https://github.com/OpenZeppelin/openzeppelin-contracts/blob/v4.8.3/contracts/access/Ownable.sol\":1895:1913  _transferOwnership */\n      tag_64\n        /* \"https://github.com/OpenZeppelin/openzeppelin-contracts/blob/v4.8.3/contracts/access/Ownable.sol\":1895:1925  _transferOwnership(address(0)) */\n      jump\t// in\n    tag_63:\n        /* \"https://github.com/OpenZeppelin/openzeppelin-contracts/blob/v4.8.3/contracts/access/Ownable.sol\":1831:1932  function renounceOwnership() public virtual onlyOwner {... */\n      jump\t// out\n        /* \"Contracts/OracleManager.sol\":5277:5977  function setVaultUnderlyingFeeds(... */\n    tag_37:\n        /* \"https://github.com/OpenZeppelin/openzeppelin-contracts/blob/v4.8.3/contracts/access/Ownable.sol\":1094:1107  _checkOwner() */\n      tag_67\n        /* \"https://github.com/OpenZeppelin/openzeppelin-contracts/blob/v4.8.3/contracts/access/Ownable.sol\":1094:1105  _checkOwner */\n      tag_61\n        /* \"https://github.com/OpenZeppelin/openzeppelin-contracts/blob/v4.8.3/contracts/access/Ownable.sol\":1094:1107  _checkOwner() */\n      jump\t// in\n    tag_67:\n      sub(shl(0xa0, 0x01), 0x01)\n        /* \"Contracts/OracleManager.sol\":5485:5509  vaultToken != address(0) */\n      dup6\n      and\n        /* \"Contracts/OracleManager.sol\":5477:5547  require(vaultToken != address(0), \"OracleManager: invalid vaultToken\") */\n      tag_69\n      jumpi\n      mload(0x40)\n      shl(0xe5, 0x461bcd)\n      dup2\n      mstore\n        /* \"#utility.yul\":4974:4976   */\n      0x20\n        /* \"Contracts/OracleManager.sol\":5477:5547  require(vaultToken != address(0), \"OracleManager: invalid vaultToken\") */\n      0x04\n      dup3\n      add\n        /* \"#utility.yul\":4956:4977   */\n      mstore\n        /* \"#utility.yul\":5013:5015   */\n      0x21\n        /* \"#utility.yul\":4993:5011   */\n      0x24\n      dup3\n      add\n        /* \"#utility.yul\":4986:5016   */\n      mstore\n        /* \"#utility.yul\":5052:5086   */\n      0x4f7261636c654d616e616765723a20696e76616c6964207661756c74546f6b65\n        /* \"#utility.yul\":5032:5050   */\n      0x44\n      dup3\n      add\n        /* \"#utility.yul\":5025:5087   */\n      mstore\n      shl(0xf9, 0x37)\n        /* \"#utility.yul\":5103:5121   */\n      0x64\n      dup3\n      add\n        /* \"#utility.yul\":5096:5127   */\n      mstore\n        /* \"#utility.yul\":5144:5163   */\n      0x84\n      add\n        /* \"Contracts/OracleManager.sol\":5477:5547  require(vaultToken != address(0), \"OracleManager: invalid vaultToken\") */\n      tag_48\n        /* \"#utility.yul\":4772:5169   */\n      jump\n        /* \"Contracts/OracleManager.sol\":5477:5547  require(vaultToken != address(0), \"OracleManager: invalid vaultToken\") */\n    tag_69:\n        /* \"Contracts/OracleManager.sol\":5583:5801  VaultUnderlyingFeeds({... */\n      0x40\n      dup1\n      mload\n      0xa0\n      dup2\n      add\n      dup3\n      mstore\n      sub(shl(0xa0, 0x01), 0x01)\n      dup1\n      dup8\n      and\n      dup3\n      mstore\n      dup6\n      dup2\n      and\n      0x20\n      dup1\n      dup5\n      add\n      swap2\n      dup3\n      mstore\n      0xff\n      dup1\n      dup9\n      and\n      dup6\n      dup8\n      add\n      swap1\n      dup2\n      mstore\n      dup8\n      dup3\n      and\n      0x60\n      dup8\n      add\n      swap1\n      dup2\n      mstore\n        /* \"Contracts/OracleManager.sol\":5786:5790  true */\n      0x01\n        /* \"Contracts/OracleManager.sol\":5583:5801  VaultUnderlyingFeeds({... */\n      0x80\n      dup9\n      add\n      dup2\n      dup2\n      mstore\n        /* \"Contracts/OracleManager.sol\":5558:5580  vaultFeeds[vaultToken] */\n      dup15\n      dup9\n      and\n      0x00\n      dup2\n      dup2\n      mstore\n        /* \"Contracts/OracleManager.sol\":5558:5568  vaultFeeds */\n      0x02\n        /* \"Contracts/OracleManager.sol\":5558:5580  vaultFeeds[vaultToken] */\n      swap1\n      swap8\n      mstore\n      swap6\n      dup11\n      swap1\n      keccak256\n        /* \"Contracts/OracleManager.sol\":5558:5801  vaultFeeds[vaultToken] = VaultUnderlyingFeeds({... */\n      swap9\n      mload\n      dup10\n      sload\n      swap1\n      dup10\n      and\n      not(sub(shl(0xa0, 0x01), 0x01))\n      swap1\n      swap2\n      and\n      or\n      dup10\n      sstore\n      swap6\n      mload\n      swap8\n      add\n      dup1\n      sload\n      swap3\n      mload\n      swap2\n      mload\n      swap6\n      mload\n      iszero\n      iszero\n      shl(0xb0, 0x01)\n      mul\n      not(shl(0xb0, 0xff))\n      swap7\n      dup6\n      and\n      shl(0xa8, 0x01)\n      mul\n      swap7\n      swap1\n      swap7\n      and\n      not(shl(0xa8, 0xffff))\n      swap3\n      swap1\n      swap5\n      and\n      shl(0xa0, 0x01)\n      mul\n      not(sub(shl(0xa8, 0x01), 0x01))\n      swap1\n      swap4\n      and\n      swap8\n      swap1\n      swap7\n      and\n      swap7\n      swap1\n      swap7\n      or\n      or\n      swap5\n      swap1\n      swap5\n      and\n      swap4\n      swap1\n      swap4\n      or\n      or\n      swap1\n      sstore\n        /* \"Contracts/OracleManager.sol\":5817:5970  VaultUnderlyingFeedsUpdated(... */\n      swap1\n      mload\n      0x2fb5936f285b062770ba9aa206ca7282ebb8f84ad2eda1c664b3059e9c62c1ba\n      swap1\n      tag_72\n      swap1\n        /* \"Contracts/OracleManager.sol\":5636:5645  token0Agg */\n      dup8\n      swap1\n        /* \"Contracts/OracleManager.sol\":5677:5686  token1Agg */\n      dup8\n      swap1\n        /* \"Contracts/OracleManager.sol\":5716:5725  token0Dec */\n      dup8\n      swap1\n        /* \"Contracts/OracleManager.sol\":5755:5764  token1Dec */\n      dup8\n      swap1\n      sub(shl(0xa0, 0x01), 0x01)\n        /* \"#utility.yul\":5415:5447   */\n      swap5\n      dup6\n      and\n        /* \"#utility.yul\":5397:5448   */\n      dup2\n      mstore\n        /* \"#utility.yul\":5484:5516   */\n      swap3\n      swap1\n      swap4\n      and\n        /* \"#utility.yul\":5479:5481   */\n      0x20\n        /* \"#utility.yul\":5464:5482   */\n      dup4\n      add\n        /* \"#utility.yul\":5457:5517   */\n      mstore\n        /* \"#utility.yul\":5565:5569   */\n      0xff\n        /* \"#utility.yul\":5553:5570   */\n      swap1\n      dup2\n      and\n        /* \"#utility.yul\":5548:5550   */\n      0x40\n        /* \"#utility.yul\":5533:5551   */\n      dup4\n      add\n        /* \"#utility.yul\":5526:5571   */\n      mstore\n        /* \"#utility.yul\":5607:5624   */\n      swap2\n      swap1\n      swap2\n      and\n        /* \"#utility.yul\":5602:5604   */\n      0x60\n        /* \"#utility.yul\":5587:5605   */\n      dup3\n      add\n        /* \"#utility.yul\":5580:5625   */\n      mstore\n        /* \"#utility.yul\":5384:5387   */\n      0x80\n        /* \"#utility.yul\":5369:5388   */\n      add\n      swap1\n        /* \"#utility.yul\":5174:5631   */\n      jump\n        /* \"Contracts/OracleManager.sol\":5817:5970  VaultUnderlyingFeedsUpdated(... */\n    tag_72:\n      mload(0x40)\n      dup1\n      swap2\n      sub\n      swap1\n      log2\n        /* \"Contracts/OracleManager.sol\":5277:5977  function setVaultUnderlyingFeeds(... */\n      pop\n      pop\n      pop\n      pop\n      pop\n      jump\t// out\n        /* \"Contracts/OracleManager.sol\":4215:5165  function setOracleConfig(... */\n    tag_41:\n        /* \"https://github.com/OpenZeppelin/openzeppelin-contracts/blob/v4.8.3/contracts/access/Ownable.sol\":1094:1107  _checkOwner() */\n      tag_75\n        /* \"https://github.com/OpenZeppelin/openzeppelin-contracts/blob/v4.8.3/contracts/access/Ownable.sol\":1094:1105  _checkOwner */\n      tag_61\n        /* \"https://github.com/OpenZeppelin/openzeppelin-contracts/blob/v4.8.3/contracts/access/Ownable.sol\":1094:1107  _checkOwner() */\n      jump\t// in\n    tag_75:\n      sub(shl(0xa0, 0x01), 0x01)\n        /* \"Contracts/OracleManager.sol\":4462:4481  token != address(0) */\n      dup7\n      and\n        /* \"Contracts/OracleManager.sol\":4454:4514  require(token != address(0), \"OracleManager: invalid token\") */\n      tag_77\n      jumpi\n      mload(0x40)\n      shl(0xe5, 0x461bcd)\n      dup2\n      mstore\n        /* \"#utility.yul\":5838:5840   */\n      0x20\n        /* \"Contracts/OracleManager.sol\":4454:4514  require(token != address(0), \"OracleManager: invalid token\") */\n      0x04\n      dup3\n      add\n        /* \"#utility.yul\":5820:5841   */\n      mstore\n        /* \"#utility.yul\":5877:5879   */\n      0x1c\n        /* \"#utility.yul\":5857:5875   */\n      0x24\n      dup3\n      add\n        /* \"#utility.yul\":5850:5880   */\n      mstore\n        /* \"#utility.yul\":5916:5946   */\n      0x4f7261636c654d616e616765723a20696e76616c696420746f6b656e00000000\n        /* \"#utility.yul\":5896:5914   */\n      0x44\n      dup3\n      add\n        /* \"#utility.yul\":5889:5947   */\n      mstore\n        /* \"#utility.yul\":5964:5982   */\n      0x64\n      add\n        /* \"Contracts/OracleManager.sol\":4454:4514  require(token != address(0), \"OracleManager: invalid token\") */\n      tag_48\n        /* \"#utility.yul\":5636:5988   */\n      jump\n        /* \"Contracts/OracleManager.sol\":4454:4514  require(token != address(0), \"OracleManager: invalid token\") */\n    tag_77:\n        /* \"Contracts/OracleManager.sol\":4529:4541  isVaultToken */\n      dup1\n        /* \"Contracts/OracleManager.sol\":4524:4660  if (!isVaultToken) {... */\n      tag_81\n      jumpi\n      sub(shl(0xa0, 0x01), 0x01)\n        /* \"Contracts/OracleManager.sol\":4565:4596  primaryAggregator != address(0) */\n      dup6\n      and\n        /* \"Contracts/OracleManager.sol\":4557:4649  require(primaryAggregator != address(0), \"OracleManager: aggregator required for non-vault\") */\n      tag_81\n      jumpi\n      mload(0x40)\n      shl(0xe5, 0x461bcd)\n      dup2\n      mstore\n        /* \"#utility.yul\":6195:6197   */\n      0x20\n        /* \"Contracts/OracleManager.sol\":4557:4649  require(primaryAggregator != address(0), \"OracleManager: aggregator required for non-vault\") */\n      0x04\n      dup3\n      add\n        /* \"#utility.yul\":6177:6198   */\n      mstore\n        /* \"#utility.yul\":6234:6236   */\n      0x30\n        /* \"#utility.yul\":6214:6232   */\n      0x24\n      dup3\n      add\n        /* \"#utility.yul\":6207:6237   */\n      mstore\n        /* \"#utility.yul\":6273:6307   */\n      0x4f7261636c654d616e616765723a2061676772656761746f7220726571756972\n        /* \"#utility.yul\":6253:6271   */\n      0x44\n      dup3\n      add\n        /* \"#utility.yul\":6246:6308   */\n      mstore\n      shl(0x82, 0x195908199bdc881b9bdb8b5d985d5b1d)\n        /* \"#utility.yul\":6324:6342   */\n      0x64\n      dup3\n      add\n        /* \"#utility.yul\":6317:6363   */\n      mstore\n        /* \"#utility.yul\":6380:6399   */\n      0x84\n      add\n        /* \"Contracts/OracleManager.sol\":4557:4649  require(primaryAggregator != address(0), \"OracleManager: aggregator required for non-vault\") */\n      tag_48\n        /* \"#utility.yul\":5993:6405   */\n      jump\n        /* \"Contracts/OracleManager.sol\":4557:4649  require(primaryAggregator != address(0), \"OracleManager: aggregator required for non-vault\") */\n    tag_81:\n        /* \"Contracts/OracleManager.sol\":4693:4950  OracleData({... */\n      0x40\n      dup1\n      mload\n      0xa0\n      dup2\n      add\n      dup3\n      mstore\n      sub(shl(0xa0, 0x01), 0x01)\n      dup1\n      dup9\n      and\n      dup3\n      mstore\n      dup7\n      dup2\n      and\n      0x20\n      dup1\n      dup5\n      add\n      swap2\n      dup3\n      mstore\n      dup8\n      iszero\n      iszero\n      dup5\n      dup7\n      add\n      swap1\n      dup2\n      mstore\n      0xff\n      dup1\n      dup10\n      and\n      0x60\n      dup8\n      add\n      swap1\n      dup2\n      mstore\n      dup9\n      iszero\n      iszero\n      0x80\n      dup9\n      add\n      swap1\n      dup2\n      mstore\n        /* \"Contracts/OracleManager.sol\":4670:4690  oracleConfigs[token] */\n      dup15\n      dup8\n      and\n      0x00\n      dup2\n      dup2\n      mstore\n        /* \"Contracts/OracleManager.sol\":4670:4683  oracleConfigs */\n      0x01\n        /* \"Contracts/OracleManager.sol\":4670:4690  oracleConfigs[token] */\n      swap7\n      dup8\n      swap1\n      mstore\n      dup11\n      swap1\n      keccak256\n        /* \"Contracts/OracleManager.sol\":4670:4950  oracleConfigs[token] = OracleData({... */\n      swap9\n      mload\n      dup10\n      sload\n      swap1\n      dup10\n      and\n      not(sub(shl(0xa0, 0x01), 0x01))\n      swap1\n      swap2\n      and\n      or\n      dup10\n      sstore\n      swap6\n      mload\n      swap8\n      swap1\n      swap5\n      add\n      dup1\n      sload\n      swap4\n      mload\n      swap2\n      mload\n      swap5\n      mload\n      iszero\n      iszero\n      shl(0xb0, 0x01)\n      mul\n      not(shl(0xb0, 0xff))\n      swap6\n      swap1\n      swap4\n      and\n      shl(0xa8, 0x01)\n      mul\n      swap5\n      swap1\n      swap5\n      and\n      not(shl(0xa8, 0xffff))\n      swap2\n      iszero\n      iszero\n      shl(0xa0, 0x01)\n      mul\n      not(sub(shl(0xa8, 0x01), 0x01))\n      swap1\n      swap5\n      and\n      swap8\n      swap1\n      swap7\n      and\n      swap7\n      swap1\n      swap7\n      or\n      swap2\n      swap1\n      swap2\n      or\n      swap5\n      swap1\n      swap5\n      and\n      swap3\n      swap1\n      swap3\n      or\n      swap3\n      swap1\n      swap3\n      or\n      swap1\n      sstore\n        /* \"Contracts/OracleManager.sol\":4966:5158  OracleConfigUpdated(... */\n      swap1\n      mload\n      0x5be58a9eef853f8ae7393174434d0be93daad7445510f6ce6e914b2f297885b8\n      swap1\n      tag_84\n      swap1\n        /* \"Contracts/OracleManager.sol\":4737:4754  primaryAggregator */\n      dup9\n      swap1\n        /* \"Contracts/OracleManager.sol\":4788:4806  fallbackAggregator */\n      dup9\n      swap1\n        /* \"Contracts/OracleManager.sol\":4840:4856  useFallbackIfErr */\n      dup9\n      swap1\n        /* \"Contracts/OracleManager.sol\":4888:4899  decimalsOvr */\n      dup9\n      swap1\n        /* \"Contracts/OracleManager.sol\":4927:4939  isVaultToken */\n      dup9\n      swap1\n      sub(shl(0xa0, 0x01), 0x01)\n        /* \"#utility.yul\":663:695   */\n      swap6\n      dup7\n      and\n        /* \"#utility.yul\":645:696   */\n      dup2\n      mstore\n        /* \"#utility.yul\":732:764   */\n      swap4\n      swap1\n      swap5\n      and\n        /* \"#utility.yul\":727:729   */\n      0x20\n        /* \"#utility.yul\":712:730   */\n      dup5\n      add\n        /* \"#utility.yul\":705:765   */\n      mstore\n        /* \"#utility.yul\":808:822   */\n      swap1\n      iszero\n        /* \"#utility.yul\":801:823   */\n      iszero\n        /* \"#utility.yul\":796:798   */\n      0x40\n        /* \"#utility.yul\":781:799   */\n      dup4\n      add\n        /* \"#utility.yul\":774:824   */\n      mstore\n        /* \"#utility.yul\":872:876   */\n      0xff\n        /* \"#utility.yul\":860:877   */\n      and\n        /* \"#utility.yul\":855:857   */\n      0x60\n        /* \"#utility.yul\":840:858   */\n      dup3\n      add\n        /* \"#utility.yul\":833:878   */\n      mstore\n        /* \"#utility.yul\":922:936   */\n      swap1\n      iszero\n        /* \"#utility.yul\":915:937   */\n      iszero\n        /* \"#utility.yul\":909:912   */\n      0x80\n        /* \"#utility.yul\":894:913   */\n      dup3\n      add\n        /* \"#utility.yul\":887:938   */\n      mstore\n        /* \"#utility.yul\":632:635   */\n      0xa0\n        /* \"#utility.yul\":617:636   */\n      add\n      swap1\n        /* \"#utility.yul\":402:944   */\n      jump\n        /* \"Contracts/OracleManager.sol\":4966:5158  OracleConfigUpdated(... */\n    tag_84:\n      mload(0x40)\n      dup1\n      swap2\n      sub\n      swap1\n      log2\n        /* \"Contracts/OracleManager.sol\":4215:5165  function setOracleConfig(... */\n      pop\n      pop\n      pop\n      pop\n      pop\n      pop\n      jump\t// out\n        /* \"https://github.com/OpenZeppelin/openzeppelin-contracts/blob/v4.8.3/contracts/access/Ownable.sol\":2081:2279  function transferOwnership(address newOwner) public virtual onlyOwner {... */\n    tag_44:\n        /* \"https://github.com/OpenZeppelin/openzeppelin-contracts/blob/v4.8.3/contracts/access/Ownable.sol\":1094:1107  _checkOwner() */\n      tag_86\n        /* \"https://github.com/OpenZeppelin/openzeppelin-contracts/blob/v4.8.3/contracts/access/Ownable.sol\":1094:1105  _checkOwner */\n      tag_61\n        /* \"https://github.com/OpenZeppelin/openzeppelin-contracts/blob/v4.8.3/contracts/access/Ownable.sol\":1094:1107  _checkOwner() */\n      jump\t// in\n    tag_86:\n      sub(shl(0xa0, 0x01), 0x01)\n        /* \"https://github.com/OpenZeppelin/openzeppelin-contracts/blob/v4.8.3/contracts/access/Ownable.sol\":2169:2191  newOwner != address(0) */\n      dup2\n      and\n        /* \"https://github.com/OpenZeppelin/openzeppelin-contracts/blob/v4.8.3/contracts/access/Ownable.sol\":2161:2234  require(newOwner != address(0), \"Ownable: new owner is the zero address\") */\n      tag_88\n      jumpi\n      mload(0x40)\n      shl(0xe5, 0x461bcd)\n      dup2\n      mstore\n        /* \"#utility.yul\":6612:6614   */\n      0x20\n        /* \"https://github.com/OpenZeppelin/openzeppelin-contracts/blob/v4.8.3/contracts/access/Ownable.sol\":2161:2234  require(newOwner != address(0), \"Ownable: new owner is the zero address\") */\n      0x04\n      dup3\n      add\n        /* \"#utility.yul\":6594:6615   */\n      mstore\n        /* \"#utility.yul\":6651:6653   */\n      0x26\n        /* \"#utility.yul\":6631:6649   */\n      0x24\n      dup3\n      add\n        /* \"#utility.yul\":6624:6654   */\n      mstore\n        /* \"#utility.yul\":6690:6724   */\n      0x4f776e61626c653a206e6577206f776e657220697320746865207a65726f2061\n        /* \"#utility.yul\":6670:6688   */\n      0x44\n      dup3\n      add\n        /* \"#utility.yul\":6663:6725   */\n      mstore\n      shl(0xd0, 0x646472657373)\n        /* \"#utility.yul\":6741:6759   */\n      0x64\n      dup3\n      add\n        /* \"#utility.yul\":6734:6770   */\n      mstore\n        /* \"#utility.yul\":6787:6806   */\n      0x84\n      add\n        /* \"https://github.com/OpenZeppelin/openzeppelin-contracts/blob/v4.8.3/contracts/access/Ownable.sol\":2161:2234  require(newOwner != address(0), \"Ownable: new owner is the zero address\") */\n      tag_48\n        /* \"#utility.yul\":6410:6812   */\n      jump\n        /* \"https://github.com/OpenZeppelin/openzeppelin-contracts/blob/v4.8.3/contracts/access/Ownable.sol\":2161:2234  require(newOwner != address(0), \"Ownable: new owner is the zero address\") */\n    tag_88:\n        /* \"https://github.com/OpenZeppelin/openzeppelin-contracts/blob/v4.8.3/contracts/access/Ownable.sol\":2244:2272  _transferOwnership(newOwner) */\n      tag_91\n        /* \"https://github.com/OpenZeppelin/openzeppelin-contracts/blob/v4.8.3/contracts/access/Ownable.sol\":2263:2271  newOwner */\n      dup2\n        /* \"https://github.com/OpenZeppelin/openzeppelin-contracts/blob/v4.8.3/contracts/access/Ownable.sol\":2244:2262  _transferOwnership */\n      tag_64\n        /* \"https://github.com/OpenZeppelin/openzeppelin-contracts/blob/v4.8.3/contracts/access/Ownable.sol\":2244:2272  _transferOwnership(newOwner) */\n      jump\t// in\n    tag_91:\n        /* \"https://github.com/OpenZeppelin/openzeppelin-contracts/blob/v4.8.3/contracts/access/Ownable.sol\":2081:2279  function transferOwnership(address newOwner) public virtual onlyOwner {... */\n      pop\n      jump\t// out\n        /* \"Contracts/OracleManager.sol\":6875:7598  function _getPriceFromConfig(OracleData memory cfg)... */\n    tag_52:\n        /* \"Contracts/OracleManager.sol\":6974:6987  uint256 price */\n      0x00\n        /* \"Contracts/OracleManager.sol\":6989:7003  uint8 decimals */\n      dup1\n        /* \"Contracts/OracleManager.sol\":7020:7034  bool okPrimary */\n      0x00\n        /* \"Contracts/OracleManager.sol\":7036:7045  uint256 p */\n      dup1\n        /* \"Contracts/OracleManager.sol\":7047:7054  uint8 d */\n      0x00\n        /* \"Contracts/OracleManager.sol\":7058:7124  _tryGetChainlinkPrice(cfg.primaryAggregator, cfg.decimalsOverride) */\n      tag_93\n        /* \"Contracts/OracleManager.sol\":7080:7083  cfg */\n      dup7\n        /* \"Contracts/OracleManager.sol\":7080:7101  cfg.primaryAggregator */\n      0x00\n      add\n      mload\n        /* \"Contracts/OracleManager.sol\":7103:7106  cfg */\n      dup8\n        /* \"Contracts/OracleManager.sol\":7103:7123  cfg.decimalsOverride */\n      0x60\n      add\n      mload\n        /* \"Contracts/OracleManager.sol\":7058:7079  _tryGetChainlinkPrice */\n      tag_94\n        /* \"Contracts/OracleManager.sol\":7058:7124  _tryGetChainlinkPrice(cfg.primaryAggregator, cfg.decimalsOverride) */\n      jump\t// in\n    tag_93:\n        /* \"Contracts/OracleManager.sol\":7019:7124  (bool okPrimary, uint256 p, uint8 d) = _tryGetChainlinkPrice(cfg.primaryAggregator, cfg.decimalsOverride) */\n      swap3\n      pop\n      swap3\n      pop\n      swap3\n      pop\n        /* \"Contracts/OracleManager.sol\":7139:7148  okPrimary */\n      dup3\n        /* \"Contracts/OracleManager.sol\":7138:7148  !okPrimary */\n      iszero\n        /* \"Contracts/OracleManager.sol\":7138:7174  !okPrimary && cfg.useFallbackIfError */\n      dup1\n      iszero\n      tag_95\n      jumpi\n      pop\n        /* \"Contracts/OracleManager.sol\":7152:7155  cfg */\n      dup6\n        /* \"Contracts/OracleManager.sol\":7152:7174  cfg.useFallbackIfError */\n      0x40\n      add\n      mload\n        /* \"Contracts/OracleManager.sol\":7138:7174  !okPrimary && cfg.useFallbackIfError */\n    tag_95:\n        /* \"Contracts/OracleManager.sol\":7138:7214  !okPrimary && cfg.useFallbackIfError && cfg.fallbackAggregator != address(0) */\n      dup1\n      iszero\n      tag_96\n      jumpi\n      pop\n        /* \"Contracts/OracleManager.sol\":7178:7200  cfg.fallbackAggregator */\n      0x20\n      dup7\n      add\n      mload\n      sub(shl(0xa0, 0x01), 0x01)\n        /* \"Contracts/OracleManager.sol\":7178:7214  cfg.fallbackAggregator != address(0) */\n      and\n      iszero\n      iszero\n        /* \"Contracts/OracleManager.sol\":7138:7214  !okPrimary && cfg.useFallbackIfError && cfg.fallbackAggregator != address(0) */\n    tag_96:\n        /* \"Contracts/OracleManager.sol\":7134:7499  if (!okPrimary && cfg.useFallbackIfError && cfg.fallbackAggregator != address(0)) {... */\n      iszero\n      tag_97\n      jumpi\n        /* \"Contracts/OracleManager.sol\":7231:7246  bool okFallback */\n      0x00\n        /* \"Contracts/OracleManager.sol\":7248:7265  uint256 pFallback */\n      dup1\n        /* \"Contracts/OracleManager.sol\":7267:7282  uint8 dFallback */\n      0x00\n        /* \"Contracts/OracleManager.sol\":7302:7369  _tryGetChainlinkPrice(cfg.fallbackAggregator, cfg.decimalsOverride) */\n      tag_98\n        /* \"Contracts/OracleManager.sol\":7324:7327  cfg */\n      dup10\n        /* \"Contracts/OracleManager.sol\":7324:7346  cfg.fallbackAggregator */\n      0x20\n      add\n      mload\n        /* \"Contracts/OracleManager.sol\":7348:7351  cfg */\n      dup11\n        /* \"Contracts/OracleManager.sol\":7348:7368  cfg.decimalsOverride */\n      0x60\n      add\n      mload\n        /* \"Contracts/OracleManager.sol\":7302:7323  _tryGetChainlinkPrice */\n      tag_94\n        /* \"Contracts/OracleManager.sol\":7302:7369  _tryGetChainlinkPrice(cfg.fallbackAggregator, cfg.decimalsOverride) */\n      jump\t// in\n    tag_98:\n        /* \"Contracts/OracleManager.sol\":7230:7369  (bool okFallback, uint256 pFallback, uint8 dFallback) =... */\n      swap3\n      pop\n      swap3\n      pop\n      swap3\n      pop\n        /* \"Contracts/OracleManager.sol\":7391:7401  okFallback */\n      dup3\n        /* \"Contracts/OracleManager.sol\":7383:7445  require(okFallback, \"OracleManager: fallback aggregator fail\") */\n      tag_99\n      jumpi\n      mload(0x40)\n      shl(0xe5, 0x461bcd)\n      dup2\n      mstore\n        /* \"#utility.yul\":7019:7021   */\n      0x20\n        /* \"Contracts/OracleManager.sol\":7383:7445  require(okFallback, \"OracleManager: fallback aggregator fail\") */\n      0x04\n      dup3\n      add\n        /* \"#utility.yul\":7001:7022   */\n      mstore\n        /* \"#utility.yul\":7058:7060   */\n      0x27\n        /* \"#utility.yul\":7038:7056   */\n      0x24\n      dup3\n      add\n        /* \"#utility.yul\":7031:7061   */\n      mstore\n        /* \"#utility.yul\":7097:7131   */\n      0x4f7261636c654d616e616765723a2066616c6c6261636b206167677265676174\n        /* \"#utility.yul\":7077:7095   */\n      0x44\n      dup3\n      add\n        /* \"#utility.yul\":7070:7132   */\n      mstore\n      shl(0xca, 0x1bdc8819985a5b)\n        /* \"#utility.yul\":7148:7166   */\n      0x64\n      dup3\n      add\n        /* \"#utility.yul\":7141:7178   */\n      mstore\n        /* \"#utility.yul\":7195:7214   */\n      0x84\n      add\n        /* \"Contracts/OracleManager.sol\":7383:7445  require(okFallback, \"OracleManager: fallback aggregator fail\") */\n      tag_48\n        /* \"#utility.yul\":6817:7220   */\n      jump\n        /* \"Contracts/OracleManager.sol\":7383:7445  require(okFallback, \"OracleManager: fallback aggregator fail\") */\n    tag_99:\n        /* \"Contracts/OracleManager.sol\":7467:7476  pFallback */\n      swap1\n      swap9\n        /* \"Contracts/OracleManager.sol\":7478:7487  dFallback */\n      swap1\n      swap8\n      pop\n        /* \"Contracts/OracleManager.sol\":6875:7598  function _getPriceFromConfig(OracleData memory cfg)... */\n      swap6\n      pop\n      pop\n      pop\n      pop\n      pop\n      pop\n      jump\t// out\n        /* \"Contracts/OracleManager.sol\":7134:7499  if (!okPrimary && cfg.useFallbackIfError && cfg.fallbackAggregator != address(0)) {... */\n    tag_97:\n        /* \"Contracts/OracleManager.sol\":7516:7525  okPrimary */\n      dup3\n        /* \"Contracts/OracleManager.sol\":7508:7568  require(okPrimary, \"OracleManager: primary aggregator fail\") */\n      tag_102\n      jumpi\n      mload(0x40)\n      shl(0xe5, 0x461bcd)\n      dup2\n      mstore\n        /* \"#utility.yul\":7427:7429   */\n      0x20\n        /* \"Contracts/OracleManager.sol\":7508:7568  require(okPrimary, \"OracleManager: primary aggregator fail\") */\n      0x04\n      dup3\n      add\n        /* \"#utility.yul\":7409:7430   */\n      mstore\n        /* \"#utility.yul\":7466:7468   */\n      0x26\n        /* \"#utility.yul\":7446:7464   */\n      0x24\n      dup3\n      add\n        /* \"#utility.yul\":7439:7469   */\n      mstore\n        /* \"#utility.yul\":7505:7539   */\n      0x4f7261636c654d616e616765723a207072696d6172792061676772656761746f\n        /* \"#utility.yul\":7485:7503   */\n      0x44\n      dup3\n      add\n        /* \"#utility.yul\":7478:7540   */\n      mstore\n      shl(0xd2, 0x1c8819985a5b)\n        /* \"#utility.yul\":7556:7574   */\n      0x64\n      dup3\n      add\n        /* \"#utility.yul\":7549:7585   */\n      mstore\n        /* \"#utility.yul\":7602:7621   */\n      0x84\n      add\n        /* \"Contracts/OracleManager.sol\":7508:7568  require(okPrimary, \"OracleManager: primary aggregator fail\") */\n      tag_48\n        /* \"#utility.yul\":7225:7627   */\n      jump\n        /* \"Contracts/OracleManager.sol\":7508:7568  require(okPrimary, \"OracleManager: primary aggregator fail\") */\n    tag_102:\n        /* \"Contracts/OracleManager.sol\":7586:7587  p */\n      swap1\n      swap6\n        /* \"Contracts/OracleManager.sol\":7589:7590  d */\n      swap1\n      swap5\n      pop\n        /* \"Contracts/OracleManager.sol\":6875:7598  function _getPriceFromConfig(OracleData memory cfg)... */\n      swap3\n      pop\n      pop\n      pop\n      jump\t// out\n        /* \"Contracts/OracleManager.sol\":8059:9400  function _computeVaultTokenPrice(address vaultToken, VaultUnderlyingFeeds memory vf)... */\n    tag_58:\n        /* \"Contracts/OracleManager.sol\":8191:8204  uint256 price */\n      0x00\n        /* \"Contracts/OracleManager.sol\":8206:8220  uint8 decimals */\n      dup1\n        /* \"Contracts/OracleManager.sol\":8271:8290  uint256 totalShares */\n      0x00\n        /* \"Contracts/OracleManager.sol\":8292:8307  uint256 tokenId */\n      dup1\n        /* \"Contracts/OracleManager.sol\":8309:8323  address posMgr */\n      0x00\n        /* \"Contracts/OracleManager.sol\":8327:8354  _fetchVaultInfo(vaultToken) */\n      tag_106\n        /* \"Contracts/OracleManager.sol\":8343:8353  vaultToken */\n      dup8\n        /* \"Contracts/OracleManager.sol\":8327:8342  _fetchVaultInfo */\n      tag_107\n        /* \"Contracts/OracleManager.sol\":8327:8354  _fetchVaultInfo(vaultToken) */\n      jump\t// in\n    tag_106:\n        /* \"Contracts/OracleManager.sol\":8270:8354  (uint256 totalShares, uint256 tokenId, address posMgr) = _fetchVaultInfo(vaultToken) */\n      swap3\n      pop\n      swap3\n      pop\n      swap3\n      pop\n        /* \"Contracts/OracleManager.sol\":8396:8421  PositionResult memory pos */\n      0x00\n        /* \"Contracts/OracleManager.sol\":8424:8459  _fetchPositionData(posMgr, tokenId) */\n      tag_108\n        /* \"Contracts/OracleManager.sol\":8443:8449  posMgr */\n      dup3\n        /* \"Contracts/OracleManager.sol\":8451:8458  tokenId */\n      dup5\n        /* \"Contracts/OracleManager.sol\":8424:8442  _fetchPositionData */\n      tag_109\n        /* \"Contracts/OracleManager.sol\":8424:8459  _fetchPositionData(posMgr, tokenId) */\n      jump\t// in\n    tag_108:\n        /* \"Contracts/OracleManager.sol\":8396:8459  PositionResult memory pos = _fetchPositionData(posMgr, tokenId) */\n      swap1\n      pop\n        /* \"Contracts/OracleManager.sol\":8509:8529  uint160 sqrtPriceX96 */\n      0x00\n        /* \"Contracts/OracleManager.sol\":8535:8588  _getPoolSqrtAndTick(IVaultToken(vaultToken).v3Pool()) */\n      tag_110\n        /* \"Contracts/OracleManager.sol\":8567:8577  vaultToken */\n      dup10\n      sub(shl(0xa0, 0x01), 0x01)\n        /* \"Contracts/OracleManager.sol\":8555:8585  IVaultToken(vaultToken).v3Pool */\n      and\n      0x3a924d5b\n        /* \"Contracts/OracleManager.sol\":8555:8587  IVaultToken(vaultToken).v3Pool() */\n      mload(0x40)\n      dup2\n      0xffffffff\n      and\n      0xe0\n      shl\n      dup2\n      mstore\n      0x04\n      add\n      0x20\n      mload(0x40)\n      dup1\n      dup4\n      sub\n      dup2\n      dup7\n      gas\n      staticcall\n      iszero\n      dup1\n      iszero\n      tag_112\n      jumpi\n      returndatasize\n      0x00\n      dup1\n      returndatacopy\n      revert(0x00, returndatasize)\n    tag_112:\n      pop\n      pop\n      pop\n      pop\n      mload(0x40)\n      returndatasize\n      not(0x1f)\n      0x1f\n      dup3\n      add\n      and\n      dup3\n      add\n      dup1\n      0x40\n      mstore\n      pop\n      dup2\n      add\n      swap1\n      tag_113\n      swap2\n      swap1\n      tag_114\n      jump\t// in\n    tag_113:\n        /* \"Contracts/OracleManager.sol\":8535:8554  _getPoolSqrtAndTick */\n      tag_115\n        /* \"Contracts/OracleManager.sol\":8535:8588  _getPoolSqrtAndTick(IVaultToken(vaultToken).v3Pool()) */\n      jump\t// in\n    tag_110:\n        /* \"Contracts/OracleManager.sol\":8508:8588  (uint160 sqrtPriceX96, ) = _getPoolSqrtAndTick(IVaultToken(vaultToken).v3Pool()) */\n      pop\n      swap1\n      pop\n        /* \"Contracts/OracleManager.sol\":8634:8652  uint256 amtActive0 */\n      0x00\n        /* \"Contracts/OracleManager.sol\":8654:8672  uint256 amtActive1 */\n      dup1\n        /* \"Contracts/OracleManager.sol\":8676:8817  _computeLiquidityAmounts(... */\n      tag_116\n        /* \"Contracts/OracleManager.sol\":8714:8726  sqrtPriceX96 */\n      dup4\n        /* \"Contracts/OracleManager.sol\":8740:8743  pos */\n      dup6\n        /* \"Contracts/OracleManager.sol\":8740:8753  pos.tickLower */\n      0x40\n      add\n      mload\n        /* \"Contracts/OracleManager.sol\":8767:8770  pos */\n      dup7\n        /* \"Contracts/OracleManager.sol\":8767:8780  pos.tickUpper */\n      0x60\n      add\n      mload\n        /* \"Contracts/OracleManager.sol\":8794:8797  pos */\n      dup8\n        /* \"Contracts/OracleManager.sol\":8794:8807  pos.liquidity */\n      0x80\n      add\n      mload\n        /* \"Contracts/OracleManager.sol\":8676:8700  _computeLiquidityAmounts */\n      tag_117\n        /* \"Contracts/OracleManager.sol\":8676:8817  _computeLiquidityAmounts(... */\n      jump\t// in\n    tag_116:\n        /* \"Contracts/OracleManager.sol\":8633:8817  (uint256 amtActive0, uint256 amtActive1) = _computeLiquidityAmounts(... */\n      swap2\n      pop\n      swap2\n      pop\n        /* \"Contracts/OracleManager.sol\":8857:8869  uint256 amt0 */\n      0x00\n        /* \"Contracts/OracleManager.sol\":8885:8888  pos */\n      dup5\n        /* \"Contracts/OracleManager.sol\":8885:8894  pos.owed0 */\n      0xa0\n      add\n      mload\n      sub(shl(0x80, 0x01), 0x01)\n        /* \"Contracts/OracleManager.sol\":8872:8894  amtActive0 + pos.owed0 */\n      and\n        /* \"Contracts/OracleManager.sol\":8872:8882  amtActive0 */\n      dup4\n        /* \"Contracts/OracleManager.sol\":8872:8894  amtActive0 + pos.owed0 */\n      tag_118\n      swap2\n      swap1\n      tag_119\n      jump\t// in\n    tag_118:\n        /* \"Contracts/OracleManager.sol\":8857:8894  uint256 amt0 = amtActive0 + pos.owed0 */\n      swap1\n      pop\n        /* \"Contracts/OracleManager.sol\":8904:8916  uint256 amt1 */\n      0x00\n        /* \"Contracts/OracleManager.sol\":8932:8935  pos */\n      dup6\n        /* \"Contracts/OracleManager.sol\":8932:8941  pos.owed1 */\n      0xc0\n      add\n      mload\n      sub(shl(0x80, 0x01), 0x01)\n        /* \"Contracts/OracleManager.sol\":8919:8941  amtActive1 + pos.owed1 */\n      and\n        /* \"Contracts/OracleManager.sol\":8919:8929  amtActive1 */\n      dup4\n        /* \"Contracts/OracleManager.sol\":8919:8941  amtActive1 + pos.owed1 */\n      tag_120\n      swap2\n      swap1\n      tag_119\n      jump\t// in\n    tag_120:\n        /* \"Contracts/OracleManager.sol\":8904:8941  uint256 amt1 = amtActive1 + pos.owed1 */\n      swap1\n      pop\n        /* \"Contracts/OracleManager.sol\":8985:9009  AggregatorPair memory ap */\n      0x00\n        /* \"Contracts/OracleManager.sol\":9012:9190  AggregatorPair({... */\n      mload(0x40)\n      dup1\n      0x80\n      add\n      0x40\n      mstore\n      dup1\n        /* \"Contracts/OracleManager.sol\":9047:9049  vf */\n      dup15\n        /* \"Contracts/OracleManager.sol\":9047:9066  vf.token0Aggregator */\n      0x00\n      add\n      mload\n      sub(shl(0xa0, 0x01), 0x01)\n        /* \"Contracts/OracleManager.sol\":9012:9190  AggregatorPair({... */\n      and\n      dup2\n      mstore\n      0x20\n      add\n        /* \"Contracts/OracleManager.sol\":9086:9088  vf */\n      dup15\n        /* \"Contracts/OracleManager.sol\":9086:9105  vf.token1Aggregator */\n      0x20\n      add\n      mload\n      sub(shl(0xa0, 0x01), 0x01)\n        /* \"Contracts/OracleManager.sol\":9012:9190  AggregatorPair({... */\n      and\n      dup2\n      mstore\n      0x20\n      add\n        /* \"Contracts/OracleManager.sol\":9125:9127  vf */\n      dup15\n        /* \"Contracts/OracleManager.sol\":9125:9142  vf.token0Decimals */\n      0x40\n      add\n      mload\n        /* \"Contracts/OracleManager.sol\":9012:9190  AggregatorPair({... */\n      0xff\n      and\n      dup2\n      mstore\n      0x20\n      add\n        /* \"Contracts/OracleManager.sol\":9162:9164  vf */\n      dup15\n        /* \"Contracts/OracleManager.sol\":9162:9179  vf.token1Decimals */\n      0x60\n      add\n      mload\n        /* \"Contracts/OracleManager.sol\":9012:9190  AggregatorPair({... */\n      0xff\n      and\n      dup2\n      mstore\n      pop\n        /* \"Contracts/OracleManager.sol\":8985:9190  AggregatorPair memory ap = AggregatorPair({... */\n      swap1\n      pop\n        /* \"Contracts/OracleManager.sol\":9240:9258  uint256 totalValue */\n      0x00\n        /* \"Contracts/OracleManager.sol\":9261:9303  _convertVaultTokensToValue(amt0, amt1, ap) */\n      tag_121\n        /* \"Contracts/OracleManager.sol\":9288:9292  amt0 */\n      dup5\n        /* \"Contracts/OracleManager.sol\":9294:9298  amt1 */\n      dup5\n        /* \"Contracts/OracleManager.sol\":9300:9302  ap */\n      dup5\n        /* \"Contracts/OracleManager.sol\":9261:9287  _convertVaultTokensToValue */\n      tag_122\n        /* \"Contracts/OracleManager.sol\":9261:9303  _convertVaultTokensToValue(amt0, amt1, ap) */\n      jump\t// in\n    tag_121:\n        /* \"Contracts/OracleManager.sol\":9240:9303  uint256 totalValue = _convertVaultTokensToValue(amt0, amt1, ap) */\n      swap1\n      pop\n        /* \"Contracts/OracleManager.sol\":9336:9352  totalShares == 0 */\n      dup11\n      iszero\n        /* \"Contracts/OracleManager.sol\":9336:9370  totalShares == 0 ? 1 : totalShares */\n      tag_123\n      jumpi\n        /* \"Contracts/OracleManager.sol\":9359:9370  totalShares */\n      dup11\n        /* \"Contracts/OracleManager.sol\":9336:9370  totalShares == 0 ? 1 : totalShares */\n      jump(tag_124)\n    tag_123:\n        /* \"Contracts/OracleManager.sol\":9355:9356  1 */\n      0x01\n        /* \"Contracts/OracleManager.sol\":9336:9370  totalShares == 0 ? 1 : totalShares */\n    tag_124:\n        /* \"Contracts/OracleManager.sol\":9322:9371  totalValue / (totalShares == 0 ? 1 : totalShares) */\n      tag_125\n      swap1\n        /* \"Contracts/OracleManager.sol\":9322:9332  totalValue */\n      dup3\n        /* \"Contracts/OracleManager.sol\":9322:9371  totalValue / (totalShares == 0 ? 1 : totalShares) */\n      tag_126\n      jump\t// in\n    tag_125:\n        /* \"Contracts/OracleManager.sol\":9314:9371  price = totalValue / (totalShares == 0 ? 1 : totalShares) */\n      swap16\n        /* \"Contracts/OracleManager.sol\":9392:9393  8 */\n      0x08\n      swap16\n      pop\n        /* \"Contracts/OracleManager.sol\":8059:9400  function _computeVaultTokenPrice(address vaultToken, VaultUnderlyingFeeds memory vf)... */\n      swap14\n      pop\n      pop\n      pop\n      pop\n      pop\n      pop\n      pop\n      pop\n      pop\n      pop\n      pop\n      pop\n      pop\n      pop\n      jump\t// out\n        /* \"https://github.com/OpenZeppelin/openzeppelin-contracts/blob/v4.8.3/contracts/access/Ownable.sol\":1359:1489  function _checkOwner() internal view virtual {... */\n    tag_61:\n        /* \"https://github.com/OpenZeppelin/openzeppelin-contracts/blob/v4.8.3/contracts/access/Ownable.sol\":1247:1254  address */\n      0x00\n        /* \"https://github.com/OpenZeppelin/openzeppelin-contracts/blob/v4.8.3/contracts/access/Ownable.sol\":1273:1279  _owner */\n      sload\n      sub(shl(0xa0, 0x01), 0x01)\n      and\n        /* \"https://github.com/OpenZeppelin/openzeppelin-contracts/blob/v4.8.3/contracts/utils/Context.sol\":719:729  msg.sender */\n      caller\n        /* \"https://github.com/OpenZeppelin/openzeppelin-contracts/blob/v4.8.3/contracts/access/Ownable.sol\":1422:1445  owner() == _msgSender() */\n      eq\n        /* \"https://github.com/OpenZeppelin/openzeppelin-contracts/blob/v4.8.3/contracts/access/Ownable.sol\":1414:1482  require(owner() == _msgSender(), \"Ownable: caller is not the owner\") */\n      tag_63\n      jumpi\n      mload(0x40)\n      shl(0xe5, 0x461bcd)\n      dup2\n      mstore\n        /* \"#utility.yul\":8706:8708   */\n      0x20\n        /* \"https://github.com/OpenZeppelin/openzeppelin-contracts/blob/v4.8.3/contracts/access/Ownable.sol\":1414:1482  require(owner() == _msgSender(), \"Ownable: caller is not the owner\") */\n      0x04\n      dup3\n      add\n        /* \"#utility.yul\":8688:8709   */\n      dup2\n      swap1\n      mstore\n        /* \"#utility.yul\":8725:8743   */\n      0x24\n      dup3\n      add\n        /* \"#utility.yul\":8718:8748   */\n      mstore\n        /* \"#utility.yul\":8784:8818   */\n      0x4f776e61626c653a2063616c6c6572206973206e6f7420746865206f776e6572\n        /* \"#utility.yul\":8764:8782   */\n      0x44\n      dup3\n      add\n        /* \"#utility.yul\":8757:8819   */\n      mstore\n        /* \"#utility.yul\":8836:8854   */\n      0x64\n      add\n        /* \"https://github.com/OpenZeppelin/openzeppelin-contracts/blob/v4.8.3/contracts/access/Ownable.sol\":1414:1482  require(owner() == _msgSender(), \"Ownable: caller is not the owner\") */\n      tag_48\n        /* \"#utility.yul\":8504:8860   */\n      jump\n        /* \"https://github.com/OpenZeppelin/openzeppelin-contracts/blob/v4.8.3/contracts/access/Ownable.sol\":2433:2620  function _transferOwnership(address newOwner) internal virtual {... */\n    tag_64:\n        /* \"https://github.com/OpenZeppelin/openzeppelin-contracts/blob/v4.8.3/contracts/access/Ownable.sol\":2506:2522  address oldOwner */\n      0x00\n        /* \"https://github.com/OpenZeppelin/openzeppelin-contracts/blob/v4.8.3/contracts/access/Ownable.sol\":2525:2531  _owner */\n      dup1\n      sload\n      sub(shl(0xa0, 0x01), 0x01)\n        /* \"https://github.com/OpenZeppelin/openzeppelin-contracts/blob/v4.8.3/contracts/access/Ownable.sol\":2541:2558  _owner = newOwner */\n      dup4\n      dup2\n      and\n      not(sub(shl(0xa0, 0x01), 0x01))\n      dup4\n      and\n      dup2\n      or\n      dup5\n      sstore\n        /* \"https://github.com/OpenZeppelin/openzeppelin-contracts/blob/v4.8.3/contracts/access/Ownable.sol\":2573:2613  OwnershipTransferred(oldOwner, newOwner) */\n      mload(0x40)\n        /* \"https://github.com/OpenZeppelin/openzeppelin-contracts/blob/v4.8.3/contracts/access/Ownable.sol\":2525:2531  _owner */\n      swap2\n      swap1\n      swap3\n      and\n      swap3\n      dup4\n      swap2\n        /* \"https://github.com/OpenZeppelin/openzeppelin-contracts/blob/v4.8.3/contracts/access/Ownable.sol\":2573:2613  OwnershipTransferred(oldOwner, newOwner) */\n      0x8be0079c531659141344cd1fd0a4f28419497f9722a3daafe3b4186f6b6457e0\n      swap2\n        /* \"https://github.com/OpenZeppelin/openzeppelin-contracts/blob/v4.8.3/contracts/access/Ownable.sol\":2506:2522  address oldOwner */\n      swap1\n        /* \"https://github.com/OpenZeppelin/openzeppelin-contracts/blob/v4.8.3/contracts/access/Ownable.sol\":2573:2613  OwnershipTransferred(oldOwner, newOwner) */\n      log3\n        /* \"https://github.com/OpenZeppelin/openzeppelin-contracts/blob/v4.8.3/contracts/access/Ownable.sol\":2496:2620  {... */\n      pop\n        /* \"https://github.com/OpenZeppelin/openzeppelin-contracts/blob/v4.8.3/contracts/access/Ownable.sol\":2433:2620  function _transferOwnership(address newOwner) internal virtual {... */\n      pop\n      jump\t// out\n        /* \"Contracts/OracleManager.sol\":12643:13833  function _tryGetChainlinkPrice(address aggregator, uint8 decimalsOvr)... */\n    tag_94:\n        /* \"Contracts/OracleManager.sol\":12760:12772  bool success */\n      0x00\n      dup1\n      dup1\n      sub(shl(0xa0, 0x01), 0x01)\n        /* \"Contracts/OracleManager.sol\":12823:12847  aggregator == address(0) */\n      dup6\n      and\n        /* \"Contracts/OracleManager.sol\":12819:12894  if (aggregator == address(0)) {... */\n      tag_136\n      jumpi\n      pop\n        /* \"Contracts/OracleManager.sol\":12871:12876  false */\n      0x00\n      swap2\n      pop\n      dup2\n      swap1\n      pop\n      dup1\n        /* \"Contracts/OracleManager.sol\":12863:12883  return (false, 0, 0) */\n      jump(tag_135)\n        /* \"Contracts/OracleManager.sol\":12819:12894  if (aggregator == address(0)) {... */\n    tag_136:\n        /* \"Contracts/OracleManager.sol\":12926:12996  abi.encodeWithSelector(AggregatorV3Interface.latestRoundData.selector) */\n      0x40\n      dup1\n      mload\n      0x04\n      dup2\n      mstore\n      0x24\n      dup2\n      add\n      dup3\n      mstore\n      0x20\n      dup2\n      add\n      dup1\n      mload\n      sub(shl(0xe0, 0x01), 0x01)\n      and\n      shl(0xe2, 0x3fabe5a3)\n      or\n      swap1\n      mstore\n        /* \"Contracts/OracleManager.sol\":13052:13082  aggregator.staticcall(payload) */\n      swap1\n      mload\n        /* \"Contracts/OracleManager.sol\":12903:12923  bytes memory payload */\n      0x00\n      swap1\n      dup2\n      swap1\n      sub(shl(0xa0, 0x01), 0x01)\n        /* \"Contracts/OracleManager.sol\":13052:13073  aggregator.staticcall */\n      dup10\n      and\n      swap1\n        /* \"Contracts/OracleManager.sol\":13052:13082  aggregator.staticcall(payload) */\n      tag_137\n      swap1\n        /* \"Contracts/OracleManager.sol\":12926:12996  abi.encodeWithSelector(AggregatorV3Interface.latestRoundData.selector) */\n      dup6\n      swap1\n        /* \"Contracts/OracleManager.sol\":13052:13082  aggregator.staticcall(payload) */\n      tag_138\n      jump\t// in\n    tag_137:\n      0x00\n      mload(0x40)\n      dup1\n      dup4\n      sub\n      dup2\n      dup6\n      gas\n      staticcall\n      swap2\n      pop\n      pop\n      returndatasize\n      dup1\n      0x00\n      dup2\n      eq\n      tag_141\n      jumpi\n      mload(0x40)\n      swap2\n      pop\n      and(add(returndatasize, 0x3f), not(0x1f))\n      dup3\n      add\n      0x40\n      mstore\n      returndatasize\n      dup3\n      mstore\n      returndatasize\n      0x00\n      0x20\n      dup5\n      add\n      returndatacopy\n      jump(tag_140)\n    tag_141:\n      0x60\n      swap2\n      pop\n    tag_140:\n      pop\n        /* \"Contracts/OracleManager.sol\":13006:13082  (bool callSuccess, bytes memory returnData) = aggregator.staticcall(payload) */\n      swap2\n      pop\n      swap2\n      pop\n        /* \"Contracts/OracleManager.sol\":13097:13108  callSuccess */\n      dup2\n        /* \"Contracts/OracleManager.sol\":13096:13108  !callSuccess */\n      iszero\n        /* \"Contracts/OracleManager.sol\":13096:13135  !callSuccess || returnData.length < 160 */\n      dup1\n      tag_142\n      jumpi\n      pop\n        /* \"Contracts/OracleManager.sol\":13132:13135  160 */\n      0xa0\n        /* \"Contracts/OracleManager.sol\":13112:13122  returnData */\n      dup2\n        /* \"Contracts/OracleManager.sol\":13112:13129  returnData.length */\n      mload\n        /* \"Contracts/OracleManager.sol\":13112:13135  returnData.length < 160 */\n      lt\n        /* \"Contracts/OracleManager.sol\":13096:13135  !callSuccess || returnData.length < 160 */\n    tag_142:\n        /* \"Contracts/OracleManager.sol\":13092:13182  if (!callSuccess || returnData.length < 160) {... */\n      iszero\n      tag_143\n      jumpi\n        /* \"Contracts/OracleManager.sol\":13159:13164  false */\n      0x00\n        /* \"Contracts/OracleManager.sol\":13166:13167  0 */\n      dup1\n        /* \"Contracts/OracleManager.sol\":13169:13170  0 */\n      0x00\n        /* \"Contracts/OracleManager.sol\":13151:13171  return (false, 0, 0) */\n      swap6\n      pop\n      swap6\n      pop\n      swap6\n      pop\n      pop\n      pop\n      pop\n      jump(tag_135)\n        /* \"Contracts/OracleManager.sol\":13092:13182  if (!callSuccess || returnData.length < 160) {... */\n    tag_143:\n        /* \"Contracts/OracleManager.sol\":13195:13208  int256 answer */\n      0x00\n        /* \"Contracts/OracleManager.sol\":13229:13239  returnData */\n      dup2\n        /* \"Contracts/OracleManager.sol\":13218:13284  abi.decode(returnData, (uint80, int256, uint256, uint256, uint80)) */\n      dup1\n      0x20\n      add\n      swap1\n      mload\n      dup2\n      add\n      swap1\n      tag_144\n      swap2\n      swap1\n      tag_145\n      jump\t// in\n    tag_144:\n        /* \"Contracts/OracleManager.sol\":13191:13284  ( , int256 answer, , , ) = abi.decode(returnData, (uint80, int256, uint256, uint256, uint80)) */\n      pop\n      pop\n      pop\n      swap2\n      pop\n      pop\n        /* \"Contracts/OracleManager.sol\":13308:13309  0 */\n      0x00\n        /* \"Contracts/OracleManager.sol\":13298:13304  answer */\n      dup2\n        /* \"Contracts/OracleManager.sol\":13298:13309  answer <= 0 */\n      sgt\n        /* \"Contracts/OracleManager.sol\":13294:13356  if (answer <= 0) {... */\n      tag_146\n      jumpi\n        /* \"Contracts/OracleManager.sol\":13333:13338  false */\n      0x00\n        /* \"Contracts/OracleManager.sol\":13340:13341  0 */\n      dup1\n        /* \"Contracts/OracleManager.sol\":13343:13344  0 */\n      0x00\n        /* \"Contracts/OracleManager.sol\":13325:13345  return (false, 0, 0) */\n      swap7\n      pop\n      swap7\n      pop\n      swap7\n      pop\n      pop\n      pop\n      pop\n      pop\n      jump(tag_135)\n        /* \"Contracts/OracleManager.sol\":13294:13356  if (answer <= 0) {... */\n    tag_146:\n        /* \"Contracts/OracleManager.sol\":13386:13397  decimalsOvr */\n      dup8\n        /* \"Contracts/OracleManager.sol\":13411:13427  aggDecimals == 0 */\n      0xff\n      dup2\n      and\n        /* \"Contracts/OracleManager.sol\":13366:13383  uint8 aggDecimals */\n      0x00\n        /* \"Contracts/OracleManager.sol\":13411:13427  aggDecimals == 0 */\n      sub\n        /* \"Contracts/OracleManager.sol\":13407:13774  if (aggDecimals == 0) {... */\n      tag_147\n      jumpi\n        /* \"Contracts/OracleManager.sol\":13524:13587  abi.encodeWithSelector(AggregatorV3Interface.decimals.selector) */\n      0x40\n      dup1\n      mload\n      0x04\n      dup2\n      mstore\n      0x24\n      dup2\n      add\n      dup3\n      mstore\n      0x20\n      dup2\n      add\n      dup1\n      mload\n      sub(shl(0xe0, 0x01), 0x01)\n      and\n      shl(0xe0, 0x313ce567)\n      or\n      swap1\n      mstore\n        /* \"Contracts/OracleManager.sol\":13485:13601  aggregator.staticcall(... */\n      swap1\n      mload\n        /* \"Contracts/OracleManager.sol\":13444:13459  bool decSuccess */\n      0x00\n      swap2\n      dup3\n      swap2\n      sub(shl(0xa0, 0x01), 0x01)\n        /* \"Contracts/OracleManager.sol\":13485:13506  aggregator.staticcall */\n      dup15\n      and\n      swap2\n        /* \"Contracts/OracleManager.sol\":13485:13601  aggregator.staticcall(... */\n      tag_148\n      swap2\n      tag_138\n      jump\t// in\n    tag_148:\n      0x00\n      mload(0x40)\n      dup1\n      dup4\n      sub\n      dup2\n      dup6\n      gas\n      staticcall\n      swap2\n      pop\n      pop\n      returndatasize\n      dup1\n      0x00\n      dup2\n      eq\n      tag_151\n      jumpi\n      mload(0x40)\n      swap2\n      pop\n      and(add(returndatasize, 0x3f), not(0x1f))\n      dup3\n      add\n      0x40\n      mstore\n      returndatasize\n      dup3\n      mstore\n      returndatasize\n      0x00\n      0x20\n      dup5\n      add\n      returndatacopy\n      jump(tag_150)\n    tag_151:\n      0x60\n      swap2\n      pop\n    tag_150:\n      pop\n        /* \"Contracts/OracleManager.sol\":13443:13601  (bool decSuccess, bytes memory decData) = aggregator.staticcall(... */\n      swap2\n      pop\n      swap2\n      pop\n        /* \"Contracts/OracleManager.sol\":13620:13630  decSuccess */\n      dup2\n        /* \"Contracts/OracleManager.sol\":13619:13630  !decSuccess */\n      iszero\n        /* \"Contracts/OracleManager.sol\":13619:13653  !decSuccess || decData.length < 32 */\n      dup1\n      tag_152\n      jumpi\n      pop\n        /* \"Contracts/OracleManager.sol\":13651:13653  32 */\n      0x20\n        /* \"Contracts/OracleManager.sol\":13634:13641  decData */\n      dup2\n        /* \"Contracts/OracleManager.sol\":13634:13648  decData.length */\n      mload\n        /* \"Contracts/OracleManager.sol\":13634:13653  decData.length < 32 */\n      lt\n        /* \"Contracts/OracleManager.sol\":13619:13653  !decSuccess || decData.length < 32 */\n    tag_152:\n        /* \"Contracts/OracleManager.sol\":13615:13708  if (!decSuccess || decData.length < 32) {... */\n      iszero\n      tag_153\n      jumpi\n        /* \"Contracts/OracleManager.sol\":13681:13686  false */\n      0x00\n        /* \"Contracts/OracleManager.sol\":13688:13689  0 */\n      dup1\n        /* \"Contracts/OracleManager.sol\":13691:13692  0 */\n      0x00\n        /* \"Contracts/OracleManager.sol\":13673:13693  return (false, 0, 0) */\n      swap10\n      pop\n      swap10\n      pop\n      swap10\n      pop\n      pop\n      pop\n      pop\n      pop\n      pop\n      pop\n      pop\n      jump(tag_135)\n        /* \"Contracts/OracleManager.sol\":13615:13708  if (!decSuccess || decData.length < 32) {... */\n    tag_153:\n        /* \"Contracts/OracleManager.sol\":13746:13753  decData */\n      dup1\n        /* \"Contracts/OracleManager.sol\":13735:13763  abi.decode(decData, (uint8)) */\n      dup1\n      0x20\n      add\n      swap1\n      mload\n      dup2\n      add\n      swap1\n      tag_154\n      swap2\n      swap1\n      tag_155\n      jump\t// in\n    tag_154:\n        /* \"Contracts/OracleManager.sol\":13721:13763  aggDecimals = abi.decode(decData, (uint8)) */\n      swap3\n      pop\n        /* \"Contracts/OracleManager.sol\":13429:13774  {... */\n      pop\n      pop\n        /* \"Contracts/OracleManager.sol\":13407:13774  if (aggDecimals == 0) {... */\n    tag_147:\n        /* \"Contracts/OracleManager.sol\":13791:13795  true */\n      0x01\n      swap8\n      pop\n        /* \"Contracts/OracleManager.sol\":13805:13811  answer */\n      swap1\n      swap6\n      pop\n        /* \"Contracts/OracleManager.sol\":13814:13825  aggDecimals */\n      swap4\n      pop\n      pop\n      pop\n      pop\n        /* \"Contracts/OracleManager.sol\":12643:13833  function _tryGetChainlinkPrice(address aggregator, uint8 decimalsOvr)... */\n    tag_135:\n      swap3\n      pop\n      swap3\n      pop\n      swap3\n      jump\t// out\n        /* \"Contracts/OracleManager.sol\":9406:9941  function _fetchVaultInfo(address vaultToken)... */\n    tag_107:\n        /* \"Contracts/OracleManager.sol\":9498:9517  uint256 totalShares */\n      0x00\n        /* \"Contracts/OracleManager.sol\":9519:9534  uint256 tokenId */\n      dup1\n        /* \"Contracts/OracleManager.sol\":9536:9550  address posMgr */\n      0x00\n        /* \"Contracts/OracleManager.sol\":9566:9579  IVaultToken v */\n      dup1\n        /* \"Contracts/OracleManager.sol\":9594:9604  vaultToken */\n      dup5\n        /* \"Contracts/OracleManager.sol\":9566:9605  IVaultToken v = IVaultToken(vaultToken) */\n      swap1\n      pop\n        /* \"Contracts/OracleManager.sol\":9629:9630  v */\n      dup1\n      sub(shl(0xa0, 0x01), 0x01)\n        /* \"Contracts/OracleManager.sol\":9629:9642  v.totalSupply */\n      and\n      0x18160ddd\n        /* \"Contracts/OracleManager.sol\":9629:9644  v.totalSupply() */\n      mload(0x40)\n      dup2\n      0xffffffff\n      and\n      0xe0\n      shl\n      dup2\n      mstore\n      0x04\n      add\n      0x20\n      mload(0x40)\n      dup1\n      dup4\n      sub\n      dup2\n      dup7\n      gas\n      staticcall\n      iszero\n      dup1\n      iszero\n      tag_158\n      jumpi\n      returndatasize\n      0x00\n      dup1\n      returndatacopy\n      revert(0x00, returndatasize)\n    tag_158:\n      pop\n      pop\n      pop\n      pop\n      mload(0x40)\n      returndatasize\n      not(0x1f)\n      0x1f\n      dup3\n      add\n      and\n      dup3\n      add\n      dup1\n      0x40\n      mstore\n      pop\n      dup2\n      add\n      swap1\n      tag_159\n      swap2\n      swap1\n      tag_160\n      jump\t// in\n    tag_159:\n        /* \"Contracts/OracleManager.sol\":9615:9644  totalShares = v.totalSupply() */\n      swap4\n      pop\n        /* \"Contracts/OracleManager.sol\":9676:9677  0 */\n      0x00\n        /* \"Contracts/OracleManager.sol\":9662:9673  totalShares */\n      dup5\n        /* \"Contracts/OracleManager.sol\":9662:9677  totalShares > 0 */\n      gt\n        /* \"Contracts/OracleManager.sol\":9654:9716  require(totalShares > 0, \"OracleManager: vault totalSupply=0\") */\n      tag_161\n      jumpi\n      mload(0x40)\n      shl(0xe5, 0x461bcd)\n      dup2\n      mstore\n        /* \"#utility.yul\":10861:10863   */\n      0x20\n        /* \"Contracts/OracleManager.sol\":9654:9716  require(totalShares > 0, \"OracleManager: vault totalSupply=0\") */\n      0x04\n      dup3\n      add\n        /* \"#utility.yul\":10843:10864   */\n      mstore\n        /* \"#utility.yul\":10900:10902   */\n      0x22\n        /* \"#utility.yul\":10880:10898   */\n      0x24\n      dup3\n      add\n        /* \"#utility.yul\":10873:10903   */\n      mstore\n        /* \"#utility.yul\":10939:10973   */\n      0x4f7261636c654d616e616765723a207661756c7420746f74616c537570706c79\n        /* \"#utility.yul\":10919:10937   */\n      0x44\n      dup3\n      add\n        /* \"#utility.yul\":10912:10974   */\n      mstore\n      shl(0xf4, 0x03d3)\n        /* \"#utility.yul\":10990:11008   */\n      0x64\n      dup3\n      add\n        /* \"#utility.yul\":10983:11015   */\n      mstore\n        /* \"#utility.yul\":11032:11051   */\n      0x84\n      add\n        /* \"Contracts/OracleManager.sol\":9654:9716  require(totalShares > 0, \"OracleManager: vault totalSupply=0\") */\n      tag_48\n        /* \"#utility.yul\":10659:11057   */\n      jump\n        /* \"Contracts/OracleManager.sol\":9654:9716  require(totalShares > 0, \"OracleManager: vault totalSupply=0\") */\n    tag_161:\n        /* \"Contracts/OracleManager.sol\":9737:9738  v */\n      dup1\n      sub(shl(0xa0, 0x01), 0x01)\n        /* \"Contracts/OracleManager.sol\":9737:9751  v.vaultTokenId */\n      and\n      0xf657a7fe\n        /* \"Contracts/OracleManager.sol\":9737:9753  v.vaultTokenId() */\n      mload(0x40)\n      dup2\n      0xffffffff\n      and\n      0xe0\n      shl\n      dup2\n      mstore\n      0x04\n      add\n      0x20\n      mload(0x40)\n      dup1\n      dup4\n      sub\n      dup2\n      dup7\n      gas\n      staticcall\n      iszero\n      dup1\n      iszero\n      tag_165\n      jumpi\n      returndatasize\n      0x00\n      dup1\n      returndatacopy\n      revert(0x00, returndatasize)\n    tag_165:\n      pop\n      pop\n      pop\n      pop\n      mload(0x40)\n      returndatasize\n      not(0x1f)\n      0x1f\n      dup3\n      add\n      and\n      dup3\n      add\n      dup1\n      0x40\n      mstore\n      pop\n      dup2\n      add\n      swap1\n      tag_166\n      swap2\n      swap1\n      tag_160\n      jump\t// in\n    tag_166:\n        /* \"Contracts/OracleManager.sol\":9727:9753  tokenId = v.vaultTokenId() */\n      swap3\n      pop\n        /* \"Contracts/OracleManager.sol\":9771:9778  tokenId */\n      dup3\n        /* \"Contracts/OracleManager.sol\":9782:9783  0 */\n      0x00\n        /* \"Contracts/OracleManager.sol\":9771:9783  tokenId != 0 */\n      sub\n        /* \"Contracts/OracleManager.sol\":9763:9818  require(tokenId != 0, \"OracleManager: no NFT in vault\") */\n      tag_167\n      jumpi\n      mload(0x40)\n      shl(0xe5, 0x461bcd)\n      dup2\n      mstore\n        /* \"#utility.yul\":11264:11266   */\n      0x20\n        /* \"Contracts/OracleManager.sol\":9763:9818  require(tokenId != 0, \"OracleManager: no NFT in vault\") */\n      0x04\n      dup3\n      add\n        /* \"#utility.yul\":11246:11267   */\n      mstore\n        /* \"#utility.yul\":11303:11305   */\n      0x1e\n        /* \"#utility.yul\":11283:11301   */\n      0x24\n      dup3\n      add\n        /* \"#utility.yul\":11276:11306   */\n      mstore\n        /* \"#utility.yul\":11342:11374   */\n      0x4f7261636c654d616e616765723a206e6f204e465420696e207661756c740000\n        /* \"#utility.yul\":11322:11340   */\n      0x44\n      dup3\n      add\n        /* \"#utility.yul\":11315:11375   */\n      mstore\n        /* \"#utility.yul\":11392:11410   */\n      0x64\n      add\n        /* \"Contracts/OracleManager.sol\":9763:9818  require(tokenId != 0, \"OracleManager: no NFT in vault\") */\n      tag_48\n        /* \"#utility.yul\":11062:11416   */\n      jump\n        /* \"Contracts/OracleManager.sol\":9763:9818  require(tokenId != 0, \"OracleManager: no NFT in vault\") */\n    tag_167:\n        /* \"Contracts/OracleManager.sol\":9838:9839  v */\n      dup1\n      sub(shl(0xa0, 0x01), 0x01)\n        /* \"Contracts/OracleManager.sol\":9838:9855  v.positionManager */\n      and\n      0x791b98bc\n        /* \"Contracts/OracleManager.sol\":9838:9857  v.positionManager() */\n      mload(0x40)\n      dup2\n      0xffffffff\n      and\n      0xe0\n      shl\n      dup2\n      mstore\n      0x04\n      add\n      0x20\n      mload(0x40)\n      dup1\n      dup4\n      sub\n      dup2\n      dup7\n      gas\n      staticcall\n      iszero\n      dup1\n      iszero\n      tag_171\n      jumpi\n      returndatasize\n      0x00\n      dup1\n      returndatacopy\n      revert(0x00, returndatasize)\n    tag_171:\n      pop\n      pop\n      pop\n      pop\n      mload(0x40)\n      returndatasize\n      not(0x1f)\n      0x1f\n      dup3\n      add\n      and\n      dup3\n      add\n      dup1\n      0x40\n      mstore\n      pop\n      dup2\n      add\n      swap1\n      tag_172\n      swap2\n      swap1\n      tag_114\n      jump\t// in\n    tag_172:\n        /* \"Contracts/OracleManager.sol\":9829:9857  posMgr = v.positionManager() */\n      swap2\n      pop\n      sub(shl(0xa0, 0x01), 0x01)\n        /* \"Contracts/OracleManager.sol\":9875:9895  posMgr != address(0) */\n      dup3\n      and\n        /* \"Contracts/OracleManager.sol\":9867:9934  require(posMgr != address(0), \"OracleManager: invalid positionMgr\") */\n      tag_173\n      jumpi\n      mload(0x40)\n      shl(0xe5, 0x461bcd)\n      dup2\n      mstore\n        /* \"#utility.yul\":11623:11625   */\n      0x20\n        /* \"Contracts/OracleManager.sol\":9867:9934  require(posMgr != address(0), \"OracleManager: invalid positionMgr\") */\n      0x04\n      dup3\n      add\n        /* \"#utility.yul\":11605:11626   */\n      mstore\n        /* \"#utility.yul\":11662:11664   */\n      0x22\n        /* \"#utility.yul\":11642:11660   */\n      0x24\n      dup3\n      add\n        /* \"#utility.yul\":11635:11665   */\n      mstore\n        /* \"#utility.yul\":11701:11735   */\n      0x4f7261636c654d616e616765723a20696e76616c696420706f736974696f6e4d\n        /* \"#utility.yul\":11681:11699   */\n      0x44\n      dup3\n      add\n        /* \"#utility.yul\":11674:11736   */\n      mstore\n      shl(0xf1, 0x33b9)\n        /* \"#utility.yul\":11752:11770   */\n      0x64\n      dup3\n      add\n        /* \"#utility.yul\":11745:11777   */\n      mstore\n        /* \"#utility.yul\":11794:11813   */\n      0x84\n      add\n        /* \"Contracts/OracleManager.sol\":9867:9934  require(posMgr != address(0), \"OracleManager: invalid positionMgr\") */\n      tag_48\n        /* \"#utility.yul\":11421:11819   */\n      jump\n        /* \"Contracts/OracleManager.sol\":9867:9934  require(posMgr != address(0), \"OracleManager: invalid positionMgr\") */\n    tag_173:\n        /* \"Contracts/OracleManager.sol\":9556:9941  {... */\n      pop\n        /* \"Contracts/OracleManager.sol\":9406:9941  function _fetchVaultInfo(address vaultToken)... */\n      swap2\n      swap4\n      swap1\n      swap3\n      pop\n      jump\t// out\n        /* \"Contracts/OracleManager.sol\":9947:10729  function _fetchPositionData(address posMgr, uint256 tokenId)... */\n    tag_109:\n      0x40\n      dup1\n      mload\n      0xe0\n      dup2\n      add\n      dup3\n      mstore\n      0x00\n      dup1\n      dup3\n      mstore\n      0x20\n      dup3\n      add\n      dup2\n      swap1\n      mstore\n      swap2\n      dup2\n      add\n      dup3\n      swap1\n      mstore\n      0x60\n      dup2\n      add\n      dup3\n      swap1\n      mstore\n      0x80\n      dup2\n      add\n      dup3\n      swap1\n      mstore\n      0xa0\n      dup2\n      add\n      dup3\n      swap1\n      mstore\n      0xc0\n      dup2\n      add\n      swap2\n      swap1\n      swap2\n      mstore\n        /* \"Contracts/OracleManager.sol\":10097:10109  bool success */\n      0x00\n        /* \"Contracts/OracleManager.sol\":10111:10128  bytes memory data */\n      dup1\n        /* \"Contracts/OracleManager.sol\":10132:10138  posMgr */\n      dup5\n      sub(shl(0xa0, 0x01), 0x01)\n        /* \"Contracts/OracleManager.sol\":10132:10149  posMgr.staticcall */\n      and\n        /* \"Contracts/OracleManager.sol\":10186:10232  INonfungiblePositionManager.positions.selector */\n      shl(0xe0, 0x99fbab88)\n        /* \"Contracts/OracleManager.sol\":10234:10241  tokenId */\n      dup6\n        /* \"Contracts/OracleManager.sol\":10163:10242  abi.encodeWithSelector(INonfungiblePositionManager.positions.selector, tokenId) */\n      add(0x24, mload(0x40))\n      tag_179\n      swap2\n        /* \"#utility.yul\":11970:11995   */\n      dup2\n      mstore\n        /* \"#utility.yul\":11958:11960   */\n      0x20\n        /* \"#utility.yul\":11943:11961   */\n      add\n      swap1\n        /* \"#utility.yul\":11824:12001   */\n      jump\n        /* \"Contracts/OracleManager.sol\":10163:10242  abi.encodeWithSelector(INonfungiblePositionManager.positions.selector, tokenId) */\n    tag_179:\n      0x40\n      dup1\n      mload\n      not(0x1f)\n      dup2\n      dup5\n      sub\n      add\n      dup2\n      mstore\n      swap2\n      dup2\n      mstore\n      0x20\n      dup3\n      add\n      dup1\n      mload\n      sub(shl(0xe0, 0x01), 0x01)\n      and\n      not(sub(shl(0xe0, 0x01), 0x01))\n      swap1\n      swap5\n      and\n      swap4\n      swap1\n      swap4\n      or\n      swap1\n      swap3\n      mstore\n        /* \"Contracts/OracleManager.sol\":10132:10252  posMgr.staticcall(... */\n      swap1\n      mload\n      tag_181\n      swap2\n        /* \"Contracts/OracleManager.sol\":10163:10242  abi.encodeWithSelector(INonfungiblePositionManager.positions.selector, tokenId) */\n      swap1\n        /* \"Contracts/OracleManager.sol\":10132:10252  posMgr.staticcall(... */\n      tag_138\n      jump\t// in\n    tag_181:\n      0x00\n      mload(0x40)\n      dup1\n      dup4\n      sub\n      dup2\n      dup6\n      gas\n      staticcall\n      swap2\n      pop\n      pop\n      returndatasize\n      dup1\n      0x00\n      dup2\n      eq\n      tag_184\n      jumpi\n      mload(0x40)\n      swap2\n      pop\n      and(add(returndatasize, 0x3f), not(0x1f))\n      dup3\n      add\n      0x40\n      mstore\n      returndatasize\n      dup3\n      mstore\n      returndatasize\n      0x00\n      0x20\n      dup5\n      add\n      returndatacopy\n      jump(tag_183)\n    tag_184:\n      0x60\n      swap2\n      pop\n    tag_183:\n      pop\n        /* \"Contracts/OracleManager.sol\":10096:10252  (bool success, bytes memory data) = posMgr.staticcall(... */\n      swap2\n      pop\n      swap2\n      pop\n        /* \"Contracts/OracleManager.sol\":10270:10277  success */\n      dup2\n        /* \"Contracts/OracleManager.sol\":10279:10298  _getRevertMsg(data) */\n      tag_185\n        /* \"Contracts/OracleManager.sol\":10293:10297  data */\n      dup3\n        /* \"Contracts/OracleManager.sol\":10279:10292  _getRevertMsg */\n      tag_186\n        /* \"Contracts/OracleManager.sol\":10279:10298  _getRevertMsg(data) */\n      jump\t// in\n    tag_185:\n        /* \"Contracts/OracleManager.sol\":10262:10299  require(success, _getRevertMsg(data)) */\n      swap1\n      tag_187\n      jumpi\n      mload(0x40)\n      shl(0xe5, 0x461bcd)\n      dup2\n      mstore\n      0x04\n      add\n      tag_48\n      swap2\n      swap1\n      tag_189\n      jump\t// in\n    tag_187:\n      pop\n        /* \"Contracts/OracleManager.sol\":10592:10596  data */\n      dup1\n        /* \"Contracts/OracleManager.sol\":10568:10722  abi.decode(... */\n      dup1\n      0x20\n      add\n      swap1\n      mload\n      dup2\n      add\n      swap1\n      tag_190\n      swap2\n      swap1\n      tag_191\n      jump\t// in\n    tag_190:\n        /* \"Contracts/OracleManager.sol\":10310:10722  (... */\n      swap1\n      swap2\n      swap3\n      swap4\n      swap5\n      swap6\n      swap7\n      swap8\n      swap9\n      swap10\n      swap11\n      pop\n      swap1\n      swap2\n      swap3\n      swap4\n      swap5\n      swap6\n      swap7\n      swap8\n      swap9\n      swap10\n      pop\n      swap1\n      swap2\n      swap3\n      swap4\n      swap5\n      swap6\n      swap7\n      pop\n      swap1\n      swap2\n      swap3\n      pop\n      swap1\n      swap2\n      pop\n        /* \"Contracts/OracleManager.sol\":10352:10355  pos */\n      dup10\n        /* \"Contracts/OracleManager.sol\":10352:10362  pos.token0 */\n      0x00\n      add\n        /* \"Contracts/OracleManager.sol\":10376:10379  pos */\n      dup11\n        /* \"Contracts/OracleManager.sol\":10376:10386  pos.token1 */\n      0x20\n      add\n        /* \"Contracts/OracleManager.sol\":10414:10417  pos */\n      dup12\n        /* \"Contracts/OracleManager.sol\":10414:10427  pos.tickLower */\n      0x40\n      add\n        /* \"Contracts/OracleManager.sol\":10441:10444  pos */\n      dup13\n        /* \"Contracts/OracleManager.sol\":10441:10454  pos.tickUpper */\n      0x60\n      add\n        /* \"Contracts/OracleManager.sol\":10468:10471  pos */\n      dup14\n        /* \"Contracts/OracleManager.sol\":10468:10481  pos.liquidity */\n      0x80\n      add\n        /* \"Contracts/OracleManager.sol\":10523:10526  pos */\n      dup15\n        /* \"Contracts/OracleManager.sol\":10523:10532  pos.owed0 */\n      0xa0\n      add\n        /* \"Contracts/OracleManager.sol\":10546:10549  pos */\n      dup16\n        /* \"Contracts/OracleManager.sol\":10546:10555  pos.owed1 */\n      0xc0\n      add\n        /* \"Contracts/OracleManager.sol\":10310:10722  (... */\n      dup8\n      sub(shl(0x80, 0x01), 0x01)\n      and\n      sub(shl(0x80, 0x01), 0x01)\n      and\n      dup2\n      mstore\n      pop\n      dup8\n      sub(shl(0x80, 0x01), 0x01)\n      and\n      sub(shl(0x80, 0x01), 0x01)\n      and\n      dup2\n      mstore\n      pop\n      dup8\n      sub(shl(0x80, 0x01), 0x01)\n      and\n      sub(shl(0x80, 0x01), 0x01)\n      and\n      dup2\n      mstore\n      pop\n      dup8\n      0x02\n      signextend\n      0x02\n      signextend\n      dup2\n      mstore\n      pop\n      dup8\n      0x02\n      signextend\n      0x02\n      signextend\n      dup2\n      mstore\n      pop\n      dup8\n      sub(shl(0xa0, 0x01), 0x01)\n      and\n      sub(shl(0xa0, 0x01), 0x01)\n      and\n      dup2\n      mstore\n      pop\n      dup8\n      sub(shl(0xa0, 0x01), 0x01)\n      and\n      sub(shl(0xa0, 0x01), 0x01)\n      and\n      dup2\n      mstore\n      pop\n      pop\n      pop\n      pop\n      pop\n      pop\n      pop\n      pop\n        /* \"Contracts/OracleManager.sol\":10086:10729  {... */\n      pop\n      pop\n        /* \"Contracts/OracleManager.sol\":9947:10729  function _fetchPositionData(address posMgr, uint256 tokenId)... */\n      swap3\n      swap2\n      pop\n      pop\n      jump\t// out\n        /* \"Contracts/OracleManager.sol\":11076:11562  function _getPoolSqrtAndTick(address poolAddr) internal view returns (uint160 sqrtPriceX96, int24 tick) {... */\n    tag_115:\n        /* \"Contracts/OracleManager.sol\":11146:11166  uint160 sqrtPriceX96 */\n      0x00\n      dup1\n      sub(shl(0xa0, 0x01), 0x01)\n        /* \"Contracts/OracleManager.sol\":11198:11220  poolAddr != address(0) */\n      dup4\n      and\n        /* \"Contracts/OracleManager.sol\":11190:11252  require(poolAddr != address(0), \"OracleManager: invalid pool\") */\n      tag_193\n      jumpi\n      mload(0x40)\n      shl(0xe5, 0x461bcd)\n      dup2\n      mstore\n        /* \"#utility.yul\":14639:14641   */\n      0x20\n        /* \"Contracts/OracleManager.sol\":11190:11252  require(poolAddr != address(0), \"OracleManager: invalid pool\") */\n      0x04\n      dup3\n      add\n        /* \"#utility.yul\":14621:14642   */\n      mstore\n        /* \"#utility.yul\":14678:14680   */\n      0x1b\n        /* \"#utility.yul\":14658:14676   */\n      0x24\n      dup3\n      add\n        /* \"#utility.yul\":14651:14681   */\n      mstore\n        /* \"#utility.yul\":14717:14746   */\n      0x4f7261636c654d616e616765723a20696e76616c696420706f6f6c0000000000\n        /* \"#utility.yul\":14697:14715   */\n      0x44\n      dup3\n      add\n        /* \"#utility.yul\":14690:14747   */\n      mstore\n        /* \"#utility.yul\":14764:14782   */\n      0x64\n      add\n        /* \"Contracts/OracleManager.sol\":11190:11252  require(poolAddr != address(0), \"OracleManager: invalid pool\") */\n      tag_48\n        /* \"#utility.yul\":14437:14788   */\n      jump\n        /* \"Contracts/OracleManager.sol\":11190:11252  require(poolAddr != address(0), \"OracleManager: invalid pool\") */\n    tag_193:\n        /* \"Contracts/OracleManager.sol\":11331:11384  abi.encodeWithSelector(IUniswapV3Pool.slot0.selector) */\n      0x40\n      dup1\n      mload\n      0x04\n      dup2\n      mstore\n      0x24\n      dup2\n      add\n      dup3\n      mstore\n      0x20\n      dup2\n      add\n      dup1\n      mload\n      sub(shl(0xe0, 0x01), 0x01)\n      and\n      shl(0xe0, 0x3850c7bd)\n      or\n      swap1\n      mstore\n        /* \"Contracts/OracleManager.sol\":11298:11394  poolAddr.staticcall(... */\n      swap1\n      mload\n        /* \"Contracts/OracleManager.sol\":11263:11275  bool success */\n      0x00\n      swap2\n      dup3\n      swap2\n      sub(shl(0xa0, 0x01), 0x01)\n        /* \"Contracts/OracleManager.sol\":11298:11317  poolAddr.staticcall */\n      dup8\n      and\n      swap2\n        /* \"Contracts/OracleManager.sol\":11298:11394  poolAddr.staticcall(... */\n      tag_196\n      swap2\n      tag_138\n      jump\t// in\n    tag_196:\n      0x00\n      mload(0x40)\n      dup1\n      dup4\n      sub\n      dup2\n      dup6\n      gas\n      staticcall\n      swap2\n      pop\n      pop\n      returndatasize\n      dup1\n      0x00\n      dup2\n      eq\n      tag_199\n      jumpi\n      mload(0x40)\n      swap2\n      pop\n      and(add(returndatasize, 0x3f), not(0x1f))\n      dup3\n      add\n      0x40\n      mstore\n      returndatasize\n      dup3\n      mstore\n      returndatasize\n      0x00\n      0x20\n      dup5\n      add\n      returndatacopy\n      jump(tag_198)\n    tag_199:\n      0x60\n      swap2\n      pop\n    tag_198:\n      pop\n        /* \"Contracts/OracleManager.sol\":11262:11394  (bool success, bytes memory data) = poolAddr.staticcall(... */\n      swap2\n      pop\n      swap2\n      pop\n        /* \"Contracts/OracleManager.sol\":11412:11419  success */\n      dup2\n        /* \"Contracts/OracleManager.sol\":11421:11440  _getRevertMsg(data) */\n      tag_200\n        /* \"Contracts/OracleManager.sol\":11435:11439  data */\n      dup3\n        /* \"Contracts/OracleManager.sol\":11421:11434  _getRevertMsg */\n      tag_186\n        /* \"Contracts/OracleManager.sol\":11421:11440  _getRevertMsg(data) */\n      jump\t// in\n    tag_200:\n        /* \"Contracts/OracleManager.sol\":11404:11441  require(success, _getRevertMsg(data)) */\n      swap1\n      tag_201\n      jumpi\n      mload(0x40)\n      shl(0xe5, 0x461bcd)\n      dup2\n      mstore\n      0x04\n      add\n      tag_48\n      swap2\n      swap1\n      tag_189\n      jump\t// in\n    tag_201:\n      pop\n        /* \"Contracts/OracleManager.sol\":11495:11499  data */\n      dup1\n        /* \"Contracts/OracleManager.sol\":11484:11555  abi.decode(data, (uint160, int24, uint16, uint16, uint16, uint8, bool)) */\n      dup1\n      0x20\n      add\n      swap1\n      mload\n      dup2\n      add\n      swap1\n      tag_203\n      swap2\n      swap1\n      tag_204\n      jump\t// in\n    tag_203:\n      pop\n        /* \"Contracts/OracleManager.sol\":11451:11555  (sqrtPriceX96, tick, , , , , ) = abi.decode(data, (uint160, int24, uint16, uint16, uint16, uint8, bool)) */\n      swap5\n      swap11\n      swap4\n      swap10\n      pop\n        /* \"Contracts/OracleManager.sol\":11076:11562  function _getPoolSqrtAndTick(address poolAddr) internal view returns (uint160 sqrtPriceX96, int24 tick) {... */\n      swap3\n      swap8\n      pop\n      pop\n      pop\n      pop\n      pop\n      pop\n      pop\n      pop\n      jump\t// out\n        /* \"Contracts/OracleManager.sol\":11568:12145  function _computeLiquidityAmounts(... */\n    tag_117:\n        /* \"Contracts/OracleManager.sol\":11738:11750  uint256 amt0 */\n      0x00\n        /* \"Contracts/OracleManager.sol\":11752:11764  uint256 amt1 */\n      dup1\n        /* \"Contracts/OracleManager.sol\":11780:11789  liquidity */\n      dup3\n      sub(shl(0x80, 0x01), 0x01)\n        /* \"Contracts/OracleManager.sol\":11780:11794  liquidity == 0 */\n      and\n        /* \"Contracts/OracleManager.sol\":11793:11794  0 */\n      0x00\n        /* \"Contracts/OracleManager.sol\":11780:11794  liquidity == 0 */\n      sub\n        /* \"Contracts/OracleManager.sol\":11776:11834  if (liquidity == 0) {... */\n      tag_206\n      jumpi\n      pop\n        /* \"Contracts/OracleManager.sol\":11818:11819  0 */\n      0x00\n      swap1\n      pop\n      dup1\n        /* \"Contracts/OracleManager.sol\":11810:11823  return (0, 0) */\n      jump(tag_205)\n        /* \"Contracts/OracleManager.sol\":11776:11834  if (liquidity == 0) {... */\n    tag_206:\n        /* \"Contracts/OracleManager.sol\":11843:11860  uint160 sqrtLower */\n      0x00\n        /* \"Contracts/OracleManager.sol\":11863:11901  TickMath.getSqrtRatioAtTick(tickLower) */\n      tag_207\n        /* \"Contracts/OracleManager.sol\":11891:11900  tickLower */\n      dup7\n        /* \"Contracts/OracleManager.sol\":11863:11890  TickMath.getSqrtRatioAtTick */\n      tag_208\n        /* \"Contracts/OracleManager.sol\":11863:11901  TickMath.getSqrtRatioAtTick(tickLower) */\n      jump\t// in\n    tag_207:\n        /* \"Contracts/OracleManager.sol\":11843:11901  uint160 sqrtLower = TickMath.getSqrtRatioAtTick(tickLower) */\n      swap1\n      pop\n        /* \"Contracts/OracleManager.sol\":11911:11928  uint160 sqrtUpper */\n      0x00\n        /* \"Contracts/OracleManager.sol\":11931:11969  TickMath.getSqrtRatioAtTick(tickUpper) */\n      tag_209\n        /* \"Contracts/OracleManager.sol\":11959:11968  tickUpper */\n      dup7\n        /* \"Contracts/OracleManager.sol\":11931:11958  TickMath.getSqrtRatioAtTick */\n      tag_208\n        /* \"Contracts/OracleManager.sol\":11931:11969  TickMath.getSqrtRatioAtTick(tickUpper) */\n      jump\t// in\n    tag_209:\n        /* \"Contracts/OracleManager.sol\":11911:11969  uint160 sqrtUpper = TickMath.getSqrtRatioAtTick(tickUpper) */\n      swap1\n      pop\n        /* \"Contracts/OracleManager.sol\":11994:12138  LiquidityAmounts.getAmountsForLiquidity(... */\n      tag_210\n        /* \"Contracts/OracleManager.sol\":12047:12059  sqrtPriceX96 */\n      dup9\n        /* \"Contracts/OracleManager.sol\":12073:12082  sqrtLower */\n      dup4\n        /* \"Contracts/OracleManager.sol\":12096:12105  sqrtUpper */\n      dup4\n        /* \"Contracts/OracleManager.sol\":12119:12128  liquidity */\n      dup9\n        /* \"Contracts/OracleManager.sol\":11994:12033  LiquidityAmounts.getAmountsForLiquidity */\n      tag_211\n        /* \"Contracts/OracleManager.sol\":11994:12138  LiquidityAmounts.getAmountsForLiquidity(... */\n      jump\t// in\n    tag_210:\n        /* \"Contracts/OracleManager.sol\":11979:12138  (amt0, amt1) = LiquidityAmounts.getAmountsForLiquidity(... */\n      swap1\n      swap5\n      pop\n      swap3\n      pop\n      pop\n      pop\n        /* \"Contracts/OracleManager.sol\":11568:12145  function _computeLiquidityAmounts(... */\n    tag_205:\n      swap5\n      pop\n      swap5\n      swap3\n      pop\n      pop\n      pop\n      jump\t// out\n        /* \"Contracts/OracleManager.sol\":10735:11070  function _convertVaultTokensToValue(... */\n    tag_122:\n        /* \"Contracts/OracleManager.sol\":10878:10885  uint256 */\n      0x00\n        /* \"Contracts/OracleManager.sol\":10897:10909  uint256 val0 */\n      dup1\n        /* \"Contracts/OracleManager.sol\":10912:10961  _convertToAggregatorValue(amt0, ap.agg0, ap.dec0) */\n      tag_213\n        /* \"Contracts/OracleManager.sol\":10938:10942  amt0 */\n      dup6\n        /* \"Contracts/OracleManager.sol\":10944:10946  ap */\n      dup5\n        /* \"Contracts/OracleManager.sol\":10944:10951  ap.agg0 */\n      0x00\n      add\n      mload\n        /* \"Contracts/OracleManager.sol\":10953:10955  ap */\n      dup6\n        /* \"Contracts/OracleManager.sol\":10953:10960  ap.dec0 */\n      0x40\n      add\n      mload\n        /* \"Contracts/OracleManager.sol\":10912:10937  _convertToAggregatorValue */\n      tag_214\n        /* \"Contracts/OracleManager.sol\":10912:10961  _convertToAggregatorValue(amt0, ap.agg0, ap.dec0) */\n      jump\t// in\n    tag_213:\n        /* \"Contracts/OracleManager.sol\":10897:10961  uint256 val0 = _convertToAggregatorValue(amt0, ap.agg0, ap.dec0) */\n      swap1\n      pop\n        /* \"Contracts/OracleManager.sol\":10971:10983  uint256 val1 */\n      0x00\n        /* \"Contracts/OracleManager.sol\":10986:11035  _convertToAggregatorValue(amt1, ap.agg1, ap.dec1) */\n      tag_215\n        /* \"Contracts/OracleManager.sol\":11012:11016  amt1 */\n      dup6\n        /* \"Contracts/OracleManager.sol\":11018:11020  ap */\n      dup6\n        /* \"Contracts/OracleManager.sol\":11018:11025  ap.agg1 */\n      0x20\n      add\n      mload\n        /* \"Contracts/OracleManager.sol\":11027:11029  ap */\n      dup7\n        /* \"Contracts/OracleManager.sol\":11027:11034  ap.dec1 */\n      0x60\n      add\n      mload\n        /* \"Contracts/OracleManager.sol\":10986:11011  _convertToAggregatorValue */\n      tag_214\n        /* \"Contracts/OracleManager.sol\":10986:11035  _convertToAggregatorValue(amt1, ap.agg1, ap.dec1) */\n      jump\t// in\n    tag_215:\n        /* \"Contracts/OracleManager.sol\":10971:11035  uint256 val1 = _convertToAggregatorValue(amt1, ap.agg1, ap.dec1) */\n      swap1\n      pop\n        /* \"Contracts/OracleManager.sol\":11052:11063  val0 + val1 */\n      tag_216\n        /* \"Contracts/OracleManager.sol\":10971:11035  uint256 val1 = _convertToAggregatorValue(amt1, ap.agg1, ap.dec1) */\n      dup2\n        /* \"Contracts/OracleManager.sol\":11052:11056  val0 */\n      dup4\n        /* \"Contracts/OracleManager.sol\":11052:11063  val0 + val1 */\n      tag_119\n      jump\t// in\n    tag_216:\n        /* \"Contracts/OracleManager.sol\":11045:11063  return val0 + val1 */\n      swap3\n      pop\n      pop\n      pop\n        /* \"Contracts/OracleManager.sol\":10735:11070  function _convertVaultTokensToValue(... */\n    tag_212:\n      swap4\n      swap3\n      pop\n      pop\n      pop\n      jump\t// out\n        /* \"Contracts/OracleManager.sol\":13839:14145  function _getRevertMsg(bytes memory _returnData) private pure returns (string memory) {... */\n    tag_186:\n        /* \"Contracts/OracleManager.sol\":13910:13923  string memory */\n      0x60\n        /* \"Contracts/OracleManager.sol\":13960:13962  68 */\n      0x44\n        /* \"Contracts/OracleManager.sol\":13939:13950  _returnData */\n      dup3\n        /* \"Contracts/OracleManager.sol\":13939:13957  _returnData.length */\n      mload\n        /* \"Contracts/OracleManager.sol\":13939:13962  _returnData.length < 68 */\n      lt\n        /* \"Contracts/OracleManager.sol\":13935:14009  if (_returnData.length < 68) return \"OracleManager: call reverted w/o msg\" */\n      iszero\n      tag_219\n      jumpi\n        /* \"Contracts/OracleManager.sol\":13964:14009  return \"OracleManager: call reverted w/o msg\" */\n      mload(0x40)\n      dup1\n      0x60\n      add\n      0x40\n      mstore\n      dup1\n      0x24\n      dup2\n      mstore\n      0x20\n      add\n      data_3e1e6533146503ddcd57727c5002d69321677d0539df318ad90f03963b3c334f\n      0x24\n      swap2\n      codecopy\n      swap3\n        /* \"Contracts/OracleManager.sol\":13839:14145  function _getRevertMsg(bytes memory _returnData) private pure returns (string memory) {... */\n      swap2\n      pop\n      pop\n      jump\t// out\n        /* \"Contracts/OracleManager.sol\":13935:14009  if (_returnData.length < 68) return \"OracleManager: call reverted w/o msg\" */\n    tag_219:\n        /* \"Contracts/OracleManager.sol\":14074:14078  0x04 */\n      0x04\n        /* \"Contracts/OracleManager.sol\":14061:14072  _returnData */\n      dup3\n        /* \"Contracts/OracleManager.sol\":14057:14079  add(_returnData, 0x04) */\n      add\n        /* \"Contracts/OracleManager.sol\":14042:14079  _returnData := add(_returnData, 0x04) */\n      swap2\n      pop\n        /* \"Contracts/OracleManager.sol\":14116:14127  _returnData */\n      dup2\n        /* \"Contracts/OracleManager.sol\":14105:14138  abi.decode(_returnData, (string)) */\n      dup1\n      0x20\n      add\n      swap1\n      mload\n      dup2\n      add\n      swap1\n      tag_220\n      swap2\n      swap1\n      tag_221\n      jump\t// in\n    tag_220:\n        /* \"Contracts/OracleManager.sol\":14098:14138  return abi.decode(_returnData, (string)) */\n      swap3\n        /* \"Contracts/OracleManager.sol\":13839:14145  function _getRevertMsg(bytes memory _returnData) private pure returns (string memory) {... */\n      swap2\n      pop\n      pop\n      jump\t// out\n        /* \"https://github.com/Uniswap/v3-core/blob/0.8/contracts/libraries/TickMath.sol\":1385:4144  function getSqrtRatioAtTick(int24 tick) internal pure returns (uint160 sqrtPriceX96) {... */\n    tag_208:\n        /* \"https://github.com/Uniswap/v3-core/blob/0.8/contracts/libraries/TickMath.sol\":1448:1468  uint160 sqrtPriceX96 */\n      0x00\n        /* \"https://github.com/Uniswap/v3-core/blob/0.8/contracts/libraries/TickMath.sol\":1504:1519  uint256 absTick */\n      dup1\n        /* \"https://github.com/Uniswap/v3-core/blob/0.8/contracts/libraries/TickMath.sol\":1529:1530  0 */\n      0x00\n        /* \"https://github.com/Uniswap/v3-core/blob/0.8/contracts/libraries/TickMath.sol\":1522:1526  tick */\n      dup4\n        /* \"https://github.com/Uniswap/v3-core/blob/0.8/contracts/libraries/TickMath.sol\":1522:1530  tick < 0 */\n      0x02\n      signextend\n      slt\n        /* \"https://github.com/Uniswap/v3-core/blob/0.8/contracts/libraries/TickMath.sol\":1522:1579  tick < 0 ? uint256(-int256(tick)) : uint256(int256(tick)) */\n      tag_223\n      jumpi\n        /* \"https://github.com/Uniswap/v3-core/blob/0.8/contracts/libraries/TickMath.sol\":1573:1577  tick */\n      dup3\n        /* \"https://github.com/Uniswap/v3-core/blob/0.8/contracts/libraries/TickMath.sol\":1566:1578  int256(tick) */\n      0x02\n      signextend\n        /* \"https://github.com/Uniswap/v3-core/blob/0.8/contracts/libraries/TickMath.sol\":1522:1579  tick < 0 ? uint256(-int256(tick)) : uint256(int256(tick)) */\n      jump(tag_224)\n    tag_223:\n        /* \"https://github.com/Uniswap/v3-core/blob/0.8/contracts/libraries/TickMath.sol\":1549:1553  tick */\n      dup3\n        /* \"https://github.com/Uniswap/v3-core/blob/0.8/contracts/libraries/TickMath.sol\":1542:1554  int256(tick) */\n      0x02\n      signextend\n        /* \"https://github.com/Uniswap/v3-core/blob/0.8/contracts/libraries/TickMath.sol\":1541:1554  -int256(tick) */\n      0x00\n      sub\n        /* \"https://github.com/Uniswap/v3-core/blob/0.8/contracts/libraries/TickMath.sol\":1522:1579  tick < 0 ? uint256(-int256(tick)) : uint256(int256(tick)) */\n    tag_224:\n        /* \"https://github.com/Uniswap/v3-core/blob/0.8/contracts/libraries/TickMath.sol\":1504:1579  uint256 absTick = tick < 0 ? uint256(-int256(tick)) : uint256(int256(tick)) */\n      swap1\n      pop\n        /* \"https://github.com/Uniswap/v3-core/blob/0.8/contracts/libraries/TickMath.sol\":667:676  -MIN_TICK */\n      0x0d89e8\n        /* \"https://github.com/Uniswap/v3-core/blob/0.8/contracts/libraries/TickMath.sol\":1597:1632  absTick > uint256(int256(MAX_TICK)) */\n      dup2\n      gt\n        /* \"https://github.com/Uniswap/v3-core/blob/0.8/contracts/libraries/TickMath.sol\":1593:1644  if (absTick > uint256(int256(MAX_TICK))) revert T() */\n      iszero\n      tag_225\n      jumpi\n        /* \"https://github.com/Uniswap/v3-core/blob/0.8/contracts/libraries/TickMath.sol\":1641:1644  T() */\n      mload(0x40)\n      shl(0xe1, 0x15e4079d)\n      dup2\n      mstore\n      0x04\n      add\n      mload(0x40)\n      dup1\n      swap2\n      sub\n      swap1\n      revert\n        /* \"https://github.com/Uniswap/v3-core/blob/0.8/contracts/libraries/TickMath.sol\":1593:1644  if (absTick > uint256(int256(MAX_TICK))) revert T() */\n    tag_225:\n        /* \"https://github.com/Uniswap/v3-core/blob/0.8/contracts/libraries/TickMath.sol\":1659:1672  uint256 ratio */\n      0x00\n        /* \"https://github.com/Uniswap/v3-core/blob/0.8/contracts/libraries/TickMath.sol\":1675:1682  absTick */\n      dup2\n        /* \"https://github.com/Uniswap/v3-core/blob/0.8/contracts/libraries/TickMath.sol\":1685:1688  0x1 */\n      0x01\n        /* \"https://github.com/Uniswap/v3-core/blob/0.8/contracts/libraries/TickMath.sol\":1675:1688  absTick & 0x1 */\n      and\n        /* \"https://github.com/Uniswap/v3-core/blob/0.8/contracts/libraries/TickMath.sol\":1692:1693  0 */\n      0x00\n        /* \"https://github.com/Uniswap/v3-core/blob/0.8/contracts/libraries/TickMath.sol\":1675:1693  absTick & 0x1 != 0 */\n      sub\n        /* \"https://github.com/Uniswap/v3-core/blob/0.8/contracts/libraries/TickMath.sol\":1675:1800  absTick & 0x1 != 0... */\n      tag_226\n      jumpi\n      shl(0x80, 0x01)\n      jump(tag_227)\n    tag_226:\n        /* \"https://github.com/Uniswap/v3-core/blob/0.8/contracts/libraries/TickMath.sol\":1712:1746  0xfffcb933bd6fad37aa2d162d1a594001 */\n      0xfffcb933bd6fad37aa2d162d1a594001\n        /* \"https://github.com/Uniswap/v3-core/blob/0.8/contracts/libraries/TickMath.sol\":1675:1800  absTick & 0x1 != 0... */\n    tag_227:\n        /* \"https://github.com/Uniswap/v3-core/blob/0.8/contracts/libraries/TickMath.sol\":1659:1800  uint256 ratio = absTick & 0x1 != 0... */\n      0xffffffffffffffffffffffffffffffffff\n      and\n      swap1\n      pop\n        /* \"https://github.com/Uniswap/v3-core/blob/0.8/contracts/libraries/TickMath.sol\":1828:1831  0x2 */\n      0x02\n        /* \"https://github.com/Uniswap/v3-core/blob/0.8/contracts/libraries/TickMath.sol\":1818:1831  absTick & 0x2 */\n      dup3\n      and\n        /* \"https://github.com/Uniswap/v3-core/blob/0.8/contracts/libraries/TickMath.sol\":1818:1836  absTick & 0x2 != 0 */\n      iszero\n        /* \"https://github.com/Uniswap/v3-core/blob/0.8/contracts/libraries/TickMath.sol\":1814:1897  if (absTick & 0x2 != 0) ratio = (ratio * 0xfff97272373d413259a46990580e213a) >> 128 */\n      tag_228\n      jumpi\n        /* \"https://github.com/Uniswap/v3-core/blob/0.8/contracts/libraries/TickMath.sol\":1855:1889  0xfff97272373d413259a46990580e213a */\n      0xfff97272373d413259a46990580e213a\n        /* \"https://github.com/Uniswap/v3-core/blob/0.8/contracts/libraries/TickMath.sol\":1847:1889  ratio * 0xfff97272373d413259a46990580e213a */\n      mul\n        /* \"https://github.com/Uniswap/v3-core/blob/0.8/contracts/libraries/TickMath.sol\":1894:1897  128 */\n      0x80\n        /* \"https://github.com/Uniswap/v3-core/blob/0.8/contracts/libraries/TickMath.sol\":1846:1897  (ratio * 0xfff97272373d413259a46990580e213a) >> 128 */\n      shr\n        /* \"https://github.com/Uniswap/v3-core/blob/0.8/contracts/libraries/TickMath.sol\":1814:1897  if (absTick & 0x2 != 0) ratio = (ratio * 0xfff97272373d413259a46990580e213a) >> 128 */\n    tag_228:\n        /* \"https://github.com/Uniswap/v3-core/blob/0.8/contracts/libraries/TickMath.sol\":1925:1928  0x4 */\n      0x04\n        /* \"https://github.com/Uniswap/v3-core/blob/0.8/contracts/libraries/TickMath.sol\":1915:1928  absTick & 0x4 */\n      dup3\n      and\n        /* \"https://github.com/Uniswap/v3-core/blob/0.8/contracts/libraries/TickMath.sol\":1915:1933  absTick & 0x4 != 0 */\n      iszero\n        /* \"https://github.com/Uniswap/v3-core/blob/0.8/contracts/libraries/TickMath.sol\":1911:1994  if (absTick & 0x4 != 0) ratio = (ratio * 0xfff2e50f5f656932ef12357cf3c7fdcc) >> 128 */\n      tag_229\n      jumpi\n        /* \"https://github.com/Uniswap/v3-core/blob/0.8/contracts/libraries/TickMath.sol\":1952:1986  0xfff2e50f5f656932ef12357cf3c7fdcc */\n      0xfff2e50f5f656932ef12357cf3c7fdcc\n        /* \"https://github.com/Uniswap/v3-core/blob/0.8/contracts/libraries/TickMath.sol\":1944:1986  ratio * 0xfff2e50f5f656932ef12357cf3c7fdcc */\n      mul\n        /* \"https://github.com/Uniswap/v3-core/blob/0.8/contracts/libraries/TickMath.sol\":1991:1994  128 */\n      0x80\n        /* \"https://github.com/Uniswap/v3-core/blob/0.8/contracts/libraries/TickMath.sol\":1943:1994  (ratio * 0xfff2e50f5f656932ef12357cf3c7fdcc) >> 128 */\n      shr\n        /* \"https://github.com/Uniswap/v3-core/blob/0.8/contracts/libraries/TickMath.sol\":1911:1994  if (absTick & 0x4 != 0) ratio = (ratio * 0xfff2e50f5f656932ef12357cf3c7fdcc) >> 128 */\n    tag_229:\n        /* \"https://github.com/Uniswap/v3-core/blob/0.8/contracts/libraries/TickMath.sol\":2022:2025  0x8 */\n      0x08\n        /* \"https://github.com/Uniswap/v3-core/blob/0.8/contracts/libraries/TickMath.sol\":2012:2025  absTick & 0x8 */\n      dup3\n      and\n        /* \"https://github.com/Uniswap/v3-core/blob/0.8/contracts/libraries/TickMath.sol\":2012:2030  absTick & 0x8 != 0 */\n      iszero\n        /* \"https://github.com/Uniswap/v3-core/blob/0.8/contracts/libraries/TickMath.sol\":2008:2091  if (absTick & 0x8 != 0) ratio = (ratio * 0xffe5caca7e10e4e61c3624eaa0941cd0) >> 128 */\n      tag_230\n      jumpi\n        /* \"https://github.com/Uniswap/v3-core/blob/0.8/contracts/libraries/TickMath.sol\":2049:2083  0xffe5caca7e10e4e61c3624eaa0941cd0 */\n      0xffe5caca7e10e4e61c3624eaa0941cd0\n        /* \"https://github.com/Uniswap/v3-core/blob/0.8/contracts/libraries/TickMath.sol\":2041:2083  ratio * 0xffe5caca7e10e4e61c3624eaa0941cd0 */\n      mul\n        /* \"https://github.com/Uniswap/v3-core/blob/0.8/contracts/libraries/TickMath.sol\":2088:2091  128 */\n      0x80\n        /* \"https://github.com/Uniswap/v3-core/blob/0.8/contracts/libraries/TickMath.sol\":2040:2091  (ratio * 0xffe5caca7e10e4e61c3624eaa0941cd0) >> 128 */\n      shr\n        /* \"https://github.com/Uniswap/v3-core/blob/0.8/contracts/libraries/TickMath.sol\":2008:2091  if (absTick & 0x8 != 0) ratio = (ratio * 0xffe5caca7e10e4e61c3624eaa0941cd0) >> 128 */\n    tag_230:\n        /* \"https://github.com/Uniswap/v3-core/blob/0.8/contracts/libraries/TickMath.sol\":2119:2123  0x10 */\n      0x10\n        /* \"https://github.com/Uniswap/v3-core/blob/0.8/contracts/libraries/TickMath.sol\":2109:2123  absTick & 0x10 */\n      dup3\n      and\n        /* \"https://github.com/Uniswap/v3-core/blob/0.8/contracts/libraries/TickMath.sol\":2109:2128  absTick & 0x10 != 0 */\n      iszero\n        /* \"https://github.com/Uniswap/v3-core/blob/0.8/contracts/libraries/TickMath.sol\":2105:2189  if (absTick & 0x10 != 0) ratio = (ratio * 0xffcb9843d60f6159c9db58835c926644) >> 128 */\n      tag_231\n      jumpi\n        /* \"https://github.com/Uniswap/v3-core/blob/0.8/contracts/libraries/TickMath.sol\":2147:2181  0xffcb9843d60f6159c9db58835c926644 */\n      0xffcb9843d60f6159c9db58835c926644\n        /* \"https://github.com/Uniswap/v3-core/blob/0.8/contracts/libraries/TickMath.sol\":2139:2181  ratio * 0xffcb9843d60f6159c9db58835c926644 */\n      mul\n        /* \"https://github.com/Uniswap/v3-core/blob/0.8/contracts/libraries/TickMath.sol\":2186:2189  128 */\n      0x80\n        /* \"https://github.com/Uniswap/v3-core/blob/0.8/contracts/libraries/TickMath.sol\":2138:2189  (ratio * 0xffcb9843d60f6159c9db58835c926644) >> 128 */\n      shr\n        /* \"https://github.com/Uniswap/v3-core/blob/0.8/contracts/libraries/TickMath.sol\":2105:2189  if (absTick & 0x10 != 0) ratio = (ratio * 0xffcb9843d60f6159c9db58835c926644) >> 128 */\n    tag_231:\n        /* \"https://github.com/Uniswap/v3-core/blob/0.8/contracts/libraries/TickMath.sol\":2217:2221  0x20 */\n      0x20\n        /* \"https://github.com/Uniswap/v3-core/blob/0.8/contracts/libraries/TickMath.sol\":2207:2221  absTick & 0x20 */\n      dup3\n      and\n        /* \"https://github.com/Uniswap/v3-core/blob/0.8/contracts/libraries/TickMath.sol\":2207:2226  absTick & 0x20 != 0 */\n      iszero\n        /* \"https://github.com/Uniswap/v3-core/blob/0.8/contracts/libraries/TickMath.sol\":2203:2287  if (absTick & 0x20 != 0) ratio = (ratio * 0xff973b41fa98c081472e6896dfb254c0) >> 128 */\n      tag_232\n      jumpi\n        /* \"https://github.com/Uniswap/v3-core/blob/0.8/contracts/libraries/TickMath.sol\":2245:2279  0xff973b41fa98c081472e6896dfb254c0 */\n      0xff973b41fa98c081472e6896dfb254c0\n        /* \"https://github.com/Uniswap/v3-core/blob/0.8/contracts/libraries/TickMath.sol\":2237:2279  ratio * 0xff973b41fa98c081472e6896dfb254c0 */\n      mul\n        /* \"https://github.com/Uniswap/v3-core/blob/0.8/contracts/libraries/TickMath.sol\":2284:2287  128 */\n      0x80\n        /* \"https://github.com/Uniswap/v3-core/blob/0.8/contracts/libraries/TickMath.sol\":2236:2287  (ratio * 0xff973b41fa98c081472e6896dfb254c0) >> 128 */\n      shr\n        /* \"https://github.com/Uniswap/v3-core/blob/0.8/contracts/libraries/TickMath.sol\":2203:2287  if (absTick & 0x20 != 0) ratio = (ratio * 0xff973b41fa98c081472e6896dfb254c0) >> 128 */\n    tag_232:\n        /* \"https://github.com/Uniswap/v3-core/blob/0.8/contracts/libraries/TickMath.sol\":2315:2319  0x40 */\n      0x40\n        /* \"https://github.com/Uniswap/v3-core/blob/0.8/contracts/libraries/TickMath.sol\":2305:2319  absTick & 0x40 */\n      dup3\n      and\n        /* \"https://github.com/Uniswap/v3-core/blob/0.8/contracts/libraries/TickMath.sol\":2305:2324  absTick & 0x40 != 0 */\n      iszero\n        /* \"https://github.com/Uniswap/v3-core/blob/0.8/contracts/libraries/TickMath.sol\":2301:2385  if (absTick & 0x40 != 0) ratio = (ratio * 0xff2ea16466c96a3843ec78b326b52861) >> 128 */\n      tag_233\n      jumpi\n        /* \"https://github.com/Uniswap/v3-core/blob/0.8/contracts/libraries/TickMath.sol\":2343:2377  0xff2ea16466c96a3843ec78b326b52861 */\n      0xff2ea16466c96a3843ec78b326b52861\n        /* \"https://github.com/Uniswap/v3-core/blob/0.8/contracts/libraries/TickMath.sol\":2335:2377  ratio * 0xff2ea16466c96a3843ec78b326b52861 */\n      mul\n        /* \"https://github.com/Uniswap/v3-core/blob/0.8/contracts/libraries/TickMath.sol\":2382:2385  128 */\n      0x80\n        /* \"https://github.com/Uniswap/v3-core/blob/0.8/contracts/libraries/TickMath.sol\":2334:2385  (ratio * 0xff2ea16466c96a3843ec78b326b52861) >> 128 */\n      shr\n        /* \"https://github.com/Uniswap/v3-core/blob/0.8/contracts/libraries/TickMath.sol\":2301:2385  if (absTick & 0x40 != 0) ratio = (ratio * 0xff2ea16466c96a3843ec78b326b52861) >> 128 */\n    tag_233:\n        /* \"https://github.com/Uniswap/v3-core/blob/0.8/contracts/libraries/TickMath.sol\":2413:2417  0x80 */\n      0x80\n        /* \"https://github.com/Uniswap/v3-core/blob/0.8/contracts/libraries/TickMath.sol\":2403:2417  absTick & 0x80 */\n      dup3\n      and\n        /* \"https://github.com/Uniswap/v3-core/blob/0.8/contracts/libraries/TickMath.sol\":2403:2422  absTick & 0x80 != 0 */\n      iszero\n        /* \"https://github.com/Uniswap/v3-core/blob/0.8/contracts/libraries/TickMath.sol\":2399:2483  if (absTick & 0x80 != 0) ratio = (ratio * 0xfe5dee046a99a2a811c461f1969c3053) >> 128 */\n      tag_234\n      jumpi\n        /* \"https://github.com/Uniswap/v3-core/blob/0.8/contracts/libraries/TickMath.sol\":2441:2475  0xfe5dee046a99a2a811c461f1969c3053 */\n      0xfe5dee046a99a2a811c461f1969c3053\n        /* \"https://github.com/Uniswap/v3-core/blob/0.8/contracts/libraries/TickMath.sol\":2433:2475  ratio * 0xfe5dee046a99a2a811c461f1969c3053 */\n      mul\n        /* \"https://github.com/Uniswap/v3-core/blob/0.8/contracts/libraries/TickMath.sol\":2480:2483  128 */\n      0x80\n        /* \"https://github.com/Uniswap/v3-core/blob/0.8/contracts/libraries/TickMath.sol\":2432:2483  (ratio * 0xfe5dee046a99a2a811c461f1969c3053) >> 128 */\n      shr\n        /* \"https://github.com/Uniswap/v3-core/blob/0.8/contracts/libraries/TickMath.sol\":2399:2483  if (absTick & 0x80 != 0) ratio = (ratio * 0xfe5dee046a99a2a811c461f1969c3053) >> 128 */\n    tag_234:\n        /* \"https://github.com/Uniswap/v3-core/blob/0.8/contracts/libraries/TickMath.sol\":2511:2516  0x100 */\n      0x0100\n        /* \"https://github.com/Uniswap/v3-core/blob/0.8/contracts/libraries/TickMath.sol\":2501:2516  absTick & 0x100 */\n      dup3\n      and\n        /* \"https://github.com/Uniswap/v3-core/blob/0.8/contracts/libraries/TickMath.sol\":2501:2521  absTick & 0x100 != 0 */\n      iszero\n        /* \"https://github.com/Uniswap/v3-core/blob/0.8/contracts/libraries/TickMath.sol\":2497:2582  if (absTick & 0x100 != 0) ratio = (ratio * 0xfcbe86c7900a88aedcffc83b479aa3a4) >> 128 */\n      tag_235\n      jumpi\n        /* \"https://github.com/Uniswap/v3-core/blob/0.8/contracts/libraries/TickMath.sol\":2540:2574  0xfcbe86c7900a88aedcffc83b479aa3a4 */\n      0xfcbe86c7900a88aedcffc83b479aa3a4\n        /* \"https://github.com/Uniswap/v3-core/blob/0.8/contracts/libraries/TickMath.sol\":2532:2574  ratio * 0xfcbe86c7900a88aedcffc83b479aa3a4 */\n      mul\n        /* \"https://github.com/Uniswap/v3-core/blob/0.8/contracts/libraries/TickMath.sol\":2579:2582  128 */\n      0x80\n        /* \"https://github.com/Uniswap/v3-core/blob/0.8/contracts/libraries/TickMath.sol\":2531:2582  (ratio * 0xfcbe86c7900a88aedcffc83b479aa3a4) >> 128 */\n      shr\n        /* \"https://github.com/Uniswap/v3-core/blob/0.8/contracts/libraries/TickMath.sol\":2497:2582  if (absTick & 0x100 != 0) ratio = (ratio * 0xfcbe86c7900a88aedcffc83b479aa3a4) >> 128 */\n    tag_235:\n        /* \"https://github.com/Uniswap/v3-core/blob/0.8/contracts/libraries/TickMath.sol\":2610:2615  0x200 */\n      0x0200\n        /* \"https://github.com/Uniswap/v3-core/blob/0.8/contracts/libraries/TickMath.sol\":2600:2615  absTick & 0x200 */\n      dup3\n      and\n        /* \"https://github.com/Uniswap/v3-core/blob/0.8/contracts/libraries/TickMath.sol\":2600:2620  absTick & 0x200 != 0 */\n      iszero\n        /* \"https://github.com/Uniswap/v3-core/blob/0.8/contracts/libraries/TickMath.sol\":2596:2681  if (absTick & 0x200 != 0) ratio = (ratio * 0xf987a7253ac413176f2b074cf7815e54) >> 128 */\n      tag_236\n      jumpi\n        /* \"https://github.com/Uniswap/v3-core/blob/0.8/contracts/libraries/TickMath.sol\":2639:2673  0xf987a7253ac413176f2b074cf7815e54 */\n      0xf987a7253ac413176f2b074cf7815e54\n        /* \"https://github.com/Uniswap/v3-core/blob/0.8/contracts/libraries/TickMath.sol\":2631:2673  ratio * 0xf987a7253ac413176f2b074cf7815e54 */\n      mul\n        /* \"https://github.com/Uniswap/v3-core/blob/0.8/contracts/libraries/TickMath.sol\":2678:2681  128 */\n      0x80\n        /* \"https://github.com/Uniswap/v3-core/blob/0.8/contracts/libraries/TickMath.sol\":2630:2681  (ratio * 0xf987a7253ac413176f2b074cf7815e54) >> 128 */\n      shr\n        /* \"https://github.com/Uniswap/v3-core/blob/0.8/contracts/libraries/TickMath.sol\":2596:2681  if (absTick & 0x200 != 0) ratio = (ratio * 0xf987a7253ac413176f2b074cf7815e54) >> 128 */\n    tag_236:\n        /* \"https://github.com/Uniswap/v3-core/blob/0.8/contracts/libraries/TickMath.sol\":2709:2714  0x400 */\n      0x0400\n        /* \"https://github.com/Uniswap/v3-core/blob/0.8/contracts/libraries/TickMath.sol\":2699:2714  absTick & 0x400 */\n      dup3\n      and\n        /* \"https://github.com/Uniswap/v3-core/blob/0.8/contracts/libraries/TickMath.sol\":2699:2719  absTick & 0x400 != 0 */\n      iszero\n        /* \"https://github.com/Uniswap/v3-core/blob/0.8/contracts/libraries/TickMath.sol\":2695:2780  if (absTick & 0x400 != 0) ratio = (ratio * 0xf3392b0822b70005940c7a398e4b70f3) >> 128 */\n      tag_237\n      jumpi\n        /* \"https://github.com/Uniswap/v3-core/blob/0.8/contracts/libraries/TickMath.sol\":2738:2772  0xf3392b0822b70005940c7a398e4b70f3 */\n      0xf3392b0822b70005940c7a398e4b70f3\n        /* \"https://github.com/Uniswap/v3-core/blob/0.8/contracts/libraries/TickMath.sol\":2730:2772  ratio * 0xf3392b0822b70005940c7a398e4b70f3 */\n      mul\n        /* \"https://github.com/Uniswap/v3-core/blob/0.8/contracts/libraries/TickMath.sol\":2777:2780  128 */\n      0x80\n        /* \"https://github.com/Uniswap/v3-core/blob/0.8/contracts/libraries/TickMath.sol\":2729:2780  (ratio * 0xf3392b0822b70005940c7a398e4b70f3) >> 128 */\n      shr\n        /* \"https://github.com/Uniswap/v3-core/blob/0.8/contracts/libraries/TickMath.sol\":2695:2780  if (absTick & 0x400 != 0) ratio = (ratio * 0xf3392b0822b70005940c7a398e4b70f3) >> 128 */\n    tag_237:\n        /* \"https://github.com/Uniswap/v3-core/blob/0.8/contracts/libraries/TickMath.sol\":2808:2813  0x800 */\n      0x0800\n        /* \"https://github.com/Uniswap/v3-core/blob/0.8/contracts/libraries/TickMath.sol\":2798:2813  absTick & 0x800 */\n      dup3\n      and\n        /* \"https://github.com/Uniswap/v3-core/blob/0.8/contracts/libraries/TickMath.sol\":2798:2818  absTick & 0x800 != 0 */\n      iszero\n        /* \"https://github.com/Uniswap/v3-core/blob/0.8/contracts/libraries/TickMath.sol\":2794:2879  if (absTick & 0x800 != 0) ratio = (ratio * 0xe7159475a2c29b7443b29c7fa6e889d9) >> 128 */\n      tag_238\n      jumpi\n        /* \"https://github.com/Uniswap/v3-core/blob/0.8/contracts/libraries/TickMath.sol\":2837:2871  0xe7159475a2c29b7443b29c7fa6e889d9 */\n      0xe7159475a2c29b7443b29c7fa6e889d9\n        /* \"https://github.com/Uniswap/v3-core/blob/0.8/contracts/libraries/TickMath.sol\":2829:2871  ratio * 0xe7159475a2c29b7443b29c7fa6e889d9 */\n      mul\n        /* \"https://github.com/Uniswap/v3-core/blob/0.8/contracts/libraries/TickMath.sol\":2876:2879  128 */\n      0x80\n        /* \"https://github.com/Uniswap/v3-core/blob/0.8/contracts/libraries/TickMath.sol\":2828:2879  (ratio * 0xe7159475a2c29b7443b29c7fa6e889d9) >> 128 */\n      shr\n        /* \"https://github.com/Uniswap/v3-core/blob/0.8/contracts/libraries/TickMath.sol\":2794:2879  if (absTick & 0x800 != 0) ratio = (ratio * 0xe7159475a2c29b7443b29c7fa6e889d9) >> 128 */\n    tag_238:\n        /* \"https://github.com/Uniswap/v3-core/blob/0.8/contracts/libraries/TickMath.sol\":2907:2913  0x1000 */\n      0x1000\n        /* \"https://github.com/Uniswap/v3-core/blob/0.8/contracts/libraries/TickMath.sol\":2897:2913  absTick & 0x1000 */\n      dup3\n      and\n        /* \"https://github.com/Uniswap/v3-core/blob/0.8/contracts/libraries/TickMath.sol\":2897:2918  absTick & 0x1000 != 0 */\n      iszero\n        /* \"https://github.com/Uniswap/v3-core/blob/0.8/contracts/libraries/TickMath.sol\":2893:2979  if (absTick & 0x1000 != 0) ratio = (ratio * 0xd097f3bdfd2022b8845ad8f792aa5825) >> 128 */\n      tag_239\n      jumpi\n        /* \"https://github.com/Uniswap/v3-core/blob/0.8/contracts/libraries/TickMath.sol\":2937:2971  0xd097f3bdfd2022b8845ad8f792aa5825 */\n      0xd097f3bdfd2022b8845ad8f792aa5825\n        /* \"https://github.com/Uniswap/v3-core/blob/0.8/contracts/libraries/TickMath.sol\":2929:2971  ratio * 0xd097f3bdfd2022b8845ad8f792aa5825 */\n      mul\n        /* \"https://github.com/Uniswap/v3-core/blob/0.8/contracts/libraries/TickMath.sol\":2976:2979  128 */\n      0x80\n        /* \"https://github.com/Uniswap/v3-core/blob/0.8/contracts/libraries/TickMath.sol\":2928:2979  (ratio * 0xd097f3bdfd2022b8845ad8f792aa5825) >> 128 */\n      shr\n        /* \"https://github.com/Uniswap/v3-core/blob/0.8/contracts/libraries/TickMath.sol\":2893:2979  if (absTick & 0x1000 != 0) ratio = (ratio * 0xd097f3bdfd2022b8845ad8f792aa5825) >> 128 */\n    tag_239:\n        /* \"https://github.com/Uniswap/v3-core/blob/0.8/contracts/libraries/TickMath.sol\":3007:3013  0x2000 */\n      0x2000\n        /* \"https://github.com/Uniswap/v3-core/blob/0.8/contracts/libraries/TickMath.sol\":2997:3013  absTick & 0x2000 */\n      dup3\n      and\n        /* \"https://github.com/Uniswap/v3-core/blob/0.8/contracts/libraries/TickMath.sol\":2997:3018  absTick & 0x2000 != 0 */\n      iszero\n        /* \"https://github.com/Uniswap/v3-core/blob/0.8/contracts/libraries/TickMath.sol\":2993:3079  if (absTick & 0x2000 != 0) ratio = (ratio * 0xa9f746462d870fdf8a65dc1f90e061e5) >> 128 */\n      tag_240\n      jumpi\n        /* \"https://github.com/Uniswap/v3-core/blob/0.8/contracts/libraries/TickMath.sol\":3037:3071  0xa9f746462d870fdf8a65dc1f90e061e5 */\n      0xa9f746462d870fdf8a65dc1f90e061e5\n        /* \"https://github.com/Uniswap/v3-core/blob/0.8/contracts/libraries/TickMath.sol\":3029:3071  ratio * 0xa9f746462d870fdf8a65dc1f90e061e5 */\n      mul\n        /* \"https://github.com/Uniswap/v3-core/blob/0.8/contracts/libraries/TickMath.sol\":3076:3079  128 */\n      0x80\n        /* \"https://github.com/Uniswap/v3-core/blob/0.8/contracts/libraries/TickMath.sol\":3028:3079  (ratio * 0xa9f746462d870fdf8a65dc1f90e061e5) >> 128 */\n      shr\n        /* \"https://github.com/Uniswap/v3-core/blob/0.8/contracts/libraries/TickMath.sol\":2993:3079  if (absTick & 0x2000 != 0) ratio = (ratio * 0xa9f746462d870fdf8a65dc1f90e061e5) >> 128 */\n    tag_240:\n        /* \"https://github.com/Uniswap/v3-core/blob/0.8/contracts/libraries/TickMath.sol\":3107:3113  0x4000 */\n      0x4000\n        /* \"https://github.com/Uniswap/v3-core/blob/0.8/contracts/libraries/TickMath.sol\":3097:3113  absTick & 0x4000 */\n      dup3\n      and\n        /* \"https://github.com/Uniswap/v3-core/blob/0.8/contracts/libraries/TickMath.sol\":3097:3118  absTick & 0x4000 != 0 */\n      iszero\n        /* \"https://github.com/Uniswap/v3-core/blob/0.8/contracts/libraries/TickMath.sol\":3093:3179  if (absTick & 0x4000 != 0) ratio = (ratio * 0x70d869a156d2a1b890bb3df62baf32f7) >> 128 */\n      tag_241\n      jumpi\n        /* \"https://github.com/Uniswap/v3-core/blob/0.8/contracts/libraries/TickMath.sol\":3137:3171  0x70d869a156d2a1b890bb3df62baf32f7 */\n      0x70d869a156d2a1b890bb3df62baf32f7\n        /* \"https://github.com/Uniswap/v3-core/blob/0.8/contracts/libraries/TickMath.sol\":3129:3171  ratio * 0x70d869a156d2a1b890bb3df62baf32f7 */\n      mul\n        /* \"https://github.com/Uniswap/v3-core/blob/0.8/contracts/libraries/TickMath.sol\":3176:3179  128 */\n      0x80\n        /* \"https://github.com/Uniswap/v3-core/blob/0.8/contracts/libraries/TickMath.sol\":3128:3179  (ratio * 0x70d869a156d2a1b890bb3df62baf32f7) >> 128 */\n      shr\n        /* \"https://github.com/Uniswap/v3-core/blob/0.8/contracts/libraries/TickMath.sol\":3093:3179  if (absTick & 0x4000 != 0) ratio = (ratio * 0x70d869a156d2a1b890bb3df62baf32f7) >> 128 */\n    tag_241:\n        /* \"https://github.com/Uniswap/v3-core/blob/0.8/contracts/libraries/TickMath.sol\":3207:3213  0x8000 */\n      0x8000\n        /* \"https://github.com/Uniswap/v3-core/blob/0.8/contracts/libraries/TickMath.sol\":3197:3213  absTick & 0x8000 */\n      dup3\n      and\n        /* \"https://github.com/Uniswap/v3-core/blob/0.8/contracts/libraries/TickMath.sol\":3197:3218  absTick & 0x8000 != 0 */\n      iszero\n        /* \"https://github.com/Uniswap/v3-core/blob/0.8/contracts/libraries/TickMath.sol\":3193:3279  if (absTick & 0x8000 != 0) ratio = (ratio * 0x31be135f97d08fd981231505542fcfa6) >> 128 */\n      tag_242\n      jumpi\n        /* \"https://github.com/Uniswap/v3-core/blob/0.8/contracts/libraries/TickMath.sol\":3237:3271  0x31be135f97d08fd981231505542fcfa6 */\n      0x31be135f97d08fd981231505542fcfa6\n        /* \"https://github.com/Uniswap/v3-core/blob/0.8/contracts/libraries/TickMath.sol\":3229:3271  ratio * 0x31be135f97d08fd981231505542fcfa6 */\n      mul\n        /* \"https://github.com/Uniswap/v3-core/blob/0.8/contracts/libraries/TickMath.sol\":3276:3279  128 */\n      0x80\n        /* \"https://github.com/Uniswap/v3-core/blob/0.8/contracts/libraries/TickMath.sol\":3228:3279  (ratio * 0x31be135f97d08fd981231505542fcfa6) >> 128 */\n      shr\n        /* \"https://github.com/Uniswap/v3-core/blob/0.8/contracts/libraries/TickMath.sol\":3193:3279  if (absTick & 0x8000 != 0) ratio = (ratio * 0x31be135f97d08fd981231505542fcfa6) >> 128 */\n    tag_242:\n        /* \"https://github.com/Uniswap/v3-core/blob/0.8/contracts/libraries/TickMath.sol\":3307:3314  0x10000 */\n      0x010000\n        /* \"https://github.com/Uniswap/v3-core/blob/0.8/contracts/libraries/TickMath.sol\":3297:3314  absTick & 0x10000 */\n      dup3\n      and\n        /* \"https://github.com/Uniswap/v3-core/blob/0.8/contracts/libraries/TickMath.sol\":3297:3319  absTick & 0x10000 != 0 */\n      iszero\n        /* \"https://github.com/Uniswap/v3-core/blob/0.8/contracts/libraries/TickMath.sol\":3293:3379  if (absTick & 0x10000 != 0) ratio = (ratio * 0x9aa508b5b7a84e1c677de54f3e99bc9) >> 128 */\n      tag_243\n      jumpi\n        /* \"https://github.com/Uniswap/v3-core/blob/0.8/contracts/libraries/TickMath.sol\":3338:3371  0x9aa508b5b7a84e1c677de54f3e99bc9 */\n      0x09aa508b5b7a84e1c677de54f3e99bc9\n        /* \"https://github.com/Uniswap/v3-core/blob/0.8/contracts/libraries/TickMath.sol\":3330:3371  ratio * 0x9aa508b5b7a84e1c677de54f3e99bc9 */\n      mul\n        /* \"https://github.com/Uniswap/v3-core/blob/0.8/contracts/libraries/TickMath.sol\":3376:3379  128 */\n      0x80\n        /* \"https://github.com/Uniswap/v3-core/blob/0.8/contracts/libraries/TickMath.sol\":3329:3379  (ratio * 0x9aa508b5b7a84e1c677de54f3e99bc9) >> 128 */\n      shr\n        /* \"https://github.com/Uniswap/v3-core/blob/0.8/contracts/libraries/TickMath.sol\":3293:3379  if (absTick & 0x10000 != 0) ratio = (ratio * 0x9aa508b5b7a84e1c677de54f3e99bc9) >> 128 */\n    tag_243:\n        /* \"https://github.com/Uniswap/v3-core/blob/0.8/contracts/libraries/TickMath.sol\":3407:3414  0x20000 */\n      0x020000\n        /* \"https://github.com/Uniswap/v3-core/blob/0.8/contracts/libraries/TickMath.sol\":3397:3414  absTick & 0x20000 */\n      dup3\n      and\n        /* \"https://github.com/Uniswap/v3-core/blob/0.8/contracts/libraries/TickMath.sol\":3397:3419  absTick & 0x20000 != 0 */\n      iszero\n        /* \"https://github.com/Uniswap/v3-core/blob/0.8/contracts/libraries/TickMath.sol\":3393:3478  if (absTick & 0x20000 != 0) ratio = (ratio * 0x5d6af8dedb81196699c329225ee604) >> 128 */\n      tag_244\n      jumpi\n        /* \"https://github.com/Uniswap/v3-core/blob/0.8/contracts/libraries/TickMath.sol\":3438:3470  0x5d6af8dedb81196699c329225ee604 */\n      0x5d6af8dedb81196699c329225ee604\n        /* \"https://github.com/Uniswap/v3-core/blob/0.8/contracts/libraries/TickMath.sol\":3430:3470  ratio * 0x5d6af8dedb81196699c329225ee604 */\n      mul\n        /* \"https://github.com/Uniswap/v3-core/blob/0.8/contracts/libraries/TickMath.sol\":3475:3478  128 */\n      0x80\n        /* \"https://github.com/Uniswap/v3-core/blob/0.8/contracts/libraries/TickMath.sol\":3429:3478  (ratio * 0x5d6af8dedb81196699c329225ee604) >> 128 */\n      shr\n        /* \"https://github.com/Uniswap/v3-core/blob/0.8/contracts/libraries/TickMath.sol\":3393:3478  if (absTick & 0x20000 != 0) ratio = (ratio * 0x5d6af8dedb81196699c329225ee604) >> 128 */\n    tag_244:\n        /* \"https://github.com/Uniswap/v3-core/blob/0.8/contracts/libraries/TickMath.sol\":3506:3513  0x40000 */\n      0x040000\n        /* \"https://github.com/Uniswap/v3-core/blob/0.8/contracts/libraries/TickMath.sol\":3496:3513  absTick & 0x40000 */\n      dup3\n      and\n        /* \"https://github.com/Uniswap/v3-core/blob/0.8/contracts/libraries/TickMath.sol\":3496:3518  absTick & 0x40000 != 0 */\n      iszero\n        /* \"https://github.com/Uniswap/v3-core/blob/0.8/contracts/libraries/TickMath.sol\":3492:3575  if (absTick & 0x40000 != 0) ratio = (ratio * 0x2216e584f5fa1ea926041bedfe98) >> 128 */\n      tag_245\n      jumpi\n        /* \"https://github.com/Uniswap/v3-core/blob/0.8/contracts/libraries/TickMath.sol\":3537:3567  0x2216e584f5fa1ea926041bedfe98 */\n      0x2216e584f5fa1ea926041bedfe98\n        /* \"https://github.com/Uniswap/v3-core/blob/0.8/contracts/libraries/TickMath.sol\":3529:3567  ratio * 0x2216e584f5fa1ea926041bedfe98 */\n      mul\n        /* \"https://github.com/Uniswap/v3-core/blob/0.8/contracts/libraries/TickMath.sol\":3572:3575  128 */\n      0x80\n        /* \"https://github.com/Uniswap/v3-core/blob/0.8/contracts/libraries/TickMath.sol\":3528:3575  (ratio * 0x2216e584f5fa1ea926041bedfe98) >> 128 */\n      shr\n        /* \"https://github.com/Uniswap/v3-core/blob/0.8/contracts/libraries/TickMath.sol\":3492:3575  if (absTick & 0x40000 != 0) ratio = (ratio * 0x2216e584f5fa1ea926041bedfe98) >> 128 */\n    tag_245:\n        /* \"https://github.com/Uniswap/v3-core/blob/0.8/contracts/libraries/TickMath.sol\":3603:3610  0x80000 */\n      0x080000\n        /* \"https://github.com/Uniswap/v3-core/blob/0.8/contracts/libraries/TickMath.sol\":3593:3610  absTick & 0x80000 */\n      dup3\n      and\n        /* \"https://github.com/Uniswap/v3-core/blob/0.8/contracts/libraries/TickMath.sol\":3593:3615  absTick & 0x80000 != 0 */\n      iszero\n        /* \"https://github.com/Uniswap/v3-core/blob/0.8/contracts/libraries/TickMath.sol\":3589:3667  if (absTick & 0x80000 != 0) ratio = (ratio * 0x48a170391f7dc42444e8fa2) >> 128 */\n      tag_246\n      jumpi\n        /* \"https://github.com/Uniswap/v3-core/blob/0.8/contracts/libraries/TickMath.sol\":3634:3659  0x48a170391f7dc42444e8fa2 */\n      0x048a170391f7dc42444e8fa2\n        /* \"https://github.com/Uniswap/v3-core/blob/0.8/contracts/libraries/TickMath.sol\":3626:3659  ratio * 0x48a170391f7dc42444e8fa2 */\n      mul\n        /* \"https://github.com/Uniswap/v3-core/blob/0.8/contracts/libraries/TickMath.sol\":3664:3667  128 */\n      0x80\n        /* \"https://github.com/Uniswap/v3-core/blob/0.8/contracts/libraries/TickMath.sol\":3625:3667  (ratio * 0x48a170391f7dc42444e8fa2) >> 128 */\n      shr\n        /* \"https://github.com/Uniswap/v3-core/blob/0.8/contracts/libraries/TickMath.sol\":3589:3667  if (absTick & 0x80000 != 0) ratio = (ratio * 0x48a170391f7dc42444e8fa2) >> 128 */\n    tag_246:\n        /* \"https://github.com/Uniswap/v3-core/blob/0.8/contracts/libraries/TickMath.sol\":3693:3694  0 */\n      0x00\n        /* \"https://github.com/Uniswap/v3-core/blob/0.8/contracts/libraries/TickMath.sol\":3686:3690  tick */\n      dup5\n        /* \"https://github.com/Uniswap/v3-core/blob/0.8/contracts/libraries/TickMath.sol\":3686:3694  tick > 0 */\n      0x02\n      signextend\n      sgt\n        /* \"https://github.com/Uniswap/v3-core/blob/0.8/contracts/libraries/TickMath.sol\":3682:3729  if (tick > 0) ratio = type(uint256).max / ratio */\n      iszero\n      tag_247\n      jumpi\n        /* \"https://github.com/Uniswap/v3-core/blob/0.8/contracts/libraries/TickMath.sol\":3724:3729  ratio */\n      dup1\n      not(0x00)\n        /* \"https://github.com/Uniswap/v3-core/blob/0.8/contracts/libraries/TickMath.sol\":3704:3729  type(uint256).max / ratio */\n      dup2\n      tag_249\n      jumpi\n      tag_249\n      tag_250\n      jump\t// in\n    tag_249:\n      div\n        /* \"https://github.com/Uniswap/v3-core/blob/0.8/contracts/libraries/TickMath.sol\":3696:3729  ratio = type(uint256).max / ratio */\n      swap1\n      pop\n        /* \"https://github.com/Uniswap/v3-core/blob/0.8/contracts/libraries/TickMath.sol\":3682:3729  if (tick > 0) ratio = type(uint256).max / ratio */\n    tag_247:\n        /* \"https://github.com/Uniswap/v3-core/blob/0.8/contracts/libraries/TickMath.sol\":4104:4111  1 << 32 */\n      0x0100000000\n        /* \"https://github.com/Uniswap/v3-core/blob/0.8/contracts/libraries/TickMath.sol\":4095:4100  ratio */\n      dup2\n        /* \"https://github.com/Uniswap/v3-core/blob/0.8/contracts/libraries/TickMath.sol\":4095:4112  ratio % (1 << 32) */\n      mod\n        /* \"https://github.com/Uniswap/v3-core/blob/0.8/contracts/libraries/TickMath.sol\":4095:4117  ratio % (1 << 32) == 0 */\n      iszero\n        /* \"https://github.com/Uniswap/v3-core/blob/0.8/contracts/libraries/TickMath.sol\":4095:4125  ratio % (1 << 32) == 0 ? 0 : 1 */\n      tag_253\n      jumpi\n        /* \"https://github.com/Uniswap/v3-core/blob/0.8/contracts/libraries/TickMath.sol\":4124:4125  1 */\n      0x01\n        /* \"https://github.com/Uniswap/v3-core/blob/0.8/contracts/libraries/TickMath.sol\":4095:4125  ratio % (1 << 32) == 0 ? 0 : 1 */\n      jump(tag_254)\n    tag_253:\n        /* \"https://github.com/Uniswap/v3-core/blob/0.8/contracts/libraries/TickMath.sol\":4120:4121  0 */\n      0x00\n        /* \"https://github.com/Uniswap/v3-core/blob/0.8/contracts/libraries/TickMath.sol\":4095:4125  ratio % (1 << 32) == 0 ? 0 : 1 */\n    tag_254:\n        /* \"https://github.com/Uniswap/v3-core/blob/0.8/contracts/libraries/TickMath.sol\":4078:4126  (ratio >> 32) + (ratio % (1 << 32) == 0 ? 0 : 1) */\n      0xff\n      and\n        /* \"https://github.com/Uniswap/v3-core/blob/0.8/contracts/libraries/TickMath.sol\":4088:4090  32 */\n      0x20\n        /* \"https://github.com/Uniswap/v3-core/blob/0.8/contracts/libraries/TickMath.sol\":4079:4084  ratio */\n      dup3\n        /* \"https://github.com/Uniswap/v3-core/blob/0.8/contracts/libraries/TickMath.sol\":4079:4090  ratio >> 32 */\n      swap1\n      shr\n        /* \"https://github.com/Uniswap/v3-core/blob/0.8/contracts/libraries/TickMath.sol\":4078:4126  (ratio >> 32) + (ratio % (1 << 32) == 0 ? 0 : 1) */\n      add\n        /* \"https://github.com/Uniswap/v3-core/blob/0.8/contracts/libraries/TickMath.sol\":4055:4127  sqrtPriceX96 = uint160((ratio >> 32) + (ratio % (1 << 32) == 0 ? 0 : 1)) */\n      swap3\n      pop\n        /* \"https://github.com/Uniswap/v3-core/blob/0.8/contracts/libraries/TickMath.sol\":1480:4138  unchecked {... */\n      pop\n      pop\n        /* \"https://github.com/Uniswap/v3-core/blob/0.8/contracts/libraries/TickMath.sol\":1385:4144  function getSqrtRatioAtTick(int24 tick) internal pure returns (uint160 sqrtPriceX96) {... */\n      swap2\n      swap1\n      pop\n      jump\t// out\n        /* \"https://github.com/Uniswap/v3-periphery/blob/0.8/contracts/libraries/LiquidityAmounts.sol\":6173:6972  function getAmountsForLiquidity(... */\n    tag_211:\n        /* \"https://github.com/Uniswap/v3-periphery/blob/0.8/contracts/libraries/LiquidityAmounts.sol\":6353:6368  uint256 amount0 */\n      0x00\n        /* \"https://github.com/Uniswap/v3-periphery/blob/0.8/contracts/libraries/LiquidityAmounts.sol\":6370:6385  uint256 amount1 */\n      dup1\n        /* \"https://github.com/Uniswap/v3-periphery/blob/0.8/contracts/libraries/LiquidityAmounts.sol\":6417:6430  sqrtRatioBX96 */\n      dup4\n      sub(shl(0xa0, 0x01), 0x01)\n        /* \"https://github.com/Uniswap/v3-periphery/blob/0.8/contracts/libraries/LiquidityAmounts.sol\":6401:6430  sqrtRatioAX96 > sqrtRatioBX96 */\n      and\n        /* \"https://github.com/Uniswap/v3-periphery/blob/0.8/contracts/libraries/LiquidityAmounts.sol\":6401:6414  sqrtRatioAX96 */\n      dup6\n      sub(shl(0xa0, 0x01), 0x01)\n        /* \"https://github.com/Uniswap/v3-periphery/blob/0.8/contracts/libraries/LiquidityAmounts.sol\":6401:6430  sqrtRatioAX96 > sqrtRatioBX96 */\n      and\n      gt\n        /* \"https://github.com/Uniswap/v3-periphery/blob/0.8/contracts/libraries/LiquidityAmounts.sol\":6397:6495  if (sqrtRatioAX96 > sqrtRatioBX96) (sqrtRatioAX96, sqrtRatioBX96) = (sqrtRatioBX96, sqrtRatioAX96) */\n      iszero\n      tag_256\n      jumpi\n        /* \"https://github.com/Uniswap/v3-periphery/blob/0.8/contracts/libraries/LiquidityAmounts.sol\":6466:6479  sqrtRatioBX96 */\n      swap3\n      swap4\n        /* \"https://github.com/Uniswap/v3-periphery/blob/0.8/contracts/libraries/LiquidityAmounts.sol\":6481:6494  sqrtRatioAX96 */\n      swap3\n        /* \"https://github.com/Uniswap/v3-periphery/blob/0.8/contracts/libraries/LiquidityAmounts.sol\":6397:6495  if (sqrtRatioAX96 > sqrtRatioBX96) (sqrtRatioAX96, sqrtRatioBX96) = (sqrtRatioBX96, sqrtRatioAX96) */\n    tag_256:\n        /* \"https://github.com/Uniswap/v3-periphery/blob/0.8/contracts/libraries/LiquidityAmounts.sol\":6526:6539  sqrtRatioAX96 */\n      dup5\n      sub(shl(0xa0, 0x01), 0x01)\n        /* \"https://github.com/Uniswap/v3-periphery/blob/0.8/contracts/libraries/LiquidityAmounts.sol\":6510:6539  sqrtRatioX96 <= sqrtRatioAX96 */\n      and\n        /* \"https://github.com/Uniswap/v3-periphery/blob/0.8/contracts/libraries/LiquidityAmounts.sol\":6510:6522  sqrtRatioX96 */\n      dup7\n      sub(shl(0xa0, 0x01), 0x01)\n        /* \"https://github.com/Uniswap/v3-periphery/blob/0.8/contracts/libraries/LiquidityAmounts.sol\":6510:6539  sqrtRatioX96 <= sqrtRatioAX96 */\n      and\n      gt\n        /* \"https://github.com/Uniswap/v3-periphery/blob/0.8/contracts/libraries/LiquidityAmounts.sol\":6506:6966  if (sqrtRatioX96 <= sqrtRatioAX96) {... */\n      tag_257\n      jumpi\n        /* \"https://github.com/Uniswap/v3-periphery/blob/0.8/contracts/libraries/LiquidityAmounts.sol\":6565:6628  getAmount0ForLiquidity(sqrtRatioAX96, sqrtRatioBX96, liquidity) */\n      tag_258\n        /* \"https://github.com/Uniswap/v3-periphery/blob/0.8/contracts/libraries/LiquidityAmounts.sol\":6588:6601  sqrtRatioAX96 */\n      dup6\n        /* \"https://github.com/Uniswap/v3-periphery/blob/0.8/contracts/libraries/LiquidityAmounts.sol\":6603:6616  sqrtRatioBX96 */\n      dup6\n        /* \"https://github.com/Uniswap/v3-periphery/blob/0.8/contracts/libraries/LiquidityAmounts.sol\":6618:6627  liquidity */\n      dup6\n        /* \"https://github.com/Uniswap/v3-periphery/blob/0.8/contracts/libraries/LiquidityAmounts.sol\":6565:6587  getAmount0ForLiquidity */\n      tag_259\n        /* \"https://github.com/Uniswap/v3-periphery/blob/0.8/contracts/libraries/LiquidityAmounts.sol\":6565:6628  getAmount0ForLiquidity(sqrtRatioAX96, sqrtRatioBX96, liquidity) */\n      jump\t// in\n    tag_258:\n        /* \"https://github.com/Uniswap/v3-periphery/blob/0.8/contracts/libraries/LiquidityAmounts.sol\":6555:6628  amount0 = getAmount0ForLiquidity(sqrtRatioAX96, sqrtRatioBX96, liquidity) */\n      swap2\n      pop\n        /* \"https://github.com/Uniswap/v3-periphery/blob/0.8/contracts/libraries/LiquidityAmounts.sol\":6506:6966  if (sqrtRatioX96 <= sqrtRatioAX96) {... */\n      jump(tag_205)\n    tag_257:\n        /* \"https://github.com/Uniswap/v3-periphery/blob/0.8/contracts/libraries/LiquidityAmounts.sol\":6664:6677  sqrtRatioBX96 */\n      dup4\n      sub(shl(0xa0, 0x01), 0x01)\n        /* \"https://github.com/Uniswap/v3-periphery/blob/0.8/contracts/libraries/LiquidityAmounts.sol\":6649:6677  sqrtRatioX96 < sqrtRatioBX96 */\n      and\n        /* \"https://github.com/Uniswap/v3-periphery/blob/0.8/contracts/libraries/LiquidityAmounts.sol\":6649:6661  sqrtRatioX96 */\n      dup7\n      sub(shl(0xa0, 0x01), 0x01)\n        /* \"https://github.com/Uniswap/v3-periphery/blob/0.8/contracts/libraries/LiquidityAmounts.sol\":6649:6677  sqrtRatioX96 < sqrtRatioBX96 */\n      and\n      lt\n        /* \"https://github.com/Uniswap/v3-periphery/blob/0.8/contracts/libraries/LiquidityAmounts.sol\":6645:6966  if (sqrtRatioX96 < sqrtRatioBX96) {... */\n      iszero\n      tag_261\n      jumpi\n        /* \"https://github.com/Uniswap/v3-periphery/blob/0.8/contracts/libraries/LiquidityAmounts.sol\":6703:6765  getAmount0ForLiquidity(sqrtRatioX96, sqrtRatioBX96, liquidity) */\n      tag_262\n        /* \"https://github.com/Uniswap/v3-periphery/blob/0.8/contracts/libraries/LiquidityAmounts.sol\":6726:6738  sqrtRatioX96 */\n      dup7\n        /* \"https://github.com/Uniswap/v3-periphery/blob/0.8/contracts/libraries/LiquidityAmounts.sol\":6740:6753  sqrtRatioBX96 */\n      dup6\n        /* \"https://github.com/Uniswap/v3-periphery/blob/0.8/contracts/libraries/LiquidityAmounts.sol\":6755:6764  liquidity */\n      dup6\n        /* \"https://github.com/Uniswap/v3-periphery/blob/0.8/contracts/libraries/LiquidityAmounts.sol\":6703:6725  getAmount0ForLiquidity */\n      tag_259\n        /* \"https://github.com/Uniswap/v3-periphery/blob/0.8/contracts/libraries/LiquidityAmounts.sol\":6703:6765  getAmount0ForLiquidity(sqrtRatioX96, sqrtRatioBX96, liquidity) */\n      jump\t// in\n    tag_262:\n        /* \"https://github.com/Uniswap/v3-periphery/blob/0.8/contracts/libraries/LiquidityAmounts.sol\":6693:6765  amount0 = getAmount0ForLiquidity(sqrtRatioX96, sqrtRatioBX96, liquidity) */\n      swap2\n      pop\n        /* \"https://github.com/Uniswap/v3-periphery/blob/0.8/contracts/libraries/LiquidityAmounts.sol\":6789:6851  getAmount1ForLiquidity(sqrtRatioAX96, sqrtRatioX96, liquidity) */\n      tag_263\n        /* \"https://github.com/Uniswap/v3-periphery/blob/0.8/contracts/libraries/LiquidityAmounts.sol\":6812:6825  sqrtRatioAX96 */\n      dup6\n        /* \"https://github.com/Uniswap/v3-periphery/blob/0.8/contracts/libraries/LiquidityAmounts.sol\":6827:6839  sqrtRatioX96 */\n      dup8\n        /* \"https://github.com/Uniswap/v3-periphery/blob/0.8/contracts/libraries/LiquidityAmounts.sol\":6841:6850  liquidity */\n      dup6\n        /* \"https://github.com/Uniswap/v3-periphery/blob/0.8/contracts/libraries/LiquidityAmounts.sol\":6789:6811  getAmount1ForLiquidity */\n      tag_264\n        /* \"https://github.com/Uniswap/v3-periphery/blob/0.8/contracts/libraries/LiquidityAmounts.sol\":6789:6851  getAmount1ForLiquidity(sqrtRatioAX96, sqrtRatioX96, liquidity) */\n      jump\t// in\n    tag_263:\n        /* \"https://github.com/Uniswap/v3-periphery/blob/0.8/contracts/libraries/LiquidityAmounts.sol\":6779:6851  amount1 = getAmount1ForLiquidity(sqrtRatioAX96, sqrtRatioX96, liquidity) */\n      swap1\n      pop\n        /* \"https://github.com/Uniswap/v3-periphery/blob/0.8/contracts/libraries/LiquidityAmounts.sol\":6645:6966  if (sqrtRatioX96 < sqrtRatioBX96) {... */\n      jump(tag_205)\n    tag_261:\n        /* \"https://github.com/Uniswap/v3-periphery/blob/0.8/contracts/libraries/LiquidityAmounts.sol\":6892:6955  getAmount1ForLiquidity(sqrtRatioAX96, sqrtRatioBX96, liquidity) */\n      tag_266\n        /* \"https://github.com/Uniswap/v3-periphery/blob/0.8/contracts/libraries/LiquidityAmounts.sol\":6915:6928  sqrtRatioAX96 */\n      dup6\n        /* \"https://github.com/Uniswap/v3-periphery/blob/0.8/contracts/libraries/LiquidityAmounts.sol\":6930:6943  sqrtRatioBX96 */\n      dup6\n        /* \"https://github.com/Uniswap/v3-periphery/blob/0.8/contracts/libraries/LiquidityAmounts.sol\":6945:6954  liquidity */\n      dup6\n        /* \"https://github.com/Uniswap/v3-periphery/blob/0.8/contracts/libraries/LiquidityAmounts.sol\":6892:6914  getAmount1ForLiquidity */\n      tag_264\n        /* \"https://github.com/Uniswap/v3-periphery/blob/0.8/contracts/libraries/LiquidityAmounts.sol\":6892:6955  getAmount1ForLiquidity(sqrtRatioAX96, sqrtRatioBX96, liquidity) */\n      jump\t// in\n    tag_266:\n        /* \"https://github.com/Uniswap/v3-periphery/blob/0.8/contracts/libraries/LiquidityAmounts.sol\":6882:6955  amount1 = getAmount1ForLiquidity(sqrtRatioAX96, sqrtRatioBX96, liquidity) */\n      swap1\n      pop\n        /* \"https://github.com/Uniswap/v3-periphery/blob/0.8/contracts/libraries/LiquidityAmounts.sol\":6173:6972  function getAmountsForLiquidity(... */\n      swap5\n      pop\n      swap5\n      swap3\n      pop\n      pop\n      pop\n      jump\t// out\n        /* \"Contracts/OracleManager.sol\":12151:12637  function _convertToAggregatorValue(... */\n    tag_214:\n        /* \"Contracts/OracleManager.sol\":12295:12302  uint256 */\n      0x00\n        /* \"Contracts/OracleManager.sol\":12318:12326  amt == 0 */\n      dup4\n      iszero\n      dup1\n        /* \"Contracts/OracleManager.sol\":12318:12358  amt == 0 || aggregatorAddr == address(0) */\n      tag_268\n      jumpi\n      pop\n      sub(shl(0xa0, 0x01), 0x01)\n        /* \"Contracts/OracleManager.sol\":12330:12358  aggregatorAddr == address(0) */\n      dup4\n      and\n      iszero\n        /* \"Contracts/OracleManager.sol\":12318:12358  amt == 0 || aggregatorAddr == address(0) */\n    tag_268:\n        /* \"Contracts/OracleManager.sol\":12314:12393  if (amt == 0 || aggregatorAddr == address(0)) {... */\n      iszero\n      tag_269\n      jumpi\n      pop\n        /* \"Contracts/OracleManager.sol\":12381:12382  0 */\n      0x00\n        /* \"Contracts/OracleManager.sol\":12374:12382  return 0 */\n      jump(tag_212)\n        /* \"Contracts/OracleManager.sol\":12314:12393  if (amt == 0 || aggregatorAddr == address(0)) {... */\n    tag_269:\n        /* \"Contracts/OracleManager.sol\":12403:12410  bool ok */\n      0x00\n        /* \"Contracts/OracleManager.sol\":12412:12421  uint256 p */\n      dup1\n        /* \"Contracts/OracleManager.sol\":12423:12430  uint8 d */\n      0x00\n        /* \"Contracts/OracleManager.sol\":12434:12484  _tryGetChainlinkPrice(aggregatorAddr, decimalsOvr) */\n      tag_270\n        /* \"Contracts/OracleManager.sol\":12456:12470  aggregatorAddr */\n      dup7\n        /* \"Contracts/OracleManager.sol\":12472:12483  decimalsOvr */\n      dup7\n        /* \"Contracts/OracleManager.sol\":12434:12455  _tryGetChainlinkPrice */\n      tag_94\n        /* \"Contracts/OracleManager.sol\":12434:12484  _tryGetChainlinkPrice(aggregatorAddr, decimalsOvr) */\n      jump\t// in\n    tag_270:\n        /* \"Contracts/OracleManager.sol\":12402:12484  (bool ok, uint256 p, uint8 d) = _tryGetChainlinkPrice(aggregatorAddr, decimalsOvr) */\n      swap3\n      pop\n      swap3\n      pop\n      swap3\n      pop\n        /* \"Contracts/OracleManager.sol\":12502:12504  ok */\n      dup3\n        /* \"Contracts/OracleManager.sol\":12494:12568  require(ok, \"OracleManager: aggregator fail in _convertToAggregatorValue\") */\n      tag_271\n      jumpi\n      mload(0x40)\n      shl(0xe5, 0x461bcd)\n      dup2\n      mstore\n        /* \"#utility.yul\":17064:17066   */\n      0x20\n        /* \"Contracts/OracleManager.sol\":12494:12568  require(ok, \"OracleManager: aggregator fail in _convertToAggregatorValue\") */\n      0x04\n      dup3\n      add\n        /* \"#utility.yul\":17046:17067   */\n      mstore\n        /* \"#utility.yul\":17103:17105   */\n      0x3b\n        /* \"#utility.yul\":17083:17101   */\n      0x24\n      dup3\n      add\n        /* \"#utility.yul\":17076:17106   */\n      mstore\n        /* \"#utility.yul\":17142:17176   */\n      0x4f7261636c654d616e616765723a2061676772656761746f72206661696c2069\n        /* \"#utility.yul\":17122:17140   */\n      0x44\n      dup3\n      add\n        /* \"#utility.yul\":17115:17177   */\n      mstore\n        /* \"#utility.yul\":17213:17242   */\n      0x6e205f636f6e76657274546f41676772656761746f7256616c75650000000000\n        /* \"#utility.yul\":17193:17211   */\n      0x64\n      dup3\n      add\n        /* \"#utility.yul\":17186:17243   */\n      mstore\n        /* \"#utility.yul\":17260:17279   */\n      0x84\n      add\n        /* \"Contracts/OracleManager.sol\":12494:12568  require(ok, \"OracleManager: aggregator fail in _convertToAggregatorValue\") */\n      tag_48\n        /* \"#utility.yul\":16862:17285   */\n      jump\n        /* \"Contracts/OracleManager.sol\":12494:12568  require(ok, \"OracleManager: aggregator fail in _convertToAggregatorValue\") */\n    tag_271:\n        /* \"Contracts/OracleManager.sol\":12622:12629  10 ** d */\n      tag_274\n        /* \"Contracts/OracleManager.sol\":12628:12629  d */\n      dup2\n        /* \"Contracts/OracleManager.sol\":12622:12624  10 */\n      0x0a\n        /* \"Contracts/OracleManager.sol\":12622:12629  10 ** d */\n      tag_275\n      jump\t// in\n    tag_274:\n        /* \"Contracts/OracleManager.sol\":12610:12617  amt * p */\n      tag_276\n        /* \"Contracts/OracleManager.sol\":12616:12617  p */\n      dup4\n        /* \"Contracts/OracleManager.sol\":12610:12613  amt */\n      dup10\n        /* \"Contracts/OracleManager.sol\":12610:12617  amt * p */\n      tag_277\n      jump\t// in\n    tag_276:\n        /* \"Contracts/OracleManager.sol\":12609:12630  (amt * p) / (10 ** d) */\n      tag_278\n      swap2\n      swap1\n      tag_126\n      jump\t// in\n    tag_278:\n        /* \"Contracts/OracleManager.sol\":12602:12630  return (amt * p) / (10 ** d) */\n      swap8\n        /* \"Contracts/OracleManager.sol\":12151:12637  function _convertToAggregatorValue(... */\n      swap7\n      pop\n      pop\n      pop\n      pop\n      pop\n      pop\n      pop\n      jump\t// out\n        /* \"https://github.com/Uniswap/v3-periphery/blob/0.8/contracts/libraries/LiquidityAmounts.sol\":4309:4865  function getAmount0ForLiquidity(... */\n    tag_259:\n        /* \"https://github.com/Uniswap/v3-periphery/blob/0.8/contracts/libraries/LiquidityAmounts.sol\":4459:4474  uint256 amount0 */\n      0x00\n        /* \"https://github.com/Uniswap/v3-periphery/blob/0.8/contracts/libraries/LiquidityAmounts.sol\":4530:4543  sqrtRatioBX96 */\n      dup3\n      sub(shl(0xa0, 0x01), 0x01)\n        /* \"https://github.com/Uniswap/v3-periphery/blob/0.8/contracts/libraries/LiquidityAmounts.sol\":4514:4543  sqrtRatioAX96 > sqrtRatioBX96 */\n      and\n        /* \"https://github.com/Uniswap/v3-periphery/blob/0.8/contracts/libraries/LiquidityAmounts.sol\":4514:4527  sqrtRatioAX96 */\n      dup5\n      sub(shl(0xa0, 0x01), 0x01)\n        /* \"https://github.com/Uniswap/v3-periphery/blob/0.8/contracts/libraries/LiquidityAmounts.sol\":4514:4543  sqrtRatioAX96 > sqrtRatioBX96 */\n      and\n      gt\n        /* \"https://github.com/Uniswap/v3-periphery/blob/0.8/contracts/libraries/LiquidityAmounts.sol\":4510:4608  if (sqrtRatioAX96 > sqrtRatioBX96) (sqrtRatioAX96, sqrtRatioBX96) = (sqrtRatioBX96, sqrtRatioAX96) */\n      iszero\n      tag_280\n      jumpi\n        /* \"https://github.com/Uniswap/v3-periphery/blob/0.8/contracts/libraries/LiquidityAmounts.sol\":4579:4592  sqrtRatioBX96 */\n      swap2\n      swap3\n        /* \"https://github.com/Uniswap/v3-periphery/blob/0.8/contracts/libraries/LiquidityAmounts.sol\":4594:4607  sqrtRatioAX96 */\n      swap2\n        /* \"https://github.com/Uniswap/v3-periphery/blob/0.8/contracts/libraries/LiquidityAmounts.sol\":4510:4608  if (sqrtRatioAX96 > sqrtRatioBX96) (sqrtRatioAX96, sqrtRatioBX96) = (sqrtRatioBX96, sqrtRatioAX96) */\n    tag_280:\n        /* \"https://github.com/Uniswap/v3-periphery/blob/0.8/contracts/libraries/LiquidityAmounts.sol\":4835:4848  sqrtRatioAX96 */\n      dup4\n      sub(shl(0xa0, 0x01), 0x01)\n        /* \"https://github.com/Uniswap/v3-periphery/blob/0.8/contracts/libraries/LiquidityAmounts.sol\":4646:4848  FullMath.mulDiv(... */\n      and\n        /* \"https://github.com/Uniswap/v3-periphery/blob/0.8/contracts/libraries/LiquidityAmounts.sol\":4646:4832  FullMath.mulDiv(... */\n      tag_281\n        /* \"@uniswap/v3-core/contracts/libraries/FixedPoint96.sol\":309:311  96 */\n      0x60\n        /* \"https://github.com/Uniswap/v3-periphery/blob/0.8/contracts/libraries/LiquidityAmounts.sol\":4683:4728  uint256(liquidity) << FixedPoint96.RESOLUTION */\n      0xff\n      and\n        /* \"https://github.com/Uniswap/v3-periphery/blob/0.8/contracts/libraries/LiquidityAmounts.sol\":4691:4700  liquidity */\n      dup5\n      sub(shl(0x80, 0x01), 0x01)\n        /* \"https://github.com/Uniswap/v3-periphery/blob/0.8/contracts/libraries/LiquidityAmounts.sol\":4683:4701  uint256(liquidity) */\n      and\n        /* \"https://github.com/Uniswap/v3-periphery/blob/0.8/contracts/libraries/LiquidityAmounts.sol\":4683:4728  uint256(liquidity) << FixedPoint96.RESOLUTION */\n      swap1\n      shl\n        /* \"https://github.com/Uniswap/v3-periphery/blob/0.8/contracts/libraries/LiquidityAmounts.sol\":4766:4779  sqrtRatioAX96 */\n      dup7\n        /* \"https://github.com/Uniswap/v3-periphery/blob/0.8/contracts/libraries/LiquidityAmounts.sol\":4750:4763  sqrtRatioBX96 */\n      dup7\n        /* \"https://github.com/Uniswap/v3-periphery/blob/0.8/contracts/libraries/LiquidityAmounts.sol\":4750:4779  sqrtRatioBX96 - sqrtRatioAX96 */\n      sub\n      sub(shl(0xa0, 0x01), 0x01)\n        /* \"https://github.com/Uniswap/v3-periphery/blob/0.8/contracts/libraries/LiquidityAmounts.sol\":4646:4832  FullMath.mulDiv(... */\n      and\n        /* \"https://github.com/Uniswap/v3-periphery/blob/0.8/contracts/libraries/LiquidityAmounts.sol\":4801:4814  sqrtRatioBX96 */\n      dup7\n      sub(shl(0xa0, 0x01), 0x01)\n        /* \"https://github.com/Uniswap/v3-periphery/blob/0.8/contracts/libraries/LiquidityAmounts.sol\":4646:4832  FullMath.mulDiv(... */\n      and\n        /* \"https://github.com/Uniswap/v3-periphery/blob/0.8/contracts/libraries/LiquidityAmounts.sol\":4646:4661  FullMath.mulDiv */\n      tag_282\n        /* \"https://github.com/Uniswap/v3-periphery/blob/0.8/contracts/libraries/LiquidityAmounts.sol\":4646:4832  FullMath.mulDiv(... */\n      jump\t// in\n    tag_281:\n        /* \"https://github.com/Uniswap/v3-periphery/blob/0.8/contracts/libraries/LiquidityAmounts.sol\":4646:4848  FullMath.mulDiv(... */\n      dup2\n      tag_284\n      jumpi\n      tag_284\n      tag_250\n      jump\t// in\n    tag_284:\n      div\n      swap5\n        /* \"https://github.com/Uniswap/v3-periphery/blob/0.8/contracts/libraries/LiquidityAmounts.sol\":4309:4865  function getAmount0ForLiquidity(... */\n      swap4\n      pop\n      pop\n      pop\n      pop\n      jump\t// out\n        /* \"https://github.com/Uniswap/v3-periphery/blob/0.8/contracts/libraries/LiquidityAmounts.sol\":5223:5632  function getAmount1ForLiquidity(... */\n    tag_264:\n        /* \"https://github.com/Uniswap/v3-periphery/blob/0.8/contracts/libraries/LiquidityAmounts.sol\":5373:5388  uint256 amount1 */\n      0x00\n        /* \"https://github.com/Uniswap/v3-periphery/blob/0.8/contracts/libraries/LiquidityAmounts.sol\":5420:5433  sqrtRatioBX96 */\n      dup3\n      sub(shl(0xa0, 0x01), 0x01)\n        /* \"https://github.com/Uniswap/v3-periphery/blob/0.8/contracts/libraries/LiquidityAmounts.sol\":5404:5433  sqrtRatioAX96 > sqrtRatioBX96 */\n      and\n        /* \"https://github.com/Uniswap/v3-periphery/blob/0.8/contracts/libraries/LiquidityAmounts.sol\":5404:5417  sqrtRatioAX96 */\n      dup5\n      sub(shl(0xa0, 0x01), 0x01)\n        /* \"https://github.com/Uniswap/v3-periphery/blob/0.8/contracts/libraries/LiquidityAmounts.sol\":5404:5433  sqrtRatioAX96 > sqrtRatioBX96 */\n      and\n      gt\n        /* \"https://github.com/Uniswap/v3-periphery/blob/0.8/contracts/libraries/LiquidityAmounts.sol\":5400:5498  if (sqrtRatioAX96 > sqrtRatioBX96) (sqrtRatioAX96, sqrtRatioBX96) = (sqrtRatioBX96, sqrtRatioAX96) */\n      iszero\n      tag_286\n      jumpi\n        /* \"https://github.com/Uniswap/v3-periphery/blob/0.8/contracts/libraries/LiquidityAmounts.sol\":5469:5482  sqrtRatioBX96 */\n      swap2\n      swap3\n        /* \"https://github.com/Uniswap/v3-periphery/blob/0.8/contracts/libraries/LiquidityAmounts.sol\":5484:5497  sqrtRatioAX96 */\n      swap2\n        /* \"https://github.com/Uniswap/v3-periphery/blob/0.8/contracts/libraries/LiquidityAmounts.sol\":5400:5498  if (sqrtRatioAX96 > sqrtRatioBX96) (sqrtRatioAX96, sqrtRatioBX96) = (sqrtRatioBX96, sqrtRatioAX96) */\n    tag_286:\n        /* \"https://github.com/Uniswap/v3-periphery/blob/0.8/contracts/libraries/LiquidityAmounts.sol\":5540:5615  FullMath.mulDiv(liquidity, sqrtRatioBX96 - sqrtRatioAX96, FixedPoint96.Q96) */\n      tag_287\n        /* \"https://github.com/Uniswap/v3-periphery/blob/0.8/contracts/libraries/LiquidityAmounts.sol\":5556:5565  liquidity */\n      dup3\n      sub(shl(0x80, 0x01), 0x01)\n        /* \"https://github.com/Uniswap/v3-periphery/blob/0.8/contracts/libraries/LiquidityAmounts.sol\":5540:5615  FullMath.mulDiv(liquidity, sqrtRatioBX96 - sqrtRatioAX96, FixedPoint96.Q96) */\n      and\n        /* \"https://github.com/Uniswap/v3-periphery/blob/0.8/contracts/libraries/LiquidityAmounts.sol\":5583:5596  sqrtRatioAX96 */\n      dup6\n        /* \"https://github.com/Uniswap/v3-periphery/blob/0.8/contracts/libraries/LiquidityAmounts.sol\":5567:5580  sqrtRatioBX96 */\n      dup6\n        /* \"https://github.com/Uniswap/v3-periphery/blob/0.8/contracts/libraries/LiquidityAmounts.sol\":5567:5596  sqrtRatioBX96 - sqrtRatioAX96 */\n      sub\n      sub(shl(0xa0, 0x01), 0x01)\n        /* \"https://github.com/Uniswap/v3-periphery/blob/0.8/contracts/libraries/LiquidityAmounts.sol\":5540:5615  FullMath.mulDiv(liquidity, sqrtRatioBX96 - sqrtRatioAX96, FixedPoint96.Q96) */\n      and\n      shl(0x60, 0x01)\n        /* \"https://github.com/Uniswap/v3-periphery/blob/0.8/contracts/libraries/LiquidityAmounts.sol\":5540:5555  FullMath.mulDiv */\n      tag_282\n        /* \"https://github.com/Uniswap/v3-periphery/blob/0.8/contracts/libraries/LiquidityAmounts.sol\":5540:5615  FullMath.mulDiv(liquidity, sqrtRatioBX96 - sqrtRatioAX96, FixedPoint96.Q96) */\n      jump\t// in\n    tag_287:\n        /* \"https://github.com/Uniswap/v3-periphery/blob/0.8/contracts/libraries/LiquidityAmounts.sol\":5533:5615  return FullMath.mulDiv(liquidity, sqrtRatioBX96 - sqrtRatioAX96, FixedPoint96.Q96) */\n      swap5\n        /* \"https://github.com/Uniswap/v3-periphery/blob/0.8/contracts/libraries/LiquidityAmounts.sol\":5223:5632  function getAmount1ForLiquidity(... */\n      swap4\n      pop\n      pop\n      pop\n      pop\n      jump\t// out\n        /* \"@uniswap/v3-core/contracts/libraries/FullMath.sol\":741:4868  function mulDiv(... */\n    tag_282:\n        /* \"@uniswap/v3-core/contracts/libraries/FullMath.sol\":853:867  uint256 result */\n      0x00\n      dup1\n      dup1\n      not(0x00)\n        /* \"@uniswap/v3-core/contracts/libraries/FullMath.sol\":1416:1417  b */\n      dup6\n        /* \"@uniswap/v3-core/contracts/libraries/FullMath.sol\":1413:1414  a */\n      dup8\n        /* \"@uniswap/v3-core/contracts/libraries/FullMath.sol\":1406:1426  mulmod(a, b, not(0)) */\n      mulmod\n        /* \"@uniswap/v3-core/contracts/libraries/FullMath.sol\":1459:1460  b */\n      dup6\n        /* \"@uniswap/v3-core/contracts/libraries/FullMath.sol\":1456:1457  a */\n      dup8\n        /* \"@uniswap/v3-core/contracts/libraries/FullMath.sol\":1452:1461  mul(a, b) */\n      mul\n        /* \"@uniswap/v3-core/contracts/libraries/FullMath.sol\":1443:1461  prod0 := mul(a, b) */\n      swap3\n      pop\n        /* \"@uniswap/v3-core/contracts/libraries/FullMath.sol\":1514:1519  prod0 */\n      dup3\n        /* \"@uniswap/v3-core/contracts/libraries/FullMath.sol\":1510:1512  mm */\n      dup2\n        /* \"@uniswap/v3-core/contracts/libraries/FullMath.sol\":1507:1520  lt(mm, prod0) */\n      lt\n        /* \"@uniswap/v3-core/contracts/libraries/FullMath.sol\":1499:1504  prod0 */\n      dup4\n        /* \"@uniswap/v3-core/contracts/libraries/FullMath.sol\":1495:1497  mm */\n      dup3\n        /* \"@uniswap/v3-core/contracts/libraries/FullMath.sol\":1491:1505  sub(mm, prod0) */\n      sub\n        /* \"@uniswap/v3-core/contracts/libraries/FullMath.sol\":1487:1521  sub(sub(mm, prod0), lt(mm, prod0)) */\n      sub\n        /* \"@uniswap/v3-core/contracts/libraries/FullMath.sol\":1478:1521  prod1 := sub(sub(mm, prod0), lt(mm, prod0)) */\n      swap2\n      pop\n      pop\n        /* \"@uniswap/v3-core/contracts/libraries/FullMath.sol\":1615:1620  prod1 */\n      dup1\n        /* \"@uniswap/v3-core/contracts/libraries/FullMath.sol\":1624:1625  0 */\n      0x00\n        /* \"@uniswap/v3-core/contracts/libraries/FullMath.sol\":1615:1625  prod1 == 0 */\n      sub\n        /* \"@uniswap/v3-core/contracts/libraries/FullMath.sol\":1611:1814  if (prod1 == 0) {... */\n      tag_289\n      jumpi\n        /* \"@uniswap/v3-core/contracts/libraries/FullMath.sol\":1667:1668  0 */\n      0x00\n        /* \"@uniswap/v3-core/contracts/libraries/FullMath.sol\":1653:1664  denominator */\n      dup5\n        /* \"@uniswap/v3-core/contracts/libraries/FullMath.sol\":1653:1668  denominator > 0 */\n      gt\n        /* \"@uniswap/v3-core/contracts/libraries/FullMath.sol\":1645:1669  require(denominator > 0) */\n      tag_290\n      jumpi\n      0x00\n      dup1\n      revert\n    tag_290:\n      pop\n        /* \"@uniswap/v3-core/contracts/libraries/FullMath.sol\":1728:1751  div(prod0, denominator) */\n      dup3\n      swap1\n      div\n      swap1\n      pop\n        /* \"@uniswap/v3-core/contracts/libraries/FullMath.sol\":1786:1799  return result */\n      jump(tag_212)\n        /* \"@uniswap/v3-core/contracts/libraries/FullMath.sol\":1611:1814  if (prod1 == 0) {... */\n    tag_289:\n        /* \"@uniswap/v3-core/contracts/libraries/FullMath.sol\":1953:1958  prod1 */\n      dup1\n        /* \"@uniswap/v3-core/contracts/libraries/FullMath.sol\":1939:1950  denominator */\n      dup5\n        /* \"@uniswap/v3-core/contracts/libraries/FullMath.sol\":1939:1958  denominator > prod1 */\n      gt\n        /* \"@uniswap/v3-core/contracts/libraries/FullMath.sol\":1931:1959  require(denominator > prod1) */\n      tag_291\n      jumpi\n      0x00\n      dup1\n      revert\n    tag_291:\n        /* \"@uniswap/v3-core/contracts/libraries/FullMath.sol\":2260:2277  uint256 remainder */\n      0x00\n        /* \"@uniswap/v3-core/contracts/libraries/FullMath.sol\":2344:2355  denominator */\n      dup5\n        /* \"@uniswap/v3-core/contracts/libraries/FullMath.sol\":2341:2342  b */\n      dup7\n        /* \"@uniswap/v3-core/contracts/libraries/FullMath.sol\":2338:2339  a */\n      dup9\n        /* \"@uniswap/v3-core/contracts/libraries/FullMath.sol\":2331:2356  mulmod(a, b, denominator) */\n      mulmod\n        /* \"@uniswap/v3-core/contracts/libraries/FullMath.sol\":2736:2748  uint256 twos */\n      0x00\n        /* \"@uniswap/v3-core/contracts/libraries/FullMath.sol\":2752:2767  0 - denominator */\n      dup7\n      dup2\n      sub\n        /* \"@uniswap/v3-core/contracts/libraries/FullMath.sol\":2751:2782  (0 - denominator) & denominator */\n      dup8\n      and\n        /* \"@uniswap/v3-core/contracts/libraries/FullMath.sol\":2888:2910  div(denominator, twos) */\n      swap7\n      dup8\n      swap1\n      div\n      swap7\n        /* \"@uniswap/v3-core/contracts/libraries/FullMath.sol\":3763:3764  2 */\n      0x02\n        /* \"@uniswap/v3-core/contracts/libraries/FullMath.sol\":3744:3745  3 */\n      0x03\n        /* \"@uniswap/v3-core/contracts/libraries/FullMath.sol\":3744:3759  3 * denominator */\n      dup10\n      mul\n        /* \"@uniswap/v3-core/contracts/libraries/FullMath.sol\":3743:3764  (3 * denominator) ^ 2 */\n      dup2\n      xor\n        /* \"@uniswap/v3-core/contracts/libraries/FullMath.sol\":4006:4023  denominator * inv */\n      dup1\n      dup11\n      mul\n        /* \"@uniswap/v3-core/contracts/libraries/FullMath.sol\":4002:4023  2 - denominator * inv */\n      dup3\n      sub\n        /* \"@uniswap/v3-core/contracts/libraries/FullMath.sol\":3995:4023  inv *= 2 - denominator * inv */\n      mul\n        /* \"@uniswap/v3-core/contracts/libraries/FullMath.sol\":4068:4085  denominator * inv */\n      dup1\n      dup11\n      mul\n        /* \"@uniswap/v3-core/contracts/libraries/FullMath.sol\":4064:4085  2 - denominator * inv */\n      dup3\n      sub\n        /* \"@uniswap/v3-core/contracts/libraries/FullMath.sol\":4057:4085  inv *= 2 - denominator * inv */\n      mul\n        /* \"@uniswap/v3-core/contracts/libraries/FullMath.sol\":4131:4148  denominator * inv */\n      dup1\n      dup11\n      mul\n        /* \"@uniswap/v3-core/contracts/libraries/FullMath.sol\":4127:4148  2 - denominator * inv */\n      dup3\n      sub\n        /* \"@uniswap/v3-core/contracts/libraries/FullMath.sol\":4120:4148  inv *= 2 - denominator * inv */\n      mul\n        /* \"@uniswap/v3-core/contracts/libraries/FullMath.sol\":4194:4211  denominator * inv */\n      dup1\n      dup11\n      mul\n        /* \"@uniswap/v3-core/contracts/libraries/FullMath.sol\":4190:4211  2 - denominator * inv */\n      dup3\n      sub\n        /* \"@uniswap/v3-core/contracts/libraries/FullMath.sol\":4183:4211  inv *= 2 - denominator * inv */\n      mul\n        /* \"@uniswap/v3-core/contracts/libraries/FullMath.sol\":4257:4274  denominator * inv */\n      dup1\n      dup11\n      mul\n        /* \"@uniswap/v3-core/contracts/libraries/FullMath.sol\":4253:4274  2 - denominator * inv */\n      dup3\n      sub\n        /* \"@uniswap/v3-core/contracts/libraries/FullMath.sol\":4246:4274  inv *= 2 - denominator * inv */\n      mul\n        /* \"@uniswap/v3-core/contracts/libraries/FullMath.sol\":4321:4338  denominator * inv */\n      dup1\n      dup11\n      mul\n        /* \"@uniswap/v3-core/contracts/libraries/FullMath.sol\":4317:4338  2 - denominator * inv */\n      swap1\n      swap2\n      sub\n        /* \"@uniswap/v3-core/contracts/libraries/FullMath.sol\":4310:4338  inv *= 2 - denominator * inv */\n      mul\n        /* \"@uniswap/v3-core/contracts/libraries/FullMath.sol\":3300:3312  sub(0, twos) */\n      swap2\n      dup2\n      swap1\n      sub\n        /* \"@uniswap/v3-core/contracts/libraries/FullMath.sol\":3296:3319  div(sub(0, twos), twos) */\n      dup2\n      swap1\n      div\n        /* \"@uniswap/v3-core/contracts/libraries/FullMath.sol\":3321:3322  1 */\n      0x01\n        /* \"@uniswap/v3-core/contracts/libraries/FullMath.sol\":3292:3323  add(div(sub(0, twos), twos), 1) */\n      add\n        /* \"@uniswap/v3-core/contracts/libraries/FullMath.sol\":2489:2509  gt(remainder, prod0) */\n      dup7\n      dup5\n      gt\n        /* \"@uniswap/v3-core/contracts/libraries/FullMath.sol\":2478:2510  sub(prod1, gt(remainder, prod0)) */\n      swap1\n      swap6\n      sub\n        /* \"@uniswap/v3-core/contracts/libraries/FullMath.sol\":3359:3371  prod1 * twos */\n      swap5\n      swap1\n      swap5\n      mul\n        /* \"@uniswap/v3-core/contracts/libraries/FullMath.sol\":2536:2557  sub(prod0, remainder) */\n      swap2\n      swap1\n      swap5\n      sub\n        /* \"@uniswap/v3-core/contracts/libraries/FullMath.sol\":3032:3048  div(prod0, twos) */\n      swap3\n      swap1\n      swap3\n      div\n        /* \"@uniswap/v3-core/contracts/libraries/FullMath.sol\":3350:3371  prod0 |= prod1 * twos */\n      swap2\n      swap1\n      swap2\n      or\n        /* \"@uniswap/v3-core/contracts/libraries/FullMath.sol\":4813:4824  prod0 * inv */\n      swap2\n      swap1\n      swap2\n      mul\n      swap2\n      pop\n      pop\n        /* \"@uniswap/v3-core/contracts/libraries/FullMath.sol\":741:4868  function mulDiv(... */\n      swap4\n      swap3\n      pop\n      pop\n      pop\n      jump\t// out\n        /* \"#utility.yul\":14:145   */\n    tag_292:\n      sub(shl(0xa0, 0x01), 0x01)\n        /* \"#utility.yul\":89:120   */\n      dup2\n      and\n        /* \"#utility.yul\":79:121   */\n      dup2\n      eq\n        /* \"#utility.yul\":69:139   */\n      tag_91\n      jumpi\n        /* \"#utility.yul\":135:136   */\n      0x00\n        /* \"#utility.yul\":132:133   */\n      dup1\n        /* \"#utility.yul\":125:137   */\n      revert\n        /* \"#utility.yul\":150:397   */\n    tag_14:\n        /* \"#utility.yul\":209:215   */\n      0x00\n        /* \"#utility.yul\":262:264   */\n      0x20\n        /* \"#utility.yul\":250:259   */\n      dup3\n        /* \"#utility.yul\":241:248   */\n      dup5\n        /* \"#utility.yul\":237:260   */\n      sub\n        /* \"#utility.yul\":233:265   */\n      slt\n        /* \"#utility.yul\":230:282   */\n      iszero\n      tag_310\n      jumpi\n        /* \"#utility.yul\":278:279   */\n      0x00\n        /* \"#utility.yul\":275:276   */\n      dup1\n        /* \"#utility.yul\":268:280   */\n      revert\n        /* \"#utility.yul\":230:282   */\n    tag_310:\n        /* \"#utility.yul\":317:326   */\n      dup2\n        /* \"#utility.yul\":304:327   */\n      calldataload\n        /* \"#utility.yul\":336:367   */\n      tag_212\n        /* \"#utility.yul\":361:366   */\n      dup2\n        /* \"#utility.yul\":336:367   */\n      tag_292\n      jump\t// in\n        /* \"#utility.yul\":1961:2075   */\n    tag_293:\n        /* \"#utility.yul\":2045:2049   */\n      0xff\n        /* \"#utility.yul\":2038:2043   */\n      dup2\n        /* \"#utility.yul\":2034:2050   */\n      and\n        /* \"#utility.yul\":2027:2032   */\n      dup2\n        /* \"#utility.yul\":2024:2051   */\n      eq\n        /* \"#utility.yul\":2014:2069   */\n      tag_91\n      jumpi\n        /* \"#utility.yul\":2065:2066   */\n      0x00\n        /* \"#utility.yul\":2062:2063   */\n      dup1\n        /* \"#utility.yul\":2055:2067   */\n      revert\n        /* \"#utility.yul\":2080:2885   */\n    tag_36:\n        /* \"#utility.yul\":2171:2177   */\n      0x00\n        /* \"#utility.yul\":2179:2185   */\n      dup1\n        /* \"#utility.yul\":2187:2193   */\n      0x00\n        /* \"#utility.yul\":2195:2201   */\n      dup1\n        /* \"#utility.yul\":2203:2209   */\n      0x00\n        /* \"#utility.yul\":2256:2259   */\n      0xa0\n        /* \"#utility.yul\":2244:2253   */\n      dup7\n        /* \"#utility.yul\":2235:2242   */\n      dup9\n        /* \"#utility.yul\":2231:2254   */\n      sub\n        /* \"#utility.yul\":2227:2260   */\n      slt\n        /* \"#utility.yul\":2224:2277   */\n      iszero\n      tag_319\n      jumpi\n        /* \"#utility.yul\":2273:2274   */\n      0x00\n        /* \"#utility.yul\":2270:2271   */\n      dup1\n        /* \"#utility.yul\":2263:2275   */\n      revert\n        /* \"#utility.yul\":2224:2277   */\n    tag_319:\n        /* \"#utility.yul\":2312:2321   */\n      dup6\n        /* \"#utility.yul\":2299:2322   */\n      calldataload\n        /* \"#utility.yul\":2331:2362   */\n      tag_320\n        /* \"#utility.yul\":2356:2361   */\n      dup2\n        /* \"#utility.yul\":2331:2362   */\n      tag_292\n      jump\t// in\n    tag_320:\n        /* \"#utility.yul\":2381:2386   */\n      swap5\n      pop\n        /* \"#utility.yul\":2438:2440   */\n      0x20\n        /* \"#utility.yul\":2423:2441   */\n      dup7\n      add\n        /* \"#utility.yul\":2410:2442   */\n      calldataload\n        /* \"#utility.yul\":2451:2484   */\n      tag_321\n        /* \"#utility.yul\":2410:2442   */\n      dup2\n        /* \"#utility.yul\":2451:2484   */\n      tag_292\n      jump\t// in\n    tag_321:\n        /* \"#utility.yul\":2503:2510   */\n      swap4\n      pop\n        /* \"#utility.yul\":2562:2564   */\n      0x40\n        /* \"#utility.yul\":2547:2565   */\n      dup7\n      add\n        /* \"#utility.yul\":2534:2566   */\n      calldataload\n        /* \"#utility.yul\":2575:2608   */\n      tag_322\n        /* \"#utility.yul\":2534:2566   */\n      dup2\n        /* \"#utility.yul\":2575:2608   */\n      tag_292\n      jump\t// in\n    tag_322:\n        /* \"#utility.yul\":2627:2634   */\n      swap3\n      pop\n        /* \"#utility.yul\":2686:2688   */\n      0x60\n        /* \"#utility.yul\":2671:2689   */\n      dup7\n      add\n        /* \"#utility.yul\":2658:2690   */\n      calldataload\n        /* \"#utility.yul\":2699:2730   */\n      tag_323\n        /* \"#utility.yul\":2658:2690   */\n      dup2\n        /* \"#utility.yul\":2699:2730   */\n      tag_293\n      jump\t// in\n    tag_323:\n        /* \"#utility.yul\":2749:2756   */\n      swap2\n      pop\n        /* \"#utility.yul\":2808:2811   */\n      0x80\n        /* \"#utility.yul\":2793:2812   */\n      dup7\n      add\n        /* \"#utility.yul\":2780:2813   */\n      calldataload\n        /* \"#utility.yul\":2822:2853   */\n      tag_324\n        /* \"#utility.yul\":2780:2813   */\n      dup2\n        /* \"#utility.yul\":2822:2853   */\n      tag_293\n      jump\t// in\n    tag_324:\n        /* \"#utility.yul\":2872:2879   */\n      dup1\n        /* \"#utility.yul\":2862:2879   */\n      swap2\n      pop\n      pop\n        /* \"#utility.yul\":2080:2885   */\n      swap3\n      swap6\n      pop\n      swap3\n      swap6\n      swap1\n      swap4\n      pop\n      jump\t// out\n        /* \"#utility.yul\":2890:3008   */\n    tag_294:\n        /* \"#utility.yul\":2976:2981   */\n      dup1\n        /* \"#utility.yul\":2969:2982   */\n      iszero\n        /* \"#utility.yul\":2962:2983   */\n      iszero\n        /* \"#utility.yul\":2955:2960   */\n      dup2\n        /* \"#utility.yul\":2952:2984   */\n      eq\n        /* \"#utility.yul\":2942:3002   */\n      tag_91\n      jumpi\n        /* \"#utility.yul\":2998:2999   */\n      0x00\n        /* \"#utility.yul\":2995:2996   */\n      dup1\n        /* \"#utility.yul\":2988:3000   */\n      revert\n        /* \"#utility.yul\":3013:3952   */\n    tag_40:\n        /* \"#utility.yul\":3109:3115   */\n      0x00\n        /* \"#utility.yul\":3117:3123   */\n      dup1\n        /* \"#utility.yul\":3125:3131   */\n      0x00\n        /* \"#utility.yul\":3133:3139   */\n      dup1\n        /* \"#utility.yul\":3141:3147   */\n      0x00\n        /* \"#utility.yul\":3149:3155   */\n      dup1\n        /* \"#utility.yul\":3202:3205   */\n      0xc0\n        /* \"#utility.yul\":3190:3199   */\n      dup8\n        /* \"#utility.yul\":3181:3188   */\n      dup10\n        /* \"#utility.yul\":3177:3200   */\n      sub\n        /* \"#utility.yul\":3173:3206   */\n      slt\n        /* \"#utility.yul\":3170:3223   */\n      iszero\n      tag_328\n      jumpi\n        /* \"#utility.yul\":3219:3220   */\n      0x00\n        /* \"#utility.yul\":3216:3217   */\n      dup1\n        /* \"#utility.yul\":3209:3221   */\n      revert\n        /* \"#utility.yul\":3170:3223   */\n    tag_328:\n        /* \"#utility.yul\":3258:3267   */\n      dup7\n        /* \"#utility.yul\":3245:3268   */\n      calldataload\n        /* \"#utility.yul\":3277:3308   */\n      tag_329\n        /* \"#utility.yul\":3302:3307   */\n      dup2\n        /* \"#utility.yul\":3277:3308   */\n      tag_292\n      jump\t// in\n    tag_329:\n        /* \"#utility.yul\":3327:3332   */\n      swap6\n      pop\n        /* \"#utility.yul\":3384:3386   */\n      0x20\n        /* \"#utility.yul\":3369:3387   */\n      dup8\n      add\n        /* \"#utility.yul\":3356:3388   */\n      calldataload\n        /* \"#utility.yul\":3397:3430   */\n      tag_330\n        /* \"#utility.yul\":3356:3388   */\n      dup2\n        /* \"#utility.yul\":3397:3430   */\n      tag_292\n      jump\t// in\n    tag_330:\n        /* \"#utility.yul\":3449:3456   */\n      swap5\n      pop\n        /* \"#utility.yul\":3508:3510   */\n      0x40\n        /* \"#utility.yul\":3493:3511   */\n      dup8\n      add\n        /* \"#utility.yul\":3480:3512   */\n      calldataload\n        /* \"#utility.yul\":3521:3554   */\n      tag_331\n        /* \"#utility.yul\":3480:3512   */\n      dup2\n        /* \"#utility.yul\":3521:3554   */\n      tag_292\n      jump\t// in\n    tag_331:\n        /* \"#utility.yul\":3573:3580   */\n      swap4\n      pop\n        /* \"#utility.yul\":3632:3634   */\n      0x60\n        /* \"#utility.yul\":3617:3635   */\n      dup8\n      add\n        /* \"#utility.yul\":3604:3636   */\n      calldataload\n        /* \"#utility.yul\":3645:3675   */\n      tag_332\n        /* \"#utility.yul\":3604:3636   */\n      dup2\n        /* \"#utility.yul\":3645:3675   */\n      tag_294\n      jump\t// in\n    tag_332:\n        /* \"#utility.yul\":3694:3701   */\n      swap3\n      pop\n        /* \"#utility.yul\":3753:3756   */\n      0x80\n        /* \"#utility.yul\":3738:3757   */\n      dup8\n      add\n        /* \"#utility.yul\":3725:3758   */\n      calldataload\n        /* \"#utility.yul\":3767:3798   */\n      tag_333\n        /* \"#utility.yul\":3725:3758   */\n      dup2\n        /* \"#utility.yul\":3767:3798   */\n      tag_293\n      jump\t// in\n    tag_333:\n        /* \"#utility.yul\":3817:3824   */\n      swap2\n      pop\n        /* \"#utility.yul\":3876:3879   */\n      0xa0\n        /* \"#utility.yul\":3861:3880   */\n      dup8\n      add\n        /* \"#utility.yul\":3848:3881   */\n      calldataload\n        /* \"#utility.yul\":3890:3920   */\n      tag_334\n        /* \"#utility.yul\":3848:3881   */\n      dup2\n        /* \"#utility.yul\":3890:3920   */\n      tag_294\n      jump\t// in\n    tag_334:\n        /* \"#utility.yul\":3939:3946   */\n      dup1\n        /* \"#utility.yul\":3929:3946   */\n      swap2\n      pop\n      pop\n        /* \"#utility.yul\":3013:3952   */\n      swap3\n      swap6\n      pop\n      swap3\n      swap6\n      pop\n      swap3\n      swap6\n      jump\t// out\n        /* \"#utility.yul\":7632:7883   */\n    tag_114:\n        /* \"#utility.yul\":7702:7708   */\n      0x00\n        /* \"#utility.yul\":7755:7757   */\n      0x20\n        /* \"#utility.yul\":7743:7752   */\n      dup3\n        /* \"#utility.yul\":7734:7741   */\n      dup5\n        /* \"#utility.yul\":7730:7753   */\n      sub\n        /* \"#utility.yul\":7726:7758   */\n      slt\n        /* \"#utility.yul\":7723:7775   */\n      iszero\n      tag_345\n      jumpi\n        /* \"#utility.yul\":7771:7772   */\n      0x00\n        /* \"#utility.yul\":7768:7769   */\n      dup1\n        /* \"#utility.yul\":7761:7773   */\n      revert\n        /* \"#utility.yul\":7723:7775   */\n    tag_345:\n        /* \"#utility.yul\":7803:7812   */\n      dup2\n        /* \"#utility.yul\":7797:7813   */\n      mload\n        /* \"#utility.yul\":7822:7853   */\n      tag_212\n        /* \"#utility.yul\":7847:7852   */\n      dup2\n        /* \"#utility.yul\":7822:7853   */\n      tag_292\n      jump\t// in\n        /* \"#utility.yul\":7888:8015   */\n    tag_295:\n        /* \"#utility.yul\":7949:7959   */\n      0x4e487b71\n        /* \"#utility.yul\":7944:7947   */\n      0xe0\n        /* \"#utility.yul\":7940:7960   */\n      shl\n        /* \"#utility.yul\":7937:7938   */\n      0x00\n        /* \"#utility.yul\":7930:7961   */\n      mstore\n        /* \"#utility.yul\":7980:7984   */\n      0x11\n        /* \"#utility.yul\":7977:7978   */\n      0x04\n        /* \"#utility.yul\":7970:7985   */\n      mstore\n        /* \"#utility.yul\":8004:8008   */\n      0x24\n        /* \"#utility.yul\":8001:8002   */\n      0x00\n        /* \"#utility.yul\":7994:8009   */\n      revert\n        /* \"#utility.yul\":8020:8145   */\n    tag_119:\n        /* \"#utility.yul\":8085:8094   */\n      dup1\n      dup3\n      add\n        /* \"#utility.yul\":8106:8116   */\n      dup1\n      dup3\n      gt\n        /* \"#utility.yul\":8103:8139   */\n      iszero\n      tag_220\n      jumpi\n        /* \"#utility.yul\":8119:8137   */\n      tag_220\n      tag_295\n      jump\t// in\n        /* \"#utility.yul\":8150:8277   */\n    tag_250:\n        /* \"#utility.yul\":8211:8221   */\n      0x4e487b71\n        /* \"#utility.yul\":8206:8209   */\n      0xe0\n        /* \"#utility.yul\":8202:8222   */\n      shl\n        /* \"#utility.yul\":8199:8200   */\n      0x00\n        /* \"#utility.yul\":8192:8223   */\n      mstore\n        /* \"#utility.yul\":8242:8246   */\n      0x12\n        /* \"#utility.yul\":8239:8240   */\n      0x04\n        /* \"#utility.yul\":8232:8247   */\n      mstore\n        /* \"#utility.yul\":8266:8270   */\n      0x24\n        /* \"#utility.yul\":8263:8264   */\n      0x00\n        /* \"#utility.yul\":8256:8271   */\n      revert\n        /* \"#utility.yul\":8282:8499   */\n    tag_126:\n        /* \"#utility.yul\":8322:8323   */\n      0x00\n        /* \"#utility.yul\":8348:8349   */\n      dup3\n        /* \"#utility.yul\":8338:8470   */\n      tag_353\n      jumpi\n        /* \"#utility.yul\":8392:8402   */\n      0x4e487b71\n        /* \"#utility.yul\":8387:8390   */\n      0xe0\n        /* \"#utility.yul\":8383:8403   */\n      shl\n        /* \"#utility.yul\":8380:8381   */\n      0x00\n        /* \"#utility.yul\":8373:8404   */\n      mstore\n        /* \"#utility.yul\":8427:8431   */\n      0x12\n        /* \"#utility.yul\":8424:8425   */\n      0x04\n        /* \"#utility.yul\":8417:8432   */\n      mstore\n        /* \"#utility.yul\":8455:8459   */\n      0x24\n        /* \"#utility.yul\":8452:8453   */\n      0x00\n        /* \"#utility.yul\":8445:8460   */\n      revert\n        /* \"#utility.yul\":8338:8470   */\n    tag_353:\n      pop\n        /* \"#utility.yul\":8484:8493   */\n      div\n      swap1\n        /* \"#utility.yul\":8282:8499   */\n      jump\t// out\n        /* \"#utility.yul\":8865:9115   */\n    tag_296:\n        /* \"#utility.yul\":8950:8951   */\n      0x00\n        /* \"#utility.yul\":8960:9073   */\n    tag_356:\n        /* \"#utility.yul\":8974:8980   */\n      dup4\n        /* \"#utility.yul\":8971:8972   */\n      dup2\n        /* \"#utility.yul\":8968:8981   */\n      lt\n        /* \"#utility.yul\":8960:9073   */\n      iszero\n      tag_358\n      jumpi\n        /* \"#utility.yul\":9050:9061   */\n      dup2\n      dup2\n      add\n        /* \"#utility.yul\":9044:9062   */\n      mload\n        /* \"#utility.yul\":9031:9042   */\n      dup4\n      dup3\n      add\n        /* \"#utility.yul\":9024:9063   */\n      mstore\n        /* \"#utility.yul\":8996:8998   */\n      0x20\n        /* \"#utility.yul\":8989:8999   */\n      add\n        /* \"#utility.yul\":8960:9073   */\n      jump(tag_356)\n    tag_358:\n      pop\n      pop\n        /* \"#utility.yul\":9107:9108   */\n      0x00\n        /* \"#utility.yul\":9089:9105   */\n      swap2\n      add\n        /* \"#utility.yul\":9082:9109   */\n      mstore\n        /* \"#utility.yul\":8865:9115   */\n      jump\t// out\n        /* \"#utility.yul\":9120:9407   */\n    tag_138:\n        /* \"#utility.yul\":9249:9252   */\n      0x00\n        /* \"#utility.yul\":9287:9293   */\n      dup3\n        /* \"#utility.yul\":9281:9294   */\n      mload\n        /* \"#utility.yul\":9303:9369   */\n      tag_360\n        /* \"#utility.yul\":9362:9368   */\n      dup2\n        /* \"#utility.yul\":9357:9360   */\n      dup5\n        /* \"#utility.yul\":9350:9354   */\n      0x20\n        /* \"#utility.yul\":9342:9348   */\n      dup8\n        /* \"#utility.yul\":9338:9355   */\n      add\n        /* \"#utility.yul\":9303:9369   */\n      tag_296\n      jump\t// in\n    tag_360:\n        /* \"#utility.yul\":9385:9401   */\n      swap2\n      swap1\n      swap2\n      add\n      swap3\n        /* \"#utility.yul\":9120:9407   */\n      swap2\n      pop\n      pop\n      jump\t// out\n        /* \"#utility.yul\":9412:9591   */\n    tag_297:\n        /* \"#utility.yul\":9490:9503   */\n      dup1\n      mload\n        /* \"#utility.yul\":9543:9565   */\n      0xffffffffffffffffffff\n        /* \"#utility.yul\":9532:9566   */\n      dup2\n      and\n        /* \"#utility.yul\":9522:9567   */\n      dup2\n      eq\n        /* \"#utility.yul\":9512:9585   */\n      tag_362\n      jumpi\n        /* \"#utility.yul\":9581:9582   */\n      0x00\n        /* \"#utility.yul\":9578:9579   */\n      dup1\n        /* \"#utility.yul\":9571:9583   */\n      revert\n        /* \"#utility.yul\":9512:9585   */\n    tag_362:\n        /* \"#utility.yul\":9412:9591   */\n      swap2\n      swap1\n      pop\n      jump\t// out\n        /* \"#utility.yul\":9596:10167   */\n    tag_145:\n        /* \"#utility.yul\":9699:9705   */\n      0x00\n        /* \"#utility.yul\":9707:9713   */\n      dup1\n        /* \"#utility.yul\":9715:9721   */\n      0x00\n        /* \"#utility.yul\":9723:9729   */\n      dup1\n        /* \"#utility.yul\":9731:9737   */\n      0x00\n        /* \"#utility.yul\":9784:9787   */\n      0xa0\n        /* \"#utility.yul\":9772:9781   */\n      dup7\n        /* \"#utility.yul\":9763:9770   */\n      dup9\n        /* \"#utility.yul\":9759:9782   */\n      sub\n        /* \"#utility.yul\":9755:9788   */\n      slt\n        /* \"#utility.yul\":9752:9805   */\n      iszero\n      tag_364\n      jumpi\n        /* \"#utility.yul\":9801:9802   */\n      0x00\n        /* \"#utility.yul\":9798:9799   */\n      dup1\n        /* \"#utility.yul\":9791:9803   */\n      revert\n        /* \"#utility.yul\":9752:9805   */\n    tag_364:\n        /* \"#utility.yul\":9824:9863   */\n      tag_365\n        /* \"#utility.yul\":9853:9862   */\n      dup7\n        /* \"#utility.yul\":9824:9863   */\n      tag_297\n      jump\t// in\n    tag_365:\n        /* \"#utility.yul\":9903:9905   */\n      0x20\n        /* \"#utility.yul\":9888:9906   */\n      dup8\n      add\n        /* \"#utility.yul\":9882:9907   */\n      mload\n        /* \"#utility.yul\":9969:9971   */\n      0x40\n        /* \"#utility.yul\":9954:9972   */\n      dup9\n      add\n        /* \"#utility.yul\":9948:9973   */\n      mload\n        /* \"#utility.yul\":10063:10065   */\n      0x60\n        /* \"#utility.yul\":10048:10066   */\n      dup10\n      add\n        /* \"#utility.yul\":10042:10067   */\n      mload\n        /* \"#utility.yul\":9814:9863   */\n      swap3\n      swap8\n      pop\n        /* \"#utility.yul\":9882:9907   */\n      swap1\n      swap6\n      pop\n        /* \"#utility.yul\":9948:9973   */\n      swap4\n      pop\n        /* \"#utility.yul\":10042:10067   */\n      swap2\n      pop\n        /* \"#utility.yul\":10112:10161   */\n      tag_366\n        /* \"#utility.yul\":10156:10159   */\n      0x80\n        /* \"#utility.yul\":10141:10160   */\n      dup8\n      add\n        /* \"#utility.yul\":10112:10161   */\n      tag_297\n      jump\t// in\n    tag_366:\n        /* \"#utility.yul\":10102:10161   */\n      swap1\n      pop\n        /* \"#utility.yul\":9596:10167   */\n      swap3\n      swap6\n      pop\n      swap3\n      swap6\n      swap1\n      swap4\n      pop\n      jump\t// out\n        /* \"#utility.yul\":10172:10419   */\n    tag_155:\n        /* \"#utility.yul\":10240:10246   */\n      0x00\n        /* \"#utility.yul\":10293:10295   */\n      0x20\n        /* \"#utility.yul\":10281:10290   */\n      dup3\n        /* \"#utility.yul\":10272:10279   */\n      dup5\n        /* \"#utility.yul\":10268:10291   */\n      sub\n        /* \"#utility.yul\":10264:10296   */\n      slt\n        /* \"#utility.yul\":10261:10313   */\n      iszero\n      tag_368\n      jumpi\n        /* \"#utility.yul\":10309:10310   */\n      0x00\n        /* \"#utility.yul\":10306:10307   */\n      dup1\n        /* \"#utility.yul\":10299:10311   */\n      revert\n        /* \"#utility.yul\":10261:10313   */\n    tag_368:\n        /* \"#utility.yul\":10341:10350   */\n      dup2\n        /* \"#utility.yul\":10335:10351   */\n      mload\n        /* \"#utility.yul\":10360:10389   */\n      tag_212\n        /* \"#utility.yul\":10383:10388   */\n      dup2\n        /* \"#utility.yul\":10360:10389   */\n      tag_293\n      jump\t// in\n        /* \"#utility.yul\":10424:10654   */\n    tag_160:\n        /* \"#utility.yul\":10494:10500   */\n      0x00\n        /* \"#utility.yul\":10547:10549   */\n      0x20\n        /* \"#utility.yul\":10535:10544   */\n      dup3\n        /* \"#utility.yul\":10526:10533   */\n      dup5\n        /* \"#utility.yul\":10522:10545   */\n      sub\n        /* \"#utility.yul\":10518:10550   */\n      slt\n        /* \"#utility.yul\":10515:10567   */\n      iszero\n      tag_371\n      jumpi\n        /* \"#utility.yul\":10563:10564   */\n      0x00\n        /* \"#utility.yul\":10560:10561   */\n      dup1\n        /* \"#utility.yul\":10553:10565   */\n      revert\n        /* \"#utility.yul\":10515:10567   */\n    tag_371:\n      pop\n        /* \"#utility.yul\":10608:10624   */\n      mload\n      swap2\n        /* \"#utility.yul\":10424:10654   */\n      swap1\n      pop\n      jump\t// out\n        /* \"#utility.yul\":12006:12402   */\n    tag_189:\n        /* \"#utility.yul\":12155:12157   */\n      0x20\n        /* \"#utility.yul\":12144:12153   */\n      dup2\n        /* \"#utility.yul\":12137:12158   */\n      mstore\n        /* \"#utility.yul\":12118:12122   */\n      0x00\n        /* \"#utility.yul\":12187:12193   */\n      dup3\n        /* \"#utility.yul\":12181:12194   */\n      mload\n        /* \"#utility.yul\":12230:12236   */\n      dup1\n        /* \"#utility.yul\":12225:12227   */\n      0x20\n        /* \"#utility.yul\":12214:12223   */\n      dup5\n        /* \"#utility.yul\":12210:12228   */\n      add\n        /* \"#utility.yul\":12203:12237   */\n      mstore\n        /* \"#utility.yul\":12246:12325   */\n      tag_377\n        /* \"#utility.yul\":12318:12324   */\n      dup2\n        /* \"#utility.yul\":12313:12315   */\n      0x40\n        /* \"#utility.yul\":12302:12311   */\n      dup6\n        /* \"#utility.yul\":12298:12316   */\n      add\n        /* \"#utility.yul\":12293:12295   */\n      0x20\n        /* \"#utility.yul\":12285:12291   */\n      dup8\n        /* \"#utility.yul\":12281:12296   */\n      add\n        /* \"#utility.yul\":12246:12325   */\n      tag_296\n      jump\t// in\n    tag_377:\n        /* \"#utility.yul\":12386:12388   */\n      0x1f\n        /* \"#utility.yul\":12365:12380   */\n      add\n      not(0x1f)\n        /* \"#utility.yul\":12361:12390   */\n      and\n        /* \"#utility.yul\":12346:12391   */\n      swap2\n      swap1\n      swap2\n      add\n        /* \"#utility.yul\":12393:12395   */\n      0x40\n        /* \"#utility.yul\":12342:12396   */\n      add\n      swap3\n        /* \"#utility.yul\":12006:12402   */\n      swap2\n      pop\n      pop\n      jump\t// out\n        /* \"#utility.yul\":12407:12553   */\n    tag_298:\n        /* \"#utility.yul\":12494:12507   */\n      dup1\n      mload\n        /* \"#utility.yul\":12516:12547   */\n      tag_362\n        /* \"#utility.yul\":12494:12507   */\n      dup2\n        /* \"#utility.yul\":12516:12547   */\n      tag_292\n      jump\t// in\n        /* \"#utility.yul\":12558:12723   */\n    tag_299:\n        /* \"#utility.yul\":12636:12649   */\n      dup1\n      mload\n        /* \"#utility.yul\":12689:12697   */\n      0xffffff\n        /* \"#utility.yul\":12678:12698   */\n      dup2\n      and\n        /* \"#utility.yul\":12668:12699   */\n      dup2\n      eq\n        /* \"#utility.yul\":12658:12717   */\n      tag_362\n      jumpi\n        /* \"#utility.yul\":12713:12714   */\n      0x00\n        /* \"#utility.yul\":12710:12711   */\n      dup1\n        /* \"#utility.yul\":12703:12715   */\n      revert\n        /* \"#utility.yul\":12728:12892   */\n    tag_300:\n        /* \"#utility.yul\":12805:12818   */\n      dup1\n      mload\n        /* \"#utility.yul\":12858:12859   */\n      0x02\n        /* \"#utility.yul\":12847:12867   */\n      dup2\n      swap1\n      signextend\n        /* \"#utility.yul\":12837:12868   */\n      dup2\n      eq\n        /* \"#utility.yul\":12827:12886   */\n      tag_362\n      jumpi\n        /* \"#utility.yul\":12882:12883   */\n      0x00\n        /* \"#utility.yul\":12879:12880   */\n      dup1\n        /* \"#utility.yul\":12872:12884   */\n      revert\n        /* \"#utility.yul\":12897:13089   */\n    tag_301:\n        /* \"#utility.yul\":12976:12989   */\n      dup1\n      mload\n      sub(shl(0x80, 0x01), 0x01)\n        /* \"#utility.yul\":13018:13064   */\n      dup2\n      and\n        /* \"#utility.yul\":13008:13065   */\n      dup2\n      eq\n        /* \"#utility.yul\":12998:13083   */\n      tag_362\n      jumpi\n        /* \"#utility.yul\":13079:13080   */\n      0x00\n        /* \"#utility.yul\":13076:13077   */\n      dup1\n        /* \"#utility.yul\":13069:13081   */\n      revert\n        /* \"#utility.yul\":13094:14432   */\n    tag_191:\n        /* \"#utility.yul\":13281:13287   */\n      0x00\n        /* \"#utility.yul\":13289:13295   */\n      dup1\n        /* \"#utility.yul\":13297:13303   */\n      0x00\n        /* \"#utility.yul\":13305:13311   */\n      dup1\n        /* \"#utility.yul\":13313:13319   */\n      0x00\n        /* \"#utility.yul\":13321:13327   */\n      dup1\n        /* \"#utility.yul\":13329:13335   */\n      0x00\n        /* \"#utility.yul\":13337:13343   */\n      dup1\n        /* \"#utility.yul\":13345:13351   */\n      0x00\n        /* \"#utility.yul\":13353:13359   */\n      dup1\n        /* \"#utility.yul\":13361:13368   */\n      0x00\n        /* \"#utility.yul\":13370:13377   */\n      dup1\n        /* \"#utility.yul\":13424:13427   */\n      0x0180\n        /* \"#utility.yul\":13412:13421   */\n      dup14\n        /* \"#utility.yul\":13403:13410   */\n      dup16\n        /* \"#utility.yul\":13399:13422   */\n      sub\n        /* \"#utility.yul\":13395:13428   */\n      slt\n        /* \"#utility.yul\":13392:13445   */\n      iszero\n      tag_387\n      jumpi\n        /* \"#utility.yul\":13441:13442   */\n      0x00\n        /* \"#utility.yul\":13438:13439   */\n      dup1\n        /* \"#utility.yul\":13431:13443   */\n      revert\n        /* \"#utility.yul\":13392:13445   */\n    tag_387:\n        /* \"#utility.yul\":13473:13482   */\n      dup13\n        /* \"#utility.yul\":13467:13483   */\n      mload\n        /* \"#utility.yul\":13523:13549   */\n      0xffffffffffffffffffffffff\n        /* \"#utility.yul\":13516:13521   */\n      dup2\n        /* \"#utility.yul\":13512:13550   */\n      and\n        /* \"#utility.yul\":13505:13510   */\n      dup2\n        /* \"#utility.yul\":13502:13551   */\n      eq\n        /* \"#utility.yul\":13492:13569   */\n      tag_388\n      jumpi\n        /* \"#utility.yul\":13565:13566   */\n      0x00\n        /* \"#utility.yul\":13562:13563   */\n      dup1\n        /* \"#utility.yul\":13555:13567   */\n      revert\n        /* \"#utility.yul\":13492:13569   */\n    tag_388:\n        /* \"#utility.yul\":13588:13593   */\n      swap12\n      pop\n        /* \"#utility.yul\":13612:13669   */\n      tag_389\n        /* \"#utility.yul\":13665:13667   */\n      0x20\n        /* \"#utility.yul\":13650:13668   */\n      dup15\n      add\n        /* \"#utility.yul\":13612:13669   */\n      tag_298\n      jump\t// in\n    tag_389:\n        /* \"#utility.yul\":13602:13669   */\n      swap11\n      pop\n        /* \"#utility.yul\":13688:13745   */\n      tag_390\n        /* \"#utility.yul\":13741:13743   */\n      0x40\n        /* \"#utility.yul\":13730:13739   */\n      dup15\n        /* \"#utility.yul\":13726:13744   */\n      add\n        /* \"#utility.yul\":13688:13745   */\n      tag_298\n      jump\t// in\n    tag_390:\n        /* \"#utility.yul\":13678:13745   */\n      swap10\n      pop\n        /* \"#utility.yul\":13764:13821   */\n      tag_391\n        /* \"#utility.yul\":13817:13819   */\n      0x60\n        /* \"#utility.yul\":13806:13815   */\n      dup15\n        /* \"#utility.yul\":13802:13820   */\n      add\n        /* \"#utility.yul\":13764:13821   */\n      tag_298\n      jump\t// in\n    tag_391:\n        /* \"#utility.yul\":13754:13821   */\n      swap9\n      pop\n        /* \"#utility.yul\":13840:13889   */\n      tag_392\n        /* \"#utility.yul\":13884:13887   */\n      0x80\n        /* \"#utility.yul\":13873:13882   */\n      dup15\n        /* \"#utility.yul\":13869:13888   */\n      add\n        /* \"#utility.yul\":13840:13889   */\n      tag_299\n      jump\t// in\n    tag_392:\n        /* \"#utility.yul\":13830:13889   */\n      swap8\n      pop\n        /* \"#utility.yul\":13908:13956   */\n      tag_393\n        /* \"#utility.yul\":13951:13954   */\n      0xa0\n        /* \"#utility.yul\":13940:13949   */\n      dup15\n        /* \"#utility.yul\":13936:13955   */\n      add\n        /* \"#utility.yul\":13908:13956   */\n      tag_300\n      jump\t// in\n    tag_393:\n        /* \"#utility.yul\":13898:13956   */\n      swap7\n      pop\n        /* \"#utility.yul\":13975:14023   */\n      tag_394\n        /* \"#utility.yul\":14018:14021   */\n      0xc0\n        /* \"#utility.yul\":14007:14016   */\n      dup15\n        /* \"#utility.yul\":14003:14022   */\n      add\n        /* \"#utility.yul\":13975:14023   */\n      tag_300\n      jump\t// in\n    tag_394:\n        /* \"#utility.yul\":13965:14023   */\n      swap6\n      pop\n        /* \"#utility.yul\":14042:14092   */\n      tag_395\n        /* \"#utility.yul\":14087:14090   */\n      0xe0\n        /* \"#utility.yul\":14076:14085   */\n      dup15\n        /* \"#utility.yul\":14072:14091   */\n      add\n        /* \"#utility.yul\":14042:14092   */\n      tag_301\n      jump\t// in\n    tag_395:\n        /* \"#utility.yul\":14158:14161   */\n      0x0100\n        /* \"#utility.yul\":14143:14162   */\n      dup15\n      add\n        /* \"#utility.yul\":14137:14163   */\n      mload\n        /* \"#utility.yul\":14255:14258   */\n      0x0120\n        /* \"#utility.yul\":14240:14259   */\n      dup16\n      add\n        /* \"#utility.yul\":14234:14260   */\n      mload\n        /* \"#utility.yul\":14032:14092   */\n      swap2\n      swap7\n      pop\n        /* \"#utility.yul\":14137:14163   */\n      swap5\n      pop\n        /* \"#utility.yul\":14234:14260   */\n      swap3\n      pop\n        /* \"#utility.yul\":14306:14356   */\n      tag_396\n        /* \"#utility.yul\":14351:14354   */\n      0x0140\n        /* \"#utility.yul\":14336:14355   */\n      dup15\n      add\n        /* \"#utility.yul\":14306:14356   */\n      tag_301\n      jump\t// in\n    tag_396:\n        /* \"#utility.yul\":14295:14356   */\n      swap2\n      pop\n        /* \"#utility.yul\":14376:14426   */\n      tag_397\n        /* \"#utility.yul\":14421:14424   */\n      0x0160\n        /* \"#utility.yul\":14410:14419   */\n      dup15\n        /* \"#utility.yul\":14406:14425   */\n      add\n        /* \"#utility.yul\":14376:14426   */\n      tag_301\n      jump\t// in\n    tag_397:\n        /* \"#utility.yul\":14365:14426   */\n      swap1\n      pop\n        /* \"#utility.yul\":13094:14432   */\n      swap3\n      swap6\n      swap9\n      swap12\n      pop\n      swap3\n      swap6\n      swap9\n      swap12\n      pop\n      swap3\n      swap6\n      swap9\n      swap12\n      jump\t// out\n        /* \"#utility.yul\":14793:14956   */\n    tag_302:\n        /* \"#utility.yul\":14871:14884   */\n      dup1\n      mload\n        /* \"#utility.yul\":14924:14930   */\n      0xffff\n        /* \"#utility.yul\":14913:14931   */\n      dup2\n      and\n        /* \"#utility.yul\":14903:14932   */\n      dup2\n      eq\n        /* \"#utility.yul\":14893:14950   */\n      tag_362\n      jumpi\n        /* \"#utility.yul\":14946:14947   */\n      0x00\n        /* \"#utility.yul\":14943:14944   */\n      dup1\n        /* \"#utility.yul\":14936:14948   */\n      revert\n        /* \"#utility.yul\":14961:15804   */\n    tag_204:\n        /* \"#utility.yul\":15075:15081   */\n      0x00\n        /* \"#utility.yul\":15083:15089   */\n      dup1\n        /* \"#utility.yul\":15091:15097   */\n      0x00\n        /* \"#utility.yul\":15099:15105   */\n      dup1\n        /* \"#utility.yul\":15107:15113   */\n      0x00\n        /* \"#utility.yul\":15115:15121   */\n      dup1\n        /* \"#utility.yul\":15123:15129   */\n      0x00\n        /* \"#utility.yul\":15176:15179   */\n      0xe0\n        /* \"#utility.yul\":15164:15173   */\n      dup9\n        /* \"#utility.yul\":15155:15162   */\n      dup11\n        /* \"#utility.yul\":15151:15174   */\n      sub\n        /* \"#utility.yul\":15147:15180   */\n      slt\n        /* \"#utility.yul\":15144:15197   */\n      iszero\n      tag_402\n      jumpi\n        /* \"#utility.yul\":15193:15194   */\n      0x00\n        /* \"#utility.yul\":15190:15191   */\n      dup1\n        /* \"#utility.yul\":15183:15195   */\n      revert\n        /* \"#utility.yul\":15144:15197   */\n    tag_402:\n        /* \"#utility.yul\":15225:15234   */\n      dup8\n        /* \"#utility.yul\":15219:15235   */\n      mload\n        /* \"#utility.yul\":15244:15275   */\n      tag_403\n        /* \"#utility.yul\":15269:15274   */\n      dup2\n        /* \"#utility.yul\":15244:15275   */\n      tag_292\n      jump\t// in\n    tag_403:\n        /* \"#utility.yul\":15294:15299   */\n      swap7\n      pop\n        /* \"#utility.yul\":15318:15365   */\n      tag_404\n        /* \"#utility.yul\":15361:15363   */\n      0x20\n        /* \"#utility.yul\":15346:15364   */\n      dup10\n      add\n        /* \"#utility.yul\":15318:15365   */\n      tag_300\n      jump\t// in\n    tag_404:\n        /* \"#utility.yul\":15308:15365   */\n      swap6\n      pop\n        /* \"#utility.yul\":15384:15432   */\n      tag_405\n        /* \"#utility.yul\":15428:15430   */\n      0x40\n        /* \"#utility.yul\":15417:15426   */\n      dup10\n        /* \"#utility.yul\":15413:15431   */\n      add\n        /* \"#utility.yul\":15384:15432   */\n      tag_302\n      jump\t// in\n    tag_405:\n        /* \"#utility.yul\":15374:15432   */\n      swap5\n      pop\n        /* \"#utility.yul\":15451:15499   */\n      tag_406\n        /* \"#utility.yul\":15495:15497   */\n      0x60\n        /* \"#utility.yul\":15484:15493   */\n      dup10\n        /* \"#utility.yul\":15480:15498   */\n      add\n        /* \"#utility.yul\":15451:15499   */\n      tag_302\n      jump\t// in\n    tag_406:\n        /* \"#utility.yul\":15441:15499   */\n      swap4\n      pop\n        /* \"#utility.yul\":15518:15567   */\n      tag_407\n        /* \"#utility.yul\":15562:15565   */\n      0x80\n        /* \"#utility.yul\":15551:15560   */\n      dup10\n        /* \"#utility.yul\":15547:15566   */\n      add\n        /* \"#utility.yul\":15518:15567   */\n      tag_302\n      jump\t// in\n    tag_407:\n        /* \"#utility.yul\":15508:15567   */\n      swap3\n      pop\n        /* \"#utility.yul\":15612:15615   */\n      0xa0\n        /* \"#utility.yul\":15601:15610   */\n      dup9\n        /* \"#utility.yul\":15597:15616   */\n      add\n        /* \"#utility.yul\":15591:15617   */\n      mload\n        /* \"#utility.yul\":15626:15657   */\n      tag_408\n        /* \"#utility.yul\":15649:15656   */\n      dup2\n        /* \"#utility.yul\":15626:15657   */\n      tag_293\n      jump\t// in\n    tag_408:\n        /* \"#utility.yul\":15728:15731   */\n      0xc0\n        /* \"#utility.yul\":15713:15732   */\n      dup10\n      add\n        /* \"#utility.yul\":15707:15733   */\n      mload\n        /* \"#utility.yul\":15676:15683   */\n      swap1\n      swap3\n      pop\n        /* \"#utility.yul\":15742:15772   */\n      tag_409\n        /* \"#utility.yul\":15707:15733   */\n      dup2\n        /* \"#utility.yul\":15742:15772   */\n      tag_294\n      jump\t// in\n    tag_409:\n        /* \"#utility.yul\":15791:15798   */\n      dup1\n        /* \"#utility.yul\":15781:15798   */\n      swap2\n      pop\n      pop\n        /* \"#utility.yul\":14961:15804   */\n      swap3\n      swap6\n      swap9\n      swap2\n      swap5\n      swap8\n      pop\n      swap3\n      swap6\n      pop\n      jump\t// out\n        /* \"#utility.yul\":15809:15936   */\n    tag_303:\n        /* \"#utility.yul\":15870:15880   */\n      0x4e487b71\n        /* \"#utility.yul\":15865:15868   */\n      0xe0\n        /* \"#utility.yul\":15861:15881   */\n      shl\n        /* \"#utility.yul\":15858:15859   */\n      0x00\n        /* \"#utility.yul\":15851:15882   */\n      mstore\n        /* \"#utility.yul\":15901:15905   */\n      0x41\n        /* \"#utility.yul\":15898:15899   */\n      0x04\n        /* \"#utility.yul\":15891:15906   */\n      mstore\n        /* \"#utility.yul\":15925:15929   */\n      0x24\n        /* \"#utility.yul\":15922:15923   */\n      0x00\n        /* \"#utility.yul\":15915:15930   */\n      revert\n        /* \"#utility.yul\":15941:16857   */\n    tag_221:\n        /* \"#utility.yul\":16021:16027   */\n      0x00\n        /* \"#utility.yul\":16074:16076   */\n      0x20\n        /* \"#utility.yul\":16062:16071   */\n      dup3\n        /* \"#utility.yul\":16053:16060   */\n      dup5\n        /* \"#utility.yul\":16049:16072   */\n      sub\n        /* \"#utility.yul\":16045:16077   */\n      slt\n        /* \"#utility.yul\":16042:16094   */\n      iszero\n      tag_412\n      jumpi\n        /* \"#utility.yul\":16090:16091   */\n      0x00\n        /* \"#utility.yul\":16087:16088   */\n      dup1\n        /* \"#utility.yul\":16080:16092   */\n      revert\n        /* \"#utility.yul\":16042:16094   */\n    tag_412:\n        /* \"#utility.yul\":16123:16132   */\n      dup2\n        /* \"#utility.yul\":16117:16133   */\n      mload\n        /* \"#utility.yul\":16156:16174   */\n      0xffffffffffffffff\n        /* \"#utility.yul\":16148:16154   */\n      dup2\n        /* \"#utility.yul\":16145:16175   */\n      gt\n        /* \"#utility.yul\":16142:16192   */\n      iszero\n      tag_413\n      jumpi\n        /* \"#utility.yul\":16188:16189   */\n      0x00\n        /* \"#utility.yul\":16185:16186   */\n      dup1\n        /* \"#utility.yul\":16178:16190   */\n      revert\n        /* \"#utility.yul\":16142:16192   */\n    tag_413:\n        /* \"#utility.yul\":16211:16233   */\n      dup3\n      add\n        /* \"#utility.yul\":16264:16268   */\n      0x1f\n        /* \"#utility.yul\":16256:16269   */\n      dup2\n      add\n        /* \"#utility.yul\":16252:16279   */\n      dup5\n      sgt\n        /* \"#utility.yul\":16242:16297   */\n      tag_414\n      jumpi\n        /* \"#utility.yul\":16293:16294   */\n      0x00\n        /* \"#utility.yul\":16290:16291   */\n      dup1\n        /* \"#utility.yul\":16283:16295   */\n      revert\n        /* \"#utility.yul\":16242:16297   */\n    tag_414:\n        /* \"#utility.yul\":16326:16328   */\n      dup1\n        /* \"#utility.yul\":16320:16329   */\n      mload\n        /* \"#utility.yul\":16352:16370   */\n      0xffffffffffffffff\n        /* \"#utility.yul\":16344:16350   */\n      dup2\n        /* \"#utility.yul\":16341:16371   */\n      gt\n        /* \"#utility.yul\":16338:16394   */\n      iszero\n      tag_416\n      jumpi\n        /* \"#utility.yul\":16374:16392   */\n      tag_416\n      tag_303\n      jump\t// in\n    tag_416:\n        /* \"#utility.yul\":16423:16425   */\n      0x40\n        /* \"#utility.yul\":16417:16426   */\n      mload\n        /* \"#utility.yul\":16515:16517   */\n      0x1f\n        /* \"#utility.yul\":16477:16494   */\n      dup3\n      add\n      not(0x1f)\n        /* \"#utility.yul\":16473:16504   */\n      swap1\n      dup2\n      and\n        /* \"#utility.yul\":16506:16508   */\n      0x3f\n        /* \"#utility.yul\":16469:16509   */\n      add\n        /* \"#utility.yul\":16465:16519   */\n      and\n        /* \"#utility.yul\":16453:16520   */\n      dup2\n      add\n        /* \"#utility.yul\":16550:16568   */\n      0xffffffffffffffff\n        /* \"#utility.yul\":16535:16569   */\n      dup2\n      gt\n        /* \"#utility.yul\":16571:16593   */\n      dup3\n      dup3\n      lt\n        /* \"#utility.yul\":16532:16594   */\n      or\n        /* \"#utility.yul\":16529:16617   */\n      iszero\n      tag_418\n      jumpi\n        /* \"#utility.yul\":16597:16615   */\n      tag_418\n      tag_303\n      jump\t// in\n    tag_418:\n        /* \"#utility.yul\":16633:16635   */\n      0x40\n        /* \"#utility.yul\":16626:16648   */\n      mstore\n        /* \"#utility.yul\":16657:16679   */\n      dup2\n      dup2\n      mstore\n        /* \"#utility.yul\":16698:16713   */\n      dup3\n      dup3\n      add\n        /* \"#utility.yul\":16715:16717   */\n      0x20\n        /* \"#utility.yul\":16694:16718   */\n      add\n        /* \"#utility.yul\":16691:16728   */\n      dup7\n      lt\n        /* \"#utility.yul\":16688:16745   */\n      iszero\n      tag_419\n      jumpi\n        /* \"#utility.yul\":16741:16742   */\n      0x00\n        /* \"#utility.yul\":16738:16739   */\n      dup1\n        /* \"#utility.yul\":16731:16743   */\n      revert\n        /* \"#utility.yul\":16688:16745   */\n    tag_419:\n        /* \"#utility.yul\":16754:16826   */\n      tag_420\n        /* \"#utility.yul\":16819:16825   */\n      dup3\n        /* \"#utility.yul\":16814:16816   */\n      0x20\n        /* \"#utility.yul\":16806:16812   */\n      dup4\n        /* \"#utility.yul\":16802:16817   */\n      add\n        /* \"#utility.yul\":16797:16799   */\n      0x20\n        /* \"#utility.yul\":16793:16795   */\n      dup7\n        /* \"#utility.yul\":16789:16800   */\n      add\n        /* \"#utility.yul\":16754:16826   */\n      tag_296\n      jump\t// in\n    tag_420:\n        /* \"#utility.yul\":16845:16851   */\n      swap6\n        /* \"#utility.yul\":15941:16857   */\n      swap5\n      pop\n      pop\n      pop\n      pop\n      pop\n      jump\t// out\n        /* \"#utility.yul\":17290:17665   */\n    tag_304:\n        /* \"#utility.yul\":17378:17379   */\n      0x01\n        /* \"#utility.yul\":17396:17401   */\n      dup2\n        /* \"#utility.yul\":17410:17659   */\n    tag_423:\n        /* \"#utility.yul\":17431:17432   */\n      0x01\n        /* \"#utility.yul\":17421:17429   */\n      dup5\n        /* \"#utility.yul\":17418:17433   */\n      gt\n        /* \"#utility.yul\":17410:17659   */\n      iszero\n      tag_425\n      jumpi\n        /* \"#utility.yul\":17481:17485   */\n      dup1\n        /* \"#utility.yul\":17476:17479   */\n      dup6\n        /* \"#utility.yul\":17472:17486   */\n      div\n        /* \"#utility.yul\":17466:17470   */\n      dup2\n        /* \"#utility.yul\":17463:17487   */\n      gt\n        /* \"#utility.yul\":17460:17510   */\n      iszero\n      tag_427\n      jumpi\n        /* \"#utility.yul\":17490:17508   */\n      tag_427\n      tag_295\n      jump\t// in\n    tag_427:\n        /* \"#utility.yul\":17540:17541   */\n      0x01\n        /* \"#utility.yul\":17530:17538   */\n      dup5\n        /* \"#utility.yul\":17526:17542   */\n      and\n        /* \"#utility.yul\":17523:17572   */\n      iszero\n      tag_428\n      jumpi\n        /* \"#utility.yul\":17554:17570   */\n      swap1\n      dup2\n      mul\n      swap1\n        /* \"#utility.yul\":17523:17572   */\n    tag_428:\n        /* \"#utility.yul\":17637:17638   */\n      0x01\n        /* \"#utility.yul\":17633:17649   */\n      swap4\n      swap1\n      swap4\n      shr\n      swap3\n        /* \"#utility.yul\":17593:17608   */\n      dup1\n      mul\n        /* \"#utility.yul\":17410:17659   */\n      jump(tag_423)\n    tag_425:\n        /* \"#utility.yul\":17290:17665   */\n      swap4\n      pop\n      swap4\n      swap2\n      pop\n      pop\n      jump\t// out\n        /* \"#utility.yul\":17670:18572   */\n    tag_305:\n        /* \"#utility.yul\":17719:17724   */\n      0x00\n        /* \"#utility.yul\":17749:17757   */\n      dup3\n        /* \"#utility.yul\":17739:17819   */\n      tag_430\n      jumpi\n      pop\n        /* \"#utility.yul\":17790:17791   */\n      0x01\n        /* \"#utility.yul\":17804:17809   */\n      jump(tag_220)\n        /* \"#utility.yul\":17739:17819   */\n    tag_430:\n        /* \"#utility.yul\":17838:17842   */\n      dup2\n        /* \"#utility.yul\":17828:17904   */\n      tag_431\n      jumpi\n      pop\n        /* \"#utility.yul\":17875:17876   */\n      0x00\n        /* \"#utility.yul\":17889:17894   */\n      jump(tag_220)\n        /* \"#utility.yul\":17828:17904   */\n    tag_431:\n        /* \"#utility.yul\":17920:17924   */\n      dup2\n        /* \"#utility.yul\":17938:17939   */\n      0x01\n        /* \"#utility.yul\":17933:17992   */\n      dup2\n      eq\n      tag_433\n      jumpi\n        /* \"#utility.yul\":18006:18007   */\n      0x02\n        /* \"#utility.yul\":18001:18175   */\n      dup2\n      eq\n      tag_434\n      jumpi\n        /* \"#utility.yul\":17913:18175   */\n      jump(tag_432)\n        /* \"#utility.yul\":17933:17992   */\n    tag_433:\n        /* \"#utility.yul\":17963:17964   */\n      0x01\n        /* \"#utility.yul\":17954:17964   */\n      swap2\n      pop\n        /* \"#utility.yul\":17977:17982   */\n      pop\n      jump(tag_220)\n        /* \"#utility.yul\":18001:18175   */\n    tag_434:\n        /* \"#utility.yul\":18038:18041   */\n      0xff\n        /* \"#utility.yul\":18028:18036   */\n      dup5\n        /* \"#utility.yul\":18025:18042   */\n      gt\n        /* \"#utility.yul\":18022:18065   */\n      iszero\n      tag_436\n      jumpi\n        /* \"#utility.yul\":18045:18063   */\n      tag_436\n      tag_295\n      jump\t// in\n    tag_436:\n      pop\n      pop\n        /* \"#utility.yul\":18101:18102   */\n      0x01\n        /* \"#utility.yul\":18087:18103   */\n      dup3\n      shl\n        /* \"#utility.yul\":18160:18165   */\n      jump(tag_220)\n        /* \"#utility.yul\":17913:18175   */\n    tag_432:\n      pop\n        /* \"#utility.yul\":18259:18261   */\n      0x20\n        /* \"#utility.yul\":18249:18257   */\n      dup4\n        /* \"#utility.yul\":18246:18262   */\n      lt\n        /* \"#utility.yul\":18240:18243   */\n      0x0133\n        /* \"#utility.yul\":18234:18238   */\n      dup4\n        /* \"#utility.yul\":18231:18244   */\n      lt\n        /* \"#utility.yul\":18227:18263   */\n      and\n        /* \"#utility.yul\":18221:18223   */\n      0x4e\n        /* \"#utility.yul\":18211:18219   */\n      dup5\n        /* \"#utility.yul\":18208:18224   */\n      lt\n        /* \"#utility.yul\":18203:18205   */\n      0x0b\n        /* \"#utility.yul\":18197:18201   */\n      dup5\n        /* \"#utility.yul\":18194:18206   */\n      lt\n        /* \"#utility.yul\":18190:18225   */\n      and\n        /* \"#utility.yul\":18187:18264   */\n      or\n        /* \"#utility.yul\":18184:18387   */\n      iszero\n      tag_437\n      jumpi\n      pop\n        /* \"#utility.yul\":18296:18315   */\n      dup2\n      dup2\n      exp\n        /* \"#utility.yul\":18372:18377   */\n      jump(tag_220)\n        /* \"#utility.yul\":18184:18387   */\n    tag_437:\n        /* \"#utility.yul\":18419:18461   */\n      tag_438\n      not(0x00)\n        /* \"#utility.yul\":18444:18452   */\n      dup5\n        /* \"#utility.yul\":18438:18442   */\n      dup5\n        /* \"#utility.yul\":18419:18461   */\n      tag_304\n      jump\t// in\n    tag_438:\n        /* \"#utility.yul\":18497:18503   */\n      dup1\n        /* \"#utility.yul\":18493:18494   */\n      0x00\n        /* \"#utility.yul\":18489:18495   */\n      not\n        /* \"#utility.yul\":18485:18504   */\n      div\n        /* \"#utility.yul\":18476:18483   */\n      dup3\n        /* \"#utility.yul\":18473:18505   */\n      gt\n        /* \"#utility.yul\":18470:18528   */\n      iszero\n      tag_440\n      jumpi\n        /* \"#utility.yul\":18508:18526   */\n      tag_440\n      tag_295\n      jump\t// in\n    tag_440:\n        /* \"#utility.yul\":18546:18566   */\n      mul\n      swap4\n        /* \"#utility.yul\":17670:18572   */\n      swap3\n      pop\n      pop\n      pop\n      jump\t// out\n        /* \"#utility.yul\":18577:18717   */\n    tag_275:\n        /* \"#utility.yul\":18635:18640   */\n      0x00\n        /* \"#utility.yul\":18664:18711   */\n      tag_212\n        /* \"#utility.yul\":18705:18709   */\n      0xff\n        /* \"#utility.yul\":18695:18703   */\n      dup5\n        /* \"#utility.yul\":18691:18710   */\n      and\n        /* \"#utility.yul\":18685:18689   */\n      dup4\n        /* \"#utility.yul\":18664:18711   */\n      tag_305\n      jump\t// in\n        /* \"#utility.yul\":18722:18890   */\n    tag_277:\n        /* \"#utility.yul\":18795:18804   */\n      dup1\n      dup3\n      mul\n        /* \"#utility.yul\":18826:18835   */\n      dup2\n      iszero\n        /* \"#utility.yul\":18843:18858   */\n      dup3\n      dup3\n      div\n        /* \"#utility.yul\":18837:18859   */\n      dup5\n      eq\n        /* \"#utility.yul\":18823:18860   */\n      or\n        /* \"#utility.yul\":18813:18884   */\n      tag_220\n      jumpi\n        /* \"#utility.yul\":18864:18882   */\n      tag_220\n      tag_295\n      jump\t// in\n    stop\n    data_3e1e6533146503ddcd57727c5002d69321677d0539df318ad90f03963b3c334f 4f7261636c654d616e616765723a2063616c6c20726576657274656420772f6f206d7367\n\n    auxdata: 0xa264697066735822122004e5aad83a59fb9aef83d52c0ebeefa5cd16c8efc1f0a7bea6e313d4fa67886564736f6c634300081c0033\n}\n",
				"bytecode": {
					"linkReferences": {},
					"object": "608060405234801561001057600080fd5b5060405161220d38038061220d83398101604081905261002f9161010b565b610038336100bb565b6001600160a01b0381166100ac576040517f08c379a000000000000000000000000000000000000000000000000000000000815260206004820152601c60248201527f4f7261636c654d616e616765723a20696e76616c6964206f776e657200000000604482015260640160405180910390fd5b6100b5816100bb565b5061013b565b600080546001600160a01b038381166001600160a01b0319831681178455604051919092169283917f8be0079c531659141344cd1fd0a4f28419497f9722a3daafe3b4186f6b6457e09190a35050565b60006020828403121561011d57600080fd5b81516001600160a01b038116811461013457600080fd5b9392505050565b6120c38061014a6000396000f3fe608060405234801561001057600080fd5b50600436106100885760003560e01c80638da5cb5b1161005b5780638da5cb5b146101e85780639b05fc7514610203578063f2ac1ec514610216578063f2fde38b1461022957600080fd5b8063067a4b061461008d57806341976e0914610124578063715018a61461014e5780637f4a310214610158575b600080fd5b6100e261009b366004611a02565b600160208190526000918252604090912080549101546001600160a01b039182169181169060ff600160a01b8204811691600160a81b8104821691600160b01b9091041685565b604080516001600160a01b0396871681529590941660208601529115159284019290925260ff90911660608301521515608082015260a0015b60405180910390f35b610137610132366004611a02565b61023c565b6040805192835260ff90911660208301520161011b565b610156610419565b005b6101ad610166366004611a02565b600260205260009081526040902080546001909101546001600160a01b039182169181169060ff600160a01b8204811691600160a81b8104821691600160b01b9091041685565b604080516001600160a01b03968716815295909416602086015260ff928316938501939093521660608301521515608082015260a00161011b565b6000546040516001600160a01b03909116815260200161011b565b610156610211366004611a2e565b61042d565b610156610224366004611aad565b6105c2565b610156610237366004611a02565b6107d2565b6001600160a01b038082166000908152600160208181526040808420815160a0810183528154871680825291909401549586169284019290925260ff600160a01b86048116151591840191909152600160a81b850481166060840152600160b01b9094049093161515608082015290918291901515806102bd575080608001515b6103225760405162461bcd60e51b815260206004820152602b60248201527f4f7261636c654d616e616765723a206e6f2061676772656761746f72206f722060448201526a7661756c74206c6f67696360a81b60648201526084015b60405180910390fd5b806080015161033e576103348161084b565b9093509150610413565b6001600160a01b03808516600090815260026020908152604091829020825160a0810184528154851681526001909101549384169181019190915260ff600160a01b8404811692820192909252600160a81b830482166060820152600160b01b909204161515608082018190526104025760405162461bcd60e51b815260206004820152602260248201527f4f7261636c654d616e616765723a207661756c74206665656473206e6f742073604482015261195d60f21b6064820152608401610319565b61040c8582610986565b9094509250505b50915091565b610421610afe565b61042b6000610b58565b565b610435610afe565b6001600160a01b0385166104955760405162461bcd60e51b815260206004820152602160248201527f4f7261636c654d616e616765723a20696e76616c6964207661756c74546f6b656044820152603760f91b6064820152608401610319565b6040805160a0810182526001600160a01b038087168252858116602080840191825260ff808816858701908152878216606087019081526001608088018181528e881660008181526002909752958a9020985189549089166001600160a01b03199091161789559551970180549251915195511515600160b01b0260ff60b01b19968516600160a81b029690961661ffff60a81b1992909416600160a01b026001600160a81b0319909316979096169690961717949094169390931717905590517f2fb5936f285b062770ba9aa206ca7282ebb8f84ad2eda1c664b3059e9c62c1ba906105b39087908790879087906001600160a01b03948516815292909316602083015260ff908116604083015291909116606082015260800190565b60405180910390a25050505050565b6105ca610afe565b6001600160a01b0386166106205760405162461bcd60e51b815260206004820152601c60248201527f4f7261636c654d616e616765723a20696e76616c696420746f6b656e000000006044820152606401610319565b80610694576001600160a01b0385166106945760405162461bcd60e51b815260206004820152603060248201527f4f7261636c654d616e616765723a2061676772656761746f722072657175697260448201526f195908199bdc881b9bdb8b5d985d5b1d60821b6064820152608401610319565b6040805160a0810182526001600160a01b038088168252868116602080840191825287151584860190815260ff80891660608701908152881515608088019081528e871660008181526001968790528a9020985189549089166001600160a01b031990911617895595519790940180549351915194511515600160b01b0260ff60b01b1995909316600160a81b029490941661ffff60a81b19911515600160a01b026001600160a81b0319909416979096169690961791909117949094169290921792909217905590517f5be58a9eef853f8ae7393174434d0be93daad7445510f6ce6e914b2f297885b8906107c290889088908890889088906001600160a01b039586168152939094166020840152901515604083015260ff166060820152901515608082015260a00190565b60405180910390a2505050505050565b6107da610afe565b6001600160a01b03811661083f5760405162461bcd60e51b815260206004820152602660248201527f4f776e61626c653a206e6577206f776e657220697320746865207a65726f206160448201526564647265737360d01b6064820152608401610319565b61084881610b58565b50565b600080600080600061086586600001518760600151610ba8565b9250925092508215801561087a575085604001515b8015610892575060208601516001600160a01b031615155b1561091f5760008060006108ae89602001518a60600151610ba8565b925092509250826109115760405162461bcd60e51b815260206004820152602760248201527f4f7261636c654d616e616765723a2066616c6c6261636b2061676772656761746044820152661bdc8819985a5b60ca1b6064820152608401610319565b909890975095505050505050565b8261097b5760405162461bcd60e51b815260206004820152602660248201527f4f7261636c654d616e616765723a207072696d6172792061676772656761746f6044820152651c8819985a5b60d21b6064820152608401610319565b909590945092505050565b600080600080600061099787610d9b565b92509250925060006109a98284610fe4565b90506000610a17896001600160a01b0316633a924d5b6040518163ffffffff1660e01b8152600401602060405180830381865afa1580156109ee573d6000803e3d6000fd5b505050506040513d601f19601f82011682018060405250810190610a129190611b2f565b6111d8565b509050600080610a3583856040015186606001518760800151611308565b9150915060008460a001516001600160801b031683610a549190611b62565b905060008560c001516001600160801b031683610a719190611b62565b9050600060405180608001604052808e600001516001600160a01b031681526020018e602001516001600160a01b031681526020018e6040015160ff1681526020018e6060015160ff1681525090506000610acd84848461135e565b90508a15610adb578a610ade565b60015b610ae89082611b8b565b9f60089f509d5050505050505050505050505050565b6000546001600160a01b0316331461042b5760405162461bcd60e51b815260206004820181905260248201527f4f776e61626c653a2063616c6c6572206973206e6f7420746865206f776e65726044820152606401610319565b600080546001600160a01b038381166001600160a01b0319831681178455604051919092169283917f8be0079c531659141344cd1fd0a4f28419497f9722a3daafe3b4186f6b6457e09190a35050565b600080806001600160a01b038516610bc857506000915081905080610d94565b60408051600481526024810182526020810180516001600160e01b0316633fabe5a360e21b179052905160009081906001600160a01b03891690610c0d908590611bd1565b600060405180830381855afa9150503d8060008114610c48576040519150601f19603f3d011682016040523d82523d6000602084013e610c4d565b606091505b5091509150811580610c60575060a08151105b15610c78576000806000955095509550505050610d94565b600081806020019051810190610c8e9190611c0c565b50505091505060008113610cb057600080600096509650965050505050610d94565b8760ff8116600003610d875760408051600481526024810182526020810180516001600160e01b031663313ce56760e01b179052905160009182916001600160a01b038e1691610cff91611bd1565b600060405180830381855afa9150503d8060008114610d3a576040519150601f19603f3d011682016040523d82523d6000602084013e610d3f565b606091505b5091509150811580610d52575060208151105b15610d6e57600080600099509950995050505050505050610d94565b80806020019051810190610d829190611c5e565b925050505b6001975090955093505050505b9250925092565b600080600080849050806001600160a01b03166318160ddd6040518163ffffffff1660e01b8152600401602060405180830381865afa158015610de2573d6000803e3d6000fd5b505050506040513d601f19601f82011682018060405250810190610e069190611c7b565b935060008411610e635760405162461bcd60e51b815260206004820152602260248201527f4f7261636c654d616e616765723a207661756c7420746f74616c537570706c7960448201526103d360f41b6064820152608401610319565b806001600160a01b031663f657a7fe6040518163ffffffff1660e01b8152600401602060405180830381865afa158015610ea1573d6000803e3d6000fd5b505050506040513d601f19601f82011682018060405250810190610ec59190611c7b565b925082600003610f175760405162461bcd60e51b815260206004820152601e60248201527f4f7261636c654d616e616765723a206e6f204e465420696e207661756c7400006044820152606401610319565b806001600160a01b031663791b98bc6040518163ffffffff1660e01b8152600401602060405180830381865afa158015610f55573d6000803e3d6000fd5b505050506040513d601f19601f82011682018060405250810190610f799190611b2f565b91506001600160a01b038216610fdc5760405162461bcd60e51b815260206004820152602260248201527f4f7261636c654d616e616765723a20696e76616c696420706f736974696f6e4d60448201526133b960f11b6064820152608401610319565b509193909250565b6040805160e081018252600080825260208201819052918101829052606081018290526080810182905260a0810182905260c0810191909152600080846001600160a01b03166399fbab8860e01b8560405160240161104591815260200190565b60408051601f198184030181529181526020820180516001600160e01b03166001600160e01b03199094169390931790925290516110839190611bd1565b600060405180830381855afa9150503d80600081146110be576040519150601f19603f3d011682016040523d82523d6000602084013e6110c3565b606091505b5091509150816110d2826113a3565b906110f05760405162461bcd60e51b81526004016103199190611c94565b50808060200190518101906111059190611d0e565b909192939495969798999a509091929394959697989950909192939495965090919250909150896000018a6020018b6040018c6060018d6080018e60a0018f60c001876001600160801b03166001600160801b0316815250876001600160801b03166001600160801b0316815250876001600160801b03166001600160801b03168152508760020b60020b8152508760020b60020b815250876001600160a01b03166001600160a01b0316815250876001600160a01b03166001600160a01b031681525050505050505050505092915050565b6000806001600160a01b0383166112315760405162461bcd60e51b815260206004820152601b60248201527f4f7261636c654d616e616765723a20696e76616c696420706f6f6c00000000006044820152606401610319565b60408051600481526024810182526020810180516001600160e01b0316633850c7bd60e01b179052905160009182916001600160a01b0387169161127491611bd1565b600060405180830381855afa9150503d80600081146112af576040519150601f19603f3d011682016040523d82523d6000602084013e6112b4565b606091505b5091509150816112c3826113a3565b906112e15760405162461bcd60e51b81526004016103199190611c94565b50808060200190518101906112f69190611e02565b50949a93995092975050505050505050565b600080826001600160801b031660000361132757506000905080611355565b6000611332866113ee565b9050600061133f866113ee565b905061134d88838388611711565b909450925050505b94509492505050565b60008061137485846000015185604001516117ac565b9050600061138b85856020015186606001516117ac565b90506113978183611b62565b925050505b9392505050565b60606044825110156113ce5760405180606001604052806024815260200161206a6024913992915050565b600482019150818060200190518101906113e89190611ea7565b92915050565b60008060008360020b12611405578260020b61140d565b8260020b6000035b9050620d89e8811115611433576040516315e4079d60e11b815260040160405180910390fd5b60008160011660000361144a57600160801b61145c565b6ffffcb933bd6fad37aa2d162d1a5940015b70ffffffffffffffffffffffffffffffffff1690506002821615611490576ffff97272373d413259a46990580e213a0260801c5b60048216156114af576ffff2e50f5f656932ef12357cf3c7fdcc0260801c5b60088216156114ce576fffe5caca7e10e4e61c3624eaa0941cd00260801c5b60108216156114ed576fffcb9843d60f6159c9db58835c9266440260801c5b602082161561150c576fff973b41fa98c081472e6896dfb254c00260801c5b604082161561152b576fff2ea16466c96a3843ec78b326b528610260801c5b608082161561154a576ffe5dee046a99a2a811c461f1969c30530260801c5b61010082161561156a576ffcbe86c7900a88aedcffc83b479aa3a40260801c5b61020082161561158a576ff987a7253ac413176f2b074cf7815e540260801c5b6104008216156115aa576ff3392b0822b70005940c7a398e4b70f30260801c5b6108008216156115ca576fe7159475a2c29b7443b29c7fa6e889d90260801c5b6110008216156115ea576fd097f3bdfd2022b8845ad8f792aa58250260801c5b61200082161561160a576fa9f746462d870fdf8a65dc1f90e061e50260801c5b61400082161561162a576f70d869a156d2a1b890bb3df62baf32f70260801c5b61800082161561164a576f31be135f97d08fd981231505542fcfa60260801c5b6201000082161561166b576f09aa508b5b7a84e1c677de54f3e99bc90260801c5b6202000082161561168b576e5d6af8dedb81196699c329225ee6040260801c5b620400008216156116aa576d2216e584f5fa1ea926041bedfe980260801c5b620800008216156116c7576b048a170391f7dc42444e8fa20260801c5b60008460020b13156116e85780600019816116e4576116e4611b75565b0490505b6401000000008106156116fc5760016116ff565b60005b60ff16602082901c0192505050919050565b600080836001600160a01b0316856001600160a01b03161115611732579293925b846001600160a01b0316866001600160a01b03161161175d57611756858585611881565b9150611355565b836001600160a01b0316866001600160a01b0316101561179657611782868585611881565b915061178f8587856118f0565b9050611355565b6117a18585856118f0565b905094509492505050565b60008315806117c257506001600160a01b038316155b156117cf5750600061139c565b60008060006117de8686610ba8565b925092509250826118575760405162461bcd60e51b815260206004820152603b60248201527f4f7261636c654d616e616765723a2061676772656761746f72206661696c206960448201527f6e205f636f6e76657274546f41676772656761746f7256616c756500000000006064820152608401610319565b61186281600a612043565b61186c8389612052565b6118769190611b8b565b979650505050505050565b6000826001600160a01b0316846001600160a01b031611156118a1579192915b836001600160a01b03166118da606060ff16846001600160801b0316901b8686036001600160a01b0316866001600160a01b031661193b565b816118e7576118e7611b75565b04949350505050565b6000826001600160a01b0316846001600160a01b03161115611910579192915b611933826001600160801b03168585036001600160a01b0316600160601b61193b565b949350505050565b6000808060001985870985870292508281108382030391505080600003611974576000841161196957600080fd5b50829004905061139c565b80841161198057600080fd5b6000848688096000868103871696879004966002600389028118808a02820302808a02820302808a02820302808a02820302808a02820302808a02909103029181900381900460010186841190950394909402919094039290920491909117919091029150509392505050565b6001600160a01b038116811461084857600080fd5b600060208284031215611a1457600080fd5b813561139c816119ed565b60ff8116811461084857600080fd5b600080600080600060a08688031215611a4657600080fd5b8535611a51816119ed565b94506020860135611a61816119ed565b93506040860135611a71816119ed565b92506060860135611a8181611a1f565b91506080860135611a9181611a1f565b809150509295509295909350565b801515811461084857600080fd5b60008060008060008060c08789031215611ac657600080fd5b8635611ad1816119ed565b95506020870135611ae1816119ed565b94506040870135611af1816119ed565b93506060870135611b0181611a9f565b92506080870135611b1181611a1f565b915060a0870135611b2181611a9f565b809150509295509295509295565b600060208284031215611b4157600080fd5b815161139c816119ed565b634e487b7160e01b600052601160045260246000fd5b808201808211156113e8576113e8611b4c565b634e487b7160e01b600052601260045260246000fd5b600082611ba857634e487b7160e01b600052601260045260246000fd5b500490565b60005b83811015611bc8578181015183820152602001611bb0565b50506000910152565b60008251611be3818460208701611bad565b9190910192915050565b805169ffffffffffffffffffff81168114611c0757600080fd5b919050565b600080600080600060a08688031215611c2457600080fd5b611c2d86611bed565b60208701516040880151606089015192975090955093509150611c5260808701611bed565b90509295509295909350565b600060208284031215611c7057600080fd5b815161139c81611a1f565b600060208284031215611c8d57600080fd5b5051919050565b6020815260008251806020840152611cb3816040850160208701611bad565b601f01601f19169190910160400192915050565b8051611c07816119ed565b805162ffffff81168114611c0757600080fd5b8051600281900b8114611c0757600080fd5b80516001600160801b0381168114611c0757600080fd5b6000806000806000806000806000806000806101808d8f031215611d3157600080fd5b8c516bffffffffffffffffffffffff81168114611d4d57600080fd5b9b50611d5b60208e01611cc7565b9a50611d6960408e01611cc7565b9950611d7760608e01611cc7565b9850611d8560808e01611cd2565b9750611d9360a08e01611ce5565b9650611da160c08e01611ce5565b9550611daf60e08e01611cf7565b6101008e01516101208f015191965094509250611dcf6101408e01611cf7565b9150611dde6101608e01611cf7565b90509295989b509295989b509295989b565b805161ffff81168114611c0757600080fd5b600080600080600080600060e0888a031215611e1d57600080fd5b8751611e28816119ed565b9650611e3660208901611ce5565b9550611e4460408901611df0565b9450611e5260608901611df0565b9350611e6060808901611df0565b925060a0880151611e7081611a1f565b60c0890151909250611e8181611a9f565b8091505092959891949750929550565b634e487b7160e01b600052604160045260246000fd5b600060208284031215611eb957600080fd5b815167ffffffffffffffff811115611ed057600080fd5b8201601f81018413611ee157600080fd5b805167ffffffffffffffff811115611efb57611efb611e91565b604051601f8201601f19908116603f0116810167ffffffffffffffff81118282101715611f2a57611f2a611e91565b604052818152828201602001861015611f4257600080fd5b611f53826020830160208601611bad565b95945050505050565b6001815b6001841115611f9757808504811115611f7b57611f7b611b4c565b6001841615611f8957908102905b60019390931c928002611f60565b935093915050565b600082611fae575060016113e8565b81611fbb575060006113e8565b8160018114611fd15760028114611fdb57611ff7565b60019150506113e8565b60ff841115611fec57611fec611b4c565b50506001821b6113e8565b5060208310610133831016604e8410600b841016171561201a575081810a6113e8565b6120276000198484611f5c565b806000190482111561203b5761203b611b4c565b029392505050565b600061139c60ff841683611f9f565b80820281158282048414176113e8576113e8611b4c56fe4f7261636c654d616e616765723a2063616c6c20726576657274656420772f6f206d7367a264697066735822122004e5aad83a59fb9aef83d52c0ebeefa5cd16c8efc1f0a7bea6e313d4fa67886564736f6c634300081c0033",
					"opcodes": "PUSH1 0x80 PUSH1 0x40 MSTORE CALLVALUE DUP1 ISZERO PUSH2 0x10 JUMPI PUSH1 0x0 DUP1 REVERT JUMPDEST POP PUSH1 0x40 MLOAD PUSH2 0x220D CODESIZE SUB DUP1 PUSH2 0x220D DUP4 CODECOPY DUP2 ADD PUSH1 0x40 DUP2 SWAP1 MSTORE PUSH2 0x2F SWAP2 PUSH2 0x10B JUMP JUMPDEST PUSH2 0x38 CALLER PUSH2 0xBB JUMP JUMPDEST PUSH1 0x1 PUSH1 0x1 PUSH1 0xA0 SHL SUB DUP2 AND PUSH2 0xAC JUMPI PUSH1 0x40 MLOAD PUSH32 0x8C379A000000000000000000000000000000000000000000000000000000000 DUP2 MSTORE PUSH1 0x20 PUSH1 0x4 DUP3 ADD MSTORE PUSH1 0x1C PUSH1 0x24 DUP3 ADD MSTORE PUSH32 0x4F7261636C654D616E616765723A20696E76616C6964206F776E657200000000 PUSH1 0x44 DUP3 ADD MSTORE PUSH1 0x64 ADD PUSH1 0x40 MLOAD DUP1 SWAP2 SUB SWAP1 REVERT JUMPDEST PUSH2 0xB5 DUP2 PUSH2 0xBB JUMP JUMPDEST POP PUSH2 0x13B JUMP JUMPDEST PUSH1 0x0 DUP1 SLOAD PUSH1 0x1 PUSH1 0x1 PUSH1 0xA0 SHL SUB DUP4 DUP2 AND PUSH1 0x1 PUSH1 0x1 PUSH1 0xA0 SHL SUB NOT DUP4 AND DUP2 OR DUP5 SSTORE PUSH1 0x40 MLOAD SWAP2 SWAP1 SWAP3 AND SWAP3 DUP4 SWAP2 PUSH32 0x8BE0079C531659141344CD1FD0A4F28419497F9722A3DAAFE3B4186F6B6457E0 SWAP2 SWAP1 LOG3 POP POP JUMP JUMPDEST PUSH1 0x0 PUSH1 0x20 DUP3 DUP5 SUB SLT ISZERO PUSH2 0x11D JUMPI PUSH1 0x0 DUP1 REVERT JUMPDEST DUP2 MLOAD PUSH1 0x1 PUSH1 0x1 PUSH1 0xA0 SHL SUB DUP2 AND DUP2 EQ PUSH2 0x134 JUMPI PUSH1 0x0 DUP1 REVERT JUMPDEST SWAP4 SWAP3 POP POP POP JUMP JUMPDEST PUSH2 0x20C3 DUP1 PUSH2 0x14A PUSH1 0x0 CODECOPY PUSH1 0x0 RETURN INVALID PUSH1 0x80 PUSH1 0x40 MSTORE CALLVALUE DUP1 ISZERO PUSH2 0x10 JUMPI PUSH1 0x0 DUP1 REVERT JUMPDEST POP PUSH1 0x4 CALLDATASIZE LT PUSH2 0x88 JUMPI PUSH1 0x0 CALLDATALOAD PUSH1 0xE0 SHR DUP1 PUSH4 0x8DA5CB5B GT PUSH2 0x5B JUMPI DUP1 PUSH4 0x8DA5CB5B EQ PUSH2 0x1E8 JUMPI DUP1 PUSH4 0x9B05FC75 EQ PUSH2 0x203 JUMPI DUP1 PUSH4 0xF2AC1EC5 EQ PUSH2 0x216 JUMPI DUP1 PUSH4 0xF2FDE38B EQ PUSH2 0x229 JUMPI PUSH1 0x0 DUP1 REVERT JUMPDEST DUP1 PUSH4 0x67A4B06 EQ PUSH2 0x8D JUMPI DUP1 PUSH4 0x41976E09 EQ PUSH2 0x124 JUMPI DUP1 PUSH4 0x715018A6 EQ PUSH2 0x14E JUMPI DUP1 PUSH4 0x7F4A3102 EQ PUSH2 0x158 JUMPI JUMPDEST PUSH1 0x0 DUP1 REVERT JUMPDEST PUSH2 0xE2 PUSH2 0x9B CALLDATASIZE PUSH1 0x4 PUSH2 0x1A02 JUMP JUMPDEST PUSH1 0x1 PUSH1 0x20 DUP2 SWAP1 MSTORE PUSH1 0x0 SWAP2 DUP3 MSTORE PUSH1 0x40 SWAP1 SWAP2 KECCAK256 DUP1 SLOAD SWAP2 ADD SLOAD PUSH1 0x1 PUSH1 0x1 PUSH1 0xA0 SHL SUB SWAP2 DUP3 AND SWAP2 DUP2 AND SWAP1 PUSH1 0xFF PUSH1 0x1 PUSH1 0xA0 SHL DUP3 DIV DUP2 AND SWAP2 PUSH1 0x1 PUSH1 0xA8 SHL DUP2 DIV DUP3 AND SWAP2 PUSH1 0x1 PUSH1 0xB0 SHL SWAP1 SWAP2 DIV AND DUP6 JUMP JUMPDEST PUSH1 0x40 DUP1 MLOAD PUSH1 0x1 PUSH1 0x1 PUSH1 0xA0 SHL SUB SWAP7 DUP8 AND DUP2 MSTORE SWAP6 SWAP1 SWAP5 AND PUSH1 0x20 DUP7 ADD MSTORE SWAP2 ISZERO ISZERO SWAP3 DUP5 ADD SWAP3 SWAP1 SWAP3 MSTORE PUSH1 0xFF SWAP1 SWAP2 AND PUSH1 0x60 DUP4 ADD MSTORE ISZERO ISZERO PUSH1 0x80 DUP3 ADD MSTORE PUSH1 0xA0 ADD JUMPDEST PUSH1 0x40 MLOAD DUP1 SWAP2 SUB SWAP1 RETURN JUMPDEST PUSH2 0x137 PUSH2 0x132 CALLDATASIZE PUSH1 0x4 PUSH2 0x1A02 JUMP JUMPDEST PUSH2 0x23C JUMP JUMPDEST PUSH1 0x40 DUP1 MLOAD SWAP3 DUP4 MSTORE PUSH1 0xFF SWAP1 SWAP2 AND PUSH1 0x20 DUP4 ADD MSTORE ADD PUSH2 0x11B JUMP JUMPDEST PUSH2 0x156 PUSH2 0x419 JUMP JUMPDEST STOP JUMPDEST PUSH2 0x1AD PUSH2 0x166 CALLDATASIZE PUSH1 0x4 PUSH2 0x1A02 JUMP JUMPDEST PUSH1 0x2 PUSH1 0x20 MSTORE PUSH1 0x0 SWAP1 DUP2 MSTORE PUSH1 0x40 SWAP1 KECCAK256 DUP1 SLOAD PUSH1 0x1 SWAP1 SWAP2 ADD SLOAD PUSH1 0x1 PUSH1 0x1 PUSH1 0xA0 SHL SUB SWAP2 DUP3 AND SWAP2 DUP2 AND SWAP1 PUSH1 0xFF PUSH1 0x1 PUSH1 0xA0 SHL DUP3 DIV DUP2 AND SWAP2 PUSH1 0x1 PUSH1 0xA8 SHL DUP2 DIV DUP3 AND SWAP2 PUSH1 0x1 PUSH1 0xB0 SHL SWAP1 SWAP2 DIV AND DUP6 JUMP JUMPDEST PUSH1 0x40 DUP1 MLOAD PUSH1 0x1 PUSH1 0x1 PUSH1 0xA0 SHL SUB SWAP7 DUP8 AND DUP2 MSTORE SWAP6 SWAP1 SWAP5 AND PUSH1 0x20 DUP7 ADD MSTORE PUSH1 0xFF SWAP3 DUP4 AND SWAP4 DUP6 ADD SWAP4 SWAP1 SWAP4 MSTORE AND PUSH1 0x60 DUP4 ADD MSTORE ISZERO ISZERO PUSH1 0x80 DUP3 ADD MSTORE PUSH1 0xA0 ADD PUSH2 0x11B JUMP JUMPDEST PUSH1 0x0 SLOAD PUSH1 0x40 MLOAD PUSH1 0x1 PUSH1 0x1 PUSH1 0xA0 SHL SUB SWAP1 SWAP2 AND DUP2 MSTORE PUSH1 0x20 ADD PUSH2 0x11B JUMP JUMPDEST PUSH2 0x156 PUSH2 0x211 CALLDATASIZE PUSH1 0x4 PUSH2 0x1A2E JUMP JUMPDEST PUSH2 0x42D JUMP JUMPDEST PUSH2 0x156 PUSH2 0x224 CALLDATASIZE PUSH1 0x4 PUSH2 0x1AAD JUMP JUMPDEST PUSH2 0x5C2 JUMP JUMPDEST PUSH2 0x156 PUSH2 0x237 CALLDATASIZE PUSH1 0x4 PUSH2 0x1A02 JUMP JUMPDEST PUSH2 0x7D2 JUMP JUMPDEST PUSH1 0x1 PUSH1 0x1 PUSH1 0xA0 SHL SUB DUP1 DUP3 AND PUSH1 0x0 SWAP1 DUP2 MSTORE PUSH1 0x1 PUSH1 0x20 DUP2 DUP2 MSTORE PUSH1 0x40 DUP1 DUP5 KECCAK256 DUP2 MLOAD PUSH1 0xA0 DUP2 ADD DUP4 MSTORE DUP2 SLOAD DUP8 AND DUP1 DUP3 MSTORE SWAP2 SWAP1 SWAP5 ADD SLOAD SWAP6 DUP7 AND SWAP3 DUP5 ADD SWAP3 SWAP1 SWAP3 MSTORE PUSH1 0xFF PUSH1 0x1 PUSH1 0xA0 SHL DUP7 DIV DUP2 AND ISZERO ISZERO SWAP2 DUP5 ADD SWAP2 SWAP1 SWAP2 MSTORE PUSH1 0x1 PUSH1 0xA8 SHL DUP6 DIV DUP2 AND PUSH1 0x60 DUP5 ADD MSTORE PUSH1 0x1 PUSH1 0xB0 SHL SWAP1 SWAP5 DIV SWAP1 SWAP4 AND ISZERO ISZERO PUSH1 0x80 DUP3 ADD MSTORE SWAP1 SWAP2 DUP3 SWAP2 SWAP1 ISZERO ISZERO DUP1 PUSH2 0x2BD JUMPI POP DUP1 PUSH1 0x80 ADD MLOAD JUMPDEST PUSH2 0x322 JUMPI PUSH1 0x40 MLOAD PUSH3 0x461BCD PUSH1 0xE5 SHL DUP2 MSTORE PUSH1 0x20 PUSH1 0x4 DUP3 ADD MSTORE PUSH1 0x2B PUSH1 0x24 DUP3 ADD MSTORE PUSH32 0x4F7261636C654D616E616765723A206E6F2061676772656761746F72206F7220 PUSH1 0x44 DUP3 ADD MSTORE PUSH11 0x7661756C74206C6F676963 PUSH1 0xA8 SHL PUSH1 0x64 DUP3 ADD MSTORE PUSH1 0x84 ADD JUMPDEST PUSH1 0x40 MLOAD DUP1 SWAP2 SUB SWAP1 REVERT JUMPDEST DUP1 PUSH1 0x80 ADD MLOAD PUSH2 0x33E JUMPI PUSH2 0x334 DUP2 PUSH2 0x84B JUMP JUMPDEST SWAP1 SWAP4 POP SWAP2 POP PUSH2 0x413 JUMP JUMPDEST PUSH1 0x1 PUSH1 0x1 PUSH1 0xA0 SHL SUB DUP1 DUP6 AND PUSH1 0x0 SWAP1 DUP2 MSTORE PUSH1 0x2 PUSH1 0x20 SWAP1 DUP2 MSTORE PUSH1 0x40 SWAP2 DUP3 SWAP1 KECCAK256 DUP3 MLOAD PUSH1 0xA0 DUP2 ADD DUP5 MSTORE DUP2 SLOAD DUP6 AND DUP2 MSTORE PUSH1 0x1 SWAP1 SWAP2 ADD SLOAD SWAP4 DUP5 AND SWAP2 DUP2 ADD SWAP2 SWAP1 SWAP2 MSTORE PUSH1 0xFF PUSH1 0x1 PUSH1 0xA0 SHL DUP5 DIV DUP2 AND SWAP3 DUP3 ADD SWAP3 SWAP1 SWAP3 MSTORE PUSH1 0x1 PUSH1 0xA8 SHL DUP4 DIV DUP3 AND PUSH1 0x60 DUP3 ADD MSTORE PUSH1 0x1 PUSH1 0xB0 SHL SWAP1 SWAP3 DIV AND ISZERO ISZERO PUSH1 0x80 DUP3 ADD DUP2 SWAP1 MSTORE PUSH2 0x402 JUMPI PUSH1 0x40 MLOAD PUSH3 0x461BCD PUSH1 0xE5 SHL DUP2 MSTORE PUSH1 0x20 PUSH1 0x4 DUP3 ADD MSTORE PUSH1 0x22 PUSH1 0x24 DUP3 ADD MSTORE PUSH32 0x4F7261636C654D616E616765723A207661756C74206665656473206E6F742073 PUSH1 0x44 DUP3 ADD MSTORE PUSH2 0x195D PUSH1 0xF2 SHL PUSH1 0x64 DUP3 ADD MSTORE PUSH1 0x84 ADD PUSH2 0x319 JUMP JUMPDEST PUSH2 0x40C DUP6 DUP3 PUSH2 0x986 JUMP JUMPDEST SWAP1 SWAP5 POP SWAP3 POP POP JUMPDEST POP SWAP2 POP SWAP2 JUMP JUMPDEST PUSH2 0x421 PUSH2 0xAFE JUMP JUMPDEST PUSH2 0x42B PUSH1 0x0 PUSH2 0xB58 JUMP JUMPDEST JUMP JUMPDEST PUSH2 0x435 PUSH2 0xAFE JUMP JUMPDEST PUSH1 0x1 PUSH1 0x1 PUSH1 0xA0 SHL SUB DUP6 AND PUSH2 0x495 JUMPI PUSH1 0x40 MLOAD PUSH3 0x461BCD PUSH1 0xE5 SHL DUP2 MSTORE PUSH1 0x20 PUSH1 0x4 DUP3 ADD MSTORE PUSH1 0x21 PUSH1 0x24 DUP3 ADD MSTORE PUSH32 0x4F7261636C654D616E616765723A20696E76616C6964207661756C74546F6B65 PUSH1 0x44 DUP3 ADD MSTORE PUSH1 0x37 PUSH1 0xF9 SHL PUSH1 0x64 DUP3 ADD MSTORE PUSH1 0x84 ADD PUSH2 0x319 JUMP JUMPDEST PUSH1 0x40 DUP1 MLOAD PUSH1 0xA0 DUP2 ADD DUP3 MSTORE PUSH1 0x1 PUSH1 0x1 PUSH1 0xA0 SHL SUB DUP1 DUP8 AND DUP3 MSTORE DUP6 DUP2 AND PUSH1 0x20 DUP1 DUP5 ADD SWAP2 DUP3 MSTORE PUSH1 0xFF DUP1 DUP9 AND DUP6 DUP8 ADD SWAP1 DUP2 MSTORE DUP8 DUP3 AND PUSH1 0x60 DUP8 ADD SWAP1 DUP2 MSTORE PUSH1 0x1 PUSH1 0x80 DUP9 ADD DUP2 DUP2 MSTORE DUP15 DUP9 AND PUSH1 0x0 DUP2 DUP2 MSTORE PUSH1 0x2 SWAP1 SWAP8 MSTORE SWAP6 DUP11 SWAP1 KECCAK256 SWAP9 MLOAD DUP10 SLOAD SWAP1 DUP10 AND PUSH1 0x1 PUSH1 0x1 PUSH1 0xA0 SHL SUB NOT SWAP1 SWAP2 AND OR DUP10 SSTORE SWAP6 MLOAD SWAP8 ADD DUP1 SLOAD SWAP3 MLOAD SWAP2 MLOAD SWAP6 MLOAD ISZERO ISZERO PUSH1 0x1 PUSH1 0xB0 SHL MUL PUSH1 0xFF PUSH1 0xB0 SHL NOT SWAP7 DUP6 AND PUSH1 0x1 PUSH1 0xA8 SHL MUL SWAP7 SWAP1 SWAP7 AND PUSH2 0xFFFF PUSH1 0xA8 SHL NOT SWAP3 SWAP1 SWAP5 AND PUSH1 0x1 PUSH1 0xA0 SHL MUL PUSH1 0x1 PUSH1 0x1 PUSH1 0xA8 SHL SUB NOT SWAP1 SWAP4 AND SWAP8 SWAP1 SWAP7 AND SWAP7 SWAP1 SWAP7 OR OR SWAP5 SWAP1 SWAP5 AND SWAP4 SWAP1 SWAP4 OR OR SWAP1 SSTORE SWAP1 MLOAD PUSH32 0x2FB5936F285B062770BA9AA206CA7282EBB8F84AD2EDA1C664B3059E9C62C1BA SWAP1 PUSH2 0x5B3 SWAP1 DUP8 SWAP1 DUP8 SWAP1 DUP8 SWAP1 DUP8 SWAP1 PUSH1 0x1 PUSH1 0x1 PUSH1 0xA0 SHL SUB SWAP5 DUP6 AND DUP2 MSTORE SWAP3 SWAP1 SWAP4 AND PUSH1 0x20 DUP4 ADD MSTORE PUSH1 0xFF SWAP1 DUP2 AND PUSH1 0x40 DUP4 ADD MSTORE SWAP2 SWAP1 SWAP2 AND PUSH1 0x60 DUP3 ADD MSTORE PUSH1 0x80 ADD SWAP1 JUMP JUMPDEST PUSH1 0x40 MLOAD DUP1 SWAP2 SUB SWAP1 LOG2 POP POP POP POP POP JUMP JUMPDEST PUSH2 0x5CA PUSH2 0xAFE JUMP JUMPDEST PUSH1 0x1 PUSH1 0x1 PUSH1 0xA0 SHL SUB DUP7 AND PUSH2 0x620 JUMPI PUSH1 0x40 MLOAD PUSH3 0x461BCD PUSH1 0xE5 SHL DUP2 MSTORE PUSH1 0x20 PUSH1 0x4 DUP3 ADD MSTORE PUSH1 0x1C PUSH1 0x24 DUP3 ADD MSTORE PUSH32 0x4F7261636C654D616E616765723A20696E76616C696420746F6B656E00000000 PUSH1 0x44 DUP3 ADD MSTORE PUSH1 0x64 ADD PUSH2 0x319 JUMP JUMPDEST DUP1 PUSH2 0x694 JUMPI PUSH1 0x1 PUSH1 0x1 PUSH1 0xA0 SHL SUB DUP6 AND PUSH2 0x694 JUMPI PUSH1 0x40 MLOAD PUSH3 0x461BCD PUSH1 0xE5 SHL DUP2 MSTORE PUSH1 0x20 PUSH1 0x4 DUP3 ADD MSTORE PUSH1 0x30 PUSH1 0x24 DUP3 ADD MSTORE PUSH32 0x4F7261636C654D616E616765723A2061676772656761746F7220726571756972 PUSH1 0x44 DUP3 ADD MSTORE PUSH16 0x195908199BDC881B9BDB8B5D985D5B1D PUSH1 0x82 SHL PUSH1 0x64 DUP3 ADD MSTORE PUSH1 0x84 ADD PUSH2 0x319 JUMP JUMPDEST PUSH1 0x40 DUP1 MLOAD PUSH1 0xA0 DUP2 ADD DUP3 MSTORE PUSH1 0x1 PUSH1 0x1 PUSH1 0xA0 SHL SUB DUP1 DUP9 AND DUP3 MSTORE DUP7 DUP2 AND PUSH1 0x20 DUP1 DUP5 ADD SWAP2 DUP3 MSTORE DUP8 ISZERO ISZERO DUP5 DUP7 ADD SWAP1 DUP2 MSTORE PUSH1 0xFF DUP1 DUP10 AND PUSH1 0x60 DUP8 ADD SWAP1 DUP2 MSTORE DUP9 ISZERO ISZERO PUSH1 0x80 DUP9 ADD SWAP1 DUP2 MSTORE DUP15 DUP8 AND PUSH1 0x0 DUP2 DUP2 MSTORE PUSH1 0x1 SWAP7 DUP8 SWAP1 MSTORE DUP11 SWAP1 KECCAK256 SWAP9 MLOAD DUP10 SLOAD SWAP1 DUP10 AND PUSH1 0x1 PUSH1 0x1 PUSH1 0xA0 SHL SUB NOT SWAP1 SWAP2 AND OR DUP10 SSTORE SWAP6 MLOAD SWAP8 SWAP1 SWAP5 ADD DUP1 SLOAD SWAP4 MLOAD SWAP2 MLOAD SWAP5 MLOAD ISZERO ISZERO PUSH1 0x1 PUSH1 0xB0 SHL MUL PUSH1 0xFF PUSH1 0xB0 SHL NOT SWAP6 SWAP1 SWAP4 AND PUSH1 0x1 PUSH1 0xA8 SHL MUL SWAP5 SWAP1 SWAP5 AND PUSH2 0xFFFF PUSH1 0xA8 SHL NOT SWAP2 ISZERO ISZERO PUSH1 0x1 PUSH1 0xA0 SHL MUL PUSH1 0x1 PUSH1 0x1 PUSH1 0xA8 SHL SUB NOT SWAP1 SWAP5 AND SWAP8 SWAP1 SWAP7 AND SWAP7 SWAP1 SWAP7 OR SWAP2 SWAP1 SWAP2 OR SWAP5 SWAP1 SWAP5 AND SWAP3 SWAP1 SWAP3 OR SWAP3 SWAP1 SWAP3 OR SWAP1 SSTORE SWAP1 MLOAD PUSH32 0x5BE58A9EEF853F8AE7393174434D0BE93DAAD7445510F6CE6E914B2F297885B8 SWAP1 PUSH2 0x7C2 SWAP1 DUP9 SWAP1 DUP9 SWAP1 DUP9 SWAP1 DUP9 SWAP1 DUP9 SWAP1 PUSH1 0x1 PUSH1 0x1 PUSH1 0xA0 SHL SUB SWAP6 DUP7 AND DUP2 MSTORE SWAP4 SWAP1 SWAP5 AND PUSH1 0x20 DUP5 ADD MSTORE SWAP1 ISZERO ISZERO PUSH1 0x40 DUP4 ADD MSTORE PUSH1 0xFF AND PUSH1 0x60 DUP3 ADD MSTORE SWAP1 ISZERO ISZERO PUSH1 0x80 DUP3 ADD MSTORE PUSH1 0xA0 ADD SWAP1 JUMP JUMPDEST PUSH1 0x40 MLOAD DUP1 SWAP2 SUB SWAP1 LOG2 POP POP POP POP POP POP JUMP JUMPDEST PUSH2 0x7DA PUSH2 0xAFE JUMP JUMPDEST PUSH1 0x1 PUSH1 0x1 PUSH1 0xA0 SHL SUB DUP2 AND PUSH2 0x83F JUMPI PUSH1 0x40 MLOAD PUSH3 0x461BCD PUSH1 0xE5 SHL DUP2 MSTORE PUSH1 0x20 PUSH1 0x4 DUP3 ADD MSTORE PUSH1 0x26 PUSH1 0x24 DUP3 ADD MSTORE PUSH32 0x4F776E61626C653A206E6577206F776E657220697320746865207A65726F2061 PUSH1 0x44 DUP3 ADD MSTORE PUSH6 0x646472657373 PUSH1 0xD0 SHL PUSH1 0x64 DUP3 ADD MSTORE PUSH1 0x84 ADD PUSH2 0x319 JUMP JUMPDEST PUSH2 0x848 DUP2 PUSH2 0xB58 JUMP JUMPDEST POP JUMP JUMPDEST PUSH1 0x0 DUP1 PUSH1 0x0 DUP1 PUSH1 0x0 PUSH2 0x865 DUP7 PUSH1 0x0 ADD MLOAD DUP8 PUSH1 0x60 ADD MLOAD PUSH2 0xBA8 JUMP JUMPDEST SWAP3 POP SWAP3 POP SWAP3 POP DUP3 ISZERO DUP1 ISZERO PUSH2 0x87A JUMPI POP DUP6 PUSH1 0x40 ADD MLOAD JUMPDEST DUP1 ISZERO PUSH2 0x892 JUMPI POP PUSH1 0x20 DUP7 ADD MLOAD PUSH1 0x1 PUSH1 0x1 PUSH1 0xA0 SHL SUB AND ISZERO ISZERO JUMPDEST ISZERO PUSH2 0x91F JUMPI PUSH1 0x0 DUP1 PUSH1 0x0 PUSH2 0x8AE DUP10 PUSH1 0x20 ADD MLOAD DUP11 PUSH1 0x60 ADD MLOAD PUSH2 0xBA8 JUMP JUMPDEST SWAP3 POP SWAP3 POP SWAP3 POP DUP3 PUSH2 0x911 JUMPI PUSH1 0x40 MLOAD PUSH3 0x461BCD PUSH1 0xE5 SHL DUP2 MSTORE PUSH1 0x20 PUSH1 0x4 DUP3 ADD MSTORE PUSH1 0x27 PUSH1 0x24 DUP3 ADD MSTORE PUSH32 0x4F7261636C654D616E616765723A2066616C6C6261636B206167677265676174 PUSH1 0x44 DUP3 ADD MSTORE PUSH7 0x1BDC8819985A5B PUSH1 0xCA SHL PUSH1 0x64 DUP3 ADD MSTORE PUSH1 0x84 ADD PUSH2 0x319 JUMP JUMPDEST SWAP1 SWAP9 SWAP1 SWAP8 POP SWAP6 POP POP POP POP POP POP JUMP JUMPDEST DUP3 PUSH2 0x97B JUMPI PUSH1 0x40 MLOAD PUSH3 0x461BCD PUSH1 0xE5 SHL DUP2 MSTORE PUSH1 0x20 PUSH1 0x4 DUP3 ADD MSTORE PUSH1 0x26 PUSH1 0x24 DUP3 ADD MSTORE PUSH32 0x4F7261636C654D616E616765723A207072696D6172792061676772656761746F PUSH1 0x44 DUP3 ADD MSTORE PUSH6 0x1C8819985A5B PUSH1 0xD2 SHL PUSH1 0x64 DUP3 ADD MSTORE PUSH1 0x84 ADD PUSH2 0x319 JUMP JUMPDEST SWAP1 SWAP6 SWAP1 SWAP5 POP SWAP3 POP POP POP JUMP JUMPDEST PUSH1 0x0 DUP1 PUSH1 0x0 DUP1 PUSH1 0x0 PUSH2 0x997 DUP8 PUSH2 0xD9B JUMP JUMPDEST SWAP3 POP SWAP3 POP SWAP3 POP PUSH1 0x0 PUSH2 0x9A9 DUP3 DUP5 PUSH2 0xFE4 JUMP JUMPDEST SWAP1 POP PUSH1 0x0 PUSH2 0xA17 DUP10 PUSH1 0x1 PUSH1 0x1 PUSH1 0xA0 SHL SUB AND PUSH4 0x3A924D5B PUSH1 0x40 MLOAD DUP2 PUSH4 0xFFFFFFFF AND PUSH1 0xE0 SHL DUP2 MSTORE PUSH1 0x4 ADD PUSH1 0x20 PUSH1 0x40 MLOAD DUP1 DUP4 SUB DUP2 DUP7 GAS STATICCALL ISZERO DUP1 ISZERO PUSH2 0x9EE JUMPI RETURNDATASIZE PUSH1 0x0 DUP1 RETURNDATACOPY RETURNDATASIZE PUSH1 0x0 REVERT JUMPDEST POP POP POP POP PUSH1 0x40 MLOAD RETURNDATASIZE PUSH1 0x1F NOT PUSH1 0x1F DUP3 ADD AND DUP3 ADD DUP1 PUSH1 0x40 MSTORE POP DUP2 ADD SWAP1 PUSH2 0xA12 SWAP2 SWAP1 PUSH2 0x1B2F JUMP JUMPDEST PUSH2 0x11D8 JUMP JUMPDEST POP SWAP1 POP PUSH1 0x0 DUP1 PUSH2 0xA35 DUP4 DUP6 PUSH1 0x40 ADD MLOAD DUP7 PUSH1 0x60 ADD MLOAD DUP8 PUSH1 0x80 ADD MLOAD PUSH2 0x1308 JUMP JUMPDEST SWAP2 POP SWAP2 POP PUSH1 0x0 DUP5 PUSH1 0xA0 ADD MLOAD PUSH1 0x1 PUSH1 0x1 PUSH1 0x80 SHL SUB AND DUP4 PUSH2 0xA54 SWAP2 SWAP1 PUSH2 0x1B62 JUMP JUMPDEST SWAP1 POP PUSH1 0x0 DUP6 PUSH1 0xC0 ADD MLOAD PUSH1 0x1 PUSH1 0x1 PUSH1 0x80 SHL SUB AND DUP4 PUSH2 0xA71 SWAP2 SWAP1 PUSH2 0x1B62 JUMP JUMPDEST SWAP1 POP PUSH1 0x0 PUSH1 0x40 MLOAD DUP1 PUSH1 0x80 ADD PUSH1 0x40 MSTORE DUP1 DUP15 PUSH1 0x0 ADD MLOAD PUSH1 0x1 PUSH1 0x1 PUSH1 0xA0 SHL SUB AND DUP2 MSTORE PUSH1 0x20 ADD DUP15 PUSH1 0x20 ADD MLOAD PUSH1 0x1 PUSH1 0x1 PUSH1 0xA0 SHL SUB AND DUP2 MSTORE PUSH1 0x20 ADD DUP15 PUSH1 0x40 ADD MLOAD PUSH1 0xFF AND DUP2 MSTORE PUSH1 0x20 ADD DUP15 PUSH1 0x60 ADD MLOAD PUSH1 0xFF AND DUP2 MSTORE POP SWAP1 POP PUSH1 0x0 PUSH2 0xACD DUP5 DUP5 DUP5 PUSH2 0x135E JUMP JUMPDEST SWAP1 POP DUP11 ISZERO PUSH2 0xADB JUMPI DUP11 PUSH2 0xADE JUMP JUMPDEST PUSH1 0x1 JUMPDEST PUSH2 0xAE8 SWAP1 DUP3 PUSH2 0x1B8B JUMP JUMPDEST SWAP16 PUSH1 0x8 SWAP16 POP SWAP14 POP POP POP POP POP POP POP POP POP POP POP POP POP POP JUMP JUMPDEST PUSH1 0x0 SLOAD PUSH1 0x1 PUSH1 0x1 PUSH1 0xA0 SHL SUB AND CALLER EQ PUSH2 0x42B JUMPI PUSH1 0x40 MLOAD PUSH3 0x461BCD PUSH1 0xE5 SHL DUP2 MSTORE PUSH1 0x20 PUSH1 0x4 DUP3 ADD DUP2 SWAP1 MSTORE PUSH1 0x24 DUP3 ADD MSTORE PUSH32 0x4F776E61626C653A2063616C6C6572206973206E6F7420746865206F776E6572 PUSH1 0x44 DUP3 ADD MSTORE PUSH1 0x64 ADD PUSH2 0x319 JUMP JUMPDEST PUSH1 0x0 DUP1 SLOAD PUSH1 0x1 PUSH1 0x1 PUSH1 0xA0 SHL SUB DUP4 DUP2 AND PUSH1 0x1 PUSH1 0x1 PUSH1 0xA0 SHL SUB NOT DUP4 AND DUP2 OR DUP5 SSTORE PUSH1 0x40 MLOAD SWAP2 SWAP1 SWAP3 AND SWAP3 DUP4 SWAP2 PUSH32 0x8BE0079C531659141344CD1FD0A4F28419497F9722A3DAAFE3B4186F6B6457E0 SWAP2 SWAP1 LOG3 POP POP JUMP JUMPDEST PUSH1 0x0 DUP1 DUP1 PUSH1 0x1 PUSH1 0x1 PUSH1 0xA0 SHL SUB DUP6 AND PUSH2 0xBC8 JUMPI POP PUSH1 0x0 SWAP2 POP DUP2 SWAP1 POP DUP1 PUSH2 0xD94 JUMP JUMPDEST PUSH1 0x40 DUP1 MLOAD PUSH1 0x4 DUP2 MSTORE PUSH1 0x24 DUP2 ADD DUP3 MSTORE PUSH1 0x20 DUP2 ADD DUP1 MLOAD PUSH1 0x1 PUSH1 0x1 PUSH1 0xE0 SHL SUB AND PUSH4 0x3FABE5A3 PUSH1 0xE2 SHL OR SWAP1 MSTORE SWAP1 MLOAD PUSH1 0x0 SWAP1 DUP2 SWAP1 PUSH1 0x1 PUSH1 0x1 PUSH1 0xA0 SHL SUB DUP10 AND SWAP1 PUSH2 0xC0D SWAP1 DUP6 SWAP1 PUSH2 0x1BD1 JUMP JUMPDEST PUSH1 0x0 PUSH1 0x40 MLOAD DUP1 DUP4 SUB DUP2 DUP6 GAS STATICCALL SWAP2 POP POP RETURNDATASIZE DUP1 PUSH1 0x0 DUP2 EQ PUSH2 0xC48 JUMPI PUSH1 0x40 MLOAD SWAP2 POP PUSH1 0x1F NOT PUSH1 0x3F RETURNDATASIZE ADD AND DUP3 ADD PUSH1 0x40 MSTORE RETURNDATASIZE DUP3 MSTORE RETURNDATASIZE PUSH1 0x0 PUSH1 0x20 DUP5 ADD RETURNDATACOPY PUSH2 0xC4D JUMP JUMPDEST PUSH1 0x60 SWAP2 POP JUMPDEST POP SWAP2 POP SWAP2 POP DUP2 ISZERO DUP1 PUSH2 0xC60 JUMPI POP PUSH1 0xA0 DUP2 MLOAD LT JUMPDEST ISZERO PUSH2 0xC78 JUMPI PUSH1 0x0 DUP1 PUSH1 0x0 SWAP6 POP SWAP6 POP SWAP6 POP POP POP POP PUSH2 0xD94 JUMP JUMPDEST PUSH1 0x0 DUP2 DUP1 PUSH1 0x20 ADD SWAP1 MLOAD DUP2 ADD SWAP1 PUSH2 0xC8E SWAP2 SWAP1 PUSH2 0x1C0C JUMP JUMPDEST POP POP POP SWAP2 POP POP PUSH1 0x0 DUP2 SGT PUSH2 0xCB0 JUMPI PUSH1 0x0 DUP1 PUSH1 0x0 SWAP7 POP SWAP7 POP SWAP7 POP POP POP POP POP PUSH2 0xD94 JUMP JUMPDEST DUP8 PUSH1 0xFF DUP2 AND PUSH1 0x0 SUB PUSH2 0xD87 JUMPI PUSH1 0x40 DUP1 MLOAD PUSH1 0x4 DUP2 MSTORE PUSH1 0x24 DUP2 ADD DUP3 MSTORE PUSH1 0x20 DUP2 ADD DUP1 MLOAD PUSH1 0x1 PUSH1 0x1 PUSH1 0xE0 SHL SUB AND PUSH4 0x313CE567 PUSH1 0xE0 SHL OR SWAP1 MSTORE SWAP1 MLOAD PUSH1 0x0 SWAP2 DUP3 SWAP2 PUSH1 0x1 PUSH1 0x1 PUSH1 0xA0 SHL SUB DUP15 AND SWAP2 PUSH2 0xCFF SWAP2 PUSH2 0x1BD1 JUMP JUMPDEST PUSH1 0x0 PUSH1 0x40 MLOAD DUP1 DUP4 SUB DUP2 DUP6 GAS STATICCALL SWAP2 POP POP RETURNDATASIZE DUP1 PUSH1 0x0 DUP2 EQ PUSH2 0xD3A JUMPI PUSH1 0x40 MLOAD SWAP2 POP PUSH1 0x1F NOT PUSH1 0x3F RETURNDATASIZE ADD AND DUP3 ADD PUSH1 0x40 MSTORE RETURNDATASIZE DUP3 MSTORE RETURNDATASIZE PUSH1 0x0 PUSH1 0x20 DUP5 ADD RETURNDATACOPY PUSH2 0xD3F JUMP JUMPDEST PUSH1 0x60 SWAP2 POP JUMPDEST POP SWAP2 POP SWAP2 POP DUP2 ISZERO DUP1 PUSH2 0xD52 JUMPI POP PUSH1 0x20 DUP2 MLOAD LT JUMPDEST ISZERO PUSH2 0xD6E JUMPI PUSH1 0x0 DUP1 PUSH1 0x0 SWAP10 POP SWAP10 POP SWAP10 POP POP POP POP POP POP POP POP PUSH2 0xD94 JUMP JUMPDEST DUP1 DUP1 PUSH1 0x20 ADD SWAP1 MLOAD DUP2 ADD SWAP1 PUSH2 0xD82 SWAP2 SWAP1 PUSH2 0x1C5E JUMP JUMPDEST SWAP3 POP POP POP JUMPDEST PUSH1 0x1 SWAP8 POP SWAP1 SWAP6 POP SWAP4 POP POP POP POP JUMPDEST SWAP3 POP SWAP3 POP SWAP3 JUMP JUMPDEST PUSH1 0x0 DUP1 PUSH1 0x0 DUP1 DUP5 SWAP1 POP DUP1 PUSH1 0x1 PUSH1 0x1 PUSH1 0xA0 SHL SUB AND PUSH4 0x18160DDD PUSH1 0x40 MLOAD DUP2 PUSH4 0xFFFFFFFF AND PUSH1 0xE0 SHL DUP2 MSTORE PUSH1 0x4 ADD PUSH1 0x20 PUSH1 0x40 MLOAD DUP1 DUP4 SUB DUP2 DUP7 GAS STATICCALL ISZERO DUP1 ISZERO PUSH2 0xDE2 JUMPI RETURNDATASIZE PUSH1 0x0 DUP1 RETURNDATACOPY RETURNDATASIZE PUSH1 0x0 REVERT JUMPDEST POP POP POP POP PUSH1 0x40 MLOAD RETURNDATASIZE PUSH1 0x1F NOT PUSH1 0x1F DUP3 ADD AND DUP3 ADD DUP1 PUSH1 0x40 MSTORE POP DUP2 ADD SWAP1 PUSH2 0xE06 SWAP2 SWAP1 PUSH2 0x1C7B JUMP JUMPDEST SWAP4 POP PUSH1 0x0 DUP5 GT PUSH2 0xE63 JUMPI PUSH1 0x40 MLOAD PUSH3 0x461BCD PUSH1 0xE5 SHL DUP2 MSTORE PUSH1 0x20 PUSH1 0x4 DUP3 ADD MSTORE PUSH1 0x22 PUSH1 0x24 DUP3 ADD MSTORE PUSH32 0x4F7261636C654D616E616765723A207661756C7420746F74616C537570706C79 PUSH1 0x44 DUP3 ADD MSTORE PUSH2 0x3D3 PUSH1 0xF4 SHL PUSH1 0x64 DUP3 ADD MSTORE PUSH1 0x84 ADD PUSH2 0x319 JUMP JUMPDEST DUP1 PUSH1 0x1 PUSH1 0x1 PUSH1 0xA0 SHL SUB AND PUSH4 0xF657A7FE PUSH1 0x40 MLOAD DUP2 PUSH4 0xFFFFFFFF AND PUSH1 0xE0 SHL DUP2 MSTORE PUSH1 0x4 ADD PUSH1 0x20 PUSH1 0x40 MLOAD DUP1 DUP4 SUB DUP2 DUP7 GAS STATICCALL ISZERO DUP1 ISZERO PUSH2 0xEA1 JUMPI RETURNDATASIZE PUSH1 0x0 DUP1 RETURNDATACOPY RETURNDATASIZE PUSH1 0x0 REVERT JUMPDEST POP POP POP POP PUSH1 0x40 MLOAD RETURNDATASIZE PUSH1 0x1F NOT PUSH1 0x1F DUP3 ADD AND DUP3 ADD DUP1 PUSH1 0x40 MSTORE POP DUP2 ADD SWAP1 PUSH2 0xEC5 SWAP2 SWAP1 PUSH2 0x1C7B JUMP JUMPDEST SWAP3 POP DUP3 PUSH1 0x0 SUB PUSH2 0xF17 JUMPI PUSH1 0x40 MLOAD PUSH3 0x461BCD PUSH1 0xE5 SHL DUP2 MSTORE PUSH1 0x20 PUSH1 0x4 DUP3 ADD MSTORE PUSH1 0x1E PUSH1 0x24 DUP3 ADD MSTORE PUSH32 0x4F7261636C654D616E616765723A206E6F204E465420696E207661756C740000 PUSH1 0x44 DUP3 ADD MSTORE PUSH1 0x64 ADD PUSH2 0x319 JUMP JUMPDEST DUP1 PUSH1 0x1 PUSH1 0x1 PUSH1 0xA0 SHL SUB AND PUSH4 0x791B98BC PUSH1 0x40 MLOAD DUP2 PUSH4 0xFFFFFFFF AND PUSH1 0xE0 SHL DUP2 MSTORE PUSH1 0x4 ADD PUSH1 0x20 PUSH1 0x40 MLOAD DUP1 DUP4 SUB DUP2 DUP7 GAS STATICCALL ISZERO DUP1 ISZERO PUSH2 0xF55 JUMPI RETURNDATASIZE PUSH1 0x0 DUP1 RETURNDATACOPY RETURNDATASIZE PUSH1 0x0 REVERT JUMPDEST POP POP POP POP PUSH1 0x40 MLOAD RETURNDATASIZE PUSH1 0x1F NOT PUSH1 0x1F DUP3 ADD AND DUP3 ADD DUP1 PUSH1 0x40 MSTORE POP DUP2 ADD SWAP1 PUSH2 0xF79 SWAP2 SWAP1 PUSH2 0x1B2F JUMP JUMPDEST SWAP2 POP PUSH1 0x1 PUSH1 0x1 PUSH1 0xA0 SHL SUB DUP3 AND PUSH2 0xFDC JUMPI PUSH1 0x40 MLOAD PUSH3 0x461BCD PUSH1 0xE5 SHL DUP2 MSTORE PUSH1 0x20 PUSH1 0x4 DUP3 ADD MSTORE PUSH1 0x22 PUSH1 0x24 DUP3 ADD MSTORE PUSH32 0x4F7261636C654D616E616765723A20696E76616C696420706F736974696F6E4D PUSH1 0x44 DUP3 ADD MSTORE PUSH2 0x33B9 PUSH1 0xF1 SHL PUSH1 0x64 DUP3 ADD MSTORE PUSH1 0x84 ADD PUSH2 0x319 JUMP JUMPDEST POP SWAP2 SWAP4 SWAP1 SWAP3 POP JUMP JUMPDEST PUSH1 0x40 DUP1 MLOAD PUSH1 0xE0 DUP2 ADD DUP3 MSTORE PUSH1 0x0 DUP1 DUP3 MSTORE PUSH1 0x20 DUP3 ADD DUP2 SWAP1 MSTORE SWAP2 DUP2 ADD DUP3 SWAP1 MSTORE PUSH1 0x60 DUP2 ADD DUP3 SWAP1 MSTORE PUSH1 0x80 DUP2 ADD DUP3 SWAP1 MSTORE PUSH1 0xA0 DUP2 ADD DUP3 SWAP1 MSTORE PUSH1 0xC0 DUP2 ADD SWAP2 SWAP1 SWAP2 MSTORE PUSH1 0x0 DUP1 DUP5 PUSH1 0x1 PUSH1 0x1 PUSH1 0xA0 SHL SUB AND PUSH4 0x99FBAB88 PUSH1 0xE0 SHL DUP6 PUSH1 0x40 MLOAD PUSH1 0x24 ADD PUSH2 0x1045 SWAP2 DUP2 MSTORE PUSH1 0x20 ADD SWAP1 JUMP JUMPDEST PUSH1 0x40 DUP1 MLOAD PUSH1 0x1F NOT DUP2 DUP5 SUB ADD DUP2 MSTORE SWAP2 DUP2 MSTORE PUSH1 0x20 DUP3 ADD DUP1 MLOAD PUSH1 0x1 PUSH1 0x1 PUSH1 0xE0 SHL SUB AND PUSH1 0x1 PUSH1 0x1 PUSH1 0xE0 SHL SUB NOT SWAP1 SWAP5 AND SWAP4 SWAP1 SWAP4 OR SWAP1 SWAP3 MSTORE SWAP1 MLOAD PUSH2 0x1083 SWAP2 SWAP1 PUSH2 0x1BD1 JUMP JUMPDEST PUSH1 0x0 PUSH1 0x40 MLOAD DUP1 DUP4 SUB DUP2 DUP6 GAS STATICCALL SWAP2 POP POP RETURNDATASIZE DUP1 PUSH1 0x0 DUP2 EQ PUSH2 0x10BE JUMPI PUSH1 0x40 MLOAD SWAP2 POP PUSH1 0x1F NOT PUSH1 0x3F RETURNDATASIZE ADD AND DUP3 ADD PUSH1 0x40 MSTORE RETURNDATASIZE DUP3 MSTORE RETURNDATASIZE PUSH1 0x0 PUSH1 0x20 DUP5 ADD RETURNDATACOPY PUSH2 0x10C3 JUMP JUMPDEST PUSH1 0x60 SWAP2 POP JUMPDEST POP SWAP2 POP SWAP2 POP DUP2 PUSH2 0x10D2 DUP3 PUSH2 0x13A3 JUMP JUMPDEST SWAP1 PUSH2 0x10F0 JUMPI PUSH1 0x40 MLOAD PUSH3 0x461BCD PUSH1 0xE5 SHL DUP2 MSTORE PUSH1 0x4 ADD PUSH2 0x319 SWAP2 SWAP1 PUSH2 0x1C94 JUMP JUMPDEST POP DUP1 DUP1 PUSH1 0x20 ADD SWAP1 MLOAD DUP2 ADD SWAP1 PUSH2 0x1105 SWAP2 SWAP1 PUSH2 0x1D0E JUMP JUMPDEST SWAP1 SWAP2 SWAP3 SWAP4 SWAP5 SWAP6 SWAP7 SWAP8 SWAP9 SWAP10 SWAP11 POP SWAP1 SWAP2 SWAP3 SWAP4 SWAP5 SWAP6 SWAP7 SWAP8 SWAP9 SWAP10 POP SWAP1 SWAP2 SWAP3 SWAP4 SWAP5 SWAP6 SWAP7 POP SWAP1 SWAP2 SWAP3 POP SWAP1 SWAP2 POP DUP10 PUSH1 0x0 ADD DUP11 PUSH1 0x20 ADD DUP12 PUSH1 0x40 ADD DUP13 PUSH1 0x60 ADD DUP14 PUSH1 0x80 ADD DUP15 PUSH1 0xA0 ADD DUP16 PUSH1 0xC0 ADD DUP8 PUSH1 0x1 PUSH1 0x1 PUSH1 0x80 SHL SUB AND PUSH1 0x1 PUSH1 0x1 PUSH1 0x80 SHL SUB AND DUP2 MSTORE POP DUP8 PUSH1 0x1 PUSH1 0x1 PUSH1 0x80 SHL SUB AND PUSH1 0x1 PUSH1 0x1 PUSH1 0x80 SHL SUB AND DUP2 MSTORE POP DUP8 PUSH1 0x1 PUSH1 0x1 PUSH1 0x80 SHL SUB AND PUSH1 0x1 PUSH1 0x1 PUSH1 0x80 SHL SUB AND DUP2 MSTORE POP DUP8 PUSH1 0x2 SIGNEXTEND PUSH1 0x2 SIGNEXTEND DUP2 MSTORE POP DUP8 PUSH1 0x2 SIGNEXTEND PUSH1 0x2 SIGNEXTEND DUP2 MSTORE POP DUP8 PUSH1 0x1 PUSH1 0x1 PUSH1 0xA0 SHL SUB AND PUSH1 0x1 PUSH1 0x1 PUSH1 0xA0 SHL SUB AND DUP2 MSTORE POP DUP8 PUSH1 0x1 PUSH1 0x1 PUSH1 0xA0 SHL SUB AND PUSH1 0x1 PUSH1 0x1 PUSH1 0xA0 SHL SUB AND DUP2 MSTORE POP POP POP POP POP POP POP POP POP POP SWAP3 SWAP2 POP POP JUMP JUMPDEST PUSH1 0x0 DUP1 PUSH1 0x1 PUSH1 0x1 PUSH1 0xA0 SHL SUB DUP4 AND PUSH2 0x1231 JUMPI PUSH1 0x40 MLOAD PUSH3 0x461BCD PUSH1 0xE5 SHL DUP2 MSTORE PUSH1 0x20 PUSH1 0x4 DUP3 ADD MSTORE PUSH1 0x1B PUSH1 0x24 DUP3 ADD MSTORE PUSH32 0x4F7261636C654D616E616765723A20696E76616C696420706F6F6C0000000000 PUSH1 0x44 DUP3 ADD MSTORE PUSH1 0x64 ADD PUSH2 0x319 JUMP JUMPDEST PUSH1 0x40 DUP1 MLOAD PUSH1 0x4 DUP2 MSTORE PUSH1 0x24 DUP2 ADD DUP3 MSTORE PUSH1 0x20 DUP2 ADD DUP1 MLOAD PUSH1 0x1 PUSH1 0x1 PUSH1 0xE0 SHL SUB AND PUSH4 0x3850C7BD PUSH1 0xE0 SHL OR SWAP1 MSTORE SWAP1 MLOAD PUSH1 0x0 SWAP2 DUP3 SWAP2 PUSH1 0x1 PUSH1 0x1 PUSH1 0xA0 SHL SUB DUP8 AND SWAP2 PUSH2 0x1274 SWAP2 PUSH2 0x1BD1 JUMP JUMPDEST PUSH1 0x0 PUSH1 0x40 MLOAD DUP1 DUP4 SUB DUP2 DUP6 GAS STATICCALL SWAP2 POP POP RETURNDATASIZE DUP1 PUSH1 0x0 DUP2 EQ PUSH2 0x12AF JUMPI PUSH1 0x40 MLOAD SWAP2 POP PUSH1 0x1F NOT PUSH1 0x3F RETURNDATASIZE ADD AND DUP3 ADD PUSH1 0x40 MSTORE RETURNDATASIZE DUP3 MSTORE RETURNDATASIZE PUSH1 0x0 PUSH1 0x20 DUP5 ADD RETURNDATACOPY PUSH2 0x12B4 JUMP JUMPDEST PUSH1 0x60 SWAP2 POP JUMPDEST POP SWAP2 POP SWAP2 POP DUP2 PUSH2 0x12C3 DUP3 PUSH2 0x13A3 JUMP JUMPDEST SWAP1 PUSH2 0x12E1 JUMPI PUSH1 0x40 MLOAD PUSH3 0x461BCD PUSH1 0xE5 SHL DUP2 MSTORE PUSH1 0x4 ADD PUSH2 0x319 SWAP2 SWAP1 PUSH2 0x1C94 JUMP JUMPDEST POP DUP1 DUP1 PUSH1 0x20 ADD SWAP1 MLOAD DUP2 ADD SWAP1 PUSH2 0x12F6 SWAP2 SWAP1 PUSH2 0x1E02 JUMP JUMPDEST POP SWAP5 SWAP11 SWAP4 SWAP10 POP SWAP3 SWAP8 POP POP POP POP POP POP POP POP JUMP JUMPDEST PUSH1 0x0 DUP1 DUP3 PUSH1 0x1 PUSH1 0x1 PUSH1 0x80 SHL SUB AND PUSH1 0x0 SUB PUSH2 0x1327 JUMPI POP PUSH1 0x0 SWAP1 POP DUP1 PUSH2 0x1355 JUMP JUMPDEST PUSH1 0x0 PUSH2 0x1332 DUP7 PUSH2 0x13EE JUMP JUMPDEST SWAP1 POP PUSH1 0x0 PUSH2 0x133F DUP7 PUSH2 0x13EE JUMP JUMPDEST SWAP1 POP PUSH2 0x134D DUP9 DUP4 DUP4 DUP9 PUSH2 0x1711 JUMP JUMPDEST SWAP1 SWAP5 POP SWAP3 POP POP POP JUMPDEST SWAP5 POP SWAP5 SWAP3 POP POP POP JUMP JUMPDEST PUSH1 0x0 DUP1 PUSH2 0x1374 DUP6 DUP5 PUSH1 0x0 ADD MLOAD DUP6 PUSH1 0x40 ADD MLOAD PUSH2 0x17AC JUMP JUMPDEST SWAP1 POP PUSH1 0x0 PUSH2 0x138B DUP6 DUP6 PUSH1 0x20 ADD MLOAD DUP7 PUSH1 0x60 ADD MLOAD PUSH2 0x17AC JUMP JUMPDEST SWAP1 POP PUSH2 0x1397 DUP2 DUP4 PUSH2 0x1B62 JUMP JUMPDEST SWAP3 POP POP POP JUMPDEST SWAP4 SWAP3 POP POP POP JUMP JUMPDEST PUSH1 0x60 PUSH1 0x44 DUP3 MLOAD LT ISZERO PUSH2 0x13CE JUMPI PUSH1 0x40 MLOAD DUP1 PUSH1 0x60 ADD PUSH1 0x40 MSTORE DUP1 PUSH1 0x24 DUP2 MSTORE PUSH1 0x20 ADD PUSH2 0x206A PUSH1 0x24 SWAP2 CODECOPY SWAP3 SWAP2 POP POP JUMP JUMPDEST PUSH1 0x4 DUP3 ADD SWAP2 POP DUP2 DUP1 PUSH1 0x20 ADD SWAP1 MLOAD DUP2 ADD SWAP1 PUSH2 0x13E8 SWAP2 SWAP1 PUSH2 0x1EA7 JUMP JUMPDEST SWAP3 SWAP2 POP POP JUMP JUMPDEST PUSH1 0x0 DUP1 PUSH1 0x0 DUP4 PUSH1 0x2 SIGNEXTEND SLT PUSH2 0x1405 JUMPI DUP3 PUSH1 0x2 SIGNEXTEND PUSH2 0x140D JUMP JUMPDEST DUP3 PUSH1 0x2 SIGNEXTEND PUSH1 0x0 SUB JUMPDEST SWAP1 POP PUSH3 0xD89E8 DUP2 GT ISZERO PUSH2 0x1433 JUMPI PUSH1 0x40 MLOAD PUSH4 0x15E4079D PUSH1 0xE1 SHL DUP2 MSTORE PUSH1 0x4 ADD PUSH1 0x40 MLOAD DUP1 SWAP2 SUB SWAP1 REVERT JUMPDEST PUSH1 0x0 DUP2 PUSH1 0x1 AND PUSH1 0x0 SUB PUSH2 0x144A JUMPI PUSH1 0x1 PUSH1 0x80 SHL PUSH2 0x145C JUMP JUMPDEST PUSH16 0xFFFCB933BD6FAD37AA2D162D1A594001 JUMPDEST PUSH17 0xFFFFFFFFFFFFFFFFFFFFFFFFFFFFFFFFFF AND SWAP1 POP PUSH1 0x2 DUP3 AND ISZERO PUSH2 0x1490 JUMPI PUSH16 0xFFF97272373D413259A46990580E213A MUL PUSH1 0x80 SHR JUMPDEST PUSH1 0x4 DUP3 AND ISZERO PUSH2 0x14AF JUMPI PUSH16 0xFFF2E50F5F656932EF12357CF3C7FDCC MUL PUSH1 0x80 SHR JUMPDEST PUSH1 0x8 DUP3 AND ISZERO PUSH2 0x14CE JUMPI PUSH16 0xFFE5CACA7E10E4E61C3624EAA0941CD0 MUL PUSH1 0x80 SHR JUMPDEST PUSH1 0x10 DUP3 AND ISZERO PUSH2 0x14ED JUMPI PUSH16 0xFFCB9843D60F6159C9DB58835C926644 MUL PUSH1 0x80 SHR JUMPDEST PUSH1 0x20 DUP3 AND ISZERO PUSH2 0x150C JUMPI PUSH16 0xFF973B41FA98C081472E6896DFB254C0 MUL PUSH1 0x80 SHR JUMPDEST PUSH1 0x40 DUP3 AND ISZERO PUSH2 0x152B JUMPI PUSH16 0xFF2EA16466C96A3843EC78B326B52861 MUL PUSH1 0x80 SHR JUMPDEST PUSH1 0x80 DUP3 AND ISZERO PUSH2 0x154A JUMPI PUSH16 0xFE5DEE046A99A2A811C461F1969C3053 MUL PUSH1 0x80 SHR JUMPDEST PUSH2 0x100 DUP3 AND ISZERO PUSH2 0x156A JUMPI PUSH16 0xFCBE86C7900A88AEDCFFC83B479AA3A4 MUL PUSH1 0x80 SHR JUMPDEST PUSH2 0x200 DUP3 AND ISZERO PUSH2 0x158A JUMPI PUSH16 0xF987A7253AC413176F2B074CF7815E54 MUL PUSH1 0x80 SHR JUMPDEST PUSH2 0x400 DUP3 AND ISZERO PUSH2 0x15AA JUMPI PUSH16 0xF3392B0822B70005940C7A398E4B70F3 MUL PUSH1 0x80 SHR JUMPDEST PUSH2 0x800 DUP3 AND ISZERO PUSH2 0x15CA JUMPI PUSH16 0xE7159475A2C29B7443B29C7FA6E889D9 MUL PUSH1 0x80 SHR JUMPDEST PUSH2 0x1000 DUP3 AND ISZERO PUSH2 0x15EA JUMPI PUSH16 0xD097F3BDFD2022B8845AD8F792AA5825 MUL PUSH1 0x80 SHR JUMPDEST PUSH2 0x2000 DUP3 AND ISZERO PUSH2 0x160A JUMPI PUSH16 0xA9F746462D870FDF8A65DC1F90E061E5 MUL PUSH1 0x80 SHR JUMPDEST PUSH2 0x4000 DUP3 AND ISZERO PUSH2 0x162A JUMPI PUSH16 0x70D869A156D2A1B890BB3DF62BAF32F7 MUL PUSH1 0x80 SHR JUMPDEST PUSH2 0x8000 DUP3 AND ISZERO PUSH2 0x164A JUMPI PUSH16 0x31BE135F97D08FD981231505542FCFA6 MUL PUSH1 0x80 SHR JUMPDEST PUSH3 0x10000 DUP3 AND ISZERO PUSH2 0x166B JUMPI PUSH16 0x9AA508B5B7A84E1C677DE54F3E99BC9 MUL PUSH1 0x80 SHR JUMPDEST PUSH3 0x20000 DUP3 AND ISZERO PUSH2 0x168B JUMPI PUSH15 0x5D6AF8DEDB81196699C329225EE604 MUL PUSH1 0x80 SHR JUMPDEST PUSH3 0x40000 DUP3 AND ISZERO PUSH2 0x16AA JUMPI PUSH14 0x2216E584F5FA1EA926041BEDFE98 MUL PUSH1 0x80 SHR JUMPDEST PUSH3 0x80000 DUP3 AND ISZERO PUSH2 0x16C7 JUMPI PUSH12 0x48A170391F7DC42444E8FA2 MUL PUSH1 0x80 SHR JUMPDEST PUSH1 0x0 DUP5 PUSH1 0x2 SIGNEXTEND SGT ISZERO PUSH2 0x16E8 JUMPI DUP1 PUSH1 0x0 NOT DUP2 PUSH2 0x16E4 JUMPI PUSH2 0x16E4 PUSH2 0x1B75 JUMP JUMPDEST DIV SWAP1 POP JUMPDEST PUSH5 0x100000000 DUP2 MOD ISZERO PUSH2 0x16FC JUMPI PUSH1 0x1 PUSH2 0x16FF JUMP JUMPDEST PUSH1 0x0 JUMPDEST PUSH1 0xFF AND PUSH1 0x20 DUP3 SWAP1 SHR ADD SWAP3 POP POP POP SWAP2 SWAP1 POP JUMP JUMPDEST PUSH1 0x0 DUP1 DUP4 PUSH1 0x1 PUSH1 0x1 PUSH1 0xA0 SHL SUB AND DUP6 PUSH1 0x1 PUSH1 0x1 PUSH1 0xA0 SHL SUB AND GT ISZERO PUSH2 0x1732 JUMPI SWAP3 SWAP4 SWAP3 JUMPDEST DUP5 PUSH1 0x1 PUSH1 0x1 PUSH1 0xA0 SHL SUB AND DUP7 PUSH1 0x1 PUSH1 0x1 PUSH1 0xA0 SHL SUB AND GT PUSH2 0x175D JUMPI PUSH2 0x1756 DUP6 DUP6 DUP6 PUSH2 0x1881 JUMP JUMPDEST SWAP2 POP PUSH2 0x1355 JUMP JUMPDEST DUP4 PUSH1 0x1 PUSH1 0x1 PUSH1 0xA0 SHL SUB AND DUP7 PUSH1 0x1 PUSH1 0x1 PUSH1 0xA0 SHL SUB AND LT ISZERO PUSH2 0x1796 JUMPI PUSH2 0x1782 DUP7 DUP6 DUP6 PUSH2 0x1881 JUMP JUMPDEST SWAP2 POP PUSH2 0x178F DUP6 DUP8 DUP6 PUSH2 0x18F0 JUMP JUMPDEST SWAP1 POP PUSH2 0x1355 JUMP JUMPDEST PUSH2 0x17A1 DUP6 DUP6 DUP6 PUSH2 0x18F0 JUMP JUMPDEST SWAP1 POP SWAP5 POP SWAP5 SWAP3 POP POP POP JUMP JUMPDEST PUSH1 0x0 DUP4 ISZERO DUP1 PUSH2 0x17C2 JUMPI POP PUSH1 0x1 PUSH1 0x1 PUSH1 0xA0 SHL SUB DUP4 AND ISZERO JUMPDEST ISZERO PUSH2 0x17CF JUMPI POP PUSH1 0x0 PUSH2 0x139C JUMP JUMPDEST PUSH1 0x0 DUP1 PUSH1 0x0 PUSH2 0x17DE DUP7 DUP7 PUSH2 0xBA8 JUMP JUMPDEST SWAP3 POP SWAP3 POP SWAP3 POP DUP3 PUSH2 0x1857 JUMPI PUSH1 0x40 MLOAD PUSH3 0x461BCD PUSH1 0xE5 SHL DUP2 MSTORE PUSH1 0x20 PUSH1 0x4 DUP3 ADD MSTORE PUSH1 0x3B PUSH1 0x24 DUP3 ADD MSTORE PUSH32 0x4F7261636C654D616E616765723A2061676772656761746F72206661696C2069 PUSH1 0x44 DUP3 ADD MSTORE PUSH32 0x6E205F636F6E76657274546F41676772656761746F7256616C75650000000000 PUSH1 0x64 DUP3 ADD MSTORE PUSH1 0x84 ADD PUSH2 0x319 JUMP JUMPDEST PUSH2 0x1862 DUP2 PUSH1 0xA PUSH2 0x2043 JUMP JUMPDEST PUSH2 0x186C DUP4 DUP10 PUSH2 0x2052 JUMP JUMPDEST PUSH2 0x1876 SWAP2 SWAP1 PUSH2 0x1B8B JUMP JUMPDEST SWAP8 SWAP7 POP POP POP POP POP POP POP JUMP JUMPDEST PUSH1 0x0 DUP3 PUSH1 0x1 PUSH1 0x1 PUSH1 0xA0 SHL SUB AND DUP5 PUSH1 0x1 PUSH1 0x1 PUSH1 0xA0 SHL SUB AND GT ISZERO PUSH2 0x18A1 JUMPI SWAP2 SWAP3 SWAP2 JUMPDEST DUP4 PUSH1 0x1 PUSH1 0x1 PUSH1 0xA0 SHL SUB AND PUSH2 0x18DA PUSH1 0x60 PUSH1 0xFF AND DUP5 PUSH1 0x1 PUSH1 0x1 PUSH1 0x80 SHL SUB AND SWAP1 SHL DUP7 DUP7 SUB PUSH1 0x1 PUSH1 0x1 PUSH1 0xA0 SHL SUB AND DUP7 PUSH1 0x1 PUSH1 0x1 PUSH1 0xA0 SHL SUB AND PUSH2 0x193B JUMP JUMPDEST DUP2 PUSH2 0x18E7 JUMPI PUSH2 0x18E7 PUSH2 0x1B75 JUMP JUMPDEST DIV SWAP5 SWAP4 POP POP POP POP JUMP JUMPDEST PUSH1 0x0 DUP3 PUSH1 0x1 PUSH1 0x1 PUSH1 0xA0 SHL SUB AND DUP5 PUSH1 0x1 PUSH1 0x1 PUSH1 0xA0 SHL SUB AND GT ISZERO PUSH2 0x1910 JUMPI SWAP2 SWAP3 SWAP2 JUMPDEST PUSH2 0x1933 DUP3 PUSH1 0x1 PUSH1 0x1 PUSH1 0x80 SHL SUB AND DUP6 DUP6 SUB PUSH1 0x1 PUSH1 0x1 PUSH1 0xA0 SHL SUB AND PUSH1 0x1 PUSH1 0x60 SHL PUSH2 0x193B JUMP JUMPDEST SWAP5 SWAP4 POP POP POP POP JUMP JUMPDEST PUSH1 0x0 DUP1 DUP1 PUSH1 0x0 NOT DUP6 DUP8 MULMOD DUP6 DUP8 MUL SWAP3 POP DUP3 DUP2 LT DUP4 DUP3 SUB SUB SWAP2 POP POP DUP1 PUSH1 0x0 SUB PUSH2 0x1974 JUMPI PUSH1 0x0 DUP5 GT PUSH2 0x1969 JUMPI PUSH1 0x0 DUP1 REVERT JUMPDEST POP DUP3 SWAP1 DIV SWAP1 POP PUSH2 0x139C JUMP JUMPDEST DUP1 DUP5 GT PUSH2 0x1980 JUMPI PUSH1 0x0 DUP1 REVERT JUMPDEST PUSH1 0x0 DUP5 DUP7 DUP9 MULMOD PUSH1 0x0 DUP7 DUP2 SUB DUP8 AND SWAP7 DUP8 SWAP1 DIV SWAP7 PUSH1 0x2 PUSH1 0x3 DUP10 MUL DUP2 XOR DUP1 DUP11 MUL DUP3 SUB MUL DUP1 DUP11 MUL DUP3 SUB MUL DUP1 DUP11 MUL DUP3 SUB MUL DUP1 DUP11 MUL DUP3 SUB MUL DUP1 DUP11 MUL DUP3 SUB MUL DUP1 DUP11 MUL SWAP1 SWAP2 SUB MUL SWAP2 DUP2 SWAP1 SUB DUP2 SWAP1 DIV PUSH1 0x1 ADD DUP7 DUP5 GT SWAP1 SWAP6 SUB SWAP5 SWAP1 SWAP5 MUL SWAP2 SWAP1 SWAP5 SUB SWAP3 SWAP1 SWAP3 DIV SWAP2 SWAP1 SWAP2 OR SWAP2 SWAP1 SWAP2 MUL SWAP2 POP POP SWAP4 SWAP3 POP POP POP JUMP JUMPDEST PUSH1 0x1 PUSH1 0x1 PUSH1 0xA0 SHL SUB DUP2 AND DUP2 EQ PUSH2 0x848 JUMPI PUSH1 0x0 DUP1 REVERT JUMPDEST PUSH1 0x0 PUSH1 0x20 DUP3 DUP5 SUB SLT ISZERO PUSH2 0x1A14 JUMPI PUSH1 0x0 DUP1 REVERT JUMPDEST DUP2 CALLDATALOAD PUSH2 0x139C DUP2 PUSH2 0x19ED JUMP JUMPDEST PUSH1 0xFF DUP2 AND DUP2 EQ PUSH2 0x848 JUMPI PUSH1 0x0 DUP1 REVERT JUMPDEST PUSH1 0x0 DUP1 PUSH1 0x0 DUP1 PUSH1 0x0 PUSH1 0xA0 DUP7 DUP9 SUB SLT ISZERO PUSH2 0x1A46 JUMPI PUSH1 0x0 DUP1 REVERT JUMPDEST DUP6 CALLDATALOAD PUSH2 0x1A51 DUP2 PUSH2 0x19ED JUMP JUMPDEST SWAP5 POP PUSH1 0x20 DUP7 ADD CALLDATALOAD PUSH2 0x1A61 DUP2 PUSH2 0x19ED JUMP JUMPDEST SWAP4 POP PUSH1 0x40 DUP7 ADD CALLDATALOAD PUSH2 0x1A71 DUP2 PUSH2 0x19ED JUMP JUMPDEST SWAP3 POP PUSH1 0x60 DUP7 ADD CALLDATALOAD PUSH2 0x1A81 DUP2 PUSH2 0x1A1F JUMP JUMPDEST SWAP2 POP PUSH1 0x80 DUP7 ADD CALLDATALOAD PUSH2 0x1A91 DUP2 PUSH2 0x1A1F JUMP JUMPDEST DUP1 SWAP2 POP POP SWAP3 SWAP6 POP SWAP3 SWAP6 SWAP1 SWAP4 POP JUMP JUMPDEST DUP1 ISZERO ISZERO DUP2 EQ PUSH2 0x848 JUMPI PUSH1 0x0 DUP1 REVERT JUMPDEST PUSH1 0x0 DUP1 PUSH1 0x0 DUP1 PUSH1 0x0 DUP1 PUSH1 0xC0 DUP8 DUP10 SUB SLT ISZERO PUSH2 0x1AC6 JUMPI PUSH1 0x0 DUP1 REVERT JUMPDEST DUP7 CALLDATALOAD PUSH2 0x1AD1 DUP2 PUSH2 0x19ED JUMP JUMPDEST SWAP6 POP PUSH1 0x20 DUP8 ADD CALLDATALOAD PUSH2 0x1AE1 DUP2 PUSH2 0x19ED JUMP JUMPDEST SWAP5 POP PUSH1 0x40 DUP8 ADD CALLDATALOAD PUSH2 0x1AF1 DUP2 PUSH2 0x19ED JUMP JUMPDEST SWAP4 POP PUSH1 0x60 DUP8 ADD CALLDATALOAD PUSH2 0x1B01 DUP2 PUSH2 0x1A9F JUMP JUMPDEST SWAP3 POP PUSH1 0x80 DUP8 ADD CALLDATALOAD PUSH2 0x1B11 DUP2 PUSH2 0x1A1F JUMP JUMPDEST SWAP2 POP PUSH1 0xA0 DUP8 ADD CALLDATALOAD PUSH2 0x1B21 DUP2 PUSH2 0x1A9F JUMP JUMPDEST DUP1 SWAP2 POP POP SWAP3 SWAP6 POP SWAP3 SWAP6 POP SWAP3 SWAP6 JUMP JUMPDEST PUSH1 0x0 PUSH1 0x20 DUP3 DUP5 SUB SLT ISZERO PUSH2 0x1B41 JUMPI PUSH1 0x0 DUP1 REVERT JUMPDEST DUP2 MLOAD PUSH2 0x139C DUP2 PUSH2 0x19ED JUMP JUMPDEST PUSH4 0x4E487B71 PUSH1 0xE0 SHL PUSH1 0x0 MSTORE PUSH1 0x11 PUSH1 0x4 MSTORE PUSH1 0x24 PUSH1 0x0 REVERT JUMPDEST DUP1 DUP3 ADD DUP1 DUP3 GT ISZERO PUSH2 0x13E8 JUMPI PUSH2 0x13E8 PUSH2 0x1B4C JUMP JUMPDEST PUSH4 0x4E487B71 PUSH1 0xE0 SHL PUSH1 0x0 MSTORE PUSH1 0x12 PUSH1 0x4 MSTORE PUSH1 0x24 PUSH1 0x0 REVERT JUMPDEST PUSH1 0x0 DUP3 PUSH2 0x1BA8 JUMPI PUSH4 0x4E487B71 PUSH1 0xE0 SHL PUSH1 0x0 MSTORE PUSH1 0x12 PUSH1 0x4 MSTORE PUSH1 0x24 PUSH1 0x0 REVERT JUMPDEST POP DIV SWAP1 JUMP JUMPDEST PUSH1 0x0 JUMPDEST DUP4 DUP2 LT ISZERO PUSH2 0x1BC8 JUMPI DUP2 DUP2 ADD MLOAD DUP4 DUP3 ADD MSTORE PUSH1 0x20 ADD PUSH2 0x1BB0 JUMP JUMPDEST POP POP PUSH1 0x0 SWAP2 ADD MSTORE JUMP JUMPDEST PUSH1 0x0 DUP3 MLOAD PUSH2 0x1BE3 DUP2 DUP5 PUSH1 0x20 DUP8 ADD PUSH2 0x1BAD JUMP JUMPDEST SWAP2 SWAP1 SWAP2 ADD SWAP3 SWAP2 POP POP JUMP JUMPDEST DUP1 MLOAD PUSH10 0xFFFFFFFFFFFFFFFFFFFF DUP2 AND DUP2 EQ PUSH2 0x1C07 JUMPI PUSH1 0x0 DUP1 REVERT JUMPDEST SWAP2 SWAP1 POP JUMP JUMPDEST PUSH1 0x0 DUP1 PUSH1 0x0 DUP1 PUSH1 0x0 PUSH1 0xA0 DUP7 DUP9 SUB SLT ISZERO PUSH2 0x1C24 JUMPI PUSH1 0x0 DUP1 REVERT JUMPDEST PUSH2 0x1C2D DUP7 PUSH2 0x1BED JUMP JUMPDEST PUSH1 0x20 DUP8 ADD MLOAD PUSH1 0x40 DUP9 ADD MLOAD PUSH1 0x60 DUP10 ADD MLOAD SWAP3 SWAP8 POP SWAP1 SWAP6 POP SWAP4 POP SWAP2 POP PUSH2 0x1C52 PUSH1 0x80 DUP8 ADD PUSH2 0x1BED JUMP JUMPDEST SWAP1 POP SWAP3 SWAP6 POP SWAP3 SWAP6 SWAP1 SWAP4 POP JUMP JUMPDEST PUSH1 0x0 PUSH1 0x20 DUP3 DUP5 SUB SLT ISZERO PUSH2 0x1C70 JUMPI PUSH1 0x0 DUP1 REVERT JUMPDEST DUP2 MLOAD PUSH2 0x139C DUP2 PUSH2 0x1A1F JUMP JUMPDEST PUSH1 0x0 PUSH1 0x20 DUP3 DUP5 SUB SLT ISZERO PUSH2 0x1C8D JUMPI PUSH1 0x0 DUP1 REVERT JUMPDEST POP MLOAD SWAP2 SWAP1 POP JUMP JUMPDEST PUSH1 0x20 DUP2 MSTORE PUSH1 0x0 DUP3 MLOAD DUP1 PUSH1 0x20 DUP5 ADD MSTORE PUSH2 0x1CB3 DUP2 PUSH1 0x40 DUP6 ADD PUSH1 0x20 DUP8 ADD PUSH2 0x1BAD JUMP JUMPDEST PUSH1 0x1F ADD PUSH1 0x1F NOT AND SWAP2 SWAP1 SWAP2 ADD PUSH1 0x40 ADD SWAP3 SWAP2 POP POP JUMP JUMPDEST DUP1 MLOAD PUSH2 0x1C07 DUP2 PUSH2 0x19ED JUMP JUMPDEST DUP1 MLOAD PUSH3 0xFFFFFF DUP2 AND DUP2 EQ PUSH2 0x1C07 JUMPI PUSH1 0x0 DUP1 REVERT JUMPDEST DUP1 MLOAD PUSH1 0x2 DUP2 SWAP1 SIGNEXTEND DUP2 EQ PUSH2 0x1C07 JUMPI PUSH1 0x0 DUP1 REVERT JUMPDEST DUP1 MLOAD PUSH1 0x1 PUSH1 0x1 PUSH1 0x80 SHL SUB DUP2 AND DUP2 EQ PUSH2 0x1C07 JUMPI PUSH1 0x0 DUP1 REVERT JUMPDEST PUSH1 0x0 DUP1 PUSH1 0x0 DUP1 PUSH1 0x0 DUP1 PUSH1 0x0 DUP1 PUSH1 0x0 DUP1 PUSH1 0x0 DUP1 PUSH2 0x180 DUP14 DUP16 SUB SLT ISZERO PUSH2 0x1D31 JUMPI PUSH1 0x0 DUP1 REVERT JUMPDEST DUP13 MLOAD PUSH12 0xFFFFFFFFFFFFFFFFFFFFFFFF DUP2 AND DUP2 EQ PUSH2 0x1D4D JUMPI PUSH1 0x0 DUP1 REVERT JUMPDEST SWAP12 POP PUSH2 0x1D5B PUSH1 0x20 DUP15 ADD PUSH2 0x1CC7 JUMP JUMPDEST SWAP11 POP PUSH2 0x1D69 PUSH1 0x40 DUP15 ADD PUSH2 0x1CC7 JUMP JUMPDEST SWAP10 POP PUSH2 0x1D77 PUSH1 0x60 DUP15 ADD PUSH2 0x1CC7 JUMP JUMPDEST SWAP9 POP PUSH2 0x1D85 PUSH1 0x80 DUP15 ADD PUSH2 0x1CD2 JUMP JUMPDEST SWAP8 POP PUSH2 0x1D93 PUSH1 0xA0 DUP15 ADD PUSH2 0x1CE5 JUMP JUMPDEST SWAP7 POP PUSH2 0x1DA1 PUSH1 0xC0 DUP15 ADD PUSH2 0x1CE5 JUMP JUMPDEST SWAP6 POP PUSH2 0x1DAF PUSH1 0xE0 DUP15 ADD PUSH2 0x1CF7 JUMP JUMPDEST PUSH2 0x100 DUP15 ADD MLOAD PUSH2 0x120 DUP16 ADD MLOAD SWAP2 SWAP7 POP SWAP5 POP SWAP3 POP PUSH2 0x1DCF PUSH2 0x140 DUP15 ADD PUSH2 0x1CF7 JUMP JUMPDEST SWAP2 POP PUSH2 0x1DDE PUSH2 0x160 DUP15 ADD PUSH2 0x1CF7 JUMP JUMPDEST SWAP1 POP SWAP3 SWAP6 SWAP9 SWAP12 POP SWAP3 SWAP6 SWAP9 SWAP12 POP SWAP3 SWAP6 SWAP9 SWAP12 JUMP JUMPDEST DUP1 MLOAD PUSH2 0xFFFF DUP2 AND DUP2 EQ PUSH2 0x1C07 JUMPI PUSH1 0x0 DUP1 REVERT JUMPDEST PUSH1 0x0 DUP1 PUSH1 0x0 DUP1 PUSH1 0x0 DUP1 PUSH1 0x0 PUSH1 0xE0 DUP9 DUP11 SUB SLT ISZERO PUSH2 0x1E1D JUMPI PUSH1 0x0 DUP1 REVERT JUMPDEST DUP8 MLOAD PUSH2 0x1E28 DUP2 PUSH2 0x19ED JUMP JUMPDEST SWAP7 POP PUSH2 0x1E36 PUSH1 0x20 DUP10 ADD PUSH2 0x1CE5 JUMP JUMPDEST SWAP6 POP PUSH2 0x1E44 PUSH1 0x40 DUP10 ADD PUSH2 0x1DF0 JUMP JUMPDEST SWAP5 POP PUSH2 0x1E52 PUSH1 0x60 DUP10 ADD PUSH2 0x1DF0 JUMP JUMPDEST SWAP4 POP PUSH2 0x1E60 PUSH1 0x80 DUP10 ADD PUSH2 0x1DF0 JUMP JUMPDEST SWAP3 POP PUSH1 0xA0 DUP9 ADD MLOAD PUSH2 0x1E70 DUP2 PUSH2 0x1A1F JUMP JUMPDEST PUSH1 0xC0 DUP10 ADD MLOAD SWAP1 SWAP3 POP PUSH2 0x1E81 DUP2 PUSH2 0x1A9F JUMP JUMPDEST DUP1 SWAP2 POP POP SWAP3 SWAP6 SWAP9 SWAP2 SWAP5 SWAP8 POP SWAP3 SWAP6 POP JUMP JUMPDEST PUSH4 0x4E487B71 PUSH1 0xE0 SHL PUSH1 0x0 MSTORE PUSH1 0x41 PUSH1 0x4 MSTORE PUSH1 0x24 PUSH1 0x0 REVERT JUMPDEST PUSH1 0x0 PUSH1 0x20 DUP3 DUP5 SUB SLT ISZERO PUSH2 0x1EB9 JUMPI PUSH1 0x0 DUP1 REVERT JUMPDEST DUP2 MLOAD PUSH8 0xFFFFFFFFFFFFFFFF DUP2 GT ISZERO PUSH2 0x1ED0 JUMPI PUSH1 0x0 DUP1 REVERT JUMPDEST DUP3 ADD PUSH1 0x1F DUP2 ADD DUP5 SGT PUSH2 0x1EE1 JUMPI PUSH1 0x0 DUP1 REVERT JUMPDEST DUP1 MLOAD PUSH8 0xFFFFFFFFFFFFFFFF DUP2 GT ISZERO PUSH2 0x1EFB JUMPI PUSH2 0x1EFB PUSH2 0x1E91 JUMP JUMPDEST PUSH1 0x40 MLOAD PUSH1 0x1F DUP3 ADD PUSH1 0x1F NOT SWAP1 DUP2 AND PUSH1 0x3F ADD AND DUP2 ADD PUSH8 0xFFFFFFFFFFFFFFFF DUP2 GT DUP3 DUP3 LT OR ISZERO PUSH2 0x1F2A JUMPI PUSH2 0x1F2A PUSH2 0x1E91 JUMP JUMPDEST PUSH1 0x40 MSTORE DUP2 DUP2 MSTORE DUP3 DUP3 ADD PUSH1 0x20 ADD DUP7 LT ISZERO PUSH2 0x1F42 JUMPI PUSH1 0x0 DUP1 REVERT JUMPDEST PUSH2 0x1F53 DUP3 PUSH1 0x20 DUP4 ADD PUSH1 0x20 DUP7 ADD PUSH2 0x1BAD JUMP JUMPDEST SWAP6 SWAP5 POP POP POP POP POP JUMP JUMPDEST PUSH1 0x1 DUP2 JUMPDEST PUSH1 0x1 DUP5 GT ISZERO PUSH2 0x1F97 JUMPI DUP1 DUP6 DIV DUP2 GT ISZERO PUSH2 0x1F7B JUMPI PUSH2 0x1F7B PUSH2 0x1B4C JUMP JUMPDEST PUSH1 0x1 DUP5 AND ISZERO PUSH2 0x1F89 JUMPI SWAP1 DUP2 MUL SWAP1 JUMPDEST PUSH1 0x1 SWAP4 SWAP1 SWAP4 SHR SWAP3 DUP1 MUL PUSH2 0x1F60 JUMP JUMPDEST SWAP4 POP SWAP4 SWAP2 POP POP JUMP JUMPDEST PUSH1 0x0 DUP3 PUSH2 0x1FAE JUMPI POP PUSH1 0x1 PUSH2 0x13E8 JUMP JUMPDEST DUP2 PUSH2 0x1FBB JUMPI POP PUSH1 0x0 PUSH2 0x13E8 JUMP JUMPDEST DUP2 PUSH1 0x1 DUP2 EQ PUSH2 0x1FD1 JUMPI PUSH1 0x2 DUP2 EQ PUSH2 0x1FDB JUMPI PUSH2 0x1FF7 JUMP JUMPDEST PUSH1 0x1 SWAP2 POP POP PUSH2 0x13E8 JUMP JUMPDEST PUSH1 0xFF DUP5 GT ISZERO PUSH2 0x1FEC JUMPI PUSH2 0x1FEC PUSH2 0x1B4C JUMP JUMPDEST POP POP PUSH1 0x1 DUP3 SHL PUSH2 0x13E8 JUMP JUMPDEST POP PUSH1 0x20 DUP4 LT PUSH2 0x133 DUP4 LT AND PUSH1 0x4E DUP5 LT PUSH1 0xB DUP5 LT AND OR ISZERO PUSH2 0x201A JUMPI POP DUP2 DUP2 EXP PUSH2 0x13E8 JUMP JUMPDEST PUSH2 0x2027 PUSH1 0x0 NOT DUP5 DUP5 PUSH2 0x1F5C JUMP JUMPDEST DUP1 PUSH1 0x0 NOT DIV DUP3 GT ISZERO PUSH2 0x203B JUMPI PUSH2 0x203B PUSH2 0x1B4C JUMP JUMPDEST MUL SWAP4 SWAP3 POP POP POP JUMP JUMPDEST PUSH1 0x0 PUSH2 0x139C PUSH1 0xFF DUP5 AND DUP4 PUSH2 0x1F9F JUMP JUMPDEST DUP1 DUP3 MUL DUP2 ISZERO DUP3 DUP3 DIV DUP5 EQ OR PUSH2 0x13E8 JUMPI PUSH2 0x13E8 PUSH2 0x1B4C JUMP INVALID 0x4F PUSH19 0x61636C654D616E616765723A2063616C6C2072 PUSH6 0x766572746564 KECCAK256 PUSH24 0x2F6F206D7367A264697066735822122004E5AAD83A59FB9A 0xEF DUP4 0xD5 0x2C 0xE 0xBE 0xEF 0xA5 0xCD AND 0xC8 0xEF 0xC1 CREATE 0xA7 0xBE 0xA6 0xE3 SGT 0xD4 STATICCALL PUSH8 0x886564736F6C6343 STOP ADDMOD SHR STOP CALLER "
				},
				"gasEstimates": {
					"creation": {
						"codeDepositCost": "1677400",
						"executionCost": "infinite",
						"totalCost": "infinite"
					},
					"external": {
						"getPrice(address)": "infinite",
						"oracleConfigs(address)": "1067",
						"owner()": "401",
						"renounceOwnership()": "infinite",
						"setOracleConfig(address,address,address,bool,uint8,bool)": "infinite",
						"setVaultUnderlyingFeeds(address,address,address,uint8,uint8)": "infinite",
						"transferOwnership(address)": "infinite",
						"vaultFeeds(address)": "1135"
					},
					"internal": {
						"_computeLiquidityAmounts(uint160,int24,int24,uint128)": "infinite",
						"_computeVaultTokenPrice(address,struct OracleManager.VaultUnderlyingFeeds memory)": "infinite",
						"_convertToAggregatorValue(uint256,address,uint8)": "infinite",
						"_convertVaultTokensToValue(uint256,uint256,struct OracleManager.AggregatorPair memory)": "infinite",
						"_fetchPositionData(address,uint256)": "infinite",
						"_fetchVaultInfo(address)": "infinite",
						"_getPoolSqrtAndTick(address)": "infinite",
						"_getPriceFromConfig(struct OracleManager.OracleData memory)": "infinite",
						"_getRevertMsg(bytes memory)": "infinite",
						"_tryGetChainlinkPrice(address,uint8)": "infinite"
					}
				},
				"methodIdentifiers": {
					"getPrice(address)": "41976e09",
					"oracleConfigs(address)": "067a4b06",
					"owner()": "8da5cb5b",
					"renounceOwnership()": "715018a6",
					"setOracleConfig(address,address,address,bool,uint8,bool)": "f2ac1ec5",
					"setVaultUnderlyingFeeds(address,address,address,uint8,uint8)": "9b05fc75",
					"transferOwnership(address)": "f2fde38b",
					"vaultFeeds(address)": "7f4a3102"
				}
			},
			"storageLayout": {
				"storage": [
					{
						"astId": 1249,
						"contract": "Contracts/OracleManager.sol:OracleManager",
						"label": "_owner",
						"offset": 0,
						"slot": "0",
						"type": "t_address"
					},
					{
						"astId": 294,
						"contract": "Contracts/OracleManager.sol:OracleManager",
						"label": "oracleConfigs",
						"offset": 0,
						"slot": "1",
						"type": "t_mapping(t_address,t_struct(OracleData)276_storage)"
					},
					{
						"astId": 300,
						"contract": "Contracts/OracleManager.sol:OracleManager",
						"label": "vaultFeeds",
						"offset": 0,
						"slot": "2",
						"type": "t_mapping(t_address,t_struct(VaultUnderlyingFeeds)288_storage)"
					}
				],
				"types": {
					"t_address": {
						"encoding": "inplace",
						"label": "address",
						"numberOfBytes": "20"
					},
					"t_bool": {
						"encoding": "inplace",
						"label": "bool",
						"numberOfBytes": "1"
					},
					"t_mapping(t_address,t_struct(OracleData)276_storage)": {
						"encoding": "mapping",
						"key": "t_address",
						"label": "mapping(address => struct OracleManager.OracleData)",
						"numberOfBytes": "32",
						"value": "t_struct(OracleData)276_storage"
					},
					"t_mapping(t_address,t_struct(VaultUnderlyingFeeds)288_storage)": {
						"encoding": "mapping",
						"key": "t_address",
						"label": "mapping(address => struct OracleManager.VaultUnderlyingFeeds)",
						"numberOfBytes": "32",
						"value": "t_struct(VaultUnderlyingFeeds)288_storage"
					},
					"t_struct(OracleData)276_storage": {
						"encoding": "inplace",
						"label": "struct OracleManager.OracleData",
						"members": [
							{
								"astId": 267,
								"contract": "Contracts/OracleManager.sol:OracleManager",
								"label": "primaryAggregator",
								"offset": 0,
								"slot": "0",
								"type": "t_address"
							},
							{
								"astId": 269,
								"contract": "Contracts/OracleManager.sol:OracleManager",
								"label": "fallbackAggregator",
								"offset": 0,
								"slot": "1",
								"type": "t_address"
							},
							{
								"astId": 271,
								"contract": "Contracts/OracleManager.sol:OracleManager",
								"label": "useFallbackIfError",
								"offset": 20,
								"slot": "1",
								"type": "t_bool"
							},
							{
								"astId": 273,
								"contract": "Contracts/OracleManager.sol:OracleManager",
								"label": "decimalsOverride",
								"offset": 21,
								"slot": "1",
								"type": "t_uint8"
							},
							{
								"astId": 275,
								"contract": "Contracts/OracleManager.sol:OracleManager",
								"label": "isVaultToken",
								"offset": 22,
								"slot": "1",
								"type": "t_bool"
							}
						],
						"numberOfBytes": "64"
					},
					"t_struct(VaultUnderlyingFeeds)288_storage": {
						"encoding": "inplace",
						"label": "struct OracleManager.VaultUnderlyingFeeds",
						"members": [
							{
								"astId": 279,
								"contract": "Contracts/OracleManager.sol:OracleManager",
								"label": "token0Aggregator",
								"offset": 0,
								"slot": "0",
								"type": "t_address"
							},
							{
								"astId": 281,
								"contract": "Contracts/OracleManager.sol:OracleManager",
								"label": "token1Aggregator",
								"offset": 0,
								"slot": "1",
								"type": "t_address"
							},
							{
								"astId": 283,
								"contract": "Contracts/OracleManager.sol:OracleManager",
								"label": "token0Decimals",
								"offset": 20,
								"slot": "1",
								"type": "t_uint8"
							},
							{
								"astId": 285,
								"contract": "Contracts/OracleManager.sol:OracleManager",
								"label": "token1Decimals",
								"offset": 21,
								"slot": "1",
								"type": "t_uint8"
							},
							{
								"astId": 287,
								"contract": "Contracts/OracleManager.sol:OracleManager",
								"label": "exists",
								"offset": 22,
								"slot": "1",
								"type": "t_bool"
							}
						],
						"numberOfBytes": "64"
					},
					"t_uint8": {
						"encoding": "inplace",
						"label": "uint8",
						"numberOfBytes": "1"
					}
				}
			},
			"userdoc": {
				"kind": "user",
				"methods": {
					"getPrice(address)": {
						"notice": "Get the current price for a token or vault token in aggregator decimals (commonly 1e8)."
					},
					"oracleConfigs(address)": {
						"notice": "token -> OracleData"
					},
					"setOracleConfig(address,address,address,bool,uint8,bool)": {
						"notice": "Sets or updates an oracle config for a given token or vault."
					},
					"setVaultUnderlyingFeeds(address,address,address,uint8,uint8)": {
						"notice": "Sets aggregator references for a vault token’s underlying token0, token1"
					},
					"vaultFeeds(address)": {
						"notice": "vaultToken -> VaultUnderlyingFeeds"
					}
				},
				"version": 1
			}
		}
	}
}