{
	"Contracts/VaultFactoryImplementation.sol": {
		"VaultFactoryImplementation": {
			"abi": [
				{
					"inputs": [
						{
							"internalType": "address",
							"name": "target",
							"type": "address"
						}
					],
					"name": "AddressEmptyCode",
					"type": "error"
				},
				{
					"inputs": [
						{
							"internalType": "address",
							"name": "implementation",
							"type": "address"
						}
					],
					"name": "ERC1967InvalidImplementation",
					"type": "error"
				},
				{
					"inputs": [],
					"name": "ERC1967NonPayable",
					"type": "error"
				},
				{
					"inputs": [],
					"name": "FailedCall",
					"type": "error"
				},
				{
					"inputs": [],
					"name": "InvalidInitialization",
					"type": "error"
				},
				{
					"inputs": [],
					"name": "NotInitializing",
					"type": "error"
				},
				{
					"inputs": [
						{
							"internalType": "address",
							"name": "owner",
							"type": "address"
						}
					],
					"name": "OwnableInvalidOwner",
					"type": "error"
				},
				{
					"inputs": [
						{
							"internalType": "address",
							"name": "account",
							"type": "address"
						}
					],
					"name": "OwnableUnauthorizedAccount",
					"type": "error"
				},
				{
					"inputs": [],
					"name": "UUPSUnauthorizedCallContext",
					"type": "error"
				},
				{
					"inputs": [
						{
							"internalType": "bytes32",
							"name": "slot",
							"type": "bytes32"
						}
					],
					"name": "UUPSUnsupportedProxiableUUID",
					"type": "error"
				},
				{
					"anonymous": false,
					"inputs": [
						{
							"indexed": false,
							"internalType": "address",
							"name": "oracleManager",
							"type": "address"
						},
						{
							"indexed": false,
							"internalType": "address",
							"name": "rebalancer",
							"type": "address"
						},
						{
							"indexed": false,
							"internalType": "address",
							"name": "liquidator",
							"type": "address"
						}
					],
					"name": "DefaultsUpdated",
					"type": "event"
				},
				{
					"anonymous": false,
					"inputs": [
						{
							"indexed": false,
							"internalType": "uint64",
							"name": "version",
							"type": "uint64"
						}
					],
					"name": "Initialized",
					"type": "event"
				},
				{
					"anonymous": false,
					"inputs": [
						{
							"indexed": true,
							"internalType": "address",
							"name": "previousOwner",
							"type": "address"
						},
						{
							"indexed": true,
							"internalType": "address",
							"name": "newOwner",
							"type": "address"
						}
					],
					"name": "OwnershipTransferred",
					"type": "event"
				},
				{
					"anonymous": false,
					"inputs": [
						{
							"indexed": true,
							"internalType": "address",
							"name": "implementation",
							"type": "address"
						}
					],
					"name": "Upgraded",
					"type": "event"
				},
				{
					"anonymous": false,
					"inputs": [
						{
							"indexed": true,
							"internalType": "address",
							"name": "vaultProxy",
							"type": "address"
						},
						{
							"indexed": true,
							"internalType": "address",
							"name": "creator",
							"type": "address"
						},
						{
							"indexed": true,
							"internalType": "address",
							"name": "v3Pool",
							"type": "address"
						}
					],
					"name": "VaultCreated",
					"type": "event"
				},
				{
					"inputs": [],
					"name": "UPGRADE_INTERFACE_VERSION",
					"outputs": [
						{
							"internalType": "string",
							"name": "",
							"type": "string"
						}
					],
					"stateMutability": "view",
					"type": "function"
				},
				{
					"inputs": [
						{
							"internalType": "uint256",
							"name": "",
							"type": "uint256"
						}
					],
					"name": "allVaults",
					"outputs": [
						{
							"internalType": "address",
							"name": "",
							"type": "address"
						}
					],
					"stateMutability": "view",
					"type": "function"
				},
				{
					"inputs": [
						{
							"internalType": "address",
							"name": "v3Pool",
							"type": "address"
						},
						{
							"internalType": "address",
							"name": "positionMgr",
							"type": "address"
						},
						{
							"internalType": "address",
							"name": "oracleMgr",
							"type": "address"
						},
						{
							"internalType": "address",
							"name": "rebalancer",
							"type": "address"
						},
						{
							"internalType": "address",
							"name": "liquidator",
							"type": "address"
						},
						{
							"internalType": "string",
							"name": "name",
							"type": "string"
						},
						{
							"internalType": "string",
							"name": "symbol",
							"type": "string"
						}
					],
					"name": "createVault",
					"outputs": [
						{
							"internalType": "address",
							"name": "proxyAddr",
							"type": "address"
						}
					],
					"stateMutability": "nonpayable",
					"type": "function"
				},
				{
					"inputs": [],
					"name": "defaultLiquidator",
					"outputs": [
						{
							"internalType": "address",
							"name": "",
							"type": "address"
						}
					],
					"stateMutability": "view",
					"type": "function"
				},
				{
					"inputs": [],
					"name": "defaultOracleManager",
					"outputs": [
						{
							"internalType": "address",
							"name": "",
							"type": "address"
						}
					],
					"stateMutability": "view",
					"type": "function"
				},
				{
					"inputs": [],
					"name": "defaultRebalancer",
					"outputs": [
						{
							"internalType": "address",
							"name": "",
							"type": "address"
						}
					],
					"stateMutability": "view",
					"type": "function"
				},
				{
					"inputs": [],
					"name": "getAllVaults",
					"outputs": [
						{
							"internalType": "address[]",
							"name": "",
							"type": "address[]"
						}
					],
					"stateMutability": "view",
					"type": "function"
				},
				{
					"inputs": [
						{
							"internalType": "uint256",
							"name": "index",
							"type": "uint256"
						}
					],
					"name": "getVault",
					"outputs": [
						{
							"internalType": "address",
							"name": "",
							"type": "address"
						}
					],
					"stateMutability": "view",
					"type": "function"
				},
				{
					"inputs": [
						{
							"internalType": "address",
							"name": "_vaultLogic",
							"type": "address"
						},
						{
							"internalType": "address",
							"name": "_owner",
							"type": "address"
						}
					],
					"name": "initialize",
					"outputs": [],
					"stateMutability": "nonpayable",
					"type": "function"
				},
				{
					"inputs": [],
					"name": "owner",
					"outputs": [
						{
							"internalType": "address",
							"name": "",
							"type": "address"
						}
					],
					"stateMutability": "view",
					"type": "function"
				},
				{
					"inputs": [],
					"name": "proxiableUUID",
					"outputs": [
						{
							"internalType": "bytes32",
							"name": "",
							"type": "bytes32"
						}
					],
					"stateMutability": "view",
					"type": "function"
				},
				{
					"inputs": [],
					"name": "renounceOwnership",
					"outputs": [],
					"stateMutability": "nonpayable",
					"type": "function"
				},
				{
					"inputs": [
						{
							"internalType": "address",
							"name": "_oracleManager",
							"type": "address"
						},
						{
							"internalType": "address",
							"name": "_rebalancer",
							"type": "address"
						},
						{
							"internalType": "address",
							"name": "_liquidator",
							"type": "address"
						}
					],
					"name": "setDefaultReferences",
					"outputs": [],
					"stateMutability": "nonpayable",
					"type": "function"
				},
				{
					"inputs": [
						{
							"internalType": "address",
							"name": "newVaultLogic",
							"type": "address"
						}
					],
					"name": "setVaultLogic",
					"outputs": [],
					"stateMutability": "nonpayable",
					"type": "function"
				},
				{
					"inputs": [
						{
							"internalType": "address",
							"name": "newOwner",
							"type": "address"
						}
					],
					"name": "transferOwnership",
					"outputs": [],
					"stateMutability": "nonpayable",
					"type": "function"
				},
				{
					"inputs": [
						{
							"internalType": "address",
							"name": "newImplementation",
							"type": "address"
						},
						{
							"internalType": "bytes",
							"name": "data",
							"type": "bytes"
						}
					],
					"name": "upgradeToAndCall",
					"outputs": [],
					"stateMutability": "payable",
					"type": "function"
				},
				{
					"inputs": [],
					"name": "vaultCount",
					"outputs": [
						{
							"internalType": "uint256",
							"name": "",
							"type": "uint256"
						}
					],
					"stateMutability": "view",
					"type": "function"
				},
				{
					"inputs": [],
					"name": "vaultLogic",
					"outputs": [
						{
							"internalType": "address",
							"name": "",
							"type": "address"
						}
					],
					"stateMutability": "view",
					"type": "function"
				}
			],
			"devdoc": {
				"details": "A UUPS-upgradeable factory for creating new vault proxies.",
				"errors": {
					"AddressEmptyCode(address)": [
						{
							"details": "There's no code at `target` (it is not a contract)."
						}
					],
					"ERC1967InvalidImplementation(address)": [
						{
							"details": "The `implementation` of the proxy is invalid."
						}
					],
					"ERC1967NonPayable()": [
						{
							"details": "An upgrade function sees `msg.value > 0` that may be lost."
						}
					],
					"FailedCall()": [
						{
							"details": "A call to an address target failed. The target may have reverted."
						}
					],
					"InvalidInitialization()": [
						{
							"details": "The contract is already initialized."
						}
					],
					"NotInitializing()": [
						{
							"details": "The contract is not initializing."
						}
					],
					"OwnableInvalidOwner(address)": [
						{
							"details": "The owner is not a valid owner account. (eg. `address(0)`)"
						}
					],
					"OwnableUnauthorizedAccount(address)": [
						{
							"details": "The caller account is not authorized to perform an operation."
						}
					],
					"UUPSUnauthorizedCallContext()": [
						{
							"details": "The call is from an unauthorized context."
						}
					],
					"UUPSUnsupportedProxiableUUID(bytes32)": [
						{
							"details": "The storage `slot` is unsupported as a UUID."
						}
					]
				},
				"events": {
					"DefaultsUpdated(address,address,address)": {
						"details": "Emitted when the factory's default references are updated."
					},
					"Initialized(uint64)": {
						"details": "Triggered when the contract has been initialized or reinitialized."
					},
					"Upgraded(address)": {
						"details": "Emitted when the implementation is upgraded."
					},
					"VaultCreated(address,address,address)": {
						"details": "Emitted when a new vault proxy is created."
					}
				},
				"kind": "dev",
				"methods": {
					"createVault(address,address,address,address,address,string,string)": {
						"params": {
							"liquidator": "Liquidator (or zero for default)",
							"name": "The ERC20 name for the vault shares",
							"oracleMgr": "OracleManager (or zero for default)",
							"positionMgr": "The NonfungiblePositionManager used by the vault",
							"rebalancer": "Rebalancer (or zero for default)",
							"symbol": "The ERC20 symbol for the vault shares",
							"v3Pool": "The Uniswap V3 pool address for the vault"
						},
						"returns": {
							"proxyAddr": "   The address of the newly deployed vault proxy"
						}
					},
					"initialize(address,address)": {
						"params": {
							"_owner": "The owner (often a DAO or deployer)",
							"_vaultLogic": "The deployed VaultImplementation logic contract"
						}
					},
					"owner()": {
						"details": "Returns the address of the current owner."
					},
					"proxiableUUID()": {
						"details": "Implementation of the ERC-1822 {proxiableUUID} function. This returns the storage slot used by the implementation. It is used to validate the implementation's compatibility when performing an upgrade. IMPORTANT: A proxy pointing at a proxiable contract should not be considered proxiable itself, because this risks bricking a proxy that upgrades to it, by delegating to itself until out of gas. Thus it is critical that this function revert if invoked through a proxy. This is guaranteed by the `notDelegated` modifier."
					},
					"renounceOwnership()": {
						"details": "Leaves the contract without owner. It will not be possible to call `onlyOwner` functions. Can only be called by the current owner. NOTE: Renouncing ownership will leave the contract without an owner, thereby disabling any functionality that is only available to the owner."
					},
					"setDefaultReferences(address,address,address)": {
						"params": {
							"_liquidator": "Address of the default Liquidator",
							"_oracleManager": "Address of the default OracleManager",
							"_rebalancer": "Address of the default Rebalancer"
						}
					},
					"setVaultLogic(address)": {
						"params": {
							"newVaultLogic": "The new VaultImplementation logic contract"
						}
					},
					"transferOwnership(address)": {
						"details": "Transfers ownership of the contract to a new account (`newOwner`). Can only be called by the current owner."
					},
					"upgradeToAndCall(address,bytes)": {
						"custom:oz-upgrades-unsafe-allow-reachable": "delegatecall",
						"details": "Upgrade the implementation of the proxy to `newImplementation`, and subsequently execute the function call encoded in `data`. Calls {_authorizeUpgrade}. Emits an {Upgraded} event."
					}
				},
				"stateVariables": {
					"allVaults": {
						"details": "Array of all vault proxies created by this factory."
					},
					"defaultOracleManager": {
						"details": "Default references for external contracts if the user doesn't specify them."
					},
					"vaultLogic": {
						"details": "The address of the deployed VaultImplementation (logic) contract."
					}
				},
				"title": "VaultFactoryImplementation",
				"version": 1
			},
			"evm": {
				"assembly": "    /* \"Contracts/VaultFactoryImplementation.sol\":2375:8697  contract VaultFactoryImplementation is... */\n  mstore(0x40, 0xa0)\n    /* \"@openzeppelin/contracts-upgradeable/proxy/utils/UUPSUpgradeable.sol\":1171:1175  this */\n  address\n    /* \"@openzeppelin/contracts-upgradeable/proxy/utils/UUPSUpgradeable.sol\":1128:1176  address private immutable __self = address(this) */\n  0x80\n  mstore\n    /* \"Contracts/VaultFactoryImplementation.sol\":2375:8697  contract VaultFactoryImplementation is... */\n  callvalue\n  dup1\n  iszero\n  tag_1\n  jumpi\n  revert(0x00, 0x00)\ntag_1:\n  pop\n  mload(0x80)\n  codecopy(0x00, dataOffset(sub_0), dataSize(sub_0))\n  0x00\n  assignImmutable(\"0x0b83f23a4eeb8c3f5f7d5934a2289bcf0186d09a12e1b7f20adf54e4b179db15\")\n  return(0x00, dataSize(sub_0))\nstop\n\nsub_0: assembly {\n        /* \"Contracts/VaultFactoryImplementation.sol\":2375:8697  contract VaultFactoryImplementation is... */\n      mstore(0x40, 0x80)\n      jumpi(tag_1, lt(calldatasize, 0x04))\n      shr(0xe0, calldataload(0x00))\n      dup1\n      0x9403b634\n      gt\n      tag_20\n      jumpi\n      dup1\n      0xad3cb1cc\n      gt\n      tag_21\n      jumpi\n      dup1\n      0xad3cb1cc\n      eq\n      tag_15\n      jumpi\n      dup1\n      0xb078147a\n      eq\n      tag_16\n      jumpi\n      dup1\n      0xc3638757\n      eq\n      tag_17\n      jumpi\n      dup1\n      0xecedd5bc\n      eq\n      tag_18\n      jumpi\n      dup1\n      0xf2fde38b\n      eq\n      tag_19\n      jumpi\n      revert(0x00, 0x00)\n    tag_21:\n      dup1\n      0x9403b634\n      eq\n      tag_11\n      jumpi\n      dup1\n      0x97331bf9\n      eq\n      tag_12\n      jumpi\n      dup1\n      0xa7c6a100\n      eq\n      tag_13\n      jumpi\n      dup1\n      0xab31b6f3\n      eq\n      tag_14\n      jumpi\n      revert(0x00, 0x00)\n    tag_20:\n      dup1\n      0x52d1902d\n      gt\n      tag_22\n      jumpi\n      dup1\n      0x52d1902d\n      eq\n      tag_6\n      jumpi\n      dup1\n      0x545851d7\n      eq\n      tag_7\n      jumpi\n      dup1\n      0x715018a6\n      eq\n      tag_8\n      jumpi\n      dup1\n      0x8da5cb5b\n      eq\n      tag_9\n      jumpi\n      dup1\n      0x9094a91e\n      eq\n      tag_10\n      jumpi\n      revert(0x00, 0x00)\n    tag_22:\n      dup1\n      0x3c46201d\n      eq\n      tag_2\n      jumpi\n      dup1\n      0x485cc955\n      eq\n      tag_3\n      jumpi\n      dup1\n      0x4c39ad21\n      eq\n      tag_4\n      jumpi\n      dup1\n      0x4f1ef286\n      eq\n      tag_5\n      jumpi\n    tag_1:\n      revert(0x00, 0x00)\n        /* \"Contracts/VaultFactoryImplementation.sol\":2754:2786  address public defaultRebalancer */\n    tag_2:\n      callvalue\n      dup1\n      iszero\n      tag_23\n      jumpi\n      revert(0x00, 0x00)\n    tag_23:\n      pop\n      sload(0x02)\n      tag_24\n      swap1\n      sub(shl(0xa0, 0x01), 0x01)\n      and\n      dup2\n      jump\n    tag_24:\n      mload(0x40)\n      sub(shl(0xa0, 0x01), 0x01)\n        /* \"#utility.yul\":178:210   */\n      swap1\n      swap2\n      and\n        /* \"#utility.yul\":160:211   */\n      dup2\n      mstore\n        /* \"#utility.yul\":148:150   */\n      0x20\n        /* \"#utility.yul\":133:151   */\n      add\n        /* \"Contracts/VaultFactoryImplementation.sol\":2754:2786  address public defaultRebalancer */\n    tag_26:\n      mload(0x40)\n      dup1\n      swap2\n      sub\n      swap1\n      return\n        /* \"Contracts/VaultFactoryImplementation.sol\":3706:4107  function initialize(address _vaultLogic, address _owner) external initializer {... */\n    tag_3:\n      callvalue\n      dup1\n      iszero\n      tag_28\n      jumpi\n      revert(0x00, 0x00)\n    tag_28:\n      pop\n      tag_29\n      tag_30\n      calldatasize\n      0x04\n      tag_31\n      jump\t// in\n    tag_30:\n      tag_32\n      jump\t// in\n    tag_29:\n      stop\n        /* \"Contracts/VaultFactoryImplementation.sol\":2713:2748  address public defaultOracleManager */\n    tag_4:\n      callvalue\n      dup1\n      iszero\n      tag_33\n      jumpi\n      revert(0x00, 0x00)\n    tag_33:\n      pop\n      sload(0x01)\n      tag_24\n      swap1\n      sub(shl(0xa0, 0x01), 0x01)\n      and\n      dup2\n      jump\n        /* \"@openzeppelin/contracts-upgradeable/proxy/utils/UUPSUpgradeable.sol\":4161:4375  function upgradeToAndCall(address newImplementation, bytes memory data) public payable virtual onlyProxy {... */\n    tag_5:\n      tag_29\n      tag_38\n      calldatasize\n      0x04\n      tag_39\n      jump\t// in\n    tag_38:\n      tag_40\n      jump\t// in\n        /* \"@openzeppelin/contracts-upgradeable/proxy/utils/UUPSUpgradeable.sol\":3708:3842  function proxiableUUID() external view virtual notDelegated returns (bytes32) {... */\n    tag_6:\n      callvalue\n      dup1\n      iszero\n      tag_41\n      jumpi\n      revert(0x00, 0x00)\n    tag_41:\n      pop\n      tag_42\n      tag_43\n      jump\t// in\n    tag_42:\n      mload(0x40)\n        /* \"#utility.yul\":1966:1991   */\n      swap1\n      dup2\n      mstore\n        /* \"#utility.yul\":1954:1956   */\n      0x20\n        /* \"#utility.yul\":1939:1957   */\n      add\n        /* \"@openzeppelin/contracts-upgradeable/proxy/utils/UUPSUpgradeable.sol\":3708:3842  function proxiableUUID() external view virtual notDelegated returns (bytes32) {... */\n      tag_26\n        /* \"#utility.yul\":1820:1997   */\n      jump\n        /* \"Contracts/VaultFactoryImplementation.sol\":2792:2824  address public defaultLiquidator */\n    tag_7:\n      callvalue\n      dup1\n      iszero\n      tag_46\n      jumpi\n      revert(0x00, 0x00)\n    tag_46:\n      pop\n      sload(0x03)\n      tag_24\n      swap1\n      sub(shl(0xa0, 0x01), 0x01)\n      and\n      dup2\n      jump\n        /* \"@openzeppelin/contracts-upgradeable/access/OwnableUpgradeable.sol\":3155:3256  function renounceOwnership() public virtual onlyOwner {... */\n    tag_8:\n      callvalue\n      dup1\n      iszero\n      tag_50\n      jumpi\n      revert(0x00, 0x00)\n    tag_50:\n      pop\n      tag_29\n      tag_52\n      jump\t// in\n        /* \"@openzeppelin/contracts-upgradeable/access/OwnableUpgradeable.sol\":2441:2585  function owner() public view virtual returns (address) {... */\n    tag_9:\n      callvalue\n      dup1\n      iszero\n      tag_53\n      jumpi\n      revert(0x00, 0x00)\n    tag_53:\n      pop\n        /* \"@openzeppelin/contracts-upgradeable/access/OwnableUpgradeable.sol\":1313:1335  OwnableStorageLocation */\n      0x9016d09d72d40fdae2fd8ceac6b6234c7706214fd39c1cd1e609a0528c199300\n        /* \"@openzeppelin/contracts-upgradeable/access/OwnableUpgradeable.sol\":2570:2578  $._owner */\n      sload\n      sub(shl(0xa0, 0x01), 0x01)\n      and\n        /* \"@openzeppelin/contracts-upgradeable/access/OwnableUpgradeable.sol\":2441:2585  function owner() public view virtual returns (address) {... */\n      jump(tag_24)\n        /* \"Contracts/VaultFactoryImplementation.sol\":2911:2937  address[] public allVaults */\n    tag_10:\n      callvalue\n      dup1\n      iszero\n      tag_57\n      jumpi\n      revert(0x00, 0x00)\n    tag_57:\n      pop\n      tag_24\n      tag_59\n      calldatasize\n      0x04\n      tag_60\n      jump\t// in\n    tag_59:\n      tag_61\n      jump\t// in\n        /* \"Contracts/VaultFactoryImplementation.sol\":8285:8463  function getVault(uint256 index) external view returns (address) {... */\n    tag_11:\n      callvalue\n      dup1\n      iszero\n      tag_63\n      jumpi\n      revert(0x00, 0x00)\n    tag_63:\n      pop\n      tag_24\n      tag_65\n      calldatasize\n      0x04\n      tag_60\n      jump\t// in\n    tag_65:\n      tag_66\n      jump\t// in\n        /* \"Contracts/VaultFactoryImplementation.sol\":8597:8695  function getAllVaults() external view returns (address[] memory) {... */\n    tag_12:\n      callvalue\n      dup1\n      iszero\n      tag_68\n      jumpi\n      revert(0x00, 0x00)\n    tag_68:\n      pop\n      tag_69\n      tag_70\n      jump\t// in\n    tag_69:\n      mload(0x40)\n      tag_26\n      swap2\n      swap1\n      tag_72\n      jump\t// in\n        /* \"Contracts/VaultFactoryImplementation.sol\":8094:8188  function vaultCount() external view returns (uint256) {... */\n    tag_13:\n      callvalue\n      dup1\n      iszero\n      tag_73\n      jumpi\n      revert(0x00, 0x00)\n    tag_73:\n      pop\n        /* \"Contracts/VaultFactoryImplementation.sol\":8165:8174  allVaults */\n      0x04\n        /* \"Contracts/VaultFactoryImplementation.sol\":8165:8181  allVaults.length */\n      sload\n        /* \"Contracts/VaultFactoryImplementation.sol\":8094:8188  function vaultCount() external view returns (uint256) {... */\n      jump(tag_42)\n        /* \"Contracts/VaultFactoryImplementation.sol\":5090:5684  function setDefaultReferences(... */\n    tag_14:\n      callvalue\n      dup1\n      iszero\n      tag_78\n      jumpi\n      revert(0x00, 0x00)\n    tag_78:\n      pop\n      tag_29\n      tag_80\n      calldatasize\n      0x04\n      tag_81\n      jump\t// in\n    tag_80:\n      tag_82\n      jump\t// in\n        /* \"@openzeppelin/contracts-upgradeable/proxy/utils/UUPSUpgradeable.sol\":1819:1877  string public constant UPGRADE_INTERFACE_VERSION = \"5.0.0\" */\n    tag_15:\n      callvalue\n      dup1\n      iszero\n      tag_83\n      jumpi\n      revert(0x00, 0x00)\n    tag_83:\n      pop\n      tag_84\n      mload(0x40)\n      dup1\n      0x40\n      add\n      0x40\n      mstore\n      dup1\n      0x05\n      dup2\n      mstore\n      0x20\n      add\n      shl(0xdc, 0x0352e302e3)\n      dup2\n      mstore\n      pop\n      dup2\n      jump\n    tag_84:\n      mload(0x40)\n      tag_26\n      swap2\n      swap1\n      tag_87\n      jump\t// in\n        /* \"Contracts/VaultFactoryImplementation.sol\":2577:2602  address public vaultLogic */\n    tag_16:\n      callvalue\n      dup1\n      iszero\n      tag_88\n      jumpi\n      revert(0x00, 0x00)\n    tag_88:\n      pop\n      sload(0x00)\n      tag_24\n      swap1\n      sub(shl(0xa0, 0x01), 0x01)\n      and\n      dup2\n      jump\n        /* \"Contracts/VaultFactoryImplementation.sol\":6355:8003  function createVault(... */\n    tag_17:\n      callvalue\n      dup1\n      iszero\n      tag_92\n      jumpi\n      revert(0x00, 0x00)\n    tag_92:\n      pop\n      tag_24\n      tag_94\n      calldatasize\n      0x04\n      tag_95\n      jump\t// in\n    tag_94:\n      tag_96\n      jump\t// in\n        /* \"Contracts/VaultFactoryImplementation.sol\":4487:4672  function setVaultLogic(address newVaultLogic) external onlyOwner {... */\n    tag_18:\n      callvalue\n      dup1\n      iszero\n      tag_98\n      jumpi\n      revert(0x00, 0x00)\n    tag_98:\n      pop\n      tag_29\n      tag_100\n      calldatasize\n      0x04\n      tag_101\n      jump\t// in\n    tag_100:\n      tag_102\n      jump\t// in\n        /* \"@openzeppelin/contracts-upgradeable/access/OwnableUpgradeable.sol\":3405:3620  function transferOwnership(address newOwner) public virtual onlyOwner {... */\n    tag_19:\n      callvalue\n      dup1\n      iszero\n      tag_103\n      jumpi\n      revert(0x00, 0x00)\n    tag_103:\n      pop\n      tag_29\n      tag_105\n      calldatasize\n      0x04\n      tag_101\n      jump\t// in\n    tag_105:\n      tag_106\n      jump\t// in\n        /* \"Contracts/VaultFactoryImplementation.sol\":3706:4107  function initialize(address _vaultLogic, address _owner) external initializer {... */\n    tag_32:\n        /* \"@openzeppelin/contracts-upgradeable/proxy/utils/Initializable.sol\":8870:8891  INITIALIZABLE_STORAGE */\n      0xf0c57e16840df040f15088dc2f81fe391c3923bec73e23a9662efc9c229c6a00\n        /* \"@openzeppelin/contracts-upgradeable/proxy/utils/Initializable.sol\":4302:4317  $._initializing */\n      dup1\n      sload\n      shl(0x40, 0x01)\n      dup2\n      div\n      0xff\n      and\n        /* \"@openzeppelin/contracts-upgradeable/proxy/utils/Initializable.sol\":4301:4317  !$._initializing */\n      iszero\n      swap1\n        /* \"@openzeppelin/contracts-upgradeable/proxy/utils/Initializable.sol\":4348:4362  $._initialized */\n      0xffffffffffffffff\n      and\n        /* \"@openzeppelin/contracts-upgradeable/proxy/utils/Initializable.sol\":4158:4188  InitializableStorage storage $ */\n      0x00\n        /* \"@openzeppelin/contracts-upgradeable/proxy/utils/Initializable.sol\":4726:4742  initialized == 0 */\n      dup2\n      iszero\n        /* \"@openzeppelin/contracts-upgradeable/proxy/utils/Initializable.sol\":4726:4760  initialized == 0 && isTopLevelCall */\n      dup1\n      iszero\n      tag_110\n      jumpi\n      pop\n        /* \"@openzeppelin/contracts-upgradeable/proxy/utils/Initializable.sol\":4746:4760  isTopLevelCall */\n      dup3\n        /* \"@openzeppelin/contracts-upgradeable/proxy/utils/Initializable.sol\":4726:4760  initialized == 0 && isTopLevelCall */\n    tag_110:\n        /* \"@openzeppelin/contracts-upgradeable/proxy/utils/Initializable.sol\":4706:4760  bool initialSetup = initialized == 0 && isTopLevelCall */\n      swap1\n      pop\n        /* \"@openzeppelin/contracts-upgradeable/proxy/utils/Initializable.sol\":4770:4787  bool construction */\n      0x00\n        /* \"@openzeppelin/contracts-upgradeable/proxy/utils/Initializable.sol\":4790:4801  initialized */\n      dup3\n        /* \"@openzeppelin/contracts-upgradeable/proxy/utils/Initializable.sol\":4790:4806  initialized == 1 */\n      0xffffffffffffffff\n      and\n        /* \"@openzeppelin/contracts-upgradeable/proxy/utils/Initializable.sol\":4805:4806  1 */\n      0x01\n        /* \"@openzeppelin/contracts-upgradeable/proxy/utils/Initializable.sol\":4790:4806  initialized == 1 */\n      eq\n        /* \"@openzeppelin/contracts-upgradeable/proxy/utils/Initializable.sol\":4790:4840  initialized == 1 && address(this).code.length == 0 */\n      dup1\n      iszero\n      tag_111\n      jumpi\n      pop\n        /* \"@openzeppelin/contracts-upgradeable/proxy/utils/Initializable.sol\":4818:4822  this */\n      address\n        /* \"@openzeppelin/contracts-upgradeable/proxy/utils/Initializable.sol\":4810:4835  address(this).code.length */\n      extcodesize\n        /* \"@openzeppelin/contracts-upgradeable/proxy/utils/Initializable.sol\":4810:4840  address(this).code.length == 0 */\n      iszero\n        /* \"@openzeppelin/contracts-upgradeable/proxy/utils/Initializable.sol\":4790:4840  initialized == 1 && address(this).code.length == 0 */\n    tag_111:\n        /* \"@openzeppelin/contracts-upgradeable/proxy/utils/Initializable.sol\":4770:4840  bool construction = initialized == 1 && address(this).code.length == 0 */\n      swap1\n      pop\n        /* \"@openzeppelin/contracts-upgradeable/proxy/utils/Initializable.sol\":4856:4868  initialSetup */\n      dup2\n        /* \"@openzeppelin/contracts-upgradeable/proxy/utils/Initializable.sol\":4855:4868  !initialSetup */\n      iszero\n        /* \"@openzeppelin/contracts-upgradeable/proxy/utils/Initializable.sol\":4855:4885  !initialSetup && !construction */\n      dup1\n      iszero\n      tag_112\n      jumpi\n      pop\n        /* \"@openzeppelin/contracts-upgradeable/proxy/utils/Initializable.sol\":4873:4885  construction */\n      dup1\n        /* \"@openzeppelin/contracts-upgradeable/proxy/utils/Initializable.sol\":4872:4885  !construction */\n      iszero\n        /* \"@openzeppelin/contracts-upgradeable/proxy/utils/Initializable.sol\":4855:4885  !initialSetup && !construction */\n    tag_112:\n        /* \"@openzeppelin/contracts-upgradeable/proxy/utils/Initializable.sol\":4851:4942  if (!initialSetup && !construction) {... */\n      iszero\n      tag_113\n      jumpi\n        /* \"@openzeppelin/contracts-upgradeable/proxy/utils/Initializable.sol\":4908:4931  InvalidInitialization() */\n      mload(0x40)\n      shl(0xe0, 0xf92ee8a9)\n      dup2\n      mstore\n      0x04\n      add\n      mload(0x40)\n      dup1\n      swap2\n      sub\n      swap1\n      revert\n        /* \"@openzeppelin/contracts-upgradeable/proxy/utils/Initializable.sol\":4851:4942  if (!initialSetup && !construction) {... */\n    tag_113:\n        /* \"@openzeppelin/contracts-upgradeable/proxy/utils/Initializable.sol\":4951:4969  $._initialized = 1 */\n      dup5\n      sload\n      not(0xffffffffffffffff)\n      and\n        /* \"@openzeppelin/contracts-upgradeable/proxy/utils/Initializable.sol\":4968:4969  1 */\n      0x01\n        /* \"@openzeppelin/contracts-upgradeable/proxy/utils/Initializable.sol\":4951:4969  $._initialized = 1 */\n      or\n      dup6\n      sstore\n        /* \"@openzeppelin/contracts-upgradeable/proxy/utils/Initializable.sol\":4979:5046  if (isTopLevelCall) {... */\n      dup4\n      iszero\n      tag_114\n      jumpi\n        /* \"@openzeppelin/contracts-upgradeable/proxy/utils/Initializable.sol\":5013:5035  $._initializing = true */\n      dup5\n      sload\n      not(shl(0x40, 0xff))\n      and\n      shl(0x40, 0x01)\n      or\n      dup6\n      sstore\n        /* \"@openzeppelin/contracts-upgradeable/proxy/utils/Initializable.sol\":4979:5046  if (isTopLevelCall) {... */\n    tag_114:\n        /* \"Contracts/VaultFactoryImplementation.sol\":3928:3950  __Ownable_init(_owner) */\n      tag_116\n        /* \"Contracts/VaultFactoryImplementation.sol\":3943:3949  _owner */\n      dup7\n        /* \"Contracts/VaultFactoryImplementation.sol\":3928:3942  __Ownable_init */\n      tag_117\n        /* \"Contracts/VaultFactoryImplementation.sol\":3928:3950  __Ownable_init(_owner) */\n      jump\t// in\n    tag_116:\n        /* \"Contracts/VaultFactoryImplementation.sol\":3961:3985  __UUPSUpgradeable_init() */\n      tag_118\n        /* \"Contracts/VaultFactoryImplementation.sol\":3961:3983  __UUPSUpgradeable_init */\n      tag_119\n        /* \"Contracts/VaultFactoryImplementation.sol\":3961:3985  __UUPSUpgradeable_init() */\n      jump\t// in\n    tag_118:\n      sub(shl(0xa0, 0x01), 0x01)\n        /* \"Contracts/VaultFactoryImplementation.sol\":4004:4029  _vaultLogic != address(0) */\n      dup8\n      and\n        /* \"Contracts/VaultFactoryImplementation.sol\":3996:4066  require(_vaultLogic != address(0), \"VaultFactory: invalid vaultLogic\") */\n      tag_120\n      jumpi\n      mload(0x40)\n      shl(0xe5, 0x461bcd)\n      dup2\n      mstore\n        /* \"#utility.yul\":5947:5949   */\n      0x20\n        /* \"Contracts/VaultFactoryImplementation.sol\":3996:4066  require(_vaultLogic != address(0), \"VaultFactory: invalid vaultLogic\") */\n      0x04\n      dup3\n      add\n        /* \"#utility.yul\":5929:5950   */\n      dup2\n      swap1\n      mstore\n        /* \"#utility.yul\":5966:5984   */\n      0x24\n      dup3\n      add\n        /* \"#utility.yul\":5959:5989   */\n      mstore\n        /* \"#utility.yul\":6025:6059   */\n      0x5661756c74466163746f72793a20696e76616c6964207661756c744c6f676963\n        /* \"#utility.yul\":6005:6023   */\n      0x44\n      dup3\n      add\n        /* \"#utility.yul\":5998:6060   */\n      mstore\n        /* \"#utility.yul\":6077:6095   */\n      0x64\n      add\n        /* \"Contracts/VaultFactoryImplementation.sol\":3996:4066  require(_vaultLogic != address(0), \"VaultFactory: invalid vaultLogic\") */\n    tag_121:\n      mload(0x40)\n      dup1\n      swap2\n      sub\n      swap1\n      revert\n    tag_120:\n        /* \"Contracts/VaultFactoryImplementation.sol\":4076:4086  vaultLogic */\n      0x00\n        /* \"Contracts/VaultFactoryImplementation.sol\":4076:4100  vaultLogic = _vaultLogic */\n      dup1\n      sload\n      not(sub(shl(0xa0, 0x01), 0x01))\n      and\n      sub(shl(0xa0, 0x01), 0x01)\n      dup10\n      and\n      or\n      swap1\n      sstore\n        /* \"@openzeppelin/contracts-upgradeable/proxy/utils/Initializable.sol\":5066:5167  if (isTopLevelCall) {... */\n      dup4\n      iszero\n      tag_123\n      jumpi\n        /* \"@openzeppelin/contracts-upgradeable/proxy/utils/Initializable.sol\":5100:5123  $._initializing = false */\n      dup5\n      sload\n      not(shl(0x40, 0xff))\n      and\n      dup6\n      sstore\n        /* \"@openzeppelin/contracts-upgradeable/proxy/utils/Initializable.sol\":5142:5156  Initialized(1) */\n      mload(0x40)\n      0x01\n        /* \"#utility.yul\":6259:6309   */\n      dup2\n      mstore\n        /* \"@openzeppelin/contracts-upgradeable/proxy/utils/Initializable.sol\":5142:5156  Initialized(1) */\n      0xc7f505b2f371ae2175ee4913f4499e1f2633a7b5936321eed1cdaeb6115181d2\n      swap1\n        /* \"#utility.yul\":6247:6249   */\n      0x20\n        /* \"#utility.yul\":6232:6250   */\n      add\n        /* \"@openzeppelin/contracts-upgradeable/proxy/utils/Initializable.sol\":5142:5156  Initialized(1) */\n      mload(0x40)\n      dup1\n      swap2\n      sub\n      swap1\n      log1\n        /* \"@openzeppelin/contracts-upgradeable/proxy/utils/Initializable.sol\":5066:5167  if (isTopLevelCall) {... */\n    tag_123:\n        /* \"@openzeppelin/contracts-upgradeable/proxy/utils/Initializable.sol\":4092:5173  {... */\n      pop\n      pop\n      pop\n      pop\n      pop\n        /* \"Contracts/VaultFactoryImplementation.sol\":3706:4107  function initialize(address _vaultLogic, address _owner) external initializer {... */\n      pop\n      pop\n      jump\t// out\n        /* \"@openzeppelin/contracts-upgradeable/proxy/utils/UUPSUpgradeable.sol\":4161:4375  function upgradeToAndCall(address newImplementation, bytes memory data) public payable virtual onlyProxy {... */\n    tag_40:\n        /* \"@openzeppelin/contracts-upgradeable/proxy/utils/UUPSUpgradeable.sol\":2655:2668  _checkProxy() */\n      tag_127\n        /* \"@openzeppelin/contracts-upgradeable/proxy/utils/UUPSUpgradeable.sol\":2655:2666  _checkProxy */\n      tag_128\n        /* \"@openzeppelin/contracts-upgradeable/proxy/utils/UUPSUpgradeable.sol\":2655:2668  _checkProxy() */\n      jump\t// in\n    tag_127:\n        /* \"@openzeppelin/contracts-upgradeable/proxy/utils/UUPSUpgradeable.sol\":4276:4312  _authorizeUpgrade(newImplementation) */\n      tag_130\n        /* \"@openzeppelin/contracts-upgradeable/proxy/utils/UUPSUpgradeable.sol\":4294:4311  newImplementation */\n      dup3\n        /* \"@openzeppelin/contracts-upgradeable/proxy/utils/UUPSUpgradeable.sol\":4276:4293  _authorizeUpgrade */\n      tag_131\n        /* \"@openzeppelin/contracts-upgradeable/proxy/utils/UUPSUpgradeable.sol\":4276:4312  _authorizeUpgrade(newImplementation) */\n      jump\t// in\n    tag_130:\n        /* \"@openzeppelin/contracts-upgradeable/proxy/utils/UUPSUpgradeable.sol\":4322:4368  _upgradeToAndCallUUPS(newImplementation, data) */\n      tag_132\n        /* \"@openzeppelin/contracts-upgradeable/proxy/utils/UUPSUpgradeable.sol\":4344:4361  newImplementation */\n      dup3\n        /* \"@openzeppelin/contracts-upgradeable/proxy/utils/UUPSUpgradeable.sol\":4363:4367  data */\n      dup3\n        /* \"@openzeppelin/contracts-upgradeable/proxy/utils/UUPSUpgradeable.sol\":4322:4343  _upgradeToAndCallUUPS */\n      tag_133\n        /* \"@openzeppelin/contracts-upgradeable/proxy/utils/UUPSUpgradeable.sol\":4322:4368  _upgradeToAndCallUUPS(newImplementation, data) */\n      jump\t// in\n    tag_132:\n        /* \"@openzeppelin/contracts-upgradeable/proxy/utils/UUPSUpgradeable.sol\":4161:4375  function upgradeToAndCall(address newImplementation, bytes memory data) public payable virtual onlyProxy {... */\n      pop\n      pop\n      jump\t// out\n        /* \"@openzeppelin/contracts-upgradeable/proxy/utils/UUPSUpgradeable.sol\":3708:3842  function proxiableUUID() external view virtual notDelegated returns (bytes32) {... */\n    tag_43:\n        /* \"@openzeppelin/contracts-upgradeable/proxy/utils/UUPSUpgradeable.sol\":3777:3784  bytes32 */\n      0x00\n        /* \"@openzeppelin/contracts-upgradeable/proxy/utils/UUPSUpgradeable.sol\":2926:2946  _checkNotDelegated() */\n      tag_135\n        /* \"@openzeppelin/contracts-upgradeable/proxy/utils/UUPSUpgradeable.sol\":2926:2944  _checkNotDelegated */\n      tag_136\n        /* \"@openzeppelin/contracts-upgradeable/proxy/utils/UUPSUpgradeable.sol\":2926:2946  _checkNotDelegated() */\n      jump\t// in\n    tag_135:\n      pop\n      mload(0x00)\n      codecopy(0x00, data_75b20eef8615de99c108b05f0dbda081c91897128caa336d75dffb97c4132b4d, 0x20)\n      mload(0x00)\n      swap1\n      0x00\n      mstore\n        /* \"@openzeppelin/contracts-upgradeable/proxy/utils/UUPSUpgradeable.sol\":3708:3842  function proxiableUUID() external view virtual notDelegated returns (bytes32) {... */\n      swap1\n      jump\t// out\n        /* \"@openzeppelin/contracts-upgradeable/access/OwnableUpgradeable.sol\":3155:3256  function renounceOwnership() public virtual onlyOwner {... */\n    tag_52:\n        /* \"@openzeppelin/contracts-upgradeable/access/OwnableUpgradeable.sol\":2334:2347  _checkOwner() */\n      tag_139\n        /* \"@openzeppelin/contracts-upgradeable/access/OwnableUpgradeable.sol\":2334:2345  _checkOwner */\n      tag_140\n        /* \"@openzeppelin/contracts-upgradeable/access/OwnableUpgradeable.sol\":2334:2347  _checkOwner() */\n      jump\t// in\n    tag_139:\n        /* \"@openzeppelin/contracts-upgradeable/access/OwnableUpgradeable.sol\":3219:3249  _transferOwnership(address(0)) */\n      tag_142\n        /* \"@openzeppelin/contracts-upgradeable/access/OwnableUpgradeable.sol\":3246:3247  0 */\n      0x00\n        /* \"@openzeppelin/contracts-upgradeable/access/OwnableUpgradeable.sol\":3219:3237  _transferOwnership */\n      tag_143\n        /* \"@openzeppelin/contracts-upgradeable/access/OwnableUpgradeable.sol\":3219:3249  _transferOwnership(address(0)) */\n      jump\t// in\n    tag_142:\n        /* \"@openzeppelin/contracts-upgradeable/access/OwnableUpgradeable.sol\":3155:3256  function renounceOwnership() public virtual onlyOwner {... */\n      jump\t// out\n        /* \"Contracts/VaultFactoryImplementation.sol\":2911:2937  address[] public allVaults */\n    tag_61:\n      0x04\n      dup2\n      dup2\n      sload\n      dup2\n      lt\n      tag_147\n      jumpi\n      0x00\n      dup1\n      revert\n    tag_147:\n      0x00\n      swap2\n      dup3\n      mstore\n      0x20\n      swap1\n      swap2\n      keccak256\n      add\n      sload\n      sub(shl(0xa0, 0x01), 0x01)\n      and\n      swap1\n      pop\n      dup2\n      jump\t// out\n        /* \"Contracts/VaultFactoryImplementation.sol\":8285:8463  function getVault(uint256 index) external view returns (address) {... */\n    tag_66:\n        /* \"Contracts/VaultFactoryImplementation.sol\":8376:8385  allVaults */\n      0x04\n        /* \"Contracts/VaultFactoryImplementation.sol\":8376:8392  allVaults.length */\n      sload\n        /* \"Contracts/VaultFactoryImplementation.sol\":8341:8348  address */\n      0x00\n      swap1\n        /* \"Contracts/VaultFactoryImplementation.sol\":8368:8392  index < allVaults.length */\n      dup3\n      lt\n        /* \"Contracts/VaultFactoryImplementation.sol\":8360:8423  require(index < allVaults.length, \"VaultFactory: out of range\") */\n      tag_150\n      jumpi\n      mload(0x40)\n      shl(0xe5, 0x461bcd)\n      dup2\n      mstore\n        /* \"#utility.yul\":6522:6524   */\n      0x20\n        /* \"Contracts/VaultFactoryImplementation.sol\":8360:8423  require(index < allVaults.length, \"VaultFactory: out of range\") */\n      0x04\n      dup3\n      add\n        /* \"#utility.yul\":6504:6525   */\n      mstore\n        /* \"#utility.yul\":6561:6563   */\n      0x1a\n        /* \"#utility.yul\":6541:6559   */\n      0x24\n      dup3\n      add\n        /* \"#utility.yul\":6534:6564   */\n      mstore\n        /* \"#utility.yul\":6600:6628   */\n      0x5661756c74466163746f72793a206f7574206f662072616e6765000000000000\n        /* \"#utility.yul\":6580:6598   */\n      0x44\n      dup3\n      add\n        /* \"#utility.yul\":6573:6629   */\n      mstore\n        /* \"#utility.yul\":6646:6664   */\n      0x64\n      add\n        /* \"Contracts/VaultFactoryImplementation.sol\":8360:8423  require(index < allVaults.length, \"VaultFactory: out of range\") */\n      tag_121\n        /* \"#utility.yul\":6320:6670   */\n      jump\n        /* \"Contracts/VaultFactoryImplementation.sol\":8360:8423  require(index < allVaults.length, \"VaultFactory: out of range\") */\n    tag_150:\n        /* \"Contracts/VaultFactoryImplementation.sol\":8440:8449  allVaults */\n      0x04\n        /* \"Contracts/VaultFactoryImplementation.sol\":8450:8455  index */\n      dup3\n        /* \"Contracts/VaultFactoryImplementation.sol\":8440:8456  allVaults[index] */\n      dup2\n      sload\n      dup2\n      lt\n      tag_154\n      jumpi\n      tag_154\n      tag_155\n      jump\t// in\n    tag_154:\n      0x00\n      swap2\n      dup3\n      mstore\n      0x20\n      swap1\n      swap2\n      keccak256\n      add\n      sload\n      sub(shl(0xa0, 0x01), 0x01)\n      and\n      swap3\n        /* \"Contracts/VaultFactoryImplementation.sol\":8285:8463  function getVault(uint256 index) external view returns (address) {... */\n      swap2\n      pop\n      pop\n      jump\t// out\n        /* \"Contracts/VaultFactoryImplementation.sol\":8597:8695  function getAllVaults() external view returns (address[] memory) {... */\n    tag_70:\n        /* \"Contracts/VaultFactoryImplementation.sol\":8644:8660  address[] memory */\n      0x60\n        /* \"Contracts/VaultFactoryImplementation.sol\":8679:8688  allVaults */\n      0x04\n        /* \"Contracts/VaultFactoryImplementation.sol\":8672:8688  return allVaults */\n      dup1\n      sload\n      dup1\n      0x20\n      mul\n      0x20\n      add\n      mload(0x40)\n      swap1\n      dup2\n      add\n      0x40\n      mstore\n      dup1\n      swap3\n      swap2\n      swap1\n      dup2\n      dup2\n      mstore\n      0x20\n      add\n      dup3\n      dup1\n      sload\n      dup1\n      iszero\n      tag_158\n      jumpi\n      0x20\n      mul\n      dup3\n      add\n      swap2\n      swap1\n      0x00\n      mstore\n      keccak256(0x00, 0x20)\n      swap1\n    tag_159:\n      dup2\n      sload\n      sub(shl(0xa0, 0x01), 0x01)\n      and\n      dup2\n      mstore\n      0x01\n      swap1\n      swap2\n      add\n      swap1\n      0x20\n      add\n      dup1\n      dup4\n      gt\n      tag_159\n      jumpi\n    tag_158:\n      pop\n      pop\n      pop\n      pop\n      pop\n      swap1\n      pop\n        /* \"Contracts/VaultFactoryImplementation.sol\":8597:8695  function getAllVaults() external view returns (address[] memory) {... */\n      swap1\n      jump\t// out\n        /* \"Contracts/VaultFactoryImplementation.sol\":5090:5684  function setDefaultReferences(... */\n    tag_82:\n        /* \"@openzeppelin/contracts-upgradeable/access/OwnableUpgradeable.sol\":2334:2347  _checkOwner() */\n      tag_162\n        /* \"@openzeppelin/contracts-upgradeable/access/OwnableUpgradeable.sol\":2334:2345  _checkOwner */\n      tag_140\n        /* \"@openzeppelin/contracts-upgradeable/access/OwnableUpgradeable.sol\":2334:2347  _checkOwner() */\n      jump\t// in\n    tag_162:\n      sub(shl(0xa0, 0x01), 0x01)\n        /* \"Contracts/VaultFactoryImplementation.sol\":5253:5281  _oracleManager != address(0) */\n      dup4\n      and\n        /* \"Contracts/VaultFactoryImplementation.sol\":5245:5314  require(_oracleManager != address(0), \"VaultFactory: invalid oracle\") */\n      tag_164\n      jumpi\n      mload(0x40)\n      shl(0xe5, 0x461bcd)\n      dup2\n      mstore\n        /* \"#utility.yul\":7009:7011   */\n      0x20\n        /* \"Contracts/VaultFactoryImplementation.sol\":5245:5314  require(_oracleManager != address(0), \"VaultFactory: invalid oracle\") */\n      0x04\n      dup3\n      add\n        /* \"#utility.yul\":6991:7012   */\n      mstore\n        /* \"#utility.yul\":7048:7050   */\n      0x1c\n        /* \"#utility.yul\":7028:7046   */\n      0x24\n      dup3\n      add\n        /* \"#utility.yul\":7021:7051   */\n      mstore\n        /* \"#utility.yul\":7087:7117   */\n      0x5661756c74466163746f72793a20696e76616c6964206f7261636c6500000000\n        /* \"#utility.yul\":7067:7085   */\n      0x44\n      dup3\n      add\n        /* \"#utility.yul\":7060:7118   */\n      mstore\n        /* \"#utility.yul\":7135:7153   */\n      0x64\n      add\n        /* \"Contracts/VaultFactoryImplementation.sol\":5245:5314  require(_oracleManager != address(0), \"VaultFactory: invalid oracle\") */\n      tag_121\n        /* \"#utility.yul\":6807:7159   */\n      jump\n        /* \"Contracts/VaultFactoryImplementation.sol\":5245:5314  require(_oracleManager != address(0), \"VaultFactory: invalid oracle\") */\n    tag_164:\n      sub(shl(0xa0, 0x01), 0x01)\n        /* \"Contracts/VaultFactoryImplementation.sol\":5332:5357  _rebalancer != address(0) */\n      dup3\n      and\n        /* \"Contracts/VaultFactoryImplementation.sol\":5324:5394  require(_rebalancer != address(0), \"VaultFactory: invalid rebalancer\") */\n      tag_167\n      jumpi\n      mload(0x40)\n      shl(0xe5, 0x461bcd)\n      dup2\n      mstore\n        /* \"#utility.yul\":7366:7368   */\n      0x20\n        /* \"Contracts/VaultFactoryImplementation.sol\":5324:5394  require(_rebalancer != address(0), \"VaultFactory: invalid rebalancer\") */\n      0x04\n      dup3\n      add\n        /* \"#utility.yul\":7348:7369   */\n      dup2\n      swap1\n      mstore\n        /* \"#utility.yul\":7385:7403   */\n      0x24\n      dup3\n      add\n        /* \"#utility.yul\":7378:7408   */\n      mstore\n        /* \"#utility.yul\":7444:7478   */\n      0x5661756c74466163746f72793a20696e76616c696420726562616c616e636572\n        /* \"#utility.yul\":7424:7442   */\n      0x44\n      dup3\n      add\n        /* \"#utility.yul\":7417:7479   */\n      mstore\n        /* \"#utility.yul\":7496:7514   */\n      0x64\n      add\n        /* \"Contracts/VaultFactoryImplementation.sol\":5324:5394  require(_rebalancer != address(0), \"VaultFactory: invalid rebalancer\") */\n      tag_121\n        /* \"#utility.yul\":7164:7520   */\n      jump\n        /* \"Contracts/VaultFactoryImplementation.sol\":5324:5394  require(_rebalancer != address(0), \"VaultFactory: invalid rebalancer\") */\n    tag_167:\n      sub(shl(0xa0, 0x01), 0x01)\n        /* \"Contracts/VaultFactoryImplementation.sol\":5412:5437  _liquidator != address(0) */\n      dup2\n      and\n        /* \"Contracts/VaultFactoryImplementation.sol\":5404:5474  require(_liquidator != address(0), \"VaultFactory: invalid liquidator\") */\n      tag_170\n      jumpi\n      mload(0x40)\n      shl(0xe5, 0x461bcd)\n      dup2\n      mstore\n        /* \"#utility.yul\":7727:7729   */\n      0x20\n        /* \"Contracts/VaultFactoryImplementation.sol\":5404:5474  require(_liquidator != address(0), \"VaultFactory: invalid liquidator\") */\n      0x04\n      dup3\n      add\n        /* \"#utility.yul\":7709:7730   */\n      dup2\n      swap1\n      mstore\n        /* \"#utility.yul\":7746:7764   */\n      0x24\n      dup3\n      add\n        /* \"#utility.yul\":7739:7769   */\n      mstore\n        /* \"#utility.yul\":7805:7839   */\n      0x5661756c74466163746f72793a20696e76616c6964206c697175696461746f72\n        /* \"#utility.yul\":7785:7803   */\n      0x44\n      dup3\n      add\n        /* \"#utility.yul\":7778:7840   */\n      mstore\n        /* \"#utility.yul\":7857:7875   */\n      0x64\n      add\n        /* \"Contracts/VaultFactoryImplementation.sol\":5404:5474  require(_liquidator != address(0), \"VaultFactory: invalid liquidator\") */\n      tag_121\n        /* \"#utility.yul\":7525:7881   */\n      jump\n        /* \"Contracts/VaultFactoryImplementation.sol\":5404:5474  require(_liquidator != address(0), \"VaultFactory: invalid liquidator\") */\n    tag_170:\n        /* \"Contracts/VaultFactoryImplementation.sol\":5485:5505  defaultOracleManager */\n      0x01\n        /* \"Contracts/VaultFactoryImplementation.sol\":5485:5522  defaultOracleManager = _oracleManager */\n      dup1\n      sload\n      sub(shl(0xa0, 0x01), 0x01)\n      dup6\n      dup2\n      and\n      not(sub(shl(0xa0, 0x01), 0x01))\n      swap3\n      dup4\n      and\n      dup2\n      or\n      swap1\n      swap4\n      sstore\n        /* \"Contracts/VaultFactoryImplementation.sol\":5532:5549  defaultRebalancer */\n      0x02\n        /* \"Contracts/VaultFactoryImplementation.sol\":5532:5563  defaultRebalancer = _rebalancer */\n      dup1\n      sload\n      dup7\n      dup4\n      and\n      swap1\n      dup5\n      and\n      dup2\n      or\n      swap1\n      swap2\n      sstore\n        /* \"Contracts/VaultFactoryImplementation.sol\":5573:5590  defaultLiquidator */\n      0x03\n        /* \"Contracts/VaultFactoryImplementation.sol\":5573:5604  defaultLiquidator = _liquidator */\n      dup1\n      sload\n      swap3\n      dup7\n      and\n      swap3\n      swap1\n      swap4\n      and\n      dup3\n      or\n      swap1\n      swap3\n      sstore\n        /* \"Contracts/VaultFactoryImplementation.sol\":5620:5677  DefaultsUpdated(_oracleManager, _rebalancer, _liquidator) */\n      0x40\n      dup1\n      mload\n        /* \"#utility.yul\":8088:8139   */\n      swap4\n      dup5\n      mstore\n        /* \"#utility.yul\":8170:8172   */\n      0x20\n        /* \"#utility.yul\":8155:8173   */\n      dup5\n      add\n        /* \"#utility.yul\":8148:8208   */\n      swap3\n      swap1\n      swap3\n      mstore\n        /* \"#utility.yul\":8224:8242   */\n      swap1\n      dup3\n      add\n        /* \"#utility.yul\":8217:8277   */\n      mstore\n        /* \"Contracts/VaultFactoryImplementation.sol\":5620:5677  DefaultsUpdated(_oracleManager, _rebalancer, _liquidator) */\n      0x43d676ef005d9b31f20857ca4015e161d6c2337206dc3487aed30b7b4c1cefc3\n      swap1\n        /* \"#utility.yul\":8076:8078   */\n      0x60\n        /* \"#utility.yul\":8061:8079   */\n      add\n        /* \"Contracts/VaultFactoryImplementation.sol\":5620:5677  DefaultsUpdated(_oracleManager, _rebalancer, _liquidator) */\n      mload(0x40)\n      dup1\n      swap2\n      sub\n      swap1\n      log1\n        /* \"Contracts/VaultFactoryImplementation.sol\":5090:5684  function setDefaultReferences(... */\n      pop\n      pop\n      pop\n      jump\t// out\n        /* \"Contracts/VaultFactoryImplementation.sol\":6355:8003  function createVault(... */\n    tag_96:\n        /* \"Contracts/VaultFactoryImplementation.sol\":6598:6615  address proxyAddr */\n      0x00\n      sub(shl(0xa0, 0x01), 0x01)\n        /* \"Contracts/VaultFactoryImplementation.sol\":6635:6655  v3Pool != address(0) */\n      dup11\n      and\n        /* \"Contracts/VaultFactoryImplementation.sol\":6627:6688  require(v3Pool != address(0), \"VaultFactory: invalid v3Pool\") */\n      tag_176\n      jumpi\n      mload(0x40)\n      shl(0xe5, 0x461bcd)\n      dup2\n      mstore\n        /* \"#utility.yul\":8490:8492   */\n      0x20\n        /* \"Contracts/VaultFactoryImplementation.sol\":6627:6688  require(v3Pool != address(0), \"VaultFactory: invalid v3Pool\") */\n      0x04\n      dup3\n      add\n        /* \"#utility.yul\":8472:8493   */\n      mstore\n        /* \"#utility.yul\":8529:8531   */\n      0x1c\n        /* \"#utility.yul\":8509:8527   */\n      0x24\n      dup3\n      add\n        /* \"#utility.yul\":8502:8532   */\n      mstore\n        /* \"#utility.yul\":8568:8598   */\n      0x5661756c74466163746f72793a20696e76616c6964207633506f6f6c00000000\n        /* \"#utility.yul\":8548:8566   */\n      0x44\n      dup3\n      add\n        /* \"#utility.yul\":8541:8599   */\n      mstore\n        /* \"#utility.yul\":8616:8634   */\n      0x64\n      add\n        /* \"Contracts/VaultFactoryImplementation.sol\":6627:6688  require(v3Pool != address(0), \"VaultFactory: invalid v3Pool\") */\n      tag_121\n        /* \"#utility.yul\":8288:8640   */\n      jump\n        /* \"Contracts/VaultFactoryImplementation.sol\":6627:6688  require(v3Pool != address(0), \"VaultFactory: invalid v3Pool\") */\n    tag_176:\n      sub(shl(0xa0, 0x01), 0x01)\n        /* \"Contracts/VaultFactoryImplementation.sol\":6706:6731  positionMgr != address(0) */\n      dup10\n      and\n        /* \"Contracts/VaultFactoryImplementation.sol\":6698:6769  require(positionMgr != address(0), \"VaultFactory: invalid positionMgr\") */\n      tag_179\n      jumpi\n      mload(0x40)\n      shl(0xe5, 0x461bcd)\n      dup2\n      mstore\n        /* \"#utility.yul\":8847:8849   */\n      0x20\n        /* \"Contracts/VaultFactoryImplementation.sol\":6698:6769  require(positionMgr != address(0), \"VaultFactory: invalid positionMgr\") */\n      0x04\n      dup3\n      add\n        /* \"#utility.yul\":8829:8850   */\n      mstore\n        /* \"#utility.yul\":8886:8888   */\n      0x21\n        /* \"#utility.yul\":8866:8884   */\n      0x24\n      dup3\n      add\n        /* \"#utility.yul\":8859:8889   */\n      mstore\n        /* \"#utility.yul\":8925:8959   */\n      0x5661756c74466163746f72793a20696e76616c696420706f736974696f6e4d67\n        /* \"#utility.yul\":8905:8923   */\n      0x44\n      dup3\n      add\n        /* \"#utility.yul\":8898:8960   */\n      mstore\n      shl(0xf9, 0x39)\n        /* \"#utility.yul\":8976:8994   */\n      0x64\n      dup3\n      add\n        /* \"#utility.yul\":8969:9000   */\n      mstore\n        /* \"#utility.yul\":9017:9036   */\n      0x84\n      add\n        /* \"Contracts/VaultFactoryImplementation.sol\":6698:6769  require(positionMgr != address(0), \"VaultFactory: invalid positionMgr\") */\n      tag_121\n        /* \"#utility.yul\":8645:9042   */\n      jump\n        /* \"Contracts/VaultFactoryImplementation.sol\":6698:6769  require(positionMgr != address(0), \"VaultFactory: invalid positionMgr\") */\n    tag_179:\n        /* \"Contracts/VaultFactoryImplementation.sol\":6831:6850  address finalOracle */\n      0x00\n      sub(shl(0xa0, 0x01), 0x01)\n        /* \"Contracts/VaultFactoryImplementation.sol\":6854:6877  oracleMgr == address(0) */\n      dup10\n      and\n      iszero\n        /* \"Contracts/VaultFactoryImplementation.sol\":6853:6913  (oracleMgr == address(0)) ? defaultOracleManager : oracleMgr */\n      tag_182\n      jumpi\n        /* \"Contracts/VaultFactoryImplementation.sol\":6904:6913  oracleMgr */\n      dup9\n        /* \"Contracts/VaultFactoryImplementation.sol\":6853:6913  (oracleMgr == address(0)) ? defaultOracleManager : oracleMgr */\n      jump(tag_183)\n    tag_182:\n        /* \"Contracts/VaultFactoryImplementation.sol\":6881:6901  defaultOracleManager */\n      and(sub(shl(0xa0, 0x01), 0x01), sload(0x01))\n        /* \"Contracts/VaultFactoryImplementation.sol\":6853:6913  (oracleMgr == address(0)) ? defaultOracleManager : oracleMgr */\n    tag_183:\n        /* \"Contracts/VaultFactoryImplementation.sol\":6831:6913  address finalOracle = (oracleMgr == address(0)) ? defaultOracleManager : oracleMgr */\n      swap1\n      pop\n        /* \"Contracts/VaultFactoryImplementation.sol\":6923:6946  address finalRebalancer */\n      0x00\n      sub(shl(0xa0, 0x01), 0x01)\n        /* \"Contracts/VaultFactoryImplementation.sol\":6950:6974  rebalancer == address(0) */\n      dup10\n      and\n      iszero\n        /* \"Contracts/VaultFactoryImplementation.sol\":6949:7008  (rebalancer == address(0)) ? defaultRebalancer : rebalancer */\n      tag_184\n      jumpi\n        /* \"Contracts/VaultFactoryImplementation.sol\":6998:7008  rebalancer */\n      dup9\n        /* \"Contracts/VaultFactoryImplementation.sol\":6949:7008  (rebalancer == address(0)) ? defaultRebalancer : rebalancer */\n      jump(tag_185)\n    tag_184:\n        /* \"Contracts/VaultFactoryImplementation.sol\":6978:6995  defaultRebalancer */\n      and(sub(shl(0xa0, 0x01), 0x01), sload(0x02))\n        /* \"Contracts/VaultFactoryImplementation.sol\":6949:7008  (rebalancer == address(0)) ? defaultRebalancer : rebalancer */\n    tag_185:\n        /* \"Contracts/VaultFactoryImplementation.sol\":6923:7008  address finalRebalancer = (rebalancer == address(0)) ? defaultRebalancer : rebalancer */\n      swap1\n      pop\n        /* \"Contracts/VaultFactoryImplementation.sol\":7018:7041  address finalLiquidator */\n      0x00\n      sub(shl(0xa0, 0x01), 0x01)\n        /* \"Contracts/VaultFactoryImplementation.sol\":7045:7069  liquidator == address(0) */\n      dup10\n      and\n      iszero\n        /* \"Contracts/VaultFactoryImplementation.sol\":7044:7103  (liquidator == address(0)) ? defaultLiquidator : liquidator */\n      tag_186\n      jumpi\n        /* \"Contracts/VaultFactoryImplementation.sol\":7093:7103  liquidator */\n      dup9\n        /* \"Contracts/VaultFactoryImplementation.sol\":7044:7103  (liquidator == address(0)) ? defaultLiquidator : liquidator */\n      jump(tag_187)\n    tag_186:\n        /* \"Contracts/VaultFactoryImplementation.sol\":7073:7090  defaultLiquidator */\n      and(sub(shl(0xa0, 0x01), 0x01), sload(0x03))\n        /* \"Contracts/VaultFactoryImplementation.sol\":7044:7103  (liquidator == address(0)) ? defaultLiquidator : liquidator */\n    tag_187:\n        /* \"Contracts/VaultFactoryImplementation.sol\":7018:7103  address finalLiquidator = (liquidator == address(0)) ? defaultLiquidator : liquidator */\n      swap1\n      pop\n      sub(shl(0xa0, 0x01), 0x01)\n        /* \"Contracts/VaultFactoryImplementation.sol\":7122:7147  finalOracle != address(0) */\n      dup4\n      and\n        /* \"Contracts/VaultFactoryImplementation.sol\":7114:7175  require(finalOracle != address(0), \"VaultFactory: no oracle\") */\n      tag_188\n      jumpi\n      mload(0x40)\n      shl(0xe5, 0x461bcd)\n      dup2\n      mstore\n        /* \"#utility.yul\":9249:9251   */\n      0x20\n        /* \"Contracts/VaultFactoryImplementation.sol\":7114:7175  require(finalOracle != address(0), \"VaultFactory: no oracle\") */\n      0x04\n      dup3\n      add\n        /* \"#utility.yul\":9231:9252   */\n      mstore\n        /* \"#utility.yul\":9288:9290   */\n      0x17\n        /* \"#utility.yul\":9268:9286   */\n      0x24\n      dup3\n      add\n        /* \"#utility.yul\":9261:9291   */\n      mstore\n        /* \"#utility.yul\":9327:9352   */\n      0x5661756c74466163746f72793a206e6f206f7261636c65000000000000000000\n        /* \"#utility.yul\":9307:9325   */\n      0x44\n      dup3\n      add\n        /* \"#utility.yul\":9300:9353   */\n      mstore\n        /* \"#utility.yul\":9370:9388   */\n      0x64\n      add\n        /* \"Contracts/VaultFactoryImplementation.sol\":7114:7175  require(finalOracle != address(0), \"VaultFactory: no oracle\") */\n      tag_121\n        /* \"#utility.yul\":9047:9394   */\n      jump\n        /* \"Contracts/VaultFactoryImplementation.sol\":7114:7175  require(finalOracle != address(0), \"VaultFactory: no oracle\") */\n    tag_188:\n      sub(shl(0xa0, 0x01), 0x01)\n        /* \"Contracts/VaultFactoryImplementation.sol\":7193:7222  finalRebalancer != address(0) */\n      dup3\n      and\n        /* \"Contracts/VaultFactoryImplementation.sol\":7185:7254  require(finalRebalancer != address(0), \"VaultFactory: no rebalancer\") */\n      tag_191\n      jumpi\n      mload(0x40)\n      shl(0xe5, 0x461bcd)\n      dup2\n      mstore\n        /* \"#utility.yul\":9601:9603   */\n      0x20\n        /* \"Contracts/VaultFactoryImplementation.sol\":7185:7254  require(finalRebalancer != address(0), \"VaultFactory: no rebalancer\") */\n      0x04\n      dup3\n      add\n        /* \"#utility.yul\":9583:9604   */\n      mstore\n        /* \"#utility.yul\":9640:9642   */\n      0x1b\n        /* \"#utility.yul\":9620:9638   */\n      0x24\n      dup3\n      add\n        /* \"#utility.yul\":9613:9643   */\n      mstore\n        /* \"#utility.yul\":9679:9708   */\n      0x5661756c74466163746f72793a206e6f20726562616c616e6365720000000000\n        /* \"#utility.yul\":9659:9677   */\n      0x44\n      dup3\n      add\n        /* \"#utility.yul\":9652:9709   */\n      mstore\n        /* \"#utility.yul\":9726:9744   */\n      0x64\n      add\n        /* \"Contracts/VaultFactoryImplementation.sol\":7185:7254  require(finalRebalancer != address(0), \"VaultFactory: no rebalancer\") */\n      tag_121\n        /* \"#utility.yul\":9399:9750   */\n      jump\n        /* \"Contracts/VaultFactoryImplementation.sol\":7185:7254  require(finalRebalancer != address(0), \"VaultFactory: no rebalancer\") */\n    tag_191:\n      sub(shl(0xa0, 0x01), 0x01)\n        /* \"Contracts/VaultFactoryImplementation.sol\":7272:7301  finalLiquidator != address(0) */\n      dup2\n      and\n        /* \"Contracts/VaultFactoryImplementation.sol\":7264:7333  require(finalLiquidator != address(0), \"VaultFactory: no liquidator\") */\n      tag_194\n      jumpi\n      mload(0x40)\n      shl(0xe5, 0x461bcd)\n      dup2\n      mstore\n        /* \"#utility.yul\":9957:9959   */\n      0x20\n        /* \"Contracts/VaultFactoryImplementation.sol\":7264:7333  require(finalLiquidator != address(0), \"VaultFactory: no liquidator\") */\n      0x04\n      dup3\n      add\n        /* \"#utility.yul\":9939:9960   */\n      mstore\n        /* \"#utility.yul\":9996:9998   */\n      0x1b\n        /* \"#utility.yul\":9976:9994   */\n      0x24\n      dup3\n      add\n        /* \"#utility.yul\":9969:9999   */\n      mstore\n        /* \"#utility.yul\":10035:10064   */\n      0x5661756c74466163746f72793a206e6f206c697175696461746f720000000000\n        /* \"#utility.yul\":10015:10033   */\n      0x44\n      dup3\n      add\n        /* \"#utility.yul\":10008:10065   */\n      mstore\n        /* \"#utility.yul\":10082:10100   */\n      0x64\n      add\n        /* \"Contracts/VaultFactoryImplementation.sol\":7264:7333  require(finalLiquidator != address(0), \"VaultFactory: no liquidator\") */\n      tag_121\n        /* \"#utility.yul\":9755:10106   */\n      jump\n        /* \"Contracts/VaultFactoryImplementation.sol\":7264:7333  require(finalLiquidator != address(0), \"VaultFactory: no liquidator\") */\n    tag_194:\n        /* \"Contracts/VaultFactoryImplementation.sol\":7394:7415  bytes memory initData */\n      0x00\n        /* \"Contracts/VaultFactoryImplementation.sol\":7454:7494  IVaultImplementation.initialize.selector */\n      shl(0xe0, 0xef090e4c)\n        /* \"Contracts/VaultFactoryImplementation.sol\":7508:7514  v3Pool */\n      dup15\n        /* \"Contracts/VaultFactoryImplementation.sol\":7528:7539  positionMgr */\n      dup15\n        /* \"Contracts/VaultFactoryImplementation.sol\":7553:7564  finalOracle */\n      dup7\n        /* \"Contracts/VaultFactoryImplementation.sol\":7578:7593  finalRebalancer */\n      dup7\n        /* \"Contracts/VaultFactoryImplementation.sol\":7607:7622  finalLiquidator */\n      dup7\n        /* \"Contracts/VaultFactoryImplementation.sol\":7636:7646  msg.sender */\n      caller\n        /* \"Contracts/VaultFactoryImplementation.sol\":7679:7683  name */\n      dup16\n      dup16\n        /* \"Contracts/VaultFactoryImplementation.sol\":7697:7703  symbol */\n      dup16\n      dup16\n        /* \"Contracts/VaultFactoryImplementation.sol\":7418:7713  abi.encodeWithSelector(... */\n      add(0x24, mload(0x40))\n      tag_197\n      swap11\n      swap10\n      swap9\n      swap8\n      swap7\n      swap6\n      swap5\n      swap4\n      swap3\n      swap2\n      swap1\n      tag_198\n      jump\t// in\n    tag_197:\n      0x40\n      dup1\n      mload\n      not(0x1f)\n      dup2\n      dup5\n      sub\n      add\n      dup2\n      mstore\n      swap2\n      dup2\n      mstore\n      0x20\n      dup3\n      add\n      dup1\n      mload\n      sub(shl(0xe0, 0x01), 0x01)\n      and\n      not(sub(shl(0xe0, 0x01), 0x01))\n      swap1\n      swap5\n      and\n      swap4\n      swap1\n      swap4\n      or\n      swap1\n      swap3\n      mstore\n      0x00\n        /* \"Contracts/VaultFactoryImplementation.sol\":7824:7834  vaultLogic */\n      dup1\n      sload\n        /* \"Contracts/VaultFactoryImplementation.sol\":7807:7845  new ERC1967Proxy(vaultLogic, initData) */\n      swap3\n      mload\n        /* \"Contracts/VaultFactoryImplementation.sol\":7418:7713  abi.encodeWithSelector(... */\n      swap2\n      swap4\n      pop\n      swap2\n      sub(shl(0xa0, 0x01), 0x01)\n        /* \"Contracts/VaultFactoryImplementation.sol\":7824:7834  vaultLogic */\n      and\n      swap1\n        /* \"Contracts/VaultFactoryImplementation.sol\":7418:7713  abi.encodeWithSelector(... */\n      dup4\n      swap1\n        /* \"Contracts/VaultFactoryImplementation.sol\":7807:7845  new ERC1967Proxy(vaultLogic, initData) */\n      tag_199\n      swap1\n      tag_200\n      jump\t// in\n    tag_199:\n      tag_201\n      swap3\n      swap2\n      swap1\n      tag_202\n      jump\t// in\n    tag_201:\n      mload(0x40)\n      dup1\n      swap2\n      sub\n      swap1\n      0x00\n      create\n      dup1\n      iszero\n      dup1\n      iszero\n      tag_203\n      jumpi\n      returndatacopy(0x00, 0x00, returndatasize)\n      revert(0x00, returndatasize)\n    tag_203:\n      pop\n        /* \"Contracts/VaultFactoryImplementation.sol\":7786:7845  ERC1967Proxy proxy = new ERC1967Proxy(vaultLogic, initData) */\n      swap1\n      pop\n        /* \"Contracts/VaultFactoryImplementation.sol\":7875:7880  proxy */\n      dup1\n        /* \"Contracts/VaultFactoryImplementation.sol\":7855:7881  proxyAddr = address(proxy) */\n      swap6\n      pop\n        /* \"Contracts/VaultFactoryImplementation.sol\":7912:7921  allVaults */\n      0x04\n        /* \"Contracts/VaultFactoryImplementation.sol\":7927:7936  proxyAddr */\n      dup7\n        /* \"Contracts/VaultFactoryImplementation.sol\":7912:7937  allVaults.push(proxyAddr) */\n      swap1\n      dup1\n      0x01\n      dup2\n      sload\n      add\n      dup1\n      dup3\n      sstore\n      dup1\n      swap2\n      pop\n      pop\n      0x01\n      swap1\n      sub\n      swap1\n      0x00\n      mstore\n      keccak256(0x00, 0x20)\n      add\n      0x00\n      swap1\n      swap2\n      swap1\n      swap2\n      swap1\n      swap2\n      0x0100\n      exp\n      dup2\n      sload\n      dup2\n      sub(shl(0xa0, 0x01), 0x01)\n      mul\n      not\n      and\n      swap1\n      dup4\n      sub(shl(0xa0, 0x01), 0x01)\n      and\n      mul\n      or\n      swap1\n      sstore\n      pop\n        /* \"Contracts/VaultFactoryImplementation.sol\":7989:7995  v3Pool */\n      dup15\n      sub(shl(0xa0, 0x01), 0x01)\n        /* \"Contracts/VaultFactoryImplementation.sol\":7953:7996  VaultCreated(proxyAddr, msg.sender, v3Pool) */\n      and\n        /* \"Contracts/VaultFactoryImplementation.sol\":7977:7987  msg.sender */\n      caller\n      sub(shl(0xa0, 0x01), 0x01)\n        /* \"Contracts/VaultFactoryImplementation.sol\":7953:7996  VaultCreated(proxyAddr, msg.sender, v3Pool) */\n      and\n        /* \"Contracts/VaultFactoryImplementation.sol\":7966:7975  proxyAddr */\n      dup8\n      sub(shl(0xa0, 0x01), 0x01)\n        /* \"Contracts/VaultFactoryImplementation.sol\":7953:7996  VaultCreated(proxyAddr, msg.sender, v3Pool) */\n      and\n      0x897c133dfbfe1f6239e98b4ffd7e4f6c86a62350a131a7a37790419f58af02f9\n      mload(0x40)\n      mload(0x40)\n      dup1\n      swap2\n      sub\n      swap1\n      log4\n        /* \"Contracts/VaultFactoryImplementation.sol\":6617:8003  {... */\n      pop\n      pop\n      pop\n      pop\n      pop\n        /* \"Contracts/VaultFactoryImplementation.sol\":6355:8003  function createVault(... */\n      swap10\n      swap9\n      pop\n      pop\n      pop\n      pop\n      pop\n      pop\n      pop\n      pop\n      pop\n      jump\t// out\n        /* \"Contracts/VaultFactoryImplementation.sol\":4487:4672  function setVaultLogic(address newVaultLogic) external onlyOwner {... */\n    tag_102:\n        /* \"@openzeppelin/contracts-upgradeable/access/OwnableUpgradeable.sol\":2334:2347  _checkOwner() */\n      tag_206\n        /* \"@openzeppelin/contracts-upgradeable/access/OwnableUpgradeable.sol\":2334:2345  _checkOwner */\n      tag_140\n        /* \"@openzeppelin/contracts-upgradeable/access/OwnableUpgradeable.sol\":2334:2347  _checkOwner() */\n      jump\t// in\n    tag_206:\n      sub(shl(0xa0, 0x01), 0x01)\n        /* \"Contracts/VaultFactoryImplementation.sol\":4570:4597  newVaultLogic != address(0) */\n      dup2\n      and\n        /* \"Contracts/VaultFactoryImplementation.sol\":4562:4629  require(newVaultLogic != address(0), \"VaultFactory: invalid logic\") */\n      tag_208\n      jumpi\n      mload(0x40)\n      shl(0xe5, 0x461bcd)\n      dup2\n      mstore\n        /* \"#utility.yul\":11935:11937   */\n      0x20\n        /* \"Contracts/VaultFactoryImplementation.sol\":4562:4629  require(newVaultLogic != address(0), \"VaultFactory: invalid logic\") */\n      0x04\n      dup3\n      add\n        /* \"#utility.yul\":11917:11938   */\n      mstore\n        /* \"#utility.yul\":11974:11976   */\n      0x1b\n        /* \"#utility.yul\":11954:11972   */\n      0x24\n      dup3\n      add\n        /* \"#utility.yul\":11947:11977   */\n      mstore\n        /* \"#utility.yul\":12013:12042   */\n      0x5661756c74466163746f72793a20696e76616c6964206c6f6769630000000000\n        /* \"#utility.yul\":11993:12011   */\n      0x44\n      dup3\n      add\n        /* \"#utility.yul\":11986:12043   */\n      mstore\n        /* \"#utility.yul\":12060:12078   */\n      0x64\n      add\n        /* \"Contracts/VaultFactoryImplementation.sol\":4562:4629  require(newVaultLogic != address(0), \"VaultFactory: invalid logic\") */\n      tag_121\n        /* \"#utility.yul\":11733:12084   */\n      jump\n        /* \"Contracts/VaultFactoryImplementation.sol\":4562:4629  require(newVaultLogic != address(0), \"VaultFactory: invalid logic\") */\n    tag_208:\n        /* \"Contracts/VaultFactoryImplementation.sol\":4639:4649  vaultLogic */\n      0x00\n        /* \"Contracts/VaultFactoryImplementation.sol\":4639:4665  vaultLogic = newVaultLogic */\n      dup1\n      sload\n      not(sub(shl(0xa0, 0x01), 0x01))\n      and\n      sub(shl(0xa0, 0x01), 0x01)\n      swap3\n      swap1\n      swap3\n      and\n      swap2\n      swap1\n      swap2\n      or\n      swap1\n      sstore\n        /* \"Contracts/VaultFactoryImplementation.sol\":4487:4672  function setVaultLogic(address newVaultLogic) external onlyOwner {... */\n      jump\t// out\n        /* \"@openzeppelin/contracts-upgradeable/access/OwnableUpgradeable.sol\":3405:3620  function transferOwnership(address newOwner) public virtual onlyOwner {... */\n    tag_106:\n        /* \"@openzeppelin/contracts-upgradeable/access/OwnableUpgradeable.sol\":2334:2347  _checkOwner() */\n      tag_212\n        /* \"@openzeppelin/contracts-upgradeable/access/OwnableUpgradeable.sol\":2334:2345  _checkOwner */\n      tag_140\n        /* \"@openzeppelin/contracts-upgradeable/access/OwnableUpgradeable.sol\":2334:2347  _checkOwner() */\n      jump\t// in\n    tag_212:\n      sub(shl(0xa0, 0x01), 0x01)\n        /* \"@openzeppelin/contracts-upgradeable/access/OwnableUpgradeable.sol\":3489:3511  newOwner == address(0) */\n      dup2\n      and\n        /* \"@openzeppelin/contracts-upgradeable/access/OwnableUpgradeable.sol\":3485:3576  if (newOwner == address(0)) {... */\n      tag_214\n      jumpi\n        /* \"@openzeppelin/contracts-upgradeable/access/OwnableUpgradeable.sol\":3534:3565  OwnableInvalidOwner(address(0)) */\n      mload(0x40)\n      shl(0xe0, 0x1e4fbdf7)\n      dup2\n      mstore\n        /* \"@openzeppelin/contracts-upgradeable/access/OwnableUpgradeable.sol\":3562:3563  0 */\n      0x00\n        /* \"@openzeppelin/contracts-upgradeable/access/OwnableUpgradeable.sol\":3534:3565  OwnableInvalidOwner(address(0)) */\n      0x04\n      dup3\n      add\n        /* \"#utility.yul\":160:211   */\n      mstore\n        /* \"#utility.yul\":133:151   */\n      0x24\n      add\n        /* \"@openzeppelin/contracts-upgradeable/access/OwnableUpgradeable.sol\":3534:3565  OwnableInvalidOwner(address(0)) */\n      tag_121\n        /* \"#utility.yul\":14:217   */\n      jump\n        /* \"@openzeppelin/contracts-upgradeable/access/OwnableUpgradeable.sol\":3485:3576  if (newOwner == address(0)) {... */\n    tag_214:\n        /* \"@openzeppelin/contracts-upgradeable/access/OwnableUpgradeable.sol\":3585:3613  _transferOwnership(newOwner) */\n      tag_216\n        /* \"@openzeppelin/contracts-upgradeable/access/OwnableUpgradeable.sol\":3604:3612  newOwner */\n      dup2\n        /* \"@openzeppelin/contracts-upgradeable/access/OwnableUpgradeable.sol\":3585:3603  _transferOwnership */\n      tag_143\n        /* \"@openzeppelin/contracts-upgradeable/access/OwnableUpgradeable.sol\":3585:3613  _transferOwnership(newOwner) */\n      jump\t// in\n    tag_216:\n        /* \"@openzeppelin/contracts-upgradeable/access/OwnableUpgradeable.sol\":3405:3620  function transferOwnership(address newOwner) public virtual onlyOwner {... */\n      pop\n      jump\t// out\n        /* \"@openzeppelin/contracts-upgradeable/access/OwnableUpgradeable.sol\":1847:1974  function __Ownable_init(address initialOwner) internal onlyInitializing {... */\n    tag_117:\n        /* \"@openzeppelin/contracts-upgradeable/proxy/utils/Initializable.sol\":6931:6951  _checkInitializing() */\n      tag_219\n        /* \"@openzeppelin/contracts-upgradeable/proxy/utils/Initializable.sol\":6931:6949  _checkInitializing */\n      tag_220\n        /* \"@openzeppelin/contracts-upgradeable/proxy/utils/Initializable.sol\":6931:6951  _checkInitializing() */\n      jump\t// in\n    tag_219:\n        /* \"@openzeppelin/contracts-upgradeable/access/OwnableUpgradeable.sol\":1929:1967  __Ownable_init_unchained(initialOwner) */\n      tag_216\n        /* \"@openzeppelin/contracts-upgradeable/access/OwnableUpgradeable.sol\":1954:1966  initialOwner */\n      dup2\n        /* \"@openzeppelin/contracts-upgradeable/access/OwnableUpgradeable.sol\":1929:1953  __Ownable_init_unchained */\n      tag_223\n        /* \"@openzeppelin/contracts-upgradeable/access/OwnableUpgradeable.sol\":1929:1967  __Ownable_init_unchained(initialOwner) */\n      jump\t// in\n        /* \"@openzeppelin/contracts-upgradeable/proxy/utils/UUPSUpgradeable.sol\":2970:3037  function __UUPSUpgradeable_init() internal onlyInitializing {... */\n    tag_119:\n        /* \"@openzeppelin/contracts-upgradeable/proxy/utils/Initializable.sol\":6931:6951  _checkInitializing() */\n      tag_142\n        /* \"@openzeppelin/contracts-upgradeable/proxy/utils/Initializable.sol\":6931:6949  _checkInitializing */\n      tag_220\n        /* \"@openzeppelin/contracts-upgradeable/proxy/utils/Initializable.sol\":6931:6951  _checkInitializing() */\n      jump\t// in\n        /* \"@openzeppelin/contracts-upgradeable/proxy/utils/UUPSUpgradeable.sol\":4603:4915  function _checkProxy() internal view virtual {... */\n    tag_128:\n        /* \"@openzeppelin/contracts-upgradeable/proxy/utils/UUPSUpgradeable.sol\":4683:4687  this */\n      address\n      sub(shl(0xa0, 0x01), 0x01)\n        /* \"@openzeppelin/contracts-upgradeable/proxy/utils/UUPSUpgradeable.sol\":4692:4698  __self */\n      immutable(\"0x0b83f23a4eeb8c3f5f7d5934a2289bcf0186d09a12e1b7f20adf54e4b179db15\")\n        /* \"@openzeppelin/contracts-upgradeable/proxy/utils/UUPSUpgradeable.sol\":4675:4698  address(this) == __self */\n      and\n      eq\n      dup1\n        /* \"@openzeppelin/contracts-upgradeable/proxy/utils/UUPSUpgradeable.sol\":4675:4795  address(this) == __self || // Must be called through delegatecall... */\n      tag_228\n      jumpi\n      pop\n        /* \"@openzeppelin/contracts-upgradeable/proxy/utils/UUPSUpgradeable.sol\":4789:4795  __self */\n      immutable(\"0x0b83f23a4eeb8c3f5f7d5934a2289bcf0186d09a12e1b7f20adf54e4b179db15\")\n      sub(shl(0xa0, 0x01), 0x01)\n        /* \"@openzeppelin/contracts-upgradeable/proxy/utils/UUPSUpgradeable.sol\":4753:4795  ERC1967Utils.getImplementation() != __self */\n      and\n        /* \"@openzeppelin/contracts-upgradeable/proxy/utils/UUPSUpgradeable.sol\":4753:4785  ERC1967Utils.getImplementation() */\n      tag_229\n      mload(0x00)\n      codecopy(0x00, data_75b20eef8615de99c108b05f0dbda081c91897128caa336d75dffb97c4132b4d, 0x20)\n      mload(0x00)\n      swap1\n      0x00\n      mstore\n        /* \"@openzeppelin/contracts/proxy/ERC1967/ERC1967Utils.sol\":1519:1572  StorageSlot.getAddressSlot(IMPLEMENTATION_SLOT).value */\n      sload\n      sub(shl(0xa0, 0x01), 0x01)\n      and\n      swap1\n        /* \"@openzeppelin/contracts/proxy/ERC1967/ERC1967Utils.sol\":1441:1579  function getImplementation() internal view returns (address) {... */\n      jump\n        /* \"@openzeppelin/contracts-upgradeable/proxy/utils/UUPSUpgradeable.sol\":4753:4785  ERC1967Utils.getImplementation() */\n    tag_229:\n      sub(shl(0xa0, 0x01), 0x01)\n        /* \"@openzeppelin/contracts-upgradeable/proxy/utils/UUPSUpgradeable.sol\":4753:4795  ERC1967Utils.getImplementation() != __self */\n      and\n      eq\n      iszero\n        /* \"@openzeppelin/contracts-upgradeable/proxy/utils/UUPSUpgradeable.sol\":4675:4795  address(this) == __self || // Must be called through delegatecall... */\n    tag_228:\n        /* \"@openzeppelin/contracts-upgradeable/proxy/utils/UUPSUpgradeable.sol\":4658:4909  if (... */\n      iszero\n      tag_142\n      jumpi\n        /* \"@openzeppelin/contracts-upgradeable/proxy/utils/UUPSUpgradeable.sol\":4869:4898  UUPSUnauthorizedCallContext() */\n      mload(0x40)\n      shl(0xe1, 0x703e46dd)\n      dup2\n      mstore\n      0x04\n      add\n      mload(0x40)\n      dup1\n      swap2\n      sub\n      swap1\n      revert\n        /* \"Contracts/VaultFactoryImplementation.sol\":4217:4301  function _authorizeUpgrade(address newImplementation) internal override onlyOwner {} */\n    tag_131:\n        /* \"@openzeppelin/contracts-upgradeable/access/OwnableUpgradeable.sol\":2334:2347  _checkOwner() */\n      tag_216\n        /* \"@openzeppelin/contracts-upgradeable/access/OwnableUpgradeable.sol\":2334:2345  _checkOwner */\n      tag_140\n        /* \"@openzeppelin/contracts-upgradeable/access/OwnableUpgradeable.sol\":2334:2347  _checkOwner() */\n      jump\t// in\n        /* \"@openzeppelin/contracts-upgradeable/proxy/utils/UUPSUpgradeable.sol\":6057:6595  function _upgradeToAndCallUUPS(address newImplementation, bytes memory data) private {... */\n    tag_133:\n        /* \"@openzeppelin/contracts-upgradeable/proxy/utils/UUPSUpgradeable.sol\":6174:6191  newImplementation */\n      dup2\n      sub(shl(0xa0, 0x01), 0x01)\n        /* \"@openzeppelin/contracts-upgradeable/proxy/utils/UUPSUpgradeable.sol\":6156:6206  IERC1822Proxiable(newImplementation).proxiableUUID */\n      and\n      0x52d1902d\n        /* \"@openzeppelin/contracts-upgradeable/proxy/utils/UUPSUpgradeable.sol\":6156:6208  IERC1822Proxiable(newImplementation).proxiableUUID() */\n      mload(0x40)\n      dup2\n      0xffffffff\n      and\n      0xe0\n      shl\n      dup2\n      mstore\n      0x04\n      add\n      0x20\n      mload(0x40)\n      dup1\n      dup4\n      sub\n      dup2\n      dup7\n      gas\n      staticcall\n      swap3\n      pop\n      pop\n      pop\n      dup1\n      iszero\n      tag_236\n      jumpi\n      pop\n      0x40\n      dup1\n      mload\n      0x1f\n      returndatasize\n      swap1\n      dup2\n      add\n      not(0x1f)\n      and\n      dup3\n      add\n      swap1\n      swap3\n      mstore\n      tag_237\n      swap2\n      dup2\n      add\n      swap1\n      tag_238\n      jump\t// in\n    tag_237:\n      0x01\n    tag_236:\n        /* \"@openzeppelin/contracts-upgradeable/proxy/utils/UUPSUpgradeable.sol\":6152:6589  try IERC1822Proxiable(newImplementation).proxiableUUID() returns (bytes32 slot) {... */\n      tag_239\n      jumpi\n        /* \"@openzeppelin/contracts-upgradeable/proxy/utils/UUPSUpgradeable.sol\":6518:6578  ERC1967Utils.ERC1967InvalidImplementation(newImplementation) */\n      mload(0x40)\n      shl(0xe0, 0x4c9c8ce3)\n      dup2\n      mstore\n      sub(shl(0xa0, 0x01), 0x01)\n        /* \"#utility.yul\":178:210   */\n      dup4\n      and\n        /* \"@openzeppelin/contracts-upgradeable/proxy/utils/UUPSUpgradeable.sol\":6518:6578  ERC1967Utils.ERC1967InvalidImplementation(newImplementation) */\n      0x04\n      dup3\n      add\n        /* \"#utility.yul\":160:211   */\n      mstore\n        /* \"#utility.yul\":133:151   */\n      0x24\n      add\n        /* \"@openzeppelin/contracts-upgradeable/proxy/utils/UUPSUpgradeable.sol\":6518:6578  ERC1967Utils.ERC1967InvalidImplementation(newImplementation) */\n      tag_121\n        /* \"#utility.yul\":14:217   */\n      jump\n        /* \"@openzeppelin/contracts-upgradeable/proxy/utils/UUPSUpgradeable.sol\":6152:6589  try IERC1822Proxiable(newImplementation).proxiableUUID() returns (bytes32 slot) {... */\n    tag_239:\n      mload(0x00)\n      codecopy(0x00, data_75b20eef8615de99c108b05f0dbda081c91897128caa336d75dffb97c4132b4d, 0x20)\n      mload(0x00)\n      swap1\n      0x00\n      mstore\n        /* \"@openzeppelin/contracts-upgradeable/proxy/utils/UUPSUpgradeable.sol\":6250:6290  slot != ERC1967Utils.IMPLEMENTATION_SLOT */\n      dup2\n      eq\n        /* \"@openzeppelin/contracts-upgradeable/proxy/utils/UUPSUpgradeable.sol\":6246:6366  if (slot != ERC1967Utils.IMPLEMENTATION_SLOT) {... */\n      tag_245\n      jumpi\n        /* \"@openzeppelin/contracts-upgradeable/proxy/utils/UUPSUpgradeable.sol\":6317:6351  UUPSUnsupportedProxiableUUID(slot) */\n      mload(0x40)\n      shl(0xe2, 0x2a875269)\n      dup2\n      mstore\n      0x04\n      dup2\n      add\n        /* \"#utility.yul\":1966:1991   */\n      dup3\n      swap1\n      mstore\n        /* \"#utility.yul\":1939:1957   */\n      0x24\n      add\n        /* \"@openzeppelin/contracts-upgradeable/proxy/utils/UUPSUpgradeable.sol\":6317:6351  UUPSUnsupportedProxiableUUID(slot) */\n      tag_121\n        /* \"#utility.yul\":1820:1997   */\n      jump\n        /* \"@openzeppelin/contracts-upgradeable/proxy/utils/UUPSUpgradeable.sol\":6246:6366  if (slot != ERC1967Utils.IMPLEMENTATION_SLOT) {... */\n    tag_245:\n        /* \"@openzeppelin/contracts-upgradeable/proxy/utils/UUPSUpgradeable.sol\":6379:6433  ERC1967Utils.upgradeToAndCall(newImplementation, data) */\n      tag_247\n        /* \"@openzeppelin/contracts-upgradeable/proxy/utils/UUPSUpgradeable.sol\":6409:6426  newImplementation */\n      dup4\n        /* \"@openzeppelin/contracts-upgradeable/proxy/utils/UUPSUpgradeable.sol\":6428:6432  data */\n      dup4\n        /* \"@openzeppelin/contracts-upgradeable/proxy/utils/UUPSUpgradeable.sol\":6379:6408  ERC1967Utils.upgradeToAndCall */\n      tag_248\n        /* \"@openzeppelin/contracts-upgradeable/proxy/utils/UUPSUpgradeable.sol\":6379:6433  ERC1967Utils.upgradeToAndCall(newImplementation, data) */\n      jump\t// in\n    tag_247:\n        /* \"@openzeppelin/contracts-upgradeable/proxy/utils/UUPSUpgradeable.sol\":6209:6444  returns (bytes32 slot) {... */\n      pop\n        /* \"@openzeppelin/contracts-upgradeable/proxy/utils/UUPSUpgradeable.sol\":6057:6595  function _upgradeToAndCallUUPS(address newImplementation, bytes memory data) private {... */\n      pop\n      pop\n      jump\t// out\n        /* \"@openzeppelin/contracts-upgradeable/proxy/utils/UUPSUpgradeable.sol\":5032:5245  function _checkNotDelegated() internal view virtual {... */\n    tag_136:\n        /* \"@openzeppelin/contracts-upgradeable/proxy/utils/UUPSUpgradeable.sol\":5106:5110  this */\n      address\n      sub(shl(0xa0, 0x01), 0x01)\n        /* \"@openzeppelin/contracts-upgradeable/proxy/utils/UUPSUpgradeable.sol\":5115:5121  __self */\n      immutable(\"0x0b83f23a4eeb8c3f5f7d5934a2289bcf0186d09a12e1b7f20adf54e4b179db15\")\n        /* \"@openzeppelin/contracts-upgradeable/proxy/utils/UUPSUpgradeable.sol\":5098:5121  address(this) != __self */\n      and\n      eq\n        /* \"@openzeppelin/contracts-upgradeable/proxy/utils/UUPSUpgradeable.sol\":5094:5239  if (address(this) != __self) {... */\n      tag_142\n      jumpi\n        /* \"@openzeppelin/contracts-upgradeable/proxy/utils/UUPSUpgradeable.sol\":5199:5228  UUPSUnauthorizedCallContext() */\n      mload(0x40)\n      shl(0xe1, 0x703e46dd)\n      dup2\n      mstore\n      0x04\n      add\n      mload(0x40)\n      dup1\n      swap2\n      sub\n      swap1\n      revert\n        /* \"@openzeppelin/contracts-upgradeable/access/OwnableUpgradeable.sol\":2658:2820  function _checkOwner() internal view virtual {... */\n    tag_140:\n        /* \"@openzeppelin/contracts-upgradeable/utils/ContextUpgradeable.sol\":966:976  msg.sender */\n      caller\n        /* \"@openzeppelin/contracts-upgradeable/access/OwnableUpgradeable.sol\":2717:2724  owner() */\n      tag_254\n        /* \"@openzeppelin/contracts-upgradeable/access/OwnableUpgradeable.sol\":1313:1335  OwnableStorageLocation */\n      0x9016d09d72d40fdae2fd8ceac6b6234c7706214fd39c1cd1e609a0528c199300\n        /* \"@openzeppelin/contracts-upgradeable/access/OwnableUpgradeable.sol\":2570:2578  $._owner */\n      sload\n      sub(shl(0xa0, 0x01), 0x01)\n      and\n      swap1\n        /* \"@openzeppelin/contracts-upgradeable/access/OwnableUpgradeable.sol\":2441:2585  function owner() public view virtual returns (address) {... */\n      jump\n        /* \"@openzeppelin/contracts-upgradeable/access/OwnableUpgradeable.sol\":2717:2724  owner() */\n    tag_254:\n      sub(shl(0xa0, 0x01), 0x01)\n        /* \"@openzeppelin/contracts-upgradeable/access/OwnableUpgradeable.sol\":2717:2740  owner() != _msgSender() */\n      and\n      eq\n        /* \"@openzeppelin/contracts-upgradeable/access/OwnableUpgradeable.sol\":2713:2814  if (owner() != _msgSender()) {... */\n      tag_142\n      jumpi\n        /* \"@openzeppelin/contracts-upgradeable/access/OwnableUpgradeable.sol\":2763:2803  OwnableUnauthorizedAccount(_msgSender()) */\n      mload(0x40)\n      shl(0xe0, 0x118cdaa7)\n      dup2\n      mstore\n        /* \"@openzeppelin/contracts-upgradeable/utils/ContextUpgradeable.sol\":966:976  msg.sender */\n      caller\n        /* \"@openzeppelin/contracts-upgradeable/access/OwnableUpgradeable.sol\":2763:2803  OwnableUnauthorizedAccount(_msgSender()) */\n      0x04\n      dup3\n      add\n        /* \"#utility.yul\":160:211   */\n      mstore\n        /* \"#utility.yul\":133:151   */\n      0x24\n      add\n        /* \"@openzeppelin/contracts-upgradeable/access/OwnableUpgradeable.sol\":2763:2803  OwnableUnauthorizedAccount(_msgSender()) */\n      tag_121\n        /* \"#utility.yul\":14:217   */\n      jump\n        /* \"@openzeppelin/contracts-upgradeable/access/OwnableUpgradeable.sol\":3774:4022  function _transferOwnership(address newOwner) internal virtual {... */\n    tag_143:\n        /* \"@openzeppelin/contracts-upgradeable/access/OwnableUpgradeable.sol\":1313:1335  OwnableStorageLocation */\n      0x9016d09d72d40fdae2fd8ceac6b6234c7706214fd39c1cd1e609a0528c199300\n        /* \"@openzeppelin/contracts-upgradeable/access/OwnableUpgradeable.sol\":3923:3931  $._owner */\n      dup1\n      sload\n      not(sub(shl(0xa0, 0x01), 0x01))\n        /* \"@openzeppelin/contracts-upgradeable/access/OwnableUpgradeable.sol\":3941:3960  $._owner = newOwner */\n      dup2\n      and\n      sub(shl(0xa0, 0x01), 0x01)\n      dup5\n      dup2\n      and\n      swap2\n      dup3\n      or\n      dup5\n      sstore\n        /* \"@openzeppelin/contracts-upgradeable/access/OwnableUpgradeable.sol\":3975:4015  OwnershipTransferred(oldOwner, newOwner) */\n      mload(0x40)\n        /* \"@openzeppelin/contracts-upgradeable/access/OwnableUpgradeable.sol\":3923:3931  $._owner */\n      swap3\n      and\n      swap2\n      dup3\n      swap1\n        /* \"@openzeppelin/contracts-upgradeable/access/OwnableUpgradeable.sol\":3975:4015  OwnershipTransferred(oldOwner, newOwner) */\n      0x8be0079c531659141344cd1fd0a4f28419497f9722a3daafe3b4186f6b6457e0\n      swap1\n        /* \"@openzeppelin/contracts-upgradeable/access/OwnableUpgradeable.sol\":3847:3871  OwnableStorage storage $ */\n      0x00\n      swap1\n        /* \"@openzeppelin/contracts-upgradeable/access/OwnableUpgradeable.sol\":3975:4015  OwnershipTransferred(oldOwner, newOwner) */\n      log3\n        /* \"@openzeppelin/contracts-upgradeable/access/OwnableUpgradeable.sol\":3837:4022  {... */\n      pop\n      pop\n        /* \"@openzeppelin/contracts-upgradeable/access/OwnableUpgradeable.sol\":3774:4022  function _transferOwnership(address newOwner) internal virtual {... */\n      pop\n      jump\t// out\n        /* \"@openzeppelin/contracts-upgradeable/proxy/utils/Initializable.sol\":7084:7225  function _checkInitializing() internal view virtual {... */\n    tag_220:\n        /* \"@openzeppelin/contracts-upgradeable/proxy/utils/Initializable.sol\":8870:8891  INITIALIZABLE_STORAGE */\n      0xf0c57e16840df040f15088dc2f81fe391c3923bec73e23a9662efc9c229c6a00\n        /* \"@openzeppelin/contracts-upgradeable/proxy/utils/Initializable.sol\":8560:8600  _getInitializableStorage()._initializing */\n      sload\n      shl(0x40, 0x01)\n      swap1\n      div\n      0xff\n      and\n        /* \"@openzeppelin/contracts-upgradeable/proxy/utils/Initializable.sol\":7146:7219  if (!_isInitializing()) {... */\n      tag_142\n      jumpi\n        /* \"@openzeppelin/contracts-upgradeable/proxy/utils/Initializable.sol\":7191:7208  NotInitializing() */\n      mload(0x40)\n      shl(0xe3, 0x1afcd79f)\n      dup2\n      mstore\n      0x04\n      add\n      mload(0x40)\n      dup1\n      swap2\n      sub\n      swap1\n      revert\n        /* \"@openzeppelin/contracts-upgradeable/access/OwnableUpgradeable.sol\":1980:2215  function __Ownable_init_unchained(address initialOwner) internal onlyInitializing {... */\n    tag_223:\n        /* \"@openzeppelin/contracts-upgradeable/proxy/utils/Initializable.sol\":6931:6951  _checkInitializing() */\n      tag_212\n        /* \"@openzeppelin/contracts-upgradeable/proxy/utils/Initializable.sol\":6931:6949  _checkInitializing */\n      tag_220\n        /* \"@openzeppelin/contracts-upgradeable/proxy/utils/Initializable.sol\":6931:6951  _checkInitializing() */\n      jump\t// in\n        /* \"@openzeppelin/contracts/proxy/ERC1967/ERC1967Utils.sol\":2264:2608  function upgradeToAndCall(address newImplementation, bytes memory data) internal {... */\n    tag_248:\n        /* \"@openzeppelin/contracts/proxy/ERC1967/ERC1967Utils.sol\":2355:2392  _setImplementation(newImplementation) */\n      tag_275\n        /* \"@openzeppelin/contracts/proxy/ERC1967/ERC1967Utils.sol\":2374:2391  newImplementation */\n      dup3\n        /* \"@openzeppelin/contracts/proxy/ERC1967/ERC1967Utils.sol\":2355:2373  _setImplementation */\n      tag_276\n        /* \"@openzeppelin/contracts/proxy/ERC1967/ERC1967Utils.sol\":2355:2392  _setImplementation(newImplementation) */\n      jump\t// in\n    tag_275:\n        /* \"@openzeppelin/contracts/proxy/ERC1967/ERC1967Utils.sol\":2407:2443  IERC1967.Upgraded(newImplementation) */\n      mload(0x40)\n      sub(shl(0xa0, 0x01), 0x01)\n      dup4\n      and\n      swap1\n      0xbc7cd75a20ee27fd9adebab32041f755214dbc6bffa90cc0225b39da2e5c2d3b\n      swap1\n      0x00\n      swap1\n      log2\n        /* \"@openzeppelin/contracts/proxy/ERC1967/ERC1967Utils.sol\":2458:2469  data.length */\n      dup1\n      mload\n        /* \"@openzeppelin/contracts/proxy/ERC1967/ERC1967Utils.sol\":2458:2473  data.length > 0 */\n      iszero\n        /* \"@openzeppelin/contracts/proxy/ERC1967/ERC1967Utils.sol\":2454:2602  if (data.length > 0) {... */\n      tag_277\n      jumpi\n        /* \"@openzeppelin/contracts/proxy/ERC1967/ERC1967Utils.sol\":2489:2542  Address.functionDelegateCall(newImplementation, data) */\n      tag_247\n        /* \"@openzeppelin/contracts/proxy/ERC1967/ERC1967Utils.sol\":2518:2535  newImplementation */\n      dup3\n        /* \"@openzeppelin/contracts/proxy/ERC1967/ERC1967Utils.sol\":2537:2541  data */\n      dup3\n        /* \"@openzeppelin/contracts/proxy/ERC1967/ERC1967Utils.sol\":2489:2517  Address.functionDelegateCall */\n      tag_279\n        /* \"@openzeppelin/contracts/proxy/ERC1967/ERC1967Utils.sol\":2489:2542  Address.functionDelegateCall(newImplementation, data) */\n      jump\t// in\n        /* \"@openzeppelin/contracts/proxy/ERC1967/ERC1967Utils.sol\":2454:2602  if (data.length > 0) {... */\n    tag_277:\n        /* \"@openzeppelin/contracts/proxy/ERC1967/ERC1967Utils.sol\":2573:2591  _checkNonPayable() */\n      tag_132\n        /* \"@openzeppelin/contracts/proxy/ERC1967/ERC1967Utils.sol\":2573:2589  _checkNonPayable */\n      tag_282\n        /* \"@openzeppelin/contracts/proxy/ERC1967/ERC1967Utils.sol\":2573:2591  _checkNonPayable() */\n      jump\t// in\n        /* \"@openzeppelin/contracts/proxy/ERC1967/ERC1967Utils.sol\":1671:1952  function _setImplementation(address newImplementation) private {... */\n    tag_276:\n        /* \"@openzeppelin/contracts/proxy/ERC1967/ERC1967Utils.sol\":1748:1765  newImplementation */\n      dup1\n      sub(shl(0xa0, 0x01), 0x01)\n        /* \"@openzeppelin/contracts/proxy/ERC1967/ERC1967Utils.sol\":1748:1777  newImplementation.code.length */\n      and\n      extcodesize\n        /* \"@openzeppelin/contracts/proxy/ERC1967/ERC1967Utils.sol\":1781:1782  0 */\n      0x00\n        /* \"@openzeppelin/contracts/proxy/ERC1967/ERC1967Utils.sol\":1748:1782  newImplementation.code.length == 0 */\n      sub\n        /* \"@openzeppelin/contracts/proxy/ERC1967/ERC1967Utils.sol\":1744:1863  if (newImplementation.code.length == 0) {... */\n      tag_288\n      jumpi\n        /* \"@openzeppelin/contracts/proxy/ERC1967/ERC1967Utils.sol\":1805:1852  ERC1967InvalidImplementation(newImplementation) */\n      mload(0x40)\n      shl(0xe0, 0x4c9c8ce3)\n      dup2\n      mstore\n      sub(shl(0xa0, 0x01), 0x01)\n        /* \"#utility.yul\":178:210   */\n      dup3\n      and\n        /* \"@openzeppelin/contracts/proxy/ERC1967/ERC1967Utils.sol\":1805:1852  ERC1967InvalidImplementation(newImplementation) */\n      0x04\n      dup3\n      add\n        /* \"#utility.yul\":160:211   */\n      mstore\n        /* \"#utility.yul\":133:151   */\n      0x24\n      add\n        /* \"@openzeppelin/contracts/proxy/ERC1967/ERC1967Utils.sol\":1805:1852  ERC1967InvalidImplementation(newImplementation) */\n      tag_121\n        /* \"#utility.yul\":14:217   */\n      jump\n        /* \"@openzeppelin/contracts/proxy/ERC1967/ERC1967Utils.sol\":1744:1863  if (newImplementation.code.length == 0) {... */\n    tag_288:\n      mload(0x00)\n      codecopy(0x00, data_75b20eef8615de99c108b05f0dbda081c91897128caa336d75dffb97c4132b4d, 0x20)\n      mload(0x00)\n      swap1\n      0x00\n      mstore\n        /* \"@openzeppelin/contracts/proxy/ERC1967/ERC1967Utils.sol\":1872:1945  StorageSlot.getAddressSlot(IMPLEMENTATION_SLOT).value = newImplementation */\n      dup1\n      sload\n      not(sub(shl(0xa0, 0x01), 0x01))\n      and\n      sub(shl(0xa0, 0x01), 0x01)\n      swap3\n      swap1\n      swap3\n      and\n      swap2\n      swap1\n      swap2\n      or\n      swap1\n      sstore\n        /* \"@openzeppelin/contracts/proxy/ERC1967/ERC1967Utils.sol\":1671:1952  function _setImplementation(address newImplementation) private {... */\n      jump\t// out\n        /* \"@openzeppelin/contracts/utils/Address.sol\":3900:4153  function functionDelegateCall(address target, bytes memory data) internal returns (bytes memory) {... */\n    tag_279:\n        /* \"@openzeppelin/contracts/utils/Address.sol\":3983:3995  bytes memory */\n      0x60\n        /* \"@openzeppelin/contracts/utils/Address.sol\":4008:4020  bool success */\n      0x00\n        /* \"@openzeppelin/contracts/utils/Address.sol\":4022:4045  bytes memory returndata */\n      0x00\n        /* \"@openzeppelin/contracts/utils/Address.sol\":4049:4055  target */\n      dup5\n      sub(shl(0xa0, 0x01), 0x01)\n        /* \"@openzeppelin/contracts/utils/Address.sol\":4049:4068  target.delegatecall */\n      and\n        /* \"@openzeppelin/contracts/utils/Address.sol\":4069:4073  data */\n      dup5\n        /* \"@openzeppelin/contracts/utils/Address.sol\":4049:4074  target.delegatecall(data) */\n      mload(0x40)\n      tag_292\n      swap2\n      swap1\n      tag_293\n      jump\t// in\n    tag_292:\n      0x00\n      mload(0x40)\n      dup1\n      dup4\n      sub\n      dup2\n      dup6\n      gas\n      delegatecall\n      swap2\n      pop\n      pop\n      returndatasize\n      dup1\n      0x00\n      dup2\n      eq\n      tag_296\n      jumpi\n      mload(0x40)\n      swap2\n      pop\n      and(add(returndatasize, 0x3f), not(0x1f))\n      dup3\n      add\n      0x40\n      mstore\n      returndatasize\n      dup3\n      mstore\n      returndatasize\n      0x00\n      0x20\n      dup5\n      add\n      returndatacopy\n      jump(tag_295)\n    tag_296:\n      0x60\n      swap2\n      pop\n    tag_295:\n      pop\n        /* \"@openzeppelin/contracts/utils/Address.sol\":4007:4074  (bool success, bytes memory returndata) = target.delegatecall(data) */\n      swap2\n      pop\n      swap2\n      pop\n        /* \"@openzeppelin/contracts/utils/Address.sol\":4091:4146  verifyCallResultFromTarget(target, success, returndata) */\n      tag_297\n        /* \"@openzeppelin/contracts/utils/Address.sol\":4118:4124  target */\n      dup6\n        /* \"@openzeppelin/contracts/utils/Address.sol\":4126:4133  success */\n      dup4\n        /* \"@openzeppelin/contracts/utils/Address.sol\":4135:4145  returndata */\n      dup4\n        /* \"@openzeppelin/contracts/utils/Address.sol\":4091:4117  verifyCallResultFromTarget */\n      tag_298\n        /* \"@openzeppelin/contracts/utils/Address.sol\":4091:4146  verifyCallResultFromTarget(target, success, returndata) */\n      jump\t// in\n    tag_297:\n        /* \"@openzeppelin/contracts/utils/Address.sol\":4084:4146  return verifyCallResultFromTarget(target, success, returndata) */\n      swap6\n        /* \"@openzeppelin/contracts/utils/Address.sol\":3900:4153  function functionDelegateCall(address target, bytes memory data) internal returns (bytes memory) {... */\n      swap5\n      pop\n      pop\n      pop\n      pop\n      pop\n      jump\t// out\n        /* \"@openzeppelin/contracts/proxy/ERC1967/ERC1967Utils.sol\":6113:6235  function _checkNonPayable() private {... */\n    tag_282:\n        /* \"@openzeppelin/contracts/proxy/ERC1967/ERC1967Utils.sol\":6163:6172  msg.value */\n      callvalue\n        /* \"@openzeppelin/contracts/proxy/ERC1967/ERC1967Utils.sol\":6163:6176  msg.value > 0 */\n      iszero\n        /* \"@openzeppelin/contracts/proxy/ERC1967/ERC1967Utils.sol\":6159:6229  if (msg.value > 0) {... */\n      tag_142\n      jumpi\n        /* \"@openzeppelin/contracts/proxy/ERC1967/ERC1967Utils.sol\":6199:6218  ERC1967NonPayable() */\n      mload(0x40)\n      shl(0xe0, 0xb398979f)\n      dup2\n      mstore\n      0x04\n      add\n      mload(0x40)\n      dup1\n      swap2\n      sub\n      swap1\n      revert\n        /* \"@openzeppelin/contracts/utils/Address.sol\":4421:5003  function verifyCallResultFromTarget(... */\n    tag_298:\n        /* \"@openzeppelin/contracts/utils/Address.sol\":4565:4577  bytes memory */\n      0x60\n        /* \"@openzeppelin/contracts/utils/Address.sol\":4594:4601  success */\n      dup3\n        /* \"@openzeppelin/contracts/utils/Address.sol\":4589:4997  if (!success) {... */\n      tag_302\n      jumpi\n        /* \"@openzeppelin/contracts/utils/Address.sol\":4617:4636  _revert(returndata) */\n      tag_303\n        /* \"@openzeppelin/contracts/utils/Address.sol\":4625:4635  returndata */\n      dup3\n        /* \"@openzeppelin/contracts/utils/Address.sol\":4617:4624  _revert */\n      tag_304\n        /* \"@openzeppelin/contracts/utils/Address.sol\":4617:4636  _revert(returndata) */\n      jump\t// in\n    tag_303:\n        /* \"@openzeppelin/contracts/utils/Address.sol\":4589:4997  if (!success) {... */\n      jump(tag_305)\n    tag_302:\n        /* \"@openzeppelin/contracts/utils/Address.sol\":4841:4858  returndata.length */\n      dup2\n      mload\n        /* \"@openzeppelin/contracts/utils/Address.sol\":4841:4863  returndata.length == 0 */\n      iszero\n        /* \"@openzeppelin/contracts/utils/Address.sol\":4841:4890  returndata.length == 0 && target.code.length == 0 */\n      dup1\n      iszero\n      tag_306\n      jumpi\n      pop\n      sub(shl(0xa0, 0x01), 0x01)\n        /* \"@openzeppelin/contracts/utils/Address.sol\":4867:4885  target.code.length */\n      dup5\n      and\n      extcodesize\n        /* \"@openzeppelin/contracts/utils/Address.sol\":4867:4890  target.code.length == 0 */\n      iszero\n        /* \"@openzeppelin/contracts/utils/Address.sol\":4841:4890  returndata.length == 0 && target.code.length == 0 */\n    tag_306:\n        /* \"@openzeppelin/contracts/utils/Address.sol\":4837:4956  if (returndata.length == 0 && target.code.length == 0) {... */\n      iszero\n      tag_307\n      jumpi\n        /* \"@openzeppelin/contracts/utils/Address.sol\":4917:4941  AddressEmptyCode(target) */\n      mload(0x40)\n      shl(0xe0, 0x9996b315)\n      dup2\n      mstore\n      sub(shl(0xa0, 0x01), 0x01)\n        /* \"#utility.yul\":178:210   */\n      dup6\n      and\n        /* \"@openzeppelin/contracts/utils/Address.sol\":4917:4941  AddressEmptyCode(target) */\n      0x04\n      dup3\n      add\n        /* \"#utility.yul\":160:211   */\n      mstore\n        /* \"#utility.yul\":133:151   */\n      0x24\n      add\n        /* \"@openzeppelin/contracts/utils/Address.sol\":4917:4941  AddressEmptyCode(target) */\n      tag_121\n        /* \"#utility.yul\":14:217   */\n      jump\n        /* \"@openzeppelin/contracts/utils/Address.sol\":4837:4956  if (returndata.length == 0 && target.code.length == 0) {... */\n    tag_307:\n      pop\n        /* \"@openzeppelin/contracts/utils/Address.sol\":4976:4986  returndata */\n      dup1\n        /* \"@openzeppelin/contracts/utils/Address.sol\":4589:4997  if (!success) {... */\n    tag_305:\n        /* \"@openzeppelin/contracts/utils/Address.sol\":4421:5003  function verifyCallResultFromTarget(... */\n      swap4\n      swap3\n      pop\n      pop\n      pop\n      jump\t// out\n        /* \"@openzeppelin/contracts/utils/Address.sol\":5543:6030  function _revert(bytes memory returndata) private pure {... */\n    tag_304:\n        /* \"@openzeppelin/contracts/utils/Address.sol\":5674:5691  returndata.length */\n      dup1\n      mload\n        /* \"@openzeppelin/contracts/utils/Address.sol\":5674:5695  returndata.length > 0 */\n      iszero\n        /* \"@openzeppelin/contracts/utils/Address.sol\":5670:6024  if (returndata.length > 0) {... */\n      tag_310\n      jumpi\n        /* \"@openzeppelin/contracts/utils/Address.sol\":5871:5881  returndata */\n      dup1\n        /* \"@openzeppelin/contracts/utils/Address.sol\":5865:5882  mload(returndata) */\n      mload\n        /* \"@openzeppelin/contracts/utils/Address.sol\":5927:5942  returndata_size */\n      dup1\n        /* \"@openzeppelin/contracts/utils/Address.sol\":5914:5924  returndata */\n      dup3\n        /* \"@openzeppelin/contracts/utils/Address.sol\":5910:5912  32 */\n      0x20\n        /* \"@openzeppelin/contracts/utils/Address.sol\":5906:5925  add(32, returndata) */\n      add\n        /* \"@openzeppelin/contracts/utils/Address.sol\":5899:5943  revert(add(32, returndata), returndata_size) */\n      revert\n        /* \"@openzeppelin/contracts/utils/Address.sol\":5670:6024  if (returndata.length > 0) {... */\n    tag_310:\n        /* \"@openzeppelin/contracts/utils/Address.sol\":5994:6013  Errors.FailedCall() */\n      mload(0x40)\n      shl(0xe0, 0xd6bda275)\n      dup2\n      mstore\n      0x04\n      add\n      mload(0x40)\n      dup1\n      swap2\n      sub\n      swap1\n      revert\n    tag_200:\n      dataSize(sub_0)\n      dup1\n      dataOffset(sub_0)\n      dup4\n      codecopy\n      add\n      swap1\n      jump\t// out\n        /* \"#utility.yul\":222:395   */\n    tag_312:\n        /* \"#utility.yul\":290:310   */\n      dup1\n      calldataload\n      sub(shl(0xa0, 0x01), 0x01)\n        /* \"#utility.yul\":339:370   */\n      dup2\n      and\n        /* \"#utility.yul\":329:371   */\n      dup2\n      eq\n        /* \"#utility.yul\":319:389   */\n      tag_321\n      jumpi\n        /* \"#utility.yul\":385:386   */\n      0x00\n        /* \"#utility.yul\":382:383   */\n      0x00\n        /* \"#utility.yul\":375:387   */\n      revert\n        /* \"#utility.yul\":319:389   */\n    tag_321:\n        /* \"#utility.yul\":222:395   */\n      swap2\n      swap1\n      pop\n      jump\t// out\n        /* \"#utility.yul\":400:660   */\n    tag_31:\n        /* \"#utility.yul\":468:474   */\n      0x00\n        /* \"#utility.yul\":476:482   */\n      0x00\n        /* \"#utility.yul\":529:531   */\n      0x40\n        /* \"#utility.yul\":517:526   */\n      dup4\n        /* \"#utility.yul\":508:515   */\n      dup6\n        /* \"#utility.yul\":504:527   */\n      sub\n        /* \"#utility.yul\":500:532   */\n      slt\n        /* \"#utility.yul\":497:549   */\n      iszero\n      tag_323\n      jumpi\n        /* \"#utility.yul\":545:546   */\n      0x00\n        /* \"#utility.yul\":542:543   */\n      0x00\n        /* \"#utility.yul\":535:547   */\n      revert\n        /* \"#utility.yul\":497:549   */\n    tag_323:\n        /* \"#utility.yul\":568:597   */\n      tag_324\n        /* \"#utility.yul\":587:596   */\n      dup4\n        /* \"#utility.yul\":568:597   */\n      tag_312\n      jump\t// in\n    tag_324:\n        /* \"#utility.yul\":558:597   */\n      swap2\n      pop\n        /* \"#utility.yul\":616:654   */\n      tag_325\n        /* \"#utility.yul\":650:652   */\n      0x20\n        /* \"#utility.yul\":639:648   */\n      dup5\n        /* \"#utility.yul\":635:653   */\n      add\n        /* \"#utility.yul\":616:654   */\n      tag_312\n      jump\t// in\n    tag_325:\n        /* \"#utility.yul\":606:654   */\n      swap1\n      pop\n        /* \"#utility.yul\":400:660   */\n      swap3\n      pop\n      swap3\n      swap1\n      pop\n      jump\t// out\n        /* \"#utility.yul\":665:792   */\n    tag_313:\n        /* \"#utility.yul\":726:736   */\n      0x4e487b71\n        /* \"#utility.yul\":721:724   */\n      0xe0\n        /* \"#utility.yul\":717:737   */\n      shl\n        /* \"#utility.yul\":714:715   */\n      0x00\n        /* \"#utility.yul\":707:738   */\n      mstore\n        /* \"#utility.yul\":757:761   */\n      0x41\n        /* \"#utility.yul\":754:755   */\n      0x04\n        /* \"#utility.yul\":747:762   */\n      mstore\n        /* \"#utility.yul\":781:785   */\n      0x24\n        /* \"#utility.yul\":778:779   */\n      0x00\n        /* \"#utility.yul\":771:786   */\n      revert\n        /* \"#utility.yul\":797:1815   */\n    tag_39:\n        /* \"#utility.yul\":874:880   */\n      0x00\n        /* \"#utility.yul\":882:888   */\n      0x00\n        /* \"#utility.yul\":935:937   */\n      0x40\n        /* \"#utility.yul\":923:932   */\n      dup4\n        /* \"#utility.yul\":914:921   */\n      dup6\n        /* \"#utility.yul\":910:933   */\n      sub\n        /* \"#utility.yul\":906:938   */\n      slt\n        /* \"#utility.yul\":903:955   */\n      iszero\n      tag_328\n      jumpi\n        /* \"#utility.yul\":951:952   */\n      0x00\n        /* \"#utility.yul\":948:949   */\n      0x00\n        /* \"#utility.yul\":941:953   */\n      revert\n        /* \"#utility.yul\":903:955   */\n    tag_328:\n        /* \"#utility.yul\":974:1003   */\n      tag_329\n        /* \"#utility.yul\":993:1002   */\n      dup4\n        /* \"#utility.yul\":974:1003   */\n      tag_312\n      jump\t// in\n    tag_329:\n        /* \"#utility.yul\":964:1003   */\n      swap2\n      pop\n        /* \"#utility.yul\":1054:1056   */\n      0x20\n        /* \"#utility.yul\":1043:1052   */\n      dup4\n        /* \"#utility.yul\":1039:1057   */\n      add\n        /* \"#utility.yul\":1026:1058   */\n      calldataload\n        /* \"#utility.yul\":1081:1099   */\n      0xffffffffffffffff\n        /* \"#utility.yul\":1073:1079   */\n      dup2\n        /* \"#utility.yul\":1070:1100   */\n      gt\n        /* \"#utility.yul\":1067:1117   */\n      iszero\n      tag_330\n      jumpi\n        /* \"#utility.yul\":1113:1114   */\n      0x00\n        /* \"#utility.yul\":1110:1111   */\n      0x00\n        /* \"#utility.yul\":1103:1115   */\n      revert\n        /* \"#utility.yul\":1067:1117   */\n    tag_330:\n        /* \"#utility.yul\":1136:1158   */\n      dup4\n      add\n        /* \"#utility.yul\":1189:1193   */\n      0x1f\n        /* \"#utility.yul\":1181:1194   */\n      dup2\n      add\n        /* \"#utility.yul\":1177:1204   */\n      dup6\n      sgt\n        /* \"#utility.yul\":1167:1222   */\n      tag_331\n      jumpi\n        /* \"#utility.yul\":1218:1219   */\n      0x00\n        /* \"#utility.yul\":1215:1216   */\n      0x00\n        /* \"#utility.yul\":1208:1220   */\n      revert\n        /* \"#utility.yul\":1167:1222   */\n    tag_331:\n        /* \"#utility.yul\":1258:1260   */\n      dup1\n        /* \"#utility.yul\":1245:1261   */\n      calldataload\n        /* \"#utility.yul\":1284:1302   */\n      0xffffffffffffffff\n        /* \"#utility.yul\":1276:1282   */\n      dup2\n        /* \"#utility.yul\":1273:1303   */\n      gt\n        /* \"#utility.yul\":1270:1326   */\n      iszero\n      tag_333\n      jumpi\n        /* \"#utility.yul\":1306:1324   */\n      tag_333\n      tag_313\n      jump\t// in\n    tag_333:\n        /* \"#utility.yul\":1355:1357   */\n      0x40\n        /* \"#utility.yul\":1349:1358   */\n      mload\n        /* \"#utility.yul\":1447:1449   */\n      0x1f\n        /* \"#utility.yul\":1409:1426   */\n      dup3\n      add\n      not(0x1f)\n        /* \"#utility.yul\":1405:1436   */\n      swap1\n      dup2\n      and\n        /* \"#utility.yul\":1438:1440   */\n      0x3f\n        /* \"#utility.yul\":1401:1441   */\n      add\n        /* \"#utility.yul\":1397:1451   */\n      and\n        /* \"#utility.yul\":1385:1452   */\n      dup2\n      add\n        /* \"#utility.yul\":1482:1500   */\n      0xffffffffffffffff\n        /* \"#utility.yul\":1467:1501   */\n      dup2\n      gt\n        /* \"#utility.yul\":1503:1525   */\n      dup3\n      dup3\n      lt\n        /* \"#utility.yul\":1464:1526   */\n      or\n        /* \"#utility.yul\":1461:1549   */\n      iszero\n      tag_335\n      jumpi\n        /* \"#utility.yul\":1529:1547   */\n      tag_335\n      tag_313\n      jump\t// in\n    tag_335:\n        /* \"#utility.yul\":1565:1567   */\n      0x40\n        /* \"#utility.yul\":1558:1580   */\n      mstore\n        /* \"#utility.yul\":1589:1611   */\n      dup2\n      dup2\n      mstore\n        /* \"#utility.yul\":1630:1645   */\n      dup3\n      dup3\n      add\n        /* \"#utility.yul\":1647:1649   */\n      0x20\n        /* \"#utility.yul\":1626:1650   */\n      add\n        /* \"#utility.yul\":1623:1660   */\n      dup8\n      lt\n        /* \"#utility.yul\":1620:1677   */\n      iszero\n      tag_336\n      jumpi\n        /* \"#utility.yul\":1673:1674   */\n      0x00\n        /* \"#utility.yul\":1670:1671   */\n      0x00\n        /* \"#utility.yul\":1663:1675   */\n      revert\n        /* \"#utility.yul\":1620:1677   */\n    tag_336:\n        /* \"#utility.yul\":1729:1735   */\n      dup2\n        /* \"#utility.yul\":1724:1726   */\n      0x20\n        /* \"#utility.yul\":1720:1722   */\n      dup5\n        /* \"#utility.yul\":1716:1727   */\n      add\n        /* \"#utility.yul\":1711:1713   */\n      0x20\n        /* \"#utility.yul\":1703:1709   */\n      dup4\n        /* \"#utility.yul\":1699:1714   */\n      add\n        /* \"#utility.yul\":1686:1736   */\n      calldatacopy\n        /* \"#utility.yul\":1782:1783   */\n      0x00\n        /* \"#utility.yul\":1777:1779   */\n      0x20\n        /* \"#utility.yul\":1768:1774   */\n      dup4\n        /* \"#utility.yul\":1760:1766   */\n      dup4\n        /* \"#utility.yul\":1756:1775   */\n      add\n        /* \"#utility.yul\":1752:1780   */\n      add\n        /* \"#utility.yul\":1745:1784   */\n      mstore\n        /* \"#utility.yul\":1803:1809   */\n      dup1\n        /* \"#utility.yul\":1793:1809   */\n      swap4\n      pop\n      pop\n      pop\n      pop\n        /* \"#utility.yul\":797:1815   */\n      swap3\n      pop\n      swap3\n      swap1\n      pop\n      jump\t// out\n        /* \"#utility.yul\":2002:2182   */\n    tag_60:\n        /* \"#utility.yul\":2061:2067   */\n      0x00\n        /* \"#utility.yul\":2114:2116   */\n      0x20\n        /* \"#utility.yul\":2102:2111   */\n      dup3\n        /* \"#utility.yul\":2093:2100   */\n      dup5\n        /* \"#utility.yul\":2089:2112   */\n      sub\n        /* \"#utility.yul\":2085:2117   */\n      slt\n        /* \"#utility.yul\":2082:2134   */\n      iszero\n      tag_339\n      jumpi\n        /* \"#utility.yul\":2130:2131   */\n      0x00\n        /* \"#utility.yul\":2127:2128   */\n      0x00\n        /* \"#utility.yul\":2120:2132   */\n      revert\n        /* \"#utility.yul\":2082:2134   */\n    tag_339:\n      pop\n        /* \"#utility.yul\":2153:2176   */\n      calldataload\n      swap2\n        /* \"#utility.yul\":2002:2182   */\n      swap1\n      pop\n      jump\t// out\n        /* \"#utility.yul\":2187:2824   */\n    tag_72:\n        /* \"#utility.yul\":2377:2379   */\n      0x20\n        /* \"#utility.yul\":2389:2410   */\n      dup1\n      dup3\n      mstore\n        /* \"#utility.yul\":2459:2472   */\n      dup3\n      mload\n        /* \"#utility.yul\":2362:2380   */\n      dup3\n      dup3\n      add\n        /* \"#utility.yul\":2481:2503   */\n      dup2\n      swap1\n      mstore\n        /* \"#utility.yul\":2329:2333   */\n      0x00\n      swap2\n        /* \"#utility.yul\":2560:2575   */\n      dup5\n      add\n      swap1\n        /* \"#utility.yul\":2534:2536   */\n      0x40\n        /* \"#utility.yul\":2519:2537   */\n      dup5\n      add\n      swap1\n        /* \"#utility.yul\":2329:2333   */\n      dup4\n        /* \"#utility.yul\":2603:2798   */\n    tag_341:\n        /* \"#utility.yul\":2617:2623   */\n      dup2\n        /* \"#utility.yul\":2614:2615   */\n      dup2\n        /* \"#utility.yul\":2611:2624   */\n      lt\n        /* \"#utility.yul\":2603:2798   */\n      iszero\n      tag_343\n      jumpi\n        /* \"#utility.yul\":2682:2695   */\n      dup4\n      mload\n      sub(shl(0xa0, 0x01), 0x01)\n        /* \"#utility.yul\":2678:2717   */\n      and\n        /* \"#utility.yul\":2666:2718   */\n      dup4\n      mstore\n        /* \"#utility.yul\":2747:2749   */\n      0x20\n        /* \"#utility.yul\":2773:2788   */\n      swap4\n      dup5\n      add\n      swap4\n        /* \"#utility.yul\":2738:2750   */\n      swap1\n      swap3\n      add\n      swap2\n        /* \"#utility.yul\":2714:2715   */\n      0x01\n        /* \"#utility.yul\":2632:2641   */\n      add\n        /* \"#utility.yul\":2603:2798   */\n      jump(tag_341)\n    tag_343:\n      pop\n        /* \"#utility.yul\":2815:2818   */\n      swap1\n      swap6\n        /* \"#utility.yul\":2187:2824   */\n      swap5\n      pop\n      pop\n      pop\n      pop\n      pop\n      jump\t// out\n        /* \"#utility.yul\":3011:3345   */\n    tag_81:\n        /* \"#utility.yul\":3088:3094   */\n      0x00\n        /* \"#utility.yul\":3096:3102   */\n      0x00\n        /* \"#utility.yul\":3104:3110   */\n      0x00\n        /* \"#utility.yul\":3157:3159   */\n      0x60\n        /* \"#utility.yul\":3145:3154   */\n      dup5\n        /* \"#utility.yul\":3136:3143   */\n      dup7\n        /* \"#utility.yul\":3132:3155   */\n      sub\n        /* \"#utility.yul\":3128:3160   */\n      slt\n        /* \"#utility.yul\":3125:3177   */\n      iszero\n      tag_346\n      jumpi\n        /* \"#utility.yul\":3173:3174   */\n      0x00\n        /* \"#utility.yul\":3170:3171   */\n      0x00\n        /* \"#utility.yul\":3163:3175   */\n      revert\n        /* \"#utility.yul\":3125:3177   */\n    tag_346:\n        /* \"#utility.yul\":3196:3225   */\n      tag_347\n        /* \"#utility.yul\":3215:3224   */\n      dup5\n        /* \"#utility.yul\":3196:3225   */\n      tag_312\n      jump\t// in\n    tag_347:\n        /* \"#utility.yul\":3186:3225   */\n      swap3\n      pop\n        /* \"#utility.yul\":3244:3282   */\n      tag_348\n        /* \"#utility.yul\":3278:3280   */\n      0x20\n        /* \"#utility.yul\":3267:3276   */\n      dup6\n        /* \"#utility.yul\":3263:3281   */\n      add\n        /* \"#utility.yul\":3244:3282   */\n      tag_312\n      jump\t// in\n    tag_348:\n        /* \"#utility.yul\":3234:3282   */\n      swap2\n      pop\n        /* \"#utility.yul\":3301:3339   */\n      tag_349\n        /* \"#utility.yul\":3335:3337   */\n      0x40\n        /* \"#utility.yul\":3324:3333   */\n      dup6\n        /* \"#utility.yul\":3320:3338   */\n      add\n        /* \"#utility.yul\":3301:3339   */\n      tag_312\n      jump\t// in\n    tag_349:\n        /* \"#utility.yul\":3291:3339   */\n      swap1\n      pop\n        /* \"#utility.yul\":3011:3345   */\n      swap3\n      pop\n      swap3\n      pop\n      swap3\n      jump\t// out\n        /* \"#utility.yul\":3350:3600   */\n    tag_314:\n        /* \"#utility.yul\":3435:3436   */\n      0x00\n        /* \"#utility.yul\":3445:3558   */\n    tag_351:\n        /* \"#utility.yul\":3459:3465   */\n      dup4\n        /* \"#utility.yul\":3456:3457   */\n      dup2\n        /* \"#utility.yul\":3453:3466   */\n      lt\n        /* \"#utility.yul\":3445:3558   */\n      iszero\n      tag_353\n      jumpi\n        /* \"#utility.yul\":3535:3546   */\n      dup2\n      dup2\n      add\n        /* \"#utility.yul\":3529:3547   */\n      mload\n        /* \"#utility.yul\":3516:3527   */\n      dup4\n      dup3\n      add\n        /* \"#utility.yul\":3509:3548   */\n      mstore\n        /* \"#utility.yul\":3481:3483   */\n      0x20\n        /* \"#utility.yul\":3474:3484   */\n      add\n        /* \"#utility.yul\":3445:3558   */\n      jump(tag_351)\n    tag_353:\n      pop\n      pop\n        /* \"#utility.yul\":3592:3593   */\n      0x00\n        /* \"#utility.yul\":3574:3590   */\n      swap2\n      add\n        /* \"#utility.yul\":3567:3594   */\n      mstore\n        /* \"#utility.yul\":3350:3600   */\n      jump\t// out\n        /* \"#utility.yul\":3605:3876   */\n    tag_315:\n        /* \"#utility.yul\":3647:3650   */\n      0x00\n        /* \"#utility.yul\":3685:3690   */\n      dup2\n        /* \"#utility.yul\":3679:3691   */\n      mload\n        /* \"#utility.yul\":3712:3718   */\n      dup1\n        /* \"#utility.yul\":3707:3710   */\n      dup5\n        /* \"#utility.yul\":3700:3719   */\n      mstore\n        /* \"#utility.yul\":3728:3804   */\n      tag_355\n        /* \"#utility.yul\":3797:3803   */\n      dup2\n        /* \"#utility.yul\":3790:3794   */\n      0x20\n        /* \"#utility.yul\":3785:3788   */\n      dup7\n        /* \"#utility.yul\":3781:3795   */\n      add\n        /* \"#utility.yul\":3774:3778   */\n      0x20\n        /* \"#utility.yul\":3767:3772   */\n      dup7\n        /* \"#utility.yul\":3763:3779   */\n      add\n        /* \"#utility.yul\":3728:3804   */\n      tag_314\n      jump\t// in\n    tag_355:\n        /* \"#utility.yul\":3858:3860   */\n      0x1f\n        /* \"#utility.yul\":3837:3852   */\n      add\n      not(0x1f)\n        /* \"#utility.yul\":3833:3862   */\n      and\n        /* \"#utility.yul\":3824:3863   */\n      swap3\n      swap1\n      swap3\n      add\n        /* \"#utility.yul\":3865:3869   */\n      0x20\n        /* \"#utility.yul\":3820:3870   */\n      add\n      swap3\n        /* \"#utility.yul\":3605:3876   */\n      swap2\n      pop\n      pop\n      jump\t// out\n        /* \"#utility.yul\":3881:4101   */\n    tag_87:\n        /* \"#utility.yul\":4030:4032   */\n      0x20\n        /* \"#utility.yul\":4019:4028   */\n      dup2\n        /* \"#utility.yul\":4012:4033   */\n      mstore\n        /* \"#utility.yul\":3993:3997   */\n      0x00\n        /* \"#utility.yul\":4050:4095   */\n      tag_305\n        /* \"#utility.yul\":4091:4093   */\n      0x20\n        /* \"#utility.yul\":4080:4089   */\n      dup4\n        /* \"#utility.yul\":4076:4094   */\n      add\n        /* \"#utility.yul\":4068:4074   */\n      dup5\n        /* \"#utility.yul\":4050:4095   */\n      tag_315\n      jump\t// in\n        /* \"#utility.yul\":4106:4454   */\n    tag_316:\n        /* \"#utility.yul\":4158:4166   */\n      0x00\n        /* \"#utility.yul\":4168:4174   */\n      0x00\n        /* \"#utility.yul\":4222:4225   */\n      dup4\n        /* \"#utility.yul\":4215:4219   */\n      0x1f\n        /* \"#utility.yul\":4207:4213   */\n      dup5\n        /* \"#utility.yul\":4203:4220   */\n      add\n        /* \"#utility.yul\":4199:4226   */\n      slt\n        /* \"#utility.yul\":4189:4244   */\n      tag_359\n      jumpi\n        /* \"#utility.yul\":4240:4241   */\n      0x00\n        /* \"#utility.yul\":4237:4238   */\n      0x00\n        /* \"#utility.yul\":4230:4242   */\n      revert\n        /* \"#utility.yul\":4189:4244   */\n    tag_359:\n      pop\n        /* \"#utility.yul\":4263:4283   */\n      dup2\n      calldataload\n        /* \"#utility.yul\":4306:4324   */\n      0xffffffffffffffff\n        /* \"#utility.yul\":4295:4325   */\n      dup2\n      gt\n        /* \"#utility.yul\":4292:4342   */\n      iszero\n      tag_360\n      jumpi\n        /* \"#utility.yul\":4338:4339   */\n      0x00\n        /* \"#utility.yul\":4335:4336   */\n      0x00\n        /* \"#utility.yul\":4328:4340   */\n      revert\n        /* \"#utility.yul\":4292:4342   */\n    tag_360:\n        /* \"#utility.yul\":4375:4379   */\n      0x20\n        /* \"#utility.yul\":4367:4373   */\n      dup4\n        /* \"#utility.yul\":4363:4380   */\n      add\n        /* \"#utility.yul\":4351:4380   */\n      swap2\n      pop\n        /* \"#utility.yul\":4427:4430   */\n      dup4\n        /* \"#utility.yul\":4420:4424   */\n      0x20\n        /* \"#utility.yul\":4411:4417   */\n      dup3\n        /* \"#utility.yul\":4403:4409   */\n      dup6\n        /* \"#utility.yul\":4399:4418   */\n      add\n        /* \"#utility.yul\":4395:4425   */\n      add\n        /* \"#utility.yul\":4392:4431   */\n      gt\n        /* \"#utility.yul\":4389:4448   */\n      iszero\n      tag_361\n      jumpi\n        /* \"#utility.yul\":4444:4445   */\n      0x00\n        /* \"#utility.yul\":4441:4442   */\n      0x00\n        /* \"#utility.yul\":4434:4446   */\n      revert\n        /* \"#utility.yul\":4389:4448   */\n    tag_361:\n        /* \"#utility.yul\":4106:4454   */\n      swap3\n      pop\n      swap3\n      swap1\n      pop\n      jump\t// out\n        /* \"#utility.yul\":4459:5549   */\n    tag_95:\n        /* \"#utility.yul\":4596:4602   */\n      0x00\n        /* \"#utility.yul\":4604:4610   */\n      0x00\n        /* \"#utility.yul\":4612:4618   */\n      0x00\n        /* \"#utility.yul\":4620:4626   */\n      0x00\n        /* \"#utility.yul\":4628:4634   */\n      0x00\n        /* \"#utility.yul\":4636:4642   */\n      0x00\n        /* \"#utility.yul\":4644:4650   */\n      0x00\n        /* \"#utility.yul\":4652:4658   */\n      0x00\n        /* \"#utility.yul\":4660:4666   */\n      0x00\n        /* \"#utility.yul\":4713:4716   */\n      0xe0\n        /* \"#utility.yul\":4701:4710   */\n      dup11\n        /* \"#utility.yul\":4692:4699   */\n      dup13\n        /* \"#utility.yul\":4688:4711   */\n      sub\n        /* \"#utility.yul\":4684:4717   */\n      slt\n        /* \"#utility.yul\":4681:4734   */\n      iszero\n      tag_363\n      jumpi\n        /* \"#utility.yul\":4730:4731   */\n      0x00\n        /* \"#utility.yul\":4727:4728   */\n      0x00\n        /* \"#utility.yul\":4720:4732   */\n      revert\n        /* \"#utility.yul\":4681:4734   */\n    tag_363:\n        /* \"#utility.yul\":4753:4782   */\n      tag_364\n        /* \"#utility.yul\":4772:4781   */\n      dup11\n        /* \"#utility.yul\":4753:4782   */\n      tag_312\n      jump\t// in\n    tag_364:\n        /* \"#utility.yul\":4743:4782   */\n      swap9\n      pop\n        /* \"#utility.yul\":4801:4839   */\n      tag_365\n        /* \"#utility.yul\":4835:4837   */\n      0x20\n        /* \"#utility.yul\":4824:4833   */\n      dup12\n        /* \"#utility.yul\":4820:4838   */\n      add\n        /* \"#utility.yul\":4801:4839   */\n      tag_312\n      jump\t// in\n    tag_365:\n        /* \"#utility.yul\":4791:4839   */\n      swap8\n      pop\n        /* \"#utility.yul\":4858:4896   */\n      tag_366\n        /* \"#utility.yul\":4892:4894   */\n      0x40\n        /* \"#utility.yul\":4881:4890   */\n      dup12\n        /* \"#utility.yul\":4877:4895   */\n      add\n        /* \"#utility.yul\":4858:4896   */\n      tag_312\n      jump\t// in\n    tag_366:\n        /* \"#utility.yul\":4848:4896   */\n      swap7\n      pop\n        /* \"#utility.yul\":4915:4953   */\n      tag_367\n        /* \"#utility.yul\":4949:4951   */\n      0x60\n        /* \"#utility.yul\":4938:4947   */\n      dup12\n        /* \"#utility.yul\":4934:4952   */\n      add\n        /* \"#utility.yul\":4915:4953   */\n      tag_312\n      jump\t// in\n    tag_367:\n        /* \"#utility.yul\":4905:4953   */\n      swap6\n      pop\n        /* \"#utility.yul\":4972:5011   */\n      tag_368\n        /* \"#utility.yul\":5006:5009   */\n      0x80\n        /* \"#utility.yul\":4995:5004   */\n      dup12\n        /* \"#utility.yul\":4991:5010   */\n      add\n        /* \"#utility.yul\":4972:5011   */\n      tag_312\n      jump\t// in\n    tag_368:\n        /* \"#utility.yul\":4962:5011   */\n      swap5\n      pop\n        /* \"#utility.yul\":5062:5065   */\n      0xa0\n        /* \"#utility.yul\":5051:5060   */\n      dup11\n        /* \"#utility.yul\":5047:5066   */\n      add\n        /* \"#utility.yul\":5034:5067   */\n      calldataload\n        /* \"#utility.yul\":5090:5108   */\n      0xffffffffffffffff\n        /* \"#utility.yul\":5082:5088   */\n      dup2\n        /* \"#utility.yul\":5079:5109   */\n      gt\n        /* \"#utility.yul\":5076:5126   */\n      iszero\n      tag_369\n      jumpi\n        /* \"#utility.yul\":5122:5123   */\n      0x00\n        /* \"#utility.yul\":5119:5120   */\n      0x00\n        /* \"#utility.yul\":5112:5124   */\n      revert\n        /* \"#utility.yul\":5076:5126   */\n    tag_369:\n        /* \"#utility.yul\":5161:5220   */\n      tag_370\n        /* \"#utility.yul\":5212:5219   */\n      dup13\n        /* \"#utility.yul\":5203:5209   */\n      dup3\n        /* \"#utility.yul\":5192:5201   */\n      dup14\n        /* \"#utility.yul\":5188:5210   */\n      add\n        /* \"#utility.yul\":5161:5220   */\n      tag_316\n      jump\t// in\n    tag_370:\n        /* \"#utility.yul\":5239:5247   */\n      swap1\n      swap6\n      pop\n        /* \"#utility.yul\":5135:5220   */\n      swap4\n      pop\n      pop\n        /* \"#utility.yul\":5327:5330   */\n      0xc0\n        /* \"#utility.yul\":5312:5331   */\n      dup11\n      add\n        /* \"#utility.yul\":5299:5332   */\n      calldataload\n        /* \"#utility.yul\":5357:5375   */\n      0xffffffffffffffff\n        /* \"#utility.yul\":5344:5376   */\n      dup2\n      gt\n        /* \"#utility.yul\":5341:5393   */\n      iszero\n      tag_371\n      jumpi\n        /* \"#utility.yul\":5389:5390   */\n      0x00\n        /* \"#utility.yul\":5386:5387   */\n      0x00\n        /* \"#utility.yul\":5379:5391   */\n      revert\n        /* \"#utility.yul\":5341:5393   */\n    tag_371:\n        /* \"#utility.yul\":5428:5489   */\n      tag_372\n        /* \"#utility.yul\":5481:5488   */\n      dup13\n        /* \"#utility.yul\":5470:5478   */\n      dup3\n        /* \"#utility.yul\":5459:5468   */\n      dup14\n        /* \"#utility.yul\":5455:5479   */\n      add\n        /* \"#utility.yul\":5428:5489   */\n      tag_316\n      jump\t// in\n    tag_372:\n        /* \"#utility.yul\":5402:5489   */\n      swap2\n      pop\n        /* \"#utility.yul\":5508:5516   */\n      dup1\n        /* \"#utility.yul\":5498:5516   */\n      swap4\n      pop\n      pop\n        /* \"#utility.yul\":5535:5543   */\n      dup1\n        /* \"#utility.yul\":5525:5543   */\n      swap2\n      pop\n      pop\n        /* \"#utility.yul\":4459:5549   */\n      swap3\n      swap6\n      swap9\n      pop\n      swap3\n      swap6\n      swap9\n      pop\n      swap3\n      swap6\n      swap9\n      jump\t// out\n        /* \"#utility.yul\":5554:5740   */\n    tag_101:\n        /* \"#utility.yul\":5613:5619   */\n      0x00\n        /* \"#utility.yul\":5666:5668   */\n      0x20\n        /* \"#utility.yul\":5654:5663   */\n      dup3\n        /* \"#utility.yul\":5645:5652   */\n      dup5\n        /* \"#utility.yul\":5641:5664   */\n      sub\n        /* \"#utility.yul\":5637:5669   */\n      slt\n        /* \"#utility.yul\":5634:5686   */\n      iszero\n      tag_374\n      jumpi\n        /* \"#utility.yul\":5682:5683   */\n      0x00\n        /* \"#utility.yul\":5679:5680   */\n      0x00\n        /* \"#utility.yul\":5672:5684   */\n      revert\n        /* \"#utility.yul\":5634:5686   */\n    tag_374:\n        /* \"#utility.yul\":5705:5734   */\n      tag_305\n        /* \"#utility.yul\":5724:5733   */\n      dup3\n        /* \"#utility.yul\":5705:5734   */\n      tag_312\n      jump\t// in\n        /* \"#utility.yul\":6675:6802   */\n    tag_155:\n        /* \"#utility.yul\":6736:6746   */\n      0x4e487b71\n        /* \"#utility.yul\":6731:6734   */\n      0xe0\n        /* \"#utility.yul\":6727:6747   */\n      shl\n        /* \"#utility.yul\":6724:6725   */\n      0x00\n        /* \"#utility.yul\":6717:6748   */\n      mstore\n        /* \"#utility.yul\":6767:6771   */\n      0x32\n        /* \"#utility.yul\":6764:6765   */\n      0x04\n        /* \"#utility.yul\":6757:6772   */\n      mstore\n        /* \"#utility.yul\":6791:6795   */\n      0x24\n        /* \"#utility.yul\":6788:6789   */\n      0x00\n        /* \"#utility.yul\":6781:6796   */\n      revert\n        /* \"#utility.yul\":10111:10378   */\n    tag_317:\n        /* \"#utility.yul\":10200:10206   */\n      dup2\n        /* \"#utility.yul\":10195:10198   */\n      dup4\n        /* \"#utility.yul\":10188:10207   */\n      mstore\n        /* \"#utility.yul\":10252:10258   */\n      dup2\n        /* \"#utility.yul\":10245:10250   */\n      dup2\n        /* \"#utility.yul\":10238:10242   */\n      0x20\n        /* \"#utility.yul\":10233:10236   */\n      dup6\n        /* \"#utility.yul\":10229:10243   */\n      add\n        /* \"#utility.yul\":10216:10259   */\n      calldatacopy\n      pop\n        /* \"#utility.yul\":10304:10305   */\n      0x00\n        /* \"#utility.yul\":10279:10295   */\n      dup3\n      dup3\n      add\n        /* \"#utility.yul\":10297:10301   */\n      0x20\n        /* \"#utility.yul\":10275:10302   */\n      swap1\n      dup2\n      add\n        /* \"#utility.yul\":10268:10306   */\n      swap2\n      swap1\n      swap2\n      mstore\n        /* \"#utility.yul\":10360:10362   */\n      0x1f\n        /* \"#utility.yul\":10339:10354   */\n      swap1\n      swap2\n      add\n      not(0x1f)\n        /* \"#utility.yul\":10335:10364   */\n      and\n        /* \"#utility.yul\":10326:10365   */\n      swap1\n      swap2\n      add\n        /* \"#utility.yul\":10322:10372   */\n      add\n      swap1\n        /* \"#utility.yul\":10111:10378   */\n      jump\t// out\n        /* \"#utility.yul\":10383:11408   */\n    tag_198:\n      sub(shl(0xa0, 0x01), 0x01)\n        /* \"#utility.yul\":10768:10800   */\n      dup12\n      dup2\n      and\n        /* \"#utility.yul\":10750:10801   */\n      dup3\n      mstore\n        /* \"#utility.yul\":10837:10869   */\n      dup11\n      dup2\n      and\n        /* \"#utility.yul\":10832:10834   */\n      0x20\n        /* \"#utility.yul\":10817:10835   */\n      dup4\n      add\n        /* \"#utility.yul\":10810:10870   */\n      mstore\n        /* \"#utility.yul\":10906:10938   */\n      dup10\n      dup2\n      and\n        /* \"#utility.yul\":10901:10903   */\n      0x40\n        /* \"#utility.yul\":10886:10904   */\n      dup4\n      add\n        /* \"#utility.yul\":10879:10939   */\n      mstore\n        /* \"#utility.yul\":10975:11007   */\n      dup9\n      dup2\n      and\n        /* \"#utility.yul\":10970:10972   */\n      0x60\n        /* \"#utility.yul\":10955:10973   */\n      dup4\n      add\n        /* \"#utility.yul\":10948:11008   */\n      mstore\n        /* \"#utility.yul\":11045:11077   */\n      dup8\n      dup2\n      and\n        /* \"#utility.yul\":11039:11042   */\n      0x80\n        /* \"#utility.yul\":11024:11043   */\n      dup4\n      add\n        /* \"#utility.yul\":11017:11078   */\n      mstore\n        /* \"#utility.yul\":11115:11147   */\n      dup7\n      and\n        /* \"#utility.yul\":10788:10791   */\n      0xa0\n        /* \"#utility.yul\":11094:11113   */\n      dup3\n      add\n        /* \"#utility.yul\":11087:11148   */\n      mstore\n        /* \"#utility.yul\":11185:11188   */\n      0x0100\n        /* \"#utility.yul\":11179:11182   */\n      0xc0\n        /* \"#utility.yul\":11164:11183   */\n      dup3\n      add\n        /* \"#utility.yul\":11157:11189   */\n      dup2\n      swap1\n      mstore\n      0x00\n      swap1\n        /* \"#utility.yul\":11212:11275   */\n      tag_391\n      swap1\n        /* \"#utility.yul\":11255:11274   */\n      dup4\n      add\n        /* \"#utility.yul\":11247:11253   */\n      dup7\n        /* \"#utility.yul\":11239:11245   */\n      dup9\n        /* \"#utility.yul\":11212:11275   */\n      tag_317\n      jump\t// in\n    tag_391:\n        /* \"#utility.yul\":11324:11333   */\n      dup3\n        /* \"#utility.yul\":11316:11322   */\n      dup2\n        /* \"#utility.yul\":11312:11334   */\n      sub\n        /* \"#utility.yul\":11306:11309   */\n      0xe0\n        /* \"#utility.yul\":11295:11304   */\n      dup5\n        /* \"#utility.yul\":11291:11310   */\n      add\n        /* \"#utility.yul\":11284:11335   */\n      mstore\n        /* \"#utility.yul\":11352:11402   */\n      tag_392\n        /* \"#utility.yul\":11395:11401   */\n      dup2\n        /* \"#utility.yul\":11387:11393   */\n      dup6\n        /* \"#utility.yul\":11379:11385   */\n      dup8\n        /* \"#utility.yul\":11352:11402   */\n      tag_317\n      jump\t// in\n    tag_392:\n        /* \"#utility.yul\":11344:11402   */\n      swap14\n        /* \"#utility.yul\":10383:11408   */\n      swap13\n      pop\n      pop\n      pop\n      pop\n      pop\n      pop\n      pop\n      pop\n      pop\n      pop\n      pop\n      pop\n      pop\n      jump\t// out\n        /* \"#utility.yul\":11413:11728   */\n    tag_202:\n      sub(shl(0xa0, 0x01), 0x01)\n        /* \"#utility.yul\":11588:11620   */\n      dup4\n      and\n        /* \"#utility.yul\":11570:11621   */\n      dup2\n      mstore\n        /* \"#utility.yul\":11657:11659   */\n      0x40\n        /* \"#utility.yul\":11652:11654   */\n      0x20\n        /* \"#utility.yul\":11637:11655   */\n      dup3\n      add\n        /* \"#utility.yul\":11630:11660   */\n      dup2\n      swap1\n      mstore\n      0x00\n      swap1\n        /* \"#utility.yul\":11677:11722   */\n      tag_394\n      swap1\n        /* \"#utility.yul\":11703:11721   */\n      dup4\n      add\n        /* \"#utility.yul\":11695:11701   */\n      dup5\n        /* \"#utility.yul\":11677:11722   */\n      tag_315\n      jump\t// in\n    tag_394:\n        /* \"#utility.yul\":11669:11722   */\n      swap5\n        /* \"#utility.yul\":11413:11728   */\n      swap4\n      pop\n      pop\n      pop\n      pop\n      jump\t// out\n        /* \"#utility.yul\":12089:12273   */\n    tag_238:\n        /* \"#utility.yul\":12159:12165   */\n      0x00\n        /* \"#utility.yul\":12212:12214   */\n      0x20\n        /* \"#utility.yul\":12200:12209   */\n      dup3\n        /* \"#utility.yul\":12191:12198   */\n      dup5\n        /* \"#utility.yul\":12187:12210   */\n      sub\n        /* \"#utility.yul\":12183:12215   */\n      slt\n        /* \"#utility.yul\":12180:12232   */\n      iszero\n      tag_397\n      jumpi\n        /* \"#utility.yul\":12228:12229   */\n      0x00\n        /* \"#utility.yul\":12225:12226   */\n      0x00\n        /* \"#utility.yul\":12218:12230   */\n      revert\n        /* \"#utility.yul\":12180:12232   */\n    tag_397:\n      pop\n        /* \"#utility.yul\":12251:12267   */\n      mload\n      swap2\n        /* \"#utility.yul\":12089:12273   */\n      swap1\n      pop\n      jump\t// out\n        /* \"#utility.yul\":12278:12565   */\n    tag_293:\n        /* \"#utility.yul\":12407:12410   */\n      0x00\n        /* \"#utility.yul\":12445:12451   */\n      dup3\n        /* \"#utility.yul\":12439:12452   */\n      mload\n        /* \"#utility.yul\":12461:12527   */\n      tag_399\n        /* \"#utility.yul\":12520:12526   */\n      dup2\n        /* \"#utility.yul\":12515:12518   */\n      dup5\n        /* \"#utility.yul\":12508:12512   */\n      0x20\n        /* \"#utility.yul\":12500:12506   */\n      dup8\n        /* \"#utility.yul\":12496:12513   */\n      add\n        /* \"#utility.yul\":12461:12527   */\n      tag_314\n      jump\t// in\n    tag_399:\n        /* \"#utility.yul\":12543:12559   */\n      swap2\n      swap1\n      swap2\n      add\n      swap3\n        /* \"#utility.yul\":12278:12565   */\n      swap2\n      pop\n      pop\n      jump\t// out\n    stop\n    data_75b20eef8615de99c108b05f0dbda081c91897128caa336d75dffb97c4132b4d 360894a13ba1a3210667c828492db98dca3e2076cc3735a920a3ca505d382bbc\n\n    sub_0: assembly {\n            /* \"@openzeppelin/contracts/proxy/ERC1967/ERC1967Proxy.sol\":600:1717  contract ERC1967Proxy is Proxy {... */\n          mstore(0x40, 0x80)\n            /* \"@openzeppelin/contracts/proxy/ERC1967/ERC1967Proxy.sol\":1081:1214  constructor(address implementation, bytes memory _data) payable {... */\n          mload(0x40)\n          sub(codesize, bytecodeSize)\n          dup1\n          bytecodeSize\n          dup4\n          codecopy\n          dup2\n          add\n          0x40\n          dup2\n          swap1\n          mstore\n          tag_1\n          swap2\n          tag_2\n          jump\t// in\n        tag_1:\n            /* \"@openzeppelin/contracts/proxy/ERC1967/ERC1967Proxy.sol\":1155:1207  ERC1967Utils.upgradeToAndCall(implementation, _data) */\n          tag_5\n            /* \"@openzeppelin/contracts/proxy/ERC1967/ERC1967Proxy.sol\":1185:1199  implementation */\n          dup3\n            /* \"@openzeppelin/contracts/proxy/ERC1967/ERC1967Proxy.sol\":1201:1206  _data */\n          dup3\n            /* \"@openzeppelin/contracts/proxy/ERC1967/ERC1967Proxy.sol\":1155:1184  ERC1967Utils.upgradeToAndCall */\n          tag_6\n            /* \"@openzeppelin/contracts/proxy/ERC1967/ERC1967Proxy.sol\":1155:1207  ERC1967Utils.upgradeToAndCall(implementation, _data) */\n          jump\t// in\n        tag_5:\n            /* \"@openzeppelin/contracts/proxy/ERC1967/ERC1967Proxy.sol\":1081:1214  constructor(address implementation, bytes memory _data) payable {... */\n          pop\n          pop\n            /* \"@openzeppelin/contracts/proxy/ERC1967/ERC1967Proxy.sol\":600:1717  contract ERC1967Proxy is Proxy {... */\n          jump(tag_47)\n            /* \"@openzeppelin/contracts/proxy/ERC1967/ERC1967Utils.sol\":2264:2608  function upgradeToAndCall(address newImplementation, bytes memory data) internal {... */\n        tag_6:\n            /* \"@openzeppelin/contracts/proxy/ERC1967/ERC1967Utils.sol\":2355:2392  _setImplementation(newImplementation) */\n          tag_9\n            /* \"@openzeppelin/contracts/proxy/ERC1967/ERC1967Utils.sol\":2374:2391  newImplementation */\n          dup3\n            /* \"@openzeppelin/contracts/proxy/ERC1967/ERC1967Utils.sol\":2355:2373  _setImplementation */\n          tag_10\n            /* \"@openzeppelin/contracts/proxy/ERC1967/ERC1967Utils.sol\":2355:2392  _setImplementation(newImplementation) */\n          jump\t// in\n        tag_9:\n            /* \"@openzeppelin/contracts/proxy/ERC1967/ERC1967Utils.sol\":2407:2443  IERC1967.Upgraded(newImplementation) */\n          mload(0x40)\n          sub(shl(0xa0, 0x01), 0x01)\n          dup4\n          and\n          swap1\n          0xbc7cd75a20ee27fd9adebab32041f755214dbc6bffa90cc0225b39da2e5c2d3b\n          swap1\n          0x00\n          swap1\n          log2\n            /* \"@openzeppelin/contracts/proxy/ERC1967/ERC1967Utils.sol\":2458:2469  data.length */\n          dup1\n          mload\n            /* \"@openzeppelin/contracts/proxy/ERC1967/ERC1967Utils.sol\":2458:2473  data.length > 0 */\n          iszero\n            /* \"@openzeppelin/contracts/proxy/ERC1967/ERC1967Utils.sol\":2454:2602  if (data.length > 0) {... */\n          tag_11\n          jumpi\n            /* \"@openzeppelin/contracts/proxy/ERC1967/ERC1967Utils.sol\":2489:2542  Address.functionDelegateCall(newImplementation, data) */\n          tag_12\n            /* \"@openzeppelin/contracts/proxy/ERC1967/ERC1967Utils.sol\":2518:2535  newImplementation */\n          dup3\n            /* \"@openzeppelin/contracts/proxy/ERC1967/ERC1967Utils.sol\":2537:2541  data */\n          dup3\n            /* \"@openzeppelin/contracts/proxy/ERC1967/ERC1967Utils.sol\":2489:2517  Address.functionDelegateCall */\n          tag_13\n            /* \"@openzeppelin/contracts/proxy/ERC1967/ERC1967Utils.sol\":2489:2542  Address.functionDelegateCall(newImplementation, data) */\n          jump\t// in\n        tag_12:\n          pop\n            /* \"@openzeppelin/contracts/proxy/ERC1967/ERC1967Utils.sol\":2264:2608  function upgradeToAndCall(address newImplementation, bytes memory data) internal {... */\n          pop\n          pop\n          jump\t// out\n            /* \"@openzeppelin/contracts/proxy/ERC1967/ERC1967Utils.sol\":2454:2602  if (data.length > 0) {... */\n        tag_11:\n            /* \"@openzeppelin/contracts/proxy/ERC1967/ERC1967Utils.sol\":2573:2591  _checkNonPayable() */\n          tag_15\n            /* \"@openzeppelin/contracts/proxy/ERC1967/ERC1967Utils.sol\":2573:2589  _checkNonPayable */\n          tag_16\n            /* \"@openzeppelin/contracts/proxy/ERC1967/ERC1967Utils.sol\":2573:2591  _checkNonPayable() */\n          jump\t// in\n        tag_15:\n            /* \"@openzeppelin/contracts/proxy/ERC1967/ERC1967Utils.sol\":2264:2608  function upgradeToAndCall(address newImplementation, bytes memory data) internal {... */\n          pop\n          pop\n          jump\t// out\n            /* \"@openzeppelin/contracts/proxy/ERC1967/ERC1967Utils.sol\":1671:1952  function _setImplementation(address newImplementation) private {... */\n        tag_10:\n            /* \"@openzeppelin/contracts/proxy/ERC1967/ERC1967Utils.sol\":1748:1765  newImplementation */\n          dup1\n          sub(shl(0xa0, 0x01), 0x01)\n            /* \"@openzeppelin/contracts/proxy/ERC1967/ERC1967Utils.sol\":1748:1777  newImplementation.code.length */\n          and\n          extcodesize\n            /* \"@openzeppelin/contracts/proxy/ERC1967/ERC1967Utils.sol\":1781:1782  0 */\n          0x00\n            /* \"@openzeppelin/contracts/proxy/ERC1967/ERC1967Utils.sol\":1748:1782  newImplementation.code.length == 0 */\n          sub\n            /* \"@openzeppelin/contracts/proxy/ERC1967/ERC1967Utils.sol\":1744:1863  if (newImplementation.code.length == 0) {... */\n          tag_18\n          jumpi\n            /* \"@openzeppelin/contracts/proxy/ERC1967/ERC1967Utils.sol\":1805:1852  ERC1967InvalidImplementation(newImplementation) */\n          mload(0x40)\n          shl(0xe0, 0x4c9c8ce3)\n          dup2\n          mstore\n          sub(shl(0xa0, 0x01), 0x01)\n            /* \"#utility.yul\":1652:1684   */\n          dup3\n          and\n            /* \"@openzeppelin/contracts/proxy/ERC1967/ERC1967Utils.sol\":1805:1852  ERC1967InvalidImplementation(newImplementation) */\n          0x04\n          dup3\n          add\n            /* \"#utility.yul\":1634:1685   */\n          mstore\n            /* \"#utility.yul\":1607:1625   */\n          0x24\n          add\n            /* \"@openzeppelin/contracts/proxy/ERC1967/ERC1967Utils.sol\":1805:1852  ERC1967InvalidImplementation(newImplementation) */\n        tag_19:\n          mload(0x40)\n          dup1\n          swap2\n          sub\n          swap1\n          revert\n            /* \"@openzeppelin/contracts/proxy/ERC1967/ERC1967Utils.sol\":1744:1863  if (newImplementation.code.length == 0) {... */\n        tag_18:\n            /* \"@openzeppelin/contracts/proxy/ERC1967/ERC1967Utils.sol\":811:877  0x360894a13ba1a3210667c828492db98dca3e2076cc3735a920a3ca505d382bbc */\n          0x360894a13ba1a3210667c828492db98dca3e2076cc3735a920a3ca505d382bbc\n            /* \"@openzeppelin/contracts/proxy/ERC1967/ERC1967Utils.sol\":1872:1945  StorageSlot.getAddressSlot(IMPLEMENTATION_SLOT).value = newImplementation */\n          dup1\n          sload\n          not(sub(shl(0xa0, 0x01), 0x01))\n          and\n          sub(shl(0xa0, 0x01), 0x01)\n          swap3\n          swap1\n          swap3\n          and\n          swap2\n          swap1\n          swap2\n          or\n          swap1\n          sstore\n            /* \"@openzeppelin/contracts/proxy/ERC1967/ERC1967Utils.sol\":1671:1952  function _setImplementation(address newImplementation) private {... */\n          jump\t// out\n            /* \"@openzeppelin/contracts/utils/Address.sol\":3900:4153  function functionDelegateCall(address target, bytes memory data) internal returns (bytes memory) {... */\n        tag_13:\n            /* \"@openzeppelin/contracts/utils/Address.sol\":3983:3995  bytes memory */\n          0x60\n            /* \"@openzeppelin/contracts/utils/Address.sol\":4008:4020  bool success */\n          0x00\n            /* \"@openzeppelin/contracts/utils/Address.sol\":4022:4045  bytes memory returndata */\n          0x00\n            /* \"@openzeppelin/contracts/utils/Address.sol\":4049:4055  target */\n          dup5\n          sub(shl(0xa0, 0x01), 0x01)\n            /* \"@openzeppelin/contracts/utils/Address.sol\":4049:4068  target.delegatecall */\n          and\n            /* \"@openzeppelin/contracts/utils/Address.sol\":4069:4073  data */\n          dup5\n            /* \"@openzeppelin/contracts/utils/Address.sol\":4049:4074  target.delegatecall(data) */\n          mload(0x40)\n          tag_24\n          swap2\n          swap1\n          tag_25\n          jump\t// in\n        tag_24:\n          0x00\n          mload(0x40)\n          dup1\n          dup4\n          sub\n          dup2\n          dup6\n          gas\n          delegatecall\n          swap2\n          pop\n          pop\n          returndatasize\n          dup1\n          0x00\n          dup2\n          eq\n          tag_28\n          jumpi\n          mload(0x40)\n          swap2\n          pop\n          and(add(returndatasize, 0x3f), not(0x1f))\n          dup3\n          add\n          0x40\n          mstore\n          returndatasize\n          dup3\n          mstore\n          returndatasize\n          0x00\n          0x20\n          dup5\n          add\n          returndatacopy\n          jump(tag_27)\n        tag_28:\n          0x60\n          swap2\n          pop\n        tag_27:\n          pop\n            /* \"@openzeppelin/contracts/utils/Address.sol\":4007:4074  (bool success, bytes memory returndata) = target.delegatecall(data) */\n          swap1\n          swap3\n          pop\n          swap1\n          pop\n            /* \"@openzeppelin/contracts/utils/Address.sol\":4091:4146  verifyCallResultFromTarget(target, success, returndata) */\n          tag_29\n            /* \"@openzeppelin/contracts/utils/Address.sol\":4118:4124  target */\n          dup6\n            /* \"@openzeppelin/contracts/utils/Address.sol\":4007:4074  (bool success, bytes memory returndata) = target.delegatecall(data) */\n          dup4\n          dup4\n            /* \"@openzeppelin/contracts/utils/Address.sol\":4091:4117  verifyCallResultFromTarget */\n          tag_30\n            /* \"@openzeppelin/contracts/utils/Address.sol\":4091:4146  verifyCallResultFromTarget(target, success, returndata) */\n          jump\t// in\n        tag_29:\n            /* \"@openzeppelin/contracts/utils/Address.sol\":4084:4146  return verifyCallResultFromTarget(target, success, returndata) */\n          swap6\n            /* \"@openzeppelin/contracts/utils/Address.sol\":3900:4153  function functionDelegateCall(address target, bytes memory data) internal returns (bytes memory) {... */\n          swap5\n          pop\n          pop\n          pop\n          pop\n          pop\n          jump\t// out\n            /* \"@openzeppelin/contracts/proxy/ERC1967/ERC1967Utils.sol\":6113:6235  function _checkNonPayable() private {... */\n        tag_16:\n            /* \"@openzeppelin/contracts/proxy/ERC1967/ERC1967Utils.sol\":6163:6172  msg.value */\n          callvalue\n            /* \"@openzeppelin/contracts/proxy/ERC1967/ERC1967Utils.sol\":6163:6176  msg.value > 0 */\n          iszero\n            /* \"@openzeppelin/contracts/proxy/ERC1967/ERC1967Utils.sol\":6159:6229  if (msg.value > 0) {... */\n          tag_32\n          jumpi\n            /* \"@openzeppelin/contracts/proxy/ERC1967/ERC1967Utils.sol\":6199:6218  ERC1967NonPayable() */\n          mload(0x40)\n          shl(0xe0, 0xb398979f)\n          dup2\n          mstore\n          0x04\n          add\n          mload(0x40)\n          dup1\n          swap2\n          sub\n          swap1\n          revert\n            /* \"@openzeppelin/contracts/proxy/ERC1967/ERC1967Utils.sol\":6159:6229  if (msg.value > 0) {... */\n        tag_32:\n            /* \"@openzeppelin/contracts/proxy/ERC1967/ERC1967Utils.sol\":6113:6235  function _checkNonPayable() private {... */\n          jump\t// out\n            /* \"@openzeppelin/contracts/utils/Address.sol\":4421:5003  function verifyCallResultFromTarget(... */\n        tag_30:\n            /* \"@openzeppelin/contracts/utils/Address.sol\":4565:4577  bytes memory */\n          0x60\n            /* \"@openzeppelin/contracts/utils/Address.sol\":4594:4601  success */\n          dup3\n            /* \"@openzeppelin/contracts/utils/Address.sol\":4589:4997  if (!success) {... */\n          tag_35\n          jumpi\n            /* \"@openzeppelin/contracts/utils/Address.sol\":4617:4636  _revert(returndata) */\n          tag_36\n            /* \"@openzeppelin/contracts/utils/Address.sol\":4625:4635  returndata */\n          dup3\n            /* \"@openzeppelin/contracts/utils/Address.sol\":4617:4624  _revert */\n          tag_37\n            /* \"@openzeppelin/contracts/utils/Address.sol\":4617:4636  _revert(returndata) */\n          jump\t// in\n        tag_36:\n            /* \"@openzeppelin/contracts/utils/Address.sol\":4589:4997  if (!success) {... */\n          jump(tag_38)\n        tag_35:\n            /* \"@openzeppelin/contracts/utils/Address.sol\":4841:4858  returndata.length */\n          dup2\n          mload\n            /* \"@openzeppelin/contracts/utils/Address.sol\":4841:4863  returndata.length == 0 */\n          iszero\n            /* \"@openzeppelin/contracts/utils/Address.sol\":4841:4890  returndata.length == 0 && target.code.length == 0 */\n          dup1\n          iszero\n          tag_39\n          jumpi\n          pop\n          sub(shl(0xa0, 0x01), 0x01)\n            /* \"@openzeppelin/contracts/utils/Address.sol\":4867:4885  target.code.length */\n          dup5\n          and\n          extcodesize\n            /* \"@openzeppelin/contracts/utils/Address.sol\":4867:4890  target.code.length == 0 */\n          iszero\n            /* \"@openzeppelin/contracts/utils/Address.sol\":4841:4890  returndata.length == 0 && target.code.length == 0 */\n        tag_39:\n            /* \"@openzeppelin/contracts/utils/Address.sol\":4837:4956  if (returndata.length == 0 && target.code.length == 0) {... */\n          iszero\n          tag_40\n          jumpi\n            /* \"@openzeppelin/contracts/utils/Address.sol\":4917:4941  AddressEmptyCode(target) */\n          mload(0x40)\n          shl(0xe0, 0x9996b315)\n          dup2\n          mstore\n          sub(shl(0xa0, 0x01), 0x01)\n            /* \"#utility.yul\":1652:1684   */\n          dup6\n          and\n            /* \"@openzeppelin/contracts/utils/Address.sol\":4917:4941  AddressEmptyCode(target) */\n          0x04\n          dup3\n          add\n            /* \"#utility.yul\":1634:1685   */\n          mstore\n            /* \"#utility.yul\":1607:1625   */\n          0x24\n          add\n            /* \"@openzeppelin/contracts/utils/Address.sol\":4917:4941  AddressEmptyCode(target) */\n          tag_19\n            /* \"#utility.yul\":1488:1691   */\n          jump\n            /* \"@openzeppelin/contracts/utils/Address.sol\":4837:4956  if (returndata.length == 0 && target.code.length == 0) {... */\n        tag_40:\n          pop\n            /* \"@openzeppelin/contracts/utils/Address.sol\":4976:4986  returndata */\n          dup1\n            /* \"@openzeppelin/contracts/utils/Address.sol\":4589:4997  if (!success) {... */\n        tag_38:\n            /* \"@openzeppelin/contracts/utils/Address.sol\":4421:5003  function verifyCallResultFromTarget(... */\n          swap4\n          swap3\n          pop\n          pop\n          pop\n          jump\t// out\n            /* \"@openzeppelin/contracts/utils/Address.sol\":5543:6030  function _revert(bytes memory returndata) private pure {... */\n        tag_37:\n            /* \"@openzeppelin/contracts/utils/Address.sol\":5674:5691  returndata.length */\n          dup1\n          mload\n            /* \"@openzeppelin/contracts/utils/Address.sol\":5674:5695  returndata.length > 0 */\n          iszero\n            /* \"@openzeppelin/contracts/utils/Address.sol\":5670:6024  if (returndata.length > 0) {... */\n          tag_43\n          jumpi\n            /* \"@openzeppelin/contracts/utils/Address.sol\":5871:5881  returndata */\n          dup1\n            /* \"@openzeppelin/contracts/utils/Address.sol\":5865:5882  mload(returndata) */\n          mload\n            /* \"@openzeppelin/contracts/utils/Address.sol\":5927:5942  returndata_size */\n          dup1\n            /* \"@openzeppelin/contracts/utils/Address.sol\":5914:5924  returndata */\n          dup3\n            /* \"@openzeppelin/contracts/utils/Address.sol\":5910:5912  32 */\n          0x20\n            /* \"@openzeppelin/contracts/utils/Address.sol\":5906:5925  add(32, returndata) */\n          add\n            /* \"@openzeppelin/contracts/utils/Address.sol\":5899:5943  revert(add(32, returndata), returndata_size) */\n          revert\n            /* \"@openzeppelin/contracts/utils/Address.sol\":5670:6024  if (returndata.length > 0) {... */\n        tag_43:\n            /* \"@openzeppelin/contracts/utils/Address.sol\":5994:6013  Errors.FailedCall() */\n          mload(0x40)\n          shl(0xe0, 0xd6bda275)\n          dup2\n          mstore\n          0x04\n          add\n          mload(0x40)\n          dup1\n          swap2\n          sub\n          swap1\n          revert\n            /* \"#utility.yul\":14:141   */\n        tag_45:\n            /* \"#utility.yul\":75:85   */\n          0x4e487b71\n            /* \"#utility.yul\":70:73   */\n          0xe0\n            /* \"#utility.yul\":66:86   */\n          shl\n            /* \"#utility.yul\":63:64   */\n          0x00\n            /* \"#utility.yul\":56:87   */\n          mstore\n            /* \"#utility.yul\":106:110   */\n          0x41\n            /* \"#utility.yul\":103:104   */\n          0x04\n            /* \"#utility.yul\":96:111   */\n          mstore\n            /* \"#utility.yul\":130:134   */\n          0x24\n            /* \"#utility.yul\":127:128   */\n          0x00\n            /* \"#utility.yul\":120:135   */\n          revert\n            /* \"#utility.yul\":146:396   */\n        tag_46:\n            /* \"#utility.yul\":231:232   */\n          0x00\n            /* \"#utility.yul\":241:354   */\n        tag_50:\n            /* \"#utility.yul\":255:261   */\n          dup4\n            /* \"#utility.yul\":252:253   */\n          dup2\n            /* \"#utility.yul\":249:262   */\n          lt\n            /* \"#utility.yul\":241:354   */\n          iszero\n          tag_52\n          jumpi\n            /* \"#utility.yul\":331:342   */\n          dup2\n          dup2\n          add\n            /* \"#utility.yul\":325:343   */\n          mload\n            /* \"#utility.yul\":312:323   */\n          dup4\n          dup3\n          add\n            /* \"#utility.yul\":305:344   */\n          mstore\n            /* \"#utility.yul\":277:279   */\n          0x20\n            /* \"#utility.yul\":270:280   */\n          add\n            /* \"#utility.yul\":241:354   */\n          jump(tag_50)\n        tag_52:\n          pop\n          pop\n            /* \"#utility.yul\":388:389   */\n          0x00\n            /* \"#utility.yul\":370:386   */\n          swap2\n          add\n            /* \"#utility.yul\":363:390   */\n          mstore\n            /* \"#utility.yul\":146:396   */\n          jump\t// out\n            /* \"#utility.yul\":401:1483   */\n        tag_2:\n            /* \"#utility.yul\":489:495   */\n          0x00\n            /* \"#utility.yul\":497:503   */\n          0x00\n            /* \"#utility.yul\":550:552   */\n          0x40\n            /* \"#utility.yul\":538:547   */\n          dup4\n            /* \"#utility.yul\":529:536   */\n          dup6\n            /* \"#utility.yul\":525:548   */\n          sub\n            /* \"#utility.yul\":521:553   */\n          slt\n            /* \"#utility.yul\":518:570   */\n          iszero\n          tag_54\n          jumpi\n            /* \"#utility.yul\":566:567   */\n          0x00\n            /* \"#utility.yul\":563:564   */\n          0x00\n            /* \"#utility.yul\":556:568   */\n          revert\n            /* \"#utility.yul\":518:570   */\n        tag_54:\n            /* \"#utility.yul\":592:608   */\n          dup3\n          mload\n          sub(shl(0xa0, 0x01), 0x01)\n            /* \"#utility.yul\":637:668   */\n          dup2\n          and\n            /* \"#utility.yul\":627:669   */\n          dup2\n          eq\n            /* \"#utility.yul\":617:687   */\n          tag_55\n          jumpi\n            /* \"#utility.yul\":683:684   */\n          0x00\n            /* \"#utility.yul\":680:681   */\n          0x00\n            /* \"#utility.yul\":673:685   */\n          revert\n            /* \"#utility.yul\":617:687   */\n        tag_55:\n            /* \"#utility.yul\":755:757   */\n          0x20\n            /* \"#utility.yul\":740:758   */\n          dup5\n          add\n            /* \"#utility.yul\":734:759   */\n          mload\n            /* \"#utility.yul\":706:711   */\n          swap1\n          swap3\n          pop\n          sub(shl(0x40, 0x01), 0x01)\n            /* \"#utility.yul\":771:801   */\n          dup2\n          gt\n            /* \"#utility.yul\":768:818   */\n          iszero\n          tag_56\n          jumpi\n            /* \"#utility.yul\":814:815   */\n          0x00\n            /* \"#utility.yul\":811:812   */\n          0x00\n            /* \"#utility.yul\":804:816   */\n          revert\n            /* \"#utility.yul\":768:818   */\n        tag_56:\n            /* \"#utility.yul\":837:859   */\n          dup4\n          add\n            /* \"#utility.yul\":890:894   */\n          0x1f\n            /* \"#utility.yul\":882:895   */\n          dup2\n          add\n            /* \"#utility.yul\":878:905   */\n          dup6\n          sgt\n            /* \"#utility.yul\":868:923   */\n          tag_57\n          jumpi\n            /* \"#utility.yul\":919:920   */\n          0x00\n            /* \"#utility.yul\":916:917   */\n          0x00\n            /* \"#utility.yul\":909:921   */\n          revert\n            /* \"#utility.yul\":868:923   */\n        tag_57:\n            /* \"#utility.yul\":946:955   */\n          dup1\n          mload\n          sub(shl(0x40, 0x01), 0x01)\n            /* \"#utility.yul\":967:997   */\n          dup2\n          gt\n            /* \"#utility.yul\":964:1020   */\n          iszero\n          tag_59\n          jumpi\n            /* \"#utility.yul\":1000:1018   */\n          tag_59\n          tag_45\n          jump\t// in\n        tag_59:\n            /* \"#utility.yul\":1049:1051   */\n          0x40\n            /* \"#utility.yul\":1043:1052   */\n          mload\n            /* \"#utility.yul\":1141:1143   */\n          0x1f\n            /* \"#utility.yul\":1103:1120   */\n          dup3\n          add\n          not(0x1f)\n            /* \"#utility.yul\":1099:1130   */\n          swap1\n          dup2\n          and\n            /* \"#utility.yul\":1132:1134   */\n          0x3f\n            /* \"#utility.yul\":1095:1135   */\n          add\n            /* \"#utility.yul\":1091:1145   */\n          and\n            /* \"#utility.yul\":1079:1146   */\n          dup2\n          add\n          sub(shl(0x40, 0x01), 0x01)\n            /* \"#utility.yul\":1161:1195   */\n          dup2\n          gt\n            /* \"#utility.yul\":1197:1219   */\n          dup3\n          dup3\n          lt\n            /* \"#utility.yul\":1158:1220   */\n          or\n            /* \"#utility.yul\":1155:1243   */\n          iszero\n          tag_61\n          jumpi\n            /* \"#utility.yul\":1223:1241   */\n          tag_61\n          tag_45\n          jump\t// in\n        tag_61:\n            /* \"#utility.yul\":1259:1261   */\n          0x40\n            /* \"#utility.yul\":1252:1274   */\n          mstore\n            /* \"#utility.yul\":1283:1305   */\n          dup2\n          dup2\n          mstore\n            /* \"#utility.yul\":1324:1339   */\n          dup3\n          dup3\n          add\n            /* \"#utility.yul\":1341:1343   */\n          0x20\n            /* \"#utility.yul\":1320:1344   */\n          add\n            /* \"#utility.yul\":1317:1354   */\n          dup8\n          lt\n            /* \"#utility.yul\":1314:1371   */\n          iszero\n          tag_62\n          jumpi\n            /* \"#utility.yul\":1367:1368   */\n          0x00\n            /* \"#utility.yul\":1364:1365   */\n          0x00\n            /* \"#utility.yul\":1357:1369   */\n          revert\n            /* \"#utility.yul\":1314:1371   */\n        tag_62:\n            /* \"#utility.yul\":1380:1452   */\n          tag_63\n            /* \"#utility.yul\":1445:1451   */\n          dup3\n            /* \"#utility.yul\":1440:1442   */\n          0x20\n            /* \"#utility.yul\":1432:1438   */\n          dup4\n            /* \"#utility.yul\":1428:1443   */\n          add\n            /* \"#utility.yul\":1423:1425   */\n          0x20\n            /* \"#utility.yul\":1419:1421   */\n          dup7\n            /* \"#utility.yul\":1415:1426   */\n          add\n            /* \"#utility.yul\":1380:1452   */\n          tag_46\n          jump\t// in\n        tag_63:\n            /* \"#utility.yul\":1471:1477   */\n          dup1\n            /* \"#utility.yul\":1461:1477   */\n          swap4\n          pop\n          pop\n          pop\n          pop\n            /* \"#utility.yul\":401:1483   */\n          swap3\n          pop\n          swap3\n          swap1\n          pop\n          jump\t// out\n            /* \"#utility.yul\":1696:1983   */\n        tag_25:\n            /* \"#utility.yul\":1825:1828   */\n          0x00\n            /* \"#utility.yul\":1863:1869   */\n          dup3\n            /* \"#utility.yul\":1857:1870   */\n          mload\n            /* \"#utility.yul\":1879:1945   */\n          tag_66\n            /* \"#utility.yul\":1938:1944   */\n          dup2\n            /* \"#utility.yul\":1933:1936   */\n          dup5\n            /* \"#utility.yul\":1926:1930   */\n          0x20\n            /* \"#utility.yul\":1918:1924   */\n          dup8\n            /* \"#utility.yul\":1914:1931   */\n          add\n            /* \"#utility.yul\":1879:1945   */\n          tag_46\n          jump\t// in\n        tag_66:\n            /* \"#utility.yul\":1961:1977   */\n          swap2\n          swap1\n          swap2\n          add\n          swap3\n            /* \"#utility.yul\":1696:1983   */\n          swap2\n          pop\n          pop\n          jump\t// out\n        tag_47:\n            /* \"@openzeppelin/contracts/proxy/ERC1967/ERC1967Proxy.sol\":600:1717  contract ERC1967Proxy is Proxy {... */\n          dataSize(sub_0)\n          dup1\n          dataOffset(sub_0)\n          0x00\n          codecopy\n          0x00\n          return\n        stop\n\n        sub_0: assembly {\n                /* \"@openzeppelin/contracts/proxy/ERC1967/ERC1967Proxy.sol\":600:1717  contract ERC1967Proxy is Proxy {... */\n              mstore(0x40, 0x80)\n                /* \"@openzeppelin/contracts/proxy/Proxy.sol\":2649:2660  _fallback() */\n              tag_5\n                /* \"@openzeppelin/contracts/proxy/Proxy.sol\":2649:2658  _fallback */\n              tag_6\n                /* \"@openzeppelin/contracts/proxy/Proxy.sol\":2649:2660  _fallback() */\n              jump\t// in\n            tag_5:\n                /* \"@openzeppelin/contracts/proxy/ERC1967/ERC1967Proxy.sol\":600:1717  contract ERC1967Proxy is Proxy {... */\n              stop\n                /* \"@openzeppelin/contracts/proxy/Proxy.sol\":2323:2406  function _fallback() internal virtual {... */\n            tag_6:\n                /* \"@openzeppelin/contracts/proxy/Proxy.sol\":2371:2399  _delegate(_implementation()) */\n              tag_8\n                /* \"@openzeppelin/contracts/proxy/Proxy.sol\":2381:2398  _implementation() */\n              tag_9\n                /* \"@openzeppelin/contracts/proxy/Proxy.sol\":2381:2396  _implementation */\n              tag_10\n                /* \"@openzeppelin/contracts/proxy/Proxy.sol\":2381:2398  _implementation() */\n              jump\t// in\n            tag_9:\n                /* \"@openzeppelin/contracts/proxy/Proxy.sol\":2371:2380  _delegate */\n              tag_11\n                /* \"@openzeppelin/contracts/proxy/Proxy.sol\":2371:2399  _delegate(_implementation()) */\n              jump\t// in\n            tag_8:\n                /* \"@openzeppelin/contracts/proxy/Proxy.sol\":2323:2406  function _fallback() internal virtual {... */\n              jump\t// out\n                /* \"@openzeppelin/contracts/proxy/ERC1967/ERC1967Proxy.sol\":1583:1715  function _implementation() internal view virtual override returns (address) {... */\n            tag_10:\n                /* \"@openzeppelin/contracts/proxy/ERC1967/ERC1967Proxy.sol\":1650:1657  address */\n              0x00\n                /* \"@openzeppelin/contracts/proxy/ERC1967/ERC1967Proxy.sol\":1676:1708  ERC1967Utils.getImplementation() */\n              tag_13\n                /* \"@openzeppelin/contracts/proxy/ERC1967/ERC1967Utils.sol\":811:877  0x360894a13ba1a3210667c828492db98dca3e2076cc3735a920a3ca505d382bbc */\n              0x360894a13ba1a3210667c828492db98dca3e2076cc3735a920a3ca505d382bbc\n                /* \"@openzeppelin/contracts/proxy/ERC1967/ERC1967Utils.sol\":1519:1572  StorageSlot.getAddressSlot(IMPLEMENTATION_SLOT).value */\n              sload\n              sub(shl(0xa0, 0x01), 0x01)\n              and\n              swap1\n                /* \"@openzeppelin/contracts/proxy/ERC1967/ERC1967Utils.sol\":1441:1579  function getImplementation() internal view returns (address) {... */\n              jump\n                /* \"@openzeppelin/contracts/proxy/ERC1967/ERC1967Proxy.sol\":1676:1708  ERC1967Utils.getImplementation() */\n            tag_13:\n                /* \"@openzeppelin/contracts/proxy/ERC1967/ERC1967Proxy.sol\":1669:1708  return ERC1967Utils.getImplementation() */\n              swap1\n              pop\n                /* \"@openzeppelin/contracts/proxy/ERC1967/ERC1967Proxy.sol\":1583:1715  function _implementation() internal view virtual override returns (address) {... */\n              swap1\n              jump\t// out\n                /* \"@openzeppelin/contracts/proxy/Proxy.sol\":949:1844  function _delegate(address implementation) internal virtual {... */\n            tag_11:\n                /* \"@openzeppelin/contracts/proxy/Proxy.sol\":1287:1301  calldatasize() */\n              calldatasize\n                /* \"@openzeppelin/contracts/proxy/Proxy.sol\":1284:1285  0 */\n              0x00\n                /* \"@openzeppelin/contracts/proxy/Proxy.sol\":1281:1282  0 */\n              0x00\n                /* \"@openzeppelin/contracts/proxy/Proxy.sol\":1268:1302  calldatacopy(0, 0, calldatasize()) */\n              calldatacopy\n                /* \"@openzeppelin/contracts/proxy/Proxy.sol\":1501:1502  0 */\n              0x00\n                /* \"@openzeppelin/contracts/proxy/Proxy.sol\":1498:1499  0 */\n              0x00\n                /* \"@openzeppelin/contracts/proxy/Proxy.sol\":1482:1496  calldatasize() */\n              calldatasize\n                /* \"@openzeppelin/contracts/proxy/Proxy.sol\":1479:1480  0 */\n              0x00\n                /* \"@openzeppelin/contracts/proxy/Proxy.sol\":1463:1477  implementation */\n              dup5\n                /* \"@openzeppelin/contracts/proxy/Proxy.sol\":1456:1461  gas() */\n              gas\n                /* \"@openzeppelin/contracts/proxy/Proxy.sol\":1443:1503  delegatecall(gas(), implementation, 0, calldatasize(), 0, 0) */\n              delegatecall\n                /* \"@openzeppelin/contracts/proxy/Proxy.sol\":1577:1593  returndatasize() */\n              returndatasize\n                /* \"@openzeppelin/contracts/proxy/Proxy.sol\":1574:1575  0 */\n              0x00\n                /* \"@openzeppelin/contracts/proxy/Proxy.sol\":1571:1572  0 */\n              0x00\n                /* \"@openzeppelin/contracts/proxy/Proxy.sol\":1556:1594  returndatacopy(0, 0, returndatasize()) */\n              returndatacopy\n                /* \"@openzeppelin/contracts/proxy/Proxy.sol\":1615:1621  result */\n              dup1\n                /* \"@openzeppelin/contracts/proxy/Proxy.sol\":1682:1748  case 0 {... */\n              dup1\n              iszero\n              tag_17\n              jumpi\n                /* \"@openzeppelin/contracts/proxy/Proxy.sol\":1797:1813  returndatasize() */\n              returndatasize\n                /* \"@openzeppelin/contracts/proxy/Proxy.sol\":1794:1795  0 */\n              0x00\n                /* \"@openzeppelin/contracts/proxy/Proxy.sol\":1787:1814  return(0, returndatasize()) */\n              return\n                /* \"@openzeppelin/contracts/proxy/Proxy.sol\":1682:1748  case 0 {... */\n            tag_17:\n                /* \"@openzeppelin/contracts/proxy/Proxy.sol\":1717:1733  returndatasize() */\n              returndatasize\n                /* \"@openzeppelin/contracts/proxy/Proxy.sol\":1714:1715  0 */\n              0x00\n                /* \"@openzeppelin/contracts/proxy/Proxy.sol\":1707:1734  revert(0, returndatasize()) */\n              revert\n\n            auxdata: 0xa2646970667358221220b0a6ef45ea41ecff26aceae2a13b693304c712be70f6cbcb48972b6a8e00f80b64736f6c634300081c0033\n        }\n    }\n\n    auxdata: 0xa2646970667358221220a38eb14da0a2e82685da51f16bbb2460c01bb6d7a84ceecccdab5899cf78c48c64736f6c634300081c0033\n}\n",
				"bytecode": {
					"linkReferences": {},
					"object": "60a0604052306080523480156012575f5ffd5b506080516119726100395f395f8181610c3201528181610c5b0152610d9f01526119725ff3fe608060405260043610610105575f3560e01c80639403b63411610092578063ad3cb1cc11610062578063ad3cb1cc146102bb578063b078147a146102f8578063c363875714610316578063ecedd5bc14610335578063f2fde38b14610354575f5ffd5b80639403b6341461024857806397331bf914610267578063a7c6a10014610288578063ab31b6f31461029c575f5ffd5b806352d1902d116100d857806352d1902d14610198578063545851d7146101ba578063715018a6146101d95780638da5cb5b146101ed5780639094a91e14610229575f5ffd5b80633c46201d14610109578063485cc955146101455780634c39ad21146101665780634f1ef28614610185575b5f5ffd5b348015610114575f5ffd5b50600254610128906001600160a01b031681565b6040516001600160a01b0390911681526020015b60405180910390f35b348015610150575f5ffd5b5061016461015f3660046110f2565b610373565b005b348015610171575f5ffd5b50600154610128906001600160a01b031681565b610164610193366004611137565b6104ff565b3480156101a3575f5ffd5b506101ac61051e565b60405190815260200161013c565b3480156101c5575f5ffd5b50600354610128906001600160a01b031681565b3480156101e4575f5ffd5b50610164610539565b3480156101f8575f5ffd5b507f9016d09d72d40fdae2fd8ceac6b6234c7706214fd39c1cd1e609a0528c199300546001600160a01b0316610128565b348015610234575f5ffd5b506101286102433660046111fb565b61054c565b348015610253575f5ffd5b506101286102623660046111fb565b610574565b348015610272575f5ffd5b5061027b6105f4565b60405161013c9190611212565b348015610293575f5ffd5b506004546101ac565b3480156102a7575f5ffd5b506101646102b636600461125d565b610654565b3480156102c6575f5ffd5b506102eb604051806040016040528060058152602001640352e302e360dc1b81525081565b60405161013c91906112ea565b348015610303575f5ffd5b505f54610128906001600160a01b031681565b348015610321575f5ffd5b50610128610330366004611341565b6107e2565b348015610340575f5ffd5b5061016461034f366004611403565b610b52565b34801561035f575f5ffd5b5061016461036e366004611403565b610bd1565b7ff0c57e16840df040f15088dc2f81fe391c3923bec73e23a9662efc9c229c6a008054600160401b810460ff16159067ffffffffffffffff165f811580156103b85750825b90505f8267ffffffffffffffff1660011480156103d45750303b155b9050811580156103e2575080155b156104005760405163f92ee8a960e01b815260040160405180910390fd5b845467ffffffffffffffff19166001178555831561042a57845460ff60401b1916600160401b1785555b61043386610c0e565b61043b610c1f565b6001600160a01b0387166104965760405162461bcd60e51b815260206004820181905260248201527f5661756c74466163746f72793a20696e76616c6964207661756c744c6f67696360448201526064015b60405180910390fd5b5f80546001600160a01b0319166001600160a01b03891617905583156104f657845460ff60401b19168555604051600181527fc7f505b2f371ae2175ee4913f4499e1f2633a7b5936321eed1cdaeb6115181d29060200160405180910390a15b50505050505050565b610507610c27565b61051082610ccb565b61051a8282610cd3565b5050565b5f610527610d94565b505f51602061191d5f395f51905f5290565b610541610ddd565b61054a5f610e38565b565b6004818154811061055b575f80fd5b5f918252602090912001546001600160a01b0316905081565b6004545f9082106105c75760405162461bcd60e51b815260206004820152601a60248201527f5661756c74466163746f72793a206f7574206f662072616e6765000000000000604482015260640161048d565b600482815481106105da576105da61141c565b5f918252602090912001546001600160a01b031692915050565b6060600480548060200260200160405190810160405280929190818152602001828054801561064a57602002820191905f5260205f20905b81546001600160a01b0316815260019091019060200180831161062c575b5050505050905090565b61065c610ddd565b6001600160a01b0383166106b25760405162461bcd60e51b815260206004820152601c60248201527f5661756c74466163746f72793a20696e76616c6964206f7261636c6500000000604482015260640161048d565b6001600160a01b0382166107085760405162461bcd60e51b815260206004820181905260248201527f5661756c74466163746f72793a20696e76616c696420726562616c616e636572604482015260640161048d565b6001600160a01b03811661075e5760405162461bcd60e51b815260206004820181905260248201527f5661756c74466163746f72793a20696e76616c6964206c697175696461746f72604482015260640161048d565b600180546001600160a01b038581166001600160a01b0319928316811790935560028054868316908416811790915560038054928616929093168217909255604080519384526020840192909252908201527f43d676ef005d9b31f20857ca4015e161d6c2337206dc3487aed30b7b4c1cefc39060600160405180910390a1505050565b5f6001600160a01b038a166108395760405162461bcd60e51b815260206004820152601c60248201527f5661756c74466163746f72793a20696e76616c6964207633506f6f6c00000000604482015260640161048d565b6001600160a01b0389166108995760405162461bcd60e51b815260206004820152602160248201527f5661756c74466163746f72793a20696e76616c696420706f736974696f6e4d676044820152603960f91b606482015260840161048d565b5f6001600160a01b038916156108af57886108bc565b6001546001600160a01b03165b90505f6001600160a01b038916156108d457886108e1565b6002546001600160a01b03165b90505f6001600160a01b038916156108f95788610906565b6003546001600160a01b03165b90506001600160a01b03831661095e5760405162461bcd60e51b815260206004820152601760248201527f5661756c74466163746f72793a206e6f206f7261636c65000000000000000000604482015260640161048d565b6001600160a01b0382166109b45760405162461bcd60e51b815260206004820152601b60248201527f5661756c74466163746f72793a206e6f20726562616c616e6365720000000000604482015260640161048d565b6001600160a01b038116610a0a5760405162461bcd60e51b815260206004820152601b60248201527f5661756c74466163746f72793a206e6f206c697175696461746f720000000000604482015260640161048d565b5f63ef090e4c60e01b8e8e868686338f8f8f8f604051602401610a369a99989796959493929190611458565b60408051601f198184030181529181526020820180516001600160e01b03166001600160e01b0319909416939093179092525f80549251919350916001600160a01b0316908390610a86906110ca565b610a919291906114c9565b604051809103905ff080158015610aaa573d5f5f3e3d5ffd5b509050809550600486908060018154018082558091505060019003905f5260205f20015f9091909190916101000a8154816001600160a01b0302191690836001600160a01b031602179055508e6001600160a01b0316336001600160a01b0316876001600160a01b03167f897c133dfbfe1f6239e98b4ffd7e4f6c86a62350a131a7a37790419f58af02f960405160405180910390a450505050509998505050505050505050565b610b5a610ddd565b6001600160a01b038116610bb05760405162461bcd60e51b815260206004820152601b60248201527f5661756c74466163746f72793a20696e76616c6964206c6f6769630000000000604482015260640161048d565b5f80546001600160a01b0319166001600160a01b0392909216919091179055565b610bd9610ddd565b6001600160a01b038116610c0257604051631e4fbdf760e01b81525f600482015260240161048d565b610c0b81610e38565b50565b610c16610ea8565b610c0b81610ef1565b61054a610ea8565b306001600160a01b037f0000000000000000000000000000000000000000000000000000000000000000161480610cad57507f00000000000000000000000000000000000000000000000000000000000000006001600160a01b0316610ca15f51602061191d5f395f51905f52546001600160a01b031690565b6001600160a01b031614155b1561054a5760405163703e46dd60e11b815260040160405180910390fd5b610c0b610ddd565b816001600160a01b03166352d1902d6040518163ffffffff1660e01b8152600401602060405180830381865afa925050508015610d2d575060408051601f3d908101601f19168201909252610d2a918101906114f4565b60015b610d5557604051634c9c8ce360e01b81526001600160a01b038316600482015260240161048d565b5f51602061191d5f395f51905f528114610d8557604051632a87526960e21b81526004810182905260240161048d565b610d8f8383610ef9565b505050565b306001600160a01b037f0000000000000000000000000000000000000000000000000000000000000000161461054a5760405163703e46dd60e11b815260040160405180910390fd5b33610e0f7f9016d09d72d40fdae2fd8ceac6b6234c7706214fd39c1cd1e609a0528c199300546001600160a01b031690565b6001600160a01b03161461054a5760405163118cdaa760e01b815233600482015260240161048d565b7f9016d09d72d40fdae2fd8ceac6b6234c7706214fd39c1cd1e609a0528c19930080546001600160a01b031981166001600160a01b03848116918217845560405192169182907f8be0079c531659141344cd1fd0a4f28419497f9722a3daafe3b4186f6b6457e0905f90a3505050565b7ff0c57e16840df040f15088dc2f81fe391c3923bec73e23a9662efc9c229c6a0054600160401b900460ff1661054a57604051631afcd79f60e31b815260040160405180910390fd5b610bd9610ea8565b610f0282610f4e565b6040516001600160a01b038316907fbc7cd75a20ee27fd9adebab32041f755214dbc6bffa90cc0225b39da2e5c2d3b905f90a2805115610f4657610d8f8282610fb1565b61051a611023565b806001600160a01b03163b5f03610f8357604051634c9c8ce360e01b81526001600160a01b038216600482015260240161048d565b5f51602061191d5f395f51905f5280546001600160a01b0319166001600160a01b0392909216919091179055565b60605f5f846001600160a01b031684604051610fcd919061150b565b5f60405180830381855af49150503d805f8114611005576040519150601f19603f3d011682016040523d82523d5f602084013e61100a565b606091505b509150915061101a858383611042565b95945050505050565b341561054a5760405163b398979f60e01b815260040160405180910390fd5b60608261105757611052826110a1565b61109a565b815115801561106e57506001600160a01b0384163b155b1561109757604051639996b31560e01b81526001600160a01b038516600482015260240161048d565b50805b9392505050565b8051156110b15780518082602001fd5b60405163d6bda27560e01b815260040160405180910390fd5b6103f68061152783390190565b80356001600160a01b03811681146110ed575f5ffd5b919050565b5f5f60408385031215611103575f5ffd5b61110c836110d7565b915061111a602084016110d7565b90509250929050565b634e487b7160e01b5f52604160045260245ffd5b5f5f60408385031215611148575f5ffd5b611151836110d7565b9150602083013567ffffffffffffffff81111561116c575f5ffd5b8301601f8101851361117c575f5ffd5b803567ffffffffffffffff81111561119657611196611123565b604051601f8201601f19908116603f0116810167ffffffffffffffff811182821017156111c5576111c5611123565b6040528181528282016020018710156111dc575f5ffd5b816020840160208301375f602083830101528093505050509250929050565b5f6020828403121561120b575f5ffd5b5035919050565b602080825282518282018190525f918401906040840190835b818110156112525783516001600160a01b031683526020938401939092019160010161122b565b509095945050505050565b5f5f5f6060848603121561126f575f5ffd5b611278846110d7565b9250611286602085016110d7565b9150611294604085016110d7565b90509250925092565b5f5b838110156112b757818101518382015260200161129f565b50505f910152565b5f81518084526112d681602086016020860161129d565b601f01601f19169290920160200192915050565b602081525f61109a60208301846112bf565b5f5f83601f84011261130c575f5ffd5b50813567ffffffffffffffff811115611323575f5ffd5b60208301915083602082850101111561133a575f5ffd5b9250929050565b5f5f5f5f5f5f5f5f5f60e08a8c031215611359575f5ffd5b6113628a6110d7565b985061137060208b016110d7565b975061137e60408b016110d7565b965061138c60608b016110d7565b955061139a60808b016110d7565b945060a08a013567ffffffffffffffff8111156113b5575f5ffd5b6113c18c828d016112fc565b90955093505060c08a013567ffffffffffffffff8111156113e0575f5ffd5b6113ec8c828d016112fc565b915080935050809150509295985092959850929598565b5f60208284031215611413575f5ffd5b61109a826110d7565b634e487b7160e01b5f52603260045260245ffd5b81835281816020850137505f828201602090810191909152601f909101601f19169091010190565b6001600160a01b038b811682528a81166020830152898116604083015288811660608301528781166080830152861660a082015261010060c082018190525f906114a59083018688611430565b82810360e08401526114b8818587611430565b9d9c50505050505050505050505050565b6001600160a01b03831681526040602082018190525f906114ec908301846112bf565b949350505050565b5f60208284031215611504575f5ffd5b5051919050565b5f825161151c81846020870161129d565b919091019291505056fe60806040526040516103f63803806103f68339810160408190526100229161025e565b61002c8282610033565b5050610347565b61003c82610091565b6040516001600160a01b038316907fbc7cd75a20ee27fd9adebab32041f755214dbc6bffa90cc0225b39da2e5c2d3b905f90a280511561008557610080828261010c565b505050565b61008d61017f565b5050565b806001600160a01b03163b5f036100cb57604051634c9c8ce360e01b81526001600160a01b03821660048201526024015b60405180910390fd5b7f360894a13ba1a3210667c828492db98dca3e2076cc3735a920a3ca505d382bbc80546001600160a01b0319166001600160a01b0392909216919091179055565b60605f5f846001600160a01b031684604051610128919061032c565b5f60405180830381855af49150503d805f8114610160576040519150601f19603f3d011682016040523d82523d5f602084013e610165565b606091505b5090925090506101768583836101a0565b95945050505050565b341561019e5760405163b398979f60e01b815260040160405180910390fd5b565b6060826101b5576101b0826101ff565b6101f8565b81511580156101cc57506001600160a01b0384163b155b156101f557604051639996b31560e01b81526001600160a01b03851660048201526024016100c2565b50805b9392505050565b80511561020f5780518082602001fd5b60405163d6bda27560e01b815260040160405180910390fd5b634e487b7160e01b5f52604160045260245ffd5b5f5b8381101561025657818101518382015260200161023e565b50505f910152565b5f5f6040838503121561026f575f5ffd5b82516001600160a01b0381168114610285575f5ffd5b60208401519092506001600160401b038111156102a0575f5ffd5b8301601f810185136102b0575f5ffd5b80516001600160401b038111156102c9576102c9610228565b604051601f8201601f19908116603f011681016001600160401b03811182821017156102f7576102f7610228565b60405281815282820160200187101561030e575f5ffd5b61031f82602083016020860161023c565b8093505050509250929050565b5f825161033d81846020870161023c565b9190910192915050565b60a3806103535f395ff3fe6080604052600a600c565b005b60186014601a565b6050565b565b5f604b7f360894a13ba1a3210667c828492db98dca3e2076cc3735a920a3ca505d382bbc546001600160a01b031690565b905090565b365f5f375f5f365f845af43d5f5f3e8080156069573d5ff35b3d5ffdfea2646970667358221220b0a6ef45ea41ecff26aceae2a13b693304c712be70f6cbcb48972b6a8e00f80b64736f6c634300081c0033360894a13ba1a3210667c828492db98dca3e2076cc3735a920a3ca505d382bbca2646970667358221220a38eb14da0a2e82685da51f16bbb2460c01bb6d7a84ceecccdab5899cf78c48c64736f6c634300081c0033",
					"opcodes": "PUSH1 0xA0 PUSH1 0x40 MSTORE ADDRESS PUSH1 0x80 MSTORE CALLVALUE DUP1 ISZERO PUSH1 0x12 JUMPI PUSH0 PUSH0 REVERT JUMPDEST POP PUSH1 0x80 MLOAD PUSH2 0x1972 PUSH2 0x39 PUSH0 CODECOPY PUSH0 DUP2 DUP2 PUSH2 0xC32 ADD MSTORE DUP2 DUP2 PUSH2 0xC5B ADD MSTORE PUSH2 0xD9F ADD MSTORE PUSH2 0x1972 PUSH0 RETURN INVALID PUSH1 0x80 PUSH1 0x40 MSTORE PUSH1 0x4 CALLDATASIZE LT PUSH2 0x105 JUMPI PUSH0 CALLDATALOAD PUSH1 0xE0 SHR DUP1 PUSH4 0x9403B634 GT PUSH2 0x92 JUMPI DUP1 PUSH4 0xAD3CB1CC GT PUSH2 0x62 JUMPI DUP1 PUSH4 0xAD3CB1CC EQ PUSH2 0x2BB JUMPI DUP1 PUSH4 0xB078147A EQ PUSH2 0x2F8 JUMPI DUP1 PUSH4 0xC3638757 EQ PUSH2 0x316 JUMPI DUP1 PUSH4 0xECEDD5BC EQ PUSH2 0x335 JUMPI DUP1 PUSH4 0xF2FDE38B EQ PUSH2 0x354 JUMPI PUSH0 PUSH0 REVERT JUMPDEST DUP1 PUSH4 0x9403B634 EQ PUSH2 0x248 JUMPI DUP1 PUSH4 0x97331BF9 EQ PUSH2 0x267 JUMPI DUP1 PUSH4 0xA7C6A100 EQ PUSH2 0x288 JUMPI DUP1 PUSH4 0xAB31B6F3 EQ PUSH2 0x29C JUMPI PUSH0 PUSH0 REVERT JUMPDEST DUP1 PUSH4 0x52D1902D GT PUSH2 0xD8 JUMPI DUP1 PUSH4 0x52D1902D EQ PUSH2 0x198 JUMPI DUP1 PUSH4 0x545851D7 EQ PUSH2 0x1BA JUMPI DUP1 PUSH4 0x715018A6 EQ PUSH2 0x1D9 JUMPI DUP1 PUSH4 0x8DA5CB5B EQ PUSH2 0x1ED JUMPI DUP1 PUSH4 0x9094A91E EQ PUSH2 0x229 JUMPI PUSH0 PUSH0 REVERT JUMPDEST DUP1 PUSH4 0x3C46201D EQ PUSH2 0x109 JUMPI DUP1 PUSH4 0x485CC955 EQ PUSH2 0x145 JUMPI DUP1 PUSH4 0x4C39AD21 EQ PUSH2 0x166 JUMPI DUP1 PUSH4 0x4F1EF286 EQ PUSH2 0x185 JUMPI JUMPDEST PUSH0 PUSH0 REVERT JUMPDEST CALLVALUE DUP1 ISZERO PUSH2 0x114 JUMPI PUSH0 PUSH0 REVERT JUMPDEST POP PUSH1 0x2 SLOAD PUSH2 0x128 SWAP1 PUSH1 0x1 PUSH1 0x1 PUSH1 0xA0 SHL SUB AND DUP2 JUMP JUMPDEST PUSH1 0x40 MLOAD PUSH1 0x1 PUSH1 0x1 PUSH1 0xA0 SHL SUB SWAP1 SWAP2 AND DUP2 MSTORE PUSH1 0x20 ADD JUMPDEST PUSH1 0x40 MLOAD DUP1 SWAP2 SUB SWAP1 RETURN JUMPDEST CALLVALUE DUP1 ISZERO PUSH2 0x150 JUMPI PUSH0 PUSH0 REVERT JUMPDEST POP PUSH2 0x164 PUSH2 0x15F CALLDATASIZE PUSH1 0x4 PUSH2 0x10F2 JUMP JUMPDEST PUSH2 0x373 JUMP JUMPDEST STOP JUMPDEST CALLVALUE DUP1 ISZERO PUSH2 0x171 JUMPI PUSH0 PUSH0 REVERT JUMPDEST POP PUSH1 0x1 SLOAD PUSH2 0x128 SWAP1 PUSH1 0x1 PUSH1 0x1 PUSH1 0xA0 SHL SUB AND DUP2 JUMP JUMPDEST PUSH2 0x164 PUSH2 0x193 CALLDATASIZE PUSH1 0x4 PUSH2 0x1137 JUMP JUMPDEST PUSH2 0x4FF JUMP JUMPDEST CALLVALUE DUP1 ISZERO PUSH2 0x1A3 JUMPI PUSH0 PUSH0 REVERT JUMPDEST POP PUSH2 0x1AC PUSH2 0x51E JUMP JUMPDEST PUSH1 0x40 MLOAD SWAP1 DUP2 MSTORE PUSH1 0x20 ADD PUSH2 0x13C JUMP JUMPDEST CALLVALUE DUP1 ISZERO PUSH2 0x1C5 JUMPI PUSH0 PUSH0 REVERT JUMPDEST POP PUSH1 0x3 SLOAD PUSH2 0x128 SWAP1 PUSH1 0x1 PUSH1 0x1 PUSH1 0xA0 SHL SUB AND DUP2 JUMP JUMPDEST CALLVALUE DUP1 ISZERO PUSH2 0x1E4 JUMPI PUSH0 PUSH0 REVERT JUMPDEST POP PUSH2 0x164 PUSH2 0x539 JUMP JUMPDEST CALLVALUE DUP1 ISZERO PUSH2 0x1F8 JUMPI PUSH0 PUSH0 REVERT JUMPDEST POP PUSH32 0x9016D09D72D40FDAE2FD8CEAC6B6234C7706214FD39C1CD1E609A0528C199300 SLOAD PUSH1 0x1 PUSH1 0x1 PUSH1 0xA0 SHL SUB AND PUSH2 0x128 JUMP JUMPDEST CALLVALUE DUP1 ISZERO PUSH2 0x234 JUMPI PUSH0 PUSH0 REVERT JUMPDEST POP PUSH2 0x128 PUSH2 0x243 CALLDATASIZE PUSH1 0x4 PUSH2 0x11FB JUMP JUMPDEST PUSH2 0x54C JUMP JUMPDEST CALLVALUE DUP1 ISZERO PUSH2 0x253 JUMPI PUSH0 PUSH0 REVERT JUMPDEST POP PUSH2 0x128 PUSH2 0x262 CALLDATASIZE PUSH1 0x4 PUSH2 0x11FB JUMP JUMPDEST PUSH2 0x574 JUMP JUMPDEST CALLVALUE DUP1 ISZERO PUSH2 0x272 JUMPI PUSH0 PUSH0 REVERT JUMPDEST POP PUSH2 0x27B PUSH2 0x5F4 JUMP JUMPDEST PUSH1 0x40 MLOAD PUSH2 0x13C SWAP2 SWAP1 PUSH2 0x1212 JUMP JUMPDEST CALLVALUE DUP1 ISZERO PUSH2 0x293 JUMPI PUSH0 PUSH0 REVERT JUMPDEST POP PUSH1 0x4 SLOAD PUSH2 0x1AC JUMP JUMPDEST CALLVALUE DUP1 ISZERO PUSH2 0x2A7 JUMPI PUSH0 PUSH0 REVERT JUMPDEST POP PUSH2 0x164 PUSH2 0x2B6 CALLDATASIZE PUSH1 0x4 PUSH2 0x125D JUMP JUMPDEST PUSH2 0x654 JUMP JUMPDEST CALLVALUE DUP1 ISZERO PUSH2 0x2C6 JUMPI PUSH0 PUSH0 REVERT JUMPDEST POP PUSH2 0x2EB PUSH1 0x40 MLOAD DUP1 PUSH1 0x40 ADD PUSH1 0x40 MSTORE DUP1 PUSH1 0x5 DUP2 MSTORE PUSH1 0x20 ADD PUSH5 0x352E302E3 PUSH1 0xDC SHL DUP2 MSTORE POP DUP2 JUMP JUMPDEST PUSH1 0x40 MLOAD PUSH2 0x13C SWAP2 SWAP1 PUSH2 0x12EA JUMP JUMPDEST CALLVALUE DUP1 ISZERO PUSH2 0x303 JUMPI PUSH0 PUSH0 REVERT JUMPDEST POP PUSH0 SLOAD PUSH2 0x128 SWAP1 PUSH1 0x1 PUSH1 0x1 PUSH1 0xA0 SHL SUB AND DUP2 JUMP JUMPDEST CALLVALUE DUP1 ISZERO PUSH2 0x321 JUMPI PUSH0 PUSH0 REVERT JUMPDEST POP PUSH2 0x128 PUSH2 0x330 CALLDATASIZE PUSH1 0x4 PUSH2 0x1341 JUMP JUMPDEST PUSH2 0x7E2 JUMP JUMPDEST CALLVALUE DUP1 ISZERO PUSH2 0x340 JUMPI PUSH0 PUSH0 REVERT JUMPDEST POP PUSH2 0x164 PUSH2 0x34F CALLDATASIZE PUSH1 0x4 PUSH2 0x1403 JUMP JUMPDEST PUSH2 0xB52 JUMP JUMPDEST CALLVALUE DUP1 ISZERO PUSH2 0x35F JUMPI PUSH0 PUSH0 REVERT JUMPDEST POP PUSH2 0x164 PUSH2 0x36E CALLDATASIZE PUSH1 0x4 PUSH2 0x1403 JUMP JUMPDEST PUSH2 0xBD1 JUMP JUMPDEST PUSH32 0xF0C57E16840DF040F15088DC2F81FE391C3923BEC73E23A9662EFC9C229C6A00 DUP1 SLOAD PUSH1 0x1 PUSH1 0x40 SHL DUP2 DIV PUSH1 0xFF AND ISZERO SWAP1 PUSH8 0xFFFFFFFFFFFFFFFF AND PUSH0 DUP2 ISZERO DUP1 ISZERO PUSH2 0x3B8 JUMPI POP DUP3 JUMPDEST SWAP1 POP PUSH0 DUP3 PUSH8 0xFFFFFFFFFFFFFFFF AND PUSH1 0x1 EQ DUP1 ISZERO PUSH2 0x3D4 JUMPI POP ADDRESS EXTCODESIZE ISZERO JUMPDEST SWAP1 POP DUP2 ISZERO DUP1 ISZERO PUSH2 0x3E2 JUMPI POP DUP1 ISZERO JUMPDEST ISZERO PUSH2 0x400 JUMPI PUSH1 0x40 MLOAD PUSH4 0xF92EE8A9 PUSH1 0xE0 SHL DUP2 MSTORE PUSH1 0x4 ADD PUSH1 0x40 MLOAD DUP1 SWAP2 SUB SWAP1 REVERT JUMPDEST DUP5 SLOAD PUSH8 0xFFFFFFFFFFFFFFFF NOT AND PUSH1 0x1 OR DUP6 SSTORE DUP4 ISZERO PUSH2 0x42A JUMPI DUP5 SLOAD PUSH1 0xFF PUSH1 0x40 SHL NOT AND PUSH1 0x1 PUSH1 0x40 SHL OR DUP6 SSTORE JUMPDEST PUSH2 0x433 DUP7 PUSH2 0xC0E JUMP JUMPDEST PUSH2 0x43B PUSH2 0xC1F JUMP JUMPDEST PUSH1 0x1 PUSH1 0x1 PUSH1 0xA0 SHL SUB DUP8 AND PUSH2 0x496 JUMPI PUSH1 0x40 MLOAD PUSH3 0x461BCD PUSH1 0xE5 SHL DUP2 MSTORE PUSH1 0x20 PUSH1 0x4 DUP3 ADD DUP2 SWAP1 MSTORE PUSH1 0x24 DUP3 ADD MSTORE PUSH32 0x5661756C74466163746F72793A20696E76616C6964207661756C744C6F676963 PUSH1 0x44 DUP3 ADD MSTORE PUSH1 0x64 ADD JUMPDEST PUSH1 0x40 MLOAD DUP1 SWAP2 SUB SWAP1 REVERT JUMPDEST PUSH0 DUP1 SLOAD PUSH1 0x1 PUSH1 0x1 PUSH1 0xA0 SHL SUB NOT AND PUSH1 0x1 PUSH1 0x1 PUSH1 0xA0 SHL SUB DUP10 AND OR SWAP1 SSTORE DUP4 ISZERO PUSH2 0x4F6 JUMPI DUP5 SLOAD PUSH1 0xFF PUSH1 0x40 SHL NOT AND DUP6 SSTORE PUSH1 0x40 MLOAD PUSH1 0x1 DUP2 MSTORE PUSH32 0xC7F505B2F371AE2175EE4913F4499E1F2633A7B5936321EED1CDAEB6115181D2 SWAP1 PUSH1 0x20 ADD PUSH1 0x40 MLOAD DUP1 SWAP2 SUB SWAP1 LOG1 JUMPDEST POP POP POP POP POP POP POP JUMP JUMPDEST PUSH2 0x507 PUSH2 0xC27 JUMP JUMPDEST PUSH2 0x510 DUP3 PUSH2 0xCCB JUMP JUMPDEST PUSH2 0x51A DUP3 DUP3 PUSH2 0xCD3 JUMP JUMPDEST POP POP JUMP JUMPDEST PUSH0 PUSH2 0x527 PUSH2 0xD94 JUMP JUMPDEST POP PUSH0 MLOAD PUSH1 0x20 PUSH2 0x191D PUSH0 CODECOPY PUSH0 MLOAD SWAP1 PUSH0 MSTORE SWAP1 JUMP JUMPDEST PUSH2 0x541 PUSH2 0xDDD JUMP JUMPDEST PUSH2 0x54A PUSH0 PUSH2 0xE38 JUMP JUMPDEST JUMP JUMPDEST PUSH1 0x4 DUP2 DUP2 SLOAD DUP2 LT PUSH2 0x55B JUMPI PUSH0 DUP1 REVERT JUMPDEST PUSH0 SWAP2 DUP3 MSTORE PUSH1 0x20 SWAP1 SWAP2 KECCAK256 ADD SLOAD PUSH1 0x1 PUSH1 0x1 PUSH1 0xA0 SHL SUB AND SWAP1 POP DUP2 JUMP JUMPDEST PUSH1 0x4 SLOAD PUSH0 SWAP1 DUP3 LT PUSH2 0x5C7 JUMPI PUSH1 0x40 MLOAD PUSH3 0x461BCD PUSH1 0xE5 SHL DUP2 MSTORE PUSH1 0x20 PUSH1 0x4 DUP3 ADD MSTORE PUSH1 0x1A PUSH1 0x24 DUP3 ADD MSTORE PUSH32 0x5661756C74466163746F72793A206F7574206F662072616E6765000000000000 PUSH1 0x44 DUP3 ADD MSTORE PUSH1 0x64 ADD PUSH2 0x48D JUMP JUMPDEST PUSH1 0x4 DUP3 DUP2 SLOAD DUP2 LT PUSH2 0x5DA JUMPI PUSH2 0x5DA PUSH2 0x141C JUMP JUMPDEST PUSH0 SWAP2 DUP3 MSTORE PUSH1 0x20 SWAP1 SWAP2 KECCAK256 ADD SLOAD PUSH1 0x1 PUSH1 0x1 PUSH1 0xA0 SHL SUB AND SWAP3 SWAP2 POP POP JUMP JUMPDEST PUSH1 0x60 PUSH1 0x4 DUP1 SLOAD DUP1 PUSH1 0x20 MUL PUSH1 0x20 ADD PUSH1 0x40 MLOAD SWAP1 DUP2 ADD PUSH1 0x40 MSTORE DUP1 SWAP3 SWAP2 SWAP1 DUP2 DUP2 MSTORE PUSH1 0x20 ADD DUP3 DUP1 SLOAD DUP1 ISZERO PUSH2 0x64A JUMPI PUSH1 0x20 MUL DUP3 ADD SWAP2 SWAP1 PUSH0 MSTORE PUSH1 0x20 PUSH0 KECCAK256 SWAP1 JUMPDEST DUP2 SLOAD PUSH1 0x1 PUSH1 0x1 PUSH1 0xA0 SHL SUB AND DUP2 MSTORE PUSH1 0x1 SWAP1 SWAP2 ADD SWAP1 PUSH1 0x20 ADD DUP1 DUP4 GT PUSH2 0x62C JUMPI JUMPDEST POP POP POP POP POP SWAP1 POP SWAP1 JUMP JUMPDEST PUSH2 0x65C PUSH2 0xDDD JUMP JUMPDEST PUSH1 0x1 PUSH1 0x1 PUSH1 0xA0 SHL SUB DUP4 AND PUSH2 0x6B2 JUMPI PUSH1 0x40 MLOAD PUSH3 0x461BCD PUSH1 0xE5 SHL DUP2 MSTORE PUSH1 0x20 PUSH1 0x4 DUP3 ADD MSTORE PUSH1 0x1C PUSH1 0x24 DUP3 ADD MSTORE PUSH32 0x5661756C74466163746F72793A20696E76616C6964206F7261636C6500000000 PUSH1 0x44 DUP3 ADD MSTORE PUSH1 0x64 ADD PUSH2 0x48D JUMP JUMPDEST PUSH1 0x1 PUSH1 0x1 PUSH1 0xA0 SHL SUB DUP3 AND PUSH2 0x708 JUMPI PUSH1 0x40 MLOAD PUSH3 0x461BCD PUSH1 0xE5 SHL DUP2 MSTORE PUSH1 0x20 PUSH1 0x4 DUP3 ADD DUP2 SWAP1 MSTORE PUSH1 0x24 DUP3 ADD MSTORE PUSH32 0x5661756C74466163746F72793A20696E76616C696420726562616C616E636572 PUSH1 0x44 DUP3 ADD MSTORE PUSH1 0x64 ADD PUSH2 0x48D JUMP JUMPDEST PUSH1 0x1 PUSH1 0x1 PUSH1 0xA0 SHL SUB DUP2 AND PUSH2 0x75E JUMPI PUSH1 0x40 MLOAD PUSH3 0x461BCD PUSH1 0xE5 SHL DUP2 MSTORE PUSH1 0x20 PUSH1 0x4 DUP3 ADD DUP2 SWAP1 MSTORE PUSH1 0x24 DUP3 ADD MSTORE PUSH32 0x5661756C74466163746F72793A20696E76616C6964206C697175696461746F72 PUSH1 0x44 DUP3 ADD MSTORE PUSH1 0x64 ADD PUSH2 0x48D JUMP JUMPDEST PUSH1 0x1 DUP1 SLOAD PUSH1 0x1 PUSH1 0x1 PUSH1 0xA0 SHL SUB DUP6 DUP2 AND PUSH1 0x1 PUSH1 0x1 PUSH1 0xA0 SHL SUB NOT SWAP3 DUP4 AND DUP2 OR SWAP1 SWAP4 SSTORE PUSH1 0x2 DUP1 SLOAD DUP7 DUP4 AND SWAP1 DUP5 AND DUP2 OR SWAP1 SWAP2 SSTORE PUSH1 0x3 DUP1 SLOAD SWAP3 DUP7 AND SWAP3 SWAP1 SWAP4 AND DUP3 OR SWAP1 SWAP3 SSTORE PUSH1 0x40 DUP1 MLOAD SWAP4 DUP5 MSTORE PUSH1 0x20 DUP5 ADD SWAP3 SWAP1 SWAP3 MSTORE SWAP1 DUP3 ADD MSTORE PUSH32 0x43D676EF005D9B31F20857CA4015E161D6C2337206DC3487AED30B7B4C1CEFC3 SWAP1 PUSH1 0x60 ADD PUSH1 0x40 MLOAD DUP1 SWAP2 SUB SWAP1 LOG1 POP POP POP JUMP JUMPDEST PUSH0 PUSH1 0x1 PUSH1 0x1 PUSH1 0xA0 SHL SUB DUP11 AND PUSH2 0x839 JUMPI PUSH1 0x40 MLOAD PUSH3 0x461BCD PUSH1 0xE5 SHL DUP2 MSTORE PUSH1 0x20 PUSH1 0x4 DUP3 ADD MSTORE PUSH1 0x1C PUSH1 0x24 DUP3 ADD MSTORE PUSH32 0x5661756C74466163746F72793A20696E76616C6964207633506F6F6C00000000 PUSH1 0x44 DUP3 ADD MSTORE PUSH1 0x64 ADD PUSH2 0x48D JUMP JUMPDEST PUSH1 0x1 PUSH1 0x1 PUSH1 0xA0 SHL SUB DUP10 AND PUSH2 0x899 JUMPI PUSH1 0x40 MLOAD PUSH3 0x461BCD PUSH1 0xE5 SHL DUP2 MSTORE PUSH1 0x20 PUSH1 0x4 DUP3 ADD MSTORE PUSH1 0x21 PUSH1 0x24 DUP3 ADD MSTORE PUSH32 0x5661756C74466163746F72793A20696E76616C696420706F736974696F6E4D67 PUSH1 0x44 DUP3 ADD MSTORE PUSH1 0x39 PUSH1 0xF9 SHL PUSH1 0x64 DUP3 ADD MSTORE PUSH1 0x84 ADD PUSH2 0x48D JUMP JUMPDEST PUSH0 PUSH1 0x1 PUSH1 0x1 PUSH1 0xA0 SHL SUB DUP10 AND ISZERO PUSH2 0x8AF JUMPI DUP9 PUSH2 0x8BC JUMP JUMPDEST PUSH1 0x1 SLOAD PUSH1 0x1 PUSH1 0x1 PUSH1 0xA0 SHL SUB AND JUMPDEST SWAP1 POP PUSH0 PUSH1 0x1 PUSH1 0x1 PUSH1 0xA0 SHL SUB DUP10 AND ISZERO PUSH2 0x8D4 JUMPI DUP9 PUSH2 0x8E1 JUMP JUMPDEST PUSH1 0x2 SLOAD PUSH1 0x1 PUSH1 0x1 PUSH1 0xA0 SHL SUB AND JUMPDEST SWAP1 POP PUSH0 PUSH1 0x1 PUSH1 0x1 PUSH1 0xA0 SHL SUB DUP10 AND ISZERO PUSH2 0x8F9 JUMPI DUP9 PUSH2 0x906 JUMP JUMPDEST PUSH1 0x3 SLOAD PUSH1 0x1 PUSH1 0x1 PUSH1 0xA0 SHL SUB AND JUMPDEST SWAP1 POP PUSH1 0x1 PUSH1 0x1 PUSH1 0xA0 SHL SUB DUP4 AND PUSH2 0x95E JUMPI PUSH1 0x40 MLOAD PUSH3 0x461BCD PUSH1 0xE5 SHL DUP2 MSTORE PUSH1 0x20 PUSH1 0x4 DUP3 ADD MSTORE PUSH1 0x17 PUSH1 0x24 DUP3 ADD MSTORE PUSH32 0x5661756C74466163746F72793A206E6F206F7261636C65000000000000000000 PUSH1 0x44 DUP3 ADD MSTORE PUSH1 0x64 ADD PUSH2 0x48D JUMP JUMPDEST PUSH1 0x1 PUSH1 0x1 PUSH1 0xA0 SHL SUB DUP3 AND PUSH2 0x9B4 JUMPI PUSH1 0x40 MLOAD PUSH3 0x461BCD PUSH1 0xE5 SHL DUP2 MSTORE PUSH1 0x20 PUSH1 0x4 DUP3 ADD MSTORE PUSH1 0x1B PUSH1 0x24 DUP3 ADD MSTORE PUSH32 0x5661756C74466163746F72793A206E6F20726562616C616E6365720000000000 PUSH1 0x44 DUP3 ADD MSTORE PUSH1 0x64 ADD PUSH2 0x48D JUMP JUMPDEST PUSH1 0x1 PUSH1 0x1 PUSH1 0xA0 SHL SUB DUP2 AND PUSH2 0xA0A JUMPI PUSH1 0x40 MLOAD PUSH3 0x461BCD PUSH1 0xE5 SHL DUP2 MSTORE PUSH1 0x20 PUSH1 0x4 DUP3 ADD MSTORE PUSH1 0x1B PUSH1 0x24 DUP3 ADD MSTORE PUSH32 0x5661756C74466163746F72793A206E6F206C697175696461746F720000000000 PUSH1 0x44 DUP3 ADD MSTORE PUSH1 0x64 ADD PUSH2 0x48D JUMP JUMPDEST PUSH0 PUSH4 0xEF090E4C PUSH1 0xE0 SHL DUP15 DUP15 DUP7 DUP7 DUP7 CALLER DUP16 DUP16 DUP16 DUP16 PUSH1 0x40 MLOAD PUSH1 0x24 ADD PUSH2 0xA36 SWAP11 SWAP10 SWAP9 SWAP8 SWAP7 SWAP6 SWAP5 SWAP4 SWAP3 SWAP2 SWAP1 PUSH2 0x1458 JUMP JUMPDEST PUSH1 0x40 DUP1 MLOAD PUSH1 0x1F NOT DUP2 DUP5 SUB ADD DUP2 MSTORE SWAP2 DUP2 MSTORE PUSH1 0x20 DUP3 ADD DUP1 MLOAD PUSH1 0x1 PUSH1 0x1 PUSH1 0xE0 SHL SUB AND PUSH1 0x1 PUSH1 0x1 PUSH1 0xE0 SHL SUB NOT SWAP1 SWAP5 AND SWAP4 SWAP1 SWAP4 OR SWAP1 SWAP3 MSTORE PUSH0 DUP1 SLOAD SWAP3 MLOAD SWAP2 SWAP4 POP SWAP2 PUSH1 0x1 PUSH1 0x1 PUSH1 0xA0 SHL SUB AND SWAP1 DUP4 SWAP1 PUSH2 0xA86 SWAP1 PUSH2 0x10CA JUMP JUMPDEST PUSH2 0xA91 SWAP3 SWAP2 SWAP1 PUSH2 0x14C9 JUMP JUMPDEST PUSH1 0x40 MLOAD DUP1 SWAP2 SUB SWAP1 PUSH0 CREATE DUP1 ISZERO DUP1 ISZERO PUSH2 0xAAA JUMPI RETURNDATASIZE PUSH0 PUSH0 RETURNDATACOPY RETURNDATASIZE PUSH0 REVERT JUMPDEST POP SWAP1 POP DUP1 SWAP6 POP PUSH1 0x4 DUP7 SWAP1 DUP1 PUSH1 0x1 DUP2 SLOAD ADD DUP1 DUP3 SSTORE DUP1 SWAP2 POP POP PUSH1 0x1 SWAP1 SUB SWAP1 PUSH0 MSTORE PUSH1 0x20 PUSH0 KECCAK256 ADD PUSH0 SWAP1 SWAP2 SWAP1 SWAP2 SWAP1 SWAP2 PUSH2 0x100 EXP DUP2 SLOAD DUP2 PUSH1 0x1 PUSH1 0x1 PUSH1 0xA0 SHL SUB MUL NOT AND SWAP1 DUP4 PUSH1 0x1 PUSH1 0x1 PUSH1 0xA0 SHL SUB AND MUL OR SWAP1 SSTORE POP DUP15 PUSH1 0x1 PUSH1 0x1 PUSH1 0xA0 SHL SUB AND CALLER PUSH1 0x1 PUSH1 0x1 PUSH1 0xA0 SHL SUB AND DUP8 PUSH1 0x1 PUSH1 0x1 PUSH1 0xA0 SHL SUB AND PUSH32 0x897C133DFBFE1F6239E98B4FFD7E4F6C86A62350A131A7A37790419F58AF02F9 PUSH1 0x40 MLOAD PUSH1 0x40 MLOAD DUP1 SWAP2 SUB SWAP1 LOG4 POP POP POP POP POP SWAP10 SWAP9 POP POP POP POP POP POP POP POP POP JUMP JUMPDEST PUSH2 0xB5A PUSH2 0xDDD JUMP JUMPDEST PUSH1 0x1 PUSH1 0x1 PUSH1 0xA0 SHL SUB DUP2 AND PUSH2 0xBB0 JUMPI PUSH1 0x40 MLOAD PUSH3 0x461BCD PUSH1 0xE5 SHL DUP2 MSTORE PUSH1 0x20 PUSH1 0x4 DUP3 ADD MSTORE PUSH1 0x1B PUSH1 0x24 DUP3 ADD MSTORE PUSH32 0x5661756C74466163746F72793A20696E76616C6964206C6F6769630000000000 PUSH1 0x44 DUP3 ADD MSTORE PUSH1 0x64 ADD PUSH2 0x48D JUMP JUMPDEST PUSH0 DUP1 SLOAD PUSH1 0x1 PUSH1 0x1 PUSH1 0xA0 SHL SUB NOT AND PUSH1 0x1 PUSH1 0x1 PUSH1 0xA0 SHL SUB SWAP3 SWAP1 SWAP3 AND SWAP2 SWAP1 SWAP2 OR SWAP1 SSTORE JUMP JUMPDEST PUSH2 0xBD9 PUSH2 0xDDD JUMP JUMPDEST PUSH1 0x1 PUSH1 0x1 PUSH1 0xA0 SHL SUB DUP2 AND PUSH2 0xC02 JUMPI PUSH1 0x40 MLOAD PUSH4 0x1E4FBDF7 PUSH1 0xE0 SHL DUP2 MSTORE PUSH0 PUSH1 0x4 DUP3 ADD MSTORE PUSH1 0x24 ADD PUSH2 0x48D JUMP JUMPDEST PUSH2 0xC0B DUP2 PUSH2 0xE38 JUMP JUMPDEST POP JUMP JUMPDEST PUSH2 0xC16 PUSH2 0xEA8 JUMP JUMPDEST PUSH2 0xC0B DUP2 PUSH2 0xEF1 JUMP JUMPDEST PUSH2 0x54A PUSH2 0xEA8 JUMP JUMPDEST ADDRESS PUSH1 0x1 PUSH1 0x1 PUSH1 0xA0 SHL SUB PUSH32 0x0 AND EQ DUP1 PUSH2 0xCAD JUMPI POP PUSH32 0x0 PUSH1 0x1 PUSH1 0x1 PUSH1 0xA0 SHL SUB AND PUSH2 0xCA1 PUSH0 MLOAD PUSH1 0x20 PUSH2 0x191D PUSH0 CODECOPY PUSH0 MLOAD SWAP1 PUSH0 MSTORE SLOAD PUSH1 0x1 PUSH1 0x1 PUSH1 0xA0 SHL SUB AND SWAP1 JUMP JUMPDEST PUSH1 0x1 PUSH1 0x1 PUSH1 0xA0 SHL SUB AND EQ ISZERO JUMPDEST ISZERO PUSH2 0x54A JUMPI PUSH1 0x40 MLOAD PUSH4 0x703E46DD PUSH1 0xE1 SHL DUP2 MSTORE PUSH1 0x4 ADD PUSH1 0x40 MLOAD DUP1 SWAP2 SUB SWAP1 REVERT JUMPDEST PUSH2 0xC0B PUSH2 0xDDD JUMP JUMPDEST DUP2 PUSH1 0x1 PUSH1 0x1 PUSH1 0xA0 SHL SUB AND PUSH4 0x52D1902D PUSH1 0x40 MLOAD DUP2 PUSH4 0xFFFFFFFF AND PUSH1 0xE0 SHL DUP2 MSTORE PUSH1 0x4 ADD PUSH1 0x20 PUSH1 0x40 MLOAD DUP1 DUP4 SUB DUP2 DUP7 GAS STATICCALL SWAP3 POP POP POP DUP1 ISZERO PUSH2 0xD2D JUMPI POP PUSH1 0x40 DUP1 MLOAD PUSH1 0x1F RETURNDATASIZE SWAP1 DUP2 ADD PUSH1 0x1F NOT AND DUP3 ADD SWAP1 SWAP3 MSTORE PUSH2 0xD2A SWAP2 DUP2 ADD SWAP1 PUSH2 0x14F4 JUMP JUMPDEST PUSH1 0x1 JUMPDEST PUSH2 0xD55 JUMPI PUSH1 0x40 MLOAD PUSH4 0x4C9C8CE3 PUSH1 0xE0 SHL DUP2 MSTORE PUSH1 0x1 PUSH1 0x1 PUSH1 0xA0 SHL SUB DUP4 AND PUSH1 0x4 DUP3 ADD MSTORE PUSH1 0x24 ADD PUSH2 0x48D JUMP JUMPDEST PUSH0 MLOAD PUSH1 0x20 PUSH2 0x191D PUSH0 CODECOPY PUSH0 MLOAD SWAP1 PUSH0 MSTORE DUP2 EQ PUSH2 0xD85 JUMPI PUSH1 0x40 MLOAD PUSH4 0x2A875269 PUSH1 0xE2 SHL DUP2 MSTORE PUSH1 0x4 DUP2 ADD DUP3 SWAP1 MSTORE PUSH1 0x24 ADD PUSH2 0x48D JUMP JUMPDEST PUSH2 0xD8F DUP4 DUP4 PUSH2 0xEF9 JUMP JUMPDEST POP POP POP JUMP JUMPDEST ADDRESS PUSH1 0x1 PUSH1 0x1 PUSH1 0xA0 SHL SUB PUSH32 0x0 AND EQ PUSH2 0x54A JUMPI PUSH1 0x40 MLOAD PUSH4 0x703E46DD PUSH1 0xE1 SHL DUP2 MSTORE PUSH1 0x4 ADD PUSH1 0x40 MLOAD DUP1 SWAP2 SUB SWAP1 REVERT JUMPDEST CALLER PUSH2 0xE0F PUSH32 0x9016D09D72D40FDAE2FD8CEAC6B6234C7706214FD39C1CD1E609A0528C199300 SLOAD PUSH1 0x1 PUSH1 0x1 PUSH1 0xA0 SHL SUB AND SWAP1 JUMP JUMPDEST PUSH1 0x1 PUSH1 0x1 PUSH1 0xA0 SHL SUB AND EQ PUSH2 0x54A JUMPI PUSH1 0x40 MLOAD PUSH4 0x118CDAA7 PUSH1 0xE0 SHL DUP2 MSTORE CALLER PUSH1 0x4 DUP3 ADD MSTORE PUSH1 0x24 ADD PUSH2 0x48D JUMP JUMPDEST PUSH32 0x9016D09D72D40FDAE2FD8CEAC6B6234C7706214FD39C1CD1E609A0528C199300 DUP1 SLOAD PUSH1 0x1 PUSH1 0x1 PUSH1 0xA0 SHL SUB NOT DUP2 AND PUSH1 0x1 PUSH1 0x1 PUSH1 0xA0 SHL SUB DUP5 DUP2 AND SWAP2 DUP3 OR DUP5 SSTORE PUSH1 0x40 MLOAD SWAP3 AND SWAP2 DUP3 SWAP1 PUSH32 0x8BE0079C531659141344CD1FD0A4F28419497F9722A3DAAFE3B4186F6B6457E0 SWAP1 PUSH0 SWAP1 LOG3 POP POP POP JUMP JUMPDEST PUSH32 0xF0C57E16840DF040F15088DC2F81FE391C3923BEC73E23A9662EFC9C229C6A00 SLOAD PUSH1 0x1 PUSH1 0x40 SHL SWAP1 DIV PUSH1 0xFF AND PUSH2 0x54A JUMPI PUSH1 0x40 MLOAD PUSH4 0x1AFCD79F PUSH1 0xE3 SHL DUP2 MSTORE PUSH1 0x4 ADD PUSH1 0x40 MLOAD DUP1 SWAP2 SUB SWAP1 REVERT JUMPDEST PUSH2 0xBD9 PUSH2 0xEA8 JUMP JUMPDEST PUSH2 0xF02 DUP3 PUSH2 0xF4E JUMP JUMPDEST PUSH1 0x40 MLOAD PUSH1 0x1 PUSH1 0x1 PUSH1 0xA0 SHL SUB DUP4 AND SWAP1 PUSH32 0xBC7CD75A20EE27FD9ADEBAB32041F755214DBC6BFFA90CC0225B39DA2E5C2D3B SWAP1 PUSH0 SWAP1 LOG2 DUP1 MLOAD ISZERO PUSH2 0xF46 JUMPI PUSH2 0xD8F DUP3 DUP3 PUSH2 0xFB1 JUMP JUMPDEST PUSH2 0x51A PUSH2 0x1023 JUMP JUMPDEST DUP1 PUSH1 0x1 PUSH1 0x1 PUSH1 0xA0 SHL SUB AND EXTCODESIZE PUSH0 SUB PUSH2 0xF83 JUMPI PUSH1 0x40 MLOAD PUSH4 0x4C9C8CE3 PUSH1 0xE0 SHL DUP2 MSTORE PUSH1 0x1 PUSH1 0x1 PUSH1 0xA0 SHL SUB DUP3 AND PUSH1 0x4 DUP3 ADD MSTORE PUSH1 0x24 ADD PUSH2 0x48D JUMP JUMPDEST PUSH0 MLOAD PUSH1 0x20 PUSH2 0x191D PUSH0 CODECOPY PUSH0 MLOAD SWAP1 PUSH0 MSTORE DUP1 SLOAD PUSH1 0x1 PUSH1 0x1 PUSH1 0xA0 SHL SUB NOT AND PUSH1 0x1 PUSH1 0x1 PUSH1 0xA0 SHL SUB SWAP3 SWAP1 SWAP3 AND SWAP2 SWAP1 SWAP2 OR SWAP1 SSTORE JUMP JUMPDEST PUSH1 0x60 PUSH0 PUSH0 DUP5 PUSH1 0x1 PUSH1 0x1 PUSH1 0xA0 SHL SUB AND DUP5 PUSH1 0x40 MLOAD PUSH2 0xFCD SWAP2 SWAP1 PUSH2 0x150B JUMP JUMPDEST PUSH0 PUSH1 0x40 MLOAD DUP1 DUP4 SUB DUP2 DUP6 GAS DELEGATECALL SWAP2 POP POP RETURNDATASIZE DUP1 PUSH0 DUP2 EQ PUSH2 0x1005 JUMPI PUSH1 0x40 MLOAD SWAP2 POP PUSH1 0x1F NOT PUSH1 0x3F RETURNDATASIZE ADD AND DUP3 ADD PUSH1 0x40 MSTORE RETURNDATASIZE DUP3 MSTORE RETURNDATASIZE PUSH0 PUSH1 0x20 DUP5 ADD RETURNDATACOPY PUSH2 0x100A JUMP JUMPDEST PUSH1 0x60 SWAP2 POP JUMPDEST POP SWAP2 POP SWAP2 POP PUSH2 0x101A DUP6 DUP4 DUP4 PUSH2 0x1042 JUMP JUMPDEST SWAP6 SWAP5 POP POP POP POP POP JUMP JUMPDEST CALLVALUE ISZERO PUSH2 0x54A JUMPI PUSH1 0x40 MLOAD PUSH4 0xB398979F PUSH1 0xE0 SHL DUP2 MSTORE PUSH1 0x4 ADD PUSH1 0x40 MLOAD DUP1 SWAP2 SUB SWAP1 REVERT JUMPDEST PUSH1 0x60 DUP3 PUSH2 0x1057 JUMPI PUSH2 0x1052 DUP3 PUSH2 0x10A1 JUMP JUMPDEST PUSH2 0x109A JUMP JUMPDEST DUP2 MLOAD ISZERO DUP1 ISZERO PUSH2 0x106E JUMPI POP PUSH1 0x1 PUSH1 0x1 PUSH1 0xA0 SHL SUB DUP5 AND EXTCODESIZE ISZERO JUMPDEST ISZERO PUSH2 0x1097 JUMPI PUSH1 0x40 MLOAD PUSH4 0x9996B315 PUSH1 0xE0 SHL DUP2 MSTORE PUSH1 0x1 PUSH1 0x1 PUSH1 0xA0 SHL SUB DUP6 AND PUSH1 0x4 DUP3 ADD MSTORE PUSH1 0x24 ADD PUSH2 0x48D JUMP JUMPDEST POP DUP1 JUMPDEST SWAP4 SWAP3 POP POP POP JUMP JUMPDEST DUP1 MLOAD ISZERO PUSH2 0x10B1 JUMPI DUP1 MLOAD DUP1 DUP3 PUSH1 0x20 ADD REVERT JUMPDEST PUSH1 0x40 MLOAD PUSH4 0xD6BDA275 PUSH1 0xE0 SHL DUP2 MSTORE PUSH1 0x4 ADD PUSH1 0x40 MLOAD DUP1 SWAP2 SUB SWAP1 REVERT JUMPDEST PUSH2 0x3F6 DUP1 PUSH2 0x1527 DUP4 CODECOPY ADD SWAP1 JUMP JUMPDEST DUP1 CALLDATALOAD PUSH1 0x1 PUSH1 0x1 PUSH1 0xA0 SHL SUB DUP2 AND DUP2 EQ PUSH2 0x10ED JUMPI PUSH0 PUSH0 REVERT JUMPDEST SWAP2 SWAP1 POP JUMP JUMPDEST PUSH0 PUSH0 PUSH1 0x40 DUP4 DUP6 SUB SLT ISZERO PUSH2 0x1103 JUMPI PUSH0 PUSH0 REVERT JUMPDEST PUSH2 0x110C DUP4 PUSH2 0x10D7 JUMP JUMPDEST SWAP2 POP PUSH2 0x111A PUSH1 0x20 DUP5 ADD PUSH2 0x10D7 JUMP JUMPDEST SWAP1 POP SWAP3 POP SWAP3 SWAP1 POP JUMP JUMPDEST PUSH4 0x4E487B71 PUSH1 0xE0 SHL PUSH0 MSTORE PUSH1 0x41 PUSH1 0x4 MSTORE PUSH1 0x24 PUSH0 REVERT JUMPDEST PUSH0 PUSH0 PUSH1 0x40 DUP4 DUP6 SUB SLT ISZERO PUSH2 0x1148 JUMPI PUSH0 PUSH0 REVERT JUMPDEST PUSH2 0x1151 DUP4 PUSH2 0x10D7 JUMP JUMPDEST SWAP2 POP PUSH1 0x20 DUP4 ADD CALLDATALOAD PUSH8 0xFFFFFFFFFFFFFFFF DUP2 GT ISZERO PUSH2 0x116C JUMPI PUSH0 PUSH0 REVERT JUMPDEST DUP4 ADD PUSH1 0x1F DUP2 ADD DUP6 SGT PUSH2 0x117C JUMPI PUSH0 PUSH0 REVERT JUMPDEST DUP1 CALLDATALOAD PUSH8 0xFFFFFFFFFFFFFFFF DUP2 GT ISZERO PUSH2 0x1196 JUMPI PUSH2 0x1196 PUSH2 0x1123 JUMP JUMPDEST PUSH1 0x40 MLOAD PUSH1 0x1F DUP3 ADD PUSH1 0x1F NOT SWAP1 DUP2 AND PUSH1 0x3F ADD AND DUP2 ADD PUSH8 0xFFFFFFFFFFFFFFFF DUP2 GT DUP3 DUP3 LT OR ISZERO PUSH2 0x11C5 JUMPI PUSH2 0x11C5 PUSH2 0x1123 JUMP JUMPDEST PUSH1 0x40 MSTORE DUP2 DUP2 MSTORE DUP3 DUP3 ADD PUSH1 0x20 ADD DUP8 LT ISZERO PUSH2 0x11DC JUMPI PUSH0 PUSH0 REVERT JUMPDEST DUP2 PUSH1 0x20 DUP5 ADD PUSH1 0x20 DUP4 ADD CALLDATACOPY PUSH0 PUSH1 0x20 DUP4 DUP4 ADD ADD MSTORE DUP1 SWAP4 POP POP POP POP SWAP3 POP SWAP3 SWAP1 POP JUMP JUMPDEST PUSH0 PUSH1 0x20 DUP3 DUP5 SUB SLT ISZERO PUSH2 0x120B JUMPI PUSH0 PUSH0 REVERT JUMPDEST POP CALLDATALOAD SWAP2 SWAP1 POP JUMP JUMPDEST PUSH1 0x20 DUP1 DUP3 MSTORE DUP3 MLOAD DUP3 DUP3 ADD DUP2 SWAP1 MSTORE PUSH0 SWAP2 DUP5 ADD SWAP1 PUSH1 0x40 DUP5 ADD SWAP1 DUP4 JUMPDEST DUP2 DUP2 LT ISZERO PUSH2 0x1252 JUMPI DUP4 MLOAD PUSH1 0x1 PUSH1 0x1 PUSH1 0xA0 SHL SUB AND DUP4 MSTORE PUSH1 0x20 SWAP4 DUP5 ADD SWAP4 SWAP1 SWAP3 ADD SWAP2 PUSH1 0x1 ADD PUSH2 0x122B JUMP JUMPDEST POP SWAP1 SWAP6 SWAP5 POP POP POP POP POP JUMP JUMPDEST PUSH0 PUSH0 PUSH0 PUSH1 0x60 DUP5 DUP7 SUB SLT ISZERO PUSH2 0x126F JUMPI PUSH0 PUSH0 REVERT JUMPDEST PUSH2 0x1278 DUP5 PUSH2 0x10D7 JUMP JUMPDEST SWAP3 POP PUSH2 0x1286 PUSH1 0x20 DUP6 ADD PUSH2 0x10D7 JUMP JUMPDEST SWAP2 POP PUSH2 0x1294 PUSH1 0x40 DUP6 ADD PUSH2 0x10D7 JUMP JUMPDEST SWAP1 POP SWAP3 POP SWAP3 POP SWAP3 JUMP JUMPDEST PUSH0 JUMPDEST DUP4 DUP2 LT ISZERO PUSH2 0x12B7 JUMPI DUP2 DUP2 ADD MLOAD DUP4 DUP3 ADD MSTORE PUSH1 0x20 ADD PUSH2 0x129F JUMP JUMPDEST POP POP PUSH0 SWAP2 ADD MSTORE JUMP JUMPDEST PUSH0 DUP2 MLOAD DUP1 DUP5 MSTORE PUSH2 0x12D6 DUP2 PUSH1 0x20 DUP7 ADD PUSH1 0x20 DUP7 ADD PUSH2 0x129D JUMP JUMPDEST PUSH1 0x1F ADD PUSH1 0x1F NOT AND SWAP3 SWAP1 SWAP3 ADD PUSH1 0x20 ADD SWAP3 SWAP2 POP POP JUMP JUMPDEST PUSH1 0x20 DUP2 MSTORE PUSH0 PUSH2 0x109A PUSH1 0x20 DUP4 ADD DUP5 PUSH2 0x12BF JUMP JUMPDEST PUSH0 PUSH0 DUP4 PUSH1 0x1F DUP5 ADD SLT PUSH2 0x130C JUMPI PUSH0 PUSH0 REVERT JUMPDEST POP DUP2 CALLDATALOAD PUSH8 0xFFFFFFFFFFFFFFFF DUP2 GT ISZERO PUSH2 0x1323 JUMPI PUSH0 PUSH0 REVERT JUMPDEST PUSH1 0x20 DUP4 ADD SWAP2 POP DUP4 PUSH1 0x20 DUP3 DUP6 ADD ADD GT ISZERO PUSH2 0x133A JUMPI PUSH0 PUSH0 REVERT JUMPDEST SWAP3 POP SWAP3 SWAP1 POP JUMP JUMPDEST PUSH0 PUSH0 PUSH0 PUSH0 PUSH0 PUSH0 PUSH0 PUSH0 PUSH0 PUSH1 0xE0 DUP11 DUP13 SUB SLT ISZERO PUSH2 0x1359 JUMPI PUSH0 PUSH0 REVERT JUMPDEST PUSH2 0x1362 DUP11 PUSH2 0x10D7 JUMP JUMPDEST SWAP9 POP PUSH2 0x1370 PUSH1 0x20 DUP12 ADD PUSH2 0x10D7 JUMP JUMPDEST SWAP8 POP PUSH2 0x137E PUSH1 0x40 DUP12 ADD PUSH2 0x10D7 JUMP JUMPDEST SWAP7 POP PUSH2 0x138C PUSH1 0x60 DUP12 ADD PUSH2 0x10D7 JUMP JUMPDEST SWAP6 POP PUSH2 0x139A PUSH1 0x80 DUP12 ADD PUSH2 0x10D7 JUMP JUMPDEST SWAP5 POP PUSH1 0xA0 DUP11 ADD CALLDATALOAD PUSH8 0xFFFFFFFFFFFFFFFF DUP2 GT ISZERO PUSH2 0x13B5 JUMPI PUSH0 PUSH0 REVERT JUMPDEST PUSH2 0x13C1 DUP13 DUP3 DUP14 ADD PUSH2 0x12FC JUMP JUMPDEST SWAP1 SWAP6 POP SWAP4 POP POP PUSH1 0xC0 DUP11 ADD CALLDATALOAD PUSH8 0xFFFFFFFFFFFFFFFF DUP2 GT ISZERO PUSH2 0x13E0 JUMPI PUSH0 PUSH0 REVERT JUMPDEST PUSH2 0x13EC DUP13 DUP3 DUP14 ADD PUSH2 0x12FC JUMP JUMPDEST SWAP2 POP DUP1 SWAP4 POP POP DUP1 SWAP2 POP POP SWAP3 SWAP6 SWAP9 POP SWAP3 SWAP6 SWAP9 POP SWAP3 SWAP6 SWAP9 JUMP JUMPDEST PUSH0 PUSH1 0x20 DUP3 DUP5 SUB SLT ISZERO PUSH2 0x1413 JUMPI PUSH0 PUSH0 REVERT JUMPDEST PUSH2 0x109A DUP3 PUSH2 0x10D7 JUMP JUMPDEST PUSH4 0x4E487B71 PUSH1 0xE0 SHL PUSH0 MSTORE PUSH1 0x32 PUSH1 0x4 MSTORE PUSH1 0x24 PUSH0 REVERT JUMPDEST DUP2 DUP4 MSTORE DUP2 DUP2 PUSH1 0x20 DUP6 ADD CALLDATACOPY POP PUSH0 DUP3 DUP3 ADD PUSH1 0x20 SWAP1 DUP2 ADD SWAP2 SWAP1 SWAP2 MSTORE PUSH1 0x1F SWAP1 SWAP2 ADD PUSH1 0x1F NOT AND SWAP1 SWAP2 ADD ADD SWAP1 JUMP JUMPDEST PUSH1 0x1 PUSH1 0x1 PUSH1 0xA0 SHL SUB DUP12 DUP2 AND DUP3 MSTORE DUP11 DUP2 AND PUSH1 0x20 DUP4 ADD MSTORE DUP10 DUP2 AND PUSH1 0x40 DUP4 ADD MSTORE DUP9 DUP2 AND PUSH1 0x60 DUP4 ADD MSTORE DUP8 DUP2 AND PUSH1 0x80 DUP4 ADD MSTORE DUP7 AND PUSH1 0xA0 DUP3 ADD MSTORE PUSH2 0x100 PUSH1 0xC0 DUP3 ADD DUP2 SWAP1 MSTORE PUSH0 SWAP1 PUSH2 0x14A5 SWAP1 DUP4 ADD DUP7 DUP9 PUSH2 0x1430 JUMP JUMPDEST DUP3 DUP2 SUB PUSH1 0xE0 DUP5 ADD MSTORE PUSH2 0x14B8 DUP2 DUP6 DUP8 PUSH2 0x1430 JUMP JUMPDEST SWAP14 SWAP13 POP POP POP POP POP POP POP POP POP POP POP POP POP JUMP JUMPDEST PUSH1 0x1 PUSH1 0x1 PUSH1 0xA0 SHL SUB DUP4 AND DUP2 MSTORE PUSH1 0x40 PUSH1 0x20 DUP3 ADD DUP2 SWAP1 MSTORE PUSH0 SWAP1 PUSH2 0x14EC SWAP1 DUP4 ADD DUP5 PUSH2 0x12BF JUMP JUMPDEST SWAP5 SWAP4 POP POP POP POP JUMP JUMPDEST PUSH0 PUSH1 0x20 DUP3 DUP5 SUB SLT ISZERO PUSH2 0x1504 JUMPI PUSH0 PUSH0 REVERT JUMPDEST POP MLOAD SWAP2 SWAP1 POP JUMP JUMPDEST PUSH0 DUP3 MLOAD PUSH2 0x151C DUP2 DUP5 PUSH1 0x20 DUP8 ADD PUSH2 0x129D JUMP JUMPDEST SWAP2 SWAP1 SWAP2 ADD SWAP3 SWAP2 POP POP JUMP INVALID PUSH1 0x80 PUSH1 0x40 MSTORE PUSH1 0x40 MLOAD PUSH2 0x3F6 CODESIZE SUB DUP1 PUSH2 0x3F6 DUP4 CODECOPY DUP2 ADD PUSH1 0x40 DUP2 SWAP1 MSTORE PUSH2 0x22 SWAP2 PUSH2 0x25E JUMP JUMPDEST PUSH2 0x2C DUP3 DUP3 PUSH2 0x33 JUMP JUMPDEST POP POP PUSH2 0x347 JUMP JUMPDEST PUSH2 0x3C DUP3 PUSH2 0x91 JUMP JUMPDEST PUSH1 0x40 MLOAD PUSH1 0x1 PUSH1 0x1 PUSH1 0xA0 SHL SUB DUP4 AND SWAP1 PUSH32 0xBC7CD75A20EE27FD9ADEBAB32041F755214DBC6BFFA90CC0225B39DA2E5C2D3B SWAP1 PUSH0 SWAP1 LOG2 DUP1 MLOAD ISZERO PUSH2 0x85 JUMPI PUSH2 0x80 DUP3 DUP3 PUSH2 0x10C JUMP JUMPDEST POP POP POP JUMP JUMPDEST PUSH2 0x8D PUSH2 0x17F JUMP JUMPDEST POP POP JUMP JUMPDEST DUP1 PUSH1 0x1 PUSH1 0x1 PUSH1 0xA0 SHL SUB AND EXTCODESIZE PUSH0 SUB PUSH2 0xCB JUMPI PUSH1 0x40 MLOAD PUSH4 0x4C9C8CE3 PUSH1 0xE0 SHL DUP2 MSTORE PUSH1 0x1 PUSH1 0x1 PUSH1 0xA0 SHL SUB DUP3 AND PUSH1 0x4 DUP3 ADD MSTORE PUSH1 0x24 ADD JUMPDEST PUSH1 0x40 MLOAD DUP1 SWAP2 SUB SWAP1 REVERT JUMPDEST PUSH32 0x360894A13BA1A3210667C828492DB98DCA3E2076CC3735A920A3CA505D382BBC DUP1 SLOAD PUSH1 0x1 PUSH1 0x1 PUSH1 0xA0 SHL SUB NOT AND PUSH1 0x1 PUSH1 0x1 PUSH1 0xA0 SHL SUB SWAP3 SWAP1 SWAP3 AND SWAP2 SWAP1 SWAP2 OR SWAP1 SSTORE JUMP JUMPDEST PUSH1 0x60 PUSH0 PUSH0 DUP5 PUSH1 0x1 PUSH1 0x1 PUSH1 0xA0 SHL SUB AND DUP5 PUSH1 0x40 MLOAD PUSH2 0x128 SWAP2 SWAP1 PUSH2 0x32C JUMP JUMPDEST PUSH0 PUSH1 0x40 MLOAD DUP1 DUP4 SUB DUP2 DUP6 GAS DELEGATECALL SWAP2 POP POP RETURNDATASIZE DUP1 PUSH0 DUP2 EQ PUSH2 0x160 JUMPI PUSH1 0x40 MLOAD SWAP2 POP PUSH1 0x1F NOT PUSH1 0x3F RETURNDATASIZE ADD AND DUP3 ADD PUSH1 0x40 MSTORE RETURNDATASIZE DUP3 MSTORE RETURNDATASIZE PUSH0 PUSH1 0x20 DUP5 ADD RETURNDATACOPY PUSH2 0x165 JUMP JUMPDEST PUSH1 0x60 SWAP2 POP JUMPDEST POP SWAP1 SWAP3 POP SWAP1 POP PUSH2 0x176 DUP6 DUP4 DUP4 PUSH2 0x1A0 JUMP JUMPDEST SWAP6 SWAP5 POP POP POP POP POP JUMP JUMPDEST CALLVALUE ISZERO PUSH2 0x19E JUMPI PUSH1 0x40 MLOAD PUSH4 0xB398979F PUSH1 0xE0 SHL DUP2 MSTORE PUSH1 0x4 ADD PUSH1 0x40 MLOAD DUP1 SWAP2 SUB SWAP1 REVERT JUMPDEST JUMP JUMPDEST PUSH1 0x60 DUP3 PUSH2 0x1B5 JUMPI PUSH2 0x1B0 DUP3 PUSH2 0x1FF JUMP JUMPDEST PUSH2 0x1F8 JUMP JUMPDEST DUP2 MLOAD ISZERO DUP1 ISZERO PUSH2 0x1CC JUMPI POP PUSH1 0x1 PUSH1 0x1 PUSH1 0xA0 SHL SUB DUP5 AND EXTCODESIZE ISZERO JUMPDEST ISZERO PUSH2 0x1F5 JUMPI PUSH1 0x40 MLOAD PUSH4 0x9996B315 PUSH1 0xE0 SHL DUP2 MSTORE PUSH1 0x1 PUSH1 0x1 PUSH1 0xA0 SHL SUB DUP6 AND PUSH1 0x4 DUP3 ADD MSTORE PUSH1 0x24 ADD PUSH2 0xC2 JUMP JUMPDEST POP DUP1 JUMPDEST SWAP4 SWAP3 POP POP POP JUMP JUMPDEST DUP1 MLOAD ISZERO PUSH2 0x20F JUMPI DUP1 MLOAD DUP1 DUP3 PUSH1 0x20 ADD REVERT JUMPDEST PUSH1 0x40 MLOAD PUSH4 0xD6BDA275 PUSH1 0xE0 SHL DUP2 MSTORE PUSH1 0x4 ADD PUSH1 0x40 MLOAD DUP1 SWAP2 SUB SWAP1 REVERT JUMPDEST PUSH4 0x4E487B71 PUSH1 0xE0 SHL PUSH0 MSTORE PUSH1 0x41 PUSH1 0x4 MSTORE PUSH1 0x24 PUSH0 REVERT JUMPDEST PUSH0 JUMPDEST DUP4 DUP2 LT ISZERO PUSH2 0x256 JUMPI DUP2 DUP2 ADD MLOAD DUP4 DUP3 ADD MSTORE PUSH1 0x20 ADD PUSH2 0x23E JUMP JUMPDEST POP POP PUSH0 SWAP2 ADD MSTORE JUMP JUMPDEST PUSH0 PUSH0 PUSH1 0x40 DUP4 DUP6 SUB SLT ISZERO PUSH2 0x26F JUMPI PUSH0 PUSH0 REVERT JUMPDEST DUP3 MLOAD PUSH1 0x1 PUSH1 0x1 PUSH1 0xA0 SHL SUB DUP2 AND DUP2 EQ PUSH2 0x285 JUMPI PUSH0 PUSH0 REVERT JUMPDEST PUSH1 0x20 DUP5 ADD MLOAD SWAP1 SWAP3 POP PUSH1 0x1 PUSH1 0x1 PUSH1 0x40 SHL SUB DUP2 GT ISZERO PUSH2 0x2A0 JUMPI PUSH0 PUSH0 REVERT JUMPDEST DUP4 ADD PUSH1 0x1F DUP2 ADD DUP6 SGT PUSH2 0x2B0 JUMPI PUSH0 PUSH0 REVERT JUMPDEST DUP1 MLOAD PUSH1 0x1 PUSH1 0x1 PUSH1 0x40 SHL SUB DUP2 GT ISZERO PUSH2 0x2C9 JUMPI PUSH2 0x2C9 PUSH2 0x228 JUMP JUMPDEST PUSH1 0x40 MLOAD PUSH1 0x1F DUP3 ADD PUSH1 0x1F NOT SWAP1 DUP2 AND PUSH1 0x3F ADD AND DUP2 ADD PUSH1 0x1 PUSH1 0x1 PUSH1 0x40 SHL SUB DUP2 GT DUP3 DUP3 LT OR ISZERO PUSH2 0x2F7 JUMPI PUSH2 0x2F7 PUSH2 0x228 JUMP JUMPDEST PUSH1 0x40 MSTORE DUP2 DUP2 MSTORE DUP3 DUP3 ADD PUSH1 0x20 ADD DUP8 LT ISZERO PUSH2 0x30E JUMPI PUSH0 PUSH0 REVERT JUMPDEST PUSH2 0x31F DUP3 PUSH1 0x20 DUP4 ADD PUSH1 0x20 DUP7 ADD PUSH2 0x23C JUMP JUMPDEST DUP1 SWAP4 POP POP POP POP SWAP3 POP SWAP3 SWAP1 POP JUMP JUMPDEST PUSH0 DUP3 MLOAD PUSH2 0x33D DUP2 DUP5 PUSH1 0x20 DUP8 ADD PUSH2 0x23C JUMP JUMPDEST SWAP2 SWAP1 SWAP2 ADD SWAP3 SWAP2 POP POP JUMP JUMPDEST PUSH1 0xA3 DUP1 PUSH2 0x353 PUSH0 CODECOPY PUSH0 RETURN INVALID PUSH1 0x80 PUSH1 0x40 MSTORE PUSH1 0xA PUSH1 0xC JUMP JUMPDEST STOP JUMPDEST PUSH1 0x18 PUSH1 0x14 PUSH1 0x1A JUMP JUMPDEST PUSH1 0x50 JUMP JUMPDEST JUMP JUMPDEST PUSH0 PUSH1 0x4B PUSH32 0x360894A13BA1A3210667C828492DB98DCA3E2076CC3735A920A3CA505D382BBC SLOAD PUSH1 0x1 PUSH1 0x1 PUSH1 0xA0 SHL SUB AND SWAP1 JUMP JUMPDEST SWAP1 POP SWAP1 JUMP JUMPDEST CALLDATASIZE PUSH0 PUSH0 CALLDATACOPY PUSH0 PUSH0 CALLDATASIZE PUSH0 DUP5 GAS DELEGATECALL RETURNDATASIZE PUSH0 PUSH0 RETURNDATACOPY DUP1 DUP1 ISZERO PUSH1 0x69 JUMPI RETURNDATASIZE PUSH0 RETURN JUMPDEST RETURNDATASIZE PUSH0 REVERT INVALID LOG2 PUSH5 0x6970667358 0x22 SLT KECCAK256 0xB0 0xA6 0xEF GASLIMIT 0xEA COINBASE 0xEC SELFDESTRUCT 0x26 0xAC 0xEA 0xE2 LOG1 EXTCODESIZE PUSH10 0x3304C712BE70F6CBCB48 SWAP8 0x2B PUSH11 0x8E00F80B64736F6C634300 ADDMOD SHR STOP CALLER CALLDATASIZE ADDMOD SWAP5 LOG1 EXTCODESIZE LOG1 LOG3 0x21 MOD PUSH8 0xC828492DB98DCA3E KECCAK256 PUSH23 0xCC3735A920A3CA505D382BBCA2646970667358221220A3 DUP15 0xB1 0x4D LOG0 LOG2 0xE8 0x26 DUP6 0xDA MLOAD CALL PUSH12 0xBB2460C01BB6D7A84CEECCCD 0xAB PC SWAP10 0xCF PUSH25 0xC48C64736F6C634300081C0033000000000000000000000000 "
				},
				"gasEstimates": {
					"creation": {
						"codeDepositCost": "1302800",
						"executionCost": "infinite",
						"totalCost": "infinite"
					},
					"external": {
						"UPGRADE_INTERFACE_VERSION()": "infinite",
						"allVaults(uint256)": "4711",
						"createVault(address,address,address,address,address,string,string)": "infinite",
						"defaultLiquidator()": "2370",
						"defaultOracleManager()": "2393",
						"defaultRebalancer()": "2349",
						"getAllVaults()": "infinite",
						"getVault(uint256)": "6753",
						"initialize(address,address)": "infinite",
						"owner()": "2408",
						"proxiableUUID()": "infinite",
						"renounceOwnership()": "infinite",
						"setDefaultReferences(address,address,address)": "infinite",
						"setVaultLogic(address)": "26888",
						"transferOwnership(address)": "28475",
						"upgradeToAndCall(address,bytes)": "infinite",
						"vaultCount()": "2358",
						"vaultLogic()": "2368"
					},
					"internal": {
						"_authorizeUpgrade(address)": "infinite"
					}
				},
				"methodIdentifiers": {
					"UPGRADE_INTERFACE_VERSION()": "ad3cb1cc",
					"allVaults(uint256)": "9094a91e",
					"createVault(address,address,address,address,address,string,string)": "c3638757",
					"defaultLiquidator()": "545851d7",
					"defaultOracleManager()": "4c39ad21",
					"defaultRebalancer()": "3c46201d",
					"getAllVaults()": "97331bf9",
					"getVault(uint256)": "9403b634",
					"initialize(address,address)": "485cc955",
					"owner()": "8da5cb5b",
					"proxiableUUID()": "52d1902d",
					"renounceOwnership()": "715018a6",
					"setDefaultReferences(address,address,address)": "ab31b6f3",
					"setVaultLogic(address)": "ecedd5bc",
					"transferOwnership(address)": "f2fde38b",
					"upgradeToAndCall(address,bytes)": "4f1ef286",
					"vaultCount()": "a7c6a100",
					"vaultLogic()": "b078147a"
				}
			},
			"storageLayout": {
				"storage": [
					{
						"astId": 1527,
						"contract": "Contracts/VaultFactoryImplementation.sol:VaultFactoryImplementation",
						"label": "vaultLogic",
						"offset": 0,
						"slot": "0",
						"type": "t_address"
					},
					{
						"astId": 1530,
						"contract": "Contracts/VaultFactoryImplementation.sol:VaultFactoryImplementation",
						"label": "defaultOracleManager",
						"offset": 0,
						"slot": "1",
						"type": "t_address"
					},
					{
						"astId": 1532,
						"contract": "Contracts/VaultFactoryImplementation.sol:VaultFactoryImplementation",
						"label": "defaultRebalancer",
						"offset": 0,
						"slot": "2",
						"type": "t_address"
					},
					{
						"astId": 1534,
						"contract": "Contracts/VaultFactoryImplementation.sol:VaultFactoryImplementation",
						"label": "defaultLiquidator",
						"offset": 0,
						"slot": "3",
						"type": "t_address"
					},
					{
						"astId": 1538,
						"contract": "Contracts/VaultFactoryImplementation.sol:VaultFactoryImplementation",
						"label": "allVaults",
						"offset": 0,
						"slot": "4",
						"type": "t_array(t_address)dyn_storage"
					}
				],
				"types": {
					"t_address": {
						"encoding": "inplace",
						"label": "address",
						"numberOfBytes": "20"
					},
					"t_array(t_address)dyn_storage": {
						"base": "t_address",
						"encoding": "dynamic_array",
						"label": "address[]",
						"numberOfBytes": "32"
					}
				}
			},
			"userdoc": {
				"kind": "user",
				"methods": {
					"createVault(address,address,address,address,address,string,string)": {
						"notice": "Deploys a new vault proxy pointing to `vaultLogic`. The caller becomes the vault's owner."
					},
					"getAllVaults()": {
						"notice": "Returns the entire list of vault addresses.          Use with care if the array is large."
					},
					"getVault(uint256)": {
						"notice": "Retrieve a vault address by index in the `allVaults` array."
					},
					"initialize(address,address)": {
						"notice": "Initializes the factory. Called once at deployment behind its own proxy.         If your OwnableUpgradeable requires an argument for __Ownable_init, provide it here."
					},
					"setDefaultReferences(address,address,address)": {
						"notice": "Sets the default OracleManager, Rebalancer, and Liquidator addresses for the factory.         Users can override these when creating a new vault by passing non-zero addresses."
					},
					"setVaultLogic(address)": {
						"notice": "Sets a new logic contract address for future vaults (if you want to upgrade)."
					},
					"vaultCount()": {
						"notice": "Returns the number of vaults created by this factory."
					}
				},
				"version": 1
			}
		}
	}
}