{
	"Contracts/Timelock.sol": {
		"Timelock": {
			"abi": [
				{
					"inputs": [
						{
							"internalType": "address",
							"name": "_owner",
							"type": "address"
						},
						{
							"internalType": "uint256",
							"name": "_delay",
							"type": "uint256"
						},
						{
							"internalType": "uint256",
							"name": "_gracePeriod",
							"type": "uint256"
						}
					],
					"stateMutability": "nonpayable",
					"type": "constructor"
				},
				{
					"anonymous": false,
					"inputs": [
						{
							"indexed": true,
							"internalType": "bytes32",
							"name": "operationId",
							"type": "bytes32"
						}
					],
					"name": "OperationCanceled",
					"type": "event"
				},
				{
					"anonymous": false,
					"inputs": [
						{
							"indexed": true,
							"internalType": "bytes32",
							"name": "operationId",
							"type": "bytes32"
						},
						{
							"indexed": true,
							"internalType": "address",
							"name": "target",
							"type": "address"
						},
						{
							"indexed": false,
							"internalType": "uint256",
							"name": "value",
							"type": "uint256"
						},
						{
							"indexed": false,
							"internalType": "string",
							"name": "signature",
							"type": "string"
						},
						{
							"indexed": false,
							"internalType": "bytes",
							"name": "callData",
							"type": "bytes"
						}
					],
					"name": "OperationExecuted",
					"type": "event"
				},
				{
					"anonymous": false,
					"inputs": [
						{
							"indexed": true,
							"internalType": "bytes32",
							"name": "operationId",
							"type": "bytes32"
						},
						{
							"indexed": true,
							"internalType": "address",
							"name": "target",
							"type": "address"
						},
						{
							"indexed": false,
							"internalType": "uint256",
							"name": "value",
							"type": "uint256"
						},
						{
							"indexed": false,
							"internalType": "string",
							"name": "signature",
							"type": "string"
						},
						{
							"indexed": false,
							"internalType": "bytes",
							"name": "callData",
							"type": "bytes"
						},
						{
							"indexed": false,
							"internalType": "uint256",
							"name": "earliestExecTime",
							"type": "uint256"
						}
					],
					"name": "OperationScheduled",
					"type": "event"
				},
				{
					"inputs": [
						{
							"internalType": "bytes32",
							"name": "operationId",
							"type": "bytes32"
						}
					],
					"name": "cancel",
					"outputs": [],
					"stateMutability": "nonpayable",
					"type": "function"
				},
				{
					"inputs": [],
					"name": "delay",
					"outputs": [
						{
							"internalType": "uint256",
							"name": "",
							"type": "uint256"
						}
					],
					"stateMutability": "view",
					"type": "function"
				},
				{
					"inputs": [
						{
							"internalType": "bytes32",
							"name": "operationId",
							"type": "bytes32"
						}
					],
					"name": "execute",
					"outputs": [],
					"stateMutability": "payable",
					"type": "function"
				},
				{
					"inputs": [
						{
							"internalType": "bytes32",
							"name": "operationId",
							"type": "bytes32"
						}
					],
					"name": "getEarliestExecutionTime",
					"outputs": [
						{
							"internalType": "uint256",
							"name": "",
							"type": "uint256"
						}
					],
					"stateMutability": "view",
					"type": "function"
				},
				{
					"inputs": [
						{
							"internalType": "address",
							"name": "target",
							"type": "address"
						},
						{
							"internalType": "uint256",
							"name": "value",
							"type": "uint256"
						},
						{
							"internalType": "string",
							"name": "signature",
							"type": "string"
						},
						{
							"internalType": "bytes",
							"name": "callData",
							"type": "bytes"
						}
					],
					"name": "getOperationId",
					"outputs": [
						{
							"internalType": "bytes32",
							"name": "",
							"type": "bytes32"
						}
					],
					"stateMutability": "pure",
					"type": "function"
				},
				{
					"inputs": [
						{
							"internalType": "bytes32",
							"name": "operationId",
							"type": "bytes32"
						}
					],
					"name": "getOperationStatus",
					"outputs": [
						{
							"internalType": "bool",
							"name": "scheduled",
							"type": "bool"
						},
						{
							"internalType": "bool",
							"name": "canceled",
							"type": "bool"
						},
						{
							"internalType": "bool",
							"name": "executed",
							"type": "bool"
						}
					],
					"stateMutability": "view",
					"type": "function"
				},
				{
					"inputs": [],
					"name": "gracePeriod",
					"outputs": [
						{
							"internalType": "uint256",
							"name": "",
							"type": "uint256"
						}
					],
					"stateMutability": "view",
					"type": "function"
				},
				{
					"inputs": [
						{
							"internalType": "bytes32",
							"name": "",
							"type": "bytes32"
						}
					],
					"name": "operations",
					"outputs": [
						{
							"internalType": "address",
							"name": "target",
							"type": "address"
						},
						{
							"internalType": "uint256",
							"name": "value",
							"type": "uint256"
						},
						{
							"internalType": "string",
							"name": "signature",
							"type": "string"
						},
						{
							"internalType": "bytes",
							"name": "callData",
							"type": "bytes"
						},
						{
							"internalType": "uint256",
							"name": "earliestExecTime",
							"type": "uint256"
						},
						{
							"internalType": "bool",
							"name": "executed",
							"type": "bool"
						},
						{
							"internalType": "bool",
							"name": "canceled",
							"type": "bool"
						}
					],
					"stateMutability": "view",
					"type": "function"
				},
				{
					"inputs": [],
					"name": "owner",
					"outputs": [
						{
							"internalType": "address",
							"name": "",
							"type": "address"
						}
					],
					"stateMutability": "view",
					"type": "function"
				},
				{
					"inputs": [
						{
							"internalType": "address",
							"name": "target",
							"type": "address"
						},
						{
							"internalType": "uint256",
							"name": "value",
							"type": "uint256"
						},
						{
							"internalType": "string",
							"name": "signature",
							"type": "string"
						},
						{
							"internalType": "bytes",
							"name": "callData",
							"type": "bytes"
						}
					],
					"name": "schedule",
					"outputs": [
						{
							"internalType": "bytes32",
							"name": "operationId",
							"type": "bytes32"
						}
					],
					"stateMutability": "nonpayable",
					"type": "function"
				},
				{
					"inputs": [
						{
							"internalType": "uint256",
							"name": "newDelay",
							"type": "uint256"
						}
					],
					"name": "setDelay",
					"outputs": [],
					"stateMutability": "nonpayable",
					"type": "function"
				},
				{
					"inputs": [
						{
							"internalType": "uint256",
							"name": "newGracePeriod",
							"type": "uint256"
						}
					],
					"name": "setGracePeriod",
					"outputs": [],
					"stateMutability": "nonpayable",
					"type": "function"
				},
				{
					"inputs": [
						{
							"internalType": "address",
							"name": "newOwner",
							"type": "address"
						}
					],
					"name": "transferOwnership",
					"outputs": [],
					"stateMutability": "nonpayable",
					"type": "function"
				},
				{
					"stateMutability": "payable",
					"type": "receive"
				}
			],
			"devdoc": {
				"events": {
					"OperationCanceled(bytes32)": {
						"details": "Emitted when an operation is canceled."
					},
					"OperationExecuted(bytes32,address,uint256,string,bytes)": {
						"details": "Emitted when an operation is executed successfully."
					},
					"OperationScheduled(bytes32,address,uint256,string,bytes,uint256)": {
						"details": "Emitted when a new operation is scheduled."
					}
				},
				"kind": "dev",
				"methods": {
					"cancel(bytes32)": {
						"params": {
							"operationId": "The unique ID of the operation to cancel"
						}
					},
					"constructor": {
						"params": {
							"_delay": "The minimum delay required before executing scheduled operations",
							"_gracePeriod": "The period after `_delay` during which the operation remains valid",
							"_owner": "The address of the timelock's owner"
						}
					},
					"execute(bytes32)": {
						"params": {
							"operationId": "The unique ID of the operation to execute"
						}
					},
					"getEarliestExecutionTime(bytes32)": {
						"params": {
							"operationId": "The ID to check"
						},
						"returns": {
							"_0": "earliestExecTime The timestamp from which the operation can be executed"
						}
					},
					"getOperationId(address,uint256,string,bytes)": {
						"params": {
							"callData": "The ABI-encoded parameters for the function",
							"signature": "The function signature (e.g. \"upgradeTo(address)\")",
							"target": "The contract address to be called",
							"value": "The amount of ETH (if any) to send"
						},
						"returns": {
							"_0": "operationId The computed ID"
						}
					},
					"getOperationStatus(bytes32)": {
						"params": {
							"operationId": "The ID to check"
						},
						"returns": {
							"canceled": " True if operation is canceled",
							"executed": " True if operation is executed",
							"scheduled": "True if operation exists"
						}
					},
					"schedule(address,uint256,string,bytes)": {
						"params": {
							"callData": "The ABI-encoded parameters for the function",
							"signature": "The function signature",
							"target": "The contract to call",
							"value": "The amount of ETH to send"
						},
						"returns": {
							"operationId": "The unique ID of the scheduled operation"
						}
					},
					"setDelay(uint256)": {
						"params": {
							"newDelay": "The new delay in seconds"
						}
					},
					"setGracePeriod(uint256)": {
						"params": {
							"newGracePeriod": "The new grace period in seconds"
						}
					},
					"transferOwnership(address)": {
						"params": {
							"newOwner": "The address to become the new owner"
						}
					}
				},
				"stateVariables": {
					"delay": {
						"details": "The minimum delay between scheduling an operation and executing it."
					},
					"gracePeriod": {
						"details": "A Grace Period can be used to define how long after `earliestExecTime`      an operation is valid for execution before it expires.      If the current block time exceeds earliestExecTime + gracePeriod,      the operation can no longer be executed (it has expired)."
					},
					"operations": {
						"details": "Maps an operation's unique ID to the Operation struct data."
					},
					"owner": {
						"details": "The owner has permission to schedule/cancel/execute operations.      Typically, this would be a DAO, multi-sig, or a deployment account."
					}
				},
				"title": "Timelock",
				"version": 1
			},
			"evm": {
				"assembly": "    /* \"Contracts/Timelock.sol\":1284:11145  contract Timelock {... */\n  mstore(0x40, 0x80)\n    /* \"Contracts/Timelock.sol\":9648:9649  1 */\n  0x01\n    /* \"Contracts/Timelock.sol\":9622:9649  uint256 private _status = 1 */\n  0x04\n  sstore\n    /* \"Contracts/Timelock.sol\":4247:4542  constructor(address _owner, uint256 _delay, uint256 _gracePeriod) {... */\n  callvalue\n  dup1\n  iszero\n  tag_1\n  jumpi\n  0x00\n  dup1\n  revert\ntag_1:\n  pop\n  mload(0x40)\n  sub(codesize, bytecodeSize)\n  dup1\n  bytecodeSize\n  dup4\n  codecopy\n  dup2\n  dup2\n  add\n  0x40\n  mstore\n  dup2\n  add\n  swap1\n  tag_2\n  swap2\n  swap1\n  tag_3\n  jump\t// in\ntag_2:\n    /* \"Contracts/Timelock.sol\":4349:4350  0 */\n  0x00\n    /* \"Contracts/Timelock.sol\":4331:4351  _owner != address(0) */\n  0xffffffffffffffffffffffffffffffffffffffff\n  and\n    /* \"Contracts/Timelock.sol\":4331:4337  _owner */\n  dup4\n    /* \"Contracts/Timelock.sol\":4331:4351  _owner != address(0) */\n  0xffffffffffffffffffffffffffffffffffffffff\n  and\n  sub\n    /* \"Contracts/Timelock.sol\":4323:4379  require(_owner != address(0), \"Timelock: invalid owner\") */\n  tag_6\n  jumpi\n  mload(0x40)\n  0x08c379a000000000000000000000000000000000000000000000000000000000\n  dup2\n  mstore\n  0x04\n  add\n  tag_7\n  swap1\n  tag_8\n  jump\t// in\ntag_7:\n  mload(0x40)\n  dup1\n  swap2\n  sub\n  swap1\n  revert\ntag_6:\n    /* \"Contracts/Timelock.sol\":4412:4413  0 */\n  0x00\n    /* \"Contracts/Timelock.sol\":4397:4409  _gracePeriod */\n  dup2\n    /* \"Contracts/Timelock.sol\":4397:4413  _gracePeriod > 0 */\n  gt\n    /* \"Contracts/Timelock.sol\":4389:4451  require(_gracePeriod > 0, \"Timelock: gracePeriod must be > 0\") */\n  tag_9\n  jumpi\n  mload(0x40)\n  0x08c379a000000000000000000000000000000000000000000000000000000000\n  dup2\n  mstore\n  0x04\n  add\n  tag_10\n  swap1\n  tag_11\n  jump\t// in\ntag_10:\n  mload(0x40)\n  dup1\n  swap2\n  sub\n  swap1\n  revert\ntag_9:\n    /* \"Contracts/Timelock.sol\":4469:4475  _owner */\n  dup3\n    /* \"Contracts/Timelock.sol\":4461:4466  owner */\n  0x02\n  0x00\n    /* \"Contracts/Timelock.sol\":4461:4475  owner = _owner */\n  0x0100\n  exp\n  dup2\n  sload\n  dup2\n  0xffffffffffffffffffffffffffffffffffffffff\n  mul\n  not\n  and\n  swap1\n  dup4\n  0xffffffffffffffffffffffffffffffffffffffff\n  and\n  mul\n  or\n  swap1\n  sstore\n  pop\n    /* \"Contracts/Timelock.sol\":4493:4499  _delay */\n  dup2\n    /* \"Contracts/Timelock.sol\":4485:4490  delay */\n  0x01\n    /* \"Contracts/Timelock.sol\":4485:4499  delay = _delay */\n  dup2\n  swap1\n  sstore\n  pop\n    /* \"Contracts/Timelock.sol\":4523:4535  _gracePeriod */\n  dup1\n    /* \"Contracts/Timelock.sol\":4509:4520  gracePeriod */\n  0x00\n    /* \"Contracts/Timelock.sol\":4509:4535  gracePeriod = _gracePeriod */\n  dup2\n  swap1\n  sstore\n  pop\n    /* \"Contracts/Timelock.sol\":4247:4542  constructor(address _owner, uint256 _delay, uint256 _gracePeriod) {... */\n  pop\n  pop\n  pop\n    /* \"Contracts/Timelock.sol\":1284:11145  contract Timelock {... */\n  jump(tag_12)\n    /* \"#utility.yul\":88:205   */\ntag_14:\n    /* \"#utility.yul\":197:198   */\n  0x00\n    /* \"#utility.yul\":194:195   */\n  dup1\n    /* \"#utility.yul\":187:199   */\n  revert\n    /* \"#utility.yul\":334:460   */\ntag_16:\n    /* \"#utility.yul\":371:378   */\n  0x00\n    /* \"#utility.yul\":411:453   */\n  0xffffffffffffffffffffffffffffffffffffffff\n    /* \"#utility.yul\":404:409   */\n  dup3\n    /* \"#utility.yul\":400:454   */\n  and\n    /* \"#utility.yul\":389:454   */\n  swap1\n  pop\n    /* \"#utility.yul\":334:460   */\n  swap2\n  swap1\n  pop\n  jump\t// out\n    /* \"#utility.yul\":466:562   */\ntag_17:\n    /* \"#utility.yul\":503:510   */\n  0x00\n    /* \"#utility.yul\":532:556   */\n  tag_34\n    /* \"#utility.yul\":550:555   */\n  dup3\n    /* \"#utility.yul\":532:556   */\n  tag_16\n  jump\t// in\ntag_34:\n    /* \"#utility.yul\":521:556   */\n  swap1\n  pop\n    /* \"#utility.yul\":466:562   */\n  swap2\n  swap1\n  pop\n  jump\t// out\n    /* \"#utility.yul\":568:690   */\ntag_18:\n    /* \"#utility.yul\":641:665   */\n  tag_36\n    /* \"#utility.yul\":659:664   */\n  dup2\n    /* \"#utility.yul\":641:665   */\n  tag_17\n  jump\t// in\ntag_36:\n    /* \"#utility.yul\":634:639   */\n  dup2\n    /* \"#utility.yul\":631:666   */\n  eq\n    /* \"#utility.yul\":621:684   */\n  tag_37\n  jumpi\n    /* \"#utility.yul\":680:681   */\n  0x00\n    /* \"#utility.yul\":677:678   */\n  dup1\n    /* \"#utility.yul\":670:682   */\n  revert\n    /* \"#utility.yul\":621:684   */\ntag_37:\n    /* \"#utility.yul\":568:690   */\n  pop\n  jump\t// out\n    /* \"#utility.yul\":696:839   */\ntag_19:\n    /* \"#utility.yul\":753:758   */\n  0x00\n    /* \"#utility.yul\":784:790   */\n  dup2\n    /* \"#utility.yul\":778:791   */\n  mload\n    /* \"#utility.yul\":769:791   */\n  swap1\n  pop\n    /* \"#utility.yul\":800:833   */\n  tag_39\n    /* \"#utility.yul\":827:832   */\n  dup2\n    /* \"#utility.yul\":800:833   */\n  tag_18\n  jump\t// in\ntag_39:\n    /* \"#utility.yul\":696:839   */\n  swap3\n  swap2\n  pop\n  pop\n  jump\t// out\n    /* \"#utility.yul\":845:922   */\ntag_20:\n    /* \"#utility.yul\":882:889   */\n  0x00\n    /* \"#utility.yul\":911:916   */\n  dup2\n    /* \"#utility.yul\":900:916   */\n  swap1\n  pop\n    /* \"#utility.yul\":845:922   */\n  swap2\n  swap1\n  pop\n  jump\t// out\n    /* \"#utility.yul\":928:1050   */\ntag_21:\n    /* \"#utility.yul\":1001:1025   */\n  tag_42\n    /* \"#utility.yul\":1019:1024   */\n  dup2\n    /* \"#utility.yul\":1001:1025   */\n  tag_20\n  jump\t// in\ntag_42:\n    /* \"#utility.yul\":994:999   */\n  dup2\n    /* \"#utility.yul\":991:1026   */\n  eq\n    /* \"#utility.yul\":981:1044   */\n  tag_43\n  jumpi\n    /* \"#utility.yul\":1040:1041   */\n  0x00\n    /* \"#utility.yul\":1037:1038   */\n  dup1\n    /* \"#utility.yul\":1030:1042   */\n  revert\n    /* \"#utility.yul\":981:1044   */\ntag_43:\n    /* \"#utility.yul\":928:1050   */\n  pop\n  jump\t// out\n    /* \"#utility.yul\":1056:1199   */\ntag_22:\n    /* \"#utility.yul\":1113:1118   */\n  0x00\n    /* \"#utility.yul\":1144:1150   */\n  dup2\n    /* \"#utility.yul\":1138:1151   */\n  mload\n    /* \"#utility.yul\":1129:1151   */\n  swap1\n  pop\n    /* \"#utility.yul\":1160:1193   */\n  tag_45\n    /* \"#utility.yul\":1187:1192   */\n  dup2\n    /* \"#utility.yul\":1160:1193   */\n  tag_21\n  jump\t// in\ntag_45:\n    /* \"#utility.yul\":1056:1199   */\n  swap3\n  swap2\n  pop\n  pop\n  jump\t// out\n    /* \"#utility.yul\":1205:1868   */\ntag_3:\n    /* \"#utility.yul\":1293:1299   */\n  0x00\n    /* \"#utility.yul\":1301:1307   */\n  dup1\n    /* \"#utility.yul\":1309:1315   */\n  0x00\n    /* \"#utility.yul\":1358:1360   */\n  0x60\n    /* \"#utility.yul\":1346:1355   */\n  dup5\n    /* \"#utility.yul\":1337:1344   */\n  dup7\n    /* \"#utility.yul\":1333:1356   */\n  sub\n    /* \"#utility.yul\":1329:1361   */\n  slt\n    /* \"#utility.yul\":1326:1445   */\n  iszero\n  tag_47\n  jumpi\n    /* \"#utility.yul\":1364:1443   */\n  tag_48\n  tag_14\n  jump\t// in\ntag_48:\n    /* \"#utility.yul\":1326:1445   */\ntag_47:\n    /* \"#utility.yul\":1484:1485   */\n  0x00\n    /* \"#utility.yul\":1509:1573   */\n  tag_49\n    /* \"#utility.yul\":1565:1572   */\n  dup7\n    /* \"#utility.yul\":1556:1562   */\n  dup3\n    /* \"#utility.yul\":1545:1554   */\n  dup8\n    /* \"#utility.yul\":1541:1563   */\n  add\n    /* \"#utility.yul\":1509:1573   */\n  tag_19\n  jump\t// in\ntag_49:\n    /* \"#utility.yul\":1499:1573   */\n  swap4\n  pop\n    /* \"#utility.yul\":1455:1583   */\n  pop\n    /* \"#utility.yul\":1622:1624   */\n  0x20\n    /* \"#utility.yul\":1648:1712   */\n  tag_50\n    /* \"#utility.yul\":1704:1711   */\n  dup7\n    /* \"#utility.yul\":1695:1701   */\n  dup3\n    /* \"#utility.yul\":1684:1693   */\n  dup8\n    /* \"#utility.yul\":1680:1702   */\n  add\n    /* \"#utility.yul\":1648:1712   */\n  tag_22\n  jump\t// in\ntag_50:\n    /* \"#utility.yul\":1638:1712   */\n  swap3\n  pop\n    /* \"#utility.yul\":1593:1722   */\n  pop\n    /* \"#utility.yul\":1761:1763   */\n  0x40\n    /* \"#utility.yul\":1787:1851   */\n  tag_51\n    /* \"#utility.yul\":1843:1850   */\n  dup7\n    /* \"#utility.yul\":1834:1840   */\n  dup3\n    /* \"#utility.yul\":1823:1832   */\n  dup8\n    /* \"#utility.yul\":1819:1841   */\n  add\n    /* \"#utility.yul\":1787:1851   */\n  tag_22\n  jump\t// in\ntag_51:\n    /* \"#utility.yul\":1777:1851   */\n  swap2\n  pop\n    /* \"#utility.yul\":1732:1861   */\n  pop\n    /* \"#utility.yul\":1205:1868   */\n  swap3\n  pop\n  swap3\n  pop\n  swap3\n  jump\t// out\n    /* \"#utility.yul\":1874:2043   */\ntag_23:\n    /* \"#utility.yul\":1958:1969   */\n  0x00\n    /* \"#utility.yul\":1992:1998   */\n  dup3\n    /* \"#utility.yul\":1987:1990   */\n  dup3\n    /* \"#utility.yul\":1980:1999   */\n  mstore\n    /* \"#utility.yul\":2032:2036   */\n  0x20\n    /* \"#utility.yul\":2027:2030   */\n  dup3\n    /* \"#utility.yul\":2023:2037   */\n  add\n    /* \"#utility.yul\":2008:2037   */\n  swap1\n  pop\n    /* \"#utility.yul\":1874:2043   */\n  swap3\n  swap2\n  pop\n  pop\n  jump\t// out\n    /* \"#utility.yul\":2049:2222   */\ntag_24:\n    /* \"#utility.yul\":2189:2214   */\n  0x54696d656c6f636b3a20696e76616c6964206f776e6572000000000000000000\n    /* \"#utility.yul\":2185:2186   */\n  0x00\n    /* \"#utility.yul\":2177:2183   */\n  dup3\n    /* \"#utility.yul\":2173:2187   */\n  add\n    /* \"#utility.yul\":2166:2215   */\n  mstore\n    /* \"#utility.yul\":2049:2222   */\n  pop\n  jump\t// out\n    /* \"#utility.yul\":2228:2594   */\ntag_25:\n    /* \"#utility.yul\":2370:2373   */\n  0x00\n    /* \"#utility.yul\":2391:2458   */\n  tag_55\n    /* \"#utility.yul\":2455:2457   */\n  0x17\n    /* \"#utility.yul\":2450:2453   */\n  dup4\n    /* \"#utility.yul\":2391:2458   */\n  tag_23\n  jump\t// in\ntag_55:\n    /* \"#utility.yul\":2384:2458   */\n  swap2\n  pop\n    /* \"#utility.yul\":2467:2560   */\n  tag_56\n    /* \"#utility.yul\":2556:2559   */\n  dup3\n    /* \"#utility.yul\":2467:2560   */\n  tag_24\n  jump\t// in\ntag_56:\n    /* \"#utility.yul\":2585:2587   */\n  0x20\n    /* \"#utility.yul\":2580:2583   */\n  dup3\n    /* \"#utility.yul\":2576:2588   */\n  add\n    /* \"#utility.yul\":2569:2588   */\n  swap1\n  pop\n    /* \"#utility.yul\":2228:2594   */\n  swap2\n  swap1\n  pop\n  jump\t// out\n    /* \"#utility.yul\":2600:3019   */\ntag_8:\n    /* \"#utility.yul\":2766:2770   */\n  0x00\n    /* \"#utility.yul\":2804:2806   */\n  0x20\n    /* \"#utility.yul\":2793:2802   */\n  dup3\n    /* \"#utility.yul\":2789:2807   */\n  add\n    /* \"#utility.yul\":2781:2807   */\n  swap1\n  pop\n    /* \"#utility.yul\":2853:2862   */\n  dup2\n    /* \"#utility.yul\":2847:2851   */\n  dup2\n    /* \"#utility.yul\":2843:2863   */\n  sub\n    /* \"#utility.yul\":2839:2840   */\n  0x00\n    /* \"#utility.yul\":2828:2837   */\n  dup4\n    /* \"#utility.yul\":2824:2841   */\n  add\n    /* \"#utility.yul\":2817:2864   */\n  mstore\n    /* \"#utility.yul\":2881:3012   */\n  tag_58\n    /* \"#utility.yul\":3007:3011   */\n  dup2\n    /* \"#utility.yul\":2881:3012   */\n  tag_25\n  jump\t// in\ntag_58:\n    /* \"#utility.yul\":2873:3012   */\n  swap1\n  pop\n    /* \"#utility.yul\":2600:3019   */\n  swap2\n  swap1\n  pop\n  jump\t// out\n    /* \"#utility.yul\":3025:3245   */\ntag_26:\n    /* \"#utility.yul\":3165:3199   */\n  0x54696d656c6f636b3a206772616365506572696f64206d757374206265203e20\n    /* \"#utility.yul\":3161:3162   */\n  0x00\n    /* \"#utility.yul\":3153:3159   */\n  dup3\n    /* \"#utility.yul\":3149:3163   */\n  add\n    /* \"#utility.yul\":3142:3200   */\n  mstore\n    /* \"#utility.yul\":3234:3237   */\n  0x3000000000000000000000000000000000000000000000000000000000000000\n    /* \"#utility.yul\":3229:3231   */\n  0x20\n    /* \"#utility.yul\":3221:3227   */\n  dup3\n    /* \"#utility.yul\":3217:3232   */\n  add\n    /* \"#utility.yul\":3210:3238   */\n  mstore\n    /* \"#utility.yul\":3025:3245   */\n  pop\n  jump\t// out\n    /* \"#utility.yul\":3251:3617   */\ntag_27:\n    /* \"#utility.yul\":3393:3396   */\n  0x00\n    /* \"#utility.yul\":3414:3481   */\n  tag_61\n    /* \"#utility.yul\":3478:3480   */\n  0x21\n    /* \"#utility.yul\":3473:3476   */\n  dup4\n    /* \"#utility.yul\":3414:3481   */\n  tag_23\n  jump\t// in\ntag_61:\n    /* \"#utility.yul\":3407:3481   */\n  swap2\n  pop\n    /* \"#utility.yul\":3490:3583   */\n  tag_62\n    /* \"#utility.yul\":3579:3582   */\n  dup3\n    /* \"#utility.yul\":3490:3583   */\n  tag_26\n  jump\t// in\ntag_62:\n    /* \"#utility.yul\":3608:3610   */\n  0x40\n    /* \"#utility.yul\":3603:3606   */\n  dup3\n    /* \"#utility.yul\":3599:3611   */\n  add\n    /* \"#utility.yul\":3592:3611   */\n  swap1\n  pop\n    /* \"#utility.yul\":3251:3617   */\n  swap2\n  swap1\n  pop\n  jump\t// out\n    /* \"#utility.yul\":3623:4042   */\ntag_11:\n    /* \"#utility.yul\":3789:3793   */\n  0x00\n    /* \"#utility.yul\":3827:3829   */\n  0x20\n    /* \"#utility.yul\":3816:3825   */\n  dup3\n    /* \"#utility.yul\":3812:3830   */\n  add\n    /* \"#utility.yul\":3804:3830   */\n  swap1\n  pop\n    /* \"#utility.yul\":3876:3885   */\n  dup2\n    /* \"#utility.yul\":3870:3874   */\n  dup2\n    /* \"#utility.yul\":3866:3886   */\n  sub\n    /* \"#utility.yul\":3862:3863   */\n  0x00\n    /* \"#utility.yul\":3851:3860   */\n  dup4\n    /* \"#utility.yul\":3847:3864   */\n  add\n    /* \"#utility.yul\":3840:3887   */\n  mstore\n    /* \"#utility.yul\":3904:4035   */\n  tag_64\n    /* \"#utility.yul\":4030:4034   */\n  dup2\n    /* \"#utility.yul\":3904:4035   */\n  tag_27\n  jump\t// in\ntag_64:\n    /* \"#utility.yul\":3896:4035   */\n  swap1\n  pop\n    /* \"#utility.yul\":3623:4042   */\n  swap2\n  swap1\n  pop\n  jump\t// out\n    /* \"Contracts/Timelock.sol\":1284:11145  contract Timelock {... */\ntag_12:\n  dataSize(sub_0)\n  dup1\n  dataOffset(sub_0)\n  0x00\n  codecopy\n  0x00\n  return\nstop\n\nsub_0: assembly {\n        /* \"Contracts/Timelock.sol\":1284:11145  contract Timelock {... */\n      mstore(0x40, 0x80)\n      jumpi(tag_1, lt(calldatasize, 0x04))\n      shr(0xe0, calldataload(0x00))\n      dup1\n      0xc74f349b\n      gt\n      tag_16\n      jumpi\n      dup1\n      0xe751f271\n      gt\n      tag_17\n      jumpi\n      dup1\n      0xe751f271\n      eq\n      tag_12\n      jumpi\n      dup1\n      0xf087dd24\n      eq\n      tag_13\n      jumpi\n      dup1\n      0xf2f65960\n      eq\n      tag_14\n      jumpi\n      dup1\n      0xf2fde38b\n      eq\n      tag_15\n      jumpi\n      jump(tag_2)\n    tag_17:\n      dup1\n      0xc74f349b\n      eq\n      tag_9\n      jumpi\n      dup1\n      0xe177246e\n      eq\n      tag_10\n      jumpi\n      dup1\n      0xe31fa19a\n      eq\n      tag_11\n      jumpi\n      jump(tag_2)\n    tag_16:\n      dup1\n      0x6a42b8f8\n      eq\n      tag_3\n      jumpi\n      dup1\n      0x727c6c5a\n      eq\n      tag_4\n      jumpi\n      dup1\n      0x8da5cb5b\n      eq\n      tag_5\n      jumpi\n      dup1\n      0xa06db7dc\n      eq\n      tag_6\n      jumpi\n      dup1\n      0xbaa1f377\n      eq\n      tag_7\n      jumpi\n      dup1\n      0xc4d252f5\n      eq\n      tag_8\n      jumpi\n      jump(tag_2)\n    tag_1:\n      jumpi(tag_2, calldatasize)\n      stop\n    tag_2:\n      0x00\n      dup1\n      revert\n        /* \"Contracts/Timelock.sol\":2741:2761  uint256 public delay */\n    tag_3:\n      callvalue\n      dup1\n      iszero\n      tag_20\n      jumpi\n      0x00\n      dup1\n      revert\n    tag_20:\n      pop\n      tag_21\n      tag_22\n      jump\t// in\n    tag_21:\n      mload(0x40)\n      tag_23\n      swap2\n      swap1\n      tag_24\n      jump\t// in\n    tag_23:\n      mload(0x40)\n      dup1\n      swap2\n      sub\n      swap1\n      return\n        /* \"Contracts/Timelock.sol\":10354:10703  function getOperationStatus(bytes32 operationId)... */\n    tag_4:\n      callvalue\n      dup1\n      iszero\n      tag_25\n      jumpi\n      0x00\n      dup1\n      revert\n    tag_25:\n      pop\n      tag_26\n      0x04\n      dup1\n      calldatasize\n      sub\n      dup2\n      add\n      swap1\n      tag_27\n      swap2\n      swap1\n      tag_28\n      jump\t// in\n    tag_27:\n      tag_29\n      jump\t// in\n    tag_26:\n      mload(0x40)\n      tag_30\n      swap4\n      swap3\n      swap2\n      swap1\n      tag_31\n      jump\t// in\n    tag_30:\n      mload(0x40)\n      dup1\n      swap2\n      sub\n      swap1\n      return\n        /* \"Contracts/Timelock.sol\":2940:2960  address public owner */\n    tag_5:\n      callvalue\n      dup1\n      iszero\n      tag_32\n      jumpi\n      0x00\n      dup1\n      revert\n    tag_32:\n      pop\n      tag_33\n      tag_34\n      jump\t// in\n    tag_33:\n      mload(0x40)\n      tag_35\n      swap2\n      swap1\n      tag_36\n      jump\t// in\n    tag_35:\n      mload(0x40)\n      dup1\n      swap2\n      sub\n      swap1\n      return\n        /* \"Contracts/Timelock.sol\":2612:2638  uint256 public gracePeriod */\n    tag_6:\n      callvalue\n      dup1\n      iszero\n      tag_37\n      jumpi\n      0x00\n      dup1\n      revert\n    tag_37:\n      pop\n      tag_38\n      tag_39\n      jump\t// in\n    tag_38:\n      mload(0x40)\n      tag_40\n      swap2\n      swap1\n      tag_24\n      jump\t// in\n    tag_40:\n      mload(0x40)\n      dup1\n      swap2\n      sub\n      swap1\n      return\n        /* \"Contracts/Timelock.sol\":6599:7459  function schedule(... */\n    tag_7:\n      callvalue\n      dup1\n      iszero\n      tag_41\n      jumpi\n      0x00\n      dup1\n      revert\n    tag_41:\n      pop\n      tag_42\n      0x04\n      dup1\n      calldatasize\n      sub\n      dup2\n      add\n      swap1\n      tag_43\n      swap2\n      swap1\n      tag_44\n      jump\t// in\n    tag_43:\n      tag_45\n      jump\t// in\n    tag_42:\n      mload(0x40)\n      tag_46\n      swap2\n      swap1\n      tag_47\n      jump\t// in\n    tag_46:\n      mload(0x40)\n      dup1\n      swap2\n      sub\n      swap1\n      return\n        /* \"Contracts/Timelock.sol\":7648:8055  function cancel(bytes32 operationId) external onlyOwner {... */\n    tag_8:\n      callvalue\n      dup1\n      iszero\n      tag_48\n      jumpi\n      0x00\n      dup1\n      revert\n    tag_48:\n      pop\n      tag_49\n      0x04\n      dup1\n      calldatasize\n      sub\n      dup2\n      add\n      swap1\n      tag_50\n      swap2\n      swap1\n      tag_28\n      jump\t// in\n    tag_50:\n      tag_51\n      jump\t// in\n    tag_49:\n      stop\n        /* \"Contracts/Timelock.sol\":3055:3102  mapping(bytes32 => Operation) public operations */\n    tag_9:\n      callvalue\n      dup1\n      iszero\n      tag_52\n      jumpi\n      0x00\n      dup1\n      revert\n    tag_52:\n      pop\n      tag_53\n      0x04\n      dup1\n      calldatasize\n      sub\n      dup2\n      add\n      swap1\n      tag_54\n      swap2\n      swap1\n      tag_28\n      jump\t// in\n    tag_54:\n      tag_55\n      jump\t// in\n    tag_53:\n      mload(0x40)\n      tag_56\n      swap8\n      swap7\n      swap6\n      swap5\n      swap4\n      swap3\n      swap2\n      swap1\n      tag_57\n      jump\t// in\n    tag_56:\n      mload(0x40)\n      dup1\n      swap2\n      sub\n      swap1\n      return\n        /* \"Contracts/Timelock.sol\":5058:5146  function setDelay(uint256 newDelay) external onlyOwner {... */\n    tag_10:\n      callvalue\n      dup1\n      iszero\n      tag_58\n      jumpi\n      0x00\n      dup1\n      revert\n    tag_58:\n      pop\n      tag_59\n      0x04\n      dup1\n      calldatasize\n      sub\n      dup2\n      add\n      swap1\n      tag_60\n      swap2\n      swap1\n      tag_61\n      jump\t// in\n    tag_60:\n      tag_62\n      jump\t// in\n    tag_59:\n      stop\n        /* \"Contracts/Timelock.sol\":10922:11108  function getEarliestExecutionTime(bytes32 operationId) external view returns (uint256) {... */\n    tag_11:\n      callvalue\n      dup1\n      iszero\n      tag_63\n      jumpi\n      0x00\n      dup1\n      revert\n    tag_63:\n      pop\n      tag_64\n      0x04\n      dup1\n      calldatasize\n      sub\n      dup2\n      add\n      swap1\n      tag_65\n      swap2\n      swap1\n      tag_28\n      jump\t// in\n    tag_65:\n      tag_66\n      jump\t// in\n    tag_64:\n      mload(0x40)\n      tag_67\n      swap2\n      swap1\n      tag_24\n      jump\t// in\n    tag_67:\n      mload(0x40)\n      dup1\n      swap2\n      sub\n      swap1\n      return\n        /* \"Contracts/Timelock.sol\":8241:9293  function execute(bytes32 operationId) external payable nonReentrant {... */\n    tag_12:\n      tag_68\n      0x04\n      dup1\n      calldatasize\n      sub\n      dup2\n      add\n      swap1\n      tag_69\n      swap2\n      swap1\n      tag_28\n      jump\t// in\n    tag_69:\n      tag_70\n      jump\t// in\n    tag_68:\n      stop\n        /* \"Contracts/Timelock.sol\":5952:6204  function getOperationId(... */\n    tag_13:\n      callvalue\n      dup1\n      iszero\n      tag_71\n      jumpi\n      0x00\n      dup1\n      revert\n    tag_71:\n      pop\n      tag_72\n      0x04\n      dup1\n      calldatasize\n      sub\n      dup2\n      add\n      swap1\n      tag_73\n      swap2\n      swap1\n      tag_44\n      jump\t// in\n    tag_73:\n      tag_74\n      jump\t// in\n    tag_72:\n      mload(0x40)\n      tag_75\n      swap2\n      swap1\n      tag_47\n      jump\t// in\n    tag_75:\n      mload(0x40)\n      dup1\n      swap2\n      sub\n      swap1\n      return\n        /* \"Contracts/Timelock.sol\":5362:5544  function setGracePeriod(uint256 newGracePeriod) external onlyOwner {... */\n    tag_14:\n      callvalue\n      dup1\n      iszero\n      tag_76\n      jumpi\n      0x00\n      dup1\n      revert\n    tag_76:\n      pop\n      tag_77\n      0x04\n      dup1\n      calldatasize\n      sub\n      dup2\n      add\n      swap1\n      tag_78\n      swap2\n      swap1\n      tag_61\n      jump\t// in\n    tag_78:\n      tag_79\n      jump\t// in\n    tag_77:\n      stop\n        /* \"Contracts/Timelock.sol\":4692:4861  function transferOwnership(address newOwner) external onlyOwner {... */\n    tag_15:\n      callvalue\n      dup1\n      iszero\n      tag_80\n      jumpi\n      0x00\n      dup1\n      revert\n    tag_80:\n      pop\n      tag_81\n      0x04\n      dup1\n      calldatasize\n      sub\n      dup2\n      add\n      swap1\n      tag_82\n      swap2\n      swap1\n      tag_83\n      jump\t// in\n    tag_82:\n      tag_84\n      jump\t// in\n    tag_81:\n      stop\n        /* \"Contracts/Timelock.sol\":2741:2761  uint256 public delay */\n    tag_22:\n      sload(0x01)\n      dup2\n      jump\t// out\n        /* \"Contracts/Timelock.sol\":10354:10703  function getOperationStatus(bytes32 operationId)... */\n    tag_29:\n        /* \"Contracts/Timelock.sol\":10450:10464  bool scheduled */\n      0x00\n        /* \"Contracts/Timelock.sol\":10466:10479  bool canceled */\n      dup1\n        /* \"Contracts/Timelock.sol\":10481:10494  bool executed */\n      0x00\n        /* \"Contracts/Timelock.sol\":10510:10530  Operation storage op */\n      dup1\n        /* \"Contracts/Timelock.sol\":10533:10543  operations */\n      0x03\n        /* \"Contracts/Timelock.sol\":10533:10556  operations[operationId] */\n      0x00\n        /* \"Contracts/Timelock.sol\":10544:10555  operationId */\n      dup7\n        /* \"Contracts/Timelock.sol\":10533:10556  operations[operationId] */\n      dup2\n      mstore\n      0x20\n      add\n      swap1\n      dup2\n      mstore\n      0x20\n      add\n      0x00\n      keccak256\n        /* \"Contracts/Timelock.sol\":10510:10556  Operation storage op = operations[operationId] */\n      swap1\n      pop\n        /* \"Contracts/Timelock.sol\":10591:10592  0 */\n      0x00\n        /* \"Contracts/Timelock.sol\":10570:10593  op.target == address(0) */\n      0xffffffffffffffffffffffffffffffffffffffff\n      and\n        /* \"Contracts/Timelock.sol\":10570:10572  op */\n      dup2\n        /* \"Contracts/Timelock.sol\":10570:10579  op.target */\n      0x00\n      add\n      0x00\n      swap1\n      sload\n      swap1\n      0x0100\n      exp\n      swap1\n      div\n      0xffffffffffffffffffffffffffffffffffffffff\n      and\n        /* \"Contracts/Timelock.sol\":10570:10593  op.target == address(0) */\n      0xffffffffffffffffffffffffffffffffffffffff\n      and\n      sub\n        /* \"Contracts/Timelock.sol\":10566:10648  if (op.target == address(0)) {... */\n      tag_86\n      jumpi\n        /* \"Contracts/Timelock.sol\":10617:10622  false */\n      0x00\n        /* \"Contracts/Timelock.sol\":10624:10629  false */\n      dup1\n        /* \"Contracts/Timelock.sol\":10631:10636  false */\n      0x00\n        /* \"Contracts/Timelock.sol\":10609:10637  return (false, false, false) */\n      swap4\n      pop\n      swap4\n      pop\n      swap4\n      pop\n      pop\n      jump(tag_85)\n        /* \"Contracts/Timelock.sol\":10566:10648  if (op.target == address(0)) {... */\n    tag_86:\n        /* \"Contracts/Timelock.sol\":10665:10669  true */\n      0x01\n        /* \"Contracts/Timelock.sol\":10671:10673  op */\n      dup2\n        /* \"Contracts/Timelock.sol\":10671:10682  op.canceled */\n      0x05\n      add\n      0x01\n      swap1\n      sload\n      swap1\n      0x0100\n      exp\n      swap1\n      div\n      0xff\n      and\n        /* \"Contracts/Timelock.sol\":10684:10686  op */\n      dup3\n        /* \"Contracts/Timelock.sol\":10684:10695  op.executed */\n      0x05\n      add\n      0x00\n      swap1\n      sload\n      swap1\n      0x0100\n      exp\n      swap1\n      div\n      0xff\n      and\n        /* \"Contracts/Timelock.sol\":10657:10696  return (true, op.canceled, op.executed) */\n      swap4\n      pop\n      swap4\n      pop\n      swap4\n      pop\n      pop\n        /* \"Contracts/Timelock.sol\":10354:10703  function getOperationStatus(bytes32 operationId)... */\n    tag_85:\n      swap2\n      swap4\n      swap1\n      swap3\n      pop\n      jump\t// out\n        /* \"Contracts/Timelock.sol\":2940:2960  address public owner */\n    tag_34:\n      0x02\n      0x00\n      swap1\n      sload\n      swap1\n      0x0100\n      exp\n      swap1\n      div\n      0xffffffffffffffffffffffffffffffffffffffff\n      and\n      dup2\n      jump\t// out\n        /* \"Contracts/Timelock.sol\":2612:2638  uint256 public gracePeriod */\n    tag_39:\n      sload(0x00)\n      dup2\n      jump\t// out\n        /* \"Contracts/Timelock.sol\":6599:7459  function schedule(... */\n    tag_45:\n        /* \"Contracts/Timelock.sol\":6762:6781  bytes32 operationId */\n      0x00\n        /* \"Contracts/Timelock.sol\":3912:3917  owner */\n      0x02\n      0x00\n      swap1\n      sload\n      swap1\n      0x0100\n      exp\n      swap1\n      div\n      0xffffffffffffffffffffffffffffffffffffffff\n      and\n        /* \"Contracts/Timelock.sol\":3898:3917  msg.sender == owner */\n      0xffffffffffffffffffffffffffffffffffffffff\n      and\n        /* \"Contracts/Timelock.sol\":3898:3908  msg.sender */\n      caller\n        /* \"Contracts/Timelock.sol\":3898:3917  msg.sender == owner */\n      0xffffffffffffffffffffffffffffffffffffffff\n      and\n      eq\n        /* \"Contracts/Timelock.sol\":3890:3955  require(msg.sender == owner, \"Timelock: caller is not the owner\") */\n      tag_88\n      jumpi\n      mload(0x40)\n      0x08c379a000000000000000000000000000000000000000000000000000000000\n      dup2\n      mstore\n      0x04\n      add\n      tag_89\n      swap1\n      tag_90\n      jump\t// in\n    tag_89:\n      mload(0x40)\n      dup1\n      swap2\n      sub\n      swap1\n      revert\n    tag_88:\n        /* \"Contracts/Timelock.sol\":6819:6820  0 */\n      0x00\n        /* \"Contracts/Timelock.sol\":6801:6821  target != address(0) */\n      0xffffffffffffffffffffffffffffffffffffffff\n      and\n        /* \"Contracts/Timelock.sol\":6801:6807  target */\n      dup6\n        /* \"Contracts/Timelock.sol\":6801:6821  target != address(0) */\n      0xffffffffffffffffffffffffffffffffffffffff\n      and\n      sub\n        /* \"Contracts/Timelock.sol\":6793:6850  require(target != address(0), \"Timelock: invalid target\") */\n      tag_92\n      jumpi\n      mload(0x40)\n      0x08c379a000000000000000000000000000000000000000000000000000000000\n      dup2\n      mstore\n      0x04\n      add\n      tag_93\n      swap1\n      tag_94\n      jump\t// in\n    tag_93:\n      mload(0x40)\n      dup1\n      swap2\n      sub\n      swap1\n      revert\n    tag_92:\n        /* \"Contracts/Timelock.sol\":6875:6925  getOperationId(target, value, signature, callData) */\n      tag_95\n        /* \"Contracts/Timelock.sol\":6890:6896  target */\n      dup6\n        /* \"Contracts/Timelock.sol\":6898:6903  value */\n      dup6\n        /* \"Contracts/Timelock.sol\":6905:6914  signature */\n      dup6\n        /* \"Contracts/Timelock.sol\":6916:6924  callData */\n      dup6\n        /* \"Contracts/Timelock.sol\":6875:6889  getOperationId */\n      tag_74\n        /* \"Contracts/Timelock.sol\":6875:6925  getOperationId(target, value, signature, callData) */\n      jump\t// in\n    tag_95:\n        /* \"Contracts/Timelock.sol\":6861:6925  operationId = getOperationId(target, value, signature, callData) */\n      swap1\n      pop\n        /* \"Contracts/Timelock.sol\":6935:6955  Operation storage op */\n      0x00\n        /* \"Contracts/Timelock.sol\":6958:6968  operations */\n      0x03\n        /* \"Contracts/Timelock.sol\":6958:6981  operations[operationId] */\n      0x00\n        /* \"Contracts/Timelock.sol\":6969:6980  operationId */\n      dup4\n        /* \"Contracts/Timelock.sol\":6958:6981  operations[operationId] */\n      dup2\n      mstore\n      0x20\n      add\n      swap1\n      dup2\n      mstore\n      0x20\n      add\n      0x00\n      keccak256\n        /* \"Contracts/Timelock.sol\":6935:6981  Operation storage op = operations[operationId] */\n      swap1\n      pop\n        /* \"Contracts/Timelock.sol\":7020:7021  0 */\n      0x00\n        /* \"Contracts/Timelock.sol\":6999:7022  op.target == address(0) */\n      0xffffffffffffffffffffffffffffffffffffffff\n      and\n        /* \"Contracts/Timelock.sol\":6999:7001  op */\n      dup2\n        /* \"Contracts/Timelock.sol\":6999:7008  op.target */\n      0x00\n      add\n      0x00\n      swap1\n      sload\n      swap1\n      0x0100\n      exp\n      swap1\n      div\n      0xffffffffffffffffffffffffffffffffffffffff\n      and\n        /* \"Contracts/Timelock.sol\":6999:7022  op.target == address(0) */\n      0xffffffffffffffffffffffffffffffffffffffff\n      and\n      eq\n        /* \"Contracts/Timelock.sol\":6991:7064  require(op.target == address(0), \"Timelock: operation already scheduled\") */\n      tag_96\n      jumpi\n      mload(0x40)\n      0x08c379a000000000000000000000000000000000000000000000000000000000\n      dup2\n      mstore\n      0x04\n      add\n      tag_97\n      swap1\n      tag_98\n      jump\t// in\n    tag_97:\n      mload(0x40)\n      dup1\n      swap2\n      sub\n      swap1\n      revert\n    tag_96:\n        /* \"Contracts/Timelock.sol\":7075:7099  uint256 earliestExecTime */\n      0x00\n        /* \"Contracts/Timelock.sol\":7120:7125  delay */\n      sload(0x01)\n        /* \"Contracts/Timelock.sol\":7102:7117  block.timestamp */\n      timestamp\n        /* \"Contracts/Timelock.sol\":7102:7125  block.timestamp + delay */\n      tag_99\n      swap2\n      swap1\n      tag_100\n      jump\t// in\n    tag_99:\n        /* \"Contracts/Timelock.sol\":7075:7125  uint256 earliestExecTime = block.timestamp + delay */\n      swap1\n      pop\n        /* \"Contracts/Timelock.sol\":7147:7153  target */\n      dup7\n        /* \"Contracts/Timelock.sol\":7135:7137  op */\n      dup3\n        /* \"Contracts/Timelock.sol\":7135:7144  op.target */\n      0x00\n      add\n      0x00\n        /* \"Contracts/Timelock.sol\":7135:7153  op.target = target */\n      0x0100\n      exp\n      dup2\n      sload\n      dup2\n      0xffffffffffffffffffffffffffffffffffffffff\n      mul\n      not\n      and\n      swap1\n      dup4\n      0xffffffffffffffffffffffffffffffffffffffff\n      and\n      mul\n      or\n      swap1\n      sstore\n      pop\n        /* \"Contracts/Timelock.sol\":7174:7179  value */\n      dup6\n        /* \"Contracts/Timelock.sol\":7163:7165  op */\n      dup3\n        /* \"Contracts/Timelock.sol\":7163:7171  op.value */\n      0x01\n      add\n        /* \"Contracts/Timelock.sol\":7163:7179  op.value = value */\n      dup2\n      swap1\n      sstore\n      pop\n        /* \"Contracts/Timelock.sol\":7204:7213  signature */\n      dup5\n        /* \"Contracts/Timelock.sol\":7189:7191  op */\n      dup3\n        /* \"Contracts/Timelock.sol\":7189:7201  op.signature */\n      0x02\n      add\n        /* \"Contracts/Timelock.sol\":7189:7213  op.signature = signature */\n      swap1\n      dup2\n      tag_101\n      swap2\n      swap1\n      tag_102\n      jump\t// in\n    tag_101:\n      pop\n        /* \"Contracts/Timelock.sol\":7237:7245  callData */\n      dup4\n        /* \"Contracts/Timelock.sol\":7223:7225  op */\n      dup3\n        /* \"Contracts/Timelock.sol\":7223:7234  op.callData */\n      0x03\n      add\n        /* \"Contracts/Timelock.sol\":7223:7245  op.callData = callData */\n      swap1\n      dup2\n      tag_103\n      swap2\n      swap1\n      tag_104\n      jump\t// in\n    tag_103:\n      pop\n        /* \"Contracts/Timelock.sol\":7277:7293  earliestExecTime */\n      dup1\n        /* \"Contracts/Timelock.sol\":7255:7257  op */\n      dup3\n        /* \"Contracts/Timelock.sol\":7255:7274  op.earliestExecTime */\n      0x04\n      add\n        /* \"Contracts/Timelock.sol\":7255:7293  op.earliestExecTime = earliestExecTime */\n      dup2\n      swap1\n      sstore\n      pop\n        /* \"Contracts/Timelock.sol\":7317:7322  false */\n      0x00\n        /* \"Contracts/Timelock.sol\":7303:7305  op */\n      dup3\n        /* \"Contracts/Timelock.sol\":7303:7314  op.executed */\n      0x05\n      add\n      0x00\n        /* \"Contracts/Timelock.sol\":7303:7322  op.executed = false */\n      0x0100\n      exp\n      dup2\n      sload\n      dup2\n      0xff\n      mul\n      not\n      and\n      swap1\n      dup4\n      iszero\n      iszero\n      mul\n      or\n      swap1\n      sstore\n      pop\n        /* \"Contracts/Timelock.sol\":7346:7351  false */\n      0x00\n        /* \"Contracts/Timelock.sol\":7332:7334  op */\n      dup3\n        /* \"Contracts/Timelock.sol\":7332:7343  op.canceled */\n      0x05\n      add\n      0x01\n        /* \"Contracts/Timelock.sol\":7332:7351  op.canceled = false */\n      0x0100\n      exp\n      dup2\n      sload\n      dup2\n      0xff\n      mul\n      not\n      and\n      swap1\n      dup4\n      iszero\n      iszero\n      mul\n      or\n      swap1\n      sstore\n      pop\n        /* \"Contracts/Timelock.sol\":7399:7405  target */\n      dup7\n        /* \"Contracts/Timelock.sol\":7367:7452  OperationScheduled(operationId, target, value, signature, callData, earliestExecTime) */\n      0xffffffffffffffffffffffffffffffffffffffff\n      and\n        /* \"Contracts/Timelock.sol\":7386:7397  operationId */\n      dup4\n        /* \"Contracts/Timelock.sol\":7367:7452  OperationScheduled(operationId, target, value, signature, callData, earliestExecTime) */\n      0x5eab136a1e0af9e18165f705d4a9f7a210395aa3d4de14a416c5e5ed744f6655\n        /* \"Contracts/Timelock.sol\":7407:7412  value */\n      dup9\n        /* \"Contracts/Timelock.sol\":7414:7423  signature */\n      dup9\n        /* \"Contracts/Timelock.sol\":7425:7433  callData */\n      dup9\n        /* \"Contracts/Timelock.sol\":7435:7451  earliestExecTime */\n      dup7\n        /* \"Contracts/Timelock.sol\":7367:7452  OperationScheduled(operationId, target, value, signature, callData, earliestExecTime) */\n      mload(0x40)\n      tag_105\n      swap5\n      swap4\n      swap3\n      swap2\n      swap1\n      tag_106\n      jump\t// in\n    tag_105:\n      mload(0x40)\n      dup1\n      swap2\n      sub\n      swap1\n      log3\n        /* \"Contracts/Timelock.sol\":6783:7459  {... */\n      pop\n      pop\n        /* \"Contracts/Timelock.sol\":6599:7459  function schedule(... */\n      swap5\n      swap4\n      pop\n      pop\n      pop\n      pop\n      jump\t// out\n        /* \"Contracts/Timelock.sol\":7648:8055  function cancel(bytes32 operationId) external onlyOwner {... */\n    tag_51:\n        /* \"Contracts/Timelock.sol\":3912:3917  owner */\n      0x02\n      0x00\n      swap1\n      sload\n      swap1\n      0x0100\n      exp\n      swap1\n      div\n      0xffffffffffffffffffffffffffffffffffffffff\n      and\n        /* \"Contracts/Timelock.sol\":3898:3917  msg.sender == owner */\n      0xffffffffffffffffffffffffffffffffffffffff\n      and\n        /* \"Contracts/Timelock.sol\":3898:3908  msg.sender */\n      caller\n        /* \"Contracts/Timelock.sol\":3898:3917  msg.sender == owner */\n      0xffffffffffffffffffffffffffffffffffffffff\n      and\n      eq\n        /* \"Contracts/Timelock.sol\":3890:3955  require(msg.sender == owner, \"Timelock: caller is not the owner\") */\n      tag_108\n      jumpi\n      mload(0x40)\n      0x08c379a000000000000000000000000000000000000000000000000000000000\n      dup2\n      mstore\n      0x04\n      add\n      tag_109\n      swap1\n      tag_90\n      jump\t// in\n    tag_109:\n      mload(0x40)\n      dup1\n      swap2\n      sub\n      swap1\n      revert\n    tag_108:\n        /* \"Contracts/Timelock.sol\":7714:7734  Operation storage op */\n      0x00\n        /* \"Contracts/Timelock.sol\":7737:7747  operations */\n      0x03\n        /* \"Contracts/Timelock.sol\":7737:7760  operations[operationId] */\n      0x00\n        /* \"Contracts/Timelock.sol\":7748:7759  operationId */\n      dup4\n        /* \"Contracts/Timelock.sol\":7737:7760  operations[operationId] */\n      dup2\n      mstore\n      0x20\n      add\n      swap1\n      dup2\n      mstore\n      0x20\n      add\n      0x00\n      keccak256\n        /* \"Contracts/Timelock.sol\":7714:7760  Operation storage op = operations[operationId] */\n      swap1\n      pop\n        /* \"Contracts/Timelock.sol\":7799:7800  0 */\n      0x00\n        /* \"Contracts/Timelock.sol\":7778:7801  op.target != address(0) */\n      0xffffffffffffffffffffffffffffffffffffffff\n      and\n        /* \"Contracts/Timelock.sol\":7778:7780  op */\n      dup2\n        /* \"Contracts/Timelock.sol\":7778:7787  op.target */\n      0x00\n      add\n      0x00\n      swap1\n      sload\n      swap1\n      0x0100\n      exp\n      swap1\n      div\n      0xffffffffffffffffffffffffffffffffffffffff\n      and\n        /* \"Contracts/Timelock.sol\":7778:7801  op.target != address(0) */\n      0xffffffffffffffffffffffffffffffffffffffff\n      and\n      sub\n        /* \"Contracts/Timelock.sol\":7770:7833  require(op.target != address(0), \"Timelock: unknown operation\") */\n      tag_111\n      jumpi\n      mload(0x40)\n      0x08c379a000000000000000000000000000000000000000000000000000000000\n      dup2\n      mstore\n      0x04\n      add\n      tag_112\n      swap1\n      tag_113\n      jump\t// in\n    tag_112:\n      mload(0x40)\n      dup1\n      swap2\n      sub\n      swap1\n      revert\n    tag_111:\n        /* \"Contracts/Timelock.sol\":7852:7854  op */\n      dup1\n        /* \"Contracts/Timelock.sol\":7852:7863  op.executed */\n      0x05\n      add\n      0x00\n      swap1\n      sload\n      swap1\n      0x0100\n      exp\n      swap1\n      div\n      0xff\n      and\n        /* \"Contracts/Timelock.sol\":7851:7863  !op.executed */\n      iszero\n        /* \"Contracts/Timelock.sol\":7843:7904  require(!op.executed, \"Timelock: operation already executed\") */\n      tag_114\n      jumpi\n      mload(0x40)\n      0x08c379a000000000000000000000000000000000000000000000000000000000\n      dup2\n      mstore\n      0x04\n      add\n      tag_115\n      swap1\n      tag_116\n      jump\t// in\n    tag_115:\n      mload(0x40)\n      dup1\n      swap2\n      sub\n      swap1\n      revert\n    tag_114:\n        /* \"Contracts/Timelock.sol\":7923:7925  op */\n      dup1\n        /* \"Contracts/Timelock.sol\":7923:7934  op.canceled */\n      0x05\n      add\n      0x01\n      swap1\n      sload\n      swap1\n      0x0100\n      exp\n      swap1\n      div\n      0xff\n      and\n        /* \"Contracts/Timelock.sol\":7922:7934  !op.canceled */\n      iszero\n        /* \"Contracts/Timelock.sol\":7914:7975  require(!op.canceled, \"Timelock: operation already canceled\") */\n      tag_117\n      jumpi\n      mload(0x40)\n      0x08c379a000000000000000000000000000000000000000000000000000000000\n      dup2\n      mstore\n      0x04\n      add\n      tag_118\n      swap1\n      tag_119\n      jump\t// in\n    tag_118:\n      mload(0x40)\n      dup1\n      swap2\n      sub\n      swap1\n      revert\n    tag_117:\n        /* \"Contracts/Timelock.sol\":7999:8003  true */\n      0x01\n        /* \"Contracts/Timelock.sol\":7985:7987  op */\n      dup2\n        /* \"Contracts/Timelock.sol\":7985:7996  op.canceled */\n      0x05\n      add\n      0x01\n        /* \"Contracts/Timelock.sol\":7985:8003  op.canceled = true */\n      0x0100\n      exp\n      dup2\n      sload\n      dup2\n      0xff\n      mul\n      not\n      and\n      swap1\n      dup4\n      iszero\n      iszero\n      mul\n      or\n      swap1\n      sstore\n      pop\n        /* \"Contracts/Timelock.sol\":8036:8047  operationId */\n      dup2\n        /* \"Contracts/Timelock.sol\":8018:8048  OperationCanceled(operationId) */\n      0x7a168f30d6a7a3b7aa2e211c067c04bde31169a0f3171a98084508204bc56094\n      mload(0x40)\n      mload(0x40)\n      dup1\n      swap2\n      sub\n      swap1\n      log2\n        /* \"Contracts/Timelock.sol\":7704:8055  {... */\n      pop\n        /* \"Contracts/Timelock.sol\":7648:8055  function cancel(bytes32 operationId) external onlyOwner {... */\n      pop\n      jump\t// out\n        /* \"Contracts/Timelock.sol\":3055:3102  mapping(bytes32 => Operation) public operations */\n    tag_55:\n      mstore(0x20, 0x03)\n      dup1\n      0x00\n      mstore\n      keccak256(0x00, 0x40)\n      0x00\n      swap2\n      pop\n      swap1\n      pop\n      dup1\n      0x00\n      add\n      0x00\n      swap1\n      sload\n      swap1\n      0x0100\n      exp\n      swap1\n      div\n      0xffffffffffffffffffffffffffffffffffffffff\n      and\n      swap1\n      dup1\n      0x01\n      add\n      sload\n      swap1\n      dup1\n      0x02\n      add\n      dup1\n      sload\n      tag_120\n      swap1\n      tag_121\n      jump\t// in\n    tag_120:\n      dup1\n      0x1f\n      add\n      0x20\n      dup1\n      swap2\n      div\n      mul\n      0x20\n      add\n      mload(0x40)\n      swap1\n      dup2\n      add\n      0x40\n      mstore\n      dup1\n      swap3\n      swap2\n      swap1\n      dup2\n      dup2\n      mstore\n      0x20\n      add\n      dup3\n      dup1\n      sload\n      tag_122\n      swap1\n      tag_121\n      jump\t// in\n    tag_122:\n      dup1\n      iszero\n      tag_123\n      jumpi\n      dup1\n      0x1f\n      lt\n      tag_124\n      jumpi\n      0x0100\n      dup1\n      dup4\n      sload\n      div\n      mul\n      dup4\n      mstore\n      swap2\n      0x20\n      add\n      swap2\n      jump(tag_123)\n    tag_124:\n      dup3\n      add\n      swap2\n      swap1\n      0x00\n      mstore\n      keccak256(0x00, 0x20)\n      swap1\n    tag_125:\n      dup2\n      sload\n      dup2\n      mstore\n      swap1\n      0x01\n      add\n      swap1\n      0x20\n      add\n      dup1\n      dup4\n      gt\n      tag_125\n      jumpi\n      dup3\n      swap1\n      sub\n      0x1f\n      and\n      dup3\n      add\n      swap2\n    tag_123:\n      pop\n      pop\n      pop\n      pop\n      pop\n      swap1\n      dup1\n      0x03\n      add\n      dup1\n      sload\n      tag_126\n      swap1\n      tag_121\n      jump\t// in\n    tag_126:\n      dup1\n      0x1f\n      add\n      0x20\n      dup1\n      swap2\n      div\n      mul\n      0x20\n      add\n      mload(0x40)\n      swap1\n      dup2\n      add\n      0x40\n      mstore\n      dup1\n      swap3\n      swap2\n      swap1\n      dup2\n      dup2\n      mstore\n      0x20\n      add\n      dup3\n      dup1\n      sload\n      tag_127\n      swap1\n      tag_121\n      jump\t// in\n    tag_127:\n      dup1\n      iszero\n      tag_128\n      jumpi\n      dup1\n      0x1f\n      lt\n      tag_129\n      jumpi\n      0x0100\n      dup1\n      dup4\n      sload\n      div\n      mul\n      dup4\n      mstore\n      swap2\n      0x20\n      add\n      swap2\n      jump(tag_128)\n    tag_129:\n      dup3\n      add\n      swap2\n      swap1\n      0x00\n      mstore\n      keccak256(0x00, 0x20)\n      swap1\n    tag_130:\n      dup2\n      sload\n      dup2\n      mstore\n      swap1\n      0x01\n      add\n      swap1\n      0x20\n      add\n      dup1\n      dup4\n      gt\n      tag_130\n      jumpi\n      dup3\n      swap1\n      sub\n      0x1f\n      and\n      dup3\n      add\n      swap2\n    tag_128:\n      pop\n      pop\n      pop\n      pop\n      pop\n      swap1\n      dup1\n      0x04\n      add\n      sload\n      swap1\n      dup1\n      0x05\n      add\n      0x00\n      swap1\n      sload\n      swap1\n      0x0100\n      exp\n      swap1\n      div\n      0xff\n      and\n      swap1\n      dup1\n      0x05\n      add\n      0x01\n      swap1\n      sload\n      swap1\n      0x0100\n      exp\n      swap1\n      div\n      0xff\n      and\n      swap1\n      pop\n      dup8\n      jump\t// out\n        /* \"Contracts/Timelock.sol\":5058:5146  function setDelay(uint256 newDelay) external onlyOwner {... */\n    tag_62:\n        /* \"Contracts/Timelock.sol\":3912:3917  owner */\n      0x02\n      0x00\n      swap1\n      sload\n      swap1\n      0x0100\n      exp\n      swap1\n      div\n      0xffffffffffffffffffffffffffffffffffffffff\n      and\n        /* \"Contracts/Timelock.sol\":3898:3917  msg.sender == owner */\n      0xffffffffffffffffffffffffffffffffffffffff\n      and\n        /* \"Contracts/Timelock.sol\":3898:3908  msg.sender */\n      caller\n        /* \"Contracts/Timelock.sol\":3898:3917  msg.sender == owner */\n      0xffffffffffffffffffffffffffffffffffffffff\n      and\n      eq\n        /* \"Contracts/Timelock.sol\":3890:3955  require(msg.sender == owner, \"Timelock: caller is not the owner\") */\n      tag_132\n      jumpi\n      mload(0x40)\n      0x08c379a000000000000000000000000000000000000000000000000000000000\n      dup2\n      mstore\n      0x04\n      add\n      tag_133\n      swap1\n      tag_90\n      jump\t// in\n    tag_133:\n      mload(0x40)\n      dup1\n      swap2\n      sub\n      swap1\n      revert\n    tag_132:\n        /* \"Contracts/Timelock.sol\":5131:5139  newDelay */\n      dup1\n        /* \"Contracts/Timelock.sol\":5123:5128  delay */\n      0x01\n        /* \"Contracts/Timelock.sol\":5123:5139  delay = newDelay */\n      dup2\n      swap1\n      sstore\n      pop\n        /* \"Contracts/Timelock.sol\":5058:5146  function setDelay(uint256 newDelay) external onlyOwner {... */\n      pop\n      jump\t// out\n        /* \"Contracts/Timelock.sol\":10922:11108  function getEarliestExecutionTime(bytes32 operationId) external view returns (uint256) {... */\n    tag_66:\n        /* \"Contracts/Timelock.sol\":11000:11007  uint256 */\n      0x00\n        /* \"Contracts/Timelock.sol\":11019:11039  Operation storage op */\n      dup1\n        /* \"Contracts/Timelock.sol\":11042:11052  operations */\n      0x03\n        /* \"Contracts/Timelock.sol\":11042:11065  operations[operationId] */\n      0x00\n        /* \"Contracts/Timelock.sol\":11053:11064  operationId */\n      dup5\n        /* \"Contracts/Timelock.sol\":11042:11065  operations[operationId] */\n      dup2\n      mstore\n      0x20\n      add\n      swap1\n      dup2\n      mstore\n      0x20\n      add\n      0x00\n      keccak256\n        /* \"Contracts/Timelock.sol\":11019:11065  Operation storage op = operations[operationId] */\n      swap1\n      pop\n        /* \"Contracts/Timelock.sol\":11082:11084  op */\n      dup1\n        /* \"Contracts/Timelock.sol\":11082:11101  op.earliestExecTime */\n      0x04\n      add\n      sload\n        /* \"Contracts/Timelock.sol\":11075:11101  return op.earliestExecTime */\n      swap2\n      pop\n      pop\n        /* \"Contracts/Timelock.sol\":10922:11108  function getEarliestExecutionTime(bytes32 operationId) external view returns (uint256) {... */\n      swap2\n      swap1\n      pop\n      jump\t// out\n        /* \"Contracts/Timelock.sol\":8241:9293  function execute(bytes32 operationId) external payable nonReentrant {... */\n    tag_70:\n        /* \"Contracts/Timelock.sol\":9527:9528  2 */\n      0x02\n        /* \"Contracts/Timelock.sol\":9516:9523  _status */\n      sload(0x04)\n        /* \"Contracts/Timelock.sol\":9516:9528  _status != 2 */\n      sub\n        /* \"Contracts/Timelock.sol\":9508:9557  require(_status != 2, \"Timelock: reentrant call\") */\n      tag_137\n      jumpi\n      mload(0x40)\n      0x08c379a000000000000000000000000000000000000000000000000000000000\n      dup2\n      mstore\n      0x04\n      add\n      tag_138\n      swap1\n      tag_139\n      jump\t// in\n    tag_138:\n      mload(0x40)\n      dup1\n      swap2\n      sub\n      swap1\n      revert\n    tag_137:\n        /* \"Contracts/Timelock.sol\":9577:9578  2 */\n      0x02\n        /* \"Contracts/Timelock.sol\":9567:9574  _status */\n      0x04\n        /* \"Contracts/Timelock.sol\":9567:9578  _status = 2 */\n      dup2\n      swap1\n      sstore\n      pop\n        /* \"Contracts/Timelock.sol\":8319:8339  Operation storage op */\n      0x00\n        /* \"Contracts/Timelock.sol\":8342:8352  operations */\n      0x03\n        /* \"Contracts/Timelock.sol\":8342:8365  operations[operationId] */\n      0x00\n        /* \"Contracts/Timelock.sol\":8353:8364  operationId */\n      dup4\n        /* \"Contracts/Timelock.sol\":8342:8365  operations[operationId] */\n      dup2\n      mstore\n      0x20\n      add\n      swap1\n      dup2\n      mstore\n      0x20\n      add\n      0x00\n      keccak256\n        /* \"Contracts/Timelock.sol\":8319:8365  Operation storage op = operations[operationId] */\n      swap1\n      pop\n        /* \"Contracts/Timelock.sol\":8404:8405  0 */\n      0x00\n        /* \"Contracts/Timelock.sol\":8383:8406  op.target != address(0) */\n      0xffffffffffffffffffffffffffffffffffffffff\n      and\n        /* \"Contracts/Timelock.sol\":8383:8385  op */\n      dup2\n        /* \"Contracts/Timelock.sol\":8383:8392  op.target */\n      0x00\n      add\n      0x00\n      swap1\n      sload\n      swap1\n      0x0100\n      exp\n      swap1\n      div\n      0xffffffffffffffffffffffffffffffffffffffff\n      and\n        /* \"Contracts/Timelock.sol\":8383:8406  op.target != address(0) */\n      0xffffffffffffffffffffffffffffffffffffffff\n      and\n      sub\n        /* \"Contracts/Timelock.sol\":8375:8438  require(op.target != address(0), \"Timelock: unknown operation\") */\n      tag_141\n      jumpi\n      mload(0x40)\n      0x08c379a000000000000000000000000000000000000000000000000000000000\n      dup2\n      mstore\n      0x04\n      add\n      tag_142\n      swap1\n      tag_113\n      jump\t// in\n    tag_142:\n      mload(0x40)\n      dup1\n      swap2\n      sub\n      swap1\n      revert\n    tag_141:\n        /* \"Contracts/Timelock.sol\":8457:8459  op */\n      dup1\n        /* \"Contracts/Timelock.sol\":8457:8468  op.executed */\n      0x05\n      add\n      0x00\n      swap1\n      sload\n      swap1\n      0x0100\n      exp\n      swap1\n      div\n      0xff\n      and\n        /* \"Contracts/Timelock.sol\":8456:8468  !op.executed */\n      iszero\n        /* \"Contracts/Timelock.sol\":8448:8509  require(!op.executed, \"Timelock: operation already executed\") */\n      tag_143\n      jumpi\n      mload(0x40)\n      0x08c379a000000000000000000000000000000000000000000000000000000000\n      dup2\n      mstore\n      0x04\n      add\n      tag_144\n      swap1\n      tag_116\n      jump\t// in\n    tag_144:\n      mload(0x40)\n      dup1\n      swap2\n      sub\n      swap1\n      revert\n    tag_143:\n        /* \"Contracts/Timelock.sol\":8528:8530  op */\n      dup1\n        /* \"Contracts/Timelock.sol\":8528:8539  op.canceled */\n      0x05\n      add\n      0x01\n      swap1\n      sload\n      swap1\n      0x0100\n      exp\n      swap1\n      div\n      0xff\n      and\n        /* \"Contracts/Timelock.sol\":8527:8539  !op.canceled */\n      iszero\n        /* \"Contracts/Timelock.sol\":8519:8572  require(!op.canceled, \"Timelock: operation canceled\") */\n      tag_145\n      jumpi\n      mload(0x40)\n      0x08c379a000000000000000000000000000000000000000000000000000000000\n      dup2\n      mstore\n      0x04\n      add\n      tag_146\n      swap1\n      tag_147\n      jump\t// in\n    tag_146:\n      mload(0x40)\n      dup1\n      swap2\n      sub\n      swap1\n      revert\n    tag_145:\n        /* \"Contracts/Timelock.sol\":8609:8611  op */\n      dup1\n        /* \"Contracts/Timelock.sol\":8609:8628  op.earliestExecTime */\n      0x04\n      add\n      sload\n        /* \"Contracts/Timelock.sol\":8590:8605  block.timestamp */\n      timestamp\n        /* \"Contracts/Timelock.sol\":8590:8628  block.timestamp >= op.earliestExecTime */\n      lt\n      iszero\n        /* \"Contracts/Timelock.sol\":8582:8652  require(block.timestamp >= op.earliestExecTime, \"Timelock: too early\") */\n      tag_148\n      jumpi\n      mload(0x40)\n      0x08c379a000000000000000000000000000000000000000000000000000000000\n      dup2\n      mstore\n      0x04\n      add\n      tag_149\n      swap1\n      tag_150\n      jump\t// in\n    tag_149:\n      mload(0x40)\n      dup1\n      swap2\n      sub\n      swap1\n      revert\n    tag_148:\n        /* \"Contracts/Timelock.sol\":8724:8735  gracePeriod */\n      sload(0x00)\n        /* \"Contracts/Timelock.sol\":8702:8704  op */\n      dup2\n        /* \"Contracts/Timelock.sol\":8702:8721  op.earliestExecTime */\n      0x04\n      add\n      sload\n        /* \"Contracts/Timelock.sol\":8702:8735  op.earliestExecTime + gracePeriod */\n      tag_151\n      swap2\n      swap1\n      tag_100\n      jump\t// in\n    tag_151:\n        /* \"Contracts/Timelock.sol\":8683:8698  block.timestamp */\n      timestamp\n        /* \"Contracts/Timelock.sol\":8683:8735  block.timestamp <= op.earliestExecTime + gracePeriod */\n      gt\n      iszero\n        /* \"Contracts/Timelock.sol\":8662:8788  require(... */\n      tag_152\n      jumpi\n      mload(0x40)\n      0x08c379a000000000000000000000000000000000000000000000000000000000\n      dup2\n      mstore\n      0x04\n      add\n      tag_153\n      swap1\n      tag_154\n      jump\t// in\n    tag_153:\n      mload(0x40)\n      dup1\n      swap2\n      sub\n      swap1\n      revert\n    tag_152:\n        /* \"Contracts/Timelock.sol\":8813:8817  true */\n      0x01\n        /* \"Contracts/Timelock.sol\":8799:8801  op */\n      dup2\n        /* \"Contracts/Timelock.sol\":8799:8810  op.executed */\n      0x05\n      add\n      0x00\n        /* \"Contracts/Timelock.sol\":8799:8817  op.executed = true */\n      0x0100\n      exp\n      dup2\n      sload\n      dup2\n      0xff\n      mul\n      not\n      and\n      swap1\n      dup4\n      iszero\n      iszero\n      mul\n      or\n      swap1\n      sstore\n      pop\n        /* \"Contracts/Timelock.sol\":8828:8849  bytes memory callData */\n      0x60\n        /* \"Contracts/Timelock.sol\":8893:8894  0 */\n      0x00\n        /* \"Contracts/Timelock.sol\":8869:8871  op */\n      dup3\n        /* \"Contracts/Timelock.sol\":8869:8881  op.signature */\n      0x02\n      add\n        /* \"Contracts/Timelock.sol\":8863:8889  bytes(op.signature).length */\n      dup1\n      sload\n      tag_155\n      swap1\n      tag_121\n      jump\t// in\n    tag_155:\n      swap1\n      pop\n        /* \"Contracts/Timelock.sol\":8863:8894  bytes(op.signature).length == 0 */\n      sub\n        /* \"Contracts/Timelock.sol\":8859:9054  if (bytes(op.signature).length == 0) {... */\n      tag_156\n      jumpi\n        /* \"Contracts/Timelock.sol\":8921:8923  op */\n      dup2\n        /* \"Contracts/Timelock.sol\":8921:8932  op.callData */\n      0x03\n      add\n        /* \"Contracts/Timelock.sol\":8910:8932  callData = op.callData */\n      dup1\n      sload\n      tag_157\n      swap1\n      tag_121\n      jump\t// in\n    tag_157:\n      dup1\n      0x1f\n      add\n      0x20\n      dup1\n      swap2\n      div\n      mul\n      0x20\n      add\n      mload(0x40)\n      swap1\n      dup2\n      add\n      0x40\n      mstore\n      dup1\n      swap3\n      swap2\n      swap1\n      dup2\n      dup2\n      mstore\n      0x20\n      add\n      dup3\n      dup1\n      sload\n      tag_158\n      swap1\n      tag_121\n      jump\t// in\n    tag_158:\n      dup1\n      iszero\n      tag_159\n      jumpi\n      dup1\n      0x1f\n      lt\n      tag_160\n      jumpi\n      0x0100\n      dup1\n      dup4\n      sload\n      div\n      mul\n      dup4\n      mstore\n      swap2\n      0x20\n      add\n      swap2\n      jump(tag_159)\n    tag_160:\n      dup3\n      add\n      swap2\n      swap1\n      0x00\n      mstore\n      keccak256(0x00, 0x20)\n      swap1\n    tag_161:\n      dup2\n      sload\n      dup2\n      mstore\n      swap1\n      0x01\n      add\n      swap1\n      0x20\n      add\n      dup1\n      dup4\n      gt\n      tag_161\n      jumpi\n      dup3\n      swap1\n      sub\n      0x1f\n      and\n      dup3\n      add\n      swap2\n    tag_159:\n      pop\n      pop\n      pop\n      pop\n      pop\n      swap1\n      pop\n        /* \"Contracts/Timelock.sol\":8859:9054  if (bytes(op.signature).length == 0) {... */\n      jump(tag_162)\n    tag_156:\n        /* \"Contracts/Timelock.sol\":9014:9016  op */\n      dup2\n        /* \"Contracts/Timelock.sol\":9014:9026  op.signature */\n      0x02\n      add\n        /* \"Contracts/Timelock.sol\":8998:9028  keccak256(bytes(op.signature)) */\n      mload(0x40)\n      tag_163\n      swap2\n      swap1\n      tag_164\n      jump\t// in\n    tag_163:\n      mload(0x40)\n      dup1\n      swap2\n      sub\n      swap1\n      keccak256\n        /* \"Contracts/Timelock.sol\":9031:9033  op */\n      dup3\n        /* \"Contracts/Timelock.sol\":9031:9042  op.callData */\n      0x03\n      add\n        /* \"Contracts/Timelock.sol\":8974:9043  abi.encodePacked(bytes4(keccak256(bytes(op.signature))), op.callData) */\n      add(0x20, mload(0x40))\n      tag_165\n      swap3\n      swap2\n      swap1\n      tag_166\n      jump\t// in\n    tag_165:\n      mload(0x40)\n      0x20\n      dup2\n      dup4\n      sub\n      sub\n      dup2\n      mstore\n      swap1\n      0x40\n      mstore\n        /* \"Contracts/Timelock.sol\":8963:9043  callData = abi.encodePacked(bytes4(keccak256(bytes(op.signature))), op.callData) */\n      swap1\n      pop\n        /* \"Contracts/Timelock.sol\":8859:9054  if (bytes(op.signature).length == 0) {... */\n    tag_162:\n        /* \"Contracts/Timelock.sol\":9065:9077  bool success */\n      0x00\n        /* \"Contracts/Timelock.sol\":9079:9098  bytes memory result */\n      dup1\n        /* \"Contracts/Timelock.sol\":9102:9104  op */\n      dup4\n        /* \"Contracts/Timelock.sol\":9102:9111  op.target */\n      0x00\n      add\n      0x00\n      swap1\n      sload\n      swap1\n      0x0100\n      exp\n      swap1\n      div\n      0xffffffffffffffffffffffffffffffffffffffff\n      and\n        /* \"Contracts/Timelock.sol\":9102:9116  op.target.call */\n      0xffffffffffffffffffffffffffffffffffffffff\n      and\n        /* \"Contracts/Timelock.sol\":9124:9126  op */\n      dup5\n        /* \"Contracts/Timelock.sol\":9124:9132  op.value */\n      0x01\n      add\n      sload\n        /* \"Contracts/Timelock.sol\":9134:9142  callData */\n      dup5\n        /* \"Contracts/Timelock.sol\":9102:9143  op.target.call{value: op.value}(callData) */\n      mload(0x40)\n      tag_167\n      swap2\n      swap1\n      tag_168\n      jump\t// in\n    tag_167:\n      0x00\n      mload(0x40)\n      dup1\n      dup4\n      sub\n      dup2\n      dup6\n      dup8\n      gas\n      call\n      swap3\n      pop\n      pop\n      pop\n      returndatasize\n      dup1\n      0x00\n      dup2\n      eq\n      tag_171\n      jumpi\n      mload(0x40)\n      swap2\n      pop\n      and(add(returndatasize, 0x3f), not(0x1f))\n      dup3\n      add\n      0x40\n      mstore\n      returndatasize\n      dup3\n      mstore\n      returndatasize\n      0x00\n      0x20\n      dup5\n      add\n      returndatacopy\n      jump(tag_170)\n    tag_171:\n      0x60\n      swap2\n      pop\n    tag_170:\n      pop\n        /* \"Contracts/Timelock.sol\":9064:9143  (bool success, bytes memory result) = op.target.call{value: op.value}(callData) */\n      swap2\n      pop\n      swap2\n      pop\n        /* \"Contracts/Timelock.sol\":9161:9168  success */\n      dup2\n        /* \"Contracts/Timelock.sol\":9170:9191  _getRevertMsg(result) */\n      tag_172\n        /* \"Contracts/Timelock.sol\":9184:9190  result */\n      dup3\n        /* \"Contracts/Timelock.sol\":9170:9183  _getRevertMsg */\n      tag_173\n        /* \"Contracts/Timelock.sol\":9170:9191  _getRevertMsg(result) */\n      jump\t// in\n    tag_172:\n        /* \"Contracts/Timelock.sol\":9153:9192  require(success, _getRevertMsg(result)) */\n      swap1\n      tag_174\n      jumpi\n      mload(0x40)\n      0x08c379a000000000000000000000000000000000000000000000000000000000\n      dup2\n      mstore\n      0x04\n      add\n      tag_175\n      swap2\n      swap1\n      tag_176\n      jump\t// in\n    tag_175:\n      mload(0x40)\n      dup1\n      swap2\n      sub\n      swap1\n      revert\n    tag_174:\n      pop\n        /* \"Contracts/Timelock.sol\":9239:9241  op */\n      dup4\n        /* \"Contracts/Timelock.sol\":9239:9248  op.target */\n      0x00\n      add\n      0x00\n      swap1\n      sload\n      swap1\n      0x0100\n      exp\n      swap1\n      div\n      0xffffffffffffffffffffffffffffffffffffffff\n      and\n        /* \"Contracts/Timelock.sol\":9208:9286  OperationExecuted(operationId, op.target, op.value, op.signature, op.callData) */\n      0xffffffffffffffffffffffffffffffffffffffff\n      and\n        /* \"Contracts/Timelock.sol\":9226:9237  operationId */\n      dup6\n        /* \"Contracts/Timelock.sol\":9208:9286  OperationExecuted(operationId, op.target, op.value, op.signature, op.callData) */\n      0xc575ca257bfe46beac39c1f7d71db181bd749fb764c569f8d40f94b4f196a8e4\n        /* \"Contracts/Timelock.sol\":9250:9252  op */\n      dup7\n        /* \"Contracts/Timelock.sol\":9250:9258  op.value */\n      0x01\n      add\n      sload\n        /* \"Contracts/Timelock.sol\":9260:9262  op */\n      dup8\n        /* \"Contracts/Timelock.sol\":9260:9272  op.signature */\n      0x02\n      add\n        /* \"Contracts/Timelock.sol\":9274:9276  op */\n      dup9\n        /* \"Contracts/Timelock.sol\":9274:9285  op.callData */\n      0x03\n      add\n        /* \"Contracts/Timelock.sol\":9208:9286  OperationExecuted(operationId, op.target, op.value, op.signature, op.callData) */\n      mload(0x40)\n      tag_177\n      swap4\n      swap3\n      swap2\n      swap1\n      tag_178\n      jump\t// in\n    tag_177:\n      mload(0x40)\n      dup1\n      swap2\n      sub\n      swap1\n      log3\n        /* \"Contracts/Timelock.sol\":8309:9293  {... */\n      pop\n      pop\n      pop\n      pop\n        /* \"Contracts/Timelock.sol\":9609:9610  1 */\n      0x01\n        /* \"Contracts/Timelock.sol\":9599:9606  _status */\n      0x04\n        /* \"Contracts/Timelock.sol\":9599:9610  _status = 1 */\n      dup2\n      swap1\n      sstore\n      pop\n        /* \"Contracts/Timelock.sol\":8241:9293  function execute(bytes32 operationId) external payable nonReentrant {... */\n      pop\n      jump\t// out\n        /* \"Contracts/Timelock.sol\":5952:6204  function getOperationId(... */\n    tag_74:\n        /* \"Contracts/Timelock.sol\":6114:6121  bytes32 */\n      0x00\n        /* \"Contracts/Timelock.sol\":6161:6167  target */\n      dup5\n        /* \"Contracts/Timelock.sol\":6169:6174  value */\n      dup5\n        /* \"Contracts/Timelock.sol\":6176:6185  signature */\n      dup5\n        /* \"Contracts/Timelock.sol\":6187:6195  callData */\n      dup5\n        /* \"Contracts/Timelock.sol\":6150:6196  abi.encode(target, value, signature, callData) */\n      add(0x20, mload(0x40))\n      tag_180\n      swap5\n      swap4\n      swap3\n      swap2\n      swap1\n      tag_181\n      jump\t// in\n    tag_180:\n      mload(0x40)\n      0x20\n      dup2\n      dup4\n      sub\n      sub\n      dup2\n      mstore\n      swap1\n      0x40\n      mstore\n        /* \"Contracts/Timelock.sol\":6140:6197  keccak256(abi.encode(target, value, signature, callData)) */\n      dup1\n      mload\n      swap1\n      0x20\n      add\n      keccak256\n        /* \"Contracts/Timelock.sol\":6133:6197  return keccak256(abi.encode(target, value, signature, callData)) */\n      swap1\n      pop\n        /* \"Contracts/Timelock.sol\":5952:6204  function getOperationId(... */\n      swap5\n      swap4\n      pop\n      pop\n      pop\n      pop\n      jump\t// out\n        /* \"Contracts/Timelock.sol\":5362:5544  function setGracePeriod(uint256 newGracePeriod) external onlyOwner {... */\n    tag_79:\n        /* \"Contracts/Timelock.sol\":3912:3917  owner */\n      0x02\n      0x00\n      swap1\n      sload\n      swap1\n      0x0100\n      exp\n      swap1\n      div\n      0xffffffffffffffffffffffffffffffffffffffff\n      and\n        /* \"Contracts/Timelock.sol\":3898:3917  msg.sender == owner */\n      0xffffffffffffffffffffffffffffffffffffffff\n      and\n        /* \"Contracts/Timelock.sol\":3898:3908  msg.sender */\n      caller\n        /* \"Contracts/Timelock.sol\":3898:3917  msg.sender == owner */\n      0xffffffffffffffffffffffffffffffffffffffff\n      and\n      eq\n        /* \"Contracts/Timelock.sol\":3890:3955  require(msg.sender == owner, \"Timelock: caller is not the owner\") */\n      tag_183\n      jumpi\n      mload(0x40)\n      0x08c379a000000000000000000000000000000000000000000000000000000000\n      dup2\n      mstore\n      0x04\n      add\n      tag_184\n      swap1\n      tag_90\n      jump\t// in\n    tag_184:\n      mload(0x40)\n      dup1\n      swap2\n      sub\n      swap1\n      revert\n    tag_183:\n        /* \"Contracts/Timelock.sol\":5464:5465  0 */\n      0x00\n        /* \"Contracts/Timelock.sol\":5447:5461  newGracePeriod */\n      dup2\n        /* \"Contracts/Timelock.sol\":5447:5465  newGracePeriod > 0 */\n      gt\n        /* \"Contracts/Timelock.sol\":5439:5499  require(newGracePeriod > 0, \"Timelock: invalid gracePeriod\") */\n      tag_186\n      jumpi\n      mload(0x40)\n      0x08c379a000000000000000000000000000000000000000000000000000000000\n      dup2\n      mstore\n      0x04\n      add\n      tag_187\n      swap1\n      tag_188\n      jump\t// in\n    tag_187:\n      mload(0x40)\n      dup1\n      swap2\n      sub\n      swap1\n      revert\n    tag_186:\n        /* \"Contracts/Timelock.sol\":5523:5537  newGracePeriod */\n      dup1\n        /* \"Contracts/Timelock.sol\":5509:5520  gracePeriod */\n      0x00\n        /* \"Contracts/Timelock.sol\":5509:5537  gracePeriod = newGracePeriod */\n      dup2\n      swap1\n      sstore\n      pop\n        /* \"Contracts/Timelock.sol\":5362:5544  function setGracePeriod(uint256 newGracePeriod) external onlyOwner {... */\n      pop\n      jump\t// out\n        /* \"Contracts/Timelock.sol\":4692:4861  function transferOwnership(address newOwner) external onlyOwner {... */\n    tag_84:\n        /* \"Contracts/Timelock.sol\":3912:3917  owner */\n      0x02\n      0x00\n      swap1\n      sload\n      swap1\n      0x0100\n      exp\n      swap1\n      div\n      0xffffffffffffffffffffffffffffffffffffffff\n      and\n        /* \"Contracts/Timelock.sol\":3898:3917  msg.sender == owner */\n      0xffffffffffffffffffffffffffffffffffffffff\n      and\n        /* \"Contracts/Timelock.sol\":3898:3908  msg.sender */\n      caller\n        /* \"Contracts/Timelock.sol\":3898:3917  msg.sender == owner */\n      0xffffffffffffffffffffffffffffffffffffffff\n      and\n      eq\n        /* \"Contracts/Timelock.sol\":3890:3955  require(msg.sender == owner, \"Timelock: caller is not the owner\") */\n      tag_190\n      jumpi\n      mload(0x40)\n      0x08c379a000000000000000000000000000000000000000000000000000000000\n      dup2\n      mstore\n      0x04\n      add\n      tag_191\n      swap1\n      tag_90\n      jump\t// in\n    tag_191:\n      mload(0x40)\n      dup1\n      swap2\n      sub\n      swap1\n      revert\n    tag_190:\n        /* \"Contracts/Timelock.sol\":4794:4795  0 */\n      0x00\n        /* \"Contracts/Timelock.sol\":4774:4796  newOwner != address(0) */\n      0xffffffffffffffffffffffffffffffffffffffff\n      and\n        /* \"Contracts/Timelock.sol\":4774:4782  newOwner */\n      dup2\n        /* \"Contracts/Timelock.sol\":4774:4796  newOwner != address(0) */\n      0xffffffffffffffffffffffffffffffffffffffff\n      and\n      sub\n        /* \"Contracts/Timelock.sol\":4766:4828  require(newOwner != address(0), \"Timelock: invalid new owner\") */\n      tag_193\n      jumpi\n      mload(0x40)\n      0x08c379a000000000000000000000000000000000000000000000000000000000\n      dup2\n      mstore\n      0x04\n      add\n      tag_194\n      swap1\n      tag_195\n      jump\t// in\n    tag_194:\n      mload(0x40)\n      dup1\n      swap2\n      sub\n      swap1\n      revert\n    tag_193:\n        /* \"Contracts/Timelock.sol\":4846:4854  newOwner */\n      dup1\n        /* \"Contracts/Timelock.sol\":4838:4843  owner */\n      0x02\n      0x00\n        /* \"Contracts/Timelock.sol\":4838:4854  owner = newOwner */\n      0x0100\n      exp\n      dup2\n      sload\n      dup2\n      0xffffffffffffffffffffffffffffffffffffffff\n      mul\n      not\n      and\n      swap1\n      dup4\n      0xffffffffffffffffffffffffffffffffffffffff\n      and\n      mul\n      or\n      swap1\n      sstore\n      pop\n        /* \"Contracts/Timelock.sol\":4692:4861  function transferOwnership(address newOwner) external onlyOwner {... */\n      pop\n      jump\t// out\n        /* \"Contracts/Timelock.sol\":9746:10055  function _getRevertMsg(bytes memory _returnData) private pure returns (string memory) {... */\n    tag_173:\n        /* \"Contracts/Timelock.sol\":9817:9830  string memory */\n      0x60\n        /* \"Contracts/Timelock.sol\":9867:9869  68 */\n      0x44\n        /* \"Contracts/Timelock.sol\":9846:9857  _returnData */\n      dup3\n        /* \"Contracts/Timelock.sol\":9846:9864  _returnData.length */\n      mload\n        /* \"Contracts/Timelock.sol\":9846:9869  _returnData.length < 68 */\n      lt\n        /* \"Contracts/Timelock.sol\":9842:9919  if (_returnData.length < 68) return \"Timelock: call reverted without message\" */\n      iszero\n      tag_197\n      jumpi\n        /* \"Contracts/Timelock.sol\":9871:9919  return \"Timelock: call reverted without message\" */\n      mload(0x40)\n      dup1\n      0x60\n      add\n      0x40\n      mstore\n      dup1\n      0x27\n      dup2\n      mstore\n      0x20\n      add\n      data_2e99f832813f62cacc4fcf977024f89cedd8e06ce1f1282b5c2b4073e1773a9f\n      0x27\n      swap2\n      codecopy\n      swap1\n      pop\n      jump(tag_196)\n        /* \"Contracts/Timelock.sol\":9842:9919  if (_returnData.length < 68) return \"Timelock: call reverted without message\" */\n    tag_197:\n        /* \"Contracts/Timelock.sol\":9984:9988  0x04 */\n      0x04\n        /* \"Contracts/Timelock.sol\":9971:9982  _returnData */\n      dup3\n        /* \"Contracts/Timelock.sol\":9967:9989  add(_returnData, 0x04) */\n      add\n        /* \"Contracts/Timelock.sol\":9952:9989  _returnData := add(_returnData, 0x04) */\n      swap2\n      pop\n        /* \"Contracts/Timelock.sol\":10026:10037  _returnData */\n      dup2\n        /* \"Contracts/Timelock.sol\":10015:10048  abi.decode(_returnData, (string)) */\n      dup1\n      0x20\n      add\n      swap1\n      mload\n      dup2\n      add\n      swap1\n      tag_198\n      swap2\n      swap1\n      tag_199\n      jump\t// in\n    tag_198:\n        /* \"Contracts/Timelock.sol\":10008:10048  return abi.decode(_returnData, (string)) */\n      swap1\n      pop\n        /* \"Contracts/Timelock.sol\":9746:10055  function _getRevertMsg(bytes memory _returnData) private pure returns (string memory) {... */\n    tag_196:\n      swap2\n      swap1\n      pop\n      jump\t// out\n        /* \"#utility.yul\":7:84   */\n    tag_200:\n        /* \"#utility.yul\":44:51   */\n      0x00\n        /* \"#utility.yul\":73:78   */\n      dup2\n        /* \"#utility.yul\":62:78   */\n      swap1\n      pop\n        /* \"#utility.yul\":7:84   */\n      swap2\n      swap1\n      pop\n      jump\t// out\n        /* \"#utility.yul\":90:208   */\n    tag_201:\n        /* \"#utility.yul\":177:201   */\n      tag_296\n        /* \"#utility.yul\":195:200   */\n      dup2\n        /* \"#utility.yul\":177:201   */\n      tag_200\n      jump\t// in\n    tag_296:\n        /* \"#utility.yul\":172:175   */\n      dup3\n        /* \"#utility.yul\":165:202   */\n      mstore\n        /* \"#utility.yul\":90:208   */\n      pop\n      pop\n      jump\t// out\n        /* \"#utility.yul\":214:436   */\n    tag_24:\n        /* \"#utility.yul\":307:311   */\n      0x00\n        /* \"#utility.yul\":345:347   */\n      0x20\n        /* \"#utility.yul\":334:343   */\n      dup3\n        /* \"#utility.yul\":330:348   */\n      add\n        /* \"#utility.yul\":322:348   */\n      swap1\n      pop\n        /* \"#utility.yul\":358:429   */\n      tag_298\n        /* \"#utility.yul\":426:427   */\n      0x00\n        /* \"#utility.yul\":415:424   */\n      dup4\n        /* \"#utility.yul\":411:428   */\n      add\n        /* \"#utility.yul\":402:408   */\n      dup5\n        /* \"#utility.yul\":358:429   */\n      tag_201\n      jump\t// in\n    tag_298:\n        /* \"#utility.yul\":214:436   */\n      swap3\n      swap2\n      pop\n      pop\n      jump\t// out\n        /* \"#utility.yul\":442:517   */\n    tag_202:\n        /* \"#utility.yul\":475:481   */\n      0x00\n        /* \"#utility.yul\":508:510   */\n      0x40\n        /* \"#utility.yul\":502:511   */\n      mload\n        /* \"#utility.yul\":492:511   */\n      swap1\n      pop\n        /* \"#utility.yul\":442:517   */\n      swap1\n      jump\t// out\n        /* \"#utility.yul\":523:640   */\n    tag_203:\n        /* \"#utility.yul\":632:633   */\n      0x00\n        /* \"#utility.yul\":629:630   */\n      dup1\n        /* \"#utility.yul\":622:634   */\n      revert\n        /* \"#utility.yul\":646:763   */\n    tag_204:\n        /* \"#utility.yul\":755:756   */\n      0x00\n        /* \"#utility.yul\":752:753   */\n      dup1\n        /* \"#utility.yul\":745:757   */\n      revert\n        /* \"#utility.yul\":769:846   */\n    tag_205:\n        /* \"#utility.yul\":806:813   */\n      0x00\n        /* \"#utility.yul\":835:840   */\n      dup2\n        /* \"#utility.yul\":824:840   */\n      swap1\n      pop\n        /* \"#utility.yul\":769:846   */\n      swap2\n      swap1\n      pop\n      jump\t// out\n        /* \"#utility.yul\":852:974   */\n    tag_206:\n        /* \"#utility.yul\":925:949   */\n      tag_304\n        /* \"#utility.yul\":943:948   */\n      dup2\n        /* \"#utility.yul\":925:949   */\n      tag_205\n      jump\t// in\n    tag_304:\n        /* \"#utility.yul\":918:923   */\n      dup2\n        /* \"#utility.yul\":915:950   */\n      eq\n        /* \"#utility.yul\":905:968   */\n      tag_305\n      jumpi\n        /* \"#utility.yul\":964:965   */\n      0x00\n        /* \"#utility.yul\":961:962   */\n      dup1\n        /* \"#utility.yul\":954:966   */\n      revert\n        /* \"#utility.yul\":905:968   */\n    tag_305:\n        /* \"#utility.yul\":852:974   */\n      pop\n      jump\t// out\n        /* \"#utility.yul\":980:1119   */\n    tag_207:\n        /* \"#utility.yul\":1026:1031   */\n      0x00\n        /* \"#utility.yul\":1064:1070   */\n      dup2\n        /* \"#utility.yul\":1051:1071   */\n      calldataload\n        /* \"#utility.yul\":1042:1071   */\n      swap1\n      pop\n        /* \"#utility.yul\":1080:1113   */\n      tag_307\n        /* \"#utility.yul\":1107:1112   */\n      dup2\n        /* \"#utility.yul\":1080:1113   */\n      tag_206\n      jump\t// in\n    tag_307:\n        /* \"#utility.yul\":980:1119   */\n      swap3\n      swap2\n      pop\n      pop\n      jump\t// out\n        /* \"#utility.yul\":1125:1454   */\n    tag_28:\n        /* \"#utility.yul\":1184:1190   */\n      0x00\n        /* \"#utility.yul\":1233:1235   */\n      0x20\n        /* \"#utility.yul\":1221:1230   */\n      dup3\n        /* \"#utility.yul\":1212:1219   */\n      dup5\n        /* \"#utility.yul\":1208:1231   */\n      sub\n        /* \"#utility.yul\":1204:1236   */\n      slt\n        /* \"#utility.yul\":1201:1320   */\n      iszero\n      tag_309\n      jumpi\n        /* \"#utility.yul\":1239:1318   */\n      tag_310\n      tag_203\n      jump\t// in\n    tag_310:\n        /* \"#utility.yul\":1201:1320   */\n    tag_309:\n        /* \"#utility.yul\":1359:1360   */\n      0x00\n        /* \"#utility.yul\":1384:1437   */\n      tag_311\n        /* \"#utility.yul\":1429:1436   */\n      dup5\n        /* \"#utility.yul\":1420:1426   */\n      dup3\n        /* \"#utility.yul\":1409:1418   */\n      dup6\n        /* \"#utility.yul\":1405:1427   */\n      add\n        /* \"#utility.yul\":1384:1437   */\n      tag_207\n      jump\t// in\n    tag_311:\n        /* \"#utility.yul\":1374:1437   */\n      swap2\n      pop\n        /* \"#utility.yul\":1330:1447   */\n      pop\n        /* \"#utility.yul\":1125:1454   */\n      swap3\n      swap2\n      pop\n      pop\n      jump\t// out\n        /* \"#utility.yul\":1460:1550   */\n    tag_208:\n        /* \"#utility.yul\":1494:1501   */\n      0x00\n        /* \"#utility.yul\":1537:1542   */\n      dup2\n        /* \"#utility.yul\":1530:1543   */\n      iszero\n        /* \"#utility.yul\":1523:1544   */\n      iszero\n        /* \"#utility.yul\":1512:1544   */\n      swap1\n      pop\n        /* \"#utility.yul\":1460:1550   */\n      swap2\n      swap1\n      pop\n      jump\t// out\n        /* \"#utility.yul\":1556:1665   */\n    tag_209:\n        /* \"#utility.yul\":1637:1658   */\n      tag_314\n        /* \"#utility.yul\":1652:1657   */\n      dup2\n        /* \"#utility.yul\":1637:1658   */\n      tag_208\n      jump\t// in\n    tag_314:\n        /* \"#utility.yul\":1632:1635   */\n      dup3\n        /* \"#utility.yul\":1625:1659   */\n      mstore\n        /* \"#utility.yul\":1556:1665   */\n      pop\n      pop\n      jump\t// out\n        /* \"#utility.yul\":1671:2077   */\n    tag_31:\n        /* \"#utility.yul\":1802:1806   */\n      0x00\n        /* \"#utility.yul\":1840:1842   */\n      0x60\n        /* \"#utility.yul\":1829:1838   */\n      dup3\n        /* \"#utility.yul\":1825:1843   */\n      add\n        /* \"#utility.yul\":1817:1843   */\n      swap1\n      pop\n        /* \"#utility.yul\":1853:1918   */\n      tag_316\n        /* \"#utility.yul\":1915:1916   */\n      0x00\n        /* \"#utility.yul\":1904:1913   */\n      dup4\n        /* \"#utility.yul\":1900:1917   */\n      add\n        /* \"#utility.yul\":1891:1897   */\n      dup7\n        /* \"#utility.yul\":1853:1918   */\n      tag_209\n      jump\t// in\n    tag_316:\n        /* \"#utility.yul\":1928:1994   */\n      tag_317\n        /* \"#utility.yul\":1990:1992   */\n      0x20\n        /* \"#utility.yul\":1979:1988   */\n      dup4\n        /* \"#utility.yul\":1975:1993   */\n      add\n        /* \"#utility.yul\":1966:1972   */\n      dup6\n        /* \"#utility.yul\":1928:1994   */\n      tag_209\n      jump\t// in\n    tag_317:\n        /* \"#utility.yul\":2004:2070   */\n      tag_318\n        /* \"#utility.yul\":2066:2068   */\n      0x40\n        /* \"#utility.yul\":2055:2064   */\n      dup4\n        /* \"#utility.yul\":2051:2069   */\n      add\n        /* \"#utility.yul\":2042:2048   */\n      dup5\n        /* \"#utility.yul\":2004:2070   */\n      tag_209\n      jump\t// in\n    tag_318:\n        /* \"#utility.yul\":1671:2077   */\n      swap5\n      swap4\n      pop\n      pop\n      pop\n      pop\n      jump\t// out\n        /* \"#utility.yul\":2083:2209   */\n    tag_210:\n        /* \"#utility.yul\":2120:2127   */\n      0x00\n        /* \"#utility.yul\":2160:2202   */\n      0xffffffffffffffffffffffffffffffffffffffff\n        /* \"#utility.yul\":2153:2158   */\n      dup3\n        /* \"#utility.yul\":2149:2203   */\n      and\n        /* \"#utility.yul\":2138:2203   */\n      swap1\n      pop\n        /* \"#utility.yul\":2083:2209   */\n      swap2\n      swap1\n      pop\n      jump\t// out\n        /* \"#utility.yul\":2215:2311   */\n    tag_211:\n        /* \"#utility.yul\":2252:2259   */\n      0x00\n        /* \"#utility.yul\":2281:2305   */\n      tag_321\n        /* \"#utility.yul\":2299:2304   */\n      dup3\n        /* \"#utility.yul\":2281:2305   */\n      tag_210\n      jump\t// in\n    tag_321:\n        /* \"#utility.yul\":2270:2305   */\n      swap1\n      pop\n        /* \"#utility.yul\":2215:2311   */\n      swap2\n      swap1\n      pop\n      jump\t// out\n        /* \"#utility.yul\":2317:2435   */\n    tag_212:\n        /* \"#utility.yul\":2404:2428   */\n      tag_323\n        /* \"#utility.yul\":2422:2427   */\n      dup2\n        /* \"#utility.yul\":2404:2428   */\n      tag_211\n      jump\t// in\n    tag_323:\n        /* \"#utility.yul\":2399:2402   */\n      dup3\n        /* \"#utility.yul\":2392:2429   */\n      mstore\n        /* \"#utility.yul\":2317:2435   */\n      pop\n      pop\n      jump\t// out\n        /* \"#utility.yul\":2441:2663   */\n    tag_36:\n        /* \"#utility.yul\":2534:2538   */\n      0x00\n        /* \"#utility.yul\":2572:2574   */\n      0x20\n        /* \"#utility.yul\":2561:2570   */\n      dup3\n        /* \"#utility.yul\":2557:2575   */\n      add\n        /* \"#utility.yul\":2549:2575   */\n      swap1\n      pop\n        /* \"#utility.yul\":2585:2656   */\n      tag_325\n        /* \"#utility.yul\":2653:2654   */\n      0x00\n        /* \"#utility.yul\":2642:2651   */\n      dup4\n        /* \"#utility.yul\":2638:2655   */\n      add\n        /* \"#utility.yul\":2629:2635   */\n      dup5\n        /* \"#utility.yul\":2585:2656   */\n      tag_212\n      jump\t// in\n    tag_325:\n        /* \"#utility.yul\":2441:2663   */\n      swap3\n      swap2\n      pop\n      pop\n      jump\t// out\n        /* \"#utility.yul\":2669:2791   */\n    tag_213:\n        /* \"#utility.yul\":2742:2766   */\n      tag_327\n        /* \"#utility.yul\":2760:2765   */\n      dup2\n        /* \"#utility.yul\":2742:2766   */\n      tag_211\n      jump\t// in\n    tag_327:\n        /* \"#utility.yul\":2735:2740   */\n      dup2\n        /* \"#utility.yul\":2732:2767   */\n      eq\n        /* \"#utility.yul\":2722:2785   */\n      tag_328\n      jumpi\n        /* \"#utility.yul\":2781:2782   */\n      0x00\n        /* \"#utility.yul\":2778:2779   */\n      dup1\n        /* \"#utility.yul\":2771:2783   */\n      revert\n        /* \"#utility.yul\":2722:2785   */\n    tag_328:\n        /* \"#utility.yul\":2669:2791   */\n      pop\n      jump\t// out\n        /* \"#utility.yul\":2797:2936   */\n    tag_214:\n        /* \"#utility.yul\":2843:2848   */\n      0x00\n        /* \"#utility.yul\":2881:2887   */\n      dup2\n        /* \"#utility.yul\":2868:2888   */\n      calldataload\n        /* \"#utility.yul\":2859:2888   */\n      swap1\n      pop\n        /* \"#utility.yul\":2897:2930   */\n      tag_330\n        /* \"#utility.yul\":2924:2929   */\n      dup2\n        /* \"#utility.yul\":2897:2930   */\n      tag_213\n      jump\t// in\n    tag_330:\n        /* \"#utility.yul\":2797:2936   */\n      swap3\n      swap2\n      pop\n      pop\n      jump\t// out\n        /* \"#utility.yul\":2942:3064   */\n    tag_215:\n        /* \"#utility.yul\":3015:3039   */\n      tag_332\n        /* \"#utility.yul\":3033:3038   */\n      dup2\n        /* \"#utility.yul\":3015:3039   */\n      tag_200\n      jump\t// in\n    tag_332:\n        /* \"#utility.yul\":3008:3013   */\n      dup2\n        /* \"#utility.yul\":3005:3040   */\n      eq\n        /* \"#utility.yul\":2995:3058   */\n      tag_333\n      jumpi\n        /* \"#utility.yul\":3054:3055   */\n      0x00\n        /* \"#utility.yul\":3051:3052   */\n      dup1\n        /* \"#utility.yul\":3044:3056   */\n      revert\n        /* \"#utility.yul\":2995:3058   */\n    tag_333:\n        /* \"#utility.yul\":2942:3064   */\n      pop\n      jump\t// out\n        /* \"#utility.yul\":3070:3209   */\n    tag_216:\n        /* \"#utility.yul\":3116:3121   */\n      0x00\n        /* \"#utility.yul\":3154:3160   */\n      dup2\n        /* \"#utility.yul\":3141:3161   */\n      calldataload\n        /* \"#utility.yul\":3132:3161   */\n      swap1\n      pop\n        /* \"#utility.yul\":3170:3203   */\n      tag_335\n        /* \"#utility.yul\":3197:3202   */\n      dup2\n        /* \"#utility.yul\":3170:3203   */\n      tag_215\n      jump\t// in\n    tag_335:\n        /* \"#utility.yul\":3070:3209   */\n      swap3\n      swap2\n      pop\n      pop\n      jump\t// out\n        /* \"#utility.yul\":3215:3332   */\n    tag_217:\n        /* \"#utility.yul\":3324:3325   */\n      0x00\n        /* \"#utility.yul\":3321:3322   */\n      dup1\n        /* \"#utility.yul\":3314:3326   */\n      revert\n        /* \"#utility.yul\":3338:3455   */\n    tag_218:\n        /* \"#utility.yul\":3447:3448   */\n      0x00\n        /* \"#utility.yul\":3444:3445   */\n      dup1\n        /* \"#utility.yul\":3437:3449   */\n      revert\n        /* \"#utility.yul\":3461:3563   */\n    tag_219:\n        /* \"#utility.yul\":3502:3508   */\n      0x00\n        /* \"#utility.yul\":3553:3555   */\n      0x1f\n        /* \"#utility.yul\":3549:3556   */\n      not\n        /* \"#utility.yul\":3544:3546   */\n      0x1f\n        /* \"#utility.yul\":3537:3542   */\n      dup4\n        /* \"#utility.yul\":3533:3547   */\n      add\n        /* \"#utility.yul\":3529:3557   */\n      and\n        /* \"#utility.yul\":3519:3557   */\n      swap1\n      pop\n        /* \"#utility.yul\":3461:3563   */\n      swap2\n      swap1\n      pop\n      jump\t// out\n        /* \"#utility.yul\":3569:3749   */\n    tag_220:\n        /* \"#utility.yul\":3617:3694   */\n      0x4e487b7100000000000000000000000000000000000000000000000000000000\n        /* \"#utility.yul\":3614:3615   */\n      0x00\n        /* \"#utility.yul\":3607:3695   */\n      mstore\n        /* \"#utility.yul\":3714:3718   */\n      0x41\n        /* \"#utility.yul\":3711:3712   */\n      0x04\n        /* \"#utility.yul\":3704:3719   */\n      mstore\n        /* \"#utility.yul\":3738:3742   */\n      0x24\n        /* \"#utility.yul\":3735:3736   */\n      0x00\n        /* \"#utility.yul\":3728:3743   */\n      revert\n        /* \"#utility.yul\":3755:4036   */\n    tag_221:\n        /* \"#utility.yul\":3838:3865   */\n      tag_341\n        /* \"#utility.yul\":3860:3864   */\n      dup3\n        /* \"#utility.yul\":3838:3865   */\n      tag_219\n      jump\t// in\n    tag_341:\n        /* \"#utility.yul\":3830:3836   */\n      dup2\n        /* \"#utility.yul\":3826:3866   */\n      add\n        /* \"#utility.yul\":3968:3974   */\n      dup2\n        /* \"#utility.yul\":3956:3966   */\n      dup2\n        /* \"#utility.yul\":3953:3975   */\n      lt\n        /* \"#utility.yul\":3932:3950   */\n      0xffffffffffffffff\n        /* \"#utility.yul\":3920:3930   */\n      dup3\n        /* \"#utility.yul\":3917:3951   */\n      gt\n        /* \"#utility.yul\":3914:3976   */\n      or\n        /* \"#utility.yul\":3911:3999   */\n      iszero\n      tag_342\n      jumpi\n        /* \"#utility.yul\":3979:3997   */\n      tag_343\n      tag_220\n      jump\t// in\n    tag_343:\n        /* \"#utility.yul\":3911:3999   */\n    tag_342:\n        /* \"#utility.yul\":4019:4029   */\n      dup1\n        /* \"#utility.yul\":4015:4017   */\n      0x40\n        /* \"#utility.yul\":4008:4030   */\n      mstore\n        /* \"#utility.yul\":3798:4036   */\n      pop\n        /* \"#utility.yul\":3755:4036   */\n      pop\n      pop\n      jump\t// out\n        /* \"#utility.yul\":4042:4171   */\n    tag_222:\n        /* \"#utility.yul\":4076:4082   */\n      0x00\n        /* \"#utility.yul\":4103:4123   */\n      tag_345\n      tag_202\n      jump\t// in\n    tag_345:\n        /* \"#utility.yul\":4093:4123   */\n      swap1\n      pop\n        /* \"#utility.yul\":4132:4165   */\n      tag_346\n        /* \"#utility.yul\":4160:4164   */\n      dup3\n        /* \"#utility.yul\":4152:4158   */\n      dup3\n        /* \"#utility.yul\":4132:4165   */\n      tag_221\n      jump\t// in\n    tag_346:\n        /* \"#utility.yul\":4042:4171   */\n      swap2\n      swap1\n      pop\n      jump\t// out\n        /* \"#utility.yul\":4177:4485   */\n    tag_223:\n        /* \"#utility.yul\":4239:4243   */\n      0x00\n        /* \"#utility.yul\":4329:4347   */\n      0xffffffffffffffff\n        /* \"#utility.yul\":4321:4327   */\n      dup3\n        /* \"#utility.yul\":4318:4348   */\n      gt\n        /* \"#utility.yul\":4315:4371   */\n      iszero\n      tag_348\n      jumpi\n        /* \"#utility.yul\":4351:4369   */\n      tag_349\n      tag_220\n      jump\t// in\n    tag_349:\n        /* \"#utility.yul\":4315:4371   */\n    tag_348:\n        /* \"#utility.yul\":4389:4418   */\n      tag_350\n        /* \"#utility.yul\":4411:4417   */\n      dup3\n        /* \"#utility.yul\":4389:4418   */\n      tag_219\n      jump\t// in\n    tag_350:\n        /* \"#utility.yul\":4381:4418   */\n      swap1\n      pop\n        /* \"#utility.yul\":4473:4477   */\n      0x20\n        /* \"#utility.yul\":4467:4471   */\n      dup2\n        /* \"#utility.yul\":4463:4478   */\n      add\n        /* \"#utility.yul\":4455:4478   */\n      swap1\n      pop\n        /* \"#utility.yul\":4177:4485   */\n      swap2\n      swap1\n      pop\n      jump\t// out\n        /* \"#utility.yul\":4491:4639   */\n    tag_224:\n        /* \"#utility.yul\":4589:4595   */\n      dup3\n        /* \"#utility.yul\":4584:4587   */\n      dup2\n        /* \"#utility.yul\":4579:4582   */\n      dup4\n        /* \"#utility.yul\":4566:4596   */\n      calldatacopy\n        /* \"#utility.yul\":4630:4631   */\n      0x00\n        /* \"#utility.yul\":4621:4627   */\n      dup4\n        /* \"#utility.yul\":4616:4619   */\n      dup4\n        /* \"#utility.yul\":4612:4628   */\n      add\n        /* \"#utility.yul\":4605:4632   */\n      mstore\n        /* \"#utility.yul\":4491:4639   */\n      pop\n      pop\n      pop\n      jump\t// out\n        /* \"#utility.yul\":4645:5070   */\n    tag_225:\n        /* \"#utility.yul\":4723:4728   */\n      0x00\n        /* \"#utility.yul\":4748:4814   */\n      tag_353\n        /* \"#utility.yul\":4764:4813   */\n      tag_354\n        /* \"#utility.yul\":4806:4812   */\n      dup5\n        /* \"#utility.yul\":4764:4813   */\n      tag_223\n      jump\t// in\n    tag_354:\n        /* \"#utility.yul\":4748:4814   */\n      tag_222\n      jump\t// in\n    tag_353:\n        /* \"#utility.yul\":4739:4814   */\n      swap1\n      pop\n        /* \"#utility.yul\":4837:4843   */\n      dup3\n        /* \"#utility.yul\":4830:4835   */\n      dup2\n        /* \"#utility.yul\":4823:4844   */\n      mstore\n        /* \"#utility.yul\":4875:4879   */\n      0x20\n        /* \"#utility.yul\":4868:4873   */\n      dup2\n        /* \"#utility.yul\":4864:4880   */\n      add\n        /* \"#utility.yul\":4913:4916   */\n      dup5\n        /* \"#utility.yul\":4904:4910   */\n      dup5\n        /* \"#utility.yul\":4899:4902   */\n      dup5\n        /* \"#utility.yul\":4895:4911   */\n      add\n        /* \"#utility.yul\":4892:4917   */\n      gt\n        /* \"#utility.yul\":4889:5001   */\n      iszero\n      tag_355\n      jumpi\n        /* \"#utility.yul\":4920:4999   */\n      tag_356\n      tag_218\n      jump\t// in\n    tag_356:\n        /* \"#utility.yul\":4889:5001   */\n    tag_355:\n        /* \"#utility.yul\":5010:5064   */\n      tag_357\n        /* \"#utility.yul\":5057:5063   */\n      dup5\n        /* \"#utility.yul\":5052:5055   */\n      dup3\n        /* \"#utility.yul\":5047:5050   */\n      dup6\n        /* \"#utility.yul\":5010:5064   */\n      tag_224\n      jump\t// in\n    tag_357:\n        /* \"#utility.yul\":4729:5070   */\n      pop\n        /* \"#utility.yul\":4645:5070   */\n      swap4\n      swap3\n      pop\n      pop\n      pop\n      jump\t// out\n        /* \"#utility.yul\":5090:5430   */\n    tag_226:\n        /* \"#utility.yul\":5146:5151   */\n      0x00\n        /* \"#utility.yul\":5195:5198   */\n      dup3\n        /* \"#utility.yul\":5188:5192   */\n      0x1f\n        /* \"#utility.yul\":5180:5186   */\n      dup4\n        /* \"#utility.yul\":5176:5193   */\n      add\n        /* \"#utility.yul\":5172:5199   */\n      slt\n        /* \"#utility.yul\":5162:5284   */\n      tag_359\n      jumpi\n        /* \"#utility.yul\":5203:5282   */\n      tag_360\n      tag_217\n      jump\t// in\n    tag_360:\n        /* \"#utility.yul\":5162:5284   */\n    tag_359:\n        /* \"#utility.yul\":5320:5326   */\n      dup2\n        /* \"#utility.yul\":5307:5327   */\n      calldataload\n        /* \"#utility.yul\":5345:5424   */\n      tag_361\n        /* \"#utility.yul\":5420:5423   */\n      dup5\n        /* \"#utility.yul\":5412:5418   */\n      dup3\n        /* \"#utility.yul\":5405:5409   */\n      0x20\n        /* \"#utility.yul\":5397:5403   */\n      dup7\n        /* \"#utility.yul\":5393:5410   */\n      add\n        /* \"#utility.yul\":5345:5424   */\n      tag_225\n      jump\t// in\n    tag_361:\n        /* \"#utility.yul\":5336:5424   */\n      swap2\n      pop\n        /* \"#utility.yul\":5152:5430   */\n      pop\n        /* \"#utility.yul\":5090:5430   */\n      swap3\n      swap2\n      pop\n      pop\n      jump\t// out\n        /* \"#utility.yul\":5436:5743   */\n    tag_227:\n        /* \"#utility.yul\":5497:5501   */\n      0x00\n        /* \"#utility.yul\":5587:5605   */\n      0xffffffffffffffff\n        /* \"#utility.yul\":5579:5585   */\n      dup3\n        /* \"#utility.yul\":5576:5606   */\n      gt\n        /* \"#utility.yul\":5573:5629   */\n      iszero\n      tag_363\n      jumpi\n        /* \"#utility.yul\":5609:5627   */\n      tag_364\n      tag_220\n      jump\t// in\n    tag_364:\n        /* \"#utility.yul\":5573:5629   */\n    tag_363:\n        /* \"#utility.yul\":5647:5676   */\n      tag_365\n        /* \"#utility.yul\":5669:5675   */\n      dup3\n        /* \"#utility.yul\":5647:5676   */\n      tag_219\n      jump\t// in\n    tag_365:\n        /* \"#utility.yul\":5639:5676   */\n      swap1\n      pop\n        /* \"#utility.yul\":5731:5735   */\n      0x20\n        /* \"#utility.yul\":5725:5729   */\n      dup2\n        /* \"#utility.yul\":5721:5736   */\n      add\n        /* \"#utility.yul\":5713:5736   */\n      swap1\n      pop\n        /* \"#utility.yul\":5436:5743   */\n      swap2\n      swap1\n      pop\n      jump\t// out\n        /* \"#utility.yul\":5749:6172   */\n    tag_228:\n        /* \"#utility.yul\":5826:5831   */\n      0x00\n        /* \"#utility.yul\":5851:5916   */\n      tag_367\n        /* \"#utility.yul\":5867:5915   */\n      tag_368\n        /* \"#utility.yul\":5908:5914   */\n      dup5\n        /* \"#utility.yul\":5867:5915   */\n      tag_227\n      jump\t// in\n    tag_368:\n        /* \"#utility.yul\":5851:5916   */\n      tag_222\n      jump\t// in\n    tag_367:\n        /* \"#utility.yul\":5842:5916   */\n      swap1\n      pop\n        /* \"#utility.yul\":5939:5945   */\n      dup3\n        /* \"#utility.yul\":5932:5937   */\n      dup2\n        /* \"#utility.yul\":5925:5946   */\n      mstore\n        /* \"#utility.yul\":5977:5981   */\n      0x20\n        /* \"#utility.yul\":5970:5975   */\n      dup2\n        /* \"#utility.yul\":5966:5982   */\n      add\n        /* \"#utility.yul\":6015:6018   */\n      dup5\n        /* \"#utility.yul\":6006:6012   */\n      dup5\n        /* \"#utility.yul\":6001:6004   */\n      dup5\n        /* \"#utility.yul\":5997:6013   */\n      add\n        /* \"#utility.yul\":5994:6019   */\n      gt\n        /* \"#utility.yul\":5991:6103   */\n      iszero\n      tag_369\n      jumpi\n        /* \"#utility.yul\":6022:6101   */\n      tag_370\n      tag_218\n      jump\t// in\n    tag_370:\n        /* \"#utility.yul\":5991:6103   */\n    tag_369:\n        /* \"#utility.yul\":6112:6166   */\n      tag_371\n        /* \"#utility.yul\":6159:6165   */\n      dup5\n        /* \"#utility.yul\":6154:6157   */\n      dup3\n        /* \"#utility.yul\":6149:6152   */\n      dup6\n        /* \"#utility.yul\":6112:6166   */\n      tag_224\n      jump\t// in\n    tag_371:\n        /* \"#utility.yul\":5832:6172   */\n      pop\n        /* \"#utility.yul\":5749:6172   */\n      swap4\n      swap3\n      pop\n      pop\n      pop\n      jump\t// out\n        /* \"#utility.yul\":6191:6529   */\n    tag_229:\n        /* \"#utility.yul\":6246:6251   */\n      0x00\n        /* \"#utility.yul\":6295:6298   */\n      dup3\n        /* \"#utility.yul\":6288:6292   */\n      0x1f\n        /* \"#utility.yul\":6280:6286   */\n      dup4\n        /* \"#utility.yul\":6276:6293   */\n      add\n        /* \"#utility.yul\":6272:6299   */\n      slt\n        /* \"#utility.yul\":6262:6384   */\n      tag_373\n      jumpi\n        /* \"#utility.yul\":6303:6382   */\n      tag_374\n      tag_217\n      jump\t// in\n    tag_374:\n        /* \"#utility.yul\":6262:6384   */\n    tag_373:\n        /* \"#utility.yul\":6420:6426   */\n      dup2\n        /* \"#utility.yul\":6407:6427   */\n      calldataload\n        /* \"#utility.yul\":6445:6523   */\n      tag_375\n        /* \"#utility.yul\":6519:6522   */\n      dup5\n        /* \"#utility.yul\":6511:6517   */\n      dup3\n        /* \"#utility.yul\":6504:6508   */\n      0x20\n        /* \"#utility.yul\":6496:6502   */\n      dup7\n        /* \"#utility.yul\":6492:6509   */\n      add\n        /* \"#utility.yul\":6445:6523   */\n      tag_228\n      jump\t// in\n    tag_375:\n        /* \"#utility.yul\":6436:6523   */\n      swap2\n      pop\n        /* \"#utility.yul\":6252:6529   */\n      pop\n        /* \"#utility.yul\":6191:6529   */\n      swap3\n      swap2\n      pop\n      pop\n      jump\t// out\n        /* \"#utility.yul\":6535:7658   */\n    tag_44:\n        /* \"#utility.yul\":6640:6646   */\n      0x00\n        /* \"#utility.yul\":6648:6654   */\n      dup1\n        /* \"#utility.yul\":6656:6662   */\n      0x00\n        /* \"#utility.yul\":6664:6670   */\n      dup1\n        /* \"#utility.yul\":6713:6716   */\n      0x80\n        /* \"#utility.yul\":6701:6710   */\n      dup6\n        /* \"#utility.yul\":6692:6699   */\n      dup8\n        /* \"#utility.yul\":6688:6711   */\n      sub\n        /* \"#utility.yul\":6684:6717   */\n      slt\n        /* \"#utility.yul\":6681:6801   */\n      iszero\n      tag_377\n      jumpi\n        /* \"#utility.yul\":6720:6799   */\n      tag_378\n      tag_203\n      jump\t// in\n    tag_378:\n        /* \"#utility.yul\":6681:6801   */\n    tag_377:\n        /* \"#utility.yul\":6840:6841   */\n      0x00\n        /* \"#utility.yul\":6865:6918   */\n      tag_379\n        /* \"#utility.yul\":6910:6917   */\n      dup8\n        /* \"#utility.yul\":6901:6907   */\n      dup3\n        /* \"#utility.yul\":6890:6899   */\n      dup9\n        /* \"#utility.yul\":6886:6908   */\n      add\n        /* \"#utility.yul\":6865:6918   */\n      tag_214\n      jump\t// in\n    tag_379:\n        /* \"#utility.yul\":6855:6918   */\n      swap5\n      pop\n        /* \"#utility.yul\":6811:6928   */\n      pop\n        /* \"#utility.yul\":6967:6969   */\n      0x20\n        /* \"#utility.yul\":6993:7046   */\n      tag_380\n        /* \"#utility.yul\":7038:7045   */\n      dup8\n        /* \"#utility.yul\":7029:7035   */\n      dup3\n        /* \"#utility.yul\":7018:7027   */\n      dup9\n        /* \"#utility.yul\":7014:7036   */\n      add\n        /* \"#utility.yul\":6993:7046   */\n      tag_216\n      jump\t// in\n    tag_380:\n        /* \"#utility.yul\":6983:7046   */\n      swap4\n      pop\n        /* \"#utility.yul\":6938:7056   */\n      pop\n        /* \"#utility.yul\":7123:7125   */\n      0x40\n        /* \"#utility.yul\":7112:7121   */\n      dup6\n        /* \"#utility.yul\":7108:7126   */\n      add\n        /* \"#utility.yul\":7095:7127   */\n      calldataload\n        /* \"#utility.yul\":7154:7172   */\n      0xffffffffffffffff\n        /* \"#utility.yul\":7146:7152   */\n      dup2\n        /* \"#utility.yul\":7143:7173   */\n      gt\n        /* \"#utility.yul\":7140:7257   */\n      iszero\n      tag_381\n      jumpi\n        /* \"#utility.yul\":7176:7255   */\n      tag_382\n      tag_204\n      jump\t// in\n    tag_382:\n        /* \"#utility.yul\":7140:7257   */\n    tag_381:\n        /* \"#utility.yul\":7281:7344   */\n      tag_383\n        /* \"#utility.yul\":7336:7343   */\n      dup8\n        /* \"#utility.yul\":7327:7333   */\n      dup3\n        /* \"#utility.yul\":7316:7325   */\n      dup9\n        /* \"#utility.yul\":7312:7334   */\n      add\n        /* \"#utility.yul\":7281:7344   */\n      tag_226\n      jump\t// in\n    tag_383:\n        /* \"#utility.yul\":7271:7344   */\n      swap3\n      pop\n        /* \"#utility.yul\":7066:7354   */\n      pop\n        /* \"#utility.yul\":7421:7423   */\n      0x60\n        /* \"#utility.yul\":7410:7419   */\n      dup6\n        /* \"#utility.yul\":7406:7424   */\n      add\n        /* \"#utility.yul\":7393:7425   */\n      calldataload\n        /* \"#utility.yul\":7452:7470   */\n      0xffffffffffffffff\n        /* \"#utility.yul\":7444:7450   */\n      dup2\n        /* \"#utility.yul\":7441:7471   */\n      gt\n        /* \"#utility.yul\":7438:7555   */\n      iszero\n      tag_384\n      jumpi\n        /* \"#utility.yul\":7474:7553   */\n      tag_385\n      tag_204\n      jump\t// in\n    tag_385:\n        /* \"#utility.yul\":7438:7555   */\n    tag_384:\n        /* \"#utility.yul\":7579:7641   */\n      tag_386\n        /* \"#utility.yul\":7633:7640   */\n      dup8\n        /* \"#utility.yul\":7624:7630   */\n      dup3\n        /* \"#utility.yul\":7613:7622   */\n      dup9\n        /* \"#utility.yul\":7609:7631   */\n      add\n        /* \"#utility.yul\":7579:7641   */\n      tag_229\n      jump\t// in\n    tag_386:\n        /* \"#utility.yul\":7569:7641   */\n      swap2\n      pop\n        /* \"#utility.yul\":7364:7651   */\n      pop\n        /* \"#utility.yul\":6535:7658   */\n      swap3\n      swap6\n      swap2\n      swap5\n      pop\n      swap3\n      pop\n      jump\t// out\n        /* \"#utility.yul\":7664:7782   */\n    tag_230:\n        /* \"#utility.yul\":7751:7775   */\n      tag_388\n        /* \"#utility.yul\":7769:7774   */\n      dup2\n        /* \"#utility.yul\":7751:7775   */\n      tag_205\n      jump\t// in\n    tag_388:\n        /* \"#utility.yul\":7746:7749   */\n      dup3\n        /* \"#utility.yul\":7739:7776   */\n      mstore\n        /* \"#utility.yul\":7664:7782   */\n      pop\n      pop\n      jump\t// out\n        /* \"#utility.yul\":7788:8010   */\n    tag_47:\n        /* \"#utility.yul\":7881:7885   */\n      0x00\n        /* \"#utility.yul\":7919:7921   */\n      0x20\n        /* \"#utility.yul\":7908:7917   */\n      dup3\n        /* \"#utility.yul\":7904:7922   */\n      add\n        /* \"#utility.yul\":7896:7922   */\n      swap1\n      pop\n        /* \"#utility.yul\":7932:8003   */\n      tag_390\n        /* \"#utility.yul\":8000:8001   */\n      0x00\n        /* \"#utility.yul\":7989:7998   */\n      dup4\n        /* \"#utility.yul\":7985:8002   */\n      add\n        /* \"#utility.yul\":7976:7982   */\n      dup5\n        /* \"#utility.yul\":7932:8003   */\n      tag_230\n      jump\t// in\n    tag_390:\n        /* \"#utility.yul\":7788:8010   */\n      swap3\n      swap2\n      pop\n      pop\n      jump\t// out\n        /* \"#utility.yul\":8016:8115   */\n    tag_231:\n        /* \"#utility.yul\":8068:8074   */\n      0x00\n        /* \"#utility.yul\":8102:8107   */\n      dup2\n        /* \"#utility.yul\":8096:8108   */\n      mload\n        /* \"#utility.yul\":8086:8108   */\n      swap1\n      pop\n        /* \"#utility.yul\":8016:8115   */\n      swap2\n      swap1\n      pop\n      jump\t// out\n        /* \"#utility.yul\":8121:8290   */\n    tag_232:\n        /* \"#utility.yul\":8205:8216   */\n      0x00\n        /* \"#utility.yul\":8239:8245   */\n      dup3\n        /* \"#utility.yul\":8234:8237   */\n      dup3\n        /* \"#utility.yul\":8227:8246   */\n      mstore\n        /* \"#utility.yul\":8279:8283   */\n      0x20\n        /* \"#utility.yul\":8274:8277   */\n      dup3\n        /* \"#utility.yul\":8270:8284   */\n      add\n        /* \"#utility.yul\":8255:8284   */\n      swap1\n      pop\n        /* \"#utility.yul\":8121:8290   */\n      swap3\n      swap2\n      pop\n      pop\n      jump\t// out\n        /* \"#utility.yul\":8296:8435   */\n    tag_233:\n        /* \"#utility.yul\":8385:8391   */\n      dup3\n        /* \"#utility.yul\":8380:8383   */\n      dup2\n        /* \"#utility.yul\":8375:8378   */\n      dup4\n        /* \"#utility.yul\":8369:8392   */\n      mcopy\n        /* \"#utility.yul\":8426:8427   */\n      0x00\n        /* \"#utility.yul\":8417:8423   */\n      dup4\n        /* \"#utility.yul\":8412:8415   */\n      dup4\n        /* \"#utility.yul\":8408:8424   */\n      add\n        /* \"#utility.yul\":8401:8428   */\n      mstore\n        /* \"#utility.yul\":8296:8435   */\n      pop\n      pop\n      pop\n      jump\t// out\n        /* \"#utility.yul\":8441:8818   */\n    tag_234:\n        /* \"#utility.yul\":8529:8532   */\n      0x00\n        /* \"#utility.yul\":8557:8596   */\n      tag_395\n        /* \"#utility.yul\":8590:8595   */\n      dup3\n        /* \"#utility.yul\":8557:8596   */\n      tag_231\n      jump\t// in\n    tag_395:\n        /* \"#utility.yul\":8612:8683   */\n      tag_396\n        /* \"#utility.yul\":8676:8682   */\n      dup2\n        /* \"#utility.yul\":8671:8674   */\n      dup6\n        /* \"#utility.yul\":8612:8683   */\n      tag_232\n      jump\t// in\n    tag_396:\n        /* \"#utility.yul\":8605:8683   */\n      swap4\n      pop\n        /* \"#utility.yul\":8692:8757   */\n      tag_397\n        /* \"#utility.yul\":8750:8756   */\n      dup2\n        /* \"#utility.yul\":8745:8748   */\n      dup6\n        /* \"#utility.yul\":8738:8742   */\n      0x20\n        /* \"#utility.yul\":8731:8736   */\n      dup7\n        /* \"#utility.yul\":8727:8743   */\n      add\n        /* \"#utility.yul\":8692:8757   */\n      tag_233\n      jump\t// in\n    tag_397:\n        /* \"#utility.yul\":8782:8811   */\n      tag_398\n        /* \"#utility.yul\":8804:8810   */\n      dup2\n        /* \"#utility.yul\":8782:8811   */\n      tag_219\n      jump\t// in\n    tag_398:\n        /* \"#utility.yul\":8777:8780   */\n      dup5\n        /* \"#utility.yul\":8773:8812   */\n      add\n        /* \"#utility.yul\":8766:8812   */\n      swap2\n      pop\n        /* \"#utility.yul\":8533:8818   */\n      pop\n        /* \"#utility.yul\":8441:8818   */\n      swap3\n      swap2\n      pop\n      pop\n      jump\t// out\n        /* \"#utility.yul\":8824:8922   */\n    tag_235:\n        /* \"#utility.yul\":8875:8881   */\n      0x00\n        /* \"#utility.yul\":8909:8914   */\n      dup2\n        /* \"#utility.yul\":8903:8915   */\n      mload\n        /* \"#utility.yul\":8893:8915   */\n      swap1\n      pop\n        /* \"#utility.yul\":8824:8922   */\n      swap2\n      swap1\n      pop\n      jump\t// out\n        /* \"#utility.yul\":8928:9096   */\n    tag_236:\n        /* \"#utility.yul\":9011:9022   */\n      0x00\n        /* \"#utility.yul\":9045:9051   */\n      dup3\n        /* \"#utility.yul\":9040:9043   */\n      dup3\n        /* \"#utility.yul\":9033:9052   */\n      mstore\n        /* \"#utility.yul\":9085:9089   */\n      0x20\n        /* \"#utility.yul\":9080:9083   */\n      dup3\n        /* \"#utility.yul\":9076:9090   */\n      add\n        /* \"#utility.yul\":9061:9090   */\n      swap1\n      pop\n        /* \"#utility.yul\":8928:9096   */\n      swap3\n      swap2\n      pop\n      pop\n      jump\t// out\n        /* \"#utility.yul\":9102:9475   */\n    tag_237:\n        /* \"#utility.yul\":9188:9191   */\n      0x00\n        /* \"#utility.yul\":9216:9254   */\n      tag_402\n        /* \"#utility.yul\":9248:9253   */\n      dup3\n        /* \"#utility.yul\":9216:9254   */\n      tag_235\n      jump\t// in\n    tag_402:\n        /* \"#utility.yul\":9270:9340   */\n      tag_403\n        /* \"#utility.yul\":9333:9339   */\n      dup2\n        /* \"#utility.yul\":9328:9331   */\n      dup6\n        /* \"#utility.yul\":9270:9340   */\n      tag_236\n      jump\t// in\n    tag_403:\n        /* \"#utility.yul\":9263:9340   */\n      swap4\n      pop\n        /* \"#utility.yul\":9349:9414   */\n      tag_404\n        /* \"#utility.yul\":9407:9413   */\n      dup2\n        /* \"#utility.yul\":9402:9405   */\n      dup6\n        /* \"#utility.yul\":9395:9399   */\n      0x20\n        /* \"#utility.yul\":9388:9393   */\n      dup7\n        /* \"#utility.yul\":9384:9400   */\n      add\n        /* \"#utility.yul\":9349:9414   */\n      tag_233\n      jump\t// in\n    tag_404:\n        /* \"#utility.yul\":9439:9468   */\n      tag_405\n        /* \"#utility.yul\":9461:9467   */\n      dup2\n        /* \"#utility.yul\":9439:9468   */\n      tag_219\n      jump\t// in\n    tag_405:\n        /* \"#utility.yul\":9434:9437   */\n      dup5\n        /* \"#utility.yul\":9430:9469   */\n      add\n        /* \"#utility.yul\":9423:9469   */\n      swap2\n      pop\n        /* \"#utility.yul\":9192:9475   */\n      pop\n        /* \"#utility.yul\":9102:9475   */\n      swap3\n      swap2\n      pop\n      pop\n      jump\t// out\n        /* \"#utility.yul\":9481:10521   */\n    tag_57:\n        /* \"#utility.yul\":9768:9772   */\n      0x00\n        /* \"#utility.yul\":9806:9809   */\n      0xe0\n        /* \"#utility.yul\":9795:9804   */\n      dup3\n        /* \"#utility.yul\":9791:9810   */\n      add\n        /* \"#utility.yul\":9783:9810   */\n      swap1\n      pop\n        /* \"#utility.yul\":9820:9891   */\n      tag_407\n        /* \"#utility.yul\":9888:9889   */\n      0x00\n        /* \"#utility.yul\":9877:9886   */\n      dup4\n        /* \"#utility.yul\":9873:9890   */\n      add\n        /* \"#utility.yul\":9864:9870   */\n      dup11\n        /* \"#utility.yul\":9820:9891   */\n      tag_212\n      jump\t// in\n    tag_407:\n        /* \"#utility.yul\":9901:9973   */\n      tag_408\n        /* \"#utility.yul\":9969:9971   */\n      0x20\n        /* \"#utility.yul\":9958:9967   */\n      dup4\n        /* \"#utility.yul\":9954:9972   */\n      add\n        /* \"#utility.yul\":9945:9951   */\n      dup10\n        /* \"#utility.yul\":9901:9973   */\n      tag_201\n      jump\t// in\n    tag_408:\n        /* \"#utility.yul\":10020:10029   */\n      dup2\n        /* \"#utility.yul\":10014:10018   */\n      dup2\n        /* \"#utility.yul\":10010:10030   */\n      sub\n        /* \"#utility.yul\":10005:10007   */\n      0x40\n        /* \"#utility.yul\":9994:10003   */\n      dup4\n        /* \"#utility.yul\":9990:10008   */\n      add\n        /* \"#utility.yul\":9983:10031   */\n      mstore\n        /* \"#utility.yul\":10048:10126   */\n      tag_409\n        /* \"#utility.yul\":10121:10125   */\n      dup2\n        /* \"#utility.yul\":10112:10118   */\n      dup9\n        /* \"#utility.yul\":10048:10126   */\n      tag_234\n      jump\t// in\n    tag_409:\n        /* \"#utility.yul\":10040:10126   */\n      swap1\n      pop\n        /* \"#utility.yul\":10173:10182   */\n      dup2\n        /* \"#utility.yul\":10167:10171   */\n      dup2\n        /* \"#utility.yul\":10163:10183   */\n      sub\n        /* \"#utility.yul\":10158:10160   */\n      0x60\n        /* \"#utility.yul\":10147:10156   */\n      dup4\n        /* \"#utility.yul\":10143:10161   */\n      add\n        /* \"#utility.yul\":10136:10184   */\n      mstore\n        /* \"#utility.yul\":10201:10277   */\n      tag_410\n        /* \"#utility.yul\":10272:10276   */\n      dup2\n        /* \"#utility.yul\":10263:10269   */\n      dup8\n        /* \"#utility.yul\":10201:10277   */\n      tag_237\n      jump\t// in\n    tag_410:\n        /* \"#utility.yul\":10193:10277   */\n      swap1\n      pop\n        /* \"#utility.yul\":10287:10360   */\n      tag_411\n        /* \"#utility.yul\":10355:10358   */\n      0x80\n        /* \"#utility.yul\":10344:10353   */\n      dup4\n        /* \"#utility.yul\":10340:10359   */\n      add\n        /* \"#utility.yul\":10331:10337   */\n      dup7\n        /* \"#utility.yul\":10287:10360   */\n      tag_201\n      jump\t// in\n    tag_411:\n        /* \"#utility.yul\":10370:10437   */\n      tag_412\n        /* \"#utility.yul\":10432:10435   */\n      0xa0\n        /* \"#utility.yul\":10421:10430   */\n      dup4\n        /* \"#utility.yul\":10417:10436   */\n      add\n        /* \"#utility.yul\":10408:10414   */\n      dup6\n        /* \"#utility.yul\":10370:10437   */\n      tag_209\n      jump\t// in\n    tag_412:\n        /* \"#utility.yul\":10447:10514   */\n      tag_413\n        /* \"#utility.yul\":10509:10512   */\n      0xc0\n        /* \"#utility.yul\":10498:10507   */\n      dup4\n        /* \"#utility.yul\":10494:10513   */\n      add\n        /* \"#utility.yul\":10485:10491   */\n      dup5\n        /* \"#utility.yul\":10447:10514   */\n      tag_209\n      jump\t// in\n    tag_413:\n        /* \"#utility.yul\":9481:10521   */\n      swap9\n      swap8\n      pop\n      pop\n      pop\n      pop\n      pop\n      pop\n      pop\n      pop\n      jump\t// out\n        /* \"#utility.yul\":10527:10856   */\n    tag_61:\n        /* \"#utility.yul\":10586:10592   */\n      0x00\n        /* \"#utility.yul\":10635:10637   */\n      0x20\n        /* \"#utility.yul\":10623:10632   */\n      dup3\n        /* \"#utility.yul\":10614:10621   */\n      dup5\n        /* \"#utility.yul\":10610:10633   */\n      sub\n        /* \"#utility.yul\":10606:10638   */\n      slt\n        /* \"#utility.yul\":10603:10722   */\n      iszero\n      tag_415\n      jumpi\n        /* \"#utility.yul\":10641:10720   */\n      tag_416\n      tag_203\n      jump\t// in\n    tag_416:\n        /* \"#utility.yul\":10603:10722   */\n    tag_415:\n        /* \"#utility.yul\":10761:10762   */\n      0x00\n        /* \"#utility.yul\":10786:10839   */\n      tag_417\n        /* \"#utility.yul\":10831:10838   */\n      dup5\n        /* \"#utility.yul\":10822:10828   */\n      dup3\n        /* \"#utility.yul\":10811:10820   */\n      dup6\n        /* \"#utility.yul\":10807:10829   */\n      add\n        /* \"#utility.yul\":10786:10839   */\n      tag_216\n      jump\t// in\n    tag_417:\n        /* \"#utility.yul\":10776:10839   */\n      swap2\n      pop\n        /* \"#utility.yul\":10732:10849   */\n      pop\n        /* \"#utility.yul\":10527:10856   */\n      swap3\n      swap2\n      pop\n      pop\n      jump\t// out\n        /* \"#utility.yul\":10862:11191   */\n    tag_83:\n        /* \"#utility.yul\":10921:10927   */\n      0x00\n        /* \"#utility.yul\":10970:10972   */\n      0x20\n        /* \"#utility.yul\":10958:10967   */\n      dup3\n        /* \"#utility.yul\":10949:10956   */\n      dup5\n        /* \"#utility.yul\":10945:10968   */\n      sub\n        /* \"#utility.yul\":10941:10973   */\n      slt\n        /* \"#utility.yul\":10938:11057   */\n      iszero\n      tag_419\n      jumpi\n        /* \"#utility.yul\":10976:11055   */\n      tag_420\n      tag_203\n      jump\t// in\n    tag_420:\n        /* \"#utility.yul\":10938:11057   */\n    tag_419:\n        /* \"#utility.yul\":11096:11097   */\n      0x00\n        /* \"#utility.yul\":11121:11174   */\n      tag_421\n        /* \"#utility.yul\":11166:11173   */\n      dup5\n        /* \"#utility.yul\":11157:11163   */\n      dup3\n        /* \"#utility.yul\":11146:11155   */\n      dup6\n        /* \"#utility.yul\":11142:11164   */\n      add\n        /* \"#utility.yul\":11121:11174   */\n      tag_214\n      jump\t// in\n    tag_421:\n        /* \"#utility.yul\":11111:11174   */\n      swap2\n      pop\n        /* \"#utility.yul\":11067:11184   */\n      pop\n        /* \"#utility.yul\":10862:11191   */\n      swap3\n      swap2\n      pop\n      pop\n      jump\t// out\n        /* \"#utility.yul\":11197:11417   */\n    tag_238:\n        /* \"#utility.yul\":11337:11371   */\n      0x54696d656c6f636b3a2063616c6c6572206973206e6f7420746865206f776e65\n        /* \"#utility.yul\":11333:11334   */\n      0x00\n        /* \"#utility.yul\":11325:11331   */\n      dup3\n        /* \"#utility.yul\":11321:11335   */\n      add\n        /* \"#utility.yul\":11314:11372   */\n      mstore\n        /* \"#utility.yul\":11406:11409   */\n      0x7200000000000000000000000000000000000000000000000000000000000000\n        /* \"#utility.yul\":11401:11403   */\n      0x20\n        /* \"#utility.yul\":11393:11399   */\n      dup3\n        /* \"#utility.yul\":11389:11404   */\n      add\n        /* \"#utility.yul\":11382:11410   */\n      mstore\n        /* \"#utility.yul\":11197:11417   */\n      pop\n      jump\t// out\n        /* \"#utility.yul\":11423:11789   */\n    tag_239:\n        /* \"#utility.yul\":11565:11568   */\n      0x00\n        /* \"#utility.yul\":11586:11653   */\n      tag_424\n        /* \"#utility.yul\":11650:11652   */\n      0x21\n        /* \"#utility.yul\":11645:11648   */\n      dup4\n        /* \"#utility.yul\":11586:11653   */\n      tag_232\n      jump\t// in\n    tag_424:\n        /* \"#utility.yul\":11579:11653   */\n      swap2\n      pop\n        /* \"#utility.yul\":11662:11755   */\n      tag_425\n        /* \"#utility.yul\":11751:11754   */\n      dup3\n        /* \"#utility.yul\":11662:11755   */\n      tag_238\n      jump\t// in\n    tag_425:\n        /* \"#utility.yul\":11780:11782   */\n      0x40\n        /* \"#utility.yul\":11775:11778   */\n      dup3\n        /* \"#utility.yul\":11771:11783   */\n      add\n        /* \"#utility.yul\":11764:11783   */\n      swap1\n      pop\n        /* \"#utility.yul\":11423:11789   */\n      swap2\n      swap1\n      pop\n      jump\t// out\n        /* \"#utility.yul\":11795:12214   */\n    tag_90:\n        /* \"#utility.yul\":11961:11965   */\n      0x00\n        /* \"#utility.yul\":11999:12001   */\n      0x20\n        /* \"#utility.yul\":11988:11997   */\n      dup3\n        /* \"#utility.yul\":11984:12002   */\n      add\n        /* \"#utility.yul\":11976:12002   */\n      swap1\n      pop\n        /* \"#utility.yul\":12048:12057   */\n      dup2\n        /* \"#utility.yul\":12042:12046   */\n      dup2\n        /* \"#utility.yul\":12038:12058   */\n      sub\n        /* \"#utility.yul\":12034:12035   */\n      0x00\n        /* \"#utility.yul\":12023:12032   */\n      dup4\n        /* \"#utility.yul\":12019:12036   */\n      add\n        /* \"#utility.yul\":12012:12059   */\n      mstore\n        /* \"#utility.yul\":12076:12207   */\n      tag_427\n        /* \"#utility.yul\":12202:12206   */\n      dup2\n        /* \"#utility.yul\":12076:12207   */\n      tag_239\n      jump\t// in\n    tag_427:\n        /* \"#utility.yul\":12068:12207   */\n      swap1\n      pop\n        /* \"#utility.yul\":11795:12214   */\n      swap2\n      swap1\n      pop\n      jump\t// out\n        /* \"#utility.yul\":12220:12394   */\n    tag_240:\n        /* \"#utility.yul\":12360:12386   */\n      0x54696d656c6f636b3a20696e76616c6964207461726765740000000000000000\n        /* \"#utility.yul\":12356:12357   */\n      0x00\n        /* \"#utility.yul\":12348:12354   */\n      dup3\n        /* \"#utility.yul\":12344:12358   */\n      add\n        /* \"#utility.yul\":12337:12387   */\n      mstore\n        /* \"#utility.yul\":12220:12394   */\n      pop\n      jump\t// out\n        /* \"#utility.yul\":12400:12766   */\n    tag_241:\n        /* \"#utility.yul\":12542:12545   */\n      0x00\n        /* \"#utility.yul\":12563:12630   */\n      tag_430\n        /* \"#utility.yul\":12627:12629   */\n      0x18\n        /* \"#utility.yul\":12622:12625   */\n      dup4\n        /* \"#utility.yul\":12563:12630   */\n      tag_232\n      jump\t// in\n    tag_430:\n        /* \"#utility.yul\":12556:12630   */\n      swap2\n      pop\n        /* \"#utility.yul\":12639:12732   */\n      tag_431\n        /* \"#utility.yul\":12728:12731   */\n      dup3\n        /* \"#utility.yul\":12639:12732   */\n      tag_240\n      jump\t// in\n    tag_431:\n        /* \"#utility.yul\":12757:12759   */\n      0x20\n        /* \"#utility.yul\":12752:12755   */\n      dup3\n        /* \"#utility.yul\":12748:12760   */\n      add\n        /* \"#utility.yul\":12741:12760   */\n      swap1\n      pop\n        /* \"#utility.yul\":12400:12766   */\n      swap2\n      swap1\n      pop\n      jump\t// out\n        /* \"#utility.yul\":12772:13191   */\n    tag_94:\n        /* \"#utility.yul\":12938:12942   */\n      0x00\n        /* \"#utility.yul\":12976:12978   */\n      0x20\n        /* \"#utility.yul\":12965:12974   */\n      dup3\n        /* \"#utility.yul\":12961:12979   */\n      add\n        /* \"#utility.yul\":12953:12979   */\n      swap1\n      pop\n        /* \"#utility.yul\":13025:13034   */\n      dup2\n        /* \"#utility.yul\":13019:13023   */\n      dup2\n        /* \"#utility.yul\":13015:13035   */\n      sub\n        /* \"#utility.yul\":13011:13012   */\n      0x00\n        /* \"#utility.yul\":13000:13009   */\n      dup4\n        /* \"#utility.yul\":12996:13013   */\n      add\n        /* \"#utility.yul\":12989:13036   */\n      mstore\n        /* \"#utility.yul\":13053:13184   */\n      tag_433\n        /* \"#utility.yul\":13179:13183   */\n      dup2\n        /* \"#utility.yul\":13053:13184   */\n      tag_241\n      jump\t// in\n    tag_433:\n        /* \"#utility.yul\":13045:13184   */\n      swap1\n      pop\n        /* \"#utility.yul\":12772:13191   */\n      swap2\n      swap1\n      pop\n      jump\t// out\n        /* \"#utility.yul\":13197:13421   */\n    tag_242:\n        /* \"#utility.yul\":13337:13371   */\n      0x54696d656c6f636b3a206f7065726174696f6e20616c72656164792073636865\n        /* \"#utility.yul\":13333:13334   */\n      0x00\n        /* \"#utility.yul\":13325:13331   */\n      dup3\n        /* \"#utility.yul\":13321:13335   */\n      add\n        /* \"#utility.yul\":13314:13372   */\n      mstore\n        /* \"#utility.yul\":13406:13413   */\n      0x64756c6564000000000000000000000000000000000000000000000000000000\n        /* \"#utility.yul\":13401:13403   */\n      0x20\n        /* \"#utility.yul\":13393:13399   */\n      dup3\n        /* \"#utility.yul\":13389:13404   */\n      add\n        /* \"#utility.yul\":13382:13414   */\n      mstore\n        /* \"#utility.yul\":13197:13421   */\n      pop\n      jump\t// out\n        /* \"#utility.yul\":13427:13793   */\n    tag_243:\n        /* \"#utility.yul\":13569:13572   */\n      0x00\n        /* \"#utility.yul\":13590:13657   */\n      tag_436\n        /* \"#utility.yul\":13654:13656   */\n      0x25\n        /* \"#utility.yul\":13649:13652   */\n      dup4\n        /* \"#utility.yul\":13590:13657   */\n      tag_232\n      jump\t// in\n    tag_436:\n        /* \"#utility.yul\":13583:13657   */\n      swap2\n      pop\n        /* \"#utility.yul\":13666:13759   */\n      tag_437\n        /* \"#utility.yul\":13755:13758   */\n      dup3\n        /* \"#utility.yul\":13666:13759   */\n      tag_242\n      jump\t// in\n    tag_437:\n        /* \"#utility.yul\":13784:13786   */\n      0x40\n        /* \"#utility.yul\":13779:13782   */\n      dup3\n        /* \"#utility.yul\":13775:13787   */\n      add\n        /* \"#utility.yul\":13768:13787   */\n      swap1\n      pop\n        /* \"#utility.yul\":13427:13793   */\n      swap2\n      swap1\n      pop\n      jump\t// out\n        /* \"#utility.yul\":13799:14218   */\n    tag_98:\n        /* \"#utility.yul\":13965:13969   */\n      0x00\n        /* \"#utility.yul\":14003:14005   */\n      0x20\n        /* \"#utility.yul\":13992:14001   */\n      dup3\n        /* \"#utility.yul\":13988:14006   */\n      add\n        /* \"#utility.yul\":13980:14006   */\n      swap1\n      pop\n        /* \"#utility.yul\":14052:14061   */\n      dup2\n        /* \"#utility.yul\":14046:14050   */\n      dup2\n        /* \"#utility.yul\":14042:14062   */\n      sub\n        /* \"#utility.yul\":14038:14039   */\n      0x00\n        /* \"#utility.yul\":14027:14036   */\n      dup4\n        /* \"#utility.yul\":14023:14040   */\n      add\n        /* \"#utility.yul\":14016:14063   */\n      mstore\n        /* \"#utility.yul\":14080:14211   */\n      tag_439\n        /* \"#utility.yul\":14206:14210   */\n      dup2\n        /* \"#utility.yul\":14080:14211   */\n      tag_243\n      jump\t// in\n    tag_439:\n        /* \"#utility.yul\":14072:14211   */\n      swap1\n      pop\n        /* \"#utility.yul\":13799:14218   */\n      swap2\n      swap1\n      pop\n      jump\t// out\n        /* \"#utility.yul\":14224:14404   */\n    tag_244:\n        /* \"#utility.yul\":14272:14349   */\n      0x4e487b7100000000000000000000000000000000000000000000000000000000\n        /* \"#utility.yul\":14269:14270   */\n      0x00\n        /* \"#utility.yul\":14262:14350   */\n      mstore\n        /* \"#utility.yul\":14369:14373   */\n      0x11\n        /* \"#utility.yul\":14366:14367   */\n      0x04\n        /* \"#utility.yul\":14359:14374   */\n      mstore\n        /* \"#utility.yul\":14393:14397   */\n      0x24\n        /* \"#utility.yul\":14390:14391   */\n      0x00\n        /* \"#utility.yul\":14383:14398   */\n      revert\n        /* \"#utility.yul\":14410:14601   */\n    tag_100:\n        /* \"#utility.yul\":14450:14453   */\n      0x00\n        /* \"#utility.yul\":14469:14489   */\n      tag_442\n        /* \"#utility.yul\":14487:14488   */\n      dup3\n        /* \"#utility.yul\":14469:14489   */\n      tag_200\n      jump\t// in\n    tag_442:\n        /* \"#utility.yul\":14464:14489   */\n      swap2\n      pop\n        /* \"#utility.yul\":14503:14523   */\n      tag_443\n        /* \"#utility.yul\":14521:14522   */\n      dup4\n        /* \"#utility.yul\":14503:14523   */\n      tag_200\n      jump\t// in\n    tag_443:\n        /* \"#utility.yul\":14498:14523   */\n      swap3\n      pop\n        /* \"#utility.yul\":14546:14547   */\n      dup3\n        /* \"#utility.yul\":14543:14544   */\n      dup3\n        /* \"#utility.yul\":14539:14548   */\n      add\n        /* \"#utility.yul\":14532:14548   */\n      swap1\n      pop\n        /* \"#utility.yul\":14567:14570   */\n      dup1\n        /* \"#utility.yul\":14564:14565   */\n      dup3\n        /* \"#utility.yul\":14561:14571   */\n      gt\n        /* \"#utility.yul\":14558:14594   */\n      iszero\n      tag_444\n      jumpi\n        /* \"#utility.yul\":14574:14592   */\n      tag_445\n      tag_244\n      jump\t// in\n    tag_445:\n        /* \"#utility.yul\":14558:14594   */\n    tag_444:\n        /* \"#utility.yul\":14410:14601   */\n      swap3\n      swap2\n      pop\n      pop\n      jump\t// out\n        /* \"#utility.yul\":14607:14787   */\n    tag_245:\n        /* \"#utility.yul\":14655:14732   */\n      0x4e487b7100000000000000000000000000000000000000000000000000000000\n        /* \"#utility.yul\":14652:14653   */\n      0x00\n        /* \"#utility.yul\":14645:14733   */\n      mstore\n        /* \"#utility.yul\":14752:14756   */\n      0x22\n        /* \"#utility.yul\":14749:14750   */\n      0x04\n        /* \"#utility.yul\":14742:14757   */\n      mstore\n        /* \"#utility.yul\":14776:14780   */\n      0x24\n        /* \"#utility.yul\":14773:14774   */\n      0x00\n        /* \"#utility.yul\":14766:14781   */\n      revert\n        /* \"#utility.yul\":14793:15113   */\n    tag_121:\n        /* \"#utility.yul\":14837:14843   */\n      0x00\n        /* \"#utility.yul\":14874:14875   */\n      0x02\n        /* \"#utility.yul\":14868:14872   */\n      dup3\n        /* \"#utility.yul\":14864:14876   */\n      div\n        /* \"#utility.yul\":14854:14876   */\n      swap1\n      pop\n        /* \"#utility.yul\":14921:14922   */\n      0x01\n        /* \"#utility.yul\":14915:14919   */\n      dup3\n        /* \"#utility.yul\":14911:14923   */\n      and\n        /* \"#utility.yul\":14942:14960   */\n      dup1\n        /* \"#utility.yul\":14932:15013   */\n      tag_448\n      jumpi\n        /* \"#utility.yul\":14998:15002   */\n      0x7f\n        /* \"#utility.yul\":14990:14996   */\n      dup3\n        /* \"#utility.yul\":14986:15003   */\n      and\n        /* \"#utility.yul\":14976:15003   */\n      swap2\n      pop\n        /* \"#utility.yul\":14932:15013   */\n    tag_448:\n        /* \"#utility.yul\":15060:15062   */\n      0x20\n        /* \"#utility.yul\":15052:15058   */\n      dup3\n        /* \"#utility.yul\":15049:15063   */\n      lt\n        /* \"#utility.yul\":15029:15047   */\n      dup2\n        /* \"#utility.yul\":15026:15064   */\n      sub\n        /* \"#utility.yul\":15023:15107   */\n      tag_449\n      jumpi\n        /* \"#utility.yul\":15079:15097   */\n      tag_450\n      tag_245\n      jump\t// in\n    tag_450:\n        /* \"#utility.yul\":15023:15107   */\n    tag_449:\n        /* \"#utility.yul\":14844:15113   */\n      pop\n        /* \"#utility.yul\":14793:15113   */\n      swap2\n      swap1\n      pop\n      jump\t// out\n        /* \"#utility.yul\":15119:15260   */\n    tag_246:\n        /* \"#utility.yul\":15168:15172   */\n      0x00\n        /* \"#utility.yul\":15191:15194   */\n      dup2\n        /* \"#utility.yul\":15183:15194   */\n      swap1\n      pop\n        /* \"#utility.yul\":15214:15217   */\n      dup2\n        /* \"#utility.yul\":15211:15212   */\n      0x00\n        /* \"#utility.yul\":15204:15218   */\n      mstore\n        /* \"#utility.yul\":15248:15252   */\n      0x20\n        /* \"#utility.yul\":15245:15246   */\n      0x00\n        /* \"#utility.yul\":15235:15253   */\n      keccak256\n        /* \"#utility.yul\":15227:15253   */\n      swap1\n      pop\n        /* \"#utility.yul\":15119:15260   */\n      swap2\n      swap1\n      pop\n      jump\t// out\n        /* \"#utility.yul\":15266:15359   */\n    tag_247:\n        /* \"#utility.yul\":15303:15309   */\n      0x00\n        /* \"#utility.yul\":15350:15352   */\n      0x20\n        /* \"#utility.yul\":15345:15347   */\n      0x1f\n        /* \"#utility.yul\":15338:15343   */\n      dup4\n        /* \"#utility.yul\":15334:15348   */\n      add\n        /* \"#utility.yul\":15330:15353   */\n      div\n        /* \"#utility.yul\":15320:15353   */\n      swap1\n      pop\n        /* \"#utility.yul\":15266:15359   */\n      swap2\n      swap1\n      pop\n      jump\t// out\n        /* \"#utility.yul\":15365:15472   */\n    tag_248:\n        /* \"#utility.yul\":15409:15417   */\n      0x00\n        /* \"#utility.yul\":15459:15464   */\n      dup3\n        /* \"#utility.yul\":15453:15457   */\n      dup3\n        /* \"#utility.yul\":15449:15465   */\n      shl\n        /* \"#utility.yul\":15428:15465   */\n      swap1\n      pop\n        /* \"#utility.yul\":15365:15472   */\n      swap3\n      swap2\n      pop\n      pop\n      jump\t// out\n        /* \"#utility.yul\":15478:15871   */\n    tag_249:\n        /* \"#utility.yul\":15547:15553   */\n      0x00\n        /* \"#utility.yul\":15597:15598   */\n      0x08\n        /* \"#utility.yul\":15585:15595   */\n      dup4\n        /* \"#utility.yul\":15581:15599   */\n      mul\n        /* \"#utility.yul\":15620:15717   */\n      tag_455\n        /* \"#utility.yul\":15650:15716   */\n      0xffffffffffffffffffffffffffffffffffffffffffffffffffffffffffffffff\n        /* \"#utility.yul\":15639:15648   */\n      dup3\n        /* \"#utility.yul\":15620:15717   */\n      tag_248\n      jump\t// in\n    tag_455:\n        /* \"#utility.yul\":15738:15777   */\n      tag_456\n        /* \"#utility.yul\":15768:15776   */\n      dup7\n        /* \"#utility.yul\":15757:15766   */\n      dup4\n        /* \"#utility.yul\":15738:15777   */\n      tag_248\n      jump\t// in\n    tag_456:\n        /* \"#utility.yul\":15726:15777   */\n      swap6\n      pop\n        /* \"#utility.yul\":15810:15814   */\n      dup1\n        /* \"#utility.yul\":15806:15815   */\n      not\n        /* \"#utility.yul\":15799:15804   */\n      dup5\n        /* \"#utility.yul\":15795:15816   */\n      and\n        /* \"#utility.yul\":15786:15816   */\n      swap4\n      pop\n        /* \"#utility.yul\":15859:15863   */\n      dup1\n        /* \"#utility.yul\":15849:15857   */\n      dup7\n        /* \"#utility.yul\":15845:15864   */\n      and\n        /* \"#utility.yul\":15838:15843   */\n      dup5\n        /* \"#utility.yul\":15835:15865   */\n      or\n        /* \"#utility.yul\":15825:15865   */\n      swap3\n      pop\n        /* \"#utility.yul\":15554:15871   */\n      pop\n      pop\n        /* \"#utility.yul\":15478:15871   */\n      swap4\n      swap3\n      pop\n      pop\n      pop\n      jump\t// out\n        /* \"#utility.yul\":15877:15937   */\n    tag_250:\n        /* \"#utility.yul\":15905:15908   */\n      0x00\n        /* \"#utility.yul\":15926:15931   */\n      dup2\n        /* \"#utility.yul\":15919:15931   */\n      swap1\n      pop\n        /* \"#utility.yul\":15877:15937   */\n      swap2\n      swap1\n      pop\n      jump\t// out\n        /* \"#utility.yul\":15943:16085   */\n    tag_251:\n        /* \"#utility.yul\":15993:16002   */\n      0x00\n        /* \"#utility.yul\":16026:16079   */\n      tag_459\n        /* \"#utility.yul\":16044:16078   */\n      tag_460\n        /* \"#utility.yul\":16053:16077   */\n      tag_461\n        /* \"#utility.yul\":16071:16076   */\n      dup5\n        /* \"#utility.yul\":16053:16077   */\n      tag_200\n      jump\t// in\n    tag_461:\n        /* \"#utility.yul\":16044:16078   */\n      tag_250\n      jump\t// in\n    tag_460:\n        /* \"#utility.yul\":16026:16079   */\n      tag_200\n      jump\t// in\n    tag_459:\n        /* \"#utility.yul\":16013:16079   */\n      swap1\n      pop\n        /* \"#utility.yul\":15943:16085   */\n      swap2\n      swap1\n      pop\n      jump\t// out\n        /* \"#utility.yul\":16091:16166   */\n    tag_252:\n        /* \"#utility.yul\":16134:16137   */\n      0x00\n        /* \"#utility.yul\":16155:16160   */\n      dup2\n        /* \"#utility.yul\":16148:16160   */\n      swap1\n      pop\n        /* \"#utility.yul\":16091:16166   */\n      swap2\n      swap1\n      pop\n      jump\t// out\n        /* \"#utility.yul\":16172:16441   */\n    tag_253:\n        /* \"#utility.yul\":16282:16321   */\n      tag_464\n        /* \"#utility.yul\":16313:16320   */\n      dup4\n        /* \"#utility.yul\":16282:16321   */\n      tag_251\n      jump\t// in\n    tag_464:\n        /* \"#utility.yul\":16343:16434   */\n      tag_465\n        /* \"#utility.yul\":16392:16433   */\n      tag_466\n        /* \"#utility.yul\":16416:16432   */\n      dup3\n        /* \"#utility.yul\":16392:16433   */\n      tag_252\n      jump\t// in\n    tag_466:\n        /* \"#utility.yul\":16384:16390   */\n      dup5\n        /* \"#utility.yul\":16377:16381   */\n      dup5\n        /* \"#utility.yul\":16371:16382   */\n      sload\n        /* \"#utility.yul\":16343:16434   */\n      tag_249\n      jump\t// in\n    tag_465:\n        /* \"#utility.yul\":16337:16341   */\n      dup3\n        /* \"#utility.yul\":16330:16435   */\n      sstore\n        /* \"#utility.yul\":16248:16441   */\n      pop\n        /* \"#utility.yul\":16172:16441   */\n      pop\n      pop\n      pop\n      jump\t// out\n        /* \"#utility.yul\":16447:16520   */\n    tag_254:\n        /* \"#utility.yul\":16492:16495   */\n      0x00\n        /* \"#utility.yul\":16447:16520   */\n      swap1\n      jump\t// out\n        /* \"#utility.yul\":16526:16715   */\n    tag_255:\n        /* \"#utility.yul\":16603:16635   */\n      tag_469\n      tag_254\n      jump\t// in\n    tag_469:\n        /* \"#utility.yul\":16644:16709   */\n      tag_470\n        /* \"#utility.yul\":16702:16708   */\n      dup2\n        /* \"#utility.yul\":16694:16700   */\n      dup5\n        /* \"#utility.yul\":16688:16692   */\n      dup5\n        /* \"#utility.yul\":16644:16709   */\n      tag_253\n      jump\t// in\n    tag_470:\n        /* \"#utility.yul\":16579:16715   */\n      pop\n        /* \"#utility.yul\":16526:16715   */\n      pop\n      pop\n      jump\t// out\n        /* \"#utility.yul\":16721:16907   */\n    tag_256:\n        /* \"#utility.yul\":16781:16901   */\n    tag_472:\n        /* \"#utility.yul\":16798:16801   */\n      dup2\n        /* \"#utility.yul\":16791:16796   */\n      dup2\n        /* \"#utility.yul\":16788:16802   */\n      lt\n        /* \"#utility.yul\":16781:16901   */\n      iszero\n      tag_474\n      jumpi\n        /* \"#utility.yul\":16852:16891   */\n      tag_475\n        /* \"#utility.yul\":16889:16890   */\n      0x00\n        /* \"#utility.yul\":16882:16887   */\n      dup3\n        /* \"#utility.yul\":16852:16891   */\n      tag_255\n      jump\t// in\n    tag_475:\n        /* \"#utility.yul\":16825:16826   */\n      0x01\n        /* \"#utility.yul\":16818:16823   */\n      dup2\n        /* \"#utility.yul\":16814:16827   */\n      add\n        /* \"#utility.yul\":16805:16827   */\n      swap1\n      pop\n        /* \"#utility.yul\":16781:16901   */\n      jump(tag_472)\n    tag_474:\n        /* \"#utility.yul\":16721:16907   */\n      pop\n      pop\n      jump\t// out\n        /* \"#utility.yul\":16913:17456   */\n    tag_257:\n        /* \"#utility.yul\":17014:17016   */\n      0x1f\n        /* \"#utility.yul\":17009:17012   */\n      dup3\n        /* \"#utility.yul\":17006:17017   */\n      gt\n        /* \"#utility.yul\":17003:17449   */\n      iszero\n      tag_477\n      jumpi\n        /* \"#utility.yul\":17048:17086   */\n      tag_478\n        /* \"#utility.yul\":17080:17085   */\n      dup2\n        /* \"#utility.yul\":17048:17086   */\n      tag_246\n      jump\t// in\n    tag_478:\n        /* \"#utility.yul\":17132:17161   */\n      tag_479\n        /* \"#utility.yul\":17150:17160   */\n      dup5\n        /* \"#utility.yul\":17132:17161   */\n      tag_247\n      jump\t// in\n    tag_479:\n        /* \"#utility.yul\":17122:17130   */\n      dup2\n        /* \"#utility.yul\":17118:17162   */\n      add\n        /* \"#utility.yul\":17315:17317   */\n      0x20\n        /* \"#utility.yul\":17303:17313   */\n      dup6\n        /* \"#utility.yul\":17300:17318   */\n      lt\n        /* \"#utility.yul\":17297:17346   */\n      iszero\n      tag_480\n      jumpi\n        /* \"#utility.yul\":17336:17344   */\n      dup2\n        /* \"#utility.yul\":17321:17344   */\n      swap1\n      pop\n        /* \"#utility.yul\":17297:17346   */\n    tag_480:\n        /* \"#utility.yul\":17359:17439   */\n      tag_481\n        /* \"#utility.yul\":17415:17437   */\n      tag_482\n        /* \"#utility.yul\":17433:17436   */\n      dup6\n        /* \"#utility.yul\":17415:17437   */\n      tag_247\n      jump\t// in\n    tag_482:\n        /* \"#utility.yul\":17405:17413   */\n      dup4\n        /* \"#utility.yul\":17401:17438   */\n      add\n        /* \"#utility.yul\":17388:17399   */\n      dup3\n        /* \"#utility.yul\":17359:17439   */\n      tag_256\n      jump\t// in\n    tag_481:\n        /* \"#utility.yul\":17018:17449   */\n      pop\n      pop\n        /* \"#utility.yul\":17003:17449   */\n    tag_477:\n        /* \"#utility.yul\":16913:17456   */\n      pop\n      pop\n      pop\n      jump\t// out\n        /* \"#utility.yul\":17462:17579   */\n    tag_258:\n        /* \"#utility.yul\":17516:17524   */\n      0x00\n        /* \"#utility.yul\":17566:17571   */\n      dup3\n        /* \"#utility.yul\":17560:17564   */\n      dup3\n        /* \"#utility.yul\":17556:17572   */\n      shr\n        /* \"#utility.yul\":17535:17572   */\n      swap1\n      pop\n        /* \"#utility.yul\":17462:17579   */\n      swap3\n      swap2\n      pop\n      pop\n      jump\t// out\n        /* \"#utility.yul\":17585:17754   */\n    tag_259:\n        /* \"#utility.yul\":17629:17635   */\n      0x00\n        /* \"#utility.yul\":17662:17713   */\n      tag_485\n        /* \"#utility.yul\":17710:17711   */\n      0x00\n        /* \"#utility.yul\":17706:17712   */\n      not\n        /* \"#utility.yul\":17698:17703   */\n      dup5\n        /* \"#utility.yul\":17695:17696   */\n      0x08\n        /* \"#utility.yul\":17691:17704   */\n      mul\n        /* \"#utility.yul\":17662:17713   */\n      tag_258\n      jump\t// in\n    tag_485:\n        /* \"#utility.yul\":17658:17714   */\n      not\n        /* \"#utility.yul\":17743:17747   */\n      dup1\n        /* \"#utility.yul\":17737:17741   */\n      dup4\n        /* \"#utility.yul\":17733:17748   */\n      and\n        /* \"#utility.yul\":17723:17748   */\n      swap2\n      pop\n        /* \"#utility.yul\":17636:17754   */\n      pop\n        /* \"#utility.yul\":17585:17754   */\n      swap3\n      swap2\n      pop\n      pop\n      jump\t// out\n        /* \"#utility.yul\":17759:18054   */\n    tag_260:\n        /* \"#utility.yul\":17835:17839   */\n      0x00\n        /* \"#utility.yul\":17981:18010   */\n      tag_487\n        /* \"#utility.yul\":18006:18009   */\n      dup4\n        /* \"#utility.yul\":18000:18004   */\n      dup4\n        /* \"#utility.yul\":17981:18010   */\n      tag_259\n      jump\t// in\n    tag_487:\n        /* \"#utility.yul\":17973:18010   */\n      swap2\n      pop\n        /* \"#utility.yul\":18043:18046   */\n      dup3\n        /* \"#utility.yul\":18040:18041   */\n      0x02\n        /* \"#utility.yul\":18036:18047   */\n      mul\n        /* \"#utility.yul\":18030:18034   */\n      dup3\n        /* \"#utility.yul\":18027:18048   */\n      or\n        /* \"#utility.yul\":18019:18048   */\n      swap1\n      pop\n        /* \"#utility.yul\":17759:18054   */\n      swap3\n      swap2\n      pop\n      pop\n      jump\t// out\n        /* \"#utility.yul\":18059:19454   */\n    tag_102:\n        /* \"#utility.yul\":18176:18213   */\n      tag_489\n        /* \"#utility.yul\":18209:18212   */\n      dup3\n        /* \"#utility.yul\":18176:18213   */\n      tag_231\n      jump\t// in\n    tag_489:\n        /* \"#utility.yul\":18278:18296   */\n      0xffffffffffffffff\n        /* \"#utility.yul\":18270:18276   */\n      dup2\n        /* \"#utility.yul\":18267:18297   */\n      gt\n        /* \"#utility.yul\":18264:18320   */\n      iszero\n      tag_490\n      jumpi\n        /* \"#utility.yul\":18300:18318   */\n      tag_491\n      tag_220\n      jump\t// in\n    tag_491:\n        /* \"#utility.yul\":18264:18320   */\n    tag_490:\n        /* \"#utility.yul\":18344:18382   */\n      tag_492\n        /* \"#utility.yul\":18376:18380   */\n      dup3\n        /* \"#utility.yul\":18370:18381   */\n      sload\n        /* \"#utility.yul\":18344:18382   */\n      tag_121\n      jump\t// in\n    tag_492:\n        /* \"#utility.yul\":18429:18496   */\n      tag_493\n        /* \"#utility.yul\":18489:18495   */\n      dup3\n        /* \"#utility.yul\":18481:18487   */\n      dup3\n        /* \"#utility.yul\":18475:18479   */\n      dup6\n        /* \"#utility.yul\":18429:18496   */\n      tag_257\n      jump\t// in\n    tag_493:\n        /* \"#utility.yul\":18523:18524   */\n      0x00\n        /* \"#utility.yul\":18547:18551   */\n      0x20\n        /* \"#utility.yul\":18534:18551   */\n      swap1\n      pop\n        /* \"#utility.yul\":18579:18581   */\n      0x1f\n        /* \"#utility.yul\":18571:18577   */\n      dup4\n        /* \"#utility.yul\":18568:18582   */\n      gt\n        /* \"#utility.yul\":18596:18597   */\n      0x01\n        /* \"#utility.yul\":18591:19209   */\n      dup2\n      eq\n      tag_495\n      jumpi\n        /* \"#utility.yul\":19253:19254   */\n      0x00\n        /* \"#utility.yul\":19270:19276   */\n      dup5\n        /* \"#utility.yul\":19267:19344   */\n      iszero\n      tag_496\n      jumpi\n        /* \"#utility.yul\":19319:19328   */\n      dup3\n        /* \"#utility.yul\":19314:19317   */\n      dup8\n        /* \"#utility.yul\":19310:19329   */\n      add\n        /* \"#utility.yul\":19304:19330   */\n      mload\n        /* \"#utility.yul\":19295:19330   */\n      swap1\n      pop\n        /* \"#utility.yul\":19267:19344   */\n    tag_496:\n        /* \"#utility.yul\":19370:19437   */\n      tag_497\n        /* \"#utility.yul\":19430:19436   */\n      dup6\n        /* \"#utility.yul\":19423:19428   */\n      dup3\n        /* \"#utility.yul\":19370:19437   */\n      tag_260\n      jump\t// in\n    tag_497:\n        /* \"#utility.yul\":19364:19368   */\n      dup7\n        /* \"#utility.yul\":19357:19438   */\n      sstore\n        /* \"#utility.yul\":19226:19448   */\n      pop\n        /* \"#utility.yul\":18561:19448   */\n      jump(tag_494)\n        /* \"#utility.yul\":18591:19209   */\n    tag_495:\n        /* \"#utility.yul\":18643:18647   */\n      0x1f\n        /* \"#utility.yul\":18639:18648   */\n      not\n        /* \"#utility.yul\":18631:18637   */\n      dup5\n        /* \"#utility.yul\":18627:18649   */\n      and\n        /* \"#utility.yul\":18677:18714   */\n      tag_498\n        /* \"#utility.yul\":18709:18713   */\n      dup7\n        /* \"#utility.yul\":18677:18714   */\n      tag_246\n      jump\t// in\n    tag_498:\n        /* \"#utility.yul\":18736:18737   */\n      0x00\n        /* \"#utility.yul\":18750:18958   */\n    tag_499:\n        /* \"#utility.yul\":18764:18771   */\n      dup3\n        /* \"#utility.yul\":18761:18762   */\n      dup2\n        /* \"#utility.yul\":18758:18772   */\n      lt\n        /* \"#utility.yul\":18750:18958   */\n      iszero\n      tag_501\n      jumpi\n        /* \"#utility.yul\":18843:18852   */\n      dup5\n        /* \"#utility.yul\":18838:18841   */\n      dup10\n        /* \"#utility.yul\":18834:18853   */\n      add\n        /* \"#utility.yul\":18828:18854   */\n      mload\n        /* \"#utility.yul\":18820:18826   */\n      dup3\n        /* \"#utility.yul\":18813:18855   */\n      sstore\n        /* \"#utility.yul\":18894:18895   */\n      0x01\n        /* \"#utility.yul\":18886:18892   */\n      dup3\n        /* \"#utility.yul\":18882:18896   */\n      add\n        /* \"#utility.yul\":18872:18896   */\n      swap2\n      pop\n        /* \"#utility.yul\":18941:18943   */\n      0x20\n        /* \"#utility.yul\":18930:18939   */\n      dup6\n        /* \"#utility.yul\":18926:18944   */\n      add\n        /* \"#utility.yul\":18913:18944   */\n      swap5\n      pop\n        /* \"#utility.yul\":18787:18791   */\n      0x20\n        /* \"#utility.yul\":18784:18785   */\n      dup2\n        /* \"#utility.yul\":18780:18792   */\n      add\n        /* \"#utility.yul\":18775:18792   */\n      swap1\n      pop\n        /* \"#utility.yul\":18750:18958   */\n      jump(tag_499)\n    tag_501:\n        /* \"#utility.yul\":18986:18992   */\n      dup7\n        /* \"#utility.yul\":18977:18984   */\n      dup4\n        /* \"#utility.yul\":18974:18993   */\n      lt\n        /* \"#utility.yul\":18971:19150   */\n      iszero\n      tag_502\n      jumpi\n        /* \"#utility.yul\":19044:19053   */\n      dup5\n        /* \"#utility.yul\":19039:19042   */\n      dup10\n        /* \"#utility.yul\":19035:19054   */\n      add\n        /* \"#utility.yul\":19029:19055   */\n      mload\n        /* \"#utility.yul\":19087:19135   */\n      tag_503\n        /* \"#utility.yul\":19129:19133   */\n      0x1f\n        /* \"#utility.yul\":19121:19127   */\n      dup10\n        /* \"#utility.yul\":19117:19134   */\n      and\n        /* \"#utility.yul\":19106:19115   */\n      dup3\n        /* \"#utility.yul\":19087:19135   */\n      tag_259\n      jump\t// in\n    tag_503:\n        /* \"#utility.yul\":19079:19085   */\n      dup4\n        /* \"#utility.yul\":19072:19136   */\n      sstore\n        /* \"#utility.yul\":18994:19150   */\n      pop\n        /* \"#utility.yul\":18971:19150   */\n    tag_502:\n        /* \"#utility.yul\":19196:19197   */\n      0x01\n        /* \"#utility.yul\":19192:19193   */\n      0x02\n        /* \"#utility.yul\":19184:19190   */\n      dup9\n        /* \"#utility.yul\":19180:19194   */\n      mul\n        /* \"#utility.yul\":19176:19198   */\n      add\n        /* \"#utility.yul\":19170:19174   */\n      dup9\n        /* \"#utility.yul\":19163:19199   */\n      sstore\n        /* \"#utility.yul\":18598:19209   */\n      pop\n      pop\n      pop\n        /* \"#utility.yul\":18561:19448   */\n    tag_494:\n      pop\n        /* \"#utility.yul\":18151:19454   */\n      pop\n      pop\n      pop\n        /* \"#utility.yul\":18059:19454   */\n      pop\n      pop\n      jump\t// out\n        /* \"#utility.yul\":19460:19600   */\n    tag_261:\n        /* \"#utility.yul\":19508:19512   */\n      0x00\n        /* \"#utility.yul\":19531:19534   */\n      dup2\n        /* \"#utility.yul\":19523:19534   */\n      swap1\n      pop\n        /* \"#utility.yul\":19554:19557   */\n      dup2\n        /* \"#utility.yul\":19551:19552   */\n      0x00\n        /* \"#utility.yul\":19544:19558   */\n      mstore\n        /* \"#utility.yul\":19588:19592   */\n      0x20\n        /* \"#utility.yul\":19585:19586   */\n      0x00\n        /* \"#utility.yul\":19575:19593   */\n      keccak256\n        /* \"#utility.yul\":19567:19593   */\n      swap1\n      pop\n        /* \"#utility.yul\":19460:19600   */\n      swap2\n      swap1\n      pop\n      jump\t// out\n        /* \"#utility.yul\":19606:20147   */\n    tag_262:\n        /* \"#utility.yul\":19706:19708   */\n      0x1f\n        /* \"#utility.yul\":19701:19704   */\n      dup3\n        /* \"#utility.yul\":19698:19709   */\n      gt\n        /* \"#utility.yul\":19695:20140   */\n      iszero\n      tag_506\n      jumpi\n        /* \"#utility.yul\":19740:19777   */\n      tag_507\n        /* \"#utility.yul\":19771:19776   */\n      dup2\n        /* \"#utility.yul\":19740:19777   */\n      tag_261\n      jump\t// in\n    tag_507:\n        /* \"#utility.yul\":19823:19852   */\n      tag_508\n        /* \"#utility.yul\":19841:19851   */\n      dup5\n        /* \"#utility.yul\":19823:19852   */\n      tag_247\n      jump\t// in\n    tag_508:\n        /* \"#utility.yul\":19813:19821   */\n      dup2\n        /* \"#utility.yul\":19809:19853   */\n      add\n        /* \"#utility.yul\":20006:20008   */\n      0x20\n        /* \"#utility.yul\":19994:20004   */\n      dup6\n        /* \"#utility.yul\":19991:20009   */\n      lt\n        /* \"#utility.yul\":19988:20037   */\n      iszero\n      tag_509\n      jumpi\n        /* \"#utility.yul\":20027:20035   */\n      dup2\n        /* \"#utility.yul\":20012:20035   */\n      swap1\n      pop\n        /* \"#utility.yul\":19988:20037   */\n    tag_509:\n        /* \"#utility.yul\":20050:20130   */\n      tag_510\n        /* \"#utility.yul\":20106:20128   */\n      tag_511\n        /* \"#utility.yul\":20124:20127   */\n      dup6\n        /* \"#utility.yul\":20106:20128   */\n      tag_247\n      jump\t// in\n    tag_511:\n        /* \"#utility.yul\":20096:20104   */\n      dup4\n        /* \"#utility.yul\":20092:20129   */\n      add\n        /* \"#utility.yul\":20079:20090   */\n      dup3\n        /* \"#utility.yul\":20050:20130   */\n      tag_256\n      jump\t// in\n    tag_510:\n        /* \"#utility.yul\":19710:20140   */\n      pop\n      pop\n        /* \"#utility.yul\":19695:20140   */\n    tag_506:\n        /* \"#utility.yul\":19606:20147   */\n      pop\n      pop\n      pop\n      jump\t// out\n        /* \"#utility.yul\":20153:21543   */\n    tag_104:\n        /* \"#utility.yul\":20268:20304   */\n      tag_513\n        /* \"#utility.yul\":20300:20303   */\n      dup3\n        /* \"#utility.yul\":20268:20304   */\n      tag_235\n      jump\t// in\n    tag_513:\n        /* \"#utility.yul\":20369:20387   */\n      0xffffffffffffffff\n        /* \"#utility.yul\":20361:20367   */\n      dup2\n        /* \"#utility.yul\":20358:20388   */\n      gt\n        /* \"#utility.yul\":20355:20411   */\n      iszero\n      tag_514\n      jumpi\n        /* \"#utility.yul\":20391:20409   */\n      tag_515\n      tag_220\n      jump\t// in\n    tag_515:\n        /* \"#utility.yul\":20355:20411   */\n    tag_514:\n        /* \"#utility.yul\":20435:20473   */\n      tag_516\n        /* \"#utility.yul\":20467:20471   */\n      dup3\n        /* \"#utility.yul\":20461:20472   */\n      sload\n        /* \"#utility.yul\":20435:20473   */\n      tag_121\n      jump\t// in\n    tag_516:\n        /* \"#utility.yul\":20520:20586   */\n      tag_517\n        /* \"#utility.yul\":20579:20585   */\n      dup3\n        /* \"#utility.yul\":20571:20577   */\n      dup3\n        /* \"#utility.yul\":20565:20569   */\n      dup6\n        /* \"#utility.yul\":20520:20586   */\n      tag_262\n      jump\t// in\n    tag_517:\n        /* \"#utility.yul\":20613:20614   */\n      0x00\n        /* \"#utility.yul\":20637:20641   */\n      0x20\n        /* \"#utility.yul\":20624:20641   */\n      swap1\n      pop\n        /* \"#utility.yul\":20669:20671   */\n      0x1f\n        /* \"#utility.yul\":20661:20667   */\n      dup4\n        /* \"#utility.yul\":20658:20672   */\n      gt\n        /* \"#utility.yul\":20686:20687   */\n      0x01\n        /* \"#utility.yul\":20681:21298   */\n      dup2\n      eq\n      tag_519\n      jumpi\n        /* \"#utility.yul\":21342:21343   */\n      0x00\n        /* \"#utility.yul\":21359:21365   */\n      dup5\n        /* \"#utility.yul\":21356:21433   */\n      iszero\n      tag_520\n      jumpi\n        /* \"#utility.yul\":21408:21417   */\n      dup3\n        /* \"#utility.yul\":21403:21406   */\n      dup8\n        /* \"#utility.yul\":21399:21418   */\n      add\n        /* \"#utility.yul\":21393:21419   */\n      mload\n        /* \"#utility.yul\":21384:21419   */\n      swap1\n      pop\n        /* \"#utility.yul\":21356:21433   */\n    tag_520:\n        /* \"#utility.yul\":21459:21526   */\n      tag_521\n        /* \"#utility.yul\":21519:21525   */\n      dup6\n        /* \"#utility.yul\":21512:21517   */\n      dup3\n        /* \"#utility.yul\":21459:21526   */\n      tag_260\n      jump\t// in\n    tag_521:\n        /* \"#utility.yul\":21453:21457   */\n      dup7\n        /* \"#utility.yul\":21446:21527   */\n      sstore\n        /* \"#utility.yul\":21315:21537   */\n      pop\n        /* \"#utility.yul\":20651:21537   */\n      jump(tag_518)\n        /* \"#utility.yul\":20681:21298   */\n    tag_519:\n        /* \"#utility.yul\":20733:20737   */\n      0x1f\n        /* \"#utility.yul\":20729:20738   */\n      not\n        /* \"#utility.yul\":20721:20727   */\n      dup5\n        /* \"#utility.yul\":20717:20739   */\n      and\n        /* \"#utility.yul\":20767:20803   */\n      tag_522\n        /* \"#utility.yul\":20798:20802   */\n      dup7\n        /* \"#utility.yul\":20767:20803   */\n      tag_261\n      jump\t// in\n    tag_522:\n        /* \"#utility.yul\":20825:20826   */\n      0x00\n        /* \"#utility.yul\":20839:21047   */\n    tag_523:\n        /* \"#utility.yul\":20853:20860   */\n      dup3\n        /* \"#utility.yul\":20850:20851   */\n      dup2\n        /* \"#utility.yul\":20847:20861   */\n      lt\n        /* \"#utility.yul\":20839:21047   */\n      iszero\n      tag_525\n      jumpi\n        /* \"#utility.yul\":20932:20941   */\n      dup5\n        /* \"#utility.yul\":20927:20930   */\n      dup10\n        /* \"#utility.yul\":20923:20942   */\n      add\n        /* \"#utility.yul\":20917:20943   */\n      mload\n        /* \"#utility.yul\":20909:20915   */\n      dup3\n        /* \"#utility.yul\":20902:20944   */\n      sstore\n        /* \"#utility.yul\":20983:20984   */\n      0x01\n        /* \"#utility.yul\":20975:20981   */\n      dup3\n        /* \"#utility.yul\":20971:20985   */\n      add\n        /* \"#utility.yul\":20961:20985   */\n      swap2\n      pop\n        /* \"#utility.yul\":21030:21032   */\n      0x20\n        /* \"#utility.yul\":21019:21028   */\n      dup6\n        /* \"#utility.yul\":21015:21033   */\n      add\n        /* \"#utility.yul\":21002:21033   */\n      swap5\n      pop\n        /* \"#utility.yul\":20876:20880   */\n      0x20\n        /* \"#utility.yul\":20873:20874   */\n      dup2\n        /* \"#utility.yul\":20869:20881   */\n      add\n        /* \"#utility.yul\":20864:20881   */\n      swap1\n      pop\n        /* \"#utility.yul\":20839:21047   */\n      jump(tag_523)\n    tag_525:\n        /* \"#utility.yul\":21075:21081   */\n      dup7\n        /* \"#utility.yul\":21066:21073   */\n      dup4\n        /* \"#utility.yul\":21063:21082   */\n      lt\n        /* \"#utility.yul\":21060:21239   */\n      iszero\n      tag_526\n      jumpi\n        /* \"#utility.yul\":21133:21142   */\n      dup5\n        /* \"#utility.yul\":21128:21131   */\n      dup10\n        /* \"#utility.yul\":21124:21143   */\n      add\n        /* \"#utility.yul\":21118:21144   */\n      mload\n        /* \"#utility.yul\":21176:21224   */\n      tag_527\n        /* \"#utility.yul\":21218:21222   */\n      0x1f\n        /* \"#utility.yul\":21210:21216   */\n      dup10\n        /* \"#utility.yul\":21206:21223   */\n      and\n        /* \"#utility.yul\":21195:21204   */\n      dup3\n        /* \"#utility.yul\":21176:21224   */\n      tag_259\n      jump\t// in\n    tag_527:\n        /* \"#utility.yul\":21168:21174   */\n      dup4\n        /* \"#utility.yul\":21161:21225   */\n      sstore\n        /* \"#utility.yul\":21083:21239   */\n      pop\n        /* \"#utility.yul\":21060:21239   */\n    tag_526:\n        /* \"#utility.yul\":21285:21286   */\n      0x01\n        /* \"#utility.yul\":21281:21282   */\n      0x02\n        /* \"#utility.yul\":21273:21279   */\n      dup9\n        /* \"#utility.yul\":21269:21283   */\n      mul\n        /* \"#utility.yul\":21265:21287   */\n      add\n        /* \"#utility.yul\":21259:21263   */\n      dup9\n        /* \"#utility.yul\":21252:21288   */\n      sstore\n        /* \"#utility.yul\":20688:21298   */\n      pop\n      pop\n      pop\n        /* \"#utility.yul\":20651:21537   */\n    tag_518:\n      pop\n        /* \"#utility.yul\":20243:21543   */\n      pop\n      pop\n      pop\n        /* \"#utility.yul\":20153:21543   */\n      pop\n      pop\n      jump\t// out\n        /* \"#utility.yul\":21549:22280   */\n    tag_106:\n        /* \"#utility.yul\":21764:21768   */\n      0x00\n        /* \"#utility.yul\":21802:21805   */\n      0x80\n        /* \"#utility.yul\":21791:21800   */\n      dup3\n        /* \"#utility.yul\":21787:21806   */\n      add\n        /* \"#utility.yul\":21779:21806   */\n      swap1\n      pop\n        /* \"#utility.yul\":21816:21887   */\n      tag_529\n        /* \"#utility.yul\":21884:21885   */\n      0x00\n        /* \"#utility.yul\":21873:21882   */\n      dup4\n        /* \"#utility.yul\":21869:21886   */\n      add\n        /* \"#utility.yul\":21860:21866   */\n      dup8\n        /* \"#utility.yul\":21816:21887   */\n      tag_201\n      jump\t// in\n    tag_529:\n        /* \"#utility.yul\":21934:21943   */\n      dup2\n        /* \"#utility.yul\":21928:21932   */\n      dup2\n        /* \"#utility.yul\":21924:21944   */\n      sub\n        /* \"#utility.yul\":21919:21921   */\n      0x20\n        /* \"#utility.yul\":21908:21917   */\n      dup4\n        /* \"#utility.yul\":21904:21922   */\n      add\n        /* \"#utility.yul\":21897:21945   */\n      mstore\n        /* \"#utility.yul\":21962:22040   */\n      tag_530\n        /* \"#utility.yul\":22035:22039   */\n      dup2\n        /* \"#utility.yul\":22026:22032   */\n      dup7\n        /* \"#utility.yul\":21962:22040   */\n      tag_234\n      jump\t// in\n    tag_530:\n        /* \"#utility.yul\":21954:22040   */\n      swap1\n      pop\n        /* \"#utility.yul\":22087:22096   */\n      dup2\n        /* \"#utility.yul\":22081:22085   */\n      dup2\n        /* \"#utility.yul\":22077:22097   */\n      sub\n        /* \"#utility.yul\":22072:22074   */\n      0x40\n        /* \"#utility.yul\":22061:22070   */\n      dup4\n        /* \"#utility.yul\":22057:22075   */\n      add\n        /* \"#utility.yul\":22050:22098   */\n      mstore\n        /* \"#utility.yul\":22115:22191   */\n      tag_531\n        /* \"#utility.yul\":22186:22190   */\n      dup2\n        /* \"#utility.yul\":22177:22183   */\n      dup6\n        /* \"#utility.yul\":22115:22191   */\n      tag_237\n      jump\t// in\n    tag_531:\n        /* \"#utility.yul\":22107:22191   */\n      swap1\n      pop\n        /* \"#utility.yul\":22201:22273   */\n      tag_532\n        /* \"#utility.yul\":22269:22271   */\n      0x60\n        /* \"#utility.yul\":22258:22267   */\n      dup4\n        /* \"#utility.yul\":22254:22272   */\n      add\n        /* \"#utility.yul\":22245:22251   */\n      dup5\n        /* \"#utility.yul\":22201:22273   */\n      tag_201\n      jump\t// in\n    tag_532:\n        /* \"#utility.yul\":21549:22280   */\n      swap6\n      swap5\n      pop\n      pop\n      pop\n      pop\n      pop\n      jump\t// out\n        /* \"#utility.yul\":22286:22463   */\n    tag_263:\n        /* \"#utility.yul\":22426:22455   */\n      0x54696d656c6f636b3a20756e6b6e6f776e206f7065726174696f6e0000000000\n        /* \"#utility.yul\":22422:22423   */\n      0x00\n        /* \"#utility.yul\":22414:22420   */\n      dup3\n        /* \"#utility.yul\":22410:22424   */\n      add\n        /* \"#utility.yul\":22403:22456   */\n      mstore\n        /* \"#utility.yul\":22286:22463   */\n      pop\n      jump\t// out\n        /* \"#utility.yul\":22469:22835   */\n    tag_264:\n        /* \"#utility.yul\":22611:22614   */\n      0x00\n        /* \"#utility.yul\":22632:22699   */\n      tag_535\n        /* \"#utility.yul\":22696:22698   */\n      0x1b\n        /* \"#utility.yul\":22691:22694   */\n      dup4\n        /* \"#utility.yul\":22632:22699   */\n      tag_232\n      jump\t// in\n    tag_535:\n        /* \"#utility.yul\":22625:22699   */\n      swap2\n      pop\n        /* \"#utility.yul\":22708:22801   */\n      tag_536\n        /* \"#utility.yul\":22797:22800   */\n      dup3\n        /* \"#utility.yul\":22708:22801   */\n      tag_263\n      jump\t// in\n    tag_536:\n        /* \"#utility.yul\":22826:22828   */\n      0x20\n        /* \"#utility.yul\":22821:22824   */\n      dup3\n        /* \"#utility.yul\":22817:22829   */\n      add\n        /* \"#utility.yul\":22810:22829   */\n      swap1\n      pop\n        /* \"#utility.yul\":22469:22835   */\n      swap2\n      swap1\n      pop\n      jump\t// out\n        /* \"#utility.yul\":22841:23260   */\n    tag_113:\n        /* \"#utility.yul\":23007:23011   */\n      0x00\n        /* \"#utility.yul\":23045:23047   */\n      0x20\n        /* \"#utility.yul\":23034:23043   */\n      dup3\n        /* \"#utility.yul\":23030:23048   */\n      add\n        /* \"#utility.yul\":23022:23048   */\n      swap1\n      pop\n        /* \"#utility.yul\":23094:23103   */\n      dup2\n        /* \"#utility.yul\":23088:23092   */\n      dup2\n        /* \"#utility.yul\":23084:23104   */\n      sub\n        /* \"#utility.yul\":23080:23081   */\n      0x00\n        /* \"#utility.yul\":23069:23078   */\n      dup4\n        /* \"#utility.yul\":23065:23082   */\n      add\n        /* \"#utility.yul\":23058:23105   */\n      mstore\n        /* \"#utility.yul\":23122:23253   */\n      tag_538\n        /* \"#utility.yul\":23248:23252   */\n      dup2\n        /* \"#utility.yul\":23122:23253   */\n      tag_264\n      jump\t// in\n    tag_538:\n        /* \"#utility.yul\":23114:23253   */\n      swap1\n      pop\n        /* \"#utility.yul\":22841:23260   */\n      swap2\n      swap1\n      pop\n      jump\t// out\n        /* \"#utility.yul\":23266:23489   */\n    tag_265:\n        /* \"#utility.yul\":23406:23440   */\n      0x54696d656c6f636b3a206f7065726174696f6e20616c72656164792065786563\n        /* \"#utility.yul\":23402:23403   */\n      0x00\n        /* \"#utility.yul\":23394:23400   */\n      dup3\n        /* \"#utility.yul\":23390:23404   */\n      add\n        /* \"#utility.yul\":23383:23441   */\n      mstore\n        /* \"#utility.yul\":23475:23481   */\n      0x7574656400000000000000000000000000000000000000000000000000000000\n        /* \"#utility.yul\":23470:23472   */\n      0x20\n        /* \"#utility.yul\":23462:23468   */\n      dup3\n        /* \"#utility.yul\":23458:23473   */\n      add\n        /* \"#utility.yul\":23451:23482   */\n      mstore\n        /* \"#utility.yul\":23266:23489   */\n      pop\n      jump\t// out\n        /* \"#utility.yul\":23495:23861   */\n    tag_266:\n        /* \"#utility.yul\":23637:23640   */\n      0x00\n        /* \"#utility.yul\":23658:23725   */\n      tag_541\n        /* \"#utility.yul\":23722:23724   */\n      0x24\n        /* \"#utility.yul\":23717:23720   */\n      dup4\n        /* \"#utility.yul\":23658:23725   */\n      tag_232\n      jump\t// in\n    tag_541:\n        /* \"#utility.yul\":23651:23725   */\n      swap2\n      pop\n        /* \"#utility.yul\":23734:23827   */\n      tag_542\n        /* \"#utility.yul\":23823:23826   */\n      dup3\n        /* \"#utility.yul\":23734:23827   */\n      tag_265\n      jump\t// in\n    tag_542:\n        /* \"#utility.yul\":23852:23854   */\n      0x40\n        /* \"#utility.yul\":23847:23850   */\n      dup3\n        /* \"#utility.yul\":23843:23855   */\n      add\n        /* \"#utility.yul\":23836:23855   */\n      swap1\n      pop\n        /* \"#utility.yul\":23495:23861   */\n      swap2\n      swap1\n      pop\n      jump\t// out\n        /* \"#utility.yul\":23867:24286   */\n    tag_116:\n        /* \"#utility.yul\":24033:24037   */\n      0x00\n        /* \"#utility.yul\":24071:24073   */\n      0x20\n        /* \"#utility.yul\":24060:24069   */\n      dup3\n        /* \"#utility.yul\":24056:24074   */\n      add\n        /* \"#utility.yul\":24048:24074   */\n      swap1\n      pop\n        /* \"#utility.yul\":24120:24129   */\n      dup2\n        /* \"#utility.yul\":24114:24118   */\n      dup2\n        /* \"#utility.yul\":24110:24130   */\n      sub\n        /* \"#utility.yul\":24106:24107   */\n      0x00\n        /* \"#utility.yul\":24095:24104   */\n      dup4\n        /* \"#utility.yul\":24091:24108   */\n      add\n        /* \"#utility.yul\":24084:24131   */\n      mstore\n        /* \"#utility.yul\":24148:24279   */\n      tag_544\n        /* \"#utility.yul\":24274:24278   */\n      dup2\n        /* \"#utility.yul\":24148:24279   */\n      tag_266\n      jump\t// in\n    tag_544:\n        /* \"#utility.yul\":24140:24279   */\n      swap1\n      pop\n        /* \"#utility.yul\":23867:24286   */\n      swap2\n      swap1\n      pop\n      jump\t// out\n        /* \"#utility.yul\":24292:24515   */\n    tag_267:\n        /* \"#utility.yul\":24432:24466   */\n      0x54696d656c6f636b3a206f7065726174696f6e20616c72656164792063616e63\n        /* \"#utility.yul\":24428:24429   */\n      0x00\n        /* \"#utility.yul\":24420:24426   */\n      dup3\n        /* \"#utility.yul\":24416:24430   */\n      add\n        /* \"#utility.yul\":24409:24467   */\n      mstore\n        /* \"#utility.yul\":24501:24507   */\n      0x656c656400000000000000000000000000000000000000000000000000000000\n        /* \"#utility.yul\":24496:24498   */\n      0x20\n        /* \"#utility.yul\":24488:24494   */\n      dup3\n        /* \"#utility.yul\":24484:24499   */\n      add\n        /* \"#utility.yul\":24477:24508   */\n      mstore\n        /* \"#utility.yul\":24292:24515   */\n      pop\n      jump\t// out\n        /* \"#utility.yul\":24521:24887   */\n    tag_268:\n        /* \"#utility.yul\":24663:24666   */\n      0x00\n        /* \"#utility.yul\":24684:24751   */\n      tag_547\n        /* \"#utility.yul\":24748:24750   */\n      0x24\n        /* \"#utility.yul\":24743:24746   */\n      dup4\n        /* \"#utility.yul\":24684:24751   */\n      tag_232\n      jump\t// in\n    tag_547:\n        /* \"#utility.yul\":24677:24751   */\n      swap2\n      pop\n        /* \"#utility.yul\":24760:24853   */\n      tag_548\n        /* \"#utility.yul\":24849:24852   */\n      dup3\n        /* \"#utility.yul\":24760:24853   */\n      tag_267\n      jump\t// in\n    tag_548:\n        /* \"#utility.yul\":24878:24880   */\n      0x40\n        /* \"#utility.yul\":24873:24876   */\n      dup3\n        /* \"#utility.yul\":24869:24881   */\n      add\n        /* \"#utility.yul\":24862:24881   */\n      swap1\n      pop\n        /* \"#utility.yul\":24521:24887   */\n      swap2\n      swap1\n      pop\n      jump\t// out\n        /* \"#utility.yul\":24893:25312   */\n    tag_119:\n        /* \"#utility.yul\":25059:25063   */\n      0x00\n        /* \"#utility.yul\":25097:25099   */\n      0x20\n        /* \"#utility.yul\":25086:25095   */\n      dup3\n        /* \"#utility.yul\":25082:25100   */\n      add\n        /* \"#utility.yul\":25074:25100   */\n      swap1\n      pop\n        /* \"#utility.yul\":25146:25155   */\n      dup2\n        /* \"#utility.yul\":25140:25144   */\n      dup2\n        /* \"#utility.yul\":25136:25156   */\n      sub\n        /* \"#utility.yul\":25132:25133   */\n      0x00\n        /* \"#utility.yul\":25121:25130   */\n      dup4\n        /* \"#utility.yul\":25117:25134   */\n      add\n        /* \"#utility.yul\":25110:25157   */\n      mstore\n        /* \"#utility.yul\":25174:25305   */\n      tag_550\n        /* \"#utility.yul\":25300:25304   */\n      dup2\n        /* \"#utility.yul\":25174:25305   */\n      tag_268\n      jump\t// in\n    tag_550:\n        /* \"#utility.yul\":25166:25305   */\n      swap1\n      pop\n        /* \"#utility.yul\":24893:25312   */\n      swap2\n      swap1\n      pop\n      jump\t// out\n        /* \"#utility.yul\":25318:25492   */\n    tag_269:\n        /* \"#utility.yul\":25458:25484   */\n      0x54696d656c6f636b3a207265656e7472616e742063616c6c0000000000000000\n        /* \"#utility.yul\":25454:25455   */\n      0x00\n        /* \"#utility.yul\":25446:25452   */\n      dup3\n        /* \"#utility.yul\":25442:25456   */\n      add\n        /* \"#utility.yul\":25435:25485   */\n      mstore\n        /* \"#utility.yul\":25318:25492   */\n      pop\n      jump\t// out\n        /* \"#utility.yul\":25498:25864   */\n    tag_270:\n        /* \"#utility.yul\":25640:25643   */\n      0x00\n        /* \"#utility.yul\":25661:25728   */\n      tag_553\n        /* \"#utility.yul\":25725:25727   */\n      0x18\n        /* \"#utility.yul\":25720:25723   */\n      dup4\n        /* \"#utility.yul\":25661:25728   */\n      tag_232\n      jump\t// in\n    tag_553:\n        /* \"#utility.yul\":25654:25728   */\n      swap2\n      pop\n        /* \"#utility.yul\":25737:25830   */\n      tag_554\n        /* \"#utility.yul\":25826:25829   */\n      dup3\n        /* \"#utility.yul\":25737:25830   */\n      tag_269\n      jump\t// in\n    tag_554:\n        /* \"#utility.yul\":25855:25857   */\n      0x20\n        /* \"#utility.yul\":25850:25853   */\n      dup3\n        /* \"#utility.yul\":25846:25858   */\n      add\n        /* \"#utility.yul\":25839:25858   */\n      swap1\n      pop\n        /* \"#utility.yul\":25498:25864   */\n      swap2\n      swap1\n      pop\n      jump\t// out\n        /* \"#utility.yul\":25870:26289   */\n    tag_139:\n        /* \"#utility.yul\":26036:26040   */\n      0x00\n        /* \"#utility.yul\":26074:26076   */\n      0x20\n        /* \"#utility.yul\":26063:26072   */\n      dup3\n        /* \"#utility.yul\":26059:26077   */\n      add\n        /* \"#utility.yul\":26051:26077   */\n      swap1\n      pop\n        /* \"#utility.yul\":26123:26132   */\n      dup2\n        /* \"#utility.yul\":26117:26121   */\n      dup2\n        /* \"#utility.yul\":26113:26133   */\n      sub\n        /* \"#utility.yul\":26109:26110   */\n      0x00\n        /* \"#utility.yul\":26098:26107   */\n      dup4\n        /* \"#utility.yul\":26094:26111   */\n      add\n        /* \"#utility.yul\":26087:26134   */\n      mstore\n        /* \"#utility.yul\":26151:26282   */\n      tag_556\n        /* \"#utility.yul\":26277:26281   */\n      dup2\n        /* \"#utility.yul\":26151:26282   */\n      tag_270\n      jump\t// in\n    tag_556:\n        /* \"#utility.yul\":26143:26282   */\n      swap1\n      pop\n        /* \"#utility.yul\":25870:26289   */\n      swap2\n      swap1\n      pop\n      jump\t// out\n        /* \"#utility.yul\":26295:26473   */\n    tag_271:\n        /* \"#utility.yul\":26435:26465   */\n      0x54696d656c6f636b3a206f7065726174696f6e2063616e63656c656400000000\n        /* \"#utility.yul\":26431:26432   */\n      0x00\n        /* \"#utility.yul\":26423:26429   */\n      dup3\n        /* \"#utility.yul\":26419:26433   */\n      add\n        /* \"#utility.yul\":26412:26466   */\n      mstore\n        /* \"#utility.yul\":26295:26473   */\n      pop\n      jump\t// out\n        /* \"#utility.yul\":26479:26845   */\n    tag_272:\n        /* \"#utility.yul\":26621:26624   */\n      0x00\n        /* \"#utility.yul\":26642:26709   */\n      tag_559\n        /* \"#utility.yul\":26706:26708   */\n      0x1c\n        /* \"#utility.yul\":26701:26704   */\n      dup4\n        /* \"#utility.yul\":26642:26709   */\n      tag_232\n      jump\t// in\n    tag_559:\n        /* \"#utility.yul\":26635:26709   */\n      swap2\n      pop\n        /* \"#utility.yul\":26718:26811   */\n      tag_560\n        /* \"#utility.yul\":26807:26810   */\n      dup3\n        /* \"#utility.yul\":26718:26811   */\n      tag_271\n      jump\t// in\n    tag_560:\n        /* \"#utility.yul\":26836:26838   */\n      0x20\n        /* \"#utility.yul\":26831:26834   */\n      dup3\n        /* \"#utility.yul\":26827:26839   */\n      add\n        /* \"#utility.yul\":26820:26839   */\n      swap1\n      pop\n        /* \"#utility.yul\":26479:26845   */\n      swap2\n      swap1\n      pop\n      jump\t// out\n        /* \"#utility.yul\":26851:27270   */\n    tag_147:\n        /* \"#utility.yul\":27017:27021   */\n      0x00\n        /* \"#utility.yul\":27055:27057   */\n      0x20\n        /* \"#utility.yul\":27044:27053   */\n      dup3\n        /* \"#utility.yul\":27040:27058   */\n      add\n        /* \"#utility.yul\":27032:27058   */\n      swap1\n      pop\n        /* \"#utility.yul\":27104:27113   */\n      dup2\n        /* \"#utility.yul\":27098:27102   */\n      dup2\n        /* \"#utility.yul\":27094:27114   */\n      sub\n        /* \"#utility.yul\":27090:27091   */\n      0x00\n        /* \"#utility.yul\":27079:27088   */\n      dup4\n        /* \"#utility.yul\":27075:27092   */\n      add\n        /* \"#utility.yul\":27068:27115   */\n      mstore\n        /* \"#utility.yul\":27132:27263   */\n      tag_562\n        /* \"#utility.yul\":27258:27262   */\n      dup2\n        /* \"#utility.yul\":27132:27263   */\n      tag_272\n      jump\t// in\n    tag_562:\n        /* \"#utility.yul\":27124:27263   */\n      swap1\n      pop\n        /* \"#utility.yul\":26851:27270   */\n      swap2\n      swap1\n      pop\n      jump\t// out\n        /* \"#utility.yul\":27276:27445   */\n    tag_273:\n        /* \"#utility.yul\":27416:27437   */\n      0x54696d656c6f636b3a20746f6f206561726c7900000000000000000000000000\n        /* \"#utility.yul\":27412:27413   */\n      0x00\n        /* \"#utility.yul\":27404:27410   */\n      dup3\n        /* \"#utility.yul\":27400:27414   */\n      add\n        /* \"#utility.yul\":27393:27438   */\n      mstore\n        /* \"#utility.yul\":27276:27445   */\n      pop\n      jump\t// out\n        /* \"#utility.yul\":27451:27817   */\n    tag_274:\n        /* \"#utility.yul\":27593:27596   */\n      0x00\n        /* \"#utility.yul\":27614:27681   */\n      tag_565\n        /* \"#utility.yul\":27678:27680   */\n      0x13\n        /* \"#utility.yul\":27673:27676   */\n      dup4\n        /* \"#utility.yul\":27614:27681   */\n      tag_232\n      jump\t// in\n    tag_565:\n        /* \"#utility.yul\":27607:27681   */\n      swap2\n      pop\n        /* \"#utility.yul\":27690:27783   */\n      tag_566\n        /* \"#utility.yul\":27779:27782   */\n      dup3\n        /* \"#utility.yul\":27690:27783   */\n      tag_273\n      jump\t// in\n    tag_566:\n        /* \"#utility.yul\":27808:27810   */\n      0x20\n        /* \"#utility.yul\":27803:27806   */\n      dup3\n        /* \"#utility.yul\":27799:27811   */\n      add\n        /* \"#utility.yul\":27792:27811   */\n      swap1\n      pop\n        /* \"#utility.yul\":27451:27817   */\n      swap2\n      swap1\n      pop\n      jump\t// out\n        /* \"#utility.yul\":27823:28242   */\n    tag_150:\n        /* \"#utility.yul\":27989:27993   */\n      0x00\n        /* \"#utility.yul\":28027:28029   */\n      0x20\n        /* \"#utility.yul\":28016:28025   */\n      dup3\n        /* \"#utility.yul\":28012:28030   */\n      add\n        /* \"#utility.yul\":28004:28030   */\n      swap1\n      pop\n        /* \"#utility.yul\":28076:28085   */\n      dup2\n        /* \"#utility.yul\":28070:28074   */\n      dup2\n        /* \"#utility.yul\":28066:28086   */\n      sub\n        /* \"#utility.yul\":28062:28063   */\n      0x00\n        /* \"#utility.yul\":28051:28060   */\n      dup4\n        /* \"#utility.yul\":28047:28064   */\n      add\n        /* \"#utility.yul\":28040:28087   */\n      mstore\n        /* \"#utility.yul\":28104:28235   */\n      tag_568\n        /* \"#utility.yul\":28230:28234   */\n      dup2\n        /* \"#utility.yul\":28104:28235   */\n      tag_274\n      jump\t// in\n    tag_568:\n        /* \"#utility.yul\":28096:28235   */\n      swap1\n      pop\n        /* \"#utility.yul\":27823:28242   */\n      swap2\n      swap1\n      pop\n      jump\t// out\n        /* \"#utility.yul\":28248:28425   */\n    tag_275:\n        /* \"#utility.yul\":28388:28417   */\n      0x54696d656c6f636b3a206f7065726174696f6e20657870697265640000000000\n        /* \"#utility.yul\":28384:28385   */\n      0x00\n        /* \"#utility.yul\":28376:28382   */\n      dup3\n        /* \"#utility.yul\":28372:28386   */\n      add\n        /* \"#utility.yul\":28365:28418   */\n      mstore\n        /* \"#utility.yul\":28248:28425   */\n      pop\n      jump\t// out\n        /* \"#utility.yul\":28431:28797   */\n    tag_276:\n        /* \"#utility.yul\":28573:28576   */\n      0x00\n        /* \"#utility.yul\":28594:28661   */\n      tag_571\n        /* \"#utility.yul\":28658:28660   */\n      0x1b\n        /* \"#utility.yul\":28653:28656   */\n      dup4\n        /* \"#utility.yul\":28594:28661   */\n      tag_232\n      jump\t// in\n    tag_571:\n        /* \"#utility.yul\":28587:28661   */\n      swap2\n      pop\n        /* \"#utility.yul\":28670:28763   */\n      tag_572\n        /* \"#utility.yul\":28759:28762   */\n      dup3\n        /* \"#utility.yul\":28670:28763   */\n      tag_275\n      jump\t// in\n    tag_572:\n        /* \"#utility.yul\":28788:28790   */\n      0x20\n        /* \"#utility.yul\":28783:28786   */\n      dup3\n        /* \"#utility.yul\":28779:28791   */\n      add\n        /* \"#utility.yul\":28772:28791   */\n      swap1\n      pop\n        /* \"#utility.yul\":28431:28797   */\n      swap2\n      swap1\n      pop\n      jump\t// out\n        /* \"#utility.yul\":28803:29222   */\n    tag_154:\n        /* \"#utility.yul\":28969:28973   */\n      0x00\n        /* \"#utility.yul\":29007:29009   */\n      0x20\n        /* \"#utility.yul\":28996:29005   */\n      dup3\n        /* \"#utility.yul\":28992:29010   */\n      add\n        /* \"#utility.yul\":28984:29010   */\n      swap1\n      pop\n        /* \"#utility.yul\":29056:29065   */\n      dup2\n        /* \"#utility.yul\":29050:29054   */\n      dup2\n        /* \"#utility.yul\":29046:29066   */\n      sub\n        /* \"#utility.yul\":29042:29043   */\n      0x00\n        /* \"#utility.yul\":29031:29040   */\n      dup4\n        /* \"#utility.yul\":29027:29044   */\n      add\n        /* \"#utility.yul\":29020:29067   */\n      mstore\n        /* \"#utility.yul\":29084:29215   */\n      tag_574\n        /* \"#utility.yul\":29210:29214   */\n      dup2\n        /* \"#utility.yul\":29084:29215   */\n      tag_276\n      jump\t// in\n    tag_574:\n        /* \"#utility.yul\":29076:29215   */\n      swap1\n      pop\n        /* \"#utility.yul\":28803:29222   */\n      swap2\n      swap1\n      pop\n      jump\t// out\n        /* \"#utility.yul\":29228:29375   */\n    tag_277:\n        /* \"#utility.yul\":29329:29340   */\n      0x00\n        /* \"#utility.yul\":29366:29369   */\n      dup2\n        /* \"#utility.yul\":29351:29369   */\n      swap1\n      pop\n        /* \"#utility.yul\":29228:29375   */\n      swap3\n      swap2\n      pop\n      pop\n      jump\t// out\n        /* \"#utility.yul\":29381:29525   */\n    tag_278:\n        /* \"#utility.yul\":29433:29437   */\n      0x00\n        /* \"#utility.yul\":29456:29459   */\n      dup2\n        /* \"#utility.yul\":29448:29459   */\n      swap1\n      pop\n        /* \"#utility.yul\":29479:29482   */\n      dup2\n        /* \"#utility.yul\":29476:29477   */\n      0x00\n        /* \"#utility.yul\":29469:29483   */\n      mstore\n        /* \"#utility.yul\":29513:29517   */\n      0x20\n        /* \"#utility.yul\":29510:29511   */\n      0x00\n        /* \"#utility.yul\":29500:29518   */\n      keccak256\n        /* \"#utility.yul\":29492:29518   */\n      swap1\n      pop\n        /* \"#utility.yul\":29381:29525   */\n      swap2\n      swap1\n      pop\n      jump\t// out\n        /* \"#utility.yul\":29553:30431   */\n    tag_279:\n        /* \"#utility.yul\":29658:29661   */\n      0x00\n        /* \"#utility.yul\":29695:29700   */\n      dup2\n        /* \"#utility.yul\":29689:29701   */\n      sload\n        /* \"#utility.yul\":29724:29760   */\n      tag_578\n        /* \"#utility.yul\":29750:29759   */\n      dup2\n        /* \"#utility.yul\":29724:29760   */\n      tag_121\n      jump\t// in\n    tag_578:\n        /* \"#utility.yul\":29776:29864   */\n      tag_579\n        /* \"#utility.yul\":29857:29863   */\n      dup2\n        /* \"#utility.yul\":29852:29855   */\n      dup7\n        /* \"#utility.yul\":29776:29864   */\n      tag_277\n      jump\t// in\n    tag_579:\n        /* \"#utility.yul\":29769:29864   */\n      swap5\n      pop\n        /* \"#utility.yul\":29895:29896   */\n      0x01\n        /* \"#utility.yul\":29884:29893   */\n      dup3\n        /* \"#utility.yul\":29880:29897   */\n      and\n        /* \"#utility.yul\":29911:29912   */\n      0x00\n        /* \"#utility.yul\":29906:30072   */\n      dup2\n      eq\n      tag_581\n      jumpi\n        /* \"#utility.yul\":30086:30087   */\n      0x01\n        /* \"#utility.yul\":30081:30425   */\n      dup2\n      eq\n      tag_582\n      jumpi\n        /* \"#utility.yul\":29873:30425   */\n      jump(tag_580)\n        /* \"#utility.yul\":29906:30072   */\n    tag_581:\n        /* \"#utility.yul\":29990:29994   */\n      0xff\n        /* \"#utility.yul\":29986:29995   */\n      not\n        /* \"#utility.yul\":29975:29984   */\n      dup4\n        /* \"#utility.yul\":29971:29996   */\n      and\n        /* \"#utility.yul\":29966:29969   */\n      dup7\n        /* \"#utility.yul\":29959:29997   */\n      mstore\n        /* \"#utility.yul\":30052:30058   */\n      dup2\n        /* \"#utility.yul\":30045:30059   */\n      iszero\n        /* \"#utility.yul\":30038:30060   */\n      iszero\n        /* \"#utility.yul\":30030:30036   */\n      dup3\n        /* \"#utility.yul\":30026:30061   */\n      mul\n        /* \"#utility.yul\":30021:30024   */\n      dup7\n        /* \"#utility.yul\":30017:30062   */\n      add\n        /* \"#utility.yul\":30010:30062   */\n      swap4\n      pop\n        /* \"#utility.yul\":29906:30072   */\n      jump(tag_580)\n        /* \"#utility.yul\":30081:30425   */\n    tag_582:\n        /* \"#utility.yul\":30148:30189   */\n      tag_583\n        /* \"#utility.yul\":30183:30188   */\n      dup6\n        /* \"#utility.yul\":30148:30189   */\n      tag_278\n      jump\t// in\n    tag_583:\n        /* \"#utility.yul\":30211:30212   */\n      0x00\n        /* \"#utility.yul\":30225:30379   */\n    tag_584:\n        /* \"#utility.yul\":30239:30245   */\n      dup4\n        /* \"#utility.yul\":30236:30237   */\n      dup2\n        /* \"#utility.yul\":30233:30246   */\n      lt\n        /* \"#utility.yul\":30225:30379   */\n      iszero\n      tag_586\n      jumpi\n        /* \"#utility.yul\":30313:30320   */\n      dup2\n        /* \"#utility.yul\":30307:30321   */\n      sload\n        /* \"#utility.yul\":30303:30304   */\n      dup2\n        /* \"#utility.yul\":30298:30301   */\n      dup10\n        /* \"#utility.yul\":30294:30305   */\n      add\n        /* \"#utility.yul\":30287:30322   */\n      mstore\n        /* \"#utility.yul\":30363:30364   */\n      0x01\n        /* \"#utility.yul\":30354:30361   */\n      dup3\n        /* \"#utility.yul\":30350:30365   */\n      add\n        /* \"#utility.yul\":30339:30365   */\n      swap2\n      pop\n        /* \"#utility.yul\":30261:30265   */\n      0x20\n        /* \"#utility.yul\":30258:30259   */\n      dup2\n        /* \"#utility.yul\":30254:30266   */\n      add\n        /* \"#utility.yul\":30249:30266   */\n      swap1\n      pop\n        /* \"#utility.yul\":30225:30379   */\n      jump(tag_584)\n    tag_586:\n        /* \"#utility.yul\":30408:30414   */\n      dup4\n        /* \"#utility.yul\":30403:30406   */\n      dup9\n        /* \"#utility.yul\":30399:30415   */\n      add\n        /* \"#utility.yul\":30392:30415   */\n      swap6\n      pop\n        /* \"#utility.yul\":30088:30425   */\n      pop\n      pop\n        /* \"#utility.yul\":29873:30425   */\n    tag_580:\n      pop\n        /* \"#utility.yul\":29662:30431   */\n      pop\n      pop\n        /* \"#utility.yul\":29553:30431   */\n      swap3\n      swap2\n      pop\n      pop\n      jump\t// out\n        /* \"#utility.yul\":30437:30710   */\n    tag_164:\n        /* \"#utility.yul\":30568:30571   */\n      0x00\n        /* \"#utility.yul\":30590:30684   */\n      tag_588\n        /* \"#utility.yul\":30680:30683   */\n      dup3\n        /* \"#utility.yul\":30671:30677   */\n      dup5\n        /* \"#utility.yul\":30590:30684   */\n      tag_279\n      jump\t// in\n    tag_588:\n        /* \"#utility.yul\":30583:30684   */\n      swap2\n      pop\n        /* \"#utility.yul\":30701:30704   */\n      dup2\n        /* \"#utility.yul\":30694:30704   */\n      swap1\n      pop\n        /* \"#utility.yul\":30437:30710   */\n      swap3\n      swap2\n      pop\n      pop\n      jump\t// out\n        /* \"#utility.yul\":30716:30865   */\n    tag_280:\n        /* \"#utility.yul\":30752:30759   */\n      0x00\n        /* \"#utility.yul\":30792:30858   */\n      0xffffffff00000000000000000000000000000000000000000000000000000000\n        /* \"#utility.yul\":30785:30790   */\n      dup3\n        /* \"#utility.yul\":30781:30859   */\n      and\n        /* \"#utility.yul\":30770:30859   */\n      swap1\n      pop\n        /* \"#utility.yul\":30716:30865   */\n      swap2\n      swap1\n      pop\n      jump\t// out\n        /* \"#utility.yul\":30871:30949   */\n    tag_281:\n        /* \"#utility.yul\":30909:30916   */\n      0x00\n        /* \"#utility.yul\":30938:30943   */\n      dup2\n        /* \"#utility.yul\":30927:30943   */\n      swap1\n      pop\n        /* \"#utility.yul\":30871:30949   */\n      swap2\n      swap1\n      pop\n      jump\t// out\n        /* \"#utility.yul\":30955:31108   */\n    tag_282:\n        /* \"#utility.yul\":31058:31101   */\n      tag_592\n        /* \"#utility.yul\":31077:31100   */\n      tag_593\n        /* \"#utility.yul\":31094:31099   */\n      dup3\n        /* \"#utility.yul\":31077:31100   */\n      tag_280\n      jump\t// in\n    tag_593:\n        /* \"#utility.yul\":31058:31101   */\n      tag_281\n      jump\t// in\n    tag_592:\n        /* \"#utility.yul\":31053:31056   */\n      dup3\n        /* \"#utility.yul\":31046:31102   */\n      mstore\n        /* \"#utility.yul\":30955:31108   */\n      pop\n      pop\n      jump\t// out\n        /* \"#utility.yul\":31136:32006   */\n    tag_283:\n        /* \"#utility.yul\":31237:31240   */\n      0x00\n        /* \"#utility.yul\":31274:31279   */\n      dup2\n        /* \"#utility.yul\":31268:31280   */\n      sload\n        /* \"#utility.yul\":31303:31339   */\n      tag_595\n        /* \"#utility.yul\":31329:31338   */\n      dup2\n        /* \"#utility.yul\":31303:31339   */\n      tag_121\n      jump\t// in\n    tag_595:\n        /* \"#utility.yul\":31355:31443   */\n      tag_596\n        /* \"#utility.yul\":31436:31442   */\n      dup2\n        /* \"#utility.yul\":31431:31434   */\n      dup7\n        /* \"#utility.yul\":31355:31443   */\n      tag_277\n      jump\t// in\n    tag_596:\n        /* \"#utility.yul\":31348:31443   */\n      swap5\n      pop\n        /* \"#utility.yul\":31474:31475   */\n      0x01\n        /* \"#utility.yul\":31463:31472   */\n      dup3\n        /* \"#utility.yul\":31459:31476   */\n      and\n        /* \"#utility.yul\":31490:31491   */\n      0x00\n        /* \"#utility.yul\":31485:31651   */\n      dup2\n      eq\n      tag_598\n      jumpi\n        /* \"#utility.yul\":31665:31666   */\n      0x01\n        /* \"#utility.yul\":31660:32000   */\n      dup2\n      eq\n      tag_599\n      jumpi\n        /* \"#utility.yul\":31452:32000   */\n      jump(tag_597)\n        /* \"#utility.yul\":31485:31651   */\n    tag_598:\n        /* \"#utility.yul\":31569:31573   */\n      0xff\n        /* \"#utility.yul\":31565:31574   */\n      not\n        /* \"#utility.yul\":31554:31563   */\n      dup4\n        /* \"#utility.yul\":31550:31575   */\n      and\n        /* \"#utility.yul\":31545:31548   */\n      dup7\n        /* \"#utility.yul\":31538:31576   */\n      mstore\n        /* \"#utility.yul\":31631:31637   */\n      dup2\n        /* \"#utility.yul\":31624:31638   */\n      iszero\n        /* \"#utility.yul\":31617:31639   */\n      iszero\n        /* \"#utility.yul\":31609:31615   */\n      dup3\n        /* \"#utility.yul\":31605:31640   */\n      mul\n        /* \"#utility.yul\":31600:31603   */\n      dup7\n        /* \"#utility.yul\":31596:31641   */\n      add\n        /* \"#utility.yul\":31589:31641   */\n      swap4\n      pop\n        /* \"#utility.yul\":31485:31651   */\n      jump(tag_597)\n        /* \"#utility.yul\":31660:32000   */\n    tag_599:\n        /* \"#utility.yul\":31727:31764   */\n      tag_600\n        /* \"#utility.yul\":31758:31763   */\n      dup6\n        /* \"#utility.yul\":31727:31764   */\n      tag_261\n      jump\t// in\n    tag_600:\n        /* \"#utility.yul\":31786:31787   */\n      0x00\n        /* \"#utility.yul\":31800:31954   */\n    tag_601:\n        /* \"#utility.yul\":31814:31820   */\n      dup4\n        /* \"#utility.yul\":31811:31812   */\n      dup2\n        /* \"#utility.yul\":31808:31821   */\n      lt\n        /* \"#utility.yul\":31800:31954   */\n      iszero\n      tag_603\n      jumpi\n        /* \"#utility.yul\":31888:31895   */\n      dup2\n        /* \"#utility.yul\":31882:31896   */\n      sload\n        /* \"#utility.yul\":31878:31879   */\n      dup2\n        /* \"#utility.yul\":31873:31876   */\n      dup10\n        /* \"#utility.yul\":31869:31880   */\n      add\n        /* \"#utility.yul\":31862:31897   */\n      mstore\n        /* \"#utility.yul\":31938:31939   */\n      0x01\n        /* \"#utility.yul\":31929:31936   */\n      dup3\n        /* \"#utility.yul\":31925:31940   */\n      add\n        /* \"#utility.yul\":31914:31940   */\n      swap2\n      pop\n        /* \"#utility.yul\":31836:31840   */\n      0x20\n        /* \"#utility.yul\":31833:31834   */\n      dup2\n        /* \"#utility.yul\":31829:31841   */\n      add\n        /* \"#utility.yul\":31824:31841   */\n      swap1\n      pop\n        /* \"#utility.yul\":31800:31954   */\n      jump(tag_601)\n    tag_603:\n        /* \"#utility.yul\":31983:31989   */\n      dup4\n        /* \"#utility.yul\":31978:31981   */\n      dup9\n        /* \"#utility.yul\":31974:31990   */\n      add\n        /* \"#utility.yul\":31967:31990   */\n      swap6\n      pop\n        /* \"#utility.yul\":31667:32000   */\n      pop\n      pop\n        /* \"#utility.yul\":31452:32000   */\n    tag_597:\n      pop\n        /* \"#utility.yul\":31241:32006   */\n      pop\n      pop\n        /* \"#utility.yul\":31136:32006   */\n      swap3\n      swap2\n      pop\n      pop\n      jump\t// out\n        /* \"#utility.yul\":32012:32413   */\n    tag_166:\n        /* \"#utility.yul\":32165:32168   */\n      0x00\n        /* \"#utility.yul\":32180:32253   */\n      tag_605\n        /* \"#utility.yul\":32249:32252   */\n      dup3\n        /* \"#utility.yul\":32240:32246   */\n      dup6\n        /* \"#utility.yul\":32180:32253   */\n      tag_282\n      jump\t// in\n    tag_605:\n        /* \"#utility.yul\":32278:32279   */\n      0x04\n        /* \"#utility.yul\":32273:32276   */\n      dup3\n        /* \"#utility.yul\":32269:32280   */\n      add\n        /* \"#utility.yul\":32262:32280   */\n      swap2\n      pop\n        /* \"#utility.yul\":32297:32387   */\n      tag_606\n        /* \"#utility.yul\":32383:32386   */\n      dup3\n        /* \"#utility.yul\":32374:32380   */\n      dup5\n        /* \"#utility.yul\":32297:32387   */\n      tag_283\n      jump\t// in\n    tag_606:\n        /* \"#utility.yul\":32290:32387   */\n      swap2\n      pop\n        /* \"#utility.yul\":32404:32407   */\n      dup2\n        /* \"#utility.yul\":32397:32407   */\n      swap1\n      pop\n        /* \"#utility.yul\":32012:32413   */\n      swap4\n      swap3\n      pop\n      pop\n      pop\n      jump\t// out\n        /* \"#utility.yul\":32419:32805   */\n    tag_284:\n        /* \"#utility.yul\":32523:32526   */\n      0x00\n        /* \"#utility.yul\":32551:32589   */\n      tag_608\n        /* \"#utility.yul\":32583:32588   */\n      dup3\n        /* \"#utility.yul\":32551:32589   */\n      tag_235\n      jump\t// in\n    tag_608:\n        /* \"#utility.yul\":32605:32693   */\n      tag_609\n        /* \"#utility.yul\":32686:32692   */\n      dup2\n        /* \"#utility.yul\":32681:32684   */\n      dup6\n        /* \"#utility.yul\":32605:32693   */\n      tag_277\n      jump\t// in\n    tag_609:\n        /* \"#utility.yul\":32598:32693   */\n      swap4\n      pop\n        /* \"#utility.yul\":32702:32767   */\n      tag_610\n        /* \"#utility.yul\":32760:32766   */\n      dup2\n        /* \"#utility.yul\":32755:32758   */\n      dup6\n        /* \"#utility.yul\":32748:32752   */\n      0x20\n        /* \"#utility.yul\":32741:32746   */\n      dup7\n        /* \"#utility.yul\":32737:32753   */\n      add\n        /* \"#utility.yul\":32702:32767   */\n      tag_233\n      jump\t// in\n    tag_610:\n        /* \"#utility.yul\":32792:32798   */\n      dup1\n        /* \"#utility.yul\":32787:32790   */\n      dup5\n        /* \"#utility.yul\":32783:32799   */\n      add\n        /* \"#utility.yul\":32776:32799   */\n      swap2\n      pop\n        /* \"#utility.yul\":32527:32805   */\n      pop\n        /* \"#utility.yul\":32419:32805   */\n      swap3\n      swap2\n      pop\n      pop\n      jump\t// out\n        /* \"#utility.yul\":32811:33082   */\n    tag_168:\n        /* \"#utility.yul\":32941:32944   */\n      0x00\n        /* \"#utility.yul\":32963:33056   */\n      tag_612\n        /* \"#utility.yul\":33052:33055   */\n      dup3\n        /* \"#utility.yul\":33043:33049   */\n      dup5\n        /* \"#utility.yul\":32963:33056   */\n      tag_284\n      jump\t// in\n    tag_612:\n        /* \"#utility.yul\":32956:33056   */\n      swap2\n      pop\n        /* \"#utility.yul\":33073:33076   */\n      dup2\n        /* \"#utility.yul\":33066:33076   */\n      swap1\n      pop\n        /* \"#utility.yul\":32811:33082   */\n      swap3\n      swap2\n      pop\n      pop\n      jump\t// out\n        /* \"#utility.yul\":33088:33401   */\n    tag_176:\n        /* \"#utility.yul\":33201:33205   */\n      0x00\n        /* \"#utility.yul\":33239:33241   */\n      0x20\n        /* \"#utility.yul\":33228:33237   */\n      dup3\n        /* \"#utility.yul\":33224:33242   */\n      add\n        /* \"#utility.yul\":33216:33242   */\n      swap1\n      pop\n        /* \"#utility.yul\":33288:33297   */\n      dup2\n        /* \"#utility.yul\":33282:33286   */\n      dup2\n        /* \"#utility.yul\":33278:33298   */\n      sub\n        /* \"#utility.yul\":33274:33275   */\n      0x00\n        /* \"#utility.yul\":33263:33272   */\n      dup4\n        /* \"#utility.yul\":33259:33276   */\n      add\n        /* \"#utility.yul\":33252:33299   */\n      mstore\n        /* \"#utility.yul\":33316:33394   */\n      tag_614\n        /* \"#utility.yul\":33389:33393   */\n      dup2\n        /* \"#utility.yul\":33380:33386   */\n      dup5\n        /* \"#utility.yul\":33316:33394   */\n      tag_234\n      jump\t// in\n    tag_614:\n        /* \"#utility.yul\":33308:33394   */\n      swap1\n      pop\n        /* \"#utility.yul\":33088:33401   */\n      swap3\n      swap2\n      pop\n      pop\n      jump\t// out\n        /* \"#utility.yul\":33431:34262   */\n    tag_285:\n        /* \"#utility.yul\":33516:33519   */\n      0x00\n        /* \"#utility.yul\":33553:33558   */\n      dup2\n        /* \"#utility.yul\":33547:33559   */\n      sload\n        /* \"#utility.yul\":33582:33618   */\n      tag_616\n        /* \"#utility.yul\":33608:33617   */\n      dup2\n        /* \"#utility.yul\":33582:33618   */\n      tag_121\n      jump\t// in\n    tag_616:\n        /* \"#utility.yul\":33634:33705   */\n      tag_617\n        /* \"#utility.yul\":33698:33704   */\n      dup2\n        /* \"#utility.yul\":33693:33696   */\n      dup7\n        /* \"#utility.yul\":33634:33705   */\n      tag_232\n      jump\t// in\n    tag_617:\n        /* \"#utility.yul\":33627:33705   */\n      swap5\n      pop\n        /* \"#utility.yul\":33736:33737   */\n      0x01\n        /* \"#utility.yul\":33725:33734   */\n      dup3\n        /* \"#utility.yul\":33721:33738   */\n      and\n        /* \"#utility.yul\":33752:33753   */\n      0x00\n        /* \"#utility.yul\":33747:33911   */\n      dup2\n      eq\n      tag_619\n      jumpi\n        /* \"#utility.yul\":33925:33926   */\n      0x01\n        /* \"#utility.yul\":33920:34256   */\n      dup2\n      eq\n      tag_620\n      jumpi\n        /* \"#utility.yul\":33714:34256   */\n      jump(tag_618)\n        /* \"#utility.yul\":33747:33911   */\n    tag_619:\n        /* \"#utility.yul\":33831:33835   */\n      0xff\n        /* \"#utility.yul\":33827:33836   */\n      not\n        /* \"#utility.yul\":33816:33825   */\n      dup4\n        /* \"#utility.yul\":33812:33837   */\n      and\n        /* \"#utility.yul\":33807:33810   */\n      dup7\n        /* \"#utility.yul\":33800:33838   */\n      mstore\n        /* \"#utility.yul\":33891:33897   */\n      dup2\n        /* \"#utility.yul\":33884:33898   */\n      iszero\n        /* \"#utility.yul\":33877:33899   */\n      iszero\n        /* \"#utility.yul\":33871:33875   */\n      0x20\n        /* \"#utility.yul\":33867:33900   */\n      mul\n        /* \"#utility.yul\":33862:33865   */\n      dup7\n        /* \"#utility.yul\":33858:33901   */\n      add\n        /* \"#utility.yul\":33851:33901   */\n      swap4\n      pop\n        /* \"#utility.yul\":33747:33911   */\n      jump(tag_618)\n        /* \"#utility.yul\":33920:34256   */\n    tag_620:\n        /* \"#utility.yul\":33987:34025   */\n      tag_621\n        /* \"#utility.yul\":34019:34024   */\n      dup6\n        /* \"#utility.yul\":33987:34025   */\n      tag_246\n      jump\t// in\n    tag_621:\n        /* \"#utility.yul\":34047:34048   */\n      0x00\n        /* \"#utility.yul\":34061:34215   */\n    tag_622:\n        /* \"#utility.yul\":34075:34081   */\n      dup4\n        /* \"#utility.yul\":34072:34073   */\n      dup2\n        /* \"#utility.yul\":34069:34082   */\n      lt\n        /* \"#utility.yul\":34061:34215   */\n      iszero\n      tag_624\n      jumpi\n        /* \"#utility.yul\":34149:34156   */\n      dup2\n        /* \"#utility.yul\":34143:34157   */\n      sload\n        /* \"#utility.yul\":34139:34140   */\n      dup2\n        /* \"#utility.yul\":34134:34137   */\n      dup10\n        /* \"#utility.yul\":34130:34141   */\n      add\n        /* \"#utility.yul\":34123:34158   */\n      mstore\n        /* \"#utility.yul\":34199:34200   */\n      0x01\n        /* \"#utility.yul\":34190:34197   */\n      dup3\n        /* \"#utility.yul\":34186:34201   */\n      add\n        /* \"#utility.yul\":34175:34201   */\n      swap2\n      pop\n        /* \"#utility.yul\":34097:34101   */\n      0x20\n        /* \"#utility.yul\":34094:34095   */\n      dup2\n        /* \"#utility.yul\":34090:34102   */\n      add\n        /* \"#utility.yul\":34085:34102   */\n      swap1\n      pop\n        /* \"#utility.yul\":34061:34215   */\n      jump(tag_622)\n    tag_624:\n        /* \"#utility.yul\":34244:34245   */\n      dup1\n        /* \"#utility.yul\":34239:34242   */\n      dup9\n        /* \"#utility.yul\":34235:34246   */\n      add\n        /* \"#utility.yul\":34228:34246   */\n      swap6\n      pop\n        /* \"#utility.yul\":33927:34256   */\n      pop\n      pop\n        /* \"#utility.yul\":33714:34256   */\n    tag_618:\n      pop\n        /* \"#utility.yul\":33520:34262   */\n      pop\n      pop\n        /* \"#utility.yul\":33431:34262   */\n      swap3\n      swap2\n      pop\n      pop\n      jump\t// out\n        /* \"#utility.yul\":34290:35117   */\n    tag_286:\n        /* \"#utility.yul\":34373:34376   */\n      0x00\n        /* \"#utility.yul\":34410:34415   */\n      dup2\n        /* \"#utility.yul\":34404:34416   */\n      sload\n        /* \"#utility.yul\":34439:34475   */\n      tag_626\n        /* \"#utility.yul\":34465:34474   */\n      dup2\n        /* \"#utility.yul\":34439:34475   */\n      tag_121\n      jump\t// in\n    tag_626:\n        /* \"#utility.yul\":34491:34561   */\n      tag_627\n        /* \"#utility.yul\":34554:34560   */\n      dup2\n        /* \"#utility.yul\":34549:34552   */\n      dup7\n        /* \"#utility.yul\":34491:34561   */\n      tag_236\n      jump\t// in\n    tag_627:\n        /* \"#utility.yul\":34484:34561   */\n      swap5\n      pop\n        /* \"#utility.yul\":34592:34593   */\n      0x01\n        /* \"#utility.yul\":34581:34590   */\n      dup3\n        /* \"#utility.yul\":34577:34594   */\n      and\n        /* \"#utility.yul\":34608:34609   */\n      0x00\n        /* \"#utility.yul\":34603:34767   */\n      dup2\n      eq\n      tag_629\n      jumpi\n        /* \"#utility.yul\":34781:34782   */\n      0x01\n        /* \"#utility.yul\":34776:35111   */\n      dup2\n      eq\n      tag_630\n      jumpi\n        /* \"#utility.yul\":34570:35111   */\n      jump(tag_628)\n        /* \"#utility.yul\":34603:34767   */\n    tag_629:\n        /* \"#utility.yul\":34687:34691   */\n      0xff\n        /* \"#utility.yul\":34683:34692   */\n      not\n        /* \"#utility.yul\":34672:34681   */\n      dup4\n        /* \"#utility.yul\":34668:34693   */\n      and\n        /* \"#utility.yul\":34663:34666   */\n      dup7\n        /* \"#utility.yul\":34656:34694   */\n      mstore\n        /* \"#utility.yul\":34747:34753   */\n      dup2\n        /* \"#utility.yul\":34740:34754   */\n      iszero\n        /* \"#utility.yul\":34733:34755   */\n      iszero\n        /* \"#utility.yul\":34727:34731   */\n      0x20\n        /* \"#utility.yul\":34723:34756   */\n      mul\n        /* \"#utility.yul\":34718:34721   */\n      dup7\n        /* \"#utility.yul\":34714:34757   */\n      add\n        /* \"#utility.yul\":34707:34757   */\n      swap4\n      pop\n        /* \"#utility.yul\":34603:34767   */\n      jump(tag_628)\n        /* \"#utility.yul\":34776:35111   */\n    tag_630:\n        /* \"#utility.yul\":34843:34880   */\n      tag_631\n        /* \"#utility.yul\":34874:34879   */\n      dup6\n        /* \"#utility.yul\":34843:34880   */\n      tag_261\n      jump\t// in\n    tag_631:\n        /* \"#utility.yul\":34902:34903   */\n      0x00\n        /* \"#utility.yul\":34916:35070   */\n    tag_632:\n        /* \"#utility.yul\":34930:34936   */\n      dup4\n        /* \"#utility.yul\":34927:34928   */\n      dup2\n        /* \"#utility.yul\":34924:34937   */\n      lt\n        /* \"#utility.yul\":34916:35070   */\n      iszero\n      tag_634\n      jumpi\n        /* \"#utility.yul\":35004:35011   */\n      dup2\n        /* \"#utility.yul\":34998:35012   */\n      sload\n        /* \"#utility.yul\":34994:34995   */\n      dup2\n        /* \"#utility.yul\":34989:34992   */\n      dup10\n        /* \"#utility.yul\":34985:34996   */\n      add\n        /* \"#utility.yul\":34978:35013   */\n      mstore\n        /* \"#utility.yul\":35054:35055   */\n      0x01\n        /* \"#utility.yul\":35045:35052   */\n      dup3\n        /* \"#utility.yul\":35041:35056   */\n      add\n        /* \"#utility.yul\":35030:35056   */\n      swap2\n      pop\n        /* \"#utility.yul\":34952:34956   */\n      0x20\n        /* \"#utility.yul\":34949:34950   */\n      dup2\n        /* \"#utility.yul\":34945:34957   */\n      add\n        /* \"#utility.yul\":34940:34957   */\n      swap1\n      pop\n        /* \"#utility.yul\":34916:35070   */\n      jump(tag_632)\n    tag_634:\n        /* \"#utility.yul\":35099:35100   */\n      dup1\n        /* \"#utility.yul\":35094:35097   */\n      dup9\n        /* \"#utility.yul\":35090:35101   */\n      add\n        /* \"#utility.yul\":35083:35101   */\n      swap6\n      pop\n        /* \"#utility.yul\":34783:35111   */\n      pop\n      pop\n        /* \"#utility.yul\":34570:35111   */\n    tag_628:\n      pop\n        /* \"#utility.yul\":34377:35117   */\n      pop\n      pop\n        /* \"#utility.yul\":34290:35117   */\n      swap3\n      swap2\n      pop\n      pop\n      jump\t// out\n        /* \"#utility.yul\":35123:35731   */\n    tag_178:\n        /* \"#utility.yul\":35304:35308   */\n      0x00\n        /* \"#utility.yul\":35342:35344   */\n      0x60\n        /* \"#utility.yul\":35331:35340   */\n      dup3\n        /* \"#utility.yul\":35327:35345   */\n      add\n        /* \"#utility.yul\":35319:35345   */\n      swap1\n      pop\n        /* \"#utility.yul\":35355:35426   */\n      tag_636\n        /* \"#utility.yul\":35423:35424   */\n      0x00\n        /* \"#utility.yul\":35412:35421   */\n      dup4\n        /* \"#utility.yul\":35408:35425   */\n      add\n        /* \"#utility.yul\":35399:35405   */\n      dup7\n        /* \"#utility.yul\":35355:35426   */\n      tag_201\n      jump\t// in\n    tag_636:\n        /* \"#utility.yul\":35473:35482   */\n      dup2\n        /* \"#utility.yul\":35467:35471   */\n      dup2\n        /* \"#utility.yul\":35463:35483   */\n      sub\n        /* \"#utility.yul\":35458:35460   */\n      0x20\n        /* \"#utility.yul\":35447:35456   */\n      dup4\n        /* \"#utility.yul\":35443:35461   */\n      add\n        /* \"#utility.yul\":35436:35484   */\n      mstore\n        /* \"#utility.yul\":35501:35576   */\n      tag_637\n        /* \"#utility.yul\":35571:35575   */\n      dup2\n        /* \"#utility.yul\":35562:35568   */\n      dup6\n        /* \"#utility.yul\":35501:35576   */\n      tag_285\n      jump\t// in\n    tag_637:\n        /* \"#utility.yul\":35493:35576   */\n      swap1\n      pop\n        /* \"#utility.yul\":35623:35632   */\n      dup2\n        /* \"#utility.yul\":35617:35621   */\n      dup2\n        /* \"#utility.yul\":35613:35633   */\n      sub\n        /* \"#utility.yul\":35608:35610   */\n      0x40\n        /* \"#utility.yul\":35597:35606   */\n      dup4\n        /* \"#utility.yul\":35593:35611   */\n      add\n        /* \"#utility.yul\":35586:35634   */\n      mstore\n        /* \"#utility.yul\":35651:35724   */\n      tag_638\n        /* \"#utility.yul\":35719:35723   */\n      dup2\n        /* \"#utility.yul\":35710:35716   */\n      dup5\n        /* \"#utility.yul\":35651:35724   */\n      tag_286\n      jump\t// in\n    tag_638:\n        /* \"#utility.yul\":35643:35724   */\n      swap1\n      pop\n        /* \"#utility.yul\":35123:35731   */\n      swap5\n      swap4\n      pop\n      pop\n      pop\n      pop\n      jump\t// out\n        /* \"#utility.yul\":35737:36468   */\n    tag_181:\n        /* \"#utility.yul\":35952:35956   */\n      0x00\n        /* \"#utility.yul\":35990:35993   */\n      0x80\n        /* \"#utility.yul\":35979:35988   */\n      dup3\n        /* \"#utility.yul\":35975:35994   */\n      add\n        /* \"#utility.yul\":35967:35994   */\n      swap1\n      pop\n        /* \"#utility.yul\":36004:36075   */\n      tag_640\n        /* \"#utility.yul\":36072:36073   */\n      0x00\n        /* \"#utility.yul\":36061:36070   */\n      dup4\n        /* \"#utility.yul\":36057:36074   */\n      add\n        /* \"#utility.yul\":36048:36054   */\n      dup8\n        /* \"#utility.yul\":36004:36075   */\n      tag_212\n      jump\t// in\n    tag_640:\n        /* \"#utility.yul\":36085:36157   */\n      tag_641\n        /* \"#utility.yul\":36153:36155   */\n      0x20\n        /* \"#utility.yul\":36142:36151   */\n      dup4\n        /* \"#utility.yul\":36138:36156   */\n      add\n        /* \"#utility.yul\":36129:36135   */\n      dup7\n        /* \"#utility.yul\":36085:36157   */\n      tag_201\n      jump\t// in\n    tag_641:\n        /* \"#utility.yul\":36204:36213   */\n      dup2\n        /* \"#utility.yul\":36198:36202   */\n      dup2\n        /* \"#utility.yul\":36194:36214   */\n      sub\n        /* \"#utility.yul\":36189:36191   */\n      0x40\n        /* \"#utility.yul\":36178:36187   */\n      dup4\n        /* \"#utility.yul\":36174:36192   */\n      add\n        /* \"#utility.yul\":36167:36215   */\n      mstore\n        /* \"#utility.yul\":36232:36310   */\n      tag_642\n        /* \"#utility.yul\":36305:36309   */\n      dup2\n        /* \"#utility.yul\":36296:36302   */\n      dup6\n        /* \"#utility.yul\":36232:36310   */\n      tag_234\n      jump\t// in\n    tag_642:\n        /* \"#utility.yul\":36224:36310   */\n      swap1\n      pop\n        /* \"#utility.yul\":36357:36366   */\n      dup2\n        /* \"#utility.yul\":36351:36355   */\n      dup2\n        /* \"#utility.yul\":36347:36367   */\n      sub\n        /* \"#utility.yul\":36342:36344   */\n      0x60\n        /* \"#utility.yul\":36331:36340   */\n      dup4\n        /* \"#utility.yul\":36327:36345   */\n      add\n        /* \"#utility.yul\":36320:36368   */\n      mstore\n        /* \"#utility.yul\":36385:36461   */\n      tag_643\n        /* \"#utility.yul\":36456:36460   */\n      dup2\n        /* \"#utility.yul\":36447:36453   */\n      dup5\n        /* \"#utility.yul\":36385:36461   */\n      tag_237\n      jump\t// in\n    tag_643:\n        /* \"#utility.yul\":36377:36461   */\n      swap1\n      pop\n        /* \"#utility.yul\":35737:36468   */\n      swap6\n      swap5\n      pop\n      pop\n      pop\n      pop\n      pop\n      jump\t// out\n        /* \"#utility.yul\":36474:36653   */\n    tag_287:\n        /* \"#utility.yul\":36614:36645   */\n      0x54696d656c6f636b3a20696e76616c6964206772616365506572696f64000000\n        /* \"#utility.yul\":36610:36611   */\n      0x00\n        /* \"#utility.yul\":36602:36608   */\n      dup3\n        /* \"#utility.yul\":36598:36612   */\n      add\n        /* \"#utility.yul\":36591:36646   */\n      mstore\n        /* \"#utility.yul\":36474:36653   */\n      pop\n      jump\t// out\n        /* \"#utility.yul\":36659:37025   */\n    tag_288:\n        /* \"#utility.yul\":36801:36804   */\n      0x00\n        /* \"#utility.yul\":36822:36889   */\n      tag_646\n        /* \"#utility.yul\":36886:36888   */\n      0x1d\n        /* \"#utility.yul\":36881:36884   */\n      dup4\n        /* \"#utility.yul\":36822:36889   */\n      tag_232\n      jump\t// in\n    tag_646:\n        /* \"#utility.yul\":36815:36889   */\n      swap2\n      pop\n        /* \"#utility.yul\":36898:36991   */\n      tag_647\n        /* \"#utility.yul\":36987:36990   */\n      dup3\n        /* \"#utility.yul\":36898:36991   */\n      tag_287\n      jump\t// in\n    tag_647:\n        /* \"#utility.yul\":37016:37018   */\n      0x20\n        /* \"#utility.yul\":37011:37014   */\n      dup3\n        /* \"#utility.yul\":37007:37019   */\n      add\n        /* \"#utility.yul\":37000:37019   */\n      swap1\n      pop\n        /* \"#utility.yul\":36659:37025   */\n      swap2\n      swap1\n      pop\n      jump\t// out\n        /* \"#utility.yul\":37031:37450   */\n    tag_188:\n        /* \"#utility.yul\":37197:37201   */\n      0x00\n        /* \"#utility.yul\":37235:37237   */\n      0x20\n        /* \"#utility.yul\":37224:37233   */\n      dup3\n        /* \"#utility.yul\":37220:37238   */\n      add\n        /* \"#utility.yul\":37212:37238   */\n      swap1\n      pop\n        /* \"#utility.yul\":37284:37293   */\n      dup2\n        /* \"#utility.yul\":37278:37282   */\n      dup2\n        /* \"#utility.yul\":37274:37294   */\n      sub\n        /* \"#utility.yul\":37270:37271   */\n      0x00\n        /* \"#utility.yul\":37259:37268   */\n      dup4\n        /* \"#utility.yul\":37255:37272   */\n      add\n        /* \"#utility.yul\":37248:37295   */\n      mstore\n        /* \"#utility.yul\":37312:37443   */\n      tag_649\n        /* \"#utility.yul\":37438:37442   */\n      dup2\n        /* \"#utility.yul\":37312:37443   */\n      tag_288\n      jump\t// in\n    tag_649:\n        /* \"#utility.yul\":37304:37443   */\n      swap1\n      pop\n        /* \"#utility.yul\":37031:37450   */\n      swap2\n      swap1\n      pop\n      jump\t// out\n        /* \"#utility.yul\":37456:37633   */\n    tag_289:\n        /* \"#utility.yul\":37596:37625   */\n      0x54696d656c6f636b3a20696e76616c6964206e6577206f776e65720000000000\n        /* \"#utility.yul\":37592:37593   */\n      0x00\n        /* \"#utility.yul\":37584:37590   */\n      dup3\n        /* \"#utility.yul\":37580:37594   */\n      add\n        /* \"#utility.yul\":37573:37626   */\n      mstore\n        /* \"#utility.yul\":37456:37633   */\n      pop\n      jump\t// out\n        /* \"#utility.yul\":37639:38005   */\n    tag_290:\n        /* \"#utility.yul\":37781:37784   */\n      0x00\n        /* \"#utility.yul\":37802:37869   */\n      tag_652\n        /* \"#utility.yul\":37866:37868   */\n      0x1b\n        /* \"#utility.yul\":37861:37864   */\n      dup4\n        /* \"#utility.yul\":37802:37869   */\n      tag_232\n      jump\t// in\n    tag_652:\n        /* \"#utility.yul\":37795:37869   */\n      swap2\n      pop\n        /* \"#utility.yul\":37878:37971   */\n      tag_653\n        /* \"#utility.yul\":37967:37970   */\n      dup3\n        /* \"#utility.yul\":37878:37971   */\n      tag_289\n      jump\t// in\n    tag_653:\n        /* \"#utility.yul\":37996:37998   */\n      0x20\n        /* \"#utility.yul\":37991:37994   */\n      dup3\n        /* \"#utility.yul\":37987:37999   */\n      add\n        /* \"#utility.yul\":37980:37999   */\n      swap1\n      pop\n        /* \"#utility.yul\":37639:38005   */\n      swap2\n      swap1\n      pop\n      jump\t// out\n        /* \"#utility.yul\":38011:38430   */\n    tag_195:\n        /* \"#utility.yul\":38177:38181   */\n      0x00\n        /* \"#utility.yul\":38215:38217   */\n      0x20\n        /* \"#utility.yul\":38204:38213   */\n      dup3\n        /* \"#utility.yul\":38200:38218   */\n      add\n        /* \"#utility.yul\":38192:38218   */\n      swap1\n      pop\n        /* \"#utility.yul\":38264:38273   */\n      dup2\n        /* \"#utility.yul\":38258:38262   */\n      dup2\n        /* \"#utility.yul\":38254:38274   */\n      sub\n        /* \"#utility.yul\":38250:38251   */\n      0x00\n        /* \"#utility.yul\":38239:38248   */\n      dup4\n        /* \"#utility.yul\":38235:38252   */\n      add\n        /* \"#utility.yul\":38228:38275   */\n      mstore\n        /* \"#utility.yul\":38292:38423   */\n      tag_655\n        /* \"#utility.yul\":38418:38422   */\n      dup2\n        /* \"#utility.yul\":38292:38423   */\n      tag_290\n      jump\t// in\n    tag_655:\n        /* \"#utility.yul\":38284:38423   */\n      swap1\n      pop\n        /* \"#utility.yul\":38011:38430   */\n      swap2\n      swap1\n      pop\n      jump\t// out\n        /* \"#utility.yul\":38436:38870   */\n    tag_291:\n        /* \"#utility.yul\":38525:38530   */\n      0x00\n        /* \"#utility.yul\":38550:38616   */\n      tag_657\n        /* \"#utility.yul\":38566:38615   */\n      tag_658\n        /* \"#utility.yul\":38608:38614   */\n      dup5\n        /* \"#utility.yul\":38566:38615   */\n      tag_223\n      jump\t// in\n    tag_658:\n        /* \"#utility.yul\":38550:38616   */\n      tag_222\n      jump\t// in\n    tag_657:\n        /* \"#utility.yul\":38541:38616   */\n      swap1\n      pop\n        /* \"#utility.yul\":38639:38645   */\n      dup3\n        /* \"#utility.yul\":38632:38637   */\n      dup2\n        /* \"#utility.yul\":38625:38646   */\n      mstore\n        /* \"#utility.yul\":38677:38681   */\n      0x20\n        /* \"#utility.yul\":38670:38675   */\n      dup2\n        /* \"#utility.yul\":38666:38682   */\n      add\n        /* \"#utility.yul\":38715:38718   */\n      dup5\n        /* \"#utility.yul\":38706:38712   */\n      dup5\n        /* \"#utility.yul\":38701:38704   */\n      dup5\n        /* \"#utility.yul\":38697:38713   */\n      add\n        /* \"#utility.yul\":38694:38719   */\n      gt\n        /* \"#utility.yul\":38691:38803   */\n      iszero\n      tag_659\n      jumpi\n        /* \"#utility.yul\":38722:38801   */\n      tag_660\n      tag_218\n      jump\t// in\n    tag_660:\n        /* \"#utility.yul\":38691:38803   */\n    tag_659:\n        /* \"#utility.yul\":38812:38864   */\n      tag_661\n        /* \"#utility.yul\":38857:38863   */\n      dup5\n        /* \"#utility.yul\":38852:38855   */\n      dup3\n        /* \"#utility.yul\":38847:38850   */\n      dup6\n        /* \"#utility.yul\":38812:38864   */\n      tag_233\n      jump\t// in\n    tag_661:\n        /* \"#utility.yul\":38531:38870   */\n      pop\n        /* \"#utility.yul\":38436:38870   */\n      swap4\n      swap3\n      pop\n      pop\n      pop\n      jump\t// out\n        /* \"#utility.yul\":38890:39245   */\n    tag_292:\n        /* \"#utility.yul\":38957:38962   */\n      0x00\n        /* \"#utility.yul\":39006:39009   */\n      dup3\n        /* \"#utility.yul\":38999:39003   */\n      0x1f\n        /* \"#utility.yul\":38991:38997   */\n      dup4\n        /* \"#utility.yul\":38987:39004   */\n      add\n        /* \"#utility.yul\":38983:39010   */\n      slt\n        /* \"#utility.yul\":38973:39095   */\n      tag_663\n      jumpi\n        /* \"#utility.yul\":39014:39093   */\n      tag_664\n      tag_217\n      jump\t// in\n    tag_664:\n        /* \"#utility.yul\":38973:39095   */\n    tag_663:\n        /* \"#utility.yul\":39124:39130   */\n      dup2\n        /* \"#utility.yul\":39118:39131   */\n      mload\n        /* \"#utility.yul\":39149:39239   */\n      tag_665\n        /* \"#utility.yul\":39235:39238   */\n      dup5\n        /* \"#utility.yul\":39227:39233   */\n      dup3\n        /* \"#utility.yul\":39220:39224   */\n      0x20\n        /* \"#utility.yul\":39212:39218   */\n      dup7\n        /* \"#utility.yul\":39208:39225   */\n      add\n        /* \"#utility.yul\":39149:39239   */\n      tag_291\n      jump\t// in\n    tag_665:\n        /* \"#utility.yul\":39140:39239   */\n      swap2\n      pop\n        /* \"#utility.yul\":38963:39245   */\n      pop\n        /* \"#utility.yul\":38890:39245   */\n      swap3\n      swap2\n      pop\n      pop\n      jump\t// out\n        /* \"#utility.yul\":39251:39775   */\n    tag_199:\n        /* \"#utility.yul\":39331:39337   */\n      0x00\n        /* \"#utility.yul\":39380:39382   */\n      0x20\n        /* \"#utility.yul\":39368:39377   */\n      dup3\n        /* \"#utility.yul\":39359:39366   */\n      dup5\n        /* \"#utility.yul\":39355:39378   */\n      sub\n        /* \"#utility.yul\":39351:39383   */\n      slt\n        /* \"#utility.yul\":39348:39467   */\n      iszero\n      tag_667\n      jumpi\n        /* \"#utility.yul\":39386:39465   */\n      tag_668\n      tag_203\n      jump\t// in\n    tag_668:\n        /* \"#utility.yul\":39348:39467   */\n    tag_667:\n        /* \"#utility.yul\":39527:39528   */\n      0x00\n        /* \"#utility.yul\":39516:39525   */\n      dup3\n        /* \"#utility.yul\":39512:39529   */\n      add\n        /* \"#utility.yul\":39506:39530   */\n      mload\n        /* \"#utility.yul\":39557:39575   */\n      0xffffffffffffffff\n        /* \"#utility.yul\":39549:39555   */\n      dup2\n        /* \"#utility.yul\":39546:39576   */\n      gt\n        /* \"#utility.yul\":39543:39660   */\n      iszero\n      tag_669\n      jumpi\n        /* \"#utility.yul\":39579:39658   */\n      tag_670\n      tag_204\n      jump\t// in\n    tag_670:\n        /* \"#utility.yul\":39543:39660   */\n    tag_669:\n        /* \"#utility.yul\":39684:39758   */\n      tag_671\n        /* \"#utility.yul\":39750:39757   */\n      dup5\n        /* \"#utility.yul\":39741:39747   */\n      dup3\n        /* \"#utility.yul\":39730:39739   */\n      dup6\n        /* \"#utility.yul\":39726:39748   */\n      add\n        /* \"#utility.yul\":39684:39758   */\n      tag_292\n      jump\t// in\n    tag_671:\n        /* \"#utility.yul\":39674:39758   */\n      swap2\n      pop\n        /* \"#utility.yul\":39477:39768   */\n      pop\n        /* \"#utility.yul\":39251:39775   */\n      swap3\n      swap2\n      pop\n      pop\n      jump\t// out\n    stop\n    data_2e99f832813f62cacc4fcf977024f89cedd8e06ce1f1282b5c2b4073e1773a9f 54696d656c6f636b3a2063616c6c20726576657274656420776974686f7574206d657373616765\n\n    auxdata: 0xa264697066735822122070bca58084ba244d3dff8f655d6eb790ad2641e7c792cc38a77682189290f91c64736f6c634300081a0033\n}\n",
				"bytecode": {
					"linkReferences": {},
					"object": "60806040526001600455348015610014575f80fd5b50604051612a43380380612a43833981810160405281019061003691906101cc565b5f73ffffffffffffffffffffffffffffffffffffffff168373ffffffffffffffffffffffffffffffffffffffff16036100a4576040517f08c379a000000000000000000000000000000000000000000000000000000000815260040161009b90610276565b60405180910390fd5b5f81116100e6576040517f08c379a00000000000000000000000000000000000000000000000000000000081526004016100dd90610304565b60405180910390fd5b8260025f6101000a81548173ffffffffffffffffffffffffffffffffffffffff021916908373ffffffffffffffffffffffffffffffffffffffff16021790555081600181905550805f81905550505050610322565b5f80fd5b5f73ffffffffffffffffffffffffffffffffffffffff82169050919050565b5f6101688261013f565b9050919050565b6101788161015e565b8114610182575f80fd5b50565b5f815190506101938161016f565b92915050565b5f819050919050565b6101ab81610199565b81146101b5575f80fd5b50565b5f815190506101c6816101a2565b92915050565b5f805f606084860312156101e3576101e261013b565b5b5f6101f086828701610185565b9350506020610201868287016101b8565b9250506040610212868287016101b8565b9150509250925092565b5f82825260208201905092915050565b7f54696d656c6f636b3a20696e76616c6964206f776e65720000000000000000005f82015250565b5f61026060178361021c565b915061026b8261022c565b602082019050919050565b5f6020820190508181035f83015261028d81610254565b9050919050565b7f54696d656c6f636b3a206772616365506572696f64206d757374206265203e205f8201527f3000000000000000000000000000000000000000000000000000000000000000602082015250565b5f6102ee60218361021c565b91506102f982610294565b604082019050919050565b5f6020820190508181035f83015261031b816102e2565b9050919050565b6127148061032f5f395ff3fe6080604052600436106100c5575f3560e01c8063c74f349b1161007e578063e751f27111610058578063e751f27114610296578063f087dd24146102b2578063f2f65960146102ee578063f2fde38b14610316576100cc565b8063c74f349b146101f0578063e177246e14610232578063e31fa19a1461025a576100cc565b80636a42b8f8146100d0578063727c6c5a146100fa5780638da5cb5b14610138578063a06db7dc14610162578063baa1f3771461018c578063c4d252f5146101c8576100cc565b366100cc57005b5f80fd5b3480156100db575f80fd5b506100e461033e565b6040516100f191906112a5565b60405180910390f35b348015610105575f80fd5b50610120600480360381019061011b9190611302565b610344565b60405161012f93929190611347565b60405180910390f35b348015610143575f80fd5b5061014c6103f3565b60405161015991906113bb565b60405180910390f35b34801561016d575f80fd5b50610176610418565b60405161018391906112a5565b60405180910390f35b348015610197575f80fd5b506101b260048036038101906101ad9190611602565b61041d565b6040516101bf91906116ad565b60405180910390f35b3480156101d3575f80fd5b506101ee60048036038101906101e99190611302565b6106eb565b005b3480156101fb575f80fd5b5061021660048036038101906102119190611302565b61090f565b6040516102299796959493929190611778565b60405180910390f35b34801561023d575f80fd5b50610258600480360381019061025391906117f3565b610a91565b005b348015610265575f80fd5b50610280600480360381019061027b9190611302565b610b2a565b60405161028d91906112a5565b60405180910390f35b6102b060048036038101906102ab9190611302565b610b4c565b005b3480156102bd575f80fd5b506102d860048036038101906102d39190611602565b610fed565b6040516102e591906116ad565b60405180910390f35b3480156102f9575f80fd5b50610314600480360381019061030f91906117f3565b611025565b005b348015610321575f80fd5b5061033c6004803603810190610337919061181e565b6110ff565b005b60015481565b5f805f8060035f8681526020019081526020015f2090505f73ffffffffffffffffffffffffffffffffffffffff16815f015f9054906101000a900473ffffffffffffffffffffffffffffffffffffffff1673ffffffffffffffffffffffffffffffffffffffff16036103bf575f805f935093509350506103ec565b60018160050160019054906101000a900460ff16826005015f9054906101000a900460ff16935093509350505b9193909250565b60025f9054906101000a900473ffffffffffffffffffffffffffffffffffffffff1681565b5f5481565b5f60025f9054906101000a900473ffffffffffffffffffffffffffffffffffffffff1673ffffffffffffffffffffffffffffffffffffffff163373ffffffffffffffffffffffffffffffffffffffff16146104ad576040517f08c379a00000000000000000000000000000000000000000000000000000000081526004016104a4906118b9565b60405180910390fd5b5f73ffffffffffffffffffffffffffffffffffffffff168573ffffffffffffffffffffffffffffffffffffffff160361051b576040517f08c379a000000000000000000000000000000000000000000000000000000000815260040161051290611921565b60405180910390fd5b61052785858585610fed565b90505f60035f8381526020019081526020015f2090505f73ffffffffffffffffffffffffffffffffffffffff16815f015f9054906101000a900473ffffffffffffffffffffffffffffffffffffffff1673ffffffffffffffffffffffffffffffffffffffff16146105cd576040517f08c379a00000000000000000000000000000000000000000000000000000000081526004016105c4906119af565b60405180910390fd5b5f600154426105dc91906119fa565b905086825f015f6101000a81548173ffffffffffffffffffffffffffffffffffffffff021916908373ffffffffffffffffffffffffffffffffffffffff160217905550858260010181905550848260020190816106399190611c27565b508382600301908161064b9190611d4e565b508082600401819055505f826005015f6101000a81548160ff0219169083151502179055505f8260050160016101000a81548160ff0219169083151502179055508673ffffffffffffffffffffffffffffffffffffffff16837f5eab136a1e0af9e18165f705d4a9f7a210395aa3d4de14a416c5e5ed744f6655888888866040516106d99493929190611e1d565b60405180910390a35050949350505050565b60025f9054906101000a900473ffffffffffffffffffffffffffffffffffffffff1673ffffffffffffffffffffffffffffffffffffffff163373ffffffffffffffffffffffffffffffffffffffff161461077a576040517f08c379a0000000000000000000000000000000000000000000000000000000008152600401610771906118b9565b60405180910390fd5b5f60035f8381526020019081526020015f2090505f73ffffffffffffffffffffffffffffffffffffffff16815f015f9054906101000a900473ffffffffffffffffffffffffffffffffffffffff1673ffffffffffffffffffffffffffffffffffffffff160361081e576040517f08c379a000000000000000000000000000000000000000000000000000000000815260040161081590611eb8565b60405180910390fd5b806005015f9054906101000a900460ff161561086f576040517f08c379a000000000000000000000000000000000000000000000000000000000815260040161086690611f46565b60405180910390fd5b8060050160019054906101000a900460ff16156108c1576040517f08c379a00000000000000000000000000000000000000000000000000000000081526004016108b890611fd4565b60405180910390fd5b60018160050160016101000a81548160ff021916908315150217905550817f7a168f30d6a7a3b7aa2e211c067c04bde31169a0f3171a98084508204bc5609460405160405180910390a25050565b6003602052805f5260405f205f91509050805f015f9054906101000a900473ffffffffffffffffffffffffffffffffffffffff169080600101549080600201805461095990611a5a565b80601f016020809104026020016040519081016040528092919081815260200182805461098590611a5a565b80156109d05780601f106109a7576101008083540402835291602001916109d0565b820191905f5260205f20905b8154815290600101906020018083116109b357829003601f168201915b5050505050908060030180546109e590611a5a565b80601f0160208091040260200160405190810160405280929190818152602001828054610a1190611a5a565b8015610a5c5780601f10610a3357610100808354040283529160200191610a5c565b820191905f5260205f20905b815481529060010190602001808311610a3f57829003601f168201915b505050505090806004015490806005015f9054906101000a900460ff16908060050160019054906101000a900460ff16905087565b60025f9054906101000a900473ffffffffffffffffffffffffffffffffffffffff1673ffffffffffffffffffffffffffffffffffffffff163373ffffffffffffffffffffffffffffffffffffffff1614610b20576040517f08c379a0000000000000000000000000000000000000000000000000000000008152600401610b17906118b9565b60405180910390fd5b8060018190555050565b5f8060035f8481526020019081526020015f2090508060040154915050919050565b600260045403610b91576040517f08c379a0000000000000000000000000000000000000000000000000000000008152600401610b889061203c565b60405180910390fd5b60026004819055505f60035f8381526020019081526020015f2090505f73ffffffffffffffffffffffffffffffffffffffff16815f015f9054906101000a900473ffffffffffffffffffffffffffffffffffffffff1673ffffffffffffffffffffffffffffffffffffffff1603610c3d576040517f08c379a0000000000000000000000000000000000000000000000000000000008152600401610c3490611eb8565b60405180910390fd5b806005015f9054906101000a900460ff1615610c8e576040517f08c379a0000000000000000000000000000000000000000000000000000000008152600401610c8590611f46565b60405180910390fd5b8060050160019054906101000a900460ff1615610ce0576040517f08c379a0000000000000000000000000000000000000000000000000000000008152600401610cd7906120a4565b60405180910390fd5b8060040154421015610d27576040517f08c379a0000000000000000000000000000000000000000000000000000000008152600401610d1e9061210c565b60405180910390fd5b5f548160040154610d3891906119fa565b421115610d7a576040517f08c379a0000000000000000000000000000000000000000000000000000000008152600401610d7190612174565b60405180910390fd5b6001816005015f6101000a81548160ff02191690831515021790555060605f826002018054610da890611a5a565b905003610e4157816003018054610dbe90611a5a565b80601f0160208091040260200160405190810160405280929190818152602001828054610dea90611a5a565b8015610e355780601f10610e0c57610100808354040283529160200191610e35565b820191905f5260205f20905b815481529060010190602001808311610e1857829003601f168201915b50505050509050610e81565b81600201604051610e52919061222e565b604051809103902082600301604051602001610e6f92919061230f565b60405160208183030381529060405290505b5f80835f015f9054906101000a900473ffffffffffffffffffffffffffffffffffffffff1673ffffffffffffffffffffffffffffffffffffffff16846001015484604051610ecf9190612366565b5f6040518083038185875af1925050503d805f8114610f09576040519150601f19603f3d011682016040523d82523d5f602084013e610f0e565b606091505b509150915081610f1d8261123f565b90610f5e576040517f08c379a0000000000000000000000000000000000000000000000000000000008152600401610f55919061237c565b60405180910390fd5b50835f015f9054906101000a900473ffffffffffffffffffffffffffffffffffffffff1673ffffffffffffffffffffffffffffffffffffffff16857fc575ca257bfe46beac39c1f7d71db181bd749fb764c569f8d40f94b4f196a8e486600101548760020188600301604051610fd69392919061249e565b60405180910390a350505050600160048190555050565b5f8484848460405160200161100594939291906124e1565b604051602081830303815290604052805190602001209050949350505050565b60025f9054906101000a900473ffffffffffffffffffffffffffffffffffffffff1673ffffffffffffffffffffffffffffffffffffffff163373ffffffffffffffffffffffffffffffffffffffff16146110b4576040517f08c379a00000000000000000000000000000000000000000000000000000000081526004016110ab906118b9565b60405180910390fd5b5f81116110f6576040517f08c379a00000000000000000000000000000000000000000000000000000000081526004016110ed9061257c565b60405180910390fd5b805f8190555050565b60025f9054906101000a900473ffffffffffffffffffffffffffffffffffffffff1673ffffffffffffffffffffffffffffffffffffffff163373ffffffffffffffffffffffffffffffffffffffff161461118e576040517f08c379a0000000000000000000000000000000000000000000000000000000008152600401611185906118b9565b60405180910390fd5b5f73ffffffffffffffffffffffffffffffffffffffff168173ffffffffffffffffffffffffffffffffffffffff16036111fc576040517f08c379a00000000000000000000000000000000000000000000000000000000081526004016111f3906125e4565b60405180910390fd5b8060025f6101000a81548173ffffffffffffffffffffffffffffffffffffffff021916908373ffffffffffffffffffffffffffffffffffffffff16021790555050565b606060448251101561126b576040518060600160405280602781526020016126b8602791399050611288565b600482019150818060200190518101906112859190612670565b90505b919050565b5f819050919050565b61129f8161128d565b82525050565b5f6020820190506112b85f830184611296565b92915050565b5f604051905090565b5f80fd5b5f80fd5b5f819050919050565b6112e1816112cf565b81146112eb575f80fd5b50565b5f813590506112fc816112d8565b92915050565b5f60208284031215611317576113166112c7565b5b5f611324848285016112ee565b91505092915050565b5f8115159050919050565b6113418161132d565b82525050565b5f60608201905061135a5f830186611338565b6113676020830185611338565b6113746040830184611338565b949350505050565b5f73ffffffffffffffffffffffffffffffffffffffff82169050919050565b5f6113a58261137c565b9050919050565b6113b58161139b565b82525050565b5f6020820190506113ce5f8301846113ac565b92915050565b6113dd8161139b565b81146113e7575f80fd5b50565b5f813590506113f8816113d4565b92915050565b6114078161128d565b8114611411575f80fd5b50565b5f81359050611422816113fe565b92915050565b5f80fd5b5f80fd5b5f601f19601f8301169050919050565b7f4e487b71000000000000000000000000000000000000000000000000000000005f52604160045260245ffd5b61147682611430565b810181811067ffffffffffffffff8211171561149557611494611440565b5b80604052505050565b5f6114a76112be565b90506114b3828261146d565b919050565b5f67ffffffffffffffff8211156114d2576114d1611440565b5b6114db82611430565b9050602081019050919050565b828183375f83830152505050565b5f611508611503846114b8565b61149e565b9050828152602081018484840111156115245761152361142c565b5b61152f8482856114e8565b509392505050565b5f82601f83011261154b5761154a611428565b5b813561155b8482602086016114f6565b91505092915050565b5f67ffffffffffffffff82111561157e5761157d611440565b5b61158782611430565b9050602081019050919050565b5f6115a66115a184611564565b61149e565b9050828152602081018484840111156115c2576115c161142c565b5b6115cd8482856114e8565b509392505050565b5f82601f8301126115e9576115e8611428565b5b81356115f9848260208601611594565b91505092915050565b5f805f806080858703121561161a576116196112c7565b5b5f611627878288016113ea565b945050602061163887828801611414565b935050604085013567ffffffffffffffff811115611659576116586112cb565b5b61166587828801611537565b925050606085013567ffffffffffffffff811115611686576116856112cb565b5b611692878288016115d5565b91505092959194509250565b6116a7816112cf565b82525050565b5f6020820190506116c05f83018461169e565b92915050565b5f81519050919050565b5f82825260208201905092915050565b8281835e5f83830152505050565b5f6116f8826116c6565b61170281856116d0565b93506117128185602086016116e0565b61171b81611430565b840191505092915050565b5f81519050919050565b5f82825260208201905092915050565b5f61174a82611726565b6117548185611730565b93506117648185602086016116e0565b61176d81611430565b840191505092915050565b5f60e08201905061178b5f83018a6113ac565b6117986020830189611296565b81810360408301526117aa81886116ee565b905081810360608301526117be8187611740565b90506117cd6080830186611296565b6117da60a0830185611338565b6117e760c0830184611338565b98975050505050505050565b5f60208284031215611808576118076112c7565b5b5f61181584828501611414565b91505092915050565b5f60208284031215611833576118326112c7565b5b5f611840848285016113ea565b91505092915050565b7f54696d656c6f636b3a2063616c6c6572206973206e6f7420746865206f776e655f8201527f7200000000000000000000000000000000000000000000000000000000000000602082015250565b5f6118a36021836116d0565b91506118ae82611849565b604082019050919050565b5f6020820190508181035f8301526118d081611897565b9050919050565b7f54696d656c6f636b3a20696e76616c69642074617267657400000000000000005f82015250565b5f61190b6018836116d0565b9150611916826118d7565b602082019050919050565b5f6020820190508181035f830152611938816118ff565b9050919050565b7f54696d656c6f636b3a206f7065726174696f6e20616c726561647920736368655f8201527f64756c6564000000000000000000000000000000000000000000000000000000602082015250565b5f6119996025836116d0565b91506119a48261193f565b604082019050919050565b5f6020820190508181035f8301526119c68161198d565b9050919050565b7f4e487b71000000000000000000000000000000000000000000000000000000005f52601160045260245ffd5b5f611a048261128d565b9150611a0f8361128d565b9250828201905080821115611a2757611a266119cd565b5b92915050565b7f4e487b71000000000000000000000000000000000000000000000000000000005f52602260045260245ffd5b5f6002820490506001821680611a7157607f821691505b602082108103611a8457611a83611a2d565b5b50919050565b5f819050815f5260205f209050919050565b5f6020601f8301049050919050565b5f82821b905092915050565b5f60088302611ae67fffffffffffffffffffffffffffffffffffffffffffffffffffffffffffffffff82611aab565b611af08683611aab565b95508019841693508086168417925050509392505050565b5f819050919050565b5f611b2b611b26611b218461128d565b611b08565b61128d565b9050919050565b5f819050919050565b611b4483611b11565b611b58611b5082611b32565b848454611ab7565b825550505050565b5f90565b611b6c611b60565b611b77818484611b3b565b505050565b5b81811015611b9a57611b8f5f82611b64565b600181019050611b7d565b5050565b601f821115611bdf57611bb081611a8a565b611bb984611a9c565b81016020851015611bc8578190505b611bdc611bd485611a9c565b830182611b7c565b50505b505050565b5f82821c905092915050565b5f611bff5f1984600802611be4565b1980831691505092915050565b5f611c178383611bf0565b9150826002028217905092915050565b611c30826116c6565b67ffffffffffffffff811115611c4957611c48611440565b5b611c538254611a5a565b611c5e828285611b9e565b5f60209050601f831160018114611c8f575f8415611c7d578287015190505b611c878582611c0c565b865550611cee565b601f198416611c9d86611a8a565b5f5b82811015611cc457848901518255600182019150602085019450602081019050611c9f565b86831015611ce15784890151611cdd601f891682611bf0565b8355505b6001600288020188555050505b505050505050565b5f819050815f5260205f209050919050565b601f821115611d4957611d1a81611cf6565b611d2384611a9c565b81016020851015611d32578190505b611d46611d3e85611a9c565b830182611b7c565b50505b505050565b611d5782611726565b67ffffffffffffffff811115611d7057611d6f611440565b5b611d7a8254611a5a565b611d85828285611d08565b5f60209050601f831160018114611db6575f8415611da4578287015190505b611dae8582611c0c565b865550611e15565b601f198416611dc486611cf6565b5f5b82811015611deb57848901518255600182019150602085019450602081019050611dc6565b86831015611e085784890151611e04601f891682611bf0565b8355505b6001600288020188555050505b505050505050565b5f608082019050611e305f830187611296565b8181036020830152611e4281866116ee565b90508181036040830152611e568185611740565b9050611e656060830184611296565b95945050505050565b7f54696d656c6f636b3a20756e6b6e6f776e206f7065726174696f6e00000000005f82015250565b5f611ea2601b836116d0565b9150611ead82611e6e565b602082019050919050565b5f6020820190508181035f830152611ecf81611e96565b9050919050565b7f54696d656c6f636b3a206f7065726174696f6e20616c726561647920657865635f8201527f7574656400000000000000000000000000000000000000000000000000000000602082015250565b5f611f306024836116d0565b9150611f3b82611ed6565b604082019050919050565b5f6020820190508181035f830152611f5d81611f24565b9050919050565b7f54696d656c6f636b3a206f7065726174696f6e20616c72656164792063616e635f8201527f656c656400000000000000000000000000000000000000000000000000000000602082015250565b5f611fbe6024836116d0565b9150611fc982611f64565b604082019050919050565b5f6020820190508181035f830152611feb81611fb2565b9050919050565b7f54696d656c6f636b3a207265656e7472616e742063616c6c00000000000000005f82015250565b5f6120266018836116d0565b915061203182611ff2565b602082019050919050565b5f6020820190508181035f8301526120538161201a565b9050919050565b7f54696d656c6f636b3a206f7065726174696f6e2063616e63656c6564000000005f82015250565b5f61208e601c836116d0565b91506120998261205a565b602082019050919050565b5f6020820190508181035f8301526120bb81612082565b9050919050565b7f54696d656c6f636b3a20746f6f206561726c79000000000000000000000000005f82015250565b5f6120f66013836116d0565b9150612101826120c2565b602082019050919050565b5f6020820190508181035f830152612123816120ea565b9050919050565b7f54696d656c6f636b3a206f7065726174696f6e206578706972656400000000005f82015250565b5f61215e601b836116d0565b91506121698261212a565b602082019050919050565b5f6020820190508181035f83015261218b81612152565b9050919050565b5f81905092915050565b5f819050815f5260205f209050919050565b5f81546121ba81611a5a565b6121c48186612192565b9450600182165f81146121de57600181146121f357612225565b60ff1983168652811515820286019350612225565b6121fc8561219c565b5f5b8381101561221d578154818901526001820191506020810190506121fe565b838801955050505b50505092915050565b5f61223982846121ae565b915081905092915050565b5f7fffffffff0000000000000000000000000000000000000000000000000000000082169050919050565b5f819050919050565b61228961228482612244565b61226f565b82525050565b5f815461229b81611a5a565b6122a58186612192565b9450600182165f81146122bf57600181146122d457612306565b60ff1983168652811515820286019350612306565b6122dd85611cf6565b5f5b838110156122fe578154818901526001820191506020810190506122df565b838801955050505b50505092915050565b5f61231a8285612278565b60048201915061232a828461228f565b91508190509392505050565b5f61234082611726565b61234a8185612192565b935061235a8185602086016116e0565b80840191505092915050565b5f6123718284612336565b915081905092915050565b5f6020820190508181035f83015261239481846116ee565b905092915050565b5f81546123a881611a5a565b6123b281866116d0565b9450600182165f81146123cc57600181146123e257612414565b60ff198316865281151560200286019350612414565b6123eb85611a8a565b5f5b8381101561240c578154818901526001820191506020810190506123ed565b808801955050505b50505092915050565b5f815461242981611a5a565b6124338186611730565b9450600182165f811461244d576001811461246357612495565b60ff198316865281151560200286019350612495565b61246c85611cf6565b5f5b8381101561248d5781548189015260018201915060208101905061246e565b808801955050505b50505092915050565b5f6060820190506124b15f830186611296565b81810360208301526124c3818561239c565b905081810360408301526124d7818461241d565b9050949350505050565b5f6080820190506124f45f8301876113ac565b6125016020830186611296565b818103604083015261251381856116ee565b905081810360608301526125278184611740565b905095945050505050565b7f54696d656c6f636b3a20696e76616c6964206772616365506572696f640000005f82015250565b5f612566601d836116d0565b915061257182612532565b602082019050919050565b5f6020820190508181035f8301526125938161255a565b9050919050565b7f54696d656c6f636b3a20696e76616c6964206e6577206f776e657200000000005f82015250565b5f6125ce601b836116d0565b91506125d98261259a565b602082019050919050565b5f6020820190508181035f8301526125fb816125c2565b9050919050565b5f61261461260f846114b8565b61149e565b9050828152602081018484840111156126305761262f61142c565b5b61263b8482856116e0565b509392505050565b5f82601f83011261265757612656611428565b5b8151612667848260208601612602565b91505092915050565b5f60208284031215612685576126846112c7565b5b5f82015167ffffffffffffffff8111156126a2576126a16112cb565b5b6126ae84828501612643565b9150509291505056fe54696d656c6f636b3a2063616c6c20726576657274656420776974686f7574206d657373616765a264697066735822122070bca58084ba244d3dff8f655d6eb790ad2641e7c792cc38a77682189290f91c64736f6c634300081a0033",
					"opcodes": "PUSH1 0x80 PUSH1 0x40 MSTORE PUSH1 0x1 PUSH1 0x4 SSTORE CALLVALUE DUP1 ISZERO PUSH2 0x14 JUMPI PUSH0 DUP1 REVERT JUMPDEST POP PUSH1 0x40 MLOAD PUSH2 0x2A43 CODESIZE SUB DUP1 PUSH2 0x2A43 DUP4 CODECOPY DUP2 DUP2 ADD PUSH1 0x40 MSTORE DUP2 ADD SWAP1 PUSH2 0x36 SWAP2 SWAP1 PUSH2 0x1CC JUMP JUMPDEST PUSH0 PUSH20 0xFFFFFFFFFFFFFFFFFFFFFFFFFFFFFFFFFFFFFFFF AND DUP4 PUSH20 0xFFFFFFFFFFFFFFFFFFFFFFFFFFFFFFFFFFFFFFFF AND SUB PUSH2 0xA4 JUMPI PUSH1 0x40 MLOAD PUSH32 0x8C379A000000000000000000000000000000000000000000000000000000000 DUP2 MSTORE PUSH1 0x4 ADD PUSH2 0x9B SWAP1 PUSH2 0x276 JUMP JUMPDEST PUSH1 0x40 MLOAD DUP1 SWAP2 SUB SWAP1 REVERT JUMPDEST PUSH0 DUP2 GT PUSH2 0xE6 JUMPI PUSH1 0x40 MLOAD PUSH32 0x8C379A000000000000000000000000000000000000000000000000000000000 DUP2 MSTORE PUSH1 0x4 ADD PUSH2 0xDD SWAP1 PUSH2 0x304 JUMP JUMPDEST PUSH1 0x40 MLOAD DUP1 SWAP2 SUB SWAP1 REVERT JUMPDEST DUP3 PUSH1 0x2 PUSH0 PUSH2 0x100 EXP DUP2 SLOAD DUP2 PUSH20 0xFFFFFFFFFFFFFFFFFFFFFFFFFFFFFFFFFFFFFFFF MUL NOT AND SWAP1 DUP4 PUSH20 0xFFFFFFFFFFFFFFFFFFFFFFFFFFFFFFFFFFFFFFFF AND MUL OR SWAP1 SSTORE POP DUP2 PUSH1 0x1 DUP2 SWAP1 SSTORE POP DUP1 PUSH0 DUP2 SWAP1 SSTORE POP POP POP POP PUSH2 0x322 JUMP JUMPDEST PUSH0 DUP1 REVERT JUMPDEST PUSH0 PUSH20 0xFFFFFFFFFFFFFFFFFFFFFFFFFFFFFFFFFFFFFFFF DUP3 AND SWAP1 POP SWAP2 SWAP1 POP JUMP JUMPDEST PUSH0 PUSH2 0x168 DUP3 PUSH2 0x13F JUMP JUMPDEST SWAP1 POP SWAP2 SWAP1 POP JUMP JUMPDEST PUSH2 0x178 DUP2 PUSH2 0x15E JUMP JUMPDEST DUP2 EQ PUSH2 0x182 JUMPI PUSH0 DUP1 REVERT JUMPDEST POP JUMP JUMPDEST PUSH0 DUP2 MLOAD SWAP1 POP PUSH2 0x193 DUP2 PUSH2 0x16F JUMP JUMPDEST SWAP3 SWAP2 POP POP JUMP JUMPDEST PUSH0 DUP2 SWAP1 POP SWAP2 SWAP1 POP JUMP JUMPDEST PUSH2 0x1AB DUP2 PUSH2 0x199 JUMP JUMPDEST DUP2 EQ PUSH2 0x1B5 JUMPI PUSH0 DUP1 REVERT JUMPDEST POP JUMP JUMPDEST PUSH0 DUP2 MLOAD SWAP1 POP PUSH2 0x1C6 DUP2 PUSH2 0x1A2 JUMP JUMPDEST SWAP3 SWAP2 POP POP JUMP JUMPDEST PUSH0 DUP1 PUSH0 PUSH1 0x60 DUP5 DUP7 SUB SLT ISZERO PUSH2 0x1E3 JUMPI PUSH2 0x1E2 PUSH2 0x13B JUMP JUMPDEST JUMPDEST PUSH0 PUSH2 0x1F0 DUP7 DUP3 DUP8 ADD PUSH2 0x185 JUMP JUMPDEST SWAP4 POP POP PUSH1 0x20 PUSH2 0x201 DUP7 DUP3 DUP8 ADD PUSH2 0x1B8 JUMP JUMPDEST SWAP3 POP POP PUSH1 0x40 PUSH2 0x212 DUP7 DUP3 DUP8 ADD PUSH2 0x1B8 JUMP JUMPDEST SWAP2 POP POP SWAP3 POP SWAP3 POP SWAP3 JUMP JUMPDEST PUSH0 DUP3 DUP3 MSTORE PUSH1 0x20 DUP3 ADD SWAP1 POP SWAP3 SWAP2 POP POP JUMP JUMPDEST PUSH32 0x54696D656C6F636B3A20696E76616C6964206F776E6572000000000000000000 PUSH0 DUP3 ADD MSTORE POP JUMP JUMPDEST PUSH0 PUSH2 0x260 PUSH1 0x17 DUP4 PUSH2 0x21C JUMP JUMPDEST SWAP2 POP PUSH2 0x26B DUP3 PUSH2 0x22C JUMP JUMPDEST PUSH1 0x20 DUP3 ADD SWAP1 POP SWAP2 SWAP1 POP JUMP JUMPDEST PUSH0 PUSH1 0x20 DUP3 ADD SWAP1 POP DUP2 DUP2 SUB PUSH0 DUP4 ADD MSTORE PUSH2 0x28D DUP2 PUSH2 0x254 JUMP JUMPDEST SWAP1 POP SWAP2 SWAP1 POP JUMP JUMPDEST PUSH32 0x54696D656C6F636B3A206772616365506572696F64206D757374206265203E20 PUSH0 DUP3 ADD MSTORE PUSH32 0x3000000000000000000000000000000000000000000000000000000000000000 PUSH1 0x20 DUP3 ADD MSTORE POP JUMP JUMPDEST PUSH0 PUSH2 0x2EE PUSH1 0x21 DUP4 PUSH2 0x21C JUMP JUMPDEST SWAP2 POP PUSH2 0x2F9 DUP3 PUSH2 0x294 JUMP JUMPDEST PUSH1 0x40 DUP3 ADD SWAP1 POP SWAP2 SWAP1 POP JUMP JUMPDEST PUSH0 PUSH1 0x20 DUP3 ADD SWAP1 POP DUP2 DUP2 SUB PUSH0 DUP4 ADD MSTORE PUSH2 0x31B DUP2 PUSH2 0x2E2 JUMP JUMPDEST SWAP1 POP SWAP2 SWAP1 POP JUMP JUMPDEST PUSH2 0x2714 DUP1 PUSH2 0x32F PUSH0 CODECOPY PUSH0 RETURN INVALID PUSH1 0x80 PUSH1 0x40 MSTORE PUSH1 0x4 CALLDATASIZE LT PUSH2 0xC5 JUMPI PUSH0 CALLDATALOAD PUSH1 0xE0 SHR DUP1 PUSH4 0xC74F349B GT PUSH2 0x7E JUMPI DUP1 PUSH4 0xE751F271 GT PUSH2 0x58 JUMPI DUP1 PUSH4 0xE751F271 EQ PUSH2 0x296 JUMPI DUP1 PUSH4 0xF087DD24 EQ PUSH2 0x2B2 JUMPI DUP1 PUSH4 0xF2F65960 EQ PUSH2 0x2EE JUMPI DUP1 PUSH4 0xF2FDE38B EQ PUSH2 0x316 JUMPI PUSH2 0xCC JUMP JUMPDEST DUP1 PUSH4 0xC74F349B EQ PUSH2 0x1F0 JUMPI DUP1 PUSH4 0xE177246E EQ PUSH2 0x232 JUMPI DUP1 PUSH4 0xE31FA19A EQ PUSH2 0x25A JUMPI PUSH2 0xCC JUMP JUMPDEST DUP1 PUSH4 0x6A42B8F8 EQ PUSH2 0xD0 JUMPI DUP1 PUSH4 0x727C6C5A EQ PUSH2 0xFA JUMPI DUP1 PUSH4 0x8DA5CB5B EQ PUSH2 0x138 JUMPI DUP1 PUSH4 0xA06DB7DC EQ PUSH2 0x162 JUMPI DUP1 PUSH4 0xBAA1F377 EQ PUSH2 0x18C JUMPI DUP1 PUSH4 0xC4D252F5 EQ PUSH2 0x1C8 JUMPI PUSH2 0xCC JUMP JUMPDEST CALLDATASIZE PUSH2 0xCC JUMPI STOP JUMPDEST PUSH0 DUP1 REVERT JUMPDEST CALLVALUE DUP1 ISZERO PUSH2 0xDB JUMPI PUSH0 DUP1 REVERT JUMPDEST POP PUSH2 0xE4 PUSH2 0x33E JUMP JUMPDEST PUSH1 0x40 MLOAD PUSH2 0xF1 SWAP2 SWAP1 PUSH2 0x12A5 JUMP JUMPDEST PUSH1 0x40 MLOAD DUP1 SWAP2 SUB SWAP1 RETURN JUMPDEST CALLVALUE DUP1 ISZERO PUSH2 0x105 JUMPI PUSH0 DUP1 REVERT JUMPDEST POP PUSH2 0x120 PUSH1 0x4 DUP1 CALLDATASIZE SUB DUP2 ADD SWAP1 PUSH2 0x11B SWAP2 SWAP1 PUSH2 0x1302 JUMP JUMPDEST PUSH2 0x344 JUMP JUMPDEST PUSH1 0x40 MLOAD PUSH2 0x12F SWAP4 SWAP3 SWAP2 SWAP1 PUSH2 0x1347 JUMP JUMPDEST PUSH1 0x40 MLOAD DUP1 SWAP2 SUB SWAP1 RETURN JUMPDEST CALLVALUE DUP1 ISZERO PUSH2 0x143 JUMPI PUSH0 DUP1 REVERT JUMPDEST POP PUSH2 0x14C PUSH2 0x3F3 JUMP JUMPDEST PUSH1 0x40 MLOAD PUSH2 0x159 SWAP2 SWAP1 PUSH2 0x13BB JUMP JUMPDEST PUSH1 0x40 MLOAD DUP1 SWAP2 SUB SWAP1 RETURN JUMPDEST CALLVALUE DUP1 ISZERO PUSH2 0x16D JUMPI PUSH0 DUP1 REVERT JUMPDEST POP PUSH2 0x176 PUSH2 0x418 JUMP JUMPDEST PUSH1 0x40 MLOAD PUSH2 0x183 SWAP2 SWAP1 PUSH2 0x12A5 JUMP JUMPDEST PUSH1 0x40 MLOAD DUP1 SWAP2 SUB SWAP1 RETURN JUMPDEST CALLVALUE DUP1 ISZERO PUSH2 0x197 JUMPI PUSH0 DUP1 REVERT JUMPDEST POP PUSH2 0x1B2 PUSH1 0x4 DUP1 CALLDATASIZE SUB DUP2 ADD SWAP1 PUSH2 0x1AD SWAP2 SWAP1 PUSH2 0x1602 JUMP JUMPDEST PUSH2 0x41D JUMP JUMPDEST PUSH1 0x40 MLOAD PUSH2 0x1BF SWAP2 SWAP1 PUSH2 0x16AD JUMP JUMPDEST PUSH1 0x40 MLOAD DUP1 SWAP2 SUB SWAP1 RETURN JUMPDEST CALLVALUE DUP1 ISZERO PUSH2 0x1D3 JUMPI PUSH0 DUP1 REVERT JUMPDEST POP PUSH2 0x1EE PUSH1 0x4 DUP1 CALLDATASIZE SUB DUP2 ADD SWAP1 PUSH2 0x1E9 SWAP2 SWAP1 PUSH2 0x1302 JUMP JUMPDEST PUSH2 0x6EB JUMP JUMPDEST STOP JUMPDEST CALLVALUE DUP1 ISZERO PUSH2 0x1FB JUMPI PUSH0 DUP1 REVERT JUMPDEST POP PUSH2 0x216 PUSH1 0x4 DUP1 CALLDATASIZE SUB DUP2 ADD SWAP1 PUSH2 0x211 SWAP2 SWAP1 PUSH2 0x1302 JUMP JUMPDEST PUSH2 0x90F JUMP JUMPDEST PUSH1 0x40 MLOAD PUSH2 0x229 SWAP8 SWAP7 SWAP6 SWAP5 SWAP4 SWAP3 SWAP2 SWAP1 PUSH2 0x1778 JUMP JUMPDEST PUSH1 0x40 MLOAD DUP1 SWAP2 SUB SWAP1 RETURN JUMPDEST CALLVALUE DUP1 ISZERO PUSH2 0x23D JUMPI PUSH0 DUP1 REVERT JUMPDEST POP PUSH2 0x258 PUSH1 0x4 DUP1 CALLDATASIZE SUB DUP2 ADD SWAP1 PUSH2 0x253 SWAP2 SWAP1 PUSH2 0x17F3 JUMP JUMPDEST PUSH2 0xA91 JUMP JUMPDEST STOP JUMPDEST CALLVALUE DUP1 ISZERO PUSH2 0x265 JUMPI PUSH0 DUP1 REVERT JUMPDEST POP PUSH2 0x280 PUSH1 0x4 DUP1 CALLDATASIZE SUB DUP2 ADD SWAP1 PUSH2 0x27B SWAP2 SWAP1 PUSH2 0x1302 JUMP JUMPDEST PUSH2 0xB2A JUMP JUMPDEST PUSH1 0x40 MLOAD PUSH2 0x28D SWAP2 SWAP1 PUSH2 0x12A5 JUMP JUMPDEST PUSH1 0x40 MLOAD DUP1 SWAP2 SUB SWAP1 RETURN JUMPDEST PUSH2 0x2B0 PUSH1 0x4 DUP1 CALLDATASIZE SUB DUP2 ADD SWAP1 PUSH2 0x2AB SWAP2 SWAP1 PUSH2 0x1302 JUMP JUMPDEST PUSH2 0xB4C JUMP JUMPDEST STOP JUMPDEST CALLVALUE DUP1 ISZERO PUSH2 0x2BD JUMPI PUSH0 DUP1 REVERT JUMPDEST POP PUSH2 0x2D8 PUSH1 0x4 DUP1 CALLDATASIZE SUB DUP2 ADD SWAP1 PUSH2 0x2D3 SWAP2 SWAP1 PUSH2 0x1602 JUMP JUMPDEST PUSH2 0xFED JUMP JUMPDEST PUSH1 0x40 MLOAD PUSH2 0x2E5 SWAP2 SWAP1 PUSH2 0x16AD JUMP JUMPDEST PUSH1 0x40 MLOAD DUP1 SWAP2 SUB SWAP1 RETURN JUMPDEST CALLVALUE DUP1 ISZERO PUSH2 0x2F9 JUMPI PUSH0 DUP1 REVERT JUMPDEST POP PUSH2 0x314 PUSH1 0x4 DUP1 CALLDATASIZE SUB DUP2 ADD SWAP1 PUSH2 0x30F SWAP2 SWAP1 PUSH2 0x17F3 JUMP JUMPDEST PUSH2 0x1025 JUMP JUMPDEST STOP JUMPDEST CALLVALUE DUP1 ISZERO PUSH2 0x321 JUMPI PUSH0 DUP1 REVERT JUMPDEST POP PUSH2 0x33C PUSH1 0x4 DUP1 CALLDATASIZE SUB DUP2 ADD SWAP1 PUSH2 0x337 SWAP2 SWAP1 PUSH2 0x181E JUMP JUMPDEST PUSH2 0x10FF JUMP JUMPDEST STOP JUMPDEST PUSH1 0x1 SLOAD DUP2 JUMP JUMPDEST PUSH0 DUP1 PUSH0 DUP1 PUSH1 0x3 PUSH0 DUP7 DUP2 MSTORE PUSH1 0x20 ADD SWAP1 DUP2 MSTORE PUSH1 0x20 ADD PUSH0 KECCAK256 SWAP1 POP PUSH0 PUSH20 0xFFFFFFFFFFFFFFFFFFFFFFFFFFFFFFFFFFFFFFFF AND DUP2 PUSH0 ADD PUSH0 SWAP1 SLOAD SWAP1 PUSH2 0x100 EXP SWAP1 DIV PUSH20 0xFFFFFFFFFFFFFFFFFFFFFFFFFFFFFFFFFFFFFFFF AND PUSH20 0xFFFFFFFFFFFFFFFFFFFFFFFFFFFFFFFFFFFFFFFF AND SUB PUSH2 0x3BF JUMPI PUSH0 DUP1 PUSH0 SWAP4 POP SWAP4 POP SWAP4 POP POP PUSH2 0x3EC JUMP JUMPDEST PUSH1 0x1 DUP2 PUSH1 0x5 ADD PUSH1 0x1 SWAP1 SLOAD SWAP1 PUSH2 0x100 EXP SWAP1 DIV PUSH1 0xFF AND DUP3 PUSH1 0x5 ADD PUSH0 SWAP1 SLOAD SWAP1 PUSH2 0x100 EXP SWAP1 DIV PUSH1 0xFF AND SWAP4 POP SWAP4 POP SWAP4 POP POP JUMPDEST SWAP2 SWAP4 SWAP1 SWAP3 POP JUMP JUMPDEST PUSH1 0x2 PUSH0 SWAP1 SLOAD SWAP1 PUSH2 0x100 EXP SWAP1 DIV PUSH20 0xFFFFFFFFFFFFFFFFFFFFFFFFFFFFFFFFFFFFFFFF AND DUP2 JUMP JUMPDEST PUSH0 SLOAD DUP2 JUMP JUMPDEST PUSH0 PUSH1 0x2 PUSH0 SWAP1 SLOAD SWAP1 PUSH2 0x100 EXP SWAP1 DIV PUSH20 0xFFFFFFFFFFFFFFFFFFFFFFFFFFFFFFFFFFFFFFFF AND PUSH20 0xFFFFFFFFFFFFFFFFFFFFFFFFFFFFFFFFFFFFFFFF AND CALLER PUSH20 0xFFFFFFFFFFFFFFFFFFFFFFFFFFFFFFFFFFFFFFFF AND EQ PUSH2 0x4AD JUMPI PUSH1 0x40 MLOAD PUSH32 0x8C379A000000000000000000000000000000000000000000000000000000000 DUP2 MSTORE PUSH1 0x4 ADD PUSH2 0x4A4 SWAP1 PUSH2 0x18B9 JUMP JUMPDEST PUSH1 0x40 MLOAD DUP1 SWAP2 SUB SWAP1 REVERT JUMPDEST PUSH0 PUSH20 0xFFFFFFFFFFFFFFFFFFFFFFFFFFFFFFFFFFFFFFFF AND DUP6 PUSH20 0xFFFFFFFFFFFFFFFFFFFFFFFFFFFFFFFFFFFFFFFF AND SUB PUSH2 0x51B JUMPI PUSH1 0x40 MLOAD PUSH32 0x8C379A000000000000000000000000000000000000000000000000000000000 DUP2 MSTORE PUSH1 0x4 ADD PUSH2 0x512 SWAP1 PUSH2 0x1921 JUMP JUMPDEST PUSH1 0x40 MLOAD DUP1 SWAP2 SUB SWAP1 REVERT JUMPDEST PUSH2 0x527 DUP6 DUP6 DUP6 DUP6 PUSH2 0xFED JUMP JUMPDEST SWAP1 POP PUSH0 PUSH1 0x3 PUSH0 DUP4 DUP2 MSTORE PUSH1 0x20 ADD SWAP1 DUP2 MSTORE PUSH1 0x20 ADD PUSH0 KECCAK256 SWAP1 POP PUSH0 PUSH20 0xFFFFFFFFFFFFFFFFFFFFFFFFFFFFFFFFFFFFFFFF AND DUP2 PUSH0 ADD PUSH0 SWAP1 SLOAD SWAP1 PUSH2 0x100 EXP SWAP1 DIV PUSH20 0xFFFFFFFFFFFFFFFFFFFFFFFFFFFFFFFFFFFFFFFF AND PUSH20 0xFFFFFFFFFFFFFFFFFFFFFFFFFFFFFFFFFFFFFFFF AND EQ PUSH2 0x5CD JUMPI PUSH1 0x40 MLOAD PUSH32 0x8C379A000000000000000000000000000000000000000000000000000000000 DUP2 MSTORE PUSH1 0x4 ADD PUSH2 0x5C4 SWAP1 PUSH2 0x19AF JUMP JUMPDEST PUSH1 0x40 MLOAD DUP1 SWAP2 SUB SWAP1 REVERT JUMPDEST PUSH0 PUSH1 0x1 SLOAD TIMESTAMP PUSH2 0x5DC SWAP2 SWAP1 PUSH2 0x19FA JUMP JUMPDEST SWAP1 POP DUP7 DUP3 PUSH0 ADD PUSH0 PUSH2 0x100 EXP DUP2 SLOAD DUP2 PUSH20 0xFFFFFFFFFFFFFFFFFFFFFFFFFFFFFFFFFFFFFFFF MUL NOT AND SWAP1 DUP4 PUSH20 0xFFFFFFFFFFFFFFFFFFFFFFFFFFFFFFFFFFFFFFFF AND MUL OR SWAP1 SSTORE POP DUP6 DUP3 PUSH1 0x1 ADD DUP2 SWAP1 SSTORE POP DUP5 DUP3 PUSH1 0x2 ADD SWAP1 DUP2 PUSH2 0x639 SWAP2 SWAP1 PUSH2 0x1C27 JUMP JUMPDEST POP DUP4 DUP3 PUSH1 0x3 ADD SWAP1 DUP2 PUSH2 0x64B SWAP2 SWAP1 PUSH2 0x1D4E JUMP JUMPDEST POP DUP1 DUP3 PUSH1 0x4 ADD DUP2 SWAP1 SSTORE POP PUSH0 DUP3 PUSH1 0x5 ADD PUSH0 PUSH2 0x100 EXP DUP2 SLOAD DUP2 PUSH1 0xFF MUL NOT AND SWAP1 DUP4 ISZERO ISZERO MUL OR SWAP1 SSTORE POP PUSH0 DUP3 PUSH1 0x5 ADD PUSH1 0x1 PUSH2 0x100 EXP DUP2 SLOAD DUP2 PUSH1 0xFF MUL NOT AND SWAP1 DUP4 ISZERO ISZERO MUL OR SWAP1 SSTORE POP DUP7 PUSH20 0xFFFFFFFFFFFFFFFFFFFFFFFFFFFFFFFFFFFFFFFF AND DUP4 PUSH32 0x5EAB136A1E0AF9E18165F705D4A9F7A210395AA3D4DE14A416C5E5ED744F6655 DUP9 DUP9 DUP9 DUP7 PUSH1 0x40 MLOAD PUSH2 0x6D9 SWAP5 SWAP4 SWAP3 SWAP2 SWAP1 PUSH2 0x1E1D JUMP JUMPDEST PUSH1 0x40 MLOAD DUP1 SWAP2 SUB SWAP1 LOG3 POP POP SWAP5 SWAP4 POP POP POP POP JUMP JUMPDEST PUSH1 0x2 PUSH0 SWAP1 SLOAD SWAP1 PUSH2 0x100 EXP SWAP1 DIV PUSH20 0xFFFFFFFFFFFFFFFFFFFFFFFFFFFFFFFFFFFFFFFF AND PUSH20 0xFFFFFFFFFFFFFFFFFFFFFFFFFFFFFFFFFFFFFFFF AND CALLER PUSH20 0xFFFFFFFFFFFFFFFFFFFFFFFFFFFFFFFFFFFFFFFF AND EQ PUSH2 0x77A JUMPI PUSH1 0x40 MLOAD PUSH32 0x8C379A000000000000000000000000000000000000000000000000000000000 DUP2 MSTORE PUSH1 0x4 ADD PUSH2 0x771 SWAP1 PUSH2 0x18B9 JUMP JUMPDEST PUSH1 0x40 MLOAD DUP1 SWAP2 SUB SWAP1 REVERT JUMPDEST PUSH0 PUSH1 0x3 PUSH0 DUP4 DUP2 MSTORE PUSH1 0x20 ADD SWAP1 DUP2 MSTORE PUSH1 0x20 ADD PUSH0 KECCAK256 SWAP1 POP PUSH0 PUSH20 0xFFFFFFFFFFFFFFFFFFFFFFFFFFFFFFFFFFFFFFFF AND DUP2 PUSH0 ADD PUSH0 SWAP1 SLOAD SWAP1 PUSH2 0x100 EXP SWAP1 DIV PUSH20 0xFFFFFFFFFFFFFFFFFFFFFFFFFFFFFFFFFFFFFFFF AND PUSH20 0xFFFFFFFFFFFFFFFFFFFFFFFFFFFFFFFFFFFFFFFF AND SUB PUSH2 0x81E JUMPI PUSH1 0x40 MLOAD PUSH32 0x8C379A000000000000000000000000000000000000000000000000000000000 DUP2 MSTORE PUSH1 0x4 ADD PUSH2 0x815 SWAP1 PUSH2 0x1EB8 JUMP JUMPDEST PUSH1 0x40 MLOAD DUP1 SWAP2 SUB SWAP1 REVERT JUMPDEST DUP1 PUSH1 0x5 ADD PUSH0 SWAP1 SLOAD SWAP1 PUSH2 0x100 EXP SWAP1 DIV PUSH1 0xFF AND ISZERO PUSH2 0x86F JUMPI PUSH1 0x40 MLOAD PUSH32 0x8C379A000000000000000000000000000000000000000000000000000000000 DUP2 MSTORE PUSH1 0x4 ADD PUSH2 0x866 SWAP1 PUSH2 0x1F46 JUMP JUMPDEST PUSH1 0x40 MLOAD DUP1 SWAP2 SUB SWAP1 REVERT JUMPDEST DUP1 PUSH1 0x5 ADD PUSH1 0x1 SWAP1 SLOAD SWAP1 PUSH2 0x100 EXP SWAP1 DIV PUSH1 0xFF AND ISZERO PUSH2 0x8C1 JUMPI PUSH1 0x40 MLOAD PUSH32 0x8C379A000000000000000000000000000000000000000000000000000000000 DUP2 MSTORE PUSH1 0x4 ADD PUSH2 0x8B8 SWAP1 PUSH2 0x1FD4 JUMP JUMPDEST PUSH1 0x40 MLOAD DUP1 SWAP2 SUB SWAP1 REVERT JUMPDEST PUSH1 0x1 DUP2 PUSH1 0x5 ADD PUSH1 0x1 PUSH2 0x100 EXP DUP2 SLOAD DUP2 PUSH1 0xFF MUL NOT AND SWAP1 DUP4 ISZERO ISZERO MUL OR SWAP1 SSTORE POP DUP2 PUSH32 0x7A168F30D6A7A3B7AA2E211C067C04BDE31169A0F3171A98084508204BC56094 PUSH1 0x40 MLOAD PUSH1 0x40 MLOAD DUP1 SWAP2 SUB SWAP1 LOG2 POP POP JUMP JUMPDEST PUSH1 0x3 PUSH1 0x20 MSTORE DUP1 PUSH0 MSTORE PUSH1 0x40 PUSH0 KECCAK256 PUSH0 SWAP2 POP SWAP1 POP DUP1 PUSH0 ADD PUSH0 SWAP1 SLOAD SWAP1 PUSH2 0x100 EXP SWAP1 DIV PUSH20 0xFFFFFFFFFFFFFFFFFFFFFFFFFFFFFFFFFFFFFFFF AND SWAP1 DUP1 PUSH1 0x1 ADD SLOAD SWAP1 DUP1 PUSH1 0x2 ADD DUP1 SLOAD PUSH2 0x959 SWAP1 PUSH2 0x1A5A JUMP JUMPDEST DUP1 PUSH1 0x1F ADD PUSH1 0x20 DUP1 SWAP2 DIV MUL PUSH1 0x20 ADD PUSH1 0x40 MLOAD SWAP1 DUP2 ADD PUSH1 0x40 MSTORE DUP1 SWAP3 SWAP2 SWAP1 DUP2 DUP2 MSTORE PUSH1 0x20 ADD DUP3 DUP1 SLOAD PUSH2 0x985 SWAP1 PUSH2 0x1A5A JUMP JUMPDEST DUP1 ISZERO PUSH2 0x9D0 JUMPI DUP1 PUSH1 0x1F LT PUSH2 0x9A7 JUMPI PUSH2 0x100 DUP1 DUP4 SLOAD DIV MUL DUP4 MSTORE SWAP2 PUSH1 0x20 ADD SWAP2 PUSH2 0x9D0 JUMP JUMPDEST DUP3 ADD SWAP2 SWAP1 PUSH0 MSTORE PUSH1 0x20 PUSH0 KECCAK256 SWAP1 JUMPDEST DUP2 SLOAD DUP2 MSTORE SWAP1 PUSH1 0x1 ADD SWAP1 PUSH1 0x20 ADD DUP1 DUP4 GT PUSH2 0x9B3 JUMPI DUP3 SWAP1 SUB PUSH1 0x1F AND DUP3 ADD SWAP2 JUMPDEST POP POP POP POP POP SWAP1 DUP1 PUSH1 0x3 ADD DUP1 SLOAD PUSH2 0x9E5 SWAP1 PUSH2 0x1A5A JUMP JUMPDEST DUP1 PUSH1 0x1F ADD PUSH1 0x20 DUP1 SWAP2 DIV MUL PUSH1 0x20 ADD PUSH1 0x40 MLOAD SWAP1 DUP2 ADD PUSH1 0x40 MSTORE DUP1 SWAP3 SWAP2 SWAP1 DUP2 DUP2 MSTORE PUSH1 0x20 ADD DUP3 DUP1 SLOAD PUSH2 0xA11 SWAP1 PUSH2 0x1A5A JUMP JUMPDEST DUP1 ISZERO PUSH2 0xA5C JUMPI DUP1 PUSH1 0x1F LT PUSH2 0xA33 JUMPI PUSH2 0x100 DUP1 DUP4 SLOAD DIV MUL DUP4 MSTORE SWAP2 PUSH1 0x20 ADD SWAP2 PUSH2 0xA5C JUMP JUMPDEST DUP3 ADD SWAP2 SWAP1 PUSH0 MSTORE PUSH1 0x20 PUSH0 KECCAK256 SWAP1 JUMPDEST DUP2 SLOAD DUP2 MSTORE SWAP1 PUSH1 0x1 ADD SWAP1 PUSH1 0x20 ADD DUP1 DUP4 GT PUSH2 0xA3F JUMPI DUP3 SWAP1 SUB PUSH1 0x1F AND DUP3 ADD SWAP2 JUMPDEST POP POP POP POP POP SWAP1 DUP1 PUSH1 0x4 ADD SLOAD SWAP1 DUP1 PUSH1 0x5 ADD PUSH0 SWAP1 SLOAD SWAP1 PUSH2 0x100 EXP SWAP1 DIV PUSH1 0xFF AND SWAP1 DUP1 PUSH1 0x5 ADD PUSH1 0x1 SWAP1 SLOAD SWAP1 PUSH2 0x100 EXP SWAP1 DIV PUSH1 0xFF AND SWAP1 POP DUP8 JUMP JUMPDEST PUSH1 0x2 PUSH0 SWAP1 SLOAD SWAP1 PUSH2 0x100 EXP SWAP1 DIV PUSH20 0xFFFFFFFFFFFFFFFFFFFFFFFFFFFFFFFFFFFFFFFF AND PUSH20 0xFFFFFFFFFFFFFFFFFFFFFFFFFFFFFFFFFFFFFFFF AND CALLER PUSH20 0xFFFFFFFFFFFFFFFFFFFFFFFFFFFFFFFFFFFFFFFF AND EQ PUSH2 0xB20 JUMPI PUSH1 0x40 MLOAD PUSH32 0x8C379A000000000000000000000000000000000000000000000000000000000 DUP2 MSTORE PUSH1 0x4 ADD PUSH2 0xB17 SWAP1 PUSH2 0x18B9 JUMP JUMPDEST PUSH1 0x40 MLOAD DUP1 SWAP2 SUB SWAP1 REVERT JUMPDEST DUP1 PUSH1 0x1 DUP2 SWAP1 SSTORE POP POP JUMP JUMPDEST PUSH0 DUP1 PUSH1 0x3 PUSH0 DUP5 DUP2 MSTORE PUSH1 0x20 ADD SWAP1 DUP2 MSTORE PUSH1 0x20 ADD PUSH0 KECCAK256 SWAP1 POP DUP1 PUSH1 0x4 ADD SLOAD SWAP2 POP POP SWAP2 SWAP1 POP JUMP JUMPDEST PUSH1 0x2 PUSH1 0x4 SLOAD SUB PUSH2 0xB91 JUMPI PUSH1 0x40 MLOAD PUSH32 0x8C379A000000000000000000000000000000000000000000000000000000000 DUP2 MSTORE PUSH1 0x4 ADD PUSH2 0xB88 SWAP1 PUSH2 0x203C JUMP JUMPDEST PUSH1 0x40 MLOAD DUP1 SWAP2 SUB SWAP1 REVERT JUMPDEST PUSH1 0x2 PUSH1 0x4 DUP2 SWAP1 SSTORE POP PUSH0 PUSH1 0x3 PUSH0 DUP4 DUP2 MSTORE PUSH1 0x20 ADD SWAP1 DUP2 MSTORE PUSH1 0x20 ADD PUSH0 KECCAK256 SWAP1 POP PUSH0 PUSH20 0xFFFFFFFFFFFFFFFFFFFFFFFFFFFFFFFFFFFFFFFF AND DUP2 PUSH0 ADD PUSH0 SWAP1 SLOAD SWAP1 PUSH2 0x100 EXP SWAP1 DIV PUSH20 0xFFFFFFFFFFFFFFFFFFFFFFFFFFFFFFFFFFFFFFFF AND PUSH20 0xFFFFFFFFFFFFFFFFFFFFFFFFFFFFFFFFFFFFFFFF AND SUB PUSH2 0xC3D JUMPI PUSH1 0x40 MLOAD PUSH32 0x8C379A000000000000000000000000000000000000000000000000000000000 DUP2 MSTORE PUSH1 0x4 ADD PUSH2 0xC34 SWAP1 PUSH2 0x1EB8 JUMP JUMPDEST PUSH1 0x40 MLOAD DUP1 SWAP2 SUB SWAP1 REVERT JUMPDEST DUP1 PUSH1 0x5 ADD PUSH0 SWAP1 SLOAD SWAP1 PUSH2 0x100 EXP SWAP1 DIV PUSH1 0xFF AND ISZERO PUSH2 0xC8E JUMPI PUSH1 0x40 MLOAD PUSH32 0x8C379A000000000000000000000000000000000000000000000000000000000 DUP2 MSTORE PUSH1 0x4 ADD PUSH2 0xC85 SWAP1 PUSH2 0x1F46 JUMP JUMPDEST PUSH1 0x40 MLOAD DUP1 SWAP2 SUB SWAP1 REVERT JUMPDEST DUP1 PUSH1 0x5 ADD PUSH1 0x1 SWAP1 SLOAD SWAP1 PUSH2 0x100 EXP SWAP1 DIV PUSH1 0xFF AND ISZERO PUSH2 0xCE0 JUMPI PUSH1 0x40 MLOAD PUSH32 0x8C379A000000000000000000000000000000000000000000000000000000000 DUP2 MSTORE PUSH1 0x4 ADD PUSH2 0xCD7 SWAP1 PUSH2 0x20A4 JUMP JUMPDEST PUSH1 0x40 MLOAD DUP1 SWAP2 SUB SWAP1 REVERT JUMPDEST DUP1 PUSH1 0x4 ADD SLOAD TIMESTAMP LT ISZERO PUSH2 0xD27 JUMPI PUSH1 0x40 MLOAD PUSH32 0x8C379A000000000000000000000000000000000000000000000000000000000 DUP2 MSTORE PUSH1 0x4 ADD PUSH2 0xD1E SWAP1 PUSH2 0x210C JUMP JUMPDEST PUSH1 0x40 MLOAD DUP1 SWAP2 SUB SWAP1 REVERT JUMPDEST PUSH0 SLOAD DUP2 PUSH1 0x4 ADD SLOAD PUSH2 0xD38 SWAP2 SWAP1 PUSH2 0x19FA JUMP JUMPDEST TIMESTAMP GT ISZERO PUSH2 0xD7A JUMPI PUSH1 0x40 MLOAD PUSH32 0x8C379A000000000000000000000000000000000000000000000000000000000 DUP2 MSTORE PUSH1 0x4 ADD PUSH2 0xD71 SWAP1 PUSH2 0x2174 JUMP JUMPDEST PUSH1 0x40 MLOAD DUP1 SWAP2 SUB SWAP1 REVERT JUMPDEST PUSH1 0x1 DUP2 PUSH1 0x5 ADD PUSH0 PUSH2 0x100 EXP DUP2 SLOAD DUP2 PUSH1 0xFF MUL NOT AND SWAP1 DUP4 ISZERO ISZERO MUL OR SWAP1 SSTORE POP PUSH1 0x60 PUSH0 DUP3 PUSH1 0x2 ADD DUP1 SLOAD PUSH2 0xDA8 SWAP1 PUSH2 0x1A5A JUMP JUMPDEST SWAP1 POP SUB PUSH2 0xE41 JUMPI DUP2 PUSH1 0x3 ADD DUP1 SLOAD PUSH2 0xDBE SWAP1 PUSH2 0x1A5A JUMP JUMPDEST DUP1 PUSH1 0x1F ADD PUSH1 0x20 DUP1 SWAP2 DIV MUL PUSH1 0x20 ADD PUSH1 0x40 MLOAD SWAP1 DUP2 ADD PUSH1 0x40 MSTORE DUP1 SWAP3 SWAP2 SWAP1 DUP2 DUP2 MSTORE PUSH1 0x20 ADD DUP3 DUP1 SLOAD PUSH2 0xDEA SWAP1 PUSH2 0x1A5A JUMP JUMPDEST DUP1 ISZERO PUSH2 0xE35 JUMPI DUP1 PUSH1 0x1F LT PUSH2 0xE0C JUMPI PUSH2 0x100 DUP1 DUP4 SLOAD DIV MUL DUP4 MSTORE SWAP2 PUSH1 0x20 ADD SWAP2 PUSH2 0xE35 JUMP JUMPDEST DUP3 ADD SWAP2 SWAP1 PUSH0 MSTORE PUSH1 0x20 PUSH0 KECCAK256 SWAP1 JUMPDEST DUP2 SLOAD DUP2 MSTORE SWAP1 PUSH1 0x1 ADD SWAP1 PUSH1 0x20 ADD DUP1 DUP4 GT PUSH2 0xE18 JUMPI DUP3 SWAP1 SUB PUSH1 0x1F AND DUP3 ADD SWAP2 JUMPDEST POP POP POP POP POP SWAP1 POP PUSH2 0xE81 JUMP JUMPDEST DUP2 PUSH1 0x2 ADD PUSH1 0x40 MLOAD PUSH2 0xE52 SWAP2 SWAP1 PUSH2 0x222E JUMP JUMPDEST PUSH1 0x40 MLOAD DUP1 SWAP2 SUB SWAP1 KECCAK256 DUP3 PUSH1 0x3 ADD PUSH1 0x40 MLOAD PUSH1 0x20 ADD PUSH2 0xE6F SWAP3 SWAP2 SWAP1 PUSH2 0x230F JUMP JUMPDEST PUSH1 0x40 MLOAD PUSH1 0x20 DUP2 DUP4 SUB SUB DUP2 MSTORE SWAP1 PUSH1 0x40 MSTORE SWAP1 POP JUMPDEST PUSH0 DUP1 DUP4 PUSH0 ADD PUSH0 SWAP1 SLOAD SWAP1 PUSH2 0x100 EXP SWAP1 DIV PUSH20 0xFFFFFFFFFFFFFFFFFFFFFFFFFFFFFFFFFFFFFFFF AND PUSH20 0xFFFFFFFFFFFFFFFFFFFFFFFFFFFFFFFFFFFFFFFF AND DUP5 PUSH1 0x1 ADD SLOAD DUP5 PUSH1 0x40 MLOAD PUSH2 0xECF SWAP2 SWAP1 PUSH2 0x2366 JUMP JUMPDEST PUSH0 PUSH1 0x40 MLOAD DUP1 DUP4 SUB DUP2 DUP6 DUP8 GAS CALL SWAP3 POP POP POP RETURNDATASIZE DUP1 PUSH0 DUP2 EQ PUSH2 0xF09 JUMPI PUSH1 0x40 MLOAD SWAP2 POP PUSH1 0x1F NOT PUSH1 0x3F RETURNDATASIZE ADD AND DUP3 ADD PUSH1 0x40 MSTORE RETURNDATASIZE DUP3 MSTORE RETURNDATASIZE PUSH0 PUSH1 0x20 DUP5 ADD RETURNDATACOPY PUSH2 0xF0E JUMP JUMPDEST PUSH1 0x60 SWAP2 POP JUMPDEST POP SWAP2 POP SWAP2 POP DUP2 PUSH2 0xF1D DUP3 PUSH2 0x123F JUMP JUMPDEST SWAP1 PUSH2 0xF5E JUMPI PUSH1 0x40 MLOAD PUSH32 0x8C379A000000000000000000000000000000000000000000000000000000000 DUP2 MSTORE PUSH1 0x4 ADD PUSH2 0xF55 SWAP2 SWAP1 PUSH2 0x237C JUMP JUMPDEST PUSH1 0x40 MLOAD DUP1 SWAP2 SUB SWAP1 REVERT JUMPDEST POP DUP4 PUSH0 ADD PUSH0 SWAP1 SLOAD SWAP1 PUSH2 0x100 EXP SWAP1 DIV PUSH20 0xFFFFFFFFFFFFFFFFFFFFFFFFFFFFFFFFFFFFFFFF AND PUSH20 0xFFFFFFFFFFFFFFFFFFFFFFFFFFFFFFFFFFFFFFFF AND DUP6 PUSH32 0xC575CA257BFE46BEAC39C1F7D71DB181BD749FB764C569F8D40F94B4F196A8E4 DUP7 PUSH1 0x1 ADD SLOAD DUP8 PUSH1 0x2 ADD DUP9 PUSH1 0x3 ADD PUSH1 0x40 MLOAD PUSH2 0xFD6 SWAP4 SWAP3 SWAP2 SWAP1 PUSH2 0x249E JUMP JUMPDEST PUSH1 0x40 MLOAD DUP1 SWAP2 SUB SWAP1 LOG3 POP POP POP POP PUSH1 0x1 PUSH1 0x4 DUP2 SWAP1 SSTORE POP POP JUMP JUMPDEST PUSH0 DUP5 DUP5 DUP5 DUP5 PUSH1 0x40 MLOAD PUSH1 0x20 ADD PUSH2 0x1005 SWAP5 SWAP4 SWAP3 SWAP2 SWAP1 PUSH2 0x24E1 JUMP JUMPDEST PUSH1 0x40 MLOAD PUSH1 0x20 DUP2 DUP4 SUB SUB DUP2 MSTORE SWAP1 PUSH1 0x40 MSTORE DUP1 MLOAD SWAP1 PUSH1 0x20 ADD KECCAK256 SWAP1 POP SWAP5 SWAP4 POP POP POP POP JUMP JUMPDEST PUSH1 0x2 PUSH0 SWAP1 SLOAD SWAP1 PUSH2 0x100 EXP SWAP1 DIV PUSH20 0xFFFFFFFFFFFFFFFFFFFFFFFFFFFFFFFFFFFFFFFF AND PUSH20 0xFFFFFFFFFFFFFFFFFFFFFFFFFFFFFFFFFFFFFFFF AND CALLER PUSH20 0xFFFFFFFFFFFFFFFFFFFFFFFFFFFFFFFFFFFFFFFF AND EQ PUSH2 0x10B4 JUMPI PUSH1 0x40 MLOAD PUSH32 0x8C379A000000000000000000000000000000000000000000000000000000000 DUP2 MSTORE PUSH1 0x4 ADD PUSH2 0x10AB SWAP1 PUSH2 0x18B9 JUMP JUMPDEST PUSH1 0x40 MLOAD DUP1 SWAP2 SUB SWAP1 REVERT JUMPDEST PUSH0 DUP2 GT PUSH2 0x10F6 JUMPI PUSH1 0x40 MLOAD PUSH32 0x8C379A000000000000000000000000000000000000000000000000000000000 DUP2 MSTORE PUSH1 0x4 ADD PUSH2 0x10ED SWAP1 PUSH2 0x257C JUMP JUMPDEST PUSH1 0x40 MLOAD DUP1 SWAP2 SUB SWAP1 REVERT JUMPDEST DUP1 PUSH0 DUP2 SWAP1 SSTORE POP POP JUMP JUMPDEST PUSH1 0x2 PUSH0 SWAP1 SLOAD SWAP1 PUSH2 0x100 EXP SWAP1 DIV PUSH20 0xFFFFFFFFFFFFFFFFFFFFFFFFFFFFFFFFFFFFFFFF AND PUSH20 0xFFFFFFFFFFFFFFFFFFFFFFFFFFFFFFFFFFFFFFFF AND CALLER PUSH20 0xFFFFFFFFFFFFFFFFFFFFFFFFFFFFFFFFFFFFFFFF AND EQ PUSH2 0x118E JUMPI PUSH1 0x40 MLOAD PUSH32 0x8C379A000000000000000000000000000000000000000000000000000000000 DUP2 MSTORE PUSH1 0x4 ADD PUSH2 0x1185 SWAP1 PUSH2 0x18B9 JUMP JUMPDEST PUSH1 0x40 MLOAD DUP1 SWAP2 SUB SWAP1 REVERT JUMPDEST PUSH0 PUSH20 0xFFFFFFFFFFFFFFFFFFFFFFFFFFFFFFFFFFFFFFFF AND DUP2 PUSH20 0xFFFFFFFFFFFFFFFFFFFFFFFFFFFFFFFFFFFFFFFF AND SUB PUSH2 0x11FC JUMPI PUSH1 0x40 MLOAD PUSH32 0x8C379A000000000000000000000000000000000000000000000000000000000 DUP2 MSTORE PUSH1 0x4 ADD PUSH2 0x11F3 SWAP1 PUSH2 0x25E4 JUMP JUMPDEST PUSH1 0x40 MLOAD DUP1 SWAP2 SUB SWAP1 REVERT JUMPDEST DUP1 PUSH1 0x2 PUSH0 PUSH2 0x100 EXP DUP2 SLOAD DUP2 PUSH20 0xFFFFFFFFFFFFFFFFFFFFFFFFFFFFFFFFFFFFFFFF MUL NOT AND SWAP1 DUP4 PUSH20 0xFFFFFFFFFFFFFFFFFFFFFFFFFFFFFFFFFFFFFFFF AND MUL OR SWAP1 SSTORE POP POP JUMP JUMPDEST PUSH1 0x60 PUSH1 0x44 DUP3 MLOAD LT ISZERO PUSH2 0x126B JUMPI PUSH1 0x40 MLOAD DUP1 PUSH1 0x60 ADD PUSH1 0x40 MSTORE DUP1 PUSH1 0x27 DUP2 MSTORE PUSH1 0x20 ADD PUSH2 0x26B8 PUSH1 0x27 SWAP2 CODECOPY SWAP1 POP PUSH2 0x1288 JUMP JUMPDEST PUSH1 0x4 DUP3 ADD SWAP2 POP DUP2 DUP1 PUSH1 0x20 ADD SWAP1 MLOAD DUP2 ADD SWAP1 PUSH2 0x1285 SWAP2 SWAP1 PUSH2 0x2670 JUMP JUMPDEST SWAP1 POP JUMPDEST SWAP2 SWAP1 POP JUMP JUMPDEST PUSH0 DUP2 SWAP1 POP SWAP2 SWAP1 POP JUMP JUMPDEST PUSH2 0x129F DUP2 PUSH2 0x128D JUMP JUMPDEST DUP3 MSTORE POP POP JUMP JUMPDEST PUSH0 PUSH1 0x20 DUP3 ADD SWAP1 POP PUSH2 0x12B8 PUSH0 DUP4 ADD DUP5 PUSH2 0x1296 JUMP JUMPDEST SWAP3 SWAP2 POP POP JUMP JUMPDEST PUSH0 PUSH1 0x40 MLOAD SWAP1 POP SWAP1 JUMP JUMPDEST PUSH0 DUP1 REVERT JUMPDEST PUSH0 DUP1 REVERT JUMPDEST PUSH0 DUP2 SWAP1 POP SWAP2 SWAP1 POP JUMP JUMPDEST PUSH2 0x12E1 DUP2 PUSH2 0x12CF JUMP JUMPDEST DUP2 EQ PUSH2 0x12EB JUMPI PUSH0 DUP1 REVERT JUMPDEST POP JUMP JUMPDEST PUSH0 DUP2 CALLDATALOAD SWAP1 POP PUSH2 0x12FC DUP2 PUSH2 0x12D8 JUMP JUMPDEST SWAP3 SWAP2 POP POP JUMP JUMPDEST PUSH0 PUSH1 0x20 DUP3 DUP5 SUB SLT ISZERO PUSH2 0x1317 JUMPI PUSH2 0x1316 PUSH2 0x12C7 JUMP JUMPDEST JUMPDEST PUSH0 PUSH2 0x1324 DUP5 DUP3 DUP6 ADD PUSH2 0x12EE JUMP JUMPDEST SWAP2 POP POP SWAP3 SWAP2 POP POP JUMP JUMPDEST PUSH0 DUP2 ISZERO ISZERO SWAP1 POP SWAP2 SWAP1 POP JUMP JUMPDEST PUSH2 0x1341 DUP2 PUSH2 0x132D JUMP JUMPDEST DUP3 MSTORE POP POP JUMP JUMPDEST PUSH0 PUSH1 0x60 DUP3 ADD SWAP1 POP PUSH2 0x135A PUSH0 DUP4 ADD DUP7 PUSH2 0x1338 JUMP JUMPDEST PUSH2 0x1367 PUSH1 0x20 DUP4 ADD DUP6 PUSH2 0x1338 JUMP JUMPDEST PUSH2 0x1374 PUSH1 0x40 DUP4 ADD DUP5 PUSH2 0x1338 JUMP JUMPDEST SWAP5 SWAP4 POP POP POP POP JUMP JUMPDEST PUSH0 PUSH20 0xFFFFFFFFFFFFFFFFFFFFFFFFFFFFFFFFFFFFFFFF DUP3 AND SWAP1 POP SWAP2 SWAP1 POP JUMP JUMPDEST PUSH0 PUSH2 0x13A5 DUP3 PUSH2 0x137C JUMP JUMPDEST SWAP1 POP SWAP2 SWAP1 POP JUMP JUMPDEST PUSH2 0x13B5 DUP2 PUSH2 0x139B JUMP JUMPDEST DUP3 MSTORE POP POP JUMP JUMPDEST PUSH0 PUSH1 0x20 DUP3 ADD SWAP1 POP PUSH2 0x13CE PUSH0 DUP4 ADD DUP5 PUSH2 0x13AC JUMP JUMPDEST SWAP3 SWAP2 POP POP JUMP JUMPDEST PUSH2 0x13DD DUP2 PUSH2 0x139B JUMP JUMPDEST DUP2 EQ PUSH2 0x13E7 JUMPI PUSH0 DUP1 REVERT JUMPDEST POP JUMP JUMPDEST PUSH0 DUP2 CALLDATALOAD SWAP1 POP PUSH2 0x13F8 DUP2 PUSH2 0x13D4 JUMP JUMPDEST SWAP3 SWAP2 POP POP JUMP JUMPDEST PUSH2 0x1407 DUP2 PUSH2 0x128D JUMP JUMPDEST DUP2 EQ PUSH2 0x1411 JUMPI PUSH0 DUP1 REVERT JUMPDEST POP JUMP JUMPDEST PUSH0 DUP2 CALLDATALOAD SWAP1 POP PUSH2 0x1422 DUP2 PUSH2 0x13FE JUMP JUMPDEST SWAP3 SWAP2 POP POP JUMP JUMPDEST PUSH0 DUP1 REVERT JUMPDEST PUSH0 DUP1 REVERT JUMPDEST PUSH0 PUSH1 0x1F NOT PUSH1 0x1F DUP4 ADD AND SWAP1 POP SWAP2 SWAP1 POP JUMP JUMPDEST PUSH32 0x4E487B7100000000000000000000000000000000000000000000000000000000 PUSH0 MSTORE PUSH1 0x41 PUSH1 0x4 MSTORE PUSH1 0x24 PUSH0 REVERT JUMPDEST PUSH2 0x1476 DUP3 PUSH2 0x1430 JUMP JUMPDEST DUP2 ADD DUP2 DUP2 LT PUSH8 0xFFFFFFFFFFFFFFFF DUP3 GT OR ISZERO PUSH2 0x1495 JUMPI PUSH2 0x1494 PUSH2 0x1440 JUMP JUMPDEST JUMPDEST DUP1 PUSH1 0x40 MSTORE POP POP POP JUMP JUMPDEST PUSH0 PUSH2 0x14A7 PUSH2 0x12BE JUMP JUMPDEST SWAP1 POP PUSH2 0x14B3 DUP3 DUP3 PUSH2 0x146D JUMP JUMPDEST SWAP2 SWAP1 POP JUMP JUMPDEST PUSH0 PUSH8 0xFFFFFFFFFFFFFFFF DUP3 GT ISZERO PUSH2 0x14D2 JUMPI PUSH2 0x14D1 PUSH2 0x1440 JUMP JUMPDEST JUMPDEST PUSH2 0x14DB DUP3 PUSH2 0x1430 JUMP JUMPDEST SWAP1 POP PUSH1 0x20 DUP2 ADD SWAP1 POP SWAP2 SWAP1 POP JUMP JUMPDEST DUP3 DUP2 DUP4 CALLDATACOPY PUSH0 DUP4 DUP4 ADD MSTORE POP POP POP JUMP JUMPDEST PUSH0 PUSH2 0x1508 PUSH2 0x1503 DUP5 PUSH2 0x14B8 JUMP JUMPDEST PUSH2 0x149E JUMP JUMPDEST SWAP1 POP DUP3 DUP2 MSTORE PUSH1 0x20 DUP2 ADD DUP5 DUP5 DUP5 ADD GT ISZERO PUSH2 0x1524 JUMPI PUSH2 0x1523 PUSH2 0x142C JUMP JUMPDEST JUMPDEST PUSH2 0x152F DUP5 DUP3 DUP6 PUSH2 0x14E8 JUMP JUMPDEST POP SWAP4 SWAP3 POP POP POP JUMP JUMPDEST PUSH0 DUP3 PUSH1 0x1F DUP4 ADD SLT PUSH2 0x154B JUMPI PUSH2 0x154A PUSH2 0x1428 JUMP JUMPDEST JUMPDEST DUP2 CALLDATALOAD PUSH2 0x155B DUP5 DUP3 PUSH1 0x20 DUP7 ADD PUSH2 0x14F6 JUMP JUMPDEST SWAP2 POP POP SWAP3 SWAP2 POP POP JUMP JUMPDEST PUSH0 PUSH8 0xFFFFFFFFFFFFFFFF DUP3 GT ISZERO PUSH2 0x157E JUMPI PUSH2 0x157D PUSH2 0x1440 JUMP JUMPDEST JUMPDEST PUSH2 0x1587 DUP3 PUSH2 0x1430 JUMP JUMPDEST SWAP1 POP PUSH1 0x20 DUP2 ADD SWAP1 POP SWAP2 SWAP1 POP JUMP JUMPDEST PUSH0 PUSH2 0x15A6 PUSH2 0x15A1 DUP5 PUSH2 0x1564 JUMP JUMPDEST PUSH2 0x149E JUMP JUMPDEST SWAP1 POP DUP3 DUP2 MSTORE PUSH1 0x20 DUP2 ADD DUP5 DUP5 DUP5 ADD GT ISZERO PUSH2 0x15C2 JUMPI PUSH2 0x15C1 PUSH2 0x142C JUMP JUMPDEST JUMPDEST PUSH2 0x15CD DUP5 DUP3 DUP6 PUSH2 0x14E8 JUMP JUMPDEST POP SWAP4 SWAP3 POP POP POP JUMP JUMPDEST PUSH0 DUP3 PUSH1 0x1F DUP4 ADD SLT PUSH2 0x15E9 JUMPI PUSH2 0x15E8 PUSH2 0x1428 JUMP JUMPDEST JUMPDEST DUP2 CALLDATALOAD PUSH2 0x15F9 DUP5 DUP3 PUSH1 0x20 DUP7 ADD PUSH2 0x1594 JUMP JUMPDEST SWAP2 POP POP SWAP3 SWAP2 POP POP JUMP JUMPDEST PUSH0 DUP1 PUSH0 DUP1 PUSH1 0x80 DUP6 DUP8 SUB SLT ISZERO PUSH2 0x161A JUMPI PUSH2 0x1619 PUSH2 0x12C7 JUMP JUMPDEST JUMPDEST PUSH0 PUSH2 0x1627 DUP8 DUP3 DUP9 ADD PUSH2 0x13EA JUMP JUMPDEST SWAP5 POP POP PUSH1 0x20 PUSH2 0x1638 DUP8 DUP3 DUP9 ADD PUSH2 0x1414 JUMP JUMPDEST SWAP4 POP POP PUSH1 0x40 DUP6 ADD CALLDATALOAD PUSH8 0xFFFFFFFFFFFFFFFF DUP2 GT ISZERO PUSH2 0x1659 JUMPI PUSH2 0x1658 PUSH2 0x12CB JUMP JUMPDEST JUMPDEST PUSH2 0x1665 DUP8 DUP3 DUP9 ADD PUSH2 0x1537 JUMP JUMPDEST SWAP3 POP POP PUSH1 0x60 DUP6 ADD CALLDATALOAD PUSH8 0xFFFFFFFFFFFFFFFF DUP2 GT ISZERO PUSH2 0x1686 JUMPI PUSH2 0x1685 PUSH2 0x12CB JUMP JUMPDEST JUMPDEST PUSH2 0x1692 DUP8 DUP3 DUP9 ADD PUSH2 0x15D5 JUMP JUMPDEST SWAP2 POP POP SWAP3 SWAP6 SWAP2 SWAP5 POP SWAP3 POP JUMP JUMPDEST PUSH2 0x16A7 DUP2 PUSH2 0x12CF JUMP JUMPDEST DUP3 MSTORE POP POP JUMP JUMPDEST PUSH0 PUSH1 0x20 DUP3 ADD SWAP1 POP PUSH2 0x16C0 PUSH0 DUP4 ADD DUP5 PUSH2 0x169E JUMP JUMPDEST SWAP3 SWAP2 POP POP JUMP JUMPDEST PUSH0 DUP2 MLOAD SWAP1 POP SWAP2 SWAP1 POP JUMP JUMPDEST PUSH0 DUP3 DUP3 MSTORE PUSH1 0x20 DUP3 ADD SWAP1 POP SWAP3 SWAP2 POP POP JUMP JUMPDEST DUP3 DUP2 DUP4 MCOPY PUSH0 DUP4 DUP4 ADD MSTORE POP POP POP JUMP JUMPDEST PUSH0 PUSH2 0x16F8 DUP3 PUSH2 0x16C6 JUMP JUMPDEST PUSH2 0x1702 DUP2 DUP6 PUSH2 0x16D0 JUMP JUMPDEST SWAP4 POP PUSH2 0x1712 DUP2 DUP6 PUSH1 0x20 DUP7 ADD PUSH2 0x16E0 JUMP JUMPDEST PUSH2 0x171B DUP2 PUSH2 0x1430 JUMP JUMPDEST DUP5 ADD SWAP2 POP POP SWAP3 SWAP2 POP POP JUMP JUMPDEST PUSH0 DUP2 MLOAD SWAP1 POP SWAP2 SWAP1 POP JUMP JUMPDEST PUSH0 DUP3 DUP3 MSTORE PUSH1 0x20 DUP3 ADD SWAP1 POP SWAP3 SWAP2 POP POP JUMP JUMPDEST PUSH0 PUSH2 0x174A DUP3 PUSH2 0x1726 JUMP JUMPDEST PUSH2 0x1754 DUP2 DUP6 PUSH2 0x1730 JUMP JUMPDEST SWAP4 POP PUSH2 0x1764 DUP2 DUP6 PUSH1 0x20 DUP7 ADD PUSH2 0x16E0 JUMP JUMPDEST PUSH2 0x176D DUP2 PUSH2 0x1430 JUMP JUMPDEST DUP5 ADD SWAP2 POP POP SWAP3 SWAP2 POP POP JUMP JUMPDEST PUSH0 PUSH1 0xE0 DUP3 ADD SWAP1 POP PUSH2 0x178B PUSH0 DUP4 ADD DUP11 PUSH2 0x13AC JUMP JUMPDEST PUSH2 0x1798 PUSH1 0x20 DUP4 ADD DUP10 PUSH2 0x1296 JUMP JUMPDEST DUP2 DUP2 SUB PUSH1 0x40 DUP4 ADD MSTORE PUSH2 0x17AA DUP2 DUP9 PUSH2 0x16EE JUMP JUMPDEST SWAP1 POP DUP2 DUP2 SUB PUSH1 0x60 DUP4 ADD MSTORE PUSH2 0x17BE DUP2 DUP8 PUSH2 0x1740 JUMP JUMPDEST SWAP1 POP PUSH2 0x17CD PUSH1 0x80 DUP4 ADD DUP7 PUSH2 0x1296 JUMP JUMPDEST PUSH2 0x17DA PUSH1 0xA0 DUP4 ADD DUP6 PUSH2 0x1338 JUMP JUMPDEST PUSH2 0x17E7 PUSH1 0xC0 DUP4 ADD DUP5 PUSH2 0x1338 JUMP JUMPDEST SWAP9 SWAP8 POP POP POP POP POP POP POP POP JUMP JUMPDEST PUSH0 PUSH1 0x20 DUP3 DUP5 SUB SLT ISZERO PUSH2 0x1808 JUMPI PUSH2 0x1807 PUSH2 0x12C7 JUMP JUMPDEST JUMPDEST PUSH0 PUSH2 0x1815 DUP5 DUP3 DUP6 ADD PUSH2 0x1414 JUMP JUMPDEST SWAP2 POP POP SWAP3 SWAP2 POP POP JUMP JUMPDEST PUSH0 PUSH1 0x20 DUP3 DUP5 SUB SLT ISZERO PUSH2 0x1833 JUMPI PUSH2 0x1832 PUSH2 0x12C7 JUMP JUMPDEST JUMPDEST PUSH0 PUSH2 0x1840 DUP5 DUP3 DUP6 ADD PUSH2 0x13EA JUMP JUMPDEST SWAP2 POP POP SWAP3 SWAP2 POP POP JUMP JUMPDEST PUSH32 0x54696D656C6F636B3A2063616C6C6572206973206E6F7420746865206F776E65 PUSH0 DUP3 ADD MSTORE PUSH32 0x7200000000000000000000000000000000000000000000000000000000000000 PUSH1 0x20 DUP3 ADD MSTORE POP JUMP JUMPDEST PUSH0 PUSH2 0x18A3 PUSH1 0x21 DUP4 PUSH2 0x16D0 JUMP JUMPDEST SWAP2 POP PUSH2 0x18AE DUP3 PUSH2 0x1849 JUMP JUMPDEST PUSH1 0x40 DUP3 ADD SWAP1 POP SWAP2 SWAP1 POP JUMP JUMPDEST PUSH0 PUSH1 0x20 DUP3 ADD SWAP1 POP DUP2 DUP2 SUB PUSH0 DUP4 ADD MSTORE PUSH2 0x18D0 DUP2 PUSH2 0x1897 JUMP JUMPDEST SWAP1 POP SWAP2 SWAP1 POP JUMP JUMPDEST PUSH32 0x54696D656C6F636B3A20696E76616C6964207461726765740000000000000000 PUSH0 DUP3 ADD MSTORE POP JUMP JUMPDEST PUSH0 PUSH2 0x190B PUSH1 0x18 DUP4 PUSH2 0x16D0 JUMP JUMPDEST SWAP2 POP PUSH2 0x1916 DUP3 PUSH2 0x18D7 JUMP JUMPDEST PUSH1 0x20 DUP3 ADD SWAP1 POP SWAP2 SWAP1 POP JUMP JUMPDEST PUSH0 PUSH1 0x20 DUP3 ADD SWAP1 POP DUP2 DUP2 SUB PUSH0 DUP4 ADD MSTORE PUSH2 0x1938 DUP2 PUSH2 0x18FF JUMP JUMPDEST SWAP1 POP SWAP2 SWAP1 POP JUMP JUMPDEST PUSH32 0x54696D656C6F636B3A206F7065726174696F6E20616C72656164792073636865 PUSH0 DUP3 ADD MSTORE PUSH32 0x64756C6564000000000000000000000000000000000000000000000000000000 PUSH1 0x20 DUP3 ADD MSTORE POP JUMP JUMPDEST PUSH0 PUSH2 0x1999 PUSH1 0x25 DUP4 PUSH2 0x16D0 JUMP JUMPDEST SWAP2 POP PUSH2 0x19A4 DUP3 PUSH2 0x193F JUMP JUMPDEST PUSH1 0x40 DUP3 ADD SWAP1 POP SWAP2 SWAP1 POP JUMP JUMPDEST PUSH0 PUSH1 0x20 DUP3 ADD SWAP1 POP DUP2 DUP2 SUB PUSH0 DUP4 ADD MSTORE PUSH2 0x19C6 DUP2 PUSH2 0x198D JUMP JUMPDEST SWAP1 POP SWAP2 SWAP1 POP JUMP JUMPDEST PUSH32 0x4E487B7100000000000000000000000000000000000000000000000000000000 PUSH0 MSTORE PUSH1 0x11 PUSH1 0x4 MSTORE PUSH1 0x24 PUSH0 REVERT JUMPDEST PUSH0 PUSH2 0x1A04 DUP3 PUSH2 0x128D JUMP JUMPDEST SWAP2 POP PUSH2 0x1A0F DUP4 PUSH2 0x128D JUMP JUMPDEST SWAP3 POP DUP3 DUP3 ADD SWAP1 POP DUP1 DUP3 GT ISZERO PUSH2 0x1A27 JUMPI PUSH2 0x1A26 PUSH2 0x19CD JUMP JUMPDEST JUMPDEST SWAP3 SWAP2 POP POP JUMP JUMPDEST PUSH32 0x4E487B7100000000000000000000000000000000000000000000000000000000 PUSH0 MSTORE PUSH1 0x22 PUSH1 0x4 MSTORE PUSH1 0x24 PUSH0 REVERT JUMPDEST PUSH0 PUSH1 0x2 DUP3 DIV SWAP1 POP PUSH1 0x1 DUP3 AND DUP1 PUSH2 0x1A71 JUMPI PUSH1 0x7F DUP3 AND SWAP2 POP JUMPDEST PUSH1 0x20 DUP3 LT DUP2 SUB PUSH2 0x1A84 JUMPI PUSH2 0x1A83 PUSH2 0x1A2D JUMP JUMPDEST JUMPDEST POP SWAP2 SWAP1 POP JUMP JUMPDEST PUSH0 DUP2 SWAP1 POP DUP2 PUSH0 MSTORE PUSH1 0x20 PUSH0 KECCAK256 SWAP1 POP SWAP2 SWAP1 POP JUMP JUMPDEST PUSH0 PUSH1 0x20 PUSH1 0x1F DUP4 ADD DIV SWAP1 POP SWAP2 SWAP1 POP JUMP JUMPDEST PUSH0 DUP3 DUP3 SHL SWAP1 POP SWAP3 SWAP2 POP POP JUMP JUMPDEST PUSH0 PUSH1 0x8 DUP4 MUL PUSH2 0x1AE6 PUSH32 0xFFFFFFFFFFFFFFFFFFFFFFFFFFFFFFFFFFFFFFFFFFFFFFFFFFFFFFFFFFFFFFFF DUP3 PUSH2 0x1AAB JUMP JUMPDEST PUSH2 0x1AF0 DUP7 DUP4 PUSH2 0x1AAB JUMP JUMPDEST SWAP6 POP DUP1 NOT DUP5 AND SWAP4 POP DUP1 DUP7 AND DUP5 OR SWAP3 POP POP POP SWAP4 SWAP3 POP POP POP JUMP JUMPDEST PUSH0 DUP2 SWAP1 POP SWAP2 SWAP1 POP JUMP JUMPDEST PUSH0 PUSH2 0x1B2B PUSH2 0x1B26 PUSH2 0x1B21 DUP5 PUSH2 0x128D JUMP JUMPDEST PUSH2 0x1B08 JUMP JUMPDEST PUSH2 0x128D JUMP JUMPDEST SWAP1 POP SWAP2 SWAP1 POP JUMP JUMPDEST PUSH0 DUP2 SWAP1 POP SWAP2 SWAP1 POP JUMP JUMPDEST PUSH2 0x1B44 DUP4 PUSH2 0x1B11 JUMP JUMPDEST PUSH2 0x1B58 PUSH2 0x1B50 DUP3 PUSH2 0x1B32 JUMP JUMPDEST DUP5 DUP5 SLOAD PUSH2 0x1AB7 JUMP JUMPDEST DUP3 SSTORE POP POP POP POP JUMP JUMPDEST PUSH0 SWAP1 JUMP JUMPDEST PUSH2 0x1B6C PUSH2 0x1B60 JUMP JUMPDEST PUSH2 0x1B77 DUP2 DUP5 DUP5 PUSH2 0x1B3B JUMP JUMPDEST POP POP POP JUMP JUMPDEST JUMPDEST DUP2 DUP2 LT ISZERO PUSH2 0x1B9A JUMPI PUSH2 0x1B8F PUSH0 DUP3 PUSH2 0x1B64 JUMP JUMPDEST PUSH1 0x1 DUP2 ADD SWAP1 POP PUSH2 0x1B7D JUMP JUMPDEST POP POP JUMP JUMPDEST PUSH1 0x1F DUP3 GT ISZERO PUSH2 0x1BDF JUMPI PUSH2 0x1BB0 DUP2 PUSH2 0x1A8A JUMP JUMPDEST PUSH2 0x1BB9 DUP5 PUSH2 0x1A9C JUMP JUMPDEST DUP2 ADD PUSH1 0x20 DUP6 LT ISZERO PUSH2 0x1BC8 JUMPI DUP2 SWAP1 POP JUMPDEST PUSH2 0x1BDC PUSH2 0x1BD4 DUP6 PUSH2 0x1A9C JUMP JUMPDEST DUP4 ADD DUP3 PUSH2 0x1B7C JUMP JUMPDEST POP POP JUMPDEST POP POP POP JUMP JUMPDEST PUSH0 DUP3 DUP3 SHR SWAP1 POP SWAP3 SWAP2 POP POP JUMP JUMPDEST PUSH0 PUSH2 0x1BFF PUSH0 NOT DUP5 PUSH1 0x8 MUL PUSH2 0x1BE4 JUMP JUMPDEST NOT DUP1 DUP4 AND SWAP2 POP POP SWAP3 SWAP2 POP POP JUMP JUMPDEST PUSH0 PUSH2 0x1C17 DUP4 DUP4 PUSH2 0x1BF0 JUMP JUMPDEST SWAP2 POP DUP3 PUSH1 0x2 MUL DUP3 OR SWAP1 POP SWAP3 SWAP2 POP POP JUMP JUMPDEST PUSH2 0x1C30 DUP3 PUSH2 0x16C6 JUMP JUMPDEST PUSH8 0xFFFFFFFFFFFFFFFF DUP2 GT ISZERO PUSH2 0x1C49 JUMPI PUSH2 0x1C48 PUSH2 0x1440 JUMP JUMPDEST JUMPDEST PUSH2 0x1C53 DUP3 SLOAD PUSH2 0x1A5A JUMP JUMPDEST PUSH2 0x1C5E DUP3 DUP3 DUP6 PUSH2 0x1B9E JUMP JUMPDEST PUSH0 PUSH1 0x20 SWAP1 POP PUSH1 0x1F DUP4 GT PUSH1 0x1 DUP2 EQ PUSH2 0x1C8F JUMPI PUSH0 DUP5 ISZERO PUSH2 0x1C7D JUMPI DUP3 DUP8 ADD MLOAD SWAP1 POP JUMPDEST PUSH2 0x1C87 DUP6 DUP3 PUSH2 0x1C0C JUMP JUMPDEST DUP7 SSTORE POP PUSH2 0x1CEE JUMP JUMPDEST PUSH1 0x1F NOT DUP5 AND PUSH2 0x1C9D DUP7 PUSH2 0x1A8A JUMP JUMPDEST PUSH0 JUMPDEST DUP3 DUP2 LT ISZERO PUSH2 0x1CC4 JUMPI DUP5 DUP10 ADD MLOAD DUP3 SSTORE PUSH1 0x1 DUP3 ADD SWAP2 POP PUSH1 0x20 DUP6 ADD SWAP5 POP PUSH1 0x20 DUP2 ADD SWAP1 POP PUSH2 0x1C9F JUMP JUMPDEST DUP7 DUP4 LT ISZERO PUSH2 0x1CE1 JUMPI DUP5 DUP10 ADD MLOAD PUSH2 0x1CDD PUSH1 0x1F DUP10 AND DUP3 PUSH2 0x1BF0 JUMP JUMPDEST DUP4 SSTORE POP JUMPDEST PUSH1 0x1 PUSH1 0x2 DUP9 MUL ADD DUP9 SSTORE POP POP POP JUMPDEST POP POP POP POP POP POP JUMP JUMPDEST PUSH0 DUP2 SWAP1 POP DUP2 PUSH0 MSTORE PUSH1 0x20 PUSH0 KECCAK256 SWAP1 POP SWAP2 SWAP1 POP JUMP JUMPDEST PUSH1 0x1F DUP3 GT ISZERO PUSH2 0x1D49 JUMPI PUSH2 0x1D1A DUP2 PUSH2 0x1CF6 JUMP JUMPDEST PUSH2 0x1D23 DUP5 PUSH2 0x1A9C JUMP JUMPDEST DUP2 ADD PUSH1 0x20 DUP6 LT ISZERO PUSH2 0x1D32 JUMPI DUP2 SWAP1 POP JUMPDEST PUSH2 0x1D46 PUSH2 0x1D3E DUP6 PUSH2 0x1A9C JUMP JUMPDEST DUP4 ADD DUP3 PUSH2 0x1B7C JUMP JUMPDEST POP POP JUMPDEST POP POP POP JUMP JUMPDEST PUSH2 0x1D57 DUP3 PUSH2 0x1726 JUMP JUMPDEST PUSH8 0xFFFFFFFFFFFFFFFF DUP2 GT ISZERO PUSH2 0x1D70 JUMPI PUSH2 0x1D6F PUSH2 0x1440 JUMP JUMPDEST JUMPDEST PUSH2 0x1D7A DUP3 SLOAD PUSH2 0x1A5A JUMP JUMPDEST PUSH2 0x1D85 DUP3 DUP3 DUP6 PUSH2 0x1D08 JUMP JUMPDEST PUSH0 PUSH1 0x20 SWAP1 POP PUSH1 0x1F DUP4 GT PUSH1 0x1 DUP2 EQ PUSH2 0x1DB6 JUMPI PUSH0 DUP5 ISZERO PUSH2 0x1DA4 JUMPI DUP3 DUP8 ADD MLOAD SWAP1 POP JUMPDEST PUSH2 0x1DAE DUP6 DUP3 PUSH2 0x1C0C JUMP JUMPDEST DUP7 SSTORE POP PUSH2 0x1E15 JUMP JUMPDEST PUSH1 0x1F NOT DUP5 AND PUSH2 0x1DC4 DUP7 PUSH2 0x1CF6 JUMP JUMPDEST PUSH0 JUMPDEST DUP3 DUP2 LT ISZERO PUSH2 0x1DEB JUMPI DUP5 DUP10 ADD MLOAD DUP3 SSTORE PUSH1 0x1 DUP3 ADD SWAP2 POP PUSH1 0x20 DUP6 ADD SWAP5 POP PUSH1 0x20 DUP2 ADD SWAP1 POP PUSH2 0x1DC6 JUMP JUMPDEST DUP7 DUP4 LT ISZERO PUSH2 0x1E08 JUMPI DUP5 DUP10 ADD MLOAD PUSH2 0x1E04 PUSH1 0x1F DUP10 AND DUP3 PUSH2 0x1BF0 JUMP JUMPDEST DUP4 SSTORE POP JUMPDEST PUSH1 0x1 PUSH1 0x2 DUP9 MUL ADD DUP9 SSTORE POP POP POP JUMPDEST POP POP POP POP POP POP JUMP JUMPDEST PUSH0 PUSH1 0x80 DUP3 ADD SWAP1 POP PUSH2 0x1E30 PUSH0 DUP4 ADD DUP8 PUSH2 0x1296 JUMP JUMPDEST DUP2 DUP2 SUB PUSH1 0x20 DUP4 ADD MSTORE PUSH2 0x1E42 DUP2 DUP7 PUSH2 0x16EE JUMP JUMPDEST SWAP1 POP DUP2 DUP2 SUB PUSH1 0x40 DUP4 ADD MSTORE PUSH2 0x1E56 DUP2 DUP6 PUSH2 0x1740 JUMP JUMPDEST SWAP1 POP PUSH2 0x1E65 PUSH1 0x60 DUP4 ADD DUP5 PUSH2 0x1296 JUMP JUMPDEST SWAP6 SWAP5 POP POP POP POP POP JUMP JUMPDEST PUSH32 0x54696D656C6F636B3A20756E6B6E6F776E206F7065726174696F6E0000000000 PUSH0 DUP3 ADD MSTORE POP JUMP JUMPDEST PUSH0 PUSH2 0x1EA2 PUSH1 0x1B DUP4 PUSH2 0x16D0 JUMP JUMPDEST SWAP2 POP PUSH2 0x1EAD DUP3 PUSH2 0x1E6E JUMP JUMPDEST PUSH1 0x20 DUP3 ADD SWAP1 POP SWAP2 SWAP1 POP JUMP JUMPDEST PUSH0 PUSH1 0x20 DUP3 ADD SWAP1 POP DUP2 DUP2 SUB PUSH0 DUP4 ADD MSTORE PUSH2 0x1ECF DUP2 PUSH2 0x1E96 JUMP JUMPDEST SWAP1 POP SWAP2 SWAP1 POP JUMP JUMPDEST PUSH32 0x54696D656C6F636B3A206F7065726174696F6E20616C72656164792065786563 PUSH0 DUP3 ADD MSTORE PUSH32 0x7574656400000000000000000000000000000000000000000000000000000000 PUSH1 0x20 DUP3 ADD MSTORE POP JUMP JUMPDEST PUSH0 PUSH2 0x1F30 PUSH1 0x24 DUP4 PUSH2 0x16D0 JUMP JUMPDEST SWAP2 POP PUSH2 0x1F3B DUP3 PUSH2 0x1ED6 JUMP JUMPDEST PUSH1 0x40 DUP3 ADD SWAP1 POP SWAP2 SWAP1 POP JUMP JUMPDEST PUSH0 PUSH1 0x20 DUP3 ADD SWAP1 POP DUP2 DUP2 SUB PUSH0 DUP4 ADD MSTORE PUSH2 0x1F5D DUP2 PUSH2 0x1F24 JUMP JUMPDEST SWAP1 POP SWAP2 SWAP1 POP JUMP JUMPDEST PUSH32 0x54696D656C6F636B3A206F7065726174696F6E20616C72656164792063616E63 PUSH0 DUP3 ADD MSTORE PUSH32 0x656C656400000000000000000000000000000000000000000000000000000000 PUSH1 0x20 DUP3 ADD MSTORE POP JUMP JUMPDEST PUSH0 PUSH2 0x1FBE PUSH1 0x24 DUP4 PUSH2 0x16D0 JUMP JUMPDEST SWAP2 POP PUSH2 0x1FC9 DUP3 PUSH2 0x1F64 JUMP JUMPDEST PUSH1 0x40 DUP3 ADD SWAP1 POP SWAP2 SWAP1 POP JUMP JUMPDEST PUSH0 PUSH1 0x20 DUP3 ADD SWAP1 POP DUP2 DUP2 SUB PUSH0 DUP4 ADD MSTORE PUSH2 0x1FEB DUP2 PUSH2 0x1FB2 JUMP JUMPDEST SWAP1 POP SWAP2 SWAP1 POP JUMP JUMPDEST PUSH32 0x54696D656C6F636B3A207265656E7472616E742063616C6C0000000000000000 PUSH0 DUP3 ADD MSTORE POP JUMP JUMPDEST PUSH0 PUSH2 0x2026 PUSH1 0x18 DUP4 PUSH2 0x16D0 JUMP JUMPDEST SWAP2 POP PUSH2 0x2031 DUP3 PUSH2 0x1FF2 JUMP JUMPDEST PUSH1 0x20 DUP3 ADD SWAP1 POP SWAP2 SWAP1 POP JUMP JUMPDEST PUSH0 PUSH1 0x20 DUP3 ADD SWAP1 POP DUP2 DUP2 SUB PUSH0 DUP4 ADD MSTORE PUSH2 0x2053 DUP2 PUSH2 0x201A JUMP JUMPDEST SWAP1 POP SWAP2 SWAP1 POP JUMP JUMPDEST PUSH32 0x54696D656C6F636B3A206F7065726174696F6E2063616E63656C656400000000 PUSH0 DUP3 ADD MSTORE POP JUMP JUMPDEST PUSH0 PUSH2 0x208E PUSH1 0x1C DUP4 PUSH2 0x16D0 JUMP JUMPDEST SWAP2 POP PUSH2 0x2099 DUP3 PUSH2 0x205A JUMP JUMPDEST PUSH1 0x20 DUP3 ADD SWAP1 POP SWAP2 SWAP1 POP JUMP JUMPDEST PUSH0 PUSH1 0x20 DUP3 ADD SWAP1 POP DUP2 DUP2 SUB PUSH0 DUP4 ADD MSTORE PUSH2 0x20BB DUP2 PUSH2 0x2082 JUMP JUMPDEST SWAP1 POP SWAP2 SWAP1 POP JUMP JUMPDEST PUSH32 0x54696D656C6F636B3A20746F6F206561726C7900000000000000000000000000 PUSH0 DUP3 ADD MSTORE POP JUMP JUMPDEST PUSH0 PUSH2 0x20F6 PUSH1 0x13 DUP4 PUSH2 0x16D0 JUMP JUMPDEST SWAP2 POP PUSH2 0x2101 DUP3 PUSH2 0x20C2 JUMP JUMPDEST PUSH1 0x20 DUP3 ADD SWAP1 POP SWAP2 SWAP1 POP JUMP JUMPDEST PUSH0 PUSH1 0x20 DUP3 ADD SWAP1 POP DUP2 DUP2 SUB PUSH0 DUP4 ADD MSTORE PUSH2 0x2123 DUP2 PUSH2 0x20EA JUMP JUMPDEST SWAP1 POP SWAP2 SWAP1 POP JUMP JUMPDEST PUSH32 0x54696D656C6F636B3A206F7065726174696F6E20657870697265640000000000 PUSH0 DUP3 ADD MSTORE POP JUMP JUMPDEST PUSH0 PUSH2 0x215E PUSH1 0x1B DUP4 PUSH2 0x16D0 JUMP JUMPDEST SWAP2 POP PUSH2 0x2169 DUP3 PUSH2 0x212A JUMP JUMPDEST PUSH1 0x20 DUP3 ADD SWAP1 POP SWAP2 SWAP1 POP JUMP JUMPDEST PUSH0 PUSH1 0x20 DUP3 ADD SWAP1 POP DUP2 DUP2 SUB PUSH0 DUP4 ADD MSTORE PUSH2 0x218B DUP2 PUSH2 0x2152 JUMP JUMPDEST SWAP1 POP SWAP2 SWAP1 POP JUMP JUMPDEST PUSH0 DUP2 SWAP1 POP SWAP3 SWAP2 POP POP JUMP JUMPDEST PUSH0 DUP2 SWAP1 POP DUP2 PUSH0 MSTORE PUSH1 0x20 PUSH0 KECCAK256 SWAP1 POP SWAP2 SWAP1 POP JUMP JUMPDEST PUSH0 DUP2 SLOAD PUSH2 0x21BA DUP2 PUSH2 0x1A5A JUMP JUMPDEST PUSH2 0x21C4 DUP2 DUP7 PUSH2 0x2192 JUMP JUMPDEST SWAP5 POP PUSH1 0x1 DUP3 AND PUSH0 DUP2 EQ PUSH2 0x21DE JUMPI PUSH1 0x1 DUP2 EQ PUSH2 0x21F3 JUMPI PUSH2 0x2225 JUMP JUMPDEST PUSH1 0xFF NOT DUP4 AND DUP7 MSTORE DUP2 ISZERO ISZERO DUP3 MUL DUP7 ADD SWAP4 POP PUSH2 0x2225 JUMP JUMPDEST PUSH2 0x21FC DUP6 PUSH2 0x219C JUMP JUMPDEST PUSH0 JUMPDEST DUP4 DUP2 LT ISZERO PUSH2 0x221D JUMPI DUP2 SLOAD DUP2 DUP10 ADD MSTORE PUSH1 0x1 DUP3 ADD SWAP2 POP PUSH1 0x20 DUP2 ADD SWAP1 POP PUSH2 0x21FE JUMP JUMPDEST DUP4 DUP9 ADD SWAP6 POP POP POP JUMPDEST POP POP POP SWAP3 SWAP2 POP POP JUMP JUMPDEST PUSH0 PUSH2 0x2239 DUP3 DUP5 PUSH2 0x21AE JUMP JUMPDEST SWAP2 POP DUP2 SWAP1 POP SWAP3 SWAP2 POP POP JUMP JUMPDEST PUSH0 PUSH32 0xFFFFFFFF00000000000000000000000000000000000000000000000000000000 DUP3 AND SWAP1 POP SWAP2 SWAP1 POP JUMP JUMPDEST PUSH0 DUP2 SWAP1 POP SWAP2 SWAP1 POP JUMP JUMPDEST PUSH2 0x2289 PUSH2 0x2284 DUP3 PUSH2 0x2244 JUMP JUMPDEST PUSH2 0x226F JUMP JUMPDEST DUP3 MSTORE POP POP JUMP JUMPDEST PUSH0 DUP2 SLOAD PUSH2 0x229B DUP2 PUSH2 0x1A5A JUMP JUMPDEST PUSH2 0x22A5 DUP2 DUP7 PUSH2 0x2192 JUMP JUMPDEST SWAP5 POP PUSH1 0x1 DUP3 AND PUSH0 DUP2 EQ PUSH2 0x22BF JUMPI PUSH1 0x1 DUP2 EQ PUSH2 0x22D4 JUMPI PUSH2 0x2306 JUMP JUMPDEST PUSH1 0xFF NOT DUP4 AND DUP7 MSTORE DUP2 ISZERO ISZERO DUP3 MUL DUP7 ADD SWAP4 POP PUSH2 0x2306 JUMP JUMPDEST PUSH2 0x22DD DUP6 PUSH2 0x1CF6 JUMP JUMPDEST PUSH0 JUMPDEST DUP4 DUP2 LT ISZERO PUSH2 0x22FE JUMPI DUP2 SLOAD DUP2 DUP10 ADD MSTORE PUSH1 0x1 DUP3 ADD SWAP2 POP PUSH1 0x20 DUP2 ADD SWAP1 POP PUSH2 0x22DF JUMP JUMPDEST DUP4 DUP9 ADD SWAP6 POP POP POP JUMPDEST POP POP POP SWAP3 SWAP2 POP POP JUMP JUMPDEST PUSH0 PUSH2 0x231A DUP3 DUP6 PUSH2 0x2278 JUMP JUMPDEST PUSH1 0x4 DUP3 ADD SWAP2 POP PUSH2 0x232A DUP3 DUP5 PUSH2 0x228F JUMP JUMPDEST SWAP2 POP DUP2 SWAP1 POP SWAP4 SWAP3 POP POP POP JUMP JUMPDEST PUSH0 PUSH2 0x2340 DUP3 PUSH2 0x1726 JUMP JUMPDEST PUSH2 0x234A DUP2 DUP6 PUSH2 0x2192 JUMP JUMPDEST SWAP4 POP PUSH2 0x235A DUP2 DUP6 PUSH1 0x20 DUP7 ADD PUSH2 0x16E0 JUMP JUMPDEST DUP1 DUP5 ADD SWAP2 POP POP SWAP3 SWAP2 POP POP JUMP JUMPDEST PUSH0 PUSH2 0x2371 DUP3 DUP5 PUSH2 0x2336 JUMP JUMPDEST SWAP2 POP DUP2 SWAP1 POP SWAP3 SWAP2 POP POP JUMP JUMPDEST PUSH0 PUSH1 0x20 DUP3 ADD SWAP1 POP DUP2 DUP2 SUB PUSH0 DUP4 ADD MSTORE PUSH2 0x2394 DUP2 DUP5 PUSH2 0x16EE JUMP JUMPDEST SWAP1 POP SWAP3 SWAP2 POP POP JUMP JUMPDEST PUSH0 DUP2 SLOAD PUSH2 0x23A8 DUP2 PUSH2 0x1A5A JUMP JUMPDEST PUSH2 0x23B2 DUP2 DUP7 PUSH2 0x16D0 JUMP JUMPDEST SWAP5 POP PUSH1 0x1 DUP3 AND PUSH0 DUP2 EQ PUSH2 0x23CC JUMPI PUSH1 0x1 DUP2 EQ PUSH2 0x23E2 JUMPI PUSH2 0x2414 JUMP JUMPDEST PUSH1 0xFF NOT DUP4 AND DUP7 MSTORE DUP2 ISZERO ISZERO PUSH1 0x20 MUL DUP7 ADD SWAP4 POP PUSH2 0x2414 JUMP JUMPDEST PUSH2 0x23EB DUP6 PUSH2 0x1A8A JUMP JUMPDEST PUSH0 JUMPDEST DUP4 DUP2 LT ISZERO PUSH2 0x240C JUMPI DUP2 SLOAD DUP2 DUP10 ADD MSTORE PUSH1 0x1 DUP3 ADD SWAP2 POP PUSH1 0x20 DUP2 ADD SWAP1 POP PUSH2 0x23ED JUMP JUMPDEST DUP1 DUP9 ADD SWAP6 POP POP POP JUMPDEST POP POP POP SWAP3 SWAP2 POP POP JUMP JUMPDEST PUSH0 DUP2 SLOAD PUSH2 0x2429 DUP2 PUSH2 0x1A5A JUMP JUMPDEST PUSH2 0x2433 DUP2 DUP7 PUSH2 0x1730 JUMP JUMPDEST SWAP5 POP PUSH1 0x1 DUP3 AND PUSH0 DUP2 EQ PUSH2 0x244D JUMPI PUSH1 0x1 DUP2 EQ PUSH2 0x2463 JUMPI PUSH2 0x2495 JUMP JUMPDEST PUSH1 0xFF NOT DUP4 AND DUP7 MSTORE DUP2 ISZERO ISZERO PUSH1 0x20 MUL DUP7 ADD SWAP4 POP PUSH2 0x2495 JUMP JUMPDEST PUSH2 0x246C DUP6 PUSH2 0x1CF6 JUMP JUMPDEST PUSH0 JUMPDEST DUP4 DUP2 LT ISZERO PUSH2 0x248D JUMPI DUP2 SLOAD DUP2 DUP10 ADD MSTORE PUSH1 0x1 DUP3 ADD SWAP2 POP PUSH1 0x20 DUP2 ADD SWAP1 POP PUSH2 0x246E JUMP JUMPDEST DUP1 DUP9 ADD SWAP6 POP POP POP JUMPDEST POP POP POP SWAP3 SWAP2 POP POP JUMP JUMPDEST PUSH0 PUSH1 0x60 DUP3 ADD SWAP1 POP PUSH2 0x24B1 PUSH0 DUP4 ADD DUP7 PUSH2 0x1296 JUMP JUMPDEST DUP2 DUP2 SUB PUSH1 0x20 DUP4 ADD MSTORE PUSH2 0x24C3 DUP2 DUP6 PUSH2 0x239C JUMP JUMPDEST SWAP1 POP DUP2 DUP2 SUB PUSH1 0x40 DUP4 ADD MSTORE PUSH2 0x24D7 DUP2 DUP5 PUSH2 0x241D JUMP JUMPDEST SWAP1 POP SWAP5 SWAP4 POP POP POP POP JUMP JUMPDEST PUSH0 PUSH1 0x80 DUP3 ADD SWAP1 POP PUSH2 0x24F4 PUSH0 DUP4 ADD DUP8 PUSH2 0x13AC JUMP JUMPDEST PUSH2 0x2501 PUSH1 0x20 DUP4 ADD DUP7 PUSH2 0x1296 JUMP JUMPDEST DUP2 DUP2 SUB PUSH1 0x40 DUP4 ADD MSTORE PUSH2 0x2513 DUP2 DUP6 PUSH2 0x16EE JUMP JUMPDEST SWAP1 POP DUP2 DUP2 SUB PUSH1 0x60 DUP4 ADD MSTORE PUSH2 0x2527 DUP2 DUP5 PUSH2 0x1740 JUMP JUMPDEST SWAP1 POP SWAP6 SWAP5 POP POP POP POP POP JUMP JUMPDEST PUSH32 0x54696D656C6F636B3A20696E76616C6964206772616365506572696F64000000 PUSH0 DUP3 ADD MSTORE POP JUMP JUMPDEST PUSH0 PUSH2 0x2566 PUSH1 0x1D DUP4 PUSH2 0x16D0 JUMP JUMPDEST SWAP2 POP PUSH2 0x2571 DUP3 PUSH2 0x2532 JUMP JUMPDEST PUSH1 0x20 DUP3 ADD SWAP1 POP SWAP2 SWAP1 POP JUMP JUMPDEST PUSH0 PUSH1 0x20 DUP3 ADD SWAP1 POP DUP2 DUP2 SUB PUSH0 DUP4 ADD MSTORE PUSH2 0x2593 DUP2 PUSH2 0x255A JUMP JUMPDEST SWAP1 POP SWAP2 SWAP1 POP JUMP JUMPDEST PUSH32 0x54696D656C6F636B3A20696E76616C6964206E6577206F776E65720000000000 PUSH0 DUP3 ADD MSTORE POP JUMP JUMPDEST PUSH0 PUSH2 0x25CE PUSH1 0x1B DUP4 PUSH2 0x16D0 JUMP JUMPDEST SWAP2 POP PUSH2 0x25D9 DUP3 PUSH2 0x259A JUMP JUMPDEST PUSH1 0x20 DUP3 ADD SWAP1 POP SWAP2 SWAP1 POP JUMP JUMPDEST PUSH0 PUSH1 0x20 DUP3 ADD SWAP1 POP DUP2 DUP2 SUB PUSH0 DUP4 ADD MSTORE PUSH2 0x25FB DUP2 PUSH2 0x25C2 JUMP JUMPDEST SWAP1 POP SWAP2 SWAP1 POP JUMP JUMPDEST PUSH0 PUSH2 0x2614 PUSH2 0x260F DUP5 PUSH2 0x14B8 JUMP JUMPDEST PUSH2 0x149E JUMP JUMPDEST SWAP1 POP DUP3 DUP2 MSTORE PUSH1 0x20 DUP2 ADD DUP5 DUP5 DUP5 ADD GT ISZERO PUSH2 0x2630 JUMPI PUSH2 0x262F PUSH2 0x142C JUMP JUMPDEST JUMPDEST PUSH2 0x263B DUP5 DUP3 DUP6 PUSH2 0x16E0 JUMP JUMPDEST POP SWAP4 SWAP3 POP POP POP JUMP JUMPDEST PUSH0 DUP3 PUSH1 0x1F DUP4 ADD SLT PUSH2 0x2657 JUMPI PUSH2 0x2656 PUSH2 0x1428 JUMP JUMPDEST JUMPDEST DUP2 MLOAD PUSH2 0x2667 DUP5 DUP3 PUSH1 0x20 DUP7 ADD PUSH2 0x2602 JUMP JUMPDEST SWAP2 POP POP SWAP3 SWAP2 POP POP JUMP JUMPDEST PUSH0 PUSH1 0x20 DUP3 DUP5 SUB SLT ISZERO PUSH2 0x2685 JUMPI PUSH2 0x2684 PUSH2 0x12C7 JUMP JUMPDEST JUMPDEST PUSH0 DUP3 ADD MLOAD PUSH8 0xFFFFFFFFFFFFFFFF DUP2 GT ISZERO PUSH2 0x26A2 JUMPI PUSH2 0x26A1 PUSH2 0x12CB JUMP JUMPDEST JUMPDEST PUSH2 0x26AE DUP5 DUP3 DUP6 ADD PUSH2 0x2643 JUMP JUMPDEST SWAP2 POP POP SWAP3 SWAP2 POP POP JUMP INVALID SLOAD PUSH10 0x6D656C6F636B3A206361 PUSH13 0x6C207265766572746564207769 PUSH21 0x686F7574206D657373616765A26469706673582212 KECCAK256 PUSH17 0xBCA58084BA244D3DFF8F655D6EB790AD26 COINBASE 0xE7 0xC7 SWAP3 0xCC CODESIZE 0xA7 PUSH23 0x82189290F91C64736F6C634300081A0033000000000000 "
				},
				"gasEstimates": {
					"creation": {
						"codeDepositCost": "2000800",
						"executionCost": "infinite",
						"totalCost": "infinite"
					},
					"external": {
						"cancel(bytes32)": "34794",
						"delay()": "2426",
						"execute(bytes32)": "infinite",
						"getEarliestExecutionTime(bytes32)": "2855",
						"getOperationId(address,uint256,string,bytes)": "infinite",
						"getOperationStatus(bytes32)": "infinite",
						"gracePeriod()": "2491",
						"operations(bytes32)": "infinite",
						"owner()": "2553",
						"schedule(address,uint256,string,bytes)": "infinite",
						"setDelay(uint256)": "24729",
						"setGracePeriod(uint256)": "24771",
						"transferOwnership(address)": "27006"
					},
					"internal": {
						"_getRevertMsg(bytes memory)": "infinite"
					}
				},
				"methodIdentifiers": {
					"cancel(bytes32)": "c4d252f5",
					"delay()": "6a42b8f8",
					"execute(bytes32)": "e751f271",
					"getEarliestExecutionTime(bytes32)": "e31fa19a",
					"getOperationId(address,uint256,string,bytes)": "f087dd24",
					"getOperationStatus(bytes32)": "727c6c5a",
					"gracePeriod()": "a06db7dc",
					"operations(bytes32)": "c74f349b",
					"owner()": "8da5cb5b",
					"schedule(address,uint256,string,bytes)": "baa1f377",
					"setDelay(uint256)": "e177246e",
					"setGracePeriod(uint256)": "f2f65960",
					"transferOwnership(address)": "f2fde38b"
				}
			},
			"storageLayout": {
				"storage": [
					{
						"astId": 21,
						"contract": "Contracts/Timelock.sol:Timelock",
						"label": "gracePeriod",
						"offset": 0,
						"slot": "0",
						"type": "t_uint256"
					},
					{
						"astId": 24,
						"contract": "Contracts/Timelock.sol:Timelock",
						"label": "delay",
						"offset": 0,
						"slot": "1",
						"type": "t_uint256"
					},
					{
						"astId": 27,
						"contract": "Contracts/Timelock.sol:Timelock",
						"label": "owner",
						"offset": 0,
						"slot": "2",
						"type": "t_address"
					},
					{
						"astId": 33,
						"contract": "Contracts/Timelock.sol:Timelock",
						"label": "operations",
						"offset": 0,
						"slot": "3",
						"type": "t_mapping(t_bytes32,t_struct(Operation)18_storage)"
					},
					{
						"astId": 522,
						"contract": "Contracts/Timelock.sol:Timelock",
						"label": "_status",
						"offset": 0,
						"slot": "4",
						"type": "t_uint256"
					}
				],
				"types": {
					"t_address": {
						"encoding": "inplace",
						"label": "address",
						"numberOfBytes": "20"
					},
					"t_bool": {
						"encoding": "inplace",
						"label": "bool",
						"numberOfBytes": "1"
					},
					"t_bytes32": {
						"encoding": "inplace",
						"label": "bytes32",
						"numberOfBytes": "32"
					},
					"t_bytes_storage": {
						"encoding": "bytes",
						"label": "bytes",
						"numberOfBytes": "32"
					},
					"t_mapping(t_bytes32,t_struct(Operation)18_storage)": {
						"encoding": "mapping",
						"key": "t_bytes32",
						"label": "mapping(bytes32 => struct Timelock.Operation)",
						"numberOfBytes": "32",
						"value": "t_struct(Operation)18_storage"
					},
					"t_string_storage": {
						"encoding": "bytes",
						"label": "string",
						"numberOfBytes": "32"
					},
					"t_struct(Operation)18_storage": {
						"encoding": "inplace",
						"label": "struct Timelock.Operation",
						"members": [
							{
								"astId": 5,
								"contract": "Contracts/Timelock.sol:Timelock",
								"label": "target",
								"offset": 0,
								"slot": "0",
								"type": "t_address"
							},
							{
								"astId": 7,
								"contract": "Contracts/Timelock.sol:Timelock",
								"label": "value",
								"offset": 0,
								"slot": "1",
								"type": "t_uint256"
							},
							{
								"astId": 9,
								"contract": "Contracts/Timelock.sol:Timelock",
								"label": "signature",
								"offset": 0,
								"slot": "2",
								"type": "t_string_storage"
							},
							{
								"astId": 11,
								"contract": "Contracts/Timelock.sol:Timelock",
								"label": "callData",
								"offset": 0,
								"slot": "3",
								"type": "t_bytes_storage"
							},
							{
								"astId": 13,
								"contract": "Contracts/Timelock.sol:Timelock",
								"label": "earliestExecTime",
								"offset": 0,
								"slot": "4",
								"type": "t_uint256"
							},
							{
								"astId": 15,
								"contract": "Contracts/Timelock.sol:Timelock",
								"label": "executed",
								"offset": 0,
								"slot": "5",
								"type": "t_bool"
							},
							{
								"astId": 17,
								"contract": "Contracts/Timelock.sol:Timelock",
								"label": "canceled",
								"offset": 1,
								"slot": "5",
								"type": "t_bool"
							}
						],
						"numberOfBytes": "192"
					},
					"t_uint256": {
						"encoding": "inplace",
						"label": "uint256",
						"numberOfBytes": "32"
					}
				}
			},
			"userdoc": {
				"kind": "user",
				"methods": {
					"cancel(bytes32)": {
						"notice": "Cancels a previously scheduled operation that has not been executed or canceled yet."
					},
					"execute(bytes32)": {
						"notice": "Executes a scheduled operation if the current time is within the allowed window."
					},
					"getEarliestExecutionTime(bytes32)": {
						"notice": "Checks the earliest execution time for an operation."
					},
					"getOperationId(address,uint256,string,bytes)": {
						"notice": "Generates the unique identifier (operationId) for a given call."
					},
					"getOperationStatus(bytes32)": {
						"notice": "Checks if an operation is scheduled, canceled, or executed."
					},
					"schedule(address,uint256,string,bytes)": {
						"notice": "Schedules an operation to be executed no sooner than (block.timestamp + delay)."
					},
					"setDelay(uint256)": {
						"notice": "Updates the delay for newly scheduled operations.          Does not affect operations already scheduled."
					},
					"setGracePeriod(uint256)": {
						"notice": "Updates the grace period for newly scheduled operations.         Does not affect operations already scheduled."
					},
					"transferOwnership(address)": {
						"notice": "Transfers ownership of the timelock to a new address."
					}
				},
				"notice": "A general-purpose timelock contract designed to schedule and execute         upgrade operations or any arbitrary function calls after a set delay.         This contract ensures there is a time window between scheduling and         execution, preventing instant malicious actions.         The contract supports:         1. Queuing upgrade calls (e.g. UUPS \"upgradeTo(address)\")         2. Queuing arbitrary function calls on any target contract         3. Delaying execution by a configurable `delay`         4. Allowing the owner to cancel scheduled operations         5. Enforcing a grace period after `delay` to execute before the operation expires         This contract is compatible with upgradeable proxies in the system, including:         - VaultFactory (UUPS proxy)         - Individual Vault (UUPS proxy)         and can also handle other function calls for future expansions.         The owner (commonly a DAO, multi-sig, or deployment account) controls:         - Timelock configuration         - Scheduling/canceling/executing operations         No placeholders remain. All logic here is complete and functional.",
				"version": 1
			}
		}
	}
}