{
	"Contracts/OracleManager.sol": {
		"OracleManager": {
			"abi": [
				{
					"inputs": [
						{
							"internalType": "address",
							"name": "initialOwner",
							"type": "address"
						}
					],
					"stateMutability": "nonpayable",
					"type": "constructor"
				},
				{
					"anonymous": false,
					"inputs": [
						{
							"indexed": true,
							"internalType": "address",
							"name": "token",
							"type": "address"
						},
						{
							"indexed": false,
							"internalType": "address",
							"name": "primaryAggregator",
							"type": "address"
						},
						{
							"indexed": false,
							"internalType": "address",
							"name": "fallbackAggregator",
							"type": "address"
						},
						{
							"indexed": false,
							"internalType": "bool",
							"name": "useFallbackIfError",
							"type": "bool"
						},
						{
							"indexed": false,
							"internalType": "uint8",
							"name": "decimalsOverride",
							"type": "uint8"
						},
						{
							"indexed": false,
							"internalType": "bool",
							"name": "isVaultToken",
							"type": "bool"
						}
					],
					"name": "OracleConfigUpdated",
					"type": "event"
				},
				{
					"anonymous": false,
					"inputs": [
						{
							"indexed": true,
							"internalType": "address",
							"name": "previousOwner",
							"type": "address"
						},
						{
							"indexed": true,
							"internalType": "address",
							"name": "newOwner",
							"type": "address"
						}
					],
					"name": "OwnershipTransferred",
					"type": "event"
				},
				{
					"anonymous": false,
					"inputs": [
						{
							"indexed": true,
							"internalType": "address",
							"name": "vaultToken",
							"type": "address"
						},
						{
							"indexed": false,
							"internalType": "address",
							"name": "token0Aggregator",
							"type": "address"
						},
						{
							"indexed": false,
							"internalType": "address",
							"name": "token1Aggregator",
							"type": "address"
						},
						{
							"indexed": false,
							"internalType": "uint8",
							"name": "token0Decimals",
							"type": "uint8"
						},
						{
							"indexed": false,
							"internalType": "uint8",
							"name": "token1Decimals",
							"type": "uint8"
						}
					],
					"name": "VaultUnderlyingFeedsUpdated",
					"type": "event"
				},
				{
					"inputs": [
						{
							"internalType": "address",
							"name": "token",
							"type": "address"
						}
					],
					"name": "getPrice",
					"outputs": [
						{
							"internalType": "uint256",
							"name": "price",
							"type": "uint256"
						},
						{
							"internalType": "uint8",
							"name": "decimals",
							"type": "uint8"
						}
					],
					"stateMutability": "view",
					"type": "function"
				},
				{
					"inputs": [
						{
							"internalType": "address",
							"name": "",
							"type": "address"
						}
					],
					"name": "oracleConfigs",
					"outputs": [
						{
							"internalType": "address",
							"name": "primaryAggregator",
							"type": "address"
						},
						{
							"internalType": "address",
							"name": "fallbackAggregator",
							"type": "address"
						},
						{
							"internalType": "bool",
							"name": "useFallbackIfError",
							"type": "bool"
						},
						{
							"internalType": "uint8",
							"name": "decimalsOverride",
							"type": "uint8"
						},
						{
							"internalType": "bool",
							"name": "isVaultToken",
							"type": "bool"
						}
					],
					"stateMutability": "view",
					"type": "function"
				},
				{
					"inputs": [],
					"name": "owner",
					"outputs": [
						{
							"internalType": "address",
							"name": "",
							"type": "address"
						}
					],
					"stateMutability": "view",
					"type": "function"
				},
				{
					"inputs": [],
					"name": "renounceOwnership",
					"outputs": [],
					"stateMutability": "nonpayable",
					"type": "function"
				},
				{
					"inputs": [
						{
							"internalType": "address",
							"name": "token",
							"type": "address"
						},
						{
							"internalType": "address",
							"name": "primaryAggregator",
							"type": "address"
						},
						{
							"internalType": "address",
							"name": "fallbackAggregator",
							"type": "address"
						},
						{
							"internalType": "bool",
							"name": "useFallbackIfErr",
							"type": "bool"
						},
						{
							"internalType": "uint8",
							"name": "decimalsOvr",
							"type": "uint8"
						},
						{
							"internalType": "bool",
							"name": "isVaultToken",
							"type": "bool"
						}
					],
					"name": "setOracleConfig",
					"outputs": [],
					"stateMutability": "nonpayable",
					"type": "function"
				},
				{
					"inputs": [
						{
							"internalType": "address",
							"name": "vaultToken",
							"type": "address"
						},
						{
							"internalType": "address",
							"name": "token0Agg",
							"type": "address"
						},
						{
							"internalType": "address",
							"name": "token1Agg",
							"type": "address"
						},
						{
							"internalType": "uint8",
							"name": "token0Dec",
							"type": "uint8"
						},
						{
							"internalType": "uint8",
							"name": "token1Dec",
							"type": "uint8"
						}
					],
					"name": "setVaultUnderlyingFeeds",
					"outputs": [],
					"stateMutability": "nonpayable",
					"type": "function"
				},
				{
					"inputs": [
						{
							"internalType": "address",
							"name": "newOwner",
							"type": "address"
						}
					],
					"name": "transferOwnership",
					"outputs": [],
					"stateMutability": "nonpayable",
					"type": "function"
				},
				{
					"inputs": [
						{
							"internalType": "address",
							"name": "",
							"type": "address"
						}
					],
					"name": "vaultFeeds",
					"outputs": [
						{
							"internalType": "address",
							"name": "token0Aggregator",
							"type": "address"
						},
						{
							"internalType": "address",
							"name": "token1Aggregator",
							"type": "address"
						},
						{
							"internalType": "uint8",
							"name": "token0Decimals",
							"type": "uint8"
						},
						{
							"internalType": "uint8",
							"name": "token1Decimals",
							"type": "uint8"
						},
						{
							"internalType": "bool",
							"name": "exists",
							"type": "bool"
						}
					],
					"stateMutability": "view",
					"type": "function"
				}
			],
			"devdoc": {
				"kind": "dev",
				"methods": {
					"owner()": {
						"details": "Returns the address of the current owner."
					},
					"renounceOwnership()": {
						"details": "Leaves the contract without owner. It will not be possible to call `onlyOwner` functions anymore. Can only be called by the current owner. NOTE: Renouncing ownership will leave the contract without an owner, thereby removing any functionality that is only available to the owner."
					},
					"transferOwnership(address)": {
						"details": "Transfers ownership of the contract to a new account (`newOwner`). Can only be called by the current owner."
					}
				},
				"version": 1
			},
			"evm": {
				"assembly": "    /* \"Contracts/OracleManager.sol\":5596:16074  contract OracleManager is Ownable {... */\n  mstore(0x40, 0x80)\n    /* \"Contracts/OracleManager.sol\":6584:6744  constructor(address initialOwner) {... */\n  callvalue\n  dup1\n  iszero\n  tag_1\n  jumpi\n  revert(0x00, 0x00)\ntag_1:\n  pop\n  mload(0x40)\n  sub(codesize, bytecodeSize)\n  dup1\n  bytecodeSize\n  dup4\n  codecopy\n  dup2\n  add\n  0x40\n  dup2\n  swap1\n  mstore\n  tag_2\n  swap2\n  tag_3\n  jump\t// in\ntag_2:\n    /* \"https://github.com/OpenZeppelin/openzeppelin-contracts/blob/v4.8.3/contracts/access/Ownable.sol\":936:968  _transferOwnership(_msgSender()) */\n  tag_7\n    /* \"https://github.com/OpenZeppelin/openzeppelin-contracts/blob/v4.8.3/contracts/utils/Context.sol\":719:729  msg.sender */\n  caller\n    /* \"https://github.com/OpenZeppelin/openzeppelin-contracts/blob/v4.8.3/contracts/access/Ownable.sol\":936:954  _transferOwnership */\n  tag_10\n    /* \"https://github.com/OpenZeppelin/openzeppelin-contracts/blob/v4.8.3/contracts/access/Ownable.sol\":936:968  _transferOwnership(_msgSender()) */\n  jump\t// in\ntag_7:\n  sub(shl(0xa0, 0x01), 0x01)\n    /* \"Contracts/OracleManager.sol\":6636:6662  initialOwner != address(0) */\n  dup2\n  and\n    /* \"Contracts/OracleManager.sol\":6628:6695  require(initialOwner != address(0), \"OracleManager: invalid owner\") */\n  tag_12\n  jumpi\n  mload(0x40)\n  shl(0xe5, 0x461bcd)\n  dup2\n  mstore\n    /* \"#utility.yul\":511:513   */\n  0x20\n    /* \"Contracts/OracleManager.sol\":6628:6695  require(initialOwner != address(0), \"OracleManager: invalid owner\") */\n  0x04\n  dup3\n  add\n    /* \"#utility.yul\":493:514   */\n  mstore\n    /* \"#utility.yul\":550:552   */\n  0x1c\n    /* \"#utility.yul\":530:548   */\n  0x24\n  dup3\n  add\n    /* \"#utility.yul\":523:553   */\n  mstore\n    /* \"#utility.yul\":589:619   */\n  0x4f7261636c654d616e616765723a20696e76616c6964206f776e657200000000\n    /* \"#utility.yul\":569:587   */\n  0x44\n  dup3\n  add\n    /* \"#utility.yul\":562:620   */\n  mstore\n    /* \"#utility.yul\":637:655   */\n  0x64\n  add\n    /* \"Contracts/OracleManager.sol\":6628:6695  require(initialOwner != address(0), \"OracleManager: invalid owner\") */\n  mload(0x40)\n  dup1\n  swap2\n  sub\n  swap1\n  revert\ntag_12:\n    /* \"Contracts/OracleManager.sol\":6705:6737  _transferOwnership(initialOwner) */\n  tag_15\n    /* \"Contracts/OracleManager.sol\":6724:6736  initialOwner */\n  dup2\n    /* \"Contracts/OracleManager.sol\":6705:6723  _transferOwnership */\n  tag_10\n    /* \"Contracts/OracleManager.sol\":6705:6737  _transferOwnership(initialOwner) */\n  jump\t// in\ntag_15:\n    /* \"Contracts/OracleManager.sol\":6584:6744  constructor(address initialOwner) {... */\n  pop\n    /* \"Contracts/OracleManager.sol\":5596:16074  contract OracleManager is Ownable {... */\n  jump(tag_19)\n    /* \"https://github.com/OpenZeppelin/openzeppelin-contracts/blob/v4.8.3/contracts/access/Ownable.sol\":2433:2620  function _transferOwnership(address newOwner) internal virtual {... */\ntag_10:\n    /* \"https://github.com/OpenZeppelin/openzeppelin-contracts/blob/v4.8.3/contracts/access/Ownable.sol\":2506:2522  address oldOwner */\n  0x00\n    /* \"https://github.com/OpenZeppelin/openzeppelin-contracts/blob/v4.8.3/contracts/access/Ownable.sol\":2525:2531  _owner */\n  dup1\n  sload\n  sub(shl(0xa0, 0x01), 0x01)\n    /* \"https://github.com/OpenZeppelin/openzeppelin-contracts/blob/v4.8.3/contracts/access/Ownable.sol\":2541:2558  _owner = newOwner */\n  dup4\n  dup2\n  and\n  not(sub(shl(0xa0, 0x01), 0x01))\n  dup4\n  and\n  dup2\n  or\n  dup5\n  sstore\n    /* \"https://github.com/OpenZeppelin/openzeppelin-contracts/blob/v4.8.3/contracts/access/Ownable.sol\":2573:2613  OwnershipTransferred(oldOwner, newOwner) */\n  mload(0x40)\n    /* \"https://github.com/OpenZeppelin/openzeppelin-contracts/blob/v4.8.3/contracts/access/Ownable.sol\":2525:2531  _owner */\n  swap2\n  swap1\n  swap3\n  and\n  swap3\n  dup4\n  swap2\n    /* \"https://github.com/OpenZeppelin/openzeppelin-contracts/blob/v4.8.3/contracts/access/Ownable.sol\":2573:2613  OwnershipTransferred(oldOwner, newOwner) */\n  0x8be0079c531659141344cd1fd0a4f28419497f9722a3daafe3b4186f6b6457e0\n  swap2\n    /* \"https://github.com/OpenZeppelin/openzeppelin-contracts/blob/v4.8.3/contracts/access/Ownable.sol\":2506:2522  address oldOwner */\n  swap1\n    /* \"https://github.com/OpenZeppelin/openzeppelin-contracts/blob/v4.8.3/contracts/access/Ownable.sol\":2573:2613  OwnershipTransferred(oldOwner, newOwner) */\n  log3\n    /* \"https://github.com/OpenZeppelin/openzeppelin-contracts/blob/v4.8.3/contracts/access/Ownable.sol\":2496:2620  {... */\n  pop\n    /* \"https://github.com/OpenZeppelin/openzeppelin-contracts/blob/v4.8.3/contracts/access/Ownable.sol\":2433:2620  function _transferOwnership(address newOwner) internal virtual {... */\n  pop\n  jump\t// out\n    /* \"#utility.yul\":14:304   */\ntag_3:\n    /* \"#utility.yul\":84:90   */\n  0x00\n    /* \"#utility.yul\":137:139   */\n  0x20\n    /* \"#utility.yul\":125:134   */\n  dup3\n    /* \"#utility.yul\":116:123   */\n  dup5\n    /* \"#utility.yul\":112:135   */\n  sub\n    /* \"#utility.yul\":108:140   */\n  slt\n    /* \"#utility.yul\":105:157   */\n  iszero\n  tag_21\n  jumpi\n    /* \"#utility.yul\":153:154   */\n  0x00\n    /* \"#utility.yul\":150:151   */\n  0x00\n    /* \"#utility.yul\":143:155   */\n  revert\n    /* \"#utility.yul\":105:157   */\ntag_21:\n    /* \"#utility.yul\":179:195   */\n  dup2\n  mload\n  sub(shl(0xa0, 0x01), 0x01)\n    /* \"#utility.yul\":224:255   */\n  dup2\n  and\n    /* \"#utility.yul\":214:256   */\n  dup2\n  eq\n    /* \"#utility.yul\":204:274   */\n  tag_22\n  jumpi\n    /* \"#utility.yul\":270:271   */\n  0x00\n    /* \"#utility.yul\":267:268   */\n  0x00\n    /* \"#utility.yul\":260:272   */\n  revert\n    /* \"#utility.yul\":204:274   */\ntag_22:\n    /* \"#utility.yul\":293:298   */\n  swap4\n    /* \"#utility.yul\":14:304   */\n  swap3\n  pop\n  pop\n  pop\n  jump\t// out\n    /* \"#utility.yul\":309:661   */\ntag_19:\n    /* \"Contracts/OracleManager.sol\":5596:16074  contract OracleManager is Ownable {... */\n  dataSize(sub_0)\n  dup1\n  dataOffset(sub_0)\n  0x00\n  codecopy\n  0x00\n  return\nstop\n\nsub_0: assembly {\n        /* \"Contracts/OracleManager.sol\":5596:16074  contract OracleManager is Ownable {... */\n      mstore(0x40, 0x80)\n      callvalue\n      dup1\n      iszero\n      tag_1\n      jumpi\n      revert(0x00, 0x00)\n    tag_1:\n      pop\n      jumpi(tag_2, lt(calldatasize, 0x04))\n      shr(0xe0, calldataload(0x00))\n      dup1\n      0x8da5cb5b\n      gt\n      tag_11\n      jumpi\n      dup1\n      0x8da5cb5b\n      eq\n      tag_7\n      jumpi\n      dup1\n      0x9b05fc75\n      eq\n      tag_8\n      jumpi\n      dup1\n      0xf2ac1ec5\n      eq\n      tag_9\n      jumpi\n      dup1\n      0xf2fde38b\n      eq\n      tag_10\n      jumpi\n      revert(0x00, 0x00)\n    tag_11:\n      dup1\n      0x067a4b06\n      eq\n      tag_3\n      jumpi\n      dup1\n      0x41976e09\n      eq\n      tag_4\n      jumpi\n      dup1\n      0x715018a6\n      eq\n      tag_5\n      jumpi\n      dup1\n      0x7f4a3102\n      eq\n      tag_6\n      jumpi\n    tag_2:\n      revert(0x00, 0x00)\n        /* \"Contracts/OracleManager.sol\":6020:6071  mapping(address => OracleData) public oracleConfigs */\n    tag_3:\n      tag_12\n      tag_13\n      calldatasize\n      0x04\n      tag_14\n      jump\t// in\n    tag_13:\n      0x01\n      0x20\n      dup2\n      swap1\n      mstore\n      0x00\n      swap2\n      dup3\n      mstore\n      0x40\n      swap1\n      swap2\n      keccak256\n      dup1\n      sload\n      swap2\n      add\n      sload\n      sub(shl(0xa0, 0x01), 0x01)\n      swap2\n      dup3\n      and\n      swap2\n      dup2\n      and\n      swap1\n      0xff\n      shl(0xa0, 0x01)\n      dup3\n      div\n      dup2\n      and\n      swap2\n      shl(0xa8, 0x01)\n      dup2\n      div\n      dup3\n      and\n      swap2\n      shl(0xb0, 0x01)\n      swap1\n      swap2\n      div\n      and\n      dup6\n      jump\n    tag_12:\n      0x40\n      dup1\n      mload\n      sub(shl(0xa0, 0x01), 0x01)\n        /* \"#utility.yul\":663:695   */\n      swap7\n      dup8\n      and\n        /* \"#utility.yul\":645:696   */\n      dup2\n      mstore\n        /* \"#utility.yul\":732:764   */\n      swap6\n      swap1\n      swap5\n      and\n        /* \"#utility.yul\":727:729   */\n      0x20\n        /* \"#utility.yul\":712:730   */\n      dup7\n      add\n        /* \"#utility.yul\":705:765   */\n      mstore\n        /* \"#utility.yul\":808:822   */\n      swap2\n      iszero\n        /* \"#utility.yul\":801:823   */\n      iszero\n        /* \"#utility.yul\":781:799   */\n      swap3\n      dup5\n      add\n        /* \"#utility.yul\":774:824   */\n      swap3\n      swap1\n      swap3\n      mstore\n        /* \"#utility.yul\":872:876   */\n      0xff\n        /* \"#utility.yul\":860:877   */\n      swap1\n      swap2\n      and\n        /* \"#utility.yul\":855:857   */\n      0x60\n        /* \"#utility.yul\":840:858   */\n      dup4\n      add\n        /* \"#utility.yul\":833:878   */\n      mstore\n        /* \"#utility.yul\":922:936   */\n      iszero\n        /* \"#utility.yul\":915:937   */\n      iszero\n        /* \"#utility.yul\":909:912   */\n      0x80\n        /* \"#utility.yul\":894:913   */\n      dup3\n      add\n        /* \"#utility.yul\":887:938   */\n      mstore\n        /* \"#utility.yul\":632:635   */\n      0xa0\n        /* \"#utility.yul\":617:636   */\n      add\n        /* \"Contracts/OracleManager.sol\":6020:6071  mapping(address => OracleData) public oracleConfigs */\n    tag_16:\n      mload(0x40)\n      dup1\n      swap2\n      sub\n      swap1\n      return\n        /* \"Contracts/OracleManager.sol\":8412:8999  function getPrice(address token) external view returns (uint256 price, uint8 decimals) {... */\n    tag_4:\n      tag_18\n      tag_19\n      calldatasize\n      0x04\n      tag_14\n      jump\t// in\n    tag_19:\n      tag_20\n      jump\t// in\n    tag_18:\n      0x40\n      dup1\n      mload\n        /* \"#utility.yul\":1119:1144   */\n      swap3\n      dup4\n      mstore\n        /* \"#utility.yul\":1192:1196   */\n      0xff\n        /* \"#utility.yul\":1180:1197   */\n      swap1\n      swap2\n      and\n        /* \"#utility.yul\":1175:1177   */\n      0x20\n        /* \"#utility.yul\":1160:1178   */\n      dup4\n      add\n        /* \"#utility.yul\":1153:1198   */\n      mstore\n        /* \"#utility.yul\":1092:1110   */\n      add\n        /* \"Contracts/OracleManager.sol\":8412:8999  function getPrice(address token) external view returns (uint256 price, uint8 decimals) {... */\n      tag_16\n        /* \"#utility.yul\":949:1204   */\n      jump\n        /* \"https://github.com/OpenZeppelin/openzeppelin-contracts/blob/v4.8.3/contracts/access/Ownable.sol\":1831:1932  function renounceOwnership() public virtual onlyOwner {... */\n    tag_5:\n      tag_23\n      tag_24\n      jump\t// in\n    tag_23:\n      stop\n        /* \"Contracts/OracleManager.sol\":6077:6135  mapping(address => VaultUnderlyingFeeds) public vaultFeeds */\n    tag_6:\n      tag_25\n      tag_26\n      calldatasize\n      0x04\n      tag_14\n      jump\t// in\n    tag_26:\n      mstore(0x20, 0x02)\n      0x00\n      swap1\n      dup2\n      mstore\n      0x40\n      swap1\n      keccak256\n      dup1\n      sload\n      0x01\n      swap1\n      swap2\n      add\n      sload\n      sub(shl(0xa0, 0x01), 0x01)\n      swap2\n      dup3\n      and\n      swap2\n      dup2\n      and\n      swap1\n      0xff\n      shl(0xa0, 0x01)\n      dup3\n      div\n      dup2\n      and\n      swap2\n      shl(0xa8, 0x01)\n      dup2\n      div\n      dup3\n      and\n      swap2\n      shl(0xb0, 0x01)\n      swap1\n      swap2\n      div\n      and\n      dup6\n      jump\n    tag_25:\n      0x40\n      dup1\n      mload\n      sub(shl(0xa0, 0x01), 0x01)\n        /* \"#utility.yul\":1472:1504   */\n      swap7\n      dup8\n      and\n        /* \"#utility.yul\":1454:1505   */\n      dup2\n      mstore\n        /* \"#utility.yul\":1541:1573   */\n      swap6\n      swap1\n      swap5\n      and\n        /* \"#utility.yul\":1536:1538   */\n      0x20\n        /* \"#utility.yul\":1521:1539   */\n      dup7\n      add\n        /* \"#utility.yul\":1514:1574   */\n      mstore\n        /* \"#utility.yul\":1622:1626   */\n      0xff\n        /* \"#utility.yul\":1610:1627   */\n      swap3\n      dup4\n      and\n        /* \"#utility.yul\":1590:1608   */\n      swap4\n      dup6\n      add\n        /* \"#utility.yul\":1583:1628   */\n      swap4\n      swap1\n      swap4\n      mstore\n        /* \"#utility.yul\":1664:1681   */\n      and\n        /* \"#utility.yul\":1659:1661   */\n      0x60\n        /* \"#utility.yul\":1644:1662   */\n      dup4\n      add\n        /* \"#utility.yul\":1637:1682   */\n      mstore\n        /* \"#utility.yul\":1726:1740   */\n      iszero\n        /* \"#utility.yul\":1719:1741   */\n      iszero\n        /* \"#utility.yul\":1713:1716   */\n      0x80\n        /* \"#utility.yul\":1698:1717   */\n      dup3\n      add\n        /* \"#utility.yul\":1691:1742   */\n      mstore\n        /* \"#utility.yul\":1441:1444   */\n      0xa0\n        /* \"#utility.yul\":1426:1445   */\n      add\n        /* \"Contracts/OracleManager.sol\":6077:6135  mapping(address => VaultUnderlyingFeeds) public vaultFeeds */\n      tag_16\n        /* \"#utility.yul\":1209:1748   */\n      jump\n        /* \"https://github.com/OpenZeppelin/openzeppelin-contracts/blob/v4.8.3/contracts/access/Ownable.sol\":1201:1286  function owner() public view virtual returns (address) {... */\n    tag_7:\n        /* \"https://github.com/OpenZeppelin/openzeppelin-contracts/blob/v4.8.3/contracts/access/Ownable.sol\":1247:1254  address */\n      0x00\n        /* \"https://github.com/OpenZeppelin/openzeppelin-contracts/blob/v4.8.3/contracts/access/Ownable.sol\":1273:1279  _owner */\n      sload\n        /* \"https://github.com/OpenZeppelin/openzeppelin-contracts/blob/v4.8.3/contracts/access/Ownable.sol\":1201:1286  function owner() public view virtual returns (address) {... */\n      mload(0x40)\n      sub(shl(0xa0, 0x01), 0x01)\n        /* \"https://github.com/OpenZeppelin/openzeppelin-contracts/blob/v4.8.3/contracts/access/Ownable.sol\":1273:1279  _owner */\n      swap1\n      swap2\n      and\n        /* \"#utility.yul\":1899:1950   */\n      dup2\n      mstore\n        /* \"#utility.yul\":1887:1889   */\n      0x20\n        /* \"#utility.yul\":1872:1890   */\n      add\n        /* \"https://github.com/OpenZeppelin/openzeppelin-contracts/blob/v4.8.3/contracts/access/Ownable.sol\":1201:1286  function owner() public view virtual returns (address) {... */\n      tag_16\n        /* \"#utility.yul\":1753:1956   */\n      jump\n        /* \"Contracts/OracleManager.sol\":7706:8406  function setVaultUnderlyingFeeds(... */\n    tag_8:\n      tag_23\n      tag_35\n      calldatasize\n      0x04\n      tag_36\n      jump\t// in\n    tag_35:\n      tag_37\n      jump\t// in\n        /* \"Contracts/OracleManager.sol\":6750:7700  function setOracleConfig(... */\n    tag_9:\n      tag_23\n      tag_39\n      calldatasize\n      0x04\n      tag_40\n      jump\t// in\n    tag_39:\n      tag_41\n      jump\t// in\n        /* \"https://github.com/OpenZeppelin/openzeppelin-contracts/blob/v4.8.3/contracts/access/Ownable.sol\":2081:2279  function transferOwnership(address newOwner) public virtual onlyOwner {... */\n    tag_10:\n      tag_23\n      tag_43\n      calldatasize\n      0x04\n      tag_14\n      jump\t// in\n    tag_43:\n      tag_44\n      jump\t// in\n        /* \"Contracts/OracleManager.sol\":8412:8999  function getPrice(address token) external view returns (uint256 price, uint8 decimals) {... */\n    tag_20:\n      sub(shl(0xa0, 0x01), 0x01)\n        /* \"Contracts/OracleManager.sol\":8533:8553  oracleConfigs[token] */\n      dup1\n      dup3\n      and\n        /* \"Contracts/OracleManager.sol\":8468:8481  uint256 price */\n      0x00\n        /* \"Contracts/OracleManager.sol\":8533:8553  oracleConfigs[token] */\n      swap1\n      dup2\n      mstore\n        /* \"Contracts/OracleManager.sol\":8533:8546  oracleConfigs */\n      0x01\n        /* \"Contracts/OracleManager.sol\":8533:8553  oracleConfigs[token] */\n      0x20\n      dup2\n      dup2\n      mstore\n      0x40\n      dup1\n      dup5\n      keccak256\n        /* \"Contracts/OracleManager.sol\":8509:8553  OracleData memory cfg = oracleConfigs[token] */\n      dup2\n      mload\n      0xa0\n      dup2\n      add\n      dup4\n      mstore\n      dup2\n      sload\n      dup8\n      and\n      dup1\n      dup3\n      mstore\n      swap2\n      swap1\n      swap5\n      add\n      sload\n      swap6\n      dup7\n      and\n      swap3\n      dup5\n      add\n      swap3\n      swap1\n      swap3\n      mstore\n      0xff\n      shl(0xa0, 0x01)\n      dup7\n      div\n      dup2\n      and\n      iszero\n      iszero\n      swap2\n      dup5\n      add\n      swap2\n      swap1\n      swap2\n      mstore\n      shl(0xa8, 0x01)\n      dup6\n      div\n      dup2\n      and\n      0x60\n      dup5\n      add\n      mstore\n      shl(0xb0, 0x01)\n      swap1\n      swap5\n      div\n      swap1\n      swap4\n      and\n      iszero\n      iszero\n      0x80\n      dup3\n      add\n      mstore\n        /* \"Contracts/OracleManager.sol\":8468:8481  uint256 price */\n      swap1\n      swap2\n      dup3\n      swap2\n        /* \"Contracts/OracleManager.sol\":8509:8553  OracleData memory cfg = oracleConfigs[token] */\n      swap1\n        /* \"Contracts/OracleManager.sol\":8571:8606  cfg.primaryAggregator != address(0) */\n      iszero\n      iszero\n      dup1\n        /* \"Contracts/OracleManager.sol\":8571:8626  cfg.primaryAggregator != address(0) || cfg.isVaultToken */\n      tag_46\n      jumpi\n      pop\n        /* \"Contracts/OracleManager.sol\":8610:8613  cfg */\n      dup1\n        /* \"Contracts/OracleManager.sol\":8610:8626  cfg.isVaultToken */\n      0x80\n      add\n      mload\n        /* \"Contracts/OracleManager.sol\":8571:8626  cfg.primaryAggregator != address(0) || cfg.isVaultToken */\n    tag_46:\n        /* \"Contracts/OracleManager.sol\":8563:8671  require(cfg.primaryAggregator != address(0) || cfg.isVaultToken, \"OracleManager: no aggregator/vault logic\") */\n      tag_47\n      jumpi\n      mload(0x40)\n      shl(0xe5, 0x461bcd)\n      dup2\n      mstore\n        /* \"#utility.yul\":4159:4161   */\n      0x20\n        /* \"Contracts/OracleManager.sol\":8563:8671  require(cfg.primaryAggregator != address(0) || cfg.isVaultToken, \"OracleManager: no aggregator/vault logic\") */\n      0x04\n      dup3\n      add\n        /* \"#utility.yul\":4141:4162   */\n      mstore\n        /* \"#utility.yul\":4198:4200   */\n      0x28\n        /* \"#utility.yul\":4178:4196   */\n      0x24\n      dup3\n      add\n        /* \"#utility.yul\":4171:4201   */\n      mstore\n        /* \"#utility.yul\":4237:4271   */\n      0x4f7261636c654d616e616765723a206e6f2061676772656761746f722f766175\n        /* \"#utility.yul\":4217:4235   */\n      0x44\n      dup3\n      add\n        /* \"#utility.yul\":4210:4272   */\n      mstore\n      shl(0xc0, 0x6c74206c6f676963)\n        /* \"#utility.yul\":4288:4306   */\n      0x64\n      dup3\n      add\n        /* \"#utility.yul\":4281:4319   */\n      mstore\n        /* \"#utility.yul\":4336:4355   */\n      0x84\n      add\n        /* \"Contracts/OracleManager.sol\":8563:8671  require(cfg.primaryAggregator != address(0) || cfg.isVaultToken, \"OracleManager: no aggregator/vault logic\") */\n    tag_48:\n      mload(0x40)\n      dup1\n      swap2\n      sub\n      swap1\n      revert\n    tag_47:\n        /* \"Contracts/OracleManager.sol\":8687:8690  cfg */\n      dup1\n        /* \"Contracts/OracleManager.sol\":8687:8703  cfg.isVaultToken */\n      0x80\n      add\n      mload\n        /* \"Contracts/OracleManager.sol\":8682:8993  if (!cfg.isVaultToken) {... */\n      tag_50\n      jumpi\n        /* \"Contracts/OracleManager.sol\":8739:8763  _getPriceFromConfig(cfg) */\n      tag_51\n        /* \"Contracts/OracleManager.sol\":8759:8762  cfg */\n      dup2\n        /* \"Contracts/OracleManager.sol\":8739:8758  _getPriceFromConfig */\n      tag_52\n        /* \"Contracts/OracleManager.sol\":8739:8763  _getPriceFromConfig(cfg) */\n      jump\t// in\n    tag_51:\n        /* \"Contracts/OracleManager.sol\":8719:8763  (price, decimals) = _getPriceFromConfig(cfg) */\n      swap1\n      swap4\n      pop\n      swap2\n      pop\n        /* \"Contracts/OracleManager.sol\":8682:8993  if (!cfg.isVaultToken) {... */\n      jump(tag_53)\n    tag_50:\n      sub(shl(0xa0, 0x01), 0x01)\n        /* \"Contracts/OracleManager.sol\":8827:8844  vaultFeeds[token] */\n      dup1\n      dup6\n      and\n        /* \"Contracts/OracleManager.sol\":8794:8824  VaultUnderlyingFeeds memory vf */\n      0x00\n        /* \"Contracts/OracleManager.sol\":8827:8844  vaultFeeds[token] */\n      swap1\n      dup2\n      mstore\n        /* \"Contracts/OracleManager.sol\":8827:8837  vaultFeeds */\n      0x02\n        /* \"Contracts/OracleManager.sol\":8827:8844  vaultFeeds[token] */\n      0x20\n      swap1\n      dup2\n      mstore\n      0x40\n      swap2\n      dup3\n      swap1\n      keccak256\n        /* \"Contracts/OracleManager.sol\":8794:8844  VaultUnderlyingFeeds memory vf = vaultFeeds[token] */\n      dup3\n      mload\n      0xa0\n      dup2\n      add\n      dup5\n      mstore\n      dup2\n      sload\n      dup6\n      and\n      dup2\n      mstore\n      0x01\n      swap1\n      swap2\n      add\n      sload\n      swap4\n      dup5\n      and\n      swap2\n      dup2\n      add\n      swap2\n      swap1\n      swap2\n      mstore\n      0xff\n      shl(0xa0, 0x01)\n      dup5\n      div\n      dup2\n      and\n      swap3\n      dup3\n      add\n      swap3\n      swap1\n      swap3\n      mstore\n      shl(0xa8, 0x01)\n      dup4\n      div\n      dup3\n      and\n      0x60\n      dup3\n      add\n      mstore\n      shl(0xb0, 0x01)\n      swap1\n      swap3\n      div\n      and\n      iszero\n      iszero\n      0x80\n      dup3\n      add\n      dup2\n      swap1\n      mstore\n        /* \"Contracts/OracleManager.sol\":8858:8914  require(vf.exists, \"OracleManager: vault feeds not set\") */\n      tag_54\n      jumpi\n      mload(0x40)\n      shl(0xe5, 0x461bcd)\n      dup2\n      mstore\n        /* \"#utility.yul\":4568:4570   */\n      0x20\n        /* \"Contracts/OracleManager.sol\":8858:8914  require(vf.exists, \"OracleManager: vault feeds not set\") */\n      0x04\n      dup3\n      add\n        /* \"#utility.yul\":4550:4571   */\n      mstore\n        /* \"#utility.yul\":4607:4609   */\n      0x22\n        /* \"#utility.yul\":4587:4605   */\n      0x24\n      dup3\n      add\n        /* \"#utility.yul\":4580:4610   */\n      mstore\n        /* \"#utility.yul\":4646:4680   */\n      0x4f7261636c654d616e616765723a207661756c74206665656473206e6f742073\n        /* \"#utility.yul\":4626:4644   */\n      0x44\n      dup3\n      add\n        /* \"#utility.yul\":4619:4681   */\n      mstore\n      shl(0xf2, 0x195d)\n        /* \"#utility.yul\":4697:4715   */\n      0x64\n      dup3\n      add\n        /* \"#utility.yul\":4690:4722   */\n      mstore\n        /* \"#utility.yul\":4739:4758   */\n      0x84\n      add\n        /* \"Contracts/OracleManager.sol\":8858:8914  require(vf.exists, \"OracleManager: vault feeds not set\") */\n      tag_48\n        /* \"#utility.yul\":4366:4764   */\n      jump\n        /* \"Contracts/OracleManager.sol\":8858:8914  require(vf.exists, \"OracleManager: vault feeds not set\") */\n    tag_54:\n        /* \"Contracts/OracleManager.sol\":8948:8982  _computeVaultTokenPrice(token, vf) */\n      tag_57\n        /* \"Contracts/OracleManager.sol\":8972:8977  token */\n      dup6\n        /* \"Contracts/OracleManager.sol\":8979:8981  vf */\n      dup3\n        /* \"Contracts/OracleManager.sol\":8948:8971  _computeVaultTokenPrice */\n      tag_58\n        /* \"Contracts/OracleManager.sol\":8948:8982  _computeVaultTokenPrice(token, vf) */\n      jump\t// in\n    tag_57:\n        /* \"Contracts/OracleManager.sol\":8928:8982  (price, decimals) = _computeVaultTokenPrice(token, vf) */\n      swap1\n      swap5\n      pop\n      swap3\n      pop\n      pop\n        /* \"Contracts/OracleManager.sol\":8682:8993  if (!cfg.isVaultToken) {... */\n    tag_53:\n        /* \"Contracts/OracleManager.sol\":8499:8999  {... */\n      pop\n        /* \"Contracts/OracleManager.sol\":8412:8999  function getPrice(address token) external view returns (uint256 price, uint8 decimals) {... */\n      swap2\n      pop\n      swap2\n      jump\t// out\n        /* \"https://github.com/OpenZeppelin/openzeppelin-contracts/blob/v4.8.3/contracts/access/Ownable.sol\":1831:1932  function renounceOwnership() public virtual onlyOwner {... */\n    tag_24:\n        /* \"https://github.com/OpenZeppelin/openzeppelin-contracts/blob/v4.8.3/contracts/access/Ownable.sol\":1094:1107  _checkOwner() */\n      tag_60\n        /* \"https://github.com/OpenZeppelin/openzeppelin-contracts/blob/v4.8.3/contracts/access/Ownable.sol\":1094:1105  _checkOwner */\n      tag_61\n        /* \"https://github.com/OpenZeppelin/openzeppelin-contracts/blob/v4.8.3/contracts/access/Ownable.sol\":1094:1107  _checkOwner() */\n      jump\t// in\n    tag_60:\n        /* \"https://github.com/OpenZeppelin/openzeppelin-contracts/blob/v4.8.3/contracts/access/Ownable.sol\":1895:1925  _transferOwnership(address(0)) */\n      tag_63\n        /* \"https://github.com/OpenZeppelin/openzeppelin-contracts/blob/v4.8.3/contracts/access/Ownable.sol\":1922:1923  0 */\n      0x00\n        /* \"https://github.com/OpenZeppelin/openzeppelin-contracts/blob/v4.8.3/contracts/access/Ownable.sol\":1895:1913  _transferOwnership */\n      tag_64\n        /* \"https://github.com/OpenZeppelin/openzeppelin-contracts/blob/v4.8.3/contracts/access/Ownable.sol\":1895:1925  _transferOwnership(address(0)) */\n      jump\t// in\n    tag_63:\n        /* \"https://github.com/OpenZeppelin/openzeppelin-contracts/blob/v4.8.3/contracts/access/Ownable.sol\":1831:1932  function renounceOwnership() public virtual onlyOwner {... */\n      jump\t// out\n        /* \"Contracts/OracleManager.sol\":7706:8406  function setVaultUnderlyingFeeds(... */\n    tag_37:\n        /* \"https://github.com/OpenZeppelin/openzeppelin-contracts/blob/v4.8.3/contracts/access/Ownable.sol\":1094:1107  _checkOwner() */\n      tag_67\n        /* \"https://github.com/OpenZeppelin/openzeppelin-contracts/blob/v4.8.3/contracts/access/Ownable.sol\":1094:1105  _checkOwner */\n      tag_61\n        /* \"https://github.com/OpenZeppelin/openzeppelin-contracts/blob/v4.8.3/contracts/access/Ownable.sol\":1094:1107  _checkOwner() */\n      jump\t// in\n    tag_67:\n      sub(shl(0xa0, 0x01), 0x01)\n        /* \"Contracts/OracleManager.sol\":7914:7938  vaultToken != address(0) */\n      dup6\n      and\n        /* \"Contracts/OracleManager.sol\":7906:7976  require(vaultToken != address(0), \"OracleManager: invalid vaultToken\") */\n      tag_69\n      jumpi\n      mload(0x40)\n      shl(0xe5, 0x461bcd)\n      dup2\n      mstore\n        /* \"#utility.yul\":4971:4973   */\n      0x20\n        /* \"Contracts/OracleManager.sol\":7906:7976  require(vaultToken != address(0), \"OracleManager: invalid vaultToken\") */\n      0x04\n      dup3\n      add\n        /* \"#utility.yul\":4953:4974   */\n      mstore\n        /* \"#utility.yul\":5010:5012   */\n      0x21\n        /* \"#utility.yul\":4990:5008   */\n      0x24\n      dup3\n      add\n        /* \"#utility.yul\":4983:5013   */\n      mstore\n        /* \"#utility.yul\":5049:5083   */\n      0x4f7261636c654d616e616765723a20696e76616c6964207661756c74546f6b65\n        /* \"#utility.yul\":5029:5047   */\n      0x44\n      dup3\n      add\n        /* \"#utility.yul\":5022:5084   */\n      mstore\n      shl(0xf9, 0x37)\n        /* \"#utility.yul\":5100:5118   */\n      0x64\n      dup3\n      add\n        /* \"#utility.yul\":5093:5124   */\n      mstore\n        /* \"#utility.yul\":5141:5160   */\n      0x84\n      add\n        /* \"Contracts/OracleManager.sol\":7906:7976  require(vaultToken != address(0), \"OracleManager: invalid vaultToken\") */\n      tag_48\n        /* \"#utility.yul\":4769:5166   */\n      jump\n        /* \"Contracts/OracleManager.sol\":7906:7976  require(vaultToken != address(0), \"OracleManager: invalid vaultToken\") */\n    tag_69:\n        /* \"Contracts/OracleManager.sol\":8012:8230  VaultUnderlyingFeeds({... */\n      0x40\n      dup1\n      mload\n      0xa0\n      dup2\n      add\n      dup3\n      mstore\n      sub(shl(0xa0, 0x01), 0x01)\n      dup1\n      dup8\n      and\n      dup3\n      mstore\n      dup6\n      dup2\n      and\n      0x20\n      dup1\n      dup5\n      add\n      swap2\n      dup3\n      mstore\n      0xff\n      dup1\n      dup9\n      and\n      dup6\n      dup8\n      add\n      swap1\n      dup2\n      mstore\n      dup8\n      dup3\n      and\n      0x60\n      dup8\n      add\n      swap1\n      dup2\n      mstore\n        /* \"Contracts/OracleManager.sol\":8215:8219  true */\n      0x01\n        /* \"Contracts/OracleManager.sol\":8012:8230  VaultUnderlyingFeeds({... */\n      0x80\n      dup9\n      add\n      dup2\n      dup2\n      mstore\n        /* \"Contracts/OracleManager.sol\":7987:8009  vaultFeeds[vaultToken] */\n      dup15\n      dup9\n      and\n      0x00\n      dup2\n      dup2\n      mstore\n        /* \"Contracts/OracleManager.sol\":7987:7997  vaultFeeds */\n      0x02\n        /* \"Contracts/OracleManager.sol\":7987:8009  vaultFeeds[vaultToken] */\n      swap1\n      swap8\n      mstore\n      swap6\n      dup11\n      swap1\n      keccak256\n        /* \"Contracts/OracleManager.sol\":7987:8230  vaultFeeds[vaultToken] = VaultUnderlyingFeeds({... */\n      swap9\n      mload\n      dup10\n      sload\n      swap1\n      dup10\n      and\n      not(sub(shl(0xa0, 0x01), 0x01))\n      swap1\n      swap2\n      and\n      or\n      dup10\n      sstore\n      swap6\n      mload\n      swap8\n      add\n      dup1\n      sload\n      swap3\n      mload\n      swap2\n      mload\n      swap6\n      mload\n      iszero\n      iszero\n      shl(0xb0, 0x01)\n      mul\n      not(shl(0xb0, 0xff))\n      swap7\n      dup6\n      and\n      shl(0xa8, 0x01)\n      mul\n      swap7\n      swap1\n      swap7\n      and\n      not(shl(0xa8, 0xffff))\n      swap3\n      swap1\n      swap5\n      and\n      shl(0xa0, 0x01)\n      mul\n      not(sub(shl(0xa8, 0x01), 0x01))\n      swap1\n      swap4\n      and\n      swap8\n      swap1\n      swap7\n      and\n      swap7\n      swap1\n      swap7\n      or\n      or\n      swap5\n      swap1\n      swap5\n      and\n      swap4\n      swap1\n      swap4\n      or\n      or\n      swap1\n      sstore\n        /* \"Contracts/OracleManager.sol\":8246:8399  VaultUnderlyingFeedsUpdated(... */\n      swap1\n      mload\n      0x2fb5936f285b062770ba9aa206ca7282ebb8f84ad2eda1c664b3059e9c62c1ba\n      swap1\n      tag_72\n      swap1\n        /* \"Contracts/OracleManager.sol\":8065:8074  token0Agg */\n      dup8\n      swap1\n        /* \"Contracts/OracleManager.sol\":8106:8115  token1Agg */\n      dup8\n      swap1\n        /* \"Contracts/OracleManager.sol\":8145:8154  token0Dec */\n      dup8\n      swap1\n        /* \"Contracts/OracleManager.sol\":8184:8193  token1Dec */\n      dup8\n      swap1\n      sub(shl(0xa0, 0x01), 0x01)\n        /* \"#utility.yul\":5412:5444   */\n      swap5\n      dup6\n      and\n        /* \"#utility.yul\":5394:5445   */\n      dup2\n      mstore\n        /* \"#utility.yul\":5481:5513   */\n      swap3\n      swap1\n      swap4\n      and\n        /* \"#utility.yul\":5476:5478   */\n      0x20\n        /* \"#utility.yul\":5461:5479   */\n      dup4\n      add\n        /* \"#utility.yul\":5454:5514   */\n      mstore\n        /* \"#utility.yul\":5562:5566   */\n      0xff\n        /* \"#utility.yul\":5550:5567   */\n      swap1\n      dup2\n      and\n        /* \"#utility.yul\":5545:5547   */\n      0x40\n        /* \"#utility.yul\":5530:5548   */\n      dup4\n      add\n        /* \"#utility.yul\":5523:5568   */\n      mstore\n        /* \"#utility.yul\":5604:5621   */\n      swap2\n      swap1\n      swap2\n      and\n        /* \"#utility.yul\":5599:5601   */\n      0x60\n        /* \"#utility.yul\":5584:5602   */\n      dup3\n      add\n        /* \"#utility.yul\":5577:5622   */\n      mstore\n        /* \"#utility.yul\":5381:5384   */\n      0x80\n        /* \"#utility.yul\":5366:5385   */\n      add\n      swap1\n        /* \"#utility.yul\":5171:5628   */\n      jump\n        /* \"Contracts/OracleManager.sol\":8246:8399  VaultUnderlyingFeedsUpdated(... */\n    tag_72:\n      mload(0x40)\n      dup1\n      swap2\n      sub\n      swap1\n      log2\n        /* \"Contracts/OracleManager.sol\":7706:8406  function setVaultUnderlyingFeeds(... */\n      pop\n      pop\n      pop\n      pop\n      pop\n      jump\t// out\n        /* \"Contracts/OracleManager.sol\":6750:7700  function setOracleConfig(... */\n    tag_41:\n        /* \"https://github.com/OpenZeppelin/openzeppelin-contracts/blob/v4.8.3/contracts/access/Ownable.sol\":1094:1107  _checkOwner() */\n      tag_75\n        /* \"https://github.com/OpenZeppelin/openzeppelin-contracts/blob/v4.8.3/contracts/access/Ownable.sol\":1094:1105  _checkOwner */\n      tag_61\n        /* \"https://github.com/OpenZeppelin/openzeppelin-contracts/blob/v4.8.3/contracts/access/Ownable.sol\":1094:1107  _checkOwner() */\n      jump\t// in\n    tag_75:\n      sub(shl(0xa0, 0x01), 0x01)\n        /* \"Contracts/OracleManager.sol\":6997:7016  token != address(0) */\n      dup7\n      and\n        /* \"Contracts/OracleManager.sol\":6989:7049  require(token != address(0), \"OracleManager: invalid token\") */\n      tag_77\n      jumpi\n      mload(0x40)\n      shl(0xe5, 0x461bcd)\n      dup2\n      mstore\n        /* \"#utility.yul\":5835:5837   */\n      0x20\n        /* \"Contracts/OracleManager.sol\":6989:7049  require(token != address(0), \"OracleManager: invalid token\") */\n      0x04\n      dup3\n      add\n        /* \"#utility.yul\":5817:5838   */\n      mstore\n        /* \"#utility.yul\":5874:5876   */\n      0x1c\n        /* \"#utility.yul\":5854:5872   */\n      0x24\n      dup3\n      add\n        /* \"#utility.yul\":5847:5877   */\n      mstore\n        /* \"#utility.yul\":5913:5943   */\n      0x4f7261636c654d616e616765723a20696e76616c696420746f6b656e00000000\n        /* \"#utility.yul\":5893:5911   */\n      0x44\n      dup3\n      add\n        /* \"#utility.yul\":5886:5944   */\n      mstore\n        /* \"#utility.yul\":5961:5979   */\n      0x64\n      add\n        /* \"Contracts/OracleManager.sol\":6989:7049  require(token != address(0), \"OracleManager: invalid token\") */\n      tag_48\n        /* \"#utility.yul\":5633:5985   */\n      jump\n        /* \"Contracts/OracleManager.sol\":6989:7049  require(token != address(0), \"OracleManager: invalid token\") */\n    tag_77:\n        /* \"Contracts/OracleManager.sol\":7064:7076  isVaultToken */\n      dup1\n        /* \"Contracts/OracleManager.sol\":7059:7195  if (!isVaultToken) {... */\n      tag_81\n      jumpi\n      sub(shl(0xa0, 0x01), 0x01)\n        /* \"Contracts/OracleManager.sol\":7100:7131  primaryAggregator != address(0) */\n      dup6\n      and\n        /* \"Contracts/OracleManager.sol\":7092:7184  require(primaryAggregator != address(0), \"OracleManager: aggregator required for non-vault\") */\n      tag_81\n      jumpi\n      mload(0x40)\n      shl(0xe5, 0x461bcd)\n      dup2\n      mstore\n        /* \"#utility.yul\":6192:6194   */\n      0x20\n        /* \"Contracts/OracleManager.sol\":7092:7184  require(primaryAggregator != address(0), \"OracleManager: aggregator required for non-vault\") */\n      0x04\n      dup3\n      add\n        /* \"#utility.yul\":6174:6195   */\n      mstore\n        /* \"#utility.yul\":6231:6233   */\n      0x30\n        /* \"#utility.yul\":6211:6229   */\n      0x24\n      dup3\n      add\n        /* \"#utility.yul\":6204:6234   */\n      mstore\n        /* \"#utility.yul\":6270:6304   */\n      0x4f7261636c654d616e616765723a2061676772656761746f7220726571756972\n        /* \"#utility.yul\":6250:6268   */\n      0x44\n      dup3\n      add\n        /* \"#utility.yul\":6243:6305   */\n      mstore\n      shl(0x82, 0x195908199bdc881b9bdb8b5d985d5b1d)\n        /* \"#utility.yul\":6321:6339   */\n      0x64\n      dup3\n      add\n        /* \"#utility.yul\":6314:6360   */\n      mstore\n        /* \"#utility.yul\":6377:6396   */\n      0x84\n      add\n        /* \"Contracts/OracleManager.sol\":7092:7184  require(primaryAggregator != address(0), \"OracleManager: aggregator required for non-vault\") */\n      tag_48\n        /* \"#utility.yul\":5990:6402   */\n      jump\n        /* \"Contracts/OracleManager.sol\":7092:7184  require(primaryAggregator != address(0), \"OracleManager: aggregator required for non-vault\") */\n    tag_81:\n        /* \"Contracts/OracleManager.sol\":7228:7485  OracleData({... */\n      0x40\n      dup1\n      mload\n      0xa0\n      dup2\n      add\n      dup3\n      mstore\n      sub(shl(0xa0, 0x01), 0x01)\n      dup1\n      dup9\n      and\n      dup3\n      mstore\n      dup7\n      dup2\n      and\n      0x20\n      dup1\n      dup5\n      add\n      swap2\n      dup3\n      mstore\n      dup8\n      iszero\n      iszero\n      dup5\n      dup7\n      add\n      swap1\n      dup2\n      mstore\n      0xff\n      dup1\n      dup10\n      and\n      0x60\n      dup8\n      add\n      swap1\n      dup2\n      mstore\n      dup9\n      iszero\n      iszero\n      0x80\n      dup9\n      add\n      swap1\n      dup2\n      mstore\n        /* \"Contracts/OracleManager.sol\":7205:7225  oracleConfigs[token] */\n      dup15\n      dup8\n      and\n      0x00\n      dup2\n      dup2\n      mstore\n        /* \"Contracts/OracleManager.sol\":7205:7218  oracleConfigs */\n      0x01\n        /* \"Contracts/OracleManager.sol\":7205:7225  oracleConfigs[token] */\n      swap7\n      dup8\n      swap1\n      mstore\n      dup11\n      swap1\n      keccak256\n        /* \"Contracts/OracleManager.sol\":7205:7485  oracleConfigs[token] = OracleData({... */\n      swap9\n      mload\n      dup10\n      sload\n      swap1\n      dup10\n      and\n      not(sub(shl(0xa0, 0x01), 0x01))\n      swap1\n      swap2\n      and\n      or\n      dup10\n      sstore\n      swap6\n      mload\n      swap8\n      swap1\n      swap5\n      add\n      dup1\n      sload\n      swap4\n      mload\n      swap2\n      mload\n      swap5\n      mload\n      iszero\n      iszero\n      shl(0xb0, 0x01)\n      mul\n      not(shl(0xb0, 0xff))\n      swap6\n      swap1\n      swap4\n      and\n      shl(0xa8, 0x01)\n      mul\n      swap5\n      swap1\n      swap5\n      and\n      not(shl(0xa8, 0xffff))\n      swap2\n      iszero\n      iszero\n      shl(0xa0, 0x01)\n      mul\n      not(sub(shl(0xa8, 0x01), 0x01))\n      swap1\n      swap5\n      and\n      swap8\n      swap1\n      swap7\n      and\n      swap7\n      swap1\n      swap7\n      or\n      swap2\n      swap1\n      swap2\n      or\n      swap5\n      swap1\n      swap5\n      and\n      swap3\n      swap1\n      swap3\n      or\n      swap3\n      swap1\n      swap3\n      or\n      swap1\n      sstore\n        /* \"Contracts/OracleManager.sol\":7501:7693  OracleConfigUpdated(... */\n      swap1\n      mload\n      0x5be58a9eef853f8ae7393174434d0be93daad7445510f6ce6e914b2f297885b8\n      swap1\n      tag_84\n      swap1\n        /* \"Contracts/OracleManager.sol\":7272:7289  primaryAggregator */\n      dup9\n      swap1\n        /* \"Contracts/OracleManager.sol\":7323:7341  fallbackAggregator */\n      dup9\n      swap1\n        /* \"Contracts/OracleManager.sol\":7375:7391  useFallbackIfErr */\n      dup9\n      swap1\n        /* \"Contracts/OracleManager.sol\":7423:7434  decimalsOvr */\n      dup9\n      swap1\n        /* \"Contracts/OracleManager.sol\":7462:7474  isVaultToken */\n      dup9\n      swap1\n      sub(shl(0xa0, 0x01), 0x01)\n        /* \"#utility.yul\":663:695   */\n      swap6\n      dup7\n      and\n        /* \"#utility.yul\":645:696   */\n      dup2\n      mstore\n        /* \"#utility.yul\":732:764   */\n      swap4\n      swap1\n      swap5\n      and\n        /* \"#utility.yul\":727:729   */\n      0x20\n        /* \"#utility.yul\":712:730   */\n      dup5\n      add\n        /* \"#utility.yul\":705:765   */\n      mstore\n        /* \"#utility.yul\":808:822   */\n      swap1\n      iszero\n        /* \"#utility.yul\":801:823   */\n      iszero\n        /* \"#utility.yul\":796:798   */\n      0x40\n        /* \"#utility.yul\":781:799   */\n      dup4\n      add\n        /* \"#utility.yul\":774:824   */\n      mstore\n        /* \"#utility.yul\":872:876   */\n      0xff\n        /* \"#utility.yul\":860:877   */\n      and\n        /* \"#utility.yul\":855:857   */\n      0x60\n        /* \"#utility.yul\":840:858   */\n      dup3\n      add\n        /* \"#utility.yul\":833:878   */\n      mstore\n        /* \"#utility.yul\":922:936   */\n      swap1\n      iszero\n        /* \"#utility.yul\":915:937   */\n      iszero\n        /* \"#utility.yul\":909:912   */\n      0x80\n        /* \"#utility.yul\":894:913   */\n      dup3\n      add\n        /* \"#utility.yul\":887:938   */\n      mstore\n        /* \"#utility.yul\":632:635   */\n      0xa0\n        /* \"#utility.yul\":617:636   */\n      add\n      swap1\n        /* \"#utility.yul\":402:944   */\n      jump\n        /* \"Contracts/OracleManager.sol\":7501:7693  OracleConfigUpdated(... */\n    tag_84:\n      mload(0x40)\n      dup1\n      swap2\n      sub\n      swap1\n      log2\n        /* \"Contracts/OracleManager.sol\":6750:7700  function setOracleConfig(... */\n      pop\n      pop\n      pop\n      pop\n      pop\n      pop\n      jump\t// out\n        /* \"https://github.com/OpenZeppelin/openzeppelin-contracts/blob/v4.8.3/contracts/access/Ownable.sol\":2081:2279  function transferOwnership(address newOwner) public virtual onlyOwner {... */\n    tag_44:\n        /* \"https://github.com/OpenZeppelin/openzeppelin-contracts/blob/v4.8.3/contracts/access/Ownable.sol\":1094:1107  _checkOwner() */\n      tag_86\n        /* \"https://github.com/OpenZeppelin/openzeppelin-contracts/blob/v4.8.3/contracts/access/Ownable.sol\":1094:1105  _checkOwner */\n      tag_61\n        /* \"https://github.com/OpenZeppelin/openzeppelin-contracts/blob/v4.8.3/contracts/access/Ownable.sol\":1094:1107  _checkOwner() */\n      jump\t// in\n    tag_86:\n      sub(shl(0xa0, 0x01), 0x01)\n        /* \"https://github.com/OpenZeppelin/openzeppelin-contracts/blob/v4.8.3/contracts/access/Ownable.sol\":2169:2191  newOwner != address(0) */\n      dup2\n      and\n        /* \"https://github.com/OpenZeppelin/openzeppelin-contracts/blob/v4.8.3/contracts/access/Ownable.sol\":2161:2234  require(newOwner != address(0), \"Ownable: new owner is the zero address\") */\n      tag_88\n      jumpi\n      mload(0x40)\n      shl(0xe5, 0x461bcd)\n      dup2\n      mstore\n        /* \"#utility.yul\":6609:6611   */\n      0x20\n        /* \"https://github.com/OpenZeppelin/openzeppelin-contracts/blob/v4.8.3/contracts/access/Ownable.sol\":2161:2234  require(newOwner != address(0), \"Ownable: new owner is the zero address\") */\n      0x04\n      dup3\n      add\n        /* \"#utility.yul\":6591:6612   */\n      mstore\n        /* \"#utility.yul\":6648:6650   */\n      0x26\n        /* \"#utility.yul\":6628:6646   */\n      0x24\n      dup3\n      add\n        /* \"#utility.yul\":6621:6651   */\n      mstore\n        /* \"#utility.yul\":6687:6721   */\n      0x4f776e61626c653a206e6577206f776e657220697320746865207a65726f2061\n        /* \"#utility.yul\":6667:6685   */\n      0x44\n      dup3\n      add\n        /* \"#utility.yul\":6660:6722   */\n      mstore\n      shl(0xd0, 0x646472657373)\n        /* \"#utility.yul\":6738:6756   */\n      0x64\n      dup3\n      add\n        /* \"#utility.yul\":6731:6767   */\n      mstore\n        /* \"#utility.yul\":6784:6803   */\n      0x84\n      add\n        /* \"https://github.com/OpenZeppelin/openzeppelin-contracts/blob/v4.8.3/contracts/access/Ownable.sol\":2161:2234  require(newOwner != address(0), \"Ownable: new owner is the zero address\") */\n      tag_48\n        /* \"#utility.yul\":6407:6809   */\n      jump\n        /* \"https://github.com/OpenZeppelin/openzeppelin-contracts/blob/v4.8.3/contracts/access/Ownable.sol\":2161:2234  require(newOwner != address(0), \"Ownable: new owner is the zero address\") */\n    tag_88:\n        /* \"https://github.com/OpenZeppelin/openzeppelin-contracts/blob/v4.8.3/contracts/access/Ownable.sol\":2244:2272  _transferOwnership(newOwner) */\n      tag_91\n        /* \"https://github.com/OpenZeppelin/openzeppelin-contracts/blob/v4.8.3/contracts/access/Ownable.sol\":2263:2271  newOwner */\n      dup2\n        /* \"https://github.com/OpenZeppelin/openzeppelin-contracts/blob/v4.8.3/contracts/access/Ownable.sol\":2244:2262  _transferOwnership */\n      tag_64\n        /* \"https://github.com/OpenZeppelin/openzeppelin-contracts/blob/v4.8.3/contracts/access/Ownable.sol\":2244:2272  _transferOwnership(newOwner) */\n      jump\t// in\n    tag_91:\n        /* \"https://github.com/OpenZeppelin/openzeppelin-contracts/blob/v4.8.3/contracts/access/Ownable.sol\":2081:2279  function transferOwnership(address newOwner) public virtual onlyOwner {... */\n      pop\n      jump\t// out\n        /* \"Contracts/OracleManager.sol\":9176:9899  function _getPriceFromConfig(OracleData memory cfg)... */\n    tag_52:\n        /* \"Contracts/OracleManager.sol\":9275:9288  uint256 price */\n      0x00\n        /* \"Contracts/OracleManager.sol\":9290:9304  uint8 decimals */\n      0x00\n        /* \"Contracts/OracleManager.sol\":9321:9335  bool okPrimary */\n      0x00\n        /* \"Contracts/OracleManager.sol\":9337:9346  uint256 p */\n      0x00\n        /* \"Contracts/OracleManager.sol\":9348:9355  uint8 d */\n      0x00\n        /* \"Contracts/OracleManager.sol\":9359:9425  _tryGetChainlinkPrice(cfg.primaryAggregator, cfg.decimalsOverride) */\n      tag_93\n        /* \"Contracts/OracleManager.sol\":9381:9384  cfg */\n      dup7\n        /* \"Contracts/OracleManager.sol\":9381:9402  cfg.primaryAggregator */\n      0x00\n      add\n      mload\n        /* \"Contracts/OracleManager.sol\":9404:9407  cfg */\n      dup8\n        /* \"Contracts/OracleManager.sol\":9404:9424  cfg.decimalsOverride */\n      0x60\n      add\n      mload\n        /* \"Contracts/OracleManager.sol\":9359:9380  _tryGetChainlinkPrice */\n      tag_94\n        /* \"Contracts/OracleManager.sol\":9359:9425  _tryGetChainlinkPrice(cfg.primaryAggregator, cfg.decimalsOverride) */\n      jump\t// in\n    tag_93:\n        /* \"Contracts/OracleManager.sol\":9320:9425  (bool okPrimary, uint256 p, uint8 d) = _tryGetChainlinkPrice(cfg.primaryAggregator, cfg.decimalsOverride) */\n      swap3\n      pop\n      swap3\n      pop\n      swap3\n      pop\n        /* \"Contracts/OracleManager.sol\":9440:9449  okPrimary */\n      dup3\n        /* \"Contracts/OracleManager.sol\":9439:9449  !okPrimary */\n      iszero\n        /* \"Contracts/OracleManager.sol\":9439:9475  !okPrimary && cfg.useFallbackIfError */\n      dup1\n      iszero\n      tag_95\n      jumpi\n      pop\n        /* \"Contracts/OracleManager.sol\":9453:9456  cfg */\n      dup6\n        /* \"Contracts/OracleManager.sol\":9453:9475  cfg.useFallbackIfError */\n      0x40\n      add\n      mload\n        /* \"Contracts/OracleManager.sol\":9439:9475  !okPrimary && cfg.useFallbackIfError */\n    tag_95:\n        /* \"Contracts/OracleManager.sol\":9439:9515  !okPrimary && cfg.useFallbackIfError && cfg.fallbackAggregator != address(0) */\n      dup1\n      iszero\n      tag_96\n      jumpi\n      pop\n        /* \"Contracts/OracleManager.sol\":9479:9501  cfg.fallbackAggregator */\n      0x20\n      dup7\n      add\n      mload\n      sub(shl(0xa0, 0x01), 0x01)\n        /* \"Contracts/OracleManager.sol\":9479:9515  cfg.fallbackAggregator != address(0) */\n      and\n      iszero\n      iszero\n        /* \"Contracts/OracleManager.sol\":9439:9515  !okPrimary && cfg.useFallbackIfError && cfg.fallbackAggregator != address(0) */\n    tag_96:\n        /* \"Contracts/OracleManager.sol\":9435:9800  if (!okPrimary && cfg.useFallbackIfError && cfg.fallbackAggregator != address(0)) {... */\n      iszero\n      tag_97\n      jumpi\n        /* \"Contracts/OracleManager.sol\":9532:9547  bool okFallback */\n      0x00\n        /* \"Contracts/OracleManager.sol\":9549:9566  uint256 pFallback */\n      0x00\n        /* \"Contracts/OracleManager.sol\":9568:9583  uint8 dFallback */\n      0x00\n        /* \"Contracts/OracleManager.sol\":9603:9670  _tryGetChainlinkPrice(cfg.fallbackAggregator, cfg.decimalsOverride) */\n      tag_98\n        /* \"Contracts/OracleManager.sol\":9625:9628  cfg */\n      dup10\n        /* \"Contracts/OracleManager.sol\":9625:9647  cfg.fallbackAggregator */\n      0x20\n      add\n      mload\n        /* \"Contracts/OracleManager.sol\":9649:9652  cfg */\n      dup11\n        /* \"Contracts/OracleManager.sol\":9649:9669  cfg.decimalsOverride */\n      0x60\n      add\n      mload\n        /* \"Contracts/OracleManager.sol\":9603:9624  _tryGetChainlinkPrice */\n      tag_94\n        /* \"Contracts/OracleManager.sol\":9603:9670  _tryGetChainlinkPrice(cfg.fallbackAggregator, cfg.decimalsOverride) */\n      jump\t// in\n    tag_98:\n        /* \"Contracts/OracleManager.sol\":9531:9670  (bool okFallback, uint256 pFallback, uint8 dFallback) =... */\n      swap3\n      pop\n      swap3\n      pop\n      swap3\n      pop\n        /* \"Contracts/OracleManager.sol\":9692:9702  okFallback */\n      dup3\n        /* \"Contracts/OracleManager.sol\":9684:9746  require(okFallback, \"OracleManager: fallback aggregator fail\") */\n      tag_99\n      jumpi\n      mload(0x40)\n      shl(0xe5, 0x461bcd)\n      dup2\n      mstore\n        /* \"#utility.yul\":7016:7018   */\n      0x20\n        /* \"Contracts/OracleManager.sol\":9684:9746  require(okFallback, \"OracleManager: fallback aggregator fail\") */\n      0x04\n      dup3\n      add\n        /* \"#utility.yul\":6998:7019   */\n      mstore\n        /* \"#utility.yul\":7055:7057   */\n      0x27\n        /* \"#utility.yul\":7035:7053   */\n      0x24\n      dup3\n      add\n        /* \"#utility.yul\":7028:7058   */\n      mstore\n        /* \"#utility.yul\":7094:7128   */\n      0x4f7261636c654d616e616765723a2066616c6c6261636b206167677265676174\n        /* \"#utility.yul\":7074:7092   */\n      0x44\n      dup3\n      add\n        /* \"#utility.yul\":7067:7129   */\n      mstore\n      shl(0xca, 0x1bdc8819985a5b)\n        /* \"#utility.yul\":7145:7163   */\n      0x64\n      dup3\n      add\n        /* \"#utility.yul\":7138:7175   */\n      mstore\n        /* \"#utility.yul\":7192:7211   */\n      0x84\n      add\n        /* \"Contracts/OracleManager.sol\":9684:9746  require(okFallback, \"OracleManager: fallback aggregator fail\") */\n      tag_48\n        /* \"#utility.yul\":6814:7217   */\n      jump\n        /* \"Contracts/OracleManager.sol\":9684:9746  require(okFallback, \"OracleManager: fallback aggregator fail\") */\n    tag_99:\n        /* \"Contracts/OracleManager.sol\":9768:9777  pFallback */\n      swap1\n      swap9\n        /* \"Contracts/OracleManager.sol\":9779:9788  dFallback */\n      swap1\n      swap8\n      pop\n        /* \"Contracts/OracleManager.sol\":9176:9899  function _getPriceFromConfig(OracleData memory cfg)... */\n      swap6\n      pop\n      pop\n      pop\n      pop\n      pop\n      pop\n      jump\t// out\n        /* \"Contracts/OracleManager.sol\":9435:9800  if (!okPrimary && cfg.useFallbackIfError && cfg.fallbackAggregator != address(0)) {... */\n    tag_97:\n        /* \"Contracts/OracleManager.sol\":9817:9826  okPrimary */\n      dup3\n        /* \"Contracts/OracleManager.sol\":9809:9869  require(okPrimary, \"OracleManager: primary aggregator fail\") */\n      tag_102\n      jumpi\n      mload(0x40)\n      shl(0xe5, 0x461bcd)\n      dup2\n      mstore\n        /* \"#utility.yul\":7424:7426   */\n      0x20\n        /* \"Contracts/OracleManager.sol\":9809:9869  require(okPrimary, \"OracleManager: primary aggregator fail\") */\n      0x04\n      dup3\n      add\n        /* \"#utility.yul\":7406:7427   */\n      mstore\n        /* \"#utility.yul\":7463:7465   */\n      0x26\n        /* \"#utility.yul\":7443:7461   */\n      0x24\n      dup3\n      add\n        /* \"#utility.yul\":7436:7466   */\n      mstore\n        /* \"#utility.yul\":7502:7536   */\n      0x4f7261636c654d616e616765723a207072696d6172792061676772656761746f\n        /* \"#utility.yul\":7482:7500   */\n      0x44\n      dup3\n      add\n        /* \"#utility.yul\":7475:7537   */\n      mstore\n      shl(0xd2, 0x1c8819985a5b)\n        /* \"#utility.yul\":7553:7571   */\n      0x64\n      dup3\n      add\n        /* \"#utility.yul\":7546:7582   */\n      mstore\n        /* \"#utility.yul\":7599:7618   */\n      0x84\n      add\n        /* \"Contracts/OracleManager.sol\":9809:9869  require(okPrimary, \"OracleManager: primary aggregator fail\") */\n      tag_48\n        /* \"#utility.yul\":7222:7624   */\n      jump\n        /* \"Contracts/OracleManager.sol\":9809:9869  require(okPrimary, \"OracleManager: primary aggregator fail\") */\n    tag_102:\n        /* \"Contracts/OracleManager.sol\":9887:9888  p */\n      swap1\n      swap6\n        /* \"Contracts/OracleManager.sol\":9890:9891  d */\n      swap1\n      swap5\n      pop\n        /* \"Contracts/OracleManager.sol\":9176:9899  function _getPriceFromConfig(OracleData memory cfg)... */\n      swap3\n      pop\n      pop\n      pop\n      jump\t// out\n        /* \"Contracts/OracleManager.sol\":10230:11342  function _computeVaultTokenPrice(address vaultToken, VaultUnderlyingFeeds memory vf)... */\n    tag_58:\n        /* \"Contracts/OracleManager.sol\":10362:10375  uint256 price */\n      0x00\n        /* \"Contracts/OracleManager.sol\":10377:10391  uint8 decimals */\n      0x00\n        /* \"Contracts/OracleManager.sol\":10408:10427  uint256 totalShares */\n      0x00\n        /* \"Contracts/OracleManager.sol\":10429:10444  uint256 tokenId */\n      0x00\n        /* \"Contracts/OracleManager.sol\":10446:10460  address posMgr */\n      0x00\n        /* \"Contracts/OracleManager.sol\":10464:10491  _fetchVaultInfo(vaultToken) */\n      tag_106\n        /* \"Contracts/OracleManager.sol\":10480:10490  vaultToken */\n      dup8\n        /* \"Contracts/OracleManager.sol\":10464:10479  _fetchVaultInfo */\n      tag_107\n        /* \"Contracts/OracleManager.sol\":10464:10491  _fetchVaultInfo(vaultToken) */\n      jump\t// in\n    tag_106:\n        /* \"Contracts/OracleManager.sol\":10407:10491  (uint256 totalShares, uint256 tokenId, address posMgr) = _fetchVaultInfo(vaultToken) */\n      swap3\n      pop\n      swap3\n      pop\n      swap3\n      pop\n        /* \"Contracts/OracleManager.sol\":10502:10527  PositionResult memory pos */\n      0x00\n        /* \"Contracts/OracleManager.sol\":10530:10565  _fetchPositionData(posMgr, tokenId) */\n      tag_108\n        /* \"Contracts/OracleManager.sol\":10549:10555  posMgr */\n      dup3\n        /* \"Contracts/OracleManager.sol\":10557:10564  tokenId */\n      dup5\n        /* \"Contracts/OracleManager.sol\":10530:10548  _fetchPositionData */\n      tag_109\n        /* \"Contracts/OracleManager.sol\":10530:10565  _fetchPositionData(posMgr, tokenId) */\n      jump\t// in\n    tag_108:\n        /* \"Contracts/OracleManager.sol\":10502:10565  PositionResult memory pos = _fetchPositionData(posMgr, tokenId) */\n      swap1\n      pop\n        /* \"Contracts/OracleManager.sol\":10577:10597  uint160 sqrtPriceX96 */\n      0x00\n        /* \"Contracts/OracleManager.sol\":10599:10609  int24 tick */\n      0x00\n        /* \"Contracts/OracleManager.sol\":10613:10666  _getPoolSqrtAndTick(IVaultToken(vaultToken).v3Pool()) */\n      tag_110\n        /* \"Contracts/OracleManager.sol\":10645:10655  vaultToken */\n      dup11\n      sub(shl(0xa0, 0x01), 0x01)\n        /* \"Contracts/OracleManager.sol\":10633:10663  IVaultToken(vaultToken).v3Pool */\n      and\n      0x3a924d5b\n        /* \"Contracts/OracleManager.sol\":10633:10665  IVaultToken(vaultToken).v3Pool() */\n      mload(0x40)\n      dup2\n      0xffffffff\n      and\n      0xe0\n      shl\n      dup2\n      mstore\n      0x04\n      add\n      0x20\n      mload(0x40)\n      dup1\n      dup4\n      sub\n      dup2\n      dup7\n      gas\n      staticcall\n      iszero\n      dup1\n      iszero\n      tag_112\n      jumpi\n      returndatacopy(0x00, 0x00, returndatasize)\n      revert(0x00, returndatasize)\n    tag_112:\n      pop\n      pop\n      pop\n      pop\n      mload(0x40)\n      returndatasize\n      not(0x1f)\n      0x1f\n      dup3\n      add\n      and\n      dup3\n      add\n      dup1\n      0x40\n      mstore\n      pop\n      dup2\n      add\n      swap1\n      tag_113\n      swap2\n      swap1\n      tag_114\n      jump\t// in\n    tag_113:\n        /* \"Contracts/OracleManager.sol\":10613:10632  _getPoolSqrtAndTick */\n      tag_115\n        /* \"Contracts/OracleManager.sol\":10613:10666  _getPoolSqrtAndTick(IVaultToken(vaultToken).v3Pool()) */\n      jump\t// in\n    tag_110:\n        /* \"Contracts/OracleManager.sol\":10576:10666  (uint160 sqrtPriceX96, int24 tick) = _getPoolSqrtAndTick(IVaultToken(vaultToken).v3Pool()) */\n      swap2\n      pop\n      swap2\n      pop\n        /* \"Contracts/OracleManager.sol\":10677:10695  uint256 amtActive0 */\n      0x00\n        /* \"Contracts/OracleManager.sol\":10697:10715  uint256 amtActive1 */\n      0x00\n        /* \"Contracts/OracleManager.sol\":10719:10860  _computeLiquidityAmounts(... */\n      tag_116\n        /* \"Contracts/OracleManager.sol\":10757:10769  sqrtPriceX96 */\n      dup5\n        /* \"Contracts/OracleManager.sol\":10783:10786  pos */\n      dup7\n        /* \"Contracts/OracleManager.sol\":10783:10796  pos.tickLower */\n      0x40\n      add\n      mload\n        /* \"Contracts/OracleManager.sol\":10810:10813  pos */\n      dup8\n        /* \"Contracts/OracleManager.sol\":10810:10823  pos.tickUpper */\n      0x60\n      add\n      mload\n        /* \"Contracts/OracleManager.sol\":10837:10840  pos */\n      dup9\n        /* \"Contracts/OracleManager.sol\":10837:10850  pos.liquidity */\n      0x80\n      add\n      mload\n        /* \"Contracts/OracleManager.sol\":10719:10743  _computeLiquidityAmounts */\n      tag_117\n        /* \"Contracts/OracleManager.sol\":10719:10860  _computeLiquidityAmounts(... */\n      jump\t// in\n    tag_116:\n        /* \"Contracts/OracleManager.sol\":10676:10860  (uint256 amtActive0, uint256 amtActive1) = _computeLiquidityAmounts(... */\n      swap2\n      pop\n      swap2\n      pop\n        /* \"Contracts/OracleManager.sol\":10871:10883  uint256 amt0 */\n      0x00\n        /* \"Contracts/OracleManager.sol\":10899:10902  pos */\n      dup6\n        /* \"Contracts/OracleManager.sol\":10899:10908  pos.owed0 */\n      0xa0\n      add\n      mload\n      sub(shl(0x80, 0x01), 0x01)\n        /* \"Contracts/OracleManager.sol\":10886:10908  amtActive0 + pos.owed0 */\n      and\n        /* \"Contracts/OracleManager.sol\":10886:10896  amtActive0 */\n      dup4\n        /* \"Contracts/OracleManager.sol\":10886:10908  amtActive0 + pos.owed0 */\n      tag_118\n      swap2\n      swap1\n      tag_119\n      jump\t// in\n    tag_118:\n        /* \"Contracts/OracleManager.sol\":10871:10908  uint256 amt0 = amtActive0 + pos.owed0 */\n      swap1\n      pop\n        /* \"Contracts/OracleManager.sol\":10918:10930  uint256 amt1 */\n      0x00\n        /* \"Contracts/OracleManager.sol\":10946:10949  pos */\n      dup7\n        /* \"Contracts/OracleManager.sol\":10946:10955  pos.owed1 */\n      0xc0\n      add\n      mload\n      sub(shl(0x80, 0x01), 0x01)\n        /* \"Contracts/OracleManager.sol\":10933:10955  amtActive1 + pos.owed1 */\n      and\n        /* \"Contracts/OracleManager.sol\":10933:10943  amtActive1 */\n      dup4\n        /* \"Contracts/OracleManager.sol\":10933:10955  amtActive1 + pos.owed1 */\n      tag_120\n      swap2\n      swap1\n      tag_119\n      jump\t// in\n    tag_120:\n        /* \"Contracts/OracleManager.sol\":10918:10955  uint256 amt1 = amtActive1 + pos.owed1 */\n      swap1\n      pop\n        /* \"Contracts/OracleManager.sol\":10966:10990  AggregatorPair memory ap */\n      0x00\n        /* \"Contracts/OracleManager.sol\":10993:11171  AggregatorPair({... */\n      mload(0x40)\n      dup1\n      0x80\n      add\n      0x40\n      mstore\n      dup1\n        /* \"Contracts/OracleManager.sol\":11028:11030  vf */\n      dup16\n        /* \"Contracts/OracleManager.sol\":11028:11047  vf.token0Aggregator */\n      0x00\n      add\n      mload\n      sub(shl(0xa0, 0x01), 0x01)\n        /* \"Contracts/OracleManager.sol\":10993:11171  AggregatorPair({... */\n      and\n      dup2\n      mstore\n      0x20\n      add\n        /* \"Contracts/OracleManager.sol\":11067:11069  vf */\n      dup16\n        /* \"Contracts/OracleManager.sol\":11067:11086  vf.token1Aggregator */\n      0x20\n      add\n      mload\n      sub(shl(0xa0, 0x01), 0x01)\n        /* \"Contracts/OracleManager.sol\":10993:11171  AggregatorPair({... */\n      and\n      dup2\n      mstore\n      0x20\n      add\n        /* \"Contracts/OracleManager.sol\":11106:11108  vf */\n      dup16\n        /* \"Contracts/OracleManager.sol\":11106:11123  vf.token0Decimals */\n      0x40\n      add\n      mload\n        /* \"Contracts/OracleManager.sol\":10993:11171  AggregatorPair({... */\n      0xff\n      and\n      dup2\n      mstore\n      0x20\n      add\n        /* \"Contracts/OracleManager.sol\":11143:11145  vf */\n      dup16\n        /* \"Contracts/OracleManager.sol\":11143:11160  vf.token1Decimals */\n      0x60\n      add\n      mload\n        /* \"Contracts/OracleManager.sol\":10993:11171  AggregatorPair({... */\n      0xff\n      and\n      dup2\n      mstore\n      pop\n        /* \"Contracts/OracleManager.sol\":10966:11171  AggregatorPair memory ap = AggregatorPair({... */\n      swap1\n      pop\n        /* \"Contracts/OracleManager.sol\":11182:11200  uint256 totalValue */\n      0x00\n        /* \"Contracts/OracleManager.sol\":11203:11245  _convertVaultTokensToValue(amt0, amt1, ap) */\n      tag_121\n        /* \"Contracts/OracleManager.sol\":11230:11234  amt0 */\n      dup5\n        /* \"Contracts/OracleManager.sol\":11236:11240  amt1 */\n      dup5\n        /* \"Contracts/OracleManager.sol\":11242:11244  ap */\n      dup5\n        /* \"Contracts/OracleManager.sol\":11203:11229  _convertVaultTokensToValue */\n      tag_122\n        /* \"Contracts/OracleManager.sol\":11203:11245  _convertVaultTokensToValue(amt0, amt1, ap) */\n      jump\t// in\n    tag_121:\n        /* \"Contracts/OracleManager.sol\":11182:11245  uint256 totalValue = _convertVaultTokensToValue(amt0, amt1, ap) */\n      swap1\n      pop\n        /* \"Contracts/OracleManager.sol\":11278:11294  totalShares == 0 */\n      dup12\n      iszero\n        /* \"Contracts/OracleManager.sol\":11278:11312  totalShares == 0 ? 1 : totalShares */\n      tag_123\n      jumpi\n        /* \"Contracts/OracleManager.sol\":11301:11312  totalShares */\n      dup12\n        /* \"Contracts/OracleManager.sol\":11278:11312  totalShares == 0 ? 1 : totalShares */\n      jump(tag_124)\n    tag_123:\n        /* \"Contracts/OracleManager.sol\":11297:11298  1 */\n      0x01\n        /* \"Contracts/OracleManager.sol\":11278:11312  totalShares == 0 ? 1 : totalShares */\n    tag_124:\n        /* \"Contracts/OracleManager.sol\":11264:11313  totalValue / (totalShares == 0 ? 1 : totalShares) */\n      tag_125\n      swap1\n        /* \"Contracts/OracleManager.sol\":11264:11274  totalValue */\n      dup3\n        /* \"Contracts/OracleManager.sol\":11264:11313  totalValue / (totalShares == 0 ? 1 : totalShares) */\n      tag_126\n      jump\t// in\n    tag_125:\n        /* \"Contracts/OracleManager.sol\":11256:11313  price = totalValue / (totalShares == 0 ? 1 : totalShares) */\n      swap14\n      pop\n        /* \"Contracts/OracleManager.sol\":11334:11335  8 */\n      0x08\n        /* \"Contracts/OracleManager.sol\":11323:11335  decimals = 8 */\n      swap13\n      pop\n        /* \"Contracts/OracleManager.sol\":10397:11342  {... */\n      pop\n      pop\n      pop\n      pop\n      pop\n      pop\n      pop\n      pop\n      pop\n      pop\n      pop\n      pop\n        /* \"Contracts/OracleManager.sol\":10230:11342  function _computeVaultTokenPrice(address vaultToken, VaultUnderlyingFeeds memory vf)... */\n      swap3\n      pop\n      swap3\n      swap1\n      pop\n      jump\t// out\n        /* \"https://github.com/OpenZeppelin/openzeppelin-contracts/blob/v4.8.3/contracts/access/Ownable.sol\":1359:1489  function _checkOwner() internal view virtual {... */\n    tag_61:\n        /* \"https://github.com/OpenZeppelin/openzeppelin-contracts/blob/v4.8.3/contracts/access/Ownable.sol\":1247:1254  address */\n      0x00\n        /* \"https://github.com/OpenZeppelin/openzeppelin-contracts/blob/v4.8.3/contracts/access/Ownable.sol\":1273:1279  _owner */\n      sload\n      sub(shl(0xa0, 0x01), 0x01)\n      and\n        /* \"https://github.com/OpenZeppelin/openzeppelin-contracts/blob/v4.8.3/contracts/utils/Context.sol\":719:729  msg.sender */\n      caller\n        /* \"https://github.com/OpenZeppelin/openzeppelin-contracts/blob/v4.8.3/contracts/access/Ownable.sol\":1422:1445  owner() == _msgSender() */\n      eq\n        /* \"https://github.com/OpenZeppelin/openzeppelin-contracts/blob/v4.8.3/contracts/access/Ownable.sol\":1414:1482  require(owner() == _msgSender(), \"Ownable: caller is not the owner\") */\n      tag_63\n      jumpi\n      mload(0x40)\n      shl(0xe5, 0x461bcd)\n      dup2\n      mstore\n        /* \"#utility.yul\":8703:8705   */\n      0x20\n        /* \"https://github.com/OpenZeppelin/openzeppelin-contracts/blob/v4.8.3/contracts/access/Ownable.sol\":1414:1482  require(owner() == _msgSender(), \"Ownable: caller is not the owner\") */\n      0x04\n      dup3\n      add\n        /* \"#utility.yul\":8685:8706   */\n      dup2\n      swap1\n      mstore\n        /* \"#utility.yul\":8722:8740   */\n      0x24\n      dup3\n      add\n        /* \"#utility.yul\":8715:8745   */\n      mstore\n        /* \"#utility.yul\":8781:8815   */\n      0x4f776e61626c653a2063616c6c6572206973206e6f7420746865206f776e6572\n        /* \"#utility.yul\":8761:8779   */\n      0x44\n      dup3\n      add\n        /* \"#utility.yul\":8754:8816   */\n      mstore\n        /* \"#utility.yul\":8833:8851   */\n      0x64\n      add\n        /* \"https://github.com/OpenZeppelin/openzeppelin-contracts/blob/v4.8.3/contracts/access/Ownable.sol\":1414:1482  require(owner() == _msgSender(), \"Ownable: caller is not the owner\") */\n      tag_48\n        /* \"#utility.yul\":8501:8857   */\n      jump\n        /* \"https://github.com/OpenZeppelin/openzeppelin-contracts/blob/v4.8.3/contracts/access/Ownable.sol\":2433:2620  function _transferOwnership(address newOwner) internal virtual {... */\n    tag_64:\n        /* \"https://github.com/OpenZeppelin/openzeppelin-contracts/blob/v4.8.3/contracts/access/Ownable.sol\":2506:2522  address oldOwner */\n      0x00\n        /* \"https://github.com/OpenZeppelin/openzeppelin-contracts/blob/v4.8.3/contracts/access/Ownable.sol\":2525:2531  _owner */\n      dup1\n      sload\n      sub(shl(0xa0, 0x01), 0x01)\n        /* \"https://github.com/OpenZeppelin/openzeppelin-contracts/blob/v4.8.3/contracts/access/Ownable.sol\":2541:2558  _owner = newOwner */\n      dup4\n      dup2\n      and\n      not(sub(shl(0xa0, 0x01), 0x01))\n      dup4\n      and\n      dup2\n      or\n      dup5\n      sstore\n        /* \"https://github.com/OpenZeppelin/openzeppelin-contracts/blob/v4.8.3/contracts/access/Ownable.sol\":2573:2613  OwnershipTransferred(oldOwner, newOwner) */\n      mload(0x40)\n        /* \"https://github.com/OpenZeppelin/openzeppelin-contracts/blob/v4.8.3/contracts/access/Ownable.sol\":2525:2531  _owner */\n      swap2\n      swap1\n      swap3\n      and\n      swap3\n      dup4\n      swap2\n        /* \"https://github.com/OpenZeppelin/openzeppelin-contracts/blob/v4.8.3/contracts/access/Ownable.sol\":2573:2613  OwnershipTransferred(oldOwner, newOwner) */\n      0x8be0079c531659141344cd1fd0a4f28419497f9722a3daafe3b4186f6b6457e0\n      swap2\n        /* \"https://github.com/OpenZeppelin/openzeppelin-contracts/blob/v4.8.3/contracts/access/Ownable.sol\":2506:2522  address oldOwner */\n      swap1\n        /* \"https://github.com/OpenZeppelin/openzeppelin-contracts/blob/v4.8.3/contracts/access/Ownable.sol\":2573:2613  OwnershipTransferred(oldOwner, newOwner) */\n      log3\n        /* \"https://github.com/OpenZeppelin/openzeppelin-contracts/blob/v4.8.3/contracts/access/Ownable.sol\":2496:2620  {... */\n      pop\n        /* \"https://github.com/OpenZeppelin/openzeppelin-contracts/blob/v4.8.3/contracts/access/Ownable.sol\":2433:2620  function _transferOwnership(address newOwner) internal virtual {... */\n      pop\n      jump\t// out\n        /* \"Contracts/OracleManager.sol\":14570:15760  function _tryGetChainlinkPrice(address aggregator, uint8 decimalsOvr)... */\n    tag_94:\n        /* \"Contracts/OracleManager.sol\":14687:14699  bool success */\n      0x00\n      dup1\n      dup1\n      sub(shl(0xa0, 0x01), 0x01)\n        /* \"Contracts/OracleManager.sol\":14750:14774  aggregator == address(0) */\n      dup6\n      and\n        /* \"Contracts/OracleManager.sol\":14746:14821  if (aggregator == address(0)) {... */\n      tag_136\n      jumpi\n      pop\n        /* \"Contracts/OracleManager.sol\":14798:14803  false */\n      0x00\n      swap2\n      pop\n      dup2\n      swap1\n      pop\n      dup1\n        /* \"Contracts/OracleManager.sol\":14790:14810  return (false, 0, 0) */\n      jump(tag_135)\n        /* \"Contracts/OracleManager.sol\":14746:14821  if (aggregator == address(0)) {... */\n    tag_136:\n        /* \"Contracts/OracleManager.sol\":14853:14923  abi.encodeWithSelector(AggregatorV3Interface.latestRoundData.selector) */\n      0x40\n      dup1\n      mload\n      0x04\n      dup2\n      mstore\n      0x24\n      dup2\n      add\n      dup3\n      mstore\n      0x20\n      dup2\n      add\n      dup1\n      mload\n      sub(shl(0xe0, 0x01), 0x01)\n      and\n      shl(0xe2, 0x3fabe5a3)\n      or\n      swap1\n      mstore\n        /* \"Contracts/OracleManager.sol\":14979:15009  aggregator.staticcall(payload) */\n      swap1\n      mload\n        /* \"Contracts/OracleManager.sol\":14830:14850  bytes memory payload */\n      0x00\n      swap1\n      dup2\n      swap1\n      sub(shl(0xa0, 0x01), 0x01)\n        /* \"Contracts/OracleManager.sol\":14979:15000  aggregator.staticcall */\n      dup10\n      and\n      swap1\n        /* \"Contracts/OracleManager.sol\":14979:15009  aggregator.staticcall(payload) */\n      tag_137\n      swap1\n        /* \"Contracts/OracleManager.sol\":14853:14923  abi.encodeWithSelector(AggregatorV3Interface.latestRoundData.selector) */\n      dup6\n      swap1\n        /* \"Contracts/OracleManager.sol\":14979:15009  aggregator.staticcall(payload) */\n      tag_138\n      jump\t// in\n    tag_137:\n      0x00\n      mload(0x40)\n      dup1\n      dup4\n      sub\n      dup2\n      dup6\n      gas\n      staticcall\n      swap2\n      pop\n      pop\n      returndatasize\n      dup1\n      0x00\n      dup2\n      eq\n      tag_141\n      jumpi\n      mload(0x40)\n      swap2\n      pop\n      and(add(returndatasize, 0x3f), not(0x1f))\n      dup3\n      add\n      0x40\n      mstore\n      returndatasize\n      dup3\n      mstore\n      returndatasize\n      0x00\n      0x20\n      dup5\n      add\n      returndatacopy\n      jump(tag_140)\n    tag_141:\n      0x60\n      swap2\n      pop\n    tag_140:\n      pop\n        /* \"Contracts/OracleManager.sol\":14933:15009  (bool callSuccess, bytes memory returnData) = aggregator.staticcall(payload) */\n      swap2\n      pop\n      swap2\n      pop\n        /* \"Contracts/OracleManager.sol\":15024:15035  callSuccess */\n      dup2\n        /* \"Contracts/OracleManager.sol\":15023:15035  !callSuccess */\n      iszero\n        /* \"Contracts/OracleManager.sol\":15023:15062  !callSuccess || returnData.length < 160 */\n      dup1\n      tag_142\n      jumpi\n      pop\n        /* \"Contracts/OracleManager.sol\":15059:15062  160 */\n      0xa0\n        /* \"Contracts/OracleManager.sol\":15039:15049  returnData */\n      dup2\n        /* \"Contracts/OracleManager.sol\":15039:15056  returnData.length */\n      mload\n        /* \"Contracts/OracleManager.sol\":15039:15062  returnData.length < 160 */\n      lt\n        /* \"Contracts/OracleManager.sol\":15023:15062  !callSuccess || returnData.length < 160 */\n    tag_142:\n        /* \"Contracts/OracleManager.sol\":15019:15109  if (!callSuccess || returnData.length < 160) {... */\n      iszero\n      tag_143\n      jumpi\n        /* \"Contracts/OracleManager.sol\":15086:15091  false */\n      0x00\n        /* \"Contracts/OracleManager.sol\":15093:15094  0 */\n      0x00\n        /* \"Contracts/OracleManager.sol\":15096:15097  0 */\n      0x00\n        /* \"Contracts/OracleManager.sol\":15078:15098  return (false, 0, 0) */\n      swap6\n      pop\n      swap6\n      pop\n      swap6\n      pop\n      pop\n      pop\n      pop\n      jump(tag_135)\n        /* \"Contracts/OracleManager.sol\":15019:15109  if (!callSuccess || returnData.length < 160) {... */\n    tag_143:\n        /* \"Contracts/OracleManager.sol\":15122:15135  int256 answer */\n      0x00\n        /* \"Contracts/OracleManager.sol\":15156:15166  returnData */\n      dup2\n        /* \"Contracts/OracleManager.sol\":15145:15211  abi.decode(returnData, (uint80, int256, uint256, uint256, uint80)) */\n      dup1\n      0x20\n      add\n      swap1\n      mload\n      dup2\n      add\n      swap1\n      tag_144\n      swap2\n      swap1\n      tag_145\n      jump\t// in\n    tag_144:\n        /* \"Contracts/OracleManager.sol\":15118:15211  ( , int256 answer, , , ) = abi.decode(returnData, (uint80, int256, uint256, uint256, uint80)) */\n      pop\n      pop\n      pop\n      swap2\n      pop\n      pop\n        /* \"Contracts/OracleManager.sol\":15235:15236  0 */\n      0x00\n        /* \"Contracts/OracleManager.sol\":15225:15231  answer */\n      dup2\n        /* \"Contracts/OracleManager.sol\":15225:15236  answer <= 0 */\n      sgt\n        /* \"Contracts/OracleManager.sol\":15221:15283  if (answer <= 0) {... */\n      tag_146\n      jumpi\n        /* \"Contracts/OracleManager.sol\":15260:15265  false */\n      0x00\n        /* \"Contracts/OracleManager.sol\":15267:15268  0 */\n      0x00\n        /* \"Contracts/OracleManager.sol\":15270:15271  0 */\n      0x00\n        /* \"Contracts/OracleManager.sol\":15252:15272  return (false, 0, 0) */\n      swap7\n      pop\n      swap7\n      pop\n      swap7\n      pop\n      pop\n      pop\n      pop\n      pop\n      jump(tag_135)\n        /* \"Contracts/OracleManager.sol\":15221:15283  if (answer <= 0) {... */\n    tag_146:\n        /* \"Contracts/OracleManager.sol\":15313:15324  decimalsOvr */\n      dup8\n        /* \"Contracts/OracleManager.sol\":15338:15354  aggDecimals == 0 */\n      0xff\n      dup2\n      and\n        /* \"Contracts/OracleManager.sol\":15293:15310  uint8 aggDecimals */\n      0x00\n        /* \"Contracts/OracleManager.sol\":15338:15354  aggDecimals == 0 */\n      sub\n        /* \"Contracts/OracleManager.sol\":15334:15701  if (aggDecimals == 0) {... */\n      tag_147\n      jumpi\n        /* \"Contracts/OracleManager.sol\":15451:15514  abi.encodeWithSelector(AggregatorV3Interface.decimals.selector) */\n      0x40\n      dup1\n      mload\n      0x04\n      dup2\n      mstore\n      0x24\n      dup2\n      add\n      dup3\n      mstore\n      0x20\n      dup2\n      add\n      dup1\n      mload\n      sub(shl(0xe0, 0x01), 0x01)\n      and\n      shl(0xe0, 0x313ce567)\n      or\n      swap1\n      mstore\n        /* \"Contracts/OracleManager.sol\":15412:15528  aggregator.staticcall(... */\n      swap1\n      mload\n        /* \"Contracts/OracleManager.sol\":15371:15386  bool decSuccess */\n      0x00\n      swap2\n      dup3\n      swap2\n      sub(shl(0xa0, 0x01), 0x01)\n        /* \"Contracts/OracleManager.sol\":15412:15433  aggregator.staticcall */\n      dup15\n      and\n      swap2\n        /* \"Contracts/OracleManager.sol\":15412:15528  aggregator.staticcall(... */\n      tag_148\n      swap2\n      tag_138\n      jump\t// in\n    tag_148:\n      0x00\n      mload(0x40)\n      dup1\n      dup4\n      sub\n      dup2\n      dup6\n      gas\n      staticcall\n      swap2\n      pop\n      pop\n      returndatasize\n      dup1\n      0x00\n      dup2\n      eq\n      tag_151\n      jumpi\n      mload(0x40)\n      swap2\n      pop\n      and(add(returndatasize, 0x3f), not(0x1f))\n      dup3\n      add\n      0x40\n      mstore\n      returndatasize\n      dup3\n      mstore\n      returndatasize\n      0x00\n      0x20\n      dup5\n      add\n      returndatacopy\n      jump(tag_150)\n    tag_151:\n      0x60\n      swap2\n      pop\n    tag_150:\n      pop\n        /* \"Contracts/OracleManager.sol\":15370:15528  (bool decSuccess, bytes memory decData) = aggregator.staticcall(... */\n      swap2\n      pop\n      swap2\n      pop\n        /* \"Contracts/OracleManager.sol\":15547:15557  decSuccess */\n      dup2\n        /* \"Contracts/OracleManager.sol\":15546:15557  !decSuccess */\n      iszero\n        /* \"Contracts/OracleManager.sol\":15546:15580  !decSuccess || decData.length < 32 */\n      dup1\n      tag_152\n      jumpi\n      pop\n        /* \"Contracts/OracleManager.sol\":15578:15580  32 */\n      0x20\n        /* \"Contracts/OracleManager.sol\":15561:15568  decData */\n      dup2\n        /* \"Contracts/OracleManager.sol\":15561:15575  decData.length */\n      mload\n        /* \"Contracts/OracleManager.sol\":15561:15580  decData.length < 32 */\n      lt\n        /* \"Contracts/OracleManager.sol\":15546:15580  !decSuccess || decData.length < 32 */\n    tag_152:\n        /* \"Contracts/OracleManager.sol\":15542:15635  if (!decSuccess || decData.length < 32) {... */\n      iszero\n      tag_153\n      jumpi\n        /* \"Contracts/OracleManager.sol\":15608:15613  false */\n      0x00\n        /* \"Contracts/OracleManager.sol\":15615:15616  0 */\n      0x00\n        /* \"Contracts/OracleManager.sol\":15618:15619  0 */\n      0x00\n        /* \"Contracts/OracleManager.sol\":15600:15620  return (false, 0, 0) */\n      swap10\n      pop\n      swap10\n      pop\n      swap10\n      pop\n      pop\n      pop\n      pop\n      pop\n      pop\n      pop\n      pop\n      jump(tag_135)\n        /* \"Contracts/OracleManager.sol\":15542:15635  if (!decSuccess || decData.length < 32) {... */\n    tag_153:\n        /* \"Contracts/OracleManager.sol\":15673:15680  decData */\n      dup1\n        /* \"Contracts/OracleManager.sol\":15662:15690  abi.decode(decData, (uint8)) */\n      dup1\n      0x20\n      add\n      swap1\n      mload\n      dup2\n      add\n      swap1\n      tag_154\n      swap2\n      swap1\n      tag_155\n      jump\t// in\n    tag_154:\n        /* \"Contracts/OracleManager.sol\":15648:15690  aggDecimals = abi.decode(decData, (uint8)) */\n      swap3\n      pop\n        /* \"Contracts/OracleManager.sol\":15356:15701  {... */\n      pop\n      pop\n        /* \"Contracts/OracleManager.sol\":15334:15701  if (aggDecimals == 0) {... */\n    tag_147:\n        /* \"Contracts/OracleManager.sol\":15718:15722  true */\n      0x01\n      swap8\n      pop\n        /* \"Contracts/OracleManager.sol\":15732:15738  answer */\n      swap1\n      swap6\n      pop\n        /* \"Contracts/OracleManager.sol\":15741:15752  aggDecimals */\n      swap4\n      pop\n      pop\n      pop\n      pop\n        /* \"Contracts/OracleManager.sol\":14570:15760  function _tryGetChainlinkPrice(address aggregator, uint8 decimalsOvr)... */\n    tag_135:\n      swap3\n      pop\n      swap3\n      pop\n      swap3\n      jump\t// out\n        /* \"Contracts/OracleManager.sol\":11348:11881  function _fetchVaultInfo(address vaultToken)... */\n    tag_107:\n        /* \"Contracts/OracleManager.sol\":11440:11459  uint256 totalShares */\n      0x00\n        /* \"Contracts/OracleManager.sol\":11461:11476  uint256 tokenId */\n      0x00\n        /* \"Contracts/OracleManager.sol\":11478:11492  address posMgr */\n      0x00\n        /* \"Contracts/OracleManager.sol\":11508:11521  IVaultToken v */\n      0x00\n        /* \"Contracts/OracleManager.sol\":11536:11546  vaultToken */\n      dup5\n        /* \"Contracts/OracleManager.sol\":11508:11547  IVaultToken v = IVaultToken(vaultToken) */\n      swap1\n      pop\n        /* \"Contracts/OracleManager.sol\":11571:11572  v */\n      dup1\n      sub(shl(0xa0, 0x01), 0x01)\n        /* \"Contracts/OracleManager.sol\":11571:11584  v.totalSupply */\n      and\n      0x18160ddd\n        /* \"Contracts/OracleManager.sol\":11571:11586  v.totalSupply() */\n      mload(0x40)\n      dup2\n      0xffffffff\n      and\n      0xe0\n      shl\n      dup2\n      mstore\n      0x04\n      add\n      0x20\n      mload(0x40)\n      dup1\n      dup4\n      sub\n      dup2\n      dup7\n      gas\n      staticcall\n      iszero\n      dup1\n      iszero\n      tag_158\n      jumpi\n      returndatacopy(0x00, 0x00, returndatasize)\n      revert(0x00, returndatasize)\n    tag_158:\n      pop\n      pop\n      pop\n      pop\n      mload(0x40)\n      returndatasize\n      not(0x1f)\n      0x1f\n      dup3\n      add\n      and\n      dup3\n      add\n      dup1\n      0x40\n      mstore\n      pop\n      dup2\n      add\n      swap1\n      tag_159\n      swap2\n      swap1\n      tag_160\n      jump\t// in\n    tag_159:\n        /* \"Contracts/OracleManager.sol\":11557:11586  totalShares = v.totalSupply() */\n      swap4\n      pop\n        /* \"Contracts/OracleManager.sol\":11618:11619  0 */\n      0x00\n        /* \"Contracts/OracleManager.sol\":11604:11615  totalShares */\n      dup5\n        /* \"Contracts/OracleManager.sol\":11604:11619  totalShares > 0 */\n      gt\n        /* \"Contracts/OracleManager.sol\":11596:11658  require(totalShares > 0, \"OracleManager: vault totalSupply=0\") */\n      tag_161\n      jumpi\n      mload(0x40)\n      shl(0xe5, 0x461bcd)\n      dup2\n      mstore\n        /* \"#utility.yul\":10858:10860   */\n      0x20\n        /* \"Contracts/OracleManager.sol\":11596:11658  require(totalShares > 0, \"OracleManager: vault totalSupply=0\") */\n      0x04\n      dup3\n      add\n        /* \"#utility.yul\":10840:10861   */\n      mstore\n        /* \"#utility.yul\":10897:10899   */\n      0x22\n        /* \"#utility.yul\":10877:10895   */\n      0x24\n      dup3\n      add\n        /* \"#utility.yul\":10870:10900   */\n      mstore\n        /* \"#utility.yul\":10936:10970   */\n      0x4f7261636c654d616e616765723a207661756c7420746f74616c537570706c79\n        /* \"#utility.yul\":10916:10934   */\n      0x44\n      dup3\n      add\n        /* \"#utility.yul\":10909:10971   */\n      mstore\n      shl(0xf4, 0x03d3)\n        /* \"#utility.yul\":10987:11005   */\n      0x64\n      dup3\n      add\n        /* \"#utility.yul\":10980:11012   */\n      mstore\n        /* \"#utility.yul\":11029:11048   */\n      0x84\n      add\n        /* \"Contracts/OracleManager.sol\":11596:11658  require(totalShares > 0, \"OracleManager: vault totalSupply=0\") */\n      tag_48\n        /* \"#utility.yul\":10656:11054   */\n      jump\n        /* \"Contracts/OracleManager.sol\":11596:11658  require(totalShares > 0, \"OracleManager: vault totalSupply=0\") */\n    tag_161:\n        /* \"Contracts/OracleManager.sol\":11678:11679  v */\n      dup1\n      sub(shl(0xa0, 0x01), 0x01)\n        /* \"Contracts/OracleManager.sol\":11678:11692  v.vaultTokenId */\n      and\n      0xf657a7fe\n        /* \"Contracts/OracleManager.sol\":11678:11694  v.vaultTokenId() */\n      mload(0x40)\n      dup2\n      0xffffffff\n      and\n      0xe0\n      shl\n      dup2\n      mstore\n      0x04\n      add\n      0x20\n      mload(0x40)\n      dup1\n      dup4\n      sub\n      dup2\n      dup7\n      gas\n      staticcall\n      iszero\n      dup1\n      iszero\n      tag_165\n      jumpi\n      returndatacopy(0x00, 0x00, returndatasize)\n      revert(0x00, returndatasize)\n    tag_165:\n      pop\n      pop\n      pop\n      pop\n      mload(0x40)\n      returndatasize\n      not(0x1f)\n      0x1f\n      dup3\n      add\n      and\n      dup3\n      add\n      dup1\n      0x40\n      mstore\n      pop\n      dup2\n      add\n      swap1\n      tag_166\n      swap2\n      swap1\n      tag_160\n      jump\t// in\n    tag_166:\n        /* \"Contracts/OracleManager.sol\":11668:11694  tokenId = v.vaultTokenId() */\n      swap3\n      pop\n        /* \"Contracts/OracleManager.sol\":11712:11719  tokenId */\n      dup3\n        /* \"Contracts/OracleManager.sol\":11723:11724  0 */\n      0x00\n        /* \"Contracts/OracleManager.sol\":11712:11724  tokenId != 0 */\n      sub\n        /* \"Contracts/OracleManager.sol\":11704:11759  require(tokenId != 0, \"OracleManager: no NFT in vault\") */\n      tag_167\n      jumpi\n      mload(0x40)\n      shl(0xe5, 0x461bcd)\n      dup2\n      mstore\n        /* \"#utility.yul\":11261:11263   */\n      0x20\n        /* \"Contracts/OracleManager.sol\":11704:11759  require(tokenId != 0, \"OracleManager: no NFT in vault\") */\n      0x04\n      dup3\n      add\n        /* \"#utility.yul\":11243:11264   */\n      mstore\n        /* \"#utility.yul\":11300:11302   */\n      0x1e\n        /* \"#utility.yul\":11280:11298   */\n      0x24\n      dup3\n      add\n        /* \"#utility.yul\":11273:11303   */\n      mstore\n        /* \"#utility.yul\":11339:11371   */\n      0x4f7261636c654d616e616765723a206e6f204e465420696e207661756c740000\n        /* \"#utility.yul\":11319:11337   */\n      0x44\n      dup3\n      add\n        /* \"#utility.yul\":11312:11372   */\n      mstore\n        /* \"#utility.yul\":11389:11407   */\n      0x64\n      add\n        /* \"Contracts/OracleManager.sol\":11704:11759  require(tokenId != 0, \"OracleManager: no NFT in vault\") */\n      tag_48\n        /* \"#utility.yul\":11059:11413   */\n      jump\n        /* \"Contracts/OracleManager.sol\":11704:11759  require(tokenId != 0, \"OracleManager: no NFT in vault\") */\n    tag_167:\n        /* \"Contracts/OracleManager.sol\":11778:11779  v */\n      dup1\n      sub(shl(0xa0, 0x01), 0x01)\n        /* \"Contracts/OracleManager.sol\":11778:11795  v.positionManager */\n      and\n      0x791b98bc\n        /* \"Contracts/OracleManager.sol\":11778:11797  v.positionManager() */\n      mload(0x40)\n      dup2\n      0xffffffff\n      and\n      0xe0\n      shl\n      dup2\n      mstore\n      0x04\n      add\n      0x20\n      mload(0x40)\n      dup1\n      dup4\n      sub\n      dup2\n      dup7\n      gas\n      staticcall\n      iszero\n      dup1\n      iszero\n      tag_171\n      jumpi\n      returndatacopy(0x00, 0x00, returndatasize)\n      revert(0x00, returndatasize)\n    tag_171:\n      pop\n      pop\n      pop\n      pop\n      mload(0x40)\n      returndatasize\n      not(0x1f)\n      0x1f\n      dup3\n      add\n      and\n      dup3\n      add\n      dup1\n      0x40\n      mstore\n      pop\n      dup2\n      add\n      swap1\n      tag_172\n      swap2\n      swap1\n      tag_114\n      jump\t// in\n    tag_172:\n        /* \"Contracts/OracleManager.sol\":11769:11797  posMgr = v.positionManager() */\n      swap2\n      pop\n      sub(shl(0xa0, 0x01), 0x01)\n        /* \"Contracts/OracleManager.sol\":11815:11835  posMgr != address(0) */\n      dup3\n      and\n        /* \"Contracts/OracleManager.sol\":11807:11874  require(posMgr != address(0), \"OracleManager: invalid positionMgr\") */\n      tag_173\n      jumpi\n      mload(0x40)\n      shl(0xe5, 0x461bcd)\n      dup2\n      mstore\n        /* \"#utility.yul\":11620:11622   */\n      0x20\n        /* \"Contracts/OracleManager.sol\":11807:11874  require(posMgr != address(0), \"OracleManager: invalid positionMgr\") */\n      0x04\n      dup3\n      add\n        /* \"#utility.yul\":11602:11623   */\n      mstore\n        /* \"#utility.yul\":11659:11661   */\n      0x22\n        /* \"#utility.yul\":11639:11657   */\n      0x24\n      dup3\n      add\n        /* \"#utility.yul\":11632:11662   */\n      mstore\n        /* \"#utility.yul\":11698:11732   */\n      0x4f7261636c654d616e616765723a20696e76616c696420706f736974696f6e4d\n        /* \"#utility.yul\":11678:11696   */\n      0x44\n      dup3\n      add\n        /* \"#utility.yul\":11671:11733   */\n      mstore\n      shl(0xf1, 0x33b9)\n        /* \"#utility.yul\":11749:11767   */\n      0x64\n      dup3\n      add\n        /* \"#utility.yul\":11742:11774   */\n      mstore\n        /* \"#utility.yul\":11791:11810   */\n      0x84\n      add\n        /* \"Contracts/OracleManager.sol\":11807:11874  require(posMgr != address(0), \"OracleManager: invalid positionMgr\") */\n      tag_48\n        /* \"#utility.yul\":11418:11816   */\n      jump\n        /* \"Contracts/OracleManager.sol\":11807:11874  require(posMgr != address(0), \"OracleManager: invalid positionMgr\") */\n    tag_173:\n        /* \"Contracts/OracleManager.sol\":11498:11881  {... */\n      pop\n        /* \"Contracts/OracleManager.sol\":11348:11881  function _fetchVaultInfo(address vaultToken)... */\n      swap2\n      swap4\n      swap1\n      swap3\n      pop\n      jump\t// out\n        /* \"Contracts/OracleManager.sol\":11887:12669  function _fetchPositionData(address posMgr, uint256 tokenId)... */\n    tag_109:\n      0x40\n      dup1\n      mload\n      0xe0\n      dup2\n      add\n      dup3\n      mstore\n      0x00\n      dup1\n      dup3\n      mstore\n      0x20\n      dup3\n      add\n      dup2\n      swap1\n      mstore\n      swap2\n      dup2\n      add\n      dup3\n      swap1\n      mstore\n      0x60\n      dup2\n      add\n      dup3\n      swap1\n      mstore\n      0x80\n      dup2\n      add\n      dup3\n      swap1\n      mstore\n      0xa0\n      dup2\n      add\n      dup3\n      swap1\n      mstore\n      0xc0\n      dup2\n      add\n      swap2\n      swap1\n      swap2\n      mstore\n        /* \"Contracts/OracleManager.sol\":12037:12049  bool success */\n      0x00\n        /* \"Contracts/OracleManager.sol\":12051:12068  bytes memory data */\n      0x00\n        /* \"Contracts/OracleManager.sol\":12072:12078  posMgr */\n      dup5\n      sub(shl(0xa0, 0x01), 0x01)\n        /* \"Contracts/OracleManager.sol\":12072:12089  posMgr.staticcall */\n      and\n        /* \"Contracts/OracleManager.sol\":12126:12172  INonfungiblePositionManager.positions.selector */\n      shl(0xe0, 0x99fbab88)\n        /* \"Contracts/OracleManager.sol\":12174:12181  tokenId */\n      dup6\n        /* \"Contracts/OracleManager.sol\":12103:12182  abi.encodeWithSelector(INonfungiblePositionManager.positions.selector, tokenId) */\n      add(0x24, mload(0x40))\n      tag_179\n      swap2\n        /* \"#utility.yul\":11967:11992   */\n      dup2\n      mstore\n        /* \"#utility.yul\":11955:11957   */\n      0x20\n        /* \"#utility.yul\":11940:11958   */\n      add\n      swap1\n        /* \"#utility.yul\":11821:11998   */\n      jump\n        /* \"Contracts/OracleManager.sol\":12103:12182  abi.encodeWithSelector(INonfungiblePositionManager.positions.selector, tokenId) */\n    tag_179:\n      0x40\n      dup1\n      mload\n      not(0x1f)\n      dup2\n      dup5\n      sub\n      add\n      dup2\n      mstore\n      swap2\n      dup2\n      mstore\n      0x20\n      dup3\n      add\n      dup1\n      mload\n      sub(shl(0xe0, 0x01), 0x01)\n      and\n      not(sub(shl(0xe0, 0x01), 0x01))\n      swap1\n      swap5\n      and\n      swap4\n      swap1\n      swap4\n      or\n      swap1\n      swap3\n      mstore\n        /* \"Contracts/OracleManager.sol\":12072:12192  posMgr.staticcall(... */\n      swap1\n      mload\n      tag_181\n      swap2\n        /* \"Contracts/OracleManager.sol\":12103:12182  abi.encodeWithSelector(INonfungiblePositionManager.positions.selector, tokenId) */\n      swap1\n        /* \"Contracts/OracleManager.sol\":12072:12192  posMgr.staticcall(... */\n      tag_138\n      jump\t// in\n    tag_181:\n      0x00\n      mload(0x40)\n      dup1\n      dup4\n      sub\n      dup2\n      dup6\n      gas\n      staticcall\n      swap2\n      pop\n      pop\n      returndatasize\n      dup1\n      0x00\n      dup2\n      eq\n      tag_184\n      jumpi\n      mload(0x40)\n      swap2\n      pop\n      and(add(returndatasize, 0x3f), not(0x1f))\n      dup3\n      add\n      0x40\n      mstore\n      returndatasize\n      dup3\n      mstore\n      returndatasize\n      0x00\n      0x20\n      dup5\n      add\n      returndatacopy\n      jump(tag_183)\n    tag_184:\n      0x60\n      swap2\n      pop\n    tag_183:\n      pop\n        /* \"Contracts/OracleManager.sol\":12036:12192  (bool success, bytes memory data) = posMgr.staticcall(... */\n      swap2\n      pop\n      swap2\n      pop\n        /* \"Contracts/OracleManager.sol\":12210:12217  success */\n      dup2\n        /* \"Contracts/OracleManager.sol\":12219:12238  _getRevertMsg(data) */\n      tag_185\n        /* \"Contracts/OracleManager.sol\":12233:12237  data */\n      dup3\n        /* \"Contracts/OracleManager.sol\":12219:12232  _getRevertMsg */\n      tag_186\n        /* \"Contracts/OracleManager.sol\":12219:12238  _getRevertMsg(data) */\n      jump\t// in\n    tag_185:\n        /* \"Contracts/OracleManager.sol\":12202:12239  require(success, _getRevertMsg(data)) */\n      swap1\n      tag_187\n      jumpi\n      mload(0x40)\n      shl(0xe5, 0x461bcd)\n      dup2\n      mstore\n      0x04\n      add\n      tag_48\n      swap2\n      swap1\n      tag_189\n      jump\t// in\n    tag_187:\n      pop\n        /* \"Contracts/OracleManager.sol\":12532:12536  data */\n      dup1\n        /* \"Contracts/OracleManager.sol\":12508:12662  abi.decode(... */\n      dup1\n      0x20\n      add\n      swap1\n      mload\n      dup2\n      add\n      swap1\n      tag_190\n      swap2\n      swap1\n      tag_191\n      jump\t// in\n    tag_190:\n        /* \"Contracts/OracleManager.sol\":12250:12662  (... */\n      swap1\n      swap2\n      swap3\n      swap4\n      swap5\n      swap6\n      swap7\n      swap8\n      swap9\n      swap10\n      swap11\n      pop\n      swap1\n      swap2\n      swap3\n      swap4\n      swap5\n      swap6\n      swap7\n      swap8\n      swap9\n      swap10\n      pop\n      swap1\n      swap2\n      swap3\n      swap4\n      swap5\n      swap6\n      swap7\n      pop\n      swap1\n      swap2\n      swap3\n      pop\n      swap1\n      swap2\n      pop\n        /* \"Contracts/OracleManager.sol\":12292:12295  pos */\n      dup10\n        /* \"Contracts/OracleManager.sol\":12292:12302  pos.token0 */\n      0x00\n      add\n        /* \"Contracts/OracleManager.sol\":12316:12319  pos */\n      dup11\n        /* \"Contracts/OracleManager.sol\":12316:12326  pos.token1 */\n      0x20\n      add\n        /* \"Contracts/OracleManager.sol\":12354:12357  pos */\n      dup12\n        /* \"Contracts/OracleManager.sol\":12354:12367  pos.tickLower */\n      0x40\n      add\n        /* \"Contracts/OracleManager.sol\":12381:12384  pos */\n      dup13\n        /* \"Contracts/OracleManager.sol\":12381:12394  pos.tickUpper */\n      0x60\n      add\n        /* \"Contracts/OracleManager.sol\":12408:12411  pos */\n      dup14\n        /* \"Contracts/OracleManager.sol\":12408:12421  pos.liquidity */\n      0x80\n      add\n        /* \"Contracts/OracleManager.sol\":12463:12466  pos */\n      dup15\n        /* \"Contracts/OracleManager.sol\":12463:12472  pos.owed0 */\n      0xa0\n      add\n        /* \"Contracts/OracleManager.sol\":12486:12489  pos */\n      dup16\n        /* \"Contracts/OracleManager.sol\":12486:12495  pos.owed1 */\n      0xc0\n      add\n        /* \"Contracts/OracleManager.sol\":12250:12662  (... */\n      dup8\n      sub(shl(0x80, 0x01), 0x01)\n      and\n      sub(shl(0x80, 0x01), 0x01)\n      and\n      dup2\n      mstore\n      pop\n      dup8\n      sub(shl(0x80, 0x01), 0x01)\n      and\n      sub(shl(0x80, 0x01), 0x01)\n      and\n      dup2\n      mstore\n      pop\n      dup8\n      sub(shl(0x80, 0x01), 0x01)\n      and\n      sub(shl(0x80, 0x01), 0x01)\n      and\n      dup2\n      mstore\n      pop\n      dup8\n      0x02\n      signextend\n      0x02\n      signextend\n      dup2\n      mstore\n      pop\n      dup8\n      0x02\n      signextend\n      0x02\n      signextend\n      dup2\n      mstore\n      pop\n      dup8\n      sub(shl(0xa0, 0x01), 0x01)\n      and\n      sub(shl(0xa0, 0x01), 0x01)\n      and\n      dup2\n      mstore\n      pop\n      dup8\n      sub(shl(0xa0, 0x01), 0x01)\n      and\n      sub(shl(0xa0, 0x01), 0x01)\n      and\n      dup2\n      mstore\n      pop\n      pop\n      pop\n      pop\n      pop\n      pop\n      pop\n      pop\n        /* \"Contracts/OracleManager.sol\":12026:12669  {... */\n      pop\n      pop\n        /* \"Contracts/OracleManager.sol\":11887:12669  function _fetchPositionData(address posMgr, uint256 tokenId)... */\n      swap3\n      swap2\n      pop\n      pop\n      jump\t// out\n        /* \"Contracts/OracleManager.sol\":12675:13161  function _getPoolSqrtAndTick(address poolAddr) internal view returns (uint160 sqrtPriceX96, int24 tick) {... */\n    tag_115:\n        /* \"Contracts/OracleManager.sol\":12745:12765  uint160 sqrtPriceX96 */\n      0x00\n      dup1\n      sub(shl(0xa0, 0x01), 0x01)\n        /* \"Contracts/OracleManager.sol\":12797:12819  poolAddr != address(0) */\n      dup4\n      and\n        /* \"Contracts/OracleManager.sol\":12789:12851  require(poolAddr != address(0), \"OracleManager: invalid pool\") */\n      tag_193\n      jumpi\n      mload(0x40)\n      shl(0xe5, 0x461bcd)\n      dup2\n      mstore\n        /* \"#utility.yul\":14636:14638   */\n      0x20\n        /* \"Contracts/OracleManager.sol\":12789:12851  require(poolAddr != address(0), \"OracleManager: invalid pool\") */\n      0x04\n      dup3\n      add\n        /* \"#utility.yul\":14618:14639   */\n      mstore\n        /* \"#utility.yul\":14675:14677   */\n      0x1b\n        /* \"#utility.yul\":14655:14673   */\n      0x24\n      dup3\n      add\n        /* \"#utility.yul\":14648:14678   */\n      mstore\n        /* \"#utility.yul\":14714:14743   */\n      0x4f7261636c654d616e616765723a20696e76616c696420706f6f6c0000000000\n        /* \"#utility.yul\":14694:14712   */\n      0x44\n      dup3\n      add\n        /* \"#utility.yul\":14687:14744   */\n      mstore\n        /* \"#utility.yul\":14761:14779   */\n      0x64\n      add\n        /* \"Contracts/OracleManager.sol\":12789:12851  require(poolAddr != address(0), \"OracleManager: invalid pool\") */\n      tag_48\n        /* \"#utility.yul\":14434:14785   */\n      jump\n        /* \"Contracts/OracleManager.sol\":12789:12851  require(poolAddr != address(0), \"OracleManager: invalid pool\") */\n    tag_193:\n        /* \"Contracts/OracleManager.sol\":12930:12983  abi.encodeWithSelector(IUniswapV3Pool.slot0.selector) */\n      0x40\n      dup1\n      mload\n      0x04\n      dup2\n      mstore\n      0x24\n      dup2\n      add\n      dup3\n      mstore\n      0x20\n      dup2\n      add\n      dup1\n      mload\n      sub(shl(0xe0, 0x01), 0x01)\n      and\n      shl(0xe0, 0x3850c7bd)\n      or\n      swap1\n      mstore\n        /* \"Contracts/OracleManager.sol\":12897:12993  poolAddr.staticcall(... */\n      swap1\n      mload\n        /* \"Contracts/OracleManager.sol\":12862:12874  bool success */\n      0x00\n      swap2\n      dup3\n      swap2\n      sub(shl(0xa0, 0x01), 0x01)\n        /* \"Contracts/OracleManager.sol\":12897:12916  poolAddr.staticcall */\n      dup8\n      and\n      swap2\n        /* \"Contracts/OracleManager.sol\":12897:12993  poolAddr.staticcall(... */\n      tag_196\n      swap2\n      tag_138\n      jump\t// in\n    tag_196:\n      0x00\n      mload(0x40)\n      dup1\n      dup4\n      sub\n      dup2\n      dup6\n      gas\n      staticcall\n      swap2\n      pop\n      pop\n      returndatasize\n      dup1\n      0x00\n      dup2\n      eq\n      tag_199\n      jumpi\n      mload(0x40)\n      swap2\n      pop\n      and(add(returndatasize, 0x3f), not(0x1f))\n      dup3\n      add\n      0x40\n      mstore\n      returndatasize\n      dup3\n      mstore\n      returndatasize\n      0x00\n      0x20\n      dup5\n      add\n      returndatacopy\n      jump(tag_198)\n    tag_199:\n      0x60\n      swap2\n      pop\n    tag_198:\n      pop\n        /* \"Contracts/OracleManager.sol\":12861:12993  (bool success, bytes memory data) = poolAddr.staticcall(... */\n      swap2\n      pop\n      swap2\n      pop\n        /* \"Contracts/OracleManager.sol\":13011:13018  success */\n      dup2\n        /* \"Contracts/OracleManager.sol\":13020:13039  _getRevertMsg(data) */\n      tag_200\n        /* \"Contracts/OracleManager.sol\":13034:13038  data */\n      dup3\n        /* \"Contracts/OracleManager.sol\":13020:13033  _getRevertMsg */\n      tag_186\n        /* \"Contracts/OracleManager.sol\":13020:13039  _getRevertMsg(data) */\n      jump\t// in\n    tag_200:\n        /* \"Contracts/OracleManager.sol\":13003:13040  require(success, _getRevertMsg(data)) */\n      swap1\n      tag_201\n      jumpi\n      mload(0x40)\n      shl(0xe5, 0x461bcd)\n      dup2\n      mstore\n      0x04\n      add\n      tag_48\n      swap2\n      swap1\n      tag_189\n      jump\t// in\n    tag_201:\n      pop\n        /* \"Contracts/OracleManager.sol\":13094:13098  data */\n      dup1\n        /* \"Contracts/OracleManager.sol\":13083:13154  abi.decode(data, (uint160, int24, uint16, uint16, uint16, uint8, bool)) */\n      dup1\n      0x20\n      add\n      swap1\n      mload\n      dup2\n      add\n      swap1\n      tag_203\n      swap2\n      swap1\n      tag_204\n      jump\t// in\n    tag_203:\n      pop\n        /* \"Contracts/OracleManager.sol\":13050:13154  (sqrtPriceX96, tick, , , , , ) = abi.decode(data, (uint160, int24, uint16, uint16, uint16, uint8, bool)) */\n      swap5\n      swap11\n      swap4\n      swap10\n      pop\n        /* \"Contracts/OracleManager.sol\":12675:13161  function _getPoolSqrtAndTick(address poolAddr) internal view returns (uint160 sqrtPriceX96, int24 tick) {... */\n      swap3\n      swap8\n      pop\n      pop\n      pop\n      pop\n      pop\n      pop\n      pop\n      pop\n      jump\t// out\n        /* \"Contracts/OracleManager.sol\":13167:13755  function _computeLiquidityAmounts(... */\n    tag_117:\n        /* \"Contracts/OracleManager.sol\":13337:13349  uint256 amt0 */\n      0x00\n        /* \"Contracts/OracleManager.sol\":13351:13363  uint256 amt1 */\n      0x00\n        /* \"Contracts/OracleManager.sol\":13379:13388  liquidity */\n      dup3\n      sub(shl(0x80, 0x01), 0x01)\n        /* \"Contracts/OracleManager.sol\":13379:13393  liquidity == 0 */\n      and\n        /* \"Contracts/OracleManager.sol\":13392:13393  0 */\n      0x00\n        /* \"Contracts/OracleManager.sol\":13379:13393  liquidity == 0 */\n      sub\n        /* \"Contracts/OracleManager.sol\":13375:13433  if (liquidity == 0) {... */\n      tag_206\n      jumpi\n      pop\n        /* \"Contracts/OracleManager.sol\":13417:13418  0 */\n      0x00\n      swap1\n      pop\n      dup1\n        /* \"Contracts/OracleManager.sol\":13409:13422  return (0, 0) */\n      jump(tag_205)\n        /* \"Contracts/OracleManager.sol\":13375:13433  if (liquidity == 0) {... */\n    tag_206:\n        /* \"Contracts/OracleManager.sol\":13442:13459  uint160 sqrtLower */\n      0x00\n        /* \"Contracts/OracleManager.sol\":13462:13505  TickMathLocal.getSqrtRatioAtTick(tickLower) */\n      tag_207\n        /* \"Contracts/OracleManager.sol\":13495:13504  tickLower */\n      dup7\n        /* \"Contracts/OracleManager.sol\":13462:13494  TickMathLocal.getSqrtRatioAtTick */\n      tag_208\n        /* \"Contracts/OracleManager.sol\":13462:13505  TickMathLocal.getSqrtRatioAtTick(tickLower) */\n      jump\t// in\n    tag_207:\n        /* \"Contracts/OracleManager.sol\":13442:13505  uint160 sqrtLower = TickMathLocal.getSqrtRatioAtTick(tickLower) */\n      swap1\n      pop\n        /* \"Contracts/OracleManager.sol\":13515:13532  uint160 sqrtUpper */\n      0x00\n        /* \"Contracts/OracleManager.sol\":13535:13578  TickMathLocal.getSqrtRatioAtTick(tickUpper) */\n      tag_209\n        /* \"Contracts/OracleManager.sol\":13568:13577  tickUpper */\n      dup7\n        /* \"Contracts/OracleManager.sol\":13535:13567  TickMathLocal.getSqrtRatioAtTick */\n      tag_208\n        /* \"Contracts/OracleManager.sol\":13535:13578  TickMathLocal.getSqrtRatioAtTick(tickUpper) */\n      jump\t// in\n    tag_209:\n        /* \"Contracts/OracleManager.sol\":13515:13578  uint160 sqrtUpper = TickMathLocal.getSqrtRatioAtTick(tickUpper) */\n      swap1\n      pop\n        /* \"Contracts/OracleManager.sol\":13604:13748  LiquidityAmounts.getAmountsForLiquidity(... */\n      tag_210\n        /* \"Contracts/OracleManager.sol\":13657:13669  sqrtPriceX96 */\n      dup9\n        /* \"Contracts/OracleManager.sol\":13683:13692  sqrtLower */\n      dup4\n        /* \"Contracts/OracleManager.sol\":13706:13715  sqrtUpper */\n      dup4\n        /* \"Contracts/OracleManager.sol\":13729:13738  liquidity */\n      dup9\n        /* \"Contracts/OracleManager.sol\":13604:13643  LiquidityAmounts.getAmountsForLiquidity */\n      tag_211\n        /* \"Contracts/OracleManager.sol\":13604:13748  LiquidityAmounts.getAmountsForLiquidity(... */\n      jump\t// in\n    tag_210:\n        /* \"Contracts/OracleManager.sol\":13589:13748  (amt0, amt1) = LiquidityAmounts.getAmountsForLiquidity(... */\n      swap1\n      swap5\n      pop\n      swap3\n      pop\n      pop\n      pop\n        /* \"Contracts/OracleManager.sol\":13167:13755  function _computeLiquidityAmounts(... */\n    tag_205:\n      swap5\n      pop\n      swap5\n      swap3\n      pop\n      pop\n      pop\n      jump\t// out\n        /* \"Contracts/OracleManager.sol\":13761:14096  function _convertVaultTokensToValue(... */\n    tag_122:\n        /* \"Contracts/OracleManager.sol\":13904:13911  uint256 */\n      0x00\n        /* \"Contracts/OracleManager.sol\":13923:13935  uint256 val0 */\n      0x00\n        /* \"Contracts/OracleManager.sol\":13938:13987  _convertToAggregatorValue(amt0, ap.agg0, ap.dec0) */\n      tag_213\n        /* \"Contracts/OracleManager.sol\":13964:13968  amt0 */\n      dup6\n        /* \"Contracts/OracleManager.sol\":13970:13972  ap */\n      dup5\n        /* \"Contracts/OracleManager.sol\":13970:13977  ap.agg0 */\n      0x00\n      add\n      mload\n        /* \"Contracts/OracleManager.sol\":13979:13981  ap */\n      dup6\n        /* \"Contracts/OracleManager.sol\":13979:13986  ap.dec0 */\n      0x40\n      add\n      mload\n        /* \"Contracts/OracleManager.sol\":13938:13963  _convertToAggregatorValue */\n      tag_214\n        /* \"Contracts/OracleManager.sol\":13938:13987  _convertToAggregatorValue(amt0, ap.agg0, ap.dec0) */\n      jump\t// in\n    tag_213:\n        /* \"Contracts/OracleManager.sol\":13923:13987  uint256 val0 = _convertToAggregatorValue(amt0, ap.agg0, ap.dec0) */\n      swap1\n      pop\n        /* \"Contracts/OracleManager.sol\":13997:14009  uint256 val1 */\n      0x00\n        /* \"Contracts/OracleManager.sol\":14012:14061  _convertToAggregatorValue(amt1, ap.agg1, ap.dec1) */\n      tag_215\n        /* \"Contracts/OracleManager.sol\":14038:14042  amt1 */\n      dup6\n        /* \"Contracts/OracleManager.sol\":14044:14046  ap */\n      dup6\n        /* \"Contracts/OracleManager.sol\":14044:14051  ap.agg1 */\n      0x20\n      add\n      mload\n        /* \"Contracts/OracleManager.sol\":14053:14055  ap */\n      dup7\n        /* \"Contracts/OracleManager.sol\":14053:14060  ap.dec1 */\n      0x60\n      add\n      mload\n        /* \"Contracts/OracleManager.sol\":14012:14037  _convertToAggregatorValue */\n      tag_214\n        /* \"Contracts/OracleManager.sol\":14012:14061  _convertToAggregatorValue(amt1, ap.agg1, ap.dec1) */\n      jump\t// in\n    tag_215:\n        /* \"Contracts/OracleManager.sol\":13997:14061  uint256 val1 = _convertToAggregatorValue(amt1, ap.agg1, ap.dec1) */\n      swap1\n      pop\n        /* \"Contracts/OracleManager.sol\":14078:14089  val0 + val1 */\n      tag_216\n        /* \"Contracts/OracleManager.sol\":13997:14061  uint256 val1 = _convertToAggregatorValue(amt1, ap.agg1, ap.dec1) */\n      dup2\n        /* \"Contracts/OracleManager.sol\":14078:14082  val0 */\n      dup4\n        /* \"Contracts/OracleManager.sol\":14078:14089  val0 + val1 */\n      tag_119\n      jump\t// in\n    tag_216:\n        /* \"Contracts/OracleManager.sol\":14071:14089  return val0 + val1 */\n      swap3\n      pop\n      pop\n      pop\n        /* \"Contracts/OracleManager.sol\":13761:14096  function _convertVaultTokensToValue(... */\n    tag_212:\n      swap4\n      swap3\n      pop\n      pop\n      pop\n      jump\t// out\n        /* \"Contracts/OracleManager.sol\":15766:16072  function _getRevertMsg(bytes memory _returnData) private pure returns (string memory) {... */\n    tag_186:\n        /* \"Contracts/OracleManager.sol\":15837:15850  string memory */\n      0x60\n        /* \"Contracts/OracleManager.sol\":15887:15889  68 */\n      0x44\n        /* \"Contracts/OracleManager.sol\":15866:15877  _returnData */\n      dup3\n        /* \"Contracts/OracleManager.sol\":15866:15884  _returnData.length */\n      mload\n        /* \"Contracts/OracleManager.sol\":15866:15889  _returnData.length < 68 */\n      lt\n        /* \"Contracts/OracleManager.sol\":15862:15936  if (_returnData.length < 68) return \"OracleManager: call reverted w/o msg\" */\n      iszero\n      tag_219\n      jumpi\n        /* \"Contracts/OracleManager.sol\":15891:15936  return \"OracleManager: call reverted w/o msg\" */\n      mload(0x40)\n      dup1\n      0x60\n      add\n      0x40\n      mstore\n      dup1\n      0x24\n      dup2\n      mstore\n      0x20\n      add\n      data_3e1e6533146503ddcd57727c5002d69321677d0539df318ad90f03963b3c334f\n      0x24\n      swap2\n      codecopy\n      swap3\n        /* \"Contracts/OracleManager.sol\":15766:16072  function _getRevertMsg(bytes memory _returnData) private pure returns (string memory) {... */\n      swap2\n      pop\n      pop\n      jump\t// out\n        /* \"Contracts/OracleManager.sol\":15862:15936  if (_returnData.length < 68) return \"OracleManager: call reverted w/o msg\" */\n    tag_219:\n        /* \"Contracts/OracleManager.sol\":16001:16005  0x04 */\n      0x04\n        /* \"Contracts/OracleManager.sol\":15988:15999  _returnData */\n      dup3\n        /* \"Contracts/OracleManager.sol\":15984:16006  add(_returnData, 0x04) */\n      add\n        /* \"Contracts/OracleManager.sol\":15969:16006  _returnData := add(_returnData, 0x04) */\n      swap2\n      pop\n        /* \"Contracts/OracleManager.sol\":16043:16054  _returnData */\n      dup2\n        /* \"Contracts/OracleManager.sol\":16032:16065  abi.decode(_returnData, (string)) */\n      dup1\n      0x20\n      add\n      swap1\n      mload\n      dup2\n      add\n      swap1\n      tag_220\n      swap2\n      swap1\n      tag_221\n      jump\t// in\n    tag_220:\n        /* \"Contracts/OracleManager.sol\":16025:16065  return abi.decode(_returnData, (string)) */\n      swap3\n        /* \"Contracts/OracleManager.sol\":15766:16072  function _getRevertMsg(bytes memory _returnData) private pure returns (string memory) {... */\n      swap2\n      pop\n      pop\n      jump\t// out\n        /* \"Contracts/OracleManager.sol\":1548:4073  function getSqrtRatioAtTick(int24 tick) internal pure returns (uint160 sqrtPriceX96) {... */\n    tag_208:\n        /* \"Contracts/OracleManager.sol\":1611:1631  uint160 sqrtPriceX96 */\n      0x00\n      not(0x0d89e7)\n        /* \"Contracts/OracleManager.sol\":1651:1667  tick >= MIN_TICK */\n      0x02\n      dup4\n      swap1\n      signextend\n      slt\n      dup1\n      iszero\n      swap1\n        /* \"Contracts/OracleManager.sol\":1651:1687  tick >= MIN_TICK && tick <= MAX_TICK */\n      tag_223\n      jumpi\n      pop\n        /* \"Contracts/OracleManager.sol\":1535:1541  887272 */\n      0x0d89e8\n        /* \"Contracts/OracleManager.sol\":1671:1687  tick <= MAX_TICK */\n      0x02\n      dup4\n      swap1\n      signextend\n      sgt\n      iszero\n        /* \"Contracts/OracleManager.sol\":1651:1687  tick >= MIN_TICK && tick <= MAX_TICK */\n    tag_223:\n        /* \"Contracts/OracleManager.sol\":1643:1709  require(tick >= MIN_TICK && tick <= MAX_TICK, \"Tick out of range\") */\n      tag_224\n      jumpi\n      mload(0x40)\n      shl(0xe5, 0x461bcd)\n      dup2\n      mstore\n        /* \"#utility.yul\":17061:17063   */\n      0x20\n        /* \"Contracts/OracleManager.sol\":1643:1709  require(tick >= MIN_TICK && tick <= MAX_TICK, \"Tick out of range\") */\n      0x04\n      dup3\n      add\n        /* \"#utility.yul\":17043:17064   */\n      mstore\n        /* \"#utility.yul\":17100:17102   */\n      0x11\n        /* \"#utility.yul\":17080:17098   */\n      0x24\n      dup3\n      add\n        /* \"#utility.yul\":17073:17103   */\n      mstore\n      shl(0x78, 0x5469636b206f7574206f662072616e6765)\n        /* \"#utility.yul\":17119:17137   */\n      0x44\n      dup3\n      add\n        /* \"#utility.yul\":17112:17159   */\n      mstore\n        /* \"#utility.yul\":17176:17194   */\n      0x64\n      add\n        /* \"Contracts/OracleManager.sol\":1643:1709  require(tick >= MIN_TICK && tick <= MAX_TICK, \"Tick out of range\") */\n      tag_48\n        /* \"#utility.yul\":16859:17200   */\n      jump\n        /* \"Contracts/OracleManager.sol\":1643:1709  require(tick >= MIN_TICK && tick <= MAX_TICK, \"Tick out of range\") */\n    tag_224:\n        /* \"Contracts/OracleManager.sol\":1720:1735  uint256 absTick */\n      0x00\n        /* \"Contracts/OracleManager.sol\":1746:1747  0 */\n      0x00\n        /* \"Contracts/OracleManager.sol\":1739:1743  tick */\n      dup4\n        /* \"Contracts/OracleManager.sol\":1739:1747  tick < 0 */\n      0x02\n      signextend\n      slt\n        /* \"Contracts/OracleManager.sol\":1738:1839  (tick < 0) ... */\n      tag_227\n      jumpi\n        /* \"Contracts/OracleManager.sol\":1832:1836  tick */\n      dup3\n        /* \"Contracts/OracleManager.sol\":1810:1839  uint256(uint24(uint24(tick))) */\n      0xffffff\n      and\n        /* \"Contracts/OracleManager.sol\":1738:1839  (tick < 0) ... */\n      jump(tag_228)\n    tag_227:\n        /* \"Contracts/OracleManager.sol\":1786:1791  -tick */\n      tag_229\n        /* \"Contracts/OracleManager.sol\":1787:1791  tick */\n      dup4\n        /* \"Contracts/OracleManager.sol\":1786:1791  -tick */\n      tag_230\n      jump\t// in\n    tag_229:\n        /* \"Contracts/OracleManager.sol\":1764:1794  uint256(uint24(uint24(-tick))) */\n      0xffffff\n      and\n        /* \"Contracts/OracleManager.sol\":1738:1839  (tick < 0) ... */\n    tag_228:\n        /* \"Contracts/OracleManager.sol\":1720:1839  uint256 absTick = (tick < 0) ... */\n      swap1\n      pop\n      shl(0x80, 0x01)\n        /* \"Contracts/OracleManager.sol\":1938:1941  0x1 */\n      0x01\n        /* \"Contracts/OracleManager.sol\":1928:1941  absTick & 0x1 */\n      dup3\n      and\n        /* \"Contracts/OracleManager.sol\":1928:1950  absTick & 0x1     != 0 */\n      iszero\n        /* \"Contracts/OracleManager.sol\":1924:2011  if (absTick & 0x1     != 0) ratio = (ratio * 0xfffcb933bd6fad37aa2d162d1a594001) >> 128 */\n      tag_231\n      jumpi\n        /* \"Contracts/OracleManager.sol\":2008:2011  128 */\n      0x80\n        /* \"Contracts/OracleManager.sol\":1961:2003  ratio * 0xfffcb933bd6fad37aa2d162d1a594001 */\n      tag_232\n        /* \"Contracts/OracleManager.sol\":1961:1966  ratio */\n      dup3\n        /* \"Contracts/OracleManager.sol\":1969:2003  0xfffcb933bd6fad37aa2d162d1a594001 */\n      0xfffcb933bd6fad37aa2d162d1a594001\n        /* \"Contracts/OracleManager.sol\":1961:2003  ratio * 0xfffcb933bd6fad37aa2d162d1a594001 */\n      tag_233\n      jump\t// in\n    tag_232:\n        /* \"Contracts/OracleManager.sol\":1960:2011  (ratio * 0xfffcb933bd6fad37aa2d162d1a594001) >> 128 */\n      swap1\n      shr\n        /* \"Contracts/OracleManager.sol\":1952:2011  ratio = (ratio * 0xfffcb933bd6fad37aa2d162d1a594001) >> 128 */\n      swap1\n      pop\n        /* \"Contracts/OracleManager.sol\":1924:2011  if (absTick & 0x1     != 0) ratio = (ratio * 0xfffcb933bd6fad37aa2d162d1a594001) >> 128 */\n    tag_231:\n        /* \"Contracts/OracleManager.sol\":2035:2038  0x2 */\n      0x02\n        /* \"Contracts/OracleManager.sol\":2025:2038  absTick & 0x2 */\n      dup3\n      and\n        /* \"Contracts/OracleManager.sol\":2025:2047  absTick & 0x2     != 0 */\n      iszero\n        /* \"Contracts/OracleManager.sol\":2021:2108  if (absTick & 0x2     != 0) ratio = (ratio * 0xfff97272373d413259a46990580e213a) >> 128 */\n      tag_234\n      jumpi\n        /* \"Contracts/OracleManager.sol\":2105:2108  128 */\n      0x80\n        /* \"Contracts/OracleManager.sol\":2058:2100  ratio * 0xfff97272373d413259a46990580e213a */\n      tag_235\n        /* \"Contracts/OracleManager.sol\":2058:2063  ratio */\n      dup3\n        /* \"Contracts/OracleManager.sol\":2066:2100  0xfff97272373d413259a46990580e213a */\n      0xfff97272373d413259a46990580e213a\n        /* \"Contracts/OracleManager.sol\":2058:2100  ratio * 0xfff97272373d413259a46990580e213a */\n      tag_233\n      jump\t// in\n    tag_235:\n        /* \"Contracts/OracleManager.sol\":2057:2108  (ratio * 0xfff97272373d413259a46990580e213a) >> 128 */\n      swap1\n      shr\n        /* \"Contracts/OracleManager.sol\":2049:2108  ratio = (ratio * 0xfff97272373d413259a46990580e213a) >> 128 */\n      swap1\n      pop\n        /* \"Contracts/OracleManager.sol\":2021:2108  if (absTick & 0x2     != 0) ratio = (ratio * 0xfff97272373d413259a46990580e213a) >> 128 */\n    tag_234:\n        /* \"Contracts/OracleManager.sol\":2132:2135  0x4 */\n      0x04\n        /* \"Contracts/OracleManager.sol\":2122:2135  absTick & 0x4 */\n      dup3\n      and\n        /* \"Contracts/OracleManager.sol\":2122:2144  absTick & 0x4     != 0 */\n      iszero\n        /* \"Contracts/OracleManager.sol\":2118:2205  if (absTick & 0x4     != 0) ratio = (ratio * 0xfff2e50f5f656932ef12357cf3c7fdcc) >> 128 */\n      tag_236\n      jumpi\n        /* \"Contracts/OracleManager.sol\":2202:2205  128 */\n      0x80\n        /* \"Contracts/OracleManager.sol\":2155:2197  ratio * 0xfff2e50f5f656932ef12357cf3c7fdcc */\n      tag_237\n        /* \"Contracts/OracleManager.sol\":2155:2160  ratio */\n      dup3\n        /* \"Contracts/OracleManager.sol\":2163:2197  0xfff2e50f5f656932ef12357cf3c7fdcc */\n      0xfff2e50f5f656932ef12357cf3c7fdcc\n        /* \"Contracts/OracleManager.sol\":2155:2197  ratio * 0xfff2e50f5f656932ef12357cf3c7fdcc */\n      tag_233\n      jump\t// in\n    tag_237:\n        /* \"Contracts/OracleManager.sol\":2154:2205  (ratio * 0xfff2e50f5f656932ef12357cf3c7fdcc) >> 128 */\n      swap1\n      shr\n        /* \"Contracts/OracleManager.sol\":2146:2205  ratio = (ratio * 0xfff2e50f5f656932ef12357cf3c7fdcc) >> 128 */\n      swap1\n      pop\n        /* \"Contracts/OracleManager.sol\":2118:2205  if (absTick & 0x4     != 0) ratio = (ratio * 0xfff2e50f5f656932ef12357cf3c7fdcc) >> 128 */\n    tag_236:\n        /* \"Contracts/OracleManager.sol\":2229:2232  0x8 */\n      0x08\n        /* \"Contracts/OracleManager.sol\":2219:2232  absTick & 0x8 */\n      dup3\n      and\n        /* \"Contracts/OracleManager.sol\":2219:2241  absTick & 0x8     != 0 */\n      iszero\n        /* \"Contracts/OracleManager.sol\":2215:2302  if (absTick & 0x8     != 0) ratio = (ratio * 0xffe5caca7e10e4e61c3624eaa0941cd0) >> 128 */\n      tag_238\n      jumpi\n        /* \"Contracts/OracleManager.sol\":2299:2302  128 */\n      0x80\n        /* \"Contracts/OracleManager.sol\":2252:2294  ratio * 0xffe5caca7e10e4e61c3624eaa0941cd0 */\n      tag_239\n        /* \"Contracts/OracleManager.sol\":2252:2257  ratio */\n      dup3\n        /* \"Contracts/OracleManager.sol\":2260:2294  0xffe5caca7e10e4e61c3624eaa0941cd0 */\n      0xffe5caca7e10e4e61c3624eaa0941cd0\n        /* \"Contracts/OracleManager.sol\":2252:2294  ratio * 0xffe5caca7e10e4e61c3624eaa0941cd0 */\n      tag_233\n      jump\t// in\n    tag_239:\n        /* \"Contracts/OracleManager.sol\":2251:2302  (ratio * 0xffe5caca7e10e4e61c3624eaa0941cd0) >> 128 */\n      swap1\n      shr\n        /* \"Contracts/OracleManager.sol\":2243:2302  ratio = (ratio * 0xffe5caca7e10e4e61c3624eaa0941cd0) >> 128 */\n      swap1\n      pop\n        /* \"Contracts/OracleManager.sol\":2215:2302  if (absTick & 0x8     != 0) ratio = (ratio * 0xffe5caca7e10e4e61c3624eaa0941cd0) >> 128 */\n    tag_238:\n        /* \"Contracts/OracleManager.sol\":2326:2330  0x10 */\n      0x10\n        /* \"Contracts/OracleManager.sol\":2316:2330  absTick & 0x10 */\n      dup3\n      and\n        /* \"Contracts/OracleManager.sol\":2316:2338  absTick & 0x10    != 0 */\n      iszero\n        /* \"Contracts/OracleManager.sol\":2312:2399  if (absTick & 0x10    != 0) ratio = (ratio * 0xffcb9843d60f6159c9db58835c926644) >> 128 */\n      tag_240\n      jumpi\n        /* \"Contracts/OracleManager.sol\":2396:2399  128 */\n      0x80\n        /* \"Contracts/OracleManager.sol\":2349:2391  ratio * 0xffcb9843d60f6159c9db58835c926644 */\n      tag_241\n        /* \"Contracts/OracleManager.sol\":2349:2354  ratio */\n      dup3\n        /* \"Contracts/OracleManager.sol\":2357:2391  0xffcb9843d60f6159c9db58835c926644 */\n      0xffcb9843d60f6159c9db58835c926644\n        /* \"Contracts/OracleManager.sol\":2349:2391  ratio * 0xffcb9843d60f6159c9db58835c926644 */\n      tag_233\n      jump\t// in\n    tag_241:\n        /* \"Contracts/OracleManager.sol\":2348:2399  (ratio * 0xffcb9843d60f6159c9db58835c926644) >> 128 */\n      swap1\n      shr\n        /* \"Contracts/OracleManager.sol\":2340:2399  ratio = (ratio * 0xffcb9843d60f6159c9db58835c926644) >> 128 */\n      swap1\n      pop\n        /* \"Contracts/OracleManager.sol\":2312:2399  if (absTick & 0x10    != 0) ratio = (ratio * 0xffcb9843d60f6159c9db58835c926644) >> 128 */\n    tag_240:\n        /* \"Contracts/OracleManager.sol\":2423:2427  0x20 */\n      0x20\n        /* \"Contracts/OracleManager.sol\":2413:2427  absTick & 0x20 */\n      dup3\n      and\n        /* \"Contracts/OracleManager.sol\":2413:2435  absTick & 0x20    != 0 */\n      iszero\n        /* \"Contracts/OracleManager.sol\":2409:2496  if (absTick & 0x20    != 0) ratio = (ratio * 0xff973b41fa98c081472e6896dfb254c0) >> 128 */\n      tag_242\n      jumpi\n        /* \"Contracts/OracleManager.sol\":2493:2496  128 */\n      0x80\n        /* \"Contracts/OracleManager.sol\":2446:2488  ratio * 0xff973b41fa98c081472e6896dfb254c0 */\n      tag_243\n        /* \"Contracts/OracleManager.sol\":2446:2451  ratio */\n      dup3\n        /* \"Contracts/OracleManager.sol\":2454:2488  0xff973b41fa98c081472e6896dfb254c0 */\n      0xff973b41fa98c081472e6896dfb254c0\n        /* \"Contracts/OracleManager.sol\":2446:2488  ratio * 0xff973b41fa98c081472e6896dfb254c0 */\n      tag_233\n      jump\t// in\n    tag_243:\n        /* \"Contracts/OracleManager.sol\":2445:2496  (ratio * 0xff973b41fa98c081472e6896dfb254c0) >> 128 */\n      swap1\n      shr\n        /* \"Contracts/OracleManager.sol\":2437:2496  ratio = (ratio * 0xff973b41fa98c081472e6896dfb254c0) >> 128 */\n      swap1\n      pop\n        /* \"Contracts/OracleManager.sol\":2409:2496  if (absTick & 0x20    != 0) ratio = (ratio * 0xff973b41fa98c081472e6896dfb254c0) >> 128 */\n    tag_242:\n        /* \"Contracts/OracleManager.sol\":2520:2524  0x40 */\n      0x40\n        /* \"Contracts/OracleManager.sol\":2510:2524  absTick & 0x40 */\n      dup3\n      and\n        /* \"Contracts/OracleManager.sol\":2510:2532  absTick & 0x40    != 0 */\n      iszero\n        /* \"Contracts/OracleManager.sol\":2506:2593  if (absTick & 0x40    != 0) ratio = (ratio * 0xff2ea16466c96a3843ec78b326b52861) >> 128 */\n      tag_244\n      jumpi\n        /* \"Contracts/OracleManager.sol\":2590:2593  128 */\n      0x80\n        /* \"Contracts/OracleManager.sol\":2543:2585  ratio * 0xff2ea16466c96a3843ec78b326b52861 */\n      tag_245\n        /* \"Contracts/OracleManager.sol\":2543:2548  ratio */\n      dup3\n        /* \"Contracts/OracleManager.sol\":2551:2585  0xff2ea16466c96a3843ec78b326b52861 */\n      0xff2ea16466c96a3843ec78b326b52861\n        /* \"Contracts/OracleManager.sol\":2543:2585  ratio * 0xff2ea16466c96a3843ec78b326b52861 */\n      tag_233\n      jump\t// in\n    tag_245:\n        /* \"Contracts/OracleManager.sol\":2542:2593  (ratio * 0xff2ea16466c96a3843ec78b326b52861) >> 128 */\n      swap1\n      shr\n        /* \"Contracts/OracleManager.sol\":2534:2593  ratio = (ratio * 0xff2ea16466c96a3843ec78b326b52861) >> 128 */\n      swap1\n      pop\n        /* \"Contracts/OracleManager.sol\":2506:2593  if (absTick & 0x40    != 0) ratio = (ratio * 0xff2ea16466c96a3843ec78b326b52861) >> 128 */\n    tag_244:\n        /* \"Contracts/OracleManager.sol\":2617:2621  0x80 */\n      0x80\n        /* \"Contracts/OracleManager.sol\":2607:2621  absTick & 0x80 */\n      dup3\n      and\n        /* \"Contracts/OracleManager.sol\":2607:2629  absTick & 0x80    != 0 */\n      iszero\n        /* \"Contracts/OracleManager.sol\":2603:2690  if (absTick & 0x80    != 0) ratio = (ratio * 0xfe5dee046a99a2a811c461f1969c3053) >> 128 */\n      tag_246\n      jumpi\n        /* \"Contracts/OracleManager.sol\":2687:2690  128 */\n      0x80\n        /* \"Contracts/OracleManager.sol\":2640:2682  ratio * 0xfe5dee046a99a2a811c461f1969c3053 */\n      tag_247\n        /* \"Contracts/OracleManager.sol\":2640:2645  ratio */\n      dup3\n        /* \"Contracts/OracleManager.sol\":2648:2682  0xfe5dee046a99a2a811c461f1969c3053 */\n      0xfe5dee046a99a2a811c461f1969c3053\n        /* \"Contracts/OracleManager.sol\":2640:2682  ratio * 0xfe5dee046a99a2a811c461f1969c3053 */\n      tag_233\n      jump\t// in\n    tag_247:\n        /* \"Contracts/OracleManager.sol\":2639:2690  (ratio * 0xfe5dee046a99a2a811c461f1969c3053) >> 128 */\n      swap1\n      shr\n        /* \"Contracts/OracleManager.sol\":2631:2690  ratio = (ratio * 0xfe5dee046a99a2a811c461f1969c3053) >> 128 */\n      swap1\n      pop\n        /* \"Contracts/OracleManager.sol\":2603:2690  if (absTick & 0x80    != 0) ratio = (ratio * 0xfe5dee046a99a2a811c461f1969c3053) >> 128 */\n    tag_246:\n        /* \"Contracts/OracleManager.sol\":2714:2719  0x100 */\n      0x0100\n        /* \"Contracts/OracleManager.sol\":2704:2719  absTick & 0x100 */\n      dup3\n      and\n        /* \"Contracts/OracleManager.sol\":2704:2726  absTick & 0x100   != 0 */\n      iszero\n        /* \"Contracts/OracleManager.sol\":2700:2787  if (absTick & 0x100   != 0) ratio = (ratio * 0xfcbe86c7900a88aedcffc83b479aa3a4) >> 128 */\n      tag_248\n      jumpi\n        /* \"Contracts/OracleManager.sol\":2784:2787  128 */\n      0x80\n        /* \"Contracts/OracleManager.sol\":2737:2779  ratio * 0xfcbe86c7900a88aedcffc83b479aa3a4 */\n      tag_249\n        /* \"Contracts/OracleManager.sol\":2737:2742  ratio */\n      dup3\n        /* \"Contracts/OracleManager.sol\":2745:2779  0xfcbe86c7900a88aedcffc83b479aa3a4 */\n      0xfcbe86c7900a88aedcffc83b479aa3a4\n        /* \"Contracts/OracleManager.sol\":2737:2779  ratio * 0xfcbe86c7900a88aedcffc83b479aa3a4 */\n      tag_233\n      jump\t// in\n    tag_249:\n        /* \"Contracts/OracleManager.sol\":2736:2787  (ratio * 0xfcbe86c7900a88aedcffc83b479aa3a4) >> 128 */\n      swap1\n      shr\n        /* \"Contracts/OracleManager.sol\":2728:2787  ratio = (ratio * 0xfcbe86c7900a88aedcffc83b479aa3a4) >> 128 */\n      swap1\n      pop\n        /* \"Contracts/OracleManager.sol\":2700:2787  if (absTick & 0x100   != 0) ratio = (ratio * 0xfcbe86c7900a88aedcffc83b479aa3a4) >> 128 */\n    tag_248:\n        /* \"Contracts/OracleManager.sol\":2811:2816  0x200 */\n      0x0200\n        /* \"Contracts/OracleManager.sol\":2801:2816  absTick & 0x200 */\n      dup3\n      and\n        /* \"Contracts/OracleManager.sol\":2801:2823  absTick & 0x200   != 0 */\n      iszero\n        /* \"Contracts/OracleManager.sol\":2797:2884  if (absTick & 0x200   != 0) ratio = (ratio * 0xf987a7253ac413176f2b074cf7815e54) >> 128 */\n      tag_250\n      jumpi\n        /* \"Contracts/OracleManager.sol\":2881:2884  128 */\n      0x80\n        /* \"Contracts/OracleManager.sol\":2834:2876  ratio * 0xf987a7253ac413176f2b074cf7815e54 */\n      tag_251\n        /* \"Contracts/OracleManager.sol\":2834:2839  ratio */\n      dup3\n        /* \"Contracts/OracleManager.sol\":2842:2876  0xf987a7253ac413176f2b074cf7815e54 */\n      0xf987a7253ac413176f2b074cf7815e54\n        /* \"Contracts/OracleManager.sol\":2834:2876  ratio * 0xf987a7253ac413176f2b074cf7815e54 */\n      tag_233\n      jump\t// in\n    tag_251:\n        /* \"Contracts/OracleManager.sol\":2833:2884  (ratio * 0xf987a7253ac413176f2b074cf7815e54) >> 128 */\n      swap1\n      shr\n        /* \"Contracts/OracleManager.sol\":2825:2884  ratio = (ratio * 0xf987a7253ac413176f2b074cf7815e54) >> 128 */\n      swap1\n      pop\n        /* \"Contracts/OracleManager.sol\":2797:2884  if (absTick & 0x200   != 0) ratio = (ratio * 0xf987a7253ac413176f2b074cf7815e54) >> 128 */\n    tag_250:\n        /* \"Contracts/OracleManager.sol\":2908:2913  0x400 */\n      0x0400\n        /* \"Contracts/OracleManager.sol\":2898:2913  absTick & 0x400 */\n      dup3\n      and\n        /* \"Contracts/OracleManager.sol\":2898:2920  absTick & 0x400   != 0 */\n      iszero\n        /* \"Contracts/OracleManager.sol\":2894:2981  if (absTick & 0x400   != 0) ratio = (ratio * 0xf3392b0822b70005940c7a398e4b70f3) >> 128 */\n      tag_252\n      jumpi\n        /* \"Contracts/OracleManager.sol\":2978:2981  128 */\n      0x80\n        /* \"Contracts/OracleManager.sol\":2931:2973  ratio * 0xf3392b0822b70005940c7a398e4b70f3 */\n      tag_253\n        /* \"Contracts/OracleManager.sol\":2931:2936  ratio */\n      dup3\n        /* \"Contracts/OracleManager.sol\":2939:2973  0xf3392b0822b70005940c7a398e4b70f3 */\n      0xf3392b0822b70005940c7a398e4b70f3\n        /* \"Contracts/OracleManager.sol\":2931:2973  ratio * 0xf3392b0822b70005940c7a398e4b70f3 */\n      tag_233\n      jump\t// in\n    tag_253:\n        /* \"Contracts/OracleManager.sol\":2930:2981  (ratio * 0xf3392b0822b70005940c7a398e4b70f3) >> 128 */\n      swap1\n      shr\n        /* \"Contracts/OracleManager.sol\":2922:2981  ratio = (ratio * 0xf3392b0822b70005940c7a398e4b70f3) >> 128 */\n      swap1\n      pop\n        /* \"Contracts/OracleManager.sol\":2894:2981  if (absTick & 0x400   != 0) ratio = (ratio * 0xf3392b0822b70005940c7a398e4b70f3) >> 128 */\n    tag_252:\n        /* \"Contracts/OracleManager.sol\":3005:3010  0x800 */\n      0x0800\n        /* \"Contracts/OracleManager.sol\":2995:3010  absTick & 0x800 */\n      dup3\n      and\n        /* \"Contracts/OracleManager.sol\":2995:3017  absTick & 0x800   != 0 */\n      iszero\n        /* \"Contracts/OracleManager.sol\":2991:3078  if (absTick & 0x800   != 0) ratio = (ratio * 0xe7159475a2c29b7443b29c7fa6e889d9) >> 128 */\n      tag_254\n      jumpi\n        /* \"Contracts/OracleManager.sol\":3075:3078  128 */\n      0x80\n        /* \"Contracts/OracleManager.sol\":3028:3070  ratio * 0xe7159475a2c29b7443b29c7fa6e889d9 */\n      tag_255\n        /* \"Contracts/OracleManager.sol\":3028:3033  ratio */\n      dup3\n        /* \"Contracts/OracleManager.sol\":3036:3070  0xe7159475a2c29b7443b29c7fa6e889d9 */\n      0xe7159475a2c29b7443b29c7fa6e889d9\n        /* \"Contracts/OracleManager.sol\":3028:3070  ratio * 0xe7159475a2c29b7443b29c7fa6e889d9 */\n      tag_233\n      jump\t// in\n    tag_255:\n        /* \"Contracts/OracleManager.sol\":3027:3078  (ratio * 0xe7159475a2c29b7443b29c7fa6e889d9) >> 128 */\n      swap1\n      shr\n        /* \"Contracts/OracleManager.sol\":3019:3078  ratio = (ratio * 0xe7159475a2c29b7443b29c7fa6e889d9) >> 128 */\n      swap1\n      pop\n        /* \"Contracts/OracleManager.sol\":2991:3078  if (absTick & 0x800   != 0) ratio = (ratio * 0xe7159475a2c29b7443b29c7fa6e889d9) >> 128 */\n    tag_254:\n        /* \"Contracts/OracleManager.sol\":3102:3108  0x1000 */\n      0x1000\n        /* \"Contracts/OracleManager.sol\":3092:3108  absTick & 0x1000 */\n      dup3\n      and\n        /* \"Contracts/OracleManager.sol\":3092:3114  absTick & 0x1000  != 0 */\n      iszero\n        /* \"Contracts/OracleManager.sol\":3088:3175  if (absTick & 0x1000  != 0) ratio = (ratio * 0xd097f3bdfd2022b8845ad8f792aa5825) >> 128 */\n      tag_256\n      jumpi\n        /* \"Contracts/OracleManager.sol\":3172:3175  128 */\n      0x80\n        /* \"Contracts/OracleManager.sol\":3125:3167  ratio * 0xd097f3bdfd2022b8845ad8f792aa5825 */\n      tag_257\n        /* \"Contracts/OracleManager.sol\":3125:3130  ratio */\n      dup3\n        /* \"Contracts/OracleManager.sol\":3133:3167  0xd097f3bdfd2022b8845ad8f792aa5825 */\n      0xd097f3bdfd2022b8845ad8f792aa5825\n        /* \"Contracts/OracleManager.sol\":3125:3167  ratio * 0xd097f3bdfd2022b8845ad8f792aa5825 */\n      tag_233\n      jump\t// in\n    tag_257:\n        /* \"Contracts/OracleManager.sol\":3124:3175  (ratio * 0xd097f3bdfd2022b8845ad8f792aa5825) >> 128 */\n      swap1\n      shr\n        /* \"Contracts/OracleManager.sol\":3116:3175  ratio = (ratio * 0xd097f3bdfd2022b8845ad8f792aa5825) >> 128 */\n      swap1\n      pop\n        /* \"Contracts/OracleManager.sol\":3088:3175  if (absTick & 0x1000  != 0) ratio = (ratio * 0xd097f3bdfd2022b8845ad8f792aa5825) >> 128 */\n    tag_256:\n        /* \"Contracts/OracleManager.sol\":3199:3205  0x2000 */\n      0x2000\n        /* \"Contracts/OracleManager.sol\":3189:3205  absTick & 0x2000 */\n      dup3\n      and\n        /* \"Contracts/OracleManager.sol\":3189:3211  absTick & 0x2000  != 0 */\n      iszero\n        /* \"Contracts/OracleManager.sol\":3185:3272  if (absTick & 0x2000  != 0) ratio = (ratio * 0xa9f746462d870fdf8a65dc1f90e061e5) >> 128 */\n      tag_258\n      jumpi\n        /* \"Contracts/OracleManager.sol\":3269:3272  128 */\n      0x80\n        /* \"Contracts/OracleManager.sol\":3222:3264  ratio * 0xa9f746462d870fdf8a65dc1f90e061e5 */\n      tag_259\n        /* \"Contracts/OracleManager.sol\":3222:3227  ratio */\n      dup3\n        /* \"Contracts/OracleManager.sol\":3230:3264  0xa9f746462d870fdf8a65dc1f90e061e5 */\n      0xa9f746462d870fdf8a65dc1f90e061e5\n        /* \"Contracts/OracleManager.sol\":3222:3264  ratio * 0xa9f746462d870fdf8a65dc1f90e061e5 */\n      tag_233\n      jump\t// in\n    tag_259:\n        /* \"Contracts/OracleManager.sol\":3221:3272  (ratio * 0xa9f746462d870fdf8a65dc1f90e061e5) >> 128 */\n      swap1\n      shr\n        /* \"Contracts/OracleManager.sol\":3213:3272  ratio = (ratio * 0xa9f746462d870fdf8a65dc1f90e061e5) >> 128 */\n      swap1\n      pop\n        /* \"Contracts/OracleManager.sol\":3185:3272  if (absTick & 0x2000  != 0) ratio = (ratio * 0xa9f746462d870fdf8a65dc1f90e061e5) >> 128 */\n    tag_258:\n        /* \"Contracts/OracleManager.sol\":3296:3302  0x4000 */\n      0x4000\n        /* \"Contracts/OracleManager.sol\":3286:3302  absTick & 0x4000 */\n      dup3\n      and\n        /* \"Contracts/OracleManager.sol\":3286:3308  absTick & 0x4000  != 0 */\n      iszero\n        /* \"Contracts/OracleManager.sol\":3282:3369  if (absTick & 0x4000  != 0) ratio = (ratio * 0x70d869a156d2a1f6a7a2e3fadacb4c9b) >> 128 */\n      tag_260\n      jumpi\n        /* \"Contracts/OracleManager.sol\":3366:3369  128 */\n      0x80\n        /* \"Contracts/OracleManager.sol\":3319:3361  ratio * 0x70d869a156d2a1f6a7a2e3fadacb4c9b */\n      tag_261\n        /* \"Contracts/OracleManager.sol\":3319:3324  ratio */\n      dup3\n        /* \"Contracts/OracleManager.sol\":3327:3361  0x70d869a156d2a1f6a7a2e3fadacb4c9b */\n      0x70d869a156d2a1f6a7a2e3fadacb4c9b\n        /* \"Contracts/OracleManager.sol\":3319:3361  ratio * 0x70d869a156d2a1f6a7a2e3fadacb4c9b */\n      tag_233\n      jump\t// in\n    tag_261:\n        /* \"Contracts/OracleManager.sol\":3318:3369  (ratio * 0x70d869a156d2a1f6a7a2e3fadacb4c9b) >> 128 */\n      swap1\n      shr\n        /* \"Contracts/OracleManager.sol\":3310:3369  ratio = (ratio * 0x70d869a156d2a1f6a7a2e3fadacb4c9b) >> 128 */\n      swap1\n      pop\n        /* \"Contracts/OracleManager.sol\":3282:3369  if (absTick & 0x4000  != 0) ratio = (ratio * 0x70d869a156d2a1f6a7a2e3fadacb4c9b) >> 128 */\n    tag_260:\n        /* \"Contracts/OracleManager.sol\":3393:3399  0x8000 */\n      0x8000\n        /* \"Contracts/OracleManager.sol\":3383:3399  absTick & 0x8000 */\n      dup3\n      and\n        /* \"Contracts/OracleManager.sol\":3383:3405  absTick & 0x8000  != 0 */\n      iszero\n        /* \"Contracts/OracleManager.sol\":3379:3466  if (absTick & 0x8000  != 0) ratio = (ratio * 0x31be135f97d08fd981231505542fcfa6) >> 128 */\n      tag_262\n      jumpi\n        /* \"Contracts/OracleManager.sol\":3463:3466  128 */\n      0x80\n        /* \"Contracts/OracleManager.sol\":3416:3458  ratio * 0x31be135f97d08fd981231505542fcfa6 */\n      tag_263\n        /* \"Contracts/OracleManager.sol\":3416:3421  ratio */\n      dup3\n        /* \"Contracts/OracleManager.sol\":3424:3458  0x31be135f97d08fd981231505542fcfa6 */\n      0x31be135f97d08fd981231505542fcfa6\n        /* \"Contracts/OracleManager.sol\":3416:3458  ratio * 0x31be135f97d08fd981231505542fcfa6 */\n      tag_233\n      jump\t// in\n    tag_263:\n        /* \"Contracts/OracleManager.sol\":3415:3466  (ratio * 0x31be135f97d08fd981231505542fcfa6) >> 128 */\n      swap1\n      shr\n        /* \"Contracts/OracleManager.sol\":3407:3466  ratio = (ratio * 0x31be135f97d08fd981231505542fcfa6) >> 128 */\n      swap1\n      pop\n        /* \"Contracts/OracleManager.sol\":3379:3466  if (absTick & 0x8000  != 0) ratio = (ratio * 0x31be135f97d08fd981231505542fcfa6) >> 128 */\n    tag_262:\n        /* \"Contracts/OracleManager.sol\":3490:3497  0x10000 */\n      0x010000\n        /* \"Contracts/OracleManager.sol\":3480:3497  absTick & 0x10000 */\n      dup3\n      and\n        /* \"Contracts/OracleManager.sol\":3480:3502  absTick & 0x10000 != 0 */\n      iszero\n        /* \"Contracts/OracleManager.sol\":3476:3562  if (absTick & 0x10000 != 0) ratio = (ratio * 0x9aa508b5b7a84e1c677de54f3e99bc9) >> 128 */\n      tag_264\n      jumpi\n        /* \"Contracts/OracleManager.sol\":3559:3562  128 */\n      0x80\n        /* \"Contracts/OracleManager.sol\":3513:3554  ratio * 0x9aa508b5b7a84e1c677de54f3e99bc9 */\n      tag_265\n        /* \"Contracts/OracleManager.sol\":3513:3518  ratio */\n      dup3\n        /* \"Contracts/OracleManager.sol\":3521:3554  0x9aa508b5b7a84e1c677de54f3e99bc9 */\n      0x09aa508b5b7a84e1c677de54f3e99bc9\n        /* \"Contracts/OracleManager.sol\":3513:3554  ratio * 0x9aa508b5b7a84e1c677de54f3e99bc9 */\n      tag_233\n      jump\t// in\n    tag_265:\n        /* \"Contracts/OracleManager.sol\":3512:3562  (ratio * 0x9aa508b5b7a84e1c677de54f3e99bc9) >> 128 */\n      swap1\n      shr\n        /* \"Contracts/OracleManager.sol\":3504:3562  ratio = (ratio * 0x9aa508b5b7a84e1c677de54f3e99bc9) >> 128 */\n      swap1\n      pop\n        /* \"Contracts/OracleManager.sol\":3476:3562  if (absTick & 0x10000 != 0) ratio = (ratio * 0x9aa508b5b7a84e1c677de54f3e99bc9) >> 128 */\n    tag_264:\n        /* \"Contracts/OracleManager.sol\":3586:3593  0x20000 */\n      0x020000\n        /* \"Contracts/OracleManager.sol\":3576:3593  absTick & 0x20000 */\n      dup3\n      and\n        /* \"Contracts/OracleManager.sol\":3576:3598  absTick & 0x20000 != 0 */\n      iszero\n        /* \"Contracts/OracleManager.sol\":3572:3657  if (absTick & 0x20000 != 0) ratio = (ratio * 0x5d6af8dedb81196699c329225ee604) >> 128 */\n      tag_266\n      jumpi\n        /* \"Contracts/OracleManager.sol\":3654:3657  128 */\n      0x80\n        /* \"Contracts/OracleManager.sol\":3609:3649  ratio * 0x5d6af8dedb81196699c329225ee604 */\n      tag_267\n        /* \"Contracts/OracleManager.sol\":3609:3614  ratio */\n      dup3\n        /* \"Contracts/OracleManager.sol\":3617:3649  0x5d6af8dedb81196699c329225ee604 */\n      0x5d6af8dedb81196699c329225ee604\n        /* \"Contracts/OracleManager.sol\":3609:3649  ratio * 0x5d6af8dedb81196699c329225ee604 */\n      tag_233\n      jump\t// in\n    tag_267:\n        /* \"Contracts/OracleManager.sol\":3608:3657  (ratio * 0x5d6af8dedb81196699c329225ee604) >> 128 */\n      swap1\n      shr\n        /* \"Contracts/OracleManager.sol\":3600:3657  ratio = (ratio * 0x5d6af8dedb81196699c329225ee604) >> 128 */\n      swap1\n      pop\n        /* \"Contracts/OracleManager.sol\":3572:3657  if (absTick & 0x20000 != 0) ratio = (ratio * 0x5d6af8dedb81196699c329225ee604) >> 128 */\n    tag_266:\n        /* \"Contracts/OracleManager.sol\":3681:3688  0x40000 */\n      0x040000\n        /* \"Contracts/OracleManager.sol\":3671:3688  absTick & 0x40000 */\n      dup3\n      and\n        /* \"Contracts/OracleManager.sol\":3671:3693  absTick & 0x40000 != 0 */\n      iszero\n        /* \"Contracts/OracleManager.sol\":3667:3750  if (absTick & 0x40000 != 0) ratio = (ratio * 0x2216e584f5fa1ea926041bedfe98) >> 128 */\n      tag_268\n      jumpi\n        /* \"Contracts/OracleManager.sol\":3747:3750  128 */\n      0x80\n        /* \"Contracts/OracleManager.sol\":3704:3742  ratio * 0x2216e584f5fa1ea926041bedfe98 */\n      tag_269\n        /* \"Contracts/OracleManager.sol\":3704:3709  ratio */\n      dup3\n        /* \"Contracts/OracleManager.sol\":3712:3742  0x2216e584f5fa1ea926041bedfe98 */\n      0x2216e584f5fa1ea926041bedfe98\n        /* \"Contracts/OracleManager.sol\":3704:3742  ratio * 0x2216e584f5fa1ea926041bedfe98 */\n      tag_233\n      jump\t// in\n    tag_269:\n        /* \"Contracts/OracleManager.sol\":3703:3750  (ratio * 0x2216e584f5fa1ea926041bedfe98) >> 128 */\n      swap1\n      shr\n        /* \"Contracts/OracleManager.sol\":3695:3750  ratio = (ratio * 0x2216e584f5fa1ea926041bedfe98) >> 128 */\n      swap1\n      pop\n        /* \"Contracts/OracleManager.sol\":3667:3750  if (absTick & 0x40000 != 0) ratio = (ratio * 0x2216e584f5fa1ea926041bedfe98) >> 128 */\n    tag_268:\n        /* \"Contracts/OracleManager.sol\":3774:3781  0x80000 */\n      0x080000\n        /* \"Contracts/OracleManager.sol\":3764:3781  absTick & 0x80000 */\n      dup3\n      and\n        /* \"Contracts/OracleManager.sol\":3764:3786  absTick & 0x80000 != 0 */\n      iszero\n        /* \"Contracts/OracleManager.sol\":3760:3838  if (absTick & 0x80000 != 0) ratio = (ratio * 0x48a170391f7dc42444e8fa2) >> 128 */\n      tag_270\n      jumpi\n        /* \"Contracts/OracleManager.sol\":3835:3838  128 */\n      0x80\n        /* \"Contracts/OracleManager.sol\":3797:3830  ratio * 0x48a170391f7dc42444e8fa2 */\n      tag_271\n        /* \"Contracts/OracleManager.sol\":3797:3802  ratio */\n      dup3\n        /* \"Contracts/OracleManager.sol\":3805:3830  0x48a170391f7dc42444e8fa2 */\n      0x048a170391f7dc42444e8fa2\n        /* \"Contracts/OracleManager.sol\":3797:3830  ratio * 0x48a170391f7dc42444e8fa2 */\n      tag_233\n      jump\t// in\n    tag_271:\n        /* \"Contracts/OracleManager.sol\":3796:3838  (ratio * 0x48a170391f7dc42444e8fa2) >> 128 */\n      swap1\n      shr\n        /* \"Contracts/OracleManager.sol\":3788:3838  ratio = (ratio * 0x48a170391f7dc42444e8fa2) >> 128 */\n      swap1\n      pop\n        /* \"Contracts/OracleManager.sol\":3760:3838  if (absTick & 0x80000 != 0) ratio = (ratio * 0x48a170391f7dc42444e8fa2) >> 128 */\n    tag_270:\n        /* \"Contracts/OracleManager.sol\":3860:3861  0 */\n      0x00\n        /* \"Contracts/OracleManager.sol\":3853:3857  tick */\n      dup5\n        /* \"Contracts/OracleManager.sol\":3853:3861  tick > 0 */\n      0x02\n      signextend\n      sgt\n        /* \"Contracts/OracleManager.sol\":3849:3921  if (tick > 0) {... */\n      iszero\n      tag_272\n      jumpi\n        /* \"Contracts/OracleManager.sol\":3885:3910  type(uint256).max / ratio */\n      tag_273\n        /* \"Contracts/OracleManager.sol\":3905:3910  ratio */\n      dup2\n      not(0x00)\n        /* \"Contracts/OracleManager.sol\":3885:3910  type(uint256).max / ratio */\n      tag_126\n      jump\t// in\n    tag_273:\n        /* \"Contracts/OracleManager.sol\":3877:3910  ratio = type(uint256).max / ratio */\n      swap1\n      pop\n        /* \"Contracts/OracleManager.sol\":3849:3921  if (tick > 0) {... */\n    tag_272:\n        /* \"Contracts/OracleManager.sol\":3958:3960  32 */\n      0x20\n        /* \"Contracts/OracleManager.sol\":3949:3960  ratio >> 32 */\n      dup2\n      swap1\n      shr\n      sub(shl(0xa0, 0x01), 0x01)\n        /* \"Contracts/OracleManager.sol\":3978:4006  shifted <= type(uint160).max */\n      dup2\n      gt\n      iszero\n        /* \"Contracts/OracleManager.sol\":3970:4025  require(shifted <= type(uint160).max, \"Price overflow\") */\n      tag_274\n      jumpi\n      mload(0x40)\n      shl(0xe5, 0x461bcd)\n      dup2\n      mstore\n        /* \"#utility.yul\":17769:17771   */\n      0x20\n        /* \"Contracts/OracleManager.sol\":3970:4025  require(shifted <= type(uint160).max, \"Price overflow\") */\n      0x04\n      dup3\n      add\n        /* \"#utility.yul\":17751:17772   */\n      mstore\n        /* \"#utility.yul\":17808:17810   */\n      0x0e\n        /* \"#utility.yul\":17788:17806   */\n      0x24\n      dup3\n      add\n        /* \"#utility.yul\":17781:17811   */\n      mstore\n      shl(0x90, 0x5072696365206f766572666c6f77)\n        /* \"#utility.yul\":17827:17845   */\n      0x44\n      dup3\n      add\n        /* \"#utility.yul\":17820:17864   */\n      mstore\n        /* \"#utility.yul\":17881:17899   */\n      0x64\n      add\n        /* \"Contracts/OracleManager.sol\":3970:4025  require(shifted <= type(uint160).max, \"Price overflow\") */\n      tag_48\n        /* \"#utility.yul\":17567:17905   */\n      jump\n        /* \"Contracts/OracleManager.sol\":3970:4025  require(shifted <= type(uint160).max, \"Price overflow\") */\n    tag_274:\n        /* \"Contracts/OracleManager.sol\":4058:4065  shifted */\n      swap5\n        /* \"Contracts/OracleManager.sol\":1548:4073  function getSqrtRatioAtTick(int24 tick) internal pure returns (uint160 sqrtPriceX96) {... */\n      swap4\n      pop\n      pop\n      pop\n      pop\n      jump\t// out\n        /* \"https://github.com/Uniswap/v3-periphery/blob/0.8/contracts/libraries/LiquidityAmounts.sol\":6173:6972  function getAmountsForLiquidity(... */\n    tag_211:\n        /* \"https://github.com/Uniswap/v3-periphery/blob/0.8/contracts/libraries/LiquidityAmounts.sol\":6353:6368  uint256 amount0 */\n      0x00\n        /* \"https://github.com/Uniswap/v3-periphery/blob/0.8/contracts/libraries/LiquidityAmounts.sol\":6370:6385  uint256 amount1 */\n      0x00\n        /* \"https://github.com/Uniswap/v3-periphery/blob/0.8/contracts/libraries/LiquidityAmounts.sol\":6417:6430  sqrtRatioBX96 */\n      dup4\n      sub(shl(0xa0, 0x01), 0x01)\n        /* \"https://github.com/Uniswap/v3-periphery/blob/0.8/contracts/libraries/LiquidityAmounts.sol\":6401:6430  sqrtRatioAX96 > sqrtRatioBX96 */\n      and\n        /* \"https://github.com/Uniswap/v3-periphery/blob/0.8/contracts/libraries/LiquidityAmounts.sol\":6401:6414  sqrtRatioAX96 */\n      dup6\n      sub(shl(0xa0, 0x01), 0x01)\n        /* \"https://github.com/Uniswap/v3-periphery/blob/0.8/contracts/libraries/LiquidityAmounts.sol\":6401:6430  sqrtRatioAX96 > sqrtRatioBX96 */\n      and\n      gt\n        /* \"https://github.com/Uniswap/v3-periphery/blob/0.8/contracts/libraries/LiquidityAmounts.sol\":6397:6495  if (sqrtRatioAX96 > sqrtRatioBX96) (sqrtRatioAX96, sqrtRatioBX96) = (sqrtRatioBX96, sqrtRatioAX96) */\n      iszero\n      tag_278\n      jumpi\n        /* \"https://github.com/Uniswap/v3-periphery/blob/0.8/contracts/libraries/LiquidityAmounts.sol\":6466:6479  sqrtRatioBX96 */\n      swap3\n      swap4\n        /* \"https://github.com/Uniswap/v3-periphery/blob/0.8/contracts/libraries/LiquidityAmounts.sol\":6481:6494  sqrtRatioAX96 */\n      swap3\n        /* \"https://github.com/Uniswap/v3-periphery/blob/0.8/contracts/libraries/LiquidityAmounts.sol\":6397:6495  if (sqrtRatioAX96 > sqrtRatioBX96) (sqrtRatioAX96, sqrtRatioBX96) = (sqrtRatioBX96, sqrtRatioAX96) */\n    tag_278:\n        /* \"https://github.com/Uniswap/v3-periphery/blob/0.8/contracts/libraries/LiquidityAmounts.sol\":6526:6539  sqrtRatioAX96 */\n      dup5\n      sub(shl(0xa0, 0x01), 0x01)\n        /* \"https://github.com/Uniswap/v3-periphery/blob/0.8/contracts/libraries/LiquidityAmounts.sol\":6510:6539  sqrtRatioX96 <= sqrtRatioAX96 */\n      and\n        /* \"https://github.com/Uniswap/v3-periphery/blob/0.8/contracts/libraries/LiquidityAmounts.sol\":6510:6522  sqrtRatioX96 */\n      dup7\n      sub(shl(0xa0, 0x01), 0x01)\n        /* \"https://github.com/Uniswap/v3-periphery/blob/0.8/contracts/libraries/LiquidityAmounts.sol\":6510:6539  sqrtRatioX96 <= sqrtRatioAX96 */\n      and\n      gt\n        /* \"https://github.com/Uniswap/v3-periphery/blob/0.8/contracts/libraries/LiquidityAmounts.sol\":6506:6966  if (sqrtRatioX96 <= sqrtRatioAX96) {... */\n      tag_279\n      jumpi\n        /* \"https://github.com/Uniswap/v3-periphery/blob/0.8/contracts/libraries/LiquidityAmounts.sol\":6565:6628  getAmount0ForLiquidity(sqrtRatioAX96, sqrtRatioBX96, liquidity) */\n      tag_280\n        /* \"https://github.com/Uniswap/v3-periphery/blob/0.8/contracts/libraries/LiquidityAmounts.sol\":6588:6601  sqrtRatioAX96 */\n      dup6\n        /* \"https://github.com/Uniswap/v3-periphery/blob/0.8/contracts/libraries/LiquidityAmounts.sol\":6603:6616  sqrtRatioBX96 */\n      dup6\n        /* \"https://github.com/Uniswap/v3-periphery/blob/0.8/contracts/libraries/LiquidityAmounts.sol\":6618:6627  liquidity */\n      dup6\n        /* \"https://github.com/Uniswap/v3-periphery/blob/0.8/contracts/libraries/LiquidityAmounts.sol\":6565:6587  getAmount0ForLiquidity */\n      tag_281\n        /* \"https://github.com/Uniswap/v3-periphery/blob/0.8/contracts/libraries/LiquidityAmounts.sol\":6565:6628  getAmount0ForLiquidity(sqrtRatioAX96, sqrtRatioBX96, liquidity) */\n      jump\t// in\n    tag_280:\n        /* \"https://github.com/Uniswap/v3-periphery/blob/0.8/contracts/libraries/LiquidityAmounts.sol\":6555:6628  amount0 = getAmount0ForLiquidity(sqrtRatioAX96, sqrtRatioBX96, liquidity) */\n      swap2\n      pop\n        /* \"https://github.com/Uniswap/v3-periphery/blob/0.8/contracts/libraries/LiquidityAmounts.sol\":6506:6966  if (sqrtRatioX96 <= sqrtRatioAX96) {... */\n      jump(tag_205)\n    tag_279:\n        /* \"https://github.com/Uniswap/v3-periphery/blob/0.8/contracts/libraries/LiquidityAmounts.sol\":6664:6677  sqrtRatioBX96 */\n      dup4\n      sub(shl(0xa0, 0x01), 0x01)\n        /* \"https://github.com/Uniswap/v3-periphery/blob/0.8/contracts/libraries/LiquidityAmounts.sol\":6649:6677  sqrtRatioX96 < sqrtRatioBX96 */\n      and\n        /* \"https://github.com/Uniswap/v3-periphery/blob/0.8/contracts/libraries/LiquidityAmounts.sol\":6649:6661  sqrtRatioX96 */\n      dup7\n      sub(shl(0xa0, 0x01), 0x01)\n        /* \"https://github.com/Uniswap/v3-periphery/blob/0.8/contracts/libraries/LiquidityAmounts.sol\":6649:6677  sqrtRatioX96 < sqrtRatioBX96 */\n      and\n      lt\n        /* \"https://github.com/Uniswap/v3-periphery/blob/0.8/contracts/libraries/LiquidityAmounts.sol\":6645:6966  if (sqrtRatioX96 < sqrtRatioBX96) {... */\n      iszero\n      tag_283\n      jumpi\n        /* \"https://github.com/Uniswap/v3-periphery/blob/0.8/contracts/libraries/LiquidityAmounts.sol\":6703:6765  getAmount0ForLiquidity(sqrtRatioX96, sqrtRatioBX96, liquidity) */\n      tag_284\n        /* \"https://github.com/Uniswap/v3-periphery/blob/0.8/contracts/libraries/LiquidityAmounts.sol\":6726:6738  sqrtRatioX96 */\n      dup7\n        /* \"https://github.com/Uniswap/v3-periphery/blob/0.8/contracts/libraries/LiquidityAmounts.sol\":6740:6753  sqrtRatioBX96 */\n      dup6\n        /* \"https://github.com/Uniswap/v3-periphery/blob/0.8/contracts/libraries/LiquidityAmounts.sol\":6755:6764  liquidity */\n      dup6\n        /* \"https://github.com/Uniswap/v3-periphery/blob/0.8/contracts/libraries/LiquidityAmounts.sol\":6703:6725  getAmount0ForLiquidity */\n      tag_281\n        /* \"https://github.com/Uniswap/v3-periphery/blob/0.8/contracts/libraries/LiquidityAmounts.sol\":6703:6765  getAmount0ForLiquidity(sqrtRatioX96, sqrtRatioBX96, liquidity) */\n      jump\t// in\n    tag_284:\n        /* \"https://github.com/Uniswap/v3-periphery/blob/0.8/contracts/libraries/LiquidityAmounts.sol\":6693:6765  amount0 = getAmount0ForLiquidity(sqrtRatioX96, sqrtRatioBX96, liquidity) */\n      swap2\n      pop\n        /* \"https://github.com/Uniswap/v3-periphery/blob/0.8/contracts/libraries/LiquidityAmounts.sol\":6789:6851  getAmount1ForLiquidity(sqrtRatioAX96, sqrtRatioX96, liquidity) */\n      tag_285\n        /* \"https://github.com/Uniswap/v3-periphery/blob/0.8/contracts/libraries/LiquidityAmounts.sol\":6812:6825  sqrtRatioAX96 */\n      dup6\n        /* \"https://github.com/Uniswap/v3-periphery/blob/0.8/contracts/libraries/LiquidityAmounts.sol\":6827:6839  sqrtRatioX96 */\n      dup8\n        /* \"https://github.com/Uniswap/v3-periphery/blob/0.8/contracts/libraries/LiquidityAmounts.sol\":6841:6850  liquidity */\n      dup6\n        /* \"https://github.com/Uniswap/v3-periphery/blob/0.8/contracts/libraries/LiquidityAmounts.sol\":6789:6811  getAmount1ForLiquidity */\n      tag_286\n        /* \"https://github.com/Uniswap/v3-periphery/blob/0.8/contracts/libraries/LiquidityAmounts.sol\":6789:6851  getAmount1ForLiquidity(sqrtRatioAX96, sqrtRatioX96, liquidity) */\n      jump\t// in\n    tag_285:\n        /* \"https://github.com/Uniswap/v3-periphery/blob/0.8/contracts/libraries/LiquidityAmounts.sol\":6779:6851  amount1 = getAmount1ForLiquidity(sqrtRatioAX96, sqrtRatioX96, liquidity) */\n      swap1\n      pop\n        /* \"https://github.com/Uniswap/v3-periphery/blob/0.8/contracts/libraries/LiquidityAmounts.sol\":6645:6966  if (sqrtRatioX96 < sqrtRatioBX96) {... */\n      jump(tag_205)\n    tag_283:\n        /* \"https://github.com/Uniswap/v3-periphery/blob/0.8/contracts/libraries/LiquidityAmounts.sol\":6892:6955  getAmount1ForLiquidity(sqrtRatioAX96, sqrtRatioBX96, liquidity) */\n      tag_288\n        /* \"https://github.com/Uniswap/v3-periphery/blob/0.8/contracts/libraries/LiquidityAmounts.sol\":6915:6928  sqrtRatioAX96 */\n      dup6\n        /* \"https://github.com/Uniswap/v3-periphery/blob/0.8/contracts/libraries/LiquidityAmounts.sol\":6930:6943  sqrtRatioBX96 */\n      dup6\n        /* \"https://github.com/Uniswap/v3-periphery/blob/0.8/contracts/libraries/LiquidityAmounts.sol\":6945:6954  liquidity */\n      dup6\n        /* \"https://github.com/Uniswap/v3-periphery/blob/0.8/contracts/libraries/LiquidityAmounts.sol\":6892:6914  getAmount1ForLiquidity */\n      tag_286\n        /* \"https://github.com/Uniswap/v3-periphery/blob/0.8/contracts/libraries/LiquidityAmounts.sol\":6892:6955  getAmount1ForLiquidity(sqrtRatioAX96, sqrtRatioBX96, liquidity) */\n      jump\t// in\n    tag_288:\n        /* \"https://github.com/Uniswap/v3-periphery/blob/0.8/contracts/libraries/LiquidityAmounts.sol\":6882:6955  amount1 = getAmount1ForLiquidity(sqrtRatioAX96, sqrtRatioBX96, liquidity) */\n      swap1\n      pop\n        /* \"https://github.com/Uniswap/v3-periphery/blob/0.8/contracts/libraries/LiquidityAmounts.sol\":6173:6972  function getAmountsForLiquidity(... */\n      swap5\n      pop\n      swap5\n      swap3\n      pop\n      pop\n      pop\n      jump\t// out\n        /* \"Contracts/OracleManager.sol\":14102:14564  function _convertToAggregatorValue(... */\n    tag_214:\n        /* \"Contracts/OracleManager.sol\":14246:14253  uint256 */\n      0x00\n        /* \"Contracts/OracleManager.sol\":14269:14277  amt == 0 */\n      dup4\n      iszero\n      dup1\n        /* \"Contracts/OracleManager.sol\":14269:14309  amt == 0 || aggregatorAddr == address(0) */\n      tag_290\n      jumpi\n      pop\n      sub(shl(0xa0, 0x01), 0x01)\n        /* \"Contracts/OracleManager.sol\":14281:14309  aggregatorAddr == address(0) */\n      dup4\n      and\n      iszero\n        /* \"Contracts/OracleManager.sol\":14269:14309  amt == 0 || aggregatorAddr == address(0) */\n    tag_290:\n        /* \"Contracts/OracleManager.sol\":14265:14344  if (amt == 0 || aggregatorAddr == address(0)) {... */\n      iszero\n      tag_291\n      jumpi\n      pop\n        /* \"Contracts/OracleManager.sol\":14332:14333  0 */\n      0x00\n        /* \"Contracts/OracleManager.sol\":14325:14333  return 0 */\n      jump(tag_212)\n        /* \"Contracts/OracleManager.sol\":14265:14344  if (amt == 0 || aggregatorAddr == address(0)) {... */\n    tag_291:\n        /* \"Contracts/OracleManager.sol\":14354:14361  bool ok */\n      0x00\n        /* \"Contracts/OracleManager.sol\":14363:14372  uint256 p */\n      0x00\n        /* \"Contracts/OracleManager.sol\":14374:14381  uint8 d */\n      0x00\n        /* \"Contracts/OracleManager.sol\":14385:14435  _tryGetChainlinkPrice(aggregatorAddr, decimalsOvr) */\n      tag_292\n        /* \"Contracts/OracleManager.sol\":14407:14421  aggregatorAddr */\n      dup7\n        /* \"Contracts/OracleManager.sol\":14423:14434  decimalsOvr */\n      dup7\n        /* \"Contracts/OracleManager.sol\":14385:14406  _tryGetChainlinkPrice */\n      tag_94\n        /* \"Contracts/OracleManager.sol\":14385:14435  _tryGetChainlinkPrice(aggregatorAddr, decimalsOvr) */\n      jump\t// in\n    tag_292:\n        /* \"Contracts/OracleManager.sol\":14353:14435  (bool ok, uint256 p, uint8 d) = _tryGetChainlinkPrice(aggregatorAddr, decimalsOvr) */\n      swap3\n      pop\n      swap3\n      pop\n      swap3\n      pop\n        /* \"Contracts/OracleManager.sol\":14453:14455  ok */\n      dup3\n        /* \"Contracts/OracleManager.sol\":14445:14519  require(ok, \"OracleManager: aggregator fail in _convertToAggregatorValue\") */\n      tag_293\n      jumpi\n      mload(0x40)\n      shl(0xe5, 0x461bcd)\n      dup2\n      mstore\n        /* \"#utility.yul\":18112:18114   */\n      0x20\n        /* \"Contracts/OracleManager.sol\":14445:14519  require(ok, \"OracleManager: aggregator fail in _convertToAggregatorValue\") */\n      0x04\n      dup3\n      add\n        /* \"#utility.yul\":18094:18115   */\n      mstore\n        /* \"#utility.yul\":18151:18153   */\n      0x3b\n        /* \"#utility.yul\":18131:18149   */\n      0x24\n      dup3\n      add\n        /* \"#utility.yul\":18124:18154   */\n      mstore\n        /* \"#utility.yul\":18190:18224   */\n      0x4f7261636c654d616e616765723a2061676772656761746f72206661696c2069\n        /* \"#utility.yul\":18170:18188   */\n      0x44\n      dup3\n      add\n        /* \"#utility.yul\":18163:18225   */\n      mstore\n        /* \"#utility.yul\":18261:18290   */\n      0x6e205f636f6e76657274546f41676772656761746f7256616c75650000000000\n        /* \"#utility.yul\":18241:18259   */\n      0x64\n      dup3\n      add\n        /* \"#utility.yul\":18234:18291   */\n      mstore\n        /* \"#utility.yul\":18308:18327   */\n      0x84\n      add\n        /* \"Contracts/OracleManager.sol\":14445:14519  require(ok, \"OracleManager: aggregator fail in _convertToAggregatorValue\") */\n      tag_48\n        /* \"#utility.yul\":17910:18333   */\n      jump\n        /* \"Contracts/OracleManager.sol\":14445:14519  require(ok, \"OracleManager: aggregator fail in _convertToAggregatorValue\") */\n    tag_293:\n        /* \"Contracts/OracleManager.sol\":14549:14556  10 ** d */\n      tag_296\n        /* \"Contracts/OracleManager.sol\":14555:14556  d */\n      dup2\n        /* \"Contracts/OracleManager.sol\":14549:14551  10 */\n      0x0a\n        /* \"Contracts/OracleManager.sol\":14549:14556  10 ** d */\n      tag_297\n      jump\t// in\n    tag_296:\n        /* \"Contracts/OracleManager.sol\":14537:14544  amt * p */\n      tag_298\n        /* \"Contracts/OracleManager.sol\":14543:14544  p */\n      dup4\n        /* \"Contracts/OracleManager.sol\":14537:14540  amt */\n      dup10\n        /* \"Contracts/OracleManager.sol\":14537:14544  amt * p */\n      tag_233\n      jump\t// in\n    tag_298:\n        /* \"Contracts/OracleManager.sol\":14536:14557  (amt * p) / (10 ** d) */\n      tag_299\n      swap2\n      swap1\n      tag_126\n      jump\t// in\n    tag_299:\n        /* \"Contracts/OracleManager.sol\":14529:14557  return (amt * p) / (10 ** d) */\n      swap8\n        /* \"Contracts/OracleManager.sol\":14102:14564  function _convertToAggregatorValue(... */\n      swap7\n      pop\n      pop\n      pop\n      pop\n      pop\n      pop\n      pop\n      jump\t// out\n        /* \"https://github.com/Uniswap/v3-periphery/blob/0.8/contracts/libraries/LiquidityAmounts.sol\":4309:4865  function getAmount0ForLiquidity(... */\n    tag_281:\n        /* \"https://github.com/Uniswap/v3-periphery/blob/0.8/contracts/libraries/LiquidityAmounts.sol\":4459:4474  uint256 amount0 */\n      0x00\n        /* \"https://github.com/Uniswap/v3-periphery/blob/0.8/contracts/libraries/LiquidityAmounts.sol\":4530:4543  sqrtRatioBX96 */\n      dup3\n      sub(shl(0xa0, 0x01), 0x01)\n        /* \"https://github.com/Uniswap/v3-periphery/blob/0.8/contracts/libraries/LiquidityAmounts.sol\":4514:4543  sqrtRatioAX96 > sqrtRatioBX96 */\n      and\n        /* \"https://github.com/Uniswap/v3-periphery/blob/0.8/contracts/libraries/LiquidityAmounts.sol\":4514:4527  sqrtRatioAX96 */\n      dup5\n      sub(shl(0xa0, 0x01), 0x01)\n        /* \"https://github.com/Uniswap/v3-periphery/blob/0.8/contracts/libraries/LiquidityAmounts.sol\":4514:4543  sqrtRatioAX96 > sqrtRatioBX96 */\n      and\n      gt\n        /* \"https://github.com/Uniswap/v3-periphery/blob/0.8/contracts/libraries/LiquidityAmounts.sol\":4510:4608  if (sqrtRatioAX96 > sqrtRatioBX96) (sqrtRatioAX96, sqrtRatioBX96) = (sqrtRatioBX96, sqrtRatioAX96) */\n      iszero\n      tag_301\n      jumpi\n        /* \"https://github.com/Uniswap/v3-periphery/blob/0.8/contracts/libraries/LiquidityAmounts.sol\":4579:4592  sqrtRatioBX96 */\n      swap2\n      swap3\n        /* \"https://github.com/Uniswap/v3-periphery/blob/0.8/contracts/libraries/LiquidityAmounts.sol\":4594:4607  sqrtRatioAX96 */\n      swap2\n        /* \"https://github.com/Uniswap/v3-periphery/blob/0.8/contracts/libraries/LiquidityAmounts.sol\":4510:4608  if (sqrtRatioAX96 > sqrtRatioBX96) (sqrtRatioAX96, sqrtRatioBX96) = (sqrtRatioBX96, sqrtRatioAX96) */\n    tag_301:\n        /* \"https://github.com/Uniswap/v3-periphery/blob/0.8/contracts/libraries/LiquidityAmounts.sol\":4835:4848  sqrtRatioAX96 */\n      dup4\n      sub(shl(0xa0, 0x01), 0x01)\n        /* \"https://github.com/Uniswap/v3-periphery/blob/0.8/contracts/libraries/LiquidityAmounts.sol\":4646:4848  FullMath.mulDiv(... */\n      and\n        /* \"https://github.com/Uniswap/v3-periphery/blob/0.8/contracts/libraries/LiquidityAmounts.sol\":4646:4832  FullMath.mulDiv(... */\n      tag_302\n        /* \"@uniswap/v3-core/contracts/libraries/FixedPoint96.sol\":309:311  96 */\n      0x60\n        /* \"https://github.com/Uniswap/v3-periphery/blob/0.8/contracts/libraries/LiquidityAmounts.sol\":4683:4728  uint256(liquidity) << FixedPoint96.RESOLUTION */\n      0xff\n      and\n        /* \"https://github.com/Uniswap/v3-periphery/blob/0.8/contracts/libraries/LiquidityAmounts.sol\":4691:4700  liquidity */\n      dup5\n      sub(shl(0x80, 0x01), 0x01)\n        /* \"https://github.com/Uniswap/v3-periphery/blob/0.8/contracts/libraries/LiquidityAmounts.sol\":4683:4701  uint256(liquidity) */\n      and\n        /* \"https://github.com/Uniswap/v3-periphery/blob/0.8/contracts/libraries/LiquidityAmounts.sol\":4683:4728  uint256(liquidity) << FixedPoint96.RESOLUTION */\n      swap1\n      shl\n        /* \"https://github.com/Uniswap/v3-periphery/blob/0.8/contracts/libraries/LiquidityAmounts.sol\":4766:4779  sqrtRatioAX96 */\n      dup7\n        /* \"https://github.com/Uniswap/v3-periphery/blob/0.8/contracts/libraries/LiquidityAmounts.sol\":4750:4763  sqrtRatioBX96 */\n      dup7\n        /* \"https://github.com/Uniswap/v3-periphery/blob/0.8/contracts/libraries/LiquidityAmounts.sol\":4750:4779  sqrtRatioBX96 - sqrtRatioAX96 */\n      sub\n      sub(shl(0xa0, 0x01), 0x01)\n        /* \"https://github.com/Uniswap/v3-periphery/blob/0.8/contracts/libraries/LiquidityAmounts.sol\":4646:4832  FullMath.mulDiv(... */\n      and\n        /* \"https://github.com/Uniswap/v3-periphery/blob/0.8/contracts/libraries/LiquidityAmounts.sol\":4801:4814  sqrtRatioBX96 */\n      dup7\n      sub(shl(0xa0, 0x01), 0x01)\n        /* \"https://github.com/Uniswap/v3-periphery/blob/0.8/contracts/libraries/LiquidityAmounts.sol\":4646:4832  FullMath.mulDiv(... */\n      and\n        /* \"https://github.com/Uniswap/v3-periphery/blob/0.8/contracts/libraries/LiquidityAmounts.sol\":4646:4661  FullMath.mulDiv */\n      tag_303\n        /* \"https://github.com/Uniswap/v3-periphery/blob/0.8/contracts/libraries/LiquidityAmounts.sol\":4646:4832  FullMath.mulDiv(... */\n      jump\t// in\n    tag_302:\n        /* \"https://github.com/Uniswap/v3-periphery/blob/0.8/contracts/libraries/LiquidityAmounts.sol\":4646:4848  FullMath.mulDiv(... */\n      dup2\n      tag_305\n      jumpi\n      tag_305\n      tag_306\n      jump\t// in\n    tag_305:\n      div\n      swap5\n        /* \"https://github.com/Uniswap/v3-periphery/blob/0.8/contracts/libraries/LiquidityAmounts.sol\":4309:4865  function getAmount0ForLiquidity(... */\n      swap4\n      pop\n      pop\n      pop\n      pop\n      jump\t// out\n        /* \"https://github.com/Uniswap/v3-periphery/blob/0.8/contracts/libraries/LiquidityAmounts.sol\":5223:5632  function getAmount1ForLiquidity(... */\n    tag_286:\n        /* \"https://github.com/Uniswap/v3-periphery/blob/0.8/contracts/libraries/LiquidityAmounts.sol\":5373:5388  uint256 amount1 */\n      0x00\n        /* \"https://github.com/Uniswap/v3-periphery/blob/0.8/contracts/libraries/LiquidityAmounts.sol\":5420:5433  sqrtRatioBX96 */\n      dup3\n      sub(shl(0xa0, 0x01), 0x01)\n        /* \"https://github.com/Uniswap/v3-periphery/blob/0.8/contracts/libraries/LiquidityAmounts.sol\":5404:5433  sqrtRatioAX96 > sqrtRatioBX96 */\n      and\n        /* \"https://github.com/Uniswap/v3-periphery/blob/0.8/contracts/libraries/LiquidityAmounts.sol\":5404:5417  sqrtRatioAX96 */\n      dup5\n      sub(shl(0xa0, 0x01), 0x01)\n        /* \"https://github.com/Uniswap/v3-periphery/blob/0.8/contracts/libraries/LiquidityAmounts.sol\":5404:5433  sqrtRatioAX96 > sqrtRatioBX96 */\n      and\n      gt\n        /* \"https://github.com/Uniswap/v3-periphery/blob/0.8/contracts/libraries/LiquidityAmounts.sol\":5400:5498  if (sqrtRatioAX96 > sqrtRatioBX96) (sqrtRatioAX96, sqrtRatioBX96) = (sqrtRatioBX96, sqrtRatioAX96) */\n      iszero\n      tag_308\n      jumpi\n        /* \"https://github.com/Uniswap/v3-periphery/blob/0.8/contracts/libraries/LiquidityAmounts.sol\":5469:5482  sqrtRatioBX96 */\n      swap2\n      swap3\n        /* \"https://github.com/Uniswap/v3-periphery/blob/0.8/contracts/libraries/LiquidityAmounts.sol\":5484:5497  sqrtRatioAX96 */\n      swap2\n        /* \"https://github.com/Uniswap/v3-periphery/blob/0.8/contracts/libraries/LiquidityAmounts.sol\":5400:5498  if (sqrtRatioAX96 > sqrtRatioBX96) (sqrtRatioAX96, sqrtRatioBX96) = (sqrtRatioBX96, sqrtRatioAX96) */\n    tag_308:\n        /* \"https://github.com/Uniswap/v3-periphery/blob/0.8/contracts/libraries/LiquidityAmounts.sol\":5540:5615  FullMath.mulDiv(liquidity, sqrtRatioBX96 - sqrtRatioAX96, FixedPoint96.Q96) */\n      tag_274\n        /* \"https://github.com/Uniswap/v3-periphery/blob/0.8/contracts/libraries/LiquidityAmounts.sol\":5556:5565  liquidity */\n      dup3\n      sub(shl(0x80, 0x01), 0x01)\n        /* \"https://github.com/Uniswap/v3-periphery/blob/0.8/contracts/libraries/LiquidityAmounts.sol\":5540:5615  FullMath.mulDiv(liquidity, sqrtRatioBX96 - sqrtRatioAX96, FixedPoint96.Q96) */\n      and\n        /* \"https://github.com/Uniswap/v3-periphery/blob/0.8/contracts/libraries/LiquidityAmounts.sol\":5583:5596  sqrtRatioAX96 */\n      dup6\n        /* \"https://github.com/Uniswap/v3-periphery/blob/0.8/contracts/libraries/LiquidityAmounts.sol\":5567:5580  sqrtRatioBX96 */\n      dup6\n        /* \"https://github.com/Uniswap/v3-periphery/blob/0.8/contracts/libraries/LiquidityAmounts.sol\":5567:5596  sqrtRatioBX96 - sqrtRatioAX96 */\n      sub\n      sub(shl(0xa0, 0x01), 0x01)\n        /* \"https://github.com/Uniswap/v3-periphery/blob/0.8/contracts/libraries/LiquidityAmounts.sol\":5540:5615  FullMath.mulDiv(liquidity, sqrtRatioBX96 - sqrtRatioAX96, FixedPoint96.Q96) */\n      and\n      shl(0x60, 0x01)\n        /* \"@uniswap/v3-core/contracts/libraries/FullMath.sol\":741:4868  function mulDiv(... */\n    tag_303:\n        /* \"@uniswap/v3-core/contracts/libraries/FullMath.sol\":853:867  uint256 result */\n      0x00\n      dup1\n      dup1\n      not(0x00)\n        /* \"@uniswap/v3-core/contracts/libraries/FullMath.sol\":1416:1417  b */\n      dup6\n        /* \"@uniswap/v3-core/contracts/libraries/FullMath.sol\":1413:1414  a */\n      dup8\n        /* \"@uniswap/v3-core/contracts/libraries/FullMath.sol\":1406:1426  mulmod(a, b, not(0)) */\n      mulmod\n        /* \"@uniswap/v3-core/contracts/libraries/FullMath.sol\":1459:1460  b */\n      dup6\n        /* \"@uniswap/v3-core/contracts/libraries/FullMath.sol\":1456:1457  a */\n      dup8\n        /* \"@uniswap/v3-core/contracts/libraries/FullMath.sol\":1452:1461  mul(a, b) */\n      mul\n        /* \"@uniswap/v3-core/contracts/libraries/FullMath.sol\":1443:1461  prod0 := mul(a, b) */\n      swap3\n      pop\n        /* \"@uniswap/v3-core/contracts/libraries/FullMath.sol\":1514:1519  prod0 */\n      dup3\n        /* \"@uniswap/v3-core/contracts/libraries/FullMath.sol\":1510:1512  mm */\n      dup2\n        /* \"@uniswap/v3-core/contracts/libraries/FullMath.sol\":1507:1520  lt(mm, prod0) */\n      lt\n        /* \"@uniswap/v3-core/contracts/libraries/FullMath.sol\":1499:1504  prod0 */\n      dup4\n        /* \"@uniswap/v3-core/contracts/libraries/FullMath.sol\":1495:1497  mm */\n      dup3\n        /* \"@uniswap/v3-core/contracts/libraries/FullMath.sol\":1491:1505  sub(mm, prod0) */\n      sub\n        /* \"@uniswap/v3-core/contracts/libraries/FullMath.sol\":1487:1521  sub(sub(mm, prod0), lt(mm, prod0)) */\n      sub\n        /* \"@uniswap/v3-core/contracts/libraries/FullMath.sol\":1478:1521  prod1 := sub(sub(mm, prod0), lt(mm, prod0)) */\n      swap2\n      pop\n      pop\n        /* \"@uniswap/v3-core/contracts/libraries/FullMath.sol\":1615:1620  prod1 */\n      dup1\n        /* \"@uniswap/v3-core/contracts/libraries/FullMath.sol\":1624:1625  0 */\n      0x00\n        /* \"@uniswap/v3-core/contracts/libraries/FullMath.sol\":1615:1625  prod1 == 0 */\n      sub\n        /* \"@uniswap/v3-core/contracts/libraries/FullMath.sol\":1611:1814  if (prod1 == 0) {... */\n      tag_311\n      jumpi\n        /* \"@uniswap/v3-core/contracts/libraries/FullMath.sol\":1667:1668  0 */\n      0x00\n        /* \"@uniswap/v3-core/contracts/libraries/FullMath.sol\":1653:1664  denominator */\n      dup5\n        /* \"@uniswap/v3-core/contracts/libraries/FullMath.sol\":1653:1668  denominator > 0 */\n      gt\n        /* \"@uniswap/v3-core/contracts/libraries/FullMath.sol\":1645:1669  require(denominator > 0) */\n      tag_312\n      jumpi\n      revert(0x00, 0x00)\n    tag_312:\n      pop\n        /* \"@uniswap/v3-core/contracts/libraries/FullMath.sol\":1728:1751  div(prod0, denominator) */\n      dup3\n      swap1\n      div\n      swap1\n      pop\n        /* \"@uniswap/v3-core/contracts/libraries/FullMath.sol\":1786:1799  return result */\n      jump(tag_212)\n        /* \"@uniswap/v3-core/contracts/libraries/FullMath.sol\":1611:1814  if (prod1 == 0) {... */\n    tag_311:\n        /* \"@uniswap/v3-core/contracts/libraries/FullMath.sol\":1953:1958  prod1 */\n      dup1\n        /* \"@uniswap/v3-core/contracts/libraries/FullMath.sol\":1939:1950  denominator */\n      dup5\n        /* \"@uniswap/v3-core/contracts/libraries/FullMath.sol\":1939:1958  denominator > prod1 */\n      gt\n        /* \"@uniswap/v3-core/contracts/libraries/FullMath.sol\":1931:1959  require(denominator > prod1) */\n      tag_313\n      jumpi\n      revert(0x00, 0x00)\n    tag_313:\n        /* \"@uniswap/v3-core/contracts/libraries/FullMath.sol\":2260:2277  uint256 remainder */\n      0x00\n        /* \"@uniswap/v3-core/contracts/libraries/FullMath.sol\":2344:2355  denominator */\n      dup5\n        /* \"@uniswap/v3-core/contracts/libraries/FullMath.sol\":2341:2342  b */\n      dup7\n        /* \"@uniswap/v3-core/contracts/libraries/FullMath.sol\":2338:2339  a */\n      dup9\n        /* \"@uniswap/v3-core/contracts/libraries/FullMath.sol\":2331:2356  mulmod(a, b, denominator) */\n      mulmod\n        /* \"@uniswap/v3-core/contracts/libraries/FullMath.sol\":2736:2748  uint256 twos */\n      0x00\n        /* \"@uniswap/v3-core/contracts/libraries/FullMath.sol\":2752:2767  0 - denominator */\n      dup7\n      dup2\n      sub\n        /* \"@uniswap/v3-core/contracts/libraries/FullMath.sol\":2751:2782  (0 - denominator) & denominator */\n      dup8\n      and\n        /* \"@uniswap/v3-core/contracts/libraries/FullMath.sol\":2888:2910  div(denominator, twos) */\n      swap7\n      dup8\n      swap1\n      div\n      swap7\n        /* \"@uniswap/v3-core/contracts/libraries/FullMath.sol\":3763:3764  2 */\n      0x02\n        /* \"@uniswap/v3-core/contracts/libraries/FullMath.sol\":3744:3745  3 */\n      0x03\n        /* \"@uniswap/v3-core/contracts/libraries/FullMath.sol\":3744:3759  3 * denominator */\n      dup10\n      mul\n        /* \"@uniswap/v3-core/contracts/libraries/FullMath.sol\":3743:3764  (3 * denominator) ^ 2 */\n      dup2\n      xor\n        /* \"@uniswap/v3-core/contracts/libraries/FullMath.sol\":4006:4023  denominator * inv */\n      dup1\n      dup11\n      mul\n        /* \"@uniswap/v3-core/contracts/libraries/FullMath.sol\":4002:4023  2 - denominator * inv */\n      dup3\n      sub\n        /* \"@uniswap/v3-core/contracts/libraries/FullMath.sol\":3995:4023  inv *= 2 - denominator * inv */\n      mul\n        /* \"@uniswap/v3-core/contracts/libraries/FullMath.sol\":4068:4085  denominator * inv */\n      dup1\n      dup11\n      mul\n        /* \"@uniswap/v3-core/contracts/libraries/FullMath.sol\":4064:4085  2 - denominator * inv */\n      dup3\n      sub\n        /* \"@uniswap/v3-core/contracts/libraries/FullMath.sol\":4057:4085  inv *= 2 - denominator * inv */\n      mul\n        /* \"@uniswap/v3-core/contracts/libraries/FullMath.sol\":4131:4148  denominator * inv */\n      dup1\n      dup11\n      mul\n        /* \"@uniswap/v3-core/contracts/libraries/FullMath.sol\":4127:4148  2 - denominator * inv */\n      dup3\n      sub\n        /* \"@uniswap/v3-core/contracts/libraries/FullMath.sol\":4120:4148  inv *= 2 - denominator * inv */\n      mul\n        /* \"@uniswap/v3-core/contracts/libraries/FullMath.sol\":4194:4211  denominator * inv */\n      dup1\n      dup11\n      mul\n        /* \"@uniswap/v3-core/contracts/libraries/FullMath.sol\":4190:4211  2 - denominator * inv */\n      dup3\n      sub\n        /* \"@uniswap/v3-core/contracts/libraries/FullMath.sol\":4183:4211  inv *= 2 - denominator * inv */\n      mul\n        /* \"@uniswap/v3-core/contracts/libraries/FullMath.sol\":4257:4274  denominator * inv */\n      dup1\n      dup11\n      mul\n        /* \"@uniswap/v3-core/contracts/libraries/FullMath.sol\":4253:4274  2 - denominator * inv */\n      dup3\n      sub\n        /* \"@uniswap/v3-core/contracts/libraries/FullMath.sol\":4246:4274  inv *= 2 - denominator * inv */\n      mul\n        /* \"@uniswap/v3-core/contracts/libraries/FullMath.sol\":4321:4338  denominator * inv */\n      dup1\n      dup11\n      mul\n        /* \"@uniswap/v3-core/contracts/libraries/FullMath.sol\":4317:4338  2 - denominator * inv */\n      swap1\n      swap2\n      sub\n        /* \"@uniswap/v3-core/contracts/libraries/FullMath.sol\":4310:4338  inv *= 2 - denominator * inv */\n      mul\n        /* \"@uniswap/v3-core/contracts/libraries/FullMath.sol\":3300:3312  sub(0, twos) */\n      swap2\n      dup2\n      swap1\n      sub\n        /* \"@uniswap/v3-core/contracts/libraries/FullMath.sol\":3296:3319  div(sub(0, twos), twos) */\n      dup2\n      swap1\n      div\n        /* \"@uniswap/v3-core/contracts/libraries/FullMath.sol\":3321:3322  1 */\n      0x01\n        /* \"@uniswap/v3-core/contracts/libraries/FullMath.sol\":3292:3323  add(div(sub(0, twos), twos), 1) */\n      add\n        /* \"@uniswap/v3-core/contracts/libraries/FullMath.sol\":2489:2509  gt(remainder, prod0) */\n      dup7\n      dup5\n      gt\n        /* \"@uniswap/v3-core/contracts/libraries/FullMath.sol\":2478:2510  sub(prod1, gt(remainder, prod0)) */\n      swap1\n      swap6\n      sub\n        /* \"@uniswap/v3-core/contracts/libraries/FullMath.sol\":3359:3371  prod1 * twos */\n      swap5\n      swap1\n      swap5\n      mul\n        /* \"@uniswap/v3-core/contracts/libraries/FullMath.sol\":2536:2557  sub(prod0, remainder) */\n      swap2\n      swap1\n      swap5\n      sub\n        /* \"@uniswap/v3-core/contracts/libraries/FullMath.sol\":3032:3048  div(prod0, twos) */\n      swap3\n      swap1\n      swap3\n      div\n        /* \"@uniswap/v3-core/contracts/libraries/FullMath.sol\":3350:3371  prod0 |= prod1 * twos */\n      swap2\n      swap1\n      swap2\n      or\n        /* \"@uniswap/v3-core/contracts/libraries/FullMath.sol\":4813:4824  prod0 * inv */\n      swap2\n      swap1\n      swap2\n      mul\n      swap2\n      pop\n      pop\n        /* \"@uniswap/v3-core/contracts/libraries/FullMath.sol\":741:4868  function mulDiv(... */\n      swap4\n      swap3\n      pop\n      pop\n      pop\n      jump\t// out\n        /* \"#utility.yul\":14:145   */\n    tag_314:\n      sub(shl(0xa0, 0x01), 0x01)\n        /* \"#utility.yul\":89:120   */\n      dup2\n      and\n        /* \"#utility.yul\":79:121   */\n      dup2\n      eq\n        /* \"#utility.yul\":69:139   */\n      tag_91\n      jumpi\n        /* \"#utility.yul\":135:136   */\n      0x00\n        /* \"#utility.yul\":132:133   */\n      0x00\n        /* \"#utility.yul\":125:137   */\n      revert\n        /* \"#utility.yul\":150:397   */\n    tag_14:\n        /* \"#utility.yul\":209:215   */\n      0x00\n        /* \"#utility.yul\":262:264   */\n      0x20\n        /* \"#utility.yul\":250:259   */\n      dup3\n        /* \"#utility.yul\":241:248   */\n      dup5\n        /* \"#utility.yul\":237:260   */\n      sub\n        /* \"#utility.yul\":233:265   */\n      slt\n        /* \"#utility.yul\":230:282   */\n      iszero\n      tag_332\n      jumpi\n        /* \"#utility.yul\":278:279   */\n      0x00\n        /* \"#utility.yul\":275:276   */\n      0x00\n        /* \"#utility.yul\":268:280   */\n      revert\n        /* \"#utility.yul\":230:282   */\n    tag_332:\n        /* \"#utility.yul\":317:326   */\n      dup2\n        /* \"#utility.yul\":304:327   */\n      calldataload\n        /* \"#utility.yul\":336:367   */\n      tag_212\n        /* \"#utility.yul\":361:366   */\n      dup2\n        /* \"#utility.yul\":336:367   */\n      tag_314\n      jump\t// in\n        /* \"#utility.yul\":1961:2075   */\n    tag_315:\n        /* \"#utility.yul\":2045:2049   */\n      0xff\n        /* \"#utility.yul\":2038:2043   */\n      dup2\n        /* \"#utility.yul\":2034:2050   */\n      and\n        /* \"#utility.yul\":2027:2032   */\n      dup2\n        /* \"#utility.yul\":2024:2051   */\n      eq\n        /* \"#utility.yul\":2014:2069   */\n      tag_91\n      jumpi\n        /* \"#utility.yul\":2065:2066   */\n      0x00\n        /* \"#utility.yul\":2062:2063   */\n      0x00\n        /* \"#utility.yul\":2055:2067   */\n      revert\n        /* \"#utility.yul\":2080:2885   */\n    tag_36:\n        /* \"#utility.yul\":2171:2177   */\n      0x00\n        /* \"#utility.yul\":2179:2185   */\n      0x00\n        /* \"#utility.yul\":2187:2193   */\n      0x00\n        /* \"#utility.yul\":2195:2201   */\n      0x00\n        /* \"#utility.yul\":2203:2209   */\n      0x00\n        /* \"#utility.yul\":2256:2259   */\n      0xa0\n        /* \"#utility.yul\":2244:2253   */\n      dup7\n        /* \"#utility.yul\":2235:2242   */\n      dup9\n        /* \"#utility.yul\":2231:2254   */\n      sub\n        /* \"#utility.yul\":2227:2260   */\n      slt\n        /* \"#utility.yul\":2224:2277   */\n      iszero\n      tag_341\n      jumpi\n        /* \"#utility.yul\":2273:2274   */\n      0x00\n        /* \"#utility.yul\":2270:2271   */\n      0x00\n        /* \"#utility.yul\":2263:2275   */\n      revert\n        /* \"#utility.yul\":2224:2277   */\n    tag_341:\n        /* \"#utility.yul\":2312:2321   */\n      dup6\n        /* \"#utility.yul\":2299:2322   */\n      calldataload\n        /* \"#utility.yul\":2331:2362   */\n      tag_342\n        /* \"#utility.yul\":2356:2361   */\n      dup2\n        /* \"#utility.yul\":2331:2362   */\n      tag_314\n      jump\t// in\n    tag_342:\n        /* \"#utility.yul\":2381:2386   */\n      swap5\n      pop\n        /* \"#utility.yul\":2438:2440   */\n      0x20\n        /* \"#utility.yul\":2423:2441   */\n      dup7\n      add\n        /* \"#utility.yul\":2410:2442   */\n      calldataload\n        /* \"#utility.yul\":2451:2484   */\n      tag_343\n        /* \"#utility.yul\":2410:2442   */\n      dup2\n        /* \"#utility.yul\":2451:2484   */\n      tag_314\n      jump\t// in\n    tag_343:\n        /* \"#utility.yul\":2503:2510   */\n      swap4\n      pop\n        /* \"#utility.yul\":2562:2564   */\n      0x40\n        /* \"#utility.yul\":2547:2565   */\n      dup7\n      add\n        /* \"#utility.yul\":2534:2566   */\n      calldataload\n        /* \"#utility.yul\":2575:2608   */\n      tag_344\n        /* \"#utility.yul\":2534:2566   */\n      dup2\n        /* \"#utility.yul\":2575:2608   */\n      tag_314\n      jump\t// in\n    tag_344:\n        /* \"#utility.yul\":2627:2634   */\n      swap3\n      pop\n        /* \"#utility.yul\":2686:2688   */\n      0x60\n        /* \"#utility.yul\":2671:2689   */\n      dup7\n      add\n        /* \"#utility.yul\":2658:2690   */\n      calldataload\n        /* \"#utility.yul\":2699:2730   */\n      tag_345\n        /* \"#utility.yul\":2658:2690   */\n      dup2\n        /* \"#utility.yul\":2699:2730   */\n      tag_315\n      jump\t// in\n    tag_345:\n        /* \"#utility.yul\":2749:2756   */\n      swap2\n      pop\n        /* \"#utility.yul\":2808:2811   */\n      0x80\n        /* \"#utility.yul\":2793:2812   */\n      dup7\n      add\n        /* \"#utility.yul\":2780:2813   */\n      calldataload\n        /* \"#utility.yul\":2822:2853   */\n      tag_346\n        /* \"#utility.yul\":2780:2813   */\n      dup2\n        /* \"#utility.yul\":2822:2853   */\n      tag_315\n      jump\t// in\n    tag_346:\n        /* \"#utility.yul\":2872:2879   */\n      dup1\n        /* \"#utility.yul\":2862:2879   */\n      swap2\n      pop\n      pop\n        /* \"#utility.yul\":2080:2885   */\n      swap3\n      swap6\n      pop\n      swap3\n      swap6\n      swap1\n      swap4\n      pop\n      jump\t// out\n        /* \"#utility.yul\":2890:3008   */\n    tag_316:\n        /* \"#utility.yul\":2976:2981   */\n      dup1\n        /* \"#utility.yul\":2969:2982   */\n      iszero\n        /* \"#utility.yul\":2962:2983   */\n      iszero\n        /* \"#utility.yul\":2955:2960   */\n      dup2\n        /* \"#utility.yul\":2952:2984   */\n      eq\n        /* \"#utility.yul\":2942:3002   */\n      tag_91\n      jumpi\n        /* \"#utility.yul\":2998:2999   */\n      0x00\n        /* \"#utility.yul\":2995:2996   */\n      0x00\n        /* \"#utility.yul\":2988:3000   */\n      revert\n        /* \"#utility.yul\":3013:3952   */\n    tag_40:\n        /* \"#utility.yul\":3109:3115   */\n      0x00\n        /* \"#utility.yul\":3117:3123   */\n      0x00\n        /* \"#utility.yul\":3125:3131   */\n      0x00\n        /* \"#utility.yul\":3133:3139   */\n      0x00\n        /* \"#utility.yul\":3141:3147   */\n      0x00\n        /* \"#utility.yul\":3149:3155   */\n      0x00\n        /* \"#utility.yul\":3202:3205   */\n      0xc0\n        /* \"#utility.yul\":3190:3199   */\n      dup8\n        /* \"#utility.yul\":3181:3188   */\n      dup10\n        /* \"#utility.yul\":3177:3200   */\n      sub\n        /* \"#utility.yul\":3173:3206   */\n      slt\n        /* \"#utility.yul\":3170:3223   */\n      iszero\n      tag_350\n      jumpi\n        /* \"#utility.yul\":3219:3220   */\n      0x00\n        /* \"#utility.yul\":3216:3217   */\n      0x00\n        /* \"#utility.yul\":3209:3221   */\n      revert\n        /* \"#utility.yul\":3170:3223   */\n    tag_350:\n        /* \"#utility.yul\":3258:3267   */\n      dup7\n        /* \"#utility.yul\":3245:3268   */\n      calldataload\n        /* \"#utility.yul\":3277:3308   */\n      tag_351\n        /* \"#utility.yul\":3302:3307   */\n      dup2\n        /* \"#utility.yul\":3277:3308   */\n      tag_314\n      jump\t// in\n    tag_351:\n        /* \"#utility.yul\":3327:3332   */\n      swap6\n      pop\n        /* \"#utility.yul\":3384:3386   */\n      0x20\n        /* \"#utility.yul\":3369:3387   */\n      dup8\n      add\n        /* \"#utility.yul\":3356:3388   */\n      calldataload\n        /* \"#utility.yul\":3397:3430   */\n      tag_352\n        /* \"#utility.yul\":3356:3388   */\n      dup2\n        /* \"#utility.yul\":3397:3430   */\n      tag_314\n      jump\t// in\n    tag_352:\n        /* \"#utility.yul\":3449:3456   */\n      swap5\n      pop\n        /* \"#utility.yul\":3508:3510   */\n      0x40\n        /* \"#utility.yul\":3493:3511   */\n      dup8\n      add\n        /* \"#utility.yul\":3480:3512   */\n      calldataload\n        /* \"#utility.yul\":3521:3554   */\n      tag_353\n        /* \"#utility.yul\":3480:3512   */\n      dup2\n        /* \"#utility.yul\":3521:3554   */\n      tag_314\n      jump\t// in\n    tag_353:\n        /* \"#utility.yul\":3573:3580   */\n      swap4\n      pop\n        /* \"#utility.yul\":3632:3634   */\n      0x60\n        /* \"#utility.yul\":3617:3635   */\n      dup8\n      add\n        /* \"#utility.yul\":3604:3636   */\n      calldataload\n        /* \"#utility.yul\":3645:3675   */\n      tag_354\n        /* \"#utility.yul\":3604:3636   */\n      dup2\n        /* \"#utility.yul\":3645:3675   */\n      tag_316\n      jump\t// in\n    tag_354:\n        /* \"#utility.yul\":3694:3701   */\n      swap3\n      pop\n        /* \"#utility.yul\":3753:3756   */\n      0x80\n        /* \"#utility.yul\":3738:3757   */\n      dup8\n      add\n        /* \"#utility.yul\":3725:3758   */\n      calldataload\n        /* \"#utility.yul\":3767:3798   */\n      tag_355\n        /* \"#utility.yul\":3725:3758   */\n      dup2\n        /* \"#utility.yul\":3767:3798   */\n      tag_315\n      jump\t// in\n    tag_355:\n        /* \"#utility.yul\":3817:3824   */\n      swap2\n      pop\n        /* \"#utility.yul\":3876:3879   */\n      0xa0\n        /* \"#utility.yul\":3861:3880   */\n      dup8\n      add\n        /* \"#utility.yul\":3848:3881   */\n      calldataload\n        /* \"#utility.yul\":3890:3920   */\n      tag_356\n        /* \"#utility.yul\":3848:3881   */\n      dup2\n        /* \"#utility.yul\":3890:3920   */\n      tag_316\n      jump\t// in\n    tag_356:\n        /* \"#utility.yul\":3939:3946   */\n      dup1\n        /* \"#utility.yul\":3929:3946   */\n      swap2\n      pop\n      pop\n        /* \"#utility.yul\":3013:3952   */\n      swap3\n      swap6\n      pop\n      swap3\n      swap6\n      pop\n      swap3\n      swap6\n      jump\t// out\n        /* \"#utility.yul\":7629:7880   */\n    tag_114:\n        /* \"#utility.yul\":7699:7705   */\n      0x00\n        /* \"#utility.yul\":7752:7754   */\n      0x20\n        /* \"#utility.yul\":7740:7749   */\n      dup3\n        /* \"#utility.yul\":7731:7738   */\n      dup5\n        /* \"#utility.yul\":7727:7750   */\n      sub\n        /* \"#utility.yul\":7723:7755   */\n      slt\n        /* \"#utility.yul\":7720:7772   */\n      iszero\n      tag_367\n      jumpi\n        /* \"#utility.yul\":7768:7769   */\n      0x00\n        /* \"#utility.yul\":7765:7766   */\n      0x00\n        /* \"#utility.yul\":7758:7770   */\n      revert\n        /* \"#utility.yul\":7720:7772   */\n    tag_367:\n        /* \"#utility.yul\":7800:7809   */\n      dup2\n        /* \"#utility.yul\":7794:7810   */\n      mload\n        /* \"#utility.yul\":7819:7850   */\n      tag_212\n        /* \"#utility.yul\":7844:7849   */\n      dup2\n        /* \"#utility.yul\":7819:7850   */\n      tag_314\n      jump\t// in\n        /* \"#utility.yul\":7885:8012   */\n    tag_317:\n        /* \"#utility.yul\":7946:7956   */\n      0x4e487b71\n        /* \"#utility.yul\":7941:7944   */\n      0xe0\n        /* \"#utility.yul\":7937:7957   */\n      shl\n        /* \"#utility.yul\":7934:7935   */\n      0x00\n        /* \"#utility.yul\":7927:7958   */\n      mstore\n        /* \"#utility.yul\":7977:7981   */\n      0x11\n        /* \"#utility.yul\":7974:7975   */\n      0x04\n        /* \"#utility.yul\":7967:7982   */\n      mstore\n        /* \"#utility.yul\":8001:8005   */\n      0x24\n        /* \"#utility.yul\":7998:7999   */\n      0x00\n        /* \"#utility.yul\":7991:8006   */\n      revert\n        /* \"#utility.yul\":8017:8142   */\n    tag_119:\n        /* \"#utility.yul\":8082:8091   */\n      dup1\n      dup3\n      add\n        /* \"#utility.yul\":8103:8113   */\n      dup1\n      dup3\n      gt\n        /* \"#utility.yul\":8100:8136   */\n      iszero\n      tag_220\n      jumpi\n        /* \"#utility.yul\":8116:8134   */\n      tag_220\n      tag_317\n      jump\t// in\n        /* \"#utility.yul\":8147:8274   */\n    tag_306:\n        /* \"#utility.yul\":8208:8218   */\n      0x4e487b71\n        /* \"#utility.yul\":8203:8206   */\n      0xe0\n        /* \"#utility.yul\":8199:8219   */\n      shl\n        /* \"#utility.yul\":8196:8197   */\n      0x00\n        /* \"#utility.yul\":8189:8220   */\n      mstore\n        /* \"#utility.yul\":8239:8243   */\n      0x12\n        /* \"#utility.yul\":8236:8237   */\n      0x04\n        /* \"#utility.yul\":8229:8244   */\n      mstore\n        /* \"#utility.yul\":8263:8267   */\n      0x24\n        /* \"#utility.yul\":8260:8261   */\n      0x00\n        /* \"#utility.yul\":8253:8268   */\n      revert\n        /* \"#utility.yul\":8279:8496   */\n    tag_126:\n        /* \"#utility.yul\":8319:8320   */\n      0x00\n        /* \"#utility.yul\":8345:8346   */\n      dup3\n        /* \"#utility.yul\":8335:8467   */\n      tag_375\n      jumpi\n        /* \"#utility.yul\":8389:8399   */\n      0x4e487b71\n        /* \"#utility.yul\":8384:8387   */\n      0xe0\n        /* \"#utility.yul\":8380:8400   */\n      shl\n        /* \"#utility.yul\":8377:8378   */\n      0x00\n        /* \"#utility.yul\":8370:8401   */\n      mstore\n        /* \"#utility.yul\":8424:8428   */\n      0x12\n        /* \"#utility.yul\":8421:8422   */\n      0x04\n        /* \"#utility.yul\":8414:8429   */\n      mstore\n        /* \"#utility.yul\":8452:8456   */\n      0x24\n        /* \"#utility.yul\":8449:8450   */\n      0x00\n        /* \"#utility.yul\":8442:8457   */\n      revert\n        /* \"#utility.yul\":8335:8467   */\n    tag_375:\n      pop\n        /* \"#utility.yul\":8481:8490   */\n      div\n      swap1\n        /* \"#utility.yul\":8279:8496   */\n      jump\t// out\n        /* \"#utility.yul\":8862:9112   */\n    tag_318:\n        /* \"#utility.yul\":8947:8948   */\n      0x00\n        /* \"#utility.yul\":8957:9070   */\n    tag_378:\n        /* \"#utility.yul\":8971:8977   */\n      dup4\n        /* \"#utility.yul\":8968:8969   */\n      dup2\n        /* \"#utility.yul\":8965:8978   */\n      lt\n        /* \"#utility.yul\":8957:9070   */\n      iszero\n      tag_380\n      jumpi\n        /* \"#utility.yul\":9047:9058   */\n      dup2\n      dup2\n      add\n        /* \"#utility.yul\":9041:9059   */\n      mload\n        /* \"#utility.yul\":9028:9039   */\n      dup4\n      dup3\n      add\n        /* \"#utility.yul\":9021:9060   */\n      mstore\n        /* \"#utility.yul\":8993:8995   */\n      0x20\n        /* \"#utility.yul\":8986:8996   */\n      add\n        /* \"#utility.yul\":8957:9070   */\n      jump(tag_378)\n    tag_380:\n      pop\n      pop\n        /* \"#utility.yul\":9104:9105   */\n      0x00\n        /* \"#utility.yul\":9086:9102   */\n      swap2\n      add\n        /* \"#utility.yul\":9079:9106   */\n      mstore\n        /* \"#utility.yul\":8862:9112   */\n      jump\t// out\n        /* \"#utility.yul\":9117:9404   */\n    tag_138:\n        /* \"#utility.yul\":9246:9249   */\n      0x00\n        /* \"#utility.yul\":9284:9290   */\n      dup3\n        /* \"#utility.yul\":9278:9291   */\n      mload\n        /* \"#utility.yul\":9300:9366   */\n      tag_382\n        /* \"#utility.yul\":9359:9365   */\n      dup2\n        /* \"#utility.yul\":9354:9357   */\n      dup5\n        /* \"#utility.yul\":9347:9351   */\n      0x20\n        /* \"#utility.yul\":9339:9345   */\n      dup8\n        /* \"#utility.yul\":9335:9352   */\n      add\n        /* \"#utility.yul\":9300:9366   */\n      tag_318\n      jump\t// in\n    tag_382:\n        /* \"#utility.yul\":9382:9398   */\n      swap2\n      swap1\n      swap2\n      add\n      swap3\n        /* \"#utility.yul\":9117:9404   */\n      swap2\n      pop\n      pop\n      jump\t// out\n        /* \"#utility.yul\":9409:9588   */\n    tag_319:\n        /* \"#utility.yul\":9487:9500   */\n      dup1\n      mload\n        /* \"#utility.yul\":9540:9562   */\n      0xffffffffffffffffffff\n        /* \"#utility.yul\":9529:9563   */\n      dup2\n      and\n        /* \"#utility.yul\":9519:9564   */\n      dup2\n      eq\n        /* \"#utility.yul\":9509:9582   */\n      tag_384\n      jumpi\n        /* \"#utility.yul\":9578:9579   */\n      0x00\n        /* \"#utility.yul\":9575:9576   */\n      0x00\n        /* \"#utility.yul\":9568:9580   */\n      revert\n        /* \"#utility.yul\":9509:9582   */\n    tag_384:\n        /* \"#utility.yul\":9409:9588   */\n      swap2\n      swap1\n      pop\n      jump\t// out\n        /* \"#utility.yul\":9593:10164   */\n    tag_145:\n        /* \"#utility.yul\":9696:9702   */\n      0x00\n        /* \"#utility.yul\":9704:9710   */\n      0x00\n        /* \"#utility.yul\":9712:9718   */\n      0x00\n        /* \"#utility.yul\":9720:9726   */\n      0x00\n        /* \"#utility.yul\":9728:9734   */\n      0x00\n        /* \"#utility.yul\":9781:9784   */\n      0xa0\n        /* \"#utility.yul\":9769:9778   */\n      dup7\n        /* \"#utility.yul\":9760:9767   */\n      dup9\n        /* \"#utility.yul\":9756:9779   */\n      sub\n        /* \"#utility.yul\":9752:9785   */\n      slt\n        /* \"#utility.yul\":9749:9802   */\n      iszero\n      tag_386\n      jumpi\n        /* \"#utility.yul\":9798:9799   */\n      0x00\n        /* \"#utility.yul\":9795:9796   */\n      0x00\n        /* \"#utility.yul\":9788:9800   */\n      revert\n        /* \"#utility.yul\":9749:9802   */\n    tag_386:\n        /* \"#utility.yul\":9821:9860   */\n      tag_387\n        /* \"#utility.yul\":9850:9859   */\n      dup7\n        /* \"#utility.yul\":9821:9860   */\n      tag_319\n      jump\t// in\n    tag_387:\n        /* \"#utility.yul\":9900:9902   */\n      0x20\n        /* \"#utility.yul\":9885:9903   */\n      dup8\n      add\n        /* \"#utility.yul\":9879:9904   */\n      mload\n        /* \"#utility.yul\":9966:9968   */\n      0x40\n        /* \"#utility.yul\":9951:9969   */\n      dup9\n      add\n        /* \"#utility.yul\":9945:9970   */\n      mload\n        /* \"#utility.yul\":10060:10062   */\n      0x60\n        /* \"#utility.yul\":10045:10063   */\n      dup10\n      add\n        /* \"#utility.yul\":10039:10064   */\n      mload\n        /* \"#utility.yul\":9811:9860   */\n      swap3\n      swap8\n      pop\n        /* \"#utility.yul\":9879:9904   */\n      swap1\n      swap6\n      pop\n        /* \"#utility.yul\":9945:9970   */\n      swap4\n      pop\n        /* \"#utility.yul\":10039:10064   */\n      swap2\n      pop\n        /* \"#utility.yul\":10109:10158   */\n      tag_388\n        /* \"#utility.yul\":10153:10156   */\n      0x80\n        /* \"#utility.yul\":10138:10157   */\n      dup8\n      add\n        /* \"#utility.yul\":10109:10158   */\n      tag_319\n      jump\t// in\n    tag_388:\n        /* \"#utility.yul\":10099:10158   */\n      swap1\n      pop\n        /* \"#utility.yul\":9593:10164   */\n      swap3\n      swap6\n      pop\n      swap3\n      swap6\n      swap1\n      swap4\n      pop\n      jump\t// out\n        /* \"#utility.yul\":10169:10416   */\n    tag_155:\n        /* \"#utility.yul\":10237:10243   */\n      0x00\n        /* \"#utility.yul\":10290:10292   */\n      0x20\n        /* \"#utility.yul\":10278:10287   */\n      dup3\n        /* \"#utility.yul\":10269:10276   */\n      dup5\n        /* \"#utility.yul\":10265:10288   */\n      sub\n        /* \"#utility.yul\":10261:10293   */\n      slt\n        /* \"#utility.yul\":10258:10310   */\n      iszero\n      tag_390\n      jumpi\n        /* \"#utility.yul\":10306:10307   */\n      0x00\n        /* \"#utility.yul\":10303:10304   */\n      0x00\n        /* \"#utility.yul\":10296:10308   */\n      revert\n        /* \"#utility.yul\":10258:10310   */\n    tag_390:\n        /* \"#utility.yul\":10338:10347   */\n      dup2\n        /* \"#utility.yul\":10332:10348   */\n      mload\n        /* \"#utility.yul\":10357:10386   */\n      tag_212\n        /* \"#utility.yul\":10380:10385   */\n      dup2\n        /* \"#utility.yul\":10357:10386   */\n      tag_315\n      jump\t// in\n        /* \"#utility.yul\":10421:10651   */\n    tag_160:\n        /* \"#utility.yul\":10491:10497   */\n      0x00\n        /* \"#utility.yul\":10544:10546   */\n      0x20\n        /* \"#utility.yul\":10532:10541   */\n      dup3\n        /* \"#utility.yul\":10523:10530   */\n      dup5\n        /* \"#utility.yul\":10519:10542   */\n      sub\n        /* \"#utility.yul\":10515:10547   */\n      slt\n        /* \"#utility.yul\":10512:10564   */\n      iszero\n      tag_393\n      jumpi\n        /* \"#utility.yul\":10560:10561   */\n      0x00\n        /* \"#utility.yul\":10557:10558   */\n      0x00\n        /* \"#utility.yul\":10550:10562   */\n      revert\n        /* \"#utility.yul\":10512:10564   */\n    tag_393:\n      pop\n        /* \"#utility.yul\":10605:10621   */\n      mload\n      swap2\n        /* \"#utility.yul\":10421:10651   */\n      swap1\n      pop\n      jump\t// out\n        /* \"#utility.yul\":12003:12399   */\n    tag_189:\n        /* \"#utility.yul\":12152:12154   */\n      0x20\n        /* \"#utility.yul\":12141:12150   */\n      dup2\n        /* \"#utility.yul\":12134:12155   */\n      mstore\n        /* \"#utility.yul\":12115:12119   */\n      0x00\n        /* \"#utility.yul\":12184:12190   */\n      dup3\n        /* \"#utility.yul\":12178:12191   */\n      mload\n        /* \"#utility.yul\":12227:12233   */\n      dup1\n        /* \"#utility.yul\":12222:12224   */\n      0x20\n        /* \"#utility.yul\":12211:12220   */\n      dup5\n        /* \"#utility.yul\":12207:12225   */\n      add\n        /* \"#utility.yul\":12200:12234   */\n      mstore\n        /* \"#utility.yul\":12243:12322   */\n      tag_399\n        /* \"#utility.yul\":12315:12321   */\n      dup2\n        /* \"#utility.yul\":12310:12312   */\n      0x40\n        /* \"#utility.yul\":12299:12308   */\n      dup6\n        /* \"#utility.yul\":12295:12313   */\n      add\n        /* \"#utility.yul\":12290:12292   */\n      0x20\n        /* \"#utility.yul\":12282:12288   */\n      dup8\n        /* \"#utility.yul\":12278:12293   */\n      add\n        /* \"#utility.yul\":12243:12322   */\n      tag_318\n      jump\t// in\n    tag_399:\n        /* \"#utility.yul\":12383:12385   */\n      0x1f\n        /* \"#utility.yul\":12362:12377   */\n      add\n      not(0x1f)\n        /* \"#utility.yul\":12358:12387   */\n      and\n        /* \"#utility.yul\":12343:12388   */\n      swap2\n      swap1\n      swap2\n      add\n        /* \"#utility.yul\":12390:12392   */\n      0x40\n        /* \"#utility.yul\":12339:12393   */\n      add\n      swap3\n        /* \"#utility.yul\":12003:12399   */\n      swap2\n      pop\n      pop\n      jump\t// out\n        /* \"#utility.yul\":12404:12550   */\n    tag_320:\n        /* \"#utility.yul\":12491:12504   */\n      dup1\n      mload\n        /* \"#utility.yul\":12513:12544   */\n      tag_384\n        /* \"#utility.yul\":12491:12504   */\n      dup2\n        /* \"#utility.yul\":12513:12544   */\n      tag_314\n      jump\t// in\n        /* \"#utility.yul\":12555:12720   */\n    tag_321:\n        /* \"#utility.yul\":12633:12646   */\n      dup1\n      mload\n        /* \"#utility.yul\":12686:12694   */\n      0xffffff\n        /* \"#utility.yul\":12675:12695   */\n      dup2\n      and\n        /* \"#utility.yul\":12665:12696   */\n      dup2\n      eq\n        /* \"#utility.yul\":12655:12714   */\n      tag_384\n      jumpi\n        /* \"#utility.yul\":12710:12711   */\n      0x00\n        /* \"#utility.yul\":12707:12708   */\n      0x00\n        /* \"#utility.yul\":12700:12712   */\n      revert\n        /* \"#utility.yul\":12725:12889   */\n    tag_322:\n        /* \"#utility.yul\":12802:12815   */\n      dup1\n      mload\n        /* \"#utility.yul\":12855:12856   */\n      0x02\n        /* \"#utility.yul\":12844:12864   */\n      dup2\n      swap1\n      signextend\n        /* \"#utility.yul\":12834:12865   */\n      dup2\n      eq\n        /* \"#utility.yul\":12824:12883   */\n      tag_384\n      jumpi\n        /* \"#utility.yul\":12879:12880   */\n      0x00\n        /* \"#utility.yul\":12876:12877   */\n      0x00\n        /* \"#utility.yul\":12869:12881   */\n      revert\n        /* \"#utility.yul\":12894:13086   */\n    tag_323:\n        /* \"#utility.yul\":12973:12986   */\n      dup1\n      mload\n      sub(shl(0x80, 0x01), 0x01)\n        /* \"#utility.yul\":13015:13061   */\n      dup2\n      and\n        /* \"#utility.yul\":13005:13062   */\n      dup2\n      eq\n        /* \"#utility.yul\":12995:13080   */\n      tag_384\n      jumpi\n        /* \"#utility.yul\":13076:13077   */\n      0x00\n        /* \"#utility.yul\":13073:13074   */\n      0x00\n        /* \"#utility.yul\":13066:13078   */\n      revert\n        /* \"#utility.yul\":13091:14429   */\n    tag_191:\n        /* \"#utility.yul\":13278:13284   */\n      0x00\n        /* \"#utility.yul\":13286:13292   */\n      0x00\n        /* \"#utility.yul\":13294:13300   */\n      0x00\n        /* \"#utility.yul\":13302:13308   */\n      0x00\n        /* \"#utility.yul\":13310:13316   */\n      0x00\n        /* \"#utility.yul\":13318:13324   */\n      0x00\n        /* \"#utility.yul\":13326:13332   */\n      0x00\n        /* \"#utility.yul\":13334:13340   */\n      0x00\n        /* \"#utility.yul\":13342:13348   */\n      0x00\n        /* \"#utility.yul\":13350:13356   */\n      0x00\n        /* \"#utility.yul\":13358:13365   */\n      0x00\n        /* \"#utility.yul\":13367:13374   */\n      0x00\n        /* \"#utility.yul\":13421:13424   */\n      0x0180\n        /* \"#utility.yul\":13409:13418   */\n      dup14\n        /* \"#utility.yul\":13400:13407   */\n      dup16\n        /* \"#utility.yul\":13396:13419   */\n      sub\n        /* \"#utility.yul\":13392:13425   */\n      slt\n        /* \"#utility.yul\":13389:13442   */\n      iszero\n      tag_409\n      jumpi\n        /* \"#utility.yul\":13438:13439   */\n      0x00\n        /* \"#utility.yul\":13435:13436   */\n      0x00\n        /* \"#utility.yul\":13428:13440   */\n      revert\n        /* \"#utility.yul\":13389:13442   */\n    tag_409:\n        /* \"#utility.yul\":13470:13479   */\n      dup13\n        /* \"#utility.yul\":13464:13480   */\n      mload\n        /* \"#utility.yul\":13520:13546   */\n      0xffffffffffffffffffffffff\n        /* \"#utility.yul\":13513:13518   */\n      dup2\n        /* \"#utility.yul\":13509:13547   */\n      and\n        /* \"#utility.yul\":13502:13507   */\n      dup2\n        /* \"#utility.yul\":13499:13548   */\n      eq\n        /* \"#utility.yul\":13489:13566   */\n      tag_410\n      jumpi\n        /* \"#utility.yul\":13562:13563   */\n      0x00\n        /* \"#utility.yul\":13559:13560   */\n      0x00\n        /* \"#utility.yul\":13552:13564   */\n      revert\n        /* \"#utility.yul\":13489:13566   */\n    tag_410:\n        /* \"#utility.yul\":13585:13590   */\n      swap12\n      pop\n        /* \"#utility.yul\":13609:13666   */\n      tag_411\n        /* \"#utility.yul\":13662:13664   */\n      0x20\n        /* \"#utility.yul\":13647:13665   */\n      dup15\n      add\n        /* \"#utility.yul\":13609:13666   */\n      tag_320\n      jump\t// in\n    tag_411:\n        /* \"#utility.yul\":13599:13666   */\n      swap11\n      pop\n        /* \"#utility.yul\":13685:13742   */\n      tag_412\n        /* \"#utility.yul\":13738:13740   */\n      0x40\n        /* \"#utility.yul\":13727:13736   */\n      dup15\n        /* \"#utility.yul\":13723:13741   */\n      add\n        /* \"#utility.yul\":13685:13742   */\n      tag_320\n      jump\t// in\n    tag_412:\n        /* \"#utility.yul\":13675:13742   */\n      swap10\n      pop\n        /* \"#utility.yul\":13761:13818   */\n      tag_413\n        /* \"#utility.yul\":13814:13816   */\n      0x60\n        /* \"#utility.yul\":13803:13812   */\n      dup15\n        /* \"#utility.yul\":13799:13817   */\n      add\n        /* \"#utility.yul\":13761:13818   */\n      tag_320\n      jump\t// in\n    tag_413:\n        /* \"#utility.yul\":13751:13818   */\n      swap9\n      pop\n        /* \"#utility.yul\":13837:13886   */\n      tag_414\n        /* \"#utility.yul\":13881:13884   */\n      0x80\n        /* \"#utility.yul\":13870:13879   */\n      dup15\n        /* \"#utility.yul\":13866:13885   */\n      add\n        /* \"#utility.yul\":13837:13886   */\n      tag_321\n      jump\t// in\n    tag_414:\n        /* \"#utility.yul\":13827:13886   */\n      swap8\n      pop\n        /* \"#utility.yul\":13905:13953   */\n      tag_415\n        /* \"#utility.yul\":13948:13951   */\n      0xa0\n        /* \"#utility.yul\":13937:13946   */\n      dup15\n        /* \"#utility.yul\":13933:13952   */\n      add\n        /* \"#utility.yul\":13905:13953   */\n      tag_322\n      jump\t// in\n    tag_415:\n        /* \"#utility.yul\":13895:13953   */\n      swap7\n      pop\n        /* \"#utility.yul\":13972:14020   */\n      tag_416\n        /* \"#utility.yul\":14015:14018   */\n      0xc0\n        /* \"#utility.yul\":14004:14013   */\n      dup15\n        /* \"#utility.yul\":14000:14019   */\n      add\n        /* \"#utility.yul\":13972:14020   */\n      tag_322\n      jump\t// in\n    tag_416:\n        /* \"#utility.yul\":13962:14020   */\n      swap6\n      pop\n        /* \"#utility.yul\":14039:14089   */\n      tag_417\n        /* \"#utility.yul\":14084:14087   */\n      0xe0\n        /* \"#utility.yul\":14073:14082   */\n      dup15\n        /* \"#utility.yul\":14069:14088   */\n      add\n        /* \"#utility.yul\":14039:14089   */\n      tag_323\n      jump\t// in\n    tag_417:\n        /* \"#utility.yul\":14155:14158   */\n      0x0100\n        /* \"#utility.yul\":14140:14159   */\n      dup15\n      add\n        /* \"#utility.yul\":14134:14160   */\n      mload\n        /* \"#utility.yul\":14252:14255   */\n      0x0120\n        /* \"#utility.yul\":14237:14256   */\n      dup16\n      add\n        /* \"#utility.yul\":14231:14257   */\n      mload\n        /* \"#utility.yul\":14029:14089   */\n      swap2\n      swap7\n      pop\n        /* \"#utility.yul\":14134:14160   */\n      swap5\n      pop\n        /* \"#utility.yul\":14231:14257   */\n      swap3\n      pop\n        /* \"#utility.yul\":14303:14353   */\n      tag_418\n        /* \"#utility.yul\":14348:14351   */\n      0x0140\n        /* \"#utility.yul\":14333:14352   */\n      dup15\n      add\n        /* \"#utility.yul\":14303:14353   */\n      tag_323\n      jump\t// in\n    tag_418:\n        /* \"#utility.yul\":14292:14353   */\n      swap2\n      pop\n        /* \"#utility.yul\":14373:14423   */\n      tag_419\n        /* \"#utility.yul\":14418:14421   */\n      0x0160\n        /* \"#utility.yul\":14407:14416   */\n      dup15\n        /* \"#utility.yul\":14403:14422   */\n      add\n        /* \"#utility.yul\":14373:14423   */\n      tag_323\n      jump\t// in\n    tag_419:\n        /* \"#utility.yul\":14362:14423   */\n      swap1\n      pop\n        /* \"#utility.yul\":13091:14429   */\n      swap3\n      swap6\n      swap9\n      swap12\n      pop\n      swap3\n      swap6\n      swap9\n      swap12\n      pop\n      swap3\n      swap6\n      swap9\n      swap12\n      jump\t// out\n        /* \"#utility.yul\":14790:14953   */\n    tag_324:\n        /* \"#utility.yul\":14868:14881   */\n      dup1\n      mload\n        /* \"#utility.yul\":14921:14927   */\n      0xffff\n        /* \"#utility.yul\":14910:14928   */\n      dup2\n      and\n        /* \"#utility.yul\":14900:14929   */\n      dup2\n      eq\n        /* \"#utility.yul\":14890:14947   */\n      tag_384\n      jumpi\n        /* \"#utility.yul\":14943:14944   */\n      0x00\n        /* \"#utility.yul\":14940:14941   */\n      0x00\n        /* \"#utility.yul\":14933:14945   */\n      revert\n        /* \"#utility.yul\":14958:15801   */\n    tag_204:\n        /* \"#utility.yul\":15072:15078   */\n      0x00\n        /* \"#utility.yul\":15080:15086   */\n      0x00\n        /* \"#utility.yul\":15088:15094   */\n      0x00\n        /* \"#utility.yul\":15096:15102   */\n      0x00\n        /* \"#utility.yul\":15104:15110   */\n      0x00\n        /* \"#utility.yul\":15112:15118   */\n      0x00\n        /* \"#utility.yul\":15120:15126   */\n      0x00\n        /* \"#utility.yul\":15173:15176   */\n      0xe0\n        /* \"#utility.yul\":15161:15170   */\n      dup9\n        /* \"#utility.yul\":15152:15159   */\n      dup11\n        /* \"#utility.yul\":15148:15171   */\n      sub\n        /* \"#utility.yul\":15144:15177   */\n      slt\n        /* \"#utility.yul\":15141:15194   */\n      iszero\n      tag_424\n      jumpi\n        /* \"#utility.yul\":15190:15191   */\n      0x00\n        /* \"#utility.yul\":15187:15188   */\n      0x00\n        /* \"#utility.yul\":15180:15192   */\n      revert\n        /* \"#utility.yul\":15141:15194   */\n    tag_424:\n        /* \"#utility.yul\":15222:15231   */\n      dup8\n        /* \"#utility.yul\":15216:15232   */\n      mload\n        /* \"#utility.yul\":15241:15272   */\n      tag_425\n        /* \"#utility.yul\":15266:15271   */\n      dup2\n        /* \"#utility.yul\":15241:15272   */\n      tag_314\n      jump\t// in\n    tag_425:\n        /* \"#utility.yul\":15291:15296   */\n      swap7\n      pop\n        /* \"#utility.yul\":15315:15362   */\n      tag_426\n        /* \"#utility.yul\":15358:15360   */\n      0x20\n        /* \"#utility.yul\":15343:15361   */\n      dup10\n      add\n        /* \"#utility.yul\":15315:15362   */\n      tag_322\n      jump\t// in\n    tag_426:\n        /* \"#utility.yul\":15305:15362   */\n      swap6\n      pop\n        /* \"#utility.yul\":15381:15429   */\n      tag_427\n        /* \"#utility.yul\":15425:15427   */\n      0x40\n        /* \"#utility.yul\":15414:15423   */\n      dup10\n        /* \"#utility.yul\":15410:15428   */\n      add\n        /* \"#utility.yul\":15381:15429   */\n      tag_324\n      jump\t// in\n    tag_427:\n        /* \"#utility.yul\":15371:15429   */\n      swap5\n      pop\n        /* \"#utility.yul\":15448:15496   */\n      tag_428\n        /* \"#utility.yul\":15492:15494   */\n      0x60\n        /* \"#utility.yul\":15481:15490   */\n      dup10\n        /* \"#utility.yul\":15477:15495   */\n      add\n        /* \"#utility.yul\":15448:15496   */\n      tag_324\n      jump\t// in\n    tag_428:\n        /* \"#utility.yul\":15438:15496   */\n      swap4\n      pop\n        /* \"#utility.yul\":15515:15564   */\n      tag_429\n        /* \"#utility.yul\":15559:15562   */\n      0x80\n        /* \"#utility.yul\":15548:15557   */\n      dup10\n        /* \"#utility.yul\":15544:15563   */\n      add\n        /* \"#utility.yul\":15515:15564   */\n      tag_324\n      jump\t// in\n    tag_429:\n        /* \"#utility.yul\":15505:15564   */\n      swap3\n      pop\n        /* \"#utility.yul\":15609:15612   */\n      0xa0\n        /* \"#utility.yul\":15598:15607   */\n      dup9\n        /* \"#utility.yul\":15594:15613   */\n      add\n        /* \"#utility.yul\":15588:15614   */\n      mload\n        /* \"#utility.yul\":15623:15654   */\n      tag_430\n        /* \"#utility.yul\":15646:15653   */\n      dup2\n        /* \"#utility.yul\":15623:15654   */\n      tag_315\n      jump\t// in\n    tag_430:\n        /* \"#utility.yul\":15725:15728   */\n      0xc0\n        /* \"#utility.yul\":15710:15729   */\n      dup10\n      add\n        /* \"#utility.yul\":15704:15730   */\n      mload\n        /* \"#utility.yul\":15673:15680   */\n      swap1\n      swap3\n      pop\n        /* \"#utility.yul\":15739:15769   */\n      tag_431\n        /* \"#utility.yul\":15704:15730   */\n      dup2\n        /* \"#utility.yul\":15739:15769   */\n      tag_316\n      jump\t// in\n    tag_431:\n        /* \"#utility.yul\":15788:15795   */\n      dup1\n        /* \"#utility.yul\":15778:15795   */\n      swap2\n      pop\n      pop\n        /* \"#utility.yul\":14958:15801   */\n      swap3\n      swap6\n      swap9\n      swap2\n      swap5\n      swap8\n      pop\n      swap3\n      swap6\n      pop\n      jump\t// out\n        /* \"#utility.yul\":15806:15933   */\n    tag_325:\n        /* \"#utility.yul\":15867:15877   */\n      0x4e487b71\n        /* \"#utility.yul\":15862:15865   */\n      0xe0\n        /* \"#utility.yul\":15858:15878   */\n      shl\n        /* \"#utility.yul\":15855:15856   */\n      0x00\n        /* \"#utility.yul\":15848:15879   */\n      mstore\n        /* \"#utility.yul\":15898:15902   */\n      0x41\n        /* \"#utility.yul\":15895:15896   */\n      0x04\n        /* \"#utility.yul\":15888:15903   */\n      mstore\n        /* \"#utility.yul\":15922:15926   */\n      0x24\n        /* \"#utility.yul\":15919:15920   */\n      0x00\n        /* \"#utility.yul\":15912:15927   */\n      revert\n        /* \"#utility.yul\":15938:16854   */\n    tag_221:\n        /* \"#utility.yul\":16018:16024   */\n      0x00\n        /* \"#utility.yul\":16071:16073   */\n      0x20\n        /* \"#utility.yul\":16059:16068   */\n      dup3\n        /* \"#utility.yul\":16050:16057   */\n      dup5\n        /* \"#utility.yul\":16046:16069   */\n      sub\n        /* \"#utility.yul\":16042:16074   */\n      slt\n        /* \"#utility.yul\":16039:16091   */\n      iszero\n      tag_434\n      jumpi\n        /* \"#utility.yul\":16087:16088   */\n      0x00\n        /* \"#utility.yul\":16084:16085   */\n      0x00\n        /* \"#utility.yul\":16077:16089   */\n      revert\n        /* \"#utility.yul\":16039:16091   */\n    tag_434:\n        /* \"#utility.yul\":16120:16129   */\n      dup2\n        /* \"#utility.yul\":16114:16130   */\n      mload\n        /* \"#utility.yul\":16153:16171   */\n      0xffffffffffffffff\n        /* \"#utility.yul\":16145:16151   */\n      dup2\n        /* \"#utility.yul\":16142:16172   */\n      gt\n        /* \"#utility.yul\":16139:16189   */\n      iszero\n      tag_435\n      jumpi\n        /* \"#utility.yul\":16185:16186   */\n      0x00\n        /* \"#utility.yul\":16182:16183   */\n      0x00\n        /* \"#utility.yul\":16175:16187   */\n      revert\n        /* \"#utility.yul\":16139:16189   */\n    tag_435:\n        /* \"#utility.yul\":16208:16230   */\n      dup3\n      add\n        /* \"#utility.yul\":16261:16265   */\n      0x1f\n        /* \"#utility.yul\":16253:16266   */\n      dup2\n      add\n        /* \"#utility.yul\":16249:16276   */\n      dup5\n      sgt\n        /* \"#utility.yul\":16239:16294   */\n      tag_436\n      jumpi\n        /* \"#utility.yul\":16290:16291   */\n      0x00\n        /* \"#utility.yul\":16287:16288   */\n      0x00\n        /* \"#utility.yul\":16280:16292   */\n      revert\n        /* \"#utility.yul\":16239:16294   */\n    tag_436:\n        /* \"#utility.yul\":16323:16325   */\n      dup1\n        /* \"#utility.yul\":16317:16326   */\n      mload\n        /* \"#utility.yul\":16349:16367   */\n      0xffffffffffffffff\n        /* \"#utility.yul\":16341:16347   */\n      dup2\n        /* \"#utility.yul\":16338:16368   */\n      gt\n        /* \"#utility.yul\":16335:16391   */\n      iszero\n      tag_438\n      jumpi\n        /* \"#utility.yul\":16371:16389   */\n      tag_438\n      tag_325\n      jump\t// in\n    tag_438:\n        /* \"#utility.yul\":16420:16422   */\n      0x40\n        /* \"#utility.yul\":16414:16423   */\n      mload\n        /* \"#utility.yul\":16512:16514   */\n      0x1f\n        /* \"#utility.yul\":16474:16491   */\n      dup3\n      add\n      not(0x1f)\n        /* \"#utility.yul\":16470:16501   */\n      swap1\n      dup2\n      and\n        /* \"#utility.yul\":16503:16505   */\n      0x3f\n        /* \"#utility.yul\":16466:16506   */\n      add\n        /* \"#utility.yul\":16462:16516   */\n      and\n        /* \"#utility.yul\":16450:16517   */\n      dup2\n      add\n        /* \"#utility.yul\":16547:16565   */\n      0xffffffffffffffff\n        /* \"#utility.yul\":16532:16566   */\n      dup2\n      gt\n        /* \"#utility.yul\":16568:16590   */\n      dup3\n      dup3\n      lt\n        /* \"#utility.yul\":16529:16591   */\n      or\n        /* \"#utility.yul\":16526:16614   */\n      iszero\n      tag_440\n      jumpi\n        /* \"#utility.yul\":16594:16612   */\n      tag_440\n      tag_325\n      jump\t// in\n    tag_440:\n        /* \"#utility.yul\":16630:16632   */\n      0x40\n        /* \"#utility.yul\":16623:16645   */\n      mstore\n        /* \"#utility.yul\":16654:16676   */\n      dup2\n      dup2\n      mstore\n        /* \"#utility.yul\":16695:16710   */\n      dup3\n      dup3\n      add\n        /* \"#utility.yul\":16712:16714   */\n      0x20\n        /* \"#utility.yul\":16691:16715   */\n      add\n        /* \"#utility.yul\":16688:16725   */\n      dup7\n      lt\n        /* \"#utility.yul\":16685:16742   */\n      iszero\n      tag_441\n      jumpi\n        /* \"#utility.yul\":16738:16739   */\n      0x00\n        /* \"#utility.yul\":16735:16736   */\n      0x00\n        /* \"#utility.yul\":16728:16740   */\n      revert\n        /* \"#utility.yul\":16685:16742   */\n    tag_441:\n        /* \"#utility.yul\":16751:16823   */\n      tag_442\n        /* \"#utility.yul\":16816:16822   */\n      dup3\n        /* \"#utility.yul\":16811:16813   */\n      0x20\n        /* \"#utility.yul\":16803:16809   */\n      dup4\n        /* \"#utility.yul\":16799:16814   */\n      add\n        /* \"#utility.yul\":16794:16796   */\n      0x20\n        /* \"#utility.yul\":16790:16792   */\n      dup7\n        /* \"#utility.yul\":16786:16797   */\n      add\n        /* \"#utility.yul\":16751:16823   */\n      tag_318\n      jump\t// in\n    tag_442:\n        /* \"#utility.yul\":16842:16848   */\n      swap6\n        /* \"#utility.yul\":15938:16854   */\n      swap5\n      pop\n      pop\n      pop\n      pop\n      pop\n      jump\t// out\n        /* \"#utility.yul\":17205:17389   */\n    tag_230:\n        /* \"#utility.yul\":17239:17242   */\n      0x00\n        /* \"#utility.yul\":17286:17291   */\n      dup2\n        /* \"#utility.yul\":17283:17284   */\n      0x02\n        /* \"#utility.yul\":17272:17292   */\n      signextend\n        /* \"#utility.yul\":17320:17327   */\n      0x7fffff\n        /* \"#utility.yul\":17316:17328   */\n      not\n        /* \"#utility.yul\":17307:17314   */\n      dup2\n        /* \"#utility.yul\":17304:17329   */\n      sub\n        /* \"#utility.yul\":17301:17352   */\n      tag_446\n      jumpi\n        /* \"#utility.yul\":17332:17350   */\n      tag_446\n      tag_317\n      jump\t// in\n    tag_446:\n        /* \"#utility.yul\":17372:17373   */\n      0x00\n        /* \"#utility.yul\":17368:17383   */\n      sub\n      swap3\n        /* \"#utility.yul\":17205:17389   */\n      swap2\n      pop\n      pop\n      jump\t// out\n        /* \"#utility.yul\":17394:17562   */\n    tag_233:\n        /* \"#utility.yul\":17467:17476   */\n      dup1\n      dup3\n      mul\n        /* \"#utility.yul\":17498:17507   */\n      dup2\n      iszero\n        /* \"#utility.yul\":17515:17530   */\n      dup3\n      dup3\n      div\n        /* \"#utility.yul\":17509:17531   */\n      dup5\n      eq\n        /* \"#utility.yul\":17495:17532   */\n      or\n        /* \"#utility.yul\":17485:17556   */\n      tag_220\n      jumpi\n        /* \"#utility.yul\":17536:17554   */\n      tag_220\n      tag_317\n      jump\t// in\n        /* \"#utility.yul\":18338:18713   */\n    tag_326:\n        /* \"#utility.yul\":18426:18427   */\n      0x01\n        /* \"#utility.yul\":18444:18449   */\n      dup2\n        /* \"#utility.yul\":18458:18707   */\n    tag_453:\n        /* \"#utility.yul\":18479:18480   */\n      0x01\n        /* \"#utility.yul\":18469:18477   */\n      dup5\n        /* \"#utility.yul\":18466:18481   */\n      gt\n        /* \"#utility.yul\":18458:18707   */\n      iszero\n      tag_455\n      jumpi\n        /* \"#utility.yul\":18529:18533   */\n      dup1\n        /* \"#utility.yul\":18524:18527   */\n      dup6\n        /* \"#utility.yul\":18520:18534   */\n      div\n        /* \"#utility.yul\":18514:18518   */\n      dup2\n        /* \"#utility.yul\":18511:18535   */\n      gt\n        /* \"#utility.yul\":18508:18558   */\n      iszero\n      tag_457\n      jumpi\n        /* \"#utility.yul\":18538:18556   */\n      tag_457\n      tag_317\n      jump\t// in\n    tag_457:\n        /* \"#utility.yul\":18588:18589   */\n      0x01\n        /* \"#utility.yul\":18578:18586   */\n      dup5\n        /* \"#utility.yul\":18574:18590   */\n      and\n        /* \"#utility.yul\":18571:18620   */\n      iszero\n      tag_458\n      jumpi\n        /* \"#utility.yul\":18602:18618   */\n      swap1\n      dup2\n      mul\n      swap1\n        /* \"#utility.yul\":18571:18620   */\n    tag_458:\n        /* \"#utility.yul\":18685:18686   */\n      0x01\n        /* \"#utility.yul\":18681:18697   */\n      swap4\n      swap1\n      swap4\n      shr\n      swap3\n        /* \"#utility.yul\":18641:18656   */\n      dup1\n      mul\n        /* \"#utility.yul\":18458:18707   */\n      jump(tag_453)\n    tag_455:\n        /* \"#utility.yul\":18338:18713   */\n      swap4\n      pop\n      swap4\n      swap2\n      pop\n      pop\n      jump\t// out\n        /* \"#utility.yul\":18718:19620   */\n    tag_327:\n        /* \"#utility.yul\":18767:18772   */\n      0x00\n        /* \"#utility.yul\":18797:18805   */\n      dup3\n        /* \"#utility.yul\":18787:18867   */\n      tag_460\n      jumpi\n      pop\n        /* \"#utility.yul\":18838:18839   */\n      0x01\n        /* \"#utility.yul\":18852:18857   */\n      jump(tag_220)\n        /* \"#utility.yul\":18787:18867   */\n    tag_460:\n        /* \"#utility.yul\":18886:18890   */\n      dup2\n        /* \"#utility.yul\":18876:18952   */\n      tag_461\n      jumpi\n      pop\n        /* \"#utility.yul\":18923:18924   */\n      0x00\n        /* \"#utility.yul\":18937:18942   */\n      jump(tag_220)\n        /* \"#utility.yul\":18876:18952   */\n    tag_461:\n        /* \"#utility.yul\":18968:18972   */\n      dup2\n        /* \"#utility.yul\":18986:18987   */\n      0x01\n        /* \"#utility.yul\":18981:19040   */\n      dup2\n      eq\n      tag_463\n      jumpi\n        /* \"#utility.yul\":19054:19055   */\n      0x02\n        /* \"#utility.yul\":19049:19223   */\n      dup2\n      eq\n      tag_464\n      jumpi\n        /* \"#utility.yul\":18961:19223   */\n      jump(tag_462)\n        /* \"#utility.yul\":18981:19040   */\n    tag_463:\n        /* \"#utility.yul\":19011:19012   */\n      0x01\n        /* \"#utility.yul\":19002:19012   */\n      swap2\n      pop\n        /* \"#utility.yul\":19025:19030   */\n      pop\n      jump(tag_220)\n        /* \"#utility.yul\":19049:19223   */\n    tag_464:\n        /* \"#utility.yul\":19086:19089   */\n      0xff\n        /* \"#utility.yul\":19076:19084   */\n      dup5\n        /* \"#utility.yul\":19073:19090   */\n      gt\n        /* \"#utility.yul\":19070:19113   */\n      iszero\n      tag_466\n      jumpi\n        /* \"#utility.yul\":19093:19111   */\n      tag_466\n      tag_317\n      jump\t// in\n    tag_466:\n      pop\n      pop\n        /* \"#utility.yul\":19149:19150   */\n      0x01\n        /* \"#utility.yul\":19135:19151   */\n      dup3\n      shl\n        /* \"#utility.yul\":19208:19213   */\n      jump(tag_220)\n        /* \"#utility.yul\":18961:19223   */\n    tag_462:\n      pop\n        /* \"#utility.yul\":19307:19309   */\n      0x20\n        /* \"#utility.yul\":19297:19305   */\n      dup4\n        /* \"#utility.yul\":19294:19310   */\n      lt\n        /* \"#utility.yul\":19288:19291   */\n      0x0133\n        /* \"#utility.yul\":19282:19286   */\n      dup4\n        /* \"#utility.yul\":19279:19292   */\n      lt\n        /* \"#utility.yul\":19275:19311   */\n      and\n        /* \"#utility.yul\":19269:19271   */\n      0x4e\n        /* \"#utility.yul\":19259:19267   */\n      dup5\n        /* \"#utility.yul\":19256:19272   */\n      lt\n        /* \"#utility.yul\":19251:19253   */\n      0x0b\n        /* \"#utility.yul\":19245:19249   */\n      dup5\n        /* \"#utility.yul\":19242:19254   */\n      lt\n        /* \"#utility.yul\":19238:19273   */\n      and\n        /* \"#utility.yul\":19235:19312   */\n      or\n        /* \"#utility.yul\":19232:19435   */\n      iszero\n      tag_467\n      jumpi\n      pop\n        /* \"#utility.yul\":19344:19363   */\n      dup2\n      dup2\n      exp\n        /* \"#utility.yul\":19420:19425   */\n      jump(tag_220)\n        /* \"#utility.yul\":19232:19435   */\n    tag_467:\n        /* \"#utility.yul\":19467:19509   */\n      tag_468\n      not(0x00)\n        /* \"#utility.yul\":19492:19500   */\n      dup5\n        /* \"#utility.yul\":19486:19490   */\n      dup5\n        /* \"#utility.yul\":19467:19509   */\n      tag_326\n      jump\t// in\n    tag_468:\n        /* \"#utility.yul\":19545:19551   */\n      dup1\n        /* \"#utility.yul\":19541:19542   */\n      0x00\n        /* \"#utility.yul\":19537:19543   */\n      not\n        /* \"#utility.yul\":19533:19552   */\n      div\n        /* \"#utility.yul\":19524:19531   */\n      dup3\n        /* \"#utility.yul\":19521:19553   */\n      gt\n        /* \"#utility.yul\":19518:19576   */\n      iszero\n      tag_470\n      jumpi\n        /* \"#utility.yul\":19556:19574   */\n      tag_470\n      tag_317\n      jump\t// in\n    tag_470:\n        /* \"#utility.yul\":19594:19614   */\n      mul\n      swap4\n        /* \"#utility.yul\":18718:19620   */\n      swap3\n      pop\n      pop\n      pop\n      jump\t// out\n        /* \"#utility.yul\":19625:19765   */\n    tag_297:\n        /* \"#utility.yul\":19683:19688   */\n      0x00\n        /* \"#utility.yul\":19712:19759   */\n      tag_212\n        /* \"#utility.yul\":19753:19757   */\n      0xff\n        /* \"#utility.yul\":19743:19751   */\n      dup5\n        /* \"#utility.yul\":19739:19758   */\n      and\n        /* \"#utility.yul\":19733:19737   */\n      dup4\n        /* \"#utility.yul\":19712:19759   */\n      tag_327\n      jump\t// in\n    stop\n    data_3e1e6533146503ddcd57727c5002d69321677d0539df318ad90f03963b3c334f 4f7261636c654d616e616765723a2063616c6c20726576657274656420772f6f206d7367\n\n    auxdata: 0xa26469706673582212203cf387091b36c8ce987cdee3fb289ea4d9e0d4e66f345e8a87ab8f4cec6f8de464736f6c634300081c0033\n}\n",
				"bytecode": {
					"linkReferences": {},
					"object": "608060405234801561000f575f5ffd5b5060405161228a38038061228a83398101604081905261002e916100ef565b610037336100a0565b6001600160a01b0381166100915760405162461bcd60e51b815260206004820152601c60248201527f4f7261636c654d616e616765723a20696e76616c6964206f776e657200000000604482015260640160405180910390fd5b61009a816100a0565b5061011c565b5f80546001600160a01b038381166001600160a01b0319831681178455604051919092169283917f8be0079c531659141344cd1fd0a4f28419497f9722a3daafe3b4186f6b6457e09190a35050565b5f602082840312156100ff575f5ffd5b81516001600160a01b0381168114610115575f5ffd5b9392505050565b612161806101295f395ff3fe608060405234801561000f575f5ffd5b5060043610610085575f3560e01c80638da5cb5b116100585780638da5cb5b146101e25780639b05fc75146101fc578063f2ac1ec51461020f578063f2fde38b14610222575f5ffd5b8063067a4b061461008957806341976e091461011f578063715018a6146101495780637f4a310214610153575b5f5ffd5b6100dd610097366004611abf565b600160208190525f918252604090912080549101546001600160a01b039182169181169060ff600160a01b8204811691600160a81b8104821691600160b01b9091041685565b604080516001600160a01b0396871681529590941660208601529115159284019290925260ff90911660608301521515608082015260a0015b60405180910390f35b61013261012d366004611abf565b610235565b6040805192835260ff909116602083015201610116565b61015161040d565b005b6101a7610161366004611abf565b60026020525f9081526040902080546001909101546001600160a01b039182169181169060ff600160a01b8204811691600160a81b8104821691600160b01b9091041685565b604080516001600160a01b03968716815295909416602086015260ff928316938501939093521660608301521515608082015260a001610116565b5f546040516001600160a01b039091168152602001610116565b61015161020a366004611ae8565b610420565b61015161021d366004611b62565b6105b4565b610151610230366004611abf565b6107c3565b6001600160a01b038082165f908152600160208181526040808420815160a0810183528154871680825291909401549586169284019290925260ff600160a01b86048116151591840191909152600160a81b850481166060840152600160b01b9094049093161515608082015290918291901515806102b5575080608001515b6103175760405162461bcd60e51b815260206004820152602860248201527f4f7261636c654d616e616765723a206e6f2061676772656761746f722f7661756044820152676c74206c6f67696360c01b60648201526084015b60405180910390fd5b8060800151610333576103298161083c565b9093509150610407565b6001600160a01b038085165f90815260026020908152604091829020825160a0810184528154851681526001909101549384169181019190915260ff600160a01b8404811692820192909252600160a81b830482166060820152600160b01b909204161515608082018190526103f65760405162461bcd60e51b815260206004820152602260248201527f4f7261636c654d616e616765723a207661756c74206665656473206e6f742073604482015261195d60f21b606482015260840161030e565b6104008582610971565b9094509250505b50915091565b610415610ae1565b61041e5f610b3a565b565b610428610ae1565b6001600160a01b0385166104885760405162461bcd60e51b815260206004820152602160248201527f4f7261636c654d616e616765723a20696e76616c6964207661756c74546f6b656044820152603760f91b606482015260840161030e565b6040805160a0810182526001600160a01b038087168252858116602080840191825260ff808816858701908152878216606087019081526001608088018181528e88165f8181526002909752958a9020985189549089166001600160a01b03199091161789559551970180549251915195511515600160b01b0260ff60b01b19968516600160a81b029690961661ffff60a81b1992909416600160a01b026001600160a81b0319909316979096169690961717949094169390931717905590517f2fb5936f285b062770ba9aa206ca7282ebb8f84ad2eda1c664b3059e9c62c1ba906105a59087908790879087906001600160a01b03948516815292909316602083015260ff908116604083015291909116606082015260800190565b60405180910390a25050505050565b6105bc610ae1565b6001600160a01b0386166106125760405162461bcd60e51b815260206004820152601c60248201527f4f7261636c654d616e616765723a20696e76616c696420746f6b656e00000000604482015260640161030e565b80610686576001600160a01b0385166106865760405162461bcd60e51b815260206004820152603060248201527f4f7261636c654d616e616765723a2061676772656761746f722072657175697260448201526f195908199bdc881b9bdb8b5d985d5b1d60821b606482015260840161030e565b6040805160a0810182526001600160a01b038088168252868116602080840191825287151584860190815260ff80891660608701908152881515608088019081528e87165f8181526001968790528a9020985189549089166001600160a01b031990911617895595519790940180549351915194511515600160b01b0260ff60b01b1995909316600160a81b029490941661ffff60a81b19911515600160a01b026001600160a81b0319909416979096169690961791909117949094169290921792909217905590517f5be58a9eef853f8ae7393174434d0be93daad7445510f6ce6e914b2f297885b8906107b390889088908890889088906001600160a01b039586168152939094166020840152901515604083015260ff166060820152901515608082015260a00190565b60405180910390a2505050505050565b6107cb610ae1565b6001600160a01b0381166108305760405162461bcd60e51b815260206004820152602660248201527f4f776e61626c653a206e6577206f776e657220697320746865207a65726f206160448201526564647265737360d01b606482015260840161030e565b61083981610b3a565b50565b5f5f5f5f5f610852865f01518760600151610b89565b92509250925082158015610867575085604001515b801561087f575060208601516001600160a01b031615155b1561090a575f5f5f61089989602001518a60600151610b89565b925092509250826108fc5760405162461bcd60e51b815260206004820152602760248201527f4f7261636c654d616e616765723a2066616c6c6261636b2061676772656761746044820152661bdc8819985a5b60ca1b606482015260840161030e565b909890975095505050505050565b826109665760405162461bcd60e51b815260206004820152602660248201527f4f7261636c654d616e616765723a207072696d6172792061676772656761746f6044820152651c8819985a5b60d21b606482015260840161030e565b909590945092505050565b5f5f5f5f5f61097f87610d69565b9250925092505f6109908284610fa8565b90505f5f6109fc8a6001600160a01b0316633a924d5b6040518163ffffffff1660e01b8152600401602060405180830381865afa1580156109d3573d5f5f3e3d5ffd5b505050506040513d601f19601f820116820180604052508101906109f79190611be0565b611196565b915091505f5f610a1a848660400151876060015188608001516112c1565b915091505f8560a001516001600160801b031683610a389190611c0f565b90505f8660c001516001600160801b031683610a549190611c0f565b90505f60405180608001604052808f5f01516001600160a01b031681526020018f602001516001600160a01b031681526020018f6040015160ff1681526020018f6060015160ff1681525090505f610aad848484611312565b90508b15610abb578b610abe565b60015b610ac89082611c36565b9d5060089c505050505050505050505050509250929050565b5f546001600160a01b0316331461041e5760405162461bcd60e51b815260206004820181905260248201527f4f776e61626c653a2063616c6c6572206973206e6f7420746865206f776e6572604482015260640161030e565b5f80546001600160a01b038381166001600160a01b0319831681178455604051919092169283917f8be0079c531659141344cd1fd0a4f28419497f9722a3daafe3b4186f6b6457e09190a35050565b5f80806001600160a01b038516610ba757505f915081905080610d62565b60408051600481526024810182526020810180516001600160e01b0316633fabe5a360e21b17905290515f9081906001600160a01b03891690610beb908590611c77565b5f60405180830381855afa9150503d805f8114610c23576040519150601f19603f3d011682016040523d82523d5f602084013e610c28565b606091505b5091509150811580610c3b575060a08151105b15610c51575f5f5f955095509550505050610d62565b5f81806020019051810190610c669190611cb0565b5050509150505f8113610c85575f5f5f96509650965050505050610d62565b8760ff81165f03610d555760408051600481526024810182526020810180516001600160e01b031663313ce56760e01b17905290515f9182916001600160a01b038e1691610cd291611c77565b5f60405180830381855afa9150503d805f8114610d0a576040519150601f19603f3d011682016040523d82523d5f602084013e610d0f565b606091505b5091509150811580610d22575060208151105b15610d3c575f5f5f99509950995050505050505050610d62565b80806020019051810190610d509190611cfe565b925050505b6001975090955093505050505b9250925092565b5f5f5f5f849050806001600160a01b03166318160ddd6040518163ffffffff1660e01b8152600401602060405180830381865afa158015610dac573d5f5f3e3d5ffd5b505050506040513d601f19601f82011682018060405250810190610dd09190611d19565b93505f8411610e2c5760405162461bcd60e51b815260206004820152602260248201527f4f7261636c654d616e616765723a207661756c7420746f74616c537570706c7960448201526103d360f41b606482015260840161030e565b806001600160a01b031663f657a7fe6040518163ffffffff1660e01b8152600401602060405180830381865afa158015610e68573d5f5f3e3d5ffd5b505050506040513d601f19601f82011682018060405250810190610e8c9190611d19565b9250825f03610edd5760405162461bcd60e51b815260206004820152601e60248201527f4f7261636c654d616e616765723a206e6f204e465420696e207661756c740000604482015260640161030e565b806001600160a01b031663791b98bc6040518163ffffffff1660e01b8152600401602060405180830381865afa158015610f19573d5f5f3e3d5ffd5b505050506040513d601f19601f82011682018060405250810190610f3d9190611be0565b91506001600160a01b038216610fa05760405162461bcd60e51b815260206004820152602260248201527f4f7261636c654d616e616765723a20696e76616c696420706f736974696f6e4d60448201526133b960f11b606482015260840161030e565b509193909250565b6040805160e0810182525f80825260208201819052918101829052606081018290526080810182905260a0810182905260c08101919091525f5f846001600160a01b03166399fbab8860e01b8560405160240161100791815260200190565b60408051601f198184030181529181526020820180516001600160e01b03166001600160e01b03199094169390931790925290516110459190611c77565b5f60405180830381855afa9150503d805f811461107d576040519150601f19603f3d011682016040523d82523d5f602084013e611082565b606091505b50915091508161109182611354565b906110af5760405162461bcd60e51b815260040161030e9190611d30565b50808060200190518101906110c49190611da6565b909192939495969798999a509091929394959697989950909192939495965090919250909150895f018a6020018b6040018c6060018d6080018e60a0018f60c001876001600160801b03166001600160801b0316815250876001600160801b03166001600160801b0316815250876001600160801b03166001600160801b03168152508760020b60020b8152508760020b60020b815250876001600160a01b03166001600160a01b0316815250876001600160a01b03166001600160a01b031681525050505050505050505092915050565b5f806001600160a01b0383166111ee5760405162461bcd60e51b815260206004820152601b60248201527f4f7261636c654d616e616765723a20696e76616c696420706f6f6c0000000000604482015260640161030e565b60408051600481526024810182526020810180516001600160e01b0316633850c7bd60e01b17905290515f9182916001600160a01b0387169161123091611c77565b5f60405180830381855afa9150503d805f8114611268576040519150601f19603f3d011682016040523d82523d5f602084013e61126d565b606091505b50915091508161127c82611354565b9061129a5760405162461bcd60e51b815260040161030e9190611d30565b50808060200190518101906112af9190611e91565b50949a93995092975050505050505050565b5f5f826001600160801b03165f036112dd57505f905080611309565b5f6112e78661139f565b90505f6112f38661139f565b9050611301888383886117ea565b909450925050505b94509492505050565b5f5f61132685845f01518560400151611884565b90505f61133c8585602001518660600151611884565b90506113488183611c0f565b925050505b9392505050565b606060448251101561137f576040518060600160405280602481526020016121086024913992915050565b600482019150818060200190518101906113999190611f2f565b92915050565b5f620d89e719600283900b128015906113bf5750620d89e8600283900b13155b6113ff5760405162461bcd60e51b81526020600482015260116024820152705469636b206f7574206f662072616e676560781b604482015260640161030e565b5f5f8360020b12611415578262ffffff16611424565b61141e83611fdf565b62ffffff165b9050600160801b6001821615611455576080611450826ffffcb933bd6fad37aa2d162d1a594001611fff565b901c90505b600282161561147f57608061147a826ffff97272373d413259a46990580e213a611fff565b901c90505b60048216156114a95760806114a4826ffff2e50f5f656932ef12357cf3c7fdcc611fff565b901c90505b60088216156114d35760806114ce826fffe5caca7e10e4e61c3624eaa0941cd0611fff565b901c90505b60108216156114fd5760806114f8826fffcb9843d60f6159c9db58835c926644611fff565b901c90505b6020821615611527576080611522826fff973b41fa98c081472e6896dfb254c0611fff565b901c90505b604082161561155157608061154c826fff2ea16466c96a3843ec78b326b52861611fff565b901c90505b608082161561157b576080611576826ffe5dee046a99a2a811c461f1969c3053611fff565b901c90505b6101008216156115a65760806115a1826ffcbe86c7900a88aedcffc83b479aa3a4611fff565b901c90505b6102008216156115d15760806115cc826ff987a7253ac413176f2b074cf7815e54611fff565b901c90505b6104008216156115fc5760806115f7826ff3392b0822b70005940c7a398e4b70f3611fff565b901c90505b610800821615611627576080611622826fe7159475a2c29b7443b29c7fa6e889d9611fff565b901c90505b61100082161561165257608061164d826fd097f3bdfd2022b8845ad8f792aa5825611fff565b901c90505b61200082161561167d576080611678826fa9f746462d870fdf8a65dc1f90e061e5611fff565b901c90505b6140008216156116a85760806116a3826f70d869a156d2a1f6a7a2e3fadacb4c9b611fff565b901c90505b6180008216156116d35760806116ce826f31be135f97d08fd981231505542fcfa6611fff565b901c90505b620100008216156116ff5760806116fa826f09aa508b5b7a84e1c677de54f3e99bc9611fff565b901c90505b6202000082161561172a576080611725826e5d6af8dedb81196699c329225ee604611fff565b901c90505b6204000082161561175457608061174f826d2216e584f5fa1ea926041bedfe98611fff565b901c90505b6208000082161561177c576080611777826b048a170391f7dc42444e8fa2611fff565b901c90505b5f8460020b131561179557611792815f19611c36565b90505b602081901c6001600160a01b038111156117e25760405162461bcd60e51b815260206004820152600e60248201526d5072696365206f766572666c6f7760901b604482015260640161030e565b949350505050565b5f5f836001600160a01b0316856001600160a01b0316111561180a579293925b846001600160a01b0316866001600160a01b0316116118355761182e858585611955565b9150611309565b836001600160a01b0316866001600160a01b0316101561186e5761185a868585611955565b91506118678587856119c3565b9050611309565b6118798585856119c3565b905094509492505050565b5f83158061189957506001600160a01b038316155b156118a557505f61134d565b5f5f5f6118b28686610b89565b9250925092508261192b5760405162461bcd60e51b815260206004820152603b60248201527f4f7261636c654d616e616765723a2061676772656761746f72206661696c206960448201527f6e205f636f6e76657274546f41676772656761746f7256616c75650000000000606482015260840161030e565b61193681600a6120f9565b6119408389611fff565b61194a9190611c36565b979650505050505050565b5f826001600160a01b0316846001600160a01b03161115611974579192915b836001600160a01b03166119ad606060ff16846001600160801b0316901b8686036001600160a01b0316866001600160a01b0316611a01565b816119ba576119ba611c22565b04949350505050565b5f826001600160a01b0316846001600160a01b031611156119e2579192915b6117e2826001600160801b03168585036001600160a01b0316600160601b5b5f80805f19858709858702925082811083820303915050805f03611a35575f8411611a2a575f5ffd5b50829004905061134d565b808411611a40575f5ffd5b5f848688095f868103871696879004966002600389028118808a02820302808a02820302808a02820302808a02820302808a02820302808a02909103029181900381900460010186841190950394909402919094039290920491909117919091029150509392505050565b6001600160a01b0381168114610839575f5ffd5b5f60208284031215611acf575f5ffd5b813561134d81611aab565b60ff81168114610839575f5ffd5b5f5f5f5f5f60a08688031215611afc575f5ffd5b8535611b0781611aab565b94506020860135611b1781611aab565b93506040860135611b2781611aab565b92506060860135611b3781611ada565b91506080860135611b4781611ada565b809150509295509295909350565b8015158114610839575f5ffd5b5f5f5f5f5f5f60c08789031215611b77575f5ffd5b8635611b8281611aab565b95506020870135611b9281611aab565b94506040870135611ba281611aab565b93506060870135611bb281611b55565b92506080870135611bc281611ada565b915060a0870135611bd281611b55565b809150509295509295509295565b5f60208284031215611bf0575f5ffd5b815161134d81611aab565b634e487b7160e01b5f52601160045260245ffd5b8082018082111561139957611399611bfb565b634e487b7160e01b5f52601260045260245ffd5b5f82611c5057634e487b7160e01b5f52601260045260245ffd5b500490565b5f5b83811015611c6f578181015183820152602001611c57565b50505f910152565b5f8251611c88818460208701611c55565b9190910192915050565b805169ffffffffffffffffffff81168114611cab575f5ffd5b919050565b5f5f5f5f5f60a08688031215611cc4575f5ffd5b611ccd86611c92565b60208701516040880151606089015192975090955093509150611cf260808701611c92565b90509295509295909350565b5f60208284031215611d0e575f5ffd5b815161134d81611ada565b5f60208284031215611d29575f5ffd5b5051919050565b602081525f8251806020840152611d4e816040850160208701611c55565b601f01601f19169190910160400192915050565b8051611cab81611aab565b805162ffffff81168114611cab575f5ffd5b8051600281900b8114611cab575f5ffd5b80516001600160801b0381168114611cab575f5ffd5b5f5f5f5f5f5f5f5f5f5f5f5f6101808d8f031215611dc2575f5ffd5b8c516bffffffffffffffffffffffff81168114611ddd575f5ffd5b9b50611deb60208e01611d62565b9a50611df960408e01611d62565b9950611e0760608e01611d62565b9850611e1560808e01611d6d565b9750611e2360a08e01611d7f565b9650611e3160c08e01611d7f565b9550611e3f60e08e01611d90565b6101008e01516101208f015191965094509250611e5f6101408e01611d90565b9150611e6e6101608e01611d90565b90509295989b509295989b509295989b565b805161ffff81168114611cab575f5ffd5b5f5f5f5f5f5f5f60e0888a031215611ea7575f5ffd5b8751611eb281611aab565b9650611ec060208901611d7f565b9550611ece60408901611e80565b9450611edc60608901611e80565b9350611eea60808901611e80565b925060a0880151611efa81611ada565b60c0890151909250611f0b81611b55565b8091505092959891949750929550565b634e487b7160e01b5f52604160045260245ffd5b5f60208284031215611f3f575f5ffd5b815167ffffffffffffffff811115611f55575f5ffd5b8201601f81018413611f65575f5ffd5b805167ffffffffffffffff811115611f7f57611f7f611f1b565b604051601f8201601f19908116603f0116810167ffffffffffffffff81118282101715611fae57611fae611f1b565b604052818152828201602001861015611fc5575f5ffd5b611fd6826020830160208601611c55565b95945050505050565b5f8160020b627fffff198103611ff757611ff7611bfb565b5f0392915050565b808202811582820484141761139957611399611bfb565b6001815b60018411156120515780850481111561203557612035611bfb565b600184161561204357908102905b60019390931c92800261201a565b935093915050565b5f8261206757506001611399565b8161207357505f611399565b81600181146120895760028114612093576120af565b6001915050611399565b60ff8411156120a4576120a4611bfb565b50506001821b611399565b5060208310610133831016604e8410600b84101617156120d2575081810a611399565b6120de5f198484612016565b805f19048211156120f1576120f1611bfb565b029392505050565b5f61134d60ff84168361205956fe4f7261636c654d616e616765723a2063616c6c20726576657274656420772f6f206d7367a26469706673582212203cf387091b36c8ce987cdee3fb289ea4d9e0d4e66f345e8a87ab8f4cec6f8de464736f6c634300081c0033",
					"opcodes": "PUSH1 0x80 PUSH1 0x40 MSTORE CALLVALUE DUP1 ISZERO PUSH2 0xF JUMPI PUSH0 PUSH0 REVERT JUMPDEST POP PUSH1 0x40 MLOAD PUSH2 0x228A CODESIZE SUB DUP1 PUSH2 0x228A DUP4 CODECOPY DUP2 ADD PUSH1 0x40 DUP2 SWAP1 MSTORE PUSH2 0x2E SWAP2 PUSH2 0xEF JUMP JUMPDEST PUSH2 0x37 CALLER PUSH2 0xA0 JUMP JUMPDEST PUSH1 0x1 PUSH1 0x1 PUSH1 0xA0 SHL SUB DUP2 AND PUSH2 0x91 JUMPI PUSH1 0x40 MLOAD PUSH3 0x461BCD PUSH1 0xE5 SHL DUP2 MSTORE PUSH1 0x20 PUSH1 0x4 DUP3 ADD MSTORE PUSH1 0x1C PUSH1 0x24 DUP3 ADD MSTORE PUSH32 0x4F7261636C654D616E616765723A20696E76616C6964206F776E657200000000 PUSH1 0x44 DUP3 ADD MSTORE PUSH1 0x64 ADD PUSH1 0x40 MLOAD DUP1 SWAP2 SUB SWAP1 REVERT JUMPDEST PUSH2 0x9A DUP2 PUSH2 0xA0 JUMP JUMPDEST POP PUSH2 0x11C JUMP JUMPDEST PUSH0 DUP1 SLOAD PUSH1 0x1 PUSH1 0x1 PUSH1 0xA0 SHL SUB DUP4 DUP2 AND PUSH1 0x1 PUSH1 0x1 PUSH1 0xA0 SHL SUB NOT DUP4 AND DUP2 OR DUP5 SSTORE PUSH1 0x40 MLOAD SWAP2 SWAP1 SWAP3 AND SWAP3 DUP4 SWAP2 PUSH32 0x8BE0079C531659141344CD1FD0A4F28419497F9722A3DAAFE3B4186F6B6457E0 SWAP2 SWAP1 LOG3 POP POP JUMP JUMPDEST PUSH0 PUSH1 0x20 DUP3 DUP5 SUB SLT ISZERO PUSH2 0xFF JUMPI PUSH0 PUSH0 REVERT JUMPDEST DUP2 MLOAD PUSH1 0x1 PUSH1 0x1 PUSH1 0xA0 SHL SUB DUP2 AND DUP2 EQ PUSH2 0x115 JUMPI PUSH0 PUSH0 REVERT JUMPDEST SWAP4 SWAP3 POP POP POP JUMP JUMPDEST PUSH2 0x2161 DUP1 PUSH2 0x129 PUSH0 CODECOPY PUSH0 RETURN INVALID PUSH1 0x80 PUSH1 0x40 MSTORE CALLVALUE DUP1 ISZERO PUSH2 0xF JUMPI PUSH0 PUSH0 REVERT JUMPDEST POP PUSH1 0x4 CALLDATASIZE LT PUSH2 0x85 JUMPI PUSH0 CALLDATALOAD PUSH1 0xE0 SHR DUP1 PUSH4 0x8DA5CB5B GT PUSH2 0x58 JUMPI DUP1 PUSH4 0x8DA5CB5B EQ PUSH2 0x1E2 JUMPI DUP1 PUSH4 0x9B05FC75 EQ PUSH2 0x1FC JUMPI DUP1 PUSH4 0xF2AC1EC5 EQ PUSH2 0x20F JUMPI DUP1 PUSH4 0xF2FDE38B EQ PUSH2 0x222 JUMPI PUSH0 PUSH0 REVERT JUMPDEST DUP1 PUSH4 0x67A4B06 EQ PUSH2 0x89 JUMPI DUP1 PUSH4 0x41976E09 EQ PUSH2 0x11F JUMPI DUP1 PUSH4 0x715018A6 EQ PUSH2 0x149 JUMPI DUP1 PUSH4 0x7F4A3102 EQ PUSH2 0x153 JUMPI JUMPDEST PUSH0 PUSH0 REVERT JUMPDEST PUSH2 0xDD PUSH2 0x97 CALLDATASIZE PUSH1 0x4 PUSH2 0x1ABF JUMP JUMPDEST PUSH1 0x1 PUSH1 0x20 DUP2 SWAP1 MSTORE PUSH0 SWAP2 DUP3 MSTORE PUSH1 0x40 SWAP1 SWAP2 KECCAK256 DUP1 SLOAD SWAP2 ADD SLOAD PUSH1 0x1 PUSH1 0x1 PUSH1 0xA0 SHL SUB SWAP2 DUP3 AND SWAP2 DUP2 AND SWAP1 PUSH1 0xFF PUSH1 0x1 PUSH1 0xA0 SHL DUP3 DIV DUP2 AND SWAP2 PUSH1 0x1 PUSH1 0xA8 SHL DUP2 DIV DUP3 AND SWAP2 PUSH1 0x1 PUSH1 0xB0 SHL SWAP1 SWAP2 DIV AND DUP6 JUMP JUMPDEST PUSH1 0x40 DUP1 MLOAD PUSH1 0x1 PUSH1 0x1 PUSH1 0xA0 SHL SUB SWAP7 DUP8 AND DUP2 MSTORE SWAP6 SWAP1 SWAP5 AND PUSH1 0x20 DUP7 ADD MSTORE SWAP2 ISZERO ISZERO SWAP3 DUP5 ADD SWAP3 SWAP1 SWAP3 MSTORE PUSH1 0xFF SWAP1 SWAP2 AND PUSH1 0x60 DUP4 ADD MSTORE ISZERO ISZERO PUSH1 0x80 DUP3 ADD MSTORE PUSH1 0xA0 ADD JUMPDEST PUSH1 0x40 MLOAD DUP1 SWAP2 SUB SWAP1 RETURN JUMPDEST PUSH2 0x132 PUSH2 0x12D CALLDATASIZE PUSH1 0x4 PUSH2 0x1ABF JUMP JUMPDEST PUSH2 0x235 JUMP JUMPDEST PUSH1 0x40 DUP1 MLOAD SWAP3 DUP4 MSTORE PUSH1 0xFF SWAP1 SWAP2 AND PUSH1 0x20 DUP4 ADD MSTORE ADD PUSH2 0x116 JUMP JUMPDEST PUSH2 0x151 PUSH2 0x40D JUMP JUMPDEST STOP JUMPDEST PUSH2 0x1A7 PUSH2 0x161 CALLDATASIZE PUSH1 0x4 PUSH2 0x1ABF JUMP JUMPDEST PUSH1 0x2 PUSH1 0x20 MSTORE PUSH0 SWAP1 DUP2 MSTORE PUSH1 0x40 SWAP1 KECCAK256 DUP1 SLOAD PUSH1 0x1 SWAP1 SWAP2 ADD SLOAD PUSH1 0x1 PUSH1 0x1 PUSH1 0xA0 SHL SUB SWAP2 DUP3 AND SWAP2 DUP2 AND SWAP1 PUSH1 0xFF PUSH1 0x1 PUSH1 0xA0 SHL DUP3 DIV DUP2 AND SWAP2 PUSH1 0x1 PUSH1 0xA8 SHL DUP2 DIV DUP3 AND SWAP2 PUSH1 0x1 PUSH1 0xB0 SHL SWAP1 SWAP2 DIV AND DUP6 JUMP JUMPDEST PUSH1 0x40 DUP1 MLOAD PUSH1 0x1 PUSH1 0x1 PUSH1 0xA0 SHL SUB SWAP7 DUP8 AND DUP2 MSTORE SWAP6 SWAP1 SWAP5 AND PUSH1 0x20 DUP7 ADD MSTORE PUSH1 0xFF SWAP3 DUP4 AND SWAP4 DUP6 ADD SWAP4 SWAP1 SWAP4 MSTORE AND PUSH1 0x60 DUP4 ADD MSTORE ISZERO ISZERO PUSH1 0x80 DUP3 ADD MSTORE PUSH1 0xA0 ADD PUSH2 0x116 JUMP JUMPDEST PUSH0 SLOAD PUSH1 0x40 MLOAD PUSH1 0x1 PUSH1 0x1 PUSH1 0xA0 SHL SUB SWAP1 SWAP2 AND DUP2 MSTORE PUSH1 0x20 ADD PUSH2 0x116 JUMP JUMPDEST PUSH2 0x151 PUSH2 0x20A CALLDATASIZE PUSH1 0x4 PUSH2 0x1AE8 JUMP JUMPDEST PUSH2 0x420 JUMP JUMPDEST PUSH2 0x151 PUSH2 0x21D CALLDATASIZE PUSH1 0x4 PUSH2 0x1B62 JUMP JUMPDEST PUSH2 0x5B4 JUMP JUMPDEST PUSH2 0x151 PUSH2 0x230 CALLDATASIZE PUSH1 0x4 PUSH2 0x1ABF JUMP JUMPDEST PUSH2 0x7C3 JUMP JUMPDEST PUSH1 0x1 PUSH1 0x1 PUSH1 0xA0 SHL SUB DUP1 DUP3 AND PUSH0 SWAP1 DUP2 MSTORE PUSH1 0x1 PUSH1 0x20 DUP2 DUP2 MSTORE PUSH1 0x40 DUP1 DUP5 KECCAK256 DUP2 MLOAD PUSH1 0xA0 DUP2 ADD DUP4 MSTORE DUP2 SLOAD DUP8 AND DUP1 DUP3 MSTORE SWAP2 SWAP1 SWAP5 ADD SLOAD SWAP6 DUP7 AND SWAP3 DUP5 ADD SWAP3 SWAP1 SWAP3 MSTORE PUSH1 0xFF PUSH1 0x1 PUSH1 0xA0 SHL DUP7 DIV DUP2 AND ISZERO ISZERO SWAP2 DUP5 ADD SWAP2 SWAP1 SWAP2 MSTORE PUSH1 0x1 PUSH1 0xA8 SHL DUP6 DIV DUP2 AND PUSH1 0x60 DUP5 ADD MSTORE PUSH1 0x1 PUSH1 0xB0 SHL SWAP1 SWAP5 DIV SWAP1 SWAP4 AND ISZERO ISZERO PUSH1 0x80 DUP3 ADD MSTORE SWAP1 SWAP2 DUP3 SWAP2 SWAP1 ISZERO ISZERO DUP1 PUSH2 0x2B5 JUMPI POP DUP1 PUSH1 0x80 ADD MLOAD JUMPDEST PUSH2 0x317 JUMPI PUSH1 0x40 MLOAD PUSH3 0x461BCD PUSH1 0xE5 SHL DUP2 MSTORE PUSH1 0x20 PUSH1 0x4 DUP3 ADD MSTORE PUSH1 0x28 PUSH1 0x24 DUP3 ADD MSTORE PUSH32 0x4F7261636C654D616E616765723A206E6F2061676772656761746F722F766175 PUSH1 0x44 DUP3 ADD MSTORE PUSH8 0x6C74206C6F676963 PUSH1 0xC0 SHL PUSH1 0x64 DUP3 ADD MSTORE PUSH1 0x84 ADD JUMPDEST PUSH1 0x40 MLOAD DUP1 SWAP2 SUB SWAP1 REVERT JUMPDEST DUP1 PUSH1 0x80 ADD MLOAD PUSH2 0x333 JUMPI PUSH2 0x329 DUP2 PUSH2 0x83C JUMP JUMPDEST SWAP1 SWAP4 POP SWAP2 POP PUSH2 0x407 JUMP JUMPDEST PUSH1 0x1 PUSH1 0x1 PUSH1 0xA0 SHL SUB DUP1 DUP6 AND PUSH0 SWAP1 DUP2 MSTORE PUSH1 0x2 PUSH1 0x20 SWAP1 DUP2 MSTORE PUSH1 0x40 SWAP2 DUP3 SWAP1 KECCAK256 DUP3 MLOAD PUSH1 0xA0 DUP2 ADD DUP5 MSTORE DUP2 SLOAD DUP6 AND DUP2 MSTORE PUSH1 0x1 SWAP1 SWAP2 ADD SLOAD SWAP4 DUP5 AND SWAP2 DUP2 ADD SWAP2 SWAP1 SWAP2 MSTORE PUSH1 0xFF PUSH1 0x1 PUSH1 0xA0 SHL DUP5 DIV DUP2 AND SWAP3 DUP3 ADD SWAP3 SWAP1 SWAP3 MSTORE PUSH1 0x1 PUSH1 0xA8 SHL DUP4 DIV DUP3 AND PUSH1 0x60 DUP3 ADD MSTORE PUSH1 0x1 PUSH1 0xB0 SHL SWAP1 SWAP3 DIV AND ISZERO ISZERO PUSH1 0x80 DUP3 ADD DUP2 SWAP1 MSTORE PUSH2 0x3F6 JUMPI PUSH1 0x40 MLOAD PUSH3 0x461BCD PUSH1 0xE5 SHL DUP2 MSTORE PUSH1 0x20 PUSH1 0x4 DUP3 ADD MSTORE PUSH1 0x22 PUSH1 0x24 DUP3 ADD MSTORE PUSH32 0x4F7261636C654D616E616765723A207661756C74206665656473206E6F742073 PUSH1 0x44 DUP3 ADD MSTORE PUSH2 0x195D PUSH1 0xF2 SHL PUSH1 0x64 DUP3 ADD MSTORE PUSH1 0x84 ADD PUSH2 0x30E JUMP JUMPDEST PUSH2 0x400 DUP6 DUP3 PUSH2 0x971 JUMP JUMPDEST SWAP1 SWAP5 POP SWAP3 POP POP JUMPDEST POP SWAP2 POP SWAP2 JUMP JUMPDEST PUSH2 0x415 PUSH2 0xAE1 JUMP JUMPDEST PUSH2 0x41E PUSH0 PUSH2 0xB3A JUMP JUMPDEST JUMP JUMPDEST PUSH2 0x428 PUSH2 0xAE1 JUMP JUMPDEST PUSH1 0x1 PUSH1 0x1 PUSH1 0xA0 SHL SUB DUP6 AND PUSH2 0x488 JUMPI PUSH1 0x40 MLOAD PUSH3 0x461BCD PUSH1 0xE5 SHL DUP2 MSTORE PUSH1 0x20 PUSH1 0x4 DUP3 ADD MSTORE PUSH1 0x21 PUSH1 0x24 DUP3 ADD MSTORE PUSH32 0x4F7261636C654D616E616765723A20696E76616C6964207661756C74546F6B65 PUSH1 0x44 DUP3 ADD MSTORE PUSH1 0x37 PUSH1 0xF9 SHL PUSH1 0x64 DUP3 ADD MSTORE PUSH1 0x84 ADD PUSH2 0x30E JUMP JUMPDEST PUSH1 0x40 DUP1 MLOAD PUSH1 0xA0 DUP2 ADD DUP3 MSTORE PUSH1 0x1 PUSH1 0x1 PUSH1 0xA0 SHL SUB DUP1 DUP8 AND DUP3 MSTORE DUP6 DUP2 AND PUSH1 0x20 DUP1 DUP5 ADD SWAP2 DUP3 MSTORE PUSH1 0xFF DUP1 DUP9 AND DUP6 DUP8 ADD SWAP1 DUP2 MSTORE DUP8 DUP3 AND PUSH1 0x60 DUP8 ADD SWAP1 DUP2 MSTORE PUSH1 0x1 PUSH1 0x80 DUP9 ADD DUP2 DUP2 MSTORE DUP15 DUP9 AND PUSH0 DUP2 DUP2 MSTORE PUSH1 0x2 SWAP1 SWAP8 MSTORE SWAP6 DUP11 SWAP1 KECCAK256 SWAP9 MLOAD DUP10 SLOAD SWAP1 DUP10 AND PUSH1 0x1 PUSH1 0x1 PUSH1 0xA0 SHL SUB NOT SWAP1 SWAP2 AND OR DUP10 SSTORE SWAP6 MLOAD SWAP8 ADD DUP1 SLOAD SWAP3 MLOAD SWAP2 MLOAD SWAP6 MLOAD ISZERO ISZERO PUSH1 0x1 PUSH1 0xB0 SHL MUL PUSH1 0xFF PUSH1 0xB0 SHL NOT SWAP7 DUP6 AND PUSH1 0x1 PUSH1 0xA8 SHL MUL SWAP7 SWAP1 SWAP7 AND PUSH2 0xFFFF PUSH1 0xA8 SHL NOT SWAP3 SWAP1 SWAP5 AND PUSH1 0x1 PUSH1 0xA0 SHL MUL PUSH1 0x1 PUSH1 0x1 PUSH1 0xA8 SHL SUB NOT SWAP1 SWAP4 AND SWAP8 SWAP1 SWAP7 AND SWAP7 SWAP1 SWAP7 OR OR SWAP5 SWAP1 SWAP5 AND SWAP4 SWAP1 SWAP4 OR OR SWAP1 SSTORE SWAP1 MLOAD PUSH32 0x2FB5936F285B062770BA9AA206CA7282EBB8F84AD2EDA1C664B3059E9C62C1BA SWAP1 PUSH2 0x5A5 SWAP1 DUP8 SWAP1 DUP8 SWAP1 DUP8 SWAP1 DUP8 SWAP1 PUSH1 0x1 PUSH1 0x1 PUSH1 0xA0 SHL SUB SWAP5 DUP6 AND DUP2 MSTORE SWAP3 SWAP1 SWAP4 AND PUSH1 0x20 DUP4 ADD MSTORE PUSH1 0xFF SWAP1 DUP2 AND PUSH1 0x40 DUP4 ADD MSTORE SWAP2 SWAP1 SWAP2 AND PUSH1 0x60 DUP3 ADD MSTORE PUSH1 0x80 ADD SWAP1 JUMP JUMPDEST PUSH1 0x40 MLOAD DUP1 SWAP2 SUB SWAP1 LOG2 POP POP POP POP POP JUMP JUMPDEST PUSH2 0x5BC PUSH2 0xAE1 JUMP JUMPDEST PUSH1 0x1 PUSH1 0x1 PUSH1 0xA0 SHL SUB DUP7 AND PUSH2 0x612 JUMPI PUSH1 0x40 MLOAD PUSH3 0x461BCD PUSH1 0xE5 SHL DUP2 MSTORE PUSH1 0x20 PUSH1 0x4 DUP3 ADD MSTORE PUSH1 0x1C PUSH1 0x24 DUP3 ADD MSTORE PUSH32 0x4F7261636C654D616E616765723A20696E76616C696420746F6B656E00000000 PUSH1 0x44 DUP3 ADD MSTORE PUSH1 0x64 ADD PUSH2 0x30E JUMP JUMPDEST DUP1 PUSH2 0x686 JUMPI PUSH1 0x1 PUSH1 0x1 PUSH1 0xA0 SHL SUB DUP6 AND PUSH2 0x686 JUMPI PUSH1 0x40 MLOAD PUSH3 0x461BCD PUSH1 0xE5 SHL DUP2 MSTORE PUSH1 0x20 PUSH1 0x4 DUP3 ADD MSTORE PUSH1 0x30 PUSH1 0x24 DUP3 ADD MSTORE PUSH32 0x4F7261636C654D616E616765723A2061676772656761746F7220726571756972 PUSH1 0x44 DUP3 ADD MSTORE PUSH16 0x195908199BDC881B9BDB8B5D985D5B1D PUSH1 0x82 SHL PUSH1 0x64 DUP3 ADD MSTORE PUSH1 0x84 ADD PUSH2 0x30E JUMP JUMPDEST PUSH1 0x40 DUP1 MLOAD PUSH1 0xA0 DUP2 ADD DUP3 MSTORE PUSH1 0x1 PUSH1 0x1 PUSH1 0xA0 SHL SUB DUP1 DUP9 AND DUP3 MSTORE DUP7 DUP2 AND PUSH1 0x20 DUP1 DUP5 ADD SWAP2 DUP3 MSTORE DUP8 ISZERO ISZERO DUP5 DUP7 ADD SWAP1 DUP2 MSTORE PUSH1 0xFF DUP1 DUP10 AND PUSH1 0x60 DUP8 ADD SWAP1 DUP2 MSTORE DUP9 ISZERO ISZERO PUSH1 0x80 DUP9 ADD SWAP1 DUP2 MSTORE DUP15 DUP8 AND PUSH0 DUP2 DUP2 MSTORE PUSH1 0x1 SWAP7 DUP8 SWAP1 MSTORE DUP11 SWAP1 KECCAK256 SWAP9 MLOAD DUP10 SLOAD SWAP1 DUP10 AND PUSH1 0x1 PUSH1 0x1 PUSH1 0xA0 SHL SUB NOT SWAP1 SWAP2 AND OR DUP10 SSTORE SWAP6 MLOAD SWAP8 SWAP1 SWAP5 ADD DUP1 SLOAD SWAP4 MLOAD SWAP2 MLOAD SWAP5 MLOAD ISZERO ISZERO PUSH1 0x1 PUSH1 0xB0 SHL MUL PUSH1 0xFF PUSH1 0xB0 SHL NOT SWAP6 SWAP1 SWAP4 AND PUSH1 0x1 PUSH1 0xA8 SHL MUL SWAP5 SWAP1 SWAP5 AND PUSH2 0xFFFF PUSH1 0xA8 SHL NOT SWAP2 ISZERO ISZERO PUSH1 0x1 PUSH1 0xA0 SHL MUL PUSH1 0x1 PUSH1 0x1 PUSH1 0xA8 SHL SUB NOT SWAP1 SWAP5 AND SWAP8 SWAP1 SWAP7 AND SWAP7 SWAP1 SWAP7 OR SWAP2 SWAP1 SWAP2 OR SWAP5 SWAP1 SWAP5 AND SWAP3 SWAP1 SWAP3 OR SWAP3 SWAP1 SWAP3 OR SWAP1 SSTORE SWAP1 MLOAD PUSH32 0x5BE58A9EEF853F8AE7393174434D0BE93DAAD7445510F6CE6E914B2F297885B8 SWAP1 PUSH2 0x7B3 SWAP1 DUP9 SWAP1 DUP9 SWAP1 DUP9 SWAP1 DUP9 SWAP1 DUP9 SWAP1 PUSH1 0x1 PUSH1 0x1 PUSH1 0xA0 SHL SUB SWAP6 DUP7 AND DUP2 MSTORE SWAP4 SWAP1 SWAP5 AND PUSH1 0x20 DUP5 ADD MSTORE SWAP1 ISZERO ISZERO PUSH1 0x40 DUP4 ADD MSTORE PUSH1 0xFF AND PUSH1 0x60 DUP3 ADD MSTORE SWAP1 ISZERO ISZERO PUSH1 0x80 DUP3 ADD MSTORE PUSH1 0xA0 ADD SWAP1 JUMP JUMPDEST PUSH1 0x40 MLOAD DUP1 SWAP2 SUB SWAP1 LOG2 POP POP POP POP POP POP JUMP JUMPDEST PUSH2 0x7CB PUSH2 0xAE1 JUMP JUMPDEST PUSH1 0x1 PUSH1 0x1 PUSH1 0xA0 SHL SUB DUP2 AND PUSH2 0x830 JUMPI PUSH1 0x40 MLOAD PUSH3 0x461BCD PUSH1 0xE5 SHL DUP2 MSTORE PUSH1 0x20 PUSH1 0x4 DUP3 ADD MSTORE PUSH1 0x26 PUSH1 0x24 DUP3 ADD MSTORE PUSH32 0x4F776E61626C653A206E6577206F776E657220697320746865207A65726F2061 PUSH1 0x44 DUP3 ADD MSTORE PUSH6 0x646472657373 PUSH1 0xD0 SHL PUSH1 0x64 DUP3 ADD MSTORE PUSH1 0x84 ADD PUSH2 0x30E JUMP JUMPDEST PUSH2 0x839 DUP2 PUSH2 0xB3A JUMP JUMPDEST POP JUMP JUMPDEST PUSH0 PUSH0 PUSH0 PUSH0 PUSH0 PUSH2 0x852 DUP7 PUSH0 ADD MLOAD DUP8 PUSH1 0x60 ADD MLOAD PUSH2 0xB89 JUMP JUMPDEST SWAP3 POP SWAP3 POP SWAP3 POP DUP3 ISZERO DUP1 ISZERO PUSH2 0x867 JUMPI POP DUP6 PUSH1 0x40 ADD MLOAD JUMPDEST DUP1 ISZERO PUSH2 0x87F JUMPI POP PUSH1 0x20 DUP7 ADD MLOAD PUSH1 0x1 PUSH1 0x1 PUSH1 0xA0 SHL SUB AND ISZERO ISZERO JUMPDEST ISZERO PUSH2 0x90A JUMPI PUSH0 PUSH0 PUSH0 PUSH2 0x899 DUP10 PUSH1 0x20 ADD MLOAD DUP11 PUSH1 0x60 ADD MLOAD PUSH2 0xB89 JUMP JUMPDEST SWAP3 POP SWAP3 POP SWAP3 POP DUP3 PUSH2 0x8FC JUMPI PUSH1 0x40 MLOAD PUSH3 0x461BCD PUSH1 0xE5 SHL DUP2 MSTORE PUSH1 0x20 PUSH1 0x4 DUP3 ADD MSTORE PUSH1 0x27 PUSH1 0x24 DUP3 ADD MSTORE PUSH32 0x4F7261636C654D616E616765723A2066616C6C6261636B206167677265676174 PUSH1 0x44 DUP3 ADD MSTORE PUSH7 0x1BDC8819985A5B PUSH1 0xCA SHL PUSH1 0x64 DUP3 ADD MSTORE PUSH1 0x84 ADD PUSH2 0x30E JUMP JUMPDEST SWAP1 SWAP9 SWAP1 SWAP8 POP SWAP6 POP POP POP POP POP POP JUMP JUMPDEST DUP3 PUSH2 0x966 JUMPI PUSH1 0x40 MLOAD PUSH3 0x461BCD PUSH1 0xE5 SHL DUP2 MSTORE PUSH1 0x20 PUSH1 0x4 DUP3 ADD MSTORE PUSH1 0x26 PUSH1 0x24 DUP3 ADD MSTORE PUSH32 0x4F7261636C654D616E616765723A207072696D6172792061676772656761746F PUSH1 0x44 DUP3 ADD MSTORE PUSH6 0x1C8819985A5B PUSH1 0xD2 SHL PUSH1 0x64 DUP3 ADD MSTORE PUSH1 0x84 ADD PUSH2 0x30E JUMP JUMPDEST SWAP1 SWAP6 SWAP1 SWAP5 POP SWAP3 POP POP POP JUMP JUMPDEST PUSH0 PUSH0 PUSH0 PUSH0 PUSH0 PUSH2 0x97F DUP8 PUSH2 0xD69 JUMP JUMPDEST SWAP3 POP SWAP3 POP SWAP3 POP PUSH0 PUSH2 0x990 DUP3 DUP5 PUSH2 0xFA8 JUMP JUMPDEST SWAP1 POP PUSH0 PUSH0 PUSH2 0x9FC DUP11 PUSH1 0x1 PUSH1 0x1 PUSH1 0xA0 SHL SUB AND PUSH4 0x3A924D5B PUSH1 0x40 MLOAD DUP2 PUSH4 0xFFFFFFFF AND PUSH1 0xE0 SHL DUP2 MSTORE PUSH1 0x4 ADD PUSH1 0x20 PUSH1 0x40 MLOAD DUP1 DUP4 SUB DUP2 DUP7 GAS STATICCALL ISZERO DUP1 ISZERO PUSH2 0x9D3 JUMPI RETURNDATASIZE PUSH0 PUSH0 RETURNDATACOPY RETURNDATASIZE PUSH0 REVERT JUMPDEST POP POP POP POP PUSH1 0x40 MLOAD RETURNDATASIZE PUSH1 0x1F NOT PUSH1 0x1F DUP3 ADD AND DUP3 ADD DUP1 PUSH1 0x40 MSTORE POP DUP2 ADD SWAP1 PUSH2 0x9F7 SWAP2 SWAP1 PUSH2 0x1BE0 JUMP JUMPDEST PUSH2 0x1196 JUMP JUMPDEST SWAP2 POP SWAP2 POP PUSH0 PUSH0 PUSH2 0xA1A DUP5 DUP7 PUSH1 0x40 ADD MLOAD DUP8 PUSH1 0x60 ADD MLOAD DUP9 PUSH1 0x80 ADD MLOAD PUSH2 0x12C1 JUMP JUMPDEST SWAP2 POP SWAP2 POP PUSH0 DUP6 PUSH1 0xA0 ADD MLOAD PUSH1 0x1 PUSH1 0x1 PUSH1 0x80 SHL SUB AND DUP4 PUSH2 0xA38 SWAP2 SWAP1 PUSH2 0x1C0F JUMP JUMPDEST SWAP1 POP PUSH0 DUP7 PUSH1 0xC0 ADD MLOAD PUSH1 0x1 PUSH1 0x1 PUSH1 0x80 SHL SUB AND DUP4 PUSH2 0xA54 SWAP2 SWAP1 PUSH2 0x1C0F JUMP JUMPDEST SWAP1 POP PUSH0 PUSH1 0x40 MLOAD DUP1 PUSH1 0x80 ADD PUSH1 0x40 MSTORE DUP1 DUP16 PUSH0 ADD MLOAD PUSH1 0x1 PUSH1 0x1 PUSH1 0xA0 SHL SUB AND DUP2 MSTORE PUSH1 0x20 ADD DUP16 PUSH1 0x20 ADD MLOAD PUSH1 0x1 PUSH1 0x1 PUSH1 0xA0 SHL SUB AND DUP2 MSTORE PUSH1 0x20 ADD DUP16 PUSH1 0x40 ADD MLOAD PUSH1 0xFF AND DUP2 MSTORE PUSH1 0x20 ADD DUP16 PUSH1 0x60 ADD MLOAD PUSH1 0xFF AND DUP2 MSTORE POP SWAP1 POP PUSH0 PUSH2 0xAAD DUP5 DUP5 DUP5 PUSH2 0x1312 JUMP JUMPDEST SWAP1 POP DUP12 ISZERO PUSH2 0xABB JUMPI DUP12 PUSH2 0xABE JUMP JUMPDEST PUSH1 0x1 JUMPDEST PUSH2 0xAC8 SWAP1 DUP3 PUSH2 0x1C36 JUMP JUMPDEST SWAP14 POP PUSH1 0x8 SWAP13 POP POP POP POP POP POP POP POP POP POP POP POP POP SWAP3 POP SWAP3 SWAP1 POP JUMP JUMPDEST PUSH0 SLOAD PUSH1 0x1 PUSH1 0x1 PUSH1 0xA0 SHL SUB AND CALLER EQ PUSH2 0x41E JUMPI PUSH1 0x40 MLOAD PUSH3 0x461BCD PUSH1 0xE5 SHL DUP2 MSTORE PUSH1 0x20 PUSH1 0x4 DUP3 ADD DUP2 SWAP1 MSTORE PUSH1 0x24 DUP3 ADD MSTORE PUSH32 0x4F776E61626C653A2063616C6C6572206973206E6F7420746865206F776E6572 PUSH1 0x44 DUP3 ADD MSTORE PUSH1 0x64 ADD PUSH2 0x30E JUMP JUMPDEST PUSH0 DUP1 SLOAD PUSH1 0x1 PUSH1 0x1 PUSH1 0xA0 SHL SUB DUP4 DUP2 AND PUSH1 0x1 PUSH1 0x1 PUSH1 0xA0 SHL SUB NOT DUP4 AND DUP2 OR DUP5 SSTORE PUSH1 0x40 MLOAD SWAP2 SWAP1 SWAP3 AND SWAP3 DUP4 SWAP2 PUSH32 0x8BE0079C531659141344CD1FD0A4F28419497F9722A3DAAFE3B4186F6B6457E0 SWAP2 SWAP1 LOG3 POP POP JUMP JUMPDEST PUSH0 DUP1 DUP1 PUSH1 0x1 PUSH1 0x1 PUSH1 0xA0 SHL SUB DUP6 AND PUSH2 0xBA7 JUMPI POP PUSH0 SWAP2 POP DUP2 SWAP1 POP DUP1 PUSH2 0xD62 JUMP JUMPDEST PUSH1 0x40 DUP1 MLOAD PUSH1 0x4 DUP2 MSTORE PUSH1 0x24 DUP2 ADD DUP3 MSTORE PUSH1 0x20 DUP2 ADD DUP1 MLOAD PUSH1 0x1 PUSH1 0x1 PUSH1 0xE0 SHL SUB AND PUSH4 0x3FABE5A3 PUSH1 0xE2 SHL OR SWAP1 MSTORE SWAP1 MLOAD PUSH0 SWAP1 DUP2 SWAP1 PUSH1 0x1 PUSH1 0x1 PUSH1 0xA0 SHL SUB DUP10 AND SWAP1 PUSH2 0xBEB SWAP1 DUP6 SWAP1 PUSH2 0x1C77 JUMP JUMPDEST PUSH0 PUSH1 0x40 MLOAD DUP1 DUP4 SUB DUP2 DUP6 GAS STATICCALL SWAP2 POP POP RETURNDATASIZE DUP1 PUSH0 DUP2 EQ PUSH2 0xC23 JUMPI PUSH1 0x40 MLOAD SWAP2 POP PUSH1 0x1F NOT PUSH1 0x3F RETURNDATASIZE ADD AND DUP3 ADD PUSH1 0x40 MSTORE RETURNDATASIZE DUP3 MSTORE RETURNDATASIZE PUSH0 PUSH1 0x20 DUP5 ADD RETURNDATACOPY PUSH2 0xC28 JUMP JUMPDEST PUSH1 0x60 SWAP2 POP JUMPDEST POP SWAP2 POP SWAP2 POP DUP2 ISZERO DUP1 PUSH2 0xC3B JUMPI POP PUSH1 0xA0 DUP2 MLOAD LT JUMPDEST ISZERO PUSH2 0xC51 JUMPI PUSH0 PUSH0 PUSH0 SWAP6 POP SWAP6 POP SWAP6 POP POP POP POP PUSH2 0xD62 JUMP JUMPDEST PUSH0 DUP2 DUP1 PUSH1 0x20 ADD SWAP1 MLOAD DUP2 ADD SWAP1 PUSH2 0xC66 SWAP2 SWAP1 PUSH2 0x1CB0 JUMP JUMPDEST POP POP POP SWAP2 POP POP PUSH0 DUP2 SGT PUSH2 0xC85 JUMPI PUSH0 PUSH0 PUSH0 SWAP7 POP SWAP7 POP SWAP7 POP POP POP POP POP PUSH2 0xD62 JUMP JUMPDEST DUP8 PUSH1 0xFF DUP2 AND PUSH0 SUB PUSH2 0xD55 JUMPI PUSH1 0x40 DUP1 MLOAD PUSH1 0x4 DUP2 MSTORE PUSH1 0x24 DUP2 ADD DUP3 MSTORE PUSH1 0x20 DUP2 ADD DUP1 MLOAD PUSH1 0x1 PUSH1 0x1 PUSH1 0xE0 SHL SUB AND PUSH4 0x313CE567 PUSH1 0xE0 SHL OR SWAP1 MSTORE SWAP1 MLOAD PUSH0 SWAP2 DUP3 SWAP2 PUSH1 0x1 PUSH1 0x1 PUSH1 0xA0 SHL SUB DUP15 AND SWAP2 PUSH2 0xCD2 SWAP2 PUSH2 0x1C77 JUMP JUMPDEST PUSH0 PUSH1 0x40 MLOAD DUP1 DUP4 SUB DUP2 DUP6 GAS STATICCALL SWAP2 POP POP RETURNDATASIZE DUP1 PUSH0 DUP2 EQ PUSH2 0xD0A JUMPI PUSH1 0x40 MLOAD SWAP2 POP PUSH1 0x1F NOT PUSH1 0x3F RETURNDATASIZE ADD AND DUP3 ADD PUSH1 0x40 MSTORE RETURNDATASIZE DUP3 MSTORE RETURNDATASIZE PUSH0 PUSH1 0x20 DUP5 ADD RETURNDATACOPY PUSH2 0xD0F JUMP JUMPDEST PUSH1 0x60 SWAP2 POP JUMPDEST POP SWAP2 POP SWAP2 POP DUP2 ISZERO DUP1 PUSH2 0xD22 JUMPI POP PUSH1 0x20 DUP2 MLOAD LT JUMPDEST ISZERO PUSH2 0xD3C JUMPI PUSH0 PUSH0 PUSH0 SWAP10 POP SWAP10 POP SWAP10 POP POP POP POP POP POP POP POP PUSH2 0xD62 JUMP JUMPDEST DUP1 DUP1 PUSH1 0x20 ADD SWAP1 MLOAD DUP2 ADD SWAP1 PUSH2 0xD50 SWAP2 SWAP1 PUSH2 0x1CFE JUMP JUMPDEST SWAP3 POP POP POP JUMPDEST PUSH1 0x1 SWAP8 POP SWAP1 SWAP6 POP SWAP4 POP POP POP POP JUMPDEST SWAP3 POP SWAP3 POP SWAP3 JUMP JUMPDEST PUSH0 PUSH0 PUSH0 PUSH0 DUP5 SWAP1 POP DUP1 PUSH1 0x1 PUSH1 0x1 PUSH1 0xA0 SHL SUB AND PUSH4 0x18160DDD PUSH1 0x40 MLOAD DUP2 PUSH4 0xFFFFFFFF AND PUSH1 0xE0 SHL DUP2 MSTORE PUSH1 0x4 ADD PUSH1 0x20 PUSH1 0x40 MLOAD DUP1 DUP4 SUB DUP2 DUP7 GAS STATICCALL ISZERO DUP1 ISZERO PUSH2 0xDAC JUMPI RETURNDATASIZE PUSH0 PUSH0 RETURNDATACOPY RETURNDATASIZE PUSH0 REVERT JUMPDEST POP POP POP POP PUSH1 0x40 MLOAD RETURNDATASIZE PUSH1 0x1F NOT PUSH1 0x1F DUP3 ADD AND DUP3 ADD DUP1 PUSH1 0x40 MSTORE POP DUP2 ADD SWAP1 PUSH2 0xDD0 SWAP2 SWAP1 PUSH2 0x1D19 JUMP JUMPDEST SWAP4 POP PUSH0 DUP5 GT PUSH2 0xE2C JUMPI PUSH1 0x40 MLOAD PUSH3 0x461BCD PUSH1 0xE5 SHL DUP2 MSTORE PUSH1 0x20 PUSH1 0x4 DUP3 ADD MSTORE PUSH1 0x22 PUSH1 0x24 DUP3 ADD MSTORE PUSH32 0x4F7261636C654D616E616765723A207661756C7420746F74616C537570706C79 PUSH1 0x44 DUP3 ADD MSTORE PUSH2 0x3D3 PUSH1 0xF4 SHL PUSH1 0x64 DUP3 ADD MSTORE PUSH1 0x84 ADD PUSH2 0x30E JUMP JUMPDEST DUP1 PUSH1 0x1 PUSH1 0x1 PUSH1 0xA0 SHL SUB AND PUSH4 0xF657A7FE PUSH1 0x40 MLOAD DUP2 PUSH4 0xFFFFFFFF AND PUSH1 0xE0 SHL DUP2 MSTORE PUSH1 0x4 ADD PUSH1 0x20 PUSH1 0x40 MLOAD DUP1 DUP4 SUB DUP2 DUP7 GAS STATICCALL ISZERO DUP1 ISZERO PUSH2 0xE68 JUMPI RETURNDATASIZE PUSH0 PUSH0 RETURNDATACOPY RETURNDATASIZE PUSH0 REVERT JUMPDEST POP POP POP POP PUSH1 0x40 MLOAD RETURNDATASIZE PUSH1 0x1F NOT PUSH1 0x1F DUP3 ADD AND DUP3 ADD DUP1 PUSH1 0x40 MSTORE POP DUP2 ADD SWAP1 PUSH2 0xE8C SWAP2 SWAP1 PUSH2 0x1D19 JUMP JUMPDEST SWAP3 POP DUP3 PUSH0 SUB PUSH2 0xEDD JUMPI PUSH1 0x40 MLOAD PUSH3 0x461BCD PUSH1 0xE5 SHL DUP2 MSTORE PUSH1 0x20 PUSH1 0x4 DUP3 ADD MSTORE PUSH1 0x1E PUSH1 0x24 DUP3 ADD MSTORE PUSH32 0x4F7261636C654D616E616765723A206E6F204E465420696E207661756C740000 PUSH1 0x44 DUP3 ADD MSTORE PUSH1 0x64 ADD PUSH2 0x30E JUMP JUMPDEST DUP1 PUSH1 0x1 PUSH1 0x1 PUSH1 0xA0 SHL SUB AND PUSH4 0x791B98BC PUSH1 0x40 MLOAD DUP2 PUSH4 0xFFFFFFFF AND PUSH1 0xE0 SHL DUP2 MSTORE PUSH1 0x4 ADD PUSH1 0x20 PUSH1 0x40 MLOAD DUP1 DUP4 SUB DUP2 DUP7 GAS STATICCALL ISZERO DUP1 ISZERO PUSH2 0xF19 JUMPI RETURNDATASIZE PUSH0 PUSH0 RETURNDATACOPY RETURNDATASIZE PUSH0 REVERT JUMPDEST POP POP POP POP PUSH1 0x40 MLOAD RETURNDATASIZE PUSH1 0x1F NOT PUSH1 0x1F DUP3 ADD AND DUP3 ADD DUP1 PUSH1 0x40 MSTORE POP DUP2 ADD SWAP1 PUSH2 0xF3D SWAP2 SWAP1 PUSH2 0x1BE0 JUMP JUMPDEST SWAP2 POP PUSH1 0x1 PUSH1 0x1 PUSH1 0xA0 SHL SUB DUP3 AND PUSH2 0xFA0 JUMPI PUSH1 0x40 MLOAD PUSH3 0x461BCD PUSH1 0xE5 SHL DUP2 MSTORE PUSH1 0x20 PUSH1 0x4 DUP3 ADD MSTORE PUSH1 0x22 PUSH1 0x24 DUP3 ADD MSTORE PUSH32 0x4F7261636C654D616E616765723A20696E76616C696420706F736974696F6E4D PUSH1 0x44 DUP3 ADD MSTORE PUSH2 0x33B9 PUSH1 0xF1 SHL PUSH1 0x64 DUP3 ADD MSTORE PUSH1 0x84 ADD PUSH2 0x30E JUMP JUMPDEST POP SWAP2 SWAP4 SWAP1 SWAP3 POP JUMP JUMPDEST PUSH1 0x40 DUP1 MLOAD PUSH1 0xE0 DUP2 ADD DUP3 MSTORE PUSH0 DUP1 DUP3 MSTORE PUSH1 0x20 DUP3 ADD DUP2 SWAP1 MSTORE SWAP2 DUP2 ADD DUP3 SWAP1 MSTORE PUSH1 0x60 DUP2 ADD DUP3 SWAP1 MSTORE PUSH1 0x80 DUP2 ADD DUP3 SWAP1 MSTORE PUSH1 0xA0 DUP2 ADD DUP3 SWAP1 MSTORE PUSH1 0xC0 DUP2 ADD SWAP2 SWAP1 SWAP2 MSTORE PUSH0 PUSH0 DUP5 PUSH1 0x1 PUSH1 0x1 PUSH1 0xA0 SHL SUB AND PUSH4 0x99FBAB88 PUSH1 0xE0 SHL DUP6 PUSH1 0x40 MLOAD PUSH1 0x24 ADD PUSH2 0x1007 SWAP2 DUP2 MSTORE PUSH1 0x20 ADD SWAP1 JUMP JUMPDEST PUSH1 0x40 DUP1 MLOAD PUSH1 0x1F NOT DUP2 DUP5 SUB ADD DUP2 MSTORE SWAP2 DUP2 MSTORE PUSH1 0x20 DUP3 ADD DUP1 MLOAD PUSH1 0x1 PUSH1 0x1 PUSH1 0xE0 SHL SUB AND PUSH1 0x1 PUSH1 0x1 PUSH1 0xE0 SHL SUB NOT SWAP1 SWAP5 AND SWAP4 SWAP1 SWAP4 OR SWAP1 SWAP3 MSTORE SWAP1 MLOAD PUSH2 0x1045 SWAP2 SWAP1 PUSH2 0x1C77 JUMP JUMPDEST PUSH0 PUSH1 0x40 MLOAD DUP1 DUP4 SUB DUP2 DUP6 GAS STATICCALL SWAP2 POP POP RETURNDATASIZE DUP1 PUSH0 DUP2 EQ PUSH2 0x107D JUMPI PUSH1 0x40 MLOAD SWAP2 POP PUSH1 0x1F NOT PUSH1 0x3F RETURNDATASIZE ADD AND DUP3 ADD PUSH1 0x40 MSTORE RETURNDATASIZE DUP3 MSTORE RETURNDATASIZE PUSH0 PUSH1 0x20 DUP5 ADD RETURNDATACOPY PUSH2 0x1082 JUMP JUMPDEST PUSH1 0x60 SWAP2 POP JUMPDEST POP SWAP2 POP SWAP2 POP DUP2 PUSH2 0x1091 DUP3 PUSH2 0x1354 JUMP JUMPDEST SWAP1 PUSH2 0x10AF JUMPI PUSH1 0x40 MLOAD PUSH3 0x461BCD PUSH1 0xE5 SHL DUP2 MSTORE PUSH1 0x4 ADD PUSH2 0x30E SWAP2 SWAP1 PUSH2 0x1D30 JUMP JUMPDEST POP DUP1 DUP1 PUSH1 0x20 ADD SWAP1 MLOAD DUP2 ADD SWAP1 PUSH2 0x10C4 SWAP2 SWAP1 PUSH2 0x1DA6 JUMP JUMPDEST SWAP1 SWAP2 SWAP3 SWAP4 SWAP5 SWAP6 SWAP7 SWAP8 SWAP9 SWAP10 SWAP11 POP SWAP1 SWAP2 SWAP3 SWAP4 SWAP5 SWAP6 SWAP7 SWAP8 SWAP9 SWAP10 POP SWAP1 SWAP2 SWAP3 SWAP4 SWAP5 SWAP6 SWAP7 POP SWAP1 SWAP2 SWAP3 POP SWAP1 SWAP2 POP DUP10 PUSH0 ADD DUP11 PUSH1 0x20 ADD DUP12 PUSH1 0x40 ADD DUP13 PUSH1 0x60 ADD DUP14 PUSH1 0x80 ADD DUP15 PUSH1 0xA0 ADD DUP16 PUSH1 0xC0 ADD DUP8 PUSH1 0x1 PUSH1 0x1 PUSH1 0x80 SHL SUB AND PUSH1 0x1 PUSH1 0x1 PUSH1 0x80 SHL SUB AND DUP2 MSTORE POP DUP8 PUSH1 0x1 PUSH1 0x1 PUSH1 0x80 SHL SUB AND PUSH1 0x1 PUSH1 0x1 PUSH1 0x80 SHL SUB AND DUP2 MSTORE POP DUP8 PUSH1 0x1 PUSH1 0x1 PUSH1 0x80 SHL SUB AND PUSH1 0x1 PUSH1 0x1 PUSH1 0x80 SHL SUB AND DUP2 MSTORE POP DUP8 PUSH1 0x2 SIGNEXTEND PUSH1 0x2 SIGNEXTEND DUP2 MSTORE POP DUP8 PUSH1 0x2 SIGNEXTEND PUSH1 0x2 SIGNEXTEND DUP2 MSTORE POP DUP8 PUSH1 0x1 PUSH1 0x1 PUSH1 0xA0 SHL SUB AND PUSH1 0x1 PUSH1 0x1 PUSH1 0xA0 SHL SUB AND DUP2 MSTORE POP DUP8 PUSH1 0x1 PUSH1 0x1 PUSH1 0xA0 SHL SUB AND PUSH1 0x1 PUSH1 0x1 PUSH1 0xA0 SHL SUB AND DUP2 MSTORE POP POP POP POP POP POP POP POP POP POP SWAP3 SWAP2 POP POP JUMP JUMPDEST PUSH0 DUP1 PUSH1 0x1 PUSH1 0x1 PUSH1 0xA0 SHL SUB DUP4 AND PUSH2 0x11EE JUMPI PUSH1 0x40 MLOAD PUSH3 0x461BCD PUSH1 0xE5 SHL DUP2 MSTORE PUSH1 0x20 PUSH1 0x4 DUP3 ADD MSTORE PUSH1 0x1B PUSH1 0x24 DUP3 ADD MSTORE PUSH32 0x4F7261636C654D616E616765723A20696E76616C696420706F6F6C0000000000 PUSH1 0x44 DUP3 ADD MSTORE PUSH1 0x64 ADD PUSH2 0x30E JUMP JUMPDEST PUSH1 0x40 DUP1 MLOAD PUSH1 0x4 DUP2 MSTORE PUSH1 0x24 DUP2 ADD DUP3 MSTORE PUSH1 0x20 DUP2 ADD DUP1 MLOAD PUSH1 0x1 PUSH1 0x1 PUSH1 0xE0 SHL SUB AND PUSH4 0x3850C7BD PUSH1 0xE0 SHL OR SWAP1 MSTORE SWAP1 MLOAD PUSH0 SWAP2 DUP3 SWAP2 PUSH1 0x1 PUSH1 0x1 PUSH1 0xA0 SHL SUB DUP8 AND SWAP2 PUSH2 0x1230 SWAP2 PUSH2 0x1C77 JUMP JUMPDEST PUSH0 PUSH1 0x40 MLOAD DUP1 DUP4 SUB DUP2 DUP6 GAS STATICCALL SWAP2 POP POP RETURNDATASIZE DUP1 PUSH0 DUP2 EQ PUSH2 0x1268 JUMPI PUSH1 0x40 MLOAD SWAP2 POP PUSH1 0x1F NOT PUSH1 0x3F RETURNDATASIZE ADD AND DUP3 ADD PUSH1 0x40 MSTORE RETURNDATASIZE DUP3 MSTORE RETURNDATASIZE PUSH0 PUSH1 0x20 DUP5 ADD RETURNDATACOPY PUSH2 0x126D JUMP JUMPDEST PUSH1 0x60 SWAP2 POP JUMPDEST POP SWAP2 POP SWAP2 POP DUP2 PUSH2 0x127C DUP3 PUSH2 0x1354 JUMP JUMPDEST SWAP1 PUSH2 0x129A JUMPI PUSH1 0x40 MLOAD PUSH3 0x461BCD PUSH1 0xE5 SHL DUP2 MSTORE PUSH1 0x4 ADD PUSH2 0x30E SWAP2 SWAP1 PUSH2 0x1D30 JUMP JUMPDEST POP DUP1 DUP1 PUSH1 0x20 ADD SWAP1 MLOAD DUP2 ADD SWAP1 PUSH2 0x12AF SWAP2 SWAP1 PUSH2 0x1E91 JUMP JUMPDEST POP SWAP5 SWAP11 SWAP4 SWAP10 POP SWAP3 SWAP8 POP POP POP POP POP POP POP POP JUMP JUMPDEST PUSH0 PUSH0 DUP3 PUSH1 0x1 PUSH1 0x1 PUSH1 0x80 SHL SUB AND PUSH0 SUB PUSH2 0x12DD JUMPI POP PUSH0 SWAP1 POP DUP1 PUSH2 0x1309 JUMP JUMPDEST PUSH0 PUSH2 0x12E7 DUP7 PUSH2 0x139F JUMP JUMPDEST SWAP1 POP PUSH0 PUSH2 0x12F3 DUP7 PUSH2 0x139F JUMP JUMPDEST SWAP1 POP PUSH2 0x1301 DUP9 DUP4 DUP4 DUP9 PUSH2 0x17EA JUMP JUMPDEST SWAP1 SWAP5 POP SWAP3 POP POP POP JUMPDEST SWAP5 POP SWAP5 SWAP3 POP POP POP JUMP JUMPDEST PUSH0 PUSH0 PUSH2 0x1326 DUP6 DUP5 PUSH0 ADD MLOAD DUP6 PUSH1 0x40 ADD MLOAD PUSH2 0x1884 JUMP JUMPDEST SWAP1 POP PUSH0 PUSH2 0x133C DUP6 DUP6 PUSH1 0x20 ADD MLOAD DUP7 PUSH1 0x60 ADD MLOAD PUSH2 0x1884 JUMP JUMPDEST SWAP1 POP PUSH2 0x1348 DUP2 DUP4 PUSH2 0x1C0F JUMP JUMPDEST SWAP3 POP POP POP JUMPDEST SWAP4 SWAP3 POP POP POP JUMP JUMPDEST PUSH1 0x60 PUSH1 0x44 DUP3 MLOAD LT ISZERO PUSH2 0x137F JUMPI PUSH1 0x40 MLOAD DUP1 PUSH1 0x60 ADD PUSH1 0x40 MSTORE DUP1 PUSH1 0x24 DUP2 MSTORE PUSH1 0x20 ADD PUSH2 0x2108 PUSH1 0x24 SWAP2 CODECOPY SWAP3 SWAP2 POP POP JUMP JUMPDEST PUSH1 0x4 DUP3 ADD SWAP2 POP DUP2 DUP1 PUSH1 0x20 ADD SWAP1 MLOAD DUP2 ADD SWAP1 PUSH2 0x1399 SWAP2 SWAP1 PUSH2 0x1F2F JUMP JUMPDEST SWAP3 SWAP2 POP POP JUMP JUMPDEST PUSH0 PUSH3 0xD89E7 NOT PUSH1 0x2 DUP4 SWAP1 SIGNEXTEND SLT DUP1 ISZERO SWAP1 PUSH2 0x13BF JUMPI POP PUSH3 0xD89E8 PUSH1 0x2 DUP4 SWAP1 SIGNEXTEND SGT ISZERO JUMPDEST PUSH2 0x13FF JUMPI PUSH1 0x40 MLOAD PUSH3 0x461BCD PUSH1 0xE5 SHL DUP2 MSTORE PUSH1 0x20 PUSH1 0x4 DUP3 ADD MSTORE PUSH1 0x11 PUSH1 0x24 DUP3 ADD MSTORE PUSH17 0x5469636B206F7574206F662072616E6765 PUSH1 0x78 SHL PUSH1 0x44 DUP3 ADD MSTORE PUSH1 0x64 ADD PUSH2 0x30E JUMP JUMPDEST PUSH0 PUSH0 DUP4 PUSH1 0x2 SIGNEXTEND SLT PUSH2 0x1415 JUMPI DUP3 PUSH3 0xFFFFFF AND PUSH2 0x1424 JUMP JUMPDEST PUSH2 0x141E DUP4 PUSH2 0x1FDF JUMP JUMPDEST PUSH3 0xFFFFFF AND JUMPDEST SWAP1 POP PUSH1 0x1 PUSH1 0x80 SHL PUSH1 0x1 DUP3 AND ISZERO PUSH2 0x1455 JUMPI PUSH1 0x80 PUSH2 0x1450 DUP3 PUSH16 0xFFFCB933BD6FAD37AA2D162D1A594001 PUSH2 0x1FFF JUMP JUMPDEST SWAP1 SHR SWAP1 POP JUMPDEST PUSH1 0x2 DUP3 AND ISZERO PUSH2 0x147F JUMPI PUSH1 0x80 PUSH2 0x147A DUP3 PUSH16 0xFFF97272373D413259A46990580E213A PUSH2 0x1FFF JUMP JUMPDEST SWAP1 SHR SWAP1 POP JUMPDEST PUSH1 0x4 DUP3 AND ISZERO PUSH2 0x14A9 JUMPI PUSH1 0x80 PUSH2 0x14A4 DUP3 PUSH16 0xFFF2E50F5F656932EF12357CF3C7FDCC PUSH2 0x1FFF JUMP JUMPDEST SWAP1 SHR SWAP1 POP JUMPDEST PUSH1 0x8 DUP3 AND ISZERO PUSH2 0x14D3 JUMPI PUSH1 0x80 PUSH2 0x14CE DUP3 PUSH16 0xFFE5CACA7E10E4E61C3624EAA0941CD0 PUSH2 0x1FFF JUMP JUMPDEST SWAP1 SHR SWAP1 POP JUMPDEST PUSH1 0x10 DUP3 AND ISZERO PUSH2 0x14FD JUMPI PUSH1 0x80 PUSH2 0x14F8 DUP3 PUSH16 0xFFCB9843D60F6159C9DB58835C926644 PUSH2 0x1FFF JUMP JUMPDEST SWAP1 SHR SWAP1 POP JUMPDEST PUSH1 0x20 DUP3 AND ISZERO PUSH2 0x1527 JUMPI PUSH1 0x80 PUSH2 0x1522 DUP3 PUSH16 0xFF973B41FA98C081472E6896DFB254C0 PUSH2 0x1FFF JUMP JUMPDEST SWAP1 SHR SWAP1 POP JUMPDEST PUSH1 0x40 DUP3 AND ISZERO PUSH2 0x1551 JUMPI PUSH1 0x80 PUSH2 0x154C DUP3 PUSH16 0xFF2EA16466C96A3843EC78B326B52861 PUSH2 0x1FFF JUMP JUMPDEST SWAP1 SHR SWAP1 POP JUMPDEST PUSH1 0x80 DUP3 AND ISZERO PUSH2 0x157B JUMPI PUSH1 0x80 PUSH2 0x1576 DUP3 PUSH16 0xFE5DEE046A99A2A811C461F1969C3053 PUSH2 0x1FFF JUMP JUMPDEST SWAP1 SHR SWAP1 POP JUMPDEST PUSH2 0x100 DUP3 AND ISZERO PUSH2 0x15A6 JUMPI PUSH1 0x80 PUSH2 0x15A1 DUP3 PUSH16 0xFCBE86C7900A88AEDCFFC83B479AA3A4 PUSH2 0x1FFF JUMP JUMPDEST SWAP1 SHR SWAP1 POP JUMPDEST PUSH2 0x200 DUP3 AND ISZERO PUSH2 0x15D1 JUMPI PUSH1 0x80 PUSH2 0x15CC DUP3 PUSH16 0xF987A7253AC413176F2B074CF7815E54 PUSH2 0x1FFF JUMP JUMPDEST SWAP1 SHR SWAP1 POP JUMPDEST PUSH2 0x400 DUP3 AND ISZERO PUSH2 0x15FC JUMPI PUSH1 0x80 PUSH2 0x15F7 DUP3 PUSH16 0xF3392B0822B70005940C7A398E4B70F3 PUSH2 0x1FFF JUMP JUMPDEST SWAP1 SHR SWAP1 POP JUMPDEST PUSH2 0x800 DUP3 AND ISZERO PUSH2 0x1627 JUMPI PUSH1 0x80 PUSH2 0x1622 DUP3 PUSH16 0xE7159475A2C29B7443B29C7FA6E889D9 PUSH2 0x1FFF JUMP JUMPDEST SWAP1 SHR SWAP1 POP JUMPDEST PUSH2 0x1000 DUP3 AND ISZERO PUSH2 0x1652 JUMPI PUSH1 0x80 PUSH2 0x164D DUP3 PUSH16 0xD097F3BDFD2022B8845AD8F792AA5825 PUSH2 0x1FFF JUMP JUMPDEST SWAP1 SHR SWAP1 POP JUMPDEST PUSH2 0x2000 DUP3 AND ISZERO PUSH2 0x167D JUMPI PUSH1 0x80 PUSH2 0x1678 DUP3 PUSH16 0xA9F746462D870FDF8A65DC1F90E061E5 PUSH2 0x1FFF JUMP JUMPDEST SWAP1 SHR SWAP1 POP JUMPDEST PUSH2 0x4000 DUP3 AND ISZERO PUSH2 0x16A8 JUMPI PUSH1 0x80 PUSH2 0x16A3 DUP3 PUSH16 0x70D869A156D2A1F6A7A2E3FADACB4C9B PUSH2 0x1FFF JUMP JUMPDEST SWAP1 SHR SWAP1 POP JUMPDEST PUSH2 0x8000 DUP3 AND ISZERO PUSH2 0x16D3 JUMPI PUSH1 0x80 PUSH2 0x16CE DUP3 PUSH16 0x31BE135F97D08FD981231505542FCFA6 PUSH2 0x1FFF JUMP JUMPDEST SWAP1 SHR SWAP1 POP JUMPDEST PUSH3 0x10000 DUP3 AND ISZERO PUSH2 0x16FF JUMPI PUSH1 0x80 PUSH2 0x16FA DUP3 PUSH16 0x9AA508B5B7A84E1C677DE54F3E99BC9 PUSH2 0x1FFF JUMP JUMPDEST SWAP1 SHR SWAP1 POP JUMPDEST PUSH3 0x20000 DUP3 AND ISZERO PUSH2 0x172A JUMPI PUSH1 0x80 PUSH2 0x1725 DUP3 PUSH15 0x5D6AF8DEDB81196699C329225EE604 PUSH2 0x1FFF JUMP JUMPDEST SWAP1 SHR SWAP1 POP JUMPDEST PUSH3 0x40000 DUP3 AND ISZERO PUSH2 0x1754 JUMPI PUSH1 0x80 PUSH2 0x174F DUP3 PUSH14 0x2216E584F5FA1EA926041BEDFE98 PUSH2 0x1FFF JUMP JUMPDEST SWAP1 SHR SWAP1 POP JUMPDEST PUSH3 0x80000 DUP3 AND ISZERO PUSH2 0x177C JUMPI PUSH1 0x80 PUSH2 0x1777 DUP3 PUSH12 0x48A170391F7DC42444E8FA2 PUSH2 0x1FFF JUMP JUMPDEST SWAP1 SHR SWAP1 POP JUMPDEST PUSH0 DUP5 PUSH1 0x2 SIGNEXTEND SGT ISZERO PUSH2 0x1795 JUMPI PUSH2 0x1792 DUP2 PUSH0 NOT PUSH2 0x1C36 JUMP JUMPDEST SWAP1 POP JUMPDEST PUSH1 0x20 DUP2 SWAP1 SHR PUSH1 0x1 PUSH1 0x1 PUSH1 0xA0 SHL SUB DUP2 GT ISZERO PUSH2 0x17E2 JUMPI PUSH1 0x40 MLOAD PUSH3 0x461BCD PUSH1 0xE5 SHL DUP2 MSTORE PUSH1 0x20 PUSH1 0x4 DUP3 ADD MSTORE PUSH1 0xE PUSH1 0x24 DUP3 ADD MSTORE PUSH14 0x5072696365206F766572666C6F77 PUSH1 0x90 SHL PUSH1 0x44 DUP3 ADD MSTORE PUSH1 0x64 ADD PUSH2 0x30E JUMP JUMPDEST SWAP5 SWAP4 POP POP POP POP JUMP JUMPDEST PUSH0 PUSH0 DUP4 PUSH1 0x1 PUSH1 0x1 PUSH1 0xA0 SHL SUB AND DUP6 PUSH1 0x1 PUSH1 0x1 PUSH1 0xA0 SHL SUB AND GT ISZERO PUSH2 0x180A JUMPI SWAP3 SWAP4 SWAP3 JUMPDEST DUP5 PUSH1 0x1 PUSH1 0x1 PUSH1 0xA0 SHL SUB AND DUP7 PUSH1 0x1 PUSH1 0x1 PUSH1 0xA0 SHL SUB AND GT PUSH2 0x1835 JUMPI PUSH2 0x182E DUP6 DUP6 DUP6 PUSH2 0x1955 JUMP JUMPDEST SWAP2 POP PUSH2 0x1309 JUMP JUMPDEST DUP4 PUSH1 0x1 PUSH1 0x1 PUSH1 0xA0 SHL SUB AND DUP7 PUSH1 0x1 PUSH1 0x1 PUSH1 0xA0 SHL SUB AND LT ISZERO PUSH2 0x186E JUMPI PUSH2 0x185A DUP7 DUP6 DUP6 PUSH2 0x1955 JUMP JUMPDEST SWAP2 POP PUSH2 0x1867 DUP6 DUP8 DUP6 PUSH2 0x19C3 JUMP JUMPDEST SWAP1 POP PUSH2 0x1309 JUMP JUMPDEST PUSH2 0x1879 DUP6 DUP6 DUP6 PUSH2 0x19C3 JUMP JUMPDEST SWAP1 POP SWAP5 POP SWAP5 SWAP3 POP POP POP JUMP JUMPDEST PUSH0 DUP4 ISZERO DUP1 PUSH2 0x1899 JUMPI POP PUSH1 0x1 PUSH1 0x1 PUSH1 0xA0 SHL SUB DUP4 AND ISZERO JUMPDEST ISZERO PUSH2 0x18A5 JUMPI POP PUSH0 PUSH2 0x134D JUMP JUMPDEST PUSH0 PUSH0 PUSH0 PUSH2 0x18B2 DUP7 DUP7 PUSH2 0xB89 JUMP JUMPDEST SWAP3 POP SWAP3 POP SWAP3 POP DUP3 PUSH2 0x192B JUMPI PUSH1 0x40 MLOAD PUSH3 0x461BCD PUSH1 0xE5 SHL DUP2 MSTORE PUSH1 0x20 PUSH1 0x4 DUP3 ADD MSTORE PUSH1 0x3B PUSH1 0x24 DUP3 ADD MSTORE PUSH32 0x4F7261636C654D616E616765723A2061676772656761746F72206661696C2069 PUSH1 0x44 DUP3 ADD MSTORE PUSH32 0x6E205F636F6E76657274546F41676772656761746F7256616C75650000000000 PUSH1 0x64 DUP3 ADD MSTORE PUSH1 0x84 ADD PUSH2 0x30E JUMP JUMPDEST PUSH2 0x1936 DUP2 PUSH1 0xA PUSH2 0x20F9 JUMP JUMPDEST PUSH2 0x1940 DUP4 DUP10 PUSH2 0x1FFF JUMP JUMPDEST PUSH2 0x194A SWAP2 SWAP1 PUSH2 0x1C36 JUMP JUMPDEST SWAP8 SWAP7 POP POP POP POP POP POP POP JUMP JUMPDEST PUSH0 DUP3 PUSH1 0x1 PUSH1 0x1 PUSH1 0xA0 SHL SUB AND DUP5 PUSH1 0x1 PUSH1 0x1 PUSH1 0xA0 SHL SUB AND GT ISZERO PUSH2 0x1974 JUMPI SWAP2 SWAP3 SWAP2 JUMPDEST DUP4 PUSH1 0x1 PUSH1 0x1 PUSH1 0xA0 SHL SUB AND PUSH2 0x19AD PUSH1 0x60 PUSH1 0xFF AND DUP5 PUSH1 0x1 PUSH1 0x1 PUSH1 0x80 SHL SUB AND SWAP1 SHL DUP7 DUP7 SUB PUSH1 0x1 PUSH1 0x1 PUSH1 0xA0 SHL SUB AND DUP7 PUSH1 0x1 PUSH1 0x1 PUSH1 0xA0 SHL SUB AND PUSH2 0x1A01 JUMP JUMPDEST DUP2 PUSH2 0x19BA JUMPI PUSH2 0x19BA PUSH2 0x1C22 JUMP JUMPDEST DIV SWAP5 SWAP4 POP POP POP POP JUMP JUMPDEST PUSH0 DUP3 PUSH1 0x1 PUSH1 0x1 PUSH1 0xA0 SHL SUB AND DUP5 PUSH1 0x1 PUSH1 0x1 PUSH1 0xA0 SHL SUB AND GT ISZERO PUSH2 0x19E2 JUMPI SWAP2 SWAP3 SWAP2 JUMPDEST PUSH2 0x17E2 DUP3 PUSH1 0x1 PUSH1 0x1 PUSH1 0x80 SHL SUB AND DUP6 DUP6 SUB PUSH1 0x1 PUSH1 0x1 PUSH1 0xA0 SHL SUB AND PUSH1 0x1 PUSH1 0x60 SHL JUMPDEST PUSH0 DUP1 DUP1 PUSH0 NOT DUP6 DUP8 MULMOD DUP6 DUP8 MUL SWAP3 POP DUP3 DUP2 LT DUP4 DUP3 SUB SUB SWAP2 POP POP DUP1 PUSH0 SUB PUSH2 0x1A35 JUMPI PUSH0 DUP5 GT PUSH2 0x1A2A JUMPI PUSH0 PUSH0 REVERT JUMPDEST POP DUP3 SWAP1 DIV SWAP1 POP PUSH2 0x134D JUMP JUMPDEST DUP1 DUP5 GT PUSH2 0x1A40 JUMPI PUSH0 PUSH0 REVERT JUMPDEST PUSH0 DUP5 DUP7 DUP9 MULMOD PUSH0 DUP7 DUP2 SUB DUP8 AND SWAP7 DUP8 SWAP1 DIV SWAP7 PUSH1 0x2 PUSH1 0x3 DUP10 MUL DUP2 XOR DUP1 DUP11 MUL DUP3 SUB MUL DUP1 DUP11 MUL DUP3 SUB MUL DUP1 DUP11 MUL DUP3 SUB MUL DUP1 DUP11 MUL DUP3 SUB MUL DUP1 DUP11 MUL DUP3 SUB MUL DUP1 DUP11 MUL SWAP1 SWAP2 SUB MUL SWAP2 DUP2 SWAP1 SUB DUP2 SWAP1 DIV PUSH1 0x1 ADD DUP7 DUP5 GT SWAP1 SWAP6 SUB SWAP5 SWAP1 SWAP5 MUL SWAP2 SWAP1 SWAP5 SUB SWAP3 SWAP1 SWAP3 DIV SWAP2 SWAP1 SWAP2 OR SWAP2 SWAP1 SWAP2 MUL SWAP2 POP POP SWAP4 SWAP3 POP POP POP JUMP JUMPDEST PUSH1 0x1 PUSH1 0x1 PUSH1 0xA0 SHL SUB DUP2 AND DUP2 EQ PUSH2 0x839 JUMPI PUSH0 PUSH0 REVERT JUMPDEST PUSH0 PUSH1 0x20 DUP3 DUP5 SUB SLT ISZERO PUSH2 0x1ACF JUMPI PUSH0 PUSH0 REVERT JUMPDEST DUP2 CALLDATALOAD PUSH2 0x134D DUP2 PUSH2 0x1AAB JUMP JUMPDEST PUSH1 0xFF DUP2 AND DUP2 EQ PUSH2 0x839 JUMPI PUSH0 PUSH0 REVERT JUMPDEST PUSH0 PUSH0 PUSH0 PUSH0 PUSH0 PUSH1 0xA0 DUP7 DUP9 SUB SLT ISZERO PUSH2 0x1AFC JUMPI PUSH0 PUSH0 REVERT JUMPDEST DUP6 CALLDATALOAD PUSH2 0x1B07 DUP2 PUSH2 0x1AAB JUMP JUMPDEST SWAP5 POP PUSH1 0x20 DUP7 ADD CALLDATALOAD PUSH2 0x1B17 DUP2 PUSH2 0x1AAB JUMP JUMPDEST SWAP4 POP PUSH1 0x40 DUP7 ADD CALLDATALOAD PUSH2 0x1B27 DUP2 PUSH2 0x1AAB JUMP JUMPDEST SWAP3 POP PUSH1 0x60 DUP7 ADD CALLDATALOAD PUSH2 0x1B37 DUP2 PUSH2 0x1ADA JUMP JUMPDEST SWAP2 POP PUSH1 0x80 DUP7 ADD CALLDATALOAD PUSH2 0x1B47 DUP2 PUSH2 0x1ADA JUMP JUMPDEST DUP1 SWAP2 POP POP SWAP3 SWAP6 POP SWAP3 SWAP6 SWAP1 SWAP4 POP JUMP JUMPDEST DUP1 ISZERO ISZERO DUP2 EQ PUSH2 0x839 JUMPI PUSH0 PUSH0 REVERT JUMPDEST PUSH0 PUSH0 PUSH0 PUSH0 PUSH0 PUSH0 PUSH1 0xC0 DUP8 DUP10 SUB SLT ISZERO PUSH2 0x1B77 JUMPI PUSH0 PUSH0 REVERT JUMPDEST DUP7 CALLDATALOAD PUSH2 0x1B82 DUP2 PUSH2 0x1AAB JUMP JUMPDEST SWAP6 POP PUSH1 0x20 DUP8 ADD CALLDATALOAD PUSH2 0x1B92 DUP2 PUSH2 0x1AAB JUMP JUMPDEST SWAP5 POP PUSH1 0x40 DUP8 ADD CALLDATALOAD PUSH2 0x1BA2 DUP2 PUSH2 0x1AAB JUMP JUMPDEST SWAP4 POP PUSH1 0x60 DUP8 ADD CALLDATALOAD PUSH2 0x1BB2 DUP2 PUSH2 0x1B55 JUMP JUMPDEST SWAP3 POP PUSH1 0x80 DUP8 ADD CALLDATALOAD PUSH2 0x1BC2 DUP2 PUSH2 0x1ADA JUMP JUMPDEST SWAP2 POP PUSH1 0xA0 DUP8 ADD CALLDATALOAD PUSH2 0x1BD2 DUP2 PUSH2 0x1B55 JUMP JUMPDEST DUP1 SWAP2 POP POP SWAP3 SWAP6 POP SWAP3 SWAP6 POP SWAP3 SWAP6 JUMP JUMPDEST PUSH0 PUSH1 0x20 DUP3 DUP5 SUB SLT ISZERO PUSH2 0x1BF0 JUMPI PUSH0 PUSH0 REVERT JUMPDEST DUP2 MLOAD PUSH2 0x134D DUP2 PUSH2 0x1AAB JUMP JUMPDEST PUSH4 0x4E487B71 PUSH1 0xE0 SHL PUSH0 MSTORE PUSH1 0x11 PUSH1 0x4 MSTORE PUSH1 0x24 PUSH0 REVERT JUMPDEST DUP1 DUP3 ADD DUP1 DUP3 GT ISZERO PUSH2 0x1399 JUMPI PUSH2 0x1399 PUSH2 0x1BFB JUMP JUMPDEST PUSH4 0x4E487B71 PUSH1 0xE0 SHL PUSH0 MSTORE PUSH1 0x12 PUSH1 0x4 MSTORE PUSH1 0x24 PUSH0 REVERT JUMPDEST PUSH0 DUP3 PUSH2 0x1C50 JUMPI PUSH4 0x4E487B71 PUSH1 0xE0 SHL PUSH0 MSTORE PUSH1 0x12 PUSH1 0x4 MSTORE PUSH1 0x24 PUSH0 REVERT JUMPDEST POP DIV SWAP1 JUMP JUMPDEST PUSH0 JUMPDEST DUP4 DUP2 LT ISZERO PUSH2 0x1C6F JUMPI DUP2 DUP2 ADD MLOAD DUP4 DUP3 ADD MSTORE PUSH1 0x20 ADD PUSH2 0x1C57 JUMP JUMPDEST POP POP PUSH0 SWAP2 ADD MSTORE JUMP JUMPDEST PUSH0 DUP3 MLOAD PUSH2 0x1C88 DUP2 DUP5 PUSH1 0x20 DUP8 ADD PUSH2 0x1C55 JUMP JUMPDEST SWAP2 SWAP1 SWAP2 ADD SWAP3 SWAP2 POP POP JUMP JUMPDEST DUP1 MLOAD PUSH10 0xFFFFFFFFFFFFFFFFFFFF DUP2 AND DUP2 EQ PUSH2 0x1CAB JUMPI PUSH0 PUSH0 REVERT JUMPDEST SWAP2 SWAP1 POP JUMP JUMPDEST PUSH0 PUSH0 PUSH0 PUSH0 PUSH0 PUSH1 0xA0 DUP7 DUP9 SUB SLT ISZERO PUSH2 0x1CC4 JUMPI PUSH0 PUSH0 REVERT JUMPDEST PUSH2 0x1CCD DUP7 PUSH2 0x1C92 JUMP JUMPDEST PUSH1 0x20 DUP8 ADD MLOAD PUSH1 0x40 DUP9 ADD MLOAD PUSH1 0x60 DUP10 ADD MLOAD SWAP3 SWAP8 POP SWAP1 SWAP6 POP SWAP4 POP SWAP2 POP PUSH2 0x1CF2 PUSH1 0x80 DUP8 ADD PUSH2 0x1C92 JUMP JUMPDEST SWAP1 POP SWAP3 SWAP6 POP SWAP3 SWAP6 SWAP1 SWAP4 POP JUMP JUMPDEST PUSH0 PUSH1 0x20 DUP3 DUP5 SUB SLT ISZERO PUSH2 0x1D0E JUMPI PUSH0 PUSH0 REVERT JUMPDEST DUP2 MLOAD PUSH2 0x134D DUP2 PUSH2 0x1ADA JUMP JUMPDEST PUSH0 PUSH1 0x20 DUP3 DUP5 SUB SLT ISZERO PUSH2 0x1D29 JUMPI PUSH0 PUSH0 REVERT JUMPDEST POP MLOAD SWAP2 SWAP1 POP JUMP JUMPDEST PUSH1 0x20 DUP2 MSTORE PUSH0 DUP3 MLOAD DUP1 PUSH1 0x20 DUP5 ADD MSTORE PUSH2 0x1D4E DUP2 PUSH1 0x40 DUP6 ADD PUSH1 0x20 DUP8 ADD PUSH2 0x1C55 JUMP JUMPDEST PUSH1 0x1F ADD PUSH1 0x1F NOT AND SWAP2 SWAP1 SWAP2 ADD PUSH1 0x40 ADD SWAP3 SWAP2 POP POP JUMP JUMPDEST DUP1 MLOAD PUSH2 0x1CAB DUP2 PUSH2 0x1AAB JUMP JUMPDEST DUP1 MLOAD PUSH3 0xFFFFFF DUP2 AND DUP2 EQ PUSH2 0x1CAB JUMPI PUSH0 PUSH0 REVERT JUMPDEST DUP1 MLOAD PUSH1 0x2 DUP2 SWAP1 SIGNEXTEND DUP2 EQ PUSH2 0x1CAB JUMPI PUSH0 PUSH0 REVERT JUMPDEST DUP1 MLOAD PUSH1 0x1 PUSH1 0x1 PUSH1 0x80 SHL SUB DUP2 AND DUP2 EQ PUSH2 0x1CAB JUMPI PUSH0 PUSH0 REVERT JUMPDEST PUSH0 PUSH0 PUSH0 PUSH0 PUSH0 PUSH0 PUSH0 PUSH0 PUSH0 PUSH0 PUSH0 PUSH0 PUSH2 0x180 DUP14 DUP16 SUB SLT ISZERO PUSH2 0x1DC2 JUMPI PUSH0 PUSH0 REVERT JUMPDEST DUP13 MLOAD PUSH12 0xFFFFFFFFFFFFFFFFFFFFFFFF DUP2 AND DUP2 EQ PUSH2 0x1DDD JUMPI PUSH0 PUSH0 REVERT JUMPDEST SWAP12 POP PUSH2 0x1DEB PUSH1 0x20 DUP15 ADD PUSH2 0x1D62 JUMP JUMPDEST SWAP11 POP PUSH2 0x1DF9 PUSH1 0x40 DUP15 ADD PUSH2 0x1D62 JUMP JUMPDEST SWAP10 POP PUSH2 0x1E07 PUSH1 0x60 DUP15 ADD PUSH2 0x1D62 JUMP JUMPDEST SWAP9 POP PUSH2 0x1E15 PUSH1 0x80 DUP15 ADD PUSH2 0x1D6D JUMP JUMPDEST SWAP8 POP PUSH2 0x1E23 PUSH1 0xA0 DUP15 ADD PUSH2 0x1D7F JUMP JUMPDEST SWAP7 POP PUSH2 0x1E31 PUSH1 0xC0 DUP15 ADD PUSH2 0x1D7F JUMP JUMPDEST SWAP6 POP PUSH2 0x1E3F PUSH1 0xE0 DUP15 ADD PUSH2 0x1D90 JUMP JUMPDEST PUSH2 0x100 DUP15 ADD MLOAD PUSH2 0x120 DUP16 ADD MLOAD SWAP2 SWAP7 POP SWAP5 POP SWAP3 POP PUSH2 0x1E5F PUSH2 0x140 DUP15 ADD PUSH2 0x1D90 JUMP JUMPDEST SWAP2 POP PUSH2 0x1E6E PUSH2 0x160 DUP15 ADD PUSH2 0x1D90 JUMP JUMPDEST SWAP1 POP SWAP3 SWAP6 SWAP9 SWAP12 POP SWAP3 SWAP6 SWAP9 SWAP12 POP SWAP3 SWAP6 SWAP9 SWAP12 JUMP JUMPDEST DUP1 MLOAD PUSH2 0xFFFF DUP2 AND DUP2 EQ PUSH2 0x1CAB JUMPI PUSH0 PUSH0 REVERT JUMPDEST PUSH0 PUSH0 PUSH0 PUSH0 PUSH0 PUSH0 PUSH0 PUSH1 0xE0 DUP9 DUP11 SUB SLT ISZERO PUSH2 0x1EA7 JUMPI PUSH0 PUSH0 REVERT JUMPDEST DUP8 MLOAD PUSH2 0x1EB2 DUP2 PUSH2 0x1AAB JUMP JUMPDEST SWAP7 POP PUSH2 0x1EC0 PUSH1 0x20 DUP10 ADD PUSH2 0x1D7F JUMP JUMPDEST SWAP6 POP PUSH2 0x1ECE PUSH1 0x40 DUP10 ADD PUSH2 0x1E80 JUMP JUMPDEST SWAP5 POP PUSH2 0x1EDC PUSH1 0x60 DUP10 ADD PUSH2 0x1E80 JUMP JUMPDEST SWAP4 POP PUSH2 0x1EEA PUSH1 0x80 DUP10 ADD PUSH2 0x1E80 JUMP JUMPDEST SWAP3 POP PUSH1 0xA0 DUP9 ADD MLOAD PUSH2 0x1EFA DUP2 PUSH2 0x1ADA JUMP JUMPDEST PUSH1 0xC0 DUP10 ADD MLOAD SWAP1 SWAP3 POP PUSH2 0x1F0B DUP2 PUSH2 0x1B55 JUMP JUMPDEST DUP1 SWAP2 POP POP SWAP3 SWAP6 SWAP9 SWAP2 SWAP5 SWAP8 POP SWAP3 SWAP6 POP JUMP JUMPDEST PUSH4 0x4E487B71 PUSH1 0xE0 SHL PUSH0 MSTORE PUSH1 0x41 PUSH1 0x4 MSTORE PUSH1 0x24 PUSH0 REVERT JUMPDEST PUSH0 PUSH1 0x20 DUP3 DUP5 SUB SLT ISZERO PUSH2 0x1F3F JUMPI PUSH0 PUSH0 REVERT JUMPDEST DUP2 MLOAD PUSH8 0xFFFFFFFFFFFFFFFF DUP2 GT ISZERO PUSH2 0x1F55 JUMPI PUSH0 PUSH0 REVERT JUMPDEST DUP3 ADD PUSH1 0x1F DUP2 ADD DUP5 SGT PUSH2 0x1F65 JUMPI PUSH0 PUSH0 REVERT JUMPDEST DUP1 MLOAD PUSH8 0xFFFFFFFFFFFFFFFF DUP2 GT ISZERO PUSH2 0x1F7F JUMPI PUSH2 0x1F7F PUSH2 0x1F1B JUMP JUMPDEST PUSH1 0x40 MLOAD PUSH1 0x1F DUP3 ADD PUSH1 0x1F NOT SWAP1 DUP2 AND PUSH1 0x3F ADD AND DUP2 ADD PUSH8 0xFFFFFFFFFFFFFFFF DUP2 GT DUP3 DUP3 LT OR ISZERO PUSH2 0x1FAE JUMPI PUSH2 0x1FAE PUSH2 0x1F1B JUMP JUMPDEST PUSH1 0x40 MSTORE DUP2 DUP2 MSTORE DUP3 DUP3 ADD PUSH1 0x20 ADD DUP7 LT ISZERO PUSH2 0x1FC5 JUMPI PUSH0 PUSH0 REVERT JUMPDEST PUSH2 0x1FD6 DUP3 PUSH1 0x20 DUP4 ADD PUSH1 0x20 DUP7 ADD PUSH2 0x1C55 JUMP JUMPDEST SWAP6 SWAP5 POP POP POP POP POP JUMP JUMPDEST PUSH0 DUP2 PUSH1 0x2 SIGNEXTEND PUSH3 0x7FFFFF NOT DUP2 SUB PUSH2 0x1FF7 JUMPI PUSH2 0x1FF7 PUSH2 0x1BFB JUMP JUMPDEST PUSH0 SUB SWAP3 SWAP2 POP POP JUMP JUMPDEST DUP1 DUP3 MUL DUP2 ISZERO DUP3 DUP3 DIV DUP5 EQ OR PUSH2 0x1399 JUMPI PUSH2 0x1399 PUSH2 0x1BFB JUMP JUMPDEST PUSH1 0x1 DUP2 JUMPDEST PUSH1 0x1 DUP5 GT ISZERO PUSH2 0x2051 JUMPI DUP1 DUP6 DIV DUP2 GT ISZERO PUSH2 0x2035 JUMPI PUSH2 0x2035 PUSH2 0x1BFB JUMP JUMPDEST PUSH1 0x1 DUP5 AND ISZERO PUSH2 0x2043 JUMPI SWAP1 DUP2 MUL SWAP1 JUMPDEST PUSH1 0x1 SWAP4 SWAP1 SWAP4 SHR SWAP3 DUP1 MUL PUSH2 0x201A JUMP JUMPDEST SWAP4 POP SWAP4 SWAP2 POP POP JUMP JUMPDEST PUSH0 DUP3 PUSH2 0x2067 JUMPI POP PUSH1 0x1 PUSH2 0x1399 JUMP JUMPDEST DUP2 PUSH2 0x2073 JUMPI POP PUSH0 PUSH2 0x1399 JUMP JUMPDEST DUP2 PUSH1 0x1 DUP2 EQ PUSH2 0x2089 JUMPI PUSH1 0x2 DUP2 EQ PUSH2 0x2093 JUMPI PUSH2 0x20AF JUMP JUMPDEST PUSH1 0x1 SWAP2 POP POP PUSH2 0x1399 JUMP JUMPDEST PUSH1 0xFF DUP5 GT ISZERO PUSH2 0x20A4 JUMPI PUSH2 0x20A4 PUSH2 0x1BFB JUMP JUMPDEST POP POP PUSH1 0x1 DUP3 SHL PUSH2 0x1399 JUMP JUMPDEST POP PUSH1 0x20 DUP4 LT PUSH2 0x133 DUP4 LT AND PUSH1 0x4E DUP5 LT PUSH1 0xB DUP5 LT AND OR ISZERO PUSH2 0x20D2 JUMPI POP DUP2 DUP2 EXP PUSH2 0x1399 JUMP JUMPDEST PUSH2 0x20DE PUSH0 NOT DUP5 DUP5 PUSH2 0x2016 JUMP JUMPDEST DUP1 PUSH0 NOT DIV DUP3 GT ISZERO PUSH2 0x20F1 JUMPI PUSH2 0x20F1 PUSH2 0x1BFB JUMP JUMPDEST MUL SWAP4 SWAP3 POP POP POP JUMP JUMPDEST PUSH0 PUSH2 0x134D PUSH1 0xFF DUP5 AND DUP4 PUSH2 0x2059 JUMP INVALID 0x4F PUSH19 0x61636C654D616E616765723A2063616C6C2072 PUSH6 0x766572746564 KECCAK256 PUSH24 0x2F6F206D7367A26469706673582212203CF387091B36C8CE SWAP9 PUSH29 0xDEE3FB289EA4D9E0D4E66F345E8A87AB8F4CEC6F8DE464736F6C634300 ADDMOD SHR STOP CALLER "
				},
				"gasEstimates": {
					"creation": {
						"codeDepositCost": "1709000",
						"executionCost": "infinite",
						"totalCost": "infinite"
					},
					"external": {
						"getPrice(address)": "infinite",
						"oracleConfigs(address)": "4864",
						"owner()": "2299",
						"renounceOwnership()": "infinite",
						"setOracleConfig(address,address,address,bool,uint8,bool)": "infinite",
						"setVaultUnderlyingFeeds(address,address,address,uint8,uint8)": "infinite",
						"transferOwnership(address)": "infinite",
						"vaultFeeds(address)": "4932"
					},
					"internal": {
						"_computeLiquidityAmounts(uint160,int24,int24,uint128)": "infinite",
						"_computeVaultTokenPrice(address,struct OracleManager.VaultUnderlyingFeeds memory)": "infinite",
						"_convertToAggregatorValue(uint256,address,uint8)": "infinite",
						"_convertVaultTokensToValue(uint256,uint256,struct OracleManager.AggregatorPair memory)": "infinite",
						"_fetchPositionData(address,uint256)": "infinite",
						"_fetchVaultInfo(address)": "infinite",
						"_getPoolSqrtAndTick(address)": "infinite",
						"_getPriceFromConfig(struct OracleManager.OracleData memory)": "infinite",
						"_getRevertMsg(bytes memory)": "infinite",
						"_tryGetChainlinkPrice(address,uint8)": "infinite"
					}
				},
				"methodIdentifiers": {
					"getPrice(address)": "41976e09",
					"oracleConfigs(address)": "067a4b06",
					"owner()": "8da5cb5b",
					"renounceOwnership()": "715018a6",
					"setOracleConfig(address,address,address,bool,uint8,bool)": "f2ac1ec5",
					"setVaultUnderlyingFeeds(address,address,address,uint8,uint8)": "9b05fc75",
					"transferOwnership(address)": "f2fde38b",
					"vaultFeeds(address)": "7f4a3102"
				}
			},
			"storageLayout": {
				"storage": [
					{
						"astId": 1640,
						"contract": "Contracts/OracleManager.sol:OracleManager",
						"label": "_owner",
						"offset": 0,
						"slot": "0",
						"type": "t_address"
					},
					{
						"astId": 689,
						"contract": "Contracts/OracleManager.sol:OracleManager",
						"label": "oracleConfigs",
						"offset": 0,
						"slot": "1",
						"type": "t_mapping(t_address,t_struct(OracleData)673_storage)"
					},
					{
						"astId": 694,
						"contract": "Contracts/OracleManager.sol:OracleManager",
						"label": "vaultFeeds",
						"offset": 0,
						"slot": "2",
						"type": "t_mapping(t_address,t_struct(VaultUnderlyingFeeds)684_storage)"
					}
				],
				"types": {
					"t_address": {
						"encoding": "inplace",
						"label": "address",
						"numberOfBytes": "20"
					},
					"t_bool": {
						"encoding": "inplace",
						"label": "bool",
						"numberOfBytes": "1"
					},
					"t_mapping(t_address,t_struct(OracleData)673_storage)": {
						"encoding": "mapping",
						"key": "t_address",
						"label": "mapping(address => struct OracleManager.OracleData)",
						"numberOfBytes": "32",
						"value": "t_struct(OracleData)673_storage"
					},
					"t_mapping(t_address,t_struct(VaultUnderlyingFeeds)684_storage)": {
						"encoding": "mapping",
						"key": "t_address",
						"label": "mapping(address => struct OracleManager.VaultUnderlyingFeeds)",
						"numberOfBytes": "32",
						"value": "t_struct(VaultUnderlyingFeeds)684_storage"
					},
					"t_struct(OracleData)673_storage": {
						"encoding": "inplace",
						"label": "struct OracleManager.OracleData",
						"members": [
							{
								"astId": 664,
								"contract": "Contracts/OracleManager.sol:OracleManager",
								"label": "primaryAggregator",
								"offset": 0,
								"slot": "0",
								"type": "t_address"
							},
							{
								"astId": 666,
								"contract": "Contracts/OracleManager.sol:OracleManager",
								"label": "fallbackAggregator",
								"offset": 0,
								"slot": "1",
								"type": "t_address"
							},
							{
								"astId": 668,
								"contract": "Contracts/OracleManager.sol:OracleManager",
								"label": "useFallbackIfError",
								"offset": 20,
								"slot": "1",
								"type": "t_bool"
							},
							{
								"astId": 670,
								"contract": "Contracts/OracleManager.sol:OracleManager",
								"label": "decimalsOverride",
								"offset": 21,
								"slot": "1",
								"type": "t_uint8"
							},
							{
								"astId": 672,
								"contract": "Contracts/OracleManager.sol:OracleManager",
								"label": "isVaultToken",
								"offset": 22,
								"slot": "1",
								"type": "t_bool"
							}
						],
						"numberOfBytes": "64"
					},
					"t_struct(VaultUnderlyingFeeds)684_storage": {
						"encoding": "inplace",
						"label": "struct OracleManager.VaultUnderlyingFeeds",
						"members": [
							{
								"astId": 675,
								"contract": "Contracts/OracleManager.sol:OracleManager",
								"label": "token0Aggregator",
								"offset": 0,
								"slot": "0",
								"type": "t_address"
							},
							{
								"astId": 677,
								"contract": "Contracts/OracleManager.sol:OracleManager",
								"label": "token1Aggregator",
								"offset": 0,
								"slot": "1",
								"type": "t_address"
							},
							{
								"astId": 679,
								"contract": "Contracts/OracleManager.sol:OracleManager",
								"label": "token0Decimals",
								"offset": 20,
								"slot": "1",
								"type": "t_uint8"
							},
							{
								"astId": 681,
								"contract": "Contracts/OracleManager.sol:OracleManager",
								"label": "token1Decimals",
								"offset": 21,
								"slot": "1",
								"type": "t_uint8"
							},
							{
								"astId": 683,
								"contract": "Contracts/OracleManager.sol:OracleManager",
								"label": "exists",
								"offset": 22,
								"slot": "1",
								"type": "t_bool"
							}
						],
						"numberOfBytes": "64"
					},
					"t_uint8": {
						"encoding": "inplace",
						"label": "uint8",
						"numberOfBytes": "1"
					}
				}
			},
			"userdoc": {
				"kind": "user",
				"methods": {},
				"version": 1
			}
		}
	}
}