{
	"Contracts/Timelock.sol": {
		"TimeLock": {
			"abi": [
				{
					"inputs": [
						{
							"internalType": "address",
							"name": "initialOwner",
							"type": "address"
						},
						{
							"internalType": "uint256",
							"name": "_delay",
							"type": "uint256"
						},
						{
							"internalType": "uint256",
							"name": "_gracePeriod",
							"type": "uint256"
						}
					],
					"stateMutability": "nonpayable",
					"type": "constructor"
				},
				{
					"inputs": [
						{
							"internalType": "address",
							"name": "owner",
							"type": "address"
						}
					],
					"name": "OwnableInvalidOwner",
					"type": "error"
				},
				{
					"inputs": [
						{
							"internalType": "address",
							"name": "account",
							"type": "address"
						}
					],
					"name": "OwnableUnauthorizedAccount",
					"type": "error"
				},
				{
					"anonymous": false,
					"inputs": [
						{
							"indexed": true,
							"internalType": "address",
							"name": "previousOwner",
							"type": "address"
						},
						{
							"indexed": true,
							"internalType": "address",
							"name": "newOwner",
							"type": "address"
						}
					],
					"name": "OwnershipTransferred",
					"type": "event"
				},
				{
					"anonymous": false,
					"inputs": [
						{
							"indexed": true,
							"internalType": "bytes32",
							"name": "requestId",
							"type": "bytes32"
						}
					],
					"name": "UpgradeCanceled",
					"type": "event"
				},
				{
					"anonymous": false,
					"inputs": [
						{
							"indexed": true,
							"internalType": "bytes32",
							"name": "requestId",
							"type": "bytes32"
						}
					],
					"name": "UpgradeExecuted",
					"type": "event"
				},
				{
					"anonymous": false,
					"inputs": [
						{
							"indexed": true,
							"internalType": "bytes32",
							"name": "requestId",
							"type": "bytes32"
						},
						{
							"indexed": false,
							"internalType": "address",
							"name": "target",
							"type": "address"
						},
						{
							"indexed": false,
							"internalType": "address",
							"name": "implementation",
							"type": "address"
						},
						{
							"indexed": false,
							"internalType": "uint256",
							"name": "executeTime",
							"type": "uint256"
						}
					],
					"name": "UpgradeQueued",
					"type": "event"
				},
				{
					"inputs": [
						{
							"internalType": "bytes32",
							"name": "requestId",
							"type": "bytes32"
						}
					],
					"name": "cancelUpgrade",
					"outputs": [],
					"stateMutability": "nonpayable",
					"type": "function"
				},
				{
					"inputs": [],
					"name": "delay",
					"outputs": [
						{
							"internalType": "uint256",
							"name": "",
							"type": "uint256"
						}
					],
					"stateMutability": "view",
					"type": "function"
				},
				{
					"inputs": [
						{
							"internalType": "bytes32",
							"name": "requestId",
							"type": "bytes32"
						}
					],
					"name": "executeUpgrade",
					"outputs": [],
					"stateMutability": "nonpayable",
					"type": "function"
				},
				{
					"inputs": [
						{
							"internalType": "address",
							"name": "target",
							"type": "address"
						},
						{
							"internalType": "address",
							"name": "newImplementation",
							"type": "address"
						}
					],
					"name": "getRequestId",
					"outputs": [
						{
							"internalType": "bytes32",
							"name": "",
							"type": "bytes32"
						}
					],
					"stateMutability": "view",
					"type": "function"
				},
				{
					"inputs": [],
					"name": "gracePeriod",
					"outputs": [
						{
							"internalType": "uint256",
							"name": "",
							"type": "uint256"
						}
					],
					"stateMutability": "view",
					"type": "function"
				},
				{
					"inputs": [],
					"name": "owner",
					"outputs": [
						{
							"internalType": "address",
							"name": "",
							"type": "address"
						}
					],
					"stateMutability": "view",
					"type": "function"
				},
				{
					"inputs": [
						{
							"internalType": "address",
							"name": "targetContract",
							"type": "address"
						},
						{
							"internalType": "address",
							"name": "newImplementation",
							"type": "address"
						}
					],
					"name": "queueUpgrade",
					"outputs": [
						{
							"internalType": "bytes32",
							"name": "",
							"type": "bytes32"
						}
					],
					"stateMutability": "nonpayable",
					"type": "function"
				},
				{
					"inputs": [],
					"name": "renounceOwnership",
					"outputs": [],
					"stateMutability": "nonpayable",
					"type": "function"
				},
				{
					"inputs": [
						{
							"internalType": "bytes32",
							"name": "",
							"type": "bytes32"
						}
					],
					"name": "requests",
					"outputs": [
						{
							"internalType": "address",
							"name": "targetContract",
							"type": "address"
						},
						{
							"internalType": "address",
							"name": "newImplementation",
							"type": "address"
						},
						{
							"internalType": "uint256",
							"name": "earliestExecuteTime",
							"type": "uint256"
						},
						{
							"internalType": "bool",
							"name": "executed",
							"type": "bool"
						},
						{
							"internalType": "bool",
							"name": "canceled",
							"type": "bool"
						}
					],
					"stateMutability": "view",
					"type": "function"
				},
				{
					"inputs": [
						{
							"internalType": "uint256",
							"name": "newDelay",
							"type": "uint256"
						}
					],
					"name": "setDelay",
					"outputs": [],
					"stateMutability": "nonpayable",
					"type": "function"
				},
				{
					"inputs": [
						{
							"internalType": "uint256",
							"name": "newGrace",
							"type": "uint256"
						}
					],
					"name": "setGracePeriod",
					"outputs": [],
					"stateMutability": "nonpayable",
					"type": "function"
				},
				{
					"inputs": [
						{
							"internalType": "address",
							"name": "newOwner",
							"type": "address"
						}
					],
					"name": "transferOwnership",
					"outputs": [],
					"stateMutability": "nonpayable",
					"type": "function"
				}
			],
			"devdoc": {
				"errors": {
					"OwnableInvalidOwner(address)": [
						{
							"details": "The owner is not a valid owner account. (eg. `address(0)`)"
						}
					],
					"OwnableUnauthorizedAccount(address)": [
						{
							"details": "The caller account is not authorized to perform an operation."
						}
					]
				},
				"events": {
					"UpgradeCanceled(bytes32)": {
						"details": "Emitted when an upgrade request is canceled."
					},
					"UpgradeExecuted(bytes32)": {
						"details": "Emitted when an upgrade request is successfully executed."
					},
					"UpgradeQueued(bytes32,address,address,uint256)": {
						"details": "Emitted when a new upgrade request is queued."
					}
				},
				"kind": "dev",
				"methods": {
					"cancelUpgrade(bytes32)": {
						"params": {
							"requestId": "The ID of the request to cancel."
						}
					},
					"constructor": {
						"params": {
							"_delay": "The mandatory wait time before execution.",
							"_gracePeriod": "The time window after _delay during which the operation remains valid.",
							"initialOwner": "The owner of this timelock (e.g. a DAO or admin)."
						}
					},
					"executeUpgrade(bytes32)": {
						"params": {
							"requestId": "The ID of the request."
						}
					},
					"getRequestId(address,address)": {
						"details": "Creates an ID for an upgrade request based on the target contract, newImplementation,      and the current block timestamp (to differentiate repeated requests)."
					},
					"owner()": {
						"details": "Returns the address of the current owner."
					},
					"queueUpgrade(address,address)": {
						"params": {
							"newImplementation": "The new logic contract address.",
							"targetContract": "The proxy contract to upgrade."
						},
						"returns": {
							"_0": "requestId        The unique ID of the scheduled operation."
						}
					},
					"renounceOwnership()": {
						"details": "Leaves the contract without owner. It will not be possible to call `onlyOwner` functions. Can only be called by the current owner. NOTE: Renouncing ownership will leave the contract without an owner, thereby disabling any functionality that is only available to the owner."
					},
					"setDelay(uint256)": {
						"params": {
							"newDelay": "The new mandatory wait time in seconds."
						}
					},
					"setGracePeriod(uint256)": {
						"params": {
							"newGrace": "The new grace period in seconds."
						}
					},
					"transferOwnership(address)": {
						"details": "Transfers ownership of the contract to a new account (`newOwner`). Can only be called by the current owner."
					}
				},
				"stateVariables": {
					"delay": {
						"details": "The minimum wait time between scheduling an operation and executing it."
					},
					"gracePeriod": {
						"details": "After `earliestExecuteTime + gracePeriod` passes, the operation expires."
					},
					"requests": {
						"details": "A mapping of requestId => UpgradeRequest data."
					}
				},
				"title": "TimeLock",
				"version": 1
			},
			"evm": {
				"assembly": "    /* \"Contracts/Timelock.sol\":893:6793  contract TimeLock is Ownable {... */\n  mstore(0x40, 0x80)\n    /* \"Contracts/Timelock.sol\":2709:2942  constructor(address initialOwner, uint256 _delay, uint256 _gracePeriod) Ownable(initialOwner) {... */\n  callvalue\n  dup1\n  iszero\n  tag_1\n  jumpi\n  revert(0x00, 0x00)\ntag_1:\n  pop\n  mload(0x40)\n  sub(codesize, bytecodeSize)\n  dup1\n  bytecodeSize\n  dup4\n  codecopy\n  dup2\n  dup2\n  add\n  0x40\n  mstore\n  dup2\n  add\n  swap1\n  tag_2\n  swap2\n  swap1\n  tag_3\n  jump\t// in\ntag_2:\n    /* \"Contracts/Timelock.sol\":2789:2801  initialOwner */\n  dup3\n    /* \"@openzeppelin/contracts/access/Ownable.sol\":1297:1298  0 */\n  0x00\n    /* \"@openzeppelin/contracts/access/Ownable.sol\":1273:1299  initialOwner == address(0) */\n  0xffffffffffffffffffffffffffffffffffffffff\n  and\n    /* \"@openzeppelin/contracts/access/Ownable.sol\":1273:1285  initialOwner */\n  dup2\n    /* \"@openzeppelin/contracts/access/Ownable.sol\":1273:1299  initialOwner == address(0) */\n  0xffffffffffffffffffffffffffffffffffffffff\n  and\n  sub\n    /* \"@openzeppelin/contracts/access/Ownable.sol\":1269:1364  if (initialOwner == address(0)) {... */\n  tag_7\n  jumpi\n    /* \"@openzeppelin/contracts/access/Ownable.sol\":1350:1351  0 */\n  0x00\n    /* \"@openzeppelin/contracts/access/Ownable.sol\":1322:1353  OwnableInvalidOwner(address(0)) */\n  mload(0x40)\n  0x1e4fbdf700000000000000000000000000000000000000000000000000000000\n  dup2\n  mstore\n  0x04\n  add\n  tag_8\n  swap2\n  swap1\n  tag_9\n  jump\t// in\ntag_8:\n  mload(0x40)\n  dup1\n  swap2\n  sub\n  swap1\n  revert\n    /* \"@openzeppelin/contracts/access/Ownable.sol\":1269:1364  if (initialOwner == address(0)) {... */\ntag_7:\n    /* \"@openzeppelin/contracts/access/Ownable.sol\":1373:1405  _transferOwnership(initialOwner) */\n  tag_10\n    /* \"@openzeppelin/contracts/access/Ownable.sol\":1392:1404  initialOwner */\n  dup2\n    /* \"@openzeppelin/contracts/access/Ownable.sol\":1373:1391  _transferOwnership */\n  shl(0x20, tag_11)\n    /* \"@openzeppelin/contracts/access/Ownable.sol\":1373:1405  _transferOwnership(initialOwner) */\n  0x20\n  shr\n  jump\t// in\ntag_10:\n    /* \"@openzeppelin/contracts/access/Ownable.sol\":1225:1412  constructor(address initialOwner) {... */\n  pop\n    /* \"Contracts/Timelock.sol\":2836:2837  0 */\n  0x00\n    /* \"Contracts/Timelock.sol\":2821:2833  _gracePeriod */\n  dup2\n    /* \"Contracts/Timelock.sol\":2821:2837  _gracePeriod > 0 */\n  gt\n    /* \"Contracts/Timelock.sol\":2813:2875  require(_gracePeriod > 0, \"TimeLock: gracePeriod must be > 0\") */\n  tag_13\n  jumpi\n  mload(0x40)\n  0x08c379a000000000000000000000000000000000000000000000000000000000\n  dup2\n  mstore\n  0x04\n  add\n  tag_14\n  swap1\n  tag_15\n  jump\t// in\ntag_14:\n  mload(0x40)\n  dup1\n  swap2\n  sub\n  swap1\n  revert\ntag_13:\n    /* \"Contracts/Timelock.sol\":2893:2899  _delay */\n  dup2\n    /* \"Contracts/Timelock.sol\":2885:2890  delay */\n  0x01\n    /* \"Contracts/Timelock.sol\":2885:2899  delay = _delay */\n  dup2\n  swap1\n  sstore\n  pop\n    /* \"Contracts/Timelock.sol\":2923:2935  _gracePeriod */\n  dup1\n    /* \"Contracts/Timelock.sol\":2909:2920  gracePeriod */\n  0x02\n    /* \"Contracts/Timelock.sol\":2909:2935  gracePeriod = _gracePeriod */\n  dup2\n  swap1\n  sstore\n  pop\n    /* \"Contracts/Timelock.sol\":2709:2942  constructor(address initialOwner, uint256 _delay, uint256 _gracePeriod) Ownable(initialOwner) {... */\n  pop\n  pop\n  pop\n    /* \"Contracts/Timelock.sol\":893:6793  contract TimeLock is Ownable {... */\n  jump(tag_16)\n    /* \"@openzeppelin/contracts/access/Ownable.sol\":2912:3099  function _transferOwnership(address newOwner) internal virtual {... */\ntag_11:\n    /* \"@openzeppelin/contracts/access/Ownable.sol\":2985:3001  address oldOwner */\n  0x00\n    /* \"@openzeppelin/contracts/access/Ownable.sol\":3004:3010  _owner */\n  0x00\n  0x00\n  swap1\n  sload\n  swap1\n  0x0100\n  exp\n  swap1\n  div\n  0xffffffffffffffffffffffffffffffffffffffff\n  and\n    /* \"@openzeppelin/contracts/access/Ownable.sol\":2985:3010  address oldOwner = _owner */\n  swap1\n  pop\n    /* \"@openzeppelin/contracts/access/Ownable.sol\":3029:3037  newOwner */\n  dup2\n    /* \"@openzeppelin/contracts/access/Ownable.sol\":3020:3026  _owner */\n  0x00\n  0x00\n    /* \"@openzeppelin/contracts/access/Ownable.sol\":3020:3037  _owner = newOwner */\n  0x0100\n  exp\n  dup2\n  sload\n  dup2\n  0xffffffffffffffffffffffffffffffffffffffff\n  mul\n  not\n  and\n  swap1\n  dup4\n  0xffffffffffffffffffffffffffffffffffffffff\n  and\n  mul\n  or\n  swap1\n  sstore\n  pop\n    /* \"@openzeppelin/contracts/access/Ownable.sol\":3083:3091  newOwner */\n  dup2\n    /* \"@openzeppelin/contracts/access/Ownable.sol\":3052:3092  OwnershipTransferred(oldOwner, newOwner) */\n  0xffffffffffffffffffffffffffffffffffffffff\n  and\n    /* \"@openzeppelin/contracts/access/Ownable.sol\":3073:3081  oldOwner */\n  dup2\n    /* \"@openzeppelin/contracts/access/Ownable.sol\":3052:3092  OwnershipTransferred(oldOwner, newOwner) */\n  0xffffffffffffffffffffffffffffffffffffffff\n  and\n  0x8be0079c531659141344cd1fd0a4f28419497f9722a3daafe3b4186f6b6457e0\n  mload(0x40)\n  mload(0x40)\n  dup1\n  swap2\n  sub\n  swap1\n  log3\n    /* \"@openzeppelin/contracts/access/Ownable.sol\":2975:3099  {... */\n  pop\n    /* \"@openzeppelin/contracts/access/Ownable.sol\":2912:3099  function _transferOwnership(address newOwner) internal virtual {... */\n  pop\n  jump\t// out\n    /* \"#utility.yul\":88:205   */\ntag_19:\n    /* \"#utility.yul\":197:198   */\n  0x00\n    /* \"#utility.yul\":194:195   */\n  0x00\n    /* \"#utility.yul\":187:199   */\n  revert\n    /* \"#utility.yul\":334:460   */\ntag_21:\n    /* \"#utility.yul\":371:378   */\n  0x00\n    /* \"#utility.yul\":411:453   */\n  0xffffffffffffffffffffffffffffffffffffffff\n    /* \"#utility.yul\":404:409   */\n  dup3\n    /* \"#utility.yul\":400:454   */\n  and\n    /* \"#utility.yul\":389:454   */\n  swap1\n  pop\n    /* \"#utility.yul\":334:460   */\n  swap2\n  swap1\n  pop\n  jump\t// out\n    /* \"#utility.yul\":466:562   */\ntag_22:\n    /* \"#utility.yul\":503:510   */\n  0x00\n    /* \"#utility.yul\":532:556   */\n  tag_38\n    /* \"#utility.yul\":550:555   */\n  dup3\n    /* \"#utility.yul\":532:556   */\n  tag_21\n  jump\t// in\ntag_38:\n    /* \"#utility.yul\":521:556   */\n  swap1\n  pop\n    /* \"#utility.yul\":466:562   */\n  swap2\n  swap1\n  pop\n  jump\t// out\n    /* \"#utility.yul\":568:690   */\ntag_23:\n    /* \"#utility.yul\":641:665   */\n  tag_40\n    /* \"#utility.yul\":659:664   */\n  dup2\n    /* \"#utility.yul\":641:665   */\n  tag_22\n  jump\t// in\ntag_40:\n    /* \"#utility.yul\":634:639   */\n  dup2\n    /* \"#utility.yul\":631:666   */\n  eq\n    /* \"#utility.yul\":621:684   */\n  tag_41\n  jumpi\n    /* \"#utility.yul\":680:681   */\n  0x00\n    /* \"#utility.yul\":677:678   */\n  0x00\n    /* \"#utility.yul\":670:682   */\n  revert\n    /* \"#utility.yul\":621:684   */\ntag_41:\n    /* \"#utility.yul\":568:690   */\n  pop\n  jump\t// out\n    /* \"#utility.yul\":696:839   */\ntag_24:\n    /* \"#utility.yul\":753:758   */\n  0x00\n    /* \"#utility.yul\":784:790   */\n  dup2\n    /* \"#utility.yul\":778:791   */\n  mload\n    /* \"#utility.yul\":769:791   */\n  swap1\n  pop\n    /* \"#utility.yul\":800:833   */\n  tag_43\n    /* \"#utility.yul\":827:832   */\n  dup2\n    /* \"#utility.yul\":800:833   */\n  tag_23\n  jump\t// in\ntag_43:\n    /* \"#utility.yul\":696:839   */\n  swap3\n  swap2\n  pop\n  pop\n  jump\t// out\n    /* \"#utility.yul\":845:922   */\ntag_25:\n    /* \"#utility.yul\":882:889   */\n  0x00\n    /* \"#utility.yul\":911:916   */\n  dup2\n    /* \"#utility.yul\":900:916   */\n  swap1\n  pop\n    /* \"#utility.yul\":845:922   */\n  swap2\n  swap1\n  pop\n  jump\t// out\n    /* \"#utility.yul\":928:1050   */\ntag_26:\n    /* \"#utility.yul\":1001:1025   */\n  tag_46\n    /* \"#utility.yul\":1019:1024   */\n  dup2\n    /* \"#utility.yul\":1001:1025   */\n  tag_25\n  jump\t// in\ntag_46:\n    /* \"#utility.yul\":994:999   */\n  dup2\n    /* \"#utility.yul\":991:1026   */\n  eq\n    /* \"#utility.yul\":981:1044   */\n  tag_47\n  jumpi\n    /* \"#utility.yul\":1040:1041   */\n  0x00\n    /* \"#utility.yul\":1037:1038   */\n  0x00\n    /* \"#utility.yul\":1030:1042   */\n  revert\n    /* \"#utility.yul\":981:1044   */\ntag_47:\n    /* \"#utility.yul\":928:1050   */\n  pop\n  jump\t// out\n    /* \"#utility.yul\":1056:1199   */\ntag_27:\n    /* \"#utility.yul\":1113:1118   */\n  0x00\n    /* \"#utility.yul\":1144:1150   */\n  dup2\n    /* \"#utility.yul\":1138:1151   */\n  mload\n    /* \"#utility.yul\":1129:1151   */\n  swap1\n  pop\n    /* \"#utility.yul\":1160:1193   */\n  tag_49\n    /* \"#utility.yul\":1187:1192   */\n  dup2\n    /* \"#utility.yul\":1160:1193   */\n  tag_26\n  jump\t// in\ntag_49:\n    /* \"#utility.yul\":1056:1199   */\n  swap3\n  swap2\n  pop\n  pop\n  jump\t// out\n    /* \"#utility.yul\":1205:1868   */\ntag_3:\n    /* \"#utility.yul\":1293:1299   */\n  0x00\n    /* \"#utility.yul\":1301:1307   */\n  0x00\n    /* \"#utility.yul\":1309:1315   */\n  0x00\n    /* \"#utility.yul\":1358:1360   */\n  0x60\n    /* \"#utility.yul\":1346:1355   */\n  dup5\n    /* \"#utility.yul\":1337:1344   */\n  dup7\n    /* \"#utility.yul\":1333:1356   */\n  sub\n    /* \"#utility.yul\":1329:1361   */\n  slt\n    /* \"#utility.yul\":1326:1445   */\n  iszero\n  tag_51\n  jumpi\n    /* \"#utility.yul\":1364:1443   */\n  tag_52\n  tag_19\n  jump\t// in\ntag_52:\n    /* \"#utility.yul\":1326:1445   */\ntag_51:\n    /* \"#utility.yul\":1484:1485   */\n  0x00\n    /* \"#utility.yul\":1509:1573   */\n  tag_53\n    /* \"#utility.yul\":1565:1572   */\n  dup7\n    /* \"#utility.yul\":1556:1562   */\n  dup3\n    /* \"#utility.yul\":1545:1554   */\n  dup8\n    /* \"#utility.yul\":1541:1563   */\n  add\n    /* \"#utility.yul\":1509:1573   */\n  tag_24\n  jump\t// in\ntag_53:\n    /* \"#utility.yul\":1499:1573   */\n  swap4\n  pop\n    /* \"#utility.yul\":1455:1583   */\n  pop\n    /* \"#utility.yul\":1622:1624   */\n  0x20\n    /* \"#utility.yul\":1648:1712   */\n  tag_54\n    /* \"#utility.yul\":1704:1711   */\n  dup7\n    /* \"#utility.yul\":1695:1701   */\n  dup3\n    /* \"#utility.yul\":1684:1693   */\n  dup8\n    /* \"#utility.yul\":1680:1702   */\n  add\n    /* \"#utility.yul\":1648:1712   */\n  tag_27\n  jump\t// in\ntag_54:\n    /* \"#utility.yul\":1638:1712   */\n  swap3\n  pop\n    /* \"#utility.yul\":1593:1722   */\n  pop\n    /* \"#utility.yul\":1761:1763   */\n  0x40\n    /* \"#utility.yul\":1787:1851   */\n  tag_55\n    /* \"#utility.yul\":1843:1850   */\n  dup7\n    /* \"#utility.yul\":1834:1840   */\n  dup3\n    /* \"#utility.yul\":1823:1832   */\n  dup8\n    /* \"#utility.yul\":1819:1841   */\n  add\n    /* \"#utility.yul\":1787:1851   */\n  tag_27\n  jump\t// in\ntag_55:\n    /* \"#utility.yul\":1777:1851   */\n  swap2\n  pop\n    /* \"#utility.yul\":1732:1861   */\n  pop\n    /* \"#utility.yul\":1205:1868   */\n  swap3\n  pop\n  swap3\n  pop\n  swap3\n  jump\t// out\n    /* \"#utility.yul\":1874:1992   */\ntag_28:\n    /* \"#utility.yul\":1961:1985   */\n  tag_57\n    /* \"#utility.yul\":1979:1984   */\n  dup2\n    /* \"#utility.yul\":1961:1985   */\n  tag_22\n  jump\t// in\ntag_57:\n    /* \"#utility.yul\":1956:1959   */\n  dup3\n    /* \"#utility.yul\":1949:1986   */\n  mstore\n    /* \"#utility.yul\":1874:1992   */\n  pop\n  pop\n  jump\t// out\n    /* \"#utility.yul\":1998:2220   */\ntag_9:\n    /* \"#utility.yul\":2091:2095   */\n  0x00\n    /* \"#utility.yul\":2129:2131   */\n  0x20\n    /* \"#utility.yul\":2118:2127   */\n  dup3\n    /* \"#utility.yul\":2114:2132   */\n  add\n    /* \"#utility.yul\":2106:2132   */\n  swap1\n  pop\n    /* \"#utility.yul\":2142:2213   */\n  tag_59\n    /* \"#utility.yul\":2210:2211   */\n  0x00\n    /* \"#utility.yul\":2199:2208   */\n  dup4\n    /* \"#utility.yul\":2195:2212   */\n  add\n    /* \"#utility.yul\":2186:2192   */\n  dup5\n    /* \"#utility.yul\":2142:2213   */\n  tag_28\n  jump\t// in\ntag_59:\n    /* \"#utility.yul\":1998:2220   */\n  swap3\n  swap2\n  pop\n  pop\n  jump\t// out\n    /* \"#utility.yul\":2226:2395   */\ntag_29:\n    /* \"#utility.yul\":2310:2321   */\n  0x00\n    /* \"#utility.yul\":2344:2350   */\n  dup3\n    /* \"#utility.yul\":2339:2342   */\n  dup3\n    /* \"#utility.yul\":2332:2351   */\n  mstore\n    /* \"#utility.yul\":2384:2388   */\n  0x20\n    /* \"#utility.yul\":2379:2382   */\n  dup3\n    /* \"#utility.yul\":2375:2389   */\n  add\n    /* \"#utility.yul\":2360:2389   */\n  swap1\n  pop\n    /* \"#utility.yul\":2226:2395   */\n  swap3\n  swap2\n  pop\n  pop\n  jump\t// out\n    /* \"#utility.yul\":2401:2621   */\ntag_30:\n    /* \"#utility.yul\":2541:2575   */\n  0x54696d654c6f636b3a206772616365506572696f64206d757374206265203e20\n    /* \"#utility.yul\":2537:2538   */\n  0x00\n    /* \"#utility.yul\":2529:2535   */\n  dup3\n    /* \"#utility.yul\":2525:2539   */\n  add\n    /* \"#utility.yul\":2518:2576   */\n  mstore\n    /* \"#utility.yul\":2610:2613   */\n  0x3000000000000000000000000000000000000000000000000000000000000000\n    /* \"#utility.yul\":2605:2607   */\n  0x20\n    /* \"#utility.yul\":2597:2603   */\n  dup3\n    /* \"#utility.yul\":2593:2608   */\n  add\n    /* \"#utility.yul\":2586:2614   */\n  mstore\n    /* \"#utility.yul\":2401:2621   */\n  pop\n  jump\t// out\n    /* \"#utility.yul\":2627:2993   */\ntag_31:\n    /* \"#utility.yul\":2769:2772   */\n  0x00\n    /* \"#utility.yul\":2790:2857   */\n  tag_63\n    /* \"#utility.yul\":2854:2856   */\n  0x21\n    /* \"#utility.yul\":2849:2852   */\n  dup4\n    /* \"#utility.yul\":2790:2857   */\n  tag_29\n  jump\t// in\ntag_63:\n    /* \"#utility.yul\":2783:2857   */\n  swap2\n  pop\n    /* \"#utility.yul\":2866:2959   */\n  tag_64\n    /* \"#utility.yul\":2955:2958   */\n  dup3\n    /* \"#utility.yul\":2866:2959   */\n  tag_30\n  jump\t// in\ntag_64:\n    /* \"#utility.yul\":2984:2986   */\n  0x40\n    /* \"#utility.yul\":2979:2982   */\n  dup3\n    /* \"#utility.yul\":2975:2987   */\n  add\n    /* \"#utility.yul\":2968:2987   */\n  swap1\n  pop\n    /* \"#utility.yul\":2627:2993   */\n  swap2\n  swap1\n  pop\n  jump\t// out\n    /* \"#utility.yul\":2999:3418   */\ntag_15:\n    /* \"#utility.yul\":3165:3169   */\n  0x00\n    /* \"#utility.yul\":3203:3205   */\n  0x20\n    /* \"#utility.yul\":3192:3201   */\n  dup3\n    /* \"#utility.yul\":3188:3206   */\n  add\n    /* \"#utility.yul\":3180:3206   */\n  swap1\n  pop\n    /* \"#utility.yul\":3252:3261   */\n  dup2\n    /* \"#utility.yul\":3246:3250   */\n  dup2\n    /* \"#utility.yul\":3242:3262   */\n  sub\n    /* \"#utility.yul\":3238:3239   */\n  0x00\n    /* \"#utility.yul\":3227:3236   */\n  dup4\n    /* \"#utility.yul\":3223:3240   */\n  add\n    /* \"#utility.yul\":3216:3263   */\n  mstore\n    /* \"#utility.yul\":3280:3411   */\n  tag_66\n    /* \"#utility.yul\":3406:3410   */\n  dup2\n    /* \"#utility.yul\":3280:3411   */\n  tag_31\n  jump\t// in\ntag_66:\n    /* \"#utility.yul\":3272:3411   */\n  swap1\n  pop\n    /* \"#utility.yul\":2999:3418   */\n  swap2\n  swap1\n  pop\n  jump\t// out\n    /* \"Contracts/Timelock.sol\":893:6793  contract TimeLock is Ownable {... */\ntag_16:\n  dataSize(sub_0)\n  dup1\n  dataOffset(sub_0)\n  0x00\n  codecopy\n  0x00\n  return\nstop\n\nsub_0: assembly {\n        /* \"Contracts/Timelock.sol\":893:6793  contract TimeLock is Ownable {... */\n      mstore(0x40, 0x80)\n      callvalue\n      dup1\n      iszero\n      tag_1\n      jumpi\n      revert(0x00, 0x00)\n    tag_1:\n      pop\n      jumpi(tag_2, lt(calldatasize, 0x04))\n      shr(0xe0, calldataload(0x00))\n      dup1\n      0xa06db7dc\n      gt\n      tag_15\n      jumpi\n      dup1\n      0xa06db7dc\n      eq\n      tag_9\n      jumpi\n      dup1\n      0xa9bd443f\n      eq\n      tag_10\n      jumpi\n      dup1\n      0xdd634fe5\n      eq\n      tag_11\n      jumpi\n      dup1\n      0xe177246e\n      eq\n      tag_12\n      jumpi\n      dup1\n      0xf2f65960\n      eq\n      tag_13\n      jumpi\n      dup1\n      0xf2fde38b\n      eq\n      tag_14\n      jumpi\n      jump(tag_2)\n    tag_15:\n      dup1\n      0x337781ea\n      eq\n      tag_3\n      jumpi\n      dup1\n      0x3b6520cb\n      eq\n      tag_4\n      jumpi\n      dup1\n      0x6a42b8f8\n      eq\n      tag_5\n      jumpi\n      dup1\n      0x715018a6\n      eq\n      tag_6\n      jumpi\n      dup1\n      0x8da5cb5b\n      eq\n      tag_7\n      jumpi\n      dup1\n      0x9d866985\n      eq\n      tag_8\n      jumpi\n    tag_2:\n      revert(0x00, 0x00)\n        /* \"Contracts/Timelock.sol\":4675:5092  function cancelUpgrade(bytes32 requestId) external onlyOwner {... */\n    tag_3:\n      tag_16\n      0x04\n      dup1\n      calldatasize\n      sub\n      dup2\n      add\n      swap1\n      tag_17\n      swap2\n      swap1\n      tag_18\n      jump\t// in\n    tag_17:\n      tag_19\n      jump\t// in\n    tag_16:\n      stop\n        /* \"Contracts/Timelock.sol\":5285:6176  function executeUpgrade(bytes32 requestId) external {... */\n    tag_4:\n      tag_20\n      0x04\n      dup1\n      calldatasize\n      sub\n      dup2\n      add\n      swap1\n      tag_21\n      swap2\n      swap1\n      tag_18\n      jump\t// in\n    tag_21:\n      tag_22\n      jump\t// in\n    tag_20:\n      stop\n        /* \"Contracts/Timelock.sol\":1529:1549  uint256 public delay */\n    tag_5:\n      tag_23\n      tag_24\n      jump\t// in\n    tag_23:\n      mload(0x40)\n      tag_25\n      swap2\n      swap1\n      tag_26\n      jump\t// in\n    tag_25:\n      mload(0x40)\n      dup1\n      swap2\n      sub\n      swap1\n      return\n        /* \"@openzeppelin/contracts/access/Ownable.sol\":2293:2394  function renounceOwnership() public virtual onlyOwner {... */\n    tag_6:\n      tag_27\n      tag_28\n      jump\t// in\n    tag_27:\n      stop\n        /* \"@openzeppelin/contracts/access/Ownable.sol\":1638:1723  function owner() public view virtual returns (address) {... */\n    tag_7:\n      tag_29\n      tag_30\n      jump\t// in\n    tag_29:\n      mload(0x40)\n      tag_31\n      swap2\n      swap1\n      tag_32\n      jump\t// in\n    tag_31:\n      mload(0x40)\n      dup1\n      swap2\n      sub\n      swap1\n      return\n        /* \"Contracts/Timelock.sol\":1765:1815  mapping(bytes32 => UpgradeRequest) public requests */\n    tag_8:\n      tag_33\n      0x04\n      dup1\n      calldatasize\n      sub\n      dup2\n      add\n      swap1\n      tag_34\n      swap2\n      swap1\n      tag_18\n      jump\t// in\n    tag_34:\n      tag_35\n      jump\t// in\n    tag_33:\n      mload(0x40)\n      tag_36\n      swap6\n      swap5\n      swap4\n      swap3\n      swap2\n      swap1\n      tag_37\n      jump\t// in\n    tag_36:\n      mload(0x40)\n      dup1\n      swap2\n      sub\n      swap1\n      return\n        /* \"Contracts/Timelock.sol\":1657:1683  uint256 public gracePeriod */\n    tag_9:\n      tag_38\n      tag_39\n      jump\t// in\n    tag_38:\n      mload(0x40)\n      tag_40\n      swap2\n      swap1\n      tag_26\n      jump\t// in\n    tag_40:\n      mload(0x40)\n      dup1\n      swap2\n      sub\n      swap1\n      return\n        /* \"Contracts/Timelock.sol\":3650:4493  function queueUpgrade(address targetContract, address newImplementation) external onlyOwner returns (bytes32) {... */\n    tag_10:\n      tag_41\n      0x04\n      dup1\n      calldatasize\n      sub\n      dup2\n      add\n      swap1\n      tag_42\n      swap2\n      swap1\n      tag_43\n      jump\t// in\n    tag_42:\n      tag_44\n      jump\t// in\n    tag_41:\n      mload(0x40)\n      tag_45\n      swap2\n      swap1\n      tag_46\n      jump\t// in\n    tag_45:\n      mload(0x40)\n      dup1\n      swap2\n      sub\n      swap1\n      return\n        /* \"Contracts/Timelock.sol\":3144:3334  function getRequestId(address target, address newImplementation) public view returns (bytes32) {... */\n    tag_11:\n      tag_47\n      0x04\n      dup1\n      calldatasize\n      sub\n      dup2\n      add\n      swap1\n      tag_48\n      swap2\n      swap1\n      tag_43\n      jump\t// in\n    tag_48:\n      tag_49\n      jump\t// in\n    tag_47:\n      mload(0x40)\n      tag_50\n      swap2\n      swap1\n      tag_46\n      jump\t// in\n    tag_50:\n      mload(0x40)\n      dup1\n      swap2\n      sub\n      swap1\n      return\n        /* \"Contracts/Timelock.sol\":6361:6449  function setDelay(uint256 newDelay) external onlyOwner {... */\n    tag_12:\n      tag_51\n      0x04\n      dup1\n      calldatasize\n      sub\n      dup2\n      add\n      swap1\n      tag_52\n      swap2\n      swap1\n      tag_53\n      jump\t// in\n    tag_52:\n      tag_54\n      jump\t// in\n    tag_51:\n      stop\n        /* \"Contracts/Timelock.sol\":6633:6791  function setGracePeriod(uint256 newGrace) external onlyOwner {... */\n    tag_13:\n      tag_55\n      0x04\n      dup1\n      calldatasize\n      sub\n      dup2\n      add\n      swap1\n      tag_56\n      swap2\n      swap1\n      tag_53\n      jump\t// in\n    tag_56:\n      tag_57\n      jump\t// in\n    tag_55:\n      stop\n        /* \"@openzeppelin/contracts/access/Ownable.sol\":2543:2758  function transferOwnership(address newOwner) public virtual onlyOwner {... */\n    tag_14:\n      tag_58\n      0x04\n      dup1\n      calldatasize\n      sub\n      dup2\n      add\n      swap1\n      tag_59\n      swap2\n      swap1\n      tag_60\n      jump\t// in\n    tag_59:\n      tag_61\n      jump\t// in\n    tag_58:\n      stop\n        /* \"Contracts/Timelock.sol\":4675:5092  function cancelUpgrade(bytes32 requestId) external onlyOwner {... */\n    tag_19:\n        /* \"@openzeppelin/contracts/access/Ownable.sol\":1531:1544  _checkOwner() */\n      tag_63\n        /* \"@openzeppelin/contracts/access/Ownable.sol\":1531:1542  _checkOwner */\n      tag_64\n        /* \"@openzeppelin/contracts/access/Ownable.sol\":1531:1544  _checkOwner() */\n      jump\t// in\n    tag_63:\n        /* \"Contracts/Timelock.sol\":4746:4772  UpgradeRequest storage req */\n      0x00\n        /* \"Contracts/Timelock.sol\":4775:4783  requests */\n      0x03\n        /* \"Contracts/Timelock.sol\":4775:4794  requests[requestId] */\n      0x00\n        /* \"Contracts/Timelock.sol\":4784:4793  requestId */\n      dup4\n        /* \"Contracts/Timelock.sol\":4775:4794  requests[requestId] */\n      dup2\n      mstore\n      0x20\n      add\n      swap1\n      dup2\n      mstore\n      0x20\n      add\n      0x00\n      keccak256\n        /* \"Contracts/Timelock.sol\":4746:4794  UpgradeRequest storage req = requests[requestId] */\n      swap1\n      pop\n        /* \"Contracts/Timelock.sol\":4842:4843  0 */\n      0x00\n        /* \"Contracts/Timelock.sol\":4812:4844  req.targetContract != address(0) */\n      0xffffffffffffffffffffffffffffffffffffffff\n      and\n        /* \"Contracts/Timelock.sol\":4812:4815  req */\n      dup2\n        /* \"Contracts/Timelock.sol\":4812:4830  req.targetContract */\n      0x00\n      add\n      0x00\n      swap1\n      sload\n      swap1\n      0x0100\n      exp\n      swap1\n      div\n      0xffffffffffffffffffffffffffffffffffffffff\n      and\n        /* \"Contracts/Timelock.sol\":4812:4844  req.targetContract != address(0) */\n      0xffffffffffffffffffffffffffffffffffffffff\n      and\n      sub\n        /* \"Contracts/Timelock.sol\":4804:4874  require(req.targetContract != address(0), \"TimeLock: unknown request\") */\n      tag_66\n      jumpi\n      mload(0x40)\n      0x08c379a000000000000000000000000000000000000000000000000000000000\n      dup2\n      mstore\n      0x04\n      add\n      tag_67\n      swap1\n      tag_68\n      jump\t// in\n    tag_67:\n      mload(0x40)\n      dup1\n      swap2\n      sub\n      swap1\n      revert\n    tag_66:\n        /* \"Contracts/Timelock.sol\":4893:4896  req */\n      dup1\n        /* \"Contracts/Timelock.sol\":4893:4905  req.executed */\n      0x03\n      add\n      0x00\n      swap1\n      sload\n      swap1\n      0x0100\n      exp\n      swap1\n      div\n      0xff\n      and\n        /* \"Contracts/Timelock.sol\":4892:4905  !req.executed */\n      iszero\n        /* \"Contracts/Timelock.sol\":4884:4944  require(!req.executed, \"TimeLock: request already executed\") */\n      tag_69\n      jumpi\n      mload(0x40)\n      0x08c379a000000000000000000000000000000000000000000000000000000000\n      dup2\n      mstore\n      0x04\n      add\n      tag_70\n      swap1\n      tag_71\n      jump\t// in\n    tag_70:\n      mload(0x40)\n      dup1\n      swap2\n      sub\n      swap1\n      revert\n    tag_69:\n        /* \"Contracts/Timelock.sol\":4963:4966  req */\n      dup1\n        /* \"Contracts/Timelock.sol\":4963:4975  req.canceled */\n      0x03\n      add\n      0x01\n      swap1\n      sload\n      swap1\n      0x0100\n      exp\n      swap1\n      div\n      0xff\n      and\n        /* \"Contracts/Timelock.sol\":4962:4975  !req.canceled */\n      iszero\n        /* \"Contracts/Timelock.sol\":4954:5014  require(!req.canceled, \"TimeLock: request already canceled\") */\n      tag_72\n      jumpi\n      mload(0x40)\n      0x08c379a000000000000000000000000000000000000000000000000000000000\n      dup2\n      mstore\n      0x04\n      add\n      tag_73\n      swap1\n      tag_74\n      jump\t// in\n    tag_73:\n      mload(0x40)\n      dup1\n      swap2\n      sub\n      swap1\n      revert\n    tag_72:\n        /* \"Contracts/Timelock.sol\":5040:5044  true */\n      0x01\n        /* \"Contracts/Timelock.sol\":5025:5028  req */\n      dup2\n        /* \"Contracts/Timelock.sol\":5025:5037  req.canceled */\n      0x03\n      add\n      0x01\n        /* \"Contracts/Timelock.sol\":5025:5044  req.canceled = true */\n      0x0100\n      exp\n      dup2\n      sload\n      dup2\n      0xff\n      mul\n      not\n      and\n      swap1\n      dup4\n      iszero\n      iszero\n      mul\n      or\n      swap1\n      sstore\n      pop\n        /* \"Contracts/Timelock.sol\":5075:5084  requestId */\n      dup2\n        /* \"Contracts/Timelock.sol\":5059:5085  UpgradeCanceled(requestId) */\n      0x8979bb3f83892b5251a2a1899bb027118d0146e7c714b8542a98853a55beea1a\n      mload(0x40)\n      mload(0x40)\n      dup1\n      swap2\n      sub\n      swap1\n      log2\n        /* \"Contracts/Timelock.sol\":4736:5092  {... */\n      pop\n        /* \"Contracts/Timelock.sol\":4675:5092  function cancelUpgrade(bytes32 requestId) external onlyOwner {... */\n      pop\n      jump\t// out\n        /* \"Contracts/Timelock.sol\":5285:6176  function executeUpgrade(bytes32 requestId) external {... */\n    tag_22:\n        /* \"Contracts/Timelock.sol\":5347:5373  UpgradeRequest storage req */\n      0x00\n        /* \"Contracts/Timelock.sol\":5376:5384  requests */\n      0x03\n        /* \"Contracts/Timelock.sol\":5376:5395  requests[requestId] */\n      0x00\n        /* \"Contracts/Timelock.sol\":5385:5394  requestId */\n      dup4\n        /* \"Contracts/Timelock.sol\":5376:5395  requests[requestId] */\n      dup2\n      mstore\n      0x20\n      add\n      swap1\n      dup2\n      mstore\n      0x20\n      add\n      0x00\n      keccak256\n        /* \"Contracts/Timelock.sol\":5347:5395  UpgradeRequest storage req = requests[requestId] */\n      swap1\n      pop\n        /* \"Contracts/Timelock.sol\":5443:5444  0 */\n      0x00\n        /* \"Contracts/Timelock.sol\":5413:5445  req.targetContract != address(0) */\n      0xffffffffffffffffffffffffffffffffffffffff\n      and\n        /* \"Contracts/Timelock.sol\":5413:5416  req */\n      dup2\n        /* \"Contracts/Timelock.sol\":5413:5431  req.targetContract */\n      0x00\n      add\n      0x00\n      swap1\n      sload\n      swap1\n      0x0100\n      exp\n      swap1\n      div\n      0xffffffffffffffffffffffffffffffffffffffff\n      and\n        /* \"Contracts/Timelock.sol\":5413:5445  req.targetContract != address(0) */\n      0xffffffffffffffffffffffffffffffffffffffff\n      and\n      sub\n        /* \"Contracts/Timelock.sol\":5405:5475  require(req.targetContract != address(0), \"TimeLock: unknown request\") */\n      tag_76\n      jumpi\n      mload(0x40)\n      0x08c379a000000000000000000000000000000000000000000000000000000000\n      dup2\n      mstore\n      0x04\n      add\n      tag_77\n      swap1\n      tag_68\n      jump\t// in\n    tag_77:\n      mload(0x40)\n      dup1\n      swap2\n      sub\n      swap1\n      revert\n    tag_76:\n        /* \"Contracts/Timelock.sol\":5494:5497  req */\n      dup1\n        /* \"Contracts/Timelock.sol\":5494:5506  req.executed */\n      0x03\n      add\n      0x00\n      swap1\n      sload\n      swap1\n      0x0100\n      exp\n      swap1\n      div\n      0xff\n      and\n        /* \"Contracts/Timelock.sol\":5493:5506  !req.executed */\n      iszero\n        /* \"Contracts/Timelock.sol\":5485:5545  require(!req.executed, \"TimeLock: request already executed\") */\n      tag_78\n      jumpi\n      mload(0x40)\n      0x08c379a000000000000000000000000000000000000000000000000000000000\n      dup2\n      mstore\n      0x04\n      add\n      tag_79\n      swap1\n      tag_71\n      jump\t// in\n    tag_79:\n      mload(0x40)\n      dup1\n      swap2\n      sub\n      swap1\n      revert\n    tag_78:\n        /* \"Contracts/Timelock.sol\":5564:5567  req */\n      dup1\n        /* \"Contracts/Timelock.sol\":5564:5576  req.canceled */\n      0x03\n      add\n      0x01\n      swap1\n      sload\n      swap1\n      0x0100\n      exp\n      swap1\n      div\n      0xff\n      and\n        /* \"Contracts/Timelock.sol\":5563:5576  !req.canceled */\n      iszero\n        /* \"Contracts/Timelock.sol\":5555:5607  require(!req.canceled, \"TimeLock: request canceled\") */\n      tag_80\n      jumpi\n      mload(0x40)\n      0x08c379a000000000000000000000000000000000000000000000000000000000\n      dup2\n      mstore\n      0x04\n      add\n      tag_81\n      swap1\n      tag_82\n      jump\t// in\n    tag_81:\n      mload(0x40)\n      dup1\n      swap2\n      sub\n      swap1\n      revert\n    tag_80:\n        /* \"Contracts/Timelock.sol\":5644:5647  req */\n      dup1\n        /* \"Contracts/Timelock.sol\":5644:5667  req.earliestExecuteTime */\n      0x02\n      add\n      sload\n        /* \"Contracts/Timelock.sol\":5625:5640  block.timestamp */\n      timestamp\n        /* \"Contracts/Timelock.sol\":5625:5667  block.timestamp >= req.earliestExecuteTime */\n      lt\n      iszero\n        /* \"Contracts/Timelock.sol\":5617:5691  require(block.timestamp >= req.earliestExecuteTime, \"TimeLock: too early\") */\n      tag_83\n      jumpi\n      mload(0x40)\n      0x08c379a000000000000000000000000000000000000000000000000000000000\n      dup2\n      mstore\n      0x04\n      add\n      tag_84\n      swap1\n      tag_85\n      jump\t// in\n    tag_84:\n      mload(0x40)\n      dup1\n      swap2\n      sub\n      swap1\n      revert\n    tag_83:\n        /* \"Contracts/Timelock.sol\":5767:5778  gracePeriod */\n      sload(0x02)\n        /* \"Contracts/Timelock.sol\":5741:5744  req */\n      dup2\n        /* \"Contracts/Timelock.sol\":5741:5764  req.earliestExecuteTime */\n      0x02\n      add\n      sload\n        /* \"Contracts/Timelock.sol\":5741:5778  req.earliestExecuteTime + gracePeriod */\n      tag_86\n      swap2\n      swap1\n      tag_87\n      jump\t// in\n    tag_86:\n        /* \"Contracts/Timelock.sol\":5722:5737  block.timestamp */\n      timestamp\n        /* \"Contracts/Timelock.sol\":5722:5778  block.timestamp <= req.earliestExecuteTime + gracePeriod */\n      gt\n      iszero\n        /* \"Contracts/Timelock.sol\":5701:5829  require(... */\n      tag_88\n      jumpi\n      mload(0x40)\n      0x08c379a000000000000000000000000000000000000000000000000000000000\n      dup2\n      mstore\n      0x04\n      add\n      tag_89\n      swap1\n      tag_90\n      jump\t// in\n    tag_89:\n      mload(0x40)\n      dup1\n      swap2\n      sub\n      swap1\n      revert\n    tag_88:\n        /* \"Contracts/Timelock.sol\":5906:5918  bool success */\n      0x00\n        /* \"Contracts/Timelock.sol\":5924:5927  req */\n      dup2\n        /* \"Contracts/Timelock.sol\":5924:5942  req.targetContract */\n      0x00\n      add\n      0x00\n      swap1\n      sload\n      swap1\n      0x0100\n      exp\n      swap1\n      div\n      0xffffffffffffffffffffffffffffffffffffffff\n      and\n        /* \"Contracts/Timelock.sol\":5924:5947  req.targetContract.call */\n      0xffffffffffffffffffffffffffffffffffffffff\n      and\n        /* \"Contracts/Timelock.sol\":6007:6010  req */\n      dup3\n        /* \"Contracts/Timelock.sol\":6007:6028  req.newImplementation */\n      0x01\n      add\n      0x00\n      swap1\n      sload\n      swap1\n      0x0100\n      exp\n      swap1\n      div\n      0xffffffffffffffffffffffffffffffffffffffff\n      and\n        /* \"Contracts/Timelock.sol\":5961:6029  abi.encodeWithSignature(\"upgradeTo(address)\", req.newImplementation) */\n      add(0x24, mload(0x40))\n      tag_91\n      swap2\n      swap1\n      tag_32\n      jump\t// in\n    tag_91:\n      mload(0x40)\n      0x20\n      dup2\n      dup4\n      sub\n      sub\n      dup2\n      mstore\n      swap1\n      0x40\n      mstore\n      and(not(0xffffffffffffffffffffffffffffffffffffffffffffffffffffffff), 0x3659cfe600000000000000000000000000000000000000000000000000000000)\n      0x20\n      dup3\n      add\n      dup1\n      mload\n      0xffffffffffffffffffffffffffffffffffffffffffffffffffffffff\n      dup4\n      dup2\n      dup4\n      and\n      or\n      dup4\n      mstore\n      pop\n      pop\n      pop\n      pop\n        /* \"Contracts/Timelock.sol\":5924:6039  req.targetContract.call(... */\n      mload(0x40)\n      tag_92\n      swap2\n      swap1\n      tag_93\n      jump\t// in\n    tag_92:\n      0x00\n      mload(0x40)\n      dup1\n      dup4\n      sub\n      dup2\n      0x00\n      dup7\n      gas\n      call\n      swap2\n      pop\n      pop\n      returndatasize\n      dup1\n      0x00\n      dup2\n      eq\n      tag_96\n      jumpi\n      mload(0x40)\n      swap2\n      pop\n      and(add(returndatasize, 0x3f), not(0x1f))\n      dup3\n      add\n      0x40\n      mstore\n      returndatasize\n      dup3\n      mstore\n      returndatasize\n      0x00\n      0x20\n      dup5\n      add\n      returndatacopy\n      jump(tag_95)\n    tag_96:\n      0x60\n      swap2\n      pop\n    tag_95:\n      pop\n        /* \"Contracts/Timelock.sol\":5905:6039  (bool success, ) = req.targetContract.call(... */\n      pop\n      swap1\n      pop\n        /* \"Contracts/Timelock.sol\":6057:6064  success */\n      dup1\n        /* \"Contracts/Timelock.sol\":6049:6098  require(success, \"TimeLock: upgrade call failed\") */\n      tag_97\n      jumpi\n      mload(0x40)\n      0x08c379a000000000000000000000000000000000000000000000000000000000\n      dup2\n      mstore\n      0x04\n      add\n      tag_98\n      swap1\n      tag_99\n      jump\t// in\n    tag_98:\n      mload(0x40)\n      dup1\n      swap2\n      sub\n      swap1\n      revert\n    tag_97:\n        /* \"Contracts/Timelock.sol\":6124:6128  true */\n      0x01\n        /* \"Contracts/Timelock.sol\":6109:6112  req */\n      dup3\n        /* \"Contracts/Timelock.sol\":6109:6121  req.executed */\n      0x03\n      add\n      0x00\n        /* \"Contracts/Timelock.sol\":6109:6128  req.executed = true */\n      0x0100\n      exp\n      dup2\n      sload\n      dup2\n      0xff\n      mul\n      not\n      and\n      swap1\n      dup4\n      iszero\n      iszero\n      mul\n      or\n      swap1\n      sstore\n      pop\n        /* \"Contracts/Timelock.sol\":6159:6168  requestId */\n      dup3\n        /* \"Contracts/Timelock.sol\":6143:6169  UpgradeExecuted(requestId) */\n      0xf6224a998aea3de231cf75375faf8c3711379d54bb84c92ef9d9779dabd383a9\n      mload(0x40)\n      mload(0x40)\n      dup1\n      swap2\n      sub\n      swap1\n      log2\n        /* \"Contracts/Timelock.sol\":5337:6176  {... */\n      pop\n      pop\n        /* \"Contracts/Timelock.sol\":5285:6176  function executeUpgrade(bytes32 requestId) external {... */\n      pop\n      jump\t// out\n        /* \"Contracts/Timelock.sol\":1529:1549  uint256 public delay */\n    tag_24:\n      sload(0x01)\n      dup2\n      jump\t// out\n        /* \"@openzeppelin/contracts/access/Ownable.sol\":2293:2394  function renounceOwnership() public virtual onlyOwner {... */\n    tag_28:\n        /* \"@openzeppelin/contracts/access/Ownable.sol\":1531:1544  _checkOwner() */\n      tag_101\n        /* \"@openzeppelin/contracts/access/Ownable.sol\":1531:1542  _checkOwner */\n      tag_64\n        /* \"@openzeppelin/contracts/access/Ownable.sol\":1531:1544  _checkOwner() */\n      jump\t// in\n    tag_101:\n        /* \"@openzeppelin/contracts/access/Ownable.sol\":2357:2387  _transferOwnership(address(0)) */\n      tag_103\n        /* \"@openzeppelin/contracts/access/Ownable.sol\":2384:2385  0 */\n      0x00\n        /* \"@openzeppelin/contracts/access/Ownable.sol\":2357:2375  _transferOwnership */\n      tag_104\n        /* \"@openzeppelin/contracts/access/Ownable.sol\":2357:2387  _transferOwnership(address(0)) */\n      jump\t// in\n    tag_103:\n        /* \"@openzeppelin/contracts/access/Ownable.sol\":2293:2394  function renounceOwnership() public virtual onlyOwner {... */\n      jump\t// out\n        /* \"@openzeppelin/contracts/access/Ownable.sol\":1638:1723  function owner() public view virtual returns (address) {... */\n    tag_30:\n        /* \"@openzeppelin/contracts/access/Ownable.sol\":1684:1691  address */\n      0x00\n        /* \"@openzeppelin/contracts/access/Ownable.sol\":1710:1716  _owner */\n      0x00\n      0x00\n      swap1\n      sload\n      swap1\n      0x0100\n      exp\n      swap1\n      div\n      0xffffffffffffffffffffffffffffffffffffffff\n      and\n        /* \"@openzeppelin/contracts/access/Ownable.sol\":1703:1716  return _owner */\n      swap1\n      pop\n        /* \"@openzeppelin/contracts/access/Ownable.sol\":1638:1723  function owner() public view virtual returns (address) {... */\n      swap1\n      jump\t// out\n        /* \"Contracts/Timelock.sol\":1765:1815  mapping(bytes32 => UpgradeRequest) public requests */\n    tag_35:\n      mstore(0x20, 0x03)\n      dup1\n      0x00\n      mstore\n      keccak256(0x00, 0x40)\n      0x00\n      swap2\n      pop\n      swap1\n      pop\n      dup1\n      0x00\n      add\n      0x00\n      swap1\n      sload\n      swap1\n      0x0100\n      exp\n      swap1\n      div\n      0xffffffffffffffffffffffffffffffffffffffff\n      and\n      swap1\n      dup1\n      0x01\n      add\n      0x00\n      swap1\n      sload\n      swap1\n      0x0100\n      exp\n      swap1\n      div\n      0xffffffffffffffffffffffffffffffffffffffff\n      and\n      swap1\n      dup1\n      0x02\n      add\n      sload\n      swap1\n      dup1\n      0x03\n      add\n      0x00\n      swap1\n      sload\n      swap1\n      0x0100\n      exp\n      swap1\n      div\n      0xff\n      and\n      swap1\n      dup1\n      0x03\n      add\n      0x01\n      swap1\n      sload\n      swap1\n      0x0100\n      exp\n      swap1\n      div\n      0xff\n      and\n      swap1\n      pop\n      dup6\n      jump\t// out\n        /* \"Contracts/Timelock.sol\":1657:1683  uint256 public gracePeriod */\n    tag_39:\n      sload(0x02)\n      dup2\n      jump\t// out\n        /* \"Contracts/Timelock.sol\":3650:4493  function queueUpgrade(address targetContract, address newImplementation) external onlyOwner returns (bytes32) {... */\n    tag_44:\n        /* \"Contracts/Timelock.sol\":3751:3758  bytes32 */\n      0x00\n        /* \"@openzeppelin/contracts/access/Ownable.sol\":1531:1544  _checkOwner() */\n      tag_107\n        /* \"@openzeppelin/contracts/access/Ownable.sol\":1531:1542  _checkOwner */\n      tag_64\n        /* \"@openzeppelin/contracts/access/Ownable.sol\":1531:1544  _checkOwner() */\n      jump\t// in\n    tag_107:\n        /* \"Contracts/Timelock.sol\":3804:3805  0 */\n      0x00\n        /* \"Contracts/Timelock.sol\":3778:3806  targetContract != address(0) */\n      0xffffffffffffffffffffffffffffffffffffffff\n      and\n        /* \"Contracts/Timelock.sol\":3778:3792  targetContract */\n      dup4\n        /* \"Contracts/Timelock.sol\":3778:3806  targetContract != address(0) */\n      0xffffffffffffffffffffffffffffffffffffffff\n      and\n      sub\n        /* \"Contracts/Timelock.sol\":3770:3835  require(targetContract != address(0), \"TimeLock: invalid target\") */\n      tag_109\n      jumpi\n      mload(0x40)\n      0x08c379a000000000000000000000000000000000000000000000000000000000\n      dup2\n      mstore\n      0x04\n      add\n      tag_110\n      swap1\n      tag_111\n      jump\t// in\n    tag_110:\n      mload(0x40)\n      dup1\n      swap2\n      sub\n      swap1\n      revert\n    tag_109:\n        /* \"Contracts/Timelock.sol\":3882:3883  0 */\n      0x00\n        /* \"Contracts/Timelock.sol\":3853:3884  newImplementation != address(0) */\n      0xffffffffffffffffffffffffffffffffffffffff\n      and\n        /* \"Contracts/Timelock.sol\":3853:3870  newImplementation */\n      dup3\n        /* \"Contracts/Timelock.sol\":3853:3884  newImplementation != address(0) */\n      0xffffffffffffffffffffffffffffffffffffffff\n      and\n      sub\n        /* \"Contracts/Timelock.sol\":3845:3921  require(newImplementation != address(0), \"TimeLock: invalid implementation\") */\n      tag_112\n      jumpi\n      mload(0x40)\n      0x08c379a000000000000000000000000000000000000000000000000000000000\n      dup2\n      mstore\n      0x04\n      add\n      tag_113\n      swap1\n      tag_114\n      jump\t// in\n    tag_113:\n      mload(0x40)\n      dup1\n      swap2\n      sub\n      swap1\n      revert\n    tag_112:\n        /* \"Contracts/Timelock.sol\":3932:3949  bytes32 requestId */\n      0x00\n        /* \"Contracts/Timelock.sol\":3952:3999  getRequestId(targetContract, newImplementation) */\n      tag_115\n        /* \"Contracts/Timelock.sol\":3965:3979  targetContract */\n      dup5\n        /* \"Contracts/Timelock.sol\":3981:3998  newImplementation */\n      dup5\n        /* \"Contracts/Timelock.sol\":3952:3964  getRequestId */\n      tag_49\n        /* \"Contracts/Timelock.sol\":3952:3999  getRequestId(targetContract, newImplementation) */\n      jump\t// in\n    tag_115:\n        /* \"Contracts/Timelock.sol\":3932:3999  bytes32 requestId = getRequestId(targetContract, newImplementation) */\n      swap1\n      pop\n        /* \"Contracts/Timelock.sol\":4009:4035  UpgradeRequest storage req */\n      0x00\n        /* \"Contracts/Timelock.sol\":4038:4046  requests */\n      0x03\n        /* \"Contracts/Timelock.sol\":4038:4057  requests[requestId] */\n      0x00\n        /* \"Contracts/Timelock.sol\":4047:4056  requestId */\n      dup4\n        /* \"Contracts/Timelock.sol\":4038:4057  requests[requestId] */\n      dup2\n      mstore\n      0x20\n      add\n      swap1\n      dup2\n      mstore\n      0x20\n      add\n      0x00\n      keccak256\n        /* \"Contracts/Timelock.sol\":4009:4057  UpgradeRequest storage req = requests[requestId] */\n      swap1\n      pop\n        /* \"Contracts/Timelock.sol\":4105:4106  0 */\n      0x00\n        /* \"Contracts/Timelock.sol\":4075:4107  req.targetContract == address(0) */\n      0xffffffffffffffffffffffffffffffffffffffff\n      and\n        /* \"Contracts/Timelock.sol\":4075:4078  req */\n      dup2\n        /* \"Contracts/Timelock.sol\":4075:4093  req.targetContract */\n      0x00\n      add\n      0x00\n      swap1\n      sload\n      swap1\n      0x0100\n      exp\n      swap1\n      div\n      0xffffffffffffffffffffffffffffffffffffffff\n      and\n        /* \"Contracts/Timelock.sol\":4075:4107  req.targetContract == address(0) */\n      0xffffffffffffffffffffffffffffffffffffffff\n      and\n      eq\n        /* \"Contracts/Timelock.sol\":4067:4144  require(req.targetContract == address(0), \"TimeLock: request already queued\") */\n      tag_116\n      jumpi\n      mload(0x40)\n      0x08c379a000000000000000000000000000000000000000000000000000000000\n      dup2\n      mstore\n      0x04\n      add\n      tag_117\n      swap1\n      tag_118\n      jump\t// in\n    tag_117:\n      mload(0x40)\n      dup1\n      swap2\n      sub\n      swap1\n      revert\n    tag_116:\n        /* \"Contracts/Timelock.sol\":4176:4190  targetContract */\n      dup5\n        /* \"Contracts/Timelock.sol\":4155:4158  req */\n      dup2\n        /* \"Contracts/Timelock.sol\":4155:4173  req.targetContract */\n      0x00\n      add\n      0x00\n        /* \"Contracts/Timelock.sol\":4155:4190  req.targetContract = targetContract */\n      0x0100\n      exp\n      dup2\n      sload\n      dup2\n      0xffffffffffffffffffffffffffffffffffffffff\n      mul\n      not\n      and\n      swap1\n      dup4\n      0xffffffffffffffffffffffffffffffffffffffff\n      and\n      mul\n      or\n      swap1\n      sstore\n      pop\n        /* \"Contracts/Timelock.sol\":4224:4241  newImplementation */\n      dup4\n        /* \"Contracts/Timelock.sol\":4200:4203  req */\n      dup2\n        /* \"Contracts/Timelock.sol\":4200:4221  req.newImplementation */\n      0x01\n      add\n      0x00\n        /* \"Contracts/Timelock.sol\":4200:4241  req.newImplementation = newImplementation */\n      0x0100\n      exp\n      dup2\n      sload\n      dup2\n      0xffffffffffffffffffffffffffffffffffffffff\n      mul\n      not\n      and\n      swap1\n      dup4\n      0xffffffffffffffffffffffffffffffffffffffff\n      and\n      mul\n      or\n      swap1\n      sstore\n      pop\n        /* \"Contracts/Timelock.sol\":4295:4300  delay */\n      sload(0x01)\n        /* \"Contracts/Timelock.sol\":4277:4292  block.timestamp */\n      timestamp\n        /* \"Contracts/Timelock.sol\":4277:4300  block.timestamp + delay */\n      tag_119\n      swap2\n      swap1\n      tag_87\n      jump\t// in\n    tag_119:\n        /* \"Contracts/Timelock.sol\":4251:4254  req */\n      dup2\n        /* \"Contracts/Timelock.sol\":4251:4274  req.earliestExecuteTime */\n      0x02\n      add\n        /* \"Contracts/Timelock.sol\":4251:4300  req.earliestExecuteTime = block.timestamp + delay */\n      dup2\n      swap1\n      sstore\n      pop\n        /* \"Contracts/Timelock.sol\":4325:4330  false */\n      0x00\n        /* \"Contracts/Timelock.sol\":4310:4313  req */\n      dup2\n        /* \"Contracts/Timelock.sol\":4310:4322  req.executed */\n      0x03\n      add\n      0x00\n        /* \"Contracts/Timelock.sol\":4310:4330  req.executed = false */\n      0x0100\n      exp\n      dup2\n      sload\n      dup2\n      0xff\n      mul\n      not\n      and\n      swap1\n      dup4\n      iszero\n      iszero\n      mul\n      or\n      swap1\n      sstore\n      pop\n        /* \"Contracts/Timelock.sol\":4355:4360  false */\n      0x00\n        /* \"Contracts/Timelock.sol\":4340:4343  req */\n      dup2\n        /* \"Contracts/Timelock.sol\":4340:4352  req.canceled */\n      0x03\n      add\n      0x01\n        /* \"Contracts/Timelock.sol\":4340:4360  req.canceled = false */\n      0x0100\n      exp\n      dup2\n      sload\n      dup2\n      0xff\n      mul\n      not\n      and\n      swap1\n      dup4\n      iszero\n      iszero\n      mul\n      or\n      swap1\n      sstore\n      pop\n        /* \"Contracts/Timelock.sol\":4390:4399  requestId */\n      dup2\n        /* \"Contracts/Timelock.sol\":4376:4460  UpgradeQueued(requestId, targetContract, newImplementation, req.earliestExecuteTime) */\n      0x681f0baf8a726a3a7fb47ac4f62931899d378601cb44958b61c6c251d650b630\n        /* \"Contracts/Timelock.sol\":4401:4415  targetContract */\n      dup7\n        /* \"Contracts/Timelock.sol\":4417:4434  newImplementation */\n      dup7\n        /* \"Contracts/Timelock.sol\":4436:4439  req */\n      dup5\n        /* \"Contracts/Timelock.sol\":4436:4459  req.earliestExecuteTime */\n      0x02\n      add\n      sload\n        /* \"Contracts/Timelock.sol\":4376:4460  UpgradeQueued(requestId, targetContract, newImplementation, req.earliestExecuteTime) */\n      mload(0x40)\n      tag_120\n      swap4\n      swap3\n      swap2\n      swap1\n      tag_121\n      jump\t// in\n    tag_120:\n      mload(0x40)\n      dup1\n      swap2\n      sub\n      swap1\n      log2\n        /* \"Contracts/Timelock.sol\":4477:4486  requestId */\n      dup2\n        /* \"Contracts/Timelock.sol\":4470:4486  return requestId */\n      swap3\n      pop\n      pop\n      pop\n        /* \"Contracts/Timelock.sol\":3650:4493  function queueUpgrade(address targetContract, address newImplementation) external onlyOwner returns (bytes32) {... */\n      swap3\n      swap2\n      pop\n      pop\n      jump\t// out\n        /* \"Contracts/Timelock.sol\":3144:3334  function getRequestId(address target, address newImplementation) public view returns (bytes32) {... */\n    tag_49:\n        /* \"Contracts/Timelock.sol\":3230:3237  bytes32 */\n      0x00\n        /* \"Contracts/Timelock.sol\":3283:3289  target */\n      dup3\n        /* \"Contracts/Timelock.sol\":3291:3308  newImplementation */\n      dup3\n        /* \"Contracts/Timelock.sol\":3310:3325  block.timestamp */\n      timestamp\n        /* \"Contracts/Timelock.sol\":3266:3326  abi.encodePacked(target, newImplementation, block.timestamp) */\n      add(0x20, mload(0x40))\n      tag_123\n      swap4\n      swap3\n      swap2\n      swap1\n      tag_124\n      jump\t// in\n    tag_123:\n      mload(0x40)\n      0x20\n      dup2\n      dup4\n      sub\n      sub\n      dup2\n      mstore\n      swap1\n      0x40\n      mstore\n        /* \"Contracts/Timelock.sol\":3256:3327  keccak256(abi.encodePacked(target, newImplementation, block.timestamp)) */\n      dup1\n      mload\n      swap1\n      0x20\n      add\n      keccak256\n        /* \"Contracts/Timelock.sol\":3249:3327  return keccak256(abi.encodePacked(target, newImplementation, block.timestamp)) */\n      swap1\n      pop\n        /* \"Contracts/Timelock.sol\":3144:3334  function getRequestId(address target, address newImplementation) public view returns (bytes32) {... */\n      swap3\n      swap2\n      pop\n      pop\n      jump\t// out\n        /* \"Contracts/Timelock.sol\":6361:6449  function setDelay(uint256 newDelay) external onlyOwner {... */\n    tag_54:\n        /* \"@openzeppelin/contracts/access/Ownable.sol\":1531:1544  _checkOwner() */\n      tag_126\n        /* \"@openzeppelin/contracts/access/Ownable.sol\":1531:1542  _checkOwner */\n      tag_64\n        /* \"@openzeppelin/contracts/access/Ownable.sol\":1531:1544  _checkOwner() */\n      jump\t// in\n    tag_126:\n        /* \"Contracts/Timelock.sol\":6434:6442  newDelay */\n      dup1\n        /* \"Contracts/Timelock.sol\":6426:6431  delay */\n      0x01\n        /* \"Contracts/Timelock.sol\":6426:6442  delay = newDelay */\n      dup2\n      swap1\n      sstore\n      pop\n        /* \"Contracts/Timelock.sol\":6361:6449  function setDelay(uint256 newDelay) external onlyOwner {... */\n      pop\n      jump\t// out\n        /* \"Contracts/Timelock.sol\":6633:6791  function setGracePeriod(uint256 newGrace) external onlyOwner {... */\n    tag_57:\n        /* \"@openzeppelin/contracts/access/Ownable.sol\":1531:1544  _checkOwner() */\n      tag_129\n        /* \"@openzeppelin/contracts/access/Ownable.sol\":1531:1542  _checkOwner */\n      tag_64\n        /* \"@openzeppelin/contracts/access/Ownable.sol\":1531:1544  _checkOwner() */\n      jump\t// in\n    tag_129:\n        /* \"Contracts/Timelock.sol\":6723:6724  0 */\n      0x00\n        /* \"Contracts/Timelock.sol\":6712:6720  newGrace */\n      dup2\n        /* \"Contracts/Timelock.sol\":6712:6724  newGrace > 0 */\n      gt\n        /* \"Contracts/Timelock.sol\":6704:6752  require(newGrace > 0, \"TimeLock: invalid grace\") */\n      tag_131\n      jumpi\n      mload(0x40)\n      0x08c379a000000000000000000000000000000000000000000000000000000000\n      dup2\n      mstore\n      0x04\n      add\n      tag_132\n      swap1\n      tag_133\n      jump\t// in\n    tag_132:\n      mload(0x40)\n      dup1\n      swap2\n      sub\n      swap1\n      revert\n    tag_131:\n        /* \"Contracts/Timelock.sol\":6776:6784  newGrace */\n      dup1\n        /* \"Contracts/Timelock.sol\":6762:6773  gracePeriod */\n      0x02\n        /* \"Contracts/Timelock.sol\":6762:6784  gracePeriod = newGrace */\n      dup2\n      swap1\n      sstore\n      pop\n        /* \"Contracts/Timelock.sol\":6633:6791  function setGracePeriod(uint256 newGrace) external onlyOwner {... */\n      pop\n      jump\t// out\n        /* \"@openzeppelin/contracts/access/Ownable.sol\":2543:2758  function transferOwnership(address newOwner) public virtual onlyOwner {... */\n    tag_61:\n        /* \"@openzeppelin/contracts/access/Ownable.sol\":1531:1544  _checkOwner() */\n      tag_135\n        /* \"@openzeppelin/contracts/access/Ownable.sol\":1531:1542  _checkOwner */\n      tag_64\n        /* \"@openzeppelin/contracts/access/Ownable.sol\":1531:1544  _checkOwner() */\n      jump\t// in\n    tag_135:\n        /* \"@openzeppelin/contracts/access/Ownable.sol\":2647:2648  0 */\n      0x00\n        /* \"@openzeppelin/contracts/access/Ownable.sol\":2627:2649  newOwner == address(0) */\n      0xffffffffffffffffffffffffffffffffffffffff\n      and\n        /* \"@openzeppelin/contracts/access/Ownable.sol\":2627:2635  newOwner */\n      dup2\n        /* \"@openzeppelin/contracts/access/Ownable.sol\":2627:2649  newOwner == address(0) */\n      0xffffffffffffffffffffffffffffffffffffffff\n      and\n      sub\n        /* \"@openzeppelin/contracts/access/Ownable.sol\":2623:2714  if (newOwner == address(0)) {... */\n      tag_137\n      jumpi\n        /* \"@openzeppelin/contracts/access/Ownable.sol\":2700:2701  0 */\n      0x00\n        /* \"@openzeppelin/contracts/access/Ownable.sol\":2672:2703  OwnableInvalidOwner(address(0)) */\n      mload(0x40)\n      0x1e4fbdf700000000000000000000000000000000000000000000000000000000\n      dup2\n      mstore\n      0x04\n      add\n      tag_138\n      swap2\n      swap1\n      tag_32\n      jump\t// in\n    tag_138:\n      mload(0x40)\n      dup1\n      swap2\n      sub\n      swap1\n      revert\n        /* \"@openzeppelin/contracts/access/Ownable.sol\":2623:2714  if (newOwner == address(0)) {... */\n    tag_137:\n        /* \"@openzeppelin/contracts/access/Ownable.sol\":2723:2751  _transferOwnership(newOwner) */\n      tag_139\n        /* \"@openzeppelin/contracts/access/Ownable.sol\":2742:2750  newOwner */\n      dup2\n        /* \"@openzeppelin/contracts/access/Ownable.sol\":2723:2741  _transferOwnership */\n      tag_104\n        /* \"@openzeppelin/contracts/access/Ownable.sol\":2723:2751  _transferOwnership(newOwner) */\n      jump\t// in\n    tag_139:\n        /* \"@openzeppelin/contracts/access/Ownable.sol\":2543:2758  function transferOwnership(address newOwner) public virtual onlyOwner {... */\n      pop\n      jump\t// out\n        /* \"@openzeppelin/contracts/access/Ownable.sol\":1796:1958  function _checkOwner() internal view virtual {... */\n    tag_64:\n        /* \"@openzeppelin/contracts/access/Ownable.sol\":1866:1878  _msgSender() */\n      tag_141\n        /* \"@openzeppelin/contracts/access/Ownable.sol\":1866:1876  _msgSender */\n      tag_142\n        /* \"@openzeppelin/contracts/access/Ownable.sol\":1866:1878  _msgSender() */\n      jump\t// in\n    tag_141:\n        /* \"@openzeppelin/contracts/access/Ownable.sol\":1855:1878  owner() != _msgSender() */\n      0xffffffffffffffffffffffffffffffffffffffff\n      and\n        /* \"@openzeppelin/contracts/access/Ownable.sol\":1855:1862  owner() */\n      tag_143\n        /* \"@openzeppelin/contracts/access/Ownable.sol\":1855:1860  owner */\n      tag_30\n        /* \"@openzeppelin/contracts/access/Ownable.sol\":1855:1862  owner() */\n      jump\t// in\n    tag_143:\n        /* \"@openzeppelin/contracts/access/Ownable.sol\":1855:1878  owner() != _msgSender() */\n      0xffffffffffffffffffffffffffffffffffffffff\n      and\n      eq\n        /* \"@openzeppelin/contracts/access/Ownable.sol\":1851:1952  if (owner() != _msgSender()) {... */\n      tag_144\n      jumpi\n        /* \"@openzeppelin/contracts/access/Ownable.sol\":1928:1940  _msgSender() */\n      tag_145\n        /* \"@openzeppelin/contracts/access/Ownable.sol\":1928:1938  _msgSender */\n      tag_142\n        /* \"@openzeppelin/contracts/access/Ownable.sol\":1928:1940  _msgSender() */\n      jump\t// in\n    tag_145:\n        /* \"@openzeppelin/contracts/access/Ownable.sol\":1901:1941  OwnableUnauthorizedAccount(_msgSender()) */\n      mload(0x40)\n      0x118cdaa700000000000000000000000000000000000000000000000000000000\n      dup2\n      mstore\n      0x04\n      add\n      tag_146\n      swap2\n      swap1\n      tag_32\n      jump\t// in\n    tag_146:\n      mload(0x40)\n      dup1\n      swap2\n      sub\n      swap1\n      revert\n        /* \"@openzeppelin/contracts/access/Ownable.sol\":1851:1952  if (owner() != _msgSender()) {... */\n    tag_144:\n        /* \"@openzeppelin/contracts/access/Ownable.sol\":1796:1958  function _checkOwner() internal view virtual {... */\n      jump\t// out\n        /* \"@openzeppelin/contracts/access/Ownable.sol\":2912:3099  function _transferOwnership(address newOwner) internal virtual {... */\n    tag_104:\n        /* \"@openzeppelin/contracts/access/Ownable.sol\":2985:3001  address oldOwner */\n      0x00\n        /* \"@openzeppelin/contracts/access/Ownable.sol\":3004:3010  _owner */\n      0x00\n      0x00\n      swap1\n      sload\n      swap1\n      0x0100\n      exp\n      swap1\n      div\n      0xffffffffffffffffffffffffffffffffffffffff\n      and\n        /* \"@openzeppelin/contracts/access/Ownable.sol\":2985:3010  address oldOwner = _owner */\n      swap1\n      pop\n        /* \"@openzeppelin/contracts/access/Ownable.sol\":3029:3037  newOwner */\n      dup2\n        /* \"@openzeppelin/contracts/access/Ownable.sol\":3020:3026  _owner */\n      0x00\n      0x00\n        /* \"@openzeppelin/contracts/access/Ownable.sol\":3020:3037  _owner = newOwner */\n      0x0100\n      exp\n      dup2\n      sload\n      dup2\n      0xffffffffffffffffffffffffffffffffffffffff\n      mul\n      not\n      and\n      swap1\n      dup4\n      0xffffffffffffffffffffffffffffffffffffffff\n      and\n      mul\n      or\n      swap1\n      sstore\n      pop\n        /* \"@openzeppelin/contracts/access/Ownable.sol\":3083:3091  newOwner */\n      dup2\n        /* \"@openzeppelin/contracts/access/Ownable.sol\":3052:3092  OwnershipTransferred(oldOwner, newOwner) */\n      0xffffffffffffffffffffffffffffffffffffffff\n      and\n        /* \"@openzeppelin/contracts/access/Ownable.sol\":3073:3081  oldOwner */\n      dup2\n        /* \"@openzeppelin/contracts/access/Ownable.sol\":3052:3092  OwnershipTransferred(oldOwner, newOwner) */\n      0xffffffffffffffffffffffffffffffffffffffff\n      and\n      0x8be0079c531659141344cd1fd0a4f28419497f9722a3daafe3b4186f6b6457e0\n      mload(0x40)\n      mload(0x40)\n      dup1\n      swap2\n      sub\n      swap1\n      log3\n        /* \"@openzeppelin/contracts/access/Ownable.sol\":2975:3099  {... */\n      pop\n        /* \"@openzeppelin/contracts/access/Ownable.sol\":2912:3099  function _transferOwnership(address newOwner) internal virtual {... */\n      pop\n      jump\t// out\n        /* \"@openzeppelin/contracts/utils/Context.sol\":656:752  function _msgSender() internal view virtual returns (address) {... */\n    tag_142:\n        /* \"@openzeppelin/contracts/utils/Context.sol\":709:716  address */\n      0x00\n        /* \"@openzeppelin/contracts/utils/Context.sol\":735:745  msg.sender */\n      caller\n        /* \"@openzeppelin/contracts/utils/Context.sol\":728:745  return msg.sender */\n      swap1\n      pop\n        /* \"@openzeppelin/contracts/utils/Context.sol\":656:752  function _msgSender() internal view virtual returns (address) {... */\n      swap1\n      jump\t// out\n        /* \"#utility.yul\":88:205   */\n    tag_150:\n        /* \"#utility.yul\":197:198   */\n      0x00\n        /* \"#utility.yul\":194:195   */\n      0x00\n        /* \"#utility.yul\":187:199   */\n      revert\n        /* \"#utility.yul\":334:411   */\n    tag_152:\n        /* \"#utility.yul\":371:378   */\n      0x00\n        /* \"#utility.yul\":400:405   */\n      dup2\n        /* \"#utility.yul\":389:405   */\n      swap1\n      pop\n        /* \"#utility.yul\":334:411   */\n      swap2\n      swap1\n      pop\n      jump\t// out\n        /* \"#utility.yul\":417:539   */\n    tag_153:\n        /* \"#utility.yul\":490:514   */\n      tag_207\n        /* \"#utility.yul\":508:513   */\n      dup2\n        /* \"#utility.yul\":490:514   */\n      tag_152\n      jump\t// in\n    tag_207:\n        /* \"#utility.yul\":483:488   */\n      dup2\n        /* \"#utility.yul\":480:515   */\n      eq\n        /* \"#utility.yul\":470:533   */\n      tag_208\n      jumpi\n        /* \"#utility.yul\":529:530   */\n      0x00\n        /* \"#utility.yul\":526:527   */\n      0x00\n        /* \"#utility.yul\":519:531   */\n      revert\n        /* \"#utility.yul\":470:533   */\n    tag_208:\n        /* \"#utility.yul\":417:539   */\n      pop\n      jump\t// out\n        /* \"#utility.yul\":545:684   */\n    tag_154:\n        /* \"#utility.yul\":591:596   */\n      0x00\n        /* \"#utility.yul\":629:635   */\n      dup2\n        /* \"#utility.yul\":616:636   */\n      calldataload\n        /* \"#utility.yul\":607:636   */\n      swap1\n      pop\n        /* \"#utility.yul\":645:678   */\n      tag_210\n        /* \"#utility.yul\":672:677   */\n      dup2\n        /* \"#utility.yul\":645:678   */\n      tag_153\n      jump\t// in\n    tag_210:\n        /* \"#utility.yul\":545:684   */\n      swap3\n      swap2\n      pop\n      pop\n      jump\t// out\n        /* \"#utility.yul\":690:1019   */\n    tag_18:\n        /* \"#utility.yul\":749:755   */\n      0x00\n        /* \"#utility.yul\":798:800   */\n      0x20\n        /* \"#utility.yul\":786:795   */\n      dup3\n        /* \"#utility.yul\":777:784   */\n      dup5\n        /* \"#utility.yul\":773:796   */\n      sub\n        /* \"#utility.yul\":769:801   */\n      slt\n        /* \"#utility.yul\":766:885   */\n      iszero\n      tag_212\n      jumpi\n        /* \"#utility.yul\":804:883   */\n      tag_213\n      tag_150\n      jump\t// in\n    tag_213:\n        /* \"#utility.yul\":766:885   */\n    tag_212:\n        /* \"#utility.yul\":924:925   */\n      0x00\n        /* \"#utility.yul\":949:1002   */\n      tag_214\n        /* \"#utility.yul\":994:1001   */\n      dup5\n        /* \"#utility.yul\":985:991   */\n      dup3\n        /* \"#utility.yul\":974:983   */\n      dup6\n        /* \"#utility.yul\":970:992   */\n      add\n        /* \"#utility.yul\":949:1002   */\n      tag_154\n      jump\t// in\n    tag_214:\n        /* \"#utility.yul\":939:1002   */\n      swap2\n      pop\n        /* \"#utility.yul\":895:1012   */\n      pop\n        /* \"#utility.yul\":690:1019   */\n      swap3\n      swap2\n      pop\n      pop\n      jump\t// out\n        /* \"#utility.yul\":1025:1102   */\n    tag_155:\n        /* \"#utility.yul\":1062:1069   */\n      0x00\n        /* \"#utility.yul\":1091:1096   */\n      dup2\n        /* \"#utility.yul\":1080:1096   */\n      swap1\n      pop\n        /* \"#utility.yul\":1025:1102   */\n      swap2\n      swap1\n      pop\n      jump\t// out\n        /* \"#utility.yul\":1108:1226   */\n    tag_156:\n        /* \"#utility.yul\":1195:1219   */\n      tag_217\n        /* \"#utility.yul\":1213:1218   */\n      dup2\n        /* \"#utility.yul\":1195:1219   */\n      tag_155\n      jump\t// in\n    tag_217:\n        /* \"#utility.yul\":1190:1193   */\n      dup3\n        /* \"#utility.yul\":1183:1220   */\n      mstore\n        /* \"#utility.yul\":1108:1226   */\n      pop\n      pop\n      jump\t// out\n        /* \"#utility.yul\":1232:1454   */\n    tag_26:\n        /* \"#utility.yul\":1325:1329   */\n      0x00\n        /* \"#utility.yul\":1363:1365   */\n      0x20\n        /* \"#utility.yul\":1352:1361   */\n      dup3\n        /* \"#utility.yul\":1348:1366   */\n      add\n        /* \"#utility.yul\":1340:1366   */\n      swap1\n      pop\n        /* \"#utility.yul\":1376:1447   */\n      tag_219\n        /* \"#utility.yul\":1444:1445   */\n      0x00\n        /* \"#utility.yul\":1433:1442   */\n      dup4\n        /* \"#utility.yul\":1429:1446   */\n      add\n        /* \"#utility.yul\":1420:1426   */\n      dup5\n        /* \"#utility.yul\":1376:1447   */\n      tag_156\n      jump\t// in\n    tag_219:\n        /* \"#utility.yul\":1232:1454   */\n      swap3\n      swap2\n      pop\n      pop\n      jump\t// out\n        /* \"#utility.yul\":1460:1586   */\n    tag_157:\n        /* \"#utility.yul\":1497:1504   */\n      0x00\n        /* \"#utility.yul\":1537:1579   */\n      0xffffffffffffffffffffffffffffffffffffffff\n        /* \"#utility.yul\":1530:1535   */\n      dup3\n        /* \"#utility.yul\":1526:1580   */\n      and\n        /* \"#utility.yul\":1515:1580   */\n      swap1\n      pop\n        /* \"#utility.yul\":1460:1586   */\n      swap2\n      swap1\n      pop\n      jump\t// out\n        /* \"#utility.yul\":1592:1688   */\n    tag_158:\n        /* \"#utility.yul\":1629:1636   */\n      0x00\n        /* \"#utility.yul\":1658:1682   */\n      tag_222\n        /* \"#utility.yul\":1676:1681   */\n      dup3\n        /* \"#utility.yul\":1658:1682   */\n      tag_157\n      jump\t// in\n    tag_222:\n        /* \"#utility.yul\":1647:1682   */\n      swap1\n      pop\n        /* \"#utility.yul\":1592:1688   */\n      swap2\n      swap1\n      pop\n      jump\t// out\n        /* \"#utility.yul\":1694:1812   */\n    tag_159:\n        /* \"#utility.yul\":1781:1805   */\n      tag_224\n        /* \"#utility.yul\":1799:1804   */\n      dup2\n        /* \"#utility.yul\":1781:1805   */\n      tag_158\n      jump\t// in\n    tag_224:\n        /* \"#utility.yul\":1776:1779   */\n      dup3\n        /* \"#utility.yul\":1769:1806   */\n      mstore\n        /* \"#utility.yul\":1694:1812   */\n      pop\n      pop\n      jump\t// out\n        /* \"#utility.yul\":1818:2040   */\n    tag_32:\n        /* \"#utility.yul\":1911:1915   */\n      0x00\n        /* \"#utility.yul\":1949:1951   */\n      0x20\n        /* \"#utility.yul\":1938:1947   */\n      dup3\n        /* \"#utility.yul\":1934:1952   */\n      add\n        /* \"#utility.yul\":1926:1952   */\n      swap1\n      pop\n        /* \"#utility.yul\":1962:2033   */\n      tag_226\n        /* \"#utility.yul\":2030:2031   */\n      0x00\n        /* \"#utility.yul\":2019:2028   */\n      dup4\n        /* \"#utility.yul\":2015:2032   */\n      add\n        /* \"#utility.yul\":2006:2012   */\n      dup5\n        /* \"#utility.yul\":1962:2033   */\n      tag_159\n      jump\t// in\n    tag_226:\n        /* \"#utility.yul\":1818:2040   */\n      swap3\n      swap2\n      pop\n      pop\n      jump\t// out\n        /* \"#utility.yul\":2046:2136   */\n    tag_160:\n        /* \"#utility.yul\":2080:2087   */\n      0x00\n        /* \"#utility.yul\":2123:2128   */\n      dup2\n        /* \"#utility.yul\":2116:2129   */\n      iszero\n        /* \"#utility.yul\":2109:2130   */\n      iszero\n        /* \"#utility.yul\":2098:2130   */\n      swap1\n      pop\n        /* \"#utility.yul\":2046:2136   */\n      swap2\n      swap1\n      pop\n      jump\t// out\n        /* \"#utility.yul\":2142:2251   */\n    tag_161:\n        /* \"#utility.yul\":2223:2244   */\n      tag_229\n        /* \"#utility.yul\":2238:2243   */\n      dup2\n        /* \"#utility.yul\":2223:2244   */\n      tag_160\n      jump\t// in\n    tag_229:\n        /* \"#utility.yul\":2218:2221   */\n      dup3\n        /* \"#utility.yul\":2211:2245   */\n      mstore\n        /* \"#utility.yul\":2142:2251   */\n      pop\n      pop\n      jump\t// out\n        /* \"#utility.yul\":2257:2897   */\n    tag_37:\n        /* \"#utility.yul\":2450:2454   */\n      0x00\n        /* \"#utility.yul\":2488:2491   */\n      0xa0\n        /* \"#utility.yul\":2477:2486   */\n      dup3\n        /* \"#utility.yul\":2473:2492   */\n      add\n        /* \"#utility.yul\":2465:2492   */\n      swap1\n      pop\n        /* \"#utility.yul\":2502:2573   */\n      tag_231\n        /* \"#utility.yul\":2570:2571   */\n      0x00\n        /* \"#utility.yul\":2559:2568   */\n      dup4\n        /* \"#utility.yul\":2555:2572   */\n      add\n        /* \"#utility.yul\":2546:2552   */\n      dup9\n        /* \"#utility.yul\":2502:2573   */\n      tag_159\n      jump\t// in\n    tag_231:\n        /* \"#utility.yul\":2583:2655   */\n      tag_232\n        /* \"#utility.yul\":2651:2653   */\n      0x20\n        /* \"#utility.yul\":2640:2649   */\n      dup4\n        /* \"#utility.yul\":2636:2654   */\n      add\n        /* \"#utility.yul\":2627:2633   */\n      dup8\n        /* \"#utility.yul\":2583:2655   */\n      tag_159\n      jump\t// in\n    tag_232:\n        /* \"#utility.yul\":2665:2737   */\n      tag_233\n        /* \"#utility.yul\":2733:2735   */\n      0x40\n        /* \"#utility.yul\":2722:2731   */\n      dup4\n        /* \"#utility.yul\":2718:2736   */\n      add\n        /* \"#utility.yul\":2709:2715   */\n      dup7\n        /* \"#utility.yul\":2665:2737   */\n      tag_156\n      jump\t// in\n    tag_233:\n        /* \"#utility.yul\":2747:2813   */\n      tag_234\n        /* \"#utility.yul\":2809:2811   */\n      0x60\n        /* \"#utility.yul\":2798:2807   */\n      dup4\n        /* \"#utility.yul\":2794:2812   */\n      add\n        /* \"#utility.yul\":2785:2791   */\n      dup6\n        /* \"#utility.yul\":2747:2813   */\n      tag_161\n      jump\t// in\n    tag_234:\n        /* \"#utility.yul\":2823:2890   */\n      tag_235\n        /* \"#utility.yul\":2885:2888   */\n      0x80\n        /* \"#utility.yul\":2874:2883   */\n      dup4\n        /* \"#utility.yul\":2870:2889   */\n      add\n        /* \"#utility.yul\":2861:2867   */\n      dup5\n        /* \"#utility.yul\":2823:2890   */\n      tag_161\n      jump\t// in\n    tag_235:\n        /* \"#utility.yul\":2257:2897   */\n      swap7\n      swap6\n      pop\n      pop\n      pop\n      pop\n      pop\n      pop\n      jump\t// out\n        /* \"#utility.yul\":2903:3025   */\n    tag_162:\n        /* \"#utility.yul\":2976:3000   */\n      tag_237\n        /* \"#utility.yul\":2994:2999   */\n      dup2\n        /* \"#utility.yul\":2976:3000   */\n      tag_158\n      jump\t// in\n    tag_237:\n        /* \"#utility.yul\":2969:2974   */\n      dup2\n        /* \"#utility.yul\":2966:3001   */\n      eq\n        /* \"#utility.yul\":2956:3019   */\n      tag_238\n      jumpi\n        /* \"#utility.yul\":3015:3016   */\n      0x00\n        /* \"#utility.yul\":3012:3013   */\n      0x00\n        /* \"#utility.yul\":3005:3017   */\n      revert\n        /* \"#utility.yul\":2956:3019   */\n    tag_238:\n        /* \"#utility.yul\":2903:3025   */\n      pop\n      jump\t// out\n        /* \"#utility.yul\":3031:3170   */\n    tag_163:\n        /* \"#utility.yul\":3077:3082   */\n      0x00\n        /* \"#utility.yul\":3115:3121   */\n      dup2\n        /* \"#utility.yul\":3102:3122   */\n      calldataload\n        /* \"#utility.yul\":3093:3122   */\n      swap1\n      pop\n        /* \"#utility.yul\":3131:3164   */\n      tag_240\n        /* \"#utility.yul\":3158:3163   */\n      dup2\n        /* \"#utility.yul\":3131:3164   */\n      tag_162\n      jump\t// in\n    tag_240:\n        /* \"#utility.yul\":3031:3170   */\n      swap3\n      swap2\n      pop\n      pop\n      jump\t// out\n        /* \"#utility.yul\":3176:3650   */\n    tag_43:\n        /* \"#utility.yul\":3244:3250   */\n      0x00\n        /* \"#utility.yul\":3252:3258   */\n      0x00\n        /* \"#utility.yul\":3301:3303   */\n      0x40\n        /* \"#utility.yul\":3289:3298   */\n      dup4\n        /* \"#utility.yul\":3280:3287   */\n      dup6\n        /* \"#utility.yul\":3276:3299   */\n      sub\n        /* \"#utility.yul\":3272:3304   */\n      slt\n        /* \"#utility.yul\":3269:3388   */\n      iszero\n      tag_242\n      jumpi\n        /* \"#utility.yul\":3307:3386   */\n      tag_243\n      tag_150\n      jump\t// in\n    tag_243:\n        /* \"#utility.yul\":3269:3388   */\n    tag_242:\n        /* \"#utility.yul\":3427:3428   */\n      0x00\n        /* \"#utility.yul\":3452:3505   */\n      tag_244\n        /* \"#utility.yul\":3497:3504   */\n      dup6\n        /* \"#utility.yul\":3488:3494   */\n      dup3\n        /* \"#utility.yul\":3477:3486   */\n      dup7\n        /* \"#utility.yul\":3473:3495   */\n      add\n        /* \"#utility.yul\":3452:3505   */\n      tag_163\n      jump\t// in\n    tag_244:\n        /* \"#utility.yul\":3442:3505   */\n      swap3\n      pop\n        /* \"#utility.yul\":3398:3515   */\n      pop\n        /* \"#utility.yul\":3554:3556   */\n      0x20\n        /* \"#utility.yul\":3580:3633   */\n      tag_245\n        /* \"#utility.yul\":3625:3632   */\n      dup6\n        /* \"#utility.yul\":3616:3622   */\n      dup3\n        /* \"#utility.yul\":3605:3614   */\n      dup7\n        /* \"#utility.yul\":3601:3623   */\n      add\n        /* \"#utility.yul\":3580:3633   */\n      tag_163\n      jump\t// in\n    tag_245:\n        /* \"#utility.yul\":3570:3633   */\n      swap2\n      pop\n        /* \"#utility.yul\":3525:3643   */\n      pop\n        /* \"#utility.yul\":3176:3650   */\n      swap3\n      pop\n      swap3\n      swap1\n      pop\n      jump\t// out\n        /* \"#utility.yul\":3656:3774   */\n    tag_164:\n        /* \"#utility.yul\":3743:3767   */\n      tag_247\n        /* \"#utility.yul\":3761:3766   */\n      dup2\n        /* \"#utility.yul\":3743:3767   */\n      tag_152\n      jump\t// in\n    tag_247:\n        /* \"#utility.yul\":3738:3741   */\n      dup3\n        /* \"#utility.yul\":3731:3768   */\n      mstore\n        /* \"#utility.yul\":3656:3774   */\n      pop\n      pop\n      jump\t// out\n        /* \"#utility.yul\":3780:4002   */\n    tag_46:\n        /* \"#utility.yul\":3873:3877   */\n      0x00\n        /* \"#utility.yul\":3911:3913   */\n      0x20\n        /* \"#utility.yul\":3900:3909   */\n      dup3\n        /* \"#utility.yul\":3896:3914   */\n      add\n        /* \"#utility.yul\":3888:3914   */\n      swap1\n      pop\n        /* \"#utility.yul\":3924:3995   */\n      tag_249\n        /* \"#utility.yul\":3992:3993   */\n      0x00\n        /* \"#utility.yul\":3981:3990   */\n      dup4\n        /* \"#utility.yul\":3977:3994   */\n      add\n        /* \"#utility.yul\":3968:3974   */\n      dup5\n        /* \"#utility.yul\":3924:3995   */\n      tag_164\n      jump\t// in\n    tag_249:\n        /* \"#utility.yul\":3780:4002   */\n      swap3\n      swap2\n      pop\n      pop\n      jump\t// out\n        /* \"#utility.yul\":4008:4130   */\n    tag_165:\n        /* \"#utility.yul\":4081:4105   */\n      tag_251\n        /* \"#utility.yul\":4099:4104   */\n      dup2\n        /* \"#utility.yul\":4081:4105   */\n      tag_155\n      jump\t// in\n    tag_251:\n        /* \"#utility.yul\":4074:4079   */\n      dup2\n        /* \"#utility.yul\":4071:4106   */\n      eq\n        /* \"#utility.yul\":4061:4124   */\n      tag_252\n      jumpi\n        /* \"#utility.yul\":4120:4121   */\n      0x00\n        /* \"#utility.yul\":4117:4118   */\n      0x00\n        /* \"#utility.yul\":4110:4122   */\n      revert\n        /* \"#utility.yul\":4061:4124   */\n    tag_252:\n        /* \"#utility.yul\":4008:4130   */\n      pop\n      jump\t// out\n        /* \"#utility.yul\":4136:4275   */\n    tag_166:\n        /* \"#utility.yul\":4182:4187   */\n      0x00\n        /* \"#utility.yul\":4220:4226   */\n      dup2\n        /* \"#utility.yul\":4207:4227   */\n      calldataload\n        /* \"#utility.yul\":4198:4227   */\n      swap1\n      pop\n        /* \"#utility.yul\":4236:4269   */\n      tag_254\n        /* \"#utility.yul\":4263:4268   */\n      dup2\n        /* \"#utility.yul\":4236:4269   */\n      tag_165\n      jump\t// in\n    tag_254:\n        /* \"#utility.yul\":4136:4275   */\n      swap3\n      swap2\n      pop\n      pop\n      jump\t// out\n        /* \"#utility.yul\":4281:4610   */\n    tag_53:\n        /* \"#utility.yul\":4340:4346   */\n      0x00\n        /* \"#utility.yul\":4389:4391   */\n      0x20\n        /* \"#utility.yul\":4377:4386   */\n      dup3\n        /* \"#utility.yul\":4368:4375   */\n      dup5\n        /* \"#utility.yul\":4364:4387   */\n      sub\n        /* \"#utility.yul\":4360:4392   */\n      slt\n        /* \"#utility.yul\":4357:4476   */\n      iszero\n      tag_256\n      jumpi\n        /* \"#utility.yul\":4395:4474   */\n      tag_257\n      tag_150\n      jump\t// in\n    tag_257:\n        /* \"#utility.yul\":4357:4476   */\n    tag_256:\n        /* \"#utility.yul\":4515:4516   */\n      0x00\n        /* \"#utility.yul\":4540:4593   */\n      tag_258\n        /* \"#utility.yul\":4585:4592   */\n      dup5\n        /* \"#utility.yul\":4576:4582   */\n      dup3\n        /* \"#utility.yul\":4565:4574   */\n      dup6\n        /* \"#utility.yul\":4561:4583   */\n      add\n        /* \"#utility.yul\":4540:4593   */\n      tag_166\n      jump\t// in\n    tag_258:\n        /* \"#utility.yul\":4530:4593   */\n      swap2\n      pop\n        /* \"#utility.yul\":4486:4603   */\n      pop\n        /* \"#utility.yul\":4281:4610   */\n      swap3\n      swap2\n      pop\n      pop\n      jump\t// out\n        /* \"#utility.yul\":4616:4945   */\n    tag_60:\n        /* \"#utility.yul\":4675:4681   */\n      0x00\n        /* \"#utility.yul\":4724:4726   */\n      0x20\n        /* \"#utility.yul\":4712:4721   */\n      dup3\n        /* \"#utility.yul\":4703:4710   */\n      dup5\n        /* \"#utility.yul\":4699:4722   */\n      sub\n        /* \"#utility.yul\":4695:4727   */\n      slt\n        /* \"#utility.yul\":4692:4811   */\n      iszero\n      tag_260\n      jumpi\n        /* \"#utility.yul\":4730:4809   */\n      tag_261\n      tag_150\n      jump\t// in\n    tag_261:\n        /* \"#utility.yul\":4692:4811   */\n    tag_260:\n        /* \"#utility.yul\":4850:4851   */\n      0x00\n        /* \"#utility.yul\":4875:4928   */\n      tag_262\n        /* \"#utility.yul\":4920:4927   */\n      dup5\n        /* \"#utility.yul\":4911:4917   */\n      dup3\n        /* \"#utility.yul\":4900:4909   */\n      dup6\n        /* \"#utility.yul\":4896:4918   */\n      add\n        /* \"#utility.yul\":4875:4928   */\n      tag_163\n      jump\t// in\n    tag_262:\n        /* \"#utility.yul\":4865:4928   */\n      swap2\n      pop\n        /* \"#utility.yul\":4821:4938   */\n      pop\n        /* \"#utility.yul\":4616:4945   */\n      swap3\n      swap2\n      pop\n      pop\n      jump\t// out\n        /* \"#utility.yul\":4951:5120   */\n    tag_167:\n        /* \"#utility.yul\":5035:5046   */\n      0x00\n        /* \"#utility.yul\":5069:5075   */\n      dup3\n        /* \"#utility.yul\":5064:5067   */\n      dup3\n        /* \"#utility.yul\":5057:5076   */\n      mstore\n        /* \"#utility.yul\":5109:5113   */\n      0x20\n        /* \"#utility.yul\":5104:5107   */\n      dup3\n        /* \"#utility.yul\":5100:5114   */\n      add\n        /* \"#utility.yul\":5085:5114   */\n      swap1\n      pop\n        /* \"#utility.yul\":4951:5120   */\n      swap3\n      swap2\n      pop\n      pop\n      jump\t// out\n        /* \"#utility.yul\":5126:5301   */\n    tag_168:\n        /* \"#utility.yul\":5266:5293   */\n      0x54696d654c6f636b3a20756e6b6e6f776e207265717565737400000000000000\n        /* \"#utility.yul\":5262:5263   */\n      0x00\n        /* \"#utility.yul\":5254:5260   */\n      dup3\n        /* \"#utility.yul\":5250:5264   */\n      add\n        /* \"#utility.yul\":5243:5294   */\n      mstore\n        /* \"#utility.yul\":5126:5301   */\n      pop\n      jump\t// out\n        /* \"#utility.yul\":5307:5673   */\n    tag_169:\n        /* \"#utility.yul\":5449:5452   */\n      0x00\n        /* \"#utility.yul\":5470:5537   */\n      tag_266\n        /* \"#utility.yul\":5534:5536   */\n      0x19\n        /* \"#utility.yul\":5529:5532   */\n      dup4\n        /* \"#utility.yul\":5470:5537   */\n      tag_167\n      jump\t// in\n    tag_266:\n        /* \"#utility.yul\":5463:5537   */\n      swap2\n      pop\n        /* \"#utility.yul\":5546:5639   */\n      tag_267\n        /* \"#utility.yul\":5635:5638   */\n      dup3\n        /* \"#utility.yul\":5546:5639   */\n      tag_168\n      jump\t// in\n    tag_267:\n        /* \"#utility.yul\":5664:5666   */\n      0x20\n        /* \"#utility.yul\":5659:5662   */\n      dup3\n        /* \"#utility.yul\":5655:5667   */\n      add\n        /* \"#utility.yul\":5648:5667   */\n      swap1\n      pop\n        /* \"#utility.yul\":5307:5673   */\n      swap2\n      swap1\n      pop\n      jump\t// out\n        /* \"#utility.yul\":5679:6098   */\n    tag_68:\n        /* \"#utility.yul\":5845:5849   */\n      0x00\n        /* \"#utility.yul\":5883:5885   */\n      0x20\n        /* \"#utility.yul\":5872:5881   */\n      dup3\n        /* \"#utility.yul\":5868:5886   */\n      add\n        /* \"#utility.yul\":5860:5886   */\n      swap1\n      pop\n        /* \"#utility.yul\":5932:5941   */\n      dup2\n        /* \"#utility.yul\":5926:5930   */\n      dup2\n        /* \"#utility.yul\":5922:5942   */\n      sub\n        /* \"#utility.yul\":5918:5919   */\n      0x00\n        /* \"#utility.yul\":5907:5916   */\n      dup4\n        /* \"#utility.yul\":5903:5920   */\n      add\n        /* \"#utility.yul\":5896:5943   */\n      mstore\n        /* \"#utility.yul\":5960:6091   */\n      tag_269\n        /* \"#utility.yul\":6086:6090   */\n      dup2\n        /* \"#utility.yul\":5960:6091   */\n      tag_169\n      jump\t// in\n    tag_269:\n        /* \"#utility.yul\":5952:6091   */\n      swap1\n      pop\n        /* \"#utility.yul\":5679:6098   */\n      swap2\n      swap1\n      pop\n      jump\t// out\n        /* \"#utility.yul\":6104:6325   */\n    tag_170:\n        /* \"#utility.yul\":6244:6278   */\n      0x54696d654c6f636b3a207265717565737420616c726561647920657865637574\n        /* \"#utility.yul\":6240:6241   */\n      0x00\n        /* \"#utility.yul\":6232:6238   */\n      dup3\n        /* \"#utility.yul\":6228:6242   */\n      add\n        /* \"#utility.yul\":6221:6279   */\n      mstore\n        /* \"#utility.yul\":6313:6317   */\n      0x6564000000000000000000000000000000000000000000000000000000000000\n        /* \"#utility.yul\":6308:6310   */\n      0x20\n        /* \"#utility.yul\":6300:6306   */\n      dup3\n        /* \"#utility.yul\":6296:6311   */\n      add\n        /* \"#utility.yul\":6289:6318   */\n      mstore\n        /* \"#utility.yul\":6104:6325   */\n      pop\n      jump\t// out\n        /* \"#utility.yul\":6331:6697   */\n    tag_171:\n        /* \"#utility.yul\":6473:6476   */\n      0x00\n        /* \"#utility.yul\":6494:6561   */\n      tag_272\n        /* \"#utility.yul\":6558:6560   */\n      0x22\n        /* \"#utility.yul\":6553:6556   */\n      dup4\n        /* \"#utility.yul\":6494:6561   */\n      tag_167\n      jump\t// in\n    tag_272:\n        /* \"#utility.yul\":6487:6561   */\n      swap2\n      pop\n        /* \"#utility.yul\":6570:6663   */\n      tag_273\n        /* \"#utility.yul\":6659:6662   */\n      dup3\n        /* \"#utility.yul\":6570:6663   */\n      tag_170\n      jump\t// in\n    tag_273:\n        /* \"#utility.yul\":6688:6690   */\n      0x40\n        /* \"#utility.yul\":6683:6686   */\n      dup3\n        /* \"#utility.yul\":6679:6691   */\n      add\n        /* \"#utility.yul\":6672:6691   */\n      swap1\n      pop\n        /* \"#utility.yul\":6331:6697   */\n      swap2\n      swap1\n      pop\n      jump\t// out\n        /* \"#utility.yul\":6703:7122   */\n    tag_71:\n        /* \"#utility.yul\":6869:6873   */\n      0x00\n        /* \"#utility.yul\":6907:6909   */\n      0x20\n        /* \"#utility.yul\":6896:6905   */\n      dup3\n        /* \"#utility.yul\":6892:6910   */\n      add\n        /* \"#utility.yul\":6884:6910   */\n      swap1\n      pop\n        /* \"#utility.yul\":6956:6965   */\n      dup2\n        /* \"#utility.yul\":6950:6954   */\n      dup2\n        /* \"#utility.yul\":6946:6966   */\n      sub\n        /* \"#utility.yul\":6942:6943   */\n      0x00\n        /* \"#utility.yul\":6931:6940   */\n      dup4\n        /* \"#utility.yul\":6927:6944   */\n      add\n        /* \"#utility.yul\":6920:6967   */\n      mstore\n        /* \"#utility.yul\":6984:7115   */\n      tag_275\n        /* \"#utility.yul\":7110:7114   */\n      dup2\n        /* \"#utility.yul\":6984:7115   */\n      tag_171\n      jump\t// in\n    tag_275:\n        /* \"#utility.yul\":6976:7115   */\n      swap1\n      pop\n        /* \"#utility.yul\":6703:7122   */\n      swap2\n      swap1\n      pop\n      jump\t// out\n        /* \"#utility.yul\":7128:7349   */\n    tag_172:\n        /* \"#utility.yul\":7268:7302   */\n      0x54696d654c6f636b3a207265717565737420616c72656164792063616e63656c\n        /* \"#utility.yul\":7264:7265   */\n      0x00\n        /* \"#utility.yul\":7256:7262   */\n      dup3\n        /* \"#utility.yul\":7252:7266   */\n      add\n        /* \"#utility.yul\":7245:7303   */\n      mstore\n        /* \"#utility.yul\":7337:7341   */\n      0x6564000000000000000000000000000000000000000000000000000000000000\n        /* \"#utility.yul\":7332:7334   */\n      0x20\n        /* \"#utility.yul\":7324:7330   */\n      dup3\n        /* \"#utility.yul\":7320:7335   */\n      add\n        /* \"#utility.yul\":7313:7342   */\n      mstore\n        /* \"#utility.yul\":7128:7349   */\n      pop\n      jump\t// out\n        /* \"#utility.yul\":7355:7721   */\n    tag_173:\n        /* \"#utility.yul\":7497:7500   */\n      0x00\n        /* \"#utility.yul\":7518:7585   */\n      tag_278\n        /* \"#utility.yul\":7582:7584   */\n      0x22\n        /* \"#utility.yul\":7577:7580   */\n      dup4\n        /* \"#utility.yul\":7518:7585   */\n      tag_167\n      jump\t// in\n    tag_278:\n        /* \"#utility.yul\":7511:7585   */\n      swap2\n      pop\n        /* \"#utility.yul\":7594:7687   */\n      tag_279\n        /* \"#utility.yul\":7683:7686   */\n      dup3\n        /* \"#utility.yul\":7594:7687   */\n      tag_172\n      jump\t// in\n    tag_279:\n        /* \"#utility.yul\":7712:7714   */\n      0x40\n        /* \"#utility.yul\":7707:7710   */\n      dup3\n        /* \"#utility.yul\":7703:7715   */\n      add\n        /* \"#utility.yul\":7696:7715   */\n      swap1\n      pop\n        /* \"#utility.yul\":7355:7721   */\n      swap2\n      swap1\n      pop\n      jump\t// out\n        /* \"#utility.yul\":7727:8146   */\n    tag_74:\n        /* \"#utility.yul\":7893:7897   */\n      0x00\n        /* \"#utility.yul\":7931:7933   */\n      0x20\n        /* \"#utility.yul\":7920:7929   */\n      dup3\n        /* \"#utility.yul\":7916:7934   */\n      add\n        /* \"#utility.yul\":7908:7934   */\n      swap1\n      pop\n        /* \"#utility.yul\":7980:7989   */\n      dup2\n        /* \"#utility.yul\":7974:7978   */\n      dup2\n        /* \"#utility.yul\":7970:7990   */\n      sub\n        /* \"#utility.yul\":7966:7967   */\n      0x00\n        /* \"#utility.yul\":7955:7964   */\n      dup4\n        /* \"#utility.yul\":7951:7968   */\n      add\n        /* \"#utility.yul\":7944:7991   */\n      mstore\n        /* \"#utility.yul\":8008:8139   */\n      tag_281\n        /* \"#utility.yul\":8134:8138   */\n      dup2\n        /* \"#utility.yul\":8008:8139   */\n      tag_173\n      jump\t// in\n    tag_281:\n        /* \"#utility.yul\":8000:8139   */\n      swap1\n      pop\n        /* \"#utility.yul\":7727:8146   */\n      swap2\n      swap1\n      pop\n      jump\t// out\n        /* \"#utility.yul\":8152:8328   */\n    tag_174:\n        /* \"#utility.yul\":8292:8320   */\n      0x54696d654c6f636b3a20726571756573742063616e63656c6564000000000000\n        /* \"#utility.yul\":8288:8289   */\n      0x00\n        /* \"#utility.yul\":8280:8286   */\n      dup3\n        /* \"#utility.yul\":8276:8290   */\n      add\n        /* \"#utility.yul\":8269:8321   */\n      mstore\n        /* \"#utility.yul\":8152:8328   */\n      pop\n      jump\t// out\n        /* \"#utility.yul\":8334:8700   */\n    tag_175:\n        /* \"#utility.yul\":8476:8479   */\n      0x00\n        /* \"#utility.yul\":8497:8564   */\n      tag_284\n        /* \"#utility.yul\":8561:8563   */\n      0x1a\n        /* \"#utility.yul\":8556:8559   */\n      dup4\n        /* \"#utility.yul\":8497:8564   */\n      tag_167\n      jump\t// in\n    tag_284:\n        /* \"#utility.yul\":8490:8564   */\n      swap2\n      pop\n        /* \"#utility.yul\":8573:8666   */\n      tag_285\n        /* \"#utility.yul\":8662:8665   */\n      dup3\n        /* \"#utility.yul\":8573:8666   */\n      tag_174\n      jump\t// in\n    tag_285:\n        /* \"#utility.yul\":8691:8693   */\n      0x20\n        /* \"#utility.yul\":8686:8689   */\n      dup3\n        /* \"#utility.yul\":8682:8694   */\n      add\n        /* \"#utility.yul\":8675:8694   */\n      swap1\n      pop\n        /* \"#utility.yul\":8334:8700   */\n      swap2\n      swap1\n      pop\n      jump\t// out\n        /* \"#utility.yul\":8706:9125   */\n    tag_82:\n        /* \"#utility.yul\":8872:8876   */\n      0x00\n        /* \"#utility.yul\":8910:8912   */\n      0x20\n        /* \"#utility.yul\":8899:8908   */\n      dup3\n        /* \"#utility.yul\":8895:8913   */\n      add\n        /* \"#utility.yul\":8887:8913   */\n      swap1\n      pop\n        /* \"#utility.yul\":8959:8968   */\n      dup2\n        /* \"#utility.yul\":8953:8957   */\n      dup2\n        /* \"#utility.yul\":8949:8969   */\n      sub\n        /* \"#utility.yul\":8945:8946   */\n      0x00\n        /* \"#utility.yul\":8934:8943   */\n      dup4\n        /* \"#utility.yul\":8930:8947   */\n      add\n        /* \"#utility.yul\":8923:8970   */\n      mstore\n        /* \"#utility.yul\":8987:9118   */\n      tag_287\n        /* \"#utility.yul\":9113:9117   */\n      dup2\n        /* \"#utility.yul\":8987:9118   */\n      tag_175\n      jump\t// in\n    tag_287:\n        /* \"#utility.yul\":8979:9118   */\n      swap1\n      pop\n        /* \"#utility.yul\":8706:9125   */\n      swap2\n      swap1\n      pop\n      jump\t// out\n        /* \"#utility.yul\":9131:9300   */\n    tag_176:\n        /* \"#utility.yul\":9271:9292   */\n      0x54696d654c6f636b3a20746f6f206561726c7900000000000000000000000000\n        /* \"#utility.yul\":9267:9268   */\n      0x00\n        /* \"#utility.yul\":9259:9265   */\n      dup3\n        /* \"#utility.yul\":9255:9269   */\n      add\n        /* \"#utility.yul\":9248:9293   */\n      mstore\n        /* \"#utility.yul\":9131:9300   */\n      pop\n      jump\t// out\n        /* \"#utility.yul\":9306:9672   */\n    tag_177:\n        /* \"#utility.yul\":9448:9451   */\n      0x00\n        /* \"#utility.yul\":9469:9536   */\n      tag_290\n        /* \"#utility.yul\":9533:9535   */\n      0x13\n        /* \"#utility.yul\":9528:9531   */\n      dup4\n        /* \"#utility.yul\":9469:9536   */\n      tag_167\n      jump\t// in\n    tag_290:\n        /* \"#utility.yul\":9462:9536   */\n      swap2\n      pop\n        /* \"#utility.yul\":9545:9638   */\n      tag_291\n        /* \"#utility.yul\":9634:9637   */\n      dup3\n        /* \"#utility.yul\":9545:9638   */\n      tag_176\n      jump\t// in\n    tag_291:\n        /* \"#utility.yul\":9663:9665   */\n      0x20\n        /* \"#utility.yul\":9658:9661   */\n      dup3\n        /* \"#utility.yul\":9654:9666   */\n      add\n        /* \"#utility.yul\":9647:9666   */\n      swap1\n      pop\n        /* \"#utility.yul\":9306:9672   */\n      swap2\n      swap1\n      pop\n      jump\t// out\n        /* \"#utility.yul\":9678:10097   */\n    tag_85:\n        /* \"#utility.yul\":9844:9848   */\n      0x00\n        /* \"#utility.yul\":9882:9884   */\n      0x20\n        /* \"#utility.yul\":9871:9880   */\n      dup3\n        /* \"#utility.yul\":9867:9885   */\n      add\n        /* \"#utility.yul\":9859:9885   */\n      swap1\n      pop\n        /* \"#utility.yul\":9931:9940   */\n      dup2\n        /* \"#utility.yul\":9925:9929   */\n      dup2\n        /* \"#utility.yul\":9921:9941   */\n      sub\n        /* \"#utility.yul\":9917:9918   */\n      0x00\n        /* \"#utility.yul\":9906:9915   */\n      dup4\n        /* \"#utility.yul\":9902:9919   */\n      add\n        /* \"#utility.yul\":9895:9942   */\n      mstore\n        /* \"#utility.yul\":9959:10090   */\n      tag_293\n        /* \"#utility.yul\":10085:10089   */\n      dup2\n        /* \"#utility.yul\":9959:10090   */\n      tag_177\n      jump\t// in\n    tag_293:\n        /* \"#utility.yul\":9951:10090   */\n      swap1\n      pop\n        /* \"#utility.yul\":9678:10097   */\n      swap2\n      swap1\n      pop\n      jump\t// out\n        /* \"#utility.yul\":10103:10283   */\n    tag_178:\n        /* \"#utility.yul\":10151:10228   */\n      0x4e487b7100000000000000000000000000000000000000000000000000000000\n        /* \"#utility.yul\":10148:10149   */\n      0x00\n        /* \"#utility.yul\":10141:10229   */\n      mstore\n        /* \"#utility.yul\":10248:10252   */\n      0x11\n        /* \"#utility.yul\":10245:10246   */\n      0x04\n        /* \"#utility.yul\":10238:10253   */\n      mstore\n        /* \"#utility.yul\":10272:10276   */\n      0x24\n        /* \"#utility.yul\":10269:10270   */\n      0x00\n        /* \"#utility.yul\":10262:10277   */\n      revert\n        /* \"#utility.yul\":10289:10480   */\n    tag_87:\n        /* \"#utility.yul\":10329:10332   */\n      0x00\n        /* \"#utility.yul\":10348:10368   */\n      tag_296\n        /* \"#utility.yul\":10366:10367   */\n      dup3\n        /* \"#utility.yul\":10348:10368   */\n      tag_155\n      jump\t// in\n    tag_296:\n        /* \"#utility.yul\":10343:10368   */\n      swap2\n      pop\n        /* \"#utility.yul\":10382:10402   */\n      tag_297\n        /* \"#utility.yul\":10400:10401   */\n      dup4\n        /* \"#utility.yul\":10382:10402   */\n      tag_155\n      jump\t// in\n    tag_297:\n        /* \"#utility.yul\":10377:10402   */\n      swap3\n      pop\n        /* \"#utility.yul\":10425:10426   */\n      dup3\n        /* \"#utility.yul\":10422:10423   */\n      dup3\n        /* \"#utility.yul\":10418:10427   */\n      add\n        /* \"#utility.yul\":10411:10427   */\n      swap1\n      pop\n        /* \"#utility.yul\":10446:10449   */\n      dup1\n        /* \"#utility.yul\":10443:10444   */\n      dup3\n        /* \"#utility.yul\":10440:10450   */\n      gt\n        /* \"#utility.yul\":10437:10473   */\n      iszero\n      tag_298\n      jumpi\n        /* \"#utility.yul\":10453:10471   */\n      tag_299\n      tag_178\n      jump\t// in\n    tag_299:\n        /* \"#utility.yul\":10437:10473   */\n    tag_298:\n        /* \"#utility.yul\":10289:10480   */\n      swap3\n      swap2\n      pop\n      pop\n      jump\t// out\n        /* \"#utility.yul\":10486:10661   */\n    tag_179:\n        /* \"#utility.yul\":10626:10653   */\n      0x54696d654c6f636b3a2072657175657374206578706972656400000000000000\n        /* \"#utility.yul\":10622:10623   */\n      0x00\n        /* \"#utility.yul\":10614:10620   */\n      dup3\n        /* \"#utility.yul\":10610:10624   */\n      add\n        /* \"#utility.yul\":10603:10654   */\n      mstore\n        /* \"#utility.yul\":10486:10661   */\n      pop\n      jump\t// out\n        /* \"#utility.yul\":10667:11033   */\n    tag_180:\n        /* \"#utility.yul\":10809:10812   */\n      0x00\n        /* \"#utility.yul\":10830:10897   */\n      tag_302\n        /* \"#utility.yul\":10894:10896   */\n      0x19\n        /* \"#utility.yul\":10889:10892   */\n      dup4\n        /* \"#utility.yul\":10830:10897   */\n      tag_167\n      jump\t// in\n    tag_302:\n        /* \"#utility.yul\":10823:10897   */\n      swap2\n      pop\n        /* \"#utility.yul\":10906:10999   */\n      tag_303\n        /* \"#utility.yul\":10995:10998   */\n      dup3\n        /* \"#utility.yul\":10906:10999   */\n      tag_179\n      jump\t// in\n    tag_303:\n        /* \"#utility.yul\":11024:11026   */\n      0x20\n        /* \"#utility.yul\":11019:11022   */\n      dup3\n        /* \"#utility.yul\":11015:11027   */\n      add\n        /* \"#utility.yul\":11008:11027   */\n      swap1\n      pop\n        /* \"#utility.yul\":10667:11033   */\n      swap2\n      swap1\n      pop\n      jump\t// out\n        /* \"#utility.yul\":11039:11458   */\n    tag_90:\n        /* \"#utility.yul\":11205:11209   */\n      0x00\n        /* \"#utility.yul\":11243:11245   */\n      0x20\n        /* \"#utility.yul\":11232:11241   */\n      dup3\n        /* \"#utility.yul\":11228:11246   */\n      add\n        /* \"#utility.yul\":11220:11246   */\n      swap1\n      pop\n        /* \"#utility.yul\":11292:11301   */\n      dup2\n        /* \"#utility.yul\":11286:11290   */\n      dup2\n        /* \"#utility.yul\":11282:11302   */\n      sub\n        /* \"#utility.yul\":11278:11279   */\n      0x00\n        /* \"#utility.yul\":11267:11276   */\n      dup4\n        /* \"#utility.yul\":11263:11280   */\n      add\n        /* \"#utility.yul\":11256:11303   */\n      mstore\n        /* \"#utility.yul\":11320:11451   */\n      tag_305\n        /* \"#utility.yul\":11446:11450   */\n      dup2\n        /* \"#utility.yul\":11320:11451   */\n      tag_180\n      jump\t// in\n    tag_305:\n        /* \"#utility.yul\":11312:11451   */\n      swap1\n      pop\n        /* \"#utility.yul\":11039:11458   */\n      swap2\n      swap1\n      pop\n      jump\t// out\n        /* \"#utility.yul\":11464:11562   */\n    tag_181:\n        /* \"#utility.yul\":11515:11521   */\n      0x00\n        /* \"#utility.yul\":11549:11554   */\n      dup2\n        /* \"#utility.yul\":11543:11555   */\n      mload\n        /* \"#utility.yul\":11533:11555   */\n      swap1\n      pop\n        /* \"#utility.yul\":11464:11562   */\n      swap2\n      swap1\n      pop\n      jump\t// out\n        /* \"#utility.yul\":11568:11715   */\n    tag_182:\n        /* \"#utility.yul\":11669:11680   */\n      0x00\n        /* \"#utility.yul\":11706:11709   */\n      dup2\n        /* \"#utility.yul\":11691:11709   */\n      swap1\n      pop\n        /* \"#utility.yul\":11568:11715   */\n      swap3\n      swap2\n      pop\n      pop\n      jump\t// out\n        /* \"#utility.yul\":11721:11860   */\n    tag_183:\n        /* \"#utility.yul\":11810:11816   */\n      dup3\n        /* \"#utility.yul\":11805:11808   */\n      dup2\n        /* \"#utility.yul\":11800:11803   */\n      dup4\n        /* \"#utility.yul\":11794:11817   */\n      mcopy\n        /* \"#utility.yul\":11851:11852   */\n      0x00\n        /* \"#utility.yul\":11842:11848   */\n      dup4\n        /* \"#utility.yul\":11837:11840   */\n      dup4\n        /* \"#utility.yul\":11833:11849   */\n      add\n        /* \"#utility.yul\":11826:11853   */\n      mstore\n        /* \"#utility.yul\":11721:11860   */\n      pop\n      pop\n      pop\n      jump\t// out\n        /* \"#utility.yul\":11866:12252   */\n    tag_184:\n        /* \"#utility.yul\":11970:11973   */\n      0x00\n        /* \"#utility.yul\":11998:12036   */\n      tag_310\n        /* \"#utility.yul\":12030:12035   */\n      dup3\n        /* \"#utility.yul\":11998:12036   */\n      tag_181\n      jump\t// in\n    tag_310:\n        /* \"#utility.yul\":12052:12140   */\n      tag_311\n        /* \"#utility.yul\":12133:12139   */\n      dup2\n        /* \"#utility.yul\":12128:12131   */\n      dup6\n        /* \"#utility.yul\":12052:12140   */\n      tag_182\n      jump\t// in\n    tag_311:\n        /* \"#utility.yul\":12045:12140   */\n      swap4\n      pop\n        /* \"#utility.yul\":12149:12214   */\n      tag_312\n        /* \"#utility.yul\":12207:12213   */\n      dup2\n        /* \"#utility.yul\":12202:12205   */\n      dup6\n        /* \"#utility.yul\":12195:12199   */\n      0x20\n        /* \"#utility.yul\":12188:12193   */\n      dup7\n        /* \"#utility.yul\":12184:12200   */\n      add\n        /* \"#utility.yul\":12149:12214   */\n      tag_183\n      jump\t// in\n    tag_312:\n        /* \"#utility.yul\":12239:12245   */\n      dup1\n        /* \"#utility.yul\":12234:12237   */\n      dup5\n        /* \"#utility.yul\":12230:12246   */\n      add\n        /* \"#utility.yul\":12223:12246   */\n      swap2\n      pop\n        /* \"#utility.yul\":11974:12252   */\n      pop\n        /* \"#utility.yul\":11866:12252   */\n      swap3\n      swap2\n      pop\n      pop\n      jump\t// out\n        /* \"#utility.yul\":12258:12529   */\n    tag_93:\n        /* \"#utility.yul\":12388:12391   */\n      0x00\n        /* \"#utility.yul\":12410:12503   */\n      tag_314\n        /* \"#utility.yul\":12499:12502   */\n      dup3\n        /* \"#utility.yul\":12490:12496   */\n      dup5\n        /* \"#utility.yul\":12410:12503   */\n      tag_184\n      jump\t// in\n    tag_314:\n        /* \"#utility.yul\":12403:12503   */\n      swap2\n      pop\n        /* \"#utility.yul\":12520:12523   */\n      dup2\n        /* \"#utility.yul\":12513:12523   */\n      swap1\n      pop\n        /* \"#utility.yul\":12258:12529   */\n      swap3\n      swap2\n      pop\n      pop\n      jump\t// out\n        /* \"#utility.yul\":12535:12714   */\n    tag_185:\n        /* \"#utility.yul\":12675:12706   */\n      0x54696d654c6f636b3a20757067726164652063616c6c206661696c6564000000\n        /* \"#utility.yul\":12671:12672   */\n      0x00\n        /* \"#utility.yul\":12663:12669   */\n      dup3\n        /* \"#utility.yul\":12659:12673   */\n      add\n        /* \"#utility.yul\":12652:12707   */\n      mstore\n        /* \"#utility.yul\":12535:12714   */\n      pop\n      jump\t// out\n        /* \"#utility.yul\":12720:13086   */\n    tag_186:\n        /* \"#utility.yul\":12862:12865   */\n      0x00\n        /* \"#utility.yul\":12883:12950   */\n      tag_317\n        /* \"#utility.yul\":12947:12949   */\n      0x1d\n        /* \"#utility.yul\":12942:12945   */\n      dup4\n        /* \"#utility.yul\":12883:12950   */\n      tag_167\n      jump\t// in\n    tag_317:\n        /* \"#utility.yul\":12876:12950   */\n      swap2\n      pop\n        /* \"#utility.yul\":12959:13052   */\n      tag_318\n        /* \"#utility.yul\":13048:13051   */\n      dup3\n        /* \"#utility.yul\":12959:13052   */\n      tag_185\n      jump\t// in\n    tag_318:\n        /* \"#utility.yul\":13077:13079   */\n      0x20\n        /* \"#utility.yul\":13072:13075   */\n      dup3\n        /* \"#utility.yul\":13068:13080   */\n      add\n        /* \"#utility.yul\":13061:13080   */\n      swap1\n      pop\n        /* \"#utility.yul\":12720:13086   */\n      swap2\n      swap1\n      pop\n      jump\t// out\n        /* \"#utility.yul\":13092:13511   */\n    tag_99:\n        /* \"#utility.yul\":13258:13262   */\n      0x00\n        /* \"#utility.yul\":13296:13298   */\n      0x20\n        /* \"#utility.yul\":13285:13294   */\n      dup3\n        /* \"#utility.yul\":13281:13299   */\n      add\n        /* \"#utility.yul\":13273:13299   */\n      swap1\n      pop\n        /* \"#utility.yul\":13345:13354   */\n      dup2\n        /* \"#utility.yul\":13339:13343   */\n      dup2\n        /* \"#utility.yul\":13335:13355   */\n      sub\n        /* \"#utility.yul\":13331:13332   */\n      0x00\n        /* \"#utility.yul\":13320:13329   */\n      dup4\n        /* \"#utility.yul\":13316:13333   */\n      add\n        /* \"#utility.yul\":13309:13356   */\n      mstore\n        /* \"#utility.yul\":13373:13504   */\n      tag_320\n        /* \"#utility.yul\":13499:13503   */\n      dup2\n        /* \"#utility.yul\":13373:13504   */\n      tag_186\n      jump\t// in\n    tag_320:\n        /* \"#utility.yul\":13365:13504   */\n      swap1\n      pop\n        /* \"#utility.yul\":13092:13511   */\n      swap2\n      swap1\n      pop\n      jump\t// out\n        /* \"#utility.yul\":13517:13691   */\n    tag_187:\n        /* \"#utility.yul\":13657:13683   */\n      0x54696d654c6f636b3a20696e76616c6964207461726765740000000000000000\n        /* \"#utility.yul\":13653:13654   */\n      0x00\n        /* \"#utility.yul\":13645:13651   */\n      dup3\n        /* \"#utility.yul\":13641:13655   */\n      add\n        /* \"#utility.yul\":13634:13684   */\n      mstore\n        /* \"#utility.yul\":13517:13691   */\n      pop\n      jump\t// out\n        /* \"#utility.yul\":13697:14063   */\n    tag_188:\n        /* \"#utility.yul\":13839:13842   */\n      0x00\n        /* \"#utility.yul\":13860:13927   */\n      tag_323\n        /* \"#utility.yul\":13924:13926   */\n      0x18\n        /* \"#utility.yul\":13919:13922   */\n      dup4\n        /* \"#utility.yul\":13860:13927   */\n      tag_167\n      jump\t// in\n    tag_323:\n        /* \"#utility.yul\":13853:13927   */\n      swap2\n      pop\n        /* \"#utility.yul\":13936:14029   */\n      tag_324\n        /* \"#utility.yul\":14025:14028   */\n      dup3\n        /* \"#utility.yul\":13936:14029   */\n      tag_187\n      jump\t// in\n    tag_324:\n        /* \"#utility.yul\":14054:14056   */\n      0x20\n        /* \"#utility.yul\":14049:14052   */\n      dup3\n        /* \"#utility.yul\":14045:14057   */\n      add\n        /* \"#utility.yul\":14038:14057   */\n      swap1\n      pop\n        /* \"#utility.yul\":13697:14063   */\n      swap2\n      swap1\n      pop\n      jump\t// out\n        /* \"#utility.yul\":14069:14488   */\n    tag_111:\n        /* \"#utility.yul\":14235:14239   */\n      0x00\n        /* \"#utility.yul\":14273:14275   */\n      0x20\n        /* \"#utility.yul\":14262:14271   */\n      dup3\n        /* \"#utility.yul\":14258:14276   */\n      add\n        /* \"#utility.yul\":14250:14276   */\n      swap1\n      pop\n        /* \"#utility.yul\":14322:14331   */\n      dup2\n        /* \"#utility.yul\":14316:14320   */\n      dup2\n        /* \"#utility.yul\":14312:14332   */\n      sub\n        /* \"#utility.yul\":14308:14309   */\n      0x00\n        /* \"#utility.yul\":14297:14306   */\n      dup4\n        /* \"#utility.yul\":14293:14310   */\n      add\n        /* \"#utility.yul\":14286:14333   */\n      mstore\n        /* \"#utility.yul\":14350:14481   */\n      tag_326\n        /* \"#utility.yul\":14476:14480   */\n      dup2\n        /* \"#utility.yul\":14350:14481   */\n      tag_188\n      jump\t// in\n    tag_326:\n        /* \"#utility.yul\":14342:14481   */\n      swap1\n      pop\n        /* \"#utility.yul\":14069:14488   */\n      swap2\n      swap1\n      pop\n      jump\t// out\n        /* \"#utility.yul\":14494:14676   */\n    tag_189:\n        /* \"#utility.yul\":14634:14668   */\n      0x54696d654c6f636b3a20696e76616c696420696d706c656d656e746174696f6e\n        /* \"#utility.yul\":14630:14631   */\n      0x00\n        /* \"#utility.yul\":14622:14628   */\n      dup3\n        /* \"#utility.yul\":14618:14632   */\n      add\n        /* \"#utility.yul\":14611:14669   */\n      mstore\n        /* \"#utility.yul\":14494:14676   */\n      pop\n      jump\t// out\n        /* \"#utility.yul\":14682:15048   */\n    tag_190:\n        /* \"#utility.yul\":14824:14827   */\n      0x00\n        /* \"#utility.yul\":14845:14912   */\n      tag_329\n        /* \"#utility.yul\":14909:14911   */\n      0x20\n        /* \"#utility.yul\":14904:14907   */\n      dup4\n        /* \"#utility.yul\":14845:14912   */\n      tag_167\n      jump\t// in\n    tag_329:\n        /* \"#utility.yul\":14838:14912   */\n      swap2\n      pop\n        /* \"#utility.yul\":14921:15014   */\n      tag_330\n        /* \"#utility.yul\":15010:15013   */\n      dup3\n        /* \"#utility.yul\":14921:15014   */\n      tag_189\n      jump\t// in\n    tag_330:\n        /* \"#utility.yul\":15039:15041   */\n      0x20\n        /* \"#utility.yul\":15034:15037   */\n      dup3\n        /* \"#utility.yul\":15030:15042   */\n      add\n        /* \"#utility.yul\":15023:15042   */\n      swap1\n      pop\n        /* \"#utility.yul\":14682:15048   */\n      swap2\n      swap1\n      pop\n      jump\t// out\n        /* \"#utility.yul\":15054:15473   */\n    tag_114:\n        /* \"#utility.yul\":15220:15224   */\n      0x00\n        /* \"#utility.yul\":15258:15260   */\n      0x20\n        /* \"#utility.yul\":15247:15256   */\n      dup3\n        /* \"#utility.yul\":15243:15261   */\n      add\n        /* \"#utility.yul\":15235:15261   */\n      swap1\n      pop\n        /* \"#utility.yul\":15307:15316   */\n      dup2\n        /* \"#utility.yul\":15301:15305   */\n      dup2\n        /* \"#utility.yul\":15297:15317   */\n      sub\n        /* \"#utility.yul\":15293:15294   */\n      0x00\n        /* \"#utility.yul\":15282:15291   */\n      dup4\n        /* \"#utility.yul\":15278:15295   */\n      add\n        /* \"#utility.yul\":15271:15318   */\n      mstore\n        /* \"#utility.yul\":15335:15466   */\n      tag_332\n        /* \"#utility.yul\":15461:15465   */\n      dup2\n        /* \"#utility.yul\":15335:15466   */\n      tag_190\n      jump\t// in\n    tag_332:\n        /* \"#utility.yul\":15327:15466   */\n      swap1\n      pop\n        /* \"#utility.yul\":15054:15473   */\n      swap2\n      swap1\n      pop\n      jump\t// out\n        /* \"#utility.yul\":15479:15661   */\n    tag_191:\n        /* \"#utility.yul\":15619:15653   */\n      0x54696d654c6f636b3a207265717565737420616c726561647920717565756564\n        /* \"#utility.yul\":15615:15616   */\n      0x00\n        /* \"#utility.yul\":15607:15613   */\n      dup3\n        /* \"#utility.yul\":15603:15617   */\n      add\n        /* \"#utility.yul\":15596:15654   */\n      mstore\n        /* \"#utility.yul\":15479:15661   */\n      pop\n      jump\t// out\n        /* \"#utility.yul\":15667:16033   */\n    tag_192:\n        /* \"#utility.yul\":15809:15812   */\n      0x00\n        /* \"#utility.yul\":15830:15897   */\n      tag_335\n        /* \"#utility.yul\":15894:15896   */\n      0x20\n        /* \"#utility.yul\":15889:15892   */\n      dup4\n        /* \"#utility.yul\":15830:15897   */\n      tag_167\n      jump\t// in\n    tag_335:\n        /* \"#utility.yul\":15823:15897   */\n      swap2\n      pop\n        /* \"#utility.yul\":15906:15999   */\n      tag_336\n        /* \"#utility.yul\":15995:15998   */\n      dup3\n        /* \"#utility.yul\":15906:15999   */\n      tag_191\n      jump\t// in\n    tag_336:\n        /* \"#utility.yul\":16024:16026   */\n      0x20\n        /* \"#utility.yul\":16019:16022   */\n      dup3\n        /* \"#utility.yul\":16015:16027   */\n      add\n        /* \"#utility.yul\":16008:16027   */\n      swap1\n      pop\n        /* \"#utility.yul\":15667:16033   */\n      swap2\n      swap1\n      pop\n      jump\t// out\n        /* \"#utility.yul\":16039:16458   */\n    tag_118:\n        /* \"#utility.yul\":16205:16209   */\n      0x00\n        /* \"#utility.yul\":16243:16245   */\n      0x20\n        /* \"#utility.yul\":16232:16241   */\n      dup3\n        /* \"#utility.yul\":16228:16246   */\n      add\n        /* \"#utility.yul\":16220:16246   */\n      swap1\n      pop\n        /* \"#utility.yul\":16292:16301   */\n      dup2\n        /* \"#utility.yul\":16286:16290   */\n      dup2\n        /* \"#utility.yul\":16282:16302   */\n      sub\n        /* \"#utility.yul\":16278:16279   */\n      0x00\n        /* \"#utility.yul\":16267:16276   */\n      dup4\n        /* \"#utility.yul\":16263:16280   */\n      add\n        /* \"#utility.yul\":16256:16303   */\n      mstore\n        /* \"#utility.yul\":16320:16451   */\n      tag_338\n        /* \"#utility.yul\":16446:16450   */\n      dup2\n        /* \"#utility.yul\":16320:16451   */\n      tag_192\n      jump\t// in\n    tag_338:\n        /* \"#utility.yul\":16312:16451   */\n      swap1\n      pop\n        /* \"#utility.yul\":16039:16458   */\n      swap2\n      swap1\n      pop\n      jump\t// out\n        /* \"#utility.yul\":16464:16906   */\n    tag_121:\n        /* \"#utility.yul\":16613:16617   */\n      0x00\n        /* \"#utility.yul\":16651:16653   */\n      0x60\n        /* \"#utility.yul\":16640:16649   */\n      dup3\n        /* \"#utility.yul\":16636:16654   */\n      add\n        /* \"#utility.yul\":16628:16654   */\n      swap1\n      pop\n        /* \"#utility.yul\":16664:16735   */\n      tag_340\n        /* \"#utility.yul\":16732:16733   */\n      0x00\n        /* \"#utility.yul\":16721:16730   */\n      dup4\n        /* \"#utility.yul\":16717:16734   */\n      add\n        /* \"#utility.yul\":16708:16714   */\n      dup7\n        /* \"#utility.yul\":16664:16735   */\n      tag_159\n      jump\t// in\n    tag_340:\n        /* \"#utility.yul\":16745:16817   */\n      tag_341\n        /* \"#utility.yul\":16813:16815   */\n      0x20\n        /* \"#utility.yul\":16802:16811   */\n      dup4\n        /* \"#utility.yul\":16798:16816   */\n      add\n        /* \"#utility.yul\":16789:16795   */\n      dup6\n        /* \"#utility.yul\":16745:16817   */\n      tag_159\n      jump\t// in\n    tag_341:\n        /* \"#utility.yul\":16827:16899   */\n      tag_342\n        /* \"#utility.yul\":16895:16897   */\n      0x40\n        /* \"#utility.yul\":16884:16893   */\n      dup4\n        /* \"#utility.yul\":16880:16898   */\n      add\n        /* \"#utility.yul\":16871:16877   */\n      dup5\n        /* \"#utility.yul\":16827:16899   */\n      tag_156\n      jump\t// in\n    tag_342:\n        /* \"#utility.yul\":16464:16906   */\n      swap5\n      swap4\n      pop\n      pop\n      pop\n      pop\n      jump\t// out\n        /* \"#utility.yul\":16912:17006   */\n    tag_193:\n        /* \"#utility.yul\":16945:16953   */\n      0x00\n        /* \"#utility.yul\":16993:16998   */\n      dup2\n        /* \"#utility.yul\":16989:16991   */\n      0x60\n        /* \"#utility.yul\":16985:16999   */\n      shl\n        /* \"#utility.yul\":16964:16999   */\n      swap1\n      pop\n        /* \"#utility.yul\":16912:17006   */\n      swap2\n      swap1\n      pop\n      jump\t// out\n        /* \"#utility.yul\":17012:17106   */\n    tag_194:\n        /* \"#utility.yul\":17051:17058   */\n      0x00\n        /* \"#utility.yul\":17080:17100   */\n      tag_345\n        /* \"#utility.yul\":17094:17099   */\n      dup3\n        /* \"#utility.yul\":17080:17100   */\n      tag_193\n      jump\t// in\n    tag_345:\n        /* \"#utility.yul\":17069:17100   */\n      swap1\n      pop\n        /* \"#utility.yul\":17012:17106   */\n      swap2\n      swap1\n      pop\n      jump\t// out\n        /* \"#utility.yul\":17112:17212   */\n    tag_195:\n        /* \"#utility.yul\":17151:17158   */\n      0x00\n        /* \"#utility.yul\":17180:17206   */\n      tag_347\n        /* \"#utility.yul\":17200:17205   */\n      dup3\n        /* \"#utility.yul\":17180:17206   */\n      tag_194\n      jump\t// in\n    tag_347:\n        /* \"#utility.yul\":17169:17206   */\n      swap1\n      pop\n        /* \"#utility.yul\":17112:17212   */\n      swap2\n      swap1\n      pop\n      jump\t// out\n        /* \"#utility.yul\":17218:17375   */\n    tag_196:\n        /* \"#utility.yul\":17323:17368   */\n      tag_349\n        /* \"#utility.yul\":17343:17367   */\n      tag_350\n        /* \"#utility.yul\":17361:17366   */\n      dup3\n        /* \"#utility.yul\":17343:17367   */\n      tag_158\n      jump\t// in\n    tag_350:\n        /* \"#utility.yul\":17323:17368   */\n      tag_195\n      jump\t// in\n    tag_349:\n        /* \"#utility.yul\":17318:17321   */\n      dup3\n        /* \"#utility.yul\":17311:17369   */\n      mstore\n        /* \"#utility.yul\":17218:17375   */\n      pop\n      pop\n      jump\t// out\n        /* \"#utility.yul\":17381:17460   */\n    tag_197:\n        /* \"#utility.yul\":17420:17427   */\n      0x00\n        /* \"#utility.yul\":17449:17454   */\n      dup2\n        /* \"#utility.yul\":17438:17454   */\n      swap1\n      pop\n        /* \"#utility.yul\":17381:17460   */\n      swap2\n      swap1\n      pop\n      jump\t// out\n        /* \"#utility.yul\":17466:17623   */\n    tag_198:\n        /* \"#utility.yul\":17571:17616   */\n      tag_353\n        /* \"#utility.yul\":17591:17615   */\n      tag_354\n        /* \"#utility.yul\":17609:17614   */\n      dup3\n        /* \"#utility.yul\":17591:17615   */\n      tag_155\n      jump\t// in\n    tag_354:\n        /* \"#utility.yul\":17571:17616   */\n      tag_197\n      jump\t// in\n    tag_353:\n        /* \"#utility.yul\":17566:17569   */\n      dup3\n        /* \"#utility.yul\":17559:17617   */\n      mstore\n        /* \"#utility.yul\":17466:17623   */\n      pop\n      pop\n      jump\t// out\n        /* \"#utility.yul\":17629:18167   */\n    tag_124:\n        /* \"#utility.yul\":17797:17800   */\n      0x00\n        /* \"#utility.yul\":17812:17887   */\n      tag_356\n        /* \"#utility.yul\":17883:17886   */\n      dup3\n        /* \"#utility.yul\":17874:17880   */\n      dup7\n        /* \"#utility.yul\":17812:17887   */\n      tag_196\n      jump\t// in\n    tag_356:\n        /* \"#utility.yul\":17912:17914   */\n      0x14\n        /* \"#utility.yul\":17907:17910   */\n      dup3\n        /* \"#utility.yul\":17903:17915   */\n      add\n        /* \"#utility.yul\":17896:17915   */\n      swap2\n      pop\n        /* \"#utility.yul\":17925:18000   */\n      tag_357\n        /* \"#utility.yul\":17996:17999   */\n      dup3\n        /* \"#utility.yul\":17987:17993   */\n      dup6\n        /* \"#utility.yul\":17925:18000   */\n      tag_196\n      jump\t// in\n    tag_357:\n        /* \"#utility.yul\":18025:18027   */\n      0x14\n        /* \"#utility.yul\":18020:18023   */\n      dup3\n        /* \"#utility.yul\":18016:18028   */\n      add\n        /* \"#utility.yul\":18009:18028   */\n      swap2\n      pop\n        /* \"#utility.yul\":18038:18113   */\n      tag_358\n        /* \"#utility.yul\":18109:18112   */\n      dup3\n        /* \"#utility.yul\":18100:18106   */\n      dup5\n        /* \"#utility.yul\":18038:18113   */\n      tag_198\n      jump\t// in\n    tag_358:\n        /* \"#utility.yul\":18138:18140   */\n      0x20\n        /* \"#utility.yul\":18133:18136   */\n      dup3\n        /* \"#utility.yul\":18129:18141   */\n      add\n        /* \"#utility.yul\":18122:18141   */\n      swap2\n      pop\n        /* \"#utility.yul\":18158:18161   */\n      dup2\n        /* \"#utility.yul\":18151:18161   */\n      swap1\n      pop\n        /* \"#utility.yul\":17629:18167   */\n      swap5\n      swap4\n      pop\n      pop\n      pop\n      pop\n      jump\t// out\n        /* \"#utility.yul\":18173:18346   */\n    tag_199:\n        /* \"#utility.yul\":18313:18338   */\n      0x54696d654c6f636b3a20696e76616c6964206772616365000000000000000000\n        /* \"#utility.yul\":18309:18310   */\n      0x00\n        /* \"#utility.yul\":18301:18307   */\n      dup3\n        /* \"#utility.yul\":18297:18311   */\n      add\n        /* \"#utility.yul\":18290:18339   */\n      mstore\n        /* \"#utility.yul\":18173:18346   */\n      pop\n      jump\t// out\n        /* \"#utility.yul\":18352:18718   */\n    tag_200:\n        /* \"#utility.yul\":18494:18497   */\n      0x00\n        /* \"#utility.yul\":18515:18582   */\n      tag_361\n        /* \"#utility.yul\":18579:18581   */\n      0x17\n        /* \"#utility.yul\":18574:18577   */\n      dup4\n        /* \"#utility.yul\":18515:18582   */\n      tag_167\n      jump\t// in\n    tag_361:\n        /* \"#utility.yul\":18508:18582   */\n      swap2\n      pop\n        /* \"#utility.yul\":18591:18684   */\n      tag_362\n        /* \"#utility.yul\":18680:18683   */\n      dup3\n        /* \"#utility.yul\":18591:18684   */\n      tag_199\n      jump\t// in\n    tag_362:\n        /* \"#utility.yul\":18709:18711   */\n      0x20\n        /* \"#utility.yul\":18704:18707   */\n      dup3\n        /* \"#utility.yul\":18700:18712   */\n      add\n        /* \"#utility.yul\":18693:18712   */\n      swap1\n      pop\n        /* \"#utility.yul\":18352:18718   */\n      swap2\n      swap1\n      pop\n      jump\t// out\n        /* \"#utility.yul\":18724:19143   */\n    tag_133:\n        /* \"#utility.yul\":18890:18894   */\n      0x00\n        /* \"#utility.yul\":18928:18930   */\n      0x20\n        /* \"#utility.yul\":18917:18926   */\n      dup3\n        /* \"#utility.yul\":18913:18931   */\n      add\n        /* \"#utility.yul\":18905:18931   */\n      swap1\n      pop\n        /* \"#utility.yul\":18977:18986   */\n      dup2\n        /* \"#utility.yul\":18971:18975   */\n      dup2\n        /* \"#utility.yul\":18967:18987   */\n      sub\n        /* \"#utility.yul\":18963:18964   */\n      0x00\n        /* \"#utility.yul\":18952:18961   */\n      dup4\n        /* \"#utility.yul\":18948:18965   */\n      add\n        /* \"#utility.yul\":18941:18988   */\n      mstore\n        /* \"#utility.yul\":19005:19136   */\n      tag_364\n        /* \"#utility.yul\":19131:19135   */\n      dup2\n        /* \"#utility.yul\":19005:19136   */\n      tag_200\n      jump\t// in\n    tag_364:\n        /* \"#utility.yul\":18997:19136   */\n      swap1\n      pop\n        /* \"#utility.yul\":18724:19143   */\n      swap2\n      swap1\n      pop\n      jump\t// out\n\n    auxdata: 0xa2646970667358221220b650d381e1d07bb66c99c5eb9396031eb72eddb9420b4250c91a7b9e73d4ad1964736f6c634300081c0033\n}\n",
				"bytecode": {
					"linkReferences": {},
					"object": "608060405234801561000f575f5ffd5b506040516119fb3803806119fb8339818101604052810190610031919061025c565b825f73ffffffffffffffffffffffffffffffffffffffff168173ffffffffffffffffffffffffffffffffffffffff16036100a2575f6040517f1e4fbdf700000000000000000000000000000000000000000000000000000000815260040161009991906102bb565b60405180910390fd5b6100b18161010a60201b60201c565b505f81116100f4576040517f08c379a00000000000000000000000000000000000000000000000000000000081526004016100eb90610354565b60405180910390fd5b8160018190555080600281905550505050610372565b5f5f5f9054906101000a900473ffffffffffffffffffffffffffffffffffffffff169050815f5f6101000a81548173ffffffffffffffffffffffffffffffffffffffff021916908373ffffffffffffffffffffffffffffffffffffffff1602179055508173ffffffffffffffffffffffffffffffffffffffff168173ffffffffffffffffffffffffffffffffffffffff167f8be0079c531659141344cd1fd0a4f28419497f9722a3daafe3b4186f6b6457e060405160405180910390a35050565b5f5ffd5b5f73ffffffffffffffffffffffffffffffffffffffff82169050919050565b5f6101f8826101cf565b9050919050565b610208816101ee565b8114610212575f5ffd5b50565b5f81519050610223816101ff565b92915050565b5f819050919050565b61023b81610229565b8114610245575f5ffd5b50565b5f8151905061025681610232565b92915050565b5f5f5f60608486031215610273576102726101cb565b5b5f61028086828701610215565b935050602061029186828701610248565b92505060406102a286828701610248565b9150509250925092565b6102b5816101ee565b82525050565b5f6020820190506102ce5f8301846102ac565b92915050565b5f82825260208201905092915050565b7f54696d654c6f636b3a206772616365506572696f64206d757374206265203e205f8201527f3000000000000000000000000000000000000000000000000000000000000000602082015250565b5f61033e6021836102d4565b9150610349826102e4565b604082019050919050565b5f6020820190508181035f83015261036b81610332565b9050919050565b61167c8061037f5f395ff3fe608060405234801561000f575f5ffd5b50600436106100b2575f3560e01c8063a06db7dc1161006f578063a06db7dc14610168578063a9bd443f14610186578063dd634fe5146101b6578063e177246e146101e6578063f2f6596014610202578063f2fde38b1461021e576100b2565b8063337781ea146100b65780633b6520cb146100d25780636a42b8f8146100ee578063715018a61461010c5780638da5cb5b146101165780639d86698514610134575b5f5ffd5b6100d060048036038101906100cb9190610da5565b61023a565b005b6100ec60048036038101906100e79190610da5565b6103d7565b005b6100f6610781565b6040516101039190610de8565b60405180910390f35b610114610787565b005b61011e61079a565b60405161012b9190610e40565b60405180910390f35b61014e60048036038101906101499190610da5565b6107c1565b60405161015f959493929190610e73565b60405180910390f35b61017061084a565b60405161017d9190610de8565b60405180910390f35b6101a0600480360381019061019b9190610eee565b610850565b6040516101ad9190610f3b565b60405180910390f35b6101d060048036038101906101cb9190610eee565b610b01565b6040516101dd9190610f3b565b60405180910390f35b61020060048036038101906101fb9190610f7e565b610b35565b005b61021c60048036038101906102179190610f7e565b610b47565b005b61023860048036038101906102339190610fa9565b610b9b565b005b610242610c1f565b5f60035f8381526020019081526020015f2090505f73ffffffffffffffffffffffffffffffffffffffff16815f015f9054906101000a900473ffffffffffffffffffffffffffffffffffffffff1673ffffffffffffffffffffffffffffffffffffffff16036102e6576040517f08c379a00000000000000000000000000000000000000000000000000000000081526004016102dd9061102e565b60405180910390fd5b806003015f9054906101000a900460ff1615610337576040517f08c379a000000000000000000000000000000000000000000000000000000000815260040161032e906110bc565b60405180910390fd5b8060030160019054906101000a900460ff1615610389576040517f08c379a00000000000000000000000000000000000000000000000000000000081526004016103809061114a565b60405180910390fd5b60018160030160016101000a81548160ff021916908315150217905550817f8979bb3f83892b5251a2a1899bb027118d0146e7c714b8542a98853a55beea1a60405160405180910390a25050565b5f60035f8381526020019081526020015f2090505f73ffffffffffffffffffffffffffffffffffffffff16815f015f9054906101000a900473ffffffffffffffffffffffffffffffffffffffff1673ffffffffffffffffffffffffffffffffffffffff160361047b576040517f08c379a00000000000000000000000000000000000000000000000000000000081526004016104729061102e565b60405180910390fd5b806003015f9054906101000a900460ff16156104cc576040517f08c379a00000000000000000000000000000000000000000000000000000000081526004016104c3906110bc565b60405180910390fd5b8060030160019054906101000a900460ff161561051e576040517f08c379a0000000000000000000000000000000000000000000000000000000008152600401610515906111b2565b60405180910390fd5b8060020154421015610565576040517f08c379a000000000000000000000000000000000000000000000000000000000815260040161055c9061121a565b60405180910390fd5b60025481600201546105779190611265565b4211156105b9576040517f08c379a00000000000000000000000000000000000000000000000000000000081526004016105b0906112e2565b60405180910390fd5b5f815f015f9054906101000a900473ffffffffffffffffffffffffffffffffffffffff1673ffffffffffffffffffffffffffffffffffffffff16826001015f9054906101000a900473ffffffffffffffffffffffffffffffffffffffff166040516024016106279190610e40565b6040516020818303038152906040527f3659cfe6000000000000000000000000000000000000000000000000000000007bffffffffffffffffffffffffffffffffffffffffffffffffffffffff19166020820180517bffffffffffffffffffffffffffffffffffffffffffffffffffffffff83818316178352505050506040516106b19190611352565b5f604051808303815f865af19150503d805f81146106ea576040519150601f19603f3d011682016040523d82523d5f602084013e6106ef565b606091505b5050905080610733576040517f08c379a000000000000000000000000000000000000000000000000000000000815260040161072a906113b2565b60405180910390fd5b6001826003015f6101000a81548160ff021916908315150217905550827ff6224a998aea3de231cf75375faf8c3711379d54bb84c92ef9d9779dabd383a960405160405180910390a2505050565b60015481565b61078f610c1f565b6107985f610ca6565b565b5f5f5f9054906101000a900473ffffffffffffffffffffffffffffffffffffffff16905090565b6003602052805f5260405f205f91509050805f015f9054906101000a900473ffffffffffffffffffffffffffffffffffffffff1690806001015f9054906101000a900473ffffffffffffffffffffffffffffffffffffffff1690806002015490806003015f9054906101000a900460ff16908060030160019054906101000a900460ff16905085565b60025481565b5f610859610c1f565b5f73ffffffffffffffffffffffffffffffffffffffff168373ffffffffffffffffffffffffffffffffffffffff16036108c7576040517f08c379a00000000000000000000000000000000000000000000000000000000081526004016108be9061141a565b60405180910390fd5b5f73ffffffffffffffffffffffffffffffffffffffff168273ffffffffffffffffffffffffffffffffffffffff1603610935576040517f08c379a000000000000000000000000000000000000000000000000000000000815260040161092c90611482565b60405180910390fd5b5f6109408484610b01565b90505f60035f8381526020019081526020015f2090505f73ffffffffffffffffffffffffffffffffffffffff16815f015f9054906101000a900473ffffffffffffffffffffffffffffffffffffffff1673ffffffffffffffffffffffffffffffffffffffff16146109e6576040517f08c379a00000000000000000000000000000000000000000000000000000000081526004016109dd906114ea565b60405180910390fd5b84815f015f6101000a81548173ffffffffffffffffffffffffffffffffffffffff021916908373ffffffffffffffffffffffffffffffffffffffff16021790555083816001015f6101000a81548173ffffffffffffffffffffffffffffffffffffffff021916908373ffffffffffffffffffffffffffffffffffffffff16021790555060015442610a779190611265565b81600201819055505f816003015f6101000a81548160ff0219169083151502179055505f8160030160016101000a81548160ff021916908315150217905550817f681f0baf8a726a3a7fb47ac4f62931899d378601cb44958b61c6c251d650b63086868460020154604051610aee93929190611508565b60405180910390a2819250505092915050565b5f828242604051602001610b17939291906115a2565b60405160208183030381529060405280519060200120905092915050565b610b3d610c1f565b8060018190555050565b610b4f610c1f565b5f8111610b91576040517f08c379a0000000000000000000000000000000000000000000000000000000008152600401610b8890611628565b60405180910390fd5b8060028190555050565b610ba3610c1f565b5f73ffffffffffffffffffffffffffffffffffffffff168173ffffffffffffffffffffffffffffffffffffffff1603610c13575f6040517f1e4fbdf7000000000000000000000000000000000000000000000000000000008152600401610c0a9190610e40565b60405180910390fd5b610c1c81610ca6565b50565b610c27610d67565b73ffffffffffffffffffffffffffffffffffffffff16610c4561079a565b73ffffffffffffffffffffffffffffffffffffffff1614610ca457610c68610d67565b6040517f118cdaa7000000000000000000000000000000000000000000000000000000008152600401610c9b9190610e40565b60405180910390fd5b565b5f5f5f9054906101000a900473ffffffffffffffffffffffffffffffffffffffff169050815f5f6101000a81548173ffffffffffffffffffffffffffffffffffffffff021916908373ffffffffffffffffffffffffffffffffffffffff1602179055508173ffffffffffffffffffffffffffffffffffffffff168173ffffffffffffffffffffffffffffffffffffffff167f8be0079c531659141344cd1fd0a4f28419497f9722a3daafe3b4186f6b6457e060405160405180910390a35050565b5f33905090565b5f5ffd5b5f819050919050565b610d8481610d72565b8114610d8e575f5ffd5b50565b5f81359050610d9f81610d7b565b92915050565b5f60208284031215610dba57610db9610d6e565b5b5f610dc784828501610d91565b91505092915050565b5f819050919050565b610de281610dd0565b82525050565b5f602082019050610dfb5f830184610dd9565b92915050565b5f73ffffffffffffffffffffffffffffffffffffffff82169050919050565b5f610e2a82610e01565b9050919050565b610e3a81610e20565b82525050565b5f602082019050610e535f830184610e31565b92915050565b5f8115159050919050565b610e6d81610e59565b82525050565b5f60a082019050610e865f830188610e31565b610e936020830187610e31565b610ea06040830186610dd9565b610ead6060830185610e64565b610eba6080830184610e64565b9695505050505050565b610ecd81610e20565b8114610ed7575f5ffd5b50565b5f81359050610ee881610ec4565b92915050565b5f5f60408385031215610f0457610f03610d6e565b5b5f610f1185828601610eda565b9250506020610f2285828601610eda565b9150509250929050565b610f3581610d72565b82525050565b5f602082019050610f4e5f830184610f2c565b92915050565b610f5d81610dd0565b8114610f67575f5ffd5b50565b5f81359050610f7881610f54565b92915050565b5f60208284031215610f9357610f92610d6e565b5b5f610fa084828501610f6a565b91505092915050565b5f60208284031215610fbe57610fbd610d6e565b5b5f610fcb84828501610eda565b91505092915050565b5f82825260208201905092915050565b7f54696d654c6f636b3a20756e6b6e6f776e2072657175657374000000000000005f82015250565b5f611018601983610fd4565b915061102382610fe4565b602082019050919050565b5f6020820190508181035f8301526110458161100c565b9050919050565b7f54696d654c6f636b3a207265717565737420616c7265616479206578656375745f8201527f6564000000000000000000000000000000000000000000000000000000000000602082015250565b5f6110a6602283610fd4565b91506110b18261104c565b604082019050919050565b5f6020820190508181035f8301526110d38161109a565b9050919050565b7f54696d654c6f636b3a207265717565737420616c72656164792063616e63656c5f8201527f6564000000000000000000000000000000000000000000000000000000000000602082015250565b5f611134602283610fd4565b915061113f826110da565b604082019050919050565b5f6020820190508181035f83015261116181611128565b9050919050565b7f54696d654c6f636b3a20726571756573742063616e63656c65640000000000005f82015250565b5f61119c601a83610fd4565b91506111a782611168565b602082019050919050565b5f6020820190508181035f8301526111c981611190565b9050919050565b7f54696d654c6f636b3a20746f6f206561726c79000000000000000000000000005f82015250565b5f611204601383610fd4565b915061120f826111d0565b602082019050919050565b5f6020820190508181035f830152611231816111f8565b9050919050565b7f4e487b71000000000000000000000000000000000000000000000000000000005f52601160045260245ffd5b5f61126f82610dd0565b915061127a83610dd0565b925082820190508082111561129257611291611238565b5b92915050565b7f54696d654c6f636b3a20726571756573742065787069726564000000000000005f82015250565b5f6112cc601983610fd4565b91506112d782611298565b602082019050919050565b5f6020820190508181035f8301526112f9816112c0565b9050919050565b5f81519050919050565b5f81905092915050565b8281835e5f83830152505050565b5f61132c82611300565b611336818561130a565b9350611346818560208601611314565b80840191505092915050565b5f61135d8284611322565b915081905092915050565b7f54696d654c6f636b3a20757067726164652063616c6c206661696c65640000005f82015250565b5f61139c601d83610fd4565b91506113a782611368565b602082019050919050565b5f6020820190508181035f8301526113c981611390565b9050919050565b7f54696d654c6f636b3a20696e76616c69642074617267657400000000000000005f82015250565b5f611404601883610fd4565b915061140f826113d0565b602082019050919050565b5f6020820190508181035f830152611431816113f8565b9050919050565b7f54696d654c6f636b3a20696e76616c696420696d706c656d656e746174696f6e5f82015250565b5f61146c602083610fd4565b915061147782611438565b602082019050919050565b5f6020820190508181035f83015261149981611460565b9050919050565b7f54696d654c6f636b3a207265717565737420616c7265616479207175657565645f82015250565b5f6114d4602083610fd4565b91506114df826114a0565b602082019050919050565b5f6020820190508181035f830152611501816114c8565b9050919050565b5f60608201905061151b5f830186610e31565b6115286020830185610e31565b6115356040830184610dd9565b949350505050565b5f8160601b9050919050565b5f6115538261153d565b9050919050565b5f61156482611549565b9050919050565b61157c61157782610e20565b61155a565b82525050565b5f819050919050565b61159c61159782610dd0565b611582565b82525050565b5f6115ad828661156b565b6014820191506115bd828561156b565b6014820191506115cd828461158b565b602082019150819050949350505050565b7f54696d654c6f636b3a20696e76616c69642067726163650000000000000000005f82015250565b5f611612601783610fd4565b915061161d826115de565b602082019050919050565b5f6020820190508181035f83015261163f81611606565b905091905056fea2646970667358221220b650d381e1d07bb66c99c5eb9396031eb72eddb9420b4250c91a7b9e73d4ad1964736f6c634300081c0033",
					"opcodes": "PUSH1 0x80 PUSH1 0x40 MSTORE CALLVALUE DUP1 ISZERO PUSH2 0xF JUMPI PUSH0 PUSH0 REVERT JUMPDEST POP PUSH1 0x40 MLOAD PUSH2 0x19FB CODESIZE SUB DUP1 PUSH2 0x19FB DUP4 CODECOPY DUP2 DUP2 ADD PUSH1 0x40 MSTORE DUP2 ADD SWAP1 PUSH2 0x31 SWAP2 SWAP1 PUSH2 0x25C JUMP JUMPDEST DUP3 PUSH0 PUSH20 0xFFFFFFFFFFFFFFFFFFFFFFFFFFFFFFFFFFFFFFFF AND DUP2 PUSH20 0xFFFFFFFFFFFFFFFFFFFFFFFFFFFFFFFFFFFFFFFF AND SUB PUSH2 0xA2 JUMPI PUSH0 PUSH1 0x40 MLOAD PUSH32 0x1E4FBDF700000000000000000000000000000000000000000000000000000000 DUP2 MSTORE PUSH1 0x4 ADD PUSH2 0x99 SWAP2 SWAP1 PUSH2 0x2BB JUMP JUMPDEST PUSH1 0x40 MLOAD DUP1 SWAP2 SUB SWAP1 REVERT JUMPDEST PUSH2 0xB1 DUP2 PUSH2 0x10A PUSH1 0x20 SHL PUSH1 0x20 SHR JUMP JUMPDEST POP PUSH0 DUP2 GT PUSH2 0xF4 JUMPI PUSH1 0x40 MLOAD PUSH32 0x8C379A000000000000000000000000000000000000000000000000000000000 DUP2 MSTORE PUSH1 0x4 ADD PUSH2 0xEB SWAP1 PUSH2 0x354 JUMP JUMPDEST PUSH1 0x40 MLOAD DUP1 SWAP2 SUB SWAP1 REVERT JUMPDEST DUP2 PUSH1 0x1 DUP2 SWAP1 SSTORE POP DUP1 PUSH1 0x2 DUP2 SWAP1 SSTORE POP POP POP POP PUSH2 0x372 JUMP JUMPDEST PUSH0 PUSH0 PUSH0 SWAP1 SLOAD SWAP1 PUSH2 0x100 EXP SWAP1 DIV PUSH20 0xFFFFFFFFFFFFFFFFFFFFFFFFFFFFFFFFFFFFFFFF AND SWAP1 POP DUP2 PUSH0 PUSH0 PUSH2 0x100 EXP DUP2 SLOAD DUP2 PUSH20 0xFFFFFFFFFFFFFFFFFFFFFFFFFFFFFFFFFFFFFFFF MUL NOT AND SWAP1 DUP4 PUSH20 0xFFFFFFFFFFFFFFFFFFFFFFFFFFFFFFFFFFFFFFFF AND MUL OR SWAP1 SSTORE POP DUP2 PUSH20 0xFFFFFFFFFFFFFFFFFFFFFFFFFFFFFFFFFFFFFFFF AND DUP2 PUSH20 0xFFFFFFFFFFFFFFFFFFFFFFFFFFFFFFFFFFFFFFFF AND PUSH32 0x8BE0079C531659141344CD1FD0A4F28419497F9722A3DAAFE3B4186F6B6457E0 PUSH1 0x40 MLOAD PUSH1 0x40 MLOAD DUP1 SWAP2 SUB SWAP1 LOG3 POP POP JUMP JUMPDEST PUSH0 PUSH0 REVERT JUMPDEST PUSH0 PUSH20 0xFFFFFFFFFFFFFFFFFFFFFFFFFFFFFFFFFFFFFFFF DUP3 AND SWAP1 POP SWAP2 SWAP1 POP JUMP JUMPDEST PUSH0 PUSH2 0x1F8 DUP3 PUSH2 0x1CF JUMP JUMPDEST SWAP1 POP SWAP2 SWAP1 POP JUMP JUMPDEST PUSH2 0x208 DUP2 PUSH2 0x1EE JUMP JUMPDEST DUP2 EQ PUSH2 0x212 JUMPI PUSH0 PUSH0 REVERT JUMPDEST POP JUMP JUMPDEST PUSH0 DUP2 MLOAD SWAP1 POP PUSH2 0x223 DUP2 PUSH2 0x1FF JUMP JUMPDEST SWAP3 SWAP2 POP POP JUMP JUMPDEST PUSH0 DUP2 SWAP1 POP SWAP2 SWAP1 POP JUMP JUMPDEST PUSH2 0x23B DUP2 PUSH2 0x229 JUMP JUMPDEST DUP2 EQ PUSH2 0x245 JUMPI PUSH0 PUSH0 REVERT JUMPDEST POP JUMP JUMPDEST PUSH0 DUP2 MLOAD SWAP1 POP PUSH2 0x256 DUP2 PUSH2 0x232 JUMP JUMPDEST SWAP3 SWAP2 POP POP JUMP JUMPDEST PUSH0 PUSH0 PUSH0 PUSH1 0x60 DUP5 DUP7 SUB SLT ISZERO PUSH2 0x273 JUMPI PUSH2 0x272 PUSH2 0x1CB JUMP JUMPDEST JUMPDEST PUSH0 PUSH2 0x280 DUP7 DUP3 DUP8 ADD PUSH2 0x215 JUMP JUMPDEST SWAP4 POP POP PUSH1 0x20 PUSH2 0x291 DUP7 DUP3 DUP8 ADD PUSH2 0x248 JUMP JUMPDEST SWAP3 POP POP PUSH1 0x40 PUSH2 0x2A2 DUP7 DUP3 DUP8 ADD PUSH2 0x248 JUMP JUMPDEST SWAP2 POP POP SWAP3 POP SWAP3 POP SWAP3 JUMP JUMPDEST PUSH2 0x2B5 DUP2 PUSH2 0x1EE JUMP JUMPDEST DUP3 MSTORE POP POP JUMP JUMPDEST PUSH0 PUSH1 0x20 DUP3 ADD SWAP1 POP PUSH2 0x2CE PUSH0 DUP4 ADD DUP5 PUSH2 0x2AC JUMP JUMPDEST SWAP3 SWAP2 POP POP JUMP JUMPDEST PUSH0 DUP3 DUP3 MSTORE PUSH1 0x20 DUP3 ADD SWAP1 POP SWAP3 SWAP2 POP POP JUMP JUMPDEST PUSH32 0x54696D654C6F636B3A206772616365506572696F64206D757374206265203E20 PUSH0 DUP3 ADD MSTORE PUSH32 0x3000000000000000000000000000000000000000000000000000000000000000 PUSH1 0x20 DUP3 ADD MSTORE POP JUMP JUMPDEST PUSH0 PUSH2 0x33E PUSH1 0x21 DUP4 PUSH2 0x2D4 JUMP JUMPDEST SWAP2 POP PUSH2 0x349 DUP3 PUSH2 0x2E4 JUMP JUMPDEST PUSH1 0x40 DUP3 ADD SWAP1 POP SWAP2 SWAP1 POP JUMP JUMPDEST PUSH0 PUSH1 0x20 DUP3 ADD SWAP1 POP DUP2 DUP2 SUB PUSH0 DUP4 ADD MSTORE PUSH2 0x36B DUP2 PUSH2 0x332 JUMP JUMPDEST SWAP1 POP SWAP2 SWAP1 POP JUMP JUMPDEST PUSH2 0x167C DUP1 PUSH2 0x37F PUSH0 CODECOPY PUSH0 RETURN INVALID PUSH1 0x80 PUSH1 0x40 MSTORE CALLVALUE DUP1 ISZERO PUSH2 0xF JUMPI PUSH0 PUSH0 REVERT JUMPDEST POP PUSH1 0x4 CALLDATASIZE LT PUSH2 0xB2 JUMPI PUSH0 CALLDATALOAD PUSH1 0xE0 SHR DUP1 PUSH4 0xA06DB7DC GT PUSH2 0x6F JUMPI DUP1 PUSH4 0xA06DB7DC EQ PUSH2 0x168 JUMPI DUP1 PUSH4 0xA9BD443F EQ PUSH2 0x186 JUMPI DUP1 PUSH4 0xDD634FE5 EQ PUSH2 0x1B6 JUMPI DUP1 PUSH4 0xE177246E EQ PUSH2 0x1E6 JUMPI DUP1 PUSH4 0xF2F65960 EQ PUSH2 0x202 JUMPI DUP1 PUSH4 0xF2FDE38B EQ PUSH2 0x21E JUMPI PUSH2 0xB2 JUMP JUMPDEST DUP1 PUSH4 0x337781EA EQ PUSH2 0xB6 JUMPI DUP1 PUSH4 0x3B6520CB EQ PUSH2 0xD2 JUMPI DUP1 PUSH4 0x6A42B8F8 EQ PUSH2 0xEE JUMPI DUP1 PUSH4 0x715018A6 EQ PUSH2 0x10C JUMPI DUP1 PUSH4 0x8DA5CB5B EQ PUSH2 0x116 JUMPI DUP1 PUSH4 0x9D866985 EQ PUSH2 0x134 JUMPI JUMPDEST PUSH0 PUSH0 REVERT JUMPDEST PUSH2 0xD0 PUSH1 0x4 DUP1 CALLDATASIZE SUB DUP2 ADD SWAP1 PUSH2 0xCB SWAP2 SWAP1 PUSH2 0xDA5 JUMP JUMPDEST PUSH2 0x23A JUMP JUMPDEST STOP JUMPDEST PUSH2 0xEC PUSH1 0x4 DUP1 CALLDATASIZE SUB DUP2 ADD SWAP1 PUSH2 0xE7 SWAP2 SWAP1 PUSH2 0xDA5 JUMP JUMPDEST PUSH2 0x3D7 JUMP JUMPDEST STOP JUMPDEST PUSH2 0xF6 PUSH2 0x781 JUMP JUMPDEST PUSH1 0x40 MLOAD PUSH2 0x103 SWAP2 SWAP1 PUSH2 0xDE8 JUMP JUMPDEST PUSH1 0x40 MLOAD DUP1 SWAP2 SUB SWAP1 RETURN JUMPDEST PUSH2 0x114 PUSH2 0x787 JUMP JUMPDEST STOP JUMPDEST PUSH2 0x11E PUSH2 0x79A JUMP JUMPDEST PUSH1 0x40 MLOAD PUSH2 0x12B SWAP2 SWAP1 PUSH2 0xE40 JUMP JUMPDEST PUSH1 0x40 MLOAD DUP1 SWAP2 SUB SWAP1 RETURN JUMPDEST PUSH2 0x14E PUSH1 0x4 DUP1 CALLDATASIZE SUB DUP2 ADD SWAP1 PUSH2 0x149 SWAP2 SWAP1 PUSH2 0xDA5 JUMP JUMPDEST PUSH2 0x7C1 JUMP JUMPDEST PUSH1 0x40 MLOAD PUSH2 0x15F SWAP6 SWAP5 SWAP4 SWAP3 SWAP2 SWAP1 PUSH2 0xE73 JUMP JUMPDEST PUSH1 0x40 MLOAD DUP1 SWAP2 SUB SWAP1 RETURN JUMPDEST PUSH2 0x170 PUSH2 0x84A JUMP JUMPDEST PUSH1 0x40 MLOAD PUSH2 0x17D SWAP2 SWAP1 PUSH2 0xDE8 JUMP JUMPDEST PUSH1 0x40 MLOAD DUP1 SWAP2 SUB SWAP1 RETURN JUMPDEST PUSH2 0x1A0 PUSH1 0x4 DUP1 CALLDATASIZE SUB DUP2 ADD SWAP1 PUSH2 0x19B SWAP2 SWAP1 PUSH2 0xEEE JUMP JUMPDEST PUSH2 0x850 JUMP JUMPDEST PUSH1 0x40 MLOAD PUSH2 0x1AD SWAP2 SWAP1 PUSH2 0xF3B JUMP JUMPDEST PUSH1 0x40 MLOAD DUP1 SWAP2 SUB SWAP1 RETURN JUMPDEST PUSH2 0x1D0 PUSH1 0x4 DUP1 CALLDATASIZE SUB DUP2 ADD SWAP1 PUSH2 0x1CB SWAP2 SWAP1 PUSH2 0xEEE JUMP JUMPDEST PUSH2 0xB01 JUMP JUMPDEST PUSH1 0x40 MLOAD PUSH2 0x1DD SWAP2 SWAP1 PUSH2 0xF3B JUMP JUMPDEST PUSH1 0x40 MLOAD DUP1 SWAP2 SUB SWAP1 RETURN JUMPDEST PUSH2 0x200 PUSH1 0x4 DUP1 CALLDATASIZE SUB DUP2 ADD SWAP1 PUSH2 0x1FB SWAP2 SWAP1 PUSH2 0xF7E JUMP JUMPDEST PUSH2 0xB35 JUMP JUMPDEST STOP JUMPDEST PUSH2 0x21C PUSH1 0x4 DUP1 CALLDATASIZE SUB DUP2 ADD SWAP1 PUSH2 0x217 SWAP2 SWAP1 PUSH2 0xF7E JUMP JUMPDEST PUSH2 0xB47 JUMP JUMPDEST STOP JUMPDEST PUSH2 0x238 PUSH1 0x4 DUP1 CALLDATASIZE SUB DUP2 ADD SWAP1 PUSH2 0x233 SWAP2 SWAP1 PUSH2 0xFA9 JUMP JUMPDEST PUSH2 0xB9B JUMP JUMPDEST STOP JUMPDEST PUSH2 0x242 PUSH2 0xC1F JUMP JUMPDEST PUSH0 PUSH1 0x3 PUSH0 DUP4 DUP2 MSTORE PUSH1 0x20 ADD SWAP1 DUP2 MSTORE PUSH1 0x20 ADD PUSH0 KECCAK256 SWAP1 POP PUSH0 PUSH20 0xFFFFFFFFFFFFFFFFFFFFFFFFFFFFFFFFFFFFFFFF AND DUP2 PUSH0 ADD PUSH0 SWAP1 SLOAD SWAP1 PUSH2 0x100 EXP SWAP1 DIV PUSH20 0xFFFFFFFFFFFFFFFFFFFFFFFFFFFFFFFFFFFFFFFF AND PUSH20 0xFFFFFFFFFFFFFFFFFFFFFFFFFFFFFFFFFFFFFFFF AND SUB PUSH2 0x2E6 JUMPI PUSH1 0x40 MLOAD PUSH32 0x8C379A000000000000000000000000000000000000000000000000000000000 DUP2 MSTORE PUSH1 0x4 ADD PUSH2 0x2DD SWAP1 PUSH2 0x102E JUMP JUMPDEST PUSH1 0x40 MLOAD DUP1 SWAP2 SUB SWAP1 REVERT JUMPDEST DUP1 PUSH1 0x3 ADD PUSH0 SWAP1 SLOAD SWAP1 PUSH2 0x100 EXP SWAP1 DIV PUSH1 0xFF AND ISZERO PUSH2 0x337 JUMPI PUSH1 0x40 MLOAD PUSH32 0x8C379A000000000000000000000000000000000000000000000000000000000 DUP2 MSTORE PUSH1 0x4 ADD PUSH2 0x32E SWAP1 PUSH2 0x10BC JUMP JUMPDEST PUSH1 0x40 MLOAD DUP1 SWAP2 SUB SWAP1 REVERT JUMPDEST DUP1 PUSH1 0x3 ADD PUSH1 0x1 SWAP1 SLOAD SWAP1 PUSH2 0x100 EXP SWAP1 DIV PUSH1 0xFF AND ISZERO PUSH2 0x389 JUMPI PUSH1 0x40 MLOAD PUSH32 0x8C379A000000000000000000000000000000000000000000000000000000000 DUP2 MSTORE PUSH1 0x4 ADD PUSH2 0x380 SWAP1 PUSH2 0x114A JUMP JUMPDEST PUSH1 0x40 MLOAD DUP1 SWAP2 SUB SWAP1 REVERT JUMPDEST PUSH1 0x1 DUP2 PUSH1 0x3 ADD PUSH1 0x1 PUSH2 0x100 EXP DUP2 SLOAD DUP2 PUSH1 0xFF MUL NOT AND SWAP1 DUP4 ISZERO ISZERO MUL OR SWAP1 SSTORE POP DUP2 PUSH32 0x8979BB3F83892B5251A2A1899BB027118D0146E7C714B8542A98853A55BEEA1A PUSH1 0x40 MLOAD PUSH1 0x40 MLOAD DUP1 SWAP2 SUB SWAP1 LOG2 POP POP JUMP JUMPDEST PUSH0 PUSH1 0x3 PUSH0 DUP4 DUP2 MSTORE PUSH1 0x20 ADD SWAP1 DUP2 MSTORE PUSH1 0x20 ADD PUSH0 KECCAK256 SWAP1 POP PUSH0 PUSH20 0xFFFFFFFFFFFFFFFFFFFFFFFFFFFFFFFFFFFFFFFF AND DUP2 PUSH0 ADD PUSH0 SWAP1 SLOAD SWAP1 PUSH2 0x100 EXP SWAP1 DIV PUSH20 0xFFFFFFFFFFFFFFFFFFFFFFFFFFFFFFFFFFFFFFFF AND PUSH20 0xFFFFFFFFFFFFFFFFFFFFFFFFFFFFFFFFFFFFFFFF AND SUB PUSH2 0x47B JUMPI PUSH1 0x40 MLOAD PUSH32 0x8C379A000000000000000000000000000000000000000000000000000000000 DUP2 MSTORE PUSH1 0x4 ADD PUSH2 0x472 SWAP1 PUSH2 0x102E JUMP JUMPDEST PUSH1 0x40 MLOAD DUP1 SWAP2 SUB SWAP1 REVERT JUMPDEST DUP1 PUSH1 0x3 ADD PUSH0 SWAP1 SLOAD SWAP1 PUSH2 0x100 EXP SWAP1 DIV PUSH1 0xFF AND ISZERO PUSH2 0x4CC JUMPI PUSH1 0x40 MLOAD PUSH32 0x8C379A000000000000000000000000000000000000000000000000000000000 DUP2 MSTORE PUSH1 0x4 ADD PUSH2 0x4C3 SWAP1 PUSH2 0x10BC JUMP JUMPDEST PUSH1 0x40 MLOAD DUP1 SWAP2 SUB SWAP1 REVERT JUMPDEST DUP1 PUSH1 0x3 ADD PUSH1 0x1 SWAP1 SLOAD SWAP1 PUSH2 0x100 EXP SWAP1 DIV PUSH1 0xFF AND ISZERO PUSH2 0x51E JUMPI PUSH1 0x40 MLOAD PUSH32 0x8C379A000000000000000000000000000000000000000000000000000000000 DUP2 MSTORE PUSH1 0x4 ADD PUSH2 0x515 SWAP1 PUSH2 0x11B2 JUMP JUMPDEST PUSH1 0x40 MLOAD DUP1 SWAP2 SUB SWAP1 REVERT JUMPDEST DUP1 PUSH1 0x2 ADD SLOAD TIMESTAMP LT ISZERO PUSH2 0x565 JUMPI PUSH1 0x40 MLOAD PUSH32 0x8C379A000000000000000000000000000000000000000000000000000000000 DUP2 MSTORE PUSH1 0x4 ADD PUSH2 0x55C SWAP1 PUSH2 0x121A JUMP JUMPDEST PUSH1 0x40 MLOAD DUP1 SWAP2 SUB SWAP1 REVERT JUMPDEST PUSH1 0x2 SLOAD DUP2 PUSH1 0x2 ADD SLOAD PUSH2 0x577 SWAP2 SWAP1 PUSH2 0x1265 JUMP JUMPDEST TIMESTAMP GT ISZERO PUSH2 0x5B9 JUMPI PUSH1 0x40 MLOAD PUSH32 0x8C379A000000000000000000000000000000000000000000000000000000000 DUP2 MSTORE PUSH1 0x4 ADD PUSH2 0x5B0 SWAP1 PUSH2 0x12E2 JUMP JUMPDEST PUSH1 0x40 MLOAD DUP1 SWAP2 SUB SWAP1 REVERT JUMPDEST PUSH0 DUP2 PUSH0 ADD PUSH0 SWAP1 SLOAD SWAP1 PUSH2 0x100 EXP SWAP1 DIV PUSH20 0xFFFFFFFFFFFFFFFFFFFFFFFFFFFFFFFFFFFFFFFF AND PUSH20 0xFFFFFFFFFFFFFFFFFFFFFFFFFFFFFFFFFFFFFFFF AND DUP3 PUSH1 0x1 ADD PUSH0 SWAP1 SLOAD SWAP1 PUSH2 0x100 EXP SWAP1 DIV PUSH20 0xFFFFFFFFFFFFFFFFFFFFFFFFFFFFFFFFFFFFFFFF AND PUSH1 0x40 MLOAD PUSH1 0x24 ADD PUSH2 0x627 SWAP2 SWAP1 PUSH2 0xE40 JUMP JUMPDEST PUSH1 0x40 MLOAD PUSH1 0x20 DUP2 DUP4 SUB SUB DUP2 MSTORE SWAP1 PUSH1 0x40 MSTORE PUSH32 0x3659CFE600000000000000000000000000000000000000000000000000000000 PUSH28 0xFFFFFFFFFFFFFFFFFFFFFFFFFFFFFFFFFFFFFFFFFFFFFFFFFFFFFFFF NOT AND PUSH1 0x20 DUP3 ADD DUP1 MLOAD PUSH28 0xFFFFFFFFFFFFFFFFFFFFFFFFFFFFFFFFFFFFFFFFFFFFFFFFFFFFFFFF DUP4 DUP2 DUP4 AND OR DUP4 MSTORE POP POP POP POP PUSH1 0x40 MLOAD PUSH2 0x6B1 SWAP2 SWAP1 PUSH2 0x1352 JUMP JUMPDEST PUSH0 PUSH1 0x40 MLOAD DUP1 DUP4 SUB DUP2 PUSH0 DUP7 GAS CALL SWAP2 POP POP RETURNDATASIZE DUP1 PUSH0 DUP2 EQ PUSH2 0x6EA JUMPI PUSH1 0x40 MLOAD SWAP2 POP PUSH1 0x1F NOT PUSH1 0x3F RETURNDATASIZE ADD AND DUP3 ADD PUSH1 0x40 MSTORE RETURNDATASIZE DUP3 MSTORE RETURNDATASIZE PUSH0 PUSH1 0x20 DUP5 ADD RETURNDATACOPY PUSH2 0x6EF JUMP JUMPDEST PUSH1 0x60 SWAP2 POP JUMPDEST POP POP SWAP1 POP DUP1 PUSH2 0x733 JUMPI PUSH1 0x40 MLOAD PUSH32 0x8C379A000000000000000000000000000000000000000000000000000000000 DUP2 MSTORE PUSH1 0x4 ADD PUSH2 0x72A SWAP1 PUSH2 0x13B2 JUMP JUMPDEST PUSH1 0x40 MLOAD DUP1 SWAP2 SUB SWAP1 REVERT JUMPDEST PUSH1 0x1 DUP3 PUSH1 0x3 ADD PUSH0 PUSH2 0x100 EXP DUP2 SLOAD DUP2 PUSH1 0xFF MUL NOT AND SWAP1 DUP4 ISZERO ISZERO MUL OR SWAP1 SSTORE POP DUP3 PUSH32 0xF6224A998AEA3DE231CF75375FAF8C3711379D54BB84C92EF9D9779DABD383A9 PUSH1 0x40 MLOAD PUSH1 0x40 MLOAD DUP1 SWAP2 SUB SWAP1 LOG2 POP POP POP JUMP JUMPDEST PUSH1 0x1 SLOAD DUP2 JUMP JUMPDEST PUSH2 0x78F PUSH2 0xC1F JUMP JUMPDEST PUSH2 0x798 PUSH0 PUSH2 0xCA6 JUMP JUMPDEST JUMP JUMPDEST PUSH0 PUSH0 PUSH0 SWAP1 SLOAD SWAP1 PUSH2 0x100 EXP SWAP1 DIV PUSH20 0xFFFFFFFFFFFFFFFFFFFFFFFFFFFFFFFFFFFFFFFF AND SWAP1 POP SWAP1 JUMP JUMPDEST PUSH1 0x3 PUSH1 0x20 MSTORE DUP1 PUSH0 MSTORE PUSH1 0x40 PUSH0 KECCAK256 PUSH0 SWAP2 POP SWAP1 POP DUP1 PUSH0 ADD PUSH0 SWAP1 SLOAD SWAP1 PUSH2 0x100 EXP SWAP1 DIV PUSH20 0xFFFFFFFFFFFFFFFFFFFFFFFFFFFFFFFFFFFFFFFF AND SWAP1 DUP1 PUSH1 0x1 ADD PUSH0 SWAP1 SLOAD SWAP1 PUSH2 0x100 EXP SWAP1 DIV PUSH20 0xFFFFFFFFFFFFFFFFFFFFFFFFFFFFFFFFFFFFFFFF AND SWAP1 DUP1 PUSH1 0x2 ADD SLOAD SWAP1 DUP1 PUSH1 0x3 ADD PUSH0 SWAP1 SLOAD SWAP1 PUSH2 0x100 EXP SWAP1 DIV PUSH1 0xFF AND SWAP1 DUP1 PUSH1 0x3 ADD PUSH1 0x1 SWAP1 SLOAD SWAP1 PUSH2 0x100 EXP SWAP1 DIV PUSH1 0xFF AND SWAP1 POP DUP6 JUMP JUMPDEST PUSH1 0x2 SLOAD DUP2 JUMP JUMPDEST PUSH0 PUSH2 0x859 PUSH2 0xC1F JUMP JUMPDEST PUSH0 PUSH20 0xFFFFFFFFFFFFFFFFFFFFFFFFFFFFFFFFFFFFFFFF AND DUP4 PUSH20 0xFFFFFFFFFFFFFFFFFFFFFFFFFFFFFFFFFFFFFFFF AND SUB PUSH2 0x8C7 JUMPI PUSH1 0x40 MLOAD PUSH32 0x8C379A000000000000000000000000000000000000000000000000000000000 DUP2 MSTORE PUSH1 0x4 ADD PUSH2 0x8BE SWAP1 PUSH2 0x141A JUMP JUMPDEST PUSH1 0x40 MLOAD DUP1 SWAP2 SUB SWAP1 REVERT JUMPDEST PUSH0 PUSH20 0xFFFFFFFFFFFFFFFFFFFFFFFFFFFFFFFFFFFFFFFF AND DUP3 PUSH20 0xFFFFFFFFFFFFFFFFFFFFFFFFFFFFFFFFFFFFFFFF AND SUB PUSH2 0x935 JUMPI PUSH1 0x40 MLOAD PUSH32 0x8C379A000000000000000000000000000000000000000000000000000000000 DUP2 MSTORE PUSH1 0x4 ADD PUSH2 0x92C SWAP1 PUSH2 0x1482 JUMP JUMPDEST PUSH1 0x40 MLOAD DUP1 SWAP2 SUB SWAP1 REVERT JUMPDEST PUSH0 PUSH2 0x940 DUP5 DUP5 PUSH2 0xB01 JUMP JUMPDEST SWAP1 POP PUSH0 PUSH1 0x3 PUSH0 DUP4 DUP2 MSTORE PUSH1 0x20 ADD SWAP1 DUP2 MSTORE PUSH1 0x20 ADD PUSH0 KECCAK256 SWAP1 POP PUSH0 PUSH20 0xFFFFFFFFFFFFFFFFFFFFFFFFFFFFFFFFFFFFFFFF AND DUP2 PUSH0 ADD PUSH0 SWAP1 SLOAD SWAP1 PUSH2 0x100 EXP SWAP1 DIV PUSH20 0xFFFFFFFFFFFFFFFFFFFFFFFFFFFFFFFFFFFFFFFF AND PUSH20 0xFFFFFFFFFFFFFFFFFFFFFFFFFFFFFFFFFFFFFFFF AND EQ PUSH2 0x9E6 JUMPI PUSH1 0x40 MLOAD PUSH32 0x8C379A000000000000000000000000000000000000000000000000000000000 DUP2 MSTORE PUSH1 0x4 ADD PUSH2 0x9DD SWAP1 PUSH2 0x14EA JUMP JUMPDEST PUSH1 0x40 MLOAD DUP1 SWAP2 SUB SWAP1 REVERT JUMPDEST DUP5 DUP2 PUSH0 ADD PUSH0 PUSH2 0x100 EXP DUP2 SLOAD DUP2 PUSH20 0xFFFFFFFFFFFFFFFFFFFFFFFFFFFFFFFFFFFFFFFF MUL NOT AND SWAP1 DUP4 PUSH20 0xFFFFFFFFFFFFFFFFFFFFFFFFFFFFFFFFFFFFFFFF AND MUL OR SWAP1 SSTORE POP DUP4 DUP2 PUSH1 0x1 ADD PUSH0 PUSH2 0x100 EXP DUP2 SLOAD DUP2 PUSH20 0xFFFFFFFFFFFFFFFFFFFFFFFFFFFFFFFFFFFFFFFF MUL NOT AND SWAP1 DUP4 PUSH20 0xFFFFFFFFFFFFFFFFFFFFFFFFFFFFFFFFFFFFFFFF AND MUL OR SWAP1 SSTORE POP PUSH1 0x1 SLOAD TIMESTAMP PUSH2 0xA77 SWAP2 SWAP1 PUSH2 0x1265 JUMP JUMPDEST DUP2 PUSH1 0x2 ADD DUP2 SWAP1 SSTORE POP PUSH0 DUP2 PUSH1 0x3 ADD PUSH0 PUSH2 0x100 EXP DUP2 SLOAD DUP2 PUSH1 0xFF MUL NOT AND SWAP1 DUP4 ISZERO ISZERO MUL OR SWAP1 SSTORE POP PUSH0 DUP2 PUSH1 0x3 ADD PUSH1 0x1 PUSH2 0x100 EXP DUP2 SLOAD DUP2 PUSH1 0xFF MUL NOT AND SWAP1 DUP4 ISZERO ISZERO MUL OR SWAP1 SSTORE POP DUP2 PUSH32 0x681F0BAF8A726A3A7FB47AC4F62931899D378601CB44958B61C6C251D650B630 DUP7 DUP7 DUP5 PUSH1 0x2 ADD SLOAD PUSH1 0x40 MLOAD PUSH2 0xAEE SWAP4 SWAP3 SWAP2 SWAP1 PUSH2 0x1508 JUMP JUMPDEST PUSH1 0x40 MLOAD DUP1 SWAP2 SUB SWAP1 LOG2 DUP2 SWAP3 POP POP POP SWAP3 SWAP2 POP POP JUMP JUMPDEST PUSH0 DUP3 DUP3 TIMESTAMP PUSH1 0x40 MLOAD PUSH1 0x20 ADD PUSH2 0xB17 SWAP4 SWAP3 SWAP2 SWAP1 PUSH2 0x15A2 JUMP JUMPDEST PUSH1 0x40 MLOAD PUSH1 0x20 DUP2 DUP4 SUB SUB DUP2 MSTORE SWAP1 PUSH1 0x40 MSTORE DUP1 MLOAD SWAP1 PUSH1 0x20 ADD KECCAK256 SWAP1 POP SWAP3 SWAP2 POP POP JUMP JUMPDEST PUSH2 0xB3D PUSH2 0xC1F JUMP JUMPDEST DUP1 PUSH1 0x1 DUP2 SWAP1 SSTORE POP POP JUMP JUMPDEST PUSH2 0xB4F PUSH2 0xC1F JUMP JUMPDEST PUSH0 DUP2 GT PUSH2 0xB91 JUMPI PUSH1 0x40 MLOAD PUSH32 0x8C379A000000000000000000000000000000000000000000000000000000000 DUP2 MSTORE PUSH1 0x4 ADD PUSH2 0xB88 SWAP1 PUSH2 0x1628 JUMP JUMPDEST PUSH1 0x40 MLOAD DUP1 SWAP2 SUB SWAP1 REVERT JUMPDEST DUP1 PUSH1 0x2 DUP2 SWAP1 SSTORE POP POP JUMP JUMPDEST PUSH2 0xBA3 PUSH2 0xC1F JUMP JUMPDEST PUSH0 PUSH20 0xFFFFFFFFFFFFFFFFFFFFFFFFFFFFFFFFFFFFFFFF AND DUP2 PUSH20 0xFFFFFFFFFFFFFFFFFFFFFFFFFFFFFFFFFFFFFFFF AND SUB PUSH2 0xC13 JUMPI PUSH0 PUSH1 0x40 MLOAD PUSH32 0x1E4FBDF700000000000000000000000000000000000000000000000000000000 DUP2 MSTORE PUSH1 0x4 ADD PUSH2 0xC0A SWAP2 SWAP1 PUSH2 0xE40 JUMP JUMPDEST PUSH1 0x40 MLOAD DUP1 SWAP2 SUB SWAP1 REVERT JUMPDEST PUSH2 0xC1C DUP2 PUSH2 0xCA6 JUMP JUMPDEST POP JUMP JUMPDEST PUSH2 0xC27 PUSH2 0xD67 JUMP JUMPDEST PUSH20 0xFFFFFFFFFFFFFFFFFFFFFFFFFFFFFFFFFFFFFFFF AND PUSH2 0xC45 PUSH2 0x79A JUMP JUMPDEST PUSH20 0xFFFFFFFFFFFFFFFFFFFFFFFFFFFFFFFFFFFFFFFF AND EQ PUSH2 0xCA4 JUMPI PUSH2 0xC68 PUSH2 0xD67 JUMP JUMPDEST PUSH1 0x40 MLOAD PUSH32 0x118CDAA700000000000000000000000000000000000000000000000000000000 DUP2 MSTORE PUSH1 0x4 ADD PUSH2 0xC9B SWAP2 SWAP1 PUSH2 0xE40 JUMP JUMPDEST PUSH1 0x40 MLOAD DUP1 SWAP2 SUB SWAP1 REVERT JUMPDEST JUMP JUMPDEST PUSH0 PUSH0 PUSH0 SWAP1 SLOAD SWAP1 PUSH2 0x100 EXP SWAP1 DIV PUSH20 0xFFFFFFFFFFFFFFFFFFFFFFFFFFFFFFFFFFFFFFFF AND SWAP1 POP DUP2 PUSH0 PUSH0 PUSH2 0x100 EXP DUP2 SLOAD DUP2 PUSH20 0xFFFFFFFFFFFFFFFFFFFFFFFFFFFFFFFFFFFFFFFF MUL NOT AND SWAP1 DUP4 PUSH20 0xFFFFFFFFFFFFFFFFFFFFFFFFFFFFFFFFFFFFFFFF AND MUL OR SWAP1 SSTORE POP DUP2 PUSH20 0xFFFFFFFFFFFFFFFFFFFFFFFFFFFFFFFFFFFFFFFF AND DUP2 PUSH20 0xFFFFFFFFFFFFFFFFFFFFFFFFFFFFFFFFFFFFFFFF AND PUSH32 0x8BE0079C531659141344CD1FD0A4F28419497F9722A3DAAFE3B4186F6B6457E0 PUSH1 0x40 MLOAD PUSH1 0x40 MLOAD DUP1 SWAP2 SUB SWAP1 LOG3 POP POP JUMP JUMPDEST PUSH0 CALLER SWAP1 POP SWAP1 JUMP JUMPDEST PUSH0 PUSH0 REVERT JUMPDEST PUSH0 DUP2 SWAP1 POP SWAP2 SWAP1 POP JUMP JUMPDEST PUSH2 0xD84 DUP2 PUSH2 0xD72 JUMP JUMPDEST DUP2 EQ PUSH2 0xD8E JUMPI PUSH0 PUSH0 REVERT JUMPDEST POP JUMP JUMPDEST PUSH0 DUP2 CALLDATALOAD SWAP1 POP PUSH2 0xD9F DUP2 PUSH2 0xD7B JUMP JUMPDEST SWAP3 SWAP2 POP POP JUMP JUMPDEST PUSH0 PUSH1 0x20 DUP3 DUP5 SUB SLT ISZERO PUSH2 0xDBA JUMPI PUSH2 0xDB9 PUSH2 0xD6E JUMP JUMPDEST JUMPDEST PUSH0 PUSH2 0xDC7 DUP5 DUP3 DUP6 ADD PUSH2 0xD91 JUMP JUMPDEST SWAP2 POP POP SWAP3 SWAP2 POP POP JUMP JUMPDEST PUSH0 DUP2 SWAP1 POP SWAP2 SWAP1 POP JUMP JUMPDEST PUSH2 0xDE2 DUP2 PUSH2 0xDD0 JUMP JUMPDEST DUP3 MSTORE POP POP JUMP JUMPDEST PUSH0 PUSH1 0x20 DUP3 ADD SWAP1 POP PUSH2 0xDFB PUSH0 DUP4 ADD DUP5 PUSH2 0xDD9 JUMP JUMPDEST SWAP3 SWAP2 POP POP JUMP JUMPDEST PUSH0 PUSH20 0xFFFFFFFFFFFFFFFFFFFFFFFFFFFFFFFFFFFFFFFF DUP3 AND SWAP1 POP SWAP2 SWAP1 POP JUMP JUMPDEST PUSH0 PUSH2 0xE2A DUP3 PUSH2 0xE01 JUMP JUMPDEST SWAP1 POP SWAP2 SWAP1 POP JUMP JUMPDEST PUSH2 0xE3A DUP2 PUSH2 0xE20 JUMP JUMPDEST DUP3 MSTORE POP POP JUMP JUMPDEST PUSH0 PUSH1 0x20 DUP3 ADD SWAP1 POP PUSH2 0xE53 PUSH0 DUP4 ADD DUP5 PUSH2 0xE31 JUMP JUMPDEST SWAP3 SWAP2 POP POP JUMP JUMPDEST PUSH0 DUP2 ISZERO ISZERO SWAP1 POP SWAP2 SWAP1 POP JUMP JUMPDEST PUSH2 0xE6D DUP2 PUSH2 0xE59 JUMP JUMPDEST DUP3 MSTORE POP POP JUMP JUMPDEST PUSH0 PUSH1 0xA0 DUP3 ADD SWAP1 POP PUSH2 0xE86 PUSH0 DUP4 ADD DUP9 PUSH2 0xE31 JUMP JUMPDEST PUSH2 0xE93 PUSH1 0x20 DUP4 ADD DUP8 PUSH2 0xE31 JUMP JUMPDEST PUSH2 0xEA0 PUSH1 0x40 DUP4 ADD DUP7 PUSH2 0xDD9 JUMP JUMPDEST PUSH2 0xEAD PUSH1 0x60 DUP4 ADD DUP6 PUSH2 0xE64 JUMP JUMPDEST PUSH2 0xEBA PUSH1 0x80 DUP4 ADD DUP5 PUSH2 0xE64 JUMP JUMPDEST SWAP7 SWAP6 POP POP POP POP POP POP JUMP JUMPDEST PUSH2 0xECD DUP2 PUSH2 0xE20 JUMP JUMPDEST DUP2 EQ PUSH2 0xED7 JUMPI PUSH0 PUSH0 REVERT JUMPDEST POP JUMP JUMPDEST PUSH0 DUP2 CALLDATALOAD SWAP1 POP PUSH2 0xEE8 DUP2 PUSH2 0xEC4 JUMP JUMPDEST SWAP3 SWAP2 POP POP JUMP JUMPDEST PUSH0 PUSH0 PUSH1 0x40 DUP4 DUP6 SUB SLT ISZERO PUSH2 0xF04 JUMPI PUSH2 0xF03 PUSH2 0xD6E JUMP JUMPDEST JUMPDEST PUSH0 PUSH2 0xF11 DUP6 DUP3 DUP7 ADD PUSH2 0xEDA JUMP JUMPDEST SWAP3 POP POP PUSH1 0x20 PUSH2 0xF22 DUP6 DUP3 DUP7 ADD PUSH2 0xEDA JUMP JUMPDEST SWAP2 POP POP SWAP3 POP SWAP3 SWAP1 POP JUMP JUMPDEST PUSH2 0xF35 DUP2 PUSH2 0xD72 JUMP JUMPDEST DUP3 MSTORE POP POP JUMP JUMPDEST PUSH0 PUSH1 0x20 DUP3 ADD SWAP1 POP PUSH2 0xF4E PUSH0 DUP4 ADD DUP5 PUSH2 0xF2C JUMP JUMPDEST SWAP3 SWAP2 POP POP JUMP JUMPDEST PUSH2 0xF5D DUP2 PUSH2 0xDD0 JUMP JUMPDEST DUP2 EQ PUSH2 0xF67 JUMPI PUSH0 PUSH0 REVERT JUMPDEST POP JUMP JUMPDEST PUSH0 DUP2 CALLDATALOAD SWAP1 POP PUSH2 0xF78 DUP2 PUSH2 0xF54 JUMP JUMPDEST SWAP3 SWAP2 POP POP JUMP JUMPDEST PUSH0 PUSH1 0x20 DUP3 DUP5 SUB SLT ISZERO PUSH2 0xF93 JUMPI PUSH2 0xF92 PUSH2 0xD6E JUMP JUMPDEST JUMPDEST PUSH0 PUSH2 0xFA0 DUP5 DUP3 DUP6 ADD PUSH2 0xF6A JUMP JUMPDEST SWAP2 POP POP SWAP3 SWAP2 POP POP JUMP JUMPDEST PUSH0 PUSH1 0x20 DUP3 DUP5 SUB SLT ISZERO PUSH2 0xFBE JUMPI PUSH2 0xFBD PUSH2 0xD6E JUMP JUMPDEST JUMPDEST PUSH0 PUSH2 0xFCB DUP5 DUP3 DUP6 ADD PUSH2 0xEDA JUMP JUMPDEST SWAP2 POP POP SWAP3 SWAP2 POP POP JUMP JUMPDEST PUSH0 DUP3 DUP3 MSTORE PUSH1 0x20 DUP3 ADD SWAP1 POP SWAP3 SWAP2 POP POP JUMP JUMPDEST PUSH32 0x54696D654C6F636B3A20756E6B6E6F776E207265717565737400000000000000 PUSH0 DUP3 ADD MSTORE POP JUMP JUMPDEST PUSH0 PUSH2 0x1018 PUSH1 0x19 DUP4 PUSH2 0xFD4 JUMP JUMPDEST SWAP2 POP PUSH2 0x1023 DUP3 PUSH2 0xFE4 JUMP JUMPDEST PUSH1 0x20 DUP3 ADD SWAP1 POP SWAP2 SWAP1 POP JUMP JUMPDEST PUSH0 PUSH1 0x20 DUP3 ADD SWAP1 POP DUP2 DUP2 SUB PUSH0 DUP4 ADD MSTORE PUSH2 0x1045 DUP2 PUSH2 0x100C JUMP JUMPDEST SWAP1 POP SWAP2 SWAP1 POP JUMP JUMPDEST PUSH32 0x54696D654C6F636B3A207265717565737420616C726561647920657865637574 PUSH0 DUP3 ADD MSTORE PUSH32 0x6564000000000000000000000000000000000000000000000000000000000000 PUSH1 0x20 DUP3 ADD MSTORE POP JUMP JUMPDEST PUSH0 PUSH2 0x10A6 PUSH1 0x22 DUP4 PUSH2 0xFD4 JUMP JUMPDEST SWAP2 POP PUSH2 0x10B1 DUP3 PUSH2 0x104C JUMP JUMPDEST PUSH1 0x40 DUP3 ADD SWAP1 POP SWAP2 SWAP1 POP JUMP JUMPDEST PUSH0 PUSH1 0x20 DUP3 ADD SWAP1 POP DUP2 DUP2 SUB PUSH0 DUP4 ADD MSTORE PUSH2 0x10D3 DUP2 PUSH2 0x109A JUMP JUMPDEST SWAP1 POP SWAP2 SWAP1 POP JUMP JUMPDEST PUSH32 0x54696D654C6F636B3A207265717565737420616C72656164792063616E63656C PUSH0 DUP3 ADD MSTORE PUSH32 0x6564000000000000000000000000000000000000000000000000000000000000 PUSH1 0x20 DUP3 ADD MSTORE POP JUMP JUMPDEST PUSH0 PUSH2 0x1134 PUSH1 0x22 DUP4 PUSH2 0xFD4 JUMP JUMPDEST SWAP2 POP PUSH2 0x113F DUP3 PUSH2 0x10DA JUMP JUMPDEST PUSH1 0x40 DUP3 ADD SWAP1 POP SWAP2 SWAP1 POP JUMP JUMPDEST PUSH0 PUSH1 0x20 DUP3 ADD SWAP1 POP DUP2 DUP2 SUB PUSH0 DUP4 ADD MSTORE PUSH2 0x1161 DUP2 PUSH2 0x1128 JUMP JUMPDEST SWAP1 POP SWAP2 SWAP1 POP JUMP JUMPDEST PUSH32 0x54696D654C6F636B3A20726571756573742063616E63656C6564000000000000 PUSH0 DUP3 ADD MSTORE POP JUMP JUMPDEST PUSH0 PUSH2 0x119C PUSH1 0x1A DUP4 PUSH2 0xFD4 JUMP JUMPDEST SWAP2 POP PUSH2 0x11A7 DUP3 PUSH2 0x1168 JUMP JUMPDEST PUSH1 0x20 DUP3 ADD SWAP1 POP SWAP2 SWAP1 POP JUMP JUMPDEST PUSH0 PUSH1 0x20 DUP3 ADD SWAP1 POP DUP2 DUP2 SUB PUSH0 DUP4 ADD MSTORE PUSH2 0x11C9 DUP2 PUSH2 0x1190 JUMP JUMPDEST SWAP1 POP SWAP2 SWAP1 POP JUMP JUMPDEST PUSH32 0x54696D654C6F636B3A20746F6F206561726C7900000000000000000000000000 PUSH0 DUP3 ADD MSTORE POP JUMP JUMPDEST PUSH0 PUSH2 0x1204 PUSH1 0x13 DUP4 PUSH2 0xFD4 JUMP JUMPDEST SWAP2 POP PUSH2 0x120F DUP3 PUSH2 0x11D0 JUMP JUMPDEST PUSH1 0x20 DUP3 ADD SWAP1 POP SWAP2 SWAP1 POP JUMP JUMPDEST PUSH0 PUSH1 0x20 DUP3 ADD SWAP1 POP DUP2 DUP2 SUB PUSH0 DUP4 ADD MSTORE PUSH2 0x1231 DUP2 PUSH2 0x11F8 JUMP JUMPDEST SWAP1 POP SWAP2 SWAP1 POP JUMP JUMPDEST PUSH32 0x4E487B7100000000000000000000000000000000000000000000000000000000 PUSH0 MSTORE PUSH1 0x11 PUSH1 0x4 MSTORE PUSH1 0x24 PUSH0 REVERT JUMPDEST PUSH0 PUSH2 0x126F DUP3 PUSH2 0xDD0 JUMP JUMPDEST SWAP2 POP PUSH2 0x127A DUP4 PUSH2 0xDD0 JUMP JUMPDEST SWAP3 POP DUP3 DUP3 ADD SWAP1 POP DUP1 DUP3 GT ISZERO PUSH2 0x1292 JUMPI PUSH2 0x1291 PUSH2 0x1238 JUMP JUMPDEST JUMPDEST SWAP3 SWAP2 POP POP JUMP JUMPDEST PUSH32 0x54696D654C6F636B3A2072657175657374206578706972656400000000000000 PUSH0 DUP3 ADD MSTORE POP JUMP JUMPDEST PUSH0 PUSH2 0x12CC PUSH1 0x19 DUP4 PUSH2 0xFD4 JUMP JUMPDEST SWAP2 POP PUSH2 0x12D7 DUP3 PUSH2 0x1298 JUMP JUMPDEST PUSH1 0x20 DUP3 ADD SWAP1 POP SWAP2 SWAP1 POP JUMP JUMPDEST PUSH0 PUSH1 0x20 DUP3 ADD SWAP1 POP DUP2 DUP2 SUB PUSH0 DUP4 ADD MSTORE PUSH2 0x12F9 DUP2 PUSH2 0x12C0 JUMP JUMPDEST SWAP1 POP SWAP2 SWAP1 POP JUMP JUMPDEST PUSH0 DUP2 MLOAD SWAP1 POP SWAP2 SWAP1 POP JUMP JUMPDEST PUSH0 DUP2 SWAP1 POP SWAP3 SWAP2 POP POP JUMP JUMPDEST DUP3 DUP2 DUP4 MCOPY PUSH0 DUP4 DUP4 ADD MSTORE POP POP POP JUMP JUMPDEST PUSH0 PUSH2 0x132C DUP3 PUSH2 0x1300 JUMP JUMPDEST PUSH2 0x1336 DUP2 DUP6 PUSH2 0x130A JUMP JUMPDEST SWAP4 POP PUSH2 0x1346 DUP2 DUP6 PUSH1 0x20 DUP7 ADD PUSH2 0x1314 JUMP JUMPDEST DUP1 DUP5 ADD SWAP2 POP POP SWAP3 SWAP2 POP POP JUMP JUMPDEST PUSH0 PUSH2 0x135D DUP3 DUP5 PUSH2 0x1322 JUMP JUMPDEST SWAP2 POP DUP2 SWAP1 POP SWAP3 SWAP2 POP POP JUMP JUMPDEST PUSH32 0x54696D654C6F636B3A20757067726164652063616C6C206661696C6564000000 PUSH0 DUP3 ADD MSTORE POP JUMP JUMPDEST PUSH0 PUSH2 0x139C PUSH1 0x1D DUP4 PUSH2 0xFD4 JUMP JUMPDEST SWAP2 POP PUSH2 0x13A7 DUP3 PUSH2 0x1368 JUMP JUMPDEST PUSH1 0x20 DUP3 ADD SWAP1 POP SWAP2 SWAP1 POP JUMP JUMPDEST PUSH0 PUSH1 0x20 DUP3 ADD SWAP1 POP DUP2 DUP2 SUB PUSH0 DUP4 ADD MSTORE PUSH2 0x13C9 DUP2 PUSH2 0x1390 JUMP JUMPDEST SWAP1 POP SWAP2 SWAP1 POP JUMP JUMPDEST PUSH32 0x54696D654C6F636B3A20696E76616C6964207461726765740000000000000000 PUSH0 DUP3 ADD MSTORE POP JUMP JUMPDEST PUSH0 PUSH2 0x1404 PUSH1 0x18 DUP4 PUSH2 0xFD4 JUMP JUMPDEST SWAP2 POP PUSH2 0x140F DUP3 PUSH2 0x13D0 JUMP JUMPDEST PUSH1 0x20 DUP3 ADD SWAP1 POP SWAP2 SWAP1 POP JUMP JUMPDEST PUSH0 PUSH1 0x20 DUP3 ADD SWAP1 POP DUP2 DUP2 SUB PUSH0 DUP4 ADD MSTORE PUSH2 0x1431 DUP2 PUSH2 0x13F8 JUMP JUMPDEST SWAP1 POP SWAP2 SWAP1 POP JUMP JUMPDEST PUSH32 0x54696D654C6F636B3A20696E76616C696420696D706C656D656E746174696F6E PUSH0 DUP3 ADD MSTORE POP JUMP JUMPDEST PUSH0 PUSH2 0x146C PUSH1 0x20 DUP4 PUSH2 0xFD4 JUMP JUMPDEST SWAP2 POP PUSH2 0x1477 DUP3 PUSH2 0x1438 JUMP JUMPDEST PUSH1 0x20 DUP3 ADD SWAP1 POP SWAP2 SWAP1 POP JUMP JUMPDEST PUSH0 PUSH1 0x20 DUP3 ADD SWAP1 POP DUP2 DUP2 SUB PUSH0 DUP4 ADD MSTORE PUSH2 0x1499 DUP2 PUSH2 0x1460 JUMP JUMPDEST SWAP1 POP SWAP2 SWAP1 POP JUMP JUMPDEST PUSH32 0x54696D654C6F636B3A207265717565737420616C726561647920717565756564 PUSH0 DUP3 ADD MSTORE POP JUMP JUMPDEST PUSH0 PUSH2 0x14D4 PUSH1 0x20 DUP4 PUSH2 0xFD4 JUMP JUMPDEST SWAP2 POP PUSH2 0x14DF DUP3 PUSH2 0x14A0 JUMP JUMPDEST PUSH1 0x20 DUP3 ADD SWAP1 POP SWAP2 SWAP1 POP JUMP JUMPDEST PUSH0 PUSH1 0x20 DUP3 ADD SWAP1 POP DUP2 DUP2 SUB PUSH0 DUP4 ADD MSTORE PUSH2 0x1501 DUP2 PUSH2 0x14C8 JUMP JUMPDEST SWAP1 POP SWAP2 SWAP1 POP JUMP JUMPDEST PUSH0 PUSH1 0x60 DUP3 ADD SWAP1 POP PUSH2 0x151B PUSH0 DUP4 ADD DUP7 PUSH2 0xE31 JUMP JUMPDEST PUSH2 0x1528 PUSH1 0x20 DUP4 ADD DUP6 PUSH2 0xE31 JUMP JUMPDEST PUSH2 0x1535 PUSH1 0x40 DUP4 ADD DUP5 PUSH2 0xDD9 JUMP JUMPDEST SWAP5 SWAP4 POP POP POP POP JUMP JUMPDEST PUSH0 DUP2 PUSH1 0x60 SHL SWAP1 POP SWAP2 SWAP1 POP JUMP JUMPDEST PUSH0 PUSH2 0x1553 DUP3 PUSH2 0x153D JUMP JUMPDEST SWAP1 POP SWAP2 SWAP1 POP JUMP JUMPDEST PUSH0 PUSH2 0x1564 DUP3 PUSH2 0x1549 JUMP JUMPDEST SWAP1 POP SWAP2 SWAP1 POP JUMP JUMPDEST PUSH2 0x157C PUSH2 0x1577 DUP3 PUSH2 0xE20 JUMP JUMPDEST PUSH2 0x155A JUMP JUMPDEST DUP3 MSTORE POP POP JUMP JUMPDEST PUSH0 DUP2 SWAP1 POP SWAP2 SWAP1 POP JUMP JUMPDEST PUSH2 0x159C PUSH2 0x1597 DUP3 PUSH2 0xDD0 JUMP JUMPDEST PUSH2 0x1582 JUMP JUMPDEST DUP3 MSTORE POP POP JUMP JUMPDEST PUSH0 PUSH2 0x15AD DUP3 DUP7 PUSH2 0x156B JUMP JUMPDEST PUSH1 0x14 DUP3 ADD SWAP2 POP PUSH2 0x15BD DUP3 DUP6 PUSH2 0x156B JUMP JUMPDEST PUSH1 0x14 DUP3 ADD SWAP2 POP PUSH2 0x15CD DUP3 DUP5 PUSH2 0x158B JUMP JUMPDEST PUSH1 0x20 DUP3 ADD SWAP2 POP DUP2 SWAP1 POP SWAP5 SWAP4 POP POP POP POP JUMP JUMPDEST PUSH32 0x54696D654C6F636B3A20696E76616C6964206772616365000000000000000000 PUSH0 DUP3 ADD MSTORE POP JUMP JUMPDEST PUSH0 PUSH2 0x1612 PUSH1 0x17 DUP4 PUSH2 0xFD4 JUMP JUMPDEST SWAP2 POP PUSH2 0x161D DUP3 PUSH2 0x15DE JUMP JUMPDEST PUSH1 0x20 DUP3 ADD SWAP1 POP SWAP2 SWAP1 POP JUMP JUMPDEST PUSH0 PUSH1 0x20 DUP3 ADD SWAP1 POP DUP2 DUP2 SUB PUSH0 DUP4 ADD MSTORE PUSH2 0x163F DUP2 PUSH2 0x1606 JUMP JUMPDEST SWAP1 POP SWAP2 SWAP1 POP JUMP INVALID LOG2 PUSH5 0x6970667358 0x22 SLT KECCAK256 0xB6 POP 0xD3 DUP2 0xE1 0xD0 PUSH28 0xB66C99C5EB9396031EB72EDDB9420B4250C91A7B9E73D4AD1964736F PUSH13 0x634300081C0033000000000000 "
				},
				"gasEstimates": {
					"creation": {
						"codeDepositCost": "1151200",
						"executionCost": "infinite",
						"totalCost": "infinite"
					},
					"external": {
						"cancelUpgrade(bytes32)": "infinite",
						"delay()": "2470",
						"executeUpgrade(bytes32)": "infinite",
						"getRequestId(address,address)": "infinite",
						"gracePeriod()": "2425",
						"owner()": "2603",
						"queueUpgrade(address,address)": "infinite",
						"renounceOwnership()": "infinite",
						"requests(bytes32)": "infinite",
						"setDelay(uint256)": "infinite",
						"setGracePeriod(uint256)": "infinite",
						"transferOwnership(address)": "infinite"
					}
				},
				"methodIdentifiers": {
					"cancelUpgrade(bytes32)": "337781ea",
					"delay()": "6a42b8f8",
					"executeUpgrade(bytes32)": "3b6520cb",
					"getRequestId(address,address)": "dd634fe5",
					"gracePeriod()": "a06db7dc",
					"owner()": "8da5cb5b",
					"queueUpgrade(address,address)": "a9bd443f",
					"renounceOwnership()": "715018a6",
					"requests(bytes32)": "9d866985",
					"setDelay(uint256)": "e177246e",
					"setGracePeriod(uint256)": "f2f65960",
					"transferOwnership(address)": "f2fde38b"
				}
			},
			"storageLayout": {
				"storage": [
					{
						"astId": 8,
						"contract": "Contracts/Timelock.sol:TimeLock",
						"label": "_owner",
						"offset": 0,
						"slot": "0",
						"type": "t_address"
					},
					{
						"astId": 198,
						"contract": "Contracts/Timelock.sol:TimeLock",
						"label": "delay",
						"offset": 0,
						"slot": "1",
						"type": "t_uint256"
					},
					{
						"astId": 201,
						"contract": "Contracts/Timelock.sol:TimeLock",
						"label": "gracePeriod",
						"offset": 0,
						"slot": "2",
						"type": "t_uint256"
					},
					{
						"astId": 207,
						"contract": "Contracts/Timelock.sol:TimeLock",
						"label": "requests",
						"offset": 0,
						"slot": "3",
						"type": "t_mapping(t_bytes32,t_struct(UpgradeRequest)195_storage)"
					}
				],
				"types": {
					"t_address": {
						"encoding": "inplace",
						"label": "address",
						"numberOfBytes": "20"
					},
					"t_bool": {
						"encoding": "inplace",
						"label": "bool",
						"numberOfBytes": "1"
					},
					"t_bytes32": {
						"encoding": "inplace",
						"label": "bytes32",
						"numberOfBytes": "32"
					},
					"t_mapping(t_bytes32,t_struct(UpgradeRequest)195_storage)": {
						"encoding": "mapping",
						"key": "t_bytes32",
						"label": "mapping(bytes32 => struct TimeLock.UpgradeRequest)",
						"numberOfBytes": "32",
						"value": "t_struct(UpgradeRequest)195_storage"
					},
					"t_struct(UpgradeRequest)195_storage": {
						"encoding": "inplace",
						"label": "struct TimeLock.UpgradeRequest",
						"members": [
							{
								"astId": 186,
								"contract": "Contracts/Timelock.sol:TimeLock",
								"label": "targetContract",
								"offset": 0,
								"slot": "0",
								"type": "t_address"
							},
							{
								"astId": 188,
								"contract": "Contracts/Timelock.sol:TimeLock",
								"label": "newImplementation",
								"offset": 0,
								"slot": "1",
								"type": "t_address"
							},
							{
								"astId": 190,
								"contract": "Contracts/Timelock.sol:TimeLock",
								"label": "earliestExecuteTime",
								"offset": 0,
								"slot": "2",
								"type": "t_uint256"
							},
							{
								"astId": 192,
								"contract": "Contracts/Timelock.sol:TimeLock",
								"label": "executed",
								"offset": 0,
								"slot": "3",
								"type": "t_bool"
							},
							{
								"astId": 194,
								"contract": "Contracts/Timelock.sol:TimeLock",
								"label": "canceled",
								"offset": 1,
								"slot": "3",
								"type": "t_bool"
							}
						],
						"numberOfBytes": "128"
					},
					"t_uint256": {
						"encoding": "inplace",
						"label": "uint256",
						"numberOfBytes": "32"
					}
				}
			},
			"userdoc": {
				"kind": "user",
				"methods": {
					"cancelUpgrade(bytes32)": {
						"notice": "Cancels a previously queued upgrade request that has not been executed or canceled yet."
					},
					"constructor": {
						"notice": "Constructor that initializes the contract with an owner,          a required delay, and a grace period."
					},
					"executeUpgrade(bytes32)": {
						"notice": "Executes a queued upgrade if within the valid window [earliestExecuteTime, earliestExecuteTime+gracePeriod]."
					},
					"queueUpgrade(address,address)": {
						"notice": "Schedules an upgrade of a UUPS proxy (or any other upgradable) after `delay`."
					},
					"setDelay(uint256)": {
						"notice": "The owner can adjust the `delay` for future requests. Does not affect existing ones."
					},
					"setGracePeriod(uint256)": {
						"notice": "The owner can adjust the `gracePeriod` for future requests. Does not affect existing ones."
					}
				},
				"notice": "A general-purpose timelock contract designed for scheduling and executing         upgrades or arbitrary function calls after a set delay. Integrates with         an Ownable constructor that requires an owner address.         Key Features:         1) queueUpgrade(...) or queueCall(...) can schedule an operation.         2) Once the `delay` has passed (but before `delay + gracePeriod`),             anyone can execute the operation, provided it's not canceled or executed.         3) If the grace period expires, the operation cannot be executed (it’s expired).         4) The contract uses an owner-based approach for controlling the scheduling,             canceling, and execution of timelocked operations.",
				"version": 1
			}
		}
	}
}