{
	"Contracts/facets/PoolFactoryFacet.sol": {
		"PoolFactoryFacet": {
			"abi": [
				{
					"inputs": [],
					"name": "FailedDeployment",
					"type": "error"
				},
				{
					"inputs": [
						{
							"internalType": "uint256",
							"name": "balance",
							"type": "uint256"
						},
						{
							"internalType": "uint256",
							"name": "needed",
							"type": "uint256"
						}
					],
					"name": "InsufficientBalance",
					"type": "error"
				},
				{
					"anonymous": false,
					"inputs": [
						{
							"indexed": true,
							"internalType": "string",
							"name": "step",
							"type": "string"
						},
						{
							"indexed": false,
							"internalType": "string",
							"name": "info",
							"type": "string"
						},
						{
							"indexed": false,
							"internalType": "uint256",
							"name": "amount",
							"type": "uint256"
						}
					],
					"name": "PoolCreateDebug",
					"type": "event"
				},
				{
					"anonymous": false,
					"inputs": [
						{
							"indexed": true,
							"internalType": "address",
							"name": "poolAddress",
							"type": "address"
						},
						{
							"indexed": true,
							"internalType": "address",
							"name": "creator",
							"type": "address"
						}
					],
					"name": "PoolCreated",
					"type": "event"
				},
				{
					"inputs": [
						{
							"internalType": "address",
							"name": "implementation",
							"type": "address"
						},
						{
							"internalType": "bytes",
							"name": "initData",
							"type": "bytes"
						}
					],
					"name": "createPool",
					"outputs": [
						{
							"internalType": "address",
							"name": "clone",
							"type": "address"
						}
					],
					"stateMutability": "payable",
					"type": "function"
				}
			],
			"devdoc": {
				"errors": {
					"FailedDeployment()": [
						{
							"details": "The deployment failed."
						}
					],
					"InsufficientBalance(uint256,uint256)": [
						{
							"details": "The ETH balance of the account is not enough to perform the operation."
						}
					]
				},
				"events": {
					"PoolCreateDebug(string,string,uint256)": {
						"details": "Additional debug logs for frontends.      - step: a short label for the portion of code      - info: a more descriptive string      - amount: a numeric value if relevant (like msg.value, refunded, etc.)"
					}
				},
				"kind": "dev",
				"methods": {
					"createPool(address,bytes)": {
						"params": {
							"implementation": "The aggregator's ERC20 implementation address.",
							"initData": "Calldata for `initialize(...)`, e.g. `initialize(\"MyLP\",\"MLP\",owner)`."
						},
						"returns": {
							"clone": "The address of the newly created aggregator token."
						}
					}
				},
				"version": 1
			},
			"evm": {
				"assembly": "    /* \"Contracts/facets/PoolFactoryFacet.sol\":823:6043  contract PoolFactoryFacet {... */\n  mstore(0x40, 0x80)\n  callvalue\n  dup1\n  iszero\n  tag_1\n  jumpi\n  0x00\n  dup1\n  revert\ntag_1:\n  pop\n  dataSize(sub_0)\n  dup1\n  dataOffset(sub_0)\n  0x00\n  codecopy\n  0x00\n  return\nstop\n\nsub_0: assembly {\n        /* \"Contracts/facets/PoolFactoryFacet.sol\":823:6043  contract PoolFactoryFacet {... */\n      mstore(0x40, 0x80)\n      jumpi(tag_1, lt(calldatasize, 0x04))\n      shr(0xe0, calldataload(0x00))\n      dup1\n      0x9dd41df2\n      eq\n      tag_2\n      jumpi\n    tag_1:\n      0x00\n      dup1\n      revert\n        /* \"Contracts/facets/PoolFactoryFacet.sol\":2818:5186  function createPool(... */\n    tag_2:\n      tag_3\n      tag_4\n      calldatasize\n      0x04\n      tag_5\n      jump\t// in\n    tag_4:\n      tag_6\n      jump\t// in\n    tag_3:\n      mload(0x40)\n      sub(shl(0xa0, 0x01), 0x01)\n        /* \"#utility.yul\":943:975   */\n      swap1\n      swap2\n      and\n        /* \"#utility.yul\":925:976   */\n      dup2\n      mstore\n        /* \"#utility.yul\":913:915   */\n      0x20\n        /* \"#utility.yul\":898:916   */\n      add\n        /* \"Contracts/facets/PoolFactoryFacet.sol\":2818:5186  function createPool(... */\n      mload(0x40)\n      dup1\n      swap2\n      sub\n      swap1\n      return\n    tag_6:\n        /* \"Contracts/facets/PoolFactoryFacet.sol\":3002:3015  address clone */\n      0x00\n        /* \"Contracts/facets/PoolFactoryFacet.sol\":1152:1177  LibDiamond.nonReentrant() */\n      tag_10\n        /* \"Contracts/facets/PoolFactoryFacet.sol\":1152:1175  LibDiamond.nonReentrant */\n      tag_11\n        /* \"Contracts/facets/PoolFactoryFacet.sol\":1152:1177  LibDiamond.nonReentrant() */\n      jump\t// in\n    tag_10:\n        /* \"Contracts/facets/PoolFactoryFacet.sol\":1406:1435  LibDiamond.enforceNotPaused() */\n      tag_13\n        /* \"Contracts/facets/PoolFactoryFacet.sol\":1406:1433  LibDiamond.enforceNotPaused */\n      tag_14\n        /* \"Contracts/facets/PoolFactoryFacet.sol\":1406:1435  LibDiamond.enforceNotPaused() */\n      jump\t// in\n    tag_13:\n        /* \"Contracts/facets/PoolFactoryFacet.sol\":3105:3161  PoolCreateDebug(\"ENTER\", \"createPool called\", msg.value) */\n      0x40\n      dup1\n      mload\n      shl(0xd9, 0x22a72a22a9)\n        /* \"#utility.yul\":1189:1209   */\n      dup2\n      mstore\n        /* \"Contracts/facets/PoolFactoryFacet.sol\":3105:3161  PoolCreateDebug(\"ENTER\", \"createPool called\", msg.value) */\n      dup2\n      mload\n      swap1\n      dup2\n      swap1\n      sub\n        /* \"#utility.yul\":1234:1235   */\n      0x05\n        /* \"Contracts/facets/PoolFactoryFacet.sol\":3105:3161  PoolCreateDebug(\"ENTER\", \"createPool called\", msg.value) */\n      add\n      dup2\n      keccak256\n        /* \"#utility.yul\":1459:1480   */\n      dup3\n      dup3\n      mstore\n        /* \"#utility.yul\":1516:1518   */\n      0x11\n        /* \"#utility.yul\":1496:1514   */\n      dup3\n      dup5\n      add\n        /* \"#utility.yul\":1489:1519   */\n      mstore\n      shl(0x7a, 0x18dc99585d19541bdbdb0818d85b1b1959)\n        /* \"#utility.yul\":1550:1552   */\n      0x60\n        /* \"#utility.yul\":1535:1553   */\n      dup4\n      add\n        /* \"#utility.yul\":1528:1575   */\n      mstore\n        /* \"Contracts/facets/PoolFactoryFacet.sol\":3151:3160  msg.value */\n      callvalue\n        /* \"#utility.yul\":1642:1646   */\n      0x20\n        /* \"#utility.yul\":1627:1647   */\n      dup4\n      add\n        /* \"#utility.yul\":1620:1656   */\n      mstore\n        /* \"Contracts/facets/PoolFactoryFacet.sol\":3105:3161  PoolCreateDebug(\"ENTER\", \"createPool called\", msg.value) */\n      swap2\n      mload\n      0x00\n      dup1\n      mload\n      0x20\n      data_78a3da7c486583446c79ef6d8028ef4667fbe691038bb13c70e17002616a1a67\n      dup4\n      codecopy\n      dup2\n      mload\n      swap2\n      mstore\n      swap2\n      dup2\n      swap1\n      sub\n        /* \"#utility.yul\":1607:1610   */\n      0x80\n        /* \"Contracts/facets/PoolFactoryFacet.sol\":3105:3161  PoolCreateDebug(\"ENTER\", \"createPool called\", msg.value) */\n      add\n      swap1\n      log2\n        /* \"Contracts/facets/PoolFactoryFacet.sol\":3299:3317  ds.poolCreationFee */\n      sload(0xc8fcad8db84d3cc18b4c41d551ea0ee66dd599cde068d998e57d5e09332c1324)\n        /* \"Contracts/libraries/LibDiamond.sol\":738:783  keccak256(\"diamond.standard.diamond.storage\") */\n      0xc8fcad8db84d3cc18b4c41d551ea0ee66dd599cde068d998e57d5e09332c131c\n      swap1\n        /* \"Contracts/facets/PoolFactoryFacet.sol\":3331:3338  fee > 0 */\n      dup1\n      iszero\n        /* \"Contracts/facets/PoolFactoryFacet.sol\":3327:4033  if (fee > 0) {... */\n      tag_22\n      jumpi\n        /* \"Contracts/facets/PoolFactoryFacet.sol\":3414:3417  fee */\n      dup1\n        /* \"Contracts/facets/PoolFactoryFacet.sol\":3401:3410  msg.value */\n      callvalue\n        /* \"Contracts/facets/PoolFactoryFacet.sol\":3401:3417  msg.value >= fee */\n      lt\n      iszero\n        /* \"Contracts/facets/PoolFactoryFacet.sol\":3393:3460  require(msg.value >= fee, \"Insufficient ETH for pool creation fee\") */\n      tag_23\n      jumpi\n      mload(0x40)\n      shl(0xe5, 0x461bcd)\n      dup2\n      mstore\n        /* \"#utility.yul\":1869:1871   */\n      0x20\n        /* \"Contracts/facets/PoolFactoryFacet.sol\":3393:3460  require(msg.value >= fee, \"Insufficient ETH for pool creation fee\") */\n      0x04\n      dup3\n      add\n        /* \"#utility.yul\":1851:1872   */\n      mstore\n        /* \"#utility.yul\":1908:1910   */\n      0x26\n        /* \"#utility.yul\":1888:1906   */\n      0x24\n      dup3\n      add\n        /* \"#utility.yul\":1881:1911   */\n      mstore\n        /* \"#utility.yul\":1947:1981   */\n      0x496e73756666696369656e742045544820666f7220706f6f6c20637265617469\n        /* \"#utility.yul\":1927:1945   */\n      0x44\n      dup3\n      add\n        /* \"#utility.yul\":1920:1982   */\n      mstore\n      shl(0xd0, 0x6f6e20666565)\n        /* \"#utility.yul\":1998:2016   */\n      0x64\n      dup3\n      add\n        /* \"#utility.yul\":1991:2027   */\n      mstore\n        /* \"#utility.yul\":2044:2063   */\n      0x84\n      add\n        /* \"Contracts/facets/PoolFactoryFacet.sol\":3393:3460  require(msg.value >= fee, \"Insufficient ETH for pool creation fee\") */\n    tag_24:\n      mload(0x40)\n      dup1\n      swap2\n      sub\n      swap1\n      revert\n    tag_23:\n        /* \"Contracts/facets/PoolFactoryFacet.sol\":3474:3494  uint256 refundAmount */\n      0x00\n        /* \"Contracts/facets/PoolFactoryFacet.sol\":3497:3512  msg.value - fee */\n      tag_26\n        /* \"Contracts/facets/PoolFactoryFacet.sol\":3509:3512  fee */\n      dup3\n        /* \"Contracts/facets/PoolFactoryFacet.sol\":3497:3506  msg.value */\n      callvalue\n        /* \"Contracts/facets/PoolFactoryFacet.sol\":3497:3512  msg.value - fee */\n      tag_27\n      jump\t// in\n    tag_26:\n        /* \"Contracts/facets/PoolFactoryFacet.sol\":3474:3512  uint256 refundAmount = msg.value - fee */\n      swap1\n      pop\n        /* \"Contracts/facets/PoolFactoryFacet.sol\":3582:3598  refundAmount > 0 */\n      dup1\n      iszero\n        /* \"Contracts/facets/PoolFactoryFacet.sol\":3578:3866  if (refundAmount > 0) {... */\n      tag_28\n      jumpi\n        /* \"Contracts/facets/PoolFactoryFacet.sol\":3643:3692  payable(msg.sender).call{value: refundAmount}(\"\") */\n      mload(0x40)\n        /* \"Contracts/facets/PoolFactoryFacet.sol\":3619:3637  bool refundSuccess */\n      0x00\n      swap1\n        /* \"Contracts/facets/PoolFactoryFacet.sol\":3651:3661  msg.sender */\n      caller\n      swap1\n        /* \"Contracts/facets/PoolFactoryFacet.sol\":3675:3687  refundAmount */\n      dup4\n      swap1\n        /* \"Contracts/facets/PoolFactoryFacet.sol\":3619:3637  bool refundSuccess */\n      dup4\n        /* \"Contracts/facets/PoolFactoryFacet.sol\":3643:3692  payable(msg.sender).call{value: refundAmount}(\"\") */\n      dup2\n        /* \"Contracts/facets/PoolFactoryFacet.sol\":3619:3637  bool refundSuccess */\n      dup2\n        /* \"Contracts/facets/PoolFactoryFacet.sol\":3643:3692  payable(msg.sender).call{value: refundAmount}(\"\") */\n      dup2\n        /* \"Contracts/facets/PoolFactoryFacet.sol\":3675:3687  refundAmount */\n      dup6\n        /* \"Contracts/facets/PoolFactoryFacet.sol\":3651:3661  msg.sender */\n      dup8\n        /* \"Contracts/facets/PoolFactoryFacet.sol\":3643:3692  payable(msg.sender).call{value: refundAmount}(\"\") */\n      gas\n      call\n      swap3\n      pop\n      pop\n      pop\n      returndatasize\n      dup1\n      0x00\n      dup2\n      eq\n      tag_33\n      jumpi\n      mload(0x40)\n      swap2\n      pop\n      and(add(returndatasize, 0x3f), not(0x1f))\n      dup3\n      add\n      0x40\n      mstore\n      returndatasize\n      dup3\n      mstore\n      returndatasize\n      0x00\n      0x20\n      dup5\n      add\n      returndatacopy\n      jump(tag_32)\n    tag_33:\n      0x60\n      swap2\n      pop\n    tag_32:\n      pop\n        /* \"Contracts/facets/PoolFactoryFacet.sol\":3618:3692  (bool refundSuccess, ) = payable(msg.sender).call{value: refundAmount}(\"\") */\n      pop\n      swap1\n      pop\n        /* \"Contracts/facets/PoolFactoryFacet.sol\":3718:3731  refundSuccess */\n      dup1\n        /* \"Contracts/facets/PoolFactoryFacet.sol\":3710:3749  require(refundSuccess, \"Refund failed\") */\n      tag_34\n      jumpi\n      mload(0x40)\n      shl(0xe5, 0x461bcd)\n      dup2\n      mstore\n        /* \"#utility.yul\":2716:2718   */\n      0x20\n        /* \"Contracts/facets/PoolFactoryFacet.sol\":3710:3749  require(refundSuccess, \"Refund failed\") */\n      0x04\n      dup3\n      add\n        /* \"#utility.yul\":2698:2719   */\n      mstore\n        /* \"#utility.yul\":2755:2757   */\n      0x0d\n        /* \"#utility.yul\":2735:2753   */\n      0x24\n      dup3\n      add\n        /* \"#utility.yul\":2728:2758   */\n      mstore\n      shl(0x9a, 0x1499599d5b990819985a5b1959)\n        /* \"#utility.yul\":2774:2792   */\n      0x44\n      dup3\n      add\n        /* \"#utility.yul\":2767:2810   */\n      mstore\n        /* \"#utility.yul\":2827:2845   */\n      0x64\n      add\n        /* \"Contracts/facets/PoolFactoryFacet.sol\":3710:3749  require(refundSuccess, \"Refund failed\") */\n      tag_24\n        /* \"#utility.yul\":2514:2851   */\n      jump\n        /* \"Contracts/facets/PoolFactoryFacet.sol\":3710:3749  require(refundSuccess, \"Refund failed\") */\n    tag_34:\n        /* \"Contracts/facets/PoolFactoryFacet.sol\":3772:3851  PoolCreateDebug(\"REFUND\", \"User overpaid creation fee, refunded\", refundAmount) */\n      0x40\n      dup1\n      mload\n      shl(0xd2, 0x149151955391)\n        /* \"#utility.yul\":3058:3079   */\n      dup2\n      mstore\n        /* \"Contracts/facets/PoolFactoryFacet.sol\":3772:3851  PoolCreateDebug(\"REFUND\", \"User overpaid creation fee, refunded\", refundAmount) */\n      dup2\n      mload\n      swap1\n      dup2\n      swap1\n      sub\n        /* \"#utility.yul\":3104:3105   */\n      0x06\n        /* \"Contracts/facets/PoolFactoryFacet.sol\":3772:3851  PoolCreateDebug(\"REFUND\", \"User overpaid creation fee, refunded\", refundAmount) */\n      add\n      dup2\n      keccak256\n        /* \"#utility.yul\":3329:3350   */\n      dup3\n      dup3\n      mstore\n        /* \"#utility.yul\":3386:3388   */\n      0x24\n        /* \"#utility.yul\":3366:3384   */\n      dup3\n      dup5\n      add\n        /* \"#utility.yul\":3359:3389   */\n      mstore\n        /* \"#utility.yul\":3425:3459   */\n      0x55736572206f76657270616964206372656174696f6e206665652c2072656675\n        /* \"#utility.yul\":3420:3422   */\n      0x60\n        /* \"#utility.yul\":3405:3423   */\n      dup4\n      add\n        /* \"#utility.yul\":3398:3460   */\n      mstore\n      shl(0xe2, 0x1b991959)\n        /* \"#utility.yul\":3491:3494   */\n      0x80\n        /* \"#utility.yul\":3476:3495   */\n      dup4\n      add\n        /* \"#utility.yul\":3469:3504   */\n      mstore\n        /* \"#utility.yul\":3571:3575   */\n      0x20\n        /* \"#utility.yul\":3556:3576   */\n      dup3\n      add\n        /* \"#utility.yul\":3549:3585   */\n      dup6\n      swap1\n      mstore\n        /* \"Contracts/facets/PoolFactoryFacet.sol\":3772:3851  PoolCreateDebug(\"REFUND\", \"User overpaid creation fee, refunded\", refundAmount) */\n      swap2\n      mload\n      0x00\n      dup1\n      mload\n      0x20\n      data_78a3da7c486583446c79ef6d8028ef4667fbe691038bb13c70e17002616a1a67\n      dup4\n      codecopy\n      dup2\n      mload\n      swap2\n      mstore\n      swap2\n      dup2\n      swap1\n      sub\n        /* \"#utility.yul\":3536:3539   */\n      0xa0\n        /* \"Contracts/facets/PoolFactoryFacet.sol\":3772:3851  PoolCreateDebug(\"REFUND\", \"User overpaid creation fee, refunded\", refundAmount) */\n      add\n      swap1\n      log2\n        /* \"Contracts/facets/PoolFactoryFacet.sol\":3600:3866  {... */\n      pop\n        /* \"Contracts/facets/PoolFactoryFacet.sol\":3578:3866  if (refundAmount > 0) {... */\n    tag_28:\n        /* \"Contracts/facets/PoolFactoryFacet.sol\":3340:3876  {... */\n      pop\n        /* \"Contracts/facets/PoolFactoryFacet.sol\":3327:4033  if (fee > 0) {... */\n      jump(tag_42)\n    tag_22:\n        /* \"Contracts/facets/PoolFactoryFacet.sol\":3968:3977  msg.value */\n      callvalue\n        /* \"Contracts/facets/PoolFactoryFacet.sol\":3968:3982  msg.value == 0 */\n      iszero\n        /* \"Contracts/facets/PoolFactoryFacet.sol\":3960:4022  require(msg.value == 0, \"No fee required, so no ETH accepted\") */\n      tag_42\n      jumpi\n      mload(0x40)\n      shl(0xe5, 0x461bcd)\n      dup2\n      mstore\n        /* \"#utility.yul\":3798:3800   */\n      0x20\n        /* \"Contracts/facets/PoolFactoryFacet.sol\":3960:4022  require(msg.value == 0, \"No fee required, so no ETH accepted\") */\n      0x04\n      dup3\n      add\n        /* \"#utility.yul\":3780:3801   */\n      mstore\n        /* \"#utility.yul\":3837:3839   */\n      0x23\n        /* \"#utility.yul\":3817:3835   */\n      0x24\n      dup3\n      add\n        /* \"#utility.yul\":3810:3840   */\n      mstore\n        /* \"#utility.yul\":3876:3910   */\n      0x4e6f206665652072657175697265642c20736f206e6f20455448206163636570\n        /* \"#utility.yul\":3856:3874   */\n      0x44\n      dup3\n      add\n        /* \"#utility.yul\":3849:3911   */\n      mstore\n      shl(0xea, 0x1d1959)\n        /* \"#utility.yul\":3927:3945   */\n      0x64\n      dup3\n      add\n        /* \"#utility.yul\":3920:3953   */\n      mstore\n        /* \"#utility.yul\":3970:3989   */\n      0x84\n      add\n        /* \"Contracts/facets/PoolFactoryFacet.sol\":3960:4022  require(msg.value == 0, \"No fee required, so no ETH accepted\") */\n      tag_24\n        /* \"#utility.yul\":3596:3995   */\n      jump\n        /* \"Contracts/facets/PoolFactoryFacet.sol\":3960:4022  require(msg.value == 0, \"No fee required, so no ETH accepted\") */\n    tag_42:\n        /* \"Contracts/facets/PoolFactoryFacet.sol\":5523:5541  extcodesize(_addr) */\n      dup6\n      extcodesize\n        /* \"Contracts/facets/PoolFactoryFacet.sol\":4105:4174  require(_isContract(implementation), \"Implementation not a contract\") */\n      tag_47\n      jumpi\n      mload(0x40)\n      shl(0xe5, 0x461bcd)\n      dup2\n      mstore\n        /* \"#utility.yul\":4202:4204   */\n      0x20\n        /* \"Contracts/facets/PoolFactoryFacet.sol\":4105:4174  require(_isContract(implementation), \"Implementation not a contract\") */\n      0x04\n      dup3\n      add\n        /* \"#utility.yul\":4184:4205   */\n      mstore\n        /* \"#utility.yul\":4241:4243   */\n      0x1d\n        /* \"#utility.yul\":4221:4239   */\n      0x24\n      dup3\n      add\n        /* \"#utility.yul\":4214:4244   */\n      mstore\n        /* \"#utility.yul\":4280:4311   */\n      0x496d706c656d656e746174696f6e206e6f74206120636f6e7472616374000000\n        /* \"#utility.yul\":4260:4278   */\n      0x44\n      dup3\n      add\n        /* \"#utility.yul\":4253:4312   */\n      mstore\n        /* \"#utility.yul\":4329:4347   */\n      0x64\n      add\n        /* \"Contracts/facets/PoolFactoryFacet.sol\":4105:4174  require(_isContract(implementation), \"Implementation not a contract\") */\n      tag_24\n        /* \"#utility.yul\":4000:4353   */\n      jump\n        /* \"Contracts/facets/PoolFactoryFacet.sol\":4105:4174  require(_isContract(implementation), \"Implementation not a contract\") */\n    tag_47:\n        /* \"Contracts/facets/PoolFactoryFacet.sol\":4189:4261  PoolCreateDebug(\"CHECK_IMPL\", \"Implementation address is a contract\", 0) */\n      0x40\n      dup1\n      mload\n      shl(0xb2, 0x10d21150d2d7d2535413)\n        /* \"#utility.yul\":4560:4585   */\n      dup2\n      mstore\n        /* \"Contracts/facets/PoolFactoryFacet.sol\":4189:4261  PoolCreateDebug(\"CHECK_IMPL\", \"Implementation address is a contract\", 0) */\n      dup2\n      mload\n      swap1\n      dup2\n      swap1\n      sub\n        /* \"#utility.yul\":4610:4612   */\n      0x0a\n        /* \"Contracts/facets/PoolFactoryFacet.sol\":4189:4261  PoolCreateDebug(\"CHECK_IMPL\", \"Implementation address is a contract\", 0) */\n      add\n      dup2\n      keccak256\n        /* \"#utility.yul\":4844:4865   */\n      dup3\n      dup3\n      mstore\n        /* \"#utility.yul\":4901:4903   */\n      0x24\n        /* \"#utility.yul\":4881:4899   */\n      dup3\n      dup5\n      add\n        /* \"#utility.yul\":4874:4904   */\n      mstore\n        /* \"#utility.yul\":4940:4974   */\n      0x496d706c656d656e746174696f6e2061646472657373206973206120636f6e74\n        /* \"#utility.yul\":4935:4937   */\n      0x60\n        /* \"#utility.yul\":4920:4938   */\n      dup4\n      add\n        /* \"#utility.yul\":4913:4975   */\n      mstore\n      shl(0xe2, 0x1c9858dd)\n        /* \"#utility.yul\":5006:5009   */\n      0x80\n        /* \"#utility.yul\":4991:5010   */\n      dup4\n      add\n        /* \"#utility.yul\":4984:5019   */\n      mstore\n      0x00\n        /* \"#utility.yul\":5086:5090   */\n      0x20\n        /* \"#utility.yul\":5071:5091   */\n      dup4\n      add\n        /* \"#utility.yul\":5064:5100   */\n      mstore\n        /* \"Contracts/facets/PoolFactoryFacet.sol\":4189:4261  PoolCreateDebug(\"CHECK_IMPL\", \"Implementation address is a contract\", 0) */\n      swap2\n      mload\n      0x00\n      dup1\n      mload\n      0x20\n      data_78a3da7c486583446c79ef6d8028ef4667fbe691038bb13c70e17002616a1a67\n      dup4\n      codecopy\n      dup2\n      mload\n      swap2\n      mstore\n      swap2\n      dup2\n      swap1\n      sub\n        /* \"#utility.yul\":5051:5054   */\n      0xa0\n        /* \"Contracts/facets/PoolFactoryFacet.sol\":4189:4261  PoolCreateDebug(\"CHECK_IMPL\", \"Implementation address is a contract\", 0) */\n      add\n      swap1\n      log2\n        /* \"Contracts/facets/PoolFactoryFacet.sol\":4336:4378  LibERC20Factory.cloneERC20(implementation) */\n      tag_54\n        /* \"Contracts/facets/PoolFactoryFacet.sol\":4363:4377  implementation */\n      dup7\n        /* \"Contracts/facets/PoolFactoryFacet.sol\":4336:4362  LibERC20Factory.cloneERC20 */\n      tag_55\n        /* \"Contracts/facets/PoolFactoryFacet.sol\":4336:4378  LibERC20Factory.cloneERC20(implementation) */\n      jump\t// in\n    tag_54:\n        /* \"Contracts/facets/PoolFactoryFacet.sol\":4328:4378  clone = LibERC20Factory.cloneERC20(implementation) */\n      swap3\n      pop\n      sub(shl(0xa0, 0x01), 0x01)\n        /* \"Contracts/facets/PoolFactoryFacet.sol\":4396:4415  clone != address(0) */\n      dup4\n      and\n        /* \"Contracts/facets/PoolFactoryFacet.sol\":4388:4432  require(clone != address(0), \"Clone failed\") */\n      tag_56\n      jumpi\n      mload(0x40)\n      shl(0xe5, 0x461bcd)\n      dup2\n      mstore\n        /* \"#utility.yul\":5313:5315   */\n      0x20\n        /* \"Contracts/facets/PoolFactoryFacet.sol\":4388:4432  require(clone != address(0), \"Clone failed\") */\n      0x04\n      dup3\n      add\n        /* \"#utility.yul\":5295:5316   */\n      mstore\n        /* \"#utility.yul\":5352:5354   */\n      0x0c\n        /* \"#utility.yul\":5332:5350   */\n      0x24\n      dup3\n      add\n        /* \"#utility.yul\":5325:5355   */\n      mstore\n      shl(0xa2, 0x10db1bdb994819985a5b1959)\n        /* \"#utility.yul\":5371:5389   */\n      0x44\n      dup3\n      add\n        /* \"#utility.yul\":5364:5406   */\n      mstore\n        /* \"#utility.yul\":5423:5441   */\n      0x64\n      add\n        /* \"Contracts/facets/PoolFactoryFacet.sol\":4388:4432  require(clone != address(0), \"Clone failed\") */\n      tag_24\n        /* \"#utility.yul\":5111:5447   */\n      jump\n        /* \"Contracts/facets/PoolFactoryFacet.sol\":4388:4432  require(clone != address(0), \"Clone failed\") */\n    tag_56:\n        /* \"Contracts/facets/PoolFactoryFacet.sol\":4447:4514  PoolCreateDebug(\"CLONE\", \"ERC20 aggregator cloned successfully\", 0) */\n      0x40\n      dup1\n      mload\n      shl(0xd8, 0x434c4f4e45)\n        /* \"#utility.yul\":5654:5674   */\n      dup2\n      mstore\n        /* \"Contracts/facets/PoolFactoryFacet.sol\":4447:4514  PoolCreateDebug(\"CLONE\", \"ERC20 aggregator cloned successfully\", 0) */\n      dup2\n      mload\n      swap1\n      dup2\n      swap1\n      sub\n        /* \"#utility.yul\":5699:5700   */\n      0x05\n        /* \"Contracts/facets/PoolFactoryFacet.sol\":4447:4514  PoolCreateDebug(\"CLONE\", \"ERC20 aggregator cloned successfully\", 0) */\n      add\n      dup2\n      keccak256\n        /* \"#utility.yul\":5932:5953   */\n      dup3\n      dup3\n      mstore\n        /* \"#utility.yul\":5989:5991   */\n      0x24\n        /* \"#utility.yul\":5969:5987   */\n      dup3\n      dup5\n      add\n        /* \"#utility.yul\":5962:5992   */\n      mstore\n        /* \"#utility.yul\":6028:6062   */\n      0x45524332302061676772656761746f7220636c6f6e6564207375636365737366\n        /* \"#utility.yul\":6023:6025   */\n      0x60\n        /* \"#utility.yul\":6008:6026   */\n      dup4\n      add\n        /* \"#utility.yul\":6001:6063   */\n      mstore\n      shl(0xe0, 0x756c6c79)\n        /* \"#utility.yul\":6094:6097   */\n      0x80\n        /* \"#utility.yul\":6079:6098   */\n      dup4\n      add\n        /* \"#utility.yul\":6072:6107   */\n      mstore\n      0x00\n        /* \"#utility.yul\":6174:6178   */\n      0x20\n        /* \"#utility.yul\":6159:6179   */\n      dup4\n      add\n        /* \"#utility.yul\":6152:6188   */\n      mstore\n        /* \"Contracts/facets/PoolFactoryFacet.sol\":4447:4514  PoolCreateDebug(\"CLONE\", \"ERC20 aggregator cloned successfully\", 0) */\n      swap2\n      mload\n      0x00\n      dup1\n      mload\n      0x20\n      data_78a3da7c486583446c79ef6d8028ef4667fbe691038bb13c70e17002616a1a67\n      dup4\n      codecopy\n      dup2\n      mload\n      swap2\n      mstore\n      swap2\n      dup2\n      swap1\n      sub\n        /* \"#utility.yul\":6139:6142   */\n      0xa0\n        /* \"Contracts/facets/PoolFactoryFacet.sol\":4447:4514  PoolCreateDebug(\"CLONE\", \"ERC20 aggregator cloned successfully\", 0) */\n      add\n      swap1\n      log2\n        /* \"Contracts/facets/PoolFactoryFacet.sol\":4566:4582  bool callSuccess */\n      0x00\n        /* \"Contracts/facets/PoolFactoryFacet.sol\":4584:4604  bytes memory retData */\n      dup1\n        /* \"Contracts/facets/PoolFactoryFacet.sol\":4608:4613  clone */\n      dup5\n      sub(shl(0xa0, 0x01), 0x01)\n        /* \"Contracts/facets/PoolFactoryFacet.sol\":4608:4618  clone.call */\n      and\n        /* \"Contracts/facets/PoolFactoryFacet.sol\":4619:4627  initData */\n      dup8\n      dup8\n        /* \"Contracts/facets/PoolFactoryFacet.sol\":4608:4628  clone.call(initData) */\n      mload(0x40)\n      tag_63\n      swap3\n      swap2\n      swap1\n      tag_64\n      jump\t// in\n    tag_63:\n      0x00\n      mload(0x40)\n      dup1\n      dup4\n      sub\n      dup2\n      0x00\n      dup7\n      gas\n      call\n      swap2\n      pop\n      pop\n      returndatasize\n      dup1\n      0x00\n      dup2\n      eq\n      tag_67\n      jumpi\n      mload(0x40)\n      swap2\n      pop\n      and(add(returndatasize, 0x3f), not(0x1f))\n      dup3\n      add\n      0x40\n      mstore\n      returndatasize\n      dup3\n      mstore\n      returndatasize\n      0x00\n      0x20\n      dup5\n      add\n      returndatacopy\n      jump(tag_66)\n    tag_67:\n      0x60\n      swap2\n      pop\n    tag_66:\n      pop\n        /* \"Contracts/facets/PoolFactoryFacet.sol\":4565:4628  (bool callSuccess, bytes memory retData) = clone.call(initData) */\n      swap2\n      pop\n      swap2\n      pop\n        /* \"Contracts/facets/PoolFactoryFacet.sol\":4714:4725  callSuccess */\n      dup2\n        /* \"Contracts/facets/PoolFactoryFacet.sol\":4709:4937  if (!callSuccess) {... */\n      tag_68\n      jumpi\n        /* \"Contracts/facets/PoolFactoryFacet.sol\":4776:4797  string memory failMsg */\n      0x00\n        /* \"Contracts/facets/PoolFactoryFacet.sol\":4800:4838  _decodeAndBubbleUpRetMessages(retData) */\n      tag_69\n        /* \"Contracts/facets/PoolFactoryFacet.sol\":4830:4837  retData */\n      dup3\n        /* \"Contracts/facets/PoolFactoryFacet.sol\":4800:4829  _decodeAndBubbleUpRetMessages */\n      tag_70\n        /* \"Contracts/facets/PoolFactoryFacet.sol\":4800:4838  _decodeAndBubbleUpRetMessages(retData) */\n      jump\t// in\n    tag_69:\n        /* \"Contracts/facets/PoolFactoryFacet.sol\":4857:4897  PoolCreateDebug(\"INIT_FAIL\", failMsg, 0) */\n      mload(0x40)\n      shl(0xba, 0x1253925517d1905253)\n        /* \"#utility.yul\":6677:6701   */\n      dup2\n      mstore\n        /* \"Contracts/facets/PoolFactoryFacet.sol\":4776:4838  string memory failMsg = _decodeAndBubbleUpRetMessages(retData) */\n      swap1\n      swap2\n      pop\n        /* \"#utility.yul\":6726:6727   */\n      0x09\n        /* \"#utility.yul\":6717:6728   */\n      add\n        /* \"Contracts/facets/PoolFactoryFacet.sol\":4857:4897  PoolCreateDebug(\"INIT_FAIL\", failMsg, 0) */\n      mload(0x40)\n      dup1\n      swap2\n      sub\n      swap1\n      keccak256\n      0x00\n      dup1\n      mload\n      0x20\n      data_78a3da7c486583446c79ef6d8028ef4667fbe691038bb13c70e17002616a1a67\n      dup4\n      codecopy\n      dup2\n      mload\n      swap2\n      mstore\n        /* \"Contracts/facets/PoolFactoryFacet.sol\":4886:4893  failMsg */\n      dup3\n        /* \"Contracts/facets/PoolFactoryFacet.sol\":4895:4896  0 */\n      0x00\n        /* \"Contracts/facets/PoolFactoryFacet.sol\":4857:4897  PoolCreateDebug(\"INIT_FAIL\", failMsg, 0) */\n      mload(0x40)\n      tag_73\n      swap3\n      swap2\n      swap1\n      tag_74\n      jump\t// in\n    tag_73:\n      mload(0x40)\n      dup1\n      swap2\n      sub\n      swap1\n      log2\n        /* \"Contracts/facets/PoolFactoryFacet.sol\":4918:4925  failMsg */\n      dup1\n        /* \"Contracts/facets/PoolFactoryFacet.sol\":4911:4926  revert(failMsg) */\n      mload(0x40)\n      shl(0xe5, 0x461bcd)\n      dup2\n      mstore\n      0x04\n      add\n      tag_24\n      swap2\n      swap1\n      tag_76\n      jump\t// in\n        /* \"Contracts/facets/PoolFactoryFacet.sol\":4709:4937  if (!callSuccess) {... */\n    tag_68:\n        /* \"Contracts/facets/PoolFactoryFacet.sol\":4951:5017  PoolCreateDebug(\"INIT_OK\", \"Aggregator initialization success\", 0) */\n      0x40\n      dup1\n      mload\n      shl(0xc8, 0x494e49545f4f4b)\n        /* \"#utility.yul\":8001:8023   */\n      dup2\n      mstore\n        /* \"Contracts/facets/PoolFactoryFacet.sol\":4951:5017  PoolCreateDebug(\"INIT_OK\", \"Aggregator initialization success\", 0) */\n      dup2\n      mload\n      swap1\n      dup2\n      swap1\n      sub\n        /* \"#utility.yul\":8048:8049   */\n      0x07\n        /* \"Contracts/facets/PoolFactoryFacet.sol\":4951:5017  PoolCreateDebug(\"INIT_OK\", \"Aggregator initialization success\", 0) */\n      add\n      dup2\n      keccak256\n        /* \"#utility.yul\":8281:8302   */\n      dup3\n      dup3\n      mstore\n        /* \"#utility.yul\":8338:8340   */\n      0x21\n        /* \"#utility.yul\":8318:8336   */\n      dup3\n      dup5\n      add\n        /* \"#utility.yul\":8311:8341   */\n      mstore\n        /* \"#utility.yul\":8377:8411   */\n      0x41676772656761746f7220696e697469616c697a6174696f6e20737563636573\n        /* \"#utility.yul\":8372:8374   */\n      0x60\n        /* \"#utility.yul\":8357:8375   */\n      dup4\n      add\n        /* \"#utility.yul\":8350:8412   */\n      mstore\n      shl(0xf8, 0x73)\n        /* \"#utility.yul\":8443:8446   */\n      0x80\n        /* \"#utility.yul\":8428:8447   */\n      dup4\n      add\n        /* \"#utility.yul\":8421:8453   */\n      mstore\n      0x00\n        /* \"#utility.yul\":8520:8524   */\n      0x20\n        /* \"#utility.yul\":8505:8525   */\n      dup4\n      add\n        /* \"#utility.yul\":8498:8534   */\n      mstore\n        /* \"Contracts/facets/PoolFactoryFacet.sol\":4951:5017  PoolCreateDebug(\"INIT_OK\", \"Aggregator initialization success\", 0) */\n      swap2\n      mload\n      0x00\n      dup1\n      mload\n      0x20\n      data_78a3da7c486583446c79ef6d8028ef4667fbe691038bb13c70e17002616a1a67\n      dup4\n      codecopy\n      dup2\n      mload\n      swap2\n      mstore\n      swap2\n      dup2\n      swap1\n      sub\n        /* \"#utility.yul\":8485:8488   */\n      0xa0\n        /* \"Contracts/facets/PoolFactoryFacet.sol\":4951:5017  PoolCreateDebug(\"INIT_OK\", \"Aggregator initialization success\", 0) */\n      add\n      swap1\n      log2\n        /* \"Contracts/facets/PoolFactoryFacet.sol\":5059:5089  PoolCreated(clone, msg.sender) */\n      mload(0x40)\n        /* \"Contracts/facets/PoolFactoryFacet.sol\":5078:5088  msg.sender */\n      caller\n      swap1\n      sub(shl(0xa0, 0x01), 0x01)\n        /* \"Contracts/facets/PoolFactoryFacet.sol\":5059:5089  PoolCreated(clone, msg.sender) */\n      dup8\n      and\n      swap1\n      0x4f2ce4e40f623ca765fc0167a25cb7842ceaafb8d82d3dec26ca0d0e0d2d4896\n      swap1\n      0x00\n      swap1\n      log3\n        /* \"Contracts/facets/PoolFactoryFacet.sol\":5104:5156  PoolCreateDebug(\"DONE\", \"Pool creation complete\", 0) */\n      0x40\n      dup1\n      mload\n      shl(0xe0, 0x444f4e45)\n        /* \"#utility.yul\":8747:8766   */\n      dup2\n      mstore\n        /* \"Contracts/facets/PoolFactoryFacet.sol\":5104:5156  PoolCreateDebug(\"DONE\", \"Pool creation complete\", 0) */\n      dup2\n      mload\n      swap1\n      dup2\n      swap1\n      sub\n        /* \"#utility.yul\":8791:8792   */\n      0x04\n        /* \"Contracts/facets/PoolFactoryFacet.sol\":5104:5156  PoolCreateDebug(\"DONE\", \"Pool creation complete\", 0) */\n      add\n      dup2\n      keccak256\n        /* \"#utility.yul\":9024:9045   */\n      dup3\n      dup3\n      mstore\n        /* \"#utility.yul\":9081:9083   */\n      0x16\n        /* \"#utility.yul\":9061:9079   */\n      dup3\n      dup5\n      add\n        /* \"#utility.yul\":9054:9084   */\n      mstore\n      shl(0x50, 0x506f6f6c206372656174696f6e20636f6d706c657465)\n        /* \"#utility.yul\":9115:9117   */\n      0x60\n        /* \"#utility.yul\":9100:9118   */\n      dup4\n      add\n        /* \"#utility.yul\":9093:9145   */\n      mstore\n      0x00\n        /* \"#utility.yul\":9212:9216   */\n      0x20\n        /* \"#utility.yul\":9197:9217   */\n      dup4\n      add\n        /* \"#utility.yul\":9190:9226   */\n      mstore\n        /* \"Contracts/facets/PoolFactoryFacet.sol\":5104:5156  PoolCreateDebug(\"DONE\", \"Pool creation complete\", 0) */\n      swap2\n      mload\n      0x00\n      dup1\n      mload\n      0x20\n      data_78a3da7c486583446c79ef6d8028ef4667fbe691038bb13c70e17002616a1a67\n      dup4\n      codecopy\n      dup2\n      mload\n      swap2\n      mstore\n      swap2\n      dup2\n      swap1\n      sub\n        /* \"#utility.yul\":9177:9180   */\n      0x80\n        /* \"Contracts/facets/PoolFactoryFacet.sol\":5104:5156  PoolCreateDebug(\"DONE\", \"Pool creation complete\", 0) */\n      add\n      swap1\n      log2\n        /* \"Contracts/facets/PoolFactoryFacet.sol\":5167:5179  return clone */\n      pop\n      pop\n      pop\n      pop\n        /* \"Contracts/facets/PoolFactoryFacet.sol\":1198:1230  LibDiamond.reentrancyGuardExit() */\n      tag_85\n        /* \"Contracts/libraries/LibDiamond.sol\":15658:15682  diamondStorage()._locked */\n      0xc8fcad8db84d3cc18b4c41d551ea0ee66dd599cde068d998e57d5e09332c1322\n        /* \"Contracts/libraries/LibDiamond.sol\":15658:15690  diamondStorage()._locked = false */\n      dup1\n      sload\n      not(0xff)\n      and\n      swap1\n      sstore\n        /* \"Contracts/libraries/LibDiamond.sol\":15608:15697  function reentrancyGuardExit() internal {... */\n      jump\n        /* \"Contracts/facets/PoolFactoryFacet.sol\":1198:1230  LibDiamond.reentrancyGuardExit() */\n    tag_85:\n        /* \"Contracts/facets/PoolFactoryFacet.sol\":2818:5186  function createPool(... */\n      swap4\n      swap3\n      pop\n      pop\n      pop\n      jump\t// out\n        /* \"Contracts/libraries/LibDiamond.sol\":15416:15602  function nonReentrant() internal {... */\n    tag_11:\n        /* \"Contracts/libraries/LibDiamond.sol\":15522:15532  ds._locked */\n      sload(0xc8fcad8db84d3cc18b4c41d551ea0ee66dd599cde068d998e57d5e09332c1322)\n        /* \"Contracts/libraries/LibDiamond.sol\":738:783  keccak256(\"diamond.standard.diamond.storage\") */\n      0xc8fcad8db84d3cc18b4c41d551ea0ee66dd599cde068d998e57d5e09332c131c\n      swap1\n        /* \"Contracts/libraries/LibDiamond.sol\":15522:15532  ds._locked */\n      0xff\n      and\n        /* \"Contracts/libraries/LibDiamond.sol\":15521:15532  !ds._locked */\n      iszero\n        /* \"Contracts/libraries/LibDiamond.sol\":15513:15568  require(!ds._locked, \"ReentrancyGuard: reentrant call\") */\n      tag_89\n      jumpi\n      mload(0x40)\n      shl(0xe5, 0x461bcd)\n      dup2\n      mstore\n        /* \"#utility.yul\":9439:9441   */\n      0x20\n        /* \"Contracts/libraries/LibDiamond.sol\":15513:15568  require(!ds._locked, \"ReentrancyGuard: reentrant call\") */\n      0x04\n      dup3\n      add\n        /* \"#utility.yul\":9421:9442   */\n      mstore\n        /* \"#utility.yul\":9478:9480   */\n      0x1f\n        /* \"#utility.yul\":9458:9476   */\n      0x24\n      dup3\n      add\n        /* \"#utility.yul\":9451:9481   */\n      mstore\n        /* \"#utility.yul\":9517:9550   */\n      0x5265656e7472616e637947756172643a207265656e7472616e742063616c6c00\n        /* \"#utility.yul\":9497:9515   */\n      0x44\n      dup3\n      add\n        /* \"#utility.yul\":9490:9551   */\n      mstore\n        /* \"#utility.yul\":9568:9586   */\n      0x64\n      add\n        /* \"Contracts/libraries/LibDiamond.sol\":15513:15568  require(!ds._locked, \"ReentrancyGuard: reentrant call\") */\n      tag_24\n        /* \"#utility.yul\":9237:9592   */\n      jump\n        /* \"Contracts/libraries/LibDiamond.sol\":15513:15568  require(!ds._locked, \"ReentrancyGuard: reentrant call\") */\n    tag_89:\n        /* \"Contracts/libraries/LibDiamond.sol\":15578:15588  ds._locked */\n      0x06\n      add\n        /* \"Contracts/libraries/LibDiamond.sol\":15578:15595  ds._locked = true */\n      dup1\n      sload\n      not(0xff)\n      and\n        /* \"Contracts/libraries/LibDiamond.sol\":15591:15595  true */\n      0x01\n        /* \"Contracts/libraries/LibDiamond.sol\":15578:15595  ds._locked = true */\n      or\n      swap1\n      sstore\n        /* \"Contracts/libraries/LibDiamond.sol\":15416:15602  function nonReentrant() internal {... */\n      jump\t// out\n        /* \"Contracts/libraries/LibDiamond.sol\":15703:15814  function enforceNotPaused() internal view {... */\n    tag_14:\n        /* \"Contracts/libraries/LibDiamond.sol\":15764:15787  diamondStorage().paused */\n      sload(0xc8fcad8db84d3cc18b4c41d551ea0ee66dd599cde068d998e57d5e09332c1322)\n      0x0100\n      swap1\n      div\n      0xff\n      and\n        /* \"Contracts/libraries/LibDiamond.sol\":15763:15787  !diamondStorage().paused */\n      iszero\n        /* \"Contracts/libraries/LibDiamond.sol\":15755:15807  require(!diamondStorage().paused, \"Diamond: paused\") */\n      tag_94\n      jumpi\n      mload(0x40)\n      shl(0xe5, 0x461bcd)\n      dup2\n      mstore\n        /* \"#utility.yul\":9799:9801   */\n      0x20\n        /* \"Contracts/libraries/LibDiamond.sol\":15755:15807  require(!diamondStorage().paused, \"Diamond: paused\") */\n      0x04\n      dup3\n      add\n        /* \"#utility.yul\":9781:9802   */\n      mstore\n        /* \"#utility.yul\":9838:9840   */\n      0x0f\n        /* \"#utility.yul\":9818:9836   */\n      0x24\n      dup3\n      add\n        /* \"#utility.yul\":9811:9841   */\n      mstore\n      shl(0x8a, 0x111a585b5bdb990e881c185d5cd959)\n        /* \"#utility.yul\":9857:9875   */\n      0x44\n      dup3\n      add\n        /* \"#utility.yul\":9850:9895   */\n      mstore\n        /* \"#utility.yul\":9912:9930   */\n      0x64\n      add\n        /* \"Contracts/libraries/LibDiamond.sol\":15755:15807  require(!diamondStorage().paused, \"Diamond: paused\") */\n      tag_24\n        /* \"#utility.yul\":9597:9936   */\n      jump\n        /* \"Contracts/libraries/LibDiamond.sol\":15755:15807  require(!diamondStorage().paused, \"Diamond: paused\") */\n    tag_94:\n        /* \"Contracts/libraries/LibDiamond.sol\":15703:15814  function enforceNotPaused() internal view {... */\n      jump\t// out\n        /* \"Contracts/libraries/LibERC20Factory.sol\":758:912  function cloneERC20(address implementation) internal returns (address) {... */\n    tag_55:\n        /* \"Contracts/libraries/LibERC20Factory.sol\":820:827  address */\n      0x00\n        /* \"Contracts/libraries/LibERC20Factory.sol\":839:852  address clone */\n      dup1\n        /* \"Contracts/libraries/LibERC20Factory.sol\":855:883  Clones.clone(implementation) */\n      tag_85\n        /* \"Contracts/libraries/LibERC20Factory.sol\":868:882  implementation */\n      dup4\n        /* \"Contracts/libraries/LibERC20Factory.sol\":855:867  Clones.clone */\n      tag_101\n        /* \"Contracts/libraries/LibERC20Factory.sol\":855:883  Clones.clone(implementation) */\n      jump\t// in\n        /* \"Contracts/facets/PoolFactoryFacet.sol\":5692:6041  function _decodeAndBubbleUpRetMessages(bytes memory retData)... */\n    tag_70:\n        /* \"Contracts/facets/PoolFactoryFacet.sol\":5799:5812  string memory */\n      0x60\n        /* \"Contracts/facets/PoolFactoryFacet.sol\":5849:5851  68 */\n      0x44\n        /* \"Contracts/facets/PoolFactoryFacet.sol\":5832:5839  retData */\n      dup3\n        /* \"Contracts/facets/PoolFactoryFacet.sol\":5832:5846  retData.length */\n      mload\n        /* \"Contracts/facets/PoolFactoryFacet.sol\":5832:5851  retData.length < 68 */\n      lt\n        /* \"Contracts/facets/PoolFactoryFacet.sol\":5828:5918  if (retData.length < 68) {... */\n      iszero\n      tag_103\n      jumpi\n      pop\n      pop\n        /* \"Contracts/facets/PoolFactoryFacet.sol\":5867:5907  return \"Pool init failed without reason\" */\n      0x40\n      dup1\n      mload\n      dup1\n      dup3\n      add\n      swap1\n      swap2\n      mstore\n      0x1f\n      dup2\n      mstore\n      0x506f6f6c20696e6974206661696c656420776974686f757420726561736f6e00\n      0x20\n      dup3\n      add\n      mstore\n      swap1\n        /* \"Contracts/facets/PoolFactoryFacet.sol\":5692:6041  function _decodeAndBubbleUpRetMessages(bytes memory retData)... */\n      jump\t// out\n        /* \"Contracts/facets/PoolFactoryFacet.sol\":5828:5918  if (retData.length < 68) {... */\n    tag_103:\n        /* \"Contracts/facets/PoolFactoryFacet.sol\":5974:5978  0x04 */\n      0x04\n        /* \"Contracts/facets/PoolFactoryFacet.sol\":5965:5972  retData */\n      dup3\n        /* \"Contracts/facets/PoolFactoryFacet.sol\":5961:5979  add(retData, 0x04) */\n      add\n        /* \"Contracts/facets/PoolFactoryFacet.sol\":5950:5979  retData := add(retData, 0x04) */\n      swap2\n      pop\n        /* \"Contracts/facets/PoolFactoryFacet.sol\":6016:6023  retData */\n      dup2\n        /* \"Contracts/facets/PoolFactoryFacet.sol\":6005:6034  abi.decode(retData, (string)) */\n      dup1\n      0x20\n      add\n      swap1\n      mload\n      dup2\n      add\n      swap1\n      tag_104\n      swap2\n      swap1\n      tag_105\n      jump\t// in\n    tag_104:\n        /* \"Contracts/facets/PoolFactoryFacet.sol\":5998:6034  return abi.decode(retData, (string)) */\n      swap3\n        /* \"Contracts/facets/PoolFactoryFacet.sol\":5692:6041  function _decodeAndBubbleUpRetMessages(bytes memory retData)... */\n      swap2\n      pop\n      pop\n      jump\t// out\n        /* \"@openzeppelin/contracts/proxy/Clones.sol\":989:1112  function clone(address implementation) internal returns (address instance) {... */\n    tag_101:\n        /* \"@openzeppelin/contracts/proxy/Clones.sol\":1046:1062  address instance */\n      0x00\n        /* \"@openzeppelin/contracts/proxy/Clones.sol\":1081:1105  clone(implementation, 0) */\n      tag_104\n        /* \"@openzeppelin/contracts/proxy/Clones.sol\":1087:1101  implementation */\n      dup3\n        /* \"@openzeppelin/contracts/proxy/Clones.sol\":1046:1062  address instance */\n      dup3\n      dup1\n        /* \"@openzeppelin/contracts/proxy/Clones.sol\":2013:2061  0x3d602d80600a3d3981f3363d3d373d3d3d363d73000000 */\n      0x3d602d80600a3d3981f3363d3d373d3d3d363d73000000\n        /* \"@openzeppelin/contracts/proxy/Clones.sol\":1995:2009  implementation */\n      dup4\n        /* \"@openzeppelin/contracts/proxy/Clones.sol\":1989:1993  0x60 */\n      0x60\n        /* \"@openzeppelin/contracts/proxy/Clones.sol\":1985:2010  shl(0x60, implementation) */\n      shl\n        /* \"@openzeppelin/contracts/proxy/Clones.sol\":1979:1983  0xe8 */\n      0xe8\n        /* \"@openzeppelin/contracts/proxy/Clones.sol\":1975:2011  shr(0xe8, shl(0x60, implementation)) */\n      shr\n        /* \"@openzeppelin/contracts/proxy/Clones.sol\":1972:2062  or(shr(0xe8, shl(0x60, implementation)), 0x3d602d80600a3d3981f3363d3d373d3d3d363d73000000) */\n      or\n        /* \"@openzeppelin/contracts/proxy/Clones.sol\":1966:1970  0x00 */\n      0x00\n        /* \"@openzeppelin/contracts/proxy/Clones.sol\":1959:2063  mstore(0x00, or(shr(0xe8, shl(0x60, implementation)), 0x3d602d80600a3d3981f3363d3d373d3d3d363d73000000)) */\n      mstore\n        /* \"@openzeppelin/contracts/proxy/Clones.sol\":2220:2252  0x5af43d82803e903d91602b57fd5bf3 */\n      0x5af43d82803e903d91602b57fd5bf3\n        /* \"@openzeppelin/contracts/proxy/Clones.sol\":2203:2217  implementation */\n      dup4\n        /* \"@openzeppelin/contracts/proxy/Clones.sol\":2197:2201  0x78 */\n      0x78\n        /* \"@openzeppelin/contracts/proxy/Clones.sol\":2193:2218  shl(0x78, implementation) */\n      shl\n        /* \"@openzeppelin/contracts/proxy/Clones.sol\":2190:2253  or(shl(0x78, implementation), 0x5af43d82803e903d91602b57fd5bf3) */\n      or\n        /* \"@openzeppelin/contracts/proxy/Clones.sol\":2184:2188  0x20 */\n      0x20\n        /* \"@openzeppelin/contracts/proxy/Clones.sol\":2177:2254  mstore(0x20, or(shl(0x78, implementation), 0x5af43d82803e903d91602b57fd5bf3)) */\n      mstore\n        /* \"@openzeppelin/contracts/proxy/Clones.sol\":2299:2303  0x37 */\n      0x37\n        /* \"@openzeppelin/contracts/proxy/Clones.sol\":2293:2297  0x09 */\n      0x09\n        /* \"@openzeppelin/contracts/proxy/Clones.sol\":2286:2291  value */\n      dup4\n        /* \"@openzeppelin/contracts/proxy/Clones.sol\":2279:2304  create(value, 0x09, 0x37) */\n      create\n        /* \"@openzeppelin/contracts/proxy/Clones.sol\":2267:2304  instance := create(value, 0x09, 0x37) */\n      swap1\n      pop\n      sub(shl(0xa0, 0x01), 0x01)\n        /* \"@openzeppelin/contracts/proxy/Clones.sol\":2327:2349  instance == address(0) */\n      dup2\n      and\n        /* \"@openzeppelin/contracts/proxy/Clones.sol\":2323:2408  if (instance == address(0)) {... */\n      tag_104\n      jumpi\n        /* \"@openzeppelin/contracts/proxy/Clones.sol\":2372:2397  Errors.FailedDeployment() */\n      mload(0x40)\n      shl(0xe0, 0xb06ebf3d)\n      dup2\n      mstore\n      0x04\n      add\n      mload(0x40)\n      dup1\n      swap2\n      sub\n      swap1\n      revert\n        /* \"#utility.yul\":14:774   */\n    tag_5:\n        /* \"#utility.yul\":93:99   */\n      0x00\n        /* \"#utility.yul\":101:107   */\n      dup1\n        /* \"#utility.yul\":109:115   */\n      0x00\n        /* \"#utility.yul\":162:164   */\n      0x40\n        /* \"#utility.yul\":150:159   */\n      dup5\n        /* \"#utility.yul\":141:148   */\n      dup7\n        /* \"#utility.yul\":137:160   */\n      sub\n        /* \"#utility.yul\":133:165   */\n      slt\n        /* \"#utility.yul\":130:182   */\n      iszero\n      tag_121\n      jumpi\n        /* \"#utility.yul\":178:179   */\n      0x00\n        /* \"#utility.yul\":175:176   */\n      dup1\n        /* \"#utility.yul\":168:180   */\n      revert\n        /* \"#utility.yul\":130:182   */\n    tag_121:\n        /* \"#utility.yul\":204:227   */\n      dup4\n      calldataload\n      sub(shl(0xa0, 0x01), 0x01)\n        /* \"#utility.yul\":256:287   */\n      dup2\n      and\n        /* \"#utility.yul\":246:288   */\n      dup2\n      eq\n        /* \"#utility.yul\":236:306   */\n      tag_122\n      jumpi\n        /* \"#utility.yul\":302:303   */\n      0x00\n        /* \"#utility.yul\":299:300   */\n      dup1\n        /* \"#utility.yul\":292:304   */\n      revert\n        /* \"#utility.yul\":236:306   */\n    tag_122:\n        /* \"#utility.yul\":325:330   */\n      swap3\n      pop\n        /* \"#utility.yul\":381:383   */\n      0x20\n        /* \"#utility.yul\":366:384   */\n      dup5\n      add\n        /* \"#utility.yul\":353:385   */\n      calldataload\n        /* \"#utility.yul\":408:426   */\n      0xffffffffffffffff\n        /* \"#utility.yul\":397:427   */\n      dup2\n      gt\n        /* \"#utility.yul\":394:444   */\n      iszero\n      tag_123\n      jumpi\n        /* \"#utility.yul\":440:441   */\n      0x00\n        /* \"#utility.yul\":437:438   */\n      dup1\n        /* \"#utility.yul\":430:442   */\n      revert\n        /* \"#utility.yul\":394:444   */\n    tag_123:\n        /* \"#utility.yul\":463:485   */\n      dup5\n      add\n        /* \"#utility.yul\":516:520   */\n      0x1f\n        /* \"#utility.yul\":508:521   */\n      dup2\n      add\n        /* \"#utility.yul\":504:531   */\n      dup7\n      sgt\n        /* \"#utility.yul\":494:549   */\n      tag_124\n      jumpi\n        /* \"#utility.yul\":545:546   */\n      0x00\n        /* \"#utility.yul\":542:543   */\n      dup1\n        /* \"#utility.yul\":535:547   */\n      revert\n        /* \"#utility.yul\":494:549   */\n    tag_124:\n        /* \"#utility.yul\":585:587   */\n      dup1\n        /* \"#utility.yul\":572:588   */\n      calldataload\n        /* \"#utility.yul\":611:629   */\n      0xffffffffffffffff\n        /* \"#utility.yul\":603:609   */\n      dup2\n        /* \"#utility.yul\":600:630   */\n      gt\n        /* \"#utility.yul\":597:647   */\n      iszero\n      tag_125\n      jumpi\n        /* \"#utility.yul\":643:644   */\n      0x00\n        /* \"#utility.yul\":640:641   */\n      dup1\n        /* \"#utility.yul\":633:645   */\n      revert\n        /* \"#utility.yul\":597:647   */\n    tag_125:\n        /* \"#utility.yul\":688:695   */\n      dup7\n        /* \"#utility.yul\":683:685   */\n      0x20\n        /* \"#utility.yul\":674:680   */\n      dup3\n        /* \"#utility.yul\":670:672   */\n      dup5\n        /* \"#utility.yul\":666:681   */\n      add\n        /* \"#utility.yul\":662:686   */\n      add\n        /* \"#utility.yul\":659:696   */\n      gt\n        /* \"#utility.yul\":656:713   */\n      iszero\n      tag_126\n      jumpi\n        /* \"#utility.yul\":709:710   */\n      0x00\n        /* \"#utility.yul\":706:707   */\n      dup1\n        /* \"#utility.yul\":699:711   */\n      revert\n        /* \"#utility.yul\":656:713   */\n    tag_126:\n        /* \"#utility.yul\":14:774   */\n      swap4\n      swap7\n        /* \"#utility.yul\":740:742   */\n      0x20\n        /* \"#utility.yul\":732:743   */\n      swap2\n      swap1\n      swap2\n      add\n      swap6\n      pop\n        /* \"#utility.yul\":762:768   */\n      swap3\n      swap4\n      pop\n      pop\n      pop\n        /* \"#utility.yul\":14:774   */\n      jump\t// out\n        /* \"#utility.yul\":2074:2299   */\n    tag_27:\n        /* \"#utility.yul\":2141:2150   */\n      dup2\n      dup2\n      sub\n        /* \"#utility.yul\":2162:2173   */\n      dup2\n      dup2\n      gt\n        /* \"#utility.yul\":2159:2293   */\n      iszero\n      tag_104\n      jumpi\n        /* \"#utility.yul\":2215:2225   */\n      0x4e487b71\n        /* \"#utility.yul\":2210:2213   */\n      0xe0\n        /* \"#utility.yul\":2206:2226   */\n      shl\n        /* \"#utility.yul\":2203:2204   */\n      0x00\n        /* \"#utility.yul\":2196:2227   */\n      mstore\n        /* \"#utility.yul\":2250:2254   */\n      0x11\n        /* \"#utility.yul\":2247:2248   */\n      0x04\n        /* \"#utility.yul\":2240:2255   */\n      mstore\n        /* \"#utility.yul\":2278:2282   */\n      0x24\n        /* \"#utility.yul\":2275:2276   */\n      0x00\n        /* \"#utility.yul\":2268:2283   */\n      revert\n        /* \"#utility.yul\":6199:6470   */\n    tag_64:\n        /* \"#utility.yul\":6382:6388   */\n      dup2\n        /* \"#utility.yul\":6374:6380   */\n      dup4\n        /* \"#utility.yul\":6369:6372   */\n      dup3\n        /* \"#utility.yul\":6356:6389   */\n      calldatacopy\n        /* \"#utility.yul\":6338:6341   */\n      0x00\n        /* \"#utility.yul\":6408:6424   */\n      swap2\n      add\n        /* \"#utility.yul\":6433:6446   */\n      swap1\n      dup2\n      mstore\n        /* \"#utility.yul\":6408:6424   */\n      swap2\n        /* \"#utility.yul\":6199:6470   */\n      swap1\n      pop\n      jump\t// out\n        /* \"#utility.yul\":6739:6989   */\n    tag_116:\n        /* \"#utility.yul\":6824:6825   */\n      0x00\n        /* \"#utility.yul\":6834:6947   */\n    tag_147:\n        /* \"#utility.yul\":6848:6854   */\n      dup4\n        /* \"#utility.yul\":6845:6846   */\n      dup2\n        /* \"#utility.yul\":6842:6855   */\n      lt\n        /* \"#utility.yul\":6834:6947   */\n      iszero\n      tag_149\n      jumpi\n        /* \"#utility.yul\":6924:6935   */\n      dup2\n      dup2\n      add\n        /* \"#utility.yul\":6918:6936   */\n      mload\n        /* \"#utility.yul\":6905:6916   */\n      dup4\n      dup3\n      add\n        /* \"#utility.yul\":6898:6937   */\n      mstore\n        /* \"#utility.yul\":6870:6872   */\n      0x20\n        /* \"#utility.yul\":6863:6873   */\n      add\n        /* \"#utility.yul\":6834:6947   */\n      jump(tag_147)\n    tag_149:\n      pop\n      pop\n        /* \"#utility.yul\":6981:6982   */\n      0x00\n        /* \"#utility.yul\":6963:6979   */\n      swap2\n      add\n        /* \"#utility.yul\":6956:6983   */\n      mstore\n        /* \"#utility.yul\":6739:6989   */\n      jump\t// out\n        /* \"#utility.yul\":6994:7265   */\n    tag_117:\n        /* \"#utility.yul\":7036:7039   */\n      0x00\n        /* \"#utility.yul\":7074:7079   */\n      dup2\n        /* \"#utility.yul\":7068:7080   */\n      mload\n        /* \"#utility.yul\":7101:7107   */\n      dup1\n        /* \"#utility.yul\":7096:7099   */\n      dup5\n        /* \"#utility.yul\":7089:7108   */\n      mstore\n        /* \"#utility.yul\":7117:7193   */\n      tag_151\n        /* \"#utility.yul\":7186:7192   */\n      dup2\n        /* \"#utility.yul\":7179:7183   */\n      0x20\n        /* \"#utility.yul\":7174:7177   */\n      dup7\n        /* \"#utility.yul\":7170:7184   */\n      add\n        /* \"#utility.yul\":7163:7167   */\n      0x20\n        /* \"#utility.yul\":7156:7161   */\n      dup7\n        /* \"#utility.yul\":7152:7168   */\n      add\n        /* \"#utility.yul\":7117:7193   */\n      tag_116\n      jump\t// in\n    tag_151:\n        /* \"#utility.yul\":7247:7249   */\n      0x1f\n        /* \"#utility.yul\":7226:7241   */\n      add\n      not(0x1f)\n        /* \"#utility.yul\":7222:7251   */\n      and\n        /* \"#utility.yul\":7213:7252   */\n      swap3\n      swap1\n      swap3\n      add\n        /* \"#utility.yul\":7254:7258   */\n      0x20\n        /* \"#utility.yul\":7209:7259   */\n      add\n      swap3\n        /* \"#utility.yul\":6994:7265   */\n      swap2\n      pop\n      pop\n      jump\t// out\n        /* \"#utility.yul\":7270:7569   */\n    tag_74:\n        /* \"#utility.yul\":7455:7457   */\n      0x40\n        /* \"#utility.yul\":7444:7453   */\n      dup2\n        /* \"#utility.yul\":7437:7458   */\n      mstore\n        /* \"#utility.yul\":7418:7422   */\n      0x00\n        /* \"#utility.yul\":7475:7520   */\n      tag_153\n        /* \"#utility.yul\":7516:7518   */\n      0x40\n        /* \"#utility.yul\":7505:7514   */\n      dup4\n        /* \"#utility.yul\":7501:7519   */\n      add\n        /* \"#utility.yul\":7493:7499   */\n      dup6\n        /* \"#utility.yul\":7475:7520   */\n      tag_117\n      jump\t// in\n    tag_153:\n        /* \"#utility.yul\":7467:7520   */\n      swap1\n      pop\n        /* \"#utility.yul\":7556:7562   */\n      dup3\n        /* \"#utility.yul\":7551:7553   */\n      0x20\n        /* \"#utility.yul\":7540:7549   */\n      dup4\n        /* \"#utility.yul\":7536:7554   */\n      add\n        /* \"#utility.yul\":7529:7563   */\n      mstore\n        /* \"#utility.yul\":7270:7569   */\n      swap4\n      swap3\n      pop\n      pop\n      pop\n      jump\t// out\n        /* \"#utility.yul\":7574:7794   */\n    tag_76:\n        /* \"#utility.yul\":7723:7725   */\n      0x20\n        /* \"#utility.yul\":7712:7721   */\n      dup2\n        /* \"#utility.yul\":7705:7726   */\n      mstore\n        /* \"#utility.yul\":7686:7690   */\n      0x00\n        /* \"#utility.yul\":7743:7788   */\n      tag_85\n        /* \"#utility.yul\":7784:7786   */\n      0x20\n        /* \"#utility.yul\":7773:7782   */\n      dup4\n        /* \"#utility.yul\":7769:7787   */\n      add\n        /* \"#utility.yul\":7761:7767   */\n      dup5\n        /* \"#utility.yul\":7743:7788   */\n      tag_117\n      jump\t// in\n        /* \"#utility.yul\":9941:10068   */\n    tag_118:\n        /* \"#utility.yul\":10002:10012   */\n      0x4e487b71\n        /* \"#utility.yul\":9997:10000   */\n      0xe0\n        /* \"#utility.yul\":9993:10013   */\n      shl\n        /* \"#utility.yul\":9990:9991   */\n      0x00\n        /* \"#utility.yul\":9983:10014   */\n      mstore\n        /* \"#utility.yul\":10033:10037   */\n      0x41\n        /* \"#utility.yul\":10030:10031   */\n      0x04\n        /* \"#utility.yul\":10023:10038   */\n      mstore\n        /* \"#utility.yul\":10057:10061   */\n      0x24\n        /* \"#utility.yul\":10054:10055   */\n      0x00\n        /* \"#utility.yul\":10047:10062   */\n      revert\n        /* \"#utility.yul\":10073:10989   */\n    tag_105:\n        /* \"#utility.yul\":10153:10159   */\n      0x00\n        /* \"#utility.yul\":10206:10208   */\n      0x20\n        /* \"#utility.yul\":10194:10203   */\n      dup3\n        /* \"#utility.yul\":10185:10192   */\n      dup5\n        /* \"#utility.yul\":10181:10204   */\n      sub\n        /* \"#utility.yul\":10177:10209   */\n      slt\n        /* \"#utility.yul\":10174:10226   */\n      iszero\n      tag_164\n      jumpi\n        /* \"#utility.yul\":10222:10223   */\n      0x00\n        /* \"#utility.yul\":10219:10220   */\n      dup1\n        /* \"#utility.yul\":10212:10224   */\n      revert\n        /* \"#utility.yul\":10174:10226   */\n    tag_164:\n        /* \"#utility.yul\":10255:10264   */\n      dup2\n        /* \"#utility.yul\":10249:10265   */\n      mload\n        /* \"#utility.yul\":10288:10306   */\n      0xffffffffffffffff\n        /* \"#utility.yul\":10280:10286   */\n      dup2\n        /* \"#utility.yul\":10277:10307   */\n      gt\n        /* \"#utility.yul\":10274:10324   */\n      iszero\n      tag_165\n      jumpi\n        /* \"#utility.yul\":10320:10321   */\n      0x00\n        /* \"#utility.yul\":10317:10318   */\n      dup1\n        /* \"#utility.yul\":10310:10322   */\n      revert\n        /* \"#utility.yul\":10274:10324   */\n    tag_165:\n        /* \"#utility.yul\":10343:10365   */\n      dup3\n      add\n        /* \"#utility.yul\":10396:10400   */\n      0x1f\n        /* \"#utility.yul\":10388:10401   */\n      dup2\n      add\n        /* \"#utility.yul\":10384:10411   */\n      dup5\n      sgt\n        /* \"#utility.yul\":10374:10429   */\n      tag_166\n      jumpi\n        /* \"#utility.yul\":10425:10426   */\n      0x00\n        /* \"#utility.yul\":10422:10423   */\n      dup1\n        /* \"#utility.yul\":10415:10427   */\n      revert\n        /* \"#utility.yul\":10374:10429   */\n    tag_166:\n        /* \"#utility.yul\":10458:10460   */\n      dup1\n        /* \"#utility.yul\":10452:10461   */\n      mload\n        /* \"#utility.yul\":10484:10502   */\n      0xffffffffffffffff\n        /* \"#utility.yul\":10476:10482   */\n      dup2\n        /* \"#utility.yul\":10473:10503   */\n      gt\n        /* \"#utility.yul\":10470:10526   */\n      iszero\n      tag_168\n      jumpi\n        /* \"#utility.yul\":10506:10524   */\n      tag_168\n      tag_118\n      jump\t// in\n    tag_168:\n        /* \"#utility.yul\":10555:10557   */\n      0x40\n        /* \"#utility.yul\":10549:10558   */\n      mload\n        /* \"#utility.yul\":10647:10649   */\n      0x1f\n        /* \"#utility.yul\":10609:10626   */\n      dup3\n      add\n      not(0x1f)\n        /* \"#utility.yul\":10605:10636   */\n      swap1\n      dup2\n      and\n        /* \"#utility.yul\":10638:10640   */\n      0x3f\n        /* \"#utility.yul\":10601:10641   */\n      add\n        /* \"#utility.yul\":10597:10651   */\n      and\n        /* \"#utility.yul\":10585:10652   */\n      dup2\n      add\n        /* \"#utility.yul\":10682:10700   */\n      0xffffffffffffffff\n        /* \"#utility.yul\":10667:10701   */\n      dup2\n      gt\n        /* \"#utility.yul\":10703:10725   */\n      dup3\n      dup3\n      lt\n        /* \"#utility.yul\":10664:10726   */\n      or\n        /* \"#utility.yul\":10661:10749   */\n      iszero\n      tag_170\n      jumpi\n        /* \"#utility.yul\":10729:10747   */\n      tag_170\n      tag_118\n      jump\t// in\n    tag_170:\n        /* \"#utility.yul\":10765:10767   */\n      0x40\n        /* \"#utility.yul\":10758:10780   */\n      mstore\n        /* \"#utility.yul\":10789:10811   */\n      dup2\n      dup2\n      mstore\n        /* \"#utility.yul\":10830:10845   */\n      dup3\n      dup3\n      add\n        /* \"#utility.yul\":10847:10849   */\n      0x20\n        /* \"#utility.yul\":10826:10850   */\n      add\n        /* \"#utility.yul\":10823:10860   */\n      dup7\n      lt\n        /* \"#utility.yul\":10820:10877   */\n      iszero\n      tag_171\n      jumpi\n        /* \"#utility.yul\":10873:10874   */\n      0x00\n        /* \"#utility.yul\":10870:10871   */\n      dup1\n        /* \"#utility.yul\":10863:10875   */\n      revert\n        /* \"#utility.yul\":10820:10877   */\n    tag_171:\n        /* \"#utility.yul\":10886:10958   */\n      tag_172\n        /* \"#utility.yul\":10951:10957   */\n      dup3\n        /* \"#utility.yul\":10946:10948   */\n      0x20\n        /* \"#utility.yul\":10938:10944   */\n      dup4\n        /* \"#utility.yul\":10934:10949   */\n      add\n        /* \"#utility.yul\":10929:10931   */\n      0x20\n        /* \"#utility.yul\":10925:10927   */\n      dup7\n        /* \"#utility.yul\":10921:10932   */\n      add\n        /* \"#utility.yul\":10886:10958   */\n      tag_116\n      jump\t// in\n    tag_172:\n        /* \"#utility.yul\":10977:10983   */\n      swap6\n        /* \"#utility.yul\":10073:10989   */\n      swap5\n      pop\n      pop\n      pop\n      pop\n      pop\n      jump\t// out\n    stop\n    data_78a3da7c486583446c79ef6d8028ef4667fbe691038bb13c70e17002616a1a67 dc70f72020d718fc1b94a02596a4f9e095702805287f044e5a9b980ae5d3156e\n\n    auxdata: 0xa2646970667358221220db8466ea2934ad3e4a010a2e584cacfb1aaac8bebd4a238de2aa91290d3eac8b64736f6c634300081c0033\n}\n",
				"bytecode": {
					"linkReferences": {},
					"object": "6080604052348015600f57600080fd5b50610aef8061001f6000396000f3fe60806040526004361061001e5760003560e01c80639dd41df214610023575b600080fd5b610036610031366004610885565b610052565b6040516001600160a01b03909116815260200160405180910390f35b600061005c610693565b610064610737565b604080516422a72a22a960d91b815281519081900360050181208282526011828401527018dc99585d19541bdbdb0818d85b1b1959607a1b60608301523460208301529151600080516020610a9a8339815191529181900360800190a27fc8fcad8db84d3cc18b4c41d551ea0ee66dd599cde068d998e57d5e09332c1324547fc8fcad8db84d3cc18b4c41d551ea0ee66dd599cde068d998e57d5e09332c131c90801561028b578034101561016f5760405162461bcd60e51b815260206004820152602660248201527f496e73756666696369656e742045544820666f7220706f6f6c206372656174696044820152656f6e2066656560d01b60648201526084015b60405180910390fd5b600061017b8234610918565b9050801561028557604051600090339083908381818185875af1925050503d80600081146101c5576040519150601f19603f3d011682016040523d82523d6000602084013e6101ca565b606091505b505090508061020b5760405162461bcd60e51b815260206004820152600d60248201526c1499599d5b990819985a5b1959609a1b6044820152606401610166565b604080516514915195539160d21b815281519081900360060181208282526024828401527f55736572206f76657270616964206372656174696f6e206665652c20726566756060830152631b99195960e21b6080830152602082018590529151600080516020610a9a8339815191529181900360a00190a2505b506102e5565b34156102e55760405162461bcd60e51b815260206004820152602360248201527f4e6f206665652072657175697265642c20736f206e6f204554482061636365706044820152621d195960ea1b6064820152608401610166565b853b6103335760405162461bcd60e51b815260206004820152601d60248201527f496d706c656d656e746174696f6e206e6f74206120636f6e74726163740000006044820152606401610166565b604080516910d21150d2d7d253541360b21b8152815190819003600a0181208282526024828401527f496d706c656d656e746174696f6e2061646472657373206973206120636f6e746060830152631c9858dd60e21b6080830152600060208301529151600080516020610a9a8339815191529181900360a00190a26103b8866107a2565b92506001600160a01b0383166103ff5760405162461bcd60e51b815260206004820152600c60248201526b10db1bdb994819985a5b195960a21b6044820152606401610166565b6040805164434c4f4e4560d81b815281519081900360050181208282526024828401527f45524332302061676772656761746f7220636c6f6e6564207375636365737366606083015263756c6c7960e01b6080830152600060208301529151600080516020610a9a8339815191529181900360a00190a2600080846001600160a01b03168787604051610493929190610939565b6000604051808303816000865af19150503d80600081146104d0576040519150601f19603f3d011682016040523d82523d6000602084013e6104d5565b606091505b50915091508161054c5760006104ea826107ae565b604051681253925517d190525360ba1b81529091506009016040518091039020600080516020610a9a83398151915282600060405161052a929190610999565b60405180910390a28060405162461bcd60e51b815260040161016691906109bb565b6040805166494e49545f4f4b60c81b815281519081900360070181208282526021828401527f41676772656761746f7220696e697469616c697a6174696f6e207375636365736060830152607360f81b6080830152600060208301529151600080516020610a9a8339815191529181900360a00190a260405133906001600160a01b038716907f4f2ce4e40f623ca765fc0167a25cb7842ceaafb8d82d3dec26ca0d0e0d2d489690600090a36040805163444f4e4560e01b8152815190819003600401812082825260168284015275506f6f6c206372656174696f6e20636f6d706c65746560501b6060830152600060208301529151600080516020610a9a8339815191529181900360800190a25050505061068c7fc8fcad8db84d3cc18b4c41d551ea0ee66dd599cde068d998e57d5e09332c1322805460ff19169055565b9392505050565b7fc8fcad8db84d3cc18b4c41d551ea0ee66dd599cde068d998e57d5e09332c1322547fc8fcad8db84d3cc18b4c41d551ea0ee66dd599cde068d998e57d5e09332c131c9060ff16156107275760405162461bcd60e51b815260206004820152601f60248201527f5265656e7472616e637947756172643a207265656e7472616e742063616c6c006044820152606401610166565b600601805460ff19166001179055565b7fc8fcad8db84d3cc18b4c41d551ea0ee66dd599cde068d998e57d5e09332c132254610100900460ff16156107a05760405162461bcd60e51b815260206004820152600f60248201526e111a585b5bdb990e881c185d5cd959608a1b6044820152606401610166565b565b60008061068c83610813565b60606044825110156107f357505060408051808201909152601f81527f506f6f6c20696e6974206661696c656420776974686f757420726561736f6e00602082015290565b6004820191508180602001905181019061080d91906109e4565b92915050565b600061080d828280763d602d80600a3d3981f3363d3d373d3d3d363d730000008360601b60e81c176000526e5af43d82803e903d91602b57fd5bf38360781b176020526037600983f090506001600160a01b03811661080d5760405163b06ebf3d60e01b815260040160405180910390fd5b60008060006040848603121561089a57600080fd5b83356001600160a01b03811681146108b157600080fd5b9250602084013567ffffffffffffffff8111156108cd57600080fd5b8401601f810186136108de57600080fd5b803567ffffffffffffffff8111156108f557600080fd5b86602082840101111561090757600080fd5b939660209190910195509293505050565b8181038181111561080d57634e487b7160e01b600052601160045260246000fd5b8183823760009101908152919050565b60005b8381101561096457818101518382015260200161094c565b50506000910152565b60008151808452610985816020860160208601610949565b601f01601f19169290920160200192915050565b6040815260006109ac604083018561096d565b90508260208301529392505050565b60208152600061068c602083018461096d565b634e487b7160e01b600052604160045260246000fd5b6000602082840312156109f657600080fd5b815167ffffffffffffffff811115610a0d57600080fd5b8201601f81018413610a1e57600080fd5b805167ffffffffffffffff811115610a3857610a386109ce565b604051601f8201601f19908116603f0116810167ffffffffffffffff81118282101715610a6757610a676109ce565b604052818152828201602001861015610a7f57600080fd5b610a90826020830160208601610949565b9594505050505056fedc70f72020d718fc1b94a02596a4f9e095702805287f044e5a9b980ae5d3156ea2646970667358221220db8466ea2934ad3e4a010a2e584cacfb1aaac8bebd4a238de2aa91290d3eac8b64736f6c634300081c0033",
					"opcodes": "PUSH1 0x80 PUSH1 0x40 MSTORE CALLVALUE DUP1 ISZERO PUSH1 0xF JUMPI PUSH1 0x0 DUP1 REVERT JUMPDEST POP PUSH2 0xAEF DUP1 PUSH2 0x1F PUSH1 0x0 CODECOPY PUSH1 0x0 RETURN INVALID PUSH1 0x80 PUSH1 0x40 MSTORE PUSH1 0x4 CALLDATASIZE LT PUSH2 0x1E JUMPI PUSH1 0x0 CALLDATALOAD PUSH1 0xE0 SHR DUP1 PUSH4 0x9DD41DF2 EQ PUSH2 0x23 JUMPI JUMPDEST PUSH1 0x0 DUP1 REVERT JUMPDEST PUSH2 0x36 PUSH2 0x31 CALLDATASIZE PUSH1 0x4 PUSH2 0x885 JUMP JUMPDEST PUSH2 0x52 JUMP JUMPDEST PUSH1 0x40 MLOAD PUSH1 0x1 PUSH1 0x1 PUSH1 0xA0 SHL SUB SWAP1 SWAP2 AND DUP2 MSTORE PUSH1 0x20 ADD PUSH1 0x40 MLOAD DUP1 SWAP2 SUB SWAP1 RETURN JUMPDEST PUSH1 0x0 PUSH2 0x5C PUSH2 0x693 JUMP JUMPDEST PUSH2 0x64 PUSH2 0x737 JUMP JUMPDEST PUSH1 0x40 DUP1 MLOAD PUSH5 0x22A72A22A9 PUSH1 0xD9 SHL DUP2 MSTORE DUP2 MLOAD SWAP1 DUP2 SWAP1 SUB PUSH1 0x5 ADD DUP2 KECCAK256 DUP3 DUP3 MSTORE PUSH1 0x11 DUP3 DUP5 ADD MSTORE PUSH17 0x18DC99585D19541BDBDB0818D85B1B1959 PUSH1 0x7A SHL PUSH1 0x60 DUP4 ADD MSTORE CALLVALUE PUSH1 0x20 DUP4 ADD MSTORE SWAP2 MLOAD PUSH1 0x0 DUP1 MLOAD PUSH1 0x20 PUSH2 0xA9A DUP4 CODECOPY DUP2 MLOAD SWAP2 MSTORE SWAP2 DUP2 SWAP1 SUB PUSH1 0x80 ADD SWAP1 LOG2 PUSH32 0xC8FCAD8DB84D3CC18B4C41D551EA0EE66DD599CDE068D998E57D5E09332C1324 SLOAD PUSH32 0xC8FCAD8DB84D3CC18B4C41D551EA0EE66DD599CDE068D998E57D5E09332C131C SWAP1 DUP1 ISZERO PUSH2 0x28B JUMPI DUP1 CALLVALUE LT ISZERO PUSH2 0x16F JUMPI PUSH1 0x40 MLOAD PUSH3 0x461BCD PUSH1 0xE5 SHL DUP2 MSTORE PUSH1 0x20 PUSH1 0x4 DUP3 ADD MSTORE PUSH1 0x26 PUSH1 0x24 DUP3 ADD MSTORE PUSH32 0x496E73756666696369656E742045544820666F7220706F6F6C20637265617469 PUSH1 0x44 DUP3 ADD MSTORE PUSH6 0x6F6E20666565 PUSH1 0xD0 SHL PUSH1 0x64 DUP3 ADD MSTORE PUSH1 0x84 ADD JUMPDEST PUSH1 0x40 MLOAD DUP1 SWAP2 SUB SWAP1 REVERT JUMPDEST PUSH1 0x0 PUSH2 0x17B DUP3 CALLVALUE PUSH2 0x918 JUMP JUMPDEST SWAP1 POP DUP1 ISZERO PUSH2 0x285 JUMPI PUSH1 0x40 MLOAD PUSH1 0x0 SWAP1 CALLER SWAP1 DUP4 SWAP1 DUP4 DUP2 DUP2 DUP2 DUP6 DUP8 GAS CALL SWAP3 POP POP POP RETURNDATASIZE DUP1 PUSH1 0x0 DUP2 EQ PUSH2 0x1C5 JUMPI PUSH1 0x40 MLOAD SWAP2 POP PUSH1 0x1F NOT PUSH1 0x3F RETURNDATASIZE ADD AND DUP3 ADD PUSH1 0x40 MSTORE RETURNDATASIZE DUP3 MSTORE RETURNDATASIZE PUSH1 0x0 PUSH1 0x20 DUP5 ADD RETURNDATACOPY PUSH2 0x1CA JUMP JUMPDEST PUSH1 0x60 SWAP2 POP JUMPDEST POP POP SWAP1 POP DUP1 PUSH2 0x20B JUMPI PUSH1 0x40 MLOAD PUSH3 0x461BCD PUSH1 0xE5 SHL DUP2 MSTORE PUSH1 0x20 PUSH1 0x4 DUP3 ADD MSTORE PUSH1 0xD PUSH1 0x24 DUP3 ADD MSTORE PUSH13 0x1499599D5B990819985A5B1959 PUSH1 0x9A SHL PUSH1 0x44 DUP3 ADD MSTORE PUSH1 0x64 ADD PUSH2 0x166 JUMP JUMPDEST PUSH1 0x40 DUP1 MLOAD PUSH6 0x149151955391 PUSH1 0xD2 SHL DUP2 MSTORE DUP2 MLOAD SWAP1 DUP2 SWAP1 SUB PUSH1 0x6 ADD DUP2 KECCAK256 DUP3 DUP3 MSTORE PUSH1 0x24 DUP3 DUP5 ADD MSTORE PUSH32 0x55736572206F76657270616964206372656174696F6E206665652C2072656675 PUSH1 0x60 DUP4 ADD MSTORE PUSH4 0x1B991959 PUSH1 0xE2 SHL PUSH1 0x80 DUP4 ADD MSTORE PUSH1 0x20 DUP3 ADD DUP6 SWAP1 MSTORE SWAP2 MLOAD PUSH1 0x0 DUP1 MLOAD PUSH1 0x20 PUSH2 0xA9A DUP4 CODECOPY DUP2 MLOAD SWAP2 MSTORE SWAP2 DUP2 SWAP1 SUB PUSH1 0xA0 ADD SWAP1 LOG2 POP JUMPDEST POP PUSH2 0x2E5 JUMP JUMPDEST CALLVALUE ISZERO PUSH2 0x2E5 JUMPI PUSH1 0x40 MLOAD PUSH3 0x461BCD PUSH1 0xE5 SHL DUP2 MSTORE PUSH1 0x20 PUSH1 0x4 DUP3 ADD MSTORE PUSH1 0x23 PUSH1 0x24 DUP3 ADD MSTORE PUSH32 0x4E6F206665652072657175697265642C20736F206E6F20455448206163636570 PUSH1 0x44 DUP3 ADD MSTORE PUSH3 0x1D1959 PUSH1 0xEA SHL PUSH1 0x64 DUP3 ADD MSTORE PUSH1 0x84 ADD PUSH2 0x166 JUMP JUMPDEST DUP6 EXTCODESIZE PUSH2 0x333 JUMPI PUSH1 0x40 MLOAD PUSH3 0x461BCD PUSH1 0xE5 SHL DUP2 MSTORE PUSH1 0x20 PUSH1 0x4 DUP3 ADD MSTORE PUSH1 0x1D PUSH1 0x24 DUP3 ADD MSTORE PUSH32 0x496D706C656D656E746174696F6E206E6F74206120636F6E7472616374000000 PUSH1 0x44 DUP3 ADD MSTORE PUSH1 0x64 ADD PUSH2 0x166 JUMP JUMPDEST PUSH1 0x40 DUP1 MLOAD PUSH10 0x10D21150D2D7D2535413 PUSH1 0xB2 SHL DUP2 MSTORE DUP2 MLOAD SWAP1 DUP2 SWAP1 SUB PUSH1 0xA ADD DUP2 KECCAK256 DUP3 DUP3 MSTORE PUSH1 0x24 DUP3 DUP5 ADD MSTORE PUSH32 0x496D706C656D656E746174696F6E2061646472657373206973206120636F6E74 PUSH1 0x60 DUP4 ADD MSTORE PUSH4 0x1C9858DD PUSH1 0xE2 SHL PUSH1 0x80 DUP4 ADD MSTORE PUSH1 0x0 PUSH1 0x20 DUP4 ADD MSTORE SWAP2 MLOAD PUSH1 0x0 DUP1 MLOAD PUSH1 0x20 PUSH2 0xA9A DUP4 CODECOPY DUP2 MLOAD SWAP2 MSTORE SWAP2 DUP2 SWAP1 SUB PUSH1 0xA0 ADD SWAP1 LOG2 PUSH2 0x3B8 DUP7 PUSH2 0x7A2 JUMP JUMPDEST SWAP3 POP PUSH1 0x1 PUSH1 0x1 PUSH1 0xA0 SHL SUB DUP4 AND PUSH2 0x3FF JUMPI PUSH1 0x40 MLOAD PUSH3 0x461BCD PUSH1 0xE5 SHL DUP2 MSTORE PUSH1 0x20 PUSH1 0x4 DUP3 ADD MSTORE PUSH1 0xC PUSH1 0x24 DUP3 ADD MSTORE PUSH12 0x10DB1BDB994819985A5B1959 PUSH1 0xA2 SHL PUSH1 0x44 DUP3 ADD MSTORE PUSH1 0x64 ADD PUSH2 0x166 JUMP JUMPDEST PUSH1 0x40 DUP1 MLOAD PUSH5 0x434C4F4E45 PUSH1 0xD8 SHL DUP2 MSTORE DUP2 MLOAD SWAP1 DUP2 SWAP1 SUB PUSH1 0x5 ADD DUP2 KECCAK256 DUP3 DUP3 MSTORE PUSH1 0x24 DUP3 DUP5 ADD MSTORE PUSH32 0x45524332302061676772656761746F7220636C6F6E6564207375636365737366 PUSH1 0x60 DUP4 ADD MSTORE PUSH4 0x756C6C79 PUSH1 0xE0 SHL PUSH1 0x80 DUP4 ADD MSTORE PUSH1 0x0 PUSH1 0x20 DUP4 ADD MSTORE SWAP2 MLOAD PUSH1 0x0 DUP1 MLOAD PUSH1 0x20 PUSH2 0xA9A DUP4 CODECOPY DUP2 MLOAD SWAP2 MSTORE SWAP2 DUP2 SWAP1 SUB PUSH1 0xA0 ADD SWAP1 LOG2 PUSH1 0x0 DUP1 DUP5 PUSH1 0x1 PUSH1 0x1 PUSH1 0xA0 SHL SUB AND DUP8 DUP8 PUSH1 0x40 MLOAD PUSH2 0x493 SWAP3 SWAP2 SWAP1 PUSH2 0x939 JUMP JUMPDEST PUSH1 0x0 PUSH1 0x40 MLOAD DUP1 DUP4 SUB DUP2 PUSH1 0x0 DUP7 GAS CALL SWAP2 POP POP RETURNDATASIZE DUP1 PUSH1 0x0 DUP2 EQ PUSH2 0x4D0 JUMPI PUSH1 0x40 MLOAD SWAP2 POP PUSH1 0x1F NOT PUSH1 0x3F RETURNDATASIZE ADD AND DUP3 ADD PUSH1 0x40 MSTORE RETURNDATASIZE DUP3 MSTORE RETURNDATASIZE PUSH1 0x0 PUSH1 0x20 DUP5 ADD RETURNDATACOPY PUSH2 0x4D5 JUMP JUMPDEST PUSH1 0x60 SWAP2 POP JUMPDEST POP SWAP2 POP SWAP2 POP DUP2 PUSH2 0x54C JUMPI PUSH1 0x0 PUSH2 0x4EA DUP3 PUSH2 0x7AE JUMP JUMPDEST PUSH1 0x40 MLOAD PUSH9 0x1253925517D1905253 PUSH1 0xBA SHL DUP2 MSTORE SWAP1 SWAP2 POP PUSH1 0x9 ADD PUSH1 0x40 MLOAD DUP1 SWAP2 SUB SWAP1 KECCAK256 PUSH1 0x0 DUP1 MLOAD PUSH1 0x20 PUSH2 0xA9A DUP4 CODECOPY DUP2 MLOAD SWAP2 MSTORE DUP3 PUSH1 0x0 PUSH1 0x40 MLOAD PUSH2 0x52A SWAP3 SWAP2 SWAP1 PUSH2 0x999 JUMP JUMPDEST PUSH1 0x40 MLOAD DUP1 SWAP2 SUB SWAP1 LOG2 DUP1 PUSH1 0x40 MLOAD PUSH3 0x461BCD PUSH1 0xE5 SHL DUP2 MSTORE PUSH1 0x4 ADD PUSH2 0x166 SWAP2 SWAP1 PUSH2 0x9BB JUMP JUMPDEST PUSH1 0x40 DUP1 MLOAD PUSH7 0x494E49545F4F4B PUSH1 0xC8 SHL DUP2 MSTORE DUP2 MLOAD SWAP1 DUP2 SWAP1 SUB PUSH1 0x7 ADD DUP2 KECCAK256 DUP3 DUP3 MSTORE PUSH1 0x21 DUP3 DUP5 ADD MSTORE PUSH32 0x41676772656761746F7220696E697469616C697A6174696F6E20737563636573 PUSH1 0x60 DUP4 ADD MSTORE PUSH1 0x73 PUSH1 0xF8 SHL PUSH1 0x80 DUP4 ADD MSTORE PUSH1 0x0 PUSH1 0x20 DUP4 ADD MSTORE SWAP2 MLOAD PUSH1 0x0 DUP1 MLOAD PUSH1 0x20 PUSH2 0xA9A DUP4 CODECOPY DUP2 MLOAD SWAP2 MSTORE SWAP2 DUP2 SWAP1 SUB PUSH1 0xA0 ADD SWAP1 LOG2 PUSH1 0x40 MLOAD CALLER SWAP1 PUSH1 0x1 PUSH1 0x1 PUSH1 0xA0 SHL SUB DUP8 AND SWAP1 PUSH32 0x4F2CE4E40F623CA765FC0167A25CB7842CEAAFB8D82D3DEC26CA0D0E0D2D4896 SWAP1 PUSH1 0x0 SWAP1 LOG3 PUSH1 0x40 DUP1 MLOAD PUSH4 0x444F4E45 PUSH1 0xE0 SHL DUP2 MSTORE DUP2 MLOAD SWAP1 DUP2 SWAP1 SUB PUSH1 0x4 ADD DUP2 KECCAK256 DUP3 DUP3 MSTORE PUSH1 0x16 DUP3 DUP5 ADD MSTORE PUSH22 0x506F6F6C206372656174696F6E20636F6D706C657465 PUSH1 0x50 SHL PUSH1 0x60 DUP4 ADD MSTORE PUSH1 0x0 PUSH1 0x20 DUP4 ADD MSTORE SWAP2 MLOAD PUSH1 0x0 DUP1 MLOAD PUSH1 0x20 PUSH2 0xA9A DUP4 CODECOPY DUP2 MLOAD SWAP2 MSTORE SWAP2 DUP2 SWAP1 SUB PUSH1 0x80 ADD SWAP1 LOG2 POP POP POP POP PUSH2 0x68C PUSH32 0xC8FCAD8DB84D3CC18B4C41D551EA0EE66DD599CDE068D998E57D5E09332C1322 DUP1 SLOAD PUSH1 0xFF NOT AND SWAP1 SSTORE JUMP JUMPDEST SWAP4 SWAP3 POP POP POP JUMP JUMPDEST PUSH32 0xC8FCAD8DB84D3CC18B4C41D551EA0EE66DD599CDE068D998E57D5E09332C1322 SLOAD PUSH32 0xC8FCAD8DB84D3CC18B4C41D551EA0EE66DD599CDE068D998E57D5E09332C131C SWAP1 PUSH1 0xFF AND ISZERO PUSH2 0x727 JUMPI PUSH1 0x40 MLOAD PUSH3 0x461BCD PUSH1 0xE5 SHL DUP2 MSTORE PUSH1 0x20 PUSH1 0x4 DUP3 ADD MSTORE PUSH1 0x1F PUSH1 0x24 DUP3 ADD MSTORE PUSH32 0x5265656E7472616E637947756172643A207265656E7472616E742063616C6C00 PUSH1 0x44 DUP3 ADD MSTORE PUSH1 0x64 ADD PUSH2 0x166 JUMP JUMPDEST PUSH1 0x6 ADD DUP1 SLOAD PUSH1 0xFF NOT AND PUSH1 0x1 OR SWAP1 SSTORE JUMP JUMPDEST PUSH32 0xC8FCAD8DB84D3CC18B4C41D551EA0EE66DD599CDE068D998E57D5E09332C1322 SLOAD PUSH2 0x100 SWAP1 DIV PUSH1 0xFF AND ISZERO PUSH2 0x7A0 JUMPI PUSH1 0x40 MLOAD PUSH3 0x461BCD PUSH1 0xE5 SHL DUP2 MSTORE PUSH1 0x20 PUSH1 0x4 DUP3 ADD MSTORE PUSH1 0xF PUSH1 0x24 DUP3 ADD MSTORE PUSH15 0x111A585B5BDB990E881C185D5CD959 PUSH1 0x8A SHL PUSH1 0x44 DUP3 ADD MSTORE PUSH1 0x64 ADD PUSH2 0x166 JUMP JUMPDEST JUMP JUMPDEST PUSH1 0x0 DUP1 PUSH2 0x68C DUP4 PUSH2 0x813 JUMP JUMPDEST PUSH1 0x60 PUSH1 0x44 DUP3 MLOAD LT ISZERO PUSH2 0x7F3 JUMPI POP POP PUSH1 0x40 DUP1 MLOAD DUP1 DUP3 ADD SWAP1 SWAP2 MSTORE PUSH1 0x1F DUP2 MSTORE PUSH32 0x506F6F6C20696E6974206661696C656420776974686F757420726561736F6E00 PUSH1 0x20 DUP3 ADD MSTORE SWAP1 JUMP JUMPDEST PUSH1 0x4 DUP3 ADD SWAP2 POP DUP2 DUP1 PUSH1 0x20 ADD SWAP1 MLOAD DUP2 ADD SWAP1 PUSH2 0x80D SWAP2 SWAP1 PUSH2 0x9E4 JUMP JUMPDEST SWAP3 SWAP2 POP POP JUMP JUMPDEST PUSH1 0x0 PUSH2 0x80D DUP3 DUP3 DUP1 PUSH23 0x3D602D80600A3D3981F3363D3D373D3D3D363D73000000 DUP4 PUSH1 0x60 SHL PUSH1 0xE8 SHR OR PUSH1 0x0 MSTORE PUSH15 0x5AF43D82803E903D91602B57FD5BF3 DUP4 PUSH1 0x78 SHL OR PUSH1 0x20 MSTORE PUSH1 0x37 PUSH1 0x9 DUP4 CREATE SWAP1 POP PUSH1 0x1 PUSH1 0x1 PUSH1 0xA0 SHL SUB DUP2 AND PUSH2 0x80D JUMPI PUSH1 0x40 MLOAD PUSH4 0xB06EBF3D PUSH1 0xE0 SHL DUP2 MSTORE PUSH1 0x4 ADD PUSH1 0x40 MLOAD DUP1 SWAP2 SUB SWAP1 REVERT JUMPDEST PUSH1 0x0 DUP1 PUSH1 0x0 PUSH1 0x40 DUP5 DUP7 SUB SLT ISZERO PUSH2 0x89A JUMPI PUSH1 0x0 DUP1 REVERT JUMPDEST DUP4 CALLDATALOAD PUSH1 0x1 PUSH1 0x1 PUSH1 0xA0 SHL SUB DUP2 AND DUP2 EQ PUSH2 0x8B1 JUMPI PUSH1 0x0 DUP1 REVERT JUMPDEST SWAP3 POP PUSH1 0x20 DUP5 ADD CALLDATALOAD PUSH8 0xFFFFFFFFFFFFFFFF DUP2 GT ISZERO PUSH2 0x8CD JUMPI PUSH1 0x0 DUP1 REVERT JUMPDEST DUP5 ADD PUSH1 0x1F DUP2 ADD DUP7 SGT PUSH2 0x8DE JUMPI PUSH1 0x0 DUP1 REVERT JUMPDEST DUP1 CALLDATALOAD PUSH8 0xFFFFFFFFFFFFFFFF DUP2 GT ISZERO PUSH2 0x8F5 JUMPI PUSH1 0x0 DUP1 REVERT JUMPDEST DUP7 PUSH1 0x20 DUP3 DUP5 ADD ADD GT ISZERO PUSH2 0x907 JUMPI PUSH1 0x0 DUP1 REVERT JUMPDEST SWAP4 SWAP7 PUSH1 0x20 SWAP2 SWAP1 SWAP2 ADD SWAP6 POP SWAP3 SWAP4 POP POP POP JUMP JUMPDEST DUP2 DUP2 SUB DUP2 DUP2 GT ISZERO PUSH2 0x80D JUMPI PUSH4 0x4E487B71 PUSH1 0xE0 SHL PUSH1 0x0 MSTORE PUSH1 0x11 PUSH1 0x4 MSTORE PUSH1 0x24 PUSH1 0x0 REVERT JUMPDEST DUP2 DUP4 DUP3 CALLDATACOPY PUSH1 0x0 SWAP2 ADD SWAP1 DUP2 MSTORE SWAP2 SWAP1 POP JUMP JUMPDEST PUSH1 0x0 JUMPDEST DUP4 DUP2 LT ISZERO PUSH2 0x964 JUMPI DUP2 DUP2 ADD MLOAD DUP4 DUP3 ADD MSTORE PUSH1 0x20 ADD PUSH2 0x94C JUMP JUMPDEST POP POP PUSH1 0x0 SWAP2 ADD MSTORE JUMP JUMPDEST PUSH1 0x0 DUP2 MLOAD DUP1 DUP5 MSTORE PUSH2 0x985 DUP2 PUSH1 0x20 DUP7 ADD PUSH1 0x20 DUP7 ADD PUSH2 0x949 JUMP JUMPDEST PUSH1 0x1F ADD PUSH1 0x1F NOT AND SWAP3 SWAP1 SWAP3 ADD PUSH1 0x20 ADD SWAP3 SWAP2 POP POP JUMP JUMPDEST PUSH1 0x40 DUP2 MSTORE PUSH1 0x0 PUSH2 0x9AC PUSH1 0x40 DUP4 ADD DUP6 PUSH2 0x96D JUMP JUMPDEST SWAP1 POP DUP3 PUSH1 0x20 DUP4 ADD MSTORE SWAP4 SWAP3 POP POP POP JUMP JUMPDEST PUSH1 0x20 DUP2 MSTORE PUSH1 0x0 PUSH2 0x68C PUSH1 0x20 DUP4 ADD DUP5 PUSH2 0x96D JUMP JUMPDEST PUSH4 0x4E487B71 PUSH1 0xE0 SHL PUSH1 0x0 MSTORE PUSH1 0x41 PUSH1 0x4 MSTORE PUSH1 0x24 PUSH1 0x0 REVERT JUMPDEST PUSH1 0x0 PUSH1 0x20 DUP3 DUP5 SUB SLT ISZERO PUSH2 0x9F6 JUMPI PUSH1 0x0 DUP1 REVERT JUMPDEST DUP2 MLOAD PUSH8 0xFFFFFFFFFFFFFFFF DUP2 GT ISZERO PUSH2 0xA0D JUMPI PUSH1 0x0 DUP1 REVERT JUMPDEST DUP3 ADD PUSH1 0x1F DUP2 ADD DUP5 SGT PUSH2 0xA1E JUMPI PUSH1 0x0 DUP1 REVERT JUMPDEST DUP1 MLOAD PUSH8 0xFFFFFFFFFFFFFFFF DUP2 GT ISZERO PUSH2 0xA38 JUMPI PUSH2 0xA38 PUSH2 0x9CE JUMP JUMPDEST PUSH1 0x40 MLOAD PUSH1 0x1F DUP3 ADD PUSH1 0x1F NOT SWAP1 DUP2 AND PUSH1 0x3F ADD AND DUP2 ADD PUSH8 0xFFFFFFFFFFFFFFFF DUP2 GT DUP3 DUP3 LT OR ISZERO PUSH2 0xA67 JUMPI PUSH2 0xA67 PUSH2 0x9CE JUMP JUMPDEST PUSH1 0x40 MSTORE DUP2 DUP2 MSTORE DUP3 DUP3 ADD PUSH1 0x20 ADD DUP7 LT ISZERO PUSH2 0xA7F JUMPI PUSH1 0x0 DUP1 REVERT JUMPDEST PUSH2 0xA90 DUP3 PUSH1 0x20 DUP4 ADD PUSH1 0x20 DUP7 ADD PUSH2 0x949 JUMP JUMPDEST SWAP6 SWAP5 POP POP POP POP POP JUMP INVALID 0xDC PUSH17 0xF72020D718FC1B94A02596A4F9E0957028 SDIV 0x28 PUSH32 0x44E5A9B980AE5D3156EA2646970667358221220DB8466EA2934AD3E4A010A2E PC 0x4C 0xAC 0xFB BYTE 0xAA 0xC8 0xBE 0xBD BLOBBASEFEE 0x23 DUP14 0xE2 0xAA SWAP2 0x29 0xD RETURNDATACOPY 0xAC DUP12 PUSH5 0x736F6C6343 STOP ADDMOD SHR STOP CALLER "
				},
				"gasEstimates": {
					"creation": {
						"codeDepositCost": "559800",
						"executionCost": "594",
						"totalCost": "560394"
					},
					"external": {
						"createPool(address,bytes)": "infinite"
					},
					"internal": {
						"_decodeAndBubbleUpRetMessages(bytes memory)": "infinite",
						"_isContract(address)": "infinite"
					}
				},
				"methodIdentifiers": {
					"createPool(address,bytes)": "9dd41df2"
				}
			},
			"storageLayout": {
				"storage": [],
				"types": null
			},
			"userdoc": {
				"events": {
					"PoolCreated(address,address)": {
						"notice": "Emitted when a new minimal-proxy aggregator token is created."
					}
				},
				"kind": "user",
				"methods": {
					"createPool(address,bytes)": {
						"notice": "Creates a minimal-proxy clone of `implementation`, then calls `initData` on it          to initialize the new aggregator ERC20 pool.          - Potentially charges a creation fee if `ds.poolCreationFee > 0`.         - No usage-limit checks in this version, so anyone can call."
					}
				},
				"version": 1
			}
		}
	}
}