{
	"data": {
		"bytecode": {
			"linkReferences": {},
			"object": "608060405234801561000f575f5ffd5b50604051610d20380380610d2083398101604081905261002e91610178565b836001600160a01b03811661005d57604051631e4fbdf760e01b81525f60048201526024015b60405180910390fd5b61006681610129565b506127108111156100c55760405162461bcd60e51b8152602060048201526024808201527f4c697175696461746f723a206d61784c69717569646174696f6e427073203e206044820152633130302560e01b6064820152608401610054565b6113888211156101175760405162461bcd60e51b815260206004820152601c60248201527f4c697175696461746f723a2066656542707320746f6f206c61726765000000006044820152606401610054565b600192909255600255600355506101bf565b5f80546001600160a01b038381166001600160a01b0319831681178455604051919092169283917f8be0079c531659141344cd1fd0a4f28419497f9722a3daafe3b4186f6b6457e09190a35050565b5f5f5f5f6080858703121561018b575f5ffd5b84516001600160a01b03811681146101a1575f5ffd5b60208601516040870151606090970151919890975090945092505050565b610b54806101cc5f395ff3fe608060405234801561000f575f5ffd5b50600436106100a6575f3560e01c80638951b0541161006e5780638951b054146101165780638da5cb5b14610129578063c4a34f3714610143578063e031a82414610156578063e81b5a8c1461015f578063f2fde38b14610172575f5ffd5b806311299f11146100aa57806326c01303146100c657806329880339146100db5780635fee4865146100e4578063715018a61461010e575b5f5ffd5b6100b360035481565b6040519081526020015b60405180910390f35b6100d96100d43660046109ce565b610185565b005b6100b360015481565b6100f76100f2366004610a08565b6105da565b6040805192151583526020830191909152016100bd565b6100d961075e565b6100d9610124366004610a39565b610771565b5f546040516001600160a01b0390911681526020016100bd565b6100d9610151366004610a39565b610811565b6100b360025481565b6100d961016d366004610a39565b610857565b6100d9610180366004610a50565b6108fb565b6001600160a01b0383166101e05760405162461bcd60e51b815260206004820152601960248201527f4c697175696461746f723a20696e76616c6964207661756c740000000000000060448201526064015b60405180910390fd5b6001600160a01b0382166102365760405162461bcd60e51b815260206004820152601860248201527f4c697175696461746f723a20696e76616c69642075736572000000000000000060448201526064016101d7565b5f81116102855760405162461bcd60e51b815260206004820152601c60248201527f4c697175696461746f723a207a65726f207365697a65416d6f756e740000000060448201526064016101d7565b5f61029084846105da565b509050806102f15760405162461bcd60e51b815260206004820152602860248201527f4c697175696461746f723a2075736572206e6f7420756e646572636f6c6c6174604482015267195c985b1a5e995960c21b60648201526084016101d7565b6040516370a0823160e01b81526001600160a01b03848116600483015285915f918316906370a0823190602401602060405180830381865afa158015610339573d5f5f3e3d5ffd5b505050506040513d601f19601f8201168201806040525081019061035d9190610a70565b9050838110156103ca5760405162461bcd60e51b815260206004820152603260248201527f4c697175696461746f723a2075736572206861732066657765722073686172656044820152711cc81d1a185b881cd95a5e99505b5bdd5b9d60721b60648201526084016101d7565b5f612710600354836103dc9190610a9b565b6103e69190610ab8565b9050808511156104495760405162461bcd60e51b815260206004820152602860248201527f4c697175696461746f723a20657863656564206d6178206c69717569646174696044820152676f6e20726174696f60c01b60648201526084016101d7565b5f6127106002548761045b9190610a9b565b6104659190610ab8565b90505f6104728288610ad7565b9050808410156104d05760405162461bcd60e51b815260206004820152602360248201527f4c697175696461746f723a20746f74616c5365697a65203e207573657253686160448201526272657360e81b60648201526084016101d7565b846001600160a01b0316631d14cd0f89836104f25f546001600160a01b031690565b60405160e085901b6001600160e01b03191681526001600160a01b039384166004820152602481019290925290911660448201526064015f604051808303815f87803b158015610540575f5ffd5b505af1158015610552573d5f5f3e3d5ffd5b50505050876001600160a01b0316336001600160a01b03168a6001600160a01b03167f900e49b75dd80ec3bea4347fabcc52ca262a91cdca47776af2875399e4b26dbe8a866105a85f546001600160a01b031690565b6040805193845260208401929092526001600160a01b03169082015260600160405180910390a4505050505050505050565b6040516370a0823160e01b81526001600160a01b0382811660048301525f918291859183918316906370a0823190602401602060405180830381865afa158015610626573d5f5f3e3d5ffd5b505050506040513d601f19601f8201168201806040525081019061064a9190610a70565b9050805f03610660575f5f935093505050610757565b5f826001600160a01b03166318160ddd6040518163ffffffff1660e01b8152600401602060405180830381865afa15801561069d573d5f5f3e3d5ffd5b505050506040513d601f19601f820116820180604052508101906106c19190610a70565b90505f836001600160a01b031663468f02d26040518163ffffffff1660e01b81526004016040805180830381865afa1580156106ff573d5f5f3e3d5ffd5b505050506040513d601f19601f820116820180604052508101906107239190610aea565b50905081156107325781610735565b60015b61073f8483610a9b565b6107499190610ab8565b945060015485109550505050505b9250929050565b610766610938565b61076f5f610964565b565b610779610938565b6113888111156107cb5760405162461bcd60e51b815260206004820152601960248201527f4c697175696461746f723a2066656520746f6f206c617267650000000000000060448201526064016101d7565b600280549082905560408051828152602081018490527f557b0d960e10511641485a3dc861fdc0e7940df3f9fef08d56df8f709625d10891015b60405180910390a15050565b610819610938565b600180549082905560408051828152602081018490527f5d513dd15e422e7bcf5473fd0705fb8ca9c338ecc0edda3a3e29003202dc921e9101610805565b61085f610938565b6127108111156108bd5760405162461bcd60e51b8152602060048201526024808201527f4c697175696461746f723a206d61784c69717569646174696f6e427073203e206044820152633130302560e01b60648201526084016101d7565b600380549082905560408051828152602081018490527f0c97e48d448ea4d00e9a3d604eea0e39315d280ccdeb06185e2c53efe38debcd9101610805565b610903610938565b6001600160a01b03811661092c57604051631e4fbdf760e01b81525f60048201526024016101d7565b61093581610964565b50565b5f546001600160a01b0316331461076f5760405163118cdaa760e01b81523360048201526024016101d7565b5f80546001600160a01b038381166001600160a01b0319831681178455604051919092169283917f8be0079c531659141344cd1fd0a4f28419497f9722a3daafe3b4186f6b6457e09190a35050565b80356001600160a01b03811681146109c9575f5ffd5b919050565b5f5f5f606084860312156109e0575f5ffd5b6109e9846109b3565b92506109f7602085016109b3565b929592945050506040919091013590565b5f5f60408385031215610a19575f5ffd5b610a22836109b3565b9150610a30602084016109b3565b90509250929050565b5f60208284031215610a49575f5ffd5b5035919050565b5f60208284031215610a60575f5ffd5b610a69826109b3565b9392505050565b5f60208284031215610a80575f5ffd5b5051919050565b634e487b7160e01b5f52601160045260245ffd5b8082028115828204841417610ab257610ab2610a87565b92915050565b5f82610ad257634e487b7160e01b5f52601260045260245ffd5b500490565b80820180821115610ab257610ab2610a87565b5f5f60408385031215610afb575f5ffd5b8251602084015190925060ff81168114610b13575f5ffd5b80915050925092905056fea2646970667358221220e554d5fea22ab8935e3c4b00a56e6ac237f34c7a960e39623dd5c04414ef3b0c64736f6c634300081c0033",
			"opcodes": "PUSH1 0x80 PUSH1 0x40 MSTORE CALLVALUE DUP1 ISZERO PUSH2 0xF JUMPI PUSH0 PUSH0 REVERT JUMPDEST POP PUSH1 0x40 MLOAD PUSH2 0xD20 CODESIZE SUB DUP1 PUSH2 0xD20 DUP4 CODECOPY DUP2 ADD PUSH1 0x40 DUP2 SWAP1 MSTORE PUSH2 0x2E SWAP2 PUSH2 0x178 JUMP JUMPDEST DUP4 PUSH1 0x1 PUSH1 0x1 PUSH1 0xA0 SHL SUB DUP2 AND PUSH2 0x5D JUMPI PUSH1 0x40 MLOAD PUSH4 0x1E4FBDF7 PUSH1 0xE0 SHL DUP2 MSTORE PUSH0 PUSH1 0x4 DUP3 ADD MSTORE PUSH1 0x24 ADD JUMPDEST PUSH1 0x40 MLOAD DUP1 SWAP2 SUB SWAP1 REVERT JUMPDEST PUSH2 0x66 DUP2 PUSH2 0x129 JUMP JUMPDEST POP PUSH2 0x2710 DUP2 GT ISZERO PUSH2 0xC5 JUMPI PUSH1 0x40 MLOAD PUSH3 0x461BCD PUSH1 0xE5 SHL DUP2 MSTORE PUSH1 0x20 PUSH1 0x4 DUP3 ADD MSTORE PUSH1 0x24 DUP1 DUP3 ADD MSTORE PUSH32 0x4C697175696461746F723A206D61784C69717569646174696F6E427073203E20 PUSH1 0x44 DUP3 ADD MSTORE PUSH4 0x31303025 PUSH1 0xE0 SHL PUSH1 0x64 DUP3 ADD MSTORE PUSH1 0x84 ADD PUSH2 0x54 JUMP JUMPDEST PUSH2 0x1388 DUP3 GT ISZERO PUSH2 0x117 JUMPI PUSH1 0x40 MLOAD PUSH3 0x461BCD PUSH1 0xE5 SHL DUP2 MSTORE PUSH1 0x20 PUSH1 0x4 DUP3 ADD MSTORE PUSH1 0x1C PUSH1 0x24 DUP3 ADD MSTORE PUSH32 0x4C697175696461746F723A2066656542707320746F6F206C6172676500000000 PUSH1 0x44 DUP3 ADD MSTORE PUSH1 0x64 ADD PUSH2 0x54 JUMP JUMPDEST PUSH1 0x1 SWAP3 SWAP1 SWAP3 SSTORE PUSH1 0x2 SSTORE PUSH1 0x3 SSTORE POP PUSH2 0x1BF JUMP JUMPDEST PUSH0 DUP1 SLOAD PUSH1 0x1 PUSH1 0x1 PUSH1 0xA0 SHL SUB DUP4 DUP2 AND PUSH1 0x1 PUSH1 0x1 PUSH1 0xA0 SHL SUB NOT DUP4 AND DUP2 OR DUP5 SSTORE PUSH1 0x40 MLOAD SWAP2 SWAP1 SWAP3 AND SWAP3 DUP4 SWAP2 PUSH32 0x8BE0079C531659141344CD1FD0A4F28419497F9722A3DAAFE3B4186F6B6457E0 SWAP2 SWAP1 LOG3 POP POP JUMP JUMPDEST PUSH0 PUSH0 PUSH0 PUSH0 PUSH1 0x80 DUP6 DUP8 SUB SLT ISZERO PUSH2 0x18B JUMPI PUSH0 PUSH0 REVERT JUMPDEST DUP5 MLOAD PUSH1 0x1 PUSH1 0x1 PUSH1 0xA0 SHL SUB DUP2 AND DUP2 EQ PUSH2 0x1A1 JUMPI PUSH0 PUSH0 REVERT JUMPDEST PUSH1 0x20 DUP7 ADD MLOAD PUSH1 0x40 DUP8 ADD MLOAD PUSH1 0x60 SWAP1 SWAP8 ADD MLOAD SWAP2 SWAP9 SWAP1 SWAP8 POP SWAP1 SWAP5 POP SWAP3 POP POP POP JUMP JUMPDEST PUSH2 0xB54 DUP1 PUSH2 0x1CC PUSH0 CODECOPY PUSH0 RETURN INVALID PUSH1 0x80 PUSH1 0x40 MSTORE CALLVALUE DUP1 ISZERO PUSH2 0xF JUMPI PUSH0 PUSH0 REVERT JUMPDEST POP PUSH1 0x4 CALLDATASIZE LT PUSH2 0xA6 JUMPI PUSH0 CALLDATALOAD PUSH1 0xE0 SHR DUP1 PUSH4 0x8951B054 GT PUSH2 0x6E JUMPI DUP1 PUSH4 0x8951B054 EQ PUSH2 0x116 JUMPI DUP1 PUSH4 0x8DA5CB5B EQ PUSH2 0x129 JUMPI DUP1 PUSH4 0xC4A34F37 EQ PUSH2 0x143 JUMPI DUP1 PUSH4 0xE031A824 EQ PUSH2 0x156 JUMPI DUP1 PUSH4 0xE81B5A8C EQ PUSH2 0x15F JUMPI DUP1 PUSH4 0xF2FDE38B EQ PUSH2 0x172 JUMPI PUSH0 PUSH0 REVERT JUMPDEST DUP1 PUSH4 0x11299F11 EQ PUSH2 0xAA JUMPI DUP1 PUSH4 0x26C01303 EQ PUSH2 0xC6 JUMPI DUP1 PUSH4 0x29880339 EQ PUSH2 0xDB JUMPI DUP1 PUSH4 0x5FEE4865 EQ PUSH2 0xE4 JUMPI DUP1 PUSH4 0x715018A6 EQ PUSH2 0x10E JUMPI JUMPDEST PUSH0 PUSH0 REVERT JUMPDEST PUSH2 0xB3 PUSH1 0x3 SLOAD DUP2 JUMP JUMPDEST PUSH1 0x40 MLOAD SWAP1 DUP2 MSTORE PUSH1 0x20 ADD JUMPDEST PUSH1 0x40 MLOAD DUP1 SWAP2 SUB SWAP1 RETURN JUMPDEST PUSH2 0xD9 PUSH2 0xD4 CALLDATASIZE PUSH1 0x4 PUSH2 0x9CE JUMP JUMPDEST PUSH2 0x185 JUMP JUMPDEST STOP JUMPDEST PUSH2 0xB3 PUSH1 0x1 SLOAD DUP2 JUMP JUMPDEST PUSH2 0xF7 PUSH2 0xF2 CALLDATASIZE PUSH1 0x4 PUSH2 0xA08 JUMP JUMPDEST PUSH2 0x5DA JUMP JUMPDEST PUSH1 0x40 DUP1 MLOAD SWAP3 ISZERO ISZERO DUP4 MSTORE PUSH1 0x20 DUP4 ADD SWAP2 SWAP1 SWAP2 MSTORE ADD PUSH2 0xBD JUMP JUMPDEST PUSH2 0xD9 PUSH2 0x75E JUMP JUMPDEST PUSH2 0xD9 PUSH2 0x124 CALLDATASIZE PUSH1 0x4 PUSH2 0xA39 JUMP JUMPDEST PUSH2 0x771 JUMP JUMPDEST PUSH0 SLOAD PUSH1 0x40 MLOAD PUSH1 0x1 PUSH1 0x1 PUSH1 0xA0 SHL SUB SWAP1 SWAP2 AND DUP2 MSTORE PUSH1 0x20 ADD PUSH2 0xBD JUMP JUMPDEST PUSH2 0xD9 PUSH2 0x151 CALLDATASIZE PUSH1 0x4 PUSH2 0xA39 JUMP JUMPDEST PUSH2 0x811 JUMP JUMPDEST PUSH2 0xB3 PUSH1 0x2 SLOAD DUP2 JUMP JUMPDEST PUSH2 0xD9 PUSH2 0x16D CALLDATASIZE PUSH1 0x4 PUSH2 0xA39 JUMP JUMPDEST PUSH2 0x857 JUMP JUMPDEST PUSH2 0xD9 PUSH2 0x180 CALLDATASIZE PUSH1 0x4 PUSH2 0xA50 JUMP JUMPDEST PUSH2 0x8FB JUMP JUMPDEST PUSH1 0x1 PUSH1 0x1 PUSH1 0xA0 SHL SUB DUP4 AND PUSH2 0x1E0 JUMPI PUSH1 0x40 MLOAD PUSH3 0x461BCD PUSH1 0xE5 SHL DUP2 MSTORE PUSH1 0x20 PUSH1 0x4 DUP3 ADD MSTORE PUSH1 0x19 PUSH1 0x24 DUP3 ADD MSTORE PUSH32 0x4C697175696461746F723A20696E76616C6964207661756C7400000000000000 PUSH1 0x44 DUP3 ADD MSTORE PUSH1 0x64 ADD JUMPDEST PUSH1 0x40 MLOAD DUP1 SWAP2 SUB SWAP1 REVERT JUMPDEST PUSH1 0x1 PUSH1 0x1 PUSH1 0xA0 SHL SUB DUP3 AND PUSH2 0x236 JUMPI PUSH1 0x40 MLOAD PUSH3 0x461BCD PUSH1 0xE5 SHL DUP2 MSTORE PUSH1 0x20 PUSH1 0x4 DUP3 ADD MSTORE PUSH1 0x18 PUSH1 0x24 DUP3 ADD MSTORE PUSH32 0x4C697175696461746F723A20696E76616C696420757365720000000000000000 PUSH1 0x44 DUP3 ADD MSTORE PUSH1 0x64 ADD PUSH2 0x1D7 JUMP JUMPDEST PUSH0 DUP2 GT PUSH2 0x285 JUMPI PUSH1 0x40 MLOAD PUSH3 0x461BCD PUSH1 0xE5 SHL DUP2 MSTORE PUSH1 0x20 PUSH1 0x4 DUP3 ADD MSTORE PUSH1 0x1C PUSH1 0x24 DUP3 ADD MSTORE PUSH32 0x4C697175696461746F723A207A65726F207365697A65416D6F756E7400000000 PUSH1 0x44 DUP3 ADD MSTORE PUSH1 0x64 ADD PUSH2 0x1D7 JUMP JUMPDEST PUSH0 PUSH2 0x290 DUP5 DUP5 PUSH2 0x5DA JUMP JUMPDEST POP SWAP1 POP DUP1 PUSH2 0x2F1 JUMPI PUSH1 0x40 MLOAD PUSH3 0x461BCD PUSH1 0xE5 SHL DUP2 MSTORE PUSH1 0x20 PUSH1 0x4 DUP3 ADD MSTORE PUSH1 0x28 PUSH1 0x24 DUP3 ADD MSTORE PUSH32 0x4C697175696461746F723A2075736572206E6F7420756E646572636F6C6C6174 PUSH1 0x44 DUP3 ADD MSTORE PUSH8 0x195C985B1A5E9959 PUSH1 0xC2 SHL PUSH1 0x64 DUP3 ADD MSTORE PUSH1 0x84 ADD PUSH2 0x1D7 JUMP JUMPDEST PUSH1 0x40 MLOAD PUSH4 0x70A08231 PUSH1 0xE0 SHL DUP2 MSTORE PUSH1 0x1 PUSH1 0x1 PUSH1 0xA0 SHL SUB DUP5 DUP2 AND PUSH1 0x4 DUP4 ADD MSTORE DUP6 SWAP2 PUSH0 SWAP2 DUP4 AND SWAP1 PUSH4 0x70A08231 SWAP1 PUSH1 0x24 ADD PUSH1 0x20 PUSH1 0x40 MLOAD DUP1 DUP4 SUB DUP2 DUP7 GAS STATICCALL ISZERO DUP1 ISZERO PUSH2 0x339 JUMPI RETURNDATASIZE PUSH0 PUSH0 RETURNDATACOPY RETURNDATASIZE PUSH0 REVERT JUMPDEST POP POP POP POP PUSH1 0x40 MLOAD RETURNDATASIZE PUSH1 0x1F NOT PUSH1 0x1F DUP3 ADD AND DUP3 ADD DUP1 PUSH1 0x40 MSTORE POP DUP2 ADD SWAP1 PUSH2 0x35D SWAP2 SWAP1 PUSH2 0xA70 JUMP JUMPDEST SWAP1 POP DUP4 DUP2 LT ISZERO PUSH2 0x3CA JUMPI PUSH1 0x40 MLOAD PUSH3 0x461BCD PUSH1 0xE5 SHL DUP2 MSTORE PUSH1 0x20 PUSH1 0x4 DUP3 ADD MSTORE PUSH1 0x32 PUSH1 0x24 DUP3 ADD MSTORE PUSH32 0x4C697175696461746F723A207573657220686173206665776572207368617265 PUSH1 0x44 DUP3 ADD MSTORE PUSH18 0x1CC81D1A185B881CD95A5E99505B5BDD5B9D PUSH1 0x72 SHL PUSH1 0x64 DUP3 ADD MSTORE PUSH1 0x84 ADD PUSH2 0x1D7 JUMP JUMPDEST PUSH0 PUSH2 0x2710 PUSH1 0x3 SLOAD DUP4 PUSH2 0x3DC SWAP2 SWAP1 PUSH2 0xA9B JUMP JUMPDEST PUSH2 0x3E6 SWAP2 SWAP1 PUSH2 0xAB8 JUMP JUMPDEST SWAP1 POP DUP1 DUP6 GT ISZERO PUSH2 0x449 JUMPI PUSH1 0x40 MLOAD PUSH3 0x461BCD PUSH1 0xE5 SHL DUP2 MSTORE PUSH1 0x20 PUSH1 0x4 DUP3 ADD MSTORE PUSH1 0x28 PUSH1 0x24 DUP3 ADD MSTORE PUSH32 0x4C697175696461746F723A20657863656564206D6178206C6971756964617469 PUSH1 0x44 DUP3 ADD MSTORE PUSH8 0x6F6E20726174696F PUSH1 0xC0 SHL PUSH1 0x64 DUP3 ADD MSTORE PUSH1 0x84 ADD PUSH2 0x1D7 JUMP JUMPDEST PUSH0 PUSH2 0x2710 PUSH1 0x2 SLOAD DUP8 PUSH2 0x45B SWAP2 SWAP1 PUSH2 0xA9B JUMP JUMPDEST PUSH2 0x465 SWAP2 SWAP1 PUSH2 0xAB8 JUMP JUMPDEST SWAP1 POP PUSH0 PUSH2 0x472 DUP3 DUP9 PUSH2 0xAD7 JUMP JUMPDEST SWAP1 POP DUP1 DUP5 LT ISZERO PUSH2 0x4D0 JUMPI PUSH1 0x40 MLOAD PUSH3 0x461BCD PUSH1 0xE5 SHL DUP2 MSTORE PUSH1 0x20 PUSH1 0x4 DUP3 ADD MSTORE PUSH1 0x23 PUSH1 0x24 DUP3 ADD MSTORE PUSH32 0x4C697175696461746F723A20746F74616C5365697A65203E2075736572536861 PUSH1 0x44 DUP3 ADD MSTORE PUSH3 0x726573 PUSH1 0xE8 SHL PUSH1 0x64 DUP3 ADD MSTORE PUSH1 0x84 ADD PUSH2 0x1D7 JUMP JUMPDEST DUP5 PUSH1 0x1 PUSH1 0x1 PUSH1 0xA0 SHL SUB AND PUSH4 0x1D14CD0F DUP10 DUP4 PUSH2 0x4F2 PUSH0 SLOAD PUSH1 0x1 PUSH1 0x1 PUSH1 0xA0 SHL SUB AND SWAP1 JUMP JUMPDEST PUSH1 0x40 MLOAD PUSH1 0xE0 DUP6 SWAP1 SHL PUSH1 0x1 PUSH1 0x1 PUSH1 0xE0 SHL SUB NOT AND DUP2 MSTORE PUSH1 0x1 PUSH1 0x1 PUSH1 0xA0 SHL SUB SWAP4 DUP5 AND PUSH1 0x4 DUP3 ADD MSTORE PUSH1 0x24 DUP2 ADD SWAP3 SWAP1 SWAP3 MSTORE SWAP1 SWAP2 AND PUSH1 0x44 DUP3 ADD MSTORE PUSH1 0x64 ADD PUSH0 PUSH1 0x40 MLOAD DUP1 DUP4 SUB DUP2 PUSH0 DUP8 DUP1 EXTCODESIZE ISZERO DUP1 ISZERO PUSH2 0x540 JUMPI PUSH0 PUSH0 REVERT JUMPDEST POP GAS CALL ISZERO DUP1 ISZERO PUSH2 0x552 JUMPI RETURNDATASIZE PUSH0 PUSH0 RETURNDATACOPY RETURNDATASIZE PUSH0 REVERT JUMPDEST POP POP POP POP DUP8 PUSH1 0x1 PUSH1 0x1 PUSH1 0xA0 SHL SUB AND CALLER PUSH1 0x1 PUSH1 0x1 PUSH1 0xA0 SHL SUB AND DUP11 PUSH1 0x1 PUSH1 0x1 PUSH1 0xA0 SHL SUB AND PUSH32 0x900E49B75DD80EC3BEA4347FABCC52CA262A91CDCA47776AF2875399E4B26DBE DUP11 DUP7 PUSH2 0x5A8 PUSH0 SLOAD PUSH1 0x1 PUSH1 0x1 PUSH1 0xA0 SHL SUB AND SWAP1 JUMP JUMPDEST PUSH1 0x40 DUP1 MLOAD SWAP4 DUP5 MSTORE PUSH1 0x20 DUP5 ADD SWAP3 SWAP1 SWAP3 MSTORE PUSH1 0x1 PUSH1 0x1 PUSH1 0xA0 SHL SUB AND SWAP1 DUP3 ADD MSTORE PUSH1 0x60 ADD PUSH1 0x40 MLOAD DUP1 SWAP2 SUB SWAP1 LOG4 POP POP POP POP POP POP POP POP POP JUMP JUMPDEST PUSH1 0x40 MLOAD PUSH4 0x70A08231 PUSH1 0xE0 SHL DUP2 MSTORE PUSH1 0x1 PUSH1 0x1 PUSH1 0xA0 SHL SUB DUP3 DUP2 AND PUSH1 0x4 DUP4 ADD MSTORE PUSH0 SWAP2 DUP3 SWAP2 DUP6 SWAP2 DUP4 SWAP2 DUP4 AND SWAP1 PUSH4 0x70A08231 SWAP1 PUSH1 0x24 ADD PUSH1 0x20 PUSH1 0x40 MLOAD DUP1 DUP4 SUB DUP2 DUP7 GAS STATICCALL ISZERO DUP1 ISZERO PUSH2 0x626 JUMPI RETURNDATASIZE PUSH0 PUSH0 RETURNDATACOPY RETURNDATASIZE PUSH0 REVERT JUMPDEST POP POP POP POP PUSH1 0x40 MLOAD RETURNDATASIZE PUSH1 0x1F NOT PUSH1 0x1F DUP3 ADD AND DUP3 ADD DUP1 PUSH1 0x40 MSTORE POP DUP2 ADD SWAP1 PUSH2 0x64A SWAP2 SWAP1 PUSH2 0xA70 JUMP JUMPDEST SWAP1 POP DUP1 PUSH0 SUB PUSH2 0x660 JUMPI PUSH0 PUSH0 SWAP4 POP SWAP4 POP POP POP PUSH2 0x757 JUMP JUMPDEST PUSH0 DUP3 PUSH1 0x1 PUSH1 0x1 PUSH1 0xA0 SHL SUB AND PUSH4 0x18160DDD PUSH1 0x40 MLOAD DUP2 PUSH4 0xFFFFFFFF AND PUSH1 0xE0 SHL DUP2 MSTORE PUSH1 0x4 ADD PUSH1 0x20 PUSH1 0x40 MLOAD DUP1 DUP4 SUB DUP2 DUP7 GAS STATICCALL ISZERO DUP1 ISZERO PUSH2 0x69D JUMPI RETURNDATASIZE PUSH0 PUSH0 RETURNDATACOPY RETURNDATASIZE PUSH0 REVERT JUMPDEST POP POP POP POP PUSH1 0x40 MLOAD RETURNDATASIZE PUSH1 0x1F NOT PUSH1 0x1F DUP3 ADD AND DUP3 ADD DUP1 PUSH1 0x40 MSTORE POP DUP2 ADD SWAP1 PUSH2 0x6C1 SWAP2 SWAP1 PUSH2 0xA70 JUMP JUMPDEST SWAP1 POP PUSH0 DUP4 PUSH1 0x1 PUSH1 0x1 PUSH1 0xA0 SHL SUB AND PUSH4 0x468F02D2 PUSH1 0x40 MLOAD DUP2 PUSH4 0xFFFFFFFF AND PUSH1 0xE0 SHL DUP2 MSTORE PUSH1 0x4 ADD PUSH1 0x40 DUP1 MLOAD DUP1 DUP4 SUB DUP2 DUP7 GAS STATICCALL ISZERO DUP1 ISZERO PUSH2 0x6FF JUMPI RETURNDATASIZE PUSH0 PUSH0 RETURNDATACOPY RETURNDATASIZE PUSH0 REVERT JUMPDEST POP POP POP POP PUSH1 0x40 MLOAD RETURNDATASIZE PUSH1 0x1F NOT PUSH1 0x1F DUP3 ADD AND DUP3 ADD DUP1 PUSH1 0x40 MSTORE POP DUP2 ADD SWAP1 PUSH2 0x723 SWAP2 SWAP1 PUSH2 0xAEA JUMP JUMPDEST POP SWAP1 POP DUP2 ISZERO PUSH2 0x732 JUMPI DUP2 PUSH2 0x735 JUMP JUMPDEST PUSH1 0x1 JUMPDEST PUSH2 0x73F DUP5 DUP4 PUSH2 0xA9B JUMP JUMPDEST PUSH2 0x749 SWAP2 SWAP1 PUSH2 0xAB8 JUMP JUMPDEST SWAP5 POP PUSH1 0x1 SLOAD DUP6 LT SWAP6 POP POP POP POP POP JUMPDEST SWAP3 POP SWAP3 SWAP1 POP JUMP JUMPDEST PUSH2 0x766 PUSH2 0x938 JUMP JUMPDEST PUSH2 0x76F PUSH0 PUSH2 0x964 JUMP JUMPDEST JUMP JUMPDEST PUSH2 0x779 PUSH2 0x938 JUMP JUMPDEST PUSH2 0x1388 DUP2 GT ISZERO PUSH2 0x7CB JUMPI PUSH1 0x40 MLOAD PUSH3 0x461BCD PUSH1 0xE5 SHL DUP2 MSTORE PUSH1 0x20 PUSH1 0x4 DUP3 ADD MSTORE PUSH1 0x19 PUSH1 0x24 DUP3 ADD MSTORE PUSH32 0x4C697175696461746F723A2066656520746F6F206C6172676500000000000000 PUSH1 0x44 DUP3 ADD MSTORE PUSH1 0x64 ADD PUSH2 0x1D7 JUMP JUMPDEST PUSH1 0x2 DUP1 SLOAD SWAP1 DUP3 SWAP1 SSTORE PUSH1 0x40 DUP1 MLOAD DUP3 DUP2 MSTORE PUSH1 0x20 DUP2 ADD DUP5 SWAP1 MSTORE PUSH32 0x557B0D960E10511641485A3DC861FDC0E7940DF3F9FEF08D56DF8F709625D108 SWAP2 ADD JUMPDEST PUSH1 0x40 MLOAD DUP1 SWAP2 SUB SWAP1 LOG1 POP POP JUMP JUMPDEST PUSH2 0x819 PUSH2 0x938 JUMP JUMPDEST PUSH1 0x1 DUP1 SLOAD SWAP1 DUP3 SWAP1 SSTORE PUSH1 0x40 DUP1 MLOAD DUP3 DUP2 MSTORE PUSH1 0x20 DUP2 ADD DUP5 SWAP1 MSTORE PUSH32 0x5D513DD15E422E7BCF5473FD0705FB8CA9C338ECC0EDDA3A3E29003202DC921E SWAP2 ADD PUSH2 0x805 JUMP JUMPDEST PUSH2 0x85F PUSH2 0x938 JUMP JUMPDEST PUSH2 0x2710 DUP2 GT ISZERO PUSH2 0x8BD JUMPI PUSH1 0x40 MLOAD PUSH3 0x461BCD PUSH1 0xE5 SHL DUP2 MSTORE PUSH1 0x20 PUSH1 0x4 DUP3 ADD MSTORE PUSH1 0x24 DUP1 DUP3 ADD MSTORE PUSH32 0x4C697175696461746F723A206D61784C69717569646174696F6E427073203E20 PUSH1 0x44 DUP3 ADD MSTORE PUSH4 0x31303025 PUSH1 0xE0 SHL PUSH1 0x64 DUP3 ADD MSTORE PUSH1 0x84 ADD PUSH2 0x1D7 JUMP JUMPDEST PUSH1 0x3 DUP1 SLOAD SWAP1 DUP3 SWAP1 SSTORE PUSH1 0x40 DUP1 MLOAD DUP3 DUP2 MSTORE PUSH1 0x20 DUP2 ADD DUP5 SWAP1 MSTORE PUSH32 0xC97E48D448EA4D00E9A3D604EEA0E39315D280CCDEB06185E2C53EFE38DEBCD SWAP2 ADD PUSH2 0x805 JUMP JUMPDEST PUSH2 0x903 PUSH2 0x938 JUMP JUMPDEST PUSH1 0x1 PUSH1 0x1 PUSH1 0xA0 SHL SUB DUP2 AND PUSH2 0x92C JUMPI PUSH1 0x40 MLOAD PUSH4 0x1E4FBDF7 PUSH1 0xE0 SHL DUP2 MSTORE PUSH0 PUSH1 0x4 DUP3 ADD MSTORE PUSH1 0x24 ADD PUSH2 0x1D7 JUMP JUMPDEST PUSH2 0x935 DUP2 PUSH2 0x964 JUMP JUMPDEST POP JUMP JUMPDEST PUSH0 SLOAD PUSH1 0x1 PUSH1 0x1 PUSH1 0xA0 SHL SUB AND CALLER EQ PUSH2 0x76F JUMPI PUSH1 0x40 MLOAD PUSH4 0x118CDAA7 PUSH1 0xE0 SHL DUP2 MSTORE CALLER PUSH1 0x4 DUP3 ADD MSTORE PUSH1 0x24 ADD PUSH2 0x1D7 JUMP JUMPDEST PUSH0 DUP1 SLOAD PUSH1 0x1 PUSH1 0x1 PUSH1 0xA0 SHL SUB DUP4 DUP2 AND PUSH1 0x1 PUSH1 0x1 PUSH1 0xA0 SHL SUB NOT DUP4 AND DUP2 OR DUP5 SSTORE PUSH1 0x40 MLOAD SWAP2 SWAP1 SWAP3 AND SWAP3 DUP4 SWAP2 PUSH32 0x8BE0079C531659141344CD1FD0A4F28419497F9722A3DAAFE3B4186F6B6457E0 SWAP2 SWAP1 LOG3 POP POP JUMP JUMPDEST DUP1 CALLDATALOAD PUSH1 0x1 PUSH1 0x1 PUSH1 0xA0 SHL SUB DUP2 AND DUP2 EQ PUSH2 0x9C9 JUMPI PUSH0 PUSH0 REVERT JUMPDEST SWAP2 SWAP1 POP JUMP JUMPDEST PUSH0 PUSH0 PUSH0 PUSH1 0x60 DUP5 DUP7 SUB SLT ISZERO PUSH2 0x9E0 JUMPI PUSH0 PUSH0 REVERT JUMPDEST PUSH2 0x9E9 DUP5 PUSH2 0x9B3 JUMP JUMPDEST SWAP3 POP PUSH2 0x9F7 PUSH1 0x20 DUP6 ADD PUSH2 0x9B3 JUMP JUMPDEST SWAP3 SWAP6 SWAP3 SWAP5 POP POP POP PUSH1 0x40 SWAP2 SWAP1 SWAP2 ADD CALLDATALOAD SWAP1 JUMP JUMPDEST PUSH0 PUSH0 PUSH1 0x40 DUP4 DUP6 SUB SLT ISZERO PUSH2 0xA19 JUMPI PUSH0 PUSH0 REVERT JUMPDEST PUSH2 0xA22 DUP4 PUSH2 0x9B3 JUMP JUMPDEST SWAP2 POP PUSH2 0xA30 PUSH1 0x20 DUP5 ADD PUSH2 0x9B3 JUMP JUMPDEST SWAP1 POP SWAP3 POP SWAP3 SWAP1 POP JUMP JUMPDEST PUSH0 PUSH1 0x20 DUP3 DUP5 SUB SLT ISZERO PUSH2 0xA49 JUMPI PUSH0 PUSH0 REVERT JUMPDEST POP CALLDATALOAD SWAP2 SWAP1 POP JUMP JUMPDEST PUSH0 PUSH1 0x20 DUP3 DUP5 SUB SLT ISZERO PUSH2 0xA60 JUMPI PUSH0 PUSH0 REVERT JUMPDEST PUSH2 0xA69 DUP3 PUSH2 0x9B3 JUMP JUMPDEST SWAP4 SWAP3 POP POP POP JUMP JUMPDEST PUSH0 PUSH1 0x20 DUP3 DUP5 SUB SLT ISZERO PUSH2 0xA80 JUMPI PUSH0 PUSH0 REVERT JUMPDEST POP MLOAD SWAP2 SWAP1 POP JUMP JUMPDEST PUSH4 0x4E487B71 PUSH1 0xE0 SHL PUSH0 MSTORE PUSH1 0x11 PUSH1 0x4 MSTORE PUSH1 0x24 PUSH0 REVERT JUMPDEST DUP1 DUP3 MUL DUP2 ISZERO DUP3 DUP3 DIV DUP5 EQ OR PUSH2 0xAB2 JUMPI PUSH2 0xAB2 PUSH2 0xA87 JUMP JUMPDEST SWAP3 SWAP2 POP POP JUMP JUMPDEST PUSH0 DUP3 PUSH2 0xAD2 JUMPI PUSH4 0x4E487B71 PUSH1 0xE0 SHL PUSH0 MSTORE PUSH1 0x12 PUSH1 0x4 MSTORE PUSH1 0x24 PUSH0 REVERT JUMPDEST POP DIV SWAP1 JUMP JUMPDEST DUP1 DUP3 ADD DUP1 DUP3 GT ISZERO PUSH2 0xAB2 JUMPI PUSH2 0xAB2 PUSH2 0xA87 JUMP JUMPDEST PUSH0 PUSH0 PUSH1 0x40 DUP4 DUP6 SUB SLT ISZERO PUSH2 0xAFB JUMPI PUSH0 PUSH0 REVERT JUMPDEST DUP3 MLOAD PUSH1 0x20 DUP5 ADD MLOAD SWAP1 SWAP3 POP PUSH1 0xFF DUP2 AND DUP2 EQ PUSH2 0xB13 JUMPI PUSH0 PUSH0 REVERT JUMPDEST DUP1 SWAP2 POP POP SWAP3 POP SWAP3 SWAP1 POP JUMP INVALID LOG2 PUSH5 0x6970667358 0x22 SLT KECCAK256 0xE5 SLOAD 0xD5 INVALID LOG2 0x2A 0xB8 SWAP4 MCOPY EXTCODECOPY 0x4B STOP 0xA5 PUSH15 0x6AC237F34C7A960E39623DD5C04414 0xEF EXTCODESIZE 0xC PUSH5 0x736F6C6343 STOP ADDMOD SHR STOP CALLER "
		},
		"gasEstimates": {
			"creation": {
				"codeDepositCost": "580000",
				"executionCost": "infinite",
				"totalCost": "infinite"
			},
			"external": {
				"checkUnderCollateral(address,address)": "infinite",
				"liquidate(address,address,uint256)": "infinite",
				"liquidationFeeBps()": "2349",
				"maxLiquidationBps()": "2284",
				"minCollateralValue()": "2328",
				"owner()": "2321",
				"renounceOwnership()": "infinite",
				"setLiquidationFeeBps(uint256)": "27962",
				"setMaxLiquidationBps(uint256)": "28061",
				"setMinCollateralValue(uint256)": "27991",
				"transferOwnership(address)": "28439"
			}
		},
		"methodIdentifiers": {
			"checkUnderCollateral(address,address)": "5fee4865",
			"liquidate(address,address,uint256)": "26c01303",
			"liquidationFeeBps()": "e031a824",
			"maxLiquidationBps()": "11299f11",
			"minCollateralValue()": "29880339",
			"owner()": "8da5cb5b",
			"renounceOwnership()": "715018a6",
			"setLiquidationFeeBps(uint256)": "8951b054",
			"setMaxLiquidationBps(uint256)": "e81b5a8c",
			"setMinCollateralValue(uint256)": "c4a34f37",
			"transferOwnership(address)": "f2fde38b"
		}
	},
	"abi": [
		{
			"inputs": [
				{
					"internalType": "address",
					"name": "initialOwner",
					"type": "address"
				},
				{
					"internalType": "uint256",
					"name": "_minCollateralValue",
					"type": "uint256"
				},
				{
					"internalType": "uint256",
					"name": "_liquidationFeeBps",
					"type": "uint256"
				},
				{
					"internalType": "uint256",
					"name": "_maxLiquidationBps",
					"type": "uint256"
				}
			],
			"stateMutability": "nonpayable",
			"type": "constructor"
		},
		{
			"inputs": [
				{
					"internalType": "address",
					"name": "owner",
					"type": "address"
				}
			],
			"name": "OwnableInvalidOwner",
			"type": "error"
		},
		{
			"inputs": [
				{
					"internalType": "address",
					"name": "account",
					"type": "address"
				}
			],
			"name": "OwnableUnauthorizedAccount",
			"type": "error"
		},
		{
			"anonymous": false,
			"inputs": [
				{
					"indexed": true,
					"internalType": "address",
					"name": "vault",
					"type": "address"
				},
				{
					"indexed": true,
					"internalType": "address",
					"name": "liquidator",
					"type": "address"
				},
				{
					"indexed": true,
					"internalType": "address",
					"name": "userLiquidated",
					"type": "address"
				},
				{
					"indexed": false,
					"internalType": "uint256",
					"name": "seizedShares",
					"type": "uint256"
				},
				{
					"indexed": false,
					"internalType": "uint256",
					"name": "feeShares",
					"type": "uint256"
				},
				{
					"indexed": false,
					"internalType": "address",
					"name": "recipient",
					"type": "address"
				}
			],
			"name": "LiquidationExecuted",
			"type": "event"
		},
		{
			"anonymous": false,
			"inputs": [
				{
					"indexed": false,
					"internalType": "uint256",
					"name": "oldFee",
					"type": "uint256"
				},
				{
					"indexed": false,
					"internalType": "uint256",
					"name": "newFee",
					"type": "uint256"
				}
			],
			"name": "LiquidationFeeBpsUpdated",
			"type": "event"
		},
		{
			"anonymous": false,
			"inputs": [
				{
					"indexed": false,
					"internalType": "uint256",
					"name": "oldMaxBps",
					"type": "uint256"
				},
				{
					"indexed": false,
					"internalType": "uint256",
					"name": "newMaxBps",
					"type": "uint256"
				}
			],
			"name": "MaxLiquidationBpsUpdated",
			"type": "event"
		},
		{
			"anonymous": false,
			"inputs": [
				{
					"indexed": false,
					"internalType": "uint256",
					"name": "oldValue",
					"type": "uint256"
				},
				{
					"indexed": false,
					"internalType": "uint256",
					"name": "newValue",
					"type": "uint256"
				}
			],
			"name": "MinCollateralValueUpdated",
			"type": "event"
		},
		{
			"anonymous": false,
			"inputs": [
				{
					"indexed": true,
					"internalType": "address",
					"name": "previousOwner",
					"type": "address"
				},
				{
					"indexed": true,
					"internalType": "address",
					"name": "newOwner",
					"type": "address"
				}
			],
			"name": "OwnershipTransferred",
			"type": "event"
		},
		{
			"inputs": [
				{
					"internalType": "address",
					"name": "vault",
					"type": "address"
				},
				{
					"internalType": "address",
					"name": "user",
					"type": "address"
				}
			],
			"name": "checkUnderCollateral",
			"outputs": [
				{
					"internalType": "bool",
					"name": "isUnderCollateral",
					"type": "bool"
				},
				{
					"internalType": "uint256",
					"name": "userValue",
					"type": "uint256"
				}
			],
			"stateMutability": "view",
			"type": "function"
		},
		{
			"inputs": [
				{
					"internalType": "address",
					"name": "vault",
					"type": "address"
				},
				{
					"internalType": "address",
					"name": "user",
					"type": "address"
				},
				{
					"internalType": "uint256",
					"name": "seizeAmount",
					"type": "uint256"
				}
			],
			"name": "liquidate",
			"outputs": [],
			"stateMutability": "nonpayable",
			"type": "function"
		},
		{
			"inputs": [],
			"name": "liquidationFeeBps",
			"outputs": [
				{
					"internalType": "uint256",
					"name": "",
					"type": "uint256"
				}
			],
			"stateMutability": "view",
			"type": "function"
		},
		{
			"inputs": [],
			"name": "maxLiquidationBps",
			"outputs": [
				{
					"internalType": "uint256",
					"name": "",
					"type": "uint256"
				}
			],
			"stateMutability": "view",
			"type": "function"
		},
		{
			"inputs": [],
			"name": "minCollateralValue",
			"outputs": [
				{
					"internalType": "uint256",
					"name": "",
					"type": "uint256"
				}
			],
			"stateMutability": "view",
			"type": "function"
		},
		{
			"inputs": [],
			"name": "owner",
			"outputs": [
				{
					"internalType": "address",
					"name": "",
					"type": "address"
				}
			],
			"stateMutability": "view",
			"type": "function"
		},
		{
			"inputs": [],
			"name": "renounceOwnership",
			"outputs": [],
			"stateMutability": "nonpayable",
			"type": "function"
		},
		{
			"inputs": [
				{
					"internalType": "uint256",
					"name": "newFeeBps",
					"type": "uint256"
				}
			],
			"name": "setLiquidationFeeBps",
			"outputs": [],
			"stateMutability": "nonpayable",
			"type": "function"
		},
		{
			"inputs": [
				{
					"internalType": "uint256",
					"name": "newMaxBps",
					"type": "uint256"
				}
			],
			"name": "setMaxLiquidationBps",
			"outputs": [],
			"stateMutability": "nonpayable",
			"type": "function"
		},
		{
			"inputs": [
				{
					"internalType": "uint256",
					"name": "newValue",
					"type": "uint256"
				}
			],
			"name": "setMinCollateralValue",
			"outputs": [],
			"stateMutability": "nonpayable",
			"type": "function"
		},
		{
			"inputs": [
				{
					"internalType": "address",
					"name": "newOwner",
					"type": "address"
				}
			],
			"name": "transferOwnership",
			"outputs": [],
			"stateMutability": "nonpayable",
			"type": "function"
		}
	]
}