{
	"data": {
		"bytecode": {
			"linkReferences": {},
			"object": "608060405234801561000f575f5ffd5b5060405161228a38038061228a83398101604081905261002e916100ef565b610037336100a0565b6001600160a01b0381166100915760405162461bcd60e51b815260206004820152601c60248201527f4f7261636c654d616e616765723a20696e76616c6964206f776e657200000000604482015260640160405180910390fd5b61009a816100a0565b5061011c565b5f80546001600160a01b038381166001600160a01b0319831681178455604051919092169283917f8be0079c531659141344cd1fd0a4f28419497f9722a3daafe3b4186f6b6457e09190a35050565b5f602082840312156100ff575f5ffd5b81516001600160a01b0381168114610115575f5ffd5b9392505050565b612161806101295f395ff3fe608060405234801561000f575f5ffd5b5060043610610085575f3560e01c80638da5cb5b116100585780638da5cb5b146101e25780639b05fc75146101fc578063f2ac1ec51461020f578063f2fde38b14610222575f5ffd5b8063067a4b061461008957806341976e091461011f578063715018a6146101495780637f4a310214610153575b5f5ffd5b6100dd610097366004611abf565b600160208190525f918252604090912080549101546001600160a01b039182169181169060ff600160a01b8204811691600160a81b8104821691600160b01b9091041685565b604080516001600160a01b0396871681529590941660208601529115159284019290925260ff90911660608301521515608082015260a0015b60405180910390f35b61013261012d366004611abf565b610235565b6040805192835260ff909116602083015201610116565b61015161040d565b005b6101a7610161366004611abf565b60026020525f9081526040902080546001909101546001600160a01b039182169181169060ff600160a01b8204811691600160a81b8104821691600160b01b9091041685565b604080516001600160a01b03968716815295909416602086015260ff928316938501939093521660608301521515608082015260a001610116565b5f546040516001600160a01b039091168152602001610116565b61015161020a366004611ae8565b610420565b61015161021d366004611b62565b6105b4565b610151610230366004611abf565b6107c3565b6001600160a01b038082165f908152600160208181526040808420815160a0810183528154871680825291909401549586169284019290925260ff600160a01b86048116151591840191909152600160a81b850481166060840152600160b01b9094049093161515608082015290918291901515806102b5575080608001515b6103175760405162461bcd60e51b815260206004820152602860248201527f4f7261636c654d616e616765723a206e6f2061676772656761746f722f7661756044820152676c74206c6f67696360c01b60648201526084015b60405180910390fd5b8060800151610333576103298161083c565b9093509150610407565b6001600160a01b038085165f90815260026020908152604091829020825160a0810184528154851681526001909101549384169181019190915260ff600160a01b8404811692820192909252600160a81b830482166060820152600160b01b909204161515608082018190526103f65760405162461bcd60e51b815260206004820152602260248201527f4f7261636c654d616e616765723a207661756c74206665656473206e6f742073604482015261195d60f21b606482015260840161030e565b6104008582610971565b9094509250505b50915091565b610415610ae1565b61041e5f610b3a565b565b610428610ae1565b6001600160a01b0385166104885760405162461bcd60e51b815260206004820152602160248201527f4f7261636c654d616e616765723a20696e76616c6964207661756c74546f6b656044820152603760f91b606482015260840161030e565b6040805160a0810182526001600160a01b038087168252858116602080840191825260ff808816858701908152878216606087019081526001608088018181528e88165f8181526002909752958a9020985189549089166001600160a01b03199091161789559551970180549251915195511515600160b01b0260ff60b01b19968516600160a81b029690961661ffff60a81b1992909416600160a01b026001600160a81b0319909316979096169690961717949094169390931717905590517f2fb5936f285b062770ba9aa206ca7282ebb8f84ad2eda1c664b3059e9c62c1ba906105a59087908790879087906001600160a01b03948516815292909316602083015260ff908116604083015291909116606082015260800190565b60405180910390a25050505050565b6105bc610ae1565b6001600160a01b0386166106125760405162461bcd60e51b815260206004820152601c60248201527f4f7261636c654d616e616765723a20696e76616c696420746f6b656e00000000604482015260640161030e565b80610686576001600160a01b0385166106865760405162461bcd60e51b815260206004820152603060248201527f4f7261636c654d616e616765723a2061676772656761746f722072657175697260448201526f195908199bdc881b9bdb8b5d985d5b1d60821b606482015260840161030e565b6040805160a0810182526001600160a01b038088168252868116602080840191825287151584860190815260ff80891660608701908152881515608088019081528e87165f8181526001968790528a9020985189549089166001600160a01b031990911617895595519790940180549351915194511515600160b01b0260ff60b01b1995909316600160a81b029490941661ffff60a81b19911515600160a01b026001600160a81b0319909416979096169690961791909117949094169290921792909217905590517f5be58a9eef853f8ae7393174434d0be93daad7445510f6ce6e914b2f297885b8906107b390889088908890889088906001600160a01b039586168152939094166020840152901515604083015260ff166060820152901515608082015260a00190565b60405180910390a2505050505050565b6107cb610ae1565b6001600160a01b0381166108305760405162461bcd60e51b815260206004820152602660248201527f4f776e61626c653a206e6577206f776e657220697320746865207a65726f206160448201526564647265737360d01b606482015260840161030e565b61083981610b3a565b50565b5f5f5f5f5f610852865f01518760600151610b89565b92509250925082158015610867575085604001515b801561087f575060208601516001600160a01b031615155b1561090a575f5f5f61089989602001518a60600151610b89565b925092509250826108fc5760405162461bcd60e51b815260206004820152602760248201527f4f7261636c654d616e616765723a2066616c6c6261636b2061676772656761746044820152661bdc8819985a5b60ca1b606482015260840161030e565b909890975095505050505050565b826109665760405162461bcd60e51b815260206004820152602660248201527f4f7261636c654d616e616765723a207072696d6172792061676772656761746f6044820152651c8819985a5b60d21b606482015260840161030e565b909590945092505050565b5f5f5f5f5f61097f87610d69565b9250925092505f6109908284610fa8565b90505f5f6109fc8a6001600160a01b0316633a924d5b6040518163ffffffff1660e01b8152600401602060405180830381865afa1580156109d3573d5f5f3e3d5ffd5b505050506040513d601f19601f820116820180604052508101906109f79190611be0565b611196565b915091505f5f610a1a848660400151876060015188608001516112c1565b915091505f8560a001516001600160801b031683610a389190611c0f565b90505f8660c001516001600160801b031683610a549190611c0f565b90505f60405180608001604052808f5f01516001600160a01b031681526020018f602001516001600160a01b031681526020018f6040015160ff1681526020018f6060015160ff1681525090505f610aad848484611312565b90508b15610abb578b610abe565b60015b610ac89082611c36565b9d5060089c505050505050505050505050509250929050565b5f546001600160a01b0316331461041e5760405162461bcd60e51b815260206004820181905260248201527f4f776e61626c653a2063616c6c6572206973206e6f7420746865206f776e6572604482015260640161030e565b5f80546001600160a01b038381166001600160a01b0319831681178455604051919092169283917f8be0079c531659141344cd1fd0a4f28419497f9722a3daafe3b4186f6b6457e09190a35050565b5f80806001600160a01b038516610ba757505f915081905080610d62565b60408051600481526024810182526020810180516001600160e01b0316633fabe5a360e21b17905290515f9081906001600160a01b03891690610beb908590611c77565b5f60405180830381855afa9150503d805f8114610c23576040519150601f19603f3d011682016040523d82523d5f602084013e610c28565b606091505b5091509150811580610c3b575060a08151105b15610c51575f5f5f955095509550505050610d62565b5f81806020019051810190610c669190611cb0565b5050509150505f8113610c85575f5f5f96509650965050505050610d62565b8760ff81165f03610d555760408051600481526024810182526020810180516001600160e01b031663313ce56760e01b17905290515f9182916001600160a01b038e1691610cd291611c77565b5f60405180830381855afa9150503d805f8114610d0a576040519150601f19603f3d011682016040523d82523d5f602084013e610d0f565b606091505b5091509150811580610d22575060208151105b15610d3c575f5f5f99509950995050505050505050610d62565b80806020019051810190610d509190611cfe565b925050505b6001975090955093505050505b9250925092565b5f5f5f5f849050806001600160a01b03166318160ddd6040518163ffffffff1660e01b8152600401602060405180830381865afa158015610dac573d5f5f3e3d5ffd5b505050506040513d601f19601f82011682018060405250810190610dd09190611d19565b93505f8411610e2c5760405162461bcd60e51b815260206004820152602260248201527f4f7261636c654d616e616765723a207661756c7420746f74616c537570706c7960448201526103d360f41b606482015260840161030e565b806001600160a01b031663f657a7fe6040518163ffffffff1660e01b8152600401602060405180830381865afa158015610e68573d5f5f3e3d5ffd5b505050506040513d601f19601f82011682018060405250810190610e8c9190611d19565b9250825f03610edd5760405162461bcd60e51b815260206004820152601e60248201527f4f7261636c654d616e616765723a206e6f204e465420696e207661756c740000604482015260640161030e565b806001600160a01b031663791b98bc6040518163ffffffff1660e01b8152600401602060405180830381865afa158015610f19573d5f5f3e3d5ffd5b505050506040513d601f19601f82011682018060405250810190610f3d9190611be0565b91506001600160a01b038216610fa05760405162461bcd60e51b815260206004820152602260248201527f4f7261636c654d616e616765723a20696e76616c696420706f736974696f6e4d60448201526133b960f11b606482015260840161030e565b509193909250565b6040805160e0810182525f80825260208201819052918101829052606081018290526080810182905260a0810182905260c08101919091525f5f846001600160a01b03166399fbab8860e01b8560405160240161100791815260200190565b60408051601f198184030181529181526020820180516001600160e01b03166001600160e01b03199094169390931790925290516110459190611c77565b5f60405180830381855afa9150503d805f811461107d576040519150601f19603f3d011682016040523d82523d5f602084013e611082565b606091505b50915091508161109182611354565b906110af5760405162461bcd60e51b815260040161030e9190611d30565b50808060200190518101906110c49190611da6565b909192939495969798999a509091929394959697989950909192939495965090919250909150895f018a6020018b6040018c6060018d6080018e60a0018f60c001876001600160801b03166001600160801b0316815250876001600160801b03166001600160801b0316815250876001600160801b03166001600160801b03168152508760020b60020b8152508760020b60020b815250876001600160a01b03166001600160a01b0316815250876001600160a01b03166001600160a01b031681525050505050505050505092915050565b5f806001600160a01b0383166111ee5760405162461bcd60e51b815260206004820152601b60248201527f4f7261636c654d616e616765723a20696e76616c696420706f6f6c0000000000604482015260640161030e565b60408051600481526024810182526020810180516001600160e01b0316633850c7bd60e01b17905290515f9182916001600160a01b0387169161123091611c77565b5f60405180830381855afa9150503d805f8114611268576040519150601f19603f3d011682016040523d82523d5f602084013e61126d565b606091505b50915091508161127c82611354565b9061129a5760405162461bcd60e51b815260040161030e9190611d30565b50808060200190518101906112af9190611e91565b50949a93995092975050505050505050565b5f5f826001600160801b03165f036112dd57505f905080611309565b5f6112e78661139f565b90505f6112f38661139f565b9050611301888383886117ea565b909450925050505b94509492505050565b5f5f61132685845f01518560400151611884565b90505f61133c8585602001518660600151611884565b90506113488183611c0f565b925050505b9392505050565b606060448251101561137f576040518060600160405280602481526020016121086024913992915050565b600482019150818060200190518101906113999190611f2f565b92915050565b5f620d89e719600283900b128015906113bf5750620d89e8600283900b13155b6113ff5760405162461bcd60e51b81526020600482015260116024820152705469636b206f7574206f662072616e676560781b604482015260640161030e565b5f5f8360020b12611415578262ffffff16611424565b61141e83611fdf565b62ffffff165b9050600160801b6001821615611455576080611450826ffffcb933bd6fad37aa2d162d1a594001611fff565b901c90505b600282161561147f57608061147a826ffff97272373d413259a46990580e213a611fff565b901c90505b60048216156114a95760806114a4826ffff2e50f5f656932ef12357cf3c7fdcc611fff565b901c90505b60088216156114d35760806114ce826fffe5caca7e10e4e61c3624eaa0941cd0611fff565b901c90505b60108216156114fd5760806114f8826fffcb9843d60f6159c9db58835c926644611fff565b901c90505b6020821615611527576080611522826fff973b41fa98c081472e6896dfb254c0611fff565b901c90505b604082161561155157608061154c826fff2ea16466c96a3843ec78b326b52861611fff565b901c90505b608082161561157b576080611576826ffe5dee046a99a2a811c461f1969c3053611fff565b901c90505b6101008216156115a65760806115a1826ffcbe86c7900a88aedcffc83b479aa3a4611fff565b901c90505b6102008216156115d15760806115cc826ff987a7253ac413176f2b074cf7815e54611fff565b901c90505b6104008216156115fc5760806115f7826ff3392b0822b70005940c7a398e4b70f3611fff565b901c90505b610800821615611627576080611622826fe7159475a2c29b7443b29c7fa6e889d9611fff565b901c90505b61100082161561165257608061164d826fd097f3bdfd2022b8845ad8f792aa5825611fff565b901c90505b61200082161561167d576080611678826fa9f746462d870fdf8a65dc1f90e061e5611fff565b901c90505b6140008216156116a85760806116a3826f70d869a156d2a1f6a7a2e3fadacb4c9b611fff565b901c90505b6180008216156116d35760806116ce826f31be135f97d08fd981231505542fcfa6611fff565b901c90505b620100008216156116ff5760806116fa826f09aa508b5b7a84e1c677de54f3e99bc9611fff565b901c90505b6202000082161561172a576080611725826e5d6af8dedb81196699c329225ee604611fff565b901c90505b6204000082161561175457608061174f826d2216e584f5fa1ea926041bedfe98611fff565b901c90505b6208000082161561177c576080611777826b048a170391f7dc42444e8fa2611fff565b901c90505b5f8460020b131561179557611792815f19611c36565b90505b602081901c6001600160a01b038111156117e25760405162461bcd60e51b815260206004820152600e60248201526d5072696365206f766572666c6f7760901b604482015260640161030e565b949350505050565b5f5f836001600160a01b0316856001600160a01b0316111561180a579293925b846001600160a01b0316866001600160a01b0316116118355761182e858585611955565b9150611309565b836001600160a01b0316866001600160a01b0316101561186e5761185a868585611955565b91506118678587856119c3565b9050611309565b6118798585856119c3565b905094509492505050565b5f83158061189957506001600160a01b038316155b156118a557505f61134d565b5f5f5f6118b28686610b89565b9250925092508261192b5760405162461bcd60e51b815260206004820152603b60248201527f4f7261636c654d616e616765723a2061676772656761746f72206661696c206960448201527f6e205f636f6e76657274546f41676772656761746f7256616c75650000000000606482015260840161030e565b61193681600a6120f9565b6119408389611fff565b61194a9190611c36565b979650505050505050565b5f826001600160a01b0316846001600160a01b03161115611974579192915b836001600160a01b03166119ad606060ff16846001600160801b0316901b8686036001600160a01b0316866001600160a01b0316611a01565b816119ba576119ba611c22565b04949350505050565b5f826001600160a01b0316846001600160a01b031611156119e2579192915b6117e2826001600160801b03168585036001600160a01b0316600160601b5b5f80805f19858709858702925082811083820303915050805f03611a35575f8411611a2a575f5ffd5b50829004905061134d565b808411611a40575f5ffd5b5f848688095f868103871696879004966002600389028118808a02820302808a02820302808a02820302808a02820302808a02820302808a02909103029181900381900460010186841190950394909402919094039290920491909117919091029150509392505050565b6001600160a01b0381168114610839575f5ffd5b5f60208284031215611acf575f5ffd5b813561134d81611aab565b60ff81168114610839575f5ffd5b5f5f5f5f5f60a08688031215611afc575f5ffd5b8535611b0781611aab565b94506020860135611b1781611aab565b93506040860135611b2781611aab565b92506060860135611b3781611ada565b91506080860135611b4781611ada565b809150509295509295909350565b8015158114610839575f5ffd5b5f5f5f5f5f5f60c08789031215611b77575f5ffd5b8635611b8281611aab565b95506020870135611b9281611aab565b94506040870135611ba281611aab565b93506060870135611bb281611b55565b92506080870135611bc281611ada565b915060a0870135611bd281611b55565b809150509295509295509295565b5f60208284031215611bf0575f5ffd5b815161134d81611aab565b634e487b7160e01b5f52601160045260245ffd5b8082018082111561139957611399611bfb565b634e487b7160e01b5f52601260045260245ffd5b5f82611c5057634e487b7160e01b5f52601260045260245ffd5b500490565b5f5b83811015611c6f578181015183820152602001611c57565b50505f910152565b5f8251611c88818460208701611c55565b9190910192915050565b805169ffffffffffffffffffff81168114611cab575f5ffd5b919050565b5f5f5f5f5f60a08688031215611cc4575f5ffd5b611ccd86611c92565b60208701516040880151606089015192975090955093509150611cf260808701611c92565b90509295509295909350565b5f60208284031215611d0e575f5ffd5b815161134d81611ada565b5f60208284031215611d29575f5ffd5b5051919050565b602081525f8251806020840152611d4e816040850160208701611c55565b601f01601f19169190910160400192915050565b8051611cab81611aab565b805162ffffff81168114611cab575f5ffd5b8051600281900b8114611cab575f5ffd5b80516001600160801b0381168114611cab575f5ffd5b5f5f5f5f5f5f5f5f5f5f5f5f6101808d8f031215611dc2575f5ffd5b8c516bffffffffffffffffffffffff81168114611ddd575f5ffd5b9b50611deb60208e01611d62565b9a50611df960408e01611d62565b9950611e0760608e01611d62565b9850611e1560808e01611d6d565b9750611e2360a08e01611d7f565b9650611e3160c08e01611d7f565b9550611e3f60e08e01611d90565b6101008e01516101208f015191965094509250611e5f6101408e01611d90565b9150611e6e6101608e01611d90565b90509295989b509295989b509295989b565b805161ffff81168114611cab575f5ffd5b5f5f5f5f5f5f5f60e0888a031215611ea7575f5ffd5b8751611eb281611aab565b9650611ec060208901611d7f565b9550611ece60408901611e80565b9450611edc60608901611e80565b9350611eea60808901611e80565b925060a0880151611efa81611ada565b60c0890151909250611f0b81611b55565b8091505092959891949750929550565b634e487b7160e01b5f52604160045260245ffd5b5f60208284031215611f3f575f5ffd5b815167ffffffffffffffff811115611f55575f5ffd5b8201601f81018413611f65575f5ffd5b805167ffffffffffffffff811115611f7f57611f7f611f1b565b604051601f8201601f19908116603f0116810167ffffffffffffffff81118282101715611fae57611fae611f1b565b604052818152828201602001861015611fc5575f5ffd5b611fd6826020830160208601611c55565b95945050505050565b5f8160020b627fffff198103611ff757611ff7611bfb565b5f0392915050565b808202811582820484141761139957611399611bfb565b6001815b60018411156120515780850481111561203557612035611bfb565b600184161561204357908102905b60019390931c92800261201a565b935093915050565b5f8261206757506001611399565b8161207357505f611399565b81600181146120895760028114612093576120af565b6001915050611399565b60ff8411156120a4576120a4611bfb565b50506001821b611399565b5060208310610133831016604e8410600b84101617156120d2575081810a611399565b6120de5f198484612016565b805f19048211156120f1576120f1611bfb565b029392505050565b5f61134d60ff84168361205956fe4f7261636c654d616e616765723a2063616c6c20726576657274656420772f6f206d7367a26469706673582212203cf387091b36c8ce987cdee3fb289ea4d9e0d4e66f345e8a87ab8f4cec6f8de464736f6c634300081c0033",
			"opcodes": "PUSH1 0x80 PUSH1 0x40 MSTORE CALLVALUE DUP1 ISZERO PUSH2 0xF JUMPI PUSH0 PUSH0 REVERT JUMPDEST POP PUSH1 0x40 MLOAD PUSH2 0x228A CODESIZE SUB DUP1 PUSH2 0x228A DUP4 CODECOPY DUP2 ADD PUSH1 0x40 DUP2 SWAP1 MSTORE PUSH2 0x2E SWAP2 PUSH2 0xEF JUMP JUMPDEST PUSH2 0x37 CALLER PUSH2 0xA0 JUMP JUMPDEST PUSH1 0x1 PUSH1 0x1 PUSH1 0xA0 SHL SUB DUP2 AND PUSH2 0x91 JUMPI PUSH1 0x40 MLOAD PUSH3 0x461BCD PUSH1 0xE5 SHL DUP2 MSTORE PUSH1 0x20 PUSH1 0x4 DUP3 ADD MSTORE PUSH1 0x1C PUSH1 0x24 DUP3 ADD MSTORE PUSH32 0x4F7261636C654D616E616765723A20696E76616C6964206F776E657200000000 PUSH1 0x44 DUP3 ADD MSTORE PUSH1 0x64 ADD PUSH1 0x40 MLOAD DUP1 SWAP2 SUB SWAP1 REVERT JUMPDEST PUSH2 0x9A DUP2 PUSH2 0xA0 JUMP JUMPDEST POP PUSH2 0x11C JUMP JUMPDEST PUSH0 DUP1 SLOAD PUSH1 0x1 PUSH1 0x1 PUSH1 0xA0 SHL SUB DUP4 DUP2 AND PUSH1 0x1 PUSH1 0x1 PUSH1 0xA0 SHL SUB NOT DUP4 AND DUP2 OR DUP5 SSTORE PUSH1 0x40 MLOAD SWAP2 SWAP1 SWAP3 AND SWAP3 DUP4 SWAP2 PUSH32 0x8BE0079C531659141344CD1FD0A4F28419497F9722A3DAAFE3B4186F6B6457E0 SWAP2 SWAP1 LOG3 POP POP JUMP JUMPDEST PUSH0 PUSH1 0x20 DUP3 DUP5 SUB SLT ISZERO PUSH2 0xFF JUMPI PUSH0 PUSH0 REVERT JUMPDEST DUP2 MLOAD PUSH1 0x1 PUSH1 0x1 PUSH1 0xA0 SHL SUB DUP2 AND DUP2 EQ PUSH2 0x115 JUMPI PUSH0 PUSH0 REVERT JUMPDEST SWAP4 SWAP3 POP POP POP JUMP JUMPDEST PUSH2 0x2161 DUP1 PUSH2 0x129 PUSH0 CODECOPY PUSH0 RETURN INVALID PUSH1 0x80 PUSH1 0x40 MSTORE CALLVALUE DUP1 ISZERO PUSH2 0xF JUMPI PUSH0 PUSH0 REVERT JUMPDEST POP PUSH1 0x4 CALLDATASIZE LT PUSH2 0x85 JUMPI PUSH0 CALLDATALOAD PUSH1 0xE0 SHR DUP1 PUSH4 0x8DA5CB5B GT PUSH2 0x58 JUMPI DUP1 PUSH4 0x8DA5CB5B EQ PUSH2 0x1E2 JUMPI DUP1 PUSH4 0x9B05FC75 EQ PUSH2 0x1FC JUMPI DUP1 PUSH4 0xF2AC1EC5 EQ PUSH2 0x20F JUMPI DUP1 PUSH4 0xF2FDE38B EQ PUSH2 0x222 JUMPI PUSH0 PUSH0 REVERT JUMPDEST DUP1 PUSH4 0x67A4B06 EQ PUSH2 0x89 JUMPI DUP1 PUSH4 0x41976E09 EQ PUSH2 0x11F JUMPI DUP1 PUSH4 0x715018A6 EQ PUSH2 0x149 JUMPI DUP1 PUSH4 0x7F4A3102 EQ PUSH2 0x153 JUMPI JUMPDEST PUSH0 PUSH0 REVERT JUMPDEST PUSH2 0xDD PUSH2 0x97 CALLDATASIZE PUSH1 0x4 PUSH2 0x1ABF JUMP JUMPDEST PUSH1 0x1 PUSH1 0x20 DUP2 SWAP1 MSTORE PUSH0 SWAP2 DUP3 MSTORE PUSH1 0x40 SWAP1 SWAP2 KECCAK256 DUP1 SLOAD SWAP2 ADD SLOAD PUSH1 0x1 PUSH1 0x1 PUSH1 0xA0 SHL SUB SWAP2 DUP3 AND SWAP2 DUP2 AND SWAP1 PUSH1 0xFF PUSH1 0x1 PUSH1 0xA0 SHL DUP3 DIV DUP2 AND SWAP2 PUSH1 0x1 PUSH1 0xA8 SHL DUP2 DIV DUP3 AND SWAP2 PUSH1 0x1 PUSH1 0xB0 SHL SWAP1 SWAP2 DIV AND DUP6 JUMP JUMPDEST PUSH1 0x40 DUP1 MLOAD PUSH1 0x1 PUSH1 0x1 PUSH1 0xA0 SHL SUB SWAP7 DUP8 AND DUP2 MSTORE SWAP6 SWAP1 SWAP5 AND PUSH1 0x20 DUP7 ADD MSTORE SWAP2 ISZERO ISZERO SWAP3 DUP5 ADD SWAP3 SWAP1 SWAP3 MSTORE PUSH1 0xFF SWAP1 SWAP2 AND PUSH1 0x60 DUP4 ADD MSTORE ISZERO ISZERO PUSH1 0x80 DUP3 ADD MSTORE PUSH1 0xA0 ADD JUMPDEST PUSH1 0x40 MLOAD DUP1 SWAP2 SUB SWAP1 RETURN JUMPDEST PUSH2 0x132 PUSH2 0x12D CALLDATASIZE PUSH1 0x4 PUSH2 0x1ABF JUMP JUMPDEST PUSH2 0x235 JUMP JUMPDEST PUSH1 0x40 DUP1 MLOAD SWAP3 DUP4 MSTORE PUSH1 0xFF SWAP1 SWAP2 AND PUSH1 0x20 DUP4 ADD MSTORE ADD PUSH2 0x116 JUMP JUMPDEST PUSH2 0x151 PUSH2 0x40D JUMP JUMPDEST STOP JUMPDEST PUSH2 0x1A7 PUSH2 0x161 CALLDATASIZE PUSH1 0x4 PUSH2 0x1ABF JUMP JUMPDEST PUSH1 0x2 PUSH1 0x20 MSTORE PUSH0 SWAP1 DUP2 MSTORE PUSH1 0x40 SWAP1 KECCAK256 DUP1 SLOAD PUSH1 0x1 SWAP1 SWAP2 ADD SLOAD PUSH1 0x1 PUSH1 0x1 PUSH1 0xA0 SHL SUB SWAP2 DUP3 AND SWAP2 DUP2 AND SWAP1 PUSH1 0xFF PUSH1 0x1 PUSH1 0xA0 SHL DUP3 DIV DUP2 AND SWAP2 PUSH1 0x1 PUSH1 0xA8 SHL DUP2 DIV DUP3 AND SWAP2 PUSH1 0x1 PUSH1 0xB0 SHL SWAP1 SWAP2 DIV AND DUP6 JUMP JUMPDEST PUSH1 0x40 DUP1 MLOAD PUSH1 0x1 PUSH1 0x1 PUSH1 0xA0 SHL SUB SWAP7 DUP8 AND DUP2 MSTORE SWAP6 SWAP1 SWAP5 AND PUSH1 0x20 DUP7 ADD MSTORE PUSH1 0xFF SWAP3 DUP4 AND SWAP4 DUP6 ADD SWAP4 SWAP1 SWAP4 MSTORE AND PUSH1 0x60 DUP4 ADD MSTORE ISZERO ISZERO PUSH1 0x80 DUP3 ADD MSTORE PUSH1 0xA0 ADD PUSH2 0x116 JUMP JUMPDEST PUSH0 SLOAD PUSH1 0x40 MLOAD PUSH1 0x1 PUSH1 0x1 PUSH1 0xA0 SHL SUB SWAP1 SWAP2 AND DUP2 MSTORE PUSH1 0x20 ADD PUSH2 0x116 JUMP JUMPDEST PUSH2 0x151 PUSH2 0x20A CALLDATASIZE PUSH1 0x4 PUSH2 0x1AE8 JUMP JUMPDEST PUSH2 0x420 JUMP JUMPDEST PUSH2 0x151 PUSH2 0x21D CALLDATASIZE PUSH1 0x4 PUSH2 0x1B62 JUMP JUMPDEST PUSH2 0x5B4 JUMP JUMPDEST PUSH2 0x151 PUSH2 0x230 CALLDATASIZE PUSH1 0x4 PUSH2 0x1ABF JUMP JUMPDEST PUSH2 0x7C3 JUMP JUMPDEST PUSH1 0x1 PUSH1 0x1 PUSH1 0xA0 SHL SUB DUP1 DUP3 AND PUSH0 SWAP1 DUP2 MSTORE PUSH1 0x1 PUSH1 0x20 DUP2 DUP2 MSTORE PUSH1 0x40 DUP1 DUP5 KECCAK256 DUP2 MLOAD PUSH1 0xA0 DUP2 ADD DUP4 MSTORE DUP2 SLOAD DUP8 AND DUP1 DUP3 MSTORE SWAP2 SWAP1 SWAP5 ADD SLOAD SWAP6 DUP7 AND SWAP3 DUP5 ADD SWAP3 SWAP1 SWAP3 MSTORE PUSH1 0xFF PUSH1 0x1 PUSH1 0xA0 SHL DUP7 DIV DUP2 AND ISZERO ISZERO SWAP2 DUP5 ADD SWAP2 SWAP1 SWAP2 MSTORE PUSH1 0x1 PUSH1 0xA8 SHL DUP6 DIV DUP2 AND PUSH1 0x60 DUP5 ADD MSTORE PUSH1 0x1 PUSH1 0xB0 SHL SWAP1 SWAP5 DIV SWAP1 SWAP4 AND ISZERO ISZERO PUSH1 0x80 DUP3 ADD MSTORE SWAP1 SWAP2 DUP3 SWAP2 SWAP1 ISZERO ISZERO DUP1 PUSH2 0x2B5 JUMPI POP DUP1 PUSH1 0x80 ADD MLOAD JUMPDEST PUSH2 0x317 JUMPI PUSH1 0x40 MLOAD PUSH3 0x461BCD PUSH1 0xE5 SHL DUP2 MSTORE PUSH1 0x20 PUSH1 0x4 DUP3 ADD MSTORE PUSH1 0x28 PUSH1 0x24 DUP3 ADD MSTORE PUSH32 0x4F7261636C654D616E616765723A206E6F2061676772656761746F722F766175 PUSH1 0x44 DUP3 ADD MSTORE PUSH8 0x6C74206C6F676963 PUSH1 0xC0 SHL PUSH1 0x64 DUP3 ADD MSTORE PUSH1 0x84 ADD JUMPDEST PUSH1 0x40 MLOAD DUP1 SWAP2 SUB SWAP1 REVERT JUMPDEST DUP1 PUSH1 0x80 ADD MLOAD PUSH2 0x333 JUMPI PUSH2 0x329 DUP2 PUSH2 0x83C JUMP JUMPDEST SWAP1 SWAP4 POP SWAP2 POP PUSH2 0x407 JUMP JUMPDEST PUSH1 0x1 PUSH1 0x1 PUSH1 0xA0 SHL SUB DUP1 DUP6 AND PUSH0 SWAP1 DUP2 MSTORE PUSH1 0x2 PUSH1 0x20 SWAP1 DUP2 MSTORE PUSH1 0x40 SWAP2 DUP3 SWAP1 KECCAK256 DUP3 MLOAD PUSH1 0xA0 DUP2 ADD DUP5 MSTORE DUP2 SLOAD DUP6 AND DUP2 MSTORE PUSH1 0x1 SWAP1 SWAP2 ADD SLOAD SWAP4 DUP5 AND SWAP2 DUP2 ADD SWAP2 SWAP1 SWAP2 MSTORE PUSH1 0xFF PUSH1 0x1 PUSH1 0xA0 SHL DUP5 DIV DUP2 AND SWAP3 DUP3 ADD SWAP3 SWAP1 SWAP3 MSTORE PUSH1 0x1 PUSH1 0xA8 SHL DUP4 DIV DUP3 AND PUSH1 0x60 DUP3 ADD MSTORE PUSH1 0x1 PUSH1 0xB0 SHL SWAP1 SWAP3 DIV AND ISZERO ISZERO PUSH1 0x80 DUP3 ADD DUP2 SWAP1 MSTORE PUSH2 0x3F6 JUMPI PUSH1 0x40 MLOAD PUSH3 0x461BCD PUSH1 0xE5 SHL DUP2 MSTORE PUSH1 0x20 PUSH1 0x4 DUP3 ADD MSTORE PUSH1 0x22 PUSH1 0x24 DUP3 ADD MSTORE PUSH32 0x4F7261636C654D616E616765723A207661756C74206665656473206E6F742073 PUSH1 0x44 DUP3 ADD MSTORE PUSH2 0x195D PUSH1 0xF2 SHL PUSH1 0x64 DUP3 ADD MSTORE PUSH1 0x84 ADD PUSH2 0x30E JUMP JUMPDEST PUSH2 0x400 DUP6 DUP3 PUSH2 0x971 JUMP JUMPDEST SWAP1 SWAP5 POP SWAP3 POP POP JUMPDEST POP SWAP2 POP SWAP2 JUMP JUMPDEST PUSH2 0x415 PUSH2 0xAE1 JUMP JUMPDEST PUSH2 0x41E PUSH0 PUSH2 0xB3A JUMP JUMPDEST JUMP JUMPDEST PUSH2 0x428 PUSH2 0xAE1 JUMP JUMPDEST PUSH1 0x1 PUSH1 0x1 PUSH1 0xA0 SHL SUB DUP6 AND PUSH2 0x488 JUMPI PUSH1 0x40 MLOAD PUSH3 0x461BCD PUSH1 0xE5 SHL DUP2 MSTORE PUSH1 0x20 PUSH1 0x4 DUP3 ADD MSTORE PUSH1 0x21 PUSH1 0x24 DUP3 ADD MSTORE PUSH32 0x4F7261636C654D616E616765723A20696E76616C6964207661756C74546F6B65 PUSH1 0x44 DUP3 ADD MSTORE PUSH1 0x37 PUSH1 0xF9 SHL PUSH1 0x64 DUP3 ADD MSTORE PUSH1 0x84 ADD PUSH2 0x30E JUMP JUMPDEST PUSH1 0x40 DUP1 MLOAD PUSH1 0xA0 DUP2 ADD DUP3 MSTORE PUSH1 0x1 PUSH1 0x1 PUSH1 0xA0 SHL SUB DUP1 DUP8 AND DUP3 MSTORE DUP6 DUP2 AND PUSH1 0x20 DUP1 DUP5 ADD SWAP2 DUP3 MSTORE PUSH1 0xFF DUP1 DUP9 AND DUP6 DUP8 ADD SWAP1 DUP2 MSTORE DUP8 DUP3 AND PUSH1 0x60 DUP8 ADD SWAP1 DUP2 MSTORE PUSH1 0x1 PUSH1 0x80 DUP9 ADD DUP2 DUP2 MSTORE DUP15 DUP9 AND PUSH0 DUP2 DUP2 MSTORE PUSH1 0x2 SWAP1 SWAP8 MSTORE SWAP6 DUP11 SWAP1 KECCAK256 SWAP9 MLOAD DUP10 SLOAD SWAP1 DUP10 AND PUSH1 0x1 PUSH1 0x1 PUSH1 0xA0 SHL SUB NOT SWAP1 SWAP2 AND OR DUP10 SSTORE SWAP6 MLOAD SWAP8 ADD DUP1 SLOAD SWAP3 MLOAD SWAP2 MLOAD SWAP6 MLOAD ISZERO ISZERO PUSH1 0x1 PUSH1 0xB0 SHL MUL PUSH1 0xFF PUSH1 0xB0 SHL NOT SWAP7 DUP6 AND PUSH1 0x1 PUSH1 0xA8 SHL MUL SWAP7 SWAP1 SWAP7 AND PUSH2 0xFFFF PUSH1 0xA8 SHL NOT SWAP3 SWAP1 SWAP5 AND PUSH1 0x1 PUSH1 0xA0 SHL MUL PUSH1 0x1 PUSH1 0x1 PUSH1 0xA8 SHL SUB NOT SWAP1 SWAP4 AND SWAP8 SWAP1 SWAP7 AND SWAP7 SWAP1 SWAP7 OR OR SWAP5 SWAP1 SWAP5 AND SWAP4 SWAP1 SWAP4 OR OR SWAP1 SSTORE SWAP1 MLOAD PUSH32 0x2FB5936F285B062770BA9AA206CA7282EBB8F84AD2EDA1C664B3059E9C62C1BA SWAP1 PUSH2 0x5A5 SWAP1 DUP8 SWAP1 DUP8 SWAP1 DUP8 SWAP1 DUP8 SWAP1 PUSH1 0x1 PUSH1 0x1 PUSH1 0xA0 SHL SUB SWAP5 DUP6 AND DUP2 MSTORE SWAP3 SWAP1 SWAP4 AND PUSH1 0x20 DUP4 ADD MSTORE PUSH1 0xFF SWAP1 DUP2 AND PUSH1 0x40 DUP4 ADD MSTORE SWAP2 SWAP1 SWAP2 AND PUSH1 0x60 DUP3 ADD MSTORE PUSH1 0x80 ADD SWAP1 JUMP JUMPDEST PUSH1 0x40 MLOAD DUP1 SWAP2 SUB SWAP1 LOG2 POP POP POP POP POP JUMP JUMPDEST PUSH2 0x5BC PUSH2 0xAE1 JUMP JUMPDEST PUSH1 0x1 PUSH1 0x1 PUSH1 0xA0 SHL SUB DUP7 AND PUSH2 0x612 JUMPI PUSH1 0x40 MLOAD PUSH3 0x461BCD PUSH1 0xE5 SHL DUP2 MSTORE PUSH1 0x20 PUSH1 0x4 DUP3 ADD MSTORE PUSH1 0x1C PUSH1 0x24 DUP3 ADD MSTORE PUSH32 0x4F7261636C654D616E616765723A20696E76616C696420746F6B656E00000000 PUSH1 0x44 DUP3 ADD MSTORE PUSH1 0x64 ADD PUSH2 0x30E JUMP JUMPDEST DUP1 PUSH2 0x686 JUMPI PUSH1 0x1 PUSH1 0x1 PUSH1 0xA0 SHL SUB DUP6 AND PUSH2 0x686 JUMPI PUSH1 0x40 MLOAD PUSH3 0x461BCD PUSH1 0xE5 SHL DUP2 MSTORE PUSH1 0x20 PUSH1 0x4 DUP3 ADD MSTORE PUSH1 0x30 PUSH1 0x24 DUP3 ADD MSTORE PUSH32 0x4F7261636C654D616E616765723A2061676772656761746F7220726571756972 PUSH1 0x44 DUP3 ADD MSTORE PUSH16 0x195908199BDC881B9BDB8B5D985D5B1D PUSH1 0x82 SHL PUSH1 0x64 DUP3 ADD MSTORE PUSH1 0x84 ADD PUSH2 0x30E JUMP JUMPDEST PUSH1 0x40 DUP1 MLOAD PUSH1 0xA0 DUP2 ADD DUP3 MSTORE PUSH1 0x1 PUSH1 0x1 PUSH1 0xA0 SHL SUB DUP1 DUP9 AND DUP3 MSTORE DUP7 DUP2 AND PUSH1 0x20 DUP1 DUP5 ADD SWAP2 DUP3 MSTORE DUP8 ISZERO ISZERO DUP5 DUP7 ADD SWAP1 DUP2 MSTORE PUSH1 0xFF DUP1 DUP10 AND PUSH1 0x60 DUP8 ADD SWAP1 DUP2 MSTORE DUP9 ISZERO ISZERO PUSH1 0x80 DUP9 ADD SWAP1 DUP2 MSTORE DUP15 DUP8 AND PUSH0 DUP2 DUP2 MSTORE PUSH1 0x1 SWAP7 DUP8 SWAP1 MSTORE DUP11 SWAP1 KECCAK256 SWAP9 MLOAD DUP10 SLOAD SWAP1 DUP10 AND PUSH1 0x1 PUSH1 0x1 PUSH1 0xA0 SHL SUB NOT SWAP1 SWAP2 AND OR DUP10 SSTORE SWAP6 MLOAD SWAP8 SWAP1 SWAP5 ADD DUP1 SLOAD SWAP4 MLOAD SWAP2 MLOAD SWAP5 MLOAD ISZERO ISZERO PUSH1 0x1 PUSH1 0xB0 SHL MUL PUSH1 0xFF PUSH1 0xB0 SHL NOT SWAP6 SWAP1 SWAP4 AND PUSH1 0x1 PUSH1 0xA8 SHL MUL SWAP5 SWAP1 SWAP5 AND PUSH2 0xFFFF PUSH1 0xA8 SHL NOT SWAP2 ISZERO ISZERO PUSH1 0x1 PUSH1 0xA0 SHL MUL PUSH1 0x1 PUSH1 0x1 PUSH1 0xA8 SHL SUB NOT SWAP1 SWAP5 AND SWAP8 SWAP1 SWAP7 AND SWAP7 SWAP1 SWAP7 OR SWAP2 SWAP1 SWAP2 OR SWAP5 SWAP1 SWAP5 AND SWAP3 SWAP1 SWAP3 OR SWAP3 SWAP1 SWAP3 OR SWAP1 SSTORE SWAP1 MLOAD PUSH32 0x5BE58A9EEF853F8AE7393174434D0BE93DAAD7445510F6CE6E914B2F297885B8 SWAP1 PUSH2 0x7B3 SWAP1 DUP9 SWAP1 DUP9 SWAP1 DUP9 SWAP1 DUP9 SWAP1 DUP9 SWAP1 PUSH1 0x1 PUSH1 0x1 PUSH1 0xA0 SHL SUB SWAP6 DUP7 AND DUP2 MSTORE SWAP4 SWAP1 SWAP5 AND PUSH1 0x20 DUP5 ADD MSTORE SWAP1 ISZERO ISZERO PUSH1 0x40 DUP4 ADD MSTORE PUSH1 0xFF AND PUSH1 0x60 DUP3 ADD MSTORE SWAP1 ISZERO ISZERO PUSH1 0x80 DUP3 ADD MSTORE PUSH1 0xA0 ADD SWAP1 JUMP JUMPDEST PUSH1 0x40 MLOAD DUP1 SWAP2 SUB SWAP1 LOG2 POP POP POP POP POP POP JUMP JUMPDEST PUSH2 0x7CB PUSH2 0xAE1 JUMP JUMPDEST PUSH1 0x1 PUSH1 0x1 PUSH1 0xA0 SHL SUB DUP2 AND PUSH2 0x830 JUMPI PUSH1 0x40 MLOAD PUSH3 0x461BCD PUSH1 0xE5 SHL DUP2 MSTORE PUSH1 0x20 PUSH1 0x4 DUP3 ADD MSTORE PUSH1 0x26 PUSH1 0x24 DUP3 ADD MSTORE PUSH32 0x4F776E61626C653A206E6577206F776E657220697320746865207A65726F2061 PUSH1 0x44 DUP3 ADD MSTORE PUSH6 0x646472657373 PUSH1 0xD0 SHL PUSH1 0x64 DUP3 ADD MSTORE PUSH1 0x84 ADD PUSH2 0x30E JUMP JUMPDEST PUSH2 0x839 DUP2 PUSH2 0xB3A JUMP JUMPDEST POP JUMP JUMPDEST PUSH0 PUSH0 PUSH0 PUSH0 PUSH0 PUSH2 0x852 DUP7 PUSH0 ADD MLOAD DUP8 PUSH1 0x60 ADD MLOAD PUSH2 0xB89 JUMP JUMPDEST SWAP3 POP SWAP3 POP SWAP3 POP DUP3 ISZERO DUP1 ISZERO PUSH2 0x867 JUMPI POP DUP6 PUSH1 0x40 ADD MLOAD JUMPDEST DUP1 ISZERO PUSH2 0x87F JUMPI POP PUSH1 0x20 DUP7 ADD MLOAD PUSH1 0x1 PUSH1 0x1 PUSH1 0xA0 SHL SUB AND ISZERO ISZERO JUMPDEST ISZERO PUSH2 0x90A JUMPI PUSH0 PUSH0 PUSH0 PUSH2 0x899 DUP10 PUSH1 0x20 ADD MLOAD DUP11 PUSH1 0x60 ADD MLOAD PUSH2 0xB89 JUMP JUMPDEST SWAP3 POP SWAP3 POP SWAP3 POP DUP3 PUSH2 0x8FC JUMPI PUSH1 0x40 MLOAD PUSH3 0x461BCD PUSH1 0xE5 SHL DUP2 MSTORE PUSH1 0x20 PUSH1 0x4 DUP3 ADD MSTORE PUSH1 0x27 PUSH1 0x24 DUP3 ADD MSTORE PUSH32 0x4F7261636C654D616E616765723A2066616C6C6261636B206167677265676174 PUSH1 0x44 DUP3 ADD MSTORE PUSH7 0x1BDC8819985A5B PUSH1 0xCA SHL PUSH1 0x64 DUP3 ADD MSTORE PUSH1 0x84 ADD PUSH2 0x30E JUMP JUMPDEST SWAP1 SWAP9 SWAP1 SWAP8 POP SWAP6 POP POP POP POP POP POP JUMP JUMPDEST DUP3 PUSH2 0x966 JUMPI PUSH1 0x40 MLOAD PUSH3 0x461BCD PUSH1 0xE5 SHL DUP2 MSTORE PUSH1 0x20 PUSH1 0x4 DUP3 ADD MSTORE PUSH1 0x26 PUSH1 0x24 DUP3 ADD MSTORE PUSH32 0x4F7261636C654D616E616765723A207072696D6172792061676772656761746F PUSH1 0x44 DUP3 ADD MSTORE PUSH6 0x1C8819985A5B PUSH1 0xD2 SHL PUSH1 0x64 DUP3 ADD MSTORE PUSH1 0x84 ADD PUSH2 0x30E JUMP JUMPDEST SWAP1 SWAP6 SWAP1 SWAP5 POP SWAP3 POP POP POP JUMP JUMPDEST PUSH0 PUSH0 PUSH0 PUSH0 PUSH0 PUSH2 0x97F DUP8 PUSH2 0xD69 JUMP JUMPDEST SWAP3 POP SWAP3 POP SWAP3 POP PUSH0 PUSH2 0x990 DUP3 DUP5 PUSH2 0xFA8 JUMP JUMPDEST SWAP1 POP PUSH0 PUSH0 PUSH2 0x9FC DUP11 PUSH1 0x1 PUSH1 0x1 PUSH1 0xA0 SHL SUB AND PUSH4 0x3A924D5B PUSH1 0x40 MLOAD DUP2 PUSH4 0xFFFFFFFF AND PUSH1 0xE0 SHL DUP2 MSTORE PUSH1 0x4 ADD PUSH1 0x20 PUSH1 0x40 MLOAD DUP1 DUP4 SUB DUP2 DUP7 GAS STATICCALL ISZERO DUP1 ISZERO PUSH2 0x9D3 JUMPI RETURNDATASIZE PUSH0 PUSH0 RETURNDATACOPY RETURNDATASIZE PUSH0 REVERT JUMPDEST POP POP POP POP PUSH1 0x40 MLOAD RETURNDATASIZE PUSH1 0x1F NOT PUSH1 0x1F DUP3 ADD AND DUP3 ADD DUP1 PUSH1 0x40 MSTORE POP DUP2 ADD SWAP1 PUSH2 0x9F7 SWAP2 SWAP1 PUSH2 0x1BE0 JUMP JUMPDEST PUSH2 0x1196 JUMP JUMPDEST SWAP2 POP SWAP2 POP PUSH0 PUSH0 PUSH2 0xA1A DUP5 DUP7 PUSH1 0x40 ADD MLOAD DUP8 PUSH1 0x60 ADD MLOAD DUP9 PUSH1 0x80 ADD MLOAD PUSH2 0x12C1 JUMP JUMPDEST SWAP2 POP SWAP2 POP PUSH0 DUP6 PUSH1 0xA0 ADD MLOAD PUSH1 0x1 PUSH1 0x1 PUSH1 0x80 SHL SUB AND DUP4 PUSH2 0xA38 SWAP2 SWAP1 PUSH2 0x1C0F JUMP JUMPDEST SWAP1 POP PUSH0 DUP7 PUSH1 0xC0 ADD MLOAD PUSH1 0x1 PUSH1 0x1 PUSH1 0x80 SHL SUB AND DUP4 PUSH2 0xA54 SWAP2 SWAP1 PUSH2 0x1C0F JUMP JUMPDEST SWAP1 POP PUSH0 PUSH1 0x40 MLOAD DUP1 PUSH1 0x80 ADD PUSH1 0x40 MSTORE DUP1 DUP16 PUSH0 ADD MLOAD PUSH1 0x1 PUSH1 0x1 PUSH1 0xA0 SHL SUB AND DUP2 MSTORE PUSH1 0x20 ADD DUP16 PUSH1 0x20 ADD MLOAD PUSH1 0x1 PUSH1 0x1 PUSH1 0xA0 SHL SUB AND DUP2 MSTORE PUSH1 0x20 ADD DUP16 PUSH1 0x40 ADD MLOAD PUSH1 0xFF AND DUP2 MSTORE PUSH1 0x20 ADD DUP16 PUSH1 0x60 ADD MLOAD PUSH1 0xFF AND DUP2 MSTORE POP SWAP1 POP PUSH0 PUSH2 0xAAD DUP5 DUP5 DUP5 PUSH2 0x1312 JUMP JUMPDEST SWAP1 POP DUP12 ISZERO PUSH2 0xABB JUMPI DUP12 PUSH2 0xABE JUMP JUMPDEST PUSH1 0x1 JUMPDEST PUSH2 0xAC8 SWAP1 DUP3 PUSH2 0x1C36 JUMP JUMPDEST SWAP14 POP PUSH1 0x8 SWAP13 POP POP POP POP POP POP POP POP POP POP POP POP POP SWAP3 POP SWAP3 SWAP1 POP JUMP JUMPDEST PUSH0 SLOAD PUSH1 0x1 PUSH1 0x1 PUSH1 0xA0 SHL SUB AND CALLER EQ PUSH2 0x41E JUMPI PUSH1 0x40 MLOAD PUSH3 0x461BCD PUSH1 0xE5 SHL DUP2 MSTORE PUSH1 0x20 PUSH1 0x4 DUP3 ADD DUP2 SWAP1 MSTORE PUSH1 0x24 DUP3 ADD MSTORE PUSH32 0x4F776E61626C653A2063616C6C6572206973206E6F7420746865206F776E6572 PUSH1 0x44 DUP3 ADD MSTORE PUSH1 0x64 ADD PUSH2 0x30E JUMP JUMPDEST PUSH0 DUP1 SLOAD PUSH1 0x1 PUSH1 0x1 PUSH1 0xA0 SHL SUB DUP4 DUP2 AND PUSH1 0x1 PUSH1 0x1 PUSH1 0xA0 SHL SUB NOT DUP4 AND DUP2 OR DUP5 SSTORE PUSH1 0x40 MLOAD SWAP2 SWAP1 SWAP3 AND SWAP3 DUP4 SWAP2 PUSH32 0x8BE0079C531659141344CD1FD0A4F28419497F9722A3DAAFE3B4186F6B6457E0 SWAP2 SWAP1 LOG3 POP POP JUMP JUMPDEST PUSH0 DUP1 DUP1 PUSH1 0x1 PUSH1 0x1 PUSH1 0xA0 SHL SUB DUP6 AND PUSH2 0xBA7 JUMPI POP PUSH0 SWAP2 POP DUP2 SWAP1 POP DUP1 PUSH2 0xD62 JUMP JUMPDEST PUSH1 0x40 DUP1 MLOAD PUSH1 0x4 DUP2 MSTORE PUSH1 0x24 DUP2 ADD DUP3 MSTORE PUSH1 0x20 DUP2 ADD DUP1 MLOAD PUSH1 0x1 PUSH1 0x1 PUSH1 0xE0 SHL SUB AND PUSH4 0x3FABE5A3 PUSH1 0xE2 SHL OR SWAP1 MSTORE SWAP1 MLOAD PUSH0 SWAP1 DUP2 SWAP1 PUSH1 0x1 PUSH1 0x1 PUSH1 0xA0 SHL SUB DUP10 AND SWAP1 PUSH2 0xBEB SWAP1 DUP6 SWAP1 PUSH2 0x1C77 JUMP JUMPDEST PUSH0 PUSH1 0x40 MLOAD DUP1 DUP4 SUB DUP2 DUP6 GAS STATICCALL SWAP2 POP POP RETURNDATASIZE DUP1 PUSH0 DUP2 EQ PUSH2 0xC23 JUMPI PUSH1 0x40 MLOAD SWAP2 POP PUSH1 0x1F NOT PUSH1 0x3F RETURNDATASIZE ADD AND DUP3 ADD PUSH1 0x40 MSTORE RETURNDATASIZE DUP3 MSTORE RETURNDATASIZE PUSH0 PUSH1 0x20 DUP5 ADD RETURNDATACOPY PUSH2 0xC28 JUMP JUMPDEST PUSH1 0x60 SWAP2 POP JUMPDEST POP SWAP2 POP SWAP2 POP DUP2 ISZERO DUP1 PUSH2 0xC3B JUMPI POP PUSH1 0xA0 DUP2 MLOAD LT JUMPDEST ISZERO PUSH2 0xC51 JUMPI PUSH0 PUSH0 PUSH0 SWAP6 POP SWAP6 POP SWAP6 POP POP POP POP PUSH2 0xD62 JUMP JUMPDEST PUSH0 DUP2 DUP1 PUSH1 0x20 ADD SWAP1 MLOAD DUP2 ADD SWAP1 PUSH2 0xC66 SWAP2 SWAP1 PUSH2 0x1CB0 JUMP JUMPDEST POP POP POP SWAP2 POP POP PUSH0 DUP2 SGT PUSH2 0xC85 JUMPI PUSH0 PUSH0 PUSH0 SWAP7 POP SWAP7 POP SWAP7 POP POP POP POP POP PUSH2 0xD62 JUMP JUMPDEST DUP8 PUSH1 0xFF DUP2 AND PUSH0 SUB PUSH2 0xD55 JUMPI PUSH1 0x40 DUP1 MLOAD PUSH1 0x4 DUP2 MSTORE PUSH1 0x24 DUP2 ADD DUP3 MSTORE PUSH1 0x20 DUP2 ADD DUP1 MLOAD PUSH1 0x1 PUSH1 0x1 PUSH1 0xE0 SHL SUB AND PUSH4 0x313CE567 PUSH1 0xE0 SHL OR SWAP1 MSTORE SWAP1 MLOAD PUSH0 SWAP2 DUP3 SWAP2 PUSH1 0x1 PUSH1 0x1 PUSH1 0xA0 SHL SUB DUP15 AND SWAP2 PUSH2 0xCD2 SWAP2 PUSH2 0x1C77 JUMP JUMPDEST PUSH0 PUSH1 0x40 MLOAD DUP1 DUP4 SUB DUP2 DUP6 GAS STATICCALL SWAP2 POP POP RETURNDATASIZE DUP1 PUSH0 DUP2 EQ PUSH2 0xD0A JUMPI PUSH1 0x40 MLOAD SWAP2 POP PUSH1 0x1F NOT PUSH1 0x3F RETURNDATASIZE ADD AND DUP3 ADD PUSH1 0x40 MSTORE RETURNDATASIZE DUP3 MSTORE RETURNDATASIZE PUSH0 PUSH1 0x20 DUP5 ADD RETURNDATACOPY PUSH2 0xD0F JUMP JUMPDEST PUSH1 0x60 SWAP2 POP JUMPDEST POP SWAP2 POP SWAP2 POP DUP2 ISZERO DUP1 PUSH2 0xD22 JUMPI POP PUSH1 0x20 DUP2 MLOAD LT JUMPDEST ISZERO PUSH2 0xD3C JUMPI PUSH0 PUSH0 PUSH0 SWAP10 POP SWAP10 POP SWAP10 POP POP POP POP POP POP POP POP PUSH2 0xD62 JUMP JUMPDEST DUP1 DUP1 PUSH1 0x20 ADD SWAP1 MLOAD DUP2 ADD SWAP1 PUSH2 0xD50 SWAP2 SWAP1 PUSH2 0x1CFE JUMP JUMPDEST SWAP3 POP POP POP JUMPDEST PUSH1 0x1 SWAP8 POP SWAP1 SWAP6 POP SWAP4 POP POP POP POP JUMPDEST SWAP3 POP SWAP3 POP SWAP3 JUMP JUMPDEST PUSH0 PUSH0 PUSH0 PUSH0 DUP5 SWAP1 POP DUP1 PUSH1 0x1 PUSH1 0x1 PUSH1 0xA0 SHL SUB AND PUSH4 0x18160DDD PUSH1 0x40 MLOAD DUP2 PUSH4 0xFFFFFFFF AND PUSH1 0xE0 SHL DUP2 MSTORE PUSH1 0x4 ADD PUSH1 0x20 PUSH1 0x40 MLOAD DUP1 DUP4 SUB DUP2 DUP7 GAS STATICCALL ISZERO DUP1 ISZERO PUSH2 0xDAC JUMPI RETURNDATASIZE PUSH0 PUSH0 RETURNDATACOPY RETURNDATASIZE PUSH0 REVERT JUMPDEST POP POP POP POP PUSH1 0x40 MLOAD RETURNDATASIZE PUSH1 0x1F NOT PUSH1 0x1F DUP3 ADD AND DUP3 ADD DUP1 PUSH1 0x40 MSTORE POP DUP2 ADD SWAP1 PUSH2 0xDD0 SWAP2 SWAP1 PUSH2 0x1D19 JUMP JUMPDEST SWAP4 POP PUSH0 DUP5 GT PUSH2 0xE2C JUMPI PUSH1 0x40 MLOAD PUSH3 0x461BCD PUSH1 0xE5 SHL DUP2 MSTORE PUSH1 0x20 PUSH1 0x4 DUP3 ADD MSTORE PUSH1 0x22 PUSH1 0x24 DUP3 ADD MSTORE PUSH32 0x4F7261636C654D616E616765723A207661756C7420746F74616C537570706C79 PUSH1 0x44 DUP3 ADD MSTORE PUSH2 0x3D3 PUSH1 0xF4 SHL PUSH1 0x64 DUP3 ADD MSTORE PUSH1 0x84 ADD PUSH2 0x30E JUMP JUMPDEST DUP1 PUSH1 0x1 PUSH1 0x1 PUSH1 0xA0 SHL SUB AND PUSH4 0xF657A7FE PUSH1 0x40 MLOAD DUP2 PUSH4 0xFFFFFFFF AND PUSH1 0xE0 SHL DUP2 MSTORE PUSH1 0x4 ADD PUSH1 0x20 PUSH1 0x40 MLOAD DUP1 DUP4 SUB DUP2 DUP7 GAS STATICCALL ISZERO DUP1 ISZERO PUSH2 0xE68 JUMPI RETURNDATASIZE PUSH0 PUSH0 RETURNDATACOPY RETURNDATASIZE PUSH0 REVERT JUMPDEST POP POP POP POP PUSH1 0x40 MLOAD RETURNDATASIZE PUSH1 0x1F NOT PUSH1 0x1F DUP3 ADD AND DUP3 ADD DUP1 PUSH1 0x40 MSTORE POP DUP2 ADD SWAP1 PUSH2 0xE8C SWAP2 SWAP1 PUSH2 0x1D19 JUMP JUMPDEST SWAP3 POP DUP3 PUSH0 SUB PUSH2 0xEDD JUMPI PUSH1 0x40 MLOAD PUSH3 0x461BCD PUSH1 0xE5 SHL DUP2 MSTORE PUSH1 0x20 PUSH1 0x4 DUP3 ADD MSTORE PUSH1 0x1E PUSH1 0x24 DUP3 ADD MSTORE PUSH32 0x4F7261636C654D616E616765723A206E6F204E465420696E207661756C740000 PUSH1 0x44 DUP3 ADD MSTORE PUSH1 0x64 ADD PUSH2 0x30E JUMP JUMPDEST DUP1 PUSH1 0x1 PUSH1 0x1 PUSH1 0xA0 SHL SUB AND PUSH4 0x791B98BC PUSH1 0x40 MLOAD DUP2 PUSH4 0xFFFFFFFF AND PUSH1 0xE0 SHL DUP2 MSTORE PUSH1 0x4 ADD PUSH1 0x20 PUSH1 0x40 MLOAD DUP1 DUP4 SUB DUP2 DUP7 GAS STATICCALL ISZERO DUP1 ISZERO PUSH2 0xF19 JUMPI RETURNDATASIZE PUSH0 PUSH0 RETURNDATACOPY RETURNDATASIZE PUSH0 REVERT JUMPDEST POP POP POP POP PUSH1 0x40 MLOAD RETURNDATASIZE PUSH1 0x1F NOT PUSH1 0x1F DUP3 ADD AND DUP3 ADD DUP1 PUSH1 0x40 MSTORE POP DUP2 ADD SWAP1 PUSH2 0xF3D SWAP2 SWAP1 PUSH2 0x1BE0 JUMP JUMPDEST SWAP2 POP PUSH1 0x1 PUSH1 0x1 PUSH1 0xA0 SHL SUB DUP3 AND PUSH2 0xFA0 JUMPI PUSH1 0x40 MLOAD PUSH3 0x461BCD PUSH1 0xE5 SHL DUP2 MSTORE PUSH1 0x20 PUSH1 0x4 DUP3 ADD MSTORE PUSH1 0x22 PUSH1 0x24 DUP3 ADD MSTORE PUSH32 0x4F7261636C654D616E616765723A20696E76616C696420706F736974696F6E4D PUSH1 0x44 DUP3 ADD MSTORE PUSH2 0x33B9 PUSH1 0xF1 SHL PUSH1 0x64 DUP3 ADD MSTORE PUSH1 0x84 ADD PUSH2 0x30E JUMP JUMPDEST POP SWAP2 SWAP4 SWAP1 SWAP3 POP JUMP JUMPDEST PUSH1 0x40 DUP1 MLOAD PUSH1 0xE0 DUP2 ADD DUP3 MSTORE PUSH0 DUP1 DUP3 MSTORE PUSH1 0x20 DUP3 ADD DUP2 SWAP1 MSTORE SWAP2 DUP2 ADD DUP3 SWAP1 MSTORE PUSH1 0x60 DUP2 ADD DUP3 SWAP1 MSTORE PUSH1 0x80 DUP2 ADD DUP3 SWAP1 MSTORE PUSH1 0xA0 DUP2 ADD DUP3 SWAP1 MSTORE PUSH1 0xC0 DUP2 ADD SWAP2 SWAP1 SWAP2 MSTORE PUSH0 PUSH0 DUP5 PUSH1 0x1 PUSH1 0x1 PUSH1 0xA0 SHL SUB AND PUSH4 0x99FBAB88 PUSH1 0xE0 SHL DUP6 PUSH1 0x40 MLOAD PUSH1 0x24 ADD PUSH2 0x1007 SWAP2 DUP2 MSTORE PUSH1 0x20 ADD SWAP1 JUMP JUMPDEST PUSH1 0x40 DUP1 MLOAD PUSH1 0x1F NOT DUP2 DUP5 SUB ADD DUP2 MSTORE SWAP2 DUP2 MSTORE PUSH1 0x20 DUP3 ADD DUP1 MLOAD PUSH1 0x1 PUSH1 0x1 PUSH1 0xE0 SHL SUB AND PUSH1 0x1 PUSH1 0x1 PUSH1 0xE0 SHL SUB NOT SWAP1 SWAP5 AND SWAP4 SWAP1 SWAP4 OR SWAP1 SWAP3 MSTORE SWAP1 MLOAD PUSH2 0x1045 SWAP2 SWAP1 PUSH2 0x1C77 JUMP JUMPDEST PUSH0 PUSH1 0x40 MLOAD DUP1 DUP4 SUB DUP2 DUP6 GAS STATICCALL SWAP2 POP POP RETURNDATASIZE DUP1 PUSH0 DUP2 EQ PUSH2 0x107D JUMPI PUSH1 0x40 MLOAD SWAP2 POP PUSH1 0x1F NOT PUSH1 0x3F RETURNDATASIZE ADD AND DUP3 ADD PUSH1 0x40 MSTORE RETURNDATASIZE DUP3 MSTORE RETURNDATASIZE PUSH0 PUSH1 0x20 DUP5 ADD RETURNDATACOPY PUSH2 0x1082 JUMP JUMPDEST PUSH1 0x60 SWAP2 POP JUMPDEST POP SWAP2 POP SWAP2 POP DUP2 PUSH2 0x1091 DUP3 PUSH2 0x1354 JUMP JUMPDEST SWAP1 PUSH2 0x10AF JUMPI PUSH1 0x40 MLOAD PUSH3 0x461BCD PUSH1 0xE5 SHL DUP2 MSTORE PUSH1 0x4 ADD PUSH2 0x30E SWAP2 SWAP1 PUSH2 0x1D30 JUMP JUMPDEST POP DUP1 DUP1 PUSH1 0x20 ADD SWAP1 MLOAD DUP2 ADD SWAP1 PUSH2 0x10C4 SWAP2 SWAP1 PUSH2 0x1DA6 JUMP JUMPDEST SWAP1 SWAP2 SWAP3 SWAP4 SWAP5 SWAP6 SWAP7 SWAP8 SWAP9 SWAP10 SWAP11 POP SWAP1 SWAP2 SWAP3 SWAP4 SWAP5 SWAP6 SWAP7 SWAP8 SWAP9 SWAP10 POP SWAP1 SWAP2 SWAP3 SWAP4 SWAP5 SWAP6 SWAP7 POP SWAP1 SWAP2 SWAP3 POP SWAP1 SWAP2 POP DUP10 PUSH0 ADD DUP11 PUSH1 0x20 ADD DUP12 PUSH1 0x40 ADD DUP13 PUSH1 0x60 ADD DUP14 PUSH1 0x80 ADD DUP15 PUSH1 0xA0 ADD DUP16 PUSH1 0xC0 ADD DUP8 PUSH1 0x1 PUSH1 0x1 PUSH1 0x80 SHL SUB AND PUSH1 0x1 PUSH1 0x1 PUSH1 0x80 SHL SUB AND DUP2 MSTORE POP DUP8 PUSH1 0x1 PUSH1 0x1 PUSH1 0x80 SHL SUB AND PUSH1 0x1 PUSH1 0x1 PUSH1 0x80 SHL SUB AND DUP2 MSTORE POP DUP8 PUSH1 0x1 PUSH1 0x1 PUSH1 0x80 SHL SUB AND PUSH1 0x1 PUSH1 0x1 PUSH1 0x80 SHL SUB AND DUP2 MSTORE POP DUP8 PUSH1 0x2 SIGNEXTEND PUSH1 0x2 SIGNEXTEND DUP2 MSTORE POP DUP8 PUSH1 0x2 SIGNEXTEND PUSH1 0x2 SIGNEXTEND DUP2 MSTORE POP DUP8 PUSH1 0x1 PUSH1 0x1 PUSH1 0xA0 SHL SUB AND PUSH1 0x1 PUSH1 0x1 PUSH1 0xA0 SHL SUB AND DUP2 MSTORE POP DUP8 PUSH1 0x1 PUSH1 0x1 PUSH1 0xA0 SHL SUB AND PUSH1 0x1 PUSH1 0x1 PUSH1 0xA0 SHL SUB AND DUP2 MSTORE POP POP POP POP POP POP POP POP POP POP SWAP3 SWAP2 POP POP JUMP JUMPDEST PUSH0 DUP1 PUSH1 0x1 PUSH1 0x1 PUSH1 0xA0 SHL SUB DUP4 AND PUSH2 0x11EE JUMPI PUSH1 0x40 MLOAD PUSH3 0x461BCD PUSH1 0xE5 SHL DUP2 MSTORE PUSH1 0x20 PUSH1 0x4 DUP3 ADD MSTORE PUSH1 0x1B PUSH1 0x24 DUP3 ADD MSTORE PUSH32 0x4F7261636C654D616E616765723A20696E76616C696420706F6F6C0000000000 PUSH1 0x44 DUP3 ADD MSTORE PUSH1 0x64 ADD PUSH2 0x30E JUMP JUMPDEST PUSH1 0x40 DUP1 MLOAD PUSH1 0x4 DUP2 MSTORE PUSH1 0x24 DUP2 ADD DUP3 MSTORE PUSH1 0x20 DUP2 ADD DUP1 MLOAD PUSH1 0x1 PUSH1 0x1 PUSH1 0xE0 SHL SUB AND PUSH4 0x3850C7BD PUSH1 0xE0 SHL OR SWAP1 MSTORE SWAP1 MLOAD PUSH0 SWAP2 DUP3 SWAP2 PUSH1 0x1 PUSH1 0x1 PUSH1 0xA0 SHL SUB DUP8 AND SWAP2 PUSH2 0x1230 SWAP2 PUSH2 0x1C77 JUMP JUMPDEST PUSH0 PUSH1 0x40 MLOAD DUP1 DUP4 SUB DUP2 DUP6 GAS STATICCALL SWAP2 POP POP RETURNDATASIZE DUP1 PUSH0 DUP2 EQ PUSH2 0x1268 JUMPI PUSH1 0x40 MLOAD SWAP2 POP PUSH1 0x1F NOT PUSH1 0x3F RETURNDATASIZE ADD AND DUP3 ADD PUSH1 0x40 MSTORE RETURNDATASIZE DUP3 MSTORE RETURNDATASIZE PUSH0 PUSH1 0x20 DUP5 ADD RETURNDATACOPY PUSH2 0x126D JUMP JUMPDEST PUSH1 0x60 SWAP2 POP JUMPDEST POP SWAP2 POP SWAP2 POP DUP2 PUSH2 0x127C DUP3 PUSH2 0x1354 JUMP JUMPDEST SWAP1 PUSH2 0x129A JUMPI PUSH1 0x40 MLOAD PUSH3 0x461BCD PUSH1 0xE5 SHL DUP2 MSTORE PUSH1 0x4 ADD PUSH2 0x30E SWAP2 SWAP1 PUSH2 0x1D30 JUMP JUMPDEST POP DUP1 DUP1 PUSH1 0x20 ADD SWAP1 MLOAD DUP2 ADD SWAP1 PUSH2 0x12AF SWAP2 SWAP1 PUSH2 0x1E91 JUMP JUMPDEST POP SWAP5 SWAP11 SWAP4 SWAP10 POP SWAP3 SWAP8 POP POP POP POP POP POP POP POP JUMP JUMPDEST PUSH0 PUSH0 DUP3 PUSH1 0x1 PUSH1 0x1 PUSH1 0x80 SHL SUB AND PUSH0 SUB PUSH2 0x12DD JUMPI POP PUSH0 SWAP1 POP DUP1 PUSH2 0x1309 JUMP JUMPDEST PUSH0 PUSH2 0x12E7 DUP7 PUSH2 0x139F JUMP JUMPDEST SWAP1 POP PUSH0 PUSH2 0x12F3 DUP7 PUSH2 0x139F JUMP JUMPDEST SWAP1 POP PUSH2 0x1301 DUP9 DUP4 DUP4 DUP9 PUSH2 0x17EA JUMP JUMPDEST SWAP1 SWAP5 POP SWAP3 POP POP POP JUMPDEST SWAP5 POP SWAP5 SWAP3 POP POP POP JUMP JUMPDEST PUSH0 PUSH0 PUSH2 0x1326 DUP6 DUP5 PUSH0 ADD MLOAD DUP6 PUSH1 0x40 ADD MLOAD PUSH2 0x1884 JUMP JUMPDEST SWAP1 POP PUSH0 PUSH2 0x133C DUP6 DUP6 PUSH1 0x20 ADD MLOAD DUP7 PUSH1 0x60 ADD MLOAD PUSH2 0x1884 JUMP JUMPDEST SWAP1 POP PUSH2 0x1348 DUP2 DUP4 PUSH2 0x1C0F JUMP JUMPDEST SWAP3 POP POP POP JUMPDEST SWAP4 SWAP3 POP POP POP JUMP JUMPDEST PUSH1 0x60 PUSH1 0x44 DUP3 MLOAD LT ISZERO PUSH2 0x137F JUMPI PUSH1 0x40 MLOAD DUP1 PUSH1 0x60 ADD PUSH1 0x40 MSTORE DUP1 PUSH1 0x24 DUP2 MSTORE PUSH1 0x20 ADD PUSH2 0x2108 PUSH1 0x24 SWAP2 CODECOPY SWAP3 SWAP2 POP POP JUMP JUMPDEST PUSH1 0x4 DUP3 ADD SWAP2 POP DUP2 DUP1 PUSH1 0x20 ADD SWAP1 MLOAD DUP2 ADD SWAP1 PUSH2 0x1399 SWAP2 SWAP1 PUSH2 0x1F2F JUMP JUMPDEST SWAP3 SWAP2 POP POP JUMP JUMPDEST PUSH0 PUSH3 0xD89E7 NOT PUSH1 0x2 DUP4 SWAP1 SIGNEXTEND SLT DUP1 ISZERO SWAP1 PUSH2 0x13BF JUMPI POP PUSH3 0xD89E8 PUSH1 0x2 DUP4 SWAP1 SIGNEXTEND SGT ISZERO JUMPDEST PUSH2 0x13FF JUMPI PUSH1 0x40 MLOAD PUSH3 0x461BCD PUSH1 0xE5 SHL DUP2 MSTORE PUSH1 0x20 PUSH1 0x4 DUP3 ADD MSTORE PUSH1 0x11 PUSH1 0x24 DUP3 ADD MSTORE PUSH17 0x5469636B206F7574206F662072616E6765 PUSH1 0x78 SHL PUSH1 0x44 DUP3 ADD MSTORE PUSH1 0x64 ADD PUSH2 0x30E JUMP JUMPDEST PUSH0 PUSH0 DUP4 PUSH1 0x2 SIGNEXTEND SLT PUSH2 0x1415 JUMPI DUP3 PUSH3 0xFFFFFF AND PUSH2 0x1424 JUMP JUMPDEST PUSH2 0x141E DUP4 PUSH2 0x1FDF JUMP JUMPDEST PUSH3 0xFFFFFF AND JUMPDEST SWAP1 POP PUSH1 0x1 PUSH1 0x80 SHL PUSH1 0x1 DUP3 AND ISZERO PUSH2 0x1455 JUMPI PUSH1 0x80 PUSH2 0x1450 DUP3 PUSH16 0xFFFCB933BD6FAD37AA2D162D1A594001 PUSH2 0x1FFF JUMP JUMPDEST SWAP1 SHR SWAP1 POP JUMPDEST PUSH1 0x2 DUP3 AND ISZERO PUSH2 0x147F JUMPI PUSH1 0x80 PUSH2 0x147A DUP3 PUSH16 0xFFF97272373D413259A46990580E213A PUSH2 0x1FFF JUMP JUMPDEST SWAP1 SHR SWAP1 POP JUMPDEST PUSH1 0x4 DUP3 AND ISZERO PUSH2 0x14A9 JUMPI PUSH1 0x80 PUSH2 0x14A4 DUP3 PUSH16 0xFFF2E50F5F656932EF12357CF3C7FDCC PUSH2 0x1FFF JUMP JUMPDEST SWAP1 SHR SWAP1 POP JUMPDEST PUSH1 0x8 DUP3 AND ISZERO PUSH2 0x14D3 JUMPI PUSH1 0x80 PUSH2 0x14CE DUP3 PUSH16 0xFFE5CACA7E10E4E61C3624EAA0941CD0 PUSH2 0x1FFF JUMP JUMPDEST SWAP1 SHR SWAP1 POP JUMPDEST PUSH1 0x10 DUP3 AND ISZERO PUSH2 0x14FD JUMPI PUSH1 0x80 PUSH2 0x14F8 DUP3 PUSH16 0xFFCB9843D60F6159C9DB58835C926644 PUSH2 0x1FFF JUMP JUMPDEST SWAP1 SHR SWAP1 POP JUMPDEST PUSH1 0x20 DUP3 AND ISZERO PUSH2 0x1527 JUMPI PUSH1 0x80 PUSH2 0x1522 DUP3 PUSH16 0xFF973B41FA98C081472E6896DFB254C0 PUSH2 0x1FFF JUMP JUMPDEST SWAP1 SHR SWAP1 POP JUMPDEST PUSH1 0x40 DUP3 AND ISZERO PUSH2 0x1551 JUMPI PUSH1 0x80 PUSH2 0x154C DUP3 PUSH16 0xFF2EA16466C96A3843EC78B326B52861 PUSH2 0x1FFF JUMP JUMPDEST SWAP1 SHR SWAP1 POP JUMPDEST PUSH1 0x80 DUP3 AND ISZERO PUSH2 0x157B JUMPI PUSH1 0x80 PUSH2 0x1576 DUP3 PUSH16 0xFE5DEE046A99A2A811C461F1969C3053 PUSH2 0x1FFF JUMP JUMPDEST SWAP1 SHR SWAP1 POP JUMPDEST PUSH2 0x100 DUP3 AND ISZERO PUSH2 0x15A6 JUMPI PUSH1 0x80 PUSH2 0x15A1 DUP3 PUSH16 0xFCBE86C7900A88AEDCFFC83B479AA3A4 PUSH2 0x1FFF JUMP JUMPDEST SWAP1 SHR SWAP1 POP JUMPDEST PUSH2 0x200 DUP3 AND ISZERO PUSH2 0x15D1 JUMPI PUSH1 0x80 PUSH2 0x15CC DUP3 PUSH16 0xF987A7253AC413176F2B074CF7815E54 PUSH2 0x1FFF JUMP JUMPDEST SWAP1 SHR SWAP1 POP JUMPDEST PUSH2 0x400 DUP3 AND ISZERO PUSH2 0x15FC JUMPI PUSH1 0x80 PUSH2 0x15F7 DUP3 PUSH16 0xF3392B0822B70005940C7A398E4B70F3 PUSH2 0x1FFF JUMP JUMPDEST SWAP1 SHR SWAP1 POP JUMPDEST PUSH2 0x800 DUP3 AND ISZERO PUSH2 0x1627 JUMPI PUSH1 0x80 PUSH2 0x1622 DUP3 PUSH16 0xE7159475A2C29B7443B29C7FA6E889D9 PUSH2 0x1FFF JUMP JUMPDEST SWAP1 SHR SWAP1 POP JUMPDEST PUSH2 0x1000 DUP3 AND ISZERO PUSH2 0x1652 JUMPI PUSH1 0x80 PUSH2 0x164D DUP3 PUSH16 0xD097F3BDFD2022B8845AD8F792AA5825 PUSH2 0x1FFF JUMP JUMPDEST SWAP1 SHR SWAP1 POP JUMPDEST PUSH2 0x2000 DUP3 AND ISZERO PUSH2 0x167D JUMPI PUSH1 0x80 PUSH2 0x1678 DUP3 PUSH16 0xA9F746462D870FDF8A65DC1F90E061E5 PUSH2 0x1FFF JUMP JUMPDEST SWAP1 SHR SWAP1 POP JUMPDEST PUSH2 0x4000 DUP3 AND ISZERO PUSH2 0x16A8 JUMPI PUSH1 0x80 PUSH2 0x16A3 DUP3 PUSH16 0x70D869A156D2A1F6A7A2E3FADACB4C9B PUSH2 0x1FFF JUMP JUMPDEST SWAP1 SHR SWAP1 POP JUMPDEST PUSH2 0x8000 DUP3 AND ISZERO PUSH2 0x16D3 JUMPI PUSH1 0x80 PUSH2 0x16CE DUP3 PUSH16 0x31BE135F97D08FD981231505542FCFA6 PUSH2 0x1FFF JUMP JUMPDEST SWAP1 SHR SWAP1 POP JUMPDEST PUSH3 0x10000 DUP3 AND ISZERO PUSH2 0x16FF JUMPI PUSH1 0x80 PUSH2 0x16FA DUP3 PUSH16 0x9AA508B5B7A84E1C677DE54F3E99BC9 PUSH2 0x1FFF JUMP JUMPDEST SWAP1 SHR SWAP1 POP JUMPDEST PUSH3 0x20000 DUP3 AND ISZERO PUSH2 0x172A JUMPI PUSH1 0x80 PUSH2 0x1725 DUP3 PUSH15 0x5D6AF8DEDB81196699C329225EE604 PUSH2 0x1FFF JUMP JUMPDEST SWAP1 SHR SWAP1 POP JUMPDEST PUSH3 0x40000 DUP3 AND ISZERO PUSH2 0x1754 JUMPI PUSH1 0x80 PUSH2 0x174F DUP3 PUSH14 0x2216E584F5FA1EA926041BEDFE98 PUSH2 0x1FFF JUMP JUMPDEST SWAP1 SHR SWAP1 POP JUMPDEST PUSH3 0x80000 DUP3 AND ISZERO PUSH2 0x177C JUMPI PUSH1 0x80 PUSH2 0x1777 DUP3 PUSH12 0x48A170391F7DC42444E8FA2 PUSH2 0x1FFF JUMP JUMPDEST SWAP1 SHR SWAP1 POP JUMPDEST PUSH0 DUP5 PUSH1 0x2 SIGNEXTEND SGT ISZERO PUSH2 0x1795 JUMPI PUSH2 0x1792 DUP2 PUSH0 NOT PUSH2 0x1C36 JUMP JUMPDEST SWAP1 POP JUMPDEST PUSH1 0x20 DUP2 SWAP1 SHR PUSH1 0x1 PUSH1 0x1 PUSH1 0xA0 SHL SUB DUP2 GT ISZERO PUSH2 0x17E2 JUMPI PUSH1 0x40 MLOAD PUSH3 0x461BCD PUSH1 0xE5 SHL DUP2 MSTORE PUSH1 0x20 PUSH1 0x4 DUP3 ADD MSTORE PUSH1 0xE PUSH1 0x24 DUP3 ADD MSTORE PUSH14 0x5072696365206F766572666C6F77 PUSH1 0x90 SHL PUSH1 0x44 DUP3 ADD MSTORE PUSH1 0x64 ADD PUSH2 0x30E JUMP JUMPDEST SWAP5 SWAP4 POP POP POP POP JUMP JUMPDEST PUSH0 PUSH0 DUP4 PUSH1 0x1 PUSH1 0x1 PUSH1 0xA0 SHL SUB AND DUP6 PUSH1 0x1 PUSH1 0x1 PUSH1 0xA0 SHL SUB AND GT ISZERO PUSH2 0x180A JUMPI SWAP3 SWAP4 SWAP3 JUMPDEST DUP5 PUSH1 0x1 PUSH1 0x1 PUSH1 0xA0 SHL SUB AND DUP7 PUSH1 0x1 PUSH1 0x1 PUSH1 0xA0 SHL SUB AND GT PUSH2 0x1835 JUMPI PUSH2 0x182E DUP6 DUP6 DUP6 PUSH2 0x1955 JUMP JUMPDEST SWAP2 POP PUSH2 0x1309 JUMP JUMPDEST DUP4 PUSH1 0x1 PUSH1 0x1 PUSH1 0xA0 SHL SUB AND DUP7 PUSH1 0x1 PUSH1 0x1 PUSH1 0xA0 SHL SUB AND LT ISZERO PUSH2 0x186E JUMPI PUSH2 0x185A DUP7 DUP6 DUP6 PUSH2 0x1955 JUMP JUMPDEST SWAP2 POP PUSH2 0x1867 DUP6 DUP8 DUP6 PUSH2 0x19C3 JUMP JUMPDEST SWAP1 POP PUSH2 0x1309 JUMP JUMPDEST PUSH2 0x1879 DUP6 DUP6 DUP6 PUSH2 0x19C3 JUMP JUMPDEST SWAP1 POP SWAP5 POP SWAP5 SWAP3 POP POP POP JUMP JUMPDEST PUSH0 DUP4 ISZERO DUP1 PUSH2 0x1899 JUMPI POP PUSH1 0x1 PUSH1 0x1 PUSH1 0xA0 SHL SUB DUP4 AND ISZERO JUMPDEST ISZERO PUSH2 0x18A5 JUMPI POP PUSH0 PUSH2 0x134D JUMP JUMPDEST PUSH0 PUSH0 PUSH0 PUSH2 0x18B2 DUP7 DUP7 PUSH2 0xB89 JUMP JUMPDEST SWAP3 POP SWAP3 POP SWAP3 POP DUP3 PUSH2 0x192B JUMPI PUSH1 0x40 MLOAD PUSH3 0x461BCD PUSH1 0xE5 SHL DUP2 MSTORE PUSH1 0x20 PUSH1 0x4 DUP3 ADD MSTORE PUSH1 0x3B PUSH1 0x24 DUP3 ADD MSTORE PUSH32 0x4F7261636C654D616E616765723A2061676772656761746F72206661696C2069 PUSH1 0x44 DUP3 ADD MSTORE PUSH32 0x6E205F636F6E76657274546F41676772656761746F7256616C75650000000000 PUSH1 0x64 DUP3 ADD MSTORE PUSH1 0x84 ADD PUSH2 0x30E JUMP JUMPDEST PUSH2 0x1936 DUP2 PUSH1 0xA PUSH2 0x20F9 JUMP JUMPDEST PUSH2 0x1940 DUP4 DUP10 PUSH2 0x1FFF JUMP JUMPDEST PUSH2 0x194A SWAP2 SWAP1 PUSH2 0x1C36 JUMP JUMPDEST SWAP8 SWAP7 POP POP POP POP POP POP POP JUMP JUMPDEST PUSH0 DUP3 PUSH1 0x1 PUSH1 0x1 PUSH1 0xA0 SHL SUB AND DUP5 PUSH1 0x1 PUSH1 0x1 PUSH1 0xA0 SHL SUB AND GT ISZERO PUSH2 0x1974 JUMPI SWAP2 SWAP3 SWAP2 JUMPDEST DUP4 PUSH1 0x1 PUSH1 0x1 PUSH1 0xA0 SHL SUB AND PUSH2 0x19AD PUSH1 0x60 PUSH1 0xFF AND DUP5 PUSH1 0x1 PUSH1 0x1 PUSH1 0x80 SHL SUB AND SWAP1 SHL DUP7 DUP7 SUB PUSH1 0x1 PUSH1 0x1 PUSH1 0xA0 SHL SUB AND DUP7 PUSH1 0x1 PUSH1 0x1 PUSH1 0xA0 SHL SUB AND PUSH2 0x1A01 JUMP JUMPDEST DUP2 PUSH2 0x19BA JUMPI PUSH2 0x19BA PUSH2 0x1C22 JUMP JUMPDEST DIV SWAP5 SWAP4 POP POP POP POP JUMP JUMPDEST PUSH0 DUP3 PUSH1 0x1 PUSH1 0x1 PUSH1 0xA0 SHL SUB AND DUP5 PUSH1 0x1 PUSH1 0x1 PUSH1 0xA0 SHL SUB AND GT ISZERO PUSH2 0x19E2 JUMPI SWAP2 SWAP3 SWAP2 JUMPDEST PUSH2 0x17E2 DUP3 PUSH1 0x1 PUSH1 0x1 PUSH1 0x80 SHL SUB AND DUP6 DUP6 SUB PUSH1 0x1 PUSH1 0x1 PUSH1 0xA0 SHL SUB AND PUSH1 0x1 PUSH1 0x60 SHL JUMPDEST PUSH0 DUP1 DUP1 PUSH0 NOT DUP6 DUP8 MULMOD DUP6 DUP8 MUL SWAP3 POP DUP3 DUP2 LT DUP4 DUP3 SUB SUB SWAP2 POP POP DUP1 PUSH0 SUB PUSH2 0x1A35 JUMPI PUSH0 DUP5 GT PUSH2 0x1A2A JUMPI PUSH0 PUSH0 REVERT JUMPDEST POP DUP3 SWAP1 DIV SWAP1 POP PUSH2 0x134D JUMP JUMPDEST DUP1 DUP5 GT PUSH2 0x1A40 JUMPI PUSH0 PUSH0 REVERT JUMPDEST PUSH0 DUP5 DUP7 DUP9 MULMOD PUSH0 DUP7 DUP2 SUB DUP8 AND SWAP7 DUP8 SWAP1 DIV SWAP7 PUSH1 0x2 PUSH1 0x3 DUP10 MUL DUP2 XOR DUP1 DUP11 MUL DUP3 SUB MUL DUP1 DUP11 MUL DUP3 SUB MUL DUP1 DUP11 MUL DUP3 SUB MUL DUP1 DUP11 MUL DUP3 SUB MUL DUP1 DUP11 MUL DUP3 SUB MUL DUP1 DUP11 MUL SWAP1 SWAP2 SUB MUL SWAP2 DUP2 SWAP1 SUB DUP2 SWAP1 DIV PUSH1 0x1 ADD DUP7 DUP5 GT SWAP1 SWAP6 SUB SWAP5 SWAP1 SWAP5 MUL SWAP2 SWAP1 SWAP5 SUB SWAP3 SWAP1 SWAP3 DIV SWAP2 SWAP1 SWAP2 OR SWAP2 SWAP1 SWAP2 MUL SWAP2 POP POP SWAP4 SWAP3 POP POP POP JUMP JUMPDEST PUSH1 0x1 PUSH1 0x1 PUSH1 0xA0 SHL SUB DUP2 AND DUP2 EQ PUSH2 0x839 JUMPI PUSH0 PUSH0 REVERT JUMPDEST PUSH0 PUSH1 0x20 DUP3 DUP5 SUB SLT ISZERO PUSH2 0x1ACF JUMPI PUSH0 PUSH0 REVERT JUMPDEST DUP2 CALLDATALOAD PUSH2 0x134D DUP2 PUSH2 0x1AAB JUMP JUMPDEST PUSH1 0xFF DUP2 AND DUP2 EQ PUSH2 0x839 JUMPI PUSH0 PUSH0 REVERT JUMPDEST PUSH0 PUSH0 PUSH0 PUSH0 PUSH0 PUSH1 0xA0 DUP7 DUP9 SUB SLT ISZERO PUSH2 0x1AFC JUMPI PUSH0 PUSH0 REVERT JUMPDEST DUP6 CALLDATALOAD PUSH2 0x1B07 DUP2 PUSH2 0x1AAB JUMP JUMPDEST SWAP5 POP PUSH1 0x20 DUP7 ADD CALLDATALOAD PUSH2 0x1B17 DUP2 PUSH2 0x1AAB JUMP JUMPDEST SWAP4 POP PUSH1 0x40 DUP7 ADD CALLDATALOAD PUSH2 0x1B27 DUP2 PUSH2 0x1AAB JUMP JUMPDEST SWAP3 POP PUSH1 0x60 DUP7 ADD CALLDATALOAD PUSH2 0x1B37 DUP2 PUSH2 0x1ADA JUMP JUMPDEST SWAP2 POP PUSH1 0x80 DUP7 ADD CALLDATALOAD PUSH2 0x1B47 DUP2 PUSH2 0x1ADA JUMP JUMPDEST DUP1 SWAP2 POP POP SWAP3 SWAP6 POP SWAP3 SWAP6 SWAP1 SWAP4 POP JUMP JUMPDEST DUP1 ISZERO ISZERO DUP2 EQ PUSH2 0x839 JUMPI PUSH0 PUSH0 REVERT JUMPDEST PUSH0 PUSH0 PUSH0 PUSH0 PUSH0 PUSH0 PUSH1 0xC0 DUP8 DUP10 SUB SLT ISZERO PUSH2 0x1B77 JUMPI PUSH0 PUSH0 REVERT JUMPDEST DUP7 CALLDATALOAD PUSH2 0x1B82 DUP2 PUSH2 0x1AAB JUMP JUMPDEST SWAP6 POP PUSH1 0x20 DUP8 ADD CALLDATALOAD PUSH2 0x1B92 DUP2 PUSH2 0x1AAB JUMP JUMPDEST SWAP5 POP PUSH1 0x40 DUP8 ADD CALLDATALOAD PUSH2 0x1BA2 DUP2 PUSH2 0x1AAB JUMP JUMPDEST SWAP4 POP PUSH1 0x60 DUP8 ADD CALLDATALOAD PUSH2 0x1BB2 DUP2 PUSH2 0x1B55 JUMP JUMPDEST SWAP3 POP PUSH1 0x80 DUP8 ADD CALLDATALOAD PUSH2 0x1BC2 DUP2 PUSH2 0x1ADA JUMP JUMPDEST SWAP2 POP PUSH1 0xA0 DUP8 ADD CALLDATALOAD PUSH2 0x1BD2 DUP2 PUSH2 0x1B55 JUMP JUMPDEST DUP1 SWAP2 POP POP SWAP3 SWAP6 POP SWAP3 SWAP6 POP SWAP3 SWAP6 JUMP JUMPDEST PUSH0 PUSH1 0x20 DUP3 DUP5 SUB SLT ISZERO PUSH2 0x1BF0 JUMPI PUSH0 PUSH0 REVERT JUMPDEST DUP2 MLOAD PUSH2 0x134D DUP2 PUSH2 0x1AAB JUMP JUMPDEST PUSH4 0x4E487B71 PUSH1 0xE0 SHL PUSH0 MSTORE PUSH1 0x11 PUSH1 0x4 MSTORE PUSH1 0x24 PUSH0 REVERT JUMPDEST DUP1 DUP3 ADD DUP1 DUP3 GT ISZERO PUSH2 0x1399 JUMPI PUSH2 0x1399 PUSH2 0x1BFB JUMP JUMPDEST PUSH4 0x4E487B71 PUSH1 0xE0 SHL PUSH0 MSTORE PUSH1 0x12 PUSH1 0x4 MSTORE PUSH1 0x24 PUSH0 REVERT JUMPDEST PUSH0 DUP3 PUSH2 0x1C50 JUMPI PUSH4 0x4E487B71 PUSH1 0xE0 SHL PUSH0 MSTORE PUSH1 0x12 PUSH1 0x4 MSTORE PUSH1 0x24 PUSH0 REVERT JUMPDEST POP DIV SWAP1 JUMP JUMPDEST PUSH0 JUMPDEST DUP4 DUP2 LT ISZERO PUSH2 0x1C6F JUMPI DUP2 DUP2 ADD MLOAD DUP4 DUP3 ADD MSTORE PUSH1 0x20 ADD PUSH2 0x1C57 JUMP JUMPDEST POP POP PUSH0 SWAP2 ADD MSTORE JUMP JUMPDEST PUSH0 DUP3 MLOAD PUSH2 0x1C88 DUP2 DUP5 PUSH1 0x20 DUP8 ADD PUSH2 0x1C55 JUMP JUMPDEST SWAP2 SWAP1 SWAP2 ADD SWAP3 SWAP2 POP POP JUMP JUMPDEST DUP1 MLOAD PUSH10 0xFFFFFFFFFFFFFFFFFFFF DUP2 AND DUP2 EQ PUSH2 0x1CAB JUMPI PUSH0 PUSH0 REVERT JUMPDEST SWAP2 SWAP1 POP JUMP JUMPDEST PUSH0 PUSH0 PUSH0 PUSH0 PUSH0 PUSH1 0xA0 DUP7 DUP9 SUB SLT ISZERO PUSH2 0x1CC4 JUMPI PUSH0 PUSH0 REVERT JUMPDEST PUSH2 0x1CCD DUP7 PUSH2 0x1C92 JUMP JUMPDEST PUSH1 0x20 DUP8 ADD MLOAD PUSH1 0x40 DUP9 ADD MLOAD PUSH1 0x60 DUP10 ADD MLOAD SWAP3 SWAP8 POP SWAP1 SWAP6 POP SWAP4 POP SWAP2 POP PUSH2 0x1CF2 PUSH1 0x80 DUP8 ADD PUSH2 0x1C92 JUMP JUMPDEST SWAP1 POP SWAP3 SWAP6 POP SWAP3 SWAP6 SWAP1 SWAP4 POP JUMP JUMPDEST PUSH0 PUSH1 0x20 DUP3 DUP5 SUB SLT ISZERO PUSH2 0x1D0E JUMPI PUSH0 PUSH0 REVERT JUMPDEST DUP2 MLOAD PUSH2 0x134D DUP2 PUSH2 0x1ADA JUMP JUMPDEST PUSH0 PUSH1 0x20 DUP3 DUP5 SUB SLT ISZERO PUSH2 0x1D29 JUMPI PUSH0 PUSH0 REVERT JUMPDEST POP MLOAD SWAP2 SWAP1 POP JUMP JUMPDEST PUSH1 0x20 DUP2 MSTORE PUSH0 DUP3 MLOAD DUP1 PUSH1 0x20 DUP5 ADD MSTORE PUSH2 0x1D4E DUP2 PUSH1 0x40 DUP6 ADD PUSH1 0x20 DUP8 ADD PUSH2 0x1C55 JUMP JUMPDEST PUSH1 0x1F ADD PUSH1 0x1F NOT AND SWAP2 SWAP1 SWAP2 ADD PUSH1 0x40 ADD SWAP3 SWAP2 POP POP JUMP JUMPDEST DUP1 MLOAD PUSH2 0x1CAB DUP2 PUSH2 0x1AAB JUMP JUMPDEST DUP1 MLOAD PUSH3 0xFFFFFF DUP2 AND DUP2 EQ PUSH2 0x1CAB JUMPI PUSH0 PUSH0 REVERT JUMPDEST DUP1 MLOAD PUSH1 0x2 DUP2 SWAP1 SIGNEXTEND DUP2 EQ PUSH2 0x1CAB JUMPI PUSH0 PUSH0 REVERT JUMPDEST DUP1 MLOAD PUSH1 0x1 PUSH1 0x1 PUSH1 0x80 SHL SUB DUP2 AND DUP2 EQ PUSH2 0x1CAB JUMPI PUSH0 PUSH0 REVERT JUMPDEST PUSH0 PUSH0 PUSH0 PUSH0 PUSH0 PUSH0 PUSH0 PUSH0 PUSH0 PUSH0 PUSH0 PUSH0 PUSH2 0x180 DUP14 DUP16 SUB SLT ISZERO PUSH2 0x1DC2 JUMPI PUSH0 PUSH0 REVERT JUMPDEST DUP13 MLOAD PUSH12 0xFFFFFFFFFFFFFFFFFFFFFFFF DUP2 AND DUP2 EQ PUSH2 0x1DDD JUMPI PUSH0 PUSH0 REVERT JUMPDEST SWAP12 POP PUSH2 0x1DEB PUSH1 0x20 DUP15 ADD PUSH2 0x1D62 JUMP JUMPDEST SWAP11 POP PUSH2 0x1DF9 PUSH1 0x40 DUP15 ADD PUSH2 0x1D62 JUMP JUMPDEST SWAP10 POP PUSH2 0x1E07 PUSH1 0x60 DUP15 ADD PUSH2 0x1D62 JUMP JUMPDEST SWAP9 POP PUSH2 0x1E15 PUSH1 0x80 DUP15 ADD PUSH2 0x1D6D JUMP JUMPDEST SWAP8 POP PUSH2 0x1E23 PUSH1 0xA0 DUP15 ADD PUSH2 0x1D7F JUMP JUMPDEST SWAP7 POP PUSH2 0x1E31 PUSH1 0xC0 DUP15 ADD PUSH2 0x1D7F JUMP JUMPDEST SWAP6 POP PUSH2 0x1E3F PUSH1 0xE0 DUP15 ADD PUSH2 0x1D90 JUMP JUMPDEST PUSH2 0x100 DUP15 ADD MLOAD PUSH2 0x120 DUP16 ADD MLOAD SWAP2 SWAP7 POP SWAP5 POP SWAP3 POP PUSH2 0x1E5F PUSH2 0x140 DUP15 ADD PUSH2 0x1D90 JUMP JUMPDEST SWAP2 POP PUSH2 0x1E6E PUSH2 0x160 DUP15 ADD PUSH2 0x1D90 JUMP JUMPDEST SWAP1 POP SWAP3 SWAP6 SWAP9 SWAP12 POP SWAP3 SWAP6 SWAP9 SWAP12 POP SWAP3 SWAP6 SWAP9 SWAP12 JUMP JUMPDEST DUP1 MLOAD PUSH2 0xFFFF DUP2 AND DUP2 EQ PUSH2 0x1CAB JUMPI PUSH0 PUSH0 REVERT JUMPDEST PUSH0 PUSH0 PUSH0 PUSH0 PUSH0 PUSH0 PUSH0 PUSH1 0xE0 DUP9 DUP11 SUB SLT ISZERO PUSH2 0x1EA7 JUMPI PUSH0 PUSH0 REVERT JUMPDEST DUP8 MLOAD PUSH2 0x1EB2 DUP2 PUSH2 0x1AAB JUMP JUMPDEST SWAP7 POP PUSH2 0x1EC0 PUSH1 0x20 DUP10 ADD PUSH2 0x1D7F JUMP JUMPDEST SWAP6 POP PUSH2 0x1ECE PUSH1 0x40 DUP10 ADD PUSH2 0x1E80 JUMP JUMPDEST SWAP5 POP PUSH2 0x1EDC PUSH1 0x60 DUP10 ADD PUSH2 0x1E80 JUMP JUMPDEST SWAP4 POP PUSH2 0x1EEA PUSH1 0x80 DUP10 ADD PUSH2 0x1E80 JUMP JUMPDEST SWAP3 POP PUSH1 0xA0 DUP9 ADD MLOAD PUSH2 0x1EFA DUP2 PUSH2 0x1ADA JUMP JUMPDEST PUSH1 0xC0 DUP10 ADD MLOAD SWAP1 SWAP3 POP PUSH2 0x1F0B DUP2 PUSH2 0x1B55 JUMP JUMPDEST DUP1 SWAP2 POP POP SWAP3 SWAP6 SWAP9 SWAP2 SWAP5 SWAP8 POP SWAP3 SWAP6 POP JUMP JUMPDEST PUSH4 0x4E487B71 PUSH1 0xE0 SHL PUSH0 MSTORE PUSH1 0x41 PUSH1 0x4 MSTORE PUSH1 0x24 PUSH0 REVERT JUMPDEST PUSH0 PUSH1 0x20 DUP3 DUP5 SUB SLT ISZERO PUSH2 0x1F3F JUMPI PUSH0 PUSH0 REVERT JUMPDEST DUP2 MLOAD PUSH8 0xFFFFFFFFFFFFFFFF DUP2 GT ISZERO PUSH2 0x1F55 JUMPI PUSH0 PUSH0 REVERT JUMPDEST DUP3 ADD PUSH1 0x1F DUP2 ADD DUP5 SGT PUSH2 0x1F65 JUMPI PUSH0 PUSH0 REVERT JUMPDEST DUP1 MLOAD PUSH8 0xFFFFFFFFFFFFFFFF DUP2 GT ISZERO PUSH2 0x1F7F JUMPI PUSH2 0x1F7F PUSH2 0x1F1B JUMP JUMPDEST PUSH1 0x40 MLOAD PUSH1 0x1F DUP3 ADD PUSH1 0x1F NOT SWAP1 DUP2 AND PUSH1 0x3F ADD AND DUP2 ADD PUSH8 0xFFFFFFFFFFFFFFFF DUP2 GT DUP3 DUP3 LT OR ISZERO PUSH2 0x1FAE JUMPI PUSH2 0x1FAE PUSH2 0x1F1B JUMP JUMPDEST PUSH1 0x40 MSTORE DUP2 DUP2 MSTORE DUP3 DUP3 ADD PUSH1 0x20 ADD DUP7 LT ISZERO PUSH2 0x1FC5 JUMPI PUSH0 PUSH0 REVERT JUMPDEST PUSH2 0x1FD6 DUP3 PUSH1 0x20 DUP4 ADD PUSH1 0x20 DUP7 ADD PUSH2 0x1C55 JUMP JUMPDEST SWAP6 SWAP5 POP POP POP POP POP JUMP JUMPDEST PUSH0 DUP2 PUSH1 0x2 SIGNEXTEND PUSH3 0x7FFFFF NOT DUP2 SUB PUSH2 0x1FF7 JUMPI PUSH2 0x1FF7 PUSH2 0x1BFB JUMP JUMPDEST PUSH0 SUB SWAP3 SWAP2 POP POP JUMP JUMPDEST DUP1 DUP3 MUL DUP2 ISZERO DUP3 DUP3 DIV DUP5 EQ OR PUSH2 0x1399 JUMPI PUSH2 0x1399 PUSH2 0x1BFB JUMP JUMPDEST PUSH1 0x1 DUP2 JUMPDEST PUSH1 0x1 DUP5 GT ISZERO PUSH2 0x2051 JUMPI DUP1 DUP6 DIV DUP2 GT ISZERO PUSH2 0x2035 JUMPI PUSH2 0x2035 PUSH2 0x1BFB JUMP JUMPDEST PUSH1 0x1 DUP5 AND ISZERO PUSH2 0x2043 JUMPI SWAP1 DUP2 MUL SWAP1 JUMPDEST PUSH1 0x1 SWAP4 SWAP1 SWAP4 SHR SWAP3 DUP1 MUL PUSH2 0x201A JUMP JUMPDEST SWAP4 POP SWAP4 SWAP2 POP POP JUMP JUMPDEST PUSH0 DUP3 PUSH2 0x2067 JUMPI POP PUSH1 0x1 PUSH2 0x1399 JUMP JUMPDEST DUP2 PUSH2 0x2073 JUMPI POP PUSH0 PUSH2 0x1399 JUMP JUMPDEST DUP2 PUSH1 0x1 DUP2 EQ PUSH2 0x2089 JUMPI PUSH1 0x2 DUP2 EQ PUSH2 0x2093 JUMPI PUSH2 0x20AF JUMP JUMPDEST PUSH1 0x1 SWAP2 POP POP PUSH2 0x1399 JUMP JUMPDEST PUSH1 0xFF DUP5 GT ISZERO PUSH2 0x20A4 JUMPI PUSH2 0x20A4 PUSH2 0x1BFB JUMP JUMPDEST POP POP PUSH1 0x1 DUP3 SHL PUSH2 0x1399 JUMP JUMPDEST POP PUSH1 0x20 DUP4 LT PUSH2 0x133 DUP4 LT AND PUSH1 0x4E DUP5 LT PUSH1 0xB DUP5 LT AND OR ISZERO PUSH2 0x20D2 JUMPI POP DUP2 DUP2 EXP PUSH2 0x1399 JUMP JUMPDEST PUSH2 0x20DE PUSH0 NOT DUP5 DUP5 PUSH2 0x2016 JUMP JUMPDEST DUP1 PUSH0 NOT DIV DUP3 GT ISZERO PUSH2 0x20F1 JUMPI PUSH2 0x20F1 PUSH2 0x1BFB JUMP JUMPDEST MUL SWAP4 SWAP3 POP POP POP JUMP JUMPDEST PUSH0 PUSH2 0x134D PUSH1 0xFF DUP5 AND DUP4 PUSH2 0x2059 JUMP INVALID 0x4F PUSH19 0x61636C654D616E616765723A2063616C6C2072 PUSH6 0x766572746564 KECCAK256 PUSH24 0x2F6F206D7367A26469706673582212203CF387091B36C8CE SWAP9 PUSH29 0xDEE3FB289EA4D9E0D4E66F345E8A87AB8F4CEC6F8DE464736F6C634300 ADDMOD SHR STOP CALLER "
		},
		"gasEstimates": {
			"creation": {
				"codeDepositCost": "1709000",
				"executionCost": "infinite",
				"totalCost": "infinite"
			},
			"external": {
				"getPrice(address)": "infinite",
				"oracleConfigs(address)": "4864",
				"owner()": "2299",
				"renounceOwnership()": "infinite",
				"setOracleConfig(address,address,address,bool,uint8,bool)": "infinite",
				"setVaultUnderlyingFeeds(address,address,address,uint8,uint8)": "infinite",
				"transferOwnership(address)": "infinite",
				"vaultFeeds(address)": "4932"
			},
			"internal": {
				"_computeLiquidityAmounts(uint160,int24,int24,uint128)": "infinite",
				"_computeVaultTokenPrice(address,struct OracleManager.VaultUnderlyingFeeds memory)": "infinite",
				"_convertToAggregatorValue(uint256,address,uint8)": "infinite",
				"_convertVaultTokensToValue(uint256,uint256,struct OracleManager.AggregatorPair memory)": "infinite",
				"_fetchPositionData(address,uint256)": "infinite",
				"_fetchVaultInfo(address)": "infinite",
				"_getPoolSqrtAndTick(address)": "infinite",
				"_getPriceFromConfig(struct OracleManager.OracleData memory)": "infinite",
				"_getRevertMsg(bytes memory)": "infinite",
				"_tryGetChainlinkPrice(address,uint8)": "infinite"
			}
		},
		"methodIdentifiers": {
			"getPrice(address)": "41976e09",
			"oracleConfigs(address)": "067a4b06",
			"owner()": "8da5cb5b",
			"renounceOwnership()": "715018a6",
			"setOracleConfig(address,address,address,bool,uint8,bool)": "f2ac1ec5",
			"setVaultUnderlyingFeeds(address,address,address,uint8,uint8)": "9b05fc75",
			"transferOwnership(address)": "f2fde38b",
			"vaultFeeds(address)": "7f4a3102"
		}
	},
	"abi": [
		{
			"inputs": [
				{
					"internalType": "address",
					"name": "initialOwner",
					"type": "address"
				}
			],
			"stateMutability": "nonpayable",
			"type": "constructor"
		},
		{
			"anonymous": false,
			"inputs": [
				{
					"indexed": true,
					"internalType": "address",
					"name": "token",
					"type": "address"
				},
				{
					"indexed": false,
					"internalType": "address",
					"name": "primaryAggregator",
					"type": "address"
				},
				{
					"indexed": false,
					"internalType": "address",
					"name": "fallbackAggregator",
					"type": "address"
				},
				{
					"indexed": false,
					"internalType": "bool",
					"name": "useFallbackIfError",
					"type": "bool"
				},
				{
					"indexed": false,
					"internalType": "uint8",
					"name": "decimalsOverride",
					"type": "uint8"
				},
				{
					"indexed": false,
					"internalType": "bool",
					"name": "isVaultToken",
					"type": "bool"
				}
			],
			"name": "OracleConfigUpdated",
			"type": "event"
		},
		{
			"anonymous": false,
			"inputs": [
				{
					"indexed": true,
					"internalType": "address",
					"name": "previousOwner",
					"type": "address"
				},
				{
					"indexed": true,
					"internalType": "address",
					"name": "newOwner",
					"type": "address"
				}
			],
			"name": "OwnershipTransferred",
			"type": "event"
		},
		{
			"anonymous": false,
			"inputs": [
				{
					"indexed": true,
					"internalType": "address",
					"name": "vaultToken",
					"type": "address"
				},
				{
					"indexed": false,
					"internalType": "address",
					"name": "token0Aggregator",
					"type": "address"
				},
				{
					"indexed": false,
					"internalType": "address",
					"name": "token1Aggregator",
					"type": "address"
				},
				{
					"indexed": false,
					"internalType": "uint8",
					"name": "token0Decimals",
					"type": "uint8"
				},
				{
					"indexed": false,
					"internalType": "uint8",
					"name": "token1Decimals",
					"type": "uint8"
				}
			],
			"name": "VaultUnderlyingFeedsUpdated",
			"type": "event"
		},
		{
			"inputs": [
				{
					"internalType": "address",
					"name": "token",
					"type": "address"
				}
			],
			"name": "getPrice",
			"outputs": [
				{
					"internalType": "uint256",
					"name": "price",
					"type": "uint256"
				},
				{
					"internalType": "uint8",
					"name": "decimals",
					"type": "uint8"
				}
			],
			"stateMutability": "view",
			"type": "function"
		},
		{
			"inputs": [
				{
					"internalType": "address",
					"name": "",
					"type": "address"
				}
			],
			"name": "oracleConfigs",
			"outputs": [
				{
					"internalType": "address",
					"name": "primaryAggregator",
					"type": "address"
				},
				{
					"internalType": "address",
					"name": "fallbackAggregator",
					"type": "address"
				},
				{
					"internalType": "bool",
					"name": "useFallbackIfError",
					"type": "bool"
				},
				{
					"internalType": "uint8",
					"name": "decimalsOverride",
					"type": "uint8"
				},
				{
					"internalType": "bool",
					"name": "isVaultToken",
					"type": "bool"
				}
			],
			"stateMutability": "view",
			"type": "function"
		},
		{
			"inputs": [],
			"name": "owner",
			"outputs": [
				{
					"internalType": "address",
					"name": "",
					"type": "address"
				}
			],
			"stateMutability": "view",
			"type": "function"
		},
		{
			"inputs": [],
			"name": "renounceOwnership",
			"outputs": [],
			"stateMutability": "nonpayable",
			"type": "function"
		},
		{
			"inputs": [
				{
					"internalType": "address",
					"name": "token",
					"type": "address"
				},
				{
					"internalType": "address",
					"name": "primaryAggregator",
					"type": "address"
				},
				{
					"internalType": "address",
					"name": "fallbackAggregator",
					"type": "address"
				},
				{
					"internalType": "bool",
					"name": "useFallbackIfErr",
					"type": "bool"
				},
				{
					"internalType": "uint8",
					"name": "decimalsOvr",
					"type": "uint8"
				},
				{
					"internalType": "bool",
					"name": "isVaultToken",
					"type": "bool"
				}
			],
			"name": "setOracleConfig",
			"outputs": [],
			"stateMutability": "nonpayable",
			"type": "function"
		},
		{
			"inputs": [
				{
					"internalType": "address",
					"name": "vaultToken",
					"type": "address"
				},
				{
					"internalType": "address",
					"name": "token0Agg",
					"type": "address"
				},
				{
					"internalType": "address",
					"name": "token1Agg",
					"type": "address"
				},
				{
					"internalType": "uint8",
					"name": "token0Dec",
					"type": "uint8"
				},
				{
					"internalType": "uint8",
					"name": "token1Dec",
					"type": "uint8"
				}
			],
			"name": "setVaultUnderlyingFeeds",
			"outputs": [],
			"stateMutability": "nonpayable",
			"type": "function"
		},
		{
			"inputs": [
				{
					"internalType": "address",
					"name": "newOwner",
					"type": "address"
				}
			],
			"name": "transferOwnership",
			"outputs": [],
			"stateMutability": "nonpayable",
			"type": "function"
		},
		{
			"inputs": [
				{
					"internalType": "address",
					"name": "",
					"type": "address"
				}
			],
			"name": "vaultFeeds",
			"outputs": [
				{
					"internalType": "address",
					"name": "token0Aggregator",
					"type": "address"
				},
				{
					"internalType": "address",
					"name": "token1Aggregator",
					"type": "address"
				},
				{
					"internalType": "uint8",
					"name": "token0Decimals",
					"type": "uint8"
				},
				{
					"internalType": "uint8",
					"name": "token1Decimals",
					"type": "uint8"
				},
				{
					"internalType": "bool",
					"name": "exists",
					"type": "bool"
				}
			],
			"stateMutability": "view",
			"type": "function"
		}
	]
}