{
	"data": {
		"bytecode": {
			"linkReferences": {},
			"object": "608060405234801561001057600080fd5b5060405161220d38038061220d83398101604081905261002f9161010b565b610038336100bb565b6001600160a01b0381166100ac576040517f08c379a000000000000000000000000000000000000000000000000000000000815260206004820152601c60248201527f4f7261636c654d616e616765723a20696e76616c6964206f776e657200000000604482015260640160405180910390fd5b6100b5816100bb565b5061013b565b600080546001600160a01b038381166001600160a01b0319831681178455604051919092169283917f8be0079c531659141344cd1fd0a4f28419497f9722a3daafe3b4186f6b6457e09190a35050565b60006020828403121561011d57600080fd5b81516001600160a01b038116811461013457600080fd5b9392505050565b6120c38061014a6000396000f3fe608060405234801561001057600080fd5b50600436106100885760003560e01c80638da5cb5b1161005b5780638da5cb5b146101e85780639b05fc7514610203578063f2ac1ec514610216578063f2fde38b1461022957600080fd5b8063067a4b061461008d57806341976e0914610124578063715018a61461014e5780637f4a310214610158575b600080fd5b6100e261009b366004611a02565b600160208190526000918252604090912080549101546001600160a01b039182169181169060ff600160a01b8204811691600160a81b8104821691600160b01b9091041685565b604080516001600160a01b0396871681529590941660208601529115159284019290925260ff90911660608301521515608082015260a0015b60405180910390f35b610137610132366004611a02565b61023c565b6040805192835260ff90911660208301520161011b565b610156610419565b005b6101ad610166366004611a02565b600260205260009081526040902080546001909101546001600160a01b039182169181169060ff600160a01b8204811691600160a81b8104821691600160b01b9091041685565b604080516001600160a01b03968716815295909416602086015260ff928316938501939093521660608301521515608082015260a00161011b565b6000546040516001600160a01b03909116815260200161011b565b610156610211366004611a2e565b61042d565b610156610224366004611aad565b6105c2565b610156610237366004611a02565b6107d2565b6001600160a01b038082166000908152600160208181526040808420815160a0810183528154871680825291909401549586169284019290925260ff600160a01b86048116151591840191909152600160a81b850481166060840152600160b01b9094049093161515608082015290918291901515806102bd575080608001515b6103225760405162461bcd60e51b815260206004820152602b60248201527f4f7261636c654d616e616765723a206e6f2061676772656761746f72206f722060448201526a7661756c74206c6f67696360a81b60648201526084015b60405180910390fd5b806080015161033e576103348161084b565b9093509150610413565b6001600160a01b03808516600090815260026020908152604091829020825160a0810184528154851681526001909101549384169181019190915260ff600160a01b8404811692820192909252600160a81b830482166060820152600160b01b909204161515608082018190526104025760405162461bcd60e51b815260206004820152602260248201527f4f7261636c654d616e616765723a207661756c74206665656473206e6f742073604482015261195d60f21b6064820152608401610319565b61040c8582610986565b9094509250505b50915091565b610421610afe565b61042b6000610b58565b565b610435610afe565b6001600160a01b0385166104955760405162461bcd60e51b815260206004820152602160248201527f4f7261636c654d616e616765723a20696e76616c6964207661756c74546f6b656044820152603760f91b6064820152608401610319565b6040805160a0810182526001600160a01b038087168252858116602080840191825260ff808816858701908152878216606087019081526001608088018181528e881660008181526002909752958a9020985189549089166001600160a01b03199091161789559551970180549251915195511515600160b01b0260ff60b01b19968516600160a81b029690961661ffff60a81b1992909416600160a01b026001600160a81b0319909316979096169690961717949094169390931717905590517f2fb5936f285b062770ba9aa206ca7282ebb8f84ad2eda1c664b3059e9c62c1ba906105b39087908790879087906001600160a01b03948516815292909316602083015260ff908116604083015291909116606082015260800190565b60405180910390a25050505050565b6105ca610afe565b6001600160a01b0386166106205760405162461bcd60e51b815260206004820152601c60248201527f4f7261636c654d616e616765723a20696e76616c696420746f6b656e000000006044820152606401610319565b80610694576001600160a01b0385166106945760405162461bcd60e51b815260206004820152603060248201527f4f7261636c654d616e616765723a2061676772656761746f722072657175697260448201526f195908199bdc881b9bdb8b5d985d5b1d60821b6064820152608401610319565b6040805160a0810182526001600160a01b038088168252868116602080840191825287151584860190815260ff80891660608701908152881515608088019081528e871660008181526001968790528a9020985189549089166001600160a01b031990911617895595519790940180549351915194511515600160b01b0260ff60b01b1995909316600160a81b029490941661ffff60a81b19911515600160a01b026001600160a81b0319909416979096169690961791909117949094169290921792909217905590517f5be58a9eef853f8ae7393174434d0be93daad7445510f6ce6e914b2f297885b8906107c290889088908890889088906001600160a01b039586168152939094166020840152901515604083015260ff166060820152901515608082015260a00190565b60405180910390a2505050505050565b6107da610afe565b6001600160a01b03811661083f5760405162461bcd60e51b815260206004820152602660248201527f4f776e61626c653a206e6577206f776e657220697320746865207a65726f206160448201526564647265737360d01b6064820152608401610319565b61084881610b58565b50565b600080600080600061086586600001518760600151610ba8565b9250925092508215801561087a575085604001515b8015610892575060208601516001600160a01b031615155b1561091f5760008060006108ae89602001518a60600151610ba8565b925092509250826109115760405162461bcd60e51b815260206004820152602760248201527f4f7261636c654d616e616765723a2066616c6c6261636b2061676772656761746044820152661bdc8819985a5b60ca1b6064820152608401610319565b909890975095505050505050565b8261097b5760405162461bcd60e51b815260206004820152602660248201527f4f7261636c654d616e616765723a207072696d6172792061676772656761746f6044820152651c8819985a5b60d21b6064820152608401610319565b909590945092505050565b600080600080600061099787610d9b565b92509250925060006109a98284610fe4565b90506000610a17896001600160a01b0316633a924d5b6040518163ffffffff1660e01b8152600401602060405180830381865afa1580156109ee573d6000803e3d6000fd5b505050506040513d601f19601f82011682018060405250810190610a129190611b2f565b6111d8565b509050600080610a3583856040015186606001518760800151611308565b9150915060008460a001516001600160801b031683610a549190611b62565b905060008560c001516001600160801b031683610a719190611b62565b9050600060405180608001604052808e600001516001600160a01b031681526020018e602001516001600160a01b031681526020018e6040015160ff1681526020018e6060015160ff1681525090506000610acd84848461135e565b90508a15610adb578a610ade565b60015b610ae89082611b8b565b9f60089f509d5050505050505050505050505050565b6000546001600160a01b0316331461042b5760405162461bcd60e51b815260206004820181905260248201527f4f776e61626c653a2063616c6c6572206973206e6f7420746865206f776e65726044820152606401610319565b600080546001600160a01b038381166001600160a01b0319831681178455604051919092169283917f8be0079c531659141344cd1fd0a4f28419497f9722a3daafe3b4186f6b6457e09190a35050565b600080806001600160a01b038516610bc857506000915081905080610d94565b60408051600481526024810182526020810180516001600160e01b0316633fabe5a360e21b179052905160009081906001600160a01b03891690610c0d908590611bd1565b600060405180830381855afa9150503d8060008114610c48576040519150601f19603f3d011682016040523d82523d6000602084013e610c4d565b606091505b5091509150811580610c60575060a08151105b15610c78576000806000955095509550505050610d94565b600081806020019051810190610c8e9190611c0c565b50505091505060008113610cb057600080600096509650965050505050610d94565b8760ff8116600003610d875760408051600481526024810182526020810180516001600160e01b031663313ce56760e01b179052905160009182916001600160a01b038e1691610cff91611bd1565b600060405180830381855afa9150503d8060008114610d3a576040519150601f19603f3d011682016040523d82523d6000602084013e610d3f565b606091505b5091509150811580610d52575060208151105b15610d6e57600080600099509950995050505050505050610d94565b80806020019051810190610d829190611c5e565b925050505b6001975090955093505050505b9250925092565b600080600080849050806001600160a01b03166318160ddd6040518163ffffffff1660e01b8152600401602060405180830381865afa158015610de2573d6000803e3d6000fd5b505050506040513d601f19601f82011682018060405250810190610e069190611c7b565b935060008411610e635760405162461bcd60e51b815260206004820152602260248201527f4f7261636c654d616e616765723a207661756c7420746f74616c537570706c7960448201526103d360f41b6064820152608401610319565b806001600160a01b031663f657a7fe6040518163ffffffff1660e01b8152600401602060405180830381865afa158015610ea1573d6000803e3d6000fd5b505050506040513d601f19601f82011682018060405250810190610ec59190611c7b565b925082600003610f175760405162461bcd60e51b815260206004820152601e60248201527f4f7261636c654d616e616765723a206e6f204e465420696e207661756c7400006044820152606401610319565b806001600160a01b031663791b98bc6040518163ffffffff1660e01b8152600401602060405180830381865afa158015610f55573d6000803e3d6000fd5b505050506040513d601f19601f82011682018060405250810190610f799190611b2f565b91506001600160a01b038216610fdc5760405162461bcd60e51b815260206004820152602260248201527f4f7261636c654d616e616765723a20696e76616c696420706f736974696f6e4d60448201526133b960f11b6064820152608401610319565b509193909250565b6040805160e081018252600080825260208201819052918101829052606081018290526080810182905260a0810182905260c0810191909152600080846001600160a01b03166399fbab8860e01b8560405160240161104591815260200190565b60408051601f198184030181529181526020820180516001600160e01b03166001600160e01b03199094169390931790925290516110839190611bd1565b600060405180830381855afa9150503d80600081146110be576040519150601f19603f3d011682016040523d82523d6000602084013e6110c3565b606091505b5091509150816110d2826113a3565b906110f05760405162461bcd60e51b81526004016103199190611c94565b50808060200190518101906111059190611d0e565b909192939495969798999a509091929394959697989950909192939495965090919250909150896000018a6020018b6040018c6060018d6080018e60a0018f60c001876001600160801b03166001600160801b0316815250876001600160801b03166001600160801b0316815250876001600160801b03166001600160801b03168152508760020b60020b8152508760020b60020b815250876001600160a01b03166001600160a01b0316815250876001600160a01b03166001600160a01b031681525050505050505050505092915050565b6000806001600160a01b0383166112315760405162461bcd60e51b815260206004820152601b60248201527f4f7261636c654d616e616765723a20696e76616c696420706f6f6c00000000006044820152606401610319565b60408051600481526024810182526020810180516001600160e01b0316633850c7bd60e01b179052905160009182916001600160a01b0387169161127491611bd1565b600060405180830381855afa9150503d80600081146112af576040519150601f19603f3d011682016040523d82523d6000602084013e6112b4565b606091505b5091509150816112c3826113a3565b906112e15760405162461bcd60e51b81526004016103199190611c94565b50808060200190518101906112f69190611e02565b50949a93995092975050505050505050565b600080826001600160801b031660000361132757506000905080611355565b6000611332866113ee565b9050600061133f866113ee565b905061134d88838388611711565b909450925050505b94509492505050565b60008061137485846000015185604001516117ac565b9050600061138b85856020015186606001516117ac565b90506113978183611b62565b925050505b9392505050565b60606044825110156113ce5760405180606001604052806024815260200161206a6024913992915050565b600482019150818060200190518101906113e89190611ea7565b92915050565b60008060008360020b12611405578260020b61140d565b8260020b6000035b9050620d89e8811115611433576040516315e4079d60e11b815260040160405180910390fd5b60008160011660000361144a57600160801b61145c565b6ffffcb933bd6fad37aa2d162d1a5940015b70ffffffffffffffffffffffffffffffffff1690506002821615611490576ffff97272373d413259a46990580e213a0260801c5b60048216156114af576ffff2e50f5f656932ef12357cf3c7fdcc0260801c5b60088216156114ce576fffe5caca7e10e4e61c3624eaa0941cd00260801c5b60108216156114ed576fffcb9843d60f6159c9db58835c9266440260801c5b602082161561150c576fff973b41fa98c081472e6896dfb254c00260801c5b604082161561152b576fff2ea16466c96a3843ec78b326b528610260801c5b608082161561154a576ffe5dee046a99a2a811c461f1969c30530260801c5b61010082161561156a576ffcbe86c7900a88aedcffc83b479aa3a40260801c5b61020082161561158a576ff987a7253ac413176f2b074cf7815e540260801c5b6104008216156115aa576ff3392b0822b70005940c7a398e4b70f30260801c5b6108008216156115ca576fe7159475a2c29b7443b29c7fa6e889d90260801c5b6110008216156115ea576fd097f3bdfd2022b8845ad8f792aa58250260801c5b61200082161561160a576fa9f746462d870fdf8a65dc1f90e061e50260801c5b61400082161561162a576f70d869a156d2a1b890bb3df62baf32f70260801c5b61800082161561164a576f31be135f97d08fd981231505542fcfa60260801c5b6201000082161561166b576f09aa508b5b7a84e1c677de54f3e99bc90260801c5b6202000082161561168b576e5d6af8dedb81196699c329225ee6040260801c5b620400008216156116aa576d2216e584f5fa1ea926041bedfe980260801c5b620800008216156116c7576b048a170391f7dc42444e8fa20260801c5b60008460020b13156116e85780600019816116e4576116e4611b75565b0490505b6401000000008106156116fc5760016116ff565b60005b60ff16602082901c0192505050919050565b600080836001600160a01b0316856001600160a01b03161115611732579293925b846001600160a01b0316866001600160a01b03161161175d57611756858585611881565b9150611355565b836001600160a01b0316866001600160a01b0316101561179657611782868585611881565b915061178f8587856118f0565b9050611355565b6117a18585856118f0565b905094509492505050565b60008315806117c257506001600160a01b038316155b156117cf5750600061139c565b60008060006117de8686610ba8565b925092509250826118575760405162461bcd60e51b815260206004820152603b60248201527f4f7261636c654d616e616765723a2061676772656761746f72206661696c206960448201527f6e205f636f6e76657274546f41676772656761746f7256616c756500000000006064820152608401610319565b61186281600a612043565b61186c8389612052565b6118769190611b8b565b979650505050505050565b6000826001600160a01b0316846001600160a01b031611156118a1579192915b836001600160a01b03166118da606060ff16846001600160801b0316901b8686036001600160a01b0316866001600160a01b031661193b565b816118e7576118e7611b75565b04949350505050565b6000826001600160a01b0316846001600160a01b03161115611910579192915b611933826001600160801b03168585036001600160a01b0316600160601b61193b565b949350505050565b6000808060001985870985870292508281108382030391505080600003611974576000841161196957600080fd5b50829004905061139c565b80841161198057600080fd5b6000848688096000868103871696879004966002600389028118808a02820302808a02820302808a02820302808a02820302808a02820302808a02909103029181900381900460010186841190950394909402919094039290920491909117919091029150509392505050565b6001600160a01b038116811461084857600080fd5b600060208284031215611a1457600080fd5b813561139c816119ed565b60ff8116811461084857600080fd5b600080600080600060a08688031215611a4657600080fd5b8535611a51816119ed565b94506020860135611a61816119ed565b93506040860135611a71816119ed565b92506060860135611a8181611a1f565b91506080860135611a9181611a1f565b809150509295509295909350565b801515811461084857600080fd5b60008060008060008060c08789031215611ac657600080fd5b8635611ad1816119ed565b95506020870135611ae1816119ed565b94506040870135611af1816119ed565b93506060870135611b0181611a9f565b92506080870135611b1181611a1f565b915060a0870135611b2181611a9f565b809150509295509295509295565b600060208284031215611b4157600080fd5b815161139c816119ed565b634e487b7160e01b600052601160045260246000fd5b808201808211156113e8576113e8611b4c565b634e487b7160e01b600052601260045260246000fd5b600082611ba857634e487b7160e01b600052601260045260246000fd5b500490565b60005b83811015611bc8578181015183820152602001611bb0565b50506000910152565b60008251611be3818460208701611bad565b9190910192915050565b805169ffffffffffffffffffff81168114611c0757600080fd5b919050565b600080600080600060a08688031215611c2457600080fd5b611c2d86611bed565b60208701516040880151606089015192975090955093509150611c5260808701611bed565b90509295509295909350565b600060208284031215611c7057600080fd5b815161139c81611a1f565b600060208284031215611c8d57600080fd5b5051919050565b6020815260008251806020840152611cb3816040850160208701611bad565b601f01601f19169190910160400192915050565b8051611c07816119ed565b805162ffffff81168114611c0757600080fd5b8051600281900b8114611c0757600080fd5b80516001600160801b0381168114611c0757600080fd5b6000806000806000806000806000806000806101808d8f031215611d3157600080fd5b8c516bffffffffffffffffffffffff81168114611d4d57600080fd5b9b50611d5b60208e01611cc7565b9a50611d6960408e01611cc7565b9950611d7760608e01611cc7565b9850611d8560808e01611cd2565b9750611d9360a08e01611ce5565b9650611da160c08e01611ce5565b9550611daf60e08e01611cf7565b6101008e01516101208f015191965094509250611dcf6101408e01611cf7565b9150611dde6101608e01611cf7565b90509295989b509295989b509295989b565b805161ffff81168114611c0757600080fd5b600080600080600080600060e0888a031215611e1d57600080fd5b8751611e28816119ed565b9650611e3660208901611ce5565b9550611e4460408901611df0565b9450611e5260608901611df0565b9350611e6060808901611df0565b925060a0880151611e7081611a1f565b60c0890151909250611e8181611a9f565b8091505092959891949750929550565b634e487b7160e01b600052604160045260246000fd5b600060208284031215611eb957600080fd5b815167ffffffffffffffff811115611ed057600080fd5b8201601f81018413611ee157600080fd5b805167ffffffffffffffff811115611efb57611efb611e91565b604051601f8201601f19908116603f0116810167ffffffffffffffff81118282101715611f2a57611f2a611e91565b604052818152828201602001861015611f4257600080fd5b611f53826020830160208601611bad565b95945050505050565b6001815b6001841115611f9757808504811115611f7b57611f7b611b4c565b6001841615611f8957908102905b60019390931c928002611f60565b935093915050565b600082611fae575060016113e8565b81611fbb575060006113e8565b8160018114611fd15760028114611fdb57611ff7565b60019150506113e8565b60ff841115611fec57611fec611b4c565b50506001821b6113e8565b5060208310610133831016604e8410600b841016171561201a575081810a6113e8565b6120276000198484611f5c565b806000190482111561203b5761203b611b4c565b029392505050565b600061139c60ff841683611f9f565b80820281158282048414176113e8576113e8611b4c56fe4f7261636c654d616e616765723a2063616c6c20726576657274656420772f6f206d7367a264697066735822122004e5aad83a59fb9aef83d52c0ebeefa5cd16c8efc1f0a7bea6e313d4fa67886564736f6c634300081c0033",
			"opcodes": "PUSH1 0x80 PUSH1 0x40 MSTORE CALLVALUE DUP1 ISZERO PUSH2 0x10 JUMPI PUSH1 0x0 DUP1 REVERT JUMPDEST POP PUSH1 0x40 MLOAD PUSH2 0x220D CODESIZE SUB DUP1 PUSH2 0x220D DUP4 CODECOPY DUP2 ADD PUSH1 0x40 DUP2 SWAP1 MSTORE PUSH2 0x2F SWAP2 PUSH2 0x10B JUMP JUMPDEST PUSH2 0x38 CALLER PUSH2 0xBB JUMP JUMPDEST PUSH1 0x1 PUSH1 0x1 PUSH1 0xA0 SHL SUB DUP2 AND PUSH2 0xAC JUMPI PUSH1 0x40 MLOAD PUSH32 0x8C379A000000000000000000000000000000000000000000000000000000000 DUP2 MSTORE PUSH1 0x20 PUSH1 0x4 DUP3 ADD MSTORE PUSH1 0x1C PUSH1 0x24 DUP3 ADD MSTORE PUSH32 0x4F7261636C654D616E616765723A20696E76616C6964206F776E657200000000 PUSH1 0x44 DUP3 ADD MSTORE PUSH1 0x64 ADD PUSH1 0x40 MLOAD DUP1 SWAP2 SUB SWAP1 REVERT JUMPDEST PUSH2 0xB5 DUP2 PUSH2 0xBB JUMP JUMPDEST POP PUSH2 0x13B JUMP JUMPDEST PUSH1 0x0 DUP1 SLOAD PUSH1 0x1 PUSH1 0x1 PUSH1 0xA0 SHL SUB DUP4 DUP2 AND PUSH1 0x1 PUSH1 0x1 PUSH1 0xA0 SHL SUB NOT DUP4 AND DUP2 OR DUP5 SSTORE PUSH1 0x40 MLOAD SWAP2 SWAP1 SWAP3 AND SWAP3 DUP4 SWAP2 PUSH32 0x8BE0079C531659141344CD1FD0A4F28419497F9722A3DAAFE3B4186F6B6457E0 SWAP2 SWAP1 LOG3 POP POP JUMP JUMPDEST PUSH1 0x0 PUSH1 0x20 DUP3 DUP5 SUB SLT ISZERO PUSH2 0x11D JUMPI PUSH1 0x0 DUP1 REVERT JUMPDEST DUP2 MLOAD PUSH1 0x1 PUSH1 0x1 PUSH1 0xA0 SHL SUB DUP2 AND DUP2 EQ PUSH2 0x134 JUMPI PUSH1 0x0 DUP1 REVERT JUMPDEST SWAP4 SWAP3 POP POP POP JUMP JUMPDEST PUSH2 0x20C3 DUP1 PUSH2 0x14A PUSH1 0x0 CODECOPY PUSH1 0x0 RETURN INVALID PUSH1 0x80 PUSH1 0x40 MSTORE CALLVALUE DUP1 ISZERO PUSH2 0x10 JUMPI PUSH1 0x0 DUP1 REVERT JUMPDEST POP PUSH1 0x4 CALLDATASIZE LT PUSH2 0x88 JUMPI PUSH1 0x0 CALLDATALOAD PUSH1 0xE0 SHR DUP1 PUSH4 0x8DA5CB5B GT PUSH2 0x5B JUMPI DUP1 PUSH4 0x8DA5CB5B EQ PUSH2 0x1E8 JUMPI DUP1 PUSH4 0x9B05FC75 EQ PUSH2 0x203 JUMPI DUP1 PUSH4 0xF2AC1EC5 EQ PUSH2 0x216 JUMPI DUP1 PUSH4 0xF2FDE38B EQ PUSH2 0x229 JUMPI PUSH1 0x0 DUP1 REVERT JUMPDEST DUP1 PUSH4 0x67A4B06 EQ PUSH2 0x8D JUMPI DUP1 PUSH4 0x41976E09 EQ PUSH2 0x124 JUMPI DUP1 PUSH4 0x715018A6 EQ PUSH2 0x14E JUMPI DUP1 PUSH4 0x7F4A3102 EQ PUSH2 0x158 JUMPI JUMPDEST PUSH1 0x0 DUP1 REVERT JUMPDEST PUSH2 0xE2 PUSH2 0x9B CALLDATASIZE PUSH1 0x4 PUSH2 0x1A02 JUMP JUMPDEST PUSH1 0x1 PUSH1 0x20 DUP2 SWAP1 MSTORE PUSH1 0x0 SWAP2 DUP3 MSTORE PUSH1 0x40 SWAP1 SWAP2 KECCAK256 DUP1 SLOAD SWAP2 ADD SLOAD PUSH1 0x1 PUSH1 0x1 PUSH1 0xA0 SHL SUB SWAP2 DUP3 AND SWAP2 DUP2 AND SWAP1 PUSH1 0xFF PUSH1 0x1 PUSH1 0xA0 SHL DUP3 DIV DUP2 AND SWAP2 PUSH1 0x1 PUSH1 0xA8 SHL DUP2 DIV DUP3 AND SWAP2 PUSH1 0x1 PUSH1 0xB0 SHL SWAP1 SWAP2 DIV AND DUP6 JUMP JUMPDEST PUSH1 0x40 DUP1 MLOAD PUSH1 0x1 PUSH1 0x1 PUSH1 0xA0 SHL SUB SWAP7 DUP8 AND DUP2 MSTORE SWAP6 SWAP1 SWAP5 AND PUSH1 0x20 DUP7 ADD MSTORE SWAP2 ISZERO ISZERO SWAP3 DUP5 ADD SWAP3 SWAP1 SWAP3 MSTORE PUSH1 0xFF SWAP1 SWAP2 AND PUSH1 0x60 DUP4 ADD MSTORE ISZERO ISZERO PUSH1 0x80 DUP3 ADD MSTORE PUSH1 0xA0 ADD JUMPDEST PUSH1 0x40 MLOAD DUP1 SWAP2 SUB SWAP1 RETURN JUMPDEST PUSH2 0x137 PUSH2 0x132 CALLDATASIZE PUSH1 0x4 PUSH2 0x1A02 JUMP JUMPDEST PUSH2 0x23C JUMP JUMPDEST PUSH1 0x40 DUP1 MLOAD SWAP3 DUP4 MSTORE PUSH1 0xFF SWAP1 SWAP2 AND PUSH1 0x20 DUP4 ADD MSTORE ADD PUSH2 0x11B JUMP JUMPDEST PUSH2 0x156 PUSH2 0x419 JUMP JUMPDEST STOP JUMPDEST PUSH2 0x1AD PUSH2 0x166 CALLDATASIZE PUSH1 0x4 PUSH2 0x1A02 JUMP JUMPDEST PUSH1 0x2 PUSH1 0x20 MSTORE PUSH1 0x0 SWAP1 DUP2 MSTORE PUSH1 0x40 SWAP1 KECCAK256 DUP1 SLOAD PUSH1 0x1 SWAP1 SWAP2 ADD SLOAD PUSH1 0x1 PUSH1 0x1 PUSH1 0xA0 SHL SUB SWAP2 DUP3 AND SWAP2 DUP2 AND SWAP1 PUSH1 0xFF PUSH1 0x1 PUSH1 0xA0 SHL DUP3 DIV DUP2 AND SWAP2 PUSH1 0x1 PUSH1 0xA8 SHL DUP2 DIV DUP3 AND SWAP2 PUSH1 0x1 PUSH1 0xB0 SHL SWAP1 SWAP2 DIV AND DUP6 JUMP JUMPDEST PUSH1 0x40 DUP1 MLOAD PUSH1 0x1 PUSH1 0x1 PUSH1 0xA0 SHL SUB SWAP7 DUP8 AND DUP2 MSTORE SWAP6 SWAP1 SWAP5 AND PUSH1 0x20 DUP7 ADD MSTORE PUSH1 0xFF SWAP3 DUP4 AND SWAP4 DUP6 ADD SWAP4 SWAP1 SWAP4 MSTORE AND PUSH1 0x60 DUP4 ADD MSTORE ISZERO ISZERO PUSH1 0x80 DUP3 ADD MSTORE PUSH1 0xA0 ADD PUSH2 0x11B JUMP JUMPDEST PUSH1 0x0 SLOAD PUSH1 0x40 MLOAD PUSH1 0x1 PUSH1 0x1 PUSH1 0xA0 SHL SUB SWAP1 SWAP2 AND DUP2 MSTORE PUSH1 0x20 ADD PUSH2 0x11B JUMP JUMPDEST PUSH2 0x156 PUSH2 0x211 CALLDATASIZE PUSH1 0x4 PUSH2 0x1A2E JUMP JUMPDEST PUSH2 0x42D JUMP JUMPDEST PUSH2 0x156 PUSH2 0x224 CALLDATASIZE PUSH1 0x4 PUSH2 0x1AAD JUMP JUMPDEST PUSH2 0x5C2 JUMP JUMPDEST PUSH2 0x156 PUSH2 0x237 CALLDATASIZE PUSH1 0x4 PUSH2 0x1A02 JUMP JUMPDEST PUSH2 0x7D2 JUMP JUMPDEST PUSH1 0x1 PUSH1 0x1 PUSH1 0xA0 SHL SUB DUP1 DUP3 AND PUSH1 0x0 SWAP1 DUP2 MSTORE PUSH1 0x1 PUSH1 0x20 DUP2 DUP2 MSTORE PUSH1 0x40 DUP1 DUP5 KECCAK256 DUP2 MLOAD PUSH1 0xA0 DUP2 ADD DUP4 MSTORE DUP2 SLOAD DUP8 AND DUP1 DUP3 MSTORE SWAP2 SWAP1 SWAP5 ADD SLOAD SWAP6 DUP7 AND SWAP3 DUP5 ADD SWAP3 SWAP1 SWAP3 MSTORE PUSH1 0xFF PUSH1 0x1 PUSH1 0xA0 SHL DUP7 DIV DUP2 AND ISZERO ISZERO SWAP2 DUP5 ADD SWAP2 SWAP1 SWAP2 MSTORE PUSH1 0x1 PUSH1 0xA8 SHL DUP6 DIV DUP2 AND PUSH1 0x60 DUP5 ADD MSTORE PUSH1 0x1 PUSH1 0xB0 SHL SWAP1 SWAP5 DIV SWAP1 SWAP4 AND ISZERO ISZERO PUSH1 0x80 DUP3 ADD MSTORE SWAP1 SWAP2 DUP3 SWAP2 SWAP1 ISZERO ISZERO DUP1 PUSH2 0x2BD JUMPI POP DUP1 PUSH1 0x80 ADD MLOAD JUMPDEST PUSH2 0x322 JUMPI PUSH1 0x40 MLOAD PUSH3 0x461BCD PUSH1 0xE5 SHL DUP2 MSTORE PUSH1 0x20 PUSH1 0x4 DUP3 ADD MSTORE PUSH1 0x2B PUSH1 0x24 DUP3 ADD MSTORE PUSH32 0x4F7261636C654D616E616765723A206E6F2061676772656761746F72206F7220 PUSH1 0x44 DUP3 ADD MSTORE PUSH11 0x7661756C74206C6F676963 PUSH1 0xA8 SHL PUSH1 0x64 DUP3 ADD MSTORE PUSH1 0x84 ADD JUMPDEST PUSH1 0x40 MLOAD DUP1 SWAP2 SUB SWAP1 REVERT JUMPDEST DUP1 PUSH1 0x80 ADD MLOAD PUSH2 0x33E JUMPI PUSH2 0x334 DUP2 PUSH2 0x84B JUMP JUMPDEST SWAP1 SWAP4 POP SWAP2 POP PUSH2 0x413 JUMP JUMPDEST PUSH1 0x1 PUSH1 0x1 PUSH1 0xA0 SHL SUB DUP1 DUP6 AND PUSH1 0x0 SWAP1 DUP2 MSTORE PUSH1 0x2 PUSH1 0x20 SWAP1 DUP2 MSTORE PUSH1 0x40 SWAP2 DUP3 SWAP1 KECCAK256 DUP3 MLOAD PUSH1 0xA0 DUP2 ADD DUP5 MSTORE DUP2 SLOAD DUP6 AND DUP2 MSTORE PUSH1 0x1 SWAP1 SWAP2 ADD SLOAD SWAP4 DUP5 AND SWAP2 DUP2 ADD SWAP2 SWAP1 SWAP2 MSTORE PUSH1 0xFF PUSH1 0x1 PUSH1 0xA0 SHL DUP5 DIV DUP2 AND SWAP3 DUP3 ADD SWAP3 SWAP1 SWAP3 MSTORE PUSH1 0x1 PUSH1 0xA8 SHL DUP4 DIV DUP3 AND PUSH1 0x60 DUP3 ADD MSTORE PUSH1 0x1 PUSH1 0xB0 SHL SWAP1 SWAP3 DIV AND ISZERO ISZERO PUSH1 0x80 DUP3 ADD DUP2 SWAP1 MSTORE PUSH2 0x402 JUMPI PUSH1 0x40 MLOAD PUSH3 0x461BCD PUSH1 0xE5 SHL DUP2 MSTORE PUSH1 0x20 PUSH1 0x4 DUP3 ADD MSTORE PUSH1 0x22 PUSH1 0x24 DUP3 ADD MSTORE PUSH32 0x4F7261636C654D616E616765723A207661756C74206665656473206E6F742073 PUSH1 0x44 DUP3 ADD MSTORE PUSH2 0x195D PUSH1 0xF2 SHL PUSH1 0x64 DUP3 ADD MSTORE PUSH1 0x84 ADD PUSH2 0x319 JUMP JUMPDEST PUSH2 0x40C DUP6 DUP3 PUSH2 0x986 JUMP JUMPDEST SWAP1 SWAP5 POP SWAP3 POP POP JUMPDEST POP SWAP2 POP SWAP2 JUMP JUMPDEST PUSH2 0x421 PUSH2 0xAFE JUMP JUMPDEST PUSH2 0x42B PUSH1 0x0 PUSH2 0xB58 JUMP JUMPDEST JUMP JUMPDEST PUSH2 0x435 PUSH2 0xAFE JUMP JUMPDEST PUSH1 0x1 PUSH1 0x1 PUSH1 0xA0 SHL SUB DUP6 AND PUSH2 0x495 JUMPI PUSH1 0x40 MLOAD PUSH3 0x461BCD PUSH1 0xE5 SHL DUP2 MSTORE PUSH1 0x20 PUSH1 0x4 DUP3 ADD MSTORE PUSH1 0x21 PUSH1 0x24 DUP3 ADD MSTORE PUSH32 0x4F7261636C654D616E616765723A20696E76616C6964207661756C74546F6B65 PUSH1 0x44 DUP3 ADD MSTORE PUSH1 0x37 PUSH1 0xF9 SHL PUSH1 0x64 DUP3 ADD MSTORE PUSH1 0x84 ADD PUSH2 0x319 JUMP JUMPDEST PUSH1 0x40 DUP1 MLOAD PUSH1 0xA0 DUP2 ADD DUP3 MSTORE PUSH1 0x1 PUSH1 0x1 PUSH1 0xA0 SHL SUB DUP1 DUP8 AND DUP3 MSTORE DUP6 DUP2 AND PUSH1 0x20 DUP1 DUP5 ADD SWAP2 DUP3 MSTORE PUSH1 0xFF DUP1 DUP9 AND DUP6 DUP8 ADD SWAP1 DUP2 MSTORE DUP8 DUP3 AND PUSH1 0x60 DUP8 ADD SWAP1 DUP2 MSTORE PUSH1 0x1 PUSH1 0x80 DUP9 ADD DUP2 DUP2 MSTORE DUP15 DUP9 AND PUSH1 0x0 DUP2 DUP2 MSTORE PUSH1 0x2 SWAP1 SWAP8 MSTORE SWAP6 DUP11 SWAP1 KECCAK256 SWAP9 MLOAD DUP10 SLOAD SWAP1 DUP10 AND PUSH1 0x1 PUSH1 0x1 PUSH1 0xA0 SHL SUB NOT SWAP1 SWAP2 AND OR DUP10 SSTORE SWAP6 MLOAD SWAP8 ADD DUP1 SLOAD SWAP3 MLOAD SWAP2 MLOAD SWAP6 MLOAD ISZERO ISZERO PUSH1 0x1 PUSH1 0xB0 SHL MUL PUSH1 0xFF PUSH1 0xB0 SHL NOT SWAP7 DUP6 AND PUSH1 0x1 PUSH1 0xA8 SHL MUL SWAP7 SWAP1 SWAP7 AND PUSH2 0xFFFF PUSH1 0xA8 SHL NOT SWAP3 SWAP1 SWAP5 AND PUSH1 0x1 PUSH1 0xA0 SHL MUL PUSH1 0x1 PUSH1 0x1 PUSH1 0xA8 SHL SUB NOT SWAP1 SWAP4 AND SWAP8 SWAP1 SWAP7 AND SWAP7 SWAP1 SWAP7 OR OR SWAP5 SWAP1 SWAP5 AND SWAP4 SWAP1 SWAP4 OR OR SWAP1 SSTORE SWAP1 MLOAD PUSH32 0x2FB5936F285B062770BA9AA206CA7282EBB8F84AD2EDA1C664B3059E9C62C1BA SWAP1 PUSH2 0x5B3 SWAP1 DUP8 SWAP1 DUP8 SWAP1 DUP8 SWAP1 DUP8 SWAP1 PUSH1 0x1 PUSH1 0x1 PUSH1 0xA0 SHL SUB SWAP5 DUP6 AND DUP2 MSTORE SWAP3 SWAP1 SWAP4 AND PUSH1 0x20 DUP4 ADD MSTORE PUSH1 0xFF SWAP1 DUP2 AND PUSH1 0x40 DUP4 ADD MSTORE SWAP2 SWAP1 SWAP2 AND PUSH1 0x60 DUP3 ADD MSTORE PUSH1 0x80 ADD SWAP1 JUMP JUMPDEST PUSH1 0x40 MLOAD DUP1 SWAP2 SUB SWAP1 LOG2 POP POP POP POP POP JUMP JUMPDEST PUSH2 0x5CA PUSH2 0xAFE JUMP JUMPDEST PUSH1 0x1 PUSH1 0x1 PUSH1 0xA0 SHL SUB DUP7 AND PUSH2 0x620 JUMPI PUSH1 0x40 MLOAD PUSH3 0x461BCD PUSH1 0xE5 SHL DUP2 MSTORE PUSH1 0x20 PUSH1 0x4 DUP3 ADD MSTORE PUSH1 0x1C PUSH1 0x24 DUP3 ADD MSTORE PUSH32 0x4F7261636C654D616E616765723A20696E76616C696420746F6B656E00000000 PUSH1 0x44 DUP3 ADD MSTORE PUSH1 0x64 ADD PUSH2 0x319 JUMP JUMPDEST DUP1 PUSH2 0x694 JUMPI PUSH1 0x1 PUSH1 0x1 PUSH1 0xA0 SHL SUB DUP6 AND PUSH2 0x694 JUMPI PUSH1 0x40 MLOAD PUSH3 0x461BCD PUSH1 0xE5 SHL DUP2 MSTORE PUSH1 0x20 PUSH1 0x4 DUP3 ADD MSTORE PUSH1 0x30 PUSH1 0x24 DUP3 ADD MSTORE PUSH32 0x4F7261636C654D616E616765723A2061676772656761746F7220726571756972 PUSH1 0x44 DUP3 ADD MSTORE PUSH16 0x195908199BDC881B9BDB8B5D985D5B1D PUSH1 0x82 SHL PUSH1 0x64 DUP3 ADD MSTORE PUSH1 0x84 ADD PUSH2 0x319 JUMP JUMPDEST PUSH1 0x40 DUP1 MLOAD PUSH1 0xA0 DUP2 ADD DUP3 MSTORE PUSH1 0x1 PUSH1 0x1 PUSH1 0xA0 SHL SUB DUP1 DUP9 AND DUP3 MSTORE DUP7 DUP2 AND PUSH1 0x20 DUP1 DUP5 ADD SWAP2 DUP3 MSTORE DUP8 ISZERO ISZERO DUP5 DUP7 ADD SWAP1 DUP2 MSTORE PUSH1 0xFF DUP1 DUP10 AND PUSH1 0x60 DUP8 ADD SWAP1 DUP2 MSTORE DUP9 ISZERO ISZERO PUSH1 0x80 DUP9 ADD SWAP1 DUP2 MSTORE DUP15 DUP8 AND PUSH1 0x0 DUP2 DUP2 MSTORE PUSH1 0x1 SWAP7 DUP8 SWAP1 MSTORE DUP11 SWAP1 KECCAK256 SWAP9 MLOAD DUP10 SLOAD SWAP1 DUP10 AND PUSH1 0x1 PUSH1 0x1 PUSH1 0xA0 SHL SUB NOT SWAP1 SWAP2 AND OR DUP10 SSTORE SWAP6 MLOAD SWAP8 SWAP1 SWAP5 ADD DUP1 SLOAD SWAP4 MLOAD SWAP2 MLOAD SWAP5 MLOAD ISZERO ISZERO PUSH1 0x1 PUSH1 0xB0 SHL MUL PUSH1 0xFF PUSH1 0xB0 SHL NOT SWAP6 SWAP1 SWAP4 AND PUSH1 0x1 PUSH1 0xA8 SHL MUL SWAP5 SWAP1 SWAP5 AND PUSH2 0xFFFF PUSH1 0xA8 SHL NOT SWAP2 ISZERO ISZERO PUSH1 0x1 PUSH1 0xA0 SHL MUL PUSH1 0x1 PUSH1 0x1 PUSH1 0xA8 SHL SUB NOT SWAP1 SWAP5 AND SWAP8 SWAP1 SWAP7 AND SWAP7 SWAP1 SWAP7 OR SWAP2 SWAP1 SWAP2 OR SWAP5 SWAP1 SWAP5 AND SWAP3 SWAP1 SWAP3 OR SWAP3 SWAP1 SWAP3 OR SWAP1 SSTORE SWAP1 MLOAD PUSH32 0x5BE58A9EEF853F8AE7393174434D0BE93DAAD7445510F6CE6E914B2F297885B8 SWAP1 PUSH2 0x7C2 SWAP1 DUP9 SWAP1 DUP9 SWAP1 DUP9 SWAP1 DUP9 SWAP1 DUP9 SWAP1 PUSH1 0x1 PUSH1 0x1 PUSH1 0xA0 SHL SUB SWAP6 DUP7 AND DUP2 MSTORE SWAP4 SWAP1 SWAP5 AND PUSH1 0x20 DUP5 ADD MSTORE SWAP1 ISZERO ISZERO PUSH1 0x40 DUP4 ADD MSTORE PUSH1 0xFF AND PUSH1 0x60 DUP3 ADD MSTORE SWAP1 ISZERO ISZERO PUSH1 0x80 DUP3 ADD MSTORE PUSH1 0xA0 ADD SWAP1 JUMP JUMPDEST PUSH1 0x40 MLOAD DUP1 SWAP2 SUB SWAP1 LOG2 POP POP POP POP POP POP JUMP JUMPDEST PUSH2 0x7DA PUSH2 0xAFE JUMP JUMPDEST PUSH1 0x1 PUSH1 0x1 PUSH1 0xA0 SHL SUB DUP2 AND PUSH2 0x83F JUMPI PUSH1 0x40 MLOAD PUSH3 0x461BCD PUSH1 0xE5 SHL DUP2 MSTORE PUSH1 0x20 PUSH1 0x4 DUP3 ADD MSTORE PUSH1 0x26 PUSH1 0x24 DUP3 ADD MSTORE PUSH32 0x4F776E61626C653A206E6577206F776E657220697320746865207A65726F2061 PUSH1 0x44 DUP3 ADD MSTORE PUSH6 0x646472657373 PUSH1 0xD0 SHL PUSH1 0x64 DUP3 ADD MSTORE PUSH1 0x84 ADD PUSH2 0x319 JUMP JUMPDEST PUSH2 0x848 DUP2 PUSH2 0xB58 JUMP JUMPDEST POP JUMP JUMPDEST PUSH1 0x0 DUP1 PUSH1 0x0 DUP1 PUSH1 0x0 PUSH2 0x865 DUP7 PUSH1 0x0 ADD MLOAD DUP8 PUSH1 0x60 ADD MLOAD PUSH2 0xBA8 JUMP JUMPDEST SWAP3 POP SWAP3 POP SWAP3 POP DUP3 ISZERO DUP1 ISZERO PUSH2 0x87A JUMPI POP DUP6 PUSH1 0x40 ADD MLOAD JUMPDEST DUP1 ISZERO PUSH2 0x892 JUMPI POP PUSH1 0x20 DUP7 ADD MLOAD PUSH1 0x1 PUSH1 0x1 PUSH1 0xA0 SHL SUB AND ISZERO ISZERO JUMPDEST ISZERO PUSH2 0x91F JUMPI PUSH1 0x0 DUP1 PUSH1 0x0 PUSH2 0x8AE DUP10 PUSH1 0x20 ADD MLOAD DUP11 PUSH1 0x60 ADD MLOAD PUSH2 0xBA8 JUMP JUMPDEST SWAP3 POP SWAP3 POP SWAP3 POP DUP3 PUSH2 0x911 JUMPI PUSH1 0x40 MLOAD PUSH3 0x461BCD PUSH1 0xE5 SHL DUP2 MSTORE PUSH1 0x20 PUSH1 0x4 DUP3 ADD MSTORE PUSH1 0x27 PUSH1 0x24 DUP3 ADD MSTORE PUSH32 0x4F7261636C654D616E616765723A2066616C6C6261636B206167677265676174 PUSH1 0x44 DUP3 ADD MSTORE PUSH7 0x1BDC8819985A5B PUSH1 0xCA SHL PUSH1 0x64 DUP3 ADD MSTORE PUSH1 0x84 ADD PUSH2 0x319 JUMP JUMPDEST SWAP1 SWAP9 SWAP1 SWAP8 POP SWAP6 POP POP POP POP POP POP JUMP JUMPDEST DUP3 PUSH2 0x97B JUMPI PUSH1 0x40 MLOAD PUSH3 0x461BCD PUSH1 0xE5 SHL DUP2 MSTORE PUSH1 0x20 PUSH1 0x4 DUP3 ADD MSTORE PUSH1 0x26 PUSH1 0x24 DUP3 ADD MSTORE PUSH32 0x4F7261636C654D616E616765723A207072696D6172792061676772656761746F PUSH1 0x44 DUP3 ADD MSTORE PUSH6 0x1C8819985A5B PUSH1 0xD2 SHL PUSH1 0x64 DUP3 ADD MSTORE PUSH1 0x84 ADD PUSH2 0x319 JUMP JUMPDEST SWAP1 SWAP6 SWAP1 SWAP5 POP SWAP3 POP POP POP JUMP JUMPDEST PUSH1 0x0 DUP1 PUSH1 0x0 DUP1 PUSH1 0x0 PUSH2 0x997 DUP8 PUSH2 0xD9B JUMP JUMPDEST SWAP3 POP SWAP3 POP SWAP3 POP PUSH1 0x0 PUSH2 0x9A9 DUP3 DUP5 PUSH2 0xFE4 JUMP JUMPDEST SWAP1 POP PUSH1 0x0 PUSH2 0xA17 DUP10 PUSH1 0x1 PUSH1 0x1 PUSH1 0xA0 SHL SUB AND PUSH4 0x3A924D5B PUSH1 0x40 MLOAD DUP2 PUSH4 0xFFFFFFFF AND PUSH1 0xE0 SHL DUP2 MSTORE PUSH1 0x4 ADD PUSH1 0x20 PUSH1 0x40 MLOAD DUP1 DUP4 SUB DUP2 DUP7 GAS STATICCALL ISZERO DUP1 ISZERO PUSH2 0x9EE JUMPI RETURNDATASIZE PUSH1 0x0 DUP1 RETURNDATACOPY RETURNDATASIZE PUSH1 0x0 REVERT JUMPDEST POP POP POP POP PUSH1 0x40 MLOAD RETURNDATASIZE PUSH1 0x1F NOT PUSH1 0x1F DUP3 ADD AND DUP3 ADD DUP1 PUSH1 0x40 MSTORE POP DUP2 ADD SWAP1 PUSH2 0xA12 SWAP2 SWAP1 PUSH2 0x1B2F JUMP JUMPDEST PUSH2 0x11D8 JUMP JUMPDEST POP SWAP1 POP PUSH1 0x0 DUP1 PUSH2 0xA35 DUP4 DUP6 PUSH1 0x40 ADD MLOAD DUP7 PUSH1 0x60 ADD MLOAD DUP8 PUSH1 0x80 ADD MLOAD PUSH2 0x1308 JUMP JUMPDEST SWAP2 POP SWAP2 POP PUSH1 0x0 DUP5 PUSH1 0xA0 ADD MLOAD PUSH1 0x1 PUSH1 0x1 PUSH1 0x80 SHL SUB AND DUP4 PUSH2 0xA54 SWAP2 SWAP1 PUSH2 0x1B62 JUMP JUMPDEST SWAP1 POP PUSH1 0x0 DUP6 PUSH1 0xC0 ADD MLOAD PUSH1 0x1 PUSH1 0x1 PUSH1 0x80 SHL SUB AND DUP4 PUSH2 0xA71 SWAP2 SWAP1 PUSH2 0x1B62 JUMP JUMPDEST SWAP1 POP PUSH1 0x0 PUSH1 0x40 MLOAD DUP1 PUSH1 0x80 ADD PUSH1 0x40 MSTORE DUP1 DUP15 PUSH1 0x0 ADD MLOAD PUSH1 0x1 PUSH1 0x1 PUSH1 0xA0 SHL SUB AND DUP2 MSTORE PUSH1 0x20 ADD DUP15 PUSH1 0x20 ADD MLOAD PUSH1 0x1 PUSH1 0x1 PUSH1 0xA0 SHL SUB AND DUP2 MSTORE PUSH1 0x20 ADD DUP15 PUSH1 0x40 ADD MLOAD PUSH1 0xFF AND DUP2 MSTORE PUSH1 0x20 ADD DUP15 PUSH1 0x60 ADD MLOAD PUSH1 0xFF AND DUP2 MSTORE POP SWAP1 POP PUSH1 0x0 PUSH2 0xACD DUP5 DUP5 DUP5 PUSH2 0x135E JUMP JUMPDEST SWAP1 POP DUP11 ISZERO PUSH2 0xADB JUMPI DUP11 PUSH2 0xADE JUMP JUMPDEST PUSH1 0x1 JUMPDEST PUSH2 0xAE8 SWAP1 DUP3 PUSH2 0x1B8B JUMP JUMPDEST SWAP16 PUSH1 0x8 SWAP16 POP SWAP14 POP POP POP POP POP POP POP POP POP POP POP POP POP POP JUMP JUMPDEST PUSH1 0x0 SLOAD PUSH1 0x1 PUSH1 0x1 PUSH1 0xA0 SHL SUB AND CALLER EQ PUSH2 0x42B JUMPI PUSH1 0x40 MLOAD PUSH3 0x461BCD PUSH1 0xE5 SHL DUP2 MSTORE PUSH1 0x20 PUSH1 0x4 DUP3 ADD DUP2 SWAP1 MSTORE PUSH1 0x24 DUP3 ADD MSTORE PUSH32 0x4F776E61626C653A2063616C6C6572206973206E6F7420746865206F776E6572 PUSH1 0x44 DUP3 ADD MSTORE PUSH1 0x64 ADD PUSH2 0x319 JUMP JUMPDEST PUSH1 0x0 DUP1 SLOAD PUSH1 0x1 PUSH1 0x1 PUSH1 0xA0 SHL SUB DUP4 DUP2 AND PUSH1 0x1 PUSH1 0x1 PUSH1 0xA0 SHL SUB NOT DUP4 AND DUP2 OR DUP5 SSTORE PUSH1 0x40 MLOAD SWAP2 SWAP1 SWAP3 AND SWAP3 DUP4 SWAP2 PUSH32 0x8BE0079C531659141344CD1FD0A4F28419497F9722A3DAAFE3B4186F6B6457E0 SWAP2 SWAP1 LOG3 POP POP JUMP JUMPDEST PUSH1 0x0 DUP1 DUP1 PUSH1 0x1 PUSH1 0x1 PUSH1 0xA0 SHL SUB DUP6 AND PUSH2 0xBC8 JUMPI POP PUSH1 0x0 SWAP2 POP DUP2 SWAP1 POP DUP1 PUSH2 0xD94 JUMP JUMPDEST PUSH1 0x40 DUP1 MLOAD PUSH1 0x4 DUP2 MSTORE PUSH1 0x24 DUP2 ADD DUP3 MSTORE PUSH1 0x20 DUP2 ADD DUP1 MLOAD PUSH1 0x1 PUSH1 0x1 PUSH1 0xE0 SHL SUB AND PUSH4 0x3FABE5A3 PUSH1 0xE2 SHL OR SWAP1 MSTORE SWAP1 MLOAD PUSH1 0x0 SWAP1 DUP2 SWAP1 PUSH1 0x1 PUSH1 0x1 PUSH1 0xA0 SHL SUB DUP10 AND SWAP1 PUSH2 0xC0D SWAP1 DUP6 SWAP1 PUSH2 0x1BD1 JUMP JUMPDEST PUSH1 0x0 PUSH1 0x40 MLOAD DUP1 DUP4 SUB DUP2 DUP6 GAS STATICCALL SWAP2 POP POP RETURNDATASIZE DUP1 PUSH1 0x0 DUP2 EQ PUSH2 0xC48 JUMPI PUSH1 0x40 MLOAD SWAP2 POP PUSH1 0x1F NOT PUSH1 0x3F RETURNDATASIZE ADD AND DUP3 ADD PUSH1 0x40 MSTORE RETURNDATASIZE DUP3 MSTORE RETURNDATASIZE PUSH1 0x0 PUSH1 0x20 DUP5 ADD RETURNDATACOPY PUSH2 0xC4D JUMP JUMPDEST PUSH1 0x60 SWAP2 POP JUMPDEST POP SWAP2 POP SWAP2 POP DUP2 ISZERO DUP1 PUSH2 0xC60 JUMPI POP PUSH1 0xA0 DUP2 MLOAD LT JUMPDEST ISZERO PUSH2 0xC78 JUMPI PUSH1 0x0 DUP1 PUSH1 0x0 SWAP6 POP SWAP6 POP SWAP6 POP POP POP POP PUSH2 0xD94 JUMP JUMPDEST PUSH1 0x0 DUP2 DUP1 PUSH1 0x20 ADD SWAP1 MLOAD DUP2 ADD SWAP1 PUSH2 0xC8E SWAP2 SWAP1 PUSH2 0x1C0C JUMP JUMPDEST POP POP POP SWAP2 POP POP PUSH1 0x0 DUP2 SGT PUSH2 0xCB0 JUMPI PUSH1 0x0 DUP1 PUSH1 0x0 SWAP7 POP SWAP7 POP SWAP7 POP POP POP POP POP PUSH2 0xD94 JUMP JUMPDEST DUP8 PUSH1 0xFF DUP2 AND PUSH1 0x0 SUB PUSH2 0xD87 JUMPI PUSH1 0x40 DUP1 MLOAD PUSH1 0x4 DUP2 MSTORE PUSH1 0x24 DUP2 ADD DUP3 MSTORE PUSH1 0x20 DUP2 ADD DUP1 MLOAD PUSH1 0x1 PUSH1 0x1 PUSH1 0xE0 SHL SUB AND PUSH4 0x313CE567 PUSH1 0xE0 SHL OR SWAP1 MSTORE SWAP1 MLOAD PUSH1 0x0 SWAP2 DUP3 SWAP2 PUSH1 0x1 PUSH1 0x1 PUSH1 0xA0 SHL SUB DUP15 AND SWAP2 PUSH2 0xCFF SWAP2 PUSH2 0x1BD1 JUMP JUMPDEST PUSH1 0x0 PUSH1 0x40 MLOAD DUP1 DUP4 SUB DUP2 DUP6 GAS STATICCALL SWAP2 POP POP RETURNDATASIZE DUP1 PUSH1 0x0 DUP2 EQ PUSH2 0xD3A JUMPI PUSH1 0x40 MLOAD SWAP2 POP PUSH1 0x1F NOT PUSH1 0x3F RETURNDATASIZE ADD AND DUP3 ADD PUSH1 0x40 MSTORE RETURNDATASIZE DUP3 MSTORE RETURNDATASIZE PUSH1 0x0 PUSH1 0x20 DUP5 ADD RETURNDATACOPY PUSH2 0xD3F JUMP JUMPDEST PUSH1 0x60 SWAP2 POP JUMPDEST POP SWAP2 POP SWAP2 POP DUP2 ISZERO DUP1 PUSH2 0xD52 JUMPI POP PUSH1 0x20 DUP2 MLOAD LT JUMPDEST ISZERO PUSH2 0xD6E JUMPI PUSH1 0x0 DUP1 PUSH1 0x0 SWAP10 POP SWAP10 POP SWAP10 POP POP POP POP POP POP POP POP PUSH2 0xD94 JUMP JUMPDEST DUP1 DUP1 PUSH1 0x20 ADD SWAP1 MLOAD DUP2 ADD SWAP1 PUSH2 0xD82 SWAP2 SWAP1 PUSH2 0x1C5E JUMP JUMPDEST SWAP3 POP POP POP JUMPDEST PUSH1 0x1 SWAP8 POP SWAP1 SWAP6 POP SWAP4 POP POP POP POP JUMPDEST SWAP3 POP SWAP3 POP SWAP3 JUMP JUMPDEST PUSH1 0x0 DUP1 PUSH1 0x0 DUP1 DUP5 SWAP1 POP DUP1 PUSH1 0x1 PUSH1 0x1 PUSH1 0xA0 SHL SUB AND PUSH4 0x18160DDD PUSH1 0x40 MLOAD DUP2 PUSH4 0xFFFFFFFF AND PUSH1 0xE0 SHL DUP2 MSTORE PUSH1 0x4 ADD PUSH1 0x20 PUSH1 0x40 MLOAD DUP1 DUP4 SUB DUP2 DUP7 GAS STATICCALL ISZERO DUP1 ISZERO PUSH2 0xDE2 JUMPI RETURNDATASIZE PUSH1 0x0 DUP1 RETURNDATACOPY RETURNDATASIZE PUSH1 0x0 REVERT JUMPDEST POP POP POP POP PUSH1 0x40 MLOAD RETURNDATASIZE PUSH1 0x1F NOT PUSH1 0x1F DUP3 ADD AND DUP3 ADD DUP1 PUSH1 0x40 MSTORE POP DUP2 ADD SWAP1 PUSH2 0xE06 SWAP2 SWAP1 PUSH2 0x1C7B JUMP JUMPDEST SWAP4 POP PUSH1 0x0 DUP5 GT PUSH2 0xE63 JUMPI PUSH1 0x40 MLOAD PUSH3 0x461BCD PUSH1 0xE5 SHL DUP2 MSTORE PUSH1 0x20 PUSH1 0x4 DUP3 ADD MSTORE PUSH1 0x22 PUSH1 0x24 DUP3 ADD MSTORE PUSH32 0x4F7261636C654D616E616765723A207661756C7420746F74616C537570706C79 PUSH1 0x44 DUP3 ADD MSTORE PUSH2 0x3D3 PUSH1 0xF4 SHL PUSH1 0x64 DUP3 ADD MSTORE PUSH1 0x84 ADD PUSH2 0x319 JUMP JUMPDEST DUP1 PUSH1 0x1 PUSH1 0x1 PUSH1 0xA0 SHL SUB AND PUSH4 0xF657A7FE PUSH1 0x40 MLOAD DUP2 PUSH4 0xFFFFFFFF AND PUSH1 0xE0 SHL DUP2 MSTORE PUSH1 0x4 ADD PUSH1 0x20 PUSH1 0x40 MLOAD DUP1 DUP4 SUB DUP2 DUP7 GAS STATICCALL ISZERO DUP1 ISZERO PUSH2 0xEA1 JUMPI RETURNDATASIZE PUSH1 0x0 DUP1 RETURNDATACOPY RETURNDATASIZE PUSH1 0x0 REVERT JUMPDEST POP POP POP POP PUSH1 0x40 MLOAD RETURNDATASIZE PUSH1 0x1F NOT PUSH1 0x1F DUP3 ADD AND DUP3 ADD DUP1 PUSH1 0x40 MSTORE POP DUP2 ADD SWAP1 PUSH2 0xEC5 SWAP2 SWAP1 PUSH2 0x1C7B JUMP JUMPDEST SWAP3 POP DUP3 PUSH1 0x0 SUB PUSH2 0xF17 JUMPI PUSH1 0x40 MLOAD PUSH3 0x461BCD PUSH1 0xE5 SHL DUP2 MSTORE PUSH1 0x20 PUSH1 0x4 DUP3 ADD MSTORE PUSH1 0x1E PUSH1 0x24 DUP3 ADD MSTORE PUSH32 0x4F7261636C654D616E616765723A206E6F204E465420696E207661756C740000 PUSH1 0x44 DUP3 ADD MSTORE PUSH1 0x64 ADD PUSH2 0x319 JUMP JUMPDEST DUP1 PUSH1 0x1 PUSH1 0x1 PUSH1 0xA0 SHL SUB AND PUSH4 0x791B98BC PUSH1 0x40 MLOAD DUP2 PUSH4 0xFFFFFFFF AND PUSH1 0xE0 SHL DUP2 MSTORE PUSH1 0x4 ADD PUSH1 0x20 PUSH1 0x40 MLOAD DUP1 DUP4 SUB DUP2 DUP7 GAS STATICCALL ISZERO DUP1 ISZERO PUSH2 0xF55 JUMPI RETURNDATASIZE PUSH1 0x0 DUP1 RETURNDATACOPY RETURNDATASIZE PUSH1 0x0 REVERT JUMPDEST POP POP POP POP PUSH1 0x40 MLOAD RETURNDATASIZE PUSH1 0x1F NOT PUSH1 0x1F DUP3 ADD AND DUP3 ADD DUP1 PUSH1 0x40 MSTORE POP DUP2 ADD SWAP1 PUSH2 0xF79 SWAP2 SWAP1 PUSH2 0x1B2F JUMP JUMPDEST SWAP2 POP PUSH1 0x1 PUSH1 0x1 PUSH1 0xA0 SHL SUB DUP3 AND PUSH2 0xFDC JUMPI PUSH1 0x40 MLOAD PUSH3 0x461BCD PUSH1 0xE5 SHL DUP2 MSTORE PUSH1 0x20 PUSH1 0x4 DUP3 ADD MSTORE PUSH1 0x22 PUSH1 0x24 DUP3 ADD MSTORE PUSH32 0x4F7261636C654D616E616765723A20696E76616C696420706F736974696F6E4D PUSH1 0x44 DUP3 ADD MSTORE PUSH2 0x33B9 PUSH1 0xF1 SHL PUSH1 0x64 DUP3 ADD MSTORE PUSH1 0x84 ADD PUSH2 0x319 JUMP JUMPDEST POP SWAP2 SWAP4 SWAP1 SWAP3 POP JUMP JUMPDEST PUSH1 0x40 DUP1 MLOAD PUSH1 0xE0 DUP2 ADD DUP3 MSTORE PUSH1 0x0 DUP1 DUP3 MSTORE PUSH1 0x20 DUP3 ADD DUP2 SWAP1 MSTORE SWAP2 DUP2 ADD DUP3 SWAP1 MSTORE PUSH1 0x60 DUP2 ADD DUP3 SWAP1 MSTORE PUSH1 0x80 DUP2 ADD DUP3 SWAP1 MSTORE PUSH1 0xA0 DUP2 ADD DUP3 SWAP1 MSTORE PUSH1 0xC0 DUP2 ADD SWAP2 SWAP1 SWAP2 MSTORE PUSH1 0x0 DUP1 DUP5 PUSH1 0x1 PUSH1 0x1 PUSH1 0xA0 SHL SUB AND PUSH4 0x99FBAB88 PUSH1 0xE0 SHL DUP6 PUSH1 0x40 MLOAD PUSH1 0x24 ADD PUSH2 0x1045 SWAP2 DUP2 MSTORE PUSH1 0x20 ADD SWAP1 JUMP JUMPDEST PUSH1 0x40 DUP1 MLOAD PUSH1 0x1F NOT DUP2 DUP5 SUB ADD DUP2 MSTORE SWAP2 DUP2 MSTORE PUSH1 0x20 DUP3 ADD DUP1 MLOAD PUSH1 0x1 PUSH1 0x1 PUSH1 0xE0 SHL SUB AND PUSH1 0x1 PUSH1 0x1 PUSH1 0xE0 SHL SUB NOT SWAP1 SWAP5 AND SWAP4 SWAP1 SWAP4 OR SWAP1 SWAP3 MSTORE SWAP1 MLOAD PUSH2 0x1083 SWAP2 SWAP1 PUSH2 0x1BD1 JUMP JUMPDEST PUSH1 0x0 PUSH1 0x40 MLOAD DUP1 DUP4 SUB DUP2 DUP6 GAS STATICCALL SWAP2 POP POP RETURNDATASIZE DUP1 PUSH1 0x0 DUP2 EQ PUSH2 0x10BE JUMPI PUSH1 0x40 MLOAD SWAP2 POP PUSH1 0x1F NOT PUSH1 0x3F RETURNDATASIZE ADD AND DUP3 ADD PUSH1 0x40 MSTORE RETURNDATASIZE DUP3 MSTORE RETURNDATASIZE PUSH1 0x0 PUSH1 0x20 DUP5 ADD RETURNDATACOPY PUSH2 0x10C3 JUMP JUMPDEST PUSH1 0x60 SWAP2 POP JUMPDEST POP SWAP2 POP SWAP2 POP DUP2 PUSH2 0x10D2 DUP3 PUSH2 0x13A3 JUMP JUMPDEST SWAP1 PUSH2 0x10F0 JUMPI PUSH1 0x40 MLOAD PUSH3 0x461BCD PUSH1 0xE5 SHL DUP2 MSTORE PUSH1 0x4 ADD PUSH2 0x319 SWAP2 SWAP1 PUSH2 0x1C94 JUMP JUMPDEST POP DUP1 DUP1 PUSH1 0x20 ADD SWAP1 MLOAD DUP2 ADD SWAP1 PUSH2 0x1105 SWAP2 SWAP1 PUSH2 0x1D0E JUMP JUMPDEST SWAP1 SWAP2 SWAP3 SWAP4 SWAP5 SWAP6 SWAP7 SWAP8 SWAP9 SWAP10 SWAP11 POP SWAP1 SWAP2 SWAP3 SWAP4 SWAP5 SWAP6 SWAP7 SWAP8 SWAP9 SWAP10 POP SWAP1 SWAP2 SWAP3 SWAP4 SWAP5 SWAP6 SWAP7 POP SWAP1 SWAP2 SWAP3 POP SWAP1 SWAP2 POP DUP10 PUSH1 0x0 ADD DUP11 PUSH1 0x20 ADD DUP12 PUSH1 0x40 ADD DUP13 PUSH1 0x60 ADD DUP14 PUSH1 0x80 ADD DUP15 PUSH1 0xA0 ADD DUP16 PUSH1 0xC0 ADD DUP8 PUSH1 0x1 PUSH1 0x1 PUSH1 0x80 SHL SUB AND PUSH1 0x1 PUSH1 0x1 PUSH1 0x80 SHL SUB AND DUP2 MSTORE POP DUP8 PUSH1 0x1 PUSH1 0x1 PUSH1 0x80 SHL SUB AND PUSH1 0x1 PUSH1 0x1 PUSH1 0x80 SHL SUB AND DUP2 MSTORE POP DUP8 PUSH1 0x1 PUSH1 0x1 PUSH1 0x80 SHL SUB AND PUSH1 0x1 PUSH1 0x1 PUSH1 0x80 SHL SUB AND DUP2 MSTORE POP DUP8 PUSH1 0x2 SIGNEXTEND PUSH1 0x2 SIGNEXTEND DUP2 MSTORE POP DUP8 PUSH1 0x2 SIGNEXTEND PUSH1 0x2 SIGNEXTEND DUP2 MSTORE POP DUP8 PUSH1 0x1 PUSH1 0x1 PUSH1 0xA0 SHL SUB AND PUSH1 0x1 PUSH1 0x1 PUSH1 0xA0 SHL SUB AND DUP2 MSTORE POP DUP8 PUSH1 0x1 PUSH1 0x1 PUSH1 0xA0 SHL SUB AND PUSH1 0x1 PUSH1 0x1 PUSH1 0xA0 SHL SUB AND DUP2 MSTORE POP POP POP POP POP POP POP POP POP POP SWAP3 SWAP2 POP POP JUMP JUMPDEST PUSH1 0x0 DUP1 PUSH1 0x1 PUSH1 0x1 PUSH1 0xA0 SHL SUB DUP4 AND PUSH2 0x1231 JUMPI PUSH1 0x40 MLOAD PUSH3 0x461BCD PUSH1 0xE5 SHL DUP2 MSTORE PUSH1 0x20 PUSH1 0x4 DUP3 ADD MSTORE PUSH1 0x1B PUSH1 0x24 DUP3 ADD MSTORE PUSH32 0x4F7261636C654D616E616765723A20696E76616C696420706F6F6C0000000000 PUSH1 0x44 DUP3 ADD MSTORE PUSH1 0x64 ADD PUSH2 0x319 JUMP JUMPDEST PUSH1 0x40 DUP1 MLOAD PUSH1 0x4 DUP2 MSTORE PUSH1 0x24 DUP2 ADD DUP3 MSTORE PUSH1 0x20 DUP2 ADD DUP1 MLOAD PUSH1 0x1 PUSH1 0x1 PUSH1 0xE0 SHL SUB AND PUSH4 0x3850C7BD PUSH1 0xE0 SHL OR SWAP1 MSTORE SWAP1 MLOAD PUSH1 0x0 SWAP2 DUP3 SWAP2 PUSH1 0x1 PUSH1 0x1 PUSH1 0xA0 SHL SUB DUP8 AND SWAP2 PUSH2 0x1274 SWAP2 PUSH2 0x1BD1 JUMP JUMPDEST PUSH1 0x0 PUSH1 0x40 MLOAD DUP1 DUP4 SUB DUP2 DUP6 GAS STATICCALL SWAP2 POP POP RETURNDATASIZE DUP1 PUSH1 0x0 DUP2 EQ PUSH2 0x12AF JUMPI PUSH1 0x40 MLOAD SWAP2 POP PUSH1 0x1F NOT PUSH1 0x3F RETURNDATASIZE ADD AND DUP3 ADD PUSH1 0x40 MSTORE RETURNDATASIZE DUP3 MSTORE RETURNDATASIZE PUSH1 0x0 PUSH1 0x20 DUP5 ADD RETURNDATACOPY PUSH2 0x12B4 JUMP JUMPDEST PUSH1 0x60 SWAP2 POP JUMPDEST POP SWAP2 POP SWAP2 POP DUP2 PUSH2 0x12C3 DUP3 PUSH2 0x13A3 JUMP JUMPDEST SWAP1 PUSH2 0x12E1 JUMPI PUSH1 0x40 MLOAD PUSH3 0x461BCD PUSH1 0xE5 SHL DUP2 MSTORE PUSH1 0x4 ADD PUSH2 0x319 SWAP2 SWAP1 PUSH2 0x1C94 JUMP JUMPDEST POP DUP1 DUP1 PUSH1 0x20 ADD SWAP1 MLOAD DUP2 ADD SWAP1 PUSH2 0x12F6 SWAP2 SWAP1 PUSH2 0x1E02 JUMP JUMPDEST POP SWAP5 SWAP11 SWAP4 SWAP10 POP SWAP3 SWAP8 POP POP POP POP POP POP POP POP JUMP JUMPDEST PUSH1 0x0 DUP1 DUP3 PUSH1 0x1 PUSH1 0x1 PUSH1 0x80 SHL SUB AND PUSH1 0x0 SUB PUSH2 0x1327 JUMPI POP PUSH1 0x0 SWAP1 POP DUP1 PUSH2 0x1355 JUMP JUMPDEST PUSH1 0x0 PUSH2 0x1332 DUP7 PUSH2 0x13EE JUMP JUMPDEST SWAP1 POP PUSH1 0x0 PUSH2 0x133F DUP7 PUSH2 0x13EE JUMP JUMPDEST SWAP1 POP PUSH2 0x134D DUP9 DUP4 DUP4 DUP9 PUSH2 0x1711 JUMP JUMPDEST SWAP1 SWAP5 POP SWAP3 POP POP POP JUMPDEST SWAP5 POP SWAP5 SWAP3 POP POP POP JUMP JUMPDEST PUSH1 0x0 DUP1 PUSH2 0x1374 DUP6 DUP5 PUSH1 0x0 ADD MLOAD DUP6 PUSH1 0x40 ADD MLOAD PUSH2 0x17AC JUMP JUMPDEST SWAP1 POP PUSH1 0x0 PUSH2 0x138B DUP6 DUP6 PUSH1 0x20 ADD MLOAD DUP7 PUSH1 0x60 ADD MLOAD PUSH2 0x17AC JUMP JUMPDEST SWAP1 POP PUSH2 0x1397 DUP2 DUP4 PUSH2 0x1B62 JUMP JUMPDEST SWAP3 POP POP POP JUMPDEST SWAP4 SWAP3 POP POP POP JUMP JUMPDEST PUSH1 0x60 PUSH1 0x44 DUP3 MLOAD LT ISZERO PUSH2 0x13CE JUMPI PUSH1 0x40 MLOAD DUP1 PUSH1 0x60 ADD PUSH1 0x40 MSTORE DUP1 PUSH1 0x24 DUP2 MSTORE PUSH1 0x20 ADD PUSH2 0x206A PUSH1 0x24 SWAP2 CODECOPY SWAP3 SWAP2 POP POP JUMP JUMPDEST PUSH1 0x4 DUP3 ADD SWAP2 POP DUP2 DUP1 PUSH1 0x20 ADD SWAP1 MLOAD DUP2 ADD SWAP1 PUSH2 0x13E8 SWAP2 SWAP1 PUSH2 0x1EA7 JUMP JUMPDEST SWAP3 SWAP2 POP POP JUMP JUMPDEST PUSH1 0x0 DUP1 PUSH1 0x0 DUP4 PUSH1 0x2 SIGNEXTEND SLT PUSH2 0x1405 JUMPI DUP3 PUSH1 0x2 SIGNEXTEND PUSH2 0x140D JUMP JUMPDEST DUP3 PUSH1 0x2 SIGNEXTEND PUSH1 0x0 SUB JUMPDEST SWAP1 POP PUSH3 0xD89E8 DUP2 GT ISZERO PUSH2 0x1433 JUMPI PUSH1 0x40 MLOAD PUSH4 0x15E4079D PUSH1 0xE1 SHL DUP2 MSTORE PUSH1 0x4 ADD PUSH1 0x40 MLOAD DUP1 SWAP2 SUB SWAP1 REVERT JUMPDEST PUSH1 0x0 DUP2 PUSH1 0x1 AND PUSH1 0x0 SUB PUSH2 0x144A JUMPI PUSH1 0x1 PUSH1 0x80 SHL PUSH2 0x145C JUMP JUMPDEST PUSH16 0xFFFCB933BD6FAD37AA2D162D1A594001 JUMPDEST PUSH17 0xFFFFFFFFFFFFFFFFFFFFFFFFFFFFFFFFFF AND SWAP1 POP PUSH1 0x2 DUP3 AND ISZERO PUSH2 0x1490 JUMPI PUSH16 0xFFF97272373D413259A46990580E213A MUL PUSH1 0x80 SHR JUMPDEST PUSH1 0x4 DUP3 AND ISZERO PUSH2 0x14AF JUMPI PUSH16 0xFFF2E50F5F656932EF12357CF3C7FDCC MUL PUSH1 0x80 SHR JUMPDEST PUSH1 0x8 DUP3 AND ISZERO PUSH2 0x14CE JUMPI PUSH16 0xFFE5CACA7E10E4E61C3624EAA0941CD0 MUL PUSH1 0x80 SHR JUMPDEST PUSH1 0x10 DUP3 AND ISZERO PUSH2 0x14ED JUMPI PUSH16 0xFFCB9843D60F6159C9DB58835C926644 MUL PUSH1 0x80 SHR JUMPDEST PUSH1 0x20 DUP3 AND ISZERO PUSH2 0x150C JUMPI PUSH16 0xFF973B41FA98C081472E6896DFB254C0 MUL PUSH1 0x80 SHR JUMPDEST PUSH1 0x40 DUP3 AND ISZERO PUSH2 0x152B JUMPI PUSH16 0xFF2EA16466C96A3843EC78B326B52861 MUL PUSH1 0x80 SHR JUMPDEST PUSH1 0x80 DUP3 AND ISZERO PUSH2 0x154A JUMPI PUSH16 0xFE5DEE046A99A2A811C461F1969C3053 MUL PUSH1 0x80 SHR JUMPDEST PUSH2 0x100 DUP3 AND ISZERO PUSH2 0x156A JUMPI PUSH16 0xFCBE86C7900A88AEDCFFC83B479AA3A4 MUL PUSH1 0x80 SHR JUMPDEST PUSH2 0x200 DUP3 AND ISZERO PUSH2 0x158A JUMPI PUSH16 0xF987A7253AC413176F2B074CF7815E54 MUL PUSH1 0x80 SHR JUMPDEST PUSH2 0x400 DUP3 AND ISZERO PUSH2 0x15AA JUMPI PUSH16 0xF3392B0822B70005940C7A398E4B70F3 MUL PUSH1 0x80 SHR JUMPDEST PUSH2 0x800 DUP3 AND ISZERO PUSH2 0x15CA JUMPI PUSH16 0xE7159475A2C29B7443B29C7FA6E889D9 MUL PUSH1 0x80 SHR JUMPDEST PUSH2 0x1000 DUP3 AND ISZERO PUSH2 0x15EA JUMPI PUSH16 0xD097F3BDFD2022B8845AD8F792AA5825 MUL PUSH1 0x80 SHR JUMPDEST PUSH2 0x2000 DUP3 AND ISZERO PUSH2 0x160A JUMPI PUSH16 0xA9F746462D870FDF8A65DC1F90E061E5 MUL PUSH1 0x80 SHR JUMPDEST PUSH2 0x4000 DUP3 AND ISZERO PUSH2 0x162A JUMPI PUSH16 0x70D869A156D2A1B890BB3DF62BAF32F7 MUL PUSH1 0x80 SHR JUMPDEST PUSH2 0x8000 DUP3 AND ISZERO PUSH2 0x164A JUMPI PUSH16 0x31BE135F97D08FD981231505542FCFA6 MUL PUSH1 0x80 SHR JUMPDEST PUSH3 0x10000 DUP3 AND ISZERO PUSH2 0x166B JUMPI PUSH16 0x9AA508B5B7A84E1C677DE54F3E99BC9 MUL PUSH1 0x80 SHR JUMPDEST PUSH3 0x20000 DUP3 AND ISZERO PUSH2 0x168B JUMPI PUSH15 0x5D6AF8DEDB81196699C329225EE604 MUL PUSH1 0x80 SHR JUMPDEST PUSH3 0x40000 DUP3 AND ISZERO PUSH2 0x16AA JUMPI PUSH14 0x2216E584F5FA1EA926041BEDFE98 MUL PUSH1 0x80 SHR JUMPDEST PUSH3 0x80000 DUP3 AND ISZERO PUSH2 0x16C7 JUMPI PUSH12 0x48A170391F7DC42444E8FA2 MUL PUSH1 0x80 SHR JUMPDEST PUSH1 0x0 DUP5 PUSH1 0x2 SIGNEXTEND SGT ISZERO PUSH2 0x16E8 JUMPI DUP1 PUSH1 0x0 NOT DUP2 PUSH2 0x16E4 JUMPI PUSH2 0x16E4 PUSH2 0x1B75 JUMP JUMPDEST DIV SWAP1 POP JUMPDEST PUSH5 0x100000000 DUP2 MOD ISZERO PUSH2 0x16FC JUMPI PUSH1 0x1 PUSH2 0x16FF JUMP JUMPDEST PUSH1 0x0 JUMPDEST PUSH1 0xFF AND PUSH1 0x20 DUP3 SWAP1 SHR ADD SWAP3 POP POP POP SWAP2 SWAP1 POP JUMP JUMPDEST PUSH1 0x0 DUP1 DUP4 PUSH1 0x1 PUSH1 0x1 PUSH1 0xA0 SHL SUB AND DUP6 PUSH1 0x1 PUSH1 0x1 PUSH1 0xA0 SHL SUB AND GT ISZERO PUSH2 0x1732 JUMPI SWAP3 SWAP4 SWAP3 JUMPDEST DUP5 PUSH1 0x1 PUSH1 0x1 PUSH1 0xA0 SHL SUB AND DUP7 PUSH1 0x1 PUSH1 0x1 PUSH1 0xA0 SHL SUB AND GT PUSH2 0x175D JUMPI PUSH2 0x1756 DUP6 DUP6 DUP6 PUSH2 0x1881 JUMP JUMPDEST SWAP2 POP PUSH2 0x1355 JUMP JUMPDEST DUP4 PUSH1 0x1 PUSH1 0x1 PUSH1 0xA0 SHL SUB AND DUP7 PUSH1 0x1 PUSH1 0x1 PUSH1 0xA0 SHL SUB AND LT ISZERO PUSH2 0x1796 JUMPI PUSH2 0x1782 DUP7 DUP6 DUP6 PUSH2 0x1881 JUMP JUMPDEST SWAP2 POP PUSH2 0x178F DUP6 DUP8 DUP6 PUSH2 0x18F0 JUMP JUMPDEST SWAP1 POP PUSH2 0x1355 JUMP JUMPDEST PUSH2 0x17A1 DUP6 DUP6 DUP6 PUSH2 0x18F0 JUMP JUMPDEST SWAP1 POP SWAP5 POP SWAP5 SWAP3 POP POP POP JUMP JUMPDEST PUSH1 0x0 DUP4 ISZERO DUP1 PUSH2 0x17C2 JUMPI POP PUSH1 0x1 PUSH1 0x1 PUSH1 0xA0 SHL SUB DUP4 AND ISZERO JUMPDEST ISZERO PUSH2 0x17CF JUMPI POP PUSH1 0x0 PUSH2 0x139C JUMP JUMPDEST PUSH1 0x0 DUP1 PUSH1 0x0 PUSH2 0x17DE DUP7 DUP7 PUSH2 0xBA8 JUMP JUMPDEST SWAP3 POP SWAP3 POP SWAP3 POP DUP3 PUSH2 0x1857 JUMPI PUSH1 0x40 MLOAD PUSH3 0x461BCD PUSH1 0xE5 SHL DUP2 MSTORE PUSH1 0x20 PUSH1 0x4 DUP3 ADD MSTORE PUSH1 0x3B PUSH1 0x24 DUP3 ADD MSTORE PUSH32 0x4F7261636C654D616E616765723A2061676772656761746F72206661696C2069 PUSH1 0x44 DUP3 ADD MSTORE PUSH32 0x6E205F636F6E76657274546F41676772656761746F7256616C75650000000000 PUSH1 0x64 DUP3 ADD MSTORE PUSH1 0x84 ADD PUSH2 0x319 JUMP JUMPDEST PUSH2 0x1862 DUP2 PUSH1 0xA PUSH2 0x2043 JUMP JUMPDEST PUSH2 0x186C DUP4 DUP10 PUSH2 0x2052 JUMP JUMPDEST PUSH2 0x1876 SWAP2 SWAP1 PUSH2 0x1B8B JUMP JUMPDEST SWAP8 SWAP7 POP POP POP POP POP POP POP JUMP JUMPDEST PUSH1 0x0 DUP3 PUSH1 0x1 PUSH1 0x1 PUSH1 0xA0 SHL SUB AND DUP5 PUSH1 0x1 PUSH1 0x1 PUSH1 0xA0 SHL SUB AND GT ISZERO PUSH2 0x18A1 JUMPI SWAP2 SWAP3 SWAP2 JUMPDEST DUP4 PUSH1 0x1 PUSH1 0x1 PUSH1 0xA0 SHL SUB AND PUSH2 0x18DA PUSH1 0x60 PUSH1 0xFF AND DUP5 PUSH1 0x1 PUSH1 0x1 PUSH1 0x80 SHL SUB AND SWAP1 SHL DUP7 DUP7 SUB PUSH1 0x1 PUSH1 0x1 PUSH1 0xA0 SHL SUB AND DUP7 PUSH1 0x1 PUSH1 0x1 PUSH1 0xA0 SHL SUB AND PUSH2 0x193B JUMP JUMPDEST DUP2 PUSH2 0x18E7 JUMPI PUSH2 0x18E7 PUSH2 0x1B75 JUMP JUMPDEST DIV SWAP5 SWAP4 POP POP POP POP JUMP JUMPDEST PUSH1 0x0 DUP3 PUSH1 0x1 PUSH1 0x1 PUSH1 0xA0 SHL SUB AND DUP5 PUSH1 0x1 PUSH1 0x1 PUSH1 0xA0 SHL SUB AND GT ISZERO PUSH2 0x1910 JUMPI SWAP2 SWAP3 SWAP2 JUMPDEST PUSH2 0x1933 DUP3 PUSH1 0x1 PUSH1 0x1 PUSH1 0x80 SHL SUB AND DUP6 DUP6 SUB PUSH1 0x1 PUSH1 0x1 PUSH1 0xA0 SHL SUB AND PUSH1 0x1 PUSH1 0x60 SHL PUSH2 0x193B JUMP JUMPDEST SWAP5 SWAP4 POP POP POP POP JUMP JUMPDEST PUSH1 0x0 DUP1 DUP1 PUSH1 0x0 NOT DUP6 DUP8 MULMOD DUP6 DUP8 MUL SWAP3 POP DUP3 DUP2 LT DUP4 DUP3 SUB SUB SWAP2 POP POP DUP1 PUSH1 0x0 SUB PUSH2 0x1974 JUMPI PUSH1 0x0 DUP5 GT PUSH2 0x1969 JUMPI PUSH1 0x0 DUP1 REVERT JUMPDEST POP DUP3 SWAP1 DIV SWAP1 POP PUSH2 0x139C JUMP JUMPDEST DUP1 DUP5 GT PUSH2 0x1980 JUMPI PUSH1 0x0 DUP1 REVERT JUMPDEST PUSH1 0x0 DUP5 DUP7 DUP9 MULMOD PUSH1 0x0 DUP7 DUP2 SUB DUP8 AND SWAP7 DUP8 SWAP1 DIV SWAP7 PUSH1 0x2 PUSH1 0x3 DUP10 MUL DUP2 XOR DUP1 DUP11 MUL DUP3 SUB MUL DUP1 DUP11 MUL DUP3 SUB MUL DUP1 DUP11 MUL DUP3 SUB MUL DUP1 DUP11 MUL DUP3 SUB MUL DUP1 DUP11 MUL DUP3 SUB MUL DUP1 DUP11 MUL SWAP1 SWAP2 SUB MUL SWAP2 DUP2 SWAP1 SUB DUP2 SWAP1 DIV PUSH1 0x1 ADD DUP7 DUP5 GT SWAP1 SWAP6 SUB SWAP5 SWAP1 SWAP5 MUL SWAP2 SWAP1 SWAP5 SUB SWAP3 SWAP1 SWAP3 DIV SWAP2 SWAP1 SWAP2 OR SWAP2 SWAP1 SWAP2 MUL SWAP2 POP POP SWAP4 SWAP3 POP POP POP JUMP JUMPDEST PUSH1 0x1 PUSH1 0x1 PUSH1 0xA0 SHL SUB DUP2 AND DUP2 EQ PUSH2 0x848 JUMPI PUSH1 0x0 DUP1 REVERT JUMPDEST PUSH1 0x0 PUSH1 0x20 DUP3 DUP5 SUB SLT ISZERO PUSH2 0x1A14 JUMPI PUSH1 0x0 DUP1 REVERT JUMPDEST DUP2 CALLDATALOAD PUSH2 0x139C DUP2 PUSH2 0x19ED JUMP JUMPDEST PUSH1 0xFF DUP2 AND DUP2 EQ PUSH2 0x848 JUMPI PUSH1 0x0 DUP1 REVERT JUMPDEST PUSH1 0x0 DUP1 PUSH1 0x0 DUP1 PUSH1 0x0 PUSH1 0xA0 DUP7 DUP9 SUB SLT ISZERO PUSH2 0x1A46 JUMPI PUSH1 0x0 DUP1 REVERT JUMPDEST DUP6 CALLDATALOAD PUSH2 0x1A51 DUP2 PUSH2 0x19ED JUMP JUMPDEST SWAP5 POP PUSH1 0x20 DUP7 ADD CALLDATALOAD PUSH2 0x1A61 DUP2 PUSH2 0x19ED JUMP JUMPDEST SWAP4 POP PUSH1 0x40 DUP7 ADD CALLDATALOAD PUSH2 0x1A71 DUP2 PUSH2 0x19ED JUMP JUMPDEST SWAP3 POP PUSH1 0x60 DUP7 ADD CALLDATALOAD PUSH2 0x1A81 DUP2 PUSH2 0x1A1F JUMP JUMPDEST SWAP2 POP PUSH1 0x80 DUP7 ADD CALLDATALOAD PUSH2 0x1A91 DUP2 PUSH2 0x1A1F JUMP JUMPDEST DUP1 SWAP2 POP POP SWAP3 SWAP6 POP SWAP3 SWAP6 SWAP1 SWAP4 POP JUMP JUMPDEST DUP1 ISZERO ISZERO DUP2 EQ PUSH2 0x848 JUMPI PUSH1 0x0 DUP1 REVERT JUMPDEST PUSH1 0x0 DUP1 PUSH1 0x0 DUP1 PUSH1 0x0 DUP1 PUSH1 0xC0 DUP8 DUP10 SUB SLT ISZERO PUSH2 0x1AC6 JUMPI PUSH1 0x0 DUP1 REVERT JUMPDEST DUP7 CALLDATALOAD PUSH2 0x1AD1 DUP2 PUSH2 0x19ED JUMP JUMPDEST SWAP6 POP PUSH1 0x20 DUP8 ADD CALLDATALOAD PUSH2 0x1AE1 DUP2 PUSH2 0x19ED JUMP JUMPDEST SWAP5 POP PUSH1 0x40 DUP8 ADD CALLDATALOAD PUSH2 0x1AF1 DUP2 PUSH2 0x19ED JUMP JUMPDEST SWAP4 POP PUSH1 0x60 DUP8 ADD CALLDATALOAD PUSH2 0x1B01 DUP2 PUSH2 0x1A9F JUMP JUMPDEST SWAP3 POP PUSH1 0x80 DUP8 ADD CALLDATALOAD PUSH2 0x1B11 DUP2 PUSH2 0x1A1F JUMP JUMPDEST SWAP2 POP PUSH1 0xA0 DUP8 ADD CALLDATALOAD PUSH2 0x1B21 DUP2 PUSH2 0x1A9F JUMP JUMPDEST DUP1 SWAP2 POP POP SWAP3 SWAP6 POP SWAP3 SWAP6 POP SWAP3 SWAP6 JUMP JUMPDEST PUSH1 0x0 PUSH1 0x20 DUP3 DUP5 SUB SLT ISZERO PUSH2 0x1B41 JUMPI PUSH1 0x0 DUP1 REVERT JUMPDEST DUP2 MLOAD PUSH2 0x139C DUP2 PUSH2 0x19ED JUMP JUMPDEST PUSH4 0x4E487B71 PUSH1 0xE0 SHL PUSH1 0x0 MSTORE PUSH1 0x11 PUSH1 0x4 MSTORE PUSH1 0x24 PUSH1 0x0 REVERT JUMPDEST DUP1 DUP3 ADD DUP1 DUP3 GT ISZERO PUSH2 0x13E8 JUMPI PUSH2 0x13E8 PUSH2 0x1B4C JUMP JUMPDEST PUSH4 0x4E487B71 PUSH1 0xE0 SHL PUSH1 0x0 MSTORE PUSH1 0x12 PUSH1 0x4 MSTORE PUSH1 0x24 PUSH1 0x0 REVERT JUMPDEST PUSH1 0x0 DUP3 PUSH2 0x1BA8 JUMPI PUSH4 0x4E487B71 PUSH1 0xE0 SHL PUSH1 0x0 MSTORE PUSH1 0x12 PUSH1 0x4 MSTORE PUSH1 0x24 PUSH1 0x0 REVERT JUMPDEST POP DIV SWAP1 JUMP JUMPDEST PUSH1 0x0 JUMPDEST DUP4 DUP2 LT ISZERO PUSH2 0x1BC8 JUMPI DUP2 DUP2 ADD MLOAD DUP4 DUP3 ADD MSTORE PUSH1 0x20 ADD PUSH2 0x1BB0 JUMP JUMPDEST POP POP PUSH1 0x0 SWAP2 ADD MSTORE JUMP JUMPDEST PUSH1 0x0 DUP3 MLOAD PUSH2 0x1BE3 DUP2 DUP5 PUSH1 0x20 DUP8 ADD PUSH2 0x1BAD JUMP JUMPDEST SWAP2 SWAP1 SWAP2 ADD SWAP3 SWAP2 POP POP JUMP JUMPDEST DUP1 MLOAD PUSH10 0xFFFFFFFFFFFFFFFFFFFF DUP2 AND DUP2 EQ PUSH2 0x1C07 JUMPI PUSH1 0x0 DUP1 REVERT JUMPDEST SWAP2 SWAP1 POP JUMP JUMPDEST PUSH1 0x0 DUP1 PUSH1 0x0 DUP1 PUSH1 0x0 PUSH1 0xA0 DUP7 DUP9 SUB SLT ISZERO PUSH2 0x1C24 JUMPI PUSH1 0x0 DUP1 REVERT JUMPDEST PUSH2 0x1C2D DUP7 PUSH2 0x1BED JUMP JUMPDEST PUSH1 0x20 DUP8 ADD MLOAD PUSH1 0x40 DUP9 ADD MLOAD PUSH1 0x60 DUP10 ADD MLOAD SWAP3 SWAP8 POP SWAP1 SWAP6 POP SWAP4 POP SWAP2 POP PUSH2 0x1C52 PUSH1 0x80 DUP8 ADD PUSH2 0x1BED JUMP JUMPDEST SWAP1 POP SWAP3 SWAP6 POP SWAP3 SWAP6 SWAP1 SWAP4 POP JUMP JUMPDEST PUSH1 0x0 PUSH1 0x20 DUP3 DUP5 SUB SLT ISZERO PUSH2 0x1C70 JUMPI PUSH1 0x0 DUP1 REVERT JUMPDEST DUP2 MLOAD PUSH2 0x139C DUP2 PUSH2 0x1A1F JUMP JUMPDEST PUSH1 0x0 PUSH1 0x20 DUP3 DUP5 SUB SLT ISZERO PUSH2 0x1C8D JUMPI PUSH1 0x0 DUP1 REVERT JUMPDEST POP MLOAD SWAP2 SWAP1 POP JUMP JUMPDEST PUSH1 0x20 DUP2 MSTORE PUSH1 0x0 DUP3 MLOAD DUP1 PUSH1 0x20 DUP5 ADD MSTORE PUSH2 0x1CB3 DUP2 PUSH1 0x40 DUP6 ADD PUSH1 0x20 DUP8 ADD PUSH2 0x1BAD JUMP JUMPDEST PUSH1 0x1F ADD PUSH1 0x1F NOT AND SWAP2 SWAP1 SWAP2 ADD PUSH1 0x40 ADD SWAP3 SWAP2 POP POP JUMP JUMPDEST DUP1 MLOAD PUSH2 0x1C07 DUP2 PUSH2 0x19ED JUMP JUMPDEST DUP1 MLOAD PUSH3 0xFFFFFF DUP2 AND DUP2 EQ PUSH2 0x1C07 JUMPI PUSH1 0x0 DUP1 REVERT JUMPDEST DUP1 MLOAD PUSH1 0x2 DUP2 SWAP1 SIGNEXTEND DUP2 EQ PUSH2 0x1C07 JUMPI PUSH1 0x0 DUP1 REVERT JUMPDEST DUP1 MLOAD PUSH1 0x1 PUSH1 0x1 PUSH1 0x80 SHL SUB DUP2 AND DUP2 EQ PUSH2 0x1C07 JUMPI PUSH1 0x0 DUP1 REVERT JUMPDEST PUSH1 0x0 DUP1 PUSH1 0x0 DUP1 PUSH1 0x0 DUP1 PUSH1 0x0 DUP1 PUSH1 0x0 DUP1 PUSH1 0x0 DUP1 PUSH2 0x180 DUP14 DUP16 SUB SLT ISZERO PUSH2 0x1D31 JUMPI PUSH1 0x0 DUP1 REVERT JUMPDEST DUP13 MLOAD PUSH12 0xFFFFFFFFFFFFFFFFFFFFFFFF DUP2 AND DUP2 EQ PUSH2 0x1D4D JUMPI PUSH1 0x0 DUP1 REVERT JUMPDEST SWAP12 POP PUSH2 0x1D5B PUSH1 0x20 DUP15 ADD PUSH2 0x1CC7 JUMP JUMPDEST SWAP11 POP PUSH2 0x1D69 PUSH1 0x40 DUP15 ADD PUSH2 0x1CC7 JUMP JUMPDEST SWAP10 POP PUSH2 0x1D77 PUSH1 0x60 DUP15 ADD PUSH2 0x1CC7 JUMP JUMPDEST SWAP9 POP PUSH2 0x1D85 PUSH1 0x80 DUP15 ADD PUSH2 0x1CD2 JUMP JUMPDEST SWAP8 POP PUSH2 0x1D93 PUSH1 0xA0 DUP15 ADD PUSH2 0x1CE5 JUMP JUMPDEST SWAP7 POP PUSH2 0x1DA1 PUSH1 0xC0 DUP15 ADD PUSH2 0x1CE5 JUMP JUMPDEST SWAP6 POP PUSH2 0x1DAF PUSH1 0xE0 DUP15 ADD PUSH2 0x1CF7 JUMP JUMPDEST PUSH2 0x100 DUP15 ADD MLOAD PUSH2 0x120 DUP16 ADD MLOAD SWAP2 SWAP7 POP SWAP5 POP SWAP3 POP PUSH2 0x1DCF PUSH2 0x140 DUP15 ADD PUSH2 0x1CF7 JUMP JUMPDEST SWAP2 POP PUSH2 0x1DDE PUSH2 0x160 DUP15 ADD PUSH2 0x1CF7 JUMP JUMPDEST SWAP1 POP SWAP3 SWAP6 SWAP9 SWAP12 POP SWAP3 SWAP6 SWAP9 SWAP12 POP SWAP3 SWAP6 SWAP9 SWAP12 JUMP JUMPDEST DUP1 MLOAD PUSH2 0xFFFF DUP2 AND DUP2 EQ PUSH2 0x1C07 JUMPI PUSH1 0x0 DUP1 REVERT JUMPDEST PUSH1 0x0 DUP1 PUSH1 0x0 DUP1 PUSH1 0x0 DUP1 PUSH1 0x0 PUSH1 0xE0 DUP9 DUP11 SUB SLT ISZERO PUSH2 0x1E1D JUMPI PUSH1 0x0 DUP1 REVERT JUMPDEST DUP8 MLOAD PUSH2 0x1E28 DUP2 PUSH2 0x19ED JUMP JUMPDEST SWAP7 POP PUSH2 0x1E36 PUSH1 0x20 DUP10 ADD PUSH2 0x1CE5 JUMP JUMPDEST SWAP6 POP PUSH2 0x1E44 PUSH1 0x40 DUP10 ADD PUSH2 0x1DF0 JUMP JUMPDEST SWAP5 POP PUSH2 0x1E52 PUSH1 0x60 DUP10 ADD PUSH2 0x1DF0 JUMP JUMPDEST SWAP4 POP PUSH2 0x1E60 PUSH1 0x80 DUP10 ADD PUSH2 0x1DF0 JUMP JUMPDEST SWAP3 POP PUSH1 0xA0 DUP9 ADD MLOAD PUSH2 0x1E70 DUP2 PUSH2 0x1A1F JUMP JUMPDEST PUSH1 0xC0 DUP10 ADD MLOAD SWAP1 SWAP3 POP PUSH2 0x1E81 DUP2 PUSH2 0x1A9F JUMP JUMPDEST DUP1 SWAP2 POP POP SWAP3 SWAP6 SWAP9 SWAP2 SWAP5 SWAP8 POP SWAP3 SWAP6 POP JUMP JUMPDEST PUSH4 0x4E487B71 PUSH1 0xE0 SHL PUSH1 0x0 MSTORE PUSH1 0x41 PUSH1 0x4 MSTORE PUSH1 0x24 PUSH1 0x0 REVERT JUMPDEST PUSH1 0x0 PUSH1 0x20 DUP3 DUP5 SUB SLT ISZERO PUSH2 0x1EB9 JUMPI PUSH1 0x0 DUP1 REVERT JUMPDEST DUP2 MLOAD PUSH8 0xFFFFFFFFFFFFFFFF DUP2 GT ISZERO PUSH2 0x1ED0 JUMPI PUSH1 0x0 DUP1 REVERT JUMPDEST DUP3 ADD PUSH1 0x1F DUP2 ADD DUP5 SGT PUSH2 0x1EE1 JUMPI PUSH1 0x0 DUP1 REVERT JUMPDEST DUP1 MLOAD PUSH8 0xFFFFFFFFFFFFFFFF DUP2 GT ISZERO PUSH2 0x1EFB JUMPI PUSH2 0x1EFB PUSH2 0x1E91 JUMP JUMPDEST PUSH1 0x40 MLOAD PUSH1 0x1F DUP3 ADD PUSH1 0x1F NOT SWAP1 DUP2 AND PUSH1 0x3F ADD AND DUP2 ADD PUSH8 0xFFFFFFFFFFFFFFFF DUP2 GT DUP3 DUP3 LT OR ISZERO PUSH2 0x1F2A JUMPI PUSH2 0x1F2A PUSH2 0x1E91 JUMP JUMPDEST PUSH1 0x40 MSTORE DUP2 DUP2 MSTORE DUP3 DUP3 ADD PUSH1 0x20 ADD DUP7 LT ISZERO PUSH2 0x1F42 JUMPI PUSH1 0x0 DUP1 REVERT JUMPDEST PUSH2 0x1F53 DUP3 PUSH1 0x20 DUP4 ADD PUSH1 0x20 DUP7 ADD PUSH2 0x1BAD JUMP JUMPDEST SWAP6 SWAP5 POP POP POP POP POP JUMP JUMPDEST PUSH1 0x1 DUP2 JUMPDEST PUSH1 0x1 DUP5 GT ISZERO PUSH2 0x1F97 JUMPI DUP1 DUP6 DIV DUP2 GT ISZERO PUSH2 0x1F7B JUMPI PUSH2 0x1F7B PUSH2 0x1B4C JUMP JUMPDEST PUSH1 0x1 DUP5 AND ISZERO PUSH2 0x1F89 JUMPI SWAP1 DUP2 MUL SWAP1 JUMPDEST PUSH1 0x1 SWAP4 SWAP1 SWAP4 SHR SWAP3 DUP1 MUL PUSH2 0x1F60 JUMP JUMPDEST SWAP4 POP SWAP4 SWAP2 POP POP JUMP JUMPDEST PUSH1 0x0 DUP3 PUSH2 0x1FAE JUMPI POP PUSH1 0x1 PUSH2 0x13E8 JUMP JUMPDEST DUP2 PUSH2 0x1FBB JUMPI POP PUSH1 0x0 PUSH2 0x13E8 JUMP JUMPDEST DUP2 PUSH1 0x1 DUP2 EQ PUSH2 0x1FD1 JUMPI PUSH1 0x2 DUP2 EQ PUSH2 0x1FDB JUMPI PUSH2 0x1FF7 JUMP JUMPDEST PUSH1 0x1 SWAP2 POP POP PUSH2 0x13E8 JUMP JUMPDEST PUSH1 0xFF DUP5 GT ISZERO PUSH2 0x1FEC JUMPI PUSH2 0x1FEC PUSH2 0x1B4C JUMP JUMPDEST POP POP PUSH1 0x1 DUP3 SHL PUSH2 0x13E8 JUMP JUMPDEST POP PUSH1 0x20 DUP4 LT PUSH2 0x133 DUP4 LT AND PUSH1 0x4E DUP5 LT PUSH1 0xB DUP5 LT AND OR ISZERO PUSH2 0x201A JUMPI POP DUP2 DUP2 EXP PUSH2 0x13E8 JUMP JUMPDEST PUSH2 0x2027 PUSH1 0x0 NOT DUP5 DUP5 PUSH2 0x1F5C JUMP JUMPDEST DUP1 PUSH1 0x0 NOT DIV DUP3 GT ISZERO PUSH2 0x203B JUMPI PUSH2 0x203B PUSH2 0x1B4C JUMP JUMPDEST MUL SWAP4 SWAP3 POP POP POP JUMP JUMPDEST PUSH1 0x0 PUSH2 0x139C PUSH1 0xFF DUP5 AND DUP4 PUSH2 0x1F9F JUMP JUMPDEST DUP1 DUP3 MUL DUP2 ISZERO DUP3 DUP3 DIV DUP5 EQ OR PUSH2 0x13E8 JUMPI PUSH2 0x13E8 PUSH2 0x1B4C JUMP INVALID 0x4F PUSH19 0x61636C654D616E616765723A2063616C6C2072 PUSH6 0x766572746564 KECCAK256 PUSH24 0x2F6F206D7367A264697066735822122004E5AAD83A59FB9A 0xEF DUP4 0xD5 0x2C 0xE 0xBE 0xEF 0xA5 0xCD AND 0xC8 0xEF 0xC1 CREATE 0xA7 0xBE 0xA6 0xE3 SGT 0xD4 STATICCALL PUSH8 0x886564736F6C6343 STOP ADDMOD SHR STOP CALLER "
		},
		"gasEstimates": {
			"creation": {
				"codeDepositCost": "1677400",
				"executionCost": "infinite",
				"totalCost": "infinite"
			},
			"external": {
				"getPrice(address)": "infinite",
				"oracleConfigs(address)": "1067",
				"owner()": "401",
				"renounceOwnership()": "infinite",
				"setOracleConfig(address,address,address,bool,uint8,bool)": "infinite",
				"setVaultUnderlyingFeeds(address,address,address,uint8,uint8)": "infinite",
				"transferOwnership(address)": "infinite",
				"vaultFeeds(address)": "1135"
			},
			"internal": {
				"_computeLiquidityAmounts(uint160,int24,int24,uint128)": "infinite",
				"_computeVaultTokenPrice(address,struct OracleManager.VaultUnderlyingFeeds memory)": "infinite",
				"_convertToAggregatorValue(uint256,address,uint8)": "infinite",
				"_convertVaultTokensToValue(uint256,uint256,struct OracleManager.AggregatorPair memory)": "infinite",
				"_fetchPositionData(address,uint256)": "infinite",
				"_fetchVaultInfo(address)": "infinite",
				"_getPoolSqrtAndTick(address)": "infinite",
				"_getPriceFromConfig(struct OracleManager.OracleData memory)": "infinite",
				"_getRevertMsg(bytes memory)": "infinite",
				"_tryGetChainlinkPrice(address,uint8)": "infinite"
			}
		},
		"methodIdentifiers": {
			"getPrice(address)": "41976e09",
			"oracleConfigs(address)": "067a4b06",
			"owner()": "8da5cb5b",
			"renounceOwnership()": "715018a6",
			"setOracleConfig(address,address,address,bool,uint8,bool)": "f2ac1ec5",
			"setVaultUnderlyingFeeds(address,address,address,uint8,uint8)": "9b05fc75",
			"transferOwnership(address)": "f2fde38b",
			"vaultFeeds(address)": "7f4a3102"
		}
	},
	"abi": [
		{
			"inputs": [
				{
					"internalType": "address",
					"name": "initialOwner",
					"type": "address"
				}
			],
			"stateMutability": "nonpayable",
			"type": "constructor"
		},
		{
			"inputs": [],
			"name": "T",
			"type": "error"
		},
		{
			"anonymous": false,
			"inputs": [
				{
					"indexed": true,
					"internalType": "address",
					"name": "token",
					"type": "address"
				},
				{
					"indexed": false,
					"internalType": "address",
					"name": "primaryAggregator",
					"type": "address"
				},
				{
					"indexed": false,
					"internalType": "address",
					"name": "fallbackAggregator",
					"type": "address"
				},
				{
					"indexed": false,
					"internalType": "bool",
					"name": "useFallbackIfError",
					"type": "bool"
				},
				{
					"indexed": false,
					"internalType": "uint8",
					"name": "decimalsOverride",
					"type": "uint8"
				},
				{
					"indexed": false,
					"internalType": "bool",
					"name": "isVaultToken",
					"type": "bool"
				}
			],
			"name": "OracleConfigUpdated",
			"type": "event"
		},
		{
			"anonymous": false,
			"inputs": [
				{
					"indexed": true,
					"internalType": "address",
					"name": "previousOwner",
					"type": "address"
				},
				{
					"indexed": true,
					"internalType": "address",
					"name": "newOwner",
					"type": "address"
				}
			],
			"name": "OwnershipTransferred",
			"type": "event"
		},
		{
			"anonymous": false,
			"inputs": [
				{
					"indexed": true,
					"internalType": "address",
					"name": "vaultToken",
					"type": "address"
				},
				{
					"indexed": false,
					"internalType": "address",
					"name": "token0Aggregator",
					"type": "address"
				},
				{
					"indexed": false,
					"internalType": "address",
					"name": "token1Aggregator",
					"type": "address"
				},
				{
					"indexed": false,
					"internalType": "uint8",
					"name": "token0Decimals",
					"type": "uint8"
				},
				{
					"indexed": false,
					"internalType": "uint8",
					"name": "token1Decimals",
					"type": "uint8"
				}
			],
			"name": "VaultUnderlyingFeedsUpdated",
			"type": "event"
		},
		{
			"inputs": [
				{
					"internalType": "address",
					"name": "token",
					"type": "address"
				}
			],
			"name": "getPrice",
			"outputs": [
				{
					"internalType": "uint256",
					"name": "price",
					"type": "uint256"
				},
				{
					"internalType": "uint8",
					"name": "decimals",
					"type": "uint8"
				}
			],
			"stateMutability": "view",
			"type": "function"
		},
		{
			"inputs": [
				{
					"internalType": "address",
					"name": "",
					"type": "address"
				}
			],
			"name": "oracleConfigs",
			"outputs": [
				{
					"internalType": "address",
					"name": "primaryAggregator",
					"type": "address"
				},
				{
					"internalType": "address",
					"name": "fallbackAggregator",
					"type": "address"
				},
				{
					"internalType": "bool",
					"name": "useFallbackIfError",
					"type": "bool"
				},
				{
					"internalType": "uint8",
					"name": "decimalsOverride",
					"type": "uint8"
				},
				{
					"internalType": "bool",
					"name": "isVaultToken",
					"type": "bool"
				}
			],
			"stateMutability": "view",
			"type": "function"
		},
		{
			"inputs": [],
			"name": "owner",
			"outputs": [
				{
					"internalType": "address",
					"name": "",
					"type": "address"
				}
			],
			"stateMutability": "view",
			"type": "function"
		},
		{
			"inputs": [],
			"name": "renounceOwnership",
			"outputs": [],
			"stateMutability": "nonpayable",
			"type": "function"
		},
		{
			"inputs": [
				{
					"internalType": "address",
					"name": "token",
					"type": "address"
				},
				{
					"internalType": "address",
					"name": "primaryAggregator",
					"type": "address"
				},
				{
					"internalType": "address",
					"name": "fallbackAggregator",
					"type": "address"
				},
				{
					"internalType": "bool",
					"name": "useFallbackIfErr",
					"type": "bool"
				},
				{
					"internalType": "uint8",
					"name": "decimalsOvr",
					"type": "uint8"
				},
				{
					"internalType": "bool",
					"name": "isVaultToken",
					"type": "bool"
				}
			],
			"name": "setOracleConfig",
			"outputs": [],
			"stateMutability": "nonpayable",
			"type": "function"
		},
		{
			"inputs": [
				{
					"internalType": "address",
					"name": "vaultToken",
					"type": "address"
				},
				{
					"internalType": "address",
					"name": "token0Agg",
					"type": "address"
				},
				{
					"internalType": "address",
					"name": "token1Agg",
					"type": "address"
				},
				{
					"internalType": "uint8",
					"name": "token0Dec",
					"type": "uint8"
				},
				{
					"internalType": "uint8",
					"name": "token1Dec",
					"type": "uint8"
				}
			],
			"name": "setVaultUnderlyingFeeds",
			"outputs": [],
			"stateMutability": "nonpayable",
			"type": "function"
		},
		{
			"inputs": [
				{
					"internalType": "address",
					"name": "newOwner",
					"type": "address"
				}
			],
			"name": "transferOwnership",
			"outputs": [],
			"stateMutability": "nonpayable",
			"type": "function"
		},
		{
			"inputs": [
				{
					"internalType": "address",
					"name": "",
					"type": "address"
				}
			],
			"name": "vaultFeeds",
			"outputs": [
				{
					"internalType": "address",
					"name": "token0Aggregator",
					"type": "address"
				},
				{
					"internalType": "address",
					"name": "token1Aggregator",
					"type": "address"
				},
				{
					"internalType": "uint8",
					"name": "token0Decimals",
					"type": "uint8"
				},
				{
					"internalType": "uint8",
					"name": "token1Decimals",
					"type": "uint8"
				},
				{
					"internalType": "bool",
					"name": "exists",
					"type": "bool"
				}
			],
			"stateMutability": "view",
			"type": "function"
		}
	]
}