{
	"data": {
		"bytecode": {
			"linkReferences": {},
			"object": "608060405234801561001057600080fd5b5060405161126438038061126483398101604081905261002f9161022f565b836001600160a01b038116610078576040517f1e4fbdf7000000000000000000000000000000000000000000000000000000008152600060048201526024015b60405180910390fd5b610081816101c3565b506001600160a01b0383166100f2576040517f08c379a000000000000000000000000000000000000000000000000000000000815260206004820152601a60248201527f526562616c616e6365723a20696e76616c6964206f7261636c65000000000000604482015260640161006f565b8082111561015c576040517f08c379a000000000000000000000000000000000000000000000000000000000815260206004820152601d60248201527f526562616c616e6365723a206d696e50726963653e6d61785072696365000000604482015260640161006f565b600180546001600160a01b0319166001600160a01b0385161790556002829055600381905560408051838152602081018390527f91a88a19f6ef384ea8f15e06b9139c98fc19dcbd91a4ba2d218ac43cee295227910160405180910390a150505050610272565b600080546001600160a01b038381166001600160a01b0319831681178455604051919092169283917f8be0079c531659141344cd1fd0a4f28419497f9722a3daafe3b4186f6b6457e09190a35050565b80516001600160a01b038116811461022a57600080fd5b919050565b6000806000806080858703121561024557600080fd5b61024e85610213565b935061025c60208601610213565b6040860151606090960151949790965092505050565b610fe3806102816000396000f3fe608060405234801561001057600080fd5b50600436106100935760003560e01c80638da5cb5b116100665780638da5cb5b146100fc578063929e2e081461010d578063e6142a3914610120578063ea1ea75e14610129578063f2fde38b1461013c57600080fd5b806319b9dfb514610098578063565d878c146100ad578063687d3cf7146100dd578063715018a6146100f4575b600080fd5b6100ab6100a6366004610b1d565b61014f565b005b6001546100c0906001600160a01b031681565b6040516001600160a01b0390911681526020015b60405180910390f35b6100e660035481565b6040519081526020016100d4565b6100ab6101f3565b6000546001600160a01b03166100c0565b6100ab61011b366004610b54565b610207565b6100e660025481565b6100ab610137366004610b78565b610287565b6100ab61014a366004610b54565b610571565b6101576105af565b808211156101ac5760405162461bcd60e51b815260206004820152601d60248201527f526562616c616e6365723a206d696e50726963653e6d6178507269636500000060448201526064015b60405180910390fd5b6002829055600381905560408051838152602081018390527f91a88a19f6ef384ea8f15e06b9139c98fc19dcbd91a4ba2d218ac43cee295227910160405180910390a15050565b6101fb6105af565b61020560006105dc565b565b61020f6105af565b6001600160a01b0381166102655760405162461bcd60e51b815260206004820152601a60248201527f526562616c616e6365723a20696e76616c6964206f7261636c6500000000000060448201526064016101a3565b600180546001600160a01b0319166001600160a01b0392909216919091179055565b61028f6105af565b6001600160a01b0383166102e55760405162461bcd60e51b815260206004820152601960248201527f526562616c616e6365723a20696e76616c6964207661756c740000000000000060448201526064016101a3565b60006102f1838361062c565b90506000849050600080826001600160a01b03166382a109856040518163ffffffff1660e01b8152600401602060405180830381865afa158015610339573d6000803e3d6000fd5b505050506040513d601f19601f8201168201806040525081019061035d9190610bff565b9050826001600160a01b031663791b98bc6040518163ffffffff1660e01b8152600401602060405180830381865afa15801561039d573d6000803e3d6000fd5b505050506040513d601f19601f820116820180604052508101906103c19190610c18565b91506001600160a01b0382166104255760405162461bcd60e51b8152602060048201526024808201527f526562616c616e6365723a20696e76616c696420706f736974696f6e206d616e60448201526330b3b2b960e11b60648201526084016101a3565b61042e836106a4565b600061043a838361079b565b905084600001516001600160801b0316816001600160801b031610156104a25760405162461bcd60e51b815260206004820181905260248201527f526562616c616e6365723a206e6f7420656e6f756768206c697175696469747960448201526064016101a3565b6000806104b085858961089a565b915091506000806104c2878d88610978565b915091506000806000808c6060015111806104e1575060008c60800151115b156104f9576104f18a8a8e6109f1565b919450925090505b8e6001600160a01b03167ff0eb9211b04985f76177b857d847a4de33d48276e40e04b1b77c037aedcbf3ee8a89898686604051610558959493929190948552602085019390935260408401919091526060830152608082015260a00190565b60405180910390a2505050505050505050505050505050565b6105796105af565b6001600160a01b0381166105a357604051631e4fbdf760e01b8152600060048201526024016101a3565b6105ac816105dc565b50565b6000546001600160a01b031633146102055760405163118cdaa760e01b81523360048201526024016101a3565b600080546001600160a01b038381166001600160a01b0319831681178455604051919092169283917f8be0079c531659141344cd1fd0a4f28419497f9722a3daafe3b4186f6b6457e09190a35050565b61066e6040518060c0016040528060006001600160801b0316815260200160008152602001600081526020016000815260200160008152602001600081525090565b61067a82840184610c4a565b60a087015260808601526060850152604084015260208301526001600160801b0316815292915050565b600060025411806106b757506000600354115b156105ac576000816001600160a01b031663468f02d26040518163ffffffff1660e01b81526004016040805180830381865afa1580156106fb573d6000803e3d6000fd5b505050506040513d601f19601f8201168201806040525081019061071f9190610c96565b509050600254811015801561073657506003548111155b6107975760405162461bcd60e51b815260206004820152602c60248201527f526562616c616e6365723a207661756c74207072696365206f7574206f66206160448201526b6c6c6f7765642072616e676560a01b60648201526084016101a3565b5050565b6000806000846001600160a01b03166399fbab8860e01b856040516024016107c591815260200190565b60408051601f198184030181529181526020820180516001600160e01b03166001600160e01b03199094169390931790925290516108039190610cf1565b600060405180830381855afa9150503d806000811461083e576040519150601f19603f3d011682016040523d82523d6000602084013e610843565b606091505b50915091508161085282610ad2565b906108705760405162461bcd60e51b81526004016101a39190610d0d565b50808060200190518101906108859190610d80565b50929f9e505050505050505050505050505050565b6040805160a0808201835284825283516001600160801b039081166020808501918252860151848601908152868601516060860190815293870151608086019081529551630624e65f60e11b815285516004820152915190921660248201529051604482015290516064820152915160848301526000918291906001600160a01b03871690630c49ccbe9060a4015b60408051808303816000875af1158015610947573d6000803e3d6000fd5b505050506040513d601f19601f8201168201806040525081019061096b9190610e62565b9097909650945050505050565b604080516080810182528281526001600160a01b03848116602083019081526001600160801b0383850181815260608501828152955163fc6f786560e01b81528551600482015292518416602484015251811660448301529351909316606484015260009283929187169063fc6f786590608401610929565b6040805160c08101825283815260608084015160208301908152608080860151848601908152600093850184815291850184815260a080890151908701908152965163219f5d1760e01b815286516004820152935160248501529051604484015290516064830152516084820152925160a484015291829182916001600160a01b0388169063219f5d179060c4016060604051808303816000875af1158015610a9e573d6000803e3d6000fd5b505050506040513d601f19601f82011682018060405250810190610ac29190610e86565b9199909850909650945050505050565b6060604482511015610afd57604051806060016040528060258152602001610f896025913992915050565b60048201915081806020019051810190610b179190610ed3565b92915050565b60008060408385031215610b3057600080fd5b50508035926020909101359150565b6001600160a01b03811681146105ac57600080fd5b600060208284031215610b6657600080fd5b8135610b7181610b3f565b9392505050565b600080600060408486031215610b8d57600080fd5b8335610b9881610b3f565b9250602084013567ffffffffffffffff811115610bb457600080fd5b8401601f81018613610bc557600080fd5b803567ffffffffffffffff811115610bdc57600080fd5b866020828401011115610bee57600080fd5b939660209190910195509293505050565b600060208284031215610c1157600080fd5b5051919050565b600060208284031215610c2a57600080fd5b8151610b7181610b3f565b6001600160801b03811681146105ac57600080fd5b60008060008060008060c08789031215610c6357600080fd5b8635610c6e81610c35565b9860208801359850604088013597606081013597506080810135965060a00135945092505050565b60008060408385031215610ca957600080fd5b8251602084015190925060ff81168114610cc257600080fd5b809150509250929050565b60005b83811015610ce8578181015183820152602001610cd0565b50506000910152565b60008251610d03818460208701610ccd565b9190910192915050565b6020815260008251806020840152610d2c816040850160208701610ccd565b601f01601f19169190910160400192915050565b8051610d4b81610b3f565b919050565b805162ffffff81168114610d4b57600080fd5b8051600281900b8114610d4b57600080fd5b8051610d4b81610c35565b6000806000806000806000806000806000806101808d8f031215610da357600080fd5b8c516bffffffffffffffffffffffff81168114610dbf57600080fd5b9b50610dcd60208e01610d40565b9a50610ddb60408e01610d40565b9950610de960608e01610d40565b9850610df760808e01610d50565b9750610e0560a08e01610d63565b9650610e1360c08e01610d63565b9550610e2160e08e01610d75565b6101008e01516101208f015191965094509250610e416101408e01610d75565b9150610e506101608e01610d75565b90509295989b509295989b509295989b565b60008060408385031215610e7557600080fd5b505080516020909101519092909150565b600080600060608486031215610e9b57600080fd5b8351610ea681610c35565b602085015160409095015190969495509392505050565b634e487b7160e01b600052604160045260246000fd5b600060208284031215610ee557600080fd5b815167ffffffffffffffff811115610efc57600080fd5b8201601f81018413610f0d57600080fd5b805167ffffffffffffffff811115610f2757610f27610ebd565b604051601f8201601f19908116603f0116810167ffffffffffffffff81118282101715610f5657610f56610ebd565b604052818152828201602001861015610f6e57600080fd5b610f7f826020830160208601610ccd565b9594505050505056fe526562616c616e6365723a2063616c6c20726576657274656420772f6f206d657373616765a2646970667358221220ad0544c143e2940c4dc4b9dcd1f39db6ea6ecde589ae12b7e87405ee8e1cce7164736f6c634300081c0033",
			"opcodes": "PUSH1 0x80 PUSH1 0x40 MSTORE CALLVALUE DUP1 ISZERO PUSH2 0x10 JUMPI PUSH1 0x0 DUP1 REVERT JUMPDEST POP PUSH1 0x40 MLOAD PUSH2 0x1264 CODESIZE SUB DUP1 PUSH2 0x1264 DUP4 CODECOPY DUP2 ADD PUSH1 0x40 DUP2 SWAP1 MSTORE PUSH2 0x2F SWAP2 PUSH2 0x22F JUMP JUMPDEST DUP4 PUSH1 0x1 PUSH1 0x1 PUSH1 0xA0 SHL SUB DUP2 AND PUSH2 0x78 JUMPI PUSH1 0x40 MLOAD PUSH32 0x1E4FBDF700000000000000000000000000000000000000000000000000000000 DUP2 MSTORE PUSH1 0x0 PUSH1 0x4 DUP3 ADD MSTORE PUSH1 0x24 ADD JUMPDEST PUSH1 0x40 MLOAD DUP1 SWAP2 SUB SWAP1 REVERT JUMPDEST PUSH2 0x81 DUP2 PUSH2 0x1C3 JUMP JUMPDEST POP PUSH1 0x1 PUSH1 0x1 PUSH1 0xA0 SHL SUB DUP4 AND PUSH2 0xF2 JUMPI PUSH1 0x40 MLOAD PUSH32 0x8C379A000000000000000000000000000000000000000000000000000000000 DUP2 MSTORE PUSH1 0x20 PUSH1 0x4 DUP3 ADD MSTORE PUSH1 0x1A PUSH1 0x24 DUP3 ADD MSTORE PUSH32 0x526562616C616E6365723A20696E76616C6964206F7261636C65000000000000 PUSH1 0x44 DUP3 ADD MSTORE PUSH1 0x64 ADD PUSH2 0x6F JUMP JUMPDEST DUP1 DUP3 GT ISZERO PUSH2 0x15C JUMPI PUSH1 0x40 MLOAD PUSH32 0x8C379A000000000000000000000000000000000000000000000000000000000 DUP2 MSTORE PUSH1 0x20 PUSH1 0x4 DUP3 ADD MSTORE PUSH1 0x1D PUSH1 0x24 DUP3 ADD MSTORE PUSH32 0x526562616C616E6365723A206D696E50726963653E6D61785072696365000000 PUSH1 0x44 DUP3 ADD MSTORE PUSH1 0x64 ADD PUSH2 0x6F JUMP JUMPDEST PUSH1 0x1 DUP1 SLOAD PUSH1 0x1 PUSH1 0x1 PUSH1 0xA0 SHL SUB NOT AND PUSH1 0x1 PUSH1 0x1 PUSH1 0xA0 SHL SUB DUP6 AND OR SWAP1 SSTORE PUSH1 0x2 DUP3 SWAP1 SSTORE PUSH1 0x3 DUP2 SWAP1 SSTORE PUSH1 0x40 DUP1 MLOAD DUP4 DUP2 MSTORE PUSH1 0x20 DUP2 ADD DUP4 SWAP1 MSTORE PUSH32 0x91A88A19F6EF384EA8F15E06B9139C98FC19DCBD91A4BA2D218AC43CEE295227 SWAP2 ADD PUSH1 0x40 MLOAD DUP1 SWAP2 SUB SWAP1 LOG1 POP POP POP POP PUSH2 0x272 JUMP JUMPDEST PUSH1 0x0 DUP1 SLOAD PUSH1 0x1 PUSH1 0x1 PUSH1 0xA0 SHL SUB DUP4 DUP2 AND PUSH1 0x1 PUSH1 0x1 PUSH1 0xA0 SHL SUB NOT DUP4 AND DUP2 OR DUP5 SSTORE PUSH1 0x40 MLOAD SWAP2 SWAP1 SWAP3 AND SWAP3 DUP4 SWAP2 PUSH32 0x8BE0079C531659141344CD1FD0A4F28419497F9722A3DAAFE3B4186F6B6457E0 SWAP2 SWAP1 LOG3 POP POP JUMP JUMPDEST DUP1 MLOAD PUSH1 0x1 PUSH1 0x1 PUSH1 0xA0 SHL SUB DUP2 AND DUP2 EQ PUSH2 0x22A JUMPI PUSH1 0x0 DUP1 REVERT JUMPDEST SWAP2 SWAP1 POP JUMP JUMPDEST PUSH1 0x0 DUP1 PUSH1 0x0 DUP1 PUSH1 0x80 DUP6 DUP8 SUB SLT ISZERO PUSH2 0x245 JUMPI PUSH1 0x0 DUP1 REVERT JUMPDEST PUSH2 0x24E DUP6 PUSH2 0x213 JUMP JUMPDEST SWAP4 POP PUSH2 0x25C PUSH1 0x20 DUP7 ADD PUSH2 0x213 JUMP JUMPDEST PUSH1 0x40 DUP7 ADD MLOAD PUSH1 0x60 SWAP1 SWAP7 ADD MLOAD SWAP5 SWAP8 SWAP1 SWAP7 POP SWAP3 POP POP POP JUMP JUMPDEST PUSH2 0xFE3 DUP1 PUSH2 0x281 PUSH1 0x0 CODECOPY PUSH1 0x0 RETURN INVALID PUSH1 0x80 PUSH1 0x40 MSTORE CALLVALUE DUP1 ISZERO PUSH2 0x10 JUMPI PUSH1 0x0 DUP1 REVERT JUMPDEST POP PUSH1 0x4 CALLDATASIZE LT PUSH2 0x93 JUMPI PUSH1 0x0 CALLDATALOAD PUSH1 0xE0 SHR DUP1 PUSH4 0x8DA5CB5B GT PUSH2 0x66 JUMPI DUP1 PUSH4 0x8DA5CB5B EQ PUSH2 0xFC JUMPI DUP1 PUSH4 0x929E2E08 EQ PUSH2 0x10D JUMPI DUP1 PUSH4 0xE6142A39 EQ PUSH2 0x120 JUMPI DUP1 PUSH4 0xEA1EA75E EQ PUSH2 0x129 JUMPI DUP1 PUSH4 0xF2FDE38B EQ PUSH2 0x13C JUMPI PUSH1 0x0 DUP1 REVERT JUMPDEST DUP1 PUSH4 0x19B9DFB5 EQ PUSH2 0x98 JUMPI DUP1 PUSH4 0x565D878C EQ PUSH2 0xAD JUMPI DUP1 PUSH4 0x687D3CF7 EQ PUSH2 0xDD JUMPI DUP1 PUSH4 0x715018A6 EQ PUSH2 0xF4 JUMPI JUMPDEST PUSH1 0x0 DUP1 REVERT JUMPDEST PUSH2 0xAB PUSH2 0xA6 CALLDATASIZE PUSH1 0x4 PUSH2 0xB1D JUMP JUMPDEST PUSH2 0x14F JUMP JUMPDEST STOP JUMPDEST PUSH1 0x1 SLOAD PUSH2 0xC0 SWAP1 PUSH1 0x1 PUSH1 0x1 PUSH1 0xA0 SHL SUB AND DUP2 JUMP JUMPDEST PUSH1 0x40 MLOAD PUSH1 0x1 PUSH1 0x1 PUSH1 0xA0 SHL SUB SWAP1 SWAP2 AND DUP2 MSTORE PUSH1 0x20 ADD JUMPDEST PUSH1 0x40 MLOAD DUP1 SWAP2 SUB SWAP1 RETURN JUMPDEST PUSH2 0xE6 PUSH1 0x3 SLOAD DUP2 JUMP JUMPDEST PUSH1 0x40 MLOAD SWAP1 DUP2 MSTORE PUSH1 0x20 ADD PUSH2 0xD4 JUMP JUMPDEST PUSH2 0xAB PUSH2 0x1F3 JUMP JUMPDEST PUSH1 0x0 SLOAD PUSH1 0x1 PUSH1 0x1 PUSH1 0xA0 SHL SUB AND PUSH2 0xC0 JUMP JUMPDEST PUSH2 0xAB PUSH2 0x11B CALLDATASIZE PUSH1 0x4 PUSH2 0xB54 JUMP JUMPDEST PUSH2 0x207 JUMP JUMPDEST PUSH2 0xE6 PUSH1 0x2 SLOAD DUP2 JUMP JUMPDEST PUSH2 0xAB PUSH2 0x137 CALLDATASIZE PUSH1 0x4 PUSH2 0xB78 JUMP JUMPDEST PUSH2 0x287 JUMP JUMPDEST PUSH2 0xAB PUSH2 0x14A CALLDATASIZE PUSH1 0x4 PUSH2 0xB54 JUMP JUMPDEST PUSH2 0x571 JUMP JUMPDEST PUSH2 0x157 PUSH2 0x5AF JUMP JUMPDEST DUP1 DUP3 GT ISZERO PUSH2 0x1AC JUMPI PUSH1 0x40 MLOAD PUSH3 0x461BCD PUSH1 0xE5 SHL DUP2 MSTORE PUSH1 0x20 PUSH1 0x4 DUP3 ADD MSTORE PUSH1 0x1D PUSH1 0x24 DUP3 ADD MSTORE PUSH32 0x526562616C616E6365723A206D696E50726963653E6D61785072696365000000 PUSH1 0x44 DUP3 ADD MSTORE PUSH1 0x64 ADD JUMPDEST PUSH1 0x40 MLOAD DUP1 SWAP2 SUB SWAP1 REVERT JUMPDEST PUSH1 0x2 DUP3 SWAP1 SSTORE PUSH1 0x3 DUP2 SWAP1 SSTORE PUSH1 0x40 DUP1 MLOAD DUP4 DUP2 MSTORE PUSH1 0x20 DUP2 ADD DUP4 SWAP1 MSTORE PUSH32 0x91A88A19F6EF384EA8F15E06B9139C98FC19DCBD91A4BA2D218AC43CEE295227 SWAP2 ADD PUSH1 0x40 MLOAD DUP1 SWAP2 SUB SWAP1 LOG1 POP POP JUMP JUMPDEST PUSH2 0x1FB PUSH2 0x5AF JUMP JUMPDEST PUSH2 0x205 PUSH1 0x0 PUSH2 0x5DC JUMP JUMPDEST JUMP JUMPDEST PUSH2 0x20F PUSH2 0x5AF JUMP JUMPDEST PUSH1 0x1 PUSH1 0x1 PUSH1 0xA0 SHL SUB DUP2 AND PUSH2 0x265 JUMPI PUSH1 0x40 MLOAD PUSH3 0x461BCD PUSH1 0xE5 SHL DUP2 MSTORE PUSH1 0x20 PUSH1 0x4 DUP3 ADD MSTORE PUSH1 0x1A PUSH1 0x24 DUP3 ADD MSTORE PUSH32 0x526562616C616E6365723A20696E76616C6964206F7261636C65000000000000 PUSH1 0x44 DUP3 ADD MSTORE PUSH1 0x64 ADD PUSH2 0x1A3 JUMP JUMPDEST PUSH1 0x1 DUP1 SLOAD PUSH1 0x1 PUSH1 0x1 PUSH1 0xA0 SHL SUB NOT AND PUSH1 0x1 PUSH1 0x1 PUSH1 0xA0 SHL SUB SWAP3 SWAP1 SWAP3 AND SWAP2 SWAP1 SWAP2 OR SWAP1 SSTORE JUMP JUMPDEST PUSH2 0x28F PUSH2 0x5AF JUMP JUMPDEST PUSH1 0x1 PUSH1 0x1 PUSH1 0xA0 SHL SUB DUP4 AND PUSH2 0x2E5 JUMPI PUSH1 0x40 MLOAD PUSH3 0x461BCD PUSH1 0xE5 SHL DUP2 MSTORE PUSH1 0x20 PUSH1 0x4 DUP3 ADD MSTORE PUSH1 0x19 PUSH1 0x24 DUP3 ADD MSTORE PUSH32 0x526562616C616E6365723A20696E76616C6964207661756C7400000000000000 PUSH1 0x44 DUP3 ADD MSTORE PUSH1 0x64 ADD PUSH2 0x1A3 JUMP JUMPDEST PUSH1 0x0 PUSH2 0x2F1 DUP4 DUP4 PUSH2 0x62C JUMP JUMPDEST SWAP1 POP PUSH1 0x0 DUP5 SWAP1 POP PUSH1 0x0 DUP1 DUP3 PUSH1 0x1 PUSH1 0x1 PUSH1 0xA0 SHL SUB AND PUSH4 0x82A10985 PUSH1 0x40 MLOAD DUP2 PUSH4 0xFFFFFFFF AND PUSH1 0xE0 SHL DUP2 MSTORE PUSH1 0x4 ADD PUSH1 0x20 PUSH1 0x40 MLOAD DUP1 DUP4 SUB DUP2 DUP7 GAS STATICCALL ISZERO DUP1 ISZERO PUSH2 0x339 JUMPI RETURNDATASIZE PUSH1 0x0 DUP1 RETURNDATACOPY RETURNDATASIZE PUSH1 0x0 REVERT JUMPDEST POP POP POP POP PUSH1 0x40 MLOAD RETURNDATASIZE PUSH1 0x1F NOT PUSH1 0x1F DUP3 ADD AND DUP3 ADD DUP1 PUSH1 0x40 MSTORE POP DUP2 ADD SWAP1 PUSH2 0x35D SWAP2 SWAP1 PUSH2 0xBFF JUMP JUMPDEST SWAP1 POP DUP3 PUSH1 0x1 PUSH1 0x1 PUSH1 0xA0 SHL SUB AND PUSH4 0x791B98BC PUSH1 0x40 MLOAD DUP2 PUSH4 0xFFFFFFFF AND PUSH1 0xE0 SHL DUP2 MSTORE PUSH1 0x4 ADD PUSH1 0x20 PUSH1 0x40 MLOAD DUP1 DUP4 SUB DUP2 DUP7 GAS STATICCALL ISZERO DUP1 ISZERO PUSH2 0x39D JUMPI RETURNDATASIZE PUSH1 0x0 DUP1 RETURNDATACOPY RETURNDATASIZE PUSH1 0x0 REVERT JUMPDEST POP POP POP POP PUSH1 0x40 MLOAD RETURNDATASIZE PUSH1 0x1F NOT PUSH1 0x1F DUP3 ADD AND DUP3 ADD DUP1 PUSH1 0x40 MSTORE POP DUP2 ADD SWAP1 PUSH2 0x3C1 SWAP2 SWAP1 PUSH2 0xC18 JUMP JUMPDEST SWAP2 POP PUSH1 0x1 PUSH1 0x1 PUSH1 0xA0 SHL SUB DUP3 AND PUSH2 0x425 JUMPI PUSH1 0x40 MLOAD PUSH3 0x461BCD PUSH1 0xE5 SHL DUP2 MSTORE PUSH1 0x20 PUSH1 0x4 DUP3 ADD MSTORE PUSH1 0x24 DUP1 DUP3 ADD MSTORE PUSH32 0x526562616C616E6365723A20696E76616C696420706F736974696F6E206D616E PUSH1 0x44 DUP3 ADD MSTORE PUSH4 0x30B3B2B9 PUSH1 0xE1 SHL PUSH1 0x64 DUP3 ADD MSTORE PUSH1 0x84 ADD PUSH2 0x1A3 JUMP JUMPDEST PUSH2 0x42E DUP4 PUSH2 0x6A4 JUMP JUMPDEST PUSH1 0x0 PUSH2 0x43A DUP4 DUP4 PUSH2 0x79B JUMP JUMPDEST SWAP1 POP DUP5 PUSH1 0x0 ADD MLOAD PUSH1 0x1 PUSH1 0x1 PUSH1 0x80 SHL SUB AND DUP2 PUSH1 0x1 PUSH1 0x1 PUSH1 0x80 SHL SUB AND LT ISZERO PUSH2 0x4A2 JUMPI PUSH1 0x40 MLOAD PUSH3 0x461BCD PUSH1 0xE5 SHL DUP2 MSTORE PUSH1 0x20 PUSH1 0x4 DUP3 ADD DUP2 SWAP1 MSTORE PUSH1 0x24 DUP3 ADD MSTORE PUSH32 0x526562616C616E6365723A206E6F7420656E6F756768206C6971756964697479 PUSH1 0x44 DUP3 ADD MSTORE PUSH1 0x64 ADD PUSH2 0x1A3 JUMP JUMPDEST PUSH1 0x0 DUP1 PUSH2 0x4B0 DUP6 DUP6 DUP10 PUSH2 0x89A JUMP JUMPDEST SWAP2 POP SWAP2 POP PUSH1 0x0 DUP1 PUSH2 0x4C2 DUP8 DUP14 DUP9 PUSH2 0x978 JUMP JUMPDEST SWAP2 POP SWAP2 POP PUSH1 0x0 DUP1 PUSH1 0x0 DUP1 DUP13 PUSH1 0x60 ADD MLOAD GT DUP1 PUSH2 0x4E1 JUMPI POP PUSH1 0x0 DUP13 PUSH1 0x80 ADD MLOAD GT JUMPDEST ISZERO PUSH2 0x4F9 JUMPI PUSH2 0x4F1 DUP11 DUP11 DUP15 PUSH2 0x9F1 JUMP JUMPDEST SWAP2 SWAP5 POP SWAP3 POP SWAP1 POP JUMPDEST DUP15 PUSH1 0x1 PUSH1 0x1 PUSH1 0xA0 SHL SUB AND PUSH32 0xF0EB9211B04985F76177B857D847A4DE33D48276E40E04B1B77C037AEDCBF3EE DUP11 DUP10 DUP10 DUP7 DUP7 PUSH1 0x40 MLOAD PUSH2 0x558 SWAP6 SWAP5 SWAP4 SWAP3 SWAP2 SWAP1 SWAP5 DUP6 MSTORE PUSH1 0x20 DUP6 ADD SWAP4 SWAP1 SWAP4 MSTORE PUSH1 0x40 DUP5 ADD SWAP2 SWAP1 SWAP2 MSTORE PUSH1 0x60 DUP4 ADD MSTORE PUSH1 0x80 DUP3 ADD MSTORE PUSH1 0xA0 ADD SWAP1 JUMP JUMPDEST PUSH1 0x40 MLOAD DUP1 SWAP2 SUB SWAP1 LOG2 POP POP POP POP POP POP POP POP POP POP POP POP POP POP POP JUMP JUMPDEST PUSH2 0x579 PUSH2 0x5AF JUMP JUMPDEST PUSH1 0x1 PUSH1 0x1 PUSH1 0xA0 SHL SUB DUP2 AND PUSH2 0x5A3 JUMPI PUSH1 0x40 MLOAD PUSH4 0x1E4FBDF7 PUSH1 0xE0 SHL DUP2 MSTORE PUSH1 0x0 PUSH1 0x4 DUP3 ADD MSTORE PUSH1 0x24 ADD PUSH2 0x1A3 JUMP JUMPDEST PUSH2 0x5AC DUP2 PUSH2 0x5DC JUMP JUMPDEST POP JUMP JUMPDEST PUSH1 0x0 SLOAD PUSH1 0x1 PUSH1 0x1 PUSH1 0xA0 SHL SUB AND CALLER EQ PUSH2 0x205 JUMPI PUSH1 0x40 MLOAD PUSH4 0x118CDAA7 PUSH1 0xE0 SHL DUP2 MSTORE CALLER PUSH1 0x4 DUP3 ADD MSTORE PUSH1 0x24 ADD PUSH2 0x1A3 JUMP JUMPDEST PUSH1 0x0 DUP1 SLOAD PUSH1 0x1 PUSH1 0x1 PUSH1 0xA0 SHL SUB DUP4 DUP2 AND PUSH1 0x1 PUSH1 0x1 PUSH1 0xA0 SHL SUB NOT DUP4 AND DUP2 OR DUP5 SSTORE PUSH1 0x40 MLOAD SWAP2 SWAP1 SWAP3 AND SWAP3 DUP4 SWAP2 PUSH32 0x8BE0079C531659141344CD1FD0A4F28419497F9722A3DAAFE3B4186F6B6457E0 SWAP2 SWAP1 LOG3 POP POP JUMP JUMPDEST PUSH2 0x66E PUSH1 0x40 MLOAD DUP1 PUSH1 0xC0 ADD PUSH1 0x40 MSTORE DUP1 PUSH1 0x0 PUSH1 0x1 PUSH1 0x1 PUSH1 0x80 SHL SUB AND DUP2 MSTORE PUSH1 0x20 ADD PUSH1 0x0 DUP2 MSTORE PUSH1 0x20 ADD PUSH1 0x0 DUP2 MSTORE PUSH1 0x20 ADD PUSH1 0x0 DUP2 MSTORE PUSH1 0x20 ADD PUSH1 0x0 DUP2 MSTORE PUSH1 0x20 ADD PUSH1 0x0 DUP2 MSTORE POP SWAP1 JUMP JUMPDEST PUSH2 0x67A DUP3 DUP5 ADD DUP5 PUSH2 0xC4A JUMP JUMPDEST PUSH1 0xA0 DUP8 ADD MSTORE PUSH1 0x80 DUP7 ADD MSTORE PUSH1 0x60 DUP6 ADD MSTORE PUSH1 0x40 DUP5 ADD MSTORE PUSH1 0x20 DUP4 ADD MSTORE PUSH1 0x1 PUSH1 0x1 PUSH1 0x80 SHL SUB AND DUP2 MSTORE SWAP3 SWAP2 POP POP JUMP JUMPDEST PUSH1 0x0 PUSH1 0x2 SLOAD GT DUP1 PUSH2 0x6B7 JUMPI POP PUSH1 0x0 PUSH1 0x3 SLOAD GT JUMPDEST ISZERO PUSH2 0x5AC JUMPI PUSH1 0x0 DUP2 PUSH1 0x1 PUSH1 0x1 PUSH1 0xA0 SHL SUB AND PUSH4 0x468F02D2 PUSH1 0x40 MLOAD DUP2 PUSH4 0xFFFFFFFF AND PUSH1 0xE0 SHL DUP2 MSTORE PUSH1 0x4 ADD PUSH1 0x40 DUP1 MLOAD DUP1 DUP4 SUB DUP2 DUP7 GAS STATICCALL ISZERO DUP1 ISZERO PUSH2 0x6FB JUMPI RETURNDATASIZE PUSH1 0x0 DUP1 RETURNDATACOPY RETURNDATASIZE PUSH1 0x0 REVERT JUMPDEST POP POP POP POP PUSH1 0x40 MLOAD RETURNDATASIZE PUSH1 0x1F NOT PUSH1 0x1F DUP3 ADD AND DUP3 ADD DUP1 PUSH1 0x40 MSTORE POP DUP2 ADD SWAP1 PUSH2 0x71F SWAP2 SWAP1 PUSH2 0xC96 JUMP JUMPDEST POP SWAP1 POP PUSH1 0x2 SLOAD DUP2 LT ISZERO DUP1 ISZERO PUSH2 0x736 JUMPI POP PUSH1 0x3 SLOAD DUP2 GT ISZERO JUMPDEST PUSH2 0x797 JUMPI PUSH1 0x40 MLOAD PUSH3 0x461BCD PUSH1 0xE5 SHL DUP2 MSTORE PUSH1 0x20 PUSH1 0x4 DUP3 ADD MSTORE PUSH1 0x2C PUSH1 0x24 DUP3 ADD MSTORE PUSH32 0x526562616C616E6365723A207661756C74207072696365206F7574206F662061 PUSH1 0x44 DUP3 ADD MSTORE PUSH12 0x6C6C6F7765642072616E6765 PUSH1 0xA0 SHL PUSH1 0x64 DUP3 ADD MSTORE PUSH1 0x84 ADD PUSH2 0x1A3 JUMP JUMPDEST POP POP JUMP JUMPDEST PUSH1 0x0 DUP1 PUSH1 0x0 DUP5 PUSH1 0x1 PUSH1 0x1 PUSH1 0xA0 SHL SUB AND PUSH4 0x99FBAB88 PUSH1 0xE0 SHL DUP6 PUSH1 0x40 MLOAD PUSH1 0x24 ADD PUSH2 0x7C5 SWAP2 DUP2 MSTORE PUSH1 0x20 ADD SWAP1 JUMP JUMPDEST PUSH1 0x40 DUP1 MLOAD PUSH1 0x1F NOT DUP2 DUP5 SUB ADD DUP2 MSTORE SWAP2 DUP2 MSTORE PUSH1 0x20 DUP3 ADD DUP1 MLOAD PUSH1 0x1 PUSH1 0x1 PUSH1 0xE0 SHL SUB AND PUSH1 0x1 PUSH1 0x1 PUSH1 0xE0 SHL SUB NOT SWAP1 SWAP5 AND SWAP4 SWAP1 SWAP4 OR SWAP1 SWAP3 MSTORE SWAP1 MLOAD PUSH2 0x803 SWAP2 SWAP1 PUSH2 0xCF1 JUMP JUMPDEST PUSH1 0x0 PUSH1 0x40 MLOAD DUP1 DUP4 SUB DUP2 DUP6 GAS STATICCALL SWAP2 POP POP RETURNDATASIZE DUP1 PUSH1 0x0 DUP2 EQ PUSH2 0x83E JUMPI PUSH1 0x40 MLOAD SWAP2 POP PUSH1 0x1F NOT PUSH1 0x3F RETURNDATASIZE ADD AND DUP3 ADD PUSH1 0x40 MSTORE RETURNDATASIZE DUP3 MSTORE RETURNDATASIZE PUSH1 0x0 PUSH1 0x20 DUP5 ADD RETURNDATACOPY PUSH2 0x843 JUMP JUMPDEST PUSH1 0x60 SWAP2 POP JUMPDEST POP SWAP2 POP SWAP2 POP DUP2 PUSH2 0x852 DUP3 PUSH2 0xAD2 JUMP JUMPDEST SWAP1 PUSH2 0x870 JUMPI PUSH1 0x40 MLOAD PUSH3 0x461BCD PUSH1 0xE5 SHL DUP2 MSTORE PUSH1 0x4 ADD PUSH2 0x1A3 SWAP2 SWAP1 PUSH2 0xD0D JUMP JUMPDEST POP DUP1 DUP1 PUSH1 0x20 ADD SWAP1 MLOAD DUP2 ADD SWAP1 PUSH2 0x885 SWAP2 SWAP1 PUSH2 0xD80 JUMP JUMPDEST POP SWAP3 SWAP16 SWAP15 POP POP POP POP POP POP POP POP POP POP POP POP POP POP POP JUMP JUMPDEST PUSH1 0x40 DUP1 MLOAD PUSH1 0xA0 DUP1 DUP3 ADD DUP4 MSTORE DUP5 DUP3 MSTORE DUP4 MLOAD PUSH1 0x1 PUSH1 0x1 PUSH1 0x80 SHL SUB SWAP1 DUP2 AND PUSH1 0x20 DUP1 DUP6 ADD SWAP2 DUP3 MSTORE DUP7 ADD MLOAD DUP5 DUP7 ADD SWAP1 DUP2 MSTORE DUP7 DUP7 ADD MLOAD PUSH1 0x60 DUP7 ADD SWAP1 DUP2 MSTORE SWAP4 DUP8 ADD MLOAD PUSH1 0x80 DUP7 ADD SWAP1 DUP2 MSTORE SWAP6 MLOAD PUSH4 0x624E65F PUSH1 0xE1 SHL DUP2 MSTORE DUP6 MLOAD PUSH1 0x4 DUP3 ADD MSTORE SWAP2 MLOAD SWAP1 SWAP3 AND PUSH1 0x24 DUP3 ADD MSTORE SWAP1 MLOAD PUSH1 0x44 DUP3 ADD MSTORE SWAP1 MLOAD PUSH1 0x64 DUP3 ADD MSTORE SWAP2 MLOAD PUSH1 0x84 DUP4 ADD MSTORE PUSH1 0x0 SWAP2 DUP3 SWAP2 SWAP1 PUSH1 0x1 PUSH1 0x1 PUSH1 0xA0 SHL SUB DUP8 AND SWAP1 PUSH4 0xC49CCBE SWAP1 PUSH1 0xA4 ADD JUMPDEST PUSH1 0x40 DUP1 MLOAD DUP1 DUP4 SUB DUP2 PUSH1 0x0 DUP8 GAS CALL ISZERO DUP1 ISZERO PUSH2 0x947 JUMPI RETURNDATASIZE PUSH1 0x0 DUP1 RETURNDATACOPY RETURNDATASIZE PUSH1 0x0 REVERT JUMPDEST POP POP POP POP PUSH1 0x40 MLOAD RETURNDATASIZE PUSH1 0x1F NOT PUSH1 0x1F DUP3 ADD AND DUP3 ADD DUP1 PUSH1 0x40 MSTORE POP DUP2 ADD SWAP1 PUSH2 0x96B SWAP2 SWAP1 PUSH2 0xE62 JUMP JUMPDEST SWAP1 SWAP8 SWAP1 SWAP7 POP SWAP5 POP POP POP POP POP JUMP JUMPDEST PUSH1 0x40 DUP1 MLOAD PUSH1 0x80 DUP2 ADD DUP3 MSTORE DUP3 DUP2 MSTORE PUSH1 0x1 PUSH1 0x1 PUSH1 0xA0 SHL SUB DUP5 DUP2 AND PUSH1 0x20 DUP4 ADD SWAP1 DUP2 MSTORE PUSH1 0x1 PUSH1 0x1 PUSH1 0x80 SHL SUB DUP4 DUP6 ADD DUP2 DUP2 MSTORE PUSH1 0x60 DUP6 ADD DUP3 DUP2 MSTORE SWAP6 MLOAD PUSH4 0xFC6F7865 PUSH1 0xE0 SHL DUP2 MSTORE DUP6 MLOAD PUSH1 0x4 DUP3 ADD MSTORE SWAP3 MLOAD DUP5 AND PUSH1 0x24 DUP5 ADD MSTORE MLOAD DUP2 AND PUSH1 0x44 DUP4 ADD MSTORE SWAP4 MLOAD SWAP1 SWAP4 AND PUSH1 0x64 DUP5 ADD MSTORE PUSH1 0x0 SWAP3 DUP4 SWAP3 SWAP2 DUP8 AND SWAP1 PUSH4 0xFC6F7865 SWAP1 PUSH1 0x84 ADD PUSH2 0x929 JUMP JUMPDEST PUSH1 0x40 DUP1 MLOAD PUSH1 0xC0 DUP2 ADD DUP3 MSTORE DUP4 DUP2 MSTORE PUSH1 0x60 DUP1 DUP5 ADD MLOAD PUSH1 0x20 DUP4 ADD SWAP1 DUP2 MSTORE PUSH1 0x80 DUP1 DUP7 ADD MLOAD DUP5 DUP7 ADD SWAP1 DUP2 MSTORE PUSH1 0x0 SWAP4 DUP6 ADD DUP5 DUP2 MSTORE SWAP2 DUP6 ADD DUP5 DUP2 MSTORE PUSH1 0xA0 DUP1 DUP10 ADD MLOAD SWAP1 DUP8 ADD SWAP1 DUP2 MSTORE SWAP7 MLOAD PUSH4 0x219F5D17 PUSH1 0xE0 SHL DUP2 MSTORE DUP7 MLOAD PUSH1 0x4 DUP3 ADD MSTORE SWAP4 MLOAD PUSH1 0x24 DUP6 ADD MSTORE SWAP1 MLOAD PUSH1 0x44 DUP5 ADD MSTORE SWAP1 MLOAD PUSH1 0x64 DUP4 ADD MSTORE MLOAD PUSH1 0x84 DUP3 ADD MSTORE SWAP3 MLOAD PUSH1 0xA4 DUP5 ADD MSTORE SWAP2 DUP3 SWAP2 DUP3 SWAP2 PUSH1 0x1 PUSH1 0x1 PUSH1 0xA0 SHL SUB DUP9 AND SWAP1 PUSH4 0x219F5D17 SWAP1 PUSH1 0xC4 ADD PUSH1 0x60 PUSH1 0x40 MLOAD DUP1 DUP4 SUB DUP2 PUSH1 0x0 DUP8 GAS CALL ISZERO DUP1 ISZERO PUSH2 0xA9E JUMPI RETURNDATASIZE PUSH1 0x0 DUP1 RETURNDATACOPY RETURNDATASIZE PUSH1 0x0 REVERT JUMPDEST POP POP POP POP PUSH1 0x40 MLOAD RETURNDATASIZE PUSH1 0x1F NOT PUSH1 0x1F DUP3 ADD AND DUP3 ADD DUP1 PUSH1 0x40 MSTORE POP DUP2 ADD SWAP1 PUSH2 0xAC2 SWAP2 SWAP1 PUSH2 0xE86 JUMP JUMPDEST SWAP2 SWAP10 SWAP1 SWAP9 POP SWAP1 SWAP7 POP SWAP5 POP POP POP POP POP JUMP JUMPDEST PUSH1 0x60 PUSH1 0x44 DUP3 MLOAD LT ISZERO PUSH2 0xAFD JUMPI PUSH1 0x40 MLOAD DUP1 PUSH1 0x60 ADD PUSH1 0x40 MSTORE DUP1 PUSH1 0x25 DUP2 MSTORE PUSH1 0x20 ADD PUSH2 0xF89 PUSH1 0x25 SWAP2 CODECOPY SWAP3 SWAP2 POP POP JUMP JUMPDEST PUSH1 0x4 DUP3 ADD SWAP2 POP DUP2 DUP1 PUSH1 0x20 ADD SWAP1 MLOAD DUP2 ADD SWAP1 PUSH2 0xB17 SWAP2 SWAP1 PUSH2 0xED3 JUMP JUMPDEST SWAP3 SWAP2 POP POP JUMP JUMPDEST PUSH1 0x0 DUP1 PUSH1 0x40 DUP4 DUP6 SUB SLT ISZERO PUSH2 0xB30 JUMPI PUSH1 0x0 DUP1 REVERT JUMPDEST POP POP DUP1 CALLDATALOAD SWAP3 PUSH1 0x20 SWAP1 SWAP2 ADD CALLDATALOAD SWAP2 POP JUMP JUMPDEST PUSH1 0x1 PUSH1 0x1 PUSH1 0xA0 SHL SUB DUP2 AND DUP2 EQ PUSH2 0x5AC JUMPI PUSH1 0x0 DUP1 REVERT JUMPDEST PUSH1 0x0 PUSH1 0x20 DUP3 DUP5 SUB SLT ISZERO PUSH2 0xB66 JUMPI PUSH1 0x0 DUP1 REVERT JUMPDEST DUP2 CALLDATALOAD PUSH2 0xB71 DUP2 PUSH2 0xB3F JUMP JUMPDEST SWAP4 SWAP3 POP POP POP JUMP JUMPDEST PUSH1 0x0 DUP1 PUSH1 0x0 PUSH1 0x40 DUP5 DUP7 SUB SLT ISZERO PUSH2 0xB8D JUMPI PUSH1 0x0 DUP1 REVERT JUMPDEST DUP4 CALLDATALOAD PUSH2 0xB98 DUP2 PUSH2 0xB3F JUMP JUMPDEST SWAP3 POP PUSH1 0x20 DUP5 ADD CALLDATALOAD PUSH8 0xFFFFFFFFFFFFFFFF DUP2 GT ISZERO PUSH2 0xBB4 JUMPI PUSH1 0x0 DUP1 REVERT JUMPDEST DUP5 ADD PUSH1 0x1F DUP2 ADD DUP7 SGT PUSH2 0xBC5 JUMPI PUSH1 0x0 DUP1 REVERT JUMPDEST DUP1 CALLDATALOAD PUSH8 0xFFFFFFFFFFFFFFFF DUP2 GT ISZERO PUSH2 0xBDC JUMPI PUSH1 0x0 DUP1 REVERT JUMPDEST DUP7 PUSH1 0x20 DUP3 DUP5 ADD ADD GT ISZERO PUSH2 0xBEE JUMPI PUSH1 0x0 DUP1 REVERT JUMPDEST SWAP4 SWAP7 PUSH1 0x20 SWAP2 SWAP1 SWAP2 ADD SWAP6 POP SWAP3 SWAP4 POP POP POP JUMP JUMPDEST PUSH1 0x0 PUSH1 0x20 DUP3 DUP5 SUB SLT ISZERO PUSH2 0xC11 JUMPI PUSH1 0x0 DUP1 REVERT JUMPDEST POP MLOAD SWAP2 SWAP1 POP JUMP JUMPDEST PUSH1 0x0 PUSH1 0x20 DUP3 DUP5 SUB SLT ISZERO PUSH2 0xC2A JUMPI PUSH1 0x0 DUP1 REVERT JUMPDEST DUP2 MLOAD PUSH2 0xB71 DUP2 PUSH2 0xB3F JUMP JUMPDEST PUSH1 0x1 PUSH1 0x1 PUSH1 0x80 SHL SUB DUP2 AND DUP2 EQ PUSH2 0x5AC JUMPI PUSH1 0x0 DUP1 REVERT JUMPDEST PUSH1 0x0 DUP1 PUSH1 0x0 DUP1 PUSH1 0x0 DUP1 PUSH1 0xC0 DUP8 DUP10 SUB SLT ISZERO PUSH2 0xC63 JUMPI PUSH1 0x0 DUP1 REVERT JUMPDEST DUP7 CALLDATALOAD PUSH2 0xC6E DUP2 PUSH2 0xC35 JUMP JUMPDEST SWAP9 PUSH1 0x20 DUP9 ADD CALLDATALOAD SWAP9 POP PUSH1 0x40 DUP9 ADD CALLDATALOAD SWAP8 PUSH1 0x60 DUP2 ADD CALLDATALOAD SWAP8 POP PUSH1 0x80 DUP2 ADD CALLDATALOAD SWAP7 POP PUSH1 0xA0 ADD CALLDATALOAD SWAP5 POP SWAP3 POP POP POP JUMP JUMPDEST PUSH1 0x0 DUP1 PUSH1 0x40 DUP4 DUP6 SUB SLT ISZERO PUSH2 0xCA9 JUMPI PUSH1 0x0 DUP1 REVERT JUMPDEST DUP3 MLOAD PUSH1 0x20 DUP5 ADD MLOAD SWAP1 SWAP3 POP PUSH1 0xFF DUP2 AND DUP2 EQ PUSH2 0xCC2 JUMPI PUSH1 0x0 DUP1 REVERT JUMPDEST DUP1 SWAP2 POP POP SWAP3 POP SWAP3 SWAP1 POP JUMP JUMPDEST PUSH1 0x0 JUMPDEST DUP4 DUP2 LT ISZERO PUSH2 0xCE8 JUMPI DUP2 DUP2 ADD MLOAD DUP4 DUP3 ADD MSTORE PUSH1 0x20 ADD PUSH2 0xCD0 JUMP JUMPDEST POP POP PUSH1 0x0 SWAP2 ADD MSTORE JUMP JUMPDEST PUSH1 0x0 DUP3 MLOAD PUSH2 0xD03 DUP2 DUP5 PUSH1 0x20 DUP8 ADD PUSH2 0xCCD JUMP JUMPDEST SWAP2 SWAP1 SWAP2 ADD SWAP3 SWAP2 POP POP JUMP JUMPDEST PUSH1 0x20 DUP2 MSTORE PUSH1 0x0 DUP3 MLOAD DUP1 PUSH1 0x20 DUP5 ADD MSTORE PUSH2 0xD2C DUP2 PUSH1 0x40 DUP6 ADD PUSH1 0x20 DUP8 ADD PUSH2 0xCCD JUMP JUMPDEST PUSH1 0x1F ADD PUSH1 0x1F NOT AND SWAP2 SWAP1 SWAP2 ADD PUSH1 0x40 ADD SWAP3 SWAP2 POP POP JUMP JUMPDEST DUP1 MLOAD PUSH2 0xD4B DUP2 PUSH2 0xB3F JUMP JUMPDEST SWAP2 SWAP1 POP JUMP JUMPDEST DUP1 MLOAD PUSH3 0xFFFFFF DUP2 AND DUP2 EQ PUSH2 0xD4B JUMPI PUSH1 0x0 DUP1 REVERT JUMPDEST DUP1 MLOAD PUSH1 0x2 DUP2 SWAP1 SIGNEXTEND DUP2 EQ PUSH2 0xD4B JUMPI PUSH1 0x0 DUP1 REVERT JUMPDEST DUP1 MLOAD PUSH2 0xD4B DUP2 PUSH2 0xC35 JUMP JUMPDEST PUSH1 0x0 DUP1 PUSH1 0x0 DUP1 PUSH1 0x0 DUP1 PUSH1 0x0 DUP1 PUSH1 0x0 DUP1 PUSH1 0x0 DUP1 PUSH2 0x180 DUP14 DUP16 SUB SLT ISZERO PUSH2 0xDA3 JUMPI PUSH1 0x0 DUP1 REVERT JUMPDEST DUP13 MLOAD PUSH12 0xFFFFFFFFFFFFFFFFFFFFFFFF DUP2 AND DUP2 EQ PUSH2 0xDBF JUMPI PUSH1 0x0 DUP1 REVERT JUMPDEST SWAP12 POP PUSH2 0xDCD PUSH1 0x20 DUP15 ADD PUSH2 0xD40 JUMP JUMPDEST SWAP11 POP PUSH2 0xDDB PUSH1 0x40 DUP15 ADD PUSH2 0xD40 JUMP JUMPDEST SWAP10 POP PUSH2 0xDE9 PUSH1 0x60 DUP15 ADD PUSH2 0xD40 JUMP JUMPDEST SWAP9 POP PUSH2 0xDF7 PUSH1 0x80 DUP15 ADD PUSH2 0xD50 JUMP JUMPDEST SWAP8 POP PUSH2 0xE05 PUSH1 0xA0 DUP15 ADD PUSH2 0xD63 JUMP JUMPDEST SWAP7 POP PUSH2 0xE13 PUSH1 0xC0 DUP15 ADD PUSH2 0xD63 JUMP JUMPDEST SWAP6 POP PUSH2 0xE21 PUSH1 0xE0 DUP15 ADD PUSH2 0xD75 JUMP JUMPDEST PUSH2 0x100 DUP15 ADD MLOAD PUSH2 0x120 DUP16 ADD MLOAD SWAP2 SWAP7 POP SWAP5 POP SWAP3 POP PUSH2 0xE41 PUSH2 0x140 DUP15 ADD PUSH2 0xD75 JUMP JUMPDEST SWAP2 POP PUSH2 0xE50 PUSH2 0x160 DUP15 ADD PUSH2 0xD75 JUMP JUMPDEST SWAP1 POP SWAP3 SWAP6 SWAP9 SWAP12 POP SWAP3 SWAP6 SWAP9 SWAP12 POP SWAP3 SWAP6 SWAP9 SWAP12 JUMP JUMPDEST PUSH1 0x0 DUP1 PUSH1 0x40 DUP4 DUP6 SUB SLT ISZERO PUSH2 0xE75 JUMPI PUSH1 0x0 DUP1 REVERT JUMPDEST POP POP DUP1 MLOAD PUSH1 0x20 SWAP1 SWAP2 ADD MLOAD SWAP1 SWAP3 SWAP1 SWAP2 POP JUMP JUMPDEST PUSH1 0x0 DUP1 PUSH1 0x0 PUSH1 0x60 DUP5 DUP7 SUB SLT ISZERO PUSH2 0xE9B JUMPI PUSH1 0x0 DUP1 REVERT JUMPDEST DUP4 MLOAD PUSH2 0xEA6 DUP2 PUSH2 0xC35 JUMP JUMPDEST PUSH1 0x20 DUP6 ADD MLOAD PUSH1 0x40 SWAP1 SWAP6 ADD MLOAD SWAP1 SWAP7 SWAP5 SWAP6 POP SWAP4 SWAP3 POP POP POP JUMP JUMPDEST PUSH4 0x4E487B71 PUSH1 0xE0 SHL PUSH1 0x0 MSTORE PUSH1 0x41 PUSH1 0x4 MSTORE PUSH1 0x24 PUSH1 0x0 REVERT JUMPDEST PUSH1 0x0 PUSH1 0x20 DUP3 DUP5 SUB SLT ISZERO PUSH2 0xEE5 JUMPI PUSH1 0x0 DUP1 REVERT JUMPDEST DUP2 MLOAD PUSH8 0xFFFFFFFFFFFFFFFF DUP2 GT ISZERO PUSH2 0xEFC JUMPI PUSH1 0x0 DUP1 REVERT JUMPDEST DUP3 ADD PUSH1 0x1F DUP2 ADD DUP5 SGT PUSH2 0xF0D JUMPI PUSH1 0x0 DUP1 REVERT JUMPDEST DUP1 MLOAD PUSH8 0xFFFFFFFFFFFFFFFF DUP2 GT ISZERO PUSH2 0xF27 JUMPI PUSH2 0xF27 PUSH2 0xEBD JUMP JUMPDEST PUSH1 0x40 MLOAD PUSH1 0x1F DUP3 ADD PUSH1 0x1F NOT SWAP1 DUP2 AND PUSH1 0x3F ADD AND DUP2 ADD PUSH8 0xFFFFFFFFFFFFFFFF DUP2 GT DUP3 DUP3 LT OR ISZERO PUSH2 0xF56 JUMPI PUSH2 0xF56 PUSH2 0xEBD JUMP JUMPDEST PUSH1 0x40 MSTORE DUP2 DUP2 MSTORE DUP3 DUP3 ADD PUSH1 0x20 ADD DUP7 LT ISZERO PUSH2 0xF6E JUMPI PUSH1 0x0 DUP1 REVERT JUMPDEST PUSH2 0xF7F DUP3 PUSH1 0x20 DUP4 ADD PUSH1 0x20 DUP7 ADD PUSH2 0xCCD JUMP JUMPDEST SWAP6 SWAP5 POP POP POP POP POP JUMP INVALID MSTORE PUSH6 0x62616C616E63 PUSH6 0x723A2063616C PUSH13 0x20726576657274656420772F6F KECCAK256 PUSH14 0x657373616765A264697066735822 SLT KECCAK256 0xAD SDIV DIFFICULTY 0xC1 NUMBER 0xE2 SWAP5 0xC 0x4D 0xC4 0xB9 0xDC 0xD1 RETURN SWAP14 0xB6 0xEA PUSH15 0xCDE589AE12B7E87405EE8E1CCE7164 PUSH20 0x6F6C634300081C00330000000000000000000000 "
		},
		"gasEstimates": {
			"creation": {
				"codeDepositCost": "813400",
				"executionCost": "infinite",
				"totalCost": "infinite"
			},
			"external": {
				"maxPriceAllowed()": "440",
				"minPriceAllowed()": "439",
				"oracleManager()": "449",
				"owner()": "420",
				"rebalance(address,bytes)": "infinite",
				"renounceOwnership()": "infinite",
				"setOracleManager(address)": "20886",
				"setPriceBounds(uint256,uint256)": "41891",
				"transferOwnership(address)": "infinite"
			},
			"internal": {
				"_addLiquidity(address,uint256,struct Rebalancer.RebalanceArgs memory)": "infinite",
				"_checkPriceConstraints(contract IVaultRebalance)": "infinite",
				"_collectAll(address,address,uint256)": "infinite",
				"_decodeRebalanceArgs(bytes calldata)": "infinite",
				"_fetchLiquidity(address,uint256)": "infinite",
				"_getRevertMsg(bytes memory)": "infinite",
				"_removeLiquidity(address,uint256,struct Rebalancer.RebalanceArgs memory)": "infinite"
			}
		},
		"methodIdentifiers": {
			"maxPriceAllowed()": "687d3cf7",
			"minPriceAllowed()": "e6142a39",
			"oracleManager()": "565d878c",
			"owner()": "8da5cb5b",
			"rebalance(address,bytes)": "ea1ea75e",
			"renounceOwnership()": "715018a6",
			"setOracleManager(address)": "929e2e08",
			"setPriceBounds(uint256,uint256)": "19b9dfb5",
			"transferOwnership(address)": "f2fde38b"
		}
	},
	"abi": [
		{
			"inputs": [
				{
					"internalType": "address",
					"name": "initialOwner",
					"type": "address"
				},
				{
					"internalType": "address",
					"name": "_oracleManager",
					"type": "address"
				},
				{
					"internalType": "uint256",
					"name": "_minPrice",
					"type": "uint256"
				},
				{
					"internalType": "uint256",
					"name": "_maxPrice",
					"type": "uint256"
				}
			],
			"stateMutability": "nonpayable",
			"type": "constructor"
		},
		{
			"inputs": [
				{
					"internalType": "address",
					"name": "owner",
					"type": "address"
				}
			],
			"name": "OwnableInvalidOwner",
			"type": "error"
		},
		{
			"inputs": [
				{
					"internalType": "address",
					"name": "account",
					"type": "address"
				}
			],
			"name": "OwnableUnauthorizedAccount",
			"type": "error"
		},
		{
			"anonymous": false,
			"inputs": [
				{
					"indexed": true,
					"internalType": "address",
					"name": "previousOwner",
					"type": "address"
				},
				{
					"indexed": true,
					"internalType": "address",
					"name": "newOwner",
					"type": "address"
				}
			],
			"name": "OwnershipTransferred",
			"type": "event"
		},
		{
			"anonymous": false,
			"inputs": [
				{
					"indexed": false,
					"internalType": "uint256",
					"name": "minPrice",
					"type": "uint256"
				},
				{
					"indexed": false,
					"internalType": "uint256",
					"name": "maxPrice",
					"type": "uint256"
				}
			],
			"name": "PriceBoundsUpdated",
			"type": "event"
		},
		{
			"anonymous": false,
			"inputs": [
				{
					"indexed": true,
					"internalType": "address",
					"name": "vault",
					"type": "address"
				},
				{
					"indexed": false,
					"internalType": "uint256",
					"name": "tokenId",
					"type": "uint256"
				},
				{
					"indexed": false,
					"internalType": "uint256",
					"name": "amount0Removed",
					"type": "uint256"
				},
				{
					"indexed": false,
					"internalType": "uint256",
					"name": "amount1Removed",
					"type": "uint256"
				},
				{
					"indexed": false,
					"internalType": "uint256",
					"name": "amount0Added",
					"type": "uint256"
				},
				{
					"indexed": false,
					"internalType": "uint256",
					"name": "amount1Added",
					"type": "uint256"
				}
			],
			"name": "RebalancePerformed",
			"type": "event"
		},
		{
			"inputs": [],
			"name": "maxPriceAllowed",
			"outputs": [
				{
					"internalType": "uint256",
					"name": "",
					"type": "uint256"
				}
			],
			"stateMutability": "view",
			"type": "function"
		},
		{
			"inputs": [],
			"name": "minPriceAllowed",
			"outputs": [
				{
					"internalType": "uint256",
					"name": "",
					"type": "uint256"
				}
			],
			"stateMutability": "view",
			"type": "function"
		},
		{
			"inputs": [],
			"name": "oracleManager",
			"outputs": [
				{
					"internalType": "contract OracleManager",
					"name": "",
					"type": "address"
				}
			],
			"stateMutability": "view",
			"type": "function"
		},
		{
			"inputs": [],
			"name": "owner",
			"outputs": [
				{
					"internalType": "address",
					"name": "",
					"type": "address"
				}
			],
			"stateMutability": "view",
			"type": "function"
		},
		{
			"inputs": [
				{
					"internalType": "address",
					"name": "vault",
					"type": "address"
				},
				{
					"internalType": "bytes",
					"name": "data",
					"type": "bytes"
				}
			],
			"name": "rebalance",
			"outputs": [],
			"stateMutability": "nonpayable",
			"type": "function"
		},
		{
			"inputs": [],
			"name": "renounceOwnership",
			"outputs": [],
			"stateMutability": "nonpayable",
			"type": "function"
		},
		{
			"inputs": [
				{
					"internalType": "address",
					"name": "newOracle",
					"type": "address"
				}
			],
			"name": "setOracleManager",
			"outputs": [],
			"stateMutability": "nonpayable",
			"type": "function"
		},
		{
			"inputs": [
				{
					"internalType": "uint256",
					"name": "newMin",
					"type": "uint256"
				},
				{
					"internalType": "uint256",
					"name": "newMax",
					"type": "uint256"
				}
			],
			"name": "setPriceBounds",
			"outputs": [],
			"stateMutability": "nonpayable",
			"type": "function"
		},
		{
			"inputs": [
				{
					"internalType": "address",
					"name": "newOwner",
					"type": "address"
				}
			],
			"name": "transferOwnership",
			"outputs": [],
			"stateMutability": "nonpayable",
			"type": "function"
		}
	]
}