{
	"data": {
		"bytecode": {
			"linkReferences": {},
			"object": "60806040526001600455348015610014575f5ffd5b50604051612a46380380612a46833981810160405281019061003691906101cc565b5f73ffffffffffffffffffffffffffffffffffffffff168373ffffffffffffffffffffffffffffffffffffffff16036100a4576040517f08c379a000000000000000000000000000000000000000000000000000000000815260040161009b90610276565b60405180910390fd5b5f81116100e6576040517f08c379a00000000000000000000000000000000000000000000000000000000081526004016100dd90610304565b60405180910390fd5b8260025f6101000a81548173ffffffffffffffffffffffffffffffffffffffff021916908373ffffffffffffffffffffffffffffffffffffffff16021790555081600181905550805f81905550505050610322565b5f5ffd5b5f73ffffffffffffffffffffffffffffffffffffffff82169050919050565b5f6101688261013f565b9050919050565b6101788161015e565b8114610182575f5ffd5b50565b5f815190506101938161016f565b92915050565b5f819050919050565b6101ab81610199565b81146101b5575f5ffd5b50565b5f815190506101c6816101a2565b92915050565b5f5f5f606084860312156101e3576101e261013b565b5b5f6101f086828701610185565b9350506020610201868287016101b8565b9250506040610212868287016101b8565b9150509250925092565b5f82825260208201905092915050565b7f54696d656c6f636b3a20696e76616c6964206f776e65720000000000000000005f82015250565b5f61026060178361021c565b915061026b8261022c565b602082019050919050565b5f6020820190508181035f83015261028d81610254565b9050919050565b7f54696d656c6f636b3a206772616365506572696f64206d757374206265203e205f8201527f3000000000000000000000000000000000000000000000000000000000000000602082015250565b5f6102ee60218361021c565b91506102f982610294565b604082019050919050565b5f6020820190508181035f83015261031b816102e2565b9050919050565b6127178061032f5f395ff3fe6080604052600436106100c5575f3560e01c8063c74f349b1161007e578063e751f27111610058578063e751f27114610296578063f087dd24146102b2578063f2f65960146102ee578063f2fde38b14610316576100cc565b8063c74f349b146101f0578063e177246e14610232578063e31fa19a1461025a576100cc565b80636a42b8f8146100d0578063727c6c5a146100fa5780638da5cb5b14610138578063a06db7dc14610162578063baa1f3771461018c578063c4d252f5146101c8576100cc565b366100cc57005b5f5ffd5b3480156100db575f5ffd5b506100e461033e565b6040516100f191906112a5565b60405180910390f35b348015610105575f5ffd5b50610120600480360381019061011b9190611302565b610344565b60405161012f93929190611347565b60405180910390f35b348015610143575f5ffd5b5061014c6103f3565b60405161015991906113bb565b60405180910390f35b34801561016d575f5ffd5b50610176610418565b60405161018391906112a5565b60405180910390f35b348015610197575f5ffd5b506101b260048036038101906101ad9190611602565b61041d565b6040516101bf91906116ad565b60405180910390f35b3480156101d3575f5ffd5b506101ee60048036038101906101e99190611302565b6106eb565b005b3480156101fb575f5ffd5b5061021660048036038101906102119190611302565b61090f565b6040516102299796959493929190611778565b60405180910390f35b34801561023d575f5ffd5b50610258600480360381019061025391906117f3565b610a91565b005b348015610265575f5ffd5b50610280600480360381019061027b9190611302565b610b2a565b60405161028d91906112a5565b60405180910390f35b6102b060048036038101906102ab9190611302565b610b4c565b005b3480156102bd575f5ffd5b506102d860048036038101906102d39190611602565b610fed565b6040516102e591906116ad565b60405180910390f35b3480156102f9575f5ffd5b50610314600480360381019061030f91906117f3565b611025565b005b348015610321575f5ffd5b5061033c6004803603810190610337919061181e565b6110ff565b005b60015481565b5f5f5f5f60035f8681526020019081526020015f2090505f73ffffffffffffffffffffffffffffffffffffffff16815f015f9054906101000a900473ffffffffffffffffffffffffffffffffffffffff1673ffffffffffffffffffffffffffffffffffffffff16036103bf575f5f5f935093509350506103ec565b60018160050160019054906101000a900460ff16826005015f9054906101000a900460ff16935093509350505b9193909250565b60025f9054906101000a900473ffffffffffffffffffffffffffffffffffffffff1681565b5f5481565b5f60025f9054906101000a900473ffffffffffffffffffffffffffffffffffffffff1673ffffffffffffffffffffffffffffffffffffffff163373ffffffffffffffffffffffffffffffffffffffff16146104ad576040517f08c379a00000000000000000000000000000000000000000000000000000000081526004016104a4906118b9565b60405180910390fd5b5f73ffffffffffffffffffffffffffffffffffffffff168573ffffffffffffffffffffffffffffffffffffffff160361051b576040517f08c379a000000000000000000000000000000000000000000000000000000000815260040161051290611921565b60405180910390fd5b61052785858585610fed565b90505f60035f8381526020019081526020015f2090505f73ffffffffffffffffffffffffffffffffffffffff16815f015f9054906101000a900473ffffffffffffffffffffffffffffffffffffffff1673ffffffffffffffffffffffffffffffffffffffff16146105cd576040517f08c379a00000000000000000000000000000000000000000000000000000000081526004016105c4906119af565b60405180910390fd5b5f600154426105dc91906119fa565b905086825f015f6101000a81548173ffffffffffffffffffffffffffffffffffffffff021916908373ffffffffffffffffffffffffffffffffffffffff160217905550858260010181905550848260020190816106399190611c2a565b508382600301908161064b9190611d51565b508082600401819055505f826005015f6101000a81548160ff0219169083151502179055505f8260050160016101000a81548160ff0219169083151502179055508673ffffffffffffffffffffffffffffffffffffffff16837f5eab136a1e0af9e18165f705d4a9f7a210395aa3d4de14a416c5e5ed744f6655888888866040516106d99493929190611e20565b60405180910390a35050949350505050565b60025f9054906101000a900473ffffffffffffffffffffffffffffffffffffffff1673ffffffffffffffffffffffffffffffffffffffff163373ffffffffffffffffffffffffffffffffffffffff161461077a576040517f08c379a0000000000000000000000000000000000000000000000000000000008152600401610771906118b9565b60405180910390fd5b5f60035f8381526020019081526020015f2090505f73ffffffffffffffffffffffffffffffffffffffff16815f015f9054906101000a900473ffffffffffffffffffffffffffffffffffffffff1673ffffffffffffffffffffffffffffffffffffffff160361081e576040517f08c379a000000000000000000000000000000000000000000000000000000000815260040161081590611ebb565b60405180910390fd5b806005015f9054906101000a900460ff161561086f576040517f08c379a000000000000000000000000000000000000000000000000000000000815260040161086690611f49565b60405180910390fd5b8060050160019054906101000a900460ff16156108c1576040517f08c379a00000000000000000000000000000000000000000000000000000000081526004016108b890611fd7565b60405180910390fd5b60018160050160016101000a81548160ff021916908315150217905550817f7a168f30d6a7a3b7aa2e211c067c04bde31169a0f3171a98084508204bc5609460405160405180910390a25050565b6003602052805f5260405f205f91509050805f015f9054906101000a900473ffffffffffffffffffffffffffffffffffffffff169080600101549080600201805461095990611a5a565b80601f016020809104026020016040519081016040528092919081815260200182805461098590611a5a565b80156109d05780601f106109a7576101008083540402835291602001916109d0565b820191905f5260205f20905b8154815290600101906020018083116109b357829003601f168201915b5050505050908060030180546109e590611a5a565b80601f0160208091040260200160405190810160405280929190818152602001828054610a1190611a5a565b8015610a5c5780601f10610a3357610100808354040283529160200191610a5c565b820191905f5260205f20905b815481529060010190602001808311610a3f57829003601f168201915b505050505090806004015490806005015f9054906101000a900460ff16908060050160019054906101000a900460ff16905087565b60025f9054906101000a900473ffffffffffffffffffffffffffffffffffffffff1673ffffffffffffffffffffffffffffffffffffffff163373ffffffffffffffffffffffffffffffffffffffff1614610b20576040517f08c379a0000000000000000000000000000000000000000000000000000000008152600401610b17906118b9565b60405180910390fd5b8060018190555050565b5f5f60035f8481526020019081526020015f2090508060040154915050919050565b600260045403610b91576040517f08c379a0000000000000000000000000000000000000000000000000000000008152600401610b889061203f565b60405180910390fd5b60026004819055505f60035f8381526020019081526020015f2090505f73ffffffffffffffffffffffffffffffffffffffff16815f015f9054906101000a900473ffffffffffffffffffffffffffffffffffffffff1673ffffffffffffffffffffffffffffffffffffffff1603610c3d576040517f08c379a0000000000000000000000000000000000000000000000000000000008152600401610c3490611ebb565b60405180910390fd5b806005015f9054906101000a900460ff1615610c8e576040517f08c379a0000000000000000000000000000000000000000000000000000000008152600401610c8590611f49565b60405180910390fd5b8060050160019054906101000a900460ff1615610ce0576040517f08c379a0000000000000000000000000000000000000000000000000000000008152600401610cd7906120a7565b60405180910390fd5b8060040154421015610d27576040517f08c379a0000000000000000000000000000000000000000000000000000000008152600401610d1e9061210f565b60405180910390fd5b5f548160040154610d3891906119fa565b421115610d7a576040517f08c379a0000000000000000000000000000000000000000000000000000000008152600401610d7190612177565b60405180910390fd5b6001816005015f6101000a81548160ff02191690831515021790555060605f826002018054610da890611a5a565b905003610e4157816003018054610dbe90611a5a565b80601f0160208091040260200160405190810160405280929190818152602001828054610dea90611a5a565b8015610e355780601f10610e0c57610100808354040283529160200191610e35565b820191905f5260205f20905b815481529060010190602001808311610e1857829003601f168201915b50505050509050610e81565b81600201604051610e529190612231565b604051809103902082600301604051602001610e6f929190612312565b60405160208183030381529060405290505b5f5f835f015f9054906101000a900473ffffffffffffffffffffffffffffffffffffffff1673ffffffffffffffffffffffffffffffffffffffff16846001015484604051610ecf9190612369565b5f6040518083038185875af1925050503d805f8114610f09576040519150601f19603f3d011682016040523d82523d5f602084013e610f0e565b606091505b509150915081610f1d8261123f565b90610f5e576040517f08c379a0000000000000000000000000000000000000000000000000000000008152600401610f55919061237f565b60405180910390fd5b50835f015f9054906101000a900473ffffffffffffffffffffffffffffffffffffffff1673ffffffffffffffffffffffffffffffffffffffff16857fc575ca257bfe46beac39c1f7d71db181bd749fb764c569f8d40f94b4f196a8e486600101548760020188600301604051610fd6939291906124a1565b60405180910390a350505050600160048190555050565b5f8484848460405160200161100594939291906124e4565b604051602081830303815290604052805190602001209050949350505050565b60025f9054906101000a900473ffffffffffffffffffffffffffffffffffffffff1673ffffffffffffffffffffffffffffffffffffffff163373ffffffffffffffffffffffffffffffffffffffff16146110b4576040517f08c379a00000000000000000000000000000000000000000000000000000000081526004016110ab906118b9565b60405180910390fd5b5f81116110f6576040517f08c379a00000000000000000000000000000000000000000000000000000000081526004016110ed9061257f565b60405180910390fd5b805f8190555050565b60025f9054906101000a900473ffffffffffffffffffffffffffffffffffffffff1673ffffffffffffffffffffffffffffffffffffffff163373ffffffffffffffffffffffffffffffffffffffff161461118e576040517f08c379a0000000000000000000000000000000000000000000000000000000008152600401611185906118b9565b60405180910390fd5b5f73ffffffffffffffffffffffffffffffffffffffff168173ffffffffffffffffffffffffffffffffffffffff16036111fc576040517f08c379a00000000000000000000000000000000000000000000000000000000081526004016111f3906125e7565b60405180910390fd5b8060025f6101000a81548173ffffffffffffffffffffffffffffffffffffffff021916908373ffffffffffffffffffffffffffffffffffffffff16021790555050565b606060448251101561126b576040518060600160405280602781526020016126bb602791399050611288565b600482019150818060200190518101906112859190612673565b90505b919050565b5f819050919050565b61129f8161128d565b82525050565b5f6020820190506112b85f830184611296565b92915050565b5f604051905090565b5f5ffd5b5f5ffd5b5f819050919050565b6112e1816112cf565b81146112eb575f5ffd5b50565b5f813590506112fc816112d8565b92915050565b5f60208284031215611317576113166112c7565b5b5f611324848285016112ee565b91505092915050565b5f8115159050919050565b6113418161132d565b82525050565b5f60608201905061135a5f830186611338565b6113676020830185611338565b6113746040830184611338565b949350505050565b5f73ffffffffffffffffffffffffffffffffffffffff82169050919050565b5f6113a58261137c565b9050919050565b6113b58161139b565b82525050565b5f6020820190506113ce5f8301846113ac565b92915050565b6113dd8161139b565b81146113e7575f5ffd5b50565b5f813590506113f8816113d4565b92915050565b6114078161128d565b8114611411575f5ffd5b50565b5f81359050611422816113fe565b92915050565b5f5ffd5b5f5ffd5b5f601f19601f8301169050919050565b7f4e487b71000000000000000000000000000000000000000000000000000000005f52604160045260245ffd5b61147682611430565b810181811067ffffffffffffffff8211171561149557611494611440565b5b80604052505050565b5f6114a76112be565b90506114b3828261146d565b919050565b5f67ffffffffffffffff8211156114d2576114d1611440565b5b6114db82611430565b9050602081019050919050565b828183375f83830152505050565b5f611508611503846114b8565b61149e565b9050828152602081018484840111156115245761152361142c565b5b61152f8482856114e8565b509392505050565b5f82601f83011261154b5761154a611428565b5b813561155b8482602086016114f6565b91505092915050565b5f67ffffffffffffffff82111561157e5761157d611440565b5b61158782611430565b9050602081019050919050565b5f6115a66115a184611564565b61149e565b9050828152602081018484840111156115c2576115c161142c565b5b6115cd8482856114e8565b509392505050565b5f82601f8301126115e9576115e8611428565b5b81356115f9848260208601611594565b91505092915050565b5f5f5f5f6080858703121561161a576116196112c7565b5b5f611627878288016113ea565b945050602061163887828801611414565b935050604085013567ffffffffffffffff811115611659576116586112cb565b5b61166587828801611537565b925050606085013567ffffffffffffffff811115611686576116856112cb565b5b611692878288016115d5565b91505092959194509250565b6116a7816112cf565b82525050565b5f6020820190506116c05f83018461169e565b92915050565b5f81519050919050565b5f82825260208201905092915050565b8281835e5f83830152505050565b5f6116f8826116c6565b61170281856116d0565b93506117128185602086016116e0565b61171b81611430565b840191505092915050565b5f81519050919050565b5f82825260208201905092915050565b5f61174a82611726565b6117548185611730565b93506117648185602086016116e0565b61176d81611430565b840191505092915050565b5f60e08201905061178b5f83018a6113ac565b6117986020830189611296565b81810360408301526117aa81886116ee565b905081810360608301526117be8187611740565b90506117cd6080830186611296565b6117da60a0830185611338565b6117e760c0830184611338565b98975050505050505050565b5f60208284031215611808576118076112c7565b5b5f61181584828501611414565b91505092915050565b5f60208284031215611833576118326112c7565b5b5f611840848285016113ea565b91505092915050565b7f54696d656c6f636b3a2063616c6c6572206973206e6f7420746865206f776e655f8201527f7200000000000000000000000000000000000000000000000000000000000000602082015250565b5f6118a36021836116d0565b91506118ae82611849565b604082019050919050565b5f6020820190508181035f8301526118d081611897565b9050919050565b7f54696d656c6f636b3a20696e76616c69642074617267657400000000000000005f82015250565b5f61190b6018836116d0565b9150611916826118d7565b602082019050919050565b5f6020820190508181035f830152611938816118ff565b9050919050565b7f54696d656c6f636b3a206f7065726174696f6e20616c726561647920736368655f8201527f64756c6564000000000000000000000000000000000000000000000000000000602082015250565b5f6119996025836116d0565b91506119a48261193f565b604082019050919050565b5f6020820190508181035f8301526119c68161198d565b9050919050565b7f4e487b71000000000000000000000000000000000000000000000000000000005f52601160045260245ffd5b5f611a048261128d565b9150611a0f8361128d565b9250828201905080821115611a2757611a266119cd565b5b92915050565b7f4e487b71000000000000000000000000000000000000000000000000000000005f52602260045260245ffd5b5f6002820490506001821680611a7157607f821691505b602082108103611a8457611a83611a2d565b5b50919050565b5f819050815f5260205f209050919050565b5f6020601f8301049050919050565b5f82821b905092915050565b5f60088302611ae67fffffffffffffffffffffffffffffffffffffffffffffffffffffffffffffffff82611aab565b611af08683611aab565b95508019841693508086168417925050509392505050565b5f819050919050565b5f611b2b611b26611b218461128d565b611b08565b61128d565b9050919050565b5f819050919050565b611b4483611b11565b611b58611b5082611b32565b848454611ab7565b825550505050565b5f5f905090565b611b6f611b60565b611b7a818484611b3b565b505050565b5b81811015611b9d57611b925f82611b67565b600181019050611b80565b5050565b601f821115611be257611bb381611a8a565b611bbc84611a9c565b81016020851015611bcb578190505b611bdf611bd785611a9c565b830182611b7f565b50505b505050565b5f82821c905092915050565b5f611c025f1984600802611be7565b1980831691505092915050565b5f611c1a8383611bf3565b9150826002028217905092915050565b611c33826116c6565b67ffffffffffffffff811115611c4c57611c4b611440565b5b611c568254611a5a565b611c61828285611ba1565b5f60209050601f831160018114611c92575f8415611c80578287015190505b611c8a8582611c0f565b865550611cf1565b601f198416611ca086611a8a565b5f5b82811015611cc757848901518255600182019150602085019450602081019050611ca2565b86831015611ce45784890151611ce0601f891682611bf3565b8355505b6001600288020188555050505b505050505050565b5f819050815f5260205f209050919050565b601f821115611d4c57611d1d81611cf9565b611d2684611a9c565b81016020851015611d35578190505b611d49611d4185611a9c565b830182611b7f565b50505b505050565b611d5a82611726565b67ffffffffffffffff811115611d7357611d72611440565b5b611d7d8254611a5a565b611d88828285611d0b565b5f60209050601f831160018114611db9575f8415611da7578287015190505b611db18582611c0f565b865550611e18565b601f198416611dc786611cf9565b5f5b82811015611dee57848901518255600182019150602085019450602081019050611dc9565b86831015611e0b5784890151611e07601f891682611bf3565b8355505b6001600288020188555050505b505050505050565b5f608082019050611e335f830187611296565b8181036020830152611e4581866116ee565b90508181036040830152611e598185611740565b9050611e686060830184611296565b95945050505050565b7f54696d656c6f636b3a20756e6b6e6f776e206f7065726174696f6e00000000005f82015250565b5f611ea5601b836116d0565b9150611eb082611e71565b602082019050919050565b5f6020820190508181035f830152611ed281611e99565b9050919050565b7f54696d656c6f636b3a206f7065726174696f6e20616c726561647920657865635f8201527f7574656400000000000000000000000000000000000000000000000000000000602082015250565b5f611f336024836116d0565b9150611f3e82611ed9565b604082019050919050565b5f6020820190508181035f830152611f6081611f27565b9050919050565b7f54696d656c6f636b3a206f7065726174696f6e20616c72656164792063616e635f8201527f656c656400000000000000000000000000000000000000000000000000000000602082015250565b5f611fc16024836116d0565b9150611fcc82611f67565b604082019050919050565b5f6020820190508181035f830152611fee81611fb5565b9050919050565b7f54696d656c6f636b3a207265656e7472616e742063616c6c00000000000000005f82015250565b5f6120296018836116d0565b915061203482611ff5565b602082019050919050565b5f6020820190508181035f8301526120568161201d565b9050919050565b7f54696d656c6f636b3a206f7065726174696f6e2063616e63656c6564000000005f82015250565b5f612091601c836116d0565b915061209c8261205d565b602082019050919050565b5f6020820190508181035f8301526120be81612085565b9050919050565b7f54696d656c6f636b3a20746f6f206561726c79000000000000000000000000005f82015250565b5f6120f96013836116d0565b9150612104826120c5565b602082019050919050565b5f6020820190508181035f830152612126816120ed565b9050919050565b7f54696d656c6f636b3a206f7065726174696f6e206578706972656400000000005f82015250565b5f612161601b836116d0565b915061216c8261212d565b602082019050919050565b5f6020820190508181035f83015261218e81612155565b9050919050565b5f81905092915050565b5f819050815f5260205f209050919050565b5f81546121bd81611a5a565b6121c78186612195565b9450600182165f81146121e157600181146121f657612228565b60ff1983168652811515820286019350612228565b6121ff8561219f565b5f5b8381101561222057815481890152600182019150602081019050612201565b838801955050505b50505092915050565b5f61223c82846121b1565b915081905092915050565b5f7fffffffff0000000000000000000000000000000000000000000000000000000082169050919050565b5f819050919050565b61228c61228782612247565b612272565b82525050565b5f815461229e81611a5a565b6122a88186612195565b9450600182165f81146122c257600181146122d757612309565b60ff1983168652811515820286019350612309565b6122e085611cf9565b5f5b83811015612301578154818901526001820191506020810190506122e2565b838801955050505b50505092915050565b5f61231d828561227b565b60048201915061232d8284612292565b91508190509392505050565b5f61234382611726565b61234d8185612195565b935061235d8185602086016116e0565b80840191505092915050565b5f6123748284612339565b915081905092915050565b5f6020820190508181035f83015261239781846116ee565b905092915050565b5f81546123ab81611a5a565b6123b581866116d0565b9450600182165f81146123cf57600181146123e557612417565b60ff198316865281151560200286019350612417565b6123ee85611a8a565b5f5b8381101561240f578154818901526001820191506020810190506123f0565b808801955050505b50505092915050565b5f815461242c81611a5a565b6124368186611730565b9450600182165f8114612450576001811461246657612498565b60ff198316865281151560200286019350612498565b61246f85611cf9565b5f5b8381101561249057815481890152600182019150602081019050612471565b808801955050505b50505092915050565b5f6060820190506124b45f830186611296565b81810360208301526124c6818561239f565b905081810360408301526124da8184612420565b9050949350505050565b5f6080820190506124f75f8301876113ac565b6125046020830186611296565b818103604083015261251681856116ee565b9050818103606083015261252a8184611740565b905095945050505050565b7f54696d656c6f636b3a20696e76616c6964206772616365506572696f640000005f82015250565b5f612569601d836116d0565b915061257482612535565b602082019050919050565b5f6020820190508181035f8301526125968161255d565b9050919050565b7f54696d656c6f636b3a20696e76616c6964206e6577206f776e657200000000005f82015250565b5f6125d1601b836116d0565b91506125dc8261259d565b602082019050919050565b5f6020820190508181035f8301526125fe816125c5565b9050919050565b5f612617612612846114b8565b61149e565b9050828152602081018484840111156126335761263261142c565b5b61263e8482856116e0565b509392505050565b5f82601f83011261265a57612659611428565b5b815161266a848260208601612605565b91505092915050565b5f60208284031215612688576126876112c7565b5b5f82015167ffffffffffffffff8111156126a5576126a46112cb565b5b6126b184828501612646565b9150509291505056fe54696d656c6f636b3a2063616c6c20726576657274656420776974686f7574206d657373616765a26469706673582212201ee660b9da383021686b60d46d9b650445ef733cca5ee4f2e4db60054fd10d3c64736f6c634300081c0033",
			"opcodes": "PUSH1 0x80 PUSH1 0x40 MSTORE PUSH1 0x1 PUSH1 0x4 SSTORE CALLVALUE DUP1 ISZERO PUSH2 0x14 JUMPI PUSH0 PUSH0 REVERT JUMPDEST POP PUSH1 0x40 MLOAD PUSH2 0x2A46 CODESIZE SUB DUP1 PUSH2 0x2A46 DUP4 CODECOPY DUP2 DUP2 ADD PUSH1 0x40 MSTORE DUP2 ADD SWAP1 PUSH2 0x36 SWAP2 SWAP1 PUSH2 0x1CC JUMP JUMPDEST PUSH0 PUSH20 0xFFFFFFFFFFFFFFFFFFFFFFFFFFFFFFFFFFFFFFFF AND DUP4 PUSH20 0xFFFFFFFFFFFFFFFFFFFFFFFFFFFFFFFFFFFFFFFF AND SUB PUSH2 0xA4 JUMPI PUSH1 0x40 MLOAD PUSH32 0x8C379A000000000000000000000000000000000000000000000000000000000 DUP2 MSTORE PUSH1 0x4 ADD PUSH2 0x9B SWAP1 PUSH2 0x276 JUMP JUMPDEST PUSH1 0x40 MLOAD DUP1 SWAP2 SUB SWAP1 REVERT JUMPDEST PUSH0 DUP2 GT PUSH2 0xE6 JUMPI PUSH1 0x40 MLOAD PUSH32 0x8C379A000000000000000000000000000000000000000000000000000000000 DUP2 MSTORE PUSH1 0x4 ADD PUSH2 0xDD SWAP1 PUSH2 0x304 JUMP JUMPDEST PUSH1 0x40 MLOAD DUP1 SWAP2 SUB SWAP1 REVERT JUMPDEST DUP3 PUSH1 0x2 PUSH0 PUSH2 0x100 EXP DUP2 SLOAD DUP2 PUSH20 0xFFFFFFFFFFFFFFFFFFFFFFFFFFFFFFFFFFFFFFFF MUL NOT AND SWAP1 DUP4 PUSH20 0xFFFFFFFFFFFFFFFFFFFFFFFFFFFFFFFFFFFFFFFF AND MUL OR SWAP1 SSTORE POP DUP2 PUSH1 0x1 DUP2 SWAP1 SSTORE POP DUP1 PUSH0 DUP2 SWAP1 SSTORE POP POP POP POP PUSH2 0x322 JUMP JUMPDEST PUSH0 PUSH0 REVERT JUMPDEST PUSH0 PUSH20 0xFFFFFFFFFFFFFFFFFFFFFFFFFFFFFFFFFFFFFFFF DUP3 AND SWAP1 POP SWAP2 SWAP1 POP JUMP JUMPDEST PUSH0 PUSH2 0x168 DUP3 PUSH2 0x13F JUMP JUMPDEST SWAP1 POP SWAP2 SWAP1 POP JUMP JUMPDEST PUSH2 0x178 DUP2 PUSH2 0x15E JUMP JUMPDEST DUP2 EQ PUSH2 0x182 JUMPI PUSH0 PUSH0 REVERT JUMPDEST POP JUMP JUMPDEST PUSH0 DUP2 MLOAD SWAP1 POP PUSH2 0x193 DUP2 PUSH2 0x16F JUMP JUMPDEST SWAP3 SWAP2 POP POP JUMP JUMPDEST PUSH0 DUP2 SWAP1 POP SWAP2 SWAP1 POP JUMP JUMPDEST PUSH2 0x1AB DUP2 PUSH2 0x199 JUMP JUMPDEST DUP2 EQ PUSH2 0x1B5 JUMPI PUSH0 PUSH0 REVERT JUMPDEST POP JUMP JUMPDEST PUSH0 DUP2 MLOAD SWAP1 POP PUSH2 0x1C6 DUP2 PUSH2 0x1A2 JUMP JUMPDEST SWAP3 SWAP2 POP POP JUMP JUMPDEST PUSH0 PUSH0 PUSH0 PUSH1 0x60 DUP5 DUP7 SUB SLT ISZERO PUSH2 0x1E3 JUMPI PUSH2 0x1E2 PUSH2 0x13B JUMP JUMPDEST JUMPDEST PUSH0 PUSH2 0x1F0 DUP7 DUP3 DUP8 ADD PUSH2 0x185 JUMP JUMPDEST SWAP4 POP POP PUSH1 0x20 PUSH2 0x201 DUP7 DUP3 DUP8 ADD PUSH2 0x1B8 JUMP JUMPDEST SWAP3 POP POP PUSH1 0x40 PUSH2 0x212 DUP7 DUP3 DUP8 ADD PUSH2 0x1B8 JUMP JUMPDEST SWAP2 POP POP SWAP3 POP SWAP3 POP SWAP3 JUMP JUMPDEST PUSH0 DUP3 DUP3 MSTORE PUSH1 0x20 DUP3 ADD SWAP1 POP SWAP3 SWAP2 POP POP JUMP JUMPDEST PUSH32 0x54696D656C6F636B3A20696E76616C6964206F776E6572000000000000000000 PUSH0 DUP3 ADD MSTORE POP JUMP JUMPDEST PUSH0 PUSH2 0x260 PUSH1 0x17 DUP4 PUSH2 0x21C JUMP JUMPDEST SWAP2 POP PUSH2 0x26B DUP3 PUSH2 0x22C JUMP JUMPDEST PUSH1 0x20 DUP3 ADD SWAP1 POP SWAP2 SWAP1 POP JUMP JUMPDEST PUSH0 PUSH1 0x20 DUP3 ADD SWAP1 POP DUP2 DUP2 SUB PUSH0 DUP4 ADD MSTORE PUSH2 0x28D DUP2 PUSH2 0x254 JUMP JUMPDEST SWAP1 POP SWAP2 SWAP1 POP JUMP JUMPDEST PUSH32 0x54696D656C6F636B3A206772616365506572696F64206D757374206265203E20 PUSH0 DUP3 ADD MSTORE PUSH32 0x3000000000000000000000000000000000000000000000000000000000000000 PUSH1 0x20 DUP3 ADD MSTORE POP JUMP JUMPDEST PUSH0 PUSH2 0x2EE PUSH1 0x21 DUP4 PUSH2 0x21C JUMP JUMPDEST SWAP2 POP PUSH2 0x2F9 DUP3 PUSH2 0x294 JUMP JUMPDEST PUSH1 0x40 DUP3 ADD SWAP1 POP SWAP2 SWAP1 POP JUMP JUMPDEST PUSH0 PUSH1 0x20 DUP3 ADD SWAP1 POP DUP2 DUP2 SUB PUSH0 DUP4 ADD MSTORE PUSH2 0x31B DUP2 PUSH2 0x2E2 JUMP JUMPDEST SWAP1 POP SWAP2 SWAP1 POP JUMP JUMPDEST PUSH2 0x2717 DUP1 PUSH2 0x32F PUSH0 CODECOPY PUSH0 RETURN INVALID PUSH1 0x80 PUSH1 0x40 MSTORE PUSH1 0x4 CALLDATASIZE LT PUSH2 0xC5 JUMPI PUSH0 CALLDATALOAD PUSH1 0xE0 SHR DUP1 PUSH4 0xC74F349B GT PUSH2 0x7E JUMPI DUP1 PUSH4 0xE751F271 GT PUSH2 0x58 JUMPI DUP1 PUSH4 0xE751F271 EQ PUSH2 0x296 JUMPI DUP1 PUSH4 0xF087DD24 EQ PUSH2 0x2B2 JUMPI DUP1 PUSH4 0xF2F65960 EQ PUSH2 0x2EE JUMPI DUP1 PUSH4 0xF2FDE38B EQ PUSH2 0x316 JUMPI PUSH2 0xCC JUMP JUMPDEST DUP1 PUSH4 0xC74F349B EQ PUSH2 0x1F0 JUMPI DUP1 PUSH4 0xE177246E EQ PUSH2 0x232 JUMPI DUP1 PUSH4 0xE31FA19A EQ PUSH2 0x25A JUMPI PUSH2 0xCC JUMP JUMPDEST DUP1 PUSH4 0x6A42B8F8 EQ PUSH2 0xD0 JUMPI DUP1 PUSH4 0x727C6C5A EQ PUSH2 0xFA JUMPI DUP1 PUSH4 0x8DA5CB5B EQ PUSH2 0x138 JUMPI DUP1 PUSH4 0xA06DB7DC EQ PUSH2 0x162 JUMPI DUP1 PUSH4 0xBAA1F377 EQ PUSH2 0x18C JUMPI DUP1 PUSH4 0xC4D252F5 EQ PUSH2 0x1C8 JUMPI PUSH2 0xCC JUMP JUMPDEST CALLDATASIZE PUSH2 0xCC JUMPI STOP JUMPDEST PUSH0 PUSH0 REVERT JUMPDEST CALLVALUE DUP1 ISZERO PUSH2 0xDB JUMPI PUSH0 PUSH0 REVERT JUMPDEST POP PUSH2 0xE4 PUSH2 0x33E JUMP JUMPDEST PUSH1 0x40 MLOAD PUSH2 0xF1 SWAP2 SWAP1 PUSH2 0x12A5 JUMP JUMPDEST PUSH1 0x40 MLOAD DUP1 SWAP2 SUB SWAP1 RETURN JUMPDEST CALLVALUE DUP1 ISZERO PUSH2 0x105 JUMPI PUSH0 PUSH0 REVERT JUMPDEST POP PUSH2 0x120 PUSH1 0x4 DUP1 CALLDATASIZE SUB DUP2 ADD SWAP1 PUSH2 0x11B SWAP2 SWAP1 PUSH2 0x1302 JUMP JUMPDEST PUSH2 0x344 JUMP JUMPDEST PUSH1 0x40 MLOAD PUSH2 0x12F SWAP4 SWAP3 SWAP2 SWAP1 PUSH2 0x1347 JUMP JUMPDEST PUSH1 0x40 MLOAD DUP1 SWAP2 SUB SWAP1 RETURN JUMPDEST CALLVALUE DUP1 ISZERO PUSH2 0x143 JUMPI PUSH0 PUSH0 REVERT JUMPDEST POP PUSH2 0x14C PUSH2 0x3F3 JUMP JUMPDEST PUSH1 0x40 MLOAD PUSH2 0x159 SWAP2 SWAP1 PUSH2 0x13BB JUMP JUMPDEST PUSH1 0x40 MLOAD DUP1 SWAP2 SUB SWAP1 RETURN JUMPDEST CALLVALUE DUP1 ISZERO PUSH2 0x16D JUMPI PUSH0 PUSH0 REVERT JUMPDEST POP PUSH2 0x176 PUSH2 0x418 JUMP JUMPDEST PUSH1 0x40 MLOAD PUSH2 0x183 SWAP2 SWAP1 PUSH2 0x12A5 JUMP JUMPDEST PUSH1 0x40 MLOAD DUP1 SWAP2 SUB SWAP1 RETURN JUMPDEST CALLVALUE DUP1 ISZERO PUSH2 0x197 JUMPI PUSH0 PUSH0 REVERT JUMPDEST POP PUSH2 0x1B2 PUSH1 0x4 DUP1 CALLDATASIZE SUB DUP2 ADD SWAP1 PUSH2 0x1AD SWAP2 SWAP1 PUSH2 0x1602 JUMP JUMPDEST PUSH2 0x41D JUMP JUMPDEST PUSH1 0x40 MLOAD PUSH2 0x1BF SWAP2 SWAP1 PUSH2 0x16AD JUMP JUMPDEST PUSH1 0x40 MLOAD DUP1 SWAP2 SUB SWAP1 RETURN JUMPDEST CALLVALUE DUP1 ISZERO PUSH2 0x1D3 JUMPI PUSH0 PUSH0 REVERT JUMPDEST POP PUSH2 0x1EE PUSH1 0x4 DUP1 CALLDATASIZE SUB DUP2 ADD SWAP1 PUSH2 0x1E9 SWAP2 SWAP1 PUSH2 0x1302 JUMP JUMPDEST PUSH2 0x6EB JUMP JUMPDEST STOP JUMPDEST CALLVALUE DUP1 ISZERO PUSH2 0x1FB JUMPI PUSH0 PUSH0 REVERT JUMPDEST POP PUSH2 0x216 PUSH1 0x4 DUP1 CALLDATASIZE SUB DUP2 ADD SWAP1 PUSH2 0x211 SWAP2 SWAP1 PUSH2 0x1302 JUMP JUMPDEST PUSH2 0x90F JUMP JUMPDEST PUSH1 0x40 MLOAD PUSH2 0x229 SWAP8 SWAP7 SWAP6 SWAP5 SWAP4 SWAP3 SWAP2 SWAP1 PUSH2 0x1778 JUMP JUMPDEST PUSH1 0x40 MLOAD DUP1 SWAP2 SUB SWAP1 RETURN JUMPDEST CALLVALUE DUP1 ISZERO PUSH2 0x23D JUMPI PUSH0 PUSH0 REVERT JUMPDEST POP PUSH2 0x258 PUSH1 0x4 DUP1 CALLDATASIZE SUB DUP2 ADD SWAP1 PUSH2 0x253 SWAP2 SWAP1 PUSH2 0x17F3 JUMP JUMPDEST PUSH2 0xA91 JUMP JUMPDEST STOP JUMPDEST CALLVALUE DUP1 ISZERO PUSH2 0x265 JUMPI PUSH0 PUSH0 REVERT JUMPDEST POP PUSH2 0x280 PUSH1 0x4 DUP1 CALLDATASIZE SUB DUP2 ADD SWAP1 PUSH2 0x27B SWAP2 SWAP1 PUSH2 0x1302 JUMP JUMPDEST PUSH2 0xB2A JUMP JUMPDEST PUSH1 0x40 MLOAD PUSH2 0x28D SWAP2 SWAP1 PUSH2 0x12A5 JUMP JUMPDEST PUSH1 0x40 MLOAD DUP1 SWAP2 SUB SWAP1 RETURN JUMPDEST PUSH2 0x2B0 PUSH1 0x4 DUP1 CALLDATASIZE SUB DUP2 ADD SWAP1 PUSH2 0x2AB SWAP2 SWAP1 PUSH2 0x1302 JUMP JUMPDEST PUSH2 0xB4C JUMP JUMPDEST STOP JUMPDEST CALLVALUE DUP1 ISZERO PUSH2 0x2BD JUMPI PUSH0 PUSH0 REVERT JUMPDEST POP PUSH2 0x2D8 PUSH1 0x4 DUP1 CALLDATASIZE SUB DUP2 ADD SWAP1 PUSH2 0x2D3 SWAP2 SWAP1 PUSH2 0x1602 JUMP JUMPDEST PUSH2 0xFED JUMP JUMPDEST PUSH1 0x40 MLOAD PUSH2 0x2E5 SWAP2 SWAP1 PUSH2 0x16AD JUMP JUMPDEST PUSH1 0x40 MLOAD DUP1 SWAP2 SUB SWAP1 RETURN JUMPDEST CALLVALUE DUP1 ISZERO PUSH2 0x2F9 JUMPI PUSH0 PUSH0 REVERT JUMPDEST POP PUSH2 0x314 PUSH1 0x4 DUP1 CALLDATASIZE SUB DUP2 ADD SWAP1 PUSH2 0x30F SWAP2 SWAP1 PUSH2 0x17F3 JUMP JUMPDEST PUSH2 0x1025 JUMP JUMPDEST STOP JUMPDEST CALLVALUE DUP1 ISZERO PUSH2 0x321 JUMPI PUSH0 PUSH0 REVERT JUMPDEST POP PUSH2 0x33C PUSH1 0x4 DUP1 CALLDATASIZE SUB DUP2 ADD SWAP1 PUSH2 0x337 SWAP2 SWAP1 PUSH2 0x181E JUMP JUMPDEST PUSH2 0x10FF JUMP JUMPDEST STOP JUMPDEST PUSH1 0x1 SLOAD DUP2 JUMP JUMPDEST PUSH0 PUSH0 PUSH0 PUSH0 PUSH1 0x3 PUSH0 DUP7 DUP2 MSTORE PUSH1 0x20 ADD SWAP1 DUP2 MSTORE PUSH1 0x20 ADD PUSH0 KECCAK256 SWAP1 POP PUSH0 PUSH20 0xFFFFFFFFFFFFFFFFFFFFFFFFFFFFFFFFFFFFFFFF AND DUP2 PUSH0 ADD PUSH0 SWAP1 SLOAD SWAP1 PUSH2 0x100 EXP SWAP1 DIV PUSH20 0xFFFFFFFFFFFFFFFFFFFFFFFFFFFFFFFFFFFFFFFF AND PUSH20 0xFFFFFFFFFFFFFFFFFFFFFFFFFFFFFFFFFFFFFFFF AND SUB PUSH2 0x3BF JUMPI PUSH0 PUSH0 PUSH0 SWAP4 POP SWAP4 POP SWAP4 POP POP PUSH2 0x3EC JUMP JUMPDEST PUSH1 0x1 DUP2 PUSH1 0x5 ADD PUSH1 0x1 SWAP1 SLOAD SWAP1 PUSH2 0x100 EXP SWAP1 DIV PUSH1 0xFF AND DUP3 PUSH1 0x5 ADD PUSH0 SWAP1 SLOAD SWAP1 PUSH2 0x100 EXP SWAP1 DIV PUSH1 0xFF AND SWAP4 POP SWAP4 POP SWAP4 POP POP JUMPDEST SWAP2 SWAP4 SWAP1 SWAP3 POP JUMP JUMPDEST PUSH1 0x2 PUSH0 SWAP1 SLOAD SWAP1 PUSH2 0x100 EXP SWAP1 DIV PUSH20 0xFFFFFFFFFFFFFFFFFFFFFFFFFFFFFFFFFFFFFFFF AND DUP2 JUMP JUMPDEST PUSH0 SLOAD DUP2 JUMP JUMPDEST PUSH0 PUSH1 0x2 PUSH0 SWAP1 SLOAD SWAP1 PUSH2 0x100 EXP SWAP1 DIV PUSH20 0xFFFFFFFFFFFFFFFFFFFFFFFFFFFFFFFFFFFFFFFF AND PUSH20 0xFFFFFFFFFFFFFFFFFFFFFFFFFFFFFFFFFFFFFFFF AND CALLER PUSH20 0xFFFFFFFFFFFFFFFFFFFFFFFFFFFFFFFFFFFFFFFF AND EQ PUSH2 0x4AD JUMPI PUSH1 0x40 MLOAD PUSH32 0x8C379A000000000000000000000000000000000000000000000000000000000 DUP2 MSTORE PUSH1 0x4 ADD PUSH2 0x4A4 SWAP1 PUSH2 0x18B9 JUMP JUMPDEST PUSH1 0x40 MLOAD DUP1 SWAP2 SUB SWAP1 REVERT JUMPDEST PUSH0 PUSH20 0xFFFFFFFFFFFFFFFFFFFFFFFFFFFFFFFFFFFFFFFF AND DUP6 PUSH20 0xFFFFFFFFFFFFFFFFFFFFFFFFFFFFFFFFFFFFFFFF AND SUB PUSH2 0x51B JUMPI PUSH1 0x40 MLOAD PUSH32 0x8C379A000000000000000000000000000000000000000000000000000000000 DUP2 MSTORE PUSH1 0x4 ADD PUSH2 0x512 SWAP1 PUSH2 0x1921 JUMP JUMPDEST PUSH1 0x40 MLOAD DUP1 SWAP2 SUB SWAP1 REVERT JUMPDEST PUSH2 0x527 DUP6 DUP6 DUP6 DUP6 PUSH2 0xFED JUMP JUMPDEST SWAP1 POP PUSH0 PUSH1 0x3 PUSH0 DUP4 DUP2 MSTORE PUSH1 0x20 ADD SWAP1 DUP2 MSTORE PUSH1 0x20 ADD PUSH0 KECCAK256 SWAP1 POP PUSH0 PUSH20 0xFFFFFFFFFFFFFFFFFFFFFFFFFFFFFFFFFFFFFFFF AND DUP2 PUSH0 ADD PUSH0 SWAP1 SLOAD SWAP1 PUSH2 0x100 EXP SWAP1 DIV PUSH20 0xFFFFFFFFFFFFFFFFFFFFFFFFFFFFFFFFFFFFFFFF AND PUSH20 0xFFFFFFFFFFFFFFFFFFFFFFFFFFFFFFFFFFFFFFFF AND EQ PUSH2 0x5CD JUMPI PUSH1 0x40 MLOAD PUSH32 0x8C379A000000000000000000000000000000000000000000000000000000000 DUP2 MSTORE PUSH1 0x4 ADD PUSH2 0x5C4 SWAP1 PUSH2 0x19AF JUMP JUMPDEST PUSH1 0x40 MLOAD DUP1 SWAP2 SUB SWAP1 REVERT JUMPDEST PUSH0 PUSH1 0x1 SLOAD TIMESTAMP PUSH2 0x5DC SWAP2 SWAP1 PUSH2 0x19FA JUMP JUMPDEST SWAP1 POP DUP7 DUP3 PUSH0 ADD PUSH0 PUSH2 0x100 EXP DUP2 SLOAD DUP2 PUSH20 0xFFFFFFFFFFFFFFFFFFFFFFFFFFFFFFFFFFFFFFFF MUL NOT AND SWAP1 DUP4 PUSH20 0xFFFFFFFFFFFFFFFFFFFFFFFFFFFFFFFFFFFFFFFF AND MUL OR SWAP1 SSTORE POP DUP6 DUP3 PUSH1 0x1 ADD DUP2 SWAP1 SSTORE POP DUP5 DUP3 PUSH1 0x2 ADD SWAP1 DUP2 PUSH2 0x639 SWAP2 SWAP1 PUSH2 0x1C2A JUMP JUMPDEST POP DUP4 DUP3 PUSH1 0x3 ADD SWAP1 DUP2 PUSH2 0x64B SWAP2 SWAP1 PUSH2 0x1D51 JUMP JUMPDEST POP DUP1 DUP3 PUSH1 0x4 ADD DUP2 SWAP1 SSTORE POP PUSH0 DUP3 PUSH1 0x5 ADD PUSH0 PUSH2 0x100 EXP DUP2 SLOAD DUP2 PUSH1 0xFF MUL NOT AND SWAP1 DUP4 ISZERO ISZERO MUL OR SWAP1 SSTORE POP PUSH0 DUP3 PUSH1 0x5 ADD PUSH1 0x1 PUSH2 0x100 EXP DUP2 SLOAD DUP2 PUSH1 0xFF MUL NOT AND SWAP1 DUP4 ISZERO ISZERO MUL OR SWAP1 SSTORE POP DUP7 PUSH20 0xFFFFFFFFFFFFFFFFFFFFFFFFFFFFFFFFFFFFFFFF AND DUP4 PUSH32 0x5EAB136A1E0AF9E18165F705D4A9F7A210395AA3D4DE14A416C5E5ED744F6655 DUP9 DUP9 DUP9 DUP7 PUSH1 0x40 MLOAD PUSH2 0x6D9 SWAP5 SWAP4 SWAP3 SWAP2 SWAP1 PUSH2 0x1E20 JUMP JUMPDEST PUSH1 0x40 MLOAD DUP1 SWAP2 SUB SWAP1 LOG3 POP POP SWAP5 SWAP4 POP POP POP POP JUMP JUMPDEST PUSH1 0x2 PUSH0 SWAP1 SLOAD SWAP1 PUSH2 0x100 EXP SWAP1 DIV PUSH20 0xFFFFFFFFFFFFFFFFFFFFFFFFFFFFFFFFFFFFFFFF AND PUSH20 0xFFFFFFFFFFFFFFFFFFFFFFFFFFFFFFFFFFFFFFFF AND CALLER PUSH20 0xFFFFFFFFFFFFFFFFFFFFFFFFFFFFFFFFFFFFFFFF AND EQ PUSH2 0x77A JUMPI PUSH1 0x40 MLOAD PUSH32 0x8C379A000000000000000000000000000000000000000000000000000000000 DUP2 MSTORE PUSH1 0x4 ADD PUSH2 0x771 SWAP1 PUSH2 0x18B9 JUMP JUMPDEST PUSH1 0x40 MLOAD DUP1 SWAP2 SUB SWAP1 REVERT JUMPDEST PUSH0 PUSH1 0x3 PUSH0 DUP4 DUP2 MSTORE PUSH1 0x20 ADD SWAP1 DUP2 MSTORE PUSH1 0x20 ADD PUSH0 KECCAK256 SWAP1 POP PUSH0 PUSH20 0xFFFFFFFFFFFFFFFFFFFFFFFFFFFFFFFFFFFFFFFF AND DUP2 PUSH0 ADD PUSH0 SWAP1 SLOAD SWAP1 PUSH2 0x100 EXP SWAP1 DIV PUSH20 0xFFFFFFFFFFFFFFFFFFFFFFFFFFFFFFFFFFFFFFFF AND PUSH20 0xFFFFFFFFFFFFFFFFFFFFFFFFFFFFFFFFFFFFFFFF AND SUB PUSH2 0x81E JUMPI PUSH1 0x40 MLOAD PUSH32 0x8C379A000000000000000000000000000000000000000000000000000000000 DUP2 MSTORE PUSH1 0x4 ADD PUSH2 0x815 SWAP1 PUSH2 0x1EBB JUMP JUMPDEST PUSH1 0x40 MLOAD DUP1 SWAP2 SUB SWAP1 REVERT JUMPDEST DUP1 PUSH1 0x5 ADD PUSH0 SWAP1 SLOAD SWAP1 PUSH2 0x100 EXP SWAP1 DIV PUSH1 0xFF AND ISZERO PUSH2 0x86F JUMPI PUSH1 0x40 MLOAD PUSH32 0x8C379A000000000000000000000000000000000000000000000000000000000 DUP2 MSTORE PUSH1 0x4 ADD PUSH2 0x866 SWAP1 PUSH2 0x1F49 JUMP JUMPDEST PUSH1 0x40 MLOAD DUP1 SWAP2 SUB SWAP1 REVERT JUMPDEST DUP1 PUSH1 0x5 ADD PUSH1 0x1 SWAP1 SLOAD SWAP1 PUSH2 0x100 EXP SWAP1 DIV PUSH1 0xFF AND ISZERO PUSH2 0x8C1 JUMPI PUSH1 0x40 MLOAD PUSH32 0x8C379A000000000000000000000000000000000000000000000000000000000 DUP2 MSTORE PUSH1 0x4 ADD PUSH2 0x8B8 SWAP1 PUSH2 0x1FD7 JUMP JUMPDEST PUSH1 0x40 MLOAD DUP1 SWAP2 SUB SWAP1 REVERT JUMPDEST PUSH1 0x1 DUP2 PUSH1 0x5 ADD PUSH1 0x1 PUSH2 0x100 EXP DUP2 SLOAD DUP2 PUSH1 0xFF MUL NOT AND SWAP1 DUP4 ISZERO ISZERO MUL OR SWAP1 SSTORE POP DUP2 PUSH32 0x7A168F30D6A7A3B7AA2E211C067C04BDE31169A0F3171A98084508204BC56094 PUSH1 0x40 MLOAD PUSH1 0x40 MLOAD DUP1 SWAP2 SUB SWAP1 LOG2 POP POP JUMP JUMPDEST PUSH1 0x3 PUSH1 0x20 MSTORE DUP1 PUSH0 MSTORE PUSH1 0x40 PUSH0 KECCAK256 PUSH0 SWAP2 POP SWAP1 POP DUP1 PUSH0 ADD PUSH0 SWAP1 SLOAD SWAP1 PUSH2 0x100 EXP SWAP1 DIV PUSH20 0xFFFFFFFFFFFFFFFFFFFFFFFFFFFFFFFFFFFFFFFF AND SWAP1 DUP1 PUSH1 0x1 ADD SLOAD SWAP1 DUP1 PUSH1 0x2 ADD DUP1 SLOAD PUSH2 0x959 SWAP1 PUSH2 0x1A5A JUMP JUMPDEST DUP1 PUSH1 0x1F ADD PUSH1 0x20 DUP1 SWAP2 DIV MUL PUSH1 0x20 ADD PUSH1 0x40 MLOAD SWAP1 DUP2 ADD PUSH1 0x40 MSTORE DUP1 SWAP3 SWAP2 SWAP1 DUP2 DUP2 MSTORE PUSH1 0x20 ADD DUP3 DUP1 SLOAD PUSH2 0x985 SWAP1 PUSH2 0x1A5A JUMP JUMPDEST DUP1 ISZERO PUSH2 0x9D0 JUMPI DUP1 PUSH1 0x1F LT PUSH2 0x9A7 JUMPI PUSH2 0x100 DUP1 DUP4 SLOAD DIV MUL DUP4 MSTORE SWAP2 PUSH1 0x20 ADD SWAP2 PUSH2 0x9D0 JUMP JUMPDEST DUP3 ADD SWAP2 SWAP1 PUSH0 MSTORE PUSH1 0x20 PUSH0 KECCAK256 SWAP1 JUMPDEST DUP2 SLOAD DUP2 MSTORE SWAP1 PUSH1 0x1 ADD SWAP1 PUSH1 0x20 ADD DUP1 DUP4 GT PUSH2 0x9B3 JUMPI DUP3 SWAP1 SUB PUSH1 0x1F AND DUP3 ADD SWAP2 JUMPDEST POP POP POP POP POP SWAP1 DUP1 PUSH1 0x3 ADD DUP1 SLOAD PUSH2 0x9E5 SWAP1 PUSH2 0x1A5A JUMP JUMPDEST DUP1 PUSH1 0x1F ADD PUSH1 0x20 DUP1 SWAP2 DIV MUL PUSH1 0x20 ADD PUSH1 0x40 MLOAD SWAP1 DUP2 ADD PUSH1 0x40 MSTORE DUP1 SWAP3 SWAP2 SWAP1 DUP2 DUP2 MSTORE PUSH1 0x20 ADD DUP3 DUP1 SLOAD PUSH2 0xA11 SWAP1 PUSH2 0x1A5A JUMP JUMPDEST DUP1 ISZERO PUSH2 0xA5C JUMPI DUP1 PUSH1 0x1F LT PUSH2 0xA33 JUMPI PUSH2 0x100 DUP1 DUP4 SLOAD DIV MUL DUP4 MSTORE SWAP2 PUSH1 0x20 ADD SWAP2 PUSH2 0xA5C JUMP JUMPDEST DUP3 ADD SWAP2 SWAP1 PUSH0 MSTORE PUSH1 0x20 PUSH0 KECCAK256 SWAP1 JUMPDEST DUP2 SLOAD DUP2 MSTORE SWAP1 PUSH1 0x1 ADD SWAP1 PUSH1 0x20 ADD DUP1 DUP4 GT PUSH2 0xA3F JUMPI DUP3 SWAP1 SUB PUSH1 0x1F AND DUP3 ADD SWAP2 JUMPDEST POP POP POP POP POP SWAP1 DUP1 PUSH1 0x4 ADD SLOAD SWAP1 DUP1 PUSH1 0x5 ADD PUSH0 SWAP1 SLOAD SWAP1 PUSH2 0x100 EXP SWAP1 DIV PUSH1 0xFF AND SWAP1 DUP1 PUSH1 0x5 ADD PUSH1 0x1 SWAP1 SLOAD SWAP1 PUSH2 0x100 EXP SWAP1 DIV PUSH1 0xFF AND SWAP1 POP DUP8 JUMP JUMPDEST PUSH1 0x2 PUSH0 SWAP1 SLOAD SWAP1 PUSH2 0x100 EXP SWAP1 DIV PUSH20 0xFFFFFFFFFFFFFFFFFFFFFFFFFFFFFFFFFFFFFFFF AND PUSH20 0xFFFFFFFFFFFFFFFFFFFFFFFFFFFFFFFFFFFFFFFF AND CALLER PUSH20 0xFFFFFFFFFFFFFFFFFFFFFFFFFFFFFFFFFFFFFFFF AND EQ PUSH2 0xB20 JUMPI PUSH1 0x40 MLOAD PUSH32 0x8C379A000000000000000000000000000000000000000000000000000000000 DUP2 MSTORE PUSH1 0x4 ADD PUSH2 0xB17 SWAP1 PUSH2 0x18B9 JUMP JUMPDEST PUSH1 0x40 MLOAD DUP1 SWAP2 SUB SWAP1 REVERT JUMPDEST DUP1 PUSH1 0x1 DUP2 SWAP1 SSTORE POP POP JUMP JUMPDEST PUSH0 PUSH0 PUSH1 0x3 PUSH0 DUP5 DUP2 MSTORE PUSH1 0x20 ADD SWAP1 DUP2 MSTORE PUSH1 0x20 ADD PUSH0 KECCAK256 SWAP1 POP DUP1 PUSH1 0x4 ADD SLOAD SWAP2 POP POP SWAP2 SWAP1 POP JUMP JUMPDEST PUSH1 0x2 PUSH1 0x4 SLOAD SUB PUSH2 0xB91 JUMPI PUSH1 0x40 MLOAD PUSH32 0x8C379A000000000000000000000000000000000000000000000000000000000 DUP2 MSTORE PUSH1 0x4 ADD PUSH2 0xB88 SWAP1 PUSH2 0x203F JUMP JUMPDEST PUSH1 0x40 MLOAD DUP1 SWAP2 SUB SWAP1 REVERT JUMPDEST PUSH1 0x2 PUSH1 0x4 DUP2 SWAP1 SSTORE POP PUSH0 PUSH1 0x3 PUSH0 DUP4 DUP2 MSTORE PUSH1 0x20 ADD SWAP1 DUP2 MSTORE PUSH1 0x20 ADD PUSH0 KECCAK256 SWAP1 POP PUSH0 PUSH20 0xFFFFFFFFFFFFFFFFFFFFFFFFFFFFFFFFFFFFFFFF AND DUP2 PUSH0 ADD PUSH0 SWAP1 SLOAD SWAP1 PUSH2 0x100 EXP SWAP1 DIV PUSH20 0xFFFFFFFFFFFFFFFFFFFFFFFFFFFFFFFFFFFFFFFF AND PUSH20 0xFFFFFFFFFFFFFFFFFFFFFFFFFFFFFFFFFFFFFFFF AND SUB PUSH2 0xC3D JUMPI PUSH1 0x40 MLOAD PUSH32 0x8C379A000000000000000000000000000000000000000000000000000000000 DUP2 MSTORE PUSH1 0x4 ADD PUSH2 0xC34 SWAP1 PUSH2 0x1EBB JUMP JUMPDEST PUSH1 0x40 MLOAD DUP1 SWAP2 SUB SWAP1 REVERT JUMPDEST DUP1 PUSH1 0x5 ADD PUSH0 SWAP1 SLOAD SWAP1 PUSH2 0x100 EXP SWAP1 DIV PUSH1 0xFF AND ISZERO PUSH2 0xC8E JUMPI PUSH1 0x40 MLOAD PUSH32 0x8C379A000000000000000000000000000000000000000000000000000000000 DUP2 MSTORE PUSH1 0x4 ADD PUSH2 0xC85 SWAP1 PUSH2 0x1F49 JUMP JUMPDEST PUSH1 0x40 MLOAD DUP1 SWAP2 SUB SWAP1 REVERT JUMPDEST DUP1 PUSH1 0x5 ADD PUSH1 0x1 SWAP1 SLOAD SWAP1 PUSH2 0x100 EXP SWAP1 DIV PUSH1 0xFF AND ISZERO PUSH2 0xCE0 JUMPI PUSH1 0x40 MLOAD PUSH32 0x8C379A000000000000000000000000000000000000000000000000000000000 DUP2 MSTORE PUSH1 0x4 ADD PUSH2 0xCD7 SWAP1 PUSH2 0x20A7 JUMP JUMPDEST PUSH1 0x40 MLOAD DUP1 SWAP2 SUB SWAP1 REVERT JUMPDEST DUP1 PUSH1 0x4 ADD SLOAD TIMESTAMP LT ISZERO PUSH2 0xD27 JUMPI PUSH1 0x40 MLOAD PUSH32 0x8C379A000000000000000000000000000000000000000000000000000000000 DUP2 MSTORE PUSH1 0x4 ADD PUSH2 0xD1E SWAP1 PUSH2 0x210F JUMP JUMPDEST PUSH1 0x40 MLOAD DUP1 SWAP2 SUB SWAP1 REVERT JUMPDEST PUSH0 SLOAD DUP2 PUSH1 0x4 ADD SLOAD PUSH2 0xD38 SWAP2 SWAP1 PUSH2 0x19FA JUMP JUMPDEST TIMESTAMP GT ISZERO PUSH2 0xD7A JUMPI PUSH1 0x40 MLOAD PUSH32 0x8C379A000000000000000000000000000000000000000000000000000000000 DUP2 MSTORE PUSH1 0x4 ADD PUSH2 0xD71 SWAP1 PUSH2 0x2177 JUMP JUMPDEST PUSH1 0x40 MLOAD DUP1 SWAP2 SUB SWAP1 REVERT JUMPDEST PUSH1 0x1 DUP2 PUSH1 0x5 ADD PUSH0 PUSH2 0x100 EXP DUP2 SLOAD DUP2 PUSH1 0xFF MUL NOT AND SWAP1 DUP4 ISZERO ISZERO MUL OR SWAP1 SSTORE POP PUSH1 0x60 PUSH0 DUP3 PUSH1 0x2 ADD DUP1 SLOAD PUSH2 0xDA8 SWAP1 PUSH2 0x1A5A JUMP JUMPDEST SWAP1 POP SUB PUSH2 0xE41 JUMPI DUP2 PUSH1 0x3 ADD DUP1 SLOAD PUSH2 0xDBE SWAP1 PUSH2 0x1A5A JUMP JUMPDEST DUP1 PUSH1 0x1F ADD PUSH1 0x20 DUP1 SWAP2 DIV MUL PUSH1 0x20 ADD PUSH1 0x40 MLOAD SWAP1 DUP2 ADD PUSH1 0x40 MSTORE DUP1 SWAP3 SWAP2 SWAP1 DUP2 DUP2 MSTORE PUSH1 0x20 ADD DUP3 DUP1 SLOAD PUSH2 0xDEA SWAP1 PUSH2 0x1A5A JUMP JUMPDEST DUP1 ISZERO PUSH2 0xE35 JUMPI DUP1 PUSH1 0x1F LT PUSH2 0xE0C JUMPI PUSH2 0x100 DUP1 DUP4 SLOAD DIV MUL DUP4 MSTORE SWAP2 PUSH1 0x20 ADD SWAP2 PUSH2 0xE35 JUMP JUMPDEST DUP3 ADD SWAP2 SWAP1 PUSH0 MSTORE PUSH1 0x20 PUSH0 KECCAK256 SWAP1 JUMPDEST DUP2 SLOAD DUP2 MSTORE SWAP1 PUSH1 0x1 ADD SWAP1 PUSH1 0x20 ADD DUP1 DUP4 GT PUSH2 0xE18 JUMPI DUP3 SWAP1 SUB PUSH1 0x1F AND DUP3 ADD SWAP2 JUMPDEST POP POP POP POP POP SWAP1 POP PUSH2 0xE81 JUMP JUMPDEST DUP2 PUSH1 0x2 ADD PUSH1 0x40 MLOAD PUSH2 0xE52 SWAP2 SWAP1 PUSH2 0x2231 JUMP JUMPDEST PUSH1 0x40 MLOAD DUP1 SWAP2 SUB SWAP1 KECCAK256 DUP3 PUSH1 0x3 ADD PUSH1 0x40 MLOAD PUSH1 0x20 ADD PUSH2 0xE6F SWAP3 SWAP2 SWAP1 PUSH2 0x2312 JUMP JUMPDEST PUSH1 0x40 MLOAD PUSH1 0x20 DUP2 DUP4 SUB SUB DUP2 MSTORE SWAP1 PUSH1 0x40 MSTORE SWAP1 POP JUMPDEST PUSH0 PUSH0 DUP4 PUSH0 ADD PUSH0 SWAP1 SLOAD SWAP1 PUSH2 0x100 EXP SWAP1 DIV PUSH20 0xFFFFFFFFFFFFFFFFFFFFFFFFFFFFFFFFFFFFFFFF AND PUSH20 0xFFFFFFFFFFFFFFFFFFFFFFFFFFFFFFFFFFFFFFFF AND DUP5 PUSH1 0x1 ADD SLOAD DUP5 PUSH1 0x40 MLOAD PUSH2 0xECF SWAP2 SWAP1 PUSH2 0x2369 JUMP JUMPDEST PUSH0 PUSH1 0x40 MLOAD DUP1 DUP4 SUB DUP2 DUP6 DUP8 GAS CALL SWAP3 POP POP POP RETURNDATASIZE DUP1 PUSH0 DUP2 EQ PUSH2 0xF09 JUMPI PUSH1 0x40 MLOAD SWAP2 POP PUSH1 0x1F NOT PUSH1 0x3F RETURNDATASIZE ADD AND DUP3 ADD PUSH1 0x40 MSTORE RETURNDATASIZE DUP3 MSTORE RETURNDATASIZE PUSH0 PUSH1 0x20 DUP5 ADD RETURNDATACOPY PUSH2 0xF0E JUMP JUMPDEST PUSH1 0x60 SWAP2 POP JUMPDEST POP SWAP2 POP SWAP2 POP DUP2 PUSH2 0xF1D DUP3 PUSH2 0x123F JUMP JUMPDEST SWAP1 PUSH2 0xF5E JUMPI PUSH1 0x40 MLOAD PUSH32 0x8C379A000000000000000000000000000000000000000000000000000000000 DUP2 MSTORE PUSH1 0x4 ADD PUSH2 0xF55 SWAP2 SWAP1 PUSH2 0x237F JUMP JUMPDEST PUSH1 0x40 MLOAD DUP1 SWAP2 SUB SWAP1 REVERT JUMPDEST POP DUP4 PUSH0 ADD PUSH0 SWAP1 SLOAD SWAP1 PUSH2 0x100 EXP SWAP1 DIV PUSH20 0xFFFFFFFFFFFFFFFFFFFFFFFFFFFFFFFFFFFFFFFF AND PUSH20 0xFFFFFFFFFFFFFFFFFFFFFFFFFFFFFFFFFFFFFFFF AND DUP6 PUSH32 0xC575CA257BFE46BEAC39C1F7D71DB181BD749FB764C569F8D40F94B4F196A8E4 DUP7 PUSH1 0x1 ADD SLOAD DUP8 PUSH1 0x2 ADD DUP9 PUSH1 0x3 ADD PUSH1 0x40 MLOAD PUSH2 0xFD6 SWAP4 SWAP3 SWAP2 SWAP1 PUSH2 0x24A1 JUMP JUMPDEST PUSH1 0x40 MLOAD DUP1 SWAP2 SUB SWAP1 LOG3 POP POP POP POP PUSH1 0x1 PUSH1 0x4 DUP2 SWAP1 SSTORE POP POP JUMP JUMPDEST PUSH0 DUP5 DUP5 DUP5 DUP5 PUSH1 0x40 MLOAD PUSH1 0x20 ADD PUSH2 0x1005 SWAP5 SWAP4 SWAP3 SWAP2 SWAP1 PUSH2 0x24E4 JUMP JUMPDEST PUSH1 0x40 MLOAD PUSH1 0x20 DUP2 DUP4 SUB SUB DUP2 MSTORE SWAP1 PUSH1 0x40 MSTORE DUP1 MLOAD SWAP1 PUSH1 0x20 ADD KECCAK256 SWAP1 POP SWAP5 SWAP4 POP POP POP POP JUMP JUMPDEST PUSH1 0x2 PUSH0 SWAP1 SLOAD SWAP1 PUSH2 0x100 EXP SWAP1 DIV PUSH20 0xFFFFFFFFFFFFFFFFFFFFFFFFFFFFFFFFFFFFFFFF AND PUSH20 0xFFFFFFFFFFFFFFFFFFFFFFFFFFFFFFFFFFFFFFFF AND CALLER PUSH20 0xFFFFFFFFFFFFFFFFFFFFFFFFFFFFFFFFFFFFFFFF AND EQ PUSH2 0x10B4 JUMPI PUSH1 0x40 MLOAD PUSH32 0x8C379A000000000000000000000000000000000000000000000000000000000 DUP2 MSTORE PUSH1 0x4 ADD PUSH2 0x10AB SWAP1 PUSH2 0x18B9 JUMP JUMPDEST PUSH1 0x40 MLOAD DUP1 SWAP2 SUB SWAP1 REVERT JUMPDEST PUSH0 DUP2 GT PUSH2 0x10F6 JUMPI PUSH1 0x40 MLOAD PUSH32 0x8C379A000000000000000000000000000000000000000000000000000000000 DUP2 MSTORE PUSH1 0x4 ADD PUSH2 0x10ED SWAP1 PUSH2 0x257F JUMP JUMPDEST PUSH1 0x40 MLOAD DUP1 SWAP2 SUB SWAP1 REVERT JUMPDEST DUP1 PUSH0 DUP2 SWAP1 SSTORE POP POP JUMP JUMPDEST PUSH1 0x2 PUSH0 SWAP1 SLOAD SWAP1 PUSH2 0x100 EXP SWAP1 DIV PUSH20 0xFFFFFFFFFFFFFFFFFFFFFFFFFFFFFFFFFFFFFFFF AND PUSH20 0xFFFFFFFFFFFFFFFFFFFFFFFFFFFFFFFFFFFFFFFF AND CALLER PUSH20 0xFFFFFFFFFFFFFFFFFFFFFFFFFFFFFFFFFFFFFFFF AND EQ PUSH2 0x118E JUMPI PUSH1 0x40 MLOAD PUSH32 0x8C379A000000000000000000000000000000000000000000000000000000000 DUP2 MSTORE PUSH1 0x4 ADD PUSH2 0x1185 SWAP1 PUSH2 0x18B9 JUMP JUMPDEST PUSH1 0x40 MLOAD DUP1 SWAP2 SUB SWAP1 REVERT JUMPDEST PUSH0 PUSH20 0xFFFFFFFFFFFFFFFFFFFFFFFFFFFFFFFFFFFFFFFF AND DUP2 PUSH20 0xFFFFFFFFFFFFFFFFFFFFFFFFFFFFFFFFFFFFFFFF AND SUB PUSH2 0x11FC JUMPI PUSH1 0x40 MLOAD PUSH32 0x8C379A000000000000000000000000000000000000000000000000000000000 DUP2 MSTORE PUSH1 0x4 ADD PUSH2 0x11F3 SWAP1 PUSH2 0x25E7 JUMP JUMPDEST PUSH1 0x40 MLOAD DUP1 SWAP2 SUB SWAP1 REVERT JUMPDEST DUP1 PUSH1 0x2 PUSH0 PUSH2 0x100 EXP DUP2 SLOAD DUP2 PUSH20 0xFFFFFFFFFFFFFFFFFFFFFFFFFFFFFFFFFFFFFFFF MUL NOT AND SWAP1 DUP4 PUSH20 0xFFFFFFFFFFFFFFFFFFFFFFFFFFFFFFFFFFFFFFFF AND MUL OR SWAP1 SSTORE POP POP JUMP JUMPDEST PUSH1 0x60 PUSH1 0x44 DUP3 MLOAD LT ISZERO PUSH2 0x126B JUMPI PUSH1 0x40 MLOAD DUP1 PUSH1 0x60 ADD PUSH1 0x40 MSTORE DUP1 PUSH1 0x27 DUP2 MSTORE PUSH1 0x20 ADD PUSH2 0x26BB PUSH1 0x27 SWAP2 CODECOPY SWAP1 POP PUSH2 0x1288 JUMP JUMPDEST PUSH1 0x4 DUP3 ADD SWAP2 POP DUP2 DUP1 PUSH1 0x20 ADD SWAP1 MLOAD DUP2 ADD SWAP1 PUSH2 0x1285 SWAP2 SWAP1 PUSH2 0x2673 JUMP JUMPDEST SWAP1 POP JUMPDEST SWAP2 SWAP1 POP JUMP JUMPDEST PUSH0 DUP2 SWAP1 POP SWAP2 SWAP1 POP JUMP JUMPDEST PUSH2 0x129F DUP2 PUSH2 0x128D JUMP JUMPDEST DUP3 MSTORE POP POP JUMP JUMPDEST PUSH0 PUSH1 0x20 DUP3 ADD SWAP1 POP PUSH2 0x12B8 PUSH0 DUP4 ADD DUP5 PUSH2 0x1296 JUMP JUMPDEST SWAP3 SWAP2 POP POP JUMP JUMPDEST PUSH0 PUSH1 0x40 MLOAD SWAP1 POP SWAP1 JUMP JUMPDEST PUSH0 PUSH0 REVERT JUMPDEST PUSH0 PUSH0 REVERT JUMPDEST PUSH0 DUP2 SWAP1 POP SWAP2 SWAP1 POP JUMP JUMPDEST PUSH2 0x12E1 DUP2 PUSH2 0x12CF JUMP JUMPDEST DUP2 EQ PUSH2 0x12EB JUMPI PUSH0 PUSH0 REVERT JUMPDEST POP JUMP JUMPDEST PUSH0 DUP2 CALLDATALOAD SWAP1 POP PUSH2 0x12FC DUP2 PUSH2 0x12D8 JUMP JUMPDEST SWAP3 SWAP2 POP POP JUMP JUMPDEST PUSH0 PUSH1 0x20 DUP3 DUP5 SUB SLT ISZERO PUSH2 0x1317 JUMPI PUSH2 0x1316 PUSH2 0x12C7 JUMP JUMPDEST JUMPDEST PUSH0 PUSH2 0x1324 DUP5 DUP3 DUP6 ADD PUSH2 0x12EE JUMP JUMPDEST SWAP2 POP POP SWAP3 SWAP2 POP POP JUMP JUMPDEST PUSH0 DUP2 ISZERO ISZERO SWAP1 POP SWAP2 SWAP1 POP JUMP JUMPDEST PUSH2 0x1341 DUP2 PUSH2 0x132D JUMP JUMPDEST DUP3 MSTORE POP POP JUMP JUMPDEST PUSH0 PUSH1 0x60 DUP3 ADD SWAP1 POP PUSH2 0x135A PUSH0 DUP4 ADD DUP7 PUSH2 0x1338 JUMP JUMPDEST PUSH2 0x1367 PUSH1 0x20 DUP4 ADD DUP6 PUSH2 0x1338 JUMP JUMPDEST PUSH2 0x1374 PUSH1 0x40 DUP4 ADD DUP5 PUSH2 0x1338 JUMP JUMPDEST SWAP5 SWAP4 POP POP POP POP JUMP JUMPDEST PUSH0 PUSH20 0xFFFFFFFFFFFFFFFFFFFFFFFFFFFFFFFFFFFFFFFF DUP3 AND SWAP1 POP SWAP2 SWAP1 POP JUMP JUMPDEST PUSH0 PUSH2 0x13A5 DUP3 PUSH2 0x137C JUMP JUMPDEST SWAP1 POP SWAP2 SWAP1 POP JUMP JUMPDEST PUSH2 0x13B5 DUP2 PUSH2 0x139B JUMP JUMPDEST DUP3 MSTORE POP POP JUMP JUMPDEST PUSH0 PUSH1 0x20 DUP3 ADD SWAP1 POP PUSH2 0x13CE PUSH0 DUP4 ADD DUP5 PUSH2 0x13AC JUMP JUMPDEST SWAP3 SWAP2 POP POP JUMP JUMPDEST PUSH2 0x13DD DUP2 PUSH2 0x139B JUMP JUMPDEST DUP2 EQ PUSH2 0x13E7 JUMPI PUSH0 PUSH0 REVERT JUMPDEST POP JUMP JUMPDEST PUSH0 DUP2 CALLDATALOAD SWAP1 POP PUSH2 0x13F8 DUP2 PUSH2 0x13D4 JUMP JUMPDEST SWAP3 SWAP2 POP POP JUMP JUMPDEST PUSH2 0x1407 DUP2 PUSH2 0x128D JUMP JUMPDEST DUP2 EQ PUSH2 0x1411 JUMPI PUSH0 PUSH0 REVERT JUMPDEST POP JUMP JUMPDEST PUSH0 DUP2 CALLDATALOAD SWAP1 POP PUSH2 0x1422 DUP2 PUSH2 0x13FE JUMP JUMPDEST SWAP3 SWAP2 POP POP JUMP JUMPDEST PUSH0 PUSH0 REVERT JUMPDEST PUSH0 PUSH0 REVERT JUMPDEST PUSH0 PUSH1 0x1F NOT PUSH1 0x1F DUP4 ADD AND SWAP1 POP SWAP2 SWAP1 POP JUMP JUMPDEST PUSH32 0x4E487B7100000000000000000000000000000000000000000000000000000000 PUSH0 MSTORE PUSH1 0x41 PUSH1 0x4 MSTORE PUSH1 0x24 PUSH0 REVERT JUMPDEST PUSH2 0x1476 DUP3 PUSH2 0x1430 JUMP JUMPDEST DUP2 ADD DUP2 DUP2 LT PUSH8 0xFFFFFFFFFFFFFFFF DUP3 GT OR ISZERO PUSH2 0x1495 JUMPI PUSH2 0x1494 PUSH2 0x1440 JUMP JUMPDEST JUMPDEST DUP1 PUSH1 0x40 MSTORE POP POP POP JUMP JUMPDEST PUSH0 PUSH2 0x14A7 PUSH2 0x12BE JUMP JUMPDEST SWAP1 POP PUSH2 0x14B3 DUP3 DUP3 PUSH2 0x146D JUMP JUMPDEST SWAP2 SWAP1 POP JUMP JUMPDEST PUSH0 PUSH8 0xFFFFFFFFFFFFFFFF DUP3 GT ISZERO PUSH2 0x14D2 JUMPI PUSH2 0x14D1 PUSH2 0x1440 JUMP JUMPDEST JUMPDEST PUSH2 0x14DB DUP3 PUSH2 0x1430 JUMP JUMPDEST SWAP1 POP PUSH1 0x20 DUP2 ADD SWAP1 POP SWAP2 SWAP1 POP JUMP JUMPDEST DUP3 DUP2 DUP4 CALLDATACOPY PUSH0 DUP4 DUP4 ADD MSTORE POP POP POP JUMP JUMPDEST PUSH0 PUSH2 0x1508 PUSH2 0x1503 DUP5 PUSH2 0x14B8 JUMP JUMPDEST PUSH2 0x149E JUMP JUMPDEST SWAP1 POP DUP3 DUP2 MSTORE PUSH1 0x20 DUP2 ADD DUP5 DUP5 DUP5 ADD GT ISZERO PUSH2 0x1524 JUMPI PUSH2 0x1523 PUSH2 0x142C JUMP JUMPDEST JUMPDEST PUSH2 0x152F DUP5 DUP3 DUP6 PUSH2 0x14E8 JUMP JUMPDEST POP SWAP4 SWAP3 POP POP POP JUMP JUMPDEST PUSH0 DUP3 PUSH1 0x1F DUP4 ADD SLT PUSH2 0x154B JUMPI PUSH2 0x154A PUSH2 0x1428 JUMP JUMPDEST JUMPDEST DUP2 CALLDATALOAD PUSH2 0x155B DUP5 DUP3 PUSH1 0x20 DUP7 ADD PUSH2 0x14F6 JUMP JUMPDEST SWAP2 POP POP SWAP3 SWAP2 POP POP JUMP JUMPDEST PUSH0 PUSH8 0xFFFFFFFFFFFFFFFF DUP3 GT ISZERO PUSH2 0x157E JUMPI PUSH2 0x157D PUSH2 0x1440 JUMP JUMPDEST JUMPDEST PUSH2 0x1587 DUP3 PUSH2 0x1430 JUMP JUMPDEST SWAP1 POP PUSH1 0x20 DUP2 ADD SWAP1 POP SWAP2 SWAP1 POP JUMP JUMPDEST PUSH0 PUSH2 0x15A6 PUSH2 0x15A1 DUP5 PUSH2 0x1564 JUMP JUMPDEST PUSH2 0x149E JUMP JUMPDEST SWAP1 POP DUP3 DUP2 MSTORE PUSH1 0x20 DUP2 ADD DUP5 DUP5 DUP5 ADD GT ISZERO PUSH2 0x15C2 JUMPI PUSH2 0x15C1 PUSH2 0x142C JUMP JUMPDEST JUMPDEST PUSH2 0x15CD DUP5 DUP3 DUP6 PUSH2 0x14E8 JUMP JUMPDEST POP SWAP4 SWAP3 POP POP POP JUMP JUMPDEST PUSH0 DUP3 PUSH1 0x1F DUP4 ADD SLT PUSH2 0x15E9 JUMPI PUSH2 0x15E8 PUSH2 0x1428 JUMP JUMPDEST JUMPDEST DUP2 CALLDATALOAD PUSH2 0x15F9 DUP5 DUP3 PUSH1 0x20 DUP7 ADD PUSH2 0x1594 JUMP JUMPDEST SWAP2 POP POP SWAP3 SWAP2 POP POP JUMP JUMPDEST PUSH0 PUSH0 PUSH0 PUSH0 PUSH1 0x80 DUP6 DUP8 SUB SLT ISZERO PUSH2 0x161A JUMPI PUSH2 0x1619 PUSH2 0x12C7 JUMP JUMPDEST JUMPDEST PUSH0 PUSH2 0x1627 DUP8 DUP3 DUP9 ADD PUSH2 0x13EA JUMP JUMPDEST SWAP5 POP POP PUSH1 0x20 PUSH2 0x1638 DUP8 DUP3 DUP9 ADD PUSH2 0x1414 JUMP JUMPDEST SWAP4 POP POP PUSH1 0x40 DUP6 ADD CALLDATALOAD PUSH8 0xFFFFFFFFFFFFFFFF DUP2 GT ISZERO PUSH2 0x1659 JUMPI PUSH2 0x1658 PUSH2 0x12CB JUMP JUMPDEST JUMPDEST PUSH2 0x1665 DUP8 DUP3 DUP9 ADD PUSH2 0x1537 JUMP JUMPDEST SWAP3 POP POP PUSH1 0x60 DUP6 ADD CALLDATALOAD PUSH8 0xFFFFFFFFFFFFFFFF DUP2 GT ISZERO PUSH2 0x1686 JUMPI PUSH2 0x1685 PUSH2 0x12CB JUMP JUMPDEST JUMPDEST PUSH2 0x1692 DUP8 DUP3 DUP9 ADD PUSH2 0x15D5 JUMP JUMPDEST SWAP2 POP POP SWAP3 SWAP6 SWAP2 SWAP5 POP SWAP3 POP JUMP JUMPDEST PUSH2 0x16A7 DUP2 PUSH2 0x12CF JUMP JUMPDEST DUP3 MSTORE POP POP JUMP JUMPDEST PUSH0 PUSH1 0x20 DUP3 ADD SWAP1 POP PUSH2 0x16C0 PUSH0 DUP4 ADD DUP5 PUSH2 0x169E JUMP JUMPDEST SWAP3 SWAP2 POP POP JUMP JUMPDEST PUSH0 DUP2 MLOAD SWAP1 POP SWAP2 SWAP1 POP JUMP JUMPDEST PUSH0 DUP3 DUP3 MSTORE PUSH1 0x20 DUP3 ADD SWAP1 POP SWAP3 SWAP2 POP POP JUMP JUMPDEST DUP3 DUP2 DUP4 MCOPY PUSH0 DUP4 DUP4 ADD MSTORE POP POP POP JUMP JUMPDEST PUSH0 PUSH2 0x16F8 DUP3 PUSH2 0x16C6 JUMP JUMPDEST PUSH2 0x1702 DUP2 DUP6 PUSH2 0x16D0 JUMP JUMPDEST SWAP4 POP PUSH2 0x1712 DUP2 DUP6 PUSH1 0x20 DUP7 ADD PUSH2 0x16E0 JUMP JUMPDEST PUSH2 0x171B DUP2 PUSH2 0x1430 JUMP JUMPDEST DUP5 ADD SWAP2 POP POP SWAP3 SWAP2 POP POP JUMP JUMPDEST PUSH0 DUP2 MLOAD SWAP1 POP SWAP2 SWAP1 POP JUMP JUMPDEST PUSH0 DUP3 DUP3 MSTORE PUSH1 0x20 DUP3 ADD SWAP1 POP SWAP3 SWAP2 POP POP JUMP JUMPDEST PUSH0 PUSH2 0x174A DUP3 PUSH2 0x1726 JUMP JUMPDEST PUSH2 0x1754 DUP2 DUP6 PUSH2 0x1730 JUMP JUMPDEST SWAP4 POP PUSH2 0x1764 DUP2 DUP6 PUSH1 0x20 DUP7 ADD PUSH2 0x16E0 JUMP JUMPDEST PUSH2 0x176D DUP2 PUSH2 0x1430 JUMP JUMPDEST DUP5 ADD SWAP2 POP POP SWAP3 SWAP2 POP POP JUMP JUMPDEST PUSH0 PUSH1 0xE0 DUP3 ADD SWAP1 POP PUSH2 0x178B PUSH0 DUP4 ADD DUP11 PUSH2 0x13AC JUMP JUMPDEST PUSH2 0x1798 PUSH1 0x20 DUP4 ADD DUP10 PUSH2 0x1296 JUMP JUMPDEST DUP2 DUP2 SUB PUSH1 0x40 DUP4 ADD MSTORE PUSH2 0x17AA DUP2 DUP9 PUSH2 0x16EE JUMP JUMPDEST SWAP1 POP DUP2 DUP2 SUB PUSH1 0x60 DUP4 ADD MSTORE PUSH2 0x17BE DUP2 DUP8 PUSH2 0x1740 JUMP JUMPDEST SWAP1 POP PUSH2 0x17CD PUSH1 0x80 DUP4 ADD DUP7 PUSH2 0x1296 JUMP JUMPDEST PUSH2 0x17DA PUSH1 0xA0 DUP4 ADD DUP6 PUSH2 0x1338 JUMP JUMPDEST PUSH2 0x17E7 PUSH1 0xC0 DUP4 ADD DUP5 PUSH2 0x1338 JUMP JUMPDEST SWAP9 SWAP8 POP POP POP POP POP POP POP POP JUMP JUMPDEST PUSH0 PUSH1 0x20 DUP3 DUP5 SUB SLT ISZERO PUSH2 0x1808 JUMPI PUSH2 0x1807 PUSH2 0x12C7 JUMP JUMPDEST JUMPDEST PUSH0 PUSH2 0x1815 DUP5 DUP3 DUP6 ADD PUSH2 0x1414 JUMP JUMPDEST SWAP2 POP POP SWAP3 SWAP2 POP POP JUMP JUMPDEST PUSH0 PUSH1 0x20 DUP3 DUP5 SUB SLT ISZERO PUSH2 0x1833 JUMPI PUSH2 0x1832 PUSH2 0x12C7 JUMP JUMPDEST JUMPDEST PUSH0 PUSH2 0x1840 DUP5 DUP3 DUP6 ADD PUSH2 0x13EA JUMP JUMPDEST SWAP2 POP POP SWAP3 SWAP2 POP POP JUMP JUMPDEST PUSH32 0x54696D656C6F636B3A2063616C6C6572206973206E6F7420746865206F776E65 PUSH0 DUP3 ADD MSTORE PUSH32 0x7200000000000000000000000000000000000000000000000000000000000000 PUSH1 0x20 DUP3 ADD MSTORE POP JUMP JUMPDEST PUSH0 PUSH2 0x18A3 PUSH1 0x21 DUP4 PUSH2 0x16D0 JUMP JUMPDEST SWAP2 POP PUSH2 0x18AE DUP3 PUSH2 0x1849 JUMP JUMPDEST PUSH1 0x40 DUP3 ADD SWAP1 POP SWAP2 SWAP1 POP JUMP JUMPDEST PUSH0 PUSH1 0x20 DUP3 ADD SWAP1 POP DUP2 DUP2 SUB PUSH0 DUP4 ADD MSTORE PUSH2 0x18D0 DUP2 PUSH2 0x1897 JUMP JUMPDEST SWAP1 POP SWAP2 SWAP1 POP JUMP JUMPDEST PUSH32 0x54696D656C6F636B3A20696E76616C6964207461726765740000000000000000 PUSH0 DUP3 ADD MSTORE POP JUMP JUMPDEST PUSH0 PUSH2 0x190B PUSH1 0x18 DUP4 PUSH2 0x16D0 JUMP JUMPDEST SWAP2 POP PUSH2 0x1916 DUP3 PUSH2 0x18D7 JUMP JUMPDEST PUSH1 0x20 DUP3 ADD SWAP1 POP SWAP2 SWAP1 POP JUMP JUMPDEST PUSH0 PUSH1 0x20 DUP3 ADD SWAP1 POP DUP2 DUP2 SUB PUSH0 DUP4 ADD MSTORE PUSH2 0x1938 DUP2 PUSH2 0x18FF JUMP JUMPDEST SWAP1 POP SWAP2 SWAP1 POP JUMP JUMPDEST PUSH32 0x54696D656C6F636B3A206F7065726174696F6E20616C72656164792073636865 PUSH0 DUP3 ADD MSTORE PUSH32 0x64756C6564000000000000000000000000000000000000000000000000000000 PUSH1 0x20 DUP3 ADD MSTORE POP JUMP JUMPDEST PUSH0 PUSH2 0x1999 PUSH1 0x25 DUP4 PUSH2 0x16D0 JUMP JUMPDEST SWAP2 POP PUSH2 0x19A4 DUP3 PUSH2 0x193F JUMP JUMPDEST PUSH1 0x40 DUP3 ADD SWAP1 POP SWAP2 SWAP1 POP JUMP JUMPDEST PUSH0 PUSH1 0x20 DUP3 ADD SWAP1 POP DUP2 DUP2 SUB PUSH0 DUP4 ADD MSTORE PUSH2 0x19C6 DUP2 PUSH2 0x198D JUMP JUMPDEST SWAP1 POP SWAP2 SWAP1 POP JUMP JUMPDEST PUSH32 0x4E487B7100000000000000000000000000000000000000000000000000000000 PUSH0 MSTORE PUSH1 0x11 PUSH1 0x4 MSTORE PUSH1 0x24 PUSH0 REVERT JUMPDEST PUSH0 PUSH2 0x1A04 DUP3 PUSH2 0x128D JUMP JUMPDEST SWAP2 POP PUSH2 0x1A0F DUP4 PUSH2 0x128D JUMP JUMPDEST SWAP3 POP DUP3 DUP3 ADD SWAP1 POP DUP1 DUP3 GT ISZERO PUSH2 0x1A27 JUMPI PUSH2 0x1A26 PUSH2 0x19CD JUMP JUMPDEST JUMPDEST SWAP3 SWAP2 POP POP JUMP JUMPDEST PUSH32 0x4E487B7100000000000000000000000000000000000000000000000000000000 PUSH0 MSTORE PUSH1 0x22 PUSH1 0x4 MSTORE PUSH1 0x24 PUSH0 REVERT JUMPDEST PUSH0 PUSH1 0x2 DUP3 DIV SWAP1 POP PUSH1 0x1 DUP3 AND DUP1 PUSH2 0x1A71 JUMPI PUSH1 0x7F DUP3 AND SWAP2 POP JUMPDEST PUSH1 0x20 DUP3 LT DUP2 SUB PUSH2 0x1A84 JUMPI PUSH2 0x1A83 PUSH2 0x1A2D JUMP JUMPDEST JUMPDEST POP SWAP2 SWAP1 POP JUMP JUMPDEST PUSH0 DUP2 SWAP1 POP DUP2 PUSH0 MSTORE PUSH1 0x20 PUSH0 KECCAK256 SWAP1 POP SWAP2 SWAP1 POP JUMP JUMPDEST PUSH0 PUSH1 0x20 PUSH1 0x1F DUP4 ADD DIV SWAP1 POP SWAP2 SWAP1 POP JUMP JUMPDEST PUSH0 DUP3 DUP3 SHL SWAP1 POP SWAP3 SWAP2 POP POP JUMP JUMPDEST PUSH0 PUSH1 0x8 DUP4 MUL PUSH2 0x1AE6 PUSH32 0xFFFFFFFFFFFFFFFFFFFFFFFFFFFFFFFFFFFFFFFFFFFFFFFFFFFFFFFFFFFFFFFF DUP3 PUSH2 0x1AAB JUMP JUMPDEST PUSH2 0x1AF0 DUP7 DUP4 PUSH2 0x1AAB JUMP JUMPDEST SWAP6 POP DUP1 NOT DUP5 AND SWAP4 POP DUP1 DUP7 AND DUP5 OR SWAP3 POP POP POP SWAP4 SWAP3 POP POP POP JUMP JUMPDEST PUSH0 DUP2 SWAP1 POP SWAP2 SWAP1 POP JUMP JUMPDEST PUSH0 PUSH2 0x1B2B PUSH2 0x1B26 PUSH2 0x1B21 DUP5 PUSH2 0x128D JUMP JUMPDEST PUSH2 0x1B08 JUMP JUMPDEST PUSH2 0x128D JUMP JUMPDEST SWAP1 POP SWAP2 SWAP1 POP JUMP JUMPDEST PUSH0 DUP2 SWAP1 POP SWAP2 SWAP1 POP JUMP JUMPDEST PUSH2 0x1B44 DUP4 PUSH2 0x1B11 JUMP JUMPDEST PUSH2 0x1B58 PUSH2 0x1B50 DUP3 PUSH2 0x1B32 JUMP JUMPDEST DUP5 DUP5 SLOAD PUSH2 0x1AB7 JUMP JUMPDEST DUP3 SSTORE POP POP POP POP JUMP JUMPDEST PUSH0 PUSH0 SWAP1 POP SWAP1 JUMP JUMPDEST PUSH2 0x1B6F PUSH2 0x1B60 JUMP JUMPDEST PUSH2 0x1B7A DUP2 DUP5 DUP5 PUSH2 0x1B3B JUMP JUMPDEST POP POP POP JUMP JUMPDEST JUMPDEST DUP2 DUP2 LT ISZERO PUSH2 0x1B9D JUMPI PUSH2 0x1B92 PUSH0 DUP3 PUSH2 0x1B67 JUMP JUMPDEST PUSH1 0x1 DUP2 ADD SWAP1 POP PUSH2 0x1B80 JUMP JUMPDEST POP POP JUMP JUMPDEST PUSH1 0x1F DUP3 GT ISZERO PUSH2 0x1BE2 JUMPI PUSH2 0x1BB3 DUP2 PUSH2 0x1A8A JUMP JUMPDEST PUSH2 0x1BBC DUP5 PUSH2 0x1A9C JUMP JUMPDEST DUP2 ADD PUSH1 0x20 DUP6 LT ISZERO PUSH2 0x1BCB JUMPI DUP2 SWAP1 POP JUMPDEST PUSH2 0x1BDF PUSH2 0x1BD7 DUP6 PUSH2 0x1A9C JUMP JUMPDEST DUP4 ADD DUP3 PUSH2 0x1B7F JUMP JUMPDEST POP POP JUMPDEST POP POP POP JUMP JUMPDEST PUSH0 DUP3 DUP3 SHR SWAP1 POP SWAP3 SWAP2 POP POP JUMP JUMPDEST PUSH0 PUSH2 0x1C02 PUSH0 NOT DUP5 PUSH1 0x8 MUL PUSH2 0x1BE7 JUMP JUMPDEST NOT DUP1 DUP4 AND SWAP2 POP POP SWAP3 SWAP2 POP POP JUMP JUMPDEST PUSH0 PUSH2 0x1C1A DUP4 DUP4 PUSH2 0x1BF3 JUMP JUMPDEST SWAP2 POP DUP3 PUSH1 0x2 MUL DUP3 OR SWAP1 POP SWAP3 SWAP2 POP POP JUMP JUMPDEST PUSH2 0x1C33 DUP3 PUSH2 0x16C6 JUMP JUMPDEST PUSH8 0xFFFFFFFFFFFFFFFF DUP2 GT ISZERO PUSH2 0x1C4C JUMPI PUSH2 0x1C4B PUSH2 0x1440 JUMP JUMPDEST JUMPDEST PUSH2 0x1C56 DUP3 SLOAD PUSH2 0x1A5A JUMP JUMPDEST PUSH2 0x1C61 DUP3 DUP3 DUP6 PUSH2 0x1BA1 JUMP JUMPDEST PUSH0 PUSH1 0x20 SWAP1 POP PUSH1 0x1F DUP4 GT PUSH1 0x1 DUP2 EQ PUSH2 0x1C92 JUMPI PUSH0 DUP5 ISZERO PUSH2 0x1C80 JUMPI DUP3 DUP8 ADD MLOAD SWAP1 POP JUMPDEST PUSH2 0x1C8A DUP6 DUP3 PUSH2 0x1C0F JUMP JUMPDEST DUP7 SSTORE POP PUSH2 0x1CF1 JUMP JUMPDEST PUSH1 0x1F NOT DUP5 AND PUSH2 0x1CA0 DUP7 PUSH2 0x1A8A JUMP JUMPDEST PUSH0 JUMPDEST DUP3 DUP2 LT ISZERO PUSH2 0x1CC7 JUMPI DUP5 DUP10 ADD MLOAD DUP3 SSTORE PUSH1 0x1 DUP3 ADD SWAP2 POP PUSH1 0x20 DUP6 ADD SWAP5 POP PUSH1 0x20 DUP2 ADD SWAP1 POP PUSH2 0x1CA2 JUMP JUMPDEST DUP7 DUP4 LT ISZERO PUSH2 0x1CE4 JUMPI DUP5 DUP10 ADD MLOAD PUSH2 0x1CE0 PUSH1 0x1F DUP10 AND DUP3 PUSH2 0x1BF3 JUMP JUMPDEST DUP4 SSTORE POP JUMPDEST PUSH1 0x1 PUSH1 0x2 DUP9 MUL ADD DUP9 SSTORE POP POP POP JUMPDEST POP POP POP POP POP POP JUMP JUMPDEST PUSH0 DUP2 SWAP1 POP DUP2 PUSH0 MSTORE PUSH1 0x20 PUSH0 KECCAK256 SWAP1 POP SWAP2 SWAP1 POP JUMP JUMPDEST PUSH1 0x1F DUP3 GT ISZERO PUSH2 0x1D4C JUMPI PUSH2 0x1D1D DUP2 PUSH2 0x1CF9 JUMP JUMPDEST PUSH2 0x1D26 DUP5 PUSH2 0x1A9C JUMP JUMPDEST DUP2 ADD PUSH1 0x20 DUP6 LT ISZERO PUSH2 0x1D35 JUMPI DUP2 SWAP1 POP JUMPDEST PUSH2 0x1D49 PUSH2 0x1D41 DUP6 PUSH2 0x1A9C JUMP JUMPDEST DUP4 ADD DUP3 PUSH2 0x1B7F JUMP JUMPDEST POP POP JUMPDEST POP POP POP JUMP JUMPDEST PUSH2 0x1D5A DUP3 PUSH2 0x1726 JUMP JUMPDEST PUSH8 0xFFFFFFFFFFFFFFFF DUP2 GT ISZERO PUSH2 0x1D73 JUMPI PUSH2 0x1D72 PUSH2 0x1440 JUMP JUMPDEST JUMPDEST PUSH2 0x1D7D DUP3 SLOAD PUSH2 0x1A5A JUMP JUMPDEST PUSH2 0x1D88 DUP3 DUP3 DUP6 PUSH2 0x1D0B JUMP JUMPDEST PUSH0 PUSH1 0x20 SWAP1 POP PUSH1 0x1F DUP4 GT PUSH1 0x1 DUP2 EQ PUSH2 0x1DB9 JUMPI PUSH0 DUP5 ISZERO PUSH2 0x1DA7 JUMPI DUP3 DUP8 ADD MLOAD SWAP1 POP JUMPDEST PUSH2 0x1DB1 DUP6 DUP3 PUSH2 0x1C0F JUMP JUMPDEST DUP7 SSTORE POP PUSH2 0x1E18 JUMP JUMPDEST PUSH1 0x1F NOT DUP5 AND PUSH2 0x1DC7 DUP7 PUSH2 0x1CF9 JUMP JUMPDEST PUSH0 JUMPDEST DUP3 DUP2 LT ISZERO PUSH2 0x1DEE JUMPI DUP5 DUP10 ADD MLOAD DUP3 SSTORE PUSH1 0x1 DUP3 ADD SWAP2 POP PUSH1 0x20 DUP6 ADD SWAP5 POP PUSH1 0x20 DUP2 ADD SWAP1 POP PUSH2 0x1DC9 JUMP JUMPDEST DUP7 DUP4 LT ISZERO PUSH2 0x1E0B JUMPI DUP5 DUP10 ADD MLOAD PUSH2 0x1E07 PUSH1 0x1F DUP10 AND DUP3 PUSH2 0x1BF3 JUMP JUMPDEST DUP4 SSTORE POP JUMPDEST PUSH1 0x1 PUSH1 0x2 DUP9 MUL ADD DUP9 SSTORE POP POP POP JUMPDEST POP POP POP POP POP POP JUMP JUMPDEST PUSH0 PUSH1 0x80 DUP3 ADD SWAP1 POP PUSH2 0x1E33 PUSH0 DUP4 ADD DUP8 PUSH2 0x1296 JUMP JUMPDEST DUP2 DUP2 SUB PUSH1 0x20 DUP4 ADD MSTORE PUSH2 0x1E45 DUP2 DUP7 PUSH2 0x16EE JUMP JUMPDEST SWAP1 POP DUP2 DUP2 SUB PUSH1 0x40 DUP4 ADD MSTORE PUSH2 0x1E59 DUP2 DUP6 PUSH2 0x1740 JUMP JUMPDEST SWAP1 POP PUSH2 0x1E68 PUSH1 0x60 DUP4 ADD DUP5 PUSH2 0x1296 JUMP JUMPDEST SWAP6 SWAP5 POP POP POP POP POP JUMP JUMPDEST PUSH32 0x54696D656C6F636B3A20756E6B6E6F776E206F7065726174696F6E0000000000 PUSH0 DUP3 ADD MSTORE POP JUMP JUMPDEST PUSH0 PUSH2 0x1EA5 PUSH1 0x1B DUP4 PUSH2 0x16D0 JUMP JUMPDEST SWAP2 POP PUSH2 0x1EB0 DUP3 PUSH2 0x1E71 JUMP JUMPDEST PUSH1 0x20 DUP3 ADD SWAP1 POP SWAP2 SWAP1 POP JUMP JUMPDEST PUSH0 PUSH1 0x20 DUP3 ADD SWAP1 POP DUP2 DUP2 SUB PUSH0 DUP4 ADD MSTORE PUSH2 0x1ED2 DUP2 PUSH2 0x1E99 JUMP JUMPDEST SWAP1 POP SWAP2 SWAP1 POP JUMP JUMPDEST PUSH32 0x54696D656C6F636B3A206F7065726174696F6E20616C72656164792065786563 PUSH0 DUP3 ADD MSTORE PUSH32 0x7574656400000000000000000000000000000000000000000000000000000000 PUSH1 0x20 DUP3 ADD MSTORE POP JUMP JUMPDEST PUSH0 PUSH2 0x1F33 PUSH1 0x24 DUP4 PUSH2 0x16D0 JUMP JUMPDEST SWAP2 POP PUSH2 0x1F3E DUP3 PUSH2 0x1ED9 JUMP JUMPDEST PUSH1 0x40 DUP3 ADD SWAP1 POP SWAP2 SWAP1 POP JUMP JUMPDEST PUSH0 PUSH1 0x20 DUP3 ADD SWAP1 POP DUP2 DUP2 SUB PUSH0 DUP4 ADD MSTORE PUSH2 0x1F60 DUP2 PUSH2 0x1F27 JUMP JUMPDEST SWAP1 POP SWAP2 SWAP1 POP JUMP JUMPDEST PUSH32 0x54696D656C6F636B3A206F7065726174696F6E20616C72656164792063616E63 PUSH0 DUP3 ADD MSTORE PUSH32 0x656C656400000000000000000000000000000000000000000000000000000000 PUSH1 0x20 DUP3 ADD MSTORE POP JUMP JUMPDEST PUSH0 PUSH2 0x1FC1 PUSH1 0x24 DUP4 PUSH2 0x16D0 JUMP JUMPDEST SWAP2 POP PUSH2 0x1FCC DUP3 PUSH2 0x1F67 JUMP JUMPDEST PUSH1 0x40 DUP3 ADD SWAP1 POP SWAP2 SWAP1 POP JUMP JUMPDEST PUSH0 PUSH1 0x20 DUP3 ADD SWAP1 POP DUP2 DUP2 SUB PUSH0 DUP4 ADD MSTORE PUSH2 0x1FEE DUP2 PUSH2 0x1FB5 JUMP JUMPDEST SWAP1 POP SWAP2 SWAP1 POP JUMP JUMPDEST PUSH32 0x54696D656C6F636B3A207265656E7472616E742063616C6C0000000000000000 PUSH0 DUP3 ADD MSTORE POP JUMP JUMPDEST PUSH0 PUSH2 0x2029 PUSH1 0x18 DUP4 PUSH2 0x16D0 JUMP JUMPDEST SWAP2 POP PUSH2 0x2034 DUP3 PUSH2 0x1FF5 JUMP JUMPDEST PUSH1 0x20 DUP3 ADD SWAP1 POP SWAP2 SWAP1 POP JUMP JUMPDEST PUSH0 PUSH1 0x20 DUP3 ADD SWAP1 POP DUP2 DUP2 SUB PUSH0 DUP4 ADD MSTORE PUSH2 0x2056 DUP2 PUSH2 0x201D JUMP JUMPDEST SWAP1 POP SWAP2 SWAP1 POP JUMP JUMPDEST PUSH32 0x54696D656C6F636B3A206F7065726174696F6E2063616E63656C656400000000 PUSH0 DUP3 ADD MSTORE POP JUMP JUMPDEST PUSH0 PUSH2 0x2091 PUSH1 0x1C DUP4 PUSH2 0x16D0 JUMP JUMPDEST SWAP2 POP PUSH2 0x209C DUP3 PUSH2 0x205D JUMP JUMPDEST PUSH1 0x20 DUP3 ADD SWAP1 POP SWAP2 SWAP1 POP JUMP JUMPDEST PUSH0 PUSH1 0x20 DUP3 ADD SWAP1 POP DUP2 DUP2 SUB PUSH0 DUP4 ADD MSTORE PUSH2 0x20BE DUP2 PUSH2 0x2085 JUMP JUMPDEST SWAP1 POP SWAP2 SWAP1 POP JUMP JUMPDEST PUSH32 0x54696D656C6F636B3A20746F6F206561726C7900000000000000000000000000 PUSH0 DUP3 ADD MSTORE POP JUMP JUMPDEST PUSH0 PUSH2 0x20F9 PUSH1 0x13 DUP4 PUSH2 0x16D0 JUMP JUMPDEST SWAP2 POP PUSH2 0x2104 DUP3 PUSH2 0x20C5 JUMP JUMPDEST PUSH1 0x20 DUP3 ADD SWAP1 POP SWAP2 SWAP1 POP JUMP JUMPDEST PUSH0 PUSH1 0x20 DUP3 ADD SWAP1 POP DUP2 DUP2 SUB PUSH0 DUP4 ADD MSTORE PUSH2 0x2126 DUP2 PUSH2 0x20ED JUMP JUMPDEST SWAP1 POP SWAP2 SWAP1 POP JUMP JUMPDEST PUSH32 0x54696D656C6F636B3A206F7065726174696F6E20657870697265640000000000 PUSH0 DUP3 ADD MSTORE POP JUMP JUMPDEST PUSH0 PUSH2 0x2161 PUSH1 0x1B DUP4 PUSH2 0x16D0 JUMP JUMPDEST SWAP2 POP PUSH2 0x216C DUP3 PUSH2 0x212D JUMP JUMPDEST PUSH1 0x20 DUP3 ADD SWAP1 POP SWAP2 SWAP1 POP JUMP JUMPDEST PUSH0 PUSH1 0x20 DUP3 ADD SWAP1 POP DUP2 DUP2 SUB PUSH0 DUP4 ADD MSTORE PUSH2 0x218E DUP2 PUSH2 0x2155 JUMP JUMPDEST SWAP1 POP SWAP2 SWAP1 POP JUMP JUMPDEST PUSH0 DUP2 SWAP1 POP SWAP3 SWAP2 POP POP JUMP JUMPDEST PUSH0 DUP2 SWAP1 POP DUP2 PUSH0 MSTORE PUSH1 0x20 PUSH0 KECCAK256 SWAP1 POP SWAP2 SWAP1 POP JUMP JUMPDEST PUSH0 DUP2 SLOAD PUSH2 0x21BD DUP2 PUSH2 0x1A5A JUMP JUMPDEST PUSH2 0x21C7 DUP2 DUP7 PUSH2 0x2195 JUMP JUMPDEST SWAP5 POP PUSH1 0x1 DUP3 AND PUSH0 DUP2 EQ PUSH2 0x21E1 JUMPI PUSH1 0x1 DUP2 EQ PUSH2 0x21F6 JUMPI PUSH2 0x2228 JUMP JUMPDEST PUSH1 0xFF NOT DUP4 AND DUP7 MSTORE DUP2 ISZERO ISZERO DUP3 MUL DUP7 ADD SWAP4 POP PUSH2 0x2228 JUMP JUMPDEST PUSH2 0x21FF DUP6 PUSH2 0x219F JUMP JUMPDEST PUSH0 JUMPDEST DUP4 DUP2 LT ISZERO PUSH2 0x2220 JUMPI DUP2 SLOAD DUP2 DUP10 ADD MSTORE PUSH1 0x1 DUP3 ADD SWAP2 POP PUSH1 0x20 DUP2 ADD SWAP1 POP PUSH2 0x2201 JUMP JUMPDEST DUP4 DUP9 ADD SWAP6 POP POP POP JUMPDEST POP POP POP SWAP3 SWAP2 POP POP JUMP JUMPDEST PUSH0 PUSH2 0x223C DUP3 DUP5 PUSH2 0x21B1 JUMP JUMPDEST SWAP2 POP DUP2 SWAP1 POP SWAP3 SWAP2 POP POP JUMP JUMPDEST PUSH0 PUSH32 0xFFFFFFFF00000000000000000000000000000000000000000000000000000000 DUP3 AND SWAP1 POP SWAP2 SWAP1 POP JUMP JUMPDEST PUSH0 DUP2 SWAP1 POP SWAP2 SWAP1 POP JUMP JUMPDEST PUSH2 0x228C PUSH2 0x2287 DUP3 PUSH2 0x2247 JUMP JUMPDEST PUSH2 0x2272 JUMP JUMPDEST DUP3 MSTORE POP POP JUMP JUMPDEST PUSH0 DUP2 SLOAD PUSH2 0x229E DUP2 PUSH2 0x1A5A JUMP JUMPDEST PUSH2 0x22A8 DUP2 DUP7 PUSH2 0x2195 JUMP JUMPDEST SWAP5 POP PUSH1 0x1 DUP3 AND PUSH0 DUP2 EQ PUSH2 0x22C2 JUMPI PUSH1 0x1 DUP2 EQ PUSH2 0x22D7 JUMPI PUSH2 0x2309 JUMP JUMPDEST PUSH1 0xFF NOT DUP4 AND DUP7 MSTORE DUP2 ISZERO ISZERO DUP3 MUL DUP7 ADD SWAP4 POP PUSH2 0x2309 JUMP JUMPDEST PUSH2 0x22E0 DUP6 PUSH2 0x1CF9 JUMP JUMPDEST PUSH0 JUMPDEST DUP4 DUP2 LT ISZERO PUSH2 0x2301 JUMPI DUP2 SLOAD DUP2 DUP10 ADD MSTORE PUSH1 0x1 DUP3 ADD SWAP2 POP PUSH1 0x20 DUP2 ADD SWAP1 POP PUSH2 0x22E2 JUMP JUMPDEST DUP4 DUP9 ADD SWAP6 POP POP POP JUMPDEST POP POP POP SWAP3 SWAP2 POP POP JUMP JUMPDEST PUSH0 PUSH2 0x231D DUP3 DUP6 PUSH2 0x227B JUMP JUMPDEST PUSH1 0x4 DUP3 ADD SWAP2 POP PUSH2 0x232D DUP3 DUP5 PUSH2 0x2292 JUMP JUMPDEST SWAP2 POP DUP2 SWAP1 POP SWAP4 SWAP3 POP POP POP JUMP JUMPDEST PUSH0 PUSH2 0x2343 DUP3 PUSH2 0x1726 JUMP JUMPDEST PUSH2 0x234D DUP2 DUP6 PUSH2 0x2195 JUMP JUMPDEST SWAP4 POP PUSH2 0x235D DUP2 DUP6 PUSH1 0x20 DUP7 ADD PUSH2 0x16E0 JUMP JUMPDEST DUP1 DUP5 ADD SWAP2 POP POP SWAP3 SWAP2 POP POP JUMP JUMPDEST PUSH0 PUSH2 0x2374 DUP3 DUP5 PUSH2 0x2339 JUMP JUMPDEST SWAP2 POP DUP2 SWAP1 POP SWAP3 SWAP2 POP POP JUMP JUMPDEST PUSH0 PUSH1 0x20 DUP3 ADD SWAP1 POP DUP2 DUP2 SUB PUSH0 DUP4 ADD MSTORE PUSH2 0x2397 DUP2 DUP5 PUSH2 0x16EE JUMP JUMPDEST SWAP1 POP SWAP3 SWAP2 POP POP JUMP JUMPDEST PUSH0 DUP2 SLOAD PUSH2 0x23AB DUP2 PUSH2 0x1A5A JUMP JUMPDEST PUSH2 0x23B5 DUP2 DUP7 PUSH2 0x16D0 JUMP JUMPDEST SWAP5 POP PUSH1 0x1 DUP3 AND PUSH0 DUP2 EQ PUSH2 0x23CF JUMPI PUSH1 0x1 DUP2 EQ PUSH2 0x23E5 JUMPI PUSH2 0x2417 JUMP JUMPDEST PUSH1 0xFF NOT DUP4 AND DUP7 MSTORE DUP2 ISZERO ISZERO PUSH1 0x20 MUL DUP7 ADD SWAP4 POP PUSH2 0x2417 JUMP JUMPDEST PUSH2 0x23EE DUP6 PUSH2 0x1A8A JUMP JUMPDEST PUSH0 JUMPDEST DUP4 DUP2 LT ISZERO PUSH2 0x240F JUMPI DUP2 SLOAD DUP2 DUP10 ADD MSTORE PUSH1 0x1 DUP3 ADD SWAP2 POP PUSH1 0x20 DUP2 ADD SWAP1 POP PUSH2 0x23F0 JUMP JUMPDEST DUP1 DUP9 ADD SWAP6 POP POP POP JUMPDEST POP POP POP SWAP3 SWAP2 POP POP JUMP JUMPDEST PUSH0 DUP2 SLOAD PUSH2 0x242C DUP2 PUSH2 0x1A5A JUMP JUMPDEST PUSH2 0x2436 DUP2 DUP7 PUSH2 0x1730 JUMP JUMPDEST SWAP5 POP PUSH1 0x1 DUP3 AND PUSH0 DUP2 EQ PUSH2 0x2450 JUMPI PUSH1 0x1 DUP2 EQ PUSH2 0x2466 JUMPI PUSH2 0x2498 JUMP JUMPDEST PUSH1 0xFF NOT DUP4 AND DUP7 MSTORE DUP2 ISZERO ISZERO PUSH1 0x20 MUL DUP7 ADD SWAP4 POP PUSH2 0x2498 JUMP JUMPDEST PUSH2 0x246F DUP6 PUSH2 0x1CF9 JUMP JUMPDEST PUSH0 JUMPDEST DUP4 DUP2 LT ISZERO PUSH2 0x2490 JUMPI DUP2 SLOAD DUP2 DUP10 ADD MSTORE PUSH1 0x1 DUP3 ADD SWAP2 POP PUSH1 0x20 DUP2 ADD SWAP1 POP PUSH2 0x2471 JUMP JUMPDEST DUP1 DUP9 ADD SWAP6 POP POP POP JUMPDEST POP POP POP SWAP3 SWAP2 POP POP JUMP JUMPDEST PUSH0 PUSH1 0x60 DUP3 ADD SWAP1 POP PUSH2 0x24B4 PUSH0 DUP4 ADD DUP7 PUSH2 0x1296 JUMP JUMPDEST DUP2 DUP2 SUB PUSH1 0x20 DUP4 ADD MSTORE PUSH2 0x24C6 DUP2 DUP6 PUSH2 0x239F JUMP JUMPDEST SWAP1 POP DUP2 DUP2 SUB PUSH1 0x40 DUP4 ADD MSTORE PUSH2 0x24DA DUP2 DUP5 PUSH2 0x2420 JUMP JUMPDEST SWAP1 POP SWAP5 SWAP4 POP POP POP POP JUMP JUMPDEST PUSH0 PUSH1 0x80 DUP3 ADD SWAP1 POP PUSH2 0x24F7 PUSH0 DUP4 ADD DUP8 PUSH2 0x13AC JUMP JUMPDEST PUSH2 0x2504 PUSH1 0x20 DUP4 ADD DUP7 PUSH2 0x1296 JUMP JUMPDEST DUP2 DUP2 SUB PUSH1 0x40 DUP4 ADD MSTORE PUSH2 0x2516 DUP2 DUP6 PUSH2 0x16EE JUMP JUMPDEST SWAP1 POP DUP2 DUP2 SUB PUSH1 0x60 DUP4 ADD MSTORE PUSH2 0x252A DUP2 DUP5 PUSH2 0x1740 JUMP JUMPDEST SWAP1 POP SWAP6 SWAP5 POP POP POP POP POP JUMP JUMPDEST PUSH32 0x54696D656C6F636B3A20696E76616C6964206772616365506572696F64000000 PUSH0 DUP3 ADD MSTORE POP JUMP JUMPDEST PUSH0 PUSH2 0x2569 PUSH1 0x1D DUP4 PUSH2 0x16D0 JUMP JUMPDEST SWAP2 POP PUSH2 0x2574 DUP3 PUSH2 0x2535 JUMP JUMPDEST PUSH1 0x20 DUP3 ADD SWAP1 POP SWAP2 SWAP1 POP JUMP JUMPDEST PUSH0 PUSH1 0x20 DUP3 ADD SWAP1 POP DUP2 DUP2 SUB PUSH0 DUP4 ADD MSTORE PUSH2 0x2596 DUP2 PUSH2 0x255D JUMP JUMPDEST SWAP1 POP SWAP2 SWAP1 POP JUMP JUMPDEST PUSH32 0x54696D656C6F636B3A20696E76616C6964206E6577206F776E65720000000000 PUSH0 DUP3 ADD MSTORE POP JUMP JUMPDEST PUSH0 PUSH2 0x25D1 PUSH1 0x1B DUP4 PUSH2 0x16D0 JUMP JUMPDEST SWAP2 POP PUSH2 0x25DC DUP3 PUSH2 0x259D JUMP JUMPDEST PUSH1 0x20 DUP3 ADD SWAP1 POP SWAP2 SWAP1 POP JUMP JUMPDEST PUSH0 PUSH1 0x20 DUP3 ADD SWAP1 POP DUP2 DUP2 SUB PUSH0 DUP4 ADD MSTORE PUSH2 0x25FE DUP2 PUSH2 0x25C5 JUMP JUMPDEST SWAP1 POP SWAP2 SWAP1 POP JUMP JUMPDEST PUSH0 PUSH2 0x2617 PUSH2 0x2612 DUP5 PUSH2 0x14B8 JUMP JUMPDEST PUSH2 0x149E JUMP JUMPDEST SWAP1 POP DUP3 DUP2 MSTORE PUSH1 0x20 DUP2 ADD DUP5 DUP5 DUP5 ADD GT ISZERO PUSH2 0x2633 JUMPI PUSH2 0x2632 PUSH2 0x142C JUMP JUMPDEST JUMPDEST PUSH2 0x263E DUP5 DUP3 DUP6 PUSH2 0x16E0 JUMP JUMPDEST POP SWAP4 SWAP3 POP POP POP JUMP JUMPDEST PUSH0 DUP3 PUSH1 0x1F DUP4 ADD SLT PUSH2 0x265A JUMPI PUSH2 0x2659 PUSH2 0x1428 JUMP JUMPDEST JUMPDEST DUP2 MLOAD PUSH2 0x266A DUP5 DUP3 PUSH1 0x20 DUP7 ADD PUSH2 0x2605 JUMP JUMPDEST SWAP2 POP POP SWAP3 SWAP2 POP POP JUMP JUMPDEST PUSH0 PUSH1 0x20 DUP3 DUP5 SUB SLT ISZERO PUSH2 0x2688 JUMPI PUSH2 0x2687 PUSH2 0x12C7 JUMP JUMPDEST JUMPDEST PUSH0 DUP3 ADD MLOAD PUSH8 0xFFFFFFFFFFFFFFFF DUP2 GT ISZERO PUSH2 0x26A5 JUMPI PUSH2 0x26A4 PUSH2 0x12CB JUMP JUMPDEST JUMPDEST PUSH2 0x26B1 DUP5 DUP3 DUP6 ADD PUSH2 0x2646 JUMP JUMPDEST SWAP2 POP POP SWAP3 SWAP2 POP POP JUMP INVALID SLOAD PUSH10 0x6D656C6F636B3A206361 PUSH13 0x6C207265766572746564207769 PUSH21 0x686F7574206D657373616765A26469706673582212 KECCAK256 0x1E 0xE6 PUSH1 0xB9 0xDA CODESIZE ADDRESS 0x21 PUSH9 0x6B60D46D9B650445EF PUSH20 0x3CCA5EE4F2E4DB60054FD10D3C64736F6C634300 ADDMOD SHR STOP CALLER "
		},
		"gasEstimates": {
			"creation": {
				"codeDepositCost": "2001400",
				"executionCost": "infinite",
				"totalCost": "infinite"
			},
			"external": {
				"cancel(bytes32)": "34794",
				"delay()": "2426",
				"execute(bytes32)": "infinite",
				"getEarliestExecutionTime(bytes32)": "2854",
				"getOperationId(address,uint256,string,bytes)": "infinite",
				"getOperationStatus(bytes32)": "infinite",
				"gracePeriod()": "2491",
				"operations(bytes32)": "infinite",
				"owner()": "2553",
				"schedule(address,uint256,string,bytes)": "infinite",
				"setDelay(uint256)": "24729",
				"setGracePeriod(uint256)": "24771",
				"transferOwnership(address)": "27006"
			},
			"internal": {
				"_getRevertMsg(bytes memory)": "infinite"
			}
		},
		"methodIdentifiers": {
			"cancel(bytes32)": "c4d252f5",
			"delay()": "6a42b8f8",
			"execute(bytes32)": "e751f271",
			"getEarliestExecutionTime(bytes32)": "e31fa19a",
			"getOperationId(address,uint256,string,bytes)": "f087dd24",
			"getOperationStatus(bytes32)": "727c6c5a",
			"gracePeriod()": "a06db7dc",
			"operations(bytes32)": "c74f349b",
			"owner()": "8da5cb5b",
			"schedule(address,uint256,string,bytes)": "baa1f377",
			"setDelay(uint256)": "e177246e",
			"setGracePeriod(uint256)": "f2f65960",
			"transferOwnership(address)": "f2fde38b"
		}
	},
	"abi": [
		{
			"inputs": [
				{
					"internalType": "address",
					"name": "_owner",
					"type": "address"
				},
				{
					"internalType": "uint256",
					"name": "_delay",
					"type": "uint256"
				},
				{
					"internalType": "uint256",
					"name": "_gracePeriod",
					"type": "uint256"
				}
			],
			"stateMutability": "nonpayable",
			"type": "constructor"
		},
		{
			"anonymous": false,
			"inputs": [
				{
					"indexed": true,
					"internalType": "bytes32",
					"name": "operationId",
					"type": "bytes32"
				}
			],
			"name": "OperationCanceled",
			"type": "event"
		},
		{
			"anonymous": false,
			"inputs": [
				{
					"indexed": true,
					"internalType": "bytes32",
					"name": "operationId",
					"type": "bytes32"
				},
				{
					"indexed": true,
					"internalType": "address",
					"name": "target",
					"type": "address"
				},
				{
					"indexed": false,
					"internalType": "uint256",
					"name": "value",
					"type": "uint256"
				},
				{
					"indexed": false,
					"internalType": "string",
					"name": "signature",
					"type": "string"
				},
				{
					"indexed": false,
					"internalType": "bytes",
					"name": "callData",
					"type": "bytes"
				}
			],
			"name": "OperationExecuted",
			"type": "event"
		},
		{
			"anonymous": false,
			"inputs": [
				{
					"indexed": true,
					"internalType": "bytes32",
					"name": "operationId",
					"type": "bytes32"
				},
				{
					"indexed": true,
					"internalType": "address",
					"name": "target",
					"type": "address"
				},
				{
					"indexed": false,
					"internalType": "uint256",
					"name": "value",
					"type": "uint256"
				},
				{
					"indexed": false,
					"internalType": "string",
					"name": "signature",
					"type": "string"
				},
				{
					"indexed": false,
					"internalType": "bytes",
					"name": "callData",
					"type": "bytes"
				},
				{
					"indexed": false,
					"internalType": "uint256",
					"name": "earliestExecTime",
					"type": "uint256"
				}
			],
			"name": "OperationScheduled",
			"type": "event"
		},
		{
			"inputs": [
				{
					"internalType": "bytes32",
					"name": "operationId",
					"type": "bytes32"
				}
			],
			"name": "cancel",
			"outputs": [],
			"stateMutability": "nonpayable",
			"type": "function"
		},
		{
			"inputs": [],
			"name": "delay",
			"outputs": [
				{
					"internalType": "uint256",
					"name": "",
					"type": "uint256"
				}
			],
			"stateMutability": "view",
			"type": "function"
		},
		{
			"inputs": [
				{
					"internalType": "bytes32",
					"name": "operationId",
					"type": "bytes32"
				}
			],
			"name": "execute",
			"outputs": [],
			"stateMutability": "payable",
			"type": "function"
		},
		{
			"inputs": [
				{
					"internalType": "bytes32",
					"name": "operationId",
					"type": "bytes32"
				}
			],
			"name": "getEarliestExecutionTime",
			"outputs": [
				{
					"internalType": "uint256",
					"name": "",
					"type": "uint256"
				}
			],
			"stateMutability": "view",
			"type": "function"
		},
		{
			"inputs": [
				{
					"internalType": "address",
					"name": "target",
					"type": "address"
				},
				{
					"internalType": "uint256",
					"name": "value",
					"type": "uint256"
				},
				{
					"internalType": "string",
					"name": "signature",
					"type": "string"
				},
				{
					"internalType": "bytes",
					"name": "callData",
					"type": "bytes"
				}
			],
			"name": "getOperationId",
			"outputs": [
				{
					"internalType": "bytes32",
					"name": "",
					"type": "bytes32"
				}
			],
			"stateMutability": "pure",
			"type": "function"
		},
		{
			"inputs": [
				{
					"internalType": "bytes32",
					"name": "operationId",
					"type": "bytes32"
				}
			],
			"name": "getOperationStatus",
			"outputs": [
				{
					"internalType": "bool",
					"name": "scheduled",
					"type": "bool"
				},
				{
					"internalType": "bool",
					"name": "canceled",
					"type": "bool"
				},
				{
					"internalType": "bool",
					"name": "executed",
					"type": "bool"
				}
			],
			"stateMutability": "view",
			"type": "function"
		},
		{
			"inputs": [],
			"name": "gracePeriod",
			"outputs": [
				{
					"internalType": "uint256",
					"name": "",
					"type": "uint256"
				}
			],
			"stateMutability": "view",
			"type": "function"
		},
		{
			"inputs": [
				{
					"internalType": "bytes32",
					"name": "",
					"type": "bytes32"
				}
			],
			"name": "operations",
			"outputs": [
				{
					"internalType": "address",
					"name": "target",
					"type": "address"
				},
				{
					"internalType": "uint256",
					"name": "value",
					"type": "uint256"
				},
				{
					"internalType": "string",
					"name": "signature",
					"type": "string"
				},
				{
					"internalType": "bytes",
					"name": "callData",
					"type": "bytes"
				},
				{
					"internalType": "uint256",
					"name": "earliestExecTime",
					"type": "uint256"
				},
				{
					"internalType": "bool",
					"name": "executed",
					"type": "bool"
				},
				{
					"internalType": "bool",
					"name": "canceled",
					"type": "bool"
				}
			],
			"stateMutability": "view",
			"type": "function"
		},
		{
			"inputs": [],
			"name": "owner",
			"outputs": [
				{
					"internalType": "address",
					"name": "",
					"type": "address"
				}
			],
			"stateMutability": "view",
			"type": "function"
		},
		{
			"inputs": [
				{
					"internalType": "address",
					"name": "target",
					"type": "address"
				},
				{
					"internalType": "uint256",
					"name": "value",
					"type": "uint256"
				},
				{
					"internalType": "string",
					"name": "signature",
					"type": "string"
				},
				{
					"internalType": "bytes",
					"name": "callData",
					"type": "bytes"
				}
			],
			"name": "schedule",
			"outputs": [
				{
					"internalType": "bytes32",
					"name": "operationId",
					"type": "bytes32"
				}
			],
			"stateMutability": "nonpayable",
			"type": "function"
		},
		{
			"inputs": [
				{
					"internalType": "uint256",
					"name": "newDelay",
					"type": "uint256"
				}
			],
			"name": "setDelay",
			"outputs": [],
			"stateMutability": "nonpayable",
			"type": "function"
		},
		{
			"inputs": [
				{
					"internalType": "uint256",
					"name": "newGracePeriod",
					"type": "uint256"
				}
			],
			"name": "setGracePeriod",
			"outputs": [],
			"stateMutability": "nonpayable",
			"type": "function"
		},
		{
			"inputs": [
				{
					"internalType": "address",
					"name": "newOwner",
					"type": "address"
				}
			],
			"name": "transferOwnership",
			"outputs": [],
			"stateMutability": "nonpayable",
			"type": "function"
		},
		{
			"stateMutability": "payable",
			"type": "receive"
		}
	]
}