{
	"data": {
		"bytecode": {
			"linkReferences": {},
			"object": "60a0604052306080523480156012575f5ffd5b50608051614b7d6100475f395f818161104901528181611089015281816116f60152818161173601526117c70152614b7d5ff3fe608060405260043610610241575f3560e01c806355a164be1161013457806395d89b41116100b3578063b40b3e4c11610078578063b40b3e4c146106f7578063c1d2d00d14610716578063c4aa739514610735578063c7493fd61461074b578063dd62ed3e1461076a578063f2fde38b14610789575f5ffd5b806395d89b41146106725780639d7de6b3146106865780639e0879c2146106a5578063a457c2d7146106b9578063a9059cbb146106d8575f5ffd5b806376e924a8116100f957806376e924a8146105d6578063791b98bc146105f65780637d07b2d2146106165780638bdb2afa146106355780638da5cb5b14610655575f5ffd5b806355a164be14610538578063565d878c146105575780635c975abb1461057757806370a082311461058e578063715018a6146105c2575f5ffd5b806325fc1b3d116101c05780634046ebae116101855780634046ebae146104a7578063468f02d2146104c75780634bf1878b146104f25780634f1ef2861461051157806352d1902d14610524575f5ffd5b806325fc1b3d14610410578063313ce5671461042f5780633659cfe61461044a57806338de1815146104695780633950935114610488575f5ffd5b806318160ddd1161020657806318160ddd146103275780631d14cd0f146103455780632122f53b1461036457806323b872dd1461038357806325a4015d146103a2575f5ffd5b806301d22ccd1461024c57806306fdde0314610289578063095ea7b3146102aa5780630b7562be146102d9578063150b7a02146102ef575f5ffd5b3661024857005b5f5ffd5b348015610257575f5ffd5b506101605461026c906001600160a01b031681565b6040516001600160a01b0390911681526020015b60405180910390f35b348015610294575f5ffd5b5061029d6107a8565b6040516102809190613eb5565b3480156102b5575f5ffd5b506102c96102c4366004613f0b565b610838565b6040519015158152602001610280565b3480156102e4575f5ffd5b506102ed610851565b005b3480156102fa575f5ffd5b5061030e610309366004613f7a565b610863565b6040516001600160e01b03199091168152602001610280565b348015610332575f5ffd5b506035545b604051908152602001610280565b348015610350575f5ffd5b506102ed61035f366004613fe8565b610b16565b34801561036f575f5ffd5b506102ed61037e366004614027565b610c3f565b34801561038e575f5ffd5b506102c961039d366004614050565b610f7f565b3480156103ad575f5ffd5b506103ea6103bc36600461408e565b6101666020525f908152604090208054600182015460029092015460ff90911691906001600160a01b031683565b60408051931515845260208401929092526001600160a01b031690820152606001610280565b34801561041b575f5ffd5b506102ed61042a36600461408e565b610fa4565b34801561043a575f5ffd5b5060405160128152602001610280565b348015610455575f5ffd5b506102ed6104643660046140a5565b61103f565b348015610474575f5ffd5b506102ed6104833660046140c0565b61111c565b348015610493575f5ffd5b506102c96104a2366004613f0b565b611252565b3480156104b2575f5ffd5b506101615461026c906001600160a01b031681565b3480156104d2575f5ffd5b506104db611273565b6040805192835260ff909116602083015201610280565b3480156104fd575f5ffd5b506102ed61050c366004614197565b6112e9565b6102ed61051f36600461427d565b6116ec565b34801561052f575f5ffd5b506103376117bb565b348015610543575f5ffd5b506102ed6105523660046142dd565b61186c565b348015610562575f5ffd5b5061015f5461026c906001600160a01b031681565b348015610582575f5ffd5b5060655460ff166102c9565b348015610599575f5ffd5b506103376105a83660046140a5565b6001600160a01b03165f9081526033602052604090205490565b3480156105cd575f5ffd5b506102ed61192c565b3480156105e1575f5ffd5b506101645461026c906001600160a01b031681565b348015610601575f5ffd5b506101635461026c906001600160a01b031681565b348015610621575f5ffd5b5061033761063036600461408e565b61193d565b348015610640575f5ffd5b506101625461026c906001600160a01b031681565b348015610660575f5ffd5b5060c9546001600160a01b031661026c565b34801561067d575f5ffd5b5061029d61195d565b348015610691575f5ffd5b506102ed6106a036600461432e565b61196c565b3480156106b0575f5ffd5b506102ed611e47565b3480156106c4575f5ffd5b506102c96106d3366004613f0b565b611e57565b3480156106e3575f5ffd5b506102c96106f2366004613f0b565b611edc565b348015610702575f5ffd5b506102ed61071136600461434e565b611ee9565b348015610721575f5ffd5b506102ed6107303660046140c0565b611fd9565b348015610740575f5ffd5b506103376101655481565b348015610756575f5ffd5b506102ed61076536600461437d565b61218c565b348015610775575f5ffd5b506103376107843660046143ba565b6122f6565b348015610794575f5ffd5b506102ed6107a33660046140a5565b612320565b6060603680546107b7906143e6565b80601f01602080910402602001604051908101604052809291908181526020018280546107e3906143e6565b801561082e5780601f106108055761010080835404028352916020019161082e565b820191905f5260205f20905b81548152906001019060200180831161081157829003601f168201915b5050505050905090565b5f33610845818585612396565b60019150505b92915050565b6108596124b9565b610861612513565b565b5f61086c612565565b6108746125be565b610163546001600160a01b031633146108c75760405162461bcd60e51b815260206004820152601060248201526f5661756c743a206f6e6c79204e46504d60801b60448201526064015b60405180910390fd5b5f848152610166602052604090205460ff16156109265760405162461bcd60e51b815260206004820152601f60248201527f5661756c743a20746f6b656e496420616c726561647920696e207661756c740060448201526064016108be565b61092f84612604565b5f61093985612759565b90505f61094560355490565b90505f610950612c35565b9050825f838103610962575080610988565b821561096e5782610971565b60015b61097b858461442c565b6109859190614443565b90505b5f811180610994575083155b6109e05760405162461bcd60e51b815260206004820152601760248201527f5661756c743a204e4654203d3e2030207368617265733f00000000000000000060448201526064016108be565b60405180606001604052806001151581526020018281526020018b6001600160a01b03168152506101665f8b81526020019081526020015f205f820151815f015f6101000a81548160ff021916908315150217905550602082015181600101556040820151816002015f6101000a8154816001600160a01b0302191690836001600160a01b0316021790555090505061016789908060018154018082558091505060019003905f5260205f20015f90919091909150555f811115610aa857610aa88a82612ca5565b604080518a8152602081018390529081018690526001600160a01b038b16907f60d7156961ef4133d50d1e8d0a58639ec4b601e42f83547460e68f2e089242379060600160405180910390a250630a85bd0160e11b945050505050610b0d6001609755565b95945050505050565b610161546001600160a01b03163314610b6a5760405162461bcd60e51b81526020600482015260166024820152752b30bab63a1d1037b7363c902634b8bab4b230ba37b960511b60448201526064016108be565b81610b89846001600160a01b03165f9081526033602052604090205490565b1015610bd75760405162461bcd60e51b815260206004820152601a60248201527f5661756c743a20696e73756666696369656e742073686172657300000000000060448201526064016108be565b610be18383612d6b565b610beb8183612ca5565b604080516001600160a01b038086168252602082018590528316918101919091527fa0d95140be1c2ee7d2d7d5a5ddc081ae79fce2936424ad22e408a868e82811b1906060015b60405180910390a1505050565b610c47612565565b610c4f6125be565b5f83815261016660205260409020805460ff16610c7e5760405162461bcd60e51b81526004016108be90614462565b5f831180610c8b57505f82115b610ccc5760405162461bcd60e51b81526020600482015260126024820152714e6f206465706f73697420616d6f756e747360701b60448201526064016108be565b610cd584612604565b5f610cde612c35565b90505f610cea60355490565b90505f61271061016554612710610d019190614492565b610d0b908861442c565b610d159190614443565b90505f61271061016554612710610d2c9190614492565b610d36908861442c565b610d409190614443565b90505f6040518060c001604052808a815260200189815260200188815260200184815260200183815260200142610708610d7a91906144a5565b9052610163546040805163219f5d1760e01b81528351600482015260208401516024820152908301516044820152606083015160648201526080830151608482015260a083015160a48201529192505f916001600160a01b039091169063219f5d179060c4016060604051808303815f875af1158015610dfc573d5f5f3e3d5ffd5b505050506040513d601f19601f82011682018060405250810190610e2091906144ce565b505090505f816001600160801b031611610e715760405162461bcd60e51b8152602060048201526012602482015271139bc81b1a5c5d5a591a5d1e48185919195960721b60448201526064016108be565b5f610e7a612c35565b9050868111610ebb5760405162461bcd60e51b815260206004820152600d60248201526c4e6f206e65742076616c75653f60981b60448201526064016108be565b5f610ec68883614492565b90505f8715610ef7578815610edb5788610ede565b60015b610ee8898461442c565b610ef29190614443565b610ef9565b815b9050808a6001015f828254610f0e91906144a5565b90915550508015610f2357610f233382612ca5565b604080518e81526020810183905290810183905233907f64b83944e79c3ce8d4c297411de637c3e102d064677aac0c163976ebdcd6f50e9060600160405180910390a250505050505050505050610f7a6001609755565b505050565b5f33610f8c858285612e9d565b610f97858585612f15565b60019150505b9392505050565b610fac6124b9565b611388811115610ff95760405162461bcd60e51b81526020600482015260186024820152770acc2ead8e87440e6d8d2e0e0c2ceca40e8dede40d0d2ced60431b60448201526064016108be565b61016580549082905560408051828152602081018490527f07af09e2b23ebab5dd29fa2271d6ca4795031f308caf26ca605f4a719ffeed61910160405180910390a15050565b6001600160a01b037f00000000000000000000000000000000000000000000000000000000000000001630036110875760405162461bcd60e51b81526004016108be90614500565b7f00000000000000000000000000000000000000000000000000000000000000006001600160a01b03166110cf5f516020614b015f395f51905f52546001600160a01b031690565b6001600160a01b0316146110f55760405162461bcd60e51b81526004016108be9061454c565b6110fe816130be565b604080515f80825260208201909252611119918391906130c6565b50565b610160546001600160a01b031633146111705760405162461bcd60e51b81526020600482015260166024820152752b30bab63a1d1037b7363c903932b130b630b731b2b960511b60448201526064016108be565b5f82116111af5760405162461bcd60e51b815260206004820152600d60248201526c4e6f20657874726156616c756560981b60448201526064016108be565b5f6111b8612c35565b90505f6111c460355490565b90505f81156111f55782156111d957826111dc565b60015b6111e6838761442c565b6111f09190614443565b6111f7565b845b90506112038482612ca5565b604080518681526001600160a01b03861660208201529081018290527eb5e71e55364db75d28c23ed81a549a22d42c4ba6520e67a2fbd26ec2742f6e9060600160405180910390a15050505050565b5f3361084581858561126483836122f6565b61126e91906144a5565b612396565b61015f546040516341976e0960e01b81523060048201525f9182916001600160a01b03909116906341976e09906024016040805180830381865afa1580156112bd573d5f5f3e3d5ffd5b505050506040513d601f19601f820116820180604052508101906112e191906145a8565b915091509091565b5f54610100900460ff161580801561130757505f54600160ff909116105b806113205750303b15801561132057505f5460ff166001145b6113835760405162461bcd60e51b815260206004820152602e60248201527f496e697469616c697a61626c653a20636f6e747261637420697320616c72656160448201526d191e481a5b9a5d1a585b1a5e995960921b60648201526084016108be565b5f805460ff1916600117905580156113a4575f805461ff0019166101001790555b6113ac613230565b6113b58561325e565b6113bf84846132af565b6113c76132df565b6113cf61330d565b6113d761333b565b6001600160a01b038b166114255760405162461bcd60e51b81526020600482015260156024820152742b30bab63a1d1034b73b30b634b2103837b9a6b3b960591b60448201526064016108be565b6001600160a01b038a166114745760405162461bcd60e51b81526020600482015260166024820152755661756c743a20696e76616c696420666163746f727960501b60448201526064016108be565b6001600160a01b0389166114c05760405162461bcd60e51b815260206004820152601360248201527215985d5b1d0e881a5b9d985b1a59081c1bdbdb606a1b60448201526064016108be565b6001600160a01b03881661150e5760405162461bcd60e51b81526020600482015260156024820152745661756c743a20696e76616c6964206f7261636c6560581b60448201526064016108be565b6001600160a01b0387166115605760405162461bcd60e51b81526020600482015260196024820152782b30bab63a1d1034b73b30b634b2103932b130b630b731b2b960391b60448201526064016108be565b6001600160a01b0386166115b25760405162461bcd60e51b81526020600482015260196024820152782b30bab63a1d1034b73b30b634b2103634b8bab4b230ba37b960391b60448201526064016108be565b6113888211156115ff5760405162461bcd60e51b81526020600482015260186024820152770acc2ead8e87440e6d8d2e0e0c2ceca40e8dede40d0d2ced60431b60448201526064016108be565b61016380546001600160a01b03808e166001600160a01b03199283161790925561016280548d841690831617905561016480548c841690831617905561015f80548b8416908316811790915561016080548b851690841681179091556101618054948b169490931684179092556101658590556040517f8acbd7eb4c86b1a56ce5fe66f6b88a69246781309b0c60dd4aa7f03bea7a8a65905f90a480156116df575f805461ff0019169055604051600181527f7f26b83ff96e1f2b6a682f133852f6798a09c465da95921460cefb38474024989060200160405180910390a15b5050505050505050505050565b6001600160a01b037f00000000000000000000000000000000000000000000000000000000000000001630036117345760405162461bcd60e51b81526004016108be90614500565b7f00000000000000000000000000000000000000000000000000000000000000006001600160a01b031661177c5f516020614b015f395f51905f52546001600160a01b031690565b6001600160a01b0316146117a25760405162461bcd60e51b81526004016108be9061454c565b6117ab826130be565b6117b7828260016130c6565b5050565b5f306001600160a01b037f0000000000000000000000000000000000000000000000000000000000000000161461185a5760405162461bcd60e51b815260206004820152603860248201527f555550535570677261646561626c653a206d757374206e6f742062652063616c60448201527f6c6564207468726f7567682064656c656761746563616c6c000000000000000060648201526084016108be565b505f516020614b015f395f51905f5290565b6118746125be565b5f6118818284018461408e565b610161546040516326c0130360e01b81523060048201526001600160a01b038781166024830152604482018490529293509116906326c01303906064015f604051808303815f87803b1580156118d5575f5ffd5b505af11580156118e7573d5f5f3e3d5ffd5b505050507ffdca20cd5f0302bd6d0442b5430b1c9899479545645bf7453ab4f0dbb10370e984848460405161191e939291906145fa565b60405180910390a150505050565b6119346124b9565b6108615f61325e565b610167818154811061194d575f80fd5b5f91825260209091200154905081565b6060603780546107b7906143e6565b611974612565565b61197c6125be565b5f82815261016660205260409020805460ff166119ab5760405162461bcd60e51b81526004016108be90614462565b5f82116119e65760405162461bcd60e51b81526020600482015260096024820152686e6f2073686172657360b81b60448201526064016108be565b335f90815260336020526040902054821115611a3a5760405162461bcd60e51b8152602060048201526013602482015272696e73756666696369656e742073686172657360681b60448201526064016108be565b611a4383612604565b611a4d3383612d6b565b611aa56040518061012001604052805f81526020015f81526020015f6001600160801b031681526020015f6001600160801b031681526020015f81526020015f81526020015f81526020015f81526020015f81525090565b611aad612c35565b815282611ab960355490565b611ac391906144a5565b60208201526101635460405163133f757160e31b8152600481018690526001600160a01b03909116906399fbab889060240161018060405180830381865afa158015611b11573d5f5f3e3d5ffd5b505050506040513d601f19601f82011682018060405250810190611b35919061464c565b505050506001600160801b03166040890181905260208901519750611b6396508a9550935061442c92505050565b611b6d9190614443565b6001600160801b03166060820181905215611dac57611b90848260600151613361565b60a083015260808201526101655461271090611bac9082614492565b8260800151611bbb919061442c565b611bc59190614443565b60c08201526101655461271090611bdc9082614492565b8260a00151611beb919061442c565b611bf59190614443565b8160e00181815250505f6040518060a0016040528086815260200183606001516001600160801b031681526020018360c0015181526020018360e00151815260200142610708611c4591906144a5565b90526101635460408051630624e65f60e11b81528351600482015260208401516001600160801b0316602482015290830151604482015260608301516064820152608083015160848201529192505f9182916001600160a01b031690630c49ccbe9060a40160408051808303815f875af1158015611cc5573d5f5f3e3d5ffd5b505050506040513d601f19601f82011682018060405250810190611ce99190614726565b604080516080810182528a815233602082019081526001600160801b038581168385019081528582166060850190815261016354955163fc6f786560e01b81528551600482015293516001600160a01b03908116602486015291518316604485015251909116606483015294965092945092169063fc6f78659060840160408051808303815f875af1158015611d81573d5f5f3e3d5ffd5b505050506040513d601f19601f82011682018060405250810190611da59190614726565b5050505050505b82826001015f828254611dbf9190614492565b909155505f9050611dce612c35565b905080825f015111611de0575f611ded565b8151611ded908290614492565b610100830181905260408051878152602081018790529081019190915233907f1dc8bb69df2b8e91fbdcbfcf93d951b3f0000f085a95fe3f7946d6161439245d906060015b60405180910390a25050506117b76001609755565b611e4f6124b9565b610861613573565b5f3381611e6482866122f6565b905083811015611ec45760405162461bcd60e51b815260206004820152602560248201527f45524332303a2064656372656173656420616c6c6f77616e63652062656c6f77604482015264207a65726f60d81b60648201526084016108be565b611ed18286868403612396565b506001949350505050565b5f33610845818585612f15565b611ef16125be565b5f838152610166602052604090205460ff16611f445760405162461bcd60e51b815260206004820152601260248201527115985d5b1d0e881b9bc81cdd58da0813919560721b60448201526064016108be565b6101605460405163750f53af60e11b81526001600160a01b039091169063ea1ea75e90611f79903090869086906004016145fa565b5f604051808303815f87803b158015611f90575f5ffd5b505af1158015611fa2573d5f5f3e3d5ffd5b505050507f2d242b555ff8d48f8a908c12302dc5442dbb6e7e08413a9c97c84db8ccd01b24838383604051610c3293929190614748565b611fe1612565565b611fe96125be565b6001600160a01b0381166120335760405162461bcd60e51b81526020600482015260116024820152705661756c743a20696e76616c696420746f60781b60448201526064016108be565b5f82815261016660205260409020805460ff166120625760405162461bcd60e51b81526004016108be90614462565b6001810154335f908152603360205260409020548111156120c55760405162461bcd60e51b815260206004820152601a60248201527f5661756c743a20696e73756666696369656e742073686172657300000000000060448201526064016108be565b6120cf3382612d6b565b815460ff1916825561016354604051632142170760e11b81523060048201526001600160a01b03858116602483015260448201879052909116906342842e0e906064015f604051808303815f87803b158015612129575f5ffd5b505af115801561213b573d5f5f3e3d5ffd5b505050505f61214985612759565b604080518781526020810185905290810182905290915033907ff2e6a6b1ba05ba12c83a664f6f479c81b8daae6da423fecd0d1450099c44307390606001611e32565b6121946124b9565b6001600160a01b0383166121e25760405162461bcd60e51b81526020600482015260156024820152745661756c743a20696e76616c6964206f7261636c6560581b60448201526064016108be565b6001600160a01b0382166122345760405162461bcd60e51b81526020600482015260196024820152782b30bab63a1d1034b73b30b634b2103932b130b630b731b2b960391b60448201526064016108be565b6001600160a01b0381166122865760405162461bcd60e51b81526020600482015260196024820152782b30bab63a1d1034b73b30b634b2103634b8bab4b230ba37b960391b60448201526064016108be565b61015f80546001600160a01b03199081166001600160a01b038681169182179093556101608054831686851690811790915561016180549093169385169384179092556040517f8acbd7eb4c86b1a56ce5fe66f6b88a69246781309b0c60dd4aa7f03bea7a8a65905f90a4505050565b6001600160a01b039182165f90815260346020908152604080832093909416825291909152205490565b6123286124b9565b6001600160a01b03811661238d5760405162461bcd60e51b815260206004820152602660248201527f4f776e61626c653a206e6577206f776e657220697320746865207a65726f206160448201526564647265737360d01b60648201526084016108be565b6111198161325e565b6001600160a01b0383166123f85760405162461bcd60e51b8152602060048201526024808201527f45524332303a20617070726f76652066726f6d20746865207a65726f206164646044820152637265737360e01b60648201526084016108be565b6001600160a01b0382166124595760405162461bcd60e51b815260206004820152602260248201527f45524332303a20617070726f766520746f20746865207a65726f206164647265604482015261737360f01b60648201526084016108be565b6001600160a01b038381165f8181526034602090815260408083209487168084529482529182902085905590518481527f8c5be1e5ebec7d5bd14f71427d1e84f3dd0314c0f7b2291e5b200ac8c7c3b925910160405180910390a3505050565b60c9546001600160a01b031633146108615760405162461bcd60e51b815260206004820181905260248201527f4f776e61626c653a2063616c6c6572206973206e6f7420746865206f776e657260448201526064016108be565b61251b6135b0565b6065805460ff191690557f5db9ee0a495bf2e6ff9c91a7834c1ba4fdd244a5e8aa4e537bd38aeae4b073aa335b6040516001600160a01b03909116815260200160405180910390a1565b6002609754036125b75760405162461bcd60e51b815260206004820152601f60248201527f5265656e7472616e637947756172643a207265656e7472616e742063616c6c0060448201526064016108be565b6002609755565b60655460ff16156108615760405162461bcd60e51b815260206004820152601060248201526f14185d5cd8589b194e881c185d5cd95960821b60448201526064016108be565b6101635460405163133f757160e31b8152600481018390525f91829182916001600160a01b0316906399fbab889060240161018060405180830381865afa158015612651573d5f5f3e3d5ffd5b505050506040513d601f19601f82011682018060405250810190612675919061464c565b505061016254604051630b4c774160e11b8152989d50969b509499505f9850506001600160a01b039094169550631698ee82946126be94508a9350899250889150600401614761565b602060405180830381865afa1580156126d9573d5f5f3e3d5ffd5b505050506040513d601f19601f820116820180604052508101906126fd9190614789565b610164549091506001600160a01b038083169116146127525760405162461bcd60e51b815260206004820152601160248201527015985d5b1d0e881ddc9bdb99c81c1bdbdb607a1b60448201526064016108be565b5050505050565b60408051610260810182525f80825260208201819052918101829052606081018290526080810182905260a0810182905260c0810182905260e08101829052610100810182905261012081018290526101408101829052610160810182905261018081018290526101a081018290526101c081018290526101e081018290526102008101829052610220810182905261024081018290526101635460405163133f757160e31b8152600481018590526001600160a01b03909116906399fbab889060240161018060405180830381865afa158015612839573d5f5f3e3d5ffd5b505050506040513d601f19601f8201168201806040525081019061285d919061464c565b6001600160801b0390811660e08e015290811660c08d015290921660a08b01525050600290810b60808901520b606087015262ffffff1660408087018290526001600160a01b0392831660208801819052938316808852610162549151630b4c774160e11b8152919093169550631698ee8294506128df939190600401614761565b602060405180830381865afa1580156128fa573d5f5f3e3d5ffd5b505050506040513d601f19601f8201168201806040525081019061291e9190614789565b6001600160a01b039081166101008301819052610164549091161461297f5760405162461bcd60e51b815260206004820152601760248201527615985d5b1d0e881b9bdd081c995c5d5a5c9959141bdbdb604a1b60448201526064016108be565b8061010001516001600160a01b0316633850c7bd6040518163ffffffff1660e01b815260040160e060405180830381865afa1580156129c0573d5f5f3e3d5ffd5b505050506040513d601f19601f820116820180604052508101906129e491906147b5565b151561014088018190526001600160a01b0390961661012088015250612a4793505050505760405162461bcd60e51b81526020600482015260136024820152725661756c743a20706f6f6c206c6f636b65643f60681b60448201526064016108be565b612a74816101200151612a5d83606001516135f9565b612a6a84608001516135f9565b8460a00151613a4f565b610180830152610160820181905260c0820151612a9c916001600160801b03909116906144a5565b6101a082015260e0810151610180820151612ac0916001600160801b0316906144a5565b6101c082015261015f5481516040516341976e0960e01b81526001600160a01b0391821660048201529116906341976e09906024016040805180830381865afa158015612b0f573d5f5f3e3d5ffd5b505050506040513d601f19601f82011682018060405250810190612b3391906145a8565b60ff166102208301526101e082015261015f5460208201516040516341976e0960e01b81526001600160a01b0391821660048201529116906341976e09906024016040805180830381865afa158015612b8e573d5f5f3e3d5ffd5b505050506040513d601f19601f82011682018060405250810190612bb291906145a8565b60ff166102408301526102008201526102208101515f90612bd490600a614923565b826101e00151836101a00151612bea919061442c565b612bf49190614443565b90505f826102400151600a612c099190614923565b836102000151846101c00151612c1f919061442c565b612c299190614443565b9050610b0d81836144a5565b5f80805b61016754811015612c9f575f6101678281548110612c5957612c59614931565b5f91825260208083209091015480835261016690915260409091205490915060ff1615612c9657612c8981612759565b612c9390846144a5565b92505b50600101612c39565b50919050565b6001600160a01b038216612cfb5760405162461bcd60e51b815260206004820152601f60248201527f45524332303a206d696e7420746f20746865207a65726f20616464726573730060448201526064016108be565b8060355f828254612d0c91906144a5565b90915550506001600160a01b0382165f818152603360209081526040808320805486019055518481527fddf252ad1be2c89b69c2b068fc378daa952ba7f163c4a11628f55a4df523b3ef910160405180910390a35050565b6001609755565b6001600160a01b038216612dcb5760405162461bcd60e51b815260206004820152602160248201527f45524332303a206275726e2066726f6d20746865207a65726f206164647265736044820152607360f81b60648201526084016108be565b6001600160a01b0382165f9081526033602052604090205481811015612e3e5760405162461bcd60e51b815260206004820152602260248201527f45524332303a206275726e20616d6f756e7420657863656564732062616c616e604482015261636560f01b60648201526084016108be565b6001600160a01b0383165f8181526033602090815260408083208686039055603580548790039055518581529192917fddf252ad1be2c89b69c2b068fc378daa952ba7f163c4a11628f55a4df523b3ef910160405180910390a3505050565b5f612ea884846122f6565b90505f198114612f0f5781811015612f025760405162461bcd60e51b815260206004820152601d60248201527f45524332303a20696e73756666696369656e7420616c6c6f77616e636500000060448201526064016108be565b612f0f8484848403612396565b50505050565b6001600160a01b038316612f795760405162461bcd60e51b815260206004820152602560248201527f45524332303a207472616e736665722066726f6d20746865207a65726f206164604482015264647265737360d81b60648201526084016108be565b6001600160a01b038216612fdb5760405162461bcd60e51b815260206004820152602360248201527f45524332303a207472616e7366657220746f20746865207a65726f206164647260448201526265737360e81b60648201526084016108be565b6001600160a01b0383165f90815260336020526040902054818110156130525760405162461bcd60e51b815260206004820152602660248201527f45524332303a207472616e7366657220616d6f756e7420657863656564732062604482015265616c616e636560d01b60648201526084016108be565b6001600160a01b038085165f8181526033602052604080822086860390559286168082529083902080548601905591517fddf252ad1be2c89b69c2b068fc378daa952ba7f163c4a11628f55a4df523b3ef906130b19086815260200190565b60405180910390a3612f0f565b6111196124b9565b7f4910fdfa16fed3260ed0e7147f7cc6da11a60208b5b9406d12a635614ffd91435460ff16156130f957610f7a83613b79565b826001600160a01b03166352d1902d6040518163ffffffff1660e01b8152600401602060405180830381865afa925050508015613153575060408051601f3d908101601f1916820190925261315091810190614945565b60015b6131b65760405162461bcd60e51b815260206004820152602e60248201527f45524331393637557067726164653a206e657720696d706c656d656e7461746960448201526d6f6e206973206e6f74205555505360901b60648201526084016108be565b5f516020614b015f395f51905f5281146132245760405162461bcd60e51b815260206004820152602960248201527f45524331393637557067726164653a20756e737570706f727465642070726f786044820152681a58589b195555525160ba1b60648201526084016108be565b50610f7a838383613c14565b5f54610100900460ff166132565760405162461bcd60e51b81526004016108be9061495c565b610861613c38565b60c980546001600160a01b038381166001600160a01b0319831681179093556040519116919082907f8be0079c531659141344cd1fd0a4f28419497f9722a3daafe3b4186f6b6457e0905f90a35050565b5f54610100900460ff166132d55760405162461bcd60e51b81526004016108be9061495c565b6117b78282613c67565b5f54610100900460ff166133055760405162461bcd60e51b81526004016108be9061495c565b610861613ca6565b5f54610100900460ff166133335760405162461bcd60e51b81526004016108be9061495c565b610861613cd8565b5f54610100900460ff166108615760405162461bcd60e51b81526004016108be9061495c565b6101635460405163133f757160e31b8152600481018490525f918291829182918291829182916001600160a01b0316906399fbab889060240161018060405180830381865afa1580156133b6573d5f5f3e3d5ffd5b505050506040513d601f19601f820116820180604052508101906133da919061464c565b505061016254604051630b4c774160e11b8152989f50969d50949b509299509097505f9650506001600160a01b039092169350631698ee829261342792508a915089908990600401614761565b602060405180830381865afa158015613442573d5f5f3e3d5ffd5b505050506040513d601f19601f820116820180604052508101906134669190614789565b610164549091506001600160a01b038083169116146134c15760405162461bcd60e51b815260206004820152601760248201527615985d5b1d0e881b9bdd081c995c5d5a5c9959141bdbdb604a1b60448201526064016108be565b60408051602081019091525f8152816001600160a01b0316633850c7bd6040518163ffffffff1660e01b815260040160e060405180830381865afa15801561350b573d5f5f3e3d5ffd5b505050506040513d601f19601f8201168201806040525081019061352f91906147b5565b5050506001600160a01b03909316808552613561935091506135529050866135f9565b61355b866135f9565b8d613a4f565b909c909b509950505050505050505050565b61357b6125be565b6065805460ff191660011790557f62e78cea01bee320cd4e420270b5ea74000d11b0c9f74754ebdbfc544b05a2586125483390565b60655460ff166108615760405162461bcd60e51b815260206004820152601460248201527314185d5cd8589b194e881b9bdd081c185d5cd95960621b60448201526064016108be565b5f620d89e719600283900b12801590613624575061361a620d89e7196149a7565b60020b8260020b13155b6136645760405162461bcd60e51b81526020600482015260116024820152705469636b206f7574206f662072616e676560781b60448201526064016108be565b5f5f8360020b1261367a578262ffffff16613689565b613683836149a7565b62ffffff165b9050600160801b60018216156136ba5760806136b5826ffffcb933bd6fad37aa2d162d1a59400161442c565b901c90505b60028216156136e45760806136df826ffff97272373d413259a46990580e213a61442c565b901c90505b600482161561370e576080613709826ffff2e50f5f656932ef12357cf3c7fdcc61442c565b901c90505b6008821615613738576080613733826fffe5caca7e10e4e61c3624eaa0941cd061442c565b901c90505b601082161561376257608061375d826fffcb9843d60f6159c9db58835c92664461442c565b901c90505b602082161561378c576080613787826fff973b41fa98c081472e6896dfb254c061442c565b901c90505b60408216156137b65760806137b1826fff2ea16466c96a3843ec78b326b5286161442c565b901c90505b60808216156137e05760806137db826ffe5dee046a99a2a811c461f1969c305361442c565b901c90505b61010082161561380b576080613806826ffcbe86c7900a88aedcffc83b479aa3a461442c565b901c90505b610200821615613836576080613831826ff987a7253ac413176f2b074cf7815e5461442c565b901c90505b61040082161561386157608061385c826ff3392b0822b70005940c7a398e4b70f361442c565b901c90505b61080082161561388c576080613887826fe7159475a2c29b7443b29c7fa6e889d961442c565b901c90505b6110008216156138b75760806138b2826fd097f3bdfd2022b8845ad8f792aa582561442c565b901c90505b6120008216156138e25760806138dd826fa9f746462d870fdf8a65dc1f90e061e561442c565b901c90505b61400082161561390d576080613908826f70d869a156d2a1f6a7a2e3fadacb4c9b61442c565b901c90505b618000821615613938576080613933826f31be135f97d08fd981231505542fcfa661442c565b901c90505b6201000082161561396457608061395f826f09aa508b5b7a84e1c677de54f3e99bc961442c565b901c90505b6202000082161561398f57608061398a826e5d6af8dedb81196699c329225ee60461442c565b901c90505b620400008216156139b95760806139b4826d2216e584f5fa1ea926041bedfe9861442c565b901c90505b620800008216156139e15760806139dc826b048a170391f7dc42444e8fa261442c565b901c90505b5f8460020b13156139fa576139f7815f19614443565b90505b602081901c6001600160a01b03811115613a475760405162461bcd60e51b815260206004820152600e60248201526d5072696365206f766572666c6f7760901b60448201526064016108be565b949350505050565b5f5f836001600160a01b0316856001600160a01b03161115613a6f579293925b846001600160a01b0316866001600160a01b031611613ae357600160601b600160e01b03606084901b166001600160a01b03808716908616613ab188886149c7565b613ac4906001600160a01b03168461442c565b613ace9190614443565b613ad89190614443565b92505f915050613b70565b836001600160a01b0316866001600160a01b031610613b11575f9150613b0a848685613cfe565b9050613b70565b6001600160a01b03808716908516613b2988876149c7565b613b4c906001600160a01b0316600160601b600160e01b03606088901b1661442c565b613b569190614443565b613b609190614443565b9150613b6d868685613cfe565b90505b94509492505050565b6001600160a01b0381163b613be65760405162461bcd60e51b815260206004820152602d60248201527f455243313936373a206e657720696d706c656d656e746174696f6e206973206e60448201526c1bdd08184818dbdb9d1c9858dd609a1b60648201526084016108be565b5f516020614b015f395f51905f5280546001600160a01b0319166001600160a01b0392909216919091179055565b613c1d83613d34565b5f82511180613c295750805b15610f7a57612f0f8383613d73565b5f54610100900460ff16613c5e5760405162461bcd60e51b81526004016108be9061495c565b6108613361325e565b5f54610100900460ff16613c8d5760405162461bcd60e51b81526004016108be9061495c565b6036613c998382614a2a565b506037610f7a8282614a2a565b5f54610100900460ff16613ccc5760405162461bcd60e51b81526004016108be9061495c565b6065805460ff19169055565b5f54610100900460ff16612d645760405162461bcd60e51b81526004016108be9061495c565b5f600160601b613d0e84866149c7565b613d2a906001600160a01b03166001600160801b03851661442c565b613a479190614443565b613d3d81613b79565b6040516001600160a01b038216907fbc7cd75a20ee27fd9adebab32041f755214dbc6bffa90cc0225b39da2e5c2d3b905f90a250565b60606001600160a01b0383163b613ddb5760405162461bcd60e51b815260206004820152602660248201527f416464726573733a2064656c65676174652063616c6c20746f206e6f6e2d636f6044820152651b9d1c9858dd60d21b60648201526084016108be565b5f5f846001600160a01b031684604051613df59190614ae5565b5f60405180830381855af49150503d805f8114613e2d576040519150601f19603f3d011682016040523d82523d5f602084013e613e32565b606091505b5091509150610b0d8282604051806060016040528060278152602001614b216027913960608315613e64575081610f9d565b610f9d8383815115613e795781518083602001fd5b8060405162461bcd60e51b81526004016108be9190613eb5565b5f5b83811015613ead578181015183820152602001613e95565b50505f910152565b602081525f8251806020840152613ed3816040850160208701613e93565b601f01601f19169190910160400192915050565b6001600160a01b0381168114611119575f5ffd5b8035613f0681613ee7565b919050565b5f5f60408385031215613f1c575f5ffd5b8235613f2781613ee7565b946020939093013593505050565b5f5f83601f840112613f45575f5ffd5b50813567ffffffffffffffff811115613f5c575f5ffd5b602083019150836020828501011115613f73575f5ffd5b9250929050565b5f5f5f5f5f60808688031215613f8e575f5ffd5b8535613f9981613ee7565b94506020860135613fa981613ee7565b935060408601359250606086013567ffffffffffffffff811115613fcb575f5ffd5b613fd788828901613f35565b969995985093965092949392505050565b5f5f5f60608486031215613ffa575f5ffd5b833561400581613ee7565b925060208401359150604084013561401c81613ee7565b809150509250925092565b5f5f5f60608486031215614039575f5ffd5b505081359360208301359350604090920135919050565b5f5f5f60608486031215614062575f5ffd5b833561406d81613ee7565b9250602084013561407d81613ee7565b929592945050506040919091013590565b5f6020828403121561409e575f5ffd5b5035919050565b5f602082840312156140b5575f5ffd5b8135610f9d81613ee7565b5f5f604083850312156140d1575f5ffd5b8235915060208301356140e381613ee7565b809150509250929050565b634e487b7160e01b5f52604160045260245ffd5b5f5f67ffffffffffffffff84111561411c5761411c6140ee565b50604051601f19601f85018116603f0116810181811067ffffffffffffffff8211171561414b5761414b6140ee565b604052838152905080828401851015614162575f5ffd5b838360208301375f60208583010152509392505050565b5f82601f830112614188575f5ffd5b610f9d83833560208501614102565b5f5f5f5f5f5f5f5f5f5f6101408b8d0312156141b1575f5ffd5b6141ba8b613efb565b99506141c860208c01613efb565b98506141d660408c01613efb565b97506141e460608c01613efb565b96506141f260808c01613efb565b955061420060a08c01613efb565b945061420e60c08c01613efb565b935060e08b013567ffffffffffffffff811115614229575f5ffd5b6142358d828e01614179565b9350506101008b013567ffffffffffffffff811115614252575f5ffd5b61425e8d828e01614179565b9250505f6101208c01359050809150509295989b9194979a5092959850565b5f5f6040838503121561428e575f5ffd5b823561429981613ee7565b9150602083013567ffffffffffffffff8111156142b4575f5ffd5b8301601f810185136142c4575f5ffd5b6142d385823560208401614102565b9150509250929050565b5f5f5f604084860312156142ef575f5ffd5b83356142fa81613ee7565b9250602084013567ffffffffffffffff811115614315575f5ffd5b61432186828701613f35565b9497909650939450505050565b5f5f6040838503121561433f575f5ffd5b50508035926020909101359150565b5f5f5f60408486031215614360575f5ffd5b83359250602084013567ffffffffffffffff811115614315575f5ffd5b5f5f5f6060848603121561438f575f5ffd5b833561439a81613ee7565b925060208401356143aa81613ee7565b9150604084013561401c81613ee7565b5f5f604083850312156143cb575f5ffd5b82356143d681613ee7565b915060208301356140e381613ee7565b600181811c908216806143fa57607f821691505b602082108103612c9f57634e487b7160e01b5f52602260045260245ffd5b634e487b7160e01b5f52601160045260245ffd5b808202811582820484141761084b5761084b614418565b5f8261445d57634e487b7160e01b5f52601260045260245ffd5b500490565b60208082526016908201527515985d5b1d0e881d5b9adb9bdddb881d1bdad95b925960521b604082015260600190565b8181038181111561084b5761084b614418565b8082018082111561084b5761084b614418565b80516001600160801b0381168114613f06575f5ffd5b5f5f5f606084860312156144e0575f5ffd5b6144e9846144b8565b602085015160409095015190969495509392505050565b6020808252602c908201527f46756e6374696f6e206d7573742062652063616c6c6564207468726f7567682060408201526b19195b1959d85d1958d85b1b60a21b606082015260800190565b6020808252602c908201527f46756e6374696f6e206d7573742062652063616c6c6564207468726f7567682060408201526b6163746976652070726f787960a01b606082015260800190565b805160ff81168114613f06575f5ffd5b5f5f604083850312156145b9575f5ffd5b825191506145c960208401614598565b90509250929050565b81835281816020850137505f828201602090810191909152601f909101601f19169091010190565b6001600160a01b03841681526040602082018190525f90610b0d90830184866145d2565b8051613f0681613ee7565b805162ffffff81168114613f06575f5ffd5b8051600281900b8114613f06575f5ffd5b5f5f5f5f5f5f5f5f5f5f5f5f6101808d8f031215614668575f5ffd5b8c516bffffffffffffffffffffffff81168114614683575f5ffd5b9b5061469160208e0161461e565b9a5061469f60408e0161461e565b99506146ad60608e0161461e565b98506146bb60808e01614629565b97506146c960a08e0161463b565b96506146d760c08e0161463b565b95506146e560e08e016144b8565b6101008e01516101208f0151919650945092506147056101408e016144b8565b91506147146101608e016144b8565b90509295989b509295989b509295989b565b5f5f60408385031215614737575f5ffd5b505080516020909101519092909150565b838152604060208201525f610b0d6040830184866145d2565b6001600160a01b03938416815291909216602082015262ffffff909116604082015260600190565b5f60208284031215614799575f5ffd5b8151610f9d81613ee7565b805161ffff81168114613f06575f5ffd5b5f5f5f5f5f5f5f60e0888a0312156147cb575f5ffd5b87516147d681613ee7565b96506147e46020890161463b565b95506147f2604089016147a4565b9450614800606089016147a4565b935061480e608089016147a4565b925061481c60a08901614598565b915060c08801518015158114614830575f5ffd5b8091505092959891949750929550565b6001815b600184111561487b5780850481111561485f5761485f614418565b600184161561486d57908102905b60019390931c928002614844565b935093915050565b5f826148915750600161084b565b8161489d57505f61084b565b81600181146148b357600281146148bd576148d9565b600191505061084b565b60ff8411156148ce576148ce614418565b50506001821b61084b565b5060208310610133831016604e8410600b84101617156148fc575081810a61084b565b6149085f198484614840565b805f190482111561491b5761491b614418565b029392505050565b5f610f9d60ff841683614883565b634e487b7160e01b5f52603260045260245ffd5b5f60208284031215614955575f5ffd5b5051919050565b6020808252602b908201527f496e697469616c697a61626c653a20636f6e7472616374206973206e6f74206960408201526a6e697469616c697a696e6760a81b606082015260800190565b5f8160020b627fffff1981036149bf576149bf614418565b5f0392915050565b6001600160a01b03828116828216039081111561084b5761084b614418565b601f821115610f7a57805f5260205f20601f840160051c81016020851015614a0b5750805b601f840160051c820191505b81811015612752575f8155600101614a17565b815167ffffffffffffffff811115614a4457614a446140ee565b614a5881614a5284546143e6565b846149e6565b6020601f821160018114614a8a575f8315614a735750848201515b5f19600385901b1c1916600184901b178455612752565b5f84815260208120601f198516915b82811015614ab95787850151825560209485019460019092019101614a99565b5084821015614ad657868401515f19600387901b60f8161c191681555b50505050600190811b01905550565b5f8251614af6818460208701613e93565b919091019291505056fe360894a13ba1a3210667c828492db98dca3e2076cc3735a920a3ca505d382bbc416464726573733a206c6f772d6c6576656c2064656c65676174652063616c6c206661696c6564a2646970667358221220f3091de7f6d819ee30964958696ddfbcacef2d04cb2d44bdf751bd3ee648867864736f6c634300081c0033",
			"opcodes": "PUSH1 0xA0 PUSH1 0x40 MSTORE ADDRESS PUSH1 0x80 MSTORE CALLVALUE DUP1 ISZERO PUSH1 0x12 JUMPI PUSH0 PUSH0 REVERT JUMPDEST POP PUSH1 0x80 MLOAD PUSH2 0x4B7D PUSH2 0x47 PUSH0 CODECOPY PUSH0 DUP2 DUP2 PUSH2 0x1049 ADD MSTORE DUP2 DUP2 PUSH2 0x1089 ADD MSTORE DUP2 DUP2 PUSH2 0x16F6 ADD MSTORE DUP2 DUP2 PUSH2 0x1736 ADD MSTORE PUSH2 0x17C7 ADD MSTORE PUSH2 0x4B7D PUSH0 RETURN INVALID PUSH1 0x80 PUSH1 0x40 MSTORE PUSH1 0x4 CALLDATASIZE LT PUSH2 0x241 JUMPI PUSH0 CALLDATALOAD PUSH1 0xE0 SHR DUP1 PUSH4 0x55A164BE GT PUSH2 0x134 JUMPI DUP1 PUSH4 0x95D89B41 GT PUSH2 0xB3 JUMPI DUP1 PUSH4 0xB40B3E4C GT PUSH2 0x78 JUMPI DUP1 PUSH4 0xB40B3E4C EQ PUSH2 0x6F7 JUMPI DUP1 PUSH4 0xC1D2D00D EQ PUSH2 0x716 JUMPI DUP1 PUSH4 0xC4AA7395 EQ PUSH2 0x735 JUMPI DUP1 PUSH4 0xC7493FD6 EQ PUSH2 0x74B JUMPI DUP1 PUSH4 0xDD62ED3E EQ PUSH2 0x76A JUMPI DUP1 PUSH4 0xF2FDE38B EQ PUSH2 0x789 JUMPI PUSH0 PUSH0 REVERT JUMPDEST DUP1 PUSH4 0x95D89B41 EQ PUSH2 0x672 JUMPI DUP1 PUSH4 0x9D7DE6B3 EQ PUSH2 0x686 JUMPI DUP1 PUSH4 0x9E0879C2 EQ PUSH2 0x6A5 JUMPI DUP1 PUSH4 0xA457C2D7 EQ PUSH2 0x6B9 JUMPI DUP1 PUSH4 0xA9059CBB EQ PUSH2 0x6D8 JUMPI PUSH0 PUSH0 REVERT JUMPDEST DUP1 PUSH4 0x76E924A8 GT PUSH2 0xF9 JUMPI DUP1 PUSH4 0x76E924A8 EQ PUSH2 0x5D6 JUMPI DUP1 PUSH4 0x791B98BC EQ PUSH2 0x5F6 JUMPI DUP1 PUSH4 0x7D07B2D2 EQ PUSH2 0x616 JUMPI DUP1 PUSH4 0x8BDB2AFA EQ PUSH2 0x635 JUMPI DUP1 PUSH4 0x8DA5CB5B EQ PUSH2 0x655 JUMPI PUSH0 PUSH0 REVERT JUMPDEST DUP1 PUSH4 0x55A164BE EQ PUSH2 0x538 JUMPI DUP1 PUSH4 0x565D878C EQ PUSH2 0x557 JUMPI DUP1 PUSH4 0x5C975ABB EQ PUSH2 0x577 JUMPI DUP1 PUSH4 0x70A08231 EQ PUSH2 0x58E JUMPI DUP1 PUSH4 0x715018A6 EQ PUSH2 0x5C2 JUMPI PUSH0 PUSH0 REVERT JUMPDEST DUP1 PUSH4 0x25FC1B3D GT PUSH2 0x1C0 JUMPI DUP1 PUSH4 0x4046EBAE GT PUSH2 0x185 JUMPI DUP1 PUSH4 0x4046EBAE EQ PUSH2 0x4A7 JUMPI DUP1 PUSH4 0x468F02D2 EQ PUSH2 0x4C7 JUMPI DUP1 PUSH4 0x4BF1878B EQ PUSH2 0x4F2 JUMPI DUP1 PUSH4 0x4F1EF286 EQ PUSH2 0x511 JUMPI DUP1 PUSH4 0x52D1902D EQ PUSH2 0x524 JUMPI PUSH0 PUSH0 REVERT JUMPDEST DUP1 PUSH4 0x25FC1B3D EQ PUSH2 0x410 JUMPI DUP1 PUSH4 0x313CE567 EQ PUSH2 0x42F JUMPI DUP1 PUSH4 0x3659CFE6 EQ PUSH2 0x44A JUMPI DUP1 PUSH4 0x38DE1815 EQ PUSH2 0x469 JUMPI DUP1 PUSH4 0x39509351 EQ PUSH2 0x488 JUMPI PUSH0 PUSH0 REVERT JUMPDEST DUP1 PUSH4 0x18160DDD GT PUSH2 0x206 JUMPI DUP1 PUSH4 0x18160DDD EQ PUSH2 0x327 JUMPI DUP1 PUSH4 0x1D14CD0F EQ PUSH2 0x345 JUMPI DUP1 PUSH4 0x2122F53B EQ PUSH2 0x364 JUMPI DUP1 PUSH4 0x23B872DD EQ PUSH2 0x383 JUMPI DUP1 PUSH4 0x25A4015D EQ PUSH2 0x3A2 JUMPI PUSH0 PUSH0 REVERT JUMPDEST DUP1 PUSH4 0x1D22CCD EQ PUSH2 0x24C JUMPI DUP1 PUSH4 0x6FDDE03 EQ PUSH2 0x289 JUMPI DUP1 PUSH4 0x95EA7B3 EQ PUSH2 0x2AA JUMPI DUP1 PUSH4 0xB7562BE EQ PUSH2 0x2D9 JUMPI DUP1 PUSH4 0x150B7A02 EQ PUSH2 0x2EF JUMPI PUSH0 PUSH0 REVERT JUMPDEST CALLDATASIZE PUSH2 0x248 JUMPI STOP JUMPDEST PUSH0 PUSH0 REVERT JUMPDEST CALLVALUE DUP1 ISZERO PUSH2 0x257 JUMPI PUSH0 PUSH0 REVERT JUMPDEST POP PUSH2 0x160 SLOAD PUSH2 0x26C SWAP1 PUSH1 0x1 PUSH1 0x1 PUSH1 0xA0 SHL SUB AND DUP2 JUMP JUMPDEST PUSH1 0x40 MLOAD PUSH1 0x1 PUSH1 0x1 PUSH1 0xA0 SHL SUB SWAP1 SWAP2 AND DUP2 MSTORE PUSH1 0x20 ADD JUMPDEST PUSH1 0x40 MLOAD DUP1 SWAP2 SUB SWAP1 RETURN JUMPDEST CALLVALUE DUP1 ISZERO PUSH2 0x294 JUMPI PUSH0 PUSH0 REVERT JUMPDEST POP PUSH2 0x29D PUSH2 0x7A8 JUMP JUMPDEST PUSH1 0x40 MLOAD PUSH2 0x280 SWAP2 SWAP1 PUSH2 0x3EB5 JUMP JUMPDEST CALLVALUE DUP1 ISZERO PUSH2 0x2B5 JUMPI PUSH0 PUSH0 REVERT JUMPDEST POP PUSH2 0x2C9 PUSH2 0x2C4 CALLDATASIZE PUSH1 0x4 PUSH2 0x3F0B JUMP JUMPDEST PUSH2 0x838 JUMP JUMPDEST PUSH1 0x40 MLOAD SWAP1 ISZERO ISZERO DUP2 MSTORE PUSH1 0x20 ADD PUSH2 0x280 JUMP JUMPDEST CALLVALUE DUP1 ISZERO PUSH2 0x2E4 JUMPI PUSH0 PUSH0 REVERT JUMPDEST POP PUSH2 0x2ED PUSH2 0x851 JUMP JUMPDEST STOP JUMPDEST CALLVALUE DUP1 ISZERO PUSH2 0x2FA JUMPI PUSH0 PUSH0 REVERT JUMPDEST POP PUSH2 0x30E PUSH2 0x309 CALLDATASIZE PUSH1 0x4 PUSH2 0x3F7A JUMP JUMPDEST PUSH2 0x863 JUMP JUMPDEST PUSH1 0x40 MLOAD PUSH1 0x1 PUSH1 0x1 PUSH1 0xE0 SHL SUB NOT SWAP1 SWAP2 AND DUP2 MSTORE PUSH1 0x20 ADD PUSH2 0x280 JUMP JUMPDEST CALLVALUE DUP1 ISZERO PUSH2 0x332 JUMPI PUSH0 PUSH0 REVERT JUMPDEST POP PUSH1 0x35 SLOAD JUMPDEST PUSH1 0x40 MLOAD SWAP1 DUP2 MSTORE PUSH1 0x20 ADD PUSH2 0x280 JUMP JUMPDEST CALLVALUE DUP1 ISZERO PUSH2 0x350 JUMPI PUSH0 PUSH0 REVERT JUMPDEST POP PUSH2 0x2ED PUSH2 0x35F CALLDATASIZE PUSH1 0x4 PUSH2 0x3FE8 JUMP JUMPDEST PUSH2 0xB16 JUMP JUMPDEST CALLVALUE DUP1 ISZERO PUSH2 0x36F JUMPI PUSH0 PUSH0 REVERT JUMPDEST POP PUSH2 0x2ED PUSH2 0x37E CALLDATASIZE PUSH1 0x4 PUSH2 0x4027 JUMP JUMPDEST PUSH2 0xC3F JUMP JUMPDEST CALLVALUE DUP1 ISZERO PUSH2 0x38E JUMPI PUSH0 PUSH0 REVERT JUMPDEST POP PUSH2 0x2C9 PUSH2 0x39D CALLDATASIZE PUSH1 0x4 PUSH2 0x4050 JUMP JUMPDEST PUSH2 0xF7F JUMP JUMPDEST CALLVALUE DUP1 ISZERO PUSH2 0x3AD JUMPI PUSH0 PUSH0 REVERT JUMPDEST POP PUSH2 0x3EA PUSH2 0x3BC CALLDATASIZE PUSH1 0x4 PUSH2 0x408E JUMP JUMPDEST PUSH2 0x166 PUSH1 0x20 MSTORE PUSH0 SWAP1 DUP2 MSTORE PUSH1 0x40 SWAP1 KECCAK256 DUP1 SLOAD PUSH1 0x1 DUP3 ADD SLOAD PUSH1 0x2 SWAP1 SWAP3 ADD SLOAD PUSH1 0xFF SWAP1 SWAP2 AND SWAP2 SWAP1 PUSH1 0x1 PUSH1 0x1 PUSH1 0xA0 SHL SUB AND DUP4 JUMP JUMPDEST PUSH1 0x40 DUP1 MLOAD SWAP4 ISZERO ISZERO DUP5 MSTORE PUSH1 0x20 DUP5 ADD SWAP3 SWAP1 SWAP3 MSTORE PUSH1 0x1 PUSH1 0x1 PUSH1 0xA0 SHL SUB AND SWAP1 DUP3 ADD MSTORE PUSH1 0x60 ADD PUSH2 0x280 JUMP JUMPDEST CALLVALUE DUP1 ISZERO PUSH2 0x41B JUMPI PUSH0 PUSH0 REVERT JUMPDEST POP PUSH2 0x2ED PUSH2 0x42A CALLDATASIZE PUSH1 0x4 PUSH2 0x408E JUMP JUMPDEST PUSH2 0xFA4 JUMP JUMPDEST CALLVALUE DUP1 ISZERO PUSH2 0x43A JUMPI PUSH0 PUSH0 REVERT JUMPDEST POP PUSH1 0x40 MLOAD PUSH1 0x12 DUP2 MSTORE PUSH1 0x20 ADD PUSH2 0x280 JUMP JUMPDEST CALLVALUE DUP1 ISZERO PUSH2 0x455 JUMPI PUSH0 PUSH0 REVERT JUMPDEST POP PUSH2 0x2ED PUSH2 0x464 CALLDATASIZE PUSH1 0x4 PUSH2 0x40A5 JUMP JUMPDEST PUSH2 0x103F JUMP JUMPDEST CALLVALUE DUP1 ISZERO PUSH2 0x474 JUMPI PUSH0 PUSH0 REVERT JUMPDEST POP PUSH2 0x2ED PUSH2 0x483 CALLDATASIZE PUSH1 0x4 PUSH2 0x40C0 JUMP JUMPDEST PUSH2 0x111C JUMP JUMPDEST CALLVALUE DUP1 ISZERO PUSH2 0x493 JUMPI PUSH0 PUSH0 REVERT JUMPDEST POP PUSH2 0x2C9 PUSH2 0x4A2 CALLDATASIZE PUSH1 0x4 PUSH2 0x3F0B JUMP JUMPDEST PUSH2 0x1252 JUMP JUMPDEST CALLVALUE DUP1 ISZERO PUSH2 0x4B2 JUMPI PUSH0 PUSH0 REVERT JUMPDEST POP PUSH2 0x161 SLOAD PUSH2 0x26C SWAP1 PUSH1 0x1 PUSH1 0x1 PUSH1 0xA0 SHL SUB AND DUP2 JUMP JUMPDEST CALLVALUE DUP1 ISZERO PUSH2 0x4D2 JUMPI PUSH0 PUSH0 REVERT JUMPDEST POP PUSH2 0x4DB PUSH2 0x1273 JUMP JUMPDEST PUSH1 0x40 DUP1 MLOAD SWAP3 DUP4 MSTORE PUSH1 0xFF SWAP1 SWAP2 AND PUSH1 0x20 DUP4 ADD MSTORE ADD PUSH2 0x280 JUMP JUMPDEST CALLVALUE DUP1 ISZERO PUSH2 0x4FD JUMPI PUSH0 PUSH0 REVERT JUMPDEST POP PUSH2 0x2ED PUSH2 0x50C CALLDATASIZE PUSH1 0x4 PUSH2 0x4197 JUMP JUMPDEST PUSH2 0x12E9 JUMP JUMPDEST PUSH2 0x2ED PUSH2 0x51F CALLDATASIZE PUSH1 0x4 PUSH2 0x427D JUMP JUMPDEST PUSH2 0x16EC JUMP JUMPDEST CALLVALUE DUP1 ISZERO PUSH2 0x52F JUMPI PUSH0 PUSH0 REVERT JUMPDEST POP PUSH2 0x337 PUSH2 0x17BB JUMP JUMPDEST CALLVALUE DUP1 ISZERO PUSH2 0x543 JUMPI PUSH0 PUSH0 REVERT JUMPDEST POP PUSH2 0x2ED PUSH2 0x552 CALLDATASIZE PUSH1 0x4 PUSH2 0x42DD JUMP JUMPDEST PUSH2 0x186C JUMP JUMPDEST CALLVALUE DUP1 ISZERO PUSH2 0x562 JUMPI PUSH0 PUSH0 REVERT JUMPDEST POP PUSH2 0x15F SLOAD PUSH2 0x26C SWAP1 PUSH1 0x1 PUSH1 0x1 PUSH1 0xA0 SHL SUB AND DUP2 JUMP JUMPDEST CALLVALUE DUP1 ISZERO PUSH2 0x582 JUMPI PUSH0 PUSH0 REVERT JUMPDEST POP PUSH1 0x65 SLOAD PUSH1 0xFF AND PUSH2 0x2C9 JUMP JUMPDEST CALLVALUE DUP1 ISZERO PUSH2 0x599 JUMPI PUSH0 PUSH0 REVERT JUMPDEST POP PUSH2 0x337 PUSH2 0x5A8 CALLDATASIZE PUSH1 0x4 PUSH2 0x40A5 JUMP JUMPDEST PUSH1 0x1 PUSH1 0x1 PUSH1 0xA0 SHL SUB AND PUSH0 SWAP1 DUP2 MSTORE PUSH1 0x33 PUSH1 0x20 MSTORE PUSH1 0x40 SWAP1 KECCAK256 SLOAD SWAP1 JUMP JUMPDEST CALLVALUE DUP1 ISZERO PUSH2 0x5CD JUMPI PUSH0 PUSH0 REVERT JUMPDEST POP PUSH2 0x2ED PUSH2 0x192C JUMP JUMPDEST CALLVALUE DUP1 ISZERO PUSH2 0x5E1 JUMPI PUSH0 PUSH0 REVERT JUMPDEST POP PUSH2 0x164 SLOAD PUSH2 0x26C SWAP1 PUSH1 0x1 PUSH1 0x1 PUSH1 0xA0 SHL SUB AND DUP2 JUMP JUMPDEST CALLVALUE DUP1 ISZERO PUSH2 0x601 JUMPI PUSH0 PUSH0 REVERT JUMPDEST POP PUSH2 0x163 SLOAD PUSH2 0x26C SWAP1 PUSH1 0x1 PUSH1 0x1 PUSH1 0xA0 SHL SUB AND DUP2 JUMP JUMPDEST CALLVALUE DUP1 ISZERO PUSH2 0x621 JUMPI PUSH0 PUSH0 REVERT JUMPDEST POP PUSH2 0x337 PUSH2 0x630 CALLDATASIZE PUSH1 0x4 PUSH2 0x408E JUMP JUMPDEST PUSH2 0x193D JUMP JUMPDEST CALLVALUE DUP1 ISZERO PUSH2 0x640 JUMPI PUSH0 PUSH0 REVERT JUMPDEST POP PUSH2 0x162 SLOAD PUSH2 0x26C SWAP1 PUSH1 0x1 PUSH1 0x1 PUSH1 0xA0 SHL SUB AND DUP2 JUMP JUMPDEST CALLVALUE DUP1 ISZERO PUSH2 0x660 JUMPI PUSH0 PUSH0 REVERT JUMPDEST POP PUSH1 0xC9 SLOAD PUSH1 0x1 PUSH1 0x1 PUSH1 0xA0 SHL SUB AND PUSH2 0x26C JUMP JUMPDEST CALLVALUE DUP1 ISZERO PUSH2 0x67D JUMPI PUSH0 PUSH0 REVERT JUMPDEST POP PUSH2 0x29D PUSH2 0x195D JUMP JUMPDEST CALLVALUE DUP1 ISZERO PUSH2 0x691 JUMPI PUSH0 PUSH0 REVERT JUMPDEST POP PUSH2 0x2ED PUSH2 0x6A0 CALLDATASIZE PUSH1 0x4 PUSH2 0x432E JUMP JUMPDEST PUSH2 0x196C JUMP JUMPDEST CALLVALUE DUP1 ISZERO PUSH2 0x6B0 JUMPI PUSH0 PUSH0 REVERT JUMPDEST POP PUSH2 0x2ED PUSH2 0x1E47 JUMP JUMPDEST CALLVALUE DUP1 ISZERO PUSH2 0x6C4 JUMPI PUSH0 PUSH0 REVERT JUMPDEST POP PUSH2 0x2C9 PUSH2 0x6D3 CALLDATASIZE PUSH1 0x4 PUSH2 0x3F0B JUMP JUMPDEST PUSH2 0x1E57 JUMP JUMPDEST CALLVALUE DUP1 ISZERO PUSH2 0x6E3 JUMPI PUSH0 PUSH0 REVERT JUMPDEST POP PUSH2 0x2C9 PUSH2 0x6F2 CALLDATASIZE PUSH1 0x4 PUSH2 0x3F0B JUMP JUMPDEST PUSH2 0x1EDC JUMP JUMPDEST CALLVALUE DUP1 ISZERO PUSH2 0x702 JUMPI PUSH0 PUSH0 REVERT JUMPDEST POP PUSH2 0x2ED PUSH2 0x711 CALLDATASIZE PUSH1 0x4 PUSH2 0x434E JUMP JUMPDEST PUSH2 0x1EE9 JUMP JUMPDEST CALLVALUE DUP1 ISZERO PUSH2 0x721 JUMPI PUSH0 PUSH0 REVERT JUMPDEST POP PUSH2 0x2ED PUSH2 0x730 CALLDATASIZE PUSH1 0x4 PUSH2 0x40C0 JUMP JUMPDEST PUSH2 0x1FD9 JUMP JUMPDEST CALLVALUE DUP1 ISZERO PUSH2 0x740 JUMPI PUSH0 PUSH0 REVERT JUMPDEST POP PUSH2 0x337 PUSH2 0x165 SLOAD DUP2 JUMP JUMPDEST CALLVALUE DUP1 ISZERO PUSH2 0x756 JUMPI PUSH0 PUSH0 REVERT JUMPDEST POP PUSH2 0x2ED PUSH2 0x765 CALLDATASIZE PUSH1 0x4 PUSH2 0x437D JUMP JUMPDEST PUSH2 0x218C JUMP JUMPDEST CALLVALUE DUP1 ISZERO PUSH2 0x775 JUMPI PUSH0 PUSH0 REVERT JUMPDEST POP PUSH2 0x337 PUSH2 0x784 CALLDATASIZE PUSH1 0x4 PUSH2 0x43BA JUMP JUMPDEST PUSH2 0x22F6 JUMP JUMPDEST CALLVALUE DUP1 ISZERO PUSH2 0x794 JUMPI PUSH0 PUSH0 REVERT JUMPDEST POP PUSH2 0x2ED PUSH2 0x7A3 CALLDATASIZE PUSH1 0x4 PUSH2 0x40A5 JUMP JUMPDEST PUSH2 0x2320 JUMP JUMPDEST PUSH1 0x60 PUSH1 0x36 DUP1 SLOAD PUSH2 0x7B7 SWAP1 PUSH2 0x43E6 JUMP JUMPDEST DUP1 PUSH1 0x1F ADD PUSH1 0x20 DUP1 SWAP2 DIV MUL PUSH1 0x20 ADD PUSH1 0x40 MLOAD SWAP1 DUP2 ADD PUSH1 0x40 MSTORE DUP1 SWAP3 SWAP2 SWAP1 DUP2 DUP2 MSTORE PUSH1 0x20 ADD DUP3 DUP1 SLOAD PUSH2 0x7E3 SWAP1 PUSH2 0x43E6 JUMP JUMPDEST DUP1 ISZERO PUSH2 0x82E JUMPI DUP1 PUSH1 0x1F LT PUSH2 0x805 JUMPI PUSH2 0x100 DUP1 DUP4 SLOAD DIV MUL DUP4 MSTORE SWAP2 PUSH1 0x20 ADD SWAP2 PUSH2 0x82E JUMP JUMPDEST DUP3 ADD SWAP2 SWAP1 PUSH0 MSTORE PUSH1 0x20 PUSH0 KECCAK256 SWAP1 JUMPDEST DUP2 SLOAD DUP2 MSTORE SWAP1 PUSH1 0x1 ADD SWAP1 PUSH1 0x20 ADD DUP1 DUP4 GT PUSH2 0x811 JUMPI DUP3 SWAP1 SUB PUSH1 0x1F AND DUP3 ADD SWAP2 JUMPDEST POP POP POP POP POP SWAP1 POP SWAP1 JUMP JUMPDEST PUSH0 CALLER PUSH2 0x845 DUP2 DUP6 DUP6 PUSH2 0x2396 JUMP JUMPDEST PUSH1 0x1 SWAP2 POP POP JUMPDEST SWAP3 SWAP2 POP POP JUMP JUMPDEST PUSH2 0x859 PUSH2 0x24B9 JUMP JUMPDEST PUSH2 0x861 PUSH2 0x2513 JUMP JUMPDEST JUMP JUMPDEST PUSH0 PUSH2 0x86C PUSH2 0x2565 JUMP JUMPDEST PUSH2 0x874 PUSH2 0x25BE JUMP JUMPDEST PUSH2 0x163 SLOAD PUSH1 0x1 PUSH1 0x1 PUSH1 0xA0 SHL SUB AND CALLER EQ PUSH2 0x8C7 JUMPI PUSH1 0x40 MLOAD PUSH3 0x461BCD PUSH1 0xE5 SHL DUP2 MSTORE PUSH1 0x20 PUSH1 0x4 DUP3 ADD MSTORE PUSH1 0x10 PUSH1 0x24 DUP3 ADD MSTORE PUSH16 0x5661756C743A206F6E6C79204E46504D PUSH1 0x80 SHL PUSH1 0x44 DUP3 ADD MSTORE PUSH1 0x64 ADD JUMPDEST PUSH1 0x40 MLOAD DUP1 SWAP2 SUB SWAP1 REVERT JUMPDEST PUSH0 DUP5 DUP2 MSTORE PUSH2 0x166 PUSH1 0x20 MSTORE PUSH1 0x40 SWAP1 KECCAK256 SLOAD PUSH1 0xFF AND ISZERO PUSH2 0x926 JUMPI PUSH1 0x40 MLOAD PUSH3 0x461BCD PUSH1 0xE5 SHL DUP2 MSTORE PUSH1 0x20 PUSH1 0x4 DUP3 ADD MSTORE PUSH1 0x1F PUSH1 0x24 DUP3 ADD MSTORE PUSH32 0x5661756C743A20746F6B656E496420616C726561647920696E207661756C7400 PUSH1 0x44 DUP3 ADD MSTORE PUSH1 0x64 ADD PUSH2 0x8BE JUMP JUMPDEST PUSH2 0x92F DUP5 PUSH2 0x2604 JUMP JUMPDEST PUSH0 PUSH2 0x939 DUP6 PUSH2 0x2759 JUMP JUMPDEST SWAP1 POP PUSH0 PUSH2 0x945 PUSH1 0x35 SLOAD SWAP1 JUMP JUMPDEST SWAP1 POP PUSH0 PUSH2 0x950 PUSH2 0x2C35 JUMP JUMPDEST SWAP1 POP DUP3 PUSH0 DUP4 DUP2 SUB PUSH2 0x962 JUMPI POP DUP1 PUSH2 0x988 JUMP JUMPDEST DUP3 ISZERO PUSH2 0x96E JUMPI DUP3 PUSH2 0x971 JUMP JUMPDEST PUSH1 0x1 JUMPDEST PUSH2 0x97B DUP6 DUP5 PUSH2 0x442C JUMP JUMPDEST PUSH2 0x985 SWAP2 SWAP1 PUSH2 0x4443 JUMP JUMPDEST SWAP1 POP JUMPDEST PUSH0 DUP2 GT DUP1 PUSH2 0x994 JUMPI POP DUP4 ISZERO JUMPDEST PUSH2 0x9E0 JUMPI PUSH1 0x40 MLOAD PUSH3 0x461BCD PUSH1 0xE5 SHL DUP2 MSTORE PUSH1 0x20 PUSH1 0x4 DUP3 ADD MSTORE PUSH1 0x17 PUSH1 0x24 DUP3 ADD MSTORE PUSH32 0x5661756C743A204E4654203D3E2030207368617265733F000000000000000000 PUSH1 0x44 DUP3 ADD MSTORE PUSH1 0x64 ADD PUSH2 0x8BE JUMP JUMPDEST PUSH1 0x40 MLOAD DUP1 PUSH1 0x60 ADD PUSH1 0x40 MSTORE DUP1 PUSH1 0x1 ISZERO ISZERO DUP2 MSTORE PUSH1 0x20 ADD DUP3 DUP2 MSTORE PUSH1 0x20 ADD DUP12 PUSH1 0x1 PUSH1 0x1 PUSH1 0xA0 SHL SUB AND DUP2 MSTORE POP PUSH2 0x166 PUSH0 DUP12 DUP2 MSTORE PUSH1 0x20 ADD SWAP1 DUP2 MSTORE PUSH1 0x20 ADD PUSH0 KECCAK256 PUSH0 DUP3 ADD MLOAD DUP2 PUSH0 ADD PUSH0 PUSH2 0x100 EXP DUP2 SLOAD DUP2 PUSH1 0xFF MUL NOT AND SWAP1 DUP4 ISZERO ISZERO MUL OR SWAP1 SSTORE POP PUSH1 0x20 DUP3 ADD MLOAD DUP2 PUSH1 0x1 ADD SSTORE PUSH1 0x40 DUP3 ADD MLOAD DUP2 PUSH1 0x2 ADD PUSH0 PUSH2 0x100 EXP DUP2 SLOAD DUP2 PUSH1 0x1 PUSH1 0x1 PUSH1 0xA0 SHL SUB MUL NOT AND SWAP1 DUP4 PUSH1 0x1 PUSH1 0x1 PUSH1 0xA0 SHL SUB AND MUL OR SWAP1 SSTORE POP SWAP1 POP POP PUSH2 0x167 DUP10 SWAP1 DUP1 PUSH1 0x1 DUP2 SLOAD ADD DUP1 DUP3 SSTORE DUP1 SWAP2 POP POP PUSH1 0x1 SWAP1 SUB SWAP1 PUSH0 MSTORE PUSH1 0x20 PUSH0 KECCAK256 ADD PUSH0 SWAP1 SWAP2 SWAP1 SWAP2 SWAP1 SWAP2 POP SSTORE PUSH0 DUP2 GT ISZERO PUSH2 0xAA8 JUMPI PUSH2 0xAA8 DUP11 DUP3 PUSH2 0x2CA5 JUMP JUMPDEST PUSH1 0x40 DUP1 MLOAD DUP11 DUP2 MSTORE PUSH1 0x20 DUP2 ADD DUP4 SWAP1 MSTORE SWAP1 DUP2 ADD DUP7 SWAP1 MSTORE PUSH1 0x1 PUSH1 0x1 PUSH1 0xA0 SHL SUB DUP12 AND SWAP1 PUSH32 0x60D7156961EF4133D50D1E8D0A58639EC4B601E42F83547460E68F2E08924237 SWAP1 PUSH1 0x60 ADD PUSH1 0x40 MLOAD DUP1 SWAP2 SUB SWAP1 LOG2 POP PUSH4 0xA85BD01 PUSH1 0xE1 SHL SWAP5 POP POP POP POP POP PUSH2 0xB0D PUSH1 0x1 PUSH1 0x97 SSTORE JUMP JUMPDEST SWAP6 SWAP5 POP POP POP POP POP JUMP JUMPDEST PUSH2 0x161 SLOAD PUSH1 0x1 PUSH1 0x1 PUSH1 0xA0 SHL SUB AND CALLER EQ PUSH2 0xB6A JUMPI PUSH1 0x40 MLOAD PUSH3 0x461BCD PUSH1 0xE5 SHL DUP2 MSTORE PUSH1 0x20 PUSH1 0x4 DUP3 ADD MSTORE PUSH1 0x16 PUSH1 0x24 DUP3 ADD MSTORE PUSH22 0x2B30BAB63A1D1037B7363C902634B8BAB4B230BA37B9 PUSH1 0x51 SHL PUSH1 0x44 DUP3 ADD MSTORE PUSH1 0x64 ADD PUSH2 0x8BE JUMP JUMPDEST DUP2 PUSH2 0xB89 DUP5 PUSH1 0x1 PUSH1 0x1 PUSH1 0xA0 SHL SUB AND PUSH0 SWAP1 DUP2 MSTORE PUSH1 0x33 PUSH1 0x20 MSTORE PUSH1 0x40 SWAP1 KECCAK256 SLOAD SWAP1 JUMP JUMPDEST LT ISZERO PUSH2 0xBD7 JUMPI PUSH1 0x40 MLOAD PUSH3 0x461BCD PUSH1 0xE5 SHL DUP2 MSTORE PUSH1 0x20 PUSH1 0x4 DUP3 ADD MSTORE PUSH1 0x1A PUSH1 0x24 DUP3 ADD MSTORE PUSH32 0x5661756C743A20696E73756666696369656E7420736861726573000000000000 PUSH1 0x44 DUP3 ADD MSTORE PUSH1 0x64 ADD PUSH2 0x8BE JUMP JUMPDEST PUSH2 0xBE1 DUP4 DUP4 PUSH2 0x2D6B JUMP JUMPDEST PUSH2 0xBEB DUP2 DUP4 PUSH2 0x2CA5 JUMP JUMPDEST PUSH1 0x40 DUP1 MLOAD PUSH1 0x1 PUSH1 0x1 PUSH1 0xA0 SHL SUB DUP1 DUP7 AND DUP3 MSTORE PUSH1 0x20 DUP3 ADD DUP6 SWAP1 MSTORE DUP4 AND SWAP2 DUP2 ADD SWAP2 SWAP1 SWAP2 MSTORE PUSH32 0xA0D95140BE1C2EE7D2D7D5A5DDC081AE79FCE2936424AD22E408A868E82811B1 SWAP1 PUSH1 0x60 ADD JUMPDEST PUSH1 0x40 MLOAD DUP1 SWAP2 SUB SWAP1 LOG1 POP POP POP JUMP JUMPDEST PUSH2 0xC47 PUSH2 0x2565 JUMP JUMPDEST PUSH2 0xC4F PUSH2 0x25BE JUMP JUMPDEST PUSH0 DUP4 DUP2 MSTORE PUSH2 0x166 PUSH1 0x20 MSTORE PUSH1 0x40 SWAP1 KECCAK256 DUP1 SLOAD PUSH1 0xFF AND PUSH2 0xC7E JUMPI PUSH1 0x40 MLOAD PUSH3 0x461BCD PUSH1 0xE5 SHL DUP2 MSTORE PUSH1 0x4 ADD PUSH2 0x8BE SWAP1 PUSH2 0x4462 JUMP JUMPDEST PUSH0 DUP4 GT DUP1 PUSH2 0xC8B JUMPI POP PUSH0 DUP3 GT JUMPDEST PUSH2 0xCCC JUMPI PUSH1 0x40 MLOAD PUSH3 0x461BCD PUSH1 0xE5 SHL DUP2 MSTORE PUSH1 0x20 PUSH1 0x4 DUP3 ADD MSTORE PUSH1 0x12 PUSH1 0x24 DUP3 ADD MSTORE PUSH18 0x4E6F206465706F73697420616D6F756E7473 PUSH1 0x70 SHL PUSH1 0x44 DUP3 ADD MSTORE PUSH1 0x64 ADD PUSH2 0x8BE JUMP JUMPDEST PUSH2 0xCD5 DUP5 PUSH2 0x2604 JUMP JUMPDEST PUSH0 PUSH2 0xCDE PUSH2 0x2C35 JUMP JUMPDEST SWAP1 POP PUSH0 PUSH2 0xCEA PUSH1 0x35 SLOAD SWAP1 JUMP JUMPDEST SWAP1 POP PUSH0 PUSH2 0x2710 PUSH2 0x165 SLOAD PUSH2 0x2710 PUSH2 0xD01 SWAP2 SWAP1 PUSH2 0x4492 JUMP JUMPDEST PUSH2 0xD0B SWAP1 DUP9 PUSH2 0x442C JUMP JUMPDEST PUSH2 0xD15 SWAP2 SWAP1 PUSH2 0x4443 JUMP JUMPDEST SWAP1 POP PUSH0 PUSH2 0x2710 PUSH2 0x165 SLOAD PUSH2 0x2710 PUSH2 0xD2C SWAP2 SWAP1 PUSH2 0x4492 JUMP JUMPDEST PUSH2 0xD36 SWAP1 DUP9 PUSH2 0x442C JUMP JUMPDEST PUSH2 0xD40 SWAP2 SWAP1 PUSH2 0x4443 JUMP JUMPDEST SWAP1 POP PUSH0 PUSH1 0x40 MLOAD DUP1 PUSH1 0xC0 ADD PUSH1 0x40 MSTORE DUP1 DUP11 DUP2 MSTORE PUSH1 0x20 ADD DUP10 DUP2 MSTORE PUSH1 0x20 ADD DUP9 DUP2 MSTORE PUSH1 0x20 ADD DUP5 DUP2 MSTORE PUSH1 0x20 ADD DUP4 DUP2 MSTORE PUSH1 0x20 ADD TIMESTAMP PUSH2 0x708 PUSH2 0xD7A SWAP2 SWAP1 PUSH2 0x44A5 JUMP JUMPDEST SWAP1 MSTORE PUSH2 0x163 SLOAD PUSH1 0x40 DUP1 MLOAD PUSH4 0x219F5D17 PUSH1 0xE0 SHL DUP2 MSTORE DUP4 MLOAD PUSH1 0x4 DUP3 ADD MSTORE PUSH1 0x20 DUP5 ADD MLOAD PUSH1 0x24 DUP3 ADD MSTORE SWAP1 DUP4 ADD MLOAD PUSH1 0x44 DUP3 ADD MSTORE PUSH1 0x60 DUP4 ADD MLOAD PUSH1 0x64 DUP3 ADD MSTORE PUSH1 0x80 DUP4 ADD MLOAD PUSH1 0x84 DUP3 ADD MSTORE PUSH1 0xA0 DUP4 ADD MLOAD PUSH1 0xA4 DUP3 ADD MSTORE SWAP2 SWAP3 POP PUSH0 SWAP2 PUSH1 0x1 PUSH1 0x1 PUSH1 0xA0 SHL SUB SWAP1 SWAP2 AND SWAP1 PUSH4 0x219F5D17 SWAP1 PUSH1 0xC4 ADD PUSH1 0x60 PUSH1 0x40 MLOAD DUP1 DUP4 SUB DUP2 PUSH0 DUP8 GAS CALL ISZERO DUP1 ISZERO PUSH2 0xDFC JUMPI RETURNDATASIZE PUSH0 PUSH0 RETURNDATACOPY RETURNDATASIZE PUSH0 REVERT JUMPDEST POP POP POP POP PUSH1 0x40 MLOAD RETURNDATASIZE PUSH1 0x1F NOT PUSH1 0x1F DUP3 ADD AND DUP3 ADD DUP1 PUSH1 0x40 MSTORE POP DUP2 ADD SWAP1 PUSH2 0xE20 SWAP2 SWAP1 PUSH2 0x44CE JUMP JUMPDEST POP POP SWAP1 POP PUSH0 DUP2 PUSH1 0x1 PUSH1 0x1 PUSH1 0x80 SHL SUB AND GT PUSH2 0xE71 JUMPI PUSH1 0x40 MLOAD PUSH3 0x461BCD PUSH1 0xE5 SHL DUP2 MSTORE PUSH1 0x20 PUSH1 0x4 DUP3 ADD MSTORE PUSH1 0x12 PUSH1 0x24 DUP3 ADD MSTORE PUSH18 0x139BC81B1A5C5D5A591A5D1E481859191959 PUSH1 0x72 SHL PUSH1 0x44 DUP3 ADD MSTORE PUSH1 0x64 ADD PUSH2 0x8BE JUMP JUMPDEST PUSH0 PUSH2 0xE7A PUSH2 0x2C35 JUMP JUMPDEST SWAP1 POP DUP7 DUP2 GT PUSH2 0xEBB JUMPI PUSH1 0x40 MLOAD PUSH3 0x461BCD PUSH1 0xE5 SHL DUP2 MSTORE PUSH1 0x20 PUSH1 0x4 DUP3 ADD MSTORE PUSH1 0xD PUSH1 0x24 DUP3 ADD MSTORE PUSH13 0x4E6F206E65742076616C75653F PUSH1 0x98 SHL PUSH1 0x44 DUP3 ADD MSTORE PUSH1 0x64 ADD PUSH2 0x8BE JUMP JUMPDEST PUSH0 PUSH2 0xEC6 DUP9 DUP4 PUSH2 0x4492 JUMP JUMPDEST SWAP1 POP PUSH0 DUP8 ISZERO PUSH2 0xEF7 JUMPI DUP9 ISZERO PUSH2 0xEDB JUMPI DUP9 PUSH2 0xEDE JUMP JUMPDEST PUSH1 0x1 JUMPDEST PUSH2 0xEE8 DUP10 DUP5 PUSH2 0x442C JUMP JUMPDEST PUSH2 0xEF2 SWAP2 SWAP1 PUSH2 0x4443 JUMP JUMPDEST PUSH2 0xEF9 JUMP JUMPDEST DUP2 JUMPDEST SWAP1 POP DUP1 DUP11 PUSH1 0x1 ADD PUSH0 DUP3 DUP3 SLOAD PUSH2 0xF0E SWAP2 SWAP1 PUSH2 0x44A5 JUMP JUMPDEST SWAP1 SWAP2 SSTORE POP POP DUP1 ISZERO PUSH2 0xF23 JUMPI PUSH2 0xF23 CALLER DUP3 PUSH2 0x2CA5 JUMP JUMPDEST PUSH1 0x40 DUP1 MLOAD DUP15 DUP2 MSTORE PUSH1 0x20 DUP2 ADD DUP4 SWAP1 MSTORE SWAP1 DUP2 ADD DUP4 SWAP1 MSTORE CALLER SWAP1 PUSH32 0x64B83944E79C3CE8D4C297411DE637C3E102D064677AAC0C163976EBDCD6F50E SWAP1 PUSH1 0x60 ADD PUSH1 0x40 MLOAD DUP1 SWAP2 SUB SWAP1 LOG2 POP POP POP POP POP POP POP POP POP POP PUSH2 0xF7A PUSH1 0x1 PUSH1 0x97 SSTORE JUMP JUMPDEST POP POP POP JUMP JUMPDEST PUSH0 CALLER PUSH2 0xF8C DUP6 DUP3 DUP6 PUSH2 0x2E9D JUMP JUMPDEST PUSH2 0xF97 DUP6 DUP6 DUP6 PUSH2 0x2F15 JUMP JUMPDEST PUSH1 0x1 SWAP2 POP POP JUMPDEST SWAP4 SWAP3 POP POP POP JUMP JUMPDEST PUSH2 0xFAC PUSH2 0x24B9 JUMP JUMPDEST PUSH2 0x1388 DUP2 GT ISZERO PUSH2 0xFF9 JUMPI PUSH1 0x40 MLOAD PUSH3 0x461BCD PUSH1 0xE5 SHL DUP2 MSTORE PUSH1 0x20 PUSH1 0x4 DUP3 ADD MSTORE PUSH1 0x18 PUSH1 0x24 DUP3 ADD MSTORE PUSH24 0xACC2EAD8E87440E6D8D2E0E0C2CECA40E8DEDE40D0D2CED PUSH1 0x43 SHL PUSH1 0x44 DUP3 ADD MSTORE PUSH1 0x64 ADD PUSH2 0x8BE JUMP JUMPDEST PUSH2 0x165 DUP1 SLOAD SWAP1 DUP3 SWAP1 SSTORE PUSH1 0x40 DUP1 MLOAD DUP3 DUP2 MSTORE PUSH1 0x20 DUP2 ADD DUP5 SWAP1 MSTORE PUSH32 0x7AF09E2B23EBAB5DD29FA2271D6CA4795031F308CAF26CA605F4A719FFEED61 SWAP2 ADD PUSH1 0x40 MLOAD DUP1 SWAP2 SUB SWAP1 LOG1 POP POP JUMP JUMPDEST PUSH1 0x1 PUSH1 0x1 PUSH1 0xA0 SHL SUB PUSH32 0x0 AND ADDRESS SUB PUSH2 0x1087 JUMPI PUSH1 0x40 MLOAD PUSH3 0x461BCD PUSH1 0xE5 SHL DUP2 MSTORE PUSH1 0x4 ADD PUSH2 0x8BE SWAP1 PUSH2 0x4500 JUMP JUMPDEST PUSH32 0x0 PUSH1 0x1 PUSH1 0x1 PUSH1 0xA0 SHL SUB AND PUSH2 0x10CF PUSH0 MLOAD PUSH1 0x20 PUSH2 0x4B01 PUSH0 CODECOPY PUSH0 MLOAD SWAP1 PUSH0 MSTORE SLOAD PUSH1 0x1 PUSH1 0x1 PUSH1 0xA0 SHL SUB AND SWAP1 JUMP JUMPDEST PUSH1 0x1 PUSH1 0x1 PUSH1 0xA0 SHL SUB AND EQ PUSH2 0x10F5 JUMPI PUSH1 0x40 MLOAD PUSH3 0x461BCD PUSH1 0xE5 SHL DUP2 MSTORE PUSH1 0x4 ADD PUSH2 0x8BE SWAP1 PUSH2 0x454C JUMP JUMPDEST PUSH2 0x10FE DUP2 PUSH2 0x30BE JUMP JUMPDEST PUSH1 0x40 DUP1 MLOAD PUSH0 DUP1 DUP3 MSTORE PUSH1 0x20 DUP3 ADD SWAP1 SWAP3 MSTORE PUSH2 0x1119 SWAP2 DUP4 SWAP2 SWAP1 PUSH2 0x30C6 JUMP JUMPDEST POP JUMP JUMPDEST PUSH2 0x160 SLOAD PUSH1 0x1 PUSH1 0x1 PUSH1 0xA0 SHL SUB AND CALLER EQ PUSH2 0x1170 JUMPI PUSH1 0x40 MLOAD PUSH3 0x461BCD PUSH1 0xE5 SHL DUP2 MSTORE PUSH1 0x20 PUSH1 0x4 DUP3 ADD MSTORE PUSH1 0x16 PUSH1 0x24 DUP3 ADD MSTORE PUSH22 0x2B30BAB63A1D1037B7363C903932B130B630B731B2B9 PUSH1 0x51 SHL PUSH1 0x44 DUP3 ADD MSTORE PUSH1 0x64 ADD PUSH2 0x8BE JUMP JUMPDEST PUSH0 DUP3 GT PUSH2 0x11AF JUMPI PUSH1 0x40 MLOAD PUSH3 0x461BCD PUSH1 0xE5 SHL DUP2 MSTORE PUSH1 0x20 PUSH1 0x4 DUP3 ADD MSTORE PUSH1 0xD PUSH1 0x24 DUP3 ADD MSTORE PUSH13 0x4E6F20657874726156616C7565 PUSH1 0x98 SHL PUSH1 0x44 DUP3 ADD MSTORE PUSH1 0x64 ADD PUSH2 0x8BE JUMP JUMPDEST PUSH0 PUSH2 0x11B8 PUSH2 0x2C35 JUMP JUMPDEST SWAP1 POP PUSH0 PUSH2 0x11C4 PUSH1 0x35 SLOAD SWAP1 JUMP JUMPDEST SWAP1 POP PUSH0 DUP2 ISZERO PUSH2 0x11F5 JUMPI DUP3 ISZERO PUSH2 0x11D9 JUMPI DUP3 PUSH2 0x11DC JUMP JUMPDEST PUSH1 0x1 JUMPDEST PUSH2 0x11E6 DUP4 DUP8 PUSH2 0x442C JUMP JUMPDEST PUSH2 0x11F0 SWAP2 SWAP1 PUSH2 0x4443 JUMP JUMPDEST PUSH2 0x11F7 JUMP JUMPDEST DUP5 JUMPDEST SWAP1 POP PUSH2 0x1203 DUP5 DUP3 PUSH2 0x2CA5 JUMP JUMPDEST PUSH1 0x40 DUP1 MLOAD DUP7 DUP2 MSTORE PUSH1 0x1 PUSH1 0x1 PUSH1 0xA0 SHL SUB DUP7 AND PUSH1 0x20 DUP3 ADD MSTORE SWAP1 DUP2 ADD DUP3 SWAP1 MSTORE PUSH31 0xB5E71E55364DB75D28C23ED81A549A22D42C4BA6520E67A2FBD26EC2742F6E SWAP1 PUSH1 0x60 ADD PUSH1 0x40 MLOAD DUP1 SWAP2 SUB SWAP1 LOG1 POP POP POP POP POP JUMP JUMPDEST PUSH0 CALLER PUSH2 0x845 DUP2 DUP6 DUP6 PUSH2 0x1264 DUP4 DUP4 PUSH2 0x22F6 JUMP JUMPDEST PUSH2 0x126E SWAP2 SWAP1 PUSH2 0x44A5 JUMP JUMPDEST PUSH2 0x2396 JUMP JUMPDEST PUSH2 0x15F SLOAD PUSH1 0x40 MLOAD PUSH4 0x41976E09 PUSH1 0xE0 SHL DUP2 MSTORE ADDRESS PUSH1 0x4 DUP3 ADD MSTORE PUSH0 SWAP2 DUP3 SWAP2 PUSH1 0x1 PUSH1 0x1 PUSH1 0xA0 SHL SUB SWAP1 SWAP2 AND SWAP1 PUSH4 0x41976E09 SWAP1 PUSH1 0x24 ADD PUSH1 0x40 DUP1 MLOAD DUP1 DUP4 SUB DUP2 DUP7 GAS STATICCALL ISZERO DUP1 ISZERO PUSH2 0x12BD JUMPI RETURNDATASIZE PUSH0 PUSH0 RETURNDATACOPY RETURNDATASIZE PUSH0 REVERT JUMPDEST POP POP POP POP PUSH1 0x40 MLOAD RETURNDATASIZE PUSH1 0x1F NOT PUSH1 0x1F DUP3 ADD AND DUP3 ADD DUP1 PUSH1 0x40 MSTORE POP DUP2 ADD SWAP1 PUSH2 0x12E1 SWAP2 SWAP1 PUSH2 0x45A8 JUMP JUMPDEST SWAP2 POP SWAP2 POP SWAP1 SWAP2 JUMP JUMPDEST PUSH0 SLOAD PUSH2 0x100 SWAP1 DIV PUSH1 0xFF AND ISZERO DUP1 DUP1 ISZERO PUSH2 0x1307 JUMPI POP PUSH0 SLOAD PUSH1 0x1 PUSH1 0xFF SWAP1 SWAP2 AND LT JUMPDEST DUP1 PUSH2 0x1320 JUMPI POP ADDRESS EXTCODESIZE ISZERO DUP1 ISZERO PUSH2 0x1320 JUMPI POP PUSH0 SLOAD PUSH1 0xFF AND PUSH1 0x1 EQ JUMPDEST PUSH2 0x1383 JUMPI PUSH1 0x40 MLOAD PUSH3 0x461BCD PUSH1 0xE5 SHL DUP2 MSTORE PUSH1 0x20 PUSH1 0x4 DUP3 ADD MSTORE PUSH1 0x2E PUSH1 0x24 DUP3 ADD MSTORE PUSH32 0x496E697469616C697A61626C653A20636F6E747261637420697320616C726561 PUSH1 0x44 DUP3 ADD MSTORE PUSH14 0x191E481A5B9A5D1A585B1A5E9959 PUSH1 0x92 SHL PUSH1 0x64 DUP3 ADD MSTORE PUSH1 0x84 ADD PUSH2 0x8BE JUMP JUMPDEST PUSH0 DUP1 SLOAD PUSH1 0xFF NOT AND PUSH1 0x1 OR SWAP1 SSTORE DUP1 ISZERO PUSH2 0x13A4 JUMPI PUSH0 DUP1 SLOAD PUSH2 0xFF00 NOT AND PUSH2 0x100 OR SWAP1 SSTORE JUMPDEST PUSH2 0x13AC PUSH2 0x3230 JUMP JUMPDEST PUSH2 0x13B5 DUP6 PUSH2 0x325E JUMP JUMPDEST PUSH2 0x13BF DUP5 DUP5 PUSH2 0x32AF JUMP JUMPDEST PUSH2 0x13C7 PUSH2 0x32DF JUMP JUMPDEST PUSH2 0x13CF PUSH2 0x330D JUMP JUMPDEST PUSH2 0x13D7 PUSH2 0x333B JUMP JUMPDEST PUSH1 0x1 PUSH1 0x1 PUSH1 0xA0 SHL SUB DUP12 AND PUSH2 0x1425 JUMPI PUSH1 0x40 MLOAD PUSH3 0x461BCD PUSH1 0xE5 SHL DUP2 MSTORE PUSH1 0x20 PUSH1 0x4 DUP3 ADD MSTORE PUSH1 0x15 PUSH1 0x24 DUP3 ADD MSTORE PUSH21 0x2B30BAB63A1D1034B73B30B634B2103837B9A6B3B9 PUSH1 0x59 SHL PUSH1 0x44 DUP3 ADD MSTORE PUSH1 0x64 ADD PUSH2 0x8BE JUMP JUMPDEST PUSH1 0x1 PUSH1 0x1 PUSH1 0xA0 SHL SUB DUP11 AND PUSH2 0x1474 JUMPI PUSH1 0x40 MLOAD PUSH3 0x461BCD PUSH1 0xE5 SHL DUP2 MSTORE PUSH1 0x20 PUSH1 0x4 DUP3 ADD MSTORE PUSH1 0x16 PUSH1 0x24 DUP3 ADD MSTORE PUSH22 0x5661756C743A20696E76616C696420666163746F7279 PUSH1 0x50 SHL PUSH1 0x44 DUP3 ADD MSTORE PUSH1 0x64 ADD PUSH2 0x8BE JUMP JUMPDEST PUSH1 0x1 PUSH1 0x1 PUSH1 0xA0 SHL SUB DUP10 AND PUSH2 0x14C0 JUMPI PUSH1 0x40 MLOAD PUSH3 0x461BCD PUSH1 0xE5 SHL DUP2 MSTORE PUSH1 0x20 PUSH1 0x4 DUP3 ADD MSTORE PUSH1 0x13 PUSH1 0x24 DUP3 ADD MSTORE PUSH19 0x15985D5B1D0E881A5B9D985B1A59081C1BDBDB PUSH1 0x6A SHL PUSH1 0x44 DUP3 ADD MSTORE PUSH1 0x64 ADD PUSH2 0x8BE JUMP JUMPDEST PUSH1 0x1 PUSH1 0x1 PUSH1 0xA0 SHL SUB DUP9 AND PUSH2 0x150E JUMPI PUSH1 0x40 MLOAD PUSH3 0x461BCD PUSH1 0xE5 SHL DUP2 MSTORE PUSH1 0x20 PUSH1 0x4 DUP3 ADD MSTORE PUSH1 0x15 PUSH1 0x24 DUP3 ADD MSTORE PUSH21 0x5661756C743A20696E76616C6964206F7261636C65 PUSH1 0x58 SHL PUSH1 0x44 DUP3 ADD MSTORE PUSH1 0x64 ADD PUSH2 0x8BE JUMP JUMPDEST PUSH1 0x1 PUSH1 0x1 PUSH1 0xA0 SHL SUB DUP8 AND PUSH2 0x1560 JUMPI PUSH1 0x40 MLOAD PUSH3 0x461BCD PUSH1 0xE5 SHL DUP2 MSTORE PUSH1 0x20 PUSH1 0x4 DUP3 ADD MSTORE PUSH1 0x19 PUSH1 0x24 DUP3 ADD MSTORE PUSH25 0x2B30BAB63A1D1034B73B30B634B2103932B130B630B731B2B9 PUSH1 0x39 SHL PUSH1 0x44 DUP3 ADD MSTORE PUSH1 0x64 ADD PUSH2 0x8BE JUMP JUMPDEST PUSH1 0x1 PUSH1 0x1 PUSH1 0xA0 SHL SUB DUP7 AND PUSH2 0x15B2 JUMPI PUSH1 0x40 MLOAD PUSH3 0x461BCD PUSH1 0xE5 SHL DUP2 MSTORE PUSH1 0x20 PUSH1 0x4 DUP3 ADD MSTORE PUSH1 0x19 PUSH1 0x24 DUP3 ADD MSTORE PUSH25 0x2B30BAB63A1D1034B73B30B634B2103634B8BAB4B230BA37B9 PUSH1 0x39 SHL PUSH1 0x44 DUP3 ADD MSTORE PUSH1 0x64 ADD PUSH2 0x8BE JUMP JUMPDEST PUSH2 0x1388 DUP3 GT ISZERO PUSH2 0x15FF JUMPI PUSH1 0x40 MLOAD PUSH3 0x461BCD PUSH1 0xE5 SHL DUP2 MSTORE PUSH1 0x20 PUSH1 0x4 DUP3 ADD MSTORE PUSH1 0x18 PUSH1 0x24 DUP3 ADD MSTORE PUSH24 0xACC2EAD8E87440E6D8D2E0E0C2CECA40E8DEDE40D0D2CED PUSH1 0x43 SHL PUSH1 0x44 DUP3 ADD MSTORE PUSH1 0x64 ADD PUSH2 0x8BE JUMP JUMPDEST PUSH2 0x163 DUP1 SLOAD PUSH1 0x1 PUSH1 0x1 PUSH1 0xA0 SHL SUB DUP1 DUP15 AND PUSH1 0x1 PUSH1 0x1 PUSH1 0xA0 SHL SUB NOT SWAP3 DUP4 AND OR SWAP1 SWAP3 SSTORE PUSH2 0x162 DUP1 SLOAD DUP14 DUP5 AND SWAP1 DUP4 AND OR SWAP1 SSTORE PUSH2 0x164 DUP1 SLOAD DUP13 DUP5 AND SWAP1 DUP4 AND OR SWAP1 SSTORE PUSH2 0x15F DUP1 SLOAD DUP12 DUP5 AND SWAP1 DUP4 AND DUP2 OR SWAP1 SWAP2 SSTORE PUSH2 0x160 DUP1 SLOAD DUP12 DUP6 AND SWAP1 DUP5 AND DUP2 OR SWAP1 SWAP2 SSTORE PUSH2 0x161 DUP1 SLOAD SWAP5 DUP12 AND SWAP5 SWAP1 SWAP4 AND DUP5 OR SWAP1 SWAP3 SSTORE PUSH2 0x165 DUP6 SWAP1 SSTORE PUSH1 0x40 MLOAD PUSH32 0x8ACBD7EB4C86B1A56CE5FE66F6B88A69246781309B0C60DD4AA7F03BEA7A8A65 SWAP1 PUSH0 SWAP1 LOG4 DUP1 ISZERO PUSH2 0x16DF JUMPI PUSH0 DUP1 SLOAD PUSH2 0xFF00 NOT AND SWAP1 SSTORE PUSH1 0x40 MLOAD PUSH1 0x1 DUP2 MSTORE PUSH32 0x7F26B83FF96E1F2B6A682F133852F6798A09C465DA95921460CEFB3847402498 SWAP1 PUSH1 0x20 ADD PUSH1 0x40 MLOAD DUP1 SWAP2 SUB SWAP1 LOG1 JUMPDEST POP POP POP POP POP POP POP POP POP POP POP JUMP JUMPDEST PUSH1 0x1 PUSH1 0x1 PUSH1 0xA0 SHL SUB PUSH32 0x0 AND ADDRESS SUB PUSH2 0x1734 JUMPI PUSH1 0x40 MLOAD PUSH3 0x461BCD PUSH1 0xE5 SHL DUP2 MSTORE PUSH1 0x4 ADD PUSH2 0x8BE SWAP1 PUSH2 0x4500 JUMP JUMPDEST PUSH32 0x0 PUSH1 0x1 PUSH1 0x1 PUSH1 0xA0 SHL SUB AND PUSH2 0x177C PUSH0 MLOAD PUSH1 0x20 PUSH2 0x4B01 PUSH0 CODECOPY PUSH0 MLOAD SWAP1 PUSH0 MSTORE SLOAD PUSH1 0x1 PUSH1 0x1 PUSH1 0xA0 SHL SUB AND SWAP1 JUMP JUMPDEST PUSH1 0x1 PUSH1 0x1 PUSH1 0xA0 SHL SUB AND EQ PUSH2 0x17A2 JUMPI PUSH1 0x40 MLOAD PUSH3 0x461BCD PUSH1 0xE5 SHL DUP2 MSTORE PUSH1 0x4 ADD PUSH2 0x8BE SWAP1 PUSH2 0x454C JUMP JUMPDEST PUSH2 0x17AB DUP3 PUSH2 0x30BE JUMP JUMPDEST PUSH2 0x17B7 DUP3 DUP3 PUSH1 0x1 PUSH2 0x30C6 JUMP JUMPDEST POP POP JUMP JUMPDEST PUSH0 ADDRESS PUSH1 0x1 PUSH1 0x1 PUSH1 0xA0 SHL SUB PUSH32 0x0 AND EQ PUSH2 0x185A JUMPI PUSH1 0x40 MLOAD PUSH3 0x461BCD PUSH1 0xE5 SHL DUP2 MSTORE PUSH1 0x20 PUSH1 0x4 DUP3 ADD MSTORE PUSH1 0x38 PUSH1 0x24 DUP3 ADD MSTORE PUSH32 0x555550535570677261646561626C653A206D757374206E6F742062652063616C PUSH1 0x44 DUP3 ADD MSTORE PUSH32 0x6C6564207468726F7567682064656C656761746563616C6C0000000000000000 PUSH1 0x64 DUP3 ADD MSTORE PUSH1 0x84 ADD PUSH2 0x8BE JUMP JUMPDEST POP PUSH0 MLOAD PUSH1 0x20 PUSH2 0x4B01 PUSH0 CODECOPY PUSH0 MLOAD SWAP1 PUSH0 MSTORE SWAP1 JUMP JUMPDEST PUSH2 0x1874 PUSH2 0x25BE JUMP JUMPDEST PUSH0 PUSH2 0x1881 DUP3 DUP5 ADD DUP5 PUSH2 0x408E JUMP JUMPDEST PUSH2 0x161 SLOAD PUSH1 0x40 MLOAD PUSH4 0x26C01303 PUSH1 0xE0 SHL DUP2 MSTORE ADDRESS PUSH1 0x4 DUP3 ADD MSTORE PUSH1 0x1 PUSH1 0x1 PUSH1 0xA0 SHL SUB DUP8 DUP2 AND PUSH1 0x24 DUP4 ADD MSTORE PUSH1 0x44 DUP3 ADD DUP5 SWAP1 MSTORE SWAP3 SWAP4 POP SWAP2 AND SWAP1 PUSH4 0x26C01303 SWAP1 PUSH1 0x64 ADD PUSH0 PUSH1 0x40 MLOAD DUP1 DUP4 SUB DUP2 PUSH0 DUP8 DUP1 EXTCODESIZE ISZERO DUP1 ISZERO PUSH2 0x18D5 JUMPI PUSH0 PUSH0 REVERT JUMPDEST POP GAS CALL ISZERO DUP1 ISZERO PUSH2 0x18E7 JUMPI RETURNDATASIZE PUSH0 PUSH0 RETURNDATACOPY RETURNDATASIZE PUSH0 REVERT JUMPDEST POP POP POP POP PUSH32 0xFDCA20CD5F0302BD6D0442B5430B1C9899479545645BF7453AB4F0DBB10370E9 DUP5 DUP5 DUP5 PUSH1 0x40 MLOAD PUSH2 0x191E SWAP4 SWAP3 SWAP2 SWAP1 PUSH2 0x45FA JUMP JUMPDEST PUSH1 0x40 MLOAD DUP1 SWAP2 SUB SWAP1 LOG1 POP POP POP POP JUMP JUMPDEST PUSH2 0x1934 PUSH2 0x24B9 JUMP JUMPDEST PUSH2 0x861 PUSH0 PUSH2 0x325E JUMP JUMPDEST PUSH2 0x167 DUP2 DUP2 SLOAD DUP2 LT PUSH2 0x194D JUMPI PUSH0 DUP1 REVERT JUMPDEST PUSH0 SWAP2 DUP3 MSTORE PUSH1 0x20 SWAP1 SWAP2 KECCAK256 ADD SLOAD SWAP1 POP DUP2 JUMP JUMPDEST PUSH1 0x60 PUSH1 0x37 DUP1 SLOAD PUSH2 0x7B7 SWAP1 PUSH2 0x43E6 JUMP JUMPDEST PUSH2 0x1974 PUSH2 0x2565 JUMP JUMPDEST PUSH2 0x197C PUSH2 0x25BE JUMP JUMPDEST PUSH0 DUP3 DUP2 MSTORE PUSH2 0x166 PUSH1 0x20 MSTORE PUSH1 0x40 SWAP1 KECCAK256 DUP1 SLOAD PUSH1 0xFF AND PUSH2 0x19AB JUMPI PUSH1 0x40 MLOAD PUSH3 0x461BCD PUSH1 0xE5 SHL DUP2 MSTORE PUSH1 0x4 ADD PUSH2 0x8BE SWAP1 PUSH2 0x4462 JUMP JUMPDEST PUSH0 DUP3 GT PUSH2 0x19E6 JUMPI PUSH1 0x40 MLOAD PUSH3 0x461BCD PUSH1 0xE5 SHL DUP2 MSTORE PUSH1 0x20 PUSH1 0x4 DUP3 ADD MSTORE PUSH1 0x9 PUSH1 0x24 DUP3 ADD MSTORE PUSH9 0x6E6F20736861726573 PUSH1 0xB8 SHL PUSH1 0x44 DUP3 ADD MSTORE PUSH1 0x64 ADD PUSH2 0x8BE JUMP JUMPDEST CALLER PUSH0 SWAP1 DUP2 MSTORE PUSH1 0x33 PUSH1 0x20 MSTORE PUSH1 0x40 SWAP1 KECCAK256 SLOAD DUP3 GT ISZERO PUSH2 0x1A3A JUMPI PUSH1 0x40 MLOAD PUSH3 0x461BCD PUSH1 0xE5 SHL DUP2 MSTORE PUSH1 0x20 PUSH1 0x4 DUP3 ADD MSTORE PUSH1 0x13 PUSH1 0x24 DUP3 ADD MSTORE PUSH19 0x696E73756666696369656E7420736861726573 PUSH1 0x68 SHL PUSH1 0x44 DUP3 ADD MSTORE PUSH1 0x64 ADD PUSH2 0x8BE JUMP JUMPDEST PUSH2 0x1A43 DUP4 PUSH2 0x2604 JUMP JUMPDEST PUSH2 0x1A4D CALLER DUP4 PUSH2 0x2D6B JUMP JUMPDEST PUSH2 0x1AA5 PUSH1 0x40 MLOAD DUP1 PUSH2 0x120 ADD PUSH1 0x40 MSTORE DUP1 PUSH0 DUP2 MSTORE PUSH1 0x20 ADD PUSH0 DUP2 MSTORE PUSH1 0x20 ADD PUSH0 PUSH1 0x1 PUSH1 0x1 PUSH1 0x80 SHL SUB AND DUP2 MSTORE PUSH1 0x20 ADD PUSH0 PUSH1 0x1 PUSH1 0x1 PUSH1 0x80 SHL SUB AND DUP2 MSTORE PUSH1 0x20 ADD PUSH0 DUP2 MSTORE PUSH1 0x20 ADD PUSH0 DUP2 MSTORE PUSH1 0x20 ADD PUSH0 DUP2 MSTORE PUSH1 0x20 ADD PUSH0 DUP2 MSTORE PUSH1 0x20 ADD PUSH0 DUP2 MSTORE POP SWAP1 JUMP JUMPDEST PUSH2 0x1AAD PUSH2 0x2C35 JUMP JUMPDEST DUP2 MSTORE DUP3 PUSH2 0x1AB9 PUSH1 0x35 SLOAD SWAP1 JUMP JUMPDEST PUSH2 0x1AC3 SWAP2 SWAP1 PUSH2 0x44A5 JUMP JUMPDEST PUSH1 0x20 DUP3 ADD MSTORE PUSH2 0x163 SLOAD PUSH1 0x40 MLOAD PUSH4 0x133F7571 PUSH1 0xE3 SHL DUP2 MSTORE PUSH1 0x4 DUP2 ADD DUP7 SWAP1 MSTORE PUSH1 0x1 PUSH1 0x1 PUSH1 0xA0 SHL SUB SWAP1 SWAP2 AND SWAP1 PUSH4 0x99FBAB88 SWAP1 PUSH1 0x24 ADD PUSH2 0x180 PUSH1 0x40 MLOAD DUP1 DUP4 SUB DUP2 DUP7 GAS STATICCALL ISZERO DUP1 ISZERO PUSH2 0x1B11 JUMPI RETURNDATASIZE PUSH0 PUSH0 RETURNDATACOPY RETURNDATASIZE PUSH0 REVERT JUMPDEST POP POP POP POP PUSH1 0x40 MLOAD RETURNDATASIZE PUSH1 0x1F NOT PUSH1 0x1F DUP3 ADD AND DUP3 ADD DUP1 PUSH1 0x40 MSTORE POP DUP2 ADD SWAP1 PUSH2 0x1B35 SWAP2 SWAP1 PUSH2 0x464C JUMP JUMPDEST POP POP POP POP PUSH1 0x1 PUSH1 0x1 PUSH1 0x80 SHL SUB AND PUSH1 0x40 DUP10 ADD DUP2 SWAP1 MSTORE PUSH1 0x20 DUP10 ADD MLOAD SWAP8 POP PUSH2 0x1B63 SWAP7 POP DUP11 SWAP6 POP SWAP4 POP PUSH2 0x442C SWAP3 POP POP POP JUMP JUMPDEST PUSH2 0x1B6D SWAP2 SWAP1 PUSH2 0x4443 JUMP JUMPDEST PUSH1 0x1 PUSH1 0x1 PUSH1 0x80 SHL SUB AND PUSH1 0x60 DUP3 ADD DUP2 SWAP1 MSTORE ISZERO PUSH2 0x1DAC JUMPI PUSH2 0x1B90 DUP5 DUP3 PUSH1 0x60 ADD MLOAD PUSH2 0x3361 JUMP JUMPDEST PUSH1 0xA0 DUP4 ADD MSTORE PUSH1 0x80 DUP3 ADD MSTORE PUSH2 0x165 SLOAD PUSH2 0x2710 SWAP1 PUSH2 0x1BAC SWAP1 DUP3 PUSH2 0x4492 JUMP JUMPDEST DUP3 PUSH1 0x80 ADD MLOAD PUSH2 0x1BBB SWAP2 SWAP1 PUSH2 0x442C JUMP JUMPDEST PUSH2 0x1BC5 SWAP2 SWAP1 PUSH2 0x4443 JUMP JUMPDEST PUSH1 0xC0 DUP3 ADD MSTORE PUSH2 0x165 SLOAD PUSH2 0x2710 SWAP1 PUSH2 0x1BDC SWAP1 DUP3 PUSH2 0x4492 JUMP JUMPDEST DUP3 PUSH1 0xA0 ADD MLOAD PUSH2 0x1BEB SWAP2 SWAP1 PUSH2 0x442C JUMP JUMPDEST PUSH2 0x1BF5 SWAP2 SWAP1 PUSH2 0x4443 JUMP JUMPDEST DUP2 PUSH1 0xE0 ADD DUP2 DUP2 MSTORE POP POP PUSH0 PUSH1 0x40 MLOAD DUP1 PUSH1 0xA0 ADD PUSH1 0x40 MSTORE DUP1 DUP7 DUP2 MSTORE PUSH1 0x20 ADD DUP4 PUSH1 0x60 ADD MLOAD PUSH1 0x1 PUSH1 0x1 PUSH1 0x80 SHL SUB AND DUP2 MSTORE PUSH1 0x20 ADD DUP4 PUSH1 0xC0 ADD MLOAD DUP2 MSTORE PUSH1 0x20 ADD DUP4 PUSH1 0xE0 ADD MLOAD DUP2 MSTORE PUSH1 0x20 ADD TIMESTAMP PUSH2 0x708 PUSH2 0x1C45 SWAP2 SWAP1 PUSH2 0x44A5 JUMP JUMPDEST SWAP1 MSTORE PUSH2 0x163 SLOAD PUSH1 0x40 DUP1 MLOAD PUSH4 0x624E65F PUSH1 0xE1 SHL DUP2 MSTORE DUP4 MLOAD PUSH1 0x4 DUP3 ADD MSTORE PUSH1 0x20 DUP5 ADD MLOAD PUSH1 0x1 PUSH1 0x1 PUSH1 0x80 SHL SUB AND PUSH1 0x24 DUP3 ADD MSTORE SWAP1 DUP4 ADD MLOAD PUSH1 0x44 DUP3 ADD MSTORE PUSH1 0x60 DUP4 ADD MLOAD PUSH1 0x64 DUP3 ADD MSTORE PUSH1 0x80 DUP4 ADD MLOAD PUSH1 0x84 DUP3 ADD MSTORE SWAP2 SWAP3 POP PUSH0 SWAP2 DUP3 SWAP2 PUSH1 0x1 PUSH1 0x1 PUSH1 0xA0 SHL SUB AND SWAP1 PUSH4 0xC49CCBE SWAP1 PUSH1 0xA4 ADD PUSH1 0x40 DUP1 MLOAD DUP1 DUP4 SUB DUP2 PUSH0 DUP8 GAS CALL ISZERO DUP1 ISZERO PUSH2 0x1CC5 JUMPI RETURNDATASIZE PUSH0 PUSH0 RETURNDATACOPY RETURNDATASIZE PUSH0 REVERT JUMPDEST POP POP POP POP PUSH1 0x40 MLOAD RETURNDATASIZE PUSH1 0x1F NOT PUSH1 0x1F DUP3 ADD AND DUP3 ADD DUP1 PUSH1 0x40 MSTORE POP DUP2 ADD SWAP1 PUSH2 0x1CE9 SWAP2 SWAP1 PUSH2 0x4726 JUMP JUMPDEST PUSH1 0x40 DUP1 MLOAD PUSH1 0x80 DUP2 ADD DUP3 MSTORE DUP11 DUP2 MSTORE CALLER PUSH1 0x20 DUP3 ADD SWAP1 DUP2 MSTORE PUSH1 0x1 PUSH1 0x1 PUSH1 0x80 SHL SUB DUP6 DUP2 AND DUP4 DUP6 ADD SWAP1 DUP2 MSTORE DUP6 DUP3 AND PUSH1 0x60 DUP6 ADD SWAP1 DUP2 MSTORE PUSH2 0x163 SLOAD SWAP6 MLOAD PUSH4 0xFC6F7865 PUSH1 0xE0 SHL DUP2 MSTORE DUP6 MLOAD PUSH1 0x4 DUP3 ADD MSTORE SWAP4 MLOAD PUSH1 0x1 PUSH1 0x1 PUSH1 0xA0 SHL SUB SWAP1 DUP2 AND PUSH1 0x24 DUP7 ADD MSTORE SWAP2 MLOAD DUP4 AND PUSH1 0x44 DUP6 ADD MSTORE MLOAD SWAP1 SWAP2 AND PUSH1 0x64 DUP4 ADD MSTORE SWAP5 SWAP7 POP SWAP3 SWAP5 POP SWAP3 AND SWAP1 PUSH4 0xFC6F7865 SWAP1 PUSH1 0x84 ADD PUSH1 0x40 DUP1 MLOAD DUP1 DUP4 SUB DUP2 PUSH0 DUP8 GAS CALL ISZERO DUP1 ISZERO PUSH2 0x1D81 JUMPI RETURNDATASIZE PUSH0 PUSH0 RETURNDATACOPY RETURNDATASIZE PUSH0 REVERT JUMPDEST POP POP POP POP PUSH1 0x40 MLOAD RETURNDATASIZE PUSH1 0x1F NOT PUSH1 0x1F DUP3 ADD AND DUP3 ADD DUP1 PUSH1 0x40 MSTORE POP DUP2 ADD SWAP1 PUSH2 0x1DA5 SWAP2 SWAP1 PUSH2 0x4726 JUMP JUMPDEST POP POP POP POP POP POP JUMPDEST DUP3 DUP3 PUSH1 0x1 ADD PUSH0 DUP3 DUP3 SLOAD PUSH2 0x1DBF SWAP2 SWAP1 PUSH2 0x4492 JUMP JUMPDEST SWAP1 SWAP2 SSTORE POP PUSH0 SWAP1 POP PUSH2 0x1DCE PUSH2 0x2C35 JUMP JUMPDEST SWAP1 POP DUP1 DUP3 PUSH0 ADD MLOAD GT PUSH2 0x1DE0 JUMPI PUSH0 PUSH2 0x1DED JUMP JUMPDEST DUP2 MLOAD PUSH2 0x1DED SWAP1 DUP3 SWAP1 PUSH2 0x4492 JUMP JUMPDEST PUSH2 0x100 DUP4 ADD DUP2 SWAP1 MSTORE PUSH1 0x40 DUP1 MLOAD DUP8 DUP2 MSTORE PUSH1 0x20 DUP2 ADD DUP8 SWAP1 MSTORE SWAP1 DUP2 ADD SWAP2 SWAP1 SWAP2 MSTORE CALLER SWAP1 PUSH32 0x1DC8BB69DF2B8E91FBDCBFCF93D951B3F0000F085A95FE3F7946D6161439245D SWAP1 PUSH1 0x60 ADD JUMPDEST PUSH1 0x40 MLOAD DUP1 SWAP2 SUB SWAP1 LOG2 POP POP POP PUSH2 0x17B7 PUSH1 0x1 PUSH1 0x97 SSTORE JUMP JUMPDEST PUSH2 0x1E4F PUSH2 0x24B9 JUMP JUMPDEST PUSH2 0x861 PUSH2 0x3573 JUMP JUMPDEST PUSH0 CALLER DUP2 PUSH2 0x1E64 DUP3 DUP7 PUSH2 0x22F6 JUMP JUMPDEST SWAP1 POP DUP4 DUP2 LT ISZERO PUSH2 0x1EC4 JUMPI PUSH1 0x40 MLOAD PUSH3 0x461BCD PUSH1 0xE5 SHL DUP2 MSTORE PUSH1 0x20 PUSH1 0x4 DUP3 ADD MSTORE PUSH1 0x25 PUSH1 0x24 DUP3 ADD MSTORE PUSH32 0x45524332303A2064656372656173656420616C6C6F77616E63652062656C6F77 PUSH1 0x44 DUP3 ADD MSTORE PUSH5 0x207A65726F PUSH1 0xD8 SHL PUSH1 0x64 DUP3 ADD MSTORE PUSH1 0x84 ADD PUSH2 0x8BE JUMP JUMPDEST PUSH2 0x1ED1 DUP3 DUP7 DUP7 DUP5 SUB PUSH2 0x2396 JUMP JUMPDEST POP PUSH1 0x1 SWAP5 SWAP4 POP POP POP POP JUMP JUMPDEST PUSH0 CALLER PUSH2 0x845 DUP2 DUP6 DUP6 PUSH2 0x2F15 JUMP JUMPDEST PUSH2 0x1EF1 PUSH2 0x25BE JUMP JUMPDEST PUSH0 DUP4 DUP2 MSTORE PUSH2 0x166 PUSH1 0x20 MSTORE PUSH1 0x40 SWAP1 KECCAK256 SLOAD PUSH1 0xFF AND PUSH2 0x1F44 JUMPI PUSH1 0x40 MLOAD PUSH3 0x461BCD PUSH1 0xE5 SHL DUP2 MSTORE PUSH1 0x20 PUSH1 0x4 DUP3 ADD MSTORE PUSH1 0x12 PUSH1 0x24 DUP3 ADD MSTORE PUSH18 0x15985D5B1D0E881B9BC81CDD58DA08139195 PUSH1 0x72 SHL PUSH1 0x44 DUP3 ADD MSTORE PUSH1 0x64 ADD PUSH2 0x8BE JUMP JUMPDEST PUSH2 0x160 SLOAD PUSH1 0x40 MLOAD PUSH4 0x750F53AF PUSH1 0xE1 SHL DUP2 MSTORE PUSH1 0x1 PUSH1 0x1 PUSH1 0xA0 SHL SUB SWAP1 SWAP2 AND SWAP1 PUSH4 0xEA1EA75E SWAP1 PUSH2 0x1F79 SWAP1 ADDRESS SWAP1 DUP7 SWAP1 DUP7 SWAP1 PUSH1 0x4 ADD PUSH2 0x45FA JUMP JUMPDEST PUSH0 PUSH1 0x40 MLOAD DUP1 DUP4 SUB DUP2 PUSH0 DUP8 DUP1 EXTCODESIZE ISZERO DUP1 ISZERO PUSH2 0x1F90 JUMPI PUSH0 PUSH0 REVERT JUMPDEST POP GAS CALL ISZERO DUP1 ISZERO PUSH2 0x1FA2 JUMPI RETURNDATASIZE PUSH0 PUSH0 RETURNDATACOPY RETURNDATASIZE PUSH0 REVERT JUMPDEST POP POP POP POP PUSH32 0x2D242B555FF8D48F8A908C12302DC5442DBB6E7E08413A9C97C84DB8CCD01B24 DUP4 DUP4 DUP4 PUSH1 0x40 MLOAD PUSH2 0xC32 SWAP4 SWAP3 SWAP2 SWAP1 PUSH2 0x4748 JUMP JUMPDEST PUSH2 0x1FE1 PUSH2 0x2565 JUMP JUMPDEST PUSH2 0x1FE9 PUSH2 0x25BE JUMP JUMPDEST PUSH1 0x1 PUSH1 0x1 PUSH1 0xA0 SHL SUB DUP2 AND PUSH2 0x2033 JUMPI PUSH1 0x40 MLOAD PUSH3 0x461BCD PUSH1 0xE5 SHL DUP2 MSTORE PUSH1 0x20 PUSH1 0x4 DUP3 ADD MSTORE PUSH1 0x11 PUSH1 0x24 DUP3 ADD MSTORE PUSH17 0x5661756C743A20696E76616C696420746F PUSH1 0x78 SHL PUSH1 0x44 DUP3 ADD MSTORE PUSH1 0x64 ADD PUSH2 0x8BE JUMP JUMPDEST PUSH0 DUP3 DUP2 MSTORE PUSH2 0x166 PUSH1 0x20 MSTORE PUSH1 0x40 SWAP1 KECCAK256 DUP1 SLOAD PUSH1 0xFF AND PUSH2 0x2062 JUMPI PUSH1 0x40 MLOAD PUSH3 0x461BCD PUSH1 0xE5 SHL DUP2 MSTORE PUSH1 0x4 ADD PUSH2 0x8BE SWAP1 PUSH2 0x4462 JUMP JUMPDEST PUSH1 0x1 DUP2 ADD SLOAD CALLER PUSH0 SWAP1 DUP2 MSTORE PUSH1 0x33 PUSH1 0x20 MSTORE PUSH1 0x40 SWAP1 KECCAK256 SLOAD DUP2 GT ISZERO PUSH2 0x20C5 JUMPI PUSH1 0x40 MLOAD PUSH3 0x461BCD PUSH1 0xE5 SHL DUP2 MSTORE PUSH1 0x20 PUSH1 0x4 DUP3 ADD MSTORE PUSH1 0x1A PUSH1 0x24 DUP3 ADD MSTORE PUSH32 0x5661756C743A20696E73756666696369656E7420736861726573000000000000 PUSH1 0x44 DUP3 ADD MSTORE PUSH1 0x64 ADD PUSH2 0x8BE JUMP JUMPDEST PUSH2 0x20CF CALLER DUP3 PUSH2 0x2D6B JUMP JUMPDEST DUP2 SLOAD PUSH1 0xFF NOT AND DUP3 SSTORE PUSH2 0x163 SLOAD PUSH1 0x40 MLOAD PUSH4 0x21421707 PUSH1 0xE1 SHL DUP2 MSTORE ADDRESS PUSH1 0x4 DUP3 ADD MSTORE PUSH1 0x1 PUSH1 0x1 PUSH1 0xA0 SHL SUB DUP6 DUP2 AND PUSH1 0x24 DUP4 ADD MSTORE PUSH1 0x44 DUP3 ADD DUP8 SWAP1 MSTORE SWAP1 SWAP2 AND SWAP1 PUSH4 0x42842E0E SWAP1 PUSH1 0x64 ADD PUSH0 PUSH1 0x40 MLOAD DUP1 DUP4 SUB DUP2 PUSH0 DUP8 DUP1 EXTCODESIZE ISZERO DUP1 ISZERO PUSH2 0x2129 JUMPI PUSH0 PUSH0 REVERT JUMPDEST POP GAS CALL ISZERO DUP1 ISZERO PUSH2 0x213B JUMPI RETURNDATASIZE PUSH0 PUSH0 RETURNDATACOPY RETURNDATASIZE PUSH0 REVERT JUMPDEST POP POP POP POP PUSH0 PUSH2 0x2149 DUP6 PUSH2 0x2759 JUMP JUMPDEST PUSH1 0x40 DUP1 MLOAD DUP8 DUP2 MSTORE PUSH1 0x20 DUP2 ADD DUP6 SWAP1 MSTORE SWAP1 DUP2 ADD DUP3 SWAP1 MSTORE SWAP1 SWAP2 POP CALLER SWAP1 PUSH32 0xF2E6A6B1BA05BA12C83A664F6F479C81B8DAAE6DA423FECD0D1450099C443073 SWAP1 PUSH1 0x60 ADD PUSH2 0x1E32 JUMP JUMPDEST PUSH2 0x2194 PUSH2 0x24B9 JUMP JUMPDEST PUSH1 0x1 PUSH1 0x1 PUSH1 0xA0 SHL SUB DUP4 AND PUSH2 0x21E2 JUMPI PUSH1 0x40 MLOAD PUSH3 0x461BCD PUSH1 0xE5 SHL DUP2 MSTORE PUSH1 0x20 PUSH1 0x4 DUP3 ADD MSTORE PUSH1 0x15 PUSH1 0x24 DUP3 ADD MSTORE PUSH21 0x5661756C743A20696E76616C6964206F7261636C65 PUSH1 0x58 SHL PUSH1 0x44 DUP3 ADD MSTORE PUSH1 0x64 ADD PUSH2 0x8BE JUMP JUMPDEST PUSH1 0x1 PUSH1 0x1 PUSH1 0xA0 SHL SUB DUP3 AND PUSH2 0x2234 JUMPI PUSH1 0x40 MLOAD PUSH3 0x461BCD PUSH1 0xE5 SHL DUP2 MSTORE PUSH1 0x20 PUSH1 0x4 DUP3 ADD MSTORE PUSH1 0x19 PUSH1 0x24 DUP3 ADD MSTORE PUSH25 0x2B30BAB63A1D1034B73B30B634B2103932B130B630B731B2B9 PUSH1 0x39 SHL PUSH1 0x44 DUP3 ADD MSTORE PUSH1 0x64 ADD PUSH2 0x8BE JUMP JUMPDEST PUSH1 0x1 PUSH1 0x1 PUSH1 0xA0 SHL SUB DUP2 AND PUSH2 0x2286 JUMPI PUSH1 0x40 MLOAD PUSH3 0x461BCD PUSH1 0xE5 SHL DUP2 MSTORE PUSH1 0x20 PUSH1 0x4 DUP3 ADD MSTORE PUSH1 0x19 PUSH1 0x24 DUP3 ADD MSTORE PUSH25 0x2B30BAB63A1D1034B73B30B634B2103634B8BAB4B230BA37B9 PUSH1 0x39 SHL PUSH1 0x44 DUP3 ADD MSTORE PUSH1 0x64 ADD PUSH2 0x8BE JUMP JUMPDEST PUSH2 0x15F DUP1 SLOAD PUSH1 0x1 PUSH1 0x1 PUSH1 0xA0 SHL SUB NOT SWAP1 DUP2 AND PUSH1 0x1 PUSH1 0x1 PUSH1 0xA0 SHL SUB DUP7 DUP2 AND SWAP2 DUP3 OR SWAP1 SWAP4 SSTORE PUSH2 0x160 DUP1 SLOAD DUP4 AND DUP7 DUP6 AND SWAP1 DUP2 OR SWAP1 SWAP2 SSTORE PUSH2 0x161 DUP1 SLOAD SWAP1 SWAP4 AND SWAP4 DUP6 AND SWAP4 DUP5 OR SWAP1 SWAP3 SSTORE PUSH1 0x40 MLOAD PUSH32 0x8ACBD7EB4C86B1A56CE5FE66F6B88A69246781309B0C60DD4AA7F03BEA7A8A65 SWAP1 PUSH0 SWAP1 LOG4 POP POP POP JUMP JUMPDEST PUSH1 0x1 PUSH1 0x1 PUSH1 0xA0 SHL SUB SWAP2 DUP3 AND PUSH0 SWAP1 DUP2 MSTORE PUSH1 0x34 PUSH1 0x20 SWAP1 DUP2 MSTORE PUSH1 0x40 DUP1 DUP4 KECCAK256 SWAP4 SWAP1 SWAP5 AND DUP3 MSTORE SWAP2 SWAP1 SWAP2 MSTORE KECCAK256 SLOAD SWAP1 JUMP JUMPDEST PUSH2 0x2328 PUSH2 0x24B9 JUMP JUMPDEST PUSH1 0x1 PUSH1 0x1 PUSH1 0xA0 SHL SUB DUP2 AND PUSH2 0x238D JUMPI PUSH1 0x40 MLOAD PUSH3 0x461BCD PUSH1 0xE5 SHL DUP2 MSTORE PUSH1 0x20 PUSH1 0x4 DUP3 ADD MSTORE PUSH1 0x26 PUSH1 0x24 DUP3 ADD MSTORE PUSH32 0x4F776E61626C653A206E6577206F776E657220697320746865207A65726F2061 PUSH1 0x44 DUP3 ADD MSTORE PUSH6 0x646472657373 PUSH1 0xD0 SHL PUSH1 0x64 DUP3 ADD MSTORE PUSH1 0x84 ADD PUSH2 0x8BE JUMP JUMPDEST PUSH2 0x1119 DUP2 PUSH2 0x325E JUMP JUMPDEST PUSH1 0x1 PUSH1 0x1 PUSH1 0xA0 SHL SUB DUP4 AND PUSH2 0x23F8 JUMPI PUSH1 0x40 MLOAD PUSH3 0x461BCD PUSH1 0xE5 SHL DUP2 MSTORE PUSH1 0x20 PUSH1 0x4 DUP3 ADD MSTORE PUSH1 0x24 DUP1 DUP3 ADD MSTORE PUSH32 0x45524332303A20617070726F76652066726F6D20746865207A65726F20616464 PUSH1 0x44 DUP3 ADD MSTORE PUSH4 0x72657373 PUSH1 0xE0 SHL PUSH1 0x64 DUP3 ADD MSTORE PUSH1 0x84 ADD PUSH2 0x8BE JUMP JUMPDEST PUSH1 0x1 PUSH1 0x1 PUSH1 0xA0 SHL SUB DUP3 AND PUSH2 0x2459 JUMPI PUSH1 0x40 MLOAD PUSH3 0x461BCD PUSH1 0xE5 SHL DUP2 MSTORE PUSH1 0x20 PUSH1 0x4 DUP3 ADD MSTORE PUSH1 0x22 PUSH1 0x24 DUP3 ADD MSTORE PUSH32 0x45524332303A20617070726F766520746F20746865207A65726F206164647265 PUSH1 0x44 DUP3 ADD MSTORE PUSH2 0x7373 PUSH1 0xF0 SHL PUSH1 0x64 DUP3 ADD MSTORE PUSH1 0x84 ADD PUSH2 0x8BE JUMP JUMPDEST PUSH1 0x1 PUSH1 0x1 PUSH1 0xA0 SHL SUB DUP4 DUP2 AND PUSH0 DUP2 DUP2 MSTORE PUSH1 0x34 PUSH1 0x20 SWAP1 DUP2 MSTORE PUSH1 0x40 DUP1 DUP4 KECCAK256 SWAP5 DUP8 AND DUP1 DUP5 MSTORE SWAP5 DUP3 MSTORE SWAP2 DUP3 SWAP1 KECCAK256 DUP6 SWAP1 SSTORE SWAP1 MLOAD DUP5 DUP2 MSTORE PUSH32 0x8C5BE1E5EBEC7D5BD14F71427D1E84F3DD0314C0F7B2291E5B200AC8C7C3B925 SWAP2 ADD PUSH1 0x40 MLOAD DUP1 SWAP2 SUB SWAP1 LOG3 POP POP POP JUMP JUMPDEST PUSH1 0xC9 SLOAD PUSH1 0x1 PUSH1 0x1 PUSH1 0xA0 SHL SUB AND CALLER EQ PUSH2 0x861 JUMPI PUSH1 0x40 MLOAD PUSH3 0x461BCD PUSH1 0xE5 SHL DUP2 MSTORE PUSH1 0x20 PUSH1 0x4 DUP3 ADD DUP2 SWAP1 MSTORE PUSH1 0x24 DUP3 ADD MSTORE PUSH32 0x4F776E61626C653A2063616C6C6572206973206E6F7420746865206F776E6572 PUSH1 0x44 DUP3 ADD MSTORE PUSH1 0x64 ADD PUSH2 0x8BE JUMP JUMPDEST PUSH2 0x251B PUSH2 0x35B0 JUMP JUMPDEST PUSH1 0x65 DUP1 SLOAD PUSH1 0xFF NOT AND SWAP1 SSTORE PUSH32 0x5DB9EE0A495BF2E6FF9C91A7834C1BA4FDD244A5E8AA4E537BD38AEAE4B073AA CALLER JUMPDEST PUSH1 0x40 MLOAD PUSH1 0x1 PUSH1 0x1 PUSH1 0xA0 SHL SUB SWAP1 SWAP2 AND DUP2 MSTORE PUSH1 0x20 ADD PUSH1 0x40 MLOAD DUP1 SWAP2 SUB SWAP1 LOG1 JUMP JUMPDEST PUSH1 0x2 PUSH1 0x97 SLOAD SUB PUSH2 0x25B7 JUMPI PUSH1 0x40 MLOAD PUSH3 0x461BCD PUSH1 0xE5 SHL DUP2 MSTORE PUSH1 0x20 PUSH1 0x4 DUP3 ADD MSTORE PUSH1 0x1F PUSH1 0x24 DUP3 ADD MSTORE PUSH32 0x5265656E7472616E637947756172643A207265656E7472616E742063616C6C00 PUSH1 0x44 DUP3 ADD MSTORE PUSH1 0x64 ADD PUSH2 0x8BE JUMP JUMPDEST PUSH1 0x2 PUSH1 0x97 SSTORE JUMP JUMPDEST PUSH1 0x65 SLOAD PUSH1 0xFF AND ISZERO PUSH2 0x861 JUMPI PUSH1 0x40 MLOAD PUSH3 0x461BCD PUSH1 0xE5 SHL DUP2 MSTORE PUSH1 0x20 PUSH1 0x4 DUP3 ADD MSTORE PUSH1 0x10 PUSH1 0x24 DUP3 ADD MSTORE PUSH16 0x14185D5CD8589B194E881C185D5CD959 PUSH1 0x82 SHL PUSH1 0x44 DUP3 ADD MSTORE PUSH1 0x64 ADD PUSH2 0x8BE JUMP JUMPDEST PUSH2 0x163 SLOAD PUSH1 0x40 MLOAD PUSH4 0x133F7571 PUSH1 0xE3 SHL DUP2 MSTORE PUSH1 0x4 DUP2 ADD DUP4 SWAP1 MSTORE PUSH0 SWAP2 DUP3 SWAP2 DUP3 SWAP2 PUSH1 0x1 PUSH1 0x1 PUSH1 0xA0 SHL SUB AND SWAP1 PUSH4 0x99FBAB88 SWAP1 PUSH1 0x24 ADD PUSH2 0x180 PUSH1 0x40 MLOAD DUP1 DUP4 SUB DUP2 DUP7 GAS STATICCALL ISZERO DUP1 ISZERO PUSH2 0x2651 JUMPI RETURNDATASIZE PUSH0 PUSH0 RETURNDATACOPY RETURNDATASIZE PUSH0 REVERT JUMPDEST POP POP POP POP PUSH1 0x40 MLOAD RETURNDATASIZE PUSH1 0x1F NOT PUSH1 0x1F DUP3 ADD AND DUP3 ADD DUP1 PUSH1 0x40 MSTORE POP DUP2 ADD SWAP1 PUSH2 0x2675 SWAP2 SWAP1 PUSH2 0x464C JUMP JUMPDEST POP POP PUSH2 0x162 SLOAD PUSH1 0x40 MLOAD PUSH4 0xB4C7741 PUSH1 0xE1 SHL DUP2 MSTORE SWAP9 SWAP14 POP SWAP7 SWAP12 POP SWAP5 SWAP10 POP PUSH0 SWAP9 POP POP PUSH1 0x1 PUSH1 0x1 PUSH1 0xA0 SHL SUB SWAP1 SWAP5 AND SWAP6 POP PUSH4 0x1698EE82 SWAP5 PUSH2 0x26BE SWAP5 POP DUP11 SWAP4 POP DUP10 SWAP3 POP DUP9 SWAP2 POP PUSH1 0x4 ADD PUSH2 0x4761 JUMP JUMPDEST PUSH1 0x20 PUSH1 0x40 MLOAD DUP1 DUP4 SUB DUP2 DUP7 GAS STATICCALL ISZERO DUP1 ISZERO PUSH2 0x26D9 JUMPI RETURNDATASIZE PUSH0 PUSH0 RETURNDATACOPY RETURNDATASIZE PUSH0 REVERT JUMPDEST POP POP POP POP PUSH1 0x40 MLOAD RETURNDATASIZE PUSH1 0x1F NOT PUSH1 0x1F DUP3 ADD AND DUP3 ADD DUP1 PUSH1 0x40 MSTORE POP DUP2 ADD SWAP1 PUSH2 0x26FD SWAP2 SWAP1 PUSH2 0x4789 JUMP JUMPDEST PUSH2 0x164 SLOAD SWAP1 SWAP2 POP PUSH1 0x1 PUSH1 0x1 PUSH1 0xA0 SHL SUB DUP1 DUP4 AND SWAP2 AND EQ PUSH2 0x2752 JUMPI PUSH1 0x40 MLOAD PUSH3 0x461BCD PUSH1 0xE5 SHL DUP2 MSTORE PUSH1 0x20 PUSH1 0x4 DUP3 ADD MSTORE PUSH1 0x11 PUSH1 0x24 DUP3 ADD MSTORE PUSH17 0x15985D5B1D0E881DDC9BDB99C81C1BDBDB PUSH1 0x7A SHL PUSH1 0x44 DUP3 ADD MSTORE PUSH1 0x64 ADD PUSH2 0x8BE JUMP JUMPDEST POP POP POP POP POP JUMP JUMPDEST PUSH1 0x40 DUP1 MLOAD PUSH2 0x260 DUP2 ADD DUP3 MSTORE PUSH0 DUP1 DUP3 MSTORE PUSH1 0x20 DUP3 ADD DUP2 SWAP1 MSTORE SWAP2 DUP2 ADD DUP3 SWAP1 MSTORE PUSH1 0x60 DUP2 ADD DUP3 SWAP1 MSTORE PUSH1 0x80 DUP2 ADD DUP3 SWAP1 MSTORE PUSH1 0xA0 DUP2 ADD DUP3 SWAP1 MSTORE PUSH1 0xC0 DUP2 ADD DUP3 SWAP1 MSTORE PUSH1 0xE0 DUP2 ADD DUP3 SWAP1 MSTORE PUSH2 0x100 DUP2 ADD DUP3 SWAP1 MSTORE PUSH2 0x120 DUP2 ADD DUP3 SWAP1 MSTORE PUSH2 0x140 DUP2 ADD DUP3 SWAP1 MSTORE PUSH2 0x160 DUP2 ADD DUP3 SWAP1 MSTORE PUSH2 0x180 DUP2 ADD DUP3 SWAP1 MSTORE PUSH2 0x1A0 DUP2 ADD DUP3 SWAP1 MSTORE PUSH2 0x1C0 DUP2 ADD DUP3 SWAP1 MSTORE PUSH2 0x1E0 DUP2 ADD DUP3 SWAP1 MSTORE PUSH2 0x200 DUP2 ADD DUP3 SWAP1 MSTORE PUSH2 0x220 DUP2 ADD DUP3 SWAP1 MSTORE PUSH2 0x240 DUP2 ADD DUP3 SWAP1 MSTORE PUSH2 0x163 SLOAD PUSH1 0x40 MLOAD PUSH4 0x133F7571 PUSH1 0xE3 SHL DUP2 MSTORE PUSH1 0x4 DUP2 ADD DUP6 SWAP1 MSTORE PUSH1 0x1 PUSH1 0x1 PUSH1 0xA0 SHL SUB SWAP1 SWAP2 AND SWAP1 PUSH4 0x99FBAB88 SWAP1 PUSH1 0x24 ADD PUSH2 0x180 PUSH1 0x40 MLOAD DUP1 DUP4 SUB DUP2 DUP7 GAS STATICCALL ISZERO DUP1 ISZERO PUSH2 0x2839 JUMPI RETURNDATASIZE PUSH0 PUSH0 RETURNDATACOPY RETURNDATASIZE PUSH0 REVERT JUMPDEST POP POP POP POP PUSH1 0x40 MLOAD RETURNDATASIZE PUSH1 0x1F NOT PUSH1 0x1F DUP3 ADD AND DUP3 ADD DUP1 PUSH1 0x40 MSTORE POP DUP2 ADD SWAP1 PUSH2 0x285D SWAP2 SWAP1 PUSH2 0x464C JUMP JUMPDEST PUSH1 0x1 PUSH1 0x1 PUSH1 0x80 SHL SUB SWAP1 DUP2 AND PUSH1 0xE0 DUP15 ADD MSTORE SWAP1 DUP2 AND PUSH1 0xC0 DUP14 ADD MSTORE SWAP1 SWAP3 AND PUSH1 0xA0 DUP12 ADD MSTORE POP POP PUSH1 0x2 SWAP1 DUP2 SIGNEXTEND PUSH1 0x80 DUP10 ADD MSTORE SIGNEXTEND PUSH1 0x60 DUP8 ADD MSTORE PUSH3 0xFFFFFF AND PUSH1 0x40 DUP1 DUP8 ADD DUP3 SWAP1 MSTORE PUSH1 0x1 PUSH1 0x1 PUSH1 0xA0 SHL SUB SWAP3 DUP4 AND PUSH1 0x20 DUP9 ADD DUP2 SWAP1 MSTORE SWAP4 DUP4 AND DUP1 DUP9 MSTORE PUSH2 0x162 SLOAD SWAP2 MLOAD PUSH4 0xB4C7741 PUSH1 0xE1 SHL DUP2 MSTORE SWAP2 SWAP1 SWAP4 AND SWAP6 POP PUSH4 0x1698EE82 SWAP5 POP PUSH2 0x28DF SWAP4 SWAP2 SWAP1 PUSH1 0x4 ADD PUSH2 0x4761 JUMP JUMPDEST PUSH1 0x20 PUSH1 0x40 MLOAD DUP1 DUP4 SUB DUP2 DUP7 GAS STATICCALL ISZERO DUP1 ISZERO PUSH2 0x28FA JUMPI RETURNDATASIZE PUSH0 PUSH0 RETURNDATACOPY RETURNDATASIZE PUSH0 REVERT JUMPDEST POP POP POP POP PUSH1 0x40 MLOAD RETURNDATASIZE PUSH1 0x1F NOT PUSH1 0x1F DUP3 ADD AND DUP3 ADD DUP1 PUSH1 0x40 MSTORE POP DUP2 ADD SWAP1 PUSH2 0x291E SWAP2 SWAP1 PUSH2 0x4789 JUMP JUMPDEST PUSH1 0x1 PUSH1 0x1 PUSH1 0xA0 SHL SUB SWAP1 DUP2 AND PUSH2 0x100 DUP4 ADD DUP2 SWAP1 MSTORE PUSH2 0x164 SLOAD SWAP1 SWAP2 AND EQ PUSH2 0x297F JUMPI PUSH1 0x40 MLOAD PUSH3 0x461BCD PUSH1 0xE5 SHL DUP2 MSTORE PUSH1 0x20 PUSH1 0x4 DUP3 ADD MSTORE PUSH1 0x17 PUSH1 0x24 DUP3 ADD MSTORE PUSH23 0x15985D5B1D0E881B9BDD081C995C5D5A5C9959141BDBDB PUSH1 0x4A SHL PUSH1 0x44 DUP3 ADD MSTORE PUSH1 0x64 ADD PUSH2 0x8BE JUMP JUMPDEST DUP1 PUSH2 0x100 ADD MLOAD PUSH1 0x1 PUSH1 0x1 PUSH1 0xA0 SHL SUB AND PUSH4 0x3850C7BD PUSH1 0x40 MLOAD DUP2 PUSH4 0xFFFFFFFF AND PUSH1 0xE0 SHL DUP2 MSTORE PUSH1 0x4 ADD PUSH1 0xE0 PUSH1 0x40 MLOAD DUP1 DUP4 SUB DUP2 DUP7 GAS STATICCALL ISZERO DUP1 ISZERO PUSH2 0x29C0 JUMPI RETURNDATASIZE PUSH0 PUSH0 RETURNDATACOPY RETURNDATASIZE PUSH0 REVERT JUMPDEST POP POP POP POP PUSH1 0x40 MLOAD RETURNDATASIZE PUSH1 0x1F NOT PUSH1 0x1F DUP3 ADD AND DUP3 ADD DUP1 PUSH1 0x40 MSTORE POP DUP2 ADD SWAP1 PUSH2 0x29E4 SWAP2 SWAP1 PUSH2 0x47B5 JUMP JUMPDEST ISZERO ISZERO PUSH2 0x140 DUP9 ADD DUP2 SWAP1 MSTORE PUSH1 0x1 PUSH1 0x1 PUSH1 0xA0 SHL SUB SWAP1 SWAP7 AND PUSH2 0x120 DUP9 ADD MSTORE POP PUSH2 0x2A47 SWAP4 POP POP POP POP JUMPI PUSH1 0x40 MLOAD PUSH3 0x461BCD PUSH1 0xE5 SHL DUP2 MSTORE PUSH1 0x20 PUSH1 0x4 DUP3 ADD MSTORE PUSH1 0x13 PUSH1 0x24 DUP3 ADD MSTORE PUSH19 0x5661756C743A20706F6F6C206C6F636B65643F PUSH1 0x68 SHL PUSH1 0x44 DUP3 ADD MSTORE PUSH1 0x64 ADD PUSH2 0x8BE JUMP JUMPDEST PUSH2 0x2A74 DUP2 PUSH2 0x120 ADD MLOAD PUSH2 0x2A5D DUP4 PUSH1 0x60 ADD MLOAD PUSH2 0x35F9 JUMP JUMPDEST PUSH2 0x2A6A DUP5 PUSH1 0x80 ADD MLOAD PUSH2 0x35F9 JUMP JUMPDEST DUP5 PUSH1 0xA0 ADD MLOAD PUSH2 0x3A4F JUMP JUMPDEST PUSH2 0x180 DUP4 ADD MSTORE PUSH2 0x160 DUP3 ADD DUP2 SWAP1 MSTORE PUSH1 0xC0 DUP3 ADD MLOAD PUSH2 0x2A9C SWAP2 PUSH1 0x1 PUSH1 0x1 PUSH1 0x80 SHL SUB SWAP1 SWAP2 AND SWAP1 PUSH2 0x44A5 JUMP JUMPDEST PUSH2 0x1A0 DUP3 ADD MSTORE PUSH1 0xE0 DUP2 ADD MLOAD PUSH2 0x180 DUP3 ADD MLOAD PUSH2 0x2AC0 SWAP2 PUSH1 0x1 PUSH1 0x1 PUSH1 0x80 SHL SUB AND SWAP1 PUSH2 0x44A5 JUMP JUMPDEST PUSH2 0x1C0 DUP3 ADD MSTORE PUSH2 0x15F SLOAD DUP2 MLOAD PUSH1 0x40 MLOAD PUSH4 0x41976E09 PUSH1 0xE0 SHL DUP2 MSTORE PUSH1 0x1 PUSH1 0x1 PUSH1 0xA0 SHL SUB SWAP2 DUP3 AND PUSH1 0x4 DUP3 ADD MSTORE SWAP2 AND SWAP1 PUSH4 0x41976E09 SWAP1 PUSH1 0x24 ADD PUSH1 0x40 DUP1 MLOAD DUP1 DUP4 SUB DUP2 DUP7 GAS STATICCALL ISZERO DUP1 ISZERO PUSH2 0x2B0F JUMPI RETURNDATASIZE PUSH0 PUSH0 RETURNDATACOPY RETURNDATASIZE PUSH0 REVERT JUMPDEST POP POP POP POP PUSH1 0x40 MLOAD RETURNDATASIZE PUSH1 0x1F NOT PUSH1 0x1F DUP3 ADD AND DUP3 ADD DUP1 PUSH1 0x40 MSTORE POP DUP2 ADD SWAP1 PUSH2 0x2B33 SWAP2 SWAP1 PUSH2 0x45A8 JUMP JUMPDEST PUSH1 0xFF AND PUSH2 0x220 DUP4 ADD MSTORE PUSH2 0x1E0 DUP3 ADD MSTORE PUSH2 0x15F SLOAD PUSH1 0x20 DUP3 ADD MLOAD PUSH1 0x40 MLOAD PUSH4 0x41976E09 PUSH1 0xE0 SHL DUP2 MSTORE PUSH1 0x1 PUSH1 0x1 PUSH1 0xA0 SHL SUB SWAP2 DUP3 AND PUSH1 0x4 DUP3 ADD MSTORE SWAP2 AND SWAP1 PUSH4 0x41976E09 SWAP1 PUSH1 0x24 ADD PUSH1 0x40 DUP1 MLOAD DUP1 DUP4 SUB DUP2 DUP7 GAS STATICCALL ISZERO DUP1 ISZERO PUSH2 0x2B8E JUMPI RETURNDATASIZE PUSH0 PUSH0 RETURNDATACOPY RETURNDATASIZE PUSH0 REVERT JUMPDEST POP POP POP POP PUSH1 0x40 MLOAD RETURNDATASIZE PUSH1 0x1F NOT PUSH1 0x1F DUP3 ADD AND DUP3 ADD DUP1 PUSH1 0x40 MSTORE POP DUP2 ADD SWAP1 PUSH2 0x2BB2 SWAP2 SWAP1 PUSH2 0x45A8 JUMP JUMPDEST PUSH1 0xFF AND PUSH2 0x240 DUP4 ADD MSTORE PUSH2 0x200 DUP3 ADD MSTORE PUSH2 0x220 DUP2 ADD MLOAD PUSH0 SWAP1 PUSH2 0x2BD4 SWAP1 PUSH1 0xA PUSH2 0x4923 JUMP JUMPDEST DUP3 PUSH2 0x1E0 ADD MLOAD DUP4 PUSH2 0x1A0 ADD MLOAD PUSH2 0x2BEA SWAP2 SWAP1 PUSH2 0x442C JUMP JUMPDEST PUSH2 0x2BF4 SWAP2 SWAP1 PUSH2 0x4443 JUMP JUMPDEST SWAP1 POP PUSH0 DUP3 PUSH2 0x240 ADD MLOAD PUSH1 0xA PUSH2 0x2C09 SWAP2 SWAP1 PUSH2 0x4923 JUMP JUMPDEST DUP4 PUSH2 0x200 ADD MLOAD DUP5 PUSH2 0x1C0 ADD MLOAD PUSH2 0x2C1F SWAP2 SWAP1 PUSH2 0x442C JUMP JUMPDEST PUSH2 0x2C29 SWAP2 SWAP1 PUSH2 0x4443 JUMP JUMPDEST SWAP1 POP PUSH2 0xB0D DUP2 DUP4 PUSH2 0x44A5 JUMP JUMPDEST PUSH0 DUP1 DUP1 JUMPDEST PUSH2 0x167 SLOAD DUP2 LT ISZERO PUSH2 0x2C9F JUMPI PUSH0 PUSH2 0x167 DUP3 DUP2 SLOAD DUP2 LT PUSH2 0x2C59 JUMPI PUSH2 0x2C59 PUSH2 0x4931 JUMP JUMPDEST PUSH0 SWAP2 DUP3 MSTORE PUSH1 0x20 DUP1 DUP4 KECCAK256 SWAP1 SWAP2 ADD SLOAD DUP1 DUP4 MSTORE PUSH2 0x166 SWAP1 SWAP2 MSTORE PUSH1 0x40 SWAP1 SWAP2 KECCAK256 SLOAD SWAP1 SWAP2 POP PUSH1 0xFF AND ISZERO PUSH2 0x2C96 JUMPI PUSH2 0x2C89 DUP2 PUSH2 0x2759 JUMP JUMPDEST PUSH2 0x2C93 SWAP1 DUP5 PUSH2 0x44A5 JUMP JUMPDEST SWAP3 POP JUMPDEST POP PUSH1 0x1 ADD PUSH2 0x2C39 JUMP JUMPDEST POP SWAP2 SWAP1 POP JUMP JUMPDEST PUSH1 0x1 PUSH1 0x1 PUSH1 0xA0 SHL SUB DUP3 AND PUSH2 0x2CFB JUMPI PUSH1 0x40 MLOAD PUSH3 0x461BCD PUSH1 0xE5 SHL DUP2 MSTORE PUSH1 0x20 PUSH1 0x4 DUP3 ADD MSTORE PUSH1 0x1F PUSH1 0x24 DUP3 ADD MSTORE PUSH32 0x45524332303A206D696E7420746F20746865207A65726F206164647265737300 PUSH1 0x44 DUP3 ADD MSTORE PUSH1 0x64 ADD PUSH2 0x8BE JUMP JUMPDEST DUP1 PUSH1 0x35 PUSH0 DUP3 DUP3 SLOAD PUSH2 0x2D0C SWAP2 SWAP1 PUSH2 0x44A5 JUMP JUMPDEST SWAP1 SWAP2 SSTORE POP POP PUSH1 0x1 PUSH1 0x1 PUSH1 0xA0 SHL SUB DUP3 AND PUSH0 DUP2 DUP2 MSTORE PUSH1 0x33 PUSH1 0x20 SWAP1 DUP2 MSTORE PUSH1 0x40 DUP1 DUP4 KECCAK256 DUP1 SLOAD DUP7 ADD SWAP1 SSTORE MLOAD DUP5 DUP2 MSTORE PUSH32 0xDDF252AD1BE2C89B69C2B068FC378DAA952BA7F163C4A11628F55A4DF523B3EF SWAP2 ADD PUSH1 0x40 MLOAD DUP1 SWAP2 SUB SWAP1 LOG3 POP POP JUMP JUMPDEST PUSH1 0x1 PUSH1 0x97 SSTORE JUMP JUMPDEST PUSH1 0x1 PUSH1 0x1 PUSH1 0xA0 SHL SUB DUP3 AND PUSH2 0x2DCB JUMPI PUSH1 0x40 MLOAD PUSH3 0x461BCD PUSH1 0xE5 SHL DUP2 MSTORE PUSH1 0x20 PUSH1 0x4 DUP3 ADD MSTORE PUSH1 0x21 PUSH1 0x24 DUP3 ADD MSTORE PUSH32 0x45524332303A206275726E2066726F6D20746865207A65726F20616464726573 PUSH1 0x44 DUP3 ADD MSTORE PUSH1 0x73 PUSH1 0xF8 SHL PUSH1 0x64 DUP3 ADD MSTORE PUSH1 0x84 ADD PUSH2 0x8BE JUMP JUMPDEST PUSH1 0x1 PUSH1 0x1 PUSH1 0xA0 SHL SUB DUP3 AND PUSH0 SWAP1 DUP2 MSTORE PUSH1 0x33 PUSH1 0x20 MSTORE PUSH1 0x40 SWAP1 KECCAK256 SLOAD DUP2 DUP2 LT ISZERO PUSH2 0x2E3E JUMPI PUSH1 0x40 MLOAD PUSH3 0x461BCD PUSH1 0xE5 SHL DUP2 MSTORE PUSH1 0x20 PUSH1 0x4 DUP3 ADD MSTORE PUSH1 0x22 PUSH1 0x24 DUP3 ADD MSTORE PUSH32 0x45524332303A206275726E20616D6F756E7420657863656564732062616C616E PUSH1 0x44 DUP3 ADD MSTORE PUSH2 0x6365 PUSH1 0xF0 SHL PUSH1 0x64 DUP3 ADD MSTORE PUSH1 0x84 ADD PUSH2 0x8BE JUMP JUMPDEST PUSH1 0x1 PUSH1 0x1 PUSH1 0xA0 SHL SUB DUP4 AND PUSH0 DUP2 DUP2 MSTORE PUSH1 0x33 PUSH1 0x20 SWAP1 DUP2 MSTORE PUSH1 0x40 DUP1 DUP4 KECCAK256 DUP7 DUP7 SUB SWAP1 SSTORE PUSH1 0x35 DUP1 SLOAD DUP8 SWAP1 SUB SWAP1 SSTORE MLOAD DUP6 DUP2 MSTORE SWAP2 SWAP3 SWAP2 PUSH32 0xDDF252AD1BE2C89B69C2B068FC378DAA952BA7F163C4A11628F55A4DF523B3EF SWAP2 ADD PUSH1 0x40 MLOAD DUP1 SWAP2 SUB SWAP1 LOG3 POP POP POP JUMP JUMPDEST PUSH0 PUSH2 0x2EA8 DUP5 DUP5 PUSH2 0x22F6 JUMP JUMPDEST SWAP1 POP PUSH0 NOT DUP2 EQ PUSH2 0x2F0F JUMPI DUP2 DUP2 LT ISZERO PUSH2 0x2F02 JUMPI PUSH1 0x40 MLOAD PUSH3 0x461BCD PUSH1 0xE5 SHL DUP2 MSTORE PUSH1 0x20 PUSH1 0x4 DUP3 ADD MSTORE PUSH1 0x1D PUSH1 0x24 DUP3 ADD MSTORE PUSH32 0x45524332303A20696E73756666696369656E7420616C6C6F77616E6365000000 PUSH1 0x44 DUP3 ADD MSTORE PUSH1 0x64 ADD PUSH2 0x8BE JUMP JUMPDEST PUSH2 0x2F0F DUP5 DUP5 DUP5 DUP5 SUB PUSH2 0x2396 JUMP JUMPDEST POP POP POP POP JUMP JUMPDEST PUSH1 0x1 PUSH1 0x1 PUSH1 0xA0 SHL SUB DUP4 AND PUSH2 0x2F79 JUMPI PUSH1 0x40 MLOAD PUSH3 0x461BCD PUSH1 0xE5 SHL DUP2 MSTORE PUSH1 0x20 PUSH1 0x4 DUP3 ADD MSTORE PUSH1 0x25 PUSH1 0x24 DUP3 ADD MSTORE PUSH32 0x45524332303A207472616E736665722066726F6D20746865207A65726F206164 PUSH1 0x44 DUP3 ADD MSTORE PUSH5 0x6472657373 PUSH1 0xD8 SHL PUSH1 0x64 DUP3 ADD MSTORE PUSH1 0x84 ADD PUSH2 0x8BE JUMP JUMPDEST PUSH1 0x1 PUSH1 0x1 PUSH1 0xA0 SHL SUB DUP3 AND PUSH2 0x2FDB JUMPI PUSH1 0x40 MLOAD PUSH3 0x461BCD PUSH1 0xE5 SHL DUP2 MSTORE PUSH1 0x20 PUSH1 0x4 DUP3 ADD MSTORE PUSH1 0x23 PUSH1 0x24 DUP3 ADD MSTORE PUSH32 0x45524332303A207472616E7366657220746F20746865207A65726F2061646472 PUSH1 0x44 DUP3 ADD MSTORE PUSH3 0x657373 PUSH1 0xE8 SHL PUSH1 0x64 DUP3 ADD MSTORE PUSH1 0x84 ADD PUSH2 0x8BE JUMP JUMPDEST PUSH1 0x1 PUSH1 0x1 PUSH1 0xA0 SHL SUB DUP4 AND PUSH0 SWAP1 DUP2 MSTORE PUSH1 0x33 PUSH1 0x20 MSTORE PUSH1 0x40 SWAP1 KECCAK256 SLOAD DUP2 DUP2 LT ISZERO PUSH2 0x3052 JUMPI PUSH1 0x40 MLOAD PUSH3 0x461BCD PUSH1 0xE5 SHL DUP2 MSTORE PUSH1 0x20 PUSH1 0x4 DUP3 ADD MSTORE PUSH1 0x26 PUSH1 0x24 DUP3 ADD MSTORE PUSH32 0x45524332303A207472616E7366657220616D6F756E7420657863656564732062 PUSH1 0x44 DUP3 ADD MSTORE PUSH6 0x616C616E6365 PUSH1 0xD0 SHL PUSH1 0x64 DUP3 ADD MSTORE PUSH1 0x84 ADD PUSH2 0x8BE JUMP JUMPDEST PUSH1 0x1 PUSH1 0x1 PUSH1 0xA0 SHL SUB DUP1 DUP6 AND PUSH0 DUP2 DUP2 MSTORE PUSH1 0x33 PUSH1 0x20 MSTORE PUSH1 0x40 DUP1 DUP3 KECCAK256 DUP7 DUP7 SUB SWAP1 SSTORE SWAP3 DUP7 AND DUP1 DUP3 MSTORE SWAP1 DUP4 SWAP1 KECCAK256 DUP1 SLOAD DUP7 ADD SWAP1 SSTORE SWAP2 MLOAD PUSH32 0xDDF252AD1BE2C89B69C2B068FC378DAA952BA7F163C4A11628F55A4DF523B3EF SWAP1 PUSH2 0x30B1 SWAP1 DUP7 DUP2 MSTORE PUSH1 0x20 ADD SWAP1 JUMP JUMPDEST PUSH1 0x40 MLOAD DUP1 SWAP2 SUB SWAP1 LOG3 PUSH2 0x2F0F JUMP JUMPDEST PUSH2 0x1119 PUSH2 0x24B9 JUMP JUMPDEST PUSH32 0x4910FDFA16FED3260ED0E7147F7CC6DA11A60208B5B9406D12A635614FFD9143 SLOAD PUSH1 0xFF AND ISZERO PUSH2 0x30F9 JUMPI PUSH2 0xF7A DUP4 PUSH2 0x3B79 JUMP JUMPDEST DUP3 PUSH1 0x1 PUSH1 0x1 PUSH1 0xA0 SHL SUB AND PUSH4 0x52D1902D PUSH1 0x40 MLOAD DUP2 PUSH4 0xFFFFFFFF AND PUSH1 0xE0 SHL DUP2 MSTORE PUSH1 0x4 ADD PUSH1 0x20 PUSH1 0x40 MLOAD DUP1 DUP4 SUB DUP2 DUP7 GAS STATICCALL SWAP3 POP POP POP DUP1 ISZERO PUSH2 0x3153 JUMPI POP PUSH1 0x40 DUP1 MLOAD PUSH1 0x1F RETURNDATASIZE SWAP1 DUP2 ADD PUSH1 0x1F NOT AND DUP3 ADD SWAP1 SWAP3 MSTORE PUSH2 0x3150 SWAP2 DUP2 ADD SWAP1 PUSH2 0x4945 JUMP JUMPDEST PUSH1 0x1 JUMPDEST PUSH2 0x31B6 JUMPI PUSH1 0x40 MLOAD PUSH3 0x461BCD PUSH1 0xE5 SHL DUP2 MSTORE PUSH1 0x20 PUSH1 0x4 DUP3 ADD MSTORE PUSH1 0x2E PUSH1 0x24 DUP3 ADD MSTORE PUSH32 0x45524331393637557067726164653A206E657720696D706C656D656E74617469 PUSH1 0x44 DUP3 ADD MSTORE PUSH14 0x6F6E206973206E6F742055555053 PUSH1 0x90 SHL PUSH1 0x64 DUP3 ADD MSTORE PUSH1 0x84 ADD PUSH2 0x8BE JUMP JUMPDEST PUSH0 MLOAD PUSH1 0x20 PUSH2 0x4B01 PUSH0 CODECOPY PUSH0 MLOAD SWAP1 PUSH0 MSTORE DUP2 EQ PUSH2 0x3224 JUMPI PUSH1 0x40 MLOAD PUSH3 0x461BCD PUSH1 0xE5 SHL DUP2 MSTORE PUSH1 0x20 PUSH1 0x4 DUP3 ADD MSTORE PUSH1 0x29 PUSH1 0x24 DUP3 ADD MSTORE PUSH32 0x45524331393637557067726164653A20756E737570706F727465642070726F78 PUSH1 0x44 DUP3 ADD MSTORE PUSH9 0x1A58589B1955555251 PUSH1 0xBA SHL PUSH1 0x64 DUP3 ADD MSTORE PUSH1 0x84 ADD PUSH2 0x8BE JUMP JUMPDEST POP PUSH2 0xF7A DUP4 DUP4 DUP4 PUSH2 0x3C14 JUMP JUMPDEST PUSH0 SLOAD PUSH2 0x100 SWAP1 DIV PUSH1 0xFF AND PUSH2 0x3256 JUMPI PUSH1 0x40 MLOAD PUSH3 0x461BCD PUSH1 0xE5 SHL DUP2 MSTORE PUSH1 0x4 ADD PUSH2 0x8BE SWAP1 PUSH2 0x495C JUMP JUMPDEST PUSH2 0x861 PUSH2 0x3C38 JUMP JUMPDEST PUSH1 0xC9 DUP1 SLOAD PUSH1 0x1 PUSH1 0x1 PUSH1 0xA0 SHL SUB DUP4 DUP2 AND PUSH1 0x1 PUSH1 0x1 PUSH1 0xA0 SHL SUB NOT DUP4 AND DUP2 OR SWAP1 SWAP4 SSTORE PUSH1 0x40 MLOAD SWAP2 AND SWAP2 SWAP1 DUP3 SWAP1 PUSH32 0x8BE0079C531659141344CD1FD0A4F28419497F9722A3DAAFE3B4186F6B6457E0 SWAP1 PUSH0 SWAP1 LOG3 POP POP JUMP JUMPDEST PUSH0 SLOAD PUSH2 0x100 SWAP1 DIV PUSH1 0xFF AND PUSH2 0x32D5 JUMPI PUSH1 0x40 MLOAD PUSH3 0x461BCD PUSH1 0xE5 SHL DUP2 MSTORE PUSH1 0x4 ADD PUSH2 0x8BE SWAP1 PUSH2 0x495C JUMP JUMPDEST PUSH2 0x17B7 DUP3 DUP3 PUSH2 0x3C67 JUMP JUMPDEST PUSH0 SLOAD PUSH2 0x100 SWAP1 DIV PUSH1 0xFF AND PUSH2 0x3305 JUMPI PUSH1 0x40 MLOAD PUSH3 0x461BCD PUSH1 0xE5 SHL DUP2 MSTORE PUSH1 0x4 ADD PUSH2 0x8BE SWAP1 PUSH2 0x495C JUMP JUMPDEST PUSH2 0x861 PUSH2 0x3CA6 JUMP JUMPDEST PUSH0 SLOAD PUSH2 0x100 SWAP1 DIV PUSH1 0xFF AND PUSH2 0x3333 JUMPI PUSH1 0x40 MLOAD PUSH3 0x461BCD PUSH1 0xE5 SHL DUP2 MSTORE PUSH1 0x4 ADD PUSH2 0x8BE SWAP1 PUSH2 0x495C JUMP JUMPDEST PUSH2 0x861 PUSH2 0x3CD8 JUMP JUMPDEST PUSH0 SLOAD PUSH2 0x100 SWAP1 DIV PUSH1 0xFF AND PUSH2 0x861 JUMPI PUSH1 0x40 MLOAD PUSH3 0x461BCD PUSH1 0xE5 SHL DUP2 MSTORE PUSH1 0x4 ADD PUSH2 0x8BE SWAP1 PUSH2 0x495C JUMP JUMPDEST PUSH2 0x163 SLOAD PUSH1 0x40 MLOAD PUSH4 0x133F7571 PUSH1 0xE3 SHL DUP2 MSTORE PUSH1 0x4 DUP2 ADD DUP5 SWAP1 MSTORE PUSH0 SWAP2 DUP3 SWAP2 DUP3 SWAP2 DUP3 SWAP2 DUP3 SWAP2 DUP3 SWAP2 DUP3 SWAP2 PUSH1 0x1 PUSH1 0x1 PUSH1 0xA0 SHL SUB AND SWAP1 PUSH4 0x99FBAB88 SWAP1 PUSH1 0x24 ADD PUSH2 0x180 PUSH1 0x40 MLOAD DUP1 DUP4 SUB DUP2 DUP7 GAS STATICCALL ISZERO DUP1 ISZERO PUSH2 0x33B6 JUMPI RETURNDATASIZE PUSH0 PUSH0 RETURNDATACOPY RETURNDATASIZE PUSH0 REVERT JUMPDEST POP POP POP POP PUSH1 0x40 MLOAD RETURNDATASIZE PUSH1 0x1F NOT PUSH1 0x1F DUP3 ADD AND DUP3 ADD DUP1 PUSH1 0x40 MSTORE POP DUP2 ADD SWAP1 PUSH2 0x33DA SWAP2 SWAP1 PUSH2 0x464C JUMP JUMPDEST POP POP PUSH2 0x162 SLOAD PUSH1 0x40 MLOAD PUSH4 0xB4C7741 PUSH1 0xE1 SHL DUP2 MSTORE SWAP9 SWAP16 POP SWAP7 SWAP14 POP SWAP5 SWAP12 POP SWAP3 SWAP10 POP SWAP1 SWAP8 POP PUSH0 SWAP7 POP POP PUSH1 0x1 PUSH1 0x1 PUSH1 0xA0 SHL SUB SWAP1 SWAP3 AND SWAP4 POP PUSH4 0x1698EE82 SWAP3 PUSH2 0x3427 SWAP3 POP DUP11 SWAP2 POP DUP10 SWAP1 DUP10 SWAP1 PUSH1 0x4 ADD PUSH2 0x4761 JUMP JUMPDEST PUSH1 0x20 PUSH1 0x40 MLOAD DUP1 DUP4 SUB DUP2 DUP7 GAS STATICCALL ISZERO DUP1 ISZERO PUSH2 0x3442 JUMPI RETURNDATASIZE PUSH0 PUSH0 RETURNDATACOPY RETURNDATASIZE PUSH0 REVERT JUMPDEST POP POP POP POP PUSH1 0x40 MLOAD RETURNDATASIZE PUSH1 0x1F NOT PUSH1 0x1F DUP3 ADD AND DUP3 ADD DUP1 PUSH1 0x40 MSTORE POP DUP2 ADD SWAP1 PUSH2 0x3466 SWAP2 SWAP1 PUSH2 0x4789 JUMP JUMPDEST PUSH2 0x164 SLOAD SWAP1 SWAP2 POP PUSH1 0x1 PUSH1 0x1 PUSH1 0xA0 SHL SUB DUP1 DUP4 AND SWAP2 AND EQ PUSH2 0x34C1 JUMPI PUSH1 0x40 MLOAD PUSH3 0x461BCD PUSH1 0xE5 SHL DUP2 MSTORE PUSH1 0x20 PUSH1 0x4 DUP3 ADD MSTORE PUSH1 0x17 PUSH1 0x24 DUP3 ADD MSTORE PUSH23 0x15985D5B1D0E881B9BDD081C995C5D5A5C9959141BDBDB PUSH1 0x4A SHL PUSH1 0x44 DUP3 ADD MSTORE PUSH1 0x64 ADD PUSH2 0x8BE JUMP JUMPDEST PUSH1 0x40 DUP1 MLOAD PUSH1 0x20 DUP2 ADD SWAP1 SWAP2 MSTORE PUSH0 DUP2 MSTORE DUP2 PUSH1 0x1 PUSH1 0x1 PUSH1 0xA0 SHL SUB AND PUSH4 0x3850C7BD PUSH1 0x40 MLOAD DUP2 PUSH4 0xFFFFFFFF AND PUSH1 0xE0 SHL DUP2 MSTORE PUSH1 0x4 ADD PUSH1 0xE0 PUSH1 0x40 MLOAD DUP1 DUP4 SUB DUP2 DUP7 GAS STATICCALL ISZERO DUP1 ISZERO PUSH2 0x350B JUMPI RETURNDATASIZE PUSH0 PUSH0 RETURNDATACOPY RETURNDATASIZE PUSH0 REVERT JUMPDEST POP POP POP POP PUSH1 0x40 MLOAD RETURNDATASIZE PUSH1 0x1F NOT PUSH1 0x1F DUP3 ADD AND DUP3 ADD DUP1 PUSH1 0x40 MSTORE POP DUP2 ADD SWAP1 PUSH2 0x352F SWAP2 SWAP1 PUSH2 0x47B5 JUMP JUMPDEST POP POP POP PUSH1 0x1 PUSH1 0x1 PUSH1 0xA0 SHL SUB SWAP1 SWAP4 AND DUP1 DUP6 MSTORE PUSH2 0x3561 SWAP4 POP SWAP2 POP PUSH2 0x3552 SWAP1 POP DUP7 PUSH2 0x35F9 JUMP JUMPDEST PUSH2 0x355B DUP7 PUSH2 0x35F9 JUMP JUMPDEST DUP14 PUSH2 0x3A4F JUMP JUMPDEST SWAP1 SWAP13 SWAP1 SWAP12 POP SWAP10 POP POP POP POP POP POP POP POP POP POP JUMP JUMPDEST PUSH2 0x357B PUSH2 0x25BE JUMP JUMPDEST PUSH1 0x65 DUP1 SLOAD PUSH1 0xFF NOT AND PUSH1 0x1 OR SWAP1 SSTORE PUSH32 0x62E78CEA01BEE320CD4E420270B5EA74000D11B0C9F74754EBDBFC544B05A258 PUSH2 0x2548 CALLER SWAP1 JUMP JUMPDEST PUSH1 0x65 SLOAD PUSH1 0xFF AND PUSH2 0x861 JUMPI PUSH1 0x40 MLOAD PUSH3 0x461BCD PUSH1 0xE5 SHL DUP2 MSTORE PUSH1 0x20 PUSH1 0x4 DUP3 ADD MSTORE PUSH1 0x14 PUSH1 0x24 DUP3 ADD MSTORE PUSH20 0x14185D5CD8589B194E881B9BDD081C185D5CD959 PUSH1 0x62 SHL PUSH1 0x44 DUP3 ADD MSTORE PUSH1 0x64 ADD PUSH2 0x8BE JUMP JUMPDEST PUSH0 PUSH3 0xD89E7 NOT PUSH1 0x2 DUP4 SWAP1 SIGNEXTEND SLT DUP1 ISZERO SWAP1 PUSH2 0x3624 JUMPI POP PUSH2 0x361A PUSH3 0xD89E7 NOT PUSH2 0x49A7 JUMP JUMPDEST PUSH1 0x2 SIGNEXTEND DUP3 PUSH1 0x2 SIGNEXTEND SGT ISZERO JUMPDEST PUSH2 0x3664 JUMPI PUSH1 0x40 MLOAD PUSH3 0x461BCD PUSH1 0xE5 SHL DUP2 MSTORE PUSH1 0x20 PUSH1 0x4 DUP3 ADD MSTORE PUSH1 0x11 PUSH1 0x24 DUP3 ADD MSTORE PUSH17 0x5469636B206F7574206F662072616E6765 PUSH1 0x78 SHL PUSH1 0x44 DUP3 ADD MSTORE PUSH1 0x64 ADD PUSH2 0x8BE JUMP JUMPDEST PUSH0 PUSH0 DUP4 PUSH1 0x2 SIGNEXTEND SLT PUSH2 0x367A JUMPI DUP3 PUSH3 0xFFFFFF AND PUSH2 0x3689 JUMP JUMPDEST PUSH2 0x3683 DUP4 PUSH2 0x49A7 JUMP JUMPDEST PUSH3 0xFFFFFF AND JUMPDEST SWAP1 POP PUSH1 0x1 PUSH1 0x80 SHL PUSH1 0x1 DUP3 AND ISZERO PUSH2 0x36BA JUMPI PUSH1 0x80 PUSH2 0x36B5 DUP3 PUSH16 0xFFFCB933BD6FAD37AA2D162D1A594001 PUSH2 0x442C JUMP JUMPDEST SWAP1 SHR SWAP1 POP JUMPDEST PUSH1 0x2 DUP3 AND ISZERO PUSH2 0x36E4 JUMPI PUSH1 0x80 PUSH2 0x36DF DUP3 PUSH16 0xFFF97272373D413259A46990580E213A PUSH2 0x442C JUMP JUMPDEST SWAP1 SHR SWAP1 POP JUMPDEST PUSH1 0x4 DUP3 AND ISZERO PUSH2 0x370E JUMPI PUSH1 0x80 PUSH2 0x3709 DUP3 PUSH16 0xFFF2E50F5F656932EF12357CF3C7FDCC PUSH2 0x442C JUMP JUMPDEST SWAP1 SHR SWAP1 POP JUMPDEST PUSH1 0x8 DUP3 AND ISZERO PUSH2 0x3738 JUMPI PUSH1 0x80 PUSH2 0x3733 DUP3 PUSH16 0xFFE5CACA7E10E4E61C3624EAA0941CD0 PUSH2 0x442C JUMP JUMPDEST SWAP1 SHR SWAP1 POP JUMPDEST PUSH1 0x10 DUP3 AND ISZERO PUSH2 0x3762 JUMPI PUSH1 0x80 PUSH2 0x375D DUP3 PUSH16 0xFFCB9843D60F6159C9DB58835C926644 PUSH2 0x442C JUMP JUMPDEST SWAP1 SHR SWAP1 POP JUMPDEST PUSH1 0x20 DUP3 AND ISZERO PUSH2 0x378C JUMPI PUSH1 0x80 PUSH2 0x3787 DUP3 PUSH16 0xFF973B41FA98C081472E6896DFB254C0 PUSH2 0x442C JUMP JUMPDEST SWAP1 SHR SWAP1 POP JUMPDEST PUSH1 0x40 DUP3 AND ISZERO PUSH2 0x37B6 JUMPI PUSH1 0x80 PUSH2 0x37B1 DUP3 PUSH16 0xFF2EA16466C96A3843EC78B326B52861 PUSH2 0x442C JUMP JUMPDEST SWAP1 SHR SWAP1 POP JUMPDEST PUSH1 0x80 DUP3 AND ISZERO PUSH2 0x37E0 JUMPI PUSH1 0x80 PUSH2 0x37DB DUP3 PUSH16 0xFE5DEE046A99A2A811C461F1969C3053 PUSH2 0x442C JUMP JUMPDEST SWAP1 SHR SWAP1 POP JUMPDEST PUSH2 0x100 DUP3 AND ISZERO PUSH2 0x380B JUMPI PUSH1 0x80 PUSH2 0x3806 DUP3 PUSH16 0xFCBE86C7900A88AEDCFFC83B479AA3A4 PUSH2 0x442C JUMP JUMPDEST SWAP1 SHR SWAP1 POP JUMPDEST PUSH2 0x200 DUP3 AND ISZERO PUSH2 0x3836 JUMPI PUSH1 0x80 PUSH2 0x3831 DUP3 PUSH16 0xF987A7253AC413176F2B074CF7815E54 PUSH2 0x442C JUMP JUMPDEST SWAP1 SHR SWAP1 POP JUMPDEST PUSH2 0x400 DUP3 AND ISZERO PUSH2 0x3861 JUMPI PUSH1 0x80 PUSH2 0x385C DUP3 PUSH16 0xF3392B0822B70005940C7A398E4B70F3 PUSH2 0x442C JUMP JUMPDEST SWAP1 SHR SWAP1 POP JUMPDEST PUSH2 0x800 DUP3 AND ISZERO PUSH2 0x388C JUMPI PUSH1 0x80 PUSH2 0x3887 DUP3 PUSH16 0xE7159475A2C29B7443B29C7FA6E889D9 PUSH2 0x442C JUMP JUMPDEST SWAP1 SHR SWAP1 POP JUMPDEST PUSH2 0x1000 DUP3 AND ISZERO PUSH2 0x38B7 JUMPI PUSH1 0x80 PUSH2 0x38B2 DUP3 PUSH16 0xD097F3BDFD2022B8845AD8F792AA5825 PUSH2 0x442C JUMP JUMPDEST SWAP1 SHR SWAP1 POP JUMPDEST PUSH2 0x2000 DUP3 AND ISZERO PUSH2 0x38E2 JUMPI PUSH1 0x80 PUSH2 0x38DD DUP3 PUSH16 0xA9F746462D870FDF8A65DC1F90E061E5 PUSH2 0x442C JUMP JUMPDEST SWAP1 SHR SWAP1 POP JUMPDEST PUSH2 0x4000 DUP3 AND ISZERO PUSH2 0x390D JUMPI PUSH1 0x80 PUSH2 0x3908 DUP3 PUSH16 0x70D869A156D2A1F6A7A2E3FADACB4C9B PUSH2 0x442C JUMP JUMPDEST SWAP1 SHR SWAP1 POP JUMPDEST PUSH2 0x8000 DUP3 AND ISZERO PUSH2 0x3938 JUMPI PUSH1 0x80 PUSH2 0x3933 DUP3 PUSH16 0x31BE135F97D08FD981231505542FCFA6 PUSH2 0x442C JUMP JUMPDEST SWAP1 SHR SWAP1 POP JUMPDEST PUSH3 0x10000 DUP3 AND ISZERO PUSH2 0x3964 JUMPI PUSH1 0x80 PUSH2 0x395F DUP3 PUSH16 0x9AA508B5B7A84E1C677DE54F3E99BC9 PUSH2 0x442C JUMP JUMPDEST SWAP1 SHR SWAP1 POP JUMPDEST PUSH3 0x20000 DUP3 AND ISZERO PUSH2 0x398F JUMPI PUSH1 0x80 PUSH2 0x398A DUP3 PUSH15 0x5D6AF8DEDB81196699C329225EE604 PUSH2 0x442C JUMP JUMPDEST SWAP1 SHR SWAP1 POP JUMPDEST PUSH3 0x40000 DUP3 AND ISZERO PUSH2 0x39B9 JUMPI PUSH1 0x80 PUSH2 0x39B4 DUP3 PUSH14 0x2216E584F5FA1EA926041BEDFE98 PUSH2 0x442C JUMP JUMPDEST SWAP1 SHR SWAP1 POP JUMPDEST PUSH3 0x80000 DUP3 AND ISZERO PUSH2 0x39E1 JUMPI PUSH1 0x80 PUSH2 0x39DC DUP3 PUSH12 0x48A170391F7DC42444E8FA2 PUSH2 0x442C JUMP JUMPDEST SWAP1 SHR SWAP1 POP JUMPDEST PUSH0 DUP5 PUSH1 0x2 SIGNEXTEND SGT ISZERO PUSH2 0x39FA JUMPI PUSH2 0x39F7 DUP2 PUSH0 NOT PUSH2 0x4443 JUMP JUMPDEST SWAP1 POP JUMPDEST PUSH1 0x20 DUP2 SWAP1 SHR PUSH1 0x1 PUSH1 0x1 PUSH1 0xA0 SHL SUB DUP2 GT ISZERO PUSH2 0x3A47 JUMPI PUSH1 0x40 MLOAD PUSH3 0x461BCD PUSH1 0xE5 SHL DUP2 MSTORE PUSH1 0x20 PUSH1 0x4 DUP3 ADD MSTORE PUSH1 0xE PUSH1 0x24 DUP3 ADD MSTORE PUSH14 0x5072696365206F766572666C6F77 PUSH1 0x90 SHL PUSH1 0x44 DUP3 ADD MSTORE PUSH1 0x64 ADD PUSH2 0x8BE JUMP JUMPDEST SWAP5 SWAP4 POP POP POP POP JUMP JUMPDEST PUSH0 PUSH0 DUP4 PUSH1 0x1 PUSH1 0x1 PUSH1 0xA0 SHL SUB AND DUP6 PUSH1 0x1 PUSH1 0x1 PUSH1 0xA0 SHL SUB AND GT ISZERO PUSH2 0x3A6F JUMPI SWAP3 SWAP4 SWAP3 JUMPDEST DUP5 PUSH1 0x1 PUSH1 0x1 PUSH1 0xA0 SHL SUB AND DUP7 PUSH1 0x1 PUSH1 0x1 PUSH1 0xA0 SHL SUB AND GT PUSH2 0x3AE3 JUMPI PUSH1 0x1 PUSH1 0x60 SHL PUSH1 0x1 PUSH1 0xE0 SHL SUB PUSH1 0x60 DUP5 SWAP1 SHL AND PUSH1 0x1 PUSH1 0x1 PUSH1 0xA0 SHL SUB DUP1 DUP8 AND SWAP1 DUP7 AND PUSH2 0x3AB1 DUP9 DUP9 PUSH2 0x49C7 JUMP JUMPDEST PUSH2 0x3AC4 SWAP1 PUSH1 0x1 PUSH1 0x1 PUSH1 0xA0 SHL SUB AND DUP5 PUSH2 0x442C JUMP JUMPDEST PUSH2 0x3ACE SWAP2 SWAP1 PUSH2 0x4443 JUMP JUMPDEST PUSH2 0x3AD8 SWAP2 SWAP1 PUSH2 0x4443 JUMP JUMPDEST SWAP3 POP PUSH0 SWAP2 POP POP PUSH2 0x3B70 JUMP JUMPDEST DUP4 PUSH1 0x1 PUSH1 0x1 PUSH1 0xA0 SHL SUB AND DUP7 PUSH1 0x1 PUSH1 0x1 PUSH1 0xA0 SHL SUB AND LT PUSH2 0x3B11 JUMPI PUSH0 SWAP2 POP PUSH2 0x3B0A DUP5 DUP7 DUP6 PUSH2 0x3CFE JUMP JUMPDEST SWAP1 POP PUSH2 0x3B70 JUMP JUMPDEST PUSH1 0x1 PUSH1 0x1 PUSH1 0xA0 SHL SUB DUP1 DUP8 AND SWAP1 DUP6 AND PUSH2 0x3B29 DUP9 DUP8 PUSH2 0x49C7 JUMP JUMPDEST PUSH2 0x3B4C SWAP1 PUSH1 0x1 PUSH1 0x1 PUSH1 0xA0 SHL SUB AND PUSH1 0x1 PUSH1 0x60 SHL PUSH1 0x1 PUSH1 0xE0 SHL SUB PUSH1 0x60 DUP9 SWAP1 SHL AND PUSH2 0x442C JUMP JUMPDEST PUSH2 0x3B56 SWAP2 SWAP1 PUSH2 0x4443 JUMP JUMPDEST PUSH2 0x3B60 SWAP2 SWAP1 PUSH2 0x4443 JUMP JUMPDEST SWAP2 POP PUSH2 0x3B6D DUP7 DUP7 DUP6 PUSH2 0x3CFE JUMP JUMPDEST SWAP1 POP JUMPDEST SWAP5 POP SWAP5 SWAP3 POP POP POP JUMP JUMPDEST PUSH1 0x1 PUSH1 0x1 PUSH1 0xA0 SHL SUB DUP2 AND EXTCODESIZE PUSH2 0x3BE6 JUMPI PUSH1 0x40 MLOAD PUSH3 0x461BCD PUSH1 0xE5 SHL DUP2 MSTORE PUSH1 0x20 PUSH1 0x4 DUP3 ADD MSTORE PUSH1 0x2D PUSH1 0x24 DUP3 ADD MSTORE PUSH32 0x455243313936373A206E657720696D706C656D656E746174696F6E206973206E PUSH1 0x44 DUP3 ADD MSTORE PUSH13 0x1BDD08184818DBDB9D1C9858DD PUSH1 0x9A SHL PUSH1 0x64 DUP3 ADD MSTORE PUSH1 0x84 ADD PUSH2 0x8BE JUMP JUMPDEST PUSH0 MLOAD PUSH1 0x20 PUSH2 0x4B01 PUSH0 CODECOPY PUSH0 MLOAD SWAP1 PUSH0 MSTORE DUP1 SLOAD PUSH1 0x1 PUSH1 0x1 PUSH1 0xA0 SHL SUB NOT AND PUSH1 0x1 PUSH1 0x1 PUSH1 0xA0 SHL SUB SWAP3 SWAP1 SWAP3 AND SWAP2 SWAP1 SWAP2 OR SWAP1 SSTORE JUMP JUMPDEST PUSH2 0x3C1D DUP4 PUSH2 0x3D34 JUMP JUMPDEST PUSH0 DUP3 MLOAD GT DUP1 PUSH2 0x3C29 JUMPI POP DUP1 JUMPDEST ISZERO PUSH2 0xF7A JUMPI PUSH2 0x2F0F DUP4 DUP4 PUSH2 0x3D73 JUMP JUMPDEST PUSH0 SLOAD PUSH2 0x100 SWAP1 DIV PUSH1 0xFF AND PUSH2 0x3C5E JUMPI PUSH1 0x40 MLOAD PUSH3 0x461BCD PUSH1 0xE5 SHL DUP2 MSTORE PUSH1 0x4 ADD PUSH2 0x8BE SWAP1 PUSH2 0x495C JUMP JUMPDEST PUSH2 0x861 CALLER PUSH2 0x325E JUMP JUMPDEST PUSH0 SLOAD PUSH2 0x100 SWAP1 DIV PUSH1 0xFF AND PUSH2 0x3C8D JUMPI PUSH1 0x40 MLOAD PUSH3 0x461BCD PUSH1 0xE5 SHL DUP2 MSTORE PUSH1 0x4 ADD PUSH2 0x8BE SWAP1 PUSH2 0x495C JUMP JUMPDEST PUSH1 0x36 PUSH2 0x3C99 DUP4 DUP3 PUSH2 0x4A2A JUMP JUMPDEST POP PUSH1 0x37 PUSH2 0xF7A DUP3 DUP3 PUSH2 0x4A2A JUMP JUMPDEST PUSH0 SLOAD PUSH2 0x100 SWAP1 DIV PUSH1 0xFF AND PUSH2 0x3CCC JUMPI PUSH1 0x40 MLOAD PUSH3 0x461BCD PUSH1 0xE5 SHL DUP2 MSTORE PUSH1 0x4 ADD PUSH2 0x8BE SWAP1 PUSH2 0x495C JUMP JUMPDEST PUSH1 0x65 DUP1 SLOAD PUSH1 0xFF NOT AND SWAP1 SSTORE JUMP JUMPDEST PUSH0 SLOAD PUSH2 0x100 SWAP1 DIV PUSH1 0xFF AND PUSH2 0x2D64 JUMPI PUSH1 0x40 MLOAD PUSH3 0x461BCD PUSH1 0xE5 SHL DUP2 MSTORE PUSH1 0x4 ADD PUSH2 0x8BE SWAP1 PUSH2 0x495C JUMP JUMPDEST PUSH0 PUSH1 0x1 PUSH1 0x60 SHL PUSH2 0x3D0E DUP5 DUP7 PUSH2 0x49C7 JUMP JUMPDEST PUSH2 0x3D2A SWAP1 PUSH1 0x1 PUSH1 0x1 PUSH1 0xA0 SHL SUB AND PUSH1 0x1 PUSH1 0x1 PUSH1 0x80 SHL SUB DUP6 AND PUSH2 0x442C JUMP JUMPDEST PUSH2 0x3A47 SWAP2 SWAP1 PUSH2 0x4443 JUMP JUMPDEST PUSH2 0x3D3D DUP2 PUSH2 0x3B79 JUMP JUMPDEST PUSH1 0x40 MLOAD PUSH1 0x1 PUSH1 0x1 PUSH1 0xA0 SHL SUB DUP3 AND SWAP1 PUSH32 0xBC7CD75A20EE27FD9ADEBAB32041F755214DBC6BFFA90CC0225B39DA2E5C2D3B SWAP1 PUSH0 SWAP1 LOG2 POP JUMP JUMPDEST PUSH1 0x60 PUSH1 0x1 PUSH1 0x1 PUSH1 0xA0 SHL SUB DUP4 AND EXTCODESIZE PUSH2 0x3DDB JUMPI PUSH1 0x40 MLOAD PUSH3 0x461BCD PUSH1 0xE5 SHL DUP2 MSTORE PUSH1 0x20 PUSH1 0x4 DUP3 ADD MSTORE PUSH1 0x26 PUSH1 0x24 DUP3 ADD MSTORE PUSH32 0x416464726573733A2064656C65676174652063616C6C20746F206E6F6E2D636F PUSH1 0x44 DUP3 ADD MSTORE PUSH6 0x1B9D1C9858DD PUSH1 0xD2 SHL PUSH1 0x64 DUP3 ADD MSTORE PUSH1 0x84 ADD PUSH2 0x8BE JUMP JUMPDEST PUSH0 PUSH0 DUP5 PUSH1 0x1 PUSH1 0x1 PUSH1 0xA0 SHL SUB AND DUP5 PUSH1 0x40 MLOAD PUSH2 0x3DF5 SWAP2 SWAP1 PUSH2 0x4AE5 JUMP JUMPDEST PUSH0 PUSH1 0x40 MLOAD DUP1 DUP4 SUB DUP2 DUP6 GAS DELEGATECALL SWAP2 POP POP RETURNDATASIZE DUP1 PUSH0 DUP2 EQ PUSH2 0x3E2D JUMPI PUSH1 0x40 MLOAD SWAP2 POP PUSH1 0x1F NOT PUSH1 0x3F RETURNDATASIZE ADD AND DUP3 ADD PUSH1 0x40 MSTORE RETURNDATASIZE DUP3 MSTORE RETURNDATASIZE PUSH0 PUSH1 0x20 DUP5 ADD RETURNDATACOPY PUSH2 0x3E32 JUMP JUMPDEST PUSH1 0x60 SWAP2 POP JUMPDEST POP SWAP2 POP SWAP2 POP PUSH2 0xB0D DUP3 DUP3 PUSH1 0x40 MLOAD DUP1 PUSH1 0x60 ADD PUSH1 0x40 MSTORE DUP1 PUSH1 0x27 DUP2 MSTORE PUSH1 0x20 ADD PUSH2 0x4B21 PUSH1 0x27 SWAP2 CODECOPY PUSH1 0x60 DUP4 ISZERO PUSH2 0x3E64 JUMPI POP DUP2 PUSH2 0xF9D JUMP JUMPDEST PUSH2 0xF9D DUP4 DUP4 DUP2 MLOAD ISZERO PUSH2 0x3E79 JUMPI DUP2 MLOAD DUP1 DUP4 PUSH1 0x20 ADD REVERT JUMPDEST DUP1 PUSH1 0x40 MLOAD PUSH3 0x461BCD PUSH1 0xE5 SHL DUP2 MSTORE PUSH1 0x4 ADD PUSH2 0x8BE SWAP2 SWAP1 PUSH2 0x3EB5 JUMP JUMPDEST PUSH0 JUMPDEST DUP4 DUP2 LT ISZERO PUSH2 0x3EAD JUMPI DUP2 DUP2 ADD MLOAD DUP4 DUP3 ADD MSTORE PUSH1 0x20 ADD PUSH2 0x3E95 JUMP JUMPDEST POP POP PUSH0 SWAP2 ADD MSTORE JUMP JUMPDEST PUSH1 0x20 DUP2 MSTORE PUSH0 DUP3 MLOAD DUP1 PUSH1 0x20 DUP5 ADD MSTORE PUSH2 0x3ED3 DUP2 PUSH1 0x40 DUP6 ADD PUSH1 0x20 DUP8 ADD PUSH2 0x3E93 JUMP JUMPDEST PUSH1 0x1F ADD PUSH1 0x1F NOT AND SWAP2 SWAP1 SWAP2 ADD PUSH1 0x40 ADD SWAP3 SWAP2 POP POP JUMP JUMPDEST PUSH1 0x1 PUSH1 0x1 PUSH1 0xA0 SHL SUB DUP2 AND DUP2 EQ PUSH2 0x1119 JUMPI PUSH0 PUSH0 REVERT JUMPDEST DUP1 CALLDATALOAD PUSH2 0x3F06 DUP2 PUSH2 0x3EE7 JUMP JUMPDEST SWAP2 SWAP1 POP JUMP JUMPDEST PUSH0 PUSH0 PUSH1 0x40 DUP4 DUP6 SUB SLT ISZERO PUSH2 0x3F1C JUMPI PUSH0 PUSH0 REVERT JUMPDEST DUP3 CALLDATALOAD PUSH2 0x3F27 DUP2 PUSH2 0x3EE7 JUMP JUMPDEST SWAP5 PUSH1 0x20 SWAP4 SWAP1 SWAP4 ADD CALLDATALOAD SWAP4 POP POP POP JUMP JUMPDEST PUSH0 PUSH0 DUP4 PUSH1 0x1F DUP5 ADD SLT PUSH2 0x3F45 JUMPI PUSH0 PUSH0 REVERT JUMPDEST POP DUP2 CALLDATALOAD PUSH8 0xFFFFFFFFFFFFFFFF DUP2 GT ISZERO PUSH2 0x3F5C JUMPI PUSH0 PUSH0 REVERT JUMPDEST PUSH1 0x20 DUP4 ADD SWAP2 POP DUP4 PUSH1 0x20 DUP3 DUP6 ADD ADD GT ISZERO PUSH2 0x3F73 JUMPI PUSH0 PUSH0 REVERT JUMPDEST SWAP3 POP SWAP3 SWAP1 POP JUMP JUMPDEST PUSH0 PUSH0 PUSH0 PUSH0 PUSH0 PUSH1 0x80 DUP7 DUP9 SUB SLT ISZERO PUSH2 0x3F8E JUMPI PUSH0 PUSH0 REVERT JUMPDEST DUP6 CALLDATALOAD PUSH2 0x3F99 DUP2 PUSH2 0x3EE7 JUMP JUMPDEST SWAP5 POP PUSH1 0x20 DUP7 ADD CALLDATALOAD PUSH2 0x3FA9 DUP2 PUSH2 0x3EE7 JUMP JUMPDEST SWAP4 POP PUSH1 0x40 DUP7 ADD CALLDATALOAD SWAP3 POP PUSH1 0x60 DUP7 ADD CALLDATALOAD PUSH8 0xFFFFFFFFFFFFFFFF DUP2 GT ISZERO PUSH2 0x3FCB JUMPI PUSH0 PUSH0 REVERT JUMPDEST PUSH2 0x3FD7 DUP9 DUP3 DUP10 ADD PUSH2 0x3F35 JUMP JUMPDEST SWAP7 SWAP10 SWAP6 SWAP9 POP SWAP4 SWAP7 POP SWAP3 SWAP5 SWAP4 SWAP3 POP POP POP JUMP JUMPDEST PUSH0 PUSH0 PUSH0 PUSH1 0x60 DUP5 DUP7 SUB SLT ISZERO PUSH2 0x3FFA JUMPI PUSH0 PUSH0 REVERT JUMPDEST DUP4 CALLDATALOAD PUSH2 0x4005 DUP2 PUSH2 0x3EE7 JUMP JUMPDEST SWAP3 POP PUSH1 0x20 DUP5 ADD CALLDATALOAD SWAP2 POP PUSH1 0x40 DUP5 ADD CALLDATALOAD PUSH2 0x401C DUP2 PUSH2 0x3EE7 JUMP JUMPDEST DUP1 SWAP2 POP POP SWAP3 POP SWAP3 POP SWAP3 JUMP JUMPDEST PUSH0 PUSH0 PUSH0 PUSH1 0x60 DUP5 DUP7 SUB SLT ISZERO PUSH2 0x4039 JUMPI PUSH0 PUSH0 REVERT JUMPDEST POP POP DUP2 CALLDATALOAD SWAP4 PUSH1 0x20 DUP4 ADD CALLDATALOAD SWAP4 POP PUSH1 0x40 SWAP1 SWAP3 ADD CALLDATALOAD SWAP2 SWAP1 POP JUMP JUMPDEST PUSH0 PUSH0 PUSH0 PUSH1 0x60 DUP5 DUP7 SUB SLT ISZERO PUSH2 0x4062 JUMPI PUSH0 PUSH0 REVERT JUMPDEST DUP4 CALLDATALOAD PUSH2 0x406D DUP2 PUSH2 0x3EE7 JUMP JUMPDEST SWAP3 POP PUSH1 0x20 DUP5 ADD CALLDATALOAD PUSH2 0x407D DUP2 PUSH2 0x3EE7 JUMP JUMPDEST SWAP3 SWAP6 SWAP3 SWAP5 POP POP POP PUSH1 0x40 SWAP2 SWAP1 SWAP2 ADD CALLDATALOAD SWAP1 JUMP JUMPDEST PUSH0 PUSH1 0x20 DUP3 DUP5 SUB SLT ISZERO PUSH2 0x409E JUMPI PUSH0 PUSH0 REVERT JUMPDEST POP CALLDATALOAD SWAP2 SWAP1 POP JUMP JUMPDEST PUSH0 PUSH1 0x20 DUP3 DUP5 SUB SLT ISZERO PUSH2 0x40B5 JUMPI PUSH0 PUSH0 REVERT JUMPDEST DUP2 CALLDATALOAD PUSH2 0xF9D DUP2 PUSH2 0x3EE7 JUMP JUMPDEST PUSH0 PUSH0 PUSH1 0x40 DUP4 DUP6 SUB SLT ISZERO PUSH2 0x40D1 JUMPI PUSH0 PUSH0 REVERT JUMPDEST DUP3 CALLDATALOAD SWAP2 POP PUSH1 0x20 DUP4 ADD CALLDATALOAD PUSH2 0x40E3 DUP2 PUSH2 0x3EE7 JUMP JUMPDEST DUP1 SWAP2 POP POP SWAP3 POP SWAP3 SWAP1 POP JUMP JUMPDEST PUSH4 0x4E487B71 PUSH1 0xE0 SHL PUSH0 MSTORE PUSH1 0x41 PUSH1 0x4 MSTORE PUSH1 0x24 PUSH0 REVERT JUMPDEST PUSH0 PUSH0 PUSH8 0xFFFFFFFFFFFFFFFF DUP5 GT ISZERO PUSH2 0x411C JUMPI PUSH2 0x411C PUSH2 0x40EE JUMP JUMPDEST POP PUSH1 0x40 MLOAD PUSH1 0x1F NOT PUSH1 0x1F DUP6 ADD DUP2 AND PUSH1 0x3F ADD AND DUP2 ADD DUP2 DUP2 LT PUSH8 0xFFFFFFFFFFFFFFFF DUP3 GT OR ISZERO PUSH2 0x414B JUMPI PUSH2 0x414B PUSH2 0x40EE JUMP JUMPDEST PUSH1 0x40 MSTORE DUP4 DUP2 MSTORE SWAP1 POP DUP1 DUP3 DUP5 ADD DUP6 LT ISZERO PUSH2 0x4162 JUMPI PUSH0 PUSH0 REVERT JUMPDEST DUP4 DUP4 PUSH1 0x20 DUP4 ADD CALLDATACOPY PUSH0 PUSH1 0x20 DUP6 DUP4 ADD ADD MSTORE POP SWAP4 SWAP3 POP POP POP JUMP JUMPDEST PUSH0 DUP3 PUSH1 0x1F DUP4 ADD SLT PUSH2 0x4188 JUMPI PUSH0 PUSH0 REVERT JUMPDEST PUSH2 0xF9D DUP4 DUP4 CALLDATALOAD PUSH1 0x20 DUP6 ADD PUSH2 0x4102 JUMP JUMPDEST PUSH0 PUSH0 PUSH0 PUSH0 PUSH0 PUSH0 PUSH0 PUSH0 PUSH0 PUSH0 PUSH2 0x140 DUP12 DUP14 SUB SLT ISZERO PUSH2 0x41B1 JUMPI PUSH0 PUSH0 REVERT JUMPDEST PUSH2 0x41BA DUP12 PUSH2 0x3EFB JUMP JUMPDEST SWAP10 POP PUSH2 0x41C8 PUSH1 0x20 DUP13 ADD PUSH2 0x3EFB JUMP JUMPDEST SWAP9 POP PUSH2 0x41D6 PUSH1 0x40 DUP13 ADD PUSH2 0x3EFB JUMP JUMPDEST SWAP8 POP PUSH2 0x41E4 PUSH1 0x60 DUP13 ADD PUSH2 0x3EFB JUMP JUMPDEST SWAP7 POP PUSH2 0x41F2 PUSH1 0x80 DUP13 ADD PUSH2 0x3EFB JUMP JUMPDEST SWAP6 POP PUSH2 0x4200 PUSH1 0xA0 DUP13 ADD PUSH2 0x3EFB JUMP JUMPDEST SWAP5 POP PUSH2 0x420E PUSH1 0xC0 DUP13 ADD PUSH2 0x3EFB JUMP JUMPDEST SWAP4 POP PUSH1 0xE0 DUP12 ADD CALLDATALOAD PUSH8 0xFFFFFFFFFFFFFFFF DUP2 GT ISZERO PUSH2 0x4229 JUMPI PUSH0 PUSH0 REVERT JUMPDEST PUSH2 0x4235 DUP14 DUP3 DUP15 ADD PUSH2 0x4179 JUMP JUMPDEST SWAP4 POP POP PUSH2 0x100 DUP12 ADD CALLDATALOAD PUSH8 0xFFFFFFFFFFFFFFFF DUP2 GT ISZERO PUSH2 0x4252 JUMPI PUSH0 PUSH0 REVERT JUMPDEST PUSH2 0x425E DUP14 DUP3 DUP15 ADD PUSH2 0x4179 JUMP JUMPDEST SWAP3 POP POP PUSH0 PUSH2 0x120 DUP13 ADD CALLDATALOAD SWAP1 POP DUP1 SWAP2 POP POP SWAP3 SWAP6 SWAP9 SWAP12 SWAP2 SWAP5 SWAP8 SWAP11 POP SWAP3 SWAP6 SWAP9 POP JUMP JUMPDEST PUSH0 PUSH0 PUSH1 0x40 DUP4 DUP6 SUB SLT ISZERO PUSH2 0x428E JUMPI PUSH0 PUSH0 REVERT JUMPDEST DUP3 CALLDATALOAD PUSH2 0x4299 DUP2 PUSH2 0x3EE7 JUMP JUMPDEST SWAP2 POP PUSH1 0x20 DUP4 ADD CALLDATALOAD PUSH8 0xFFFFFFFFFFFFFFFF DUP2 GT ISZERO PUSH2 0x42B4 JUMPI PUSH0 PUSH0 REVERT JUMPDEST DUP4 ADD PUSH1 0x1F DUP2 ADD DUP6 SGT PUSH2 0x42C4 JUMPI PUSH0 PUSH0 REVERT JUMPDEST PUSH2 0x42D3 DUP6 DUP3 CALLDATALOAD PUSH1 0x20 DUP5 ADD PUSH2 0x4102 JUMP JUMPDEST SWAP2 POP POP SWAP3 POP SWAP3 SWAP1 POP JUMP JUMPDEST PUSH0 PUSH0 PUSH0 PUSH1 0x40 DUP5 DUP7 SUB SLT ISZERO PUSH2 0x42EF JUMPI PUSH0 PUSH0 REVERT JUMPDEST DUP4 CALLDATALOAD PUSH2 0x42FA DUP2 PUSH2 0x3EE7 JUMP JUMPDEST SWAP3 POP PUSH1 0x20 DUP5 ADD CALLDATALOAD PUSH8 0xFFFFFFFFFFFFFFFF DUP2 GT ISZERO PUSH2 0x4315 JUMPI PUSH0 PUSH0 REVERT JUMPDEST PUSH2 0x4321 DUP7 DUP3 DUP8 ADD PUSH2 0x3F35 JUMP JUMPDEST SWAP5 SWAP8 SWAP1 SWAP7 POP SWAP4 SWAP5 POP POP POP POP JUMP JUMPDEST PUSH0 PUSH0 PUSH1 0x40 DUP4 DUP6 SUB SLT ISZERO PUSH2 0x433F JUMPI PUSH0 PUSH0 REVERT JUMPDEST POP POP DUP1 CALLDATALOAD SWAP3 PUSH1 0x20 SWAP1 SWAP2 ADD CALLDATALOAD SWAP2 POP JUMP JUMPDEST PUSH0 PUSH0 PUSH0 PUSH1 0x40 DUP5 DUP7 SUB SLT ISZERO PUSH2 0x4360 JUMPI PUSH0 PUSH0 REVERT JUMPDEST DUP4 CALLDATALOAD SWAP3 POP PUSH1 0x20 DUP5 ADD CALLDATALOAD PUSH8 0xFFFFFFFFFFFFFFFF DUP2 GT ISZERO PUSH2 0x4315 JUMPI PUSH0 PUSH0 REVERT JUMPDEST PUSH0 PUSH0 PUSH0 PUSH1 0x60 DUP5 DUP7 SUB SLT ISZERO PUSH2 0x438F JUMPI PUSH0 PUSH0 REVERT JUMPDEST DUP4 CALLDATALOAD PUSH2 0x439A DUP2 PUSH2 0x3EE7 JUMP JUMPDEST SWAP3 POP PUSH1 0x20 DUP5 ADD CALLDATALOAD PUSH2 0x43AA DUP2 PUSH2 0x3EE7 JUMP JUMPDEST SWAP2 POP PUSH1 0x40 DUP5 ADD CALLDATALOAD PUSH2 0x401C DUP2 PUSH2 0x3EE7 JUMP JUMPDEST PUSH0 PUSH0 PUSH1 0x40 DUP4 DUP6 SUB SLT ISZERO PUSH2 0x43CB JUMPI PUSH0 PUSH0 REVERT JUMPDEST DUP3 CALLDATALOAD PUSH2 0x43D6 DUP2 PUSH2 0x3EE7 JUMP JUMPDEST SWAP2 POP PUSH1 0x20 DUP4 ADD CALLDATALOAD PUSH2 0x40E3 DUP2 PUSH2 0x3EE7 JUMP JUMPDEST PUSH1 0x1 DUP2 DUP2 SHR SWAP1 DUP3 AND DUP1 PUSH2 0x43FA JUMPI PUSH1 0x7F DUP3 AND SWAP2 POP JUMPDEST PUSH1 0x20 DUP3 LT DUP2 SUB PUSH2 0x2C9F JUMPI PUSH4 0x4E487B71 PUSH1 0xE0 SHL PUSH0 MSTORE PUSH1 0x22 PUSH1 0x4 MSTORE PUSH1 0x24 PUSH0 REVERT JUMPDEST PUSH4 0x4E487B71 PUSH1 0xE0 SHL PUSH0 MSTORE PUSH1 0x11 PUSH1 0x4 MSTORE PUSH1 0x24 PUSH0 REVERT JUMPDEST DUP1 DUP3 MUL DUP2 ISZERO DUP3 DUP3 DIV DUP5 EQ OR PUSH2 0x84B JUMPI PUSH2 0x84B PUSH2 0x4418 JUMP JUMPDEST PUSH0 DUP3 PUSH2 0x445D JUMPI PUSH4 0x4E487B71 PUSH1 0xE0 SHL PUSH0 MSTORE PUSH1 0x12 PUSH1 0x4 MSTORE PUSH1 0x24 PUSH0 REVERT JUMPDEST POP DIV SWAP1 JUMP JUMPDEST PUSH1 0x20 DUP1 DUP3 MSTORE PUSH1 0x16 SWAP1 DUP3 ADD MSTORE PUSH22 0x15985D5B1D0E881D5B9ADB9BDDDB881D1BDAD95B9259 PUSH1 0x52 SHL PUSH1 0x40 DUP3 ADD MSTORE PUSH1 0x60 ADD SWAP1 JUMP JUMPDEST DUP2 DUP2 SUB DUP2 DUP2 GT ISZERO PUSH2 0x84B JUMPI PUSH2 0x84B PUSH2 0x4418 JUMP JUMPDEST DUP1 DUP3 ADD DUP1 DUP3 GT ISZERO PUSH2 0x84B JUMPI PUSH2 0x84B PUSH2 0x4418 JUMP JUMPDEST DUP1 MLOAD PUSH1 0x1 PUSH1 0x1 PUSH1 0x80 SHL SUB DUP2 AND DUP2 EQ PUSH2 0x3F06 JUMPI PUSH0 PUSH0 REVERT JUMPDEST PUSH0 PUSH0 PUSH0 PUSH1 0x60 DUP5 DUP7 SUB SLT ISZERO PUSH2 0x44E0 JUMPI PUSH0 PUSH0 REVERT JUMPDEST PUSH2 0x44E9 DUP5 PUSH2 0x44B8 JUMP JUMPDEST PUSH1 0x20 DUP6 ADD MLOAD PUSH1 0x40 SWAP1 SWAP6 ADD MLOAD SWAP1 SWAP7 SWAP5 SWAP6 POP SWAP4 SWAP3 POP POP POP JUMP JUMPDEST PUSH1 0x20 DUP1 DUP3 MSTORE PUSH1 0x2C SWAP1 DUP3 ADD MSTORE PUSH32 0x46756E6374696F6E206D7573742062652063616C6C6564207468726F75676820 PUSH1 0x40 DUP3 ADD MSTORE PUSH12 0x19195B1959D85D1958D85B1B PUSH1 0xA2 SHL PUSH1 0x60 DUP3 ADD MSTORE PUSH1 0x80 ADD SWAP1 JUMP JUMPDEST PUSH1 0x20 DUP1 DUP3 MSTORE PUSH1 0x2C SWAP1 DUP3 ADD MSTORE PUSH32 0x46756E6374696F6E206D7573742062652063616C6C6564207468726F75676820 PUSH1 0x40 DUP3 ADD MSTORE PUSH12 0x6163746976652070726F7879 PUSH1 0xA0 SHL PUSH1 0x60 DUP3 ADD MSTORE PUSH1 0x80 ADD SWAP1 JUMP JUMPDEST DUP1 MLOAD PUSH1 0xFF DUP2 AND DUP2 EQ PUSH2 0x3F06 JUMPI PUSH0 PUSH0 REVERT JUMPDEST PUSH0 PUSH0 PUSH1 0x40 DUP4 DUP6 SUB SLT ISZERO PUSH2 0x45B9 JUMPI PUSH0 PUSH0 REVERT JUMPDEST DUP3 MLOAD SWAP2 POP PUSH2 0x45C9 PUSH1 0x20 DUP5 ADD PUSH2 0x4598 JUMP JUMPDEST SWAP1 POP SWAP3 POP SWAP3 SWAP1 POP JUMP JUMPDEST DUP2 DUP4 MSTORE DUP2 DUP2 PUSH1 0x20 DUP6 ADD CALLDATACOPY POP PUSH0 DUP3 DUP3 ADD PUSH1 0x20 SWAP1 DUP2 ADD SWAP2 SWAP1 SWAP2 MSTORE PUSH1 0x1F SWAP1 SWAP2 ADD PUSH1 0x1F NOT AND SWAP1 SWAP2 ADD ADD SWAP1 JUMP JUMPDEST PUSH1 0x1 PUSH1 0x1 PUSH1 0xA0 SHL SUB DUP5 AND DUP2 MSTORE PUSH1 0x40 PUSH1 0x20 DUP3 ADD DUP2 SWAP1 MSTORE PUSH0 SWAP1 PUSH2 0xB0D SWAP1 DUP4 ADD DUP5 DUP7 PUSH2 0x45D2 JUMP JUMPDEST DUP1 MLOAD PUSH2 0x3F06 DUP2 PUSH2 0x3EE7 JUMP JUMPDEST DUP1 MLOAD PUSH3 0xFFFFFF DUP2 AND DUP2 EQ PUSH2 0x3F06 JUMPI PUSH0 PUSH0 REVERT JUMPDEST DUP1 MLOAD PUSH1 0x2 DUP2 SWAP1 SIGNEXTEND DUP2 EQ PUSH2 0x3F06 JUMPI PUSH0 PUSH0 REVERT JUMPDEST PUSH0 PUSH0 PUSH0 PUSH0 PUSH0 PUSH0 PUSH0 PUSH0 PUSH0 PUSH0 PUSH0 PUSH0 PUSH2 0x180 DUP14 DUP16 SUB SLT ISZERO PUSH2 0x4668 JUMPI PUSH0 PUSH0 REVERT JUMPDEST DUP13 MLOAD PUSH12 0xFFFFFFFFFFFFFFFFFFFFFFFF DUP2 AND DUP2 EQ PUSH2 0x4683 JUMPI PUSH0 PUSH0 REVERT JUMPDEST SWAP12 POP PUSH2 0x4691 PUSH1 0x20 DUP15 ADD PUSH2 0x461E JUMP JUMPDEST SWAP11 POP PUSH2 0x469F PUSH1 0x40 DUP15 ADD PUSH2 0x461E JUMP JUMPDEST SWAP10 POP PUSH2 0x46AD PUSH1 0x60 DUP15 ADD PUSH2 0x461E JUMP JUMPDEST SWAP9 POP PUSH2 0x46BB PUSH1 0x80 DUP15 ADD PUSH2 0x4629 JUMP JUMPDEST SWAP8 POP PUSH2 0x46C9 PUSH1 0xA0 DUP15 ADD PUSH2 0x463B JUMP JUMPDEST SWAP7 POP PUSH2 0x46D7 PUSH1 0xC0 DUP15 ADD PUSH2 0x463B JUMP JUMPDEST SWAP6 POP PUSH2 0x46E5 PUSH1 0xE0 DUP15 ADD PUSH2 0x44B8 JUMP JUMPDEST PUSH2 0x100 DUP15 ADD MLOAD PUSH2 0x120 DUP16 ADD MLOAD SWAP2 SWAP7 POP SWAP5 POP SWAP3 POP PUSH2 0x4705 PUSH2 0x140 DUP15 ADD PUSH2 0x44B8 JUMP JUMPDEST SWAP2 POP PUSH2 0x4714 PUSH2 0x160 DUP15 ADD PUSH2 0x44B8 JUMP JUMPDEST SWAP1 POP SWAP3 SWAP6 SWAP9 SWAP12 POP SWAP3 SWAP6 SWAP9 SWAP12 POP SWAP3 SWAP6 SWAP9 SWAP12 JUMP JUMPDEST PUSH0 PUSH0 PUSH1 0x40 DUP4 DUP6 SUB SLT ISZERO PUSH2 0x4737 JUMPI PUSH0 PUSH0 REVERT JUMPDEST POP POP DUP1 MLOAD PUSH1 0x20 SWAP1 SWAP2 ADD MLOAD SWAP1 SWAP3 SWAP1 SWAP2 POP JUMP JUMPDEST DUP4 DUP2 MSTORE PUSH1 0x40 PUSH1 0x20 DUP3 ADD MSTORE PUSH0 PUSH2 0xB0D PUSH1 0x40 DUP4 ADD DUP5 DUP7 PUSH2 0x45D2 JUMP JUMPDEST PUSH1 0x1 PUSH1 0x1 PUSH1 0xA0 SHL SUB SWAP4 DUP5 AND DUP2 MSTORE SWAP2 SWAP1 SWAP3 AND PUSH1 0x20 DUP3 ADD MSTORE PUSH3 0xFFFFFF SWAP1 SWAP2 AND PUSH1 0x40 DUP3 ADD MSTORE PUSH1 0x60 ADD SWAP1 JUMP JUMPDEST PUSH0 PUSH1 0x20 DUP3 DUP5 SUB SLT ISZERO PUSH2 0x4799 JUMPI PUSH0 PUSH0 REVERT JUMPDEST DUP2 MLOAD PUSH2 0xF9D DUP2 PUSH2 0x3EE7 JUMP JUMPDEST DUP1 MLOAD PUSH2 0xFFFF DUP2 AND DUP2 EQ PUSH2 0x3F06 JUMPI PUSH0 PUSH0 REVERT JUMPDEST PUSH0 PUSH0 PUSH0 PUSH0 PUSH0 PUSH0 PUSH0 PUSH1 0xE0 DUP9 DUP11 SUB SLT ISZERO PUSH2 0x47CB JUMPI PUSH0 PUSH0 REVERT JUMPDEST DUP8 MLOAD PUSH2 0x47D6 DUP2 PUSH2 0x3EE7 JUMP JUMPDEST SWAP7 POP PUSH2 0x47E4 PUSH1 0x20 DUP10 ADD PUSH2 0x463B JUMP JUMPDEST SWAP6 POP PUSH2 0x47F2 PUSH1 0x40 DUP10 ADD PUSH2 0x47A4 JUMP JUMPDEST SWAP5 POP PUSH2 0x4800 PUSH1 0x60 DUP10 ADD PUSH2 0x47A4 JUMP JUMPDEST SWAP4 POP PUSH2 0x480E PUSH1 0x80 DUP10 ADD PUSH2 0x47A4 JUMP JUMPDEST SWAP3 POP PUSH2 0x481C PUSH1 0xA0 DUP10 ADD PUSH2 0x4598 JUMP JUMPDEST SWAP2 POP PUSH1 0xC0 DUP9 ADD MLOAD DUP1 ISZERO ISZERO DUP2 EQ PUSH2 0x4830 JUMPI PUSH0 PUSH0 REVERT JUMPDEST DUP1 SWAP2 POP POP SWAP3 SWAP6 SWAP9 SWAP2 SWAP5 SWAP8 POP SWAP3 SWAP6 POP JUMP JUMPDEST PUSH1 0x1 DUP2 JUMPDEST PUSH1 0x1 DUP5 GT ISZERO PUSH2 0x487B JUMPI DUP1 DUP6 DIV DUP2 GT ISZERO PUSH2 0x485F JUMPI PUSH2 0x485F PUSH2 0x4418 JUMP JUMPDEST PUSH1 0x1 DUP5 AND ISZERO PUSH2 0x486D JUMPI SWAP1 DUP2 MUL SWAP1 JUMPDEST PUSH1 0x1 SWAP4 SWAP1 SWAP4 SHR SWAP3 DUP1 MUL PUSH2 0x4844 JUMP JUMPDEST SWAP4 POP SWAP4 SWAP2 POP POP JUMP JUMPDEST PUSH0 DUP3 PUSH2 0x4891 JUMPI POP PUSH1 0x1 PUSH2 0x84B JUMP JUMPDEST DUP2 PUSH2 0x489D JUMPI POP PUSH0 PUSH2 0x84B JUMP JUMPDEST DUP2 PUSH1 0x1 DUP2 EQ PUSH2 0x48B3 JUMPI PUSH1 0x2 DUP2 EQ PUSH2 0x48BD JUMPI PUSH2 0x48D9 JUMP JUMPDEST PUSH1 0x1 SWAP2 POP POP PUSH2 0x84B JUMP JUMPDEST PUSH1 0xFF DUP5 GT ISZERO PUSH2 0x48CE JUMPI PUSH2 0x48CE PUSH2 0x4418 JUMP JUMPDEST POP POP PUSH1 0x1 DUP3 SHL PUSH2 0x84B JUMP JUMPDEST POP PUSH1 0x20 DUP4 LT PUSH2 0x133 DUP4 LT AND PUSH1 0x4E DUP5 LT PUSH1 0xB DUP5 LT AND OR ISZERO PUSH2 0x48FC JUMPI POP DUP2 DUP2 EXP PUSH2 0x84B JUMP JUMPDEST PUSH2 0x4908 PUSH0 NOT DUP5 DUP5 PUSH2 0x4840 JUMP JUMPDEST DUP1 PUSH0 NOT DIV DUP3 GT ISZERO PUSH2 0x491B JUMPI PUSH2 0x491B PUSH2 0x4418 JUMP JUMPDEST MUL SWAP4 SWAP3 POP POP POP JUMP JUMPDEST PUSH0 PUSH2 0xF9D PUSH1 0xFF DUP5 AND DUP4 PUSH2 0x4883 JUMP JUMPDEST PUSH4 0x4E487B71 PUSH1 0xE0 SHL PUSH0 MSTORE PUSH1 0x32 PUSH1 0x4 MSTORE PUSH1 0x24 PUSH0 REVERT JUMPDEST PUSH0 PUSH1 0x20 DUP3 DUP5 SUB SLT ISZERO PUSH2 0x4955 JUMPI PUSH0 PUSH0 REVERT JUMPDEST POP MLOAD SWAP2 SWAP1 POP JUMP JUMPDEST PUSH1 0x20 DUP1 DUP3 MSTORE PUSH1 0x2B SWAP1 DUP3 ADD MSTORE PUSH32 0x496E697469616C697A61626C653A20636F6E7472616374206973206E6F742069 PUSH1 0x40 DUP3 ADD MSTORE PUSH11 0x6E697469616C697A696E67 PUSH1 0xA8 SHL PUSH1 0x60 DUP3 ADD MSTORE PUSH1 0x80 ADD SWAP1 JUMP JUMPDEST PUSH0 DUP2 PUSH1 0x2 SIGNEXTEND PUSH3 0x7FFFFF NOT DUP2 SUB PUSH2 0x49BF JUMPI PUSH2 0x49BF PUSH2 0x4418 JUMP JUMPDEST PUSH0 SUB SWAP3 SWAP2 POP POP JUMP JUMPDEST PUSH1 0x1 PUSH1 0x1 PUSH1 0xA0 SHL SUB DUP3 DUP2 AND DUP3 DUP3 AND SUB SWAP1 DUP2 GT ISZERO PUSH2 0x84B JUMPI PUSH2 0x84B PUSH2 0x4418 JUMP JUMPDEST PUSH1 0x1F DUP3 GT ISZERO PUSH2 0xF7A JUMPI DUP1 PUSH0 MSTORE PUSH1 0x20 PUSH0 KECCAK256 PUSH1 0x1F DUP5 ADD PUSH1 0x5 SHR DUP2 ADD PUSH1 0x20 DUP6 LT ISZERO PUSH2 0x4A0B JUMPI POP DUP1 JUMPDEST PUSH1 0x1F DUP5 ADD PUSH1 0x5 SHR DUP3 ADD SWAP2 POP JUMPDEST DUP2 DUP2 LT ISZERO PUSH2 0x2752 JUMPI PUSH0 DUP2 SSTORE PUSH1 0x1 ADD PUSH2 0x4A17 JUMP JUMPDEST DUP2 MLOAD PUSH8 0xFFFFFFFFFFFFFFFF DUP2 GT ISZERO PUSH2 0x4A44 JUMPI PUSH2 0x4A44 PUSH2 0x40EE JUMP JUMPDEST PUSH2 0x4A58 DUP2 PUSH2 0x4A52 DUP5 SLOAD PUSH2 0x43E6 JUMP JUMPDEST DUP5 PUSH2 0x49E6 JUMP JUMPDEST PUSH1 0x20 PUSH1 0x1F DUP3 GT PUSH1 0x1 DUP2 EQ PUSH2 0x4A8A JUMPI PUSH0 DUP4 ISZERO PUSH2 0x4A73 JUMPI POP DUP5 DUP3 ADD MLOAD JUMPDEST PUSH0 NOT PUSH1 0x3 DUP6 SWAP1 SHL SHR NOT AND PUSH1 0x1 DUP5 SWAP1 SHL OR DUP5 SSTORE PUSH2 0x2752 JUMP JUMPDEST PUSH0 DUP5 DUP2 MSTORE PUSH1 0x20 DUP2 KECCAK256 PUSH1 0x1F NOT DUP6 AND SWAP2 JUMPDEST DUP3 DUP2 LT ISZERO PUSH2 0x4AB9 JUMPI DUP8 DUP6 ADD MLOAD DUP3 SSTORE PUSH1 0x20 SWAP5 DUP6 ADD SWAP5 PUSH1 0x1 SWAP1 SWAP3 ADD SWAP2 ADD PUSH2 0x4A99 JUMP JUMPDEST POP DUP5 DUP3 LT ISZERO PUSH2 0x4AD6 JUMPI DUP7 DUP5 ADD MLOAD PUSH0 NOT PUSH1 0x3 DUP8 SWAP1 SHL PUSH1 0xF8 AND SHR NOT AND DUP2 SSTORE JUMPDEST POP POP POP POP PUSH1 0x1 SWAP1 DUP2 SHL ADD SWAP1 SSTORE POP JUMP JUMPDEST PUSH0 DUP3 MLOAD PUSH2 0x4AF6 DUP2 DUP5 PUSH1 0x20 DUP8 ADD PUSH2 0x3E93 JUMP JUMPDEST SWAP2 SWAP1 SWAP2 ADD SWAP3 SWAP2 POP POP JUMP INVALID CALLDATASIZE ADDMOD SWAP5 LOG1 EXTCODESIZE LOG1 LOG3 0x21 MOD PUSH8 0xC828492DB98DCA3E KECCAK256 PUSH23 0xCC3735A920A3CA505D382BBC416464726573733A206C6F PUSH24 0x2D6C6576656C2064656C65676174652063616C6C20666169 PUSH13 0x6564A2646970667358221220F3 MULMOD SAR 0xE7 0xF6 0xD8 NOT 0xEE ADDRESS SWAP7 BLOBHASH PC PUSH10 0x6DDFBCACEF2D04CB2D44 0xBD 0xF7 MLOAD 0xBD RETURNDATACOPY 0xE6 BASEFEE DUP7 PUSH25 0x64736F6C634300081C00330000000000000000000000000000 "
		},
		"gasEstimates": {
			"creation": {
				"codeDepositCost": "3865000",
				"executionCost": "infinite",
				"totalCost": "infinite"
			},
			"external": {
				"allTokenIds(uint256)": "4661",
				"allowance(address,address)": "infinite",
				"approve(address,uint256)": "24685",
				"balanceOf(address)": "2640",
				"decimals()": "244",
				"decreaseAllowance(address,uint256)": "27049",
				"depositAdditional(uint256,uint256,uint256)": "infinite",
				"getUnderlyingPrice()": "infinite",
				"increaseAllowance(address,uint256)": "infinite",
				"initialize(address,address,address,address,address,address,address,string,string,uint256)": "infinite",
				"liquidatePosition(address,bytes)": "infinite",
				"liquidator()": "2370",
				"maxSlippageBps()": "2382",
				"name()": "infinite",
				"nftPositions(uint256)": "6895",
				"onERC721Received(address,address,uint256,bytes)": "infinite",
				"oracleManager()": "2393",
				"owner()": "2452",
				"pauseVault()": "infinite",
				"paused()": "2393",
				"positionManager()": "2392",
				"proxiableUUID()": "infinite",
				"rebalanceVault(uint256,bytes)": "infinite",
				"rebalancer()": "2372",
				"rebalancerMintShares(uint256,address)": "infinite",
				"removeLiquidity(uint256,uint256)": "infinite",
				"renounceOwnership()": "infinite",
				"requiredPool()": "2370",
				"seizeShares(address,uint256,address)": "infinite",
				"setExternalContracts(address,address,address)": "infinite",
				"setMaxSlippageBps(uint256)": "28008",
				"symbol()": "infinite",
				"totalSupply()": "2326",
				"transfer(address,uint256)": "51180",
				"transferFrom(address,address,uint256)": "infinite",
				"transferOwnership(address)": "infinite",
				"uniswapFactory()": "2436",
				"unpauseVault()": "infinite",
				"upgradeTo(address)": "infinite",
				"upgradeToAndCall(address,bytes)": "infinite",
				"withdrawNFT(uint256,address)": "infinite"
			},
			"internal": {
				"_authorizeUpgrade(address)": "infinite",
				"_ensureCorrectPool(uint256)": "infinite",
				"_estimateTokenAmounts(uint256,uint128)": "infinite",
				"_getNftValue(uint256)": "infinite",
				"_getTotalVaultValue()": "infinite"
			}
		},
		"methodIdentifiers": {
			"allTokenIds(uint256)": "7d07b2d2",
			"allowance(address,address)": "dd62ed3e",
			"approve(address,uint256)": "095ea7b3",
			"balanceOf(address)": "70a08231",
			"decimals()": "313ce567",
			"decreaseAllowance(address,uint256)": "a457c2d7",
			"depositAdditional(uint256,uint256,uint256)": "2122f53b",
			"getUnderlyingPrice()": "468f02d2",
			"increaseAllowance(address,uint256)": "39509351",
			"initialize(address,address,address,address,address,address,address,string,string,uint256)": "4bf1878b",
			"liquidatePosition(address,bytes)": "55a164be",
			"liquidator()": "4046ebae",
			"maxSlippageBps()": "c4aa7395",
			"name()": "06fdde03",
			"nftPositions(uint256)": "25a4015d",
			"onERC721Received(address,address,uint256,bytes)": "150b7a02",
			"oracleManager()": "565d878c",
			"owner()": "8da5cb5b",
			"pauseVault()": "9e0879c2",
			"paused()": "5c975abb",
			"positionManager()": "791b98bc",
			"proxiableUUID()": "52d1902d",
			"rebalanceVault(uint256,bytes)": "b40b3e4c",
			"rebalancer()": "01d22ccd",
			"rebalancerMintShares(uint256,address)": "38de1815",
			"removeLiquidity(uint256,uint256)": "9d7de6b3",
			"renounceOwnership()": "715018a6",
			"requiredPool()": "76e924a8",
			"seizeShares(address,uint256,address)": "1d14cd0f",
			"setExternalContracts(address,address,address)": "c7493fd6",
			"setMaxSlippageBps(uint256)": "25fc1b3d",
			"symbol()": "95d89b41",
			"totalSupply()": "18160ddd",
			"transfer(address,uint256)": "a9059cbb",
			"transferFrom(address,address,uint256)": "23b872dd",
			"transferOwnership(address)": "f2fde38b",
			"uniswapFactory()": "8bdb2afa",
			"unpauseVault()": "0b7562be",
			"upgradeTo(address)": "3659cfe6",
			"upgradeToAndCall(address,bytes)": "4f1ef286",
			"withdrawNFT(uint256,address)": "c1d2d00d"
		}
	},
	"abi": [
		{
			"anonymous": false,
			"inputs": [
				{
					"indexed": false,
					"internalType": "address",
					"name": "previousAdmin",
					"type": "address"
				},
				{
					"indexed": false,
					"internalType": "address",
					"name": "newAdmin",
					"type": "address"
				}
			],
			"name": "AdminChanged",
			"type": "event"
		},
		{
			"anonymous": false,
			"inputs": [
				{
					"indexed": true,
					"internalType": "address",
					"name": "owner",
					"type": "address"
				},
				{
					"indexed": true,
					"internalType": "address",
					"name": "spender",
					"type": "address"
				},
				{
					"indexed": false,
					"internalType": "uint256",
					"name": "value",
					"type": "uint256"
				}
			],
			"name": "Approval",
			"type": "event"
		},
		{
			"anonymous": false,
			"inputs": [
				{
					"indexed": true,
					"internalType": "address",
					"name": "beacon",
					"type": "address"
				}
			],
			"name": "BeaconUpgraded",
			"type": "event"
		},
		{
			"anonymous": false,
			"inputs": [
				{
					"indexed": true,
					"internalType": "address",
					"name": "oracle",
					"type": "address"
				},
				{
					"indexed": true,
					"internalType": "address",
					"name": "rebalancer",
					"type": "address"
				},
				{
					"indexed": true,
					"internalType": "address",
					"name": "liquidator",
					"type": "address"
				}
			],
			"name": "ExternalContractsUpdated",
			"type": "event"
		},
		{
			"anonymous": false,
			"inputs": [
				{
					"indexed": false,
					"internalType": "uint8",
					"name": "version",
					"type": "uint8"
				}
			],
			"name": "Initialized",
			"type": "event"
		},
		{
			"anonymous": false,
			"inputs": [
				{
					"indexed": true,
					"internalType": "address",
					"name": "user",
					"type": "address"
				},
				{
					"indexed": false,
					"internalType": "uint256",
					"name": "tokenId",
					"type": "uint256"
				},
				{
					"indexed": false,
					"internalType": "uint256",
					"name": "mintedShares",
					"type": "uint256"
				},
				{
					"indexed": false,
					"internalType": "uint256",
					"name": "addedValue",
					"type": "uint256"
				}
			],
			"name": "LiquidityAdded",
			"type": "event"
		},
		{
			"anonymous": false,
			"inputs": [
				{
					"indexed": true,
					"internalType": "address",
					"name": "user",
					"type": "address"
				},
				{
					"indexed": false,
					"internalType": "uint256",
					"name": "tokenId",
					"type": "uint256"
				},
				{
					"indexed": false,
					"internalType": "uint256",
					"name": "burnedShares",
					"type": "uint256"
				},
				{
					"indexed": false,
					"internalType": "uint256",
					"name": "removedValue",
					"type": "uint256"
				}
			],
			"name": "LiquidityRemoved",
			"type": "event"
		},
		{
			"anonymous": false,
			"inputs": [
				{
					"indexed": true,
					"internalType": "address",
					"name": "user",
					"type": "address"
				},
				{
					"indexed": false,
					"internalType": "uint256",
					"name": "tokenId",
					"type": "uint256"
				},
				{
					"indexed": false,
					"internalType": "uint256",
					"name": "mintedShares",
					"type": "uint256"
				},
				{
					"indexed": false,
					"internalType": "uint256",
					"name": "nftValue",
					"type": "uint256"
				}
			],
			"name": "NftDeposited",
			"type": "event"
		},
		{
			"anonymous": false,
			"inputs": [
				{
					"indexed": true,
					"internalType": "address",
					"name": "user",
					"type": "address"
				},
				{
					"indexed": false,
					"internalType": "uint256",
					"name": "tokenId",
					"type": "uint256"
				},
				{
					"indexed": false,
					"internalType": "uint256",
					"name": "burnedShares",
					"type": "uint256"
				},
				{
					"indexed": false,
					"internalType": "uint256",
					"name": "nftValue",
					"type": "uint256"
				}
			],
			"name": "NftWithdrawn",
			"type": "event"
		},
		{
			"anonymous": false,
			"inputs": [
				{
					"indexed": true,
					"internalType": "address",
					"name": "previousOwner",
					"type": "address"
				},
				{
					"indexed": true,
					"internalType": "address",
					"name": "newOwner",
					"type": "address"
				}
			],
			"name": "OwnershipTransferred",
			"type": "event"
		},
		{
			"anonymous": false,
			"inputs": [
				{
					"indexed": false,
					"internalType": "address",
					"name": "account",
					"type": "address"
				}
			],
			"name": "Paused",
			"type": "event"
		},
		{
			"anonymous": false,
			"inputs": [
				{
					"indexed": false,
					"internalType": "uint256",
					"name": "extraValue",
					"type": "uint256"
				},
				{
					"indexed": false,
					"internalType": "address",
					"name": "to",
					"type": "address"
				},
				{
					"indexed": false,
					"internalType": "uint256",
					"name": "mintedShares",
					"type": "uint256"
				}
			],
			"name": "RebalancerSharesMinted",
			"type": "event"
		},
		{
			"anonymous": false,
			"inputs": [
				{
					"indexed": false,
					"internalType": "address",
					"name": "user",
					"type": "address"
				},
				{
					"indexed": false,
					"internalType": "uint256",
					"name": "shares",
					"type": "uint256"
				},
				{
					"indexed": false,
					"internalType": "address",
					"name": "recipient",
					"type": "address"
				}
			],
			"name": "SharesSeized",
			"type": "event"
		},
		{
			"anonymous": false,
			"inputs": [
				{
					"indexed": false,
					"internalType": "uint256",
					"name": "oldSlippageBps",
					"type": "uint256"
				},
				{
					"indexed": false,
					"internalType": "uint256",
					"name": "newSlippageBps",
					"type": "uint256"
				}
			],
			"name": "SlippageUpdated",
			"type": "event"
		},
		{
			"anonymous": false,
			"inputs": [
				{
					"indexed": true,
					"internalType": "address",
					"name": "from",
					"type": "address"
				},
				{
					"indexed": true,
					"internalType": "address",
					"name": "to",
					"type": "address"
				},
				{
					"indexed": false,
					"internalType": "uint256",
					"name": "value",
					"type": "uint256"
				}
			],
			"name": "Transfer",
			"type": "event"
		},
		{
			"anonymous": false,
			"inputs": [
				{
					"indexed": false,
					"internalType": "address",
					"name": "account",
					"type": "address"
				}
			],
			"name": "Unpaused",
			"type": "event"
		},
		{
			"anonymous": false,
			"inputs": [
				{
					"indexed": true,
					"internalType": "address",
					"name": "implementation",
					"type": "address"
				}
			],
			"name": "Upgraded",
			"type": "event"
		},
		{
			"anonymous": false,
			"inputs": [
				{
					"indexed": false,
					"internalType": "address",
					"name": "user",
					"type": "address"
				},
				{
					"indexed": false,
					"internalType": "bytes",
					"name": "data",
					"type": "bytes"
				}
			],
			"name": "VaultLiquidated",
			"type": "event"
		},
		{
			"anonymous": false,
			"inputs": [
				{
					"indexed": false,
					"internalType": "uint256",
					"name": "tokenId",
					"type": "uint256"
				},
				{
					"indexed": false,
					"internalType": "bytes",
					"name": "data",
					"type": "bytes"
				}
			],
			"name": "VaultRebalanced",
			"type": "event"
		},
		{
			"inputs": [
				{
					"internalType": "uint256",
					"name": "",
					"type": "uint256"
				}
			],
			"name": "allTokenIds",
			"outputs": [
				{
					"internalType": "uint256",
					"name": "",
					"type": "uint256"
				}
			],
			"stateMutability": "view",
			"type": "function"
		},
		{
			"inputs": [
				{
					"internalType": "address",
					"name": "owner",
					"type": "address"
				},
				{
					"internalType": "address",
					"name": "spender",
					"type": "address"
				}
			],
			"name": "allowance",
			"outputs": [
				{
					"internalType": "uint256",
					"name": "",
					"type": "uint256"
				}
			],
			"stateMutability": "view",
			"type": "function"
		},
		{
			"inputs": [
				{
					"internalType": "address",
					"name": "spender",
					"type": "address"
				},
				{
					"internalType": "uint256",
					"name": "amount",
					"type": "uint256"
				}
			],
			"name": "approve",
			"outputs": [
				{
					"internalType": "bool",
					"name": "",
					"type": "bool"
				}
			],
			"stateMutability": "nonpayable",
			"type": "function"
		},
		{
			"inputs": [
				{
					"internalType": "address",
					"name": "account",
					"type": "address"
				}
			],
			"name": "balanceOf",
			"outputs": [
				{
					"internalType": "uint256",
					"name": "",
					"type": "uint256"
				}
			],
			"stateMutability": "view",
			"type": "function"
		},
		{
			"inputs": [],
			"name": "decimals",
			"outputs": [
				{
					"internalType": "uint8",
					"name": "",
					"type": "uint8"
				}
			],
			"stateMutability": "view",
			"type": "function"
		},
		{
			"inputs": [
				{
					"internalType": "address",
					"name": "spender",
					"type": "address"
				},
				{
					"internalType": "uint256",
					"name": "subtractedValue",
					"type": "uint256"
				}
			],
			"name": "decreaseAllowance",
			"outputs": [
				{
					"internalType": "bool",
					"name": "",
					"type": "bool"
				}
			],
			"stateMutability": "nonpayable",
			"type": "function"
		},
		{
			"inputs": [
				{
					"internalType": "uint256",
					"name": "tokenId",
					"type": "uint256"
				},
				{
					"internalType": "uint256",
					"name": "amount0Desired",
					"type": "uint256"
				},
				{
					"internalType": "uint256",
					"name": "amount1Desired",
					"type": "uint256"
				}
			],
			"name": "depositAdditional",
			"outputs": [],
			"stateMutability": "nonpayable",
			"type": "function"
		},
		{
			"inputs": [],
			"name": "getUnderlyingPrice",
			"outputs": [
				{
					"internalType": "uint256",
					"name": "price",
					"type": "uint256"
				},
				{
					"internalType": "uint8",
					"name": "decimals",
					"type": "uint8"
				}
			],
			"stateMutability": "view",
			"type": "function"
		},
		{
			"inputs": [
				{
					"internalType": "address",
					"name": "spender",
					"type": "address"
				},
				{
					"internalType": "uint256",
					"name": "addedValue",
					"type": "uint256"
				}
			],
			"name": "increaseAllowance",
			"outputs": [
				{
					"internalType": "bool",
					"name": "",
					"type": "bool"
				}
			],
			"stateMutability": "nonpayable",
			"type": "function"
		},
		{
			"inputs": [
				{
					"internalType": "address",
					"name": "_positionManager",
					"type": "address"
				},
				{
					"internalType": "address",
					"name": "_uniswapFactory",
					"type": "address"
				},
				{
					"internalType": "address",
					"name": "_requiredPool",
					"type": "address"
				},
				{
					"internalType": "address",
					"name": "_oracleMgr",
					"type": "address"
				},
				{
					"internalType": "address",
					"name": "_rebalancer",
					"type": "address"
				},
				{
					"internalType": "address",
					"name": "_liquidator",
					"type": "address"
				},
				{
					"internalType": "address",
					"name": "_owner",
					"type": "address"
				},
				{
					"internalType": "string",
					"name": "_name",
					"type": "string"
				},
				{
					"internalType": "string",
					"name": "_symbol",
					"type": "string"
				},
				{
					"internalType": "uint256",
					"name": "_maxSlippageBps",
					"type": "uint256"
				}
			],
			"name": "initialize",
			"outputs": [],
			"stateMutability": "nonpayable",
			"type": "function"
		},
		{
			"inputs": [
				{
					"internalType": "address",
					"name": "user",
					"type": "address"
				},
				{
					"internalType": "bytes",
					"name": "data",
					"type": "bytes"
				}
			],
			"name": "liquidatePosition",
			"outputs": [],
			"stateMutability": "nonpayable",
			"type": "function"
		},
		{
			"inputs": [],
			"name": "liquidator",
			"outputs": [
				{
					"internalType": "contract LiquidatorType",
					"name": "",
					"type": "address"
				}
			],
			"stateMutability": "view",
			"type": "function"
		},
		{
			"inputs": [],
			"name": "maxSlippageBps",
			"outputs": [
				{
					"internalType": "uint256",
					"name": "",
					"type": "uint256"
				}
			],
			"stateMutability": "view",
			"type": "function"
		},
		{
			"inputs": [],
			"name": "name",
			"outputs": [
				{
					"internalType": "string",
					"name": "",
					"type": "string"
				}
			],
			"stateMutability": "view",
			"type": "function"
		},
		{
			"inputs": [
				{
					"internalType": "uint256",
					"name": "",
					"type": "uint256"
				}
			],
			"name": "nftPositions",
			"outputs": [
				{
					"internalType": "bool",
					"name": "exists",
					"type": "bool"
				},
				{
					"internalType": "uint256",
					"name": "mintedShares",
					"type": "uint256"
				},
				{
					"internalType": "address",
					"name": "originalDepositor",
					"type": "address"
				}
			],
			"stateMutability": "view",
			"type": "function"
		},
		{
			"inputs": [
				{
					"internalType": "address",
					"name": "operator",
					"type": "address"
				},
				{
					"internalType": "address",
					"name": "from",
					"type": "address"
				},
				{
					"internalType": "uint256",
					"name": "tokenId",
					"type": "uint256"
				},
				{
					"internalType": "bytes",
					"name": "",
					"type": "bytes"
				}
			],
			"name": "onERC721Received",
			"outputs": [
				{
					"internalType": "bytes4",
					"name": "",
					"type": "bytes4"
				}
			],
			"stateMutability": "nonpayable",
			"type": "function"
		},
		{
			"inputs": [],
			"name": "oracleManager",
			"outputs": [
				{
					"internalType": "contract OracleManagerType",
					"name": "",
					"type": "address"
				}
			],
			"stateMutability": "view",
			"type": "function"
		},
		{
			"inputs": [],
			"name": "owner",
			"outputs": [
				{
					"internalType": "address",
					"name": "",
					"type": "address"
				}
			],
			"stateMutability": "view",
			"type": "function"
		},
		{
			"inputs": [],
			"name": "pauseVault",
			"outputs": [],
			"stateMutability": "nonpayable",
			"type": "function"
		},
		{
			"inputs": [],
			"name": "paused",
			"outputs": [
				{
					"internalType": "bool",
					"name": "",
					"type": "bool"
				}
			],
			"stateMutability": "view",
			"type": "function"
		},
		{
			"inputs": [],
			"name": "positionManager",
			"outputs": [
				{
					"internalType": "contract INonfungiblePositionManager",
					"name": "",
					"type": "address"
				}
			],
			"stateMutability": "view",
			"type": "function"
		},
		{
			"inputs": [],
			"name": "proxiableUUID",
			"outputs": [
				{
					"internalType": "bytes32",
					"name": "",
					"type": "bytes32"
				}
			],
			"stateMutability": "view",
			"type": "function"
		},
		{
			"inputs": [
				{
					"internalType": "uint256",
					"name": "tokenId",
					"type": "uint256"
				},
				{
					"internalType": "bytes",
					"name": "data",
					"type": "bytes"
				}
			],
			"name": "rebalanceVault",
			"outputs": [],
			"stateMutability": "nonpayable",
			"type": "function"
		},
		{
			"inputs": [],
			"name": "rebalancer",
			"outputs": [
				{
					"internalType": "contract RebalancerType",
					"name": "",
					"type": "address"
				}
			],
			"stateMutability": "view",
			"type": "function"
		},
		{
			"inputs": [
				{
					"internalType": "uint256",
					"name": "extraValue",
					"type": "uint256"
				},
				{
					"internalType": "address",
					"name": "to",
					"type": "address"
				}
			],
			"name": "rebalancerMintShares",
			"outputs": [],
			"stateMutability": "nonpayable",
			"type": "function"
		},
		{
			"inputs": [
				{
					"internalType": "uint256",
					"name": "tokenId",
					"type": "uint256"
				},
				{
					"internalType": "uint256",
					"name": "sharesToBurn",
					"type": "uint256"
				}
			],
			"name": "removeLiquidity",
			"outputs": [],
			"stateMutability": "nonpayable",
			"type": "function"
		},
		{
			"inputs": [],
			"name": "renounceOwnership",
			"outputs": [],
			"stateMutability": "nonpayable",
			"type": "function"
		},
		{
			"inputs": [],
			"name": "requiredPool",
			"outputs": [
				{
					"internalType": "address",
					"name": "",
					"type": "address"
				}
			],
			"stateMutability": "view",
			"type": "function"
		},
		{
			"inputs": [
				{
					"internalType": "address",
					"name": "from",
					"type": "address"
				},
				{
					"internalType": "uint256",
					"name": "shares",
					"type": "uint256"
				},
				{
					"internalType": "address",
					"name": "recipient",
					"type": "address"
				}
			],
			"name": "seizeShares",
			"outputs": [],
			"stateMutability": "nonpayable",
			"type": "function"
		},
		{
			"inputs": [
				{
					"internalType": "address",
					"name": "_oracleMgr",
					"type": "address"
				},
				{
					"internalType": "address",
					"name": "_rebalancer",
					"type": "address"
				},
				{
					"internalType": "address",
					"name": "_liquidator",
					"type": "address"
				}
			],
			"name": "setExternalContracts",
			"outputs": [],
			"stateMutability": "nonpayable",
			"type": "function"
		},
		{
			"inputs": [
				{
					"internalType": "uint256",
					"name": "newSlippageBps",
					"type": "uint256"
				}
			],
			"name": "setMaxSlippageBps",
			"outputs": [],
			"stateMutability": "nonpayable",
			"type": "function"
		},
		{
			"inputs": [],
			"name": "symbol",
			"outputs": [
				{
					"internalType": "string",
					"name": "",
					"type": "string"
				}
			],
			"stateMutability": "view",
			"type": "function"
		},
		{
			"inputs": [],
			"name": "totalSupply",
			"outputs": [
				{
					"internalType": "uint256",
					"name": "",
					"type": "uint256"
				}
			],
			"stateMutability": "view",
			"type": "function"
		},
		{
			"inputs": [
				{
					"internalType": "address",
					"name": "to",
					"type": "address"
				},
				{
					"internalType": "uint256",
					"name": "amount",
					"type": "uint256"
				}
			],
			"name": "transfer",
			"outputs": [
				{
					"internalType": "bool",
					"name": "",
					"type": "bool"
				}
			],
			"stateMutability": "nonpayable",
			"type": "function"
		},
		{
			"inputs": [
				{
					"internalType": "address",
					"name": "from",
					"type": "address"
				},
				{
					"internalType": "address",
					"name": "to",
					"type": "address"
				},
				{
					"internalType": "uint256",
					"name": "amount",
					"type": "uint256"
				}
			],
			"name": "transferFrom",
			"outputs": [
				{
					"internalType": "bool",
					"name": "",
					"type": "bool"
				}
			],
			"stateMutability": "nonpayable",
			"type": "function"
		},
		{
			"inputs": [
				{
					"internalType": "address",
					"name": "newOwner",
					"type": "address"
				}
			],
			"name": "transferOwnership",
			"outputs": [],
			"stateMutability": "nonpayable",
			"type": "function"
		},
		{
			"inputs": [],
			"name": "uniswapFactory",
			"outputs": [
				{
					"internalType": "contract IUniswapV3Factory",
					"name": "",
					"type": "address"
				}
			],
			"stateMutability": "view",
			"type": "function"
		},
		{
			"inputs": [],
			"name": "unpauseVault",
			"outputs": [],
			"stateMutability": "nonpayable",
			"type": "function"
		},
		{
			"inputs": [
				{
					"internalType": "address",
					"name": "newImplementation",
					"type": "address"
				}
			],
			"name": "upgradeTo",
			"outputs": [],
			"stateMutability": "nonpayable",
			"type": "function"
		},
		{
			"inputs": [
				{
					"internalType": "address",
					"name": "newImplementation",
					"type": "address"
				},
				{
					"internalType": "bytes",
					"name": "data",
					"type": "bytes"
				}
			],
			"name": "upgradeToAndCall",
			"outputs": [],
			"stateMutability": "payable",
			"type": "function"
		},
		{
			"inputs": [
				{
					"internalType": "uint256",
					"name": "tokenId",
					"type": "uint256"
				},
				{
					"internalType": "address",
					"name": "to",
					"type": "address"
				}
			],
			"name": "withdrawNFT",
			"outputs": [],
			"stateMutability": "nonpayable",
			"type": "function"
		},
		{
			"stateMutability": "payable",
			"type": "receive"
		}
	]
}